{
	"contracts/myContract.sol": {
		"testContract": {
			"abi": [
				{
					"inputs": [
						{
							"internalType": "uint256",
							"name": "fee",
							"type": "uint256"
						}
					],
					"stateMutability": "nonpayable",
					"type": "constructor"
				},
				{
					"anonymous": false,
					"inputs": [
						{
							"indexed": false,
							"internalType": "address",
							"name": "addr",
							"type": "address"
						},
						{
							"indexed": false,
							"internalType": "uint256",
							"name": "amount",
							"type": "uint256"
						}
					],
					"name": "Received",
					"type": "event"
				},
				{
					"anonymous": false,
					"inputs": [
						{
							"indexed": false,
							"internalType": "string",
							"name": "name",
							"type": "string"
						},
						{
							"indexed": false,
							"internalType": "address",
							"name": "addr",
							"type": "address"
						}
					],
					"name": "SubscriberPrint",
					"type": "event"
				},
				{
					"stateMutability": "payable",
					"type": "fallback"
				},
				{
					"inputs": [
						{
							"internalType": "string",
							"name": "userName",
							"type": "string"
						}
					],
					"name": "addSubscriber",
					"outputs": [],
					"stateMutability": "payable",
					"type": "function"
				},
				{
					"inputs": [],
					"name": "author",
					"outputs": [
						{
							"internalType": "address payable",
							"name": "",
							"type": "address"
						}
					],
					"stateMutability": "view",
					"type": "function"
				},
				{
					"inputs": [],
					"name": "getAuthorBalance",
					"outputs": [
						{
							"internalType": "uint256",
							"name": "",
							"type": "uint256"
						}
					],
					"stateMutability": "view",
					"type": "function"
				},
				{
					"inputs": [],
					"name": "getContractBalance",
					"outputs": [
						{
							"internalType": "uint256",
							"name": "",
							"type": "uint256"
						}
					],
					"stateMutability": "view",
					"type": "function"
				},
				{
					"inputs": [],
					"name": "getSubscriberCount",
					"outputs": [
						{
							"internalType": "uint256",
							"name": "",
							"type": "uint256"
						}
					],
					"stateMutability": "view",
					"type": "function"
				},
				{
					"inputs": [],
					"name": "printSubscribersList",
					"outputs": [],
					"stateMutability": "nonpayable",
					"type": "function"
				},
				{
					"inputs": [],
					"name": "subscriberCount",
					"outputs": [
						{
							"internalType": "uint256",
							"name": "",
							"type": "uint256"
						}
					],
					"stateMutability": "view",
					"type": "function"
				},
				{
					"inputs": [
						{
							"internalType": "uint256",
							"name": "",
							"type": "uint256"
						}
					],
					"name": "subscribers",
					"outputs": [
						{
							"internalType": "string",
							"name": "name",
							"type": "string"
						},
						{
							"internalType": "address",
							"name": "addr",
							"type": "address"
						}
					],
					"stateMutability": "view",
					"type": "function"
				},
				{
					"inputs": [],
					"name": "subscriptionFee",
					"outputs": [
						{
							"internalType": "uint256",
							"name": "",
							"type": "uint256"
						}
					],
					"stateMutability": "view",
					"type": "function"
				},
				{
					"stateMutability": "payable",
					"type": "receive"
				}
			],
			"devdoc": {
				"kind": "dev",
				"methods": {},
				"version": 1
			},
			"evm": {
				"assembly": "    /* \"contracts/myContract.sol\":76:1693  contract testContract {\r... */\n  mstore(0x40, 0x80)\n    /* \"contracts/myContract.sol\":194:195  0 */\n  0x00\n    /* \"contracts/myContract.sol\":164:195  uint public subscriberCount = 0 */\n  0x01\n  sstore\n    /* \"contracts/myContract.sol\":460:567  constructor(uint fee){\r... */\n  callvalue\n  dup1\n  iszero\n  tag_1\n  jumpi\n  0x00\n  dup1\n  revert\ntag_1:\n  pop\n  mload(0x40)\n  sub(codesize, bytecodeSize)\n  dup1\n  bytecodeSize\n  dup4\n  codecopy\n  dup2\n  dup2\n  add\n  0x40\n  mstore\n  dup2\n  add\n  swap1\n  tag_2\n  swap2\n  swap1\n  tag_3\n  jump\t// in\ntag_2:\n    /* \"contracts/myContract.sol\":509:519  msg.sender */\n  caller\n    /* \"contracts/myContract.sol\":492:498  author */\n  0x02\n  0x00\n    /* \"contracts/myContract.sol\":492:520  author = payable(msg.sender) */\n  0x0100\n  exp\n  dup2\n  sload\n  dup2\n  0xffffffffffffffffffffffffffffffffffffffff\n  mul\n  not\n  and\n  swap1\n  dup4\n  0xffffffffffffffffffffffffffffffffffffffff\n  and\n  mul\n  or\n  swap1\n  sstore\n  pop\n    /* \"contracts/myContract.sol\":555:559  1e18 */\n  0x0de0b6b3a7640000\n    /* \"contracts/myContract.sol\":549:552  fee */\n  dup2\n    /* \"contracts/myContract.sol\":549:559  fee * 1e18 */\n  tag_6\n  swap2\n  swap1\n  tag_7\n  jump\t// in\ntag_6:\n    /* \"contracts/myContract.sol\":531:546  subscriptionFee */\n  0x03\n    /* \"contracts/myContract.sol\":531:559  subscriptionFee = fee * 1e18 */\n  dup2\n  swap1\n  sstore\n  pop\n    /* \"contracts/myContract.sol\":460:567  constructor(uint fee){\r... */\n  pop\n    /* \"contracts/myContract.sol\":76:1693  contract testContract {\r... */\n  jump(tag_8)\n    /* \"#utility.yul\":7:150   */\ntag_10:\n    /* \"#utility.yul\":64:69   */\n  0x00\n    /* \"#utility.yul\":95:101   */\n  dup2\n    /* \"#utility.yul\":89:102   */\n  mload\n    /* \"#utility.yul\":80:102   */\n  swap1\n  pop\n    /* \"#utility.yul\":111:144   */\n  tag_12\n    /* \"#utility.yul\":138:143   */\n  dup2\n    /* \"#utility.yul\":111:144   */\n  tag_13\n  jump\t// in\ntag_12:\n    /* \"#utility.yul\":7:150   */\n  swap3\n  swap2\n  pop\n  pop\n  jump\t// out\n    /* \"#utility.yul\":156:507   */\ntag_3:\n    /* \"#utility.yul\":226:232   */\n  0x00\n    /* \"#utility.yul\":275:277   */\n  0x20\n    /* \"#utility.yul\":263:272   */\n  dup3\n    /* \"#utility.yul\":254:261   */\n  dup5\n    /* \"#utility.yul\":250:273   */\n  sub\n    /* \"#utility.yul\":246:278   */\n  slt\n    /* \"#utility.yul\":243:362   */\n  iszero\n  tag_15\n  jumpi\n    /* \"#utility.yul\":281:360   */\n  tag_16\n  tag_17\n  jump\t// in\ntag_16:\n    /* \"#utility.yul\":243:362   */\ntag_15:\n    /* \"#utility.yul\":401:402   */\n  0x00\n    /* \"#utility.yul\":426:490   */\n  tag_18\n    /* \"#utility.yul\":482:489   */\n  dup5\n    /* \"#utility.yul\":473:479   */\n  dup3\n    /* \"#utility.yul\":462:471   */\n  dup6\n    /* \"#utility.yul\":458:480   */\n  add\n    /* \"#utility.yul\":426:490   */\n  tag_10\n  jump\t// in\ntag_18:\n    /* \"#utility.yul\":416:490   */\n  swap2\n  pop\n    /* \"#utility.yul\":372:500   */\n  pop\n    /* \"#utility.yul\":156:507   */\n  swap3\n  swap2\n  pop\n  pop\n  jump\t// out\n    /* \"#utility.yul\":594:942   */\ntag_7:\n    /* \"#utility.yul\":634:641   */\n  0x00\n    /* \"#utility.yul\":657:677   */\n  tag_22\n    /* \"#utility.yul\":675:676   */\n  dup3\n    /* \"#utility.yul\":657:677   */\n  tag_23\n  jump\t// in\ntag_22:\n    /* \"#utility.yul\":652:677   */\n  swap2\n  pop\n    /* \"#utility.yul\":691:711   */\n  tag_24\n    /* \"#utility.yul\":709:710   */\n  dup4\n    /* \"#utility.yul\":691:711   */\n  tag_23\n  jump\t// in\ntag_24:\n    /* \"#utility.yul\":686:711   */\n  swap3\n  pop\n    /* \"#utility.yul\":879:880   */\n  dup2\n    /* \"#utility.yul\":811:877   */\n  0xffffffffffffffffffffffffffffffffffffffffffffffffffffffffffffffff\n    /* \"#utility.yul\":807:881   */\n  div\n    /* \"#utility.yul\":804:805   */\n  dup4\n    /* \"#utility.yul\":801:882   */\n  gt\n    /* \"#utility.yul\":796:797   */\n  dup3\n    /* \"#utility.yul\":789:798   */\n  iszero\n    /* \"#utility.yul\":782:799   */\n  iszero\n    /* \"#utility.yul\":778:883   */\n  and\n    /* \"#utility.yul\":775:906   */\n  iszero\n  tag_25\n  jumpi\n    /* \"#utility.yul\":886:904   */\n  tag_26\n  tag_27\n  jump\t// in\ntag_26:\n    /* \"#utility.yul\":775:906   */\ntag_25:\n    /* \"#utility.yul\":934:935   */\n  dup3\n    /* \"#utility.yul\":931:932   */\n  dup3\n    /* \"#utility.yul\":927:936   */\n  mul\n    /* \"#utility.yul\":916:936   */\n  swap1\n  pop\n    /* \"#utility.yul\":594:942   */\n  swap3\n  swap2\n  pop\n  pop\n  jump\t// out\n    /* \"#utility.yul\":948:1025   */\ntag_23:\n    /* \"#utility.yul\":985:992   */\n  0x00\n    /* \"#utility.yul\":1014:1019   */\n  dup2\n    /* \"#utility.yul\":1003:1019   */\n  swap1\n  pop\n    /* \"#utility.yul\":948:1025   */\n  swap2\n  swap1\n  pop\n  jump\t// out\n    /* \"#utility.yul\":1031:1211   */\ntag_27:\n    /* \"#utility.yul\":1079:1156   */\n  0x4e487b7100000000000000000000000000000000000000000000000000000000\n    /* \"#utility.yul\":1076:1077   */\n  0x00\n    /* \"#utility.yul\":1069:1157   */\n  mstore\n    /* \"#utility.yul\":1176:1180   */\n  0x11\n    /* \"#utility.yul\":1173:1174   */\n  0x04\n    /* \"#utility.yul\":1166:1181   */\n  mstore\n    /* \"#utility.yul\":1200:1204   */\n  0x24\n    /* \"#utility.yul\":1197:1198   */\n  0x00\n    /* \"#utility.yul\":1190:1205   */\n  revert\n    /* \"#utility.yul\":1340:1457   */\ntag_17:\n    /* \"#utility.yul\":1449:1450   */\n  0x00\n    /* \"#utility.yul\":1446:1447   */\n  dup1\n    /* \"#utility.yul\":1439:1451   */\n  revert\n    /* \"#utility.yul\":1463:1585   */\ntag_13:\n    /* \"#utility.yul\":1536:1560   */\n  tag_34\n    /* \"#utility.yul\":1554:1559   */\n  dup2\n    /* \"#utility.yul\":1536:1560   */\n  tag_23\n  jump\t// in\ntag_34:\n    /* \"#utility.yul\":1529:1534   */\n  dup2\n    /* \"#utility.yul\":1526:1561   */\n  eq\n    /* \"#utility.yul\":1516:1579   */\n  tag_35\n  jumpi\n    /* \"#utility.yul\":1575:1576   */\n  0x00\n    /* \"#utility.yul\":1572:1573   */\n  dup1\n    /* \"#utility.yul\":1565:1577   */\n  revert\n    /* \"#utility.yul\":1516:1579   */\ntag_35:\n    /* \"#utility.yul\":1463:1585   */\n  pop\n  jump\t// out\n    /* \"contracts/myContract.sol\":76:1693  contract testContract {\r... */\ntag_8:\n  dataSize(sub_0)\n  dup1\n  dataOffset(sub_0)\n  0x00\n  codecopy\n  0x00\n  return\nstop\n\nsub_0: assembly {\n        /* \"contracts/myContract.sol\":76:1693  contract testContract {\r... */\n      mstore(0x40, 0x80)\n      jumpi(tag_1, lt(calldatasize, 0x04))\n      shr(0xe0, calldataload(0x00))\n      dup1\n      0x6f9fb98a\n      gt\n      tag_12\n      jumpi\n      dup1\n      0x6f9fb98a\n      eq\n      tag_7\n      jumpi\n      dup1\n      0x7f6b2809\n      eq\n      tag_8\n      jumpi\n      dup1\n      0x82d69b62\n      eq\n      tag_9\n      jumpi\n      dup1\n      0xa6c3e6b9\n      eq\n      tag_10\n      jumpi\n      dup1\n      0xef352bbe\n      eq\n      tag_11\n      jumpi\n      jump(tag_2)\n    tag_12:\n      dup1\n      0x0aa0a175\n      eq\n      tag_3\n      jumpi\n      dup1\n      0x17e703ab\n      eq\n      tag_4\n      jumpi\n      dup1\n      0x2edd4fa5\n      eq\n      tag_5\n      jumpi\n      dup1\n      0x59221a68\n      eq\n      tag_6\n      jumpi\n      jump(tag_2)\n    tag_1:\n      jumpi(tag_2, calldatasize)\n        /* \"contracts/myContract.sol\":886:901  subscriptionFee */\n      sload(0x03)\n        /* \"contracts/myContract.sol\":872:881  msg.value */\n      callvalue\n        /* \"contracts/myContract.sol\":872:901  msg.value ==  subscriptionFee */\n      eq\n        /* \"contracts/myContract.sol\":863:949  require( msg.value ==  subscriptionFee , \"Payment should be the subscription fee\"    ) */\n      tag_15\n      jumpi\n      mload(0x40)\n      0x08c379a000000000000000000000000000000000000000000000000000000000\n      dup2\n      mstore\n      0x04\n      add\n      tag_16\n      swap1\n      tag_17\n      jump\t// in\n    tag_16:\n      mload(0x40)\n      dup1\n      swap2\n      sub\n      swap1\n      revert\n    tag_15:\n        /* \"contracts/myContract.sol\":76:1693  contract testContract {\r... */\n      stop\n    tag_2:\n        /* \"contracts/myContract.sol\":747:762  subscriptionFee */\n      sload(0x03)\n        /* \"contracts/myContract.sol\":733:742  msg.value */\n      callvalue\n        /* \"contracts/myContract.sol\":733:762  msg.value ==  subscriptionFee */\n      eq\n        /* \"contracts/myContract.sol\":724:810  require( msg.value ==  subscriptionFee , \"Payment should be the subscription fee\"    ) */\n      tag_20\n      jumpi\n      mload(0x40)\n      0x08c379a000000000000000000000000000000000000000000000000000000000\n      dup2\n      mstore\n      0x04\n      add\n      tag_21\n      swap1\n      tag_17\n      jump\t// in\n    tag_21:\n      mload(0x40)\n      dup1\n      swap2\n      sub\n      swap1\n      revert\n    tag_20:\n        /* \"contracts/myContract.sol\":76:1693  contract testContract {\r... */\n      stop\n        /* \"contracts/myContract.sol\":319:346  uint public subscriptionFee */\n    tag_3:\n      callvalue\n      dup1\n      iszero\n      tag_22\n      jumpi\n      0x00\n      dup1\n      revert\n    tag_22:\n      pop\n      tag_23\n      tag_24\n      jump\t// in\n    tag_23:\n      mload(0x40)\n      tag_25\n      swap2\n      swap1\n      tag_26\n      jump\t// in\n    tag_25:\n      mload(0x40)\n      dup1\n      swap2\n      sub\n      swap1\n      return\n        /* \"contracts/myContract.sol\":1348:1448  function getSubscriberCount() public view returns(uint256) {\r... */\n    tag_4:\n      callvalue\n      dup1\n      iszero\n      tag_27\n      jumpi\n      0x00\n      dup1\n      revert\n    tag_27:\n      pop\n      tag_28\n      tag_29\n      jump\t// in\n    tag_28:\n      mload(0x40)\n      tag_30\n      swap2\n      swap1\n      tag_26\n      jump\t// in\n    tag_30:\n      mload(0x40)\n      dup1\n      swap2\n      sub\n      swap1\n      return\n        /* \"contracts/myContract.sol\":1122:1339  function addSubscriber(string memory userName) public payable{\r... */\n    tag_5:\n      tag_31\n      0x04\n      dup1\n      calldatasize\n      sub\n      dup2\n      add\n      swap1\n      tag_32\n      swap2\n      swap1\n      tag_33\n      jump\t// in\n    tag_32:\n      tag_34\n      jump\t// in\n    tag_31:\n      stop\n        /* \"contracts/myContract.sol\":111:157  mapping(uint => subscriber) public subscribers */\n    tag_6:\n      callvalue\n      dup1\n      iszero\n      tag_35\n      jumpi\n      0x00\n      dup1\n      revert\n    tag_35:\n      pop\n      tag_36\n      0x04\n      dup1\n      calldatasize\n      sub\n      dup2\n      add\n      swap1\n      tag_37\n      swap2\n      swap1\n      tag_38\n      jump\t// in\n    tag_37:\n      tag_39\n      jump\t// in\n    tag_36:\n      mload(0x40)\n      tag_40\n      swap3\n      swap2\n      swap1\n      tag_41\n      jump\t// in\n    tag_40:\n      mload(0x40)\n      dup1\n      swap2\n      sub\n      swap1\n      return\n        /* \"contracts/myContract.sol\":575:678  function getContractBalance() public view returns (uint){\r... */\n    tag_7:\n      callvalue\n      dup1\n      iszero\n      tag_42\n      jumpi\n      0x00\n      dup1\n      revert\n    tag_42:\n      pop\n      tag_43\n      tag_44\n      jump\t// in\n    tag_43:\n      mload(0x40)\n      tag_45\n      swap2\n      swap1\n      tag_26\n      jump\t// in\n    tag_45:\n      mload(0x40)\n      dup1\n      swap2\n      sub\n      swap1\n      return\n        /* \"contracts/myContract.sol\":1021:1114  function getAuthorBalance() public view returns(uint){\r... */\n    tag_8:\n      callvalue\n      dup1\n      iszero\n      tag_46\n      jumpi\n      0x00\n      dup1\n      revert\n    tag_46:\n      pop\n      tag_47\n      tag_48\n      jump\t// in\n    tag_47:\n      mload(0x40)\n      tag_49\n      swap2\n      swap1\n      tag_26\n      jump\t// in\n    tag_49:\n      mload(0x40)\n      dup1\n      swap2\n      sub\n      swap1\n      return\n        /* \"contracts/myContract.sol\":1456:1688  function printSubscribersList() public {\r... */\n    tag_9:\n      callvalue\n      dup1\n      iszero\n      tag_50\n      jumpi\n      0x00\n      dup1\n      revert\n    tag_50:\n      pop\n      tag_51\n      tag_52\n      jump\t// in\n    tag_51:\n      stop\n        /* \"contracts/myContract.sol\":283:312  address payable public author */\n    tag_10:\n      callvalue\n      dup1\n      iszero\n      tag_53\n      jumpi\n      0x00\n      dup1\n      revert\n    tag_53:\n      pop\n      tag_54\n      tag_55\n      jump\t// in\n    tag_54:\n      mload(0x40)\n      tag_56\n      swap2\n      swap1\n      tag_57\n      jump\t// in\n    tag_56:\n      mload(0x40)\n      dup1\n      swap2\n      sub\n      swap1\n      return\n        /* \"contracts/myContract.sol\":164:195  uint public subscriberCount = 0 */\n    tag_11:\n      callvalue\n      dup1\n      iszero\n      tag_58\n      jumpi\n      0x00\n      dup1\n      revert\n    tag_58:\n      pop\n      tag_59\n      tag_60\n      jump\t// in\n    tag_59:\n      mload(0x40)\n      tag_61\n      swap2\n      swap1\n      tag_26\n      jump\t// in\n    tag_61:\n      mload(0x40)\n      dup1\n      swap2\n      sub\n      swap1\n      return\n        /* \"contracts/myContract.sol\":319:346  uint public subscriptionFee */\n    tag_24:\n      sload(0x03)\n      dup2\n      jump\t// out\n        /* \"contracts/myContract.sol\":1348:1448  function getSubscriberCount() public view returns(uint256) {\r... */\n    tag_29:\n        /* \"contracts/myContract.sol\":1398:1405  uint256 */\n      0x00\n        /* \"contracts/myContract.sol\":1425:1440  subscriberCount */\n      sload(0x01)\n        /* \"contracts/myContract.sol\":1418:1440  return subscriberCount */\n      swap1\n      pop\n        /* \"contracts/myContract.sol\":1348:1448  function getSubscriberCount() public view returns(uint256) {\r... */\n      swap1\n      jump\t// out\n        /* \"contracts/myContract.sol\":1122:1339  function addSubscriber(string memory userName) public payable{\r... */\n    tag_34:\n        /* \"contracts/myContract.sol\":1225:1256  subscriber(userName,msg.sender) */\n      mload(0x40)\n      dup1\n      0x40\n      add\n      0x40\n      mstore\n      dup1\n        /* \"contracts/myContract.sol\":1236:1244  userName */\n      dup3\n        /* \"contracts/myContract.sol\":1225:1256  subscriber(userName,msg.sender) */\n      dup2\n      mstore\n      0x20\n      add\n        /* \"contracts/myContract.sol\":1245:1255  msg.sender */\n      caller\n        /* \"contracts/myContract.sol\":1225:1256  subscriber(userName,msg.sender) */\n      0xffffffffffffffffffffffffffffffffffffffff\n      and\n      dup2\n      mstore\n      pop\n        /* \"contracts/myContract.sol\":1194:1205  subscribers */\n      0x00\n        /* \"contracts/myContract.sol\":1194:1222  subscribers[subscriberCount] */\n      dup1\n        /* \"contracts/myContract.sol\":1206:1221  subscriberCount */\n      sload(0x01)\n        /* \"contracts/myContract.sol\":1194:1222  subscribers[subscriberCount] */\n      dup2\n      mstore\n      0x20\n      add\n      swap1\n      dup2\n      mstore\n      0x20\n      add\n      0x00\n      keccak256\n        /* \"contracts/myContract.sol\":1194:1256  subscribers[subscriberCount] = subscriber(userName,msg.sender) */\n      0x00\n      dup3\n      add\n      mload\n      dup2\n      0x00\n      add\n      swap1\n      dup1\n      mload\n      swap1\n      0x20\n      add\n      swap1\n      tag_64\n      swap3\n      swap2\n      swap1\n      tag_65\n      jump\t// in\n    tag_64:\n      pop\n      0x20\n      dup3\n      add\n      mload\n      dup2\n      0x01\n      add\n      exp(0x0100, 0x00)\n      dup2\n      sload\n      dup2\n      0xffffffffffffffffffffffffffffffffffffffff\n      mul\n      not\n      and\n      swap1\n      dup4\n      0xffffffffffffffffffffffffffffffffffffffff\n      and\n      mul\n      or\n      swap1\n      sstore\n      pop\n      swap1\n      pop\n      pop\n        /* \"contracts/myContract.sol\":1267:1282  subscriberCount */\n      0x01\n      0x00\n        /* \"contracts/myContract.sol\":1267:1284  subscriberCount++ */\n      dup2\n      sload\n      dup1\n      swap3\n      swap2\n      swap1\n      tag_66\n      swap1\n      tag_67\n      jump\t// in\n    tag_66:\n      swap2\n      swap1\n      pop\n      sstore\n      pop\n        /* \"contracts/myContract.sol\":1300:1331  Received(msg.sender, msg.value) */\n      0x88a5966d370b9919b20f3e2c13ff65706f196a4e32cc2c12bf57088f88525874\n        /* \"contracts/myContract.sol\":1309:1319  msg.sender */\n      caller\n        /* \"contracts/myContract.sol\":1321:1330  msg.value */\n      callvalue\n        /* \"contracts/myContract.sol\":1300:1331  Received(msg.sender, msg.value) */\n      mload(0x40)\n      tag_68\n      swap3\n      swap2\n      swap1\n      tag_69\n      jump\t// in\n    tag_68:\n      mload(0x40)\n      dup1\n      swap2\n      sub\n      swap1\n      log1\n        /* \"contracts/myContract.sol\":1122:1339  function addSubscriber(string memory userName) public payable{\r... */\n      pop\n      jump\t// out\n        /* \"contracts/myContract.sol\":111:157  mapping(uint => subscriber) public subscribers */\n    tag_39:\n      mstore(0x20, 0x00)\n      dup1\n      0x00\n      mstore\n      keccak256(0x00, 0x40)\n      0x00\n      swap2\n      pop\n      swap1\n      pop\n      dup1\n      0x00\n      add\n      dup1\n      sload\n      tag_70\n      swap1\n      tag_71\n      jump\t// in\n    tag_70:\n      dup1\n      0x1f\n      add\n      0x20\n      dup1\n      swap2\n      div\n      mul\n      0x20\n      add\n      mload(0x40)\n      swap1\n      dup2\n      add\n      0x40\n      mstore\n      dup1\n      swap3\n      swap2\n      swap1\n      dup2\n      dup2\n      mstore\n      0x20\n      add\n      dup3\n      dup1\n      sload\n      tag_72\n      swap1\n      tag_71\n      jump\t// in\n    tag_72:\n      dup1\n      iszero\n      tag_73\n      jumpi\n      dup1\n      0x1f\n      lt\n      tag_74\n      jumpi\n      0x0100\n      dup1\n      dup4\n      sload\n      div\n      mul\n      dup4\n      mstore\n      swap2\n      0x20\n      add\n      swap2\n      jump(tag_73)\n    tag_74:\n      dup3\n      add\n      swap2\n      swap1\n      0x00\n      mstore\n      keccak256(0x00, 0x20)\n      swap1\n    tag_75:\n      dup2\n      sload\n      dup2\n      mstore\n      swap1\n      0x01\n      add\n      swap1\n      0x20\n      add\n      dup1\n      dup4\n      gt\n      tag_75\n      jumpi\n      dup3\n      swap1\n      sub\n      0x1f\n      and\n      dup3\n      add\n      swap2\n    tag_73:\n      pop\n      pop\n      pop\n      pop\n      pop\n      swap1\n      dup1\n      0x01\n      add\n      0x00\n      swap1\n      sload\n      swap1\n      0x0100\n      exp\n      swap1\n      div\n      0xffffffffffffffffffffffffffffffffffffffff\n      and\n      swap1\n      pop\n      dup3\n      jump\t// out\n        /* \"contracts/myContract.sol\":575:678  function getContractBalance() public view returns (uint){\r... */\n    tag_44:\n        /* \"contracts/myContract.sol\":626:630  uint */\n      0x00\n        /* \"contracts/myContract.sol\":649:670  address(this).balance */\n      selfbalance\n        /* \"contracts/myContract.sol\":642:670  return address(this).balance */\n      swap1\n      pop\n        /* \"contracts/myContract.sol\":575:678  function getContractBalance() public view returns (uint){\r... */\n      swap1\n      jump\t// out\n        /* \"contracts/myContract.sol\":1021:1114  function getAuthorBalance() public view returns(uint){\r... */\n    tag_48:\n        /* \"contracts/myContract.sol\":1069:1073  uint */\n      0x00\n        /* \"contracts/myContract.sol\":1092:1098  author */\n      0x02\n      0x00\n      swap1\n      sload\n      swap1\n      0x0100\n      exp\n      swap1\n      div\n      0xffffffffffffffffffffffffffffffffffffffff\n      and\n        /* \"contracts/myContract.sol\":1092:1106  author.balance */\n      0xffffffffffffffffffffffffffffffffffffffff\n      and\n      balance\n        /* \"contracts/myContract.sol\":1085:1106  return author.balance */\n      swap1\n      pop\n        /* \"contracts/myContract.sol\":1021:1114  function getAuthorBalance() public view returns(uint){\r... */\n      swap1\n      jump\t// out\n        /* \"contracts/myContract.sol\":1456:1688  function printSubscribersList() public {\r... */\n    tag_52:\n        /* \"contracts/myContract.sol\":1506:1527  subscriber memory ret */\n      tag_79\n      tag_80\n      jump\t// in\n    tag_79:\n        /* \"contracts/myContract.sol\":1542:1548  uint i */\n      0x00\n        /* \"contracts/myContract.sol\":1538:1681  for(uint i = 0; i < subscriberCount; i++){\r... */\n    tag_81:\n        /* \"contracts/myContract.sol\":1558:1573  subscriberCount */\n      sload(0x01)\n        /* \"contracts/myContract.sol\":1554:1555  i */\n      dup2\n        /* \"contracts/myContract.sol\":1554:1573  i < subscriberCount */\n      lt\n        /* \"contracts/myContract.sol\":1538:1681  for(uint i = 0; i < subscriberCount; i++){\r... */\n      iszero\n      tag_82\n      jumpi\n        /* \"contracts/myContract.sol\":1600:1611  subscribers */\n      0x00\n        /* \"contracts/myContract.sol\":1600:1614  subscribers[i] */\n      dup1\n        /* \"contracts/myContract.sol\":1612:1613  i */\n      dup3\n        /* \"contracts/myContract.sol\":1600:1614  subscribers[i] */\n      dup2\n      mstore\n      0x20\n      add\n      swap1\n      dup2\n      mstore\n      0x20\n      add\n      0x00\n      keccak256\n        /* \"contracts/myContract.sol\":1594:1614  ret = subscribers[i] */\n      mload(0x40)\n      dup1\n      0x40\n      add\n      0x40\n      mstore\n      swap1\n      dup2\n      0x00\n      dup3\n      add\n      dup1\n      sload\n      tag_84\n      swap1\n      tag_71\n      jump\t// in\n    tag_84:\n      dup1\n      0x1f\n      add\n      0x20\n      dup1\n      swap2\n      div\n      mul\n      0x20\n      add\n      mload(0x40)\n      swap1\n      dup2\n      add\n      0x40\n      mstore\n      dup1\n      swap3\n      swap2\n      swap1\n      dup2\n      dup2\n      mstore\n      0x20\n      add\n      dup3\n      dup1\n      sload\n      tag_85\n      swap1\n      tag_71\n      jump\t// in\n    tag_85:\n      dup1\n      iszero\n      tag_86\n      jumpi\n      dup1\n      0x1f\n      lt\n      tag_87\n      jumpi\n      0x0100\n      dup1\n      dup4\n      sload\n      div\n      mul\n      dup4\n      mstore\n      swap2\n      0x20\n      add\n      swap2\n      jump(tag_86)\n    tag_87:\n      dup3\n      add\n      swap2\n      swap1\n      0x00\n      mstore\n      keccak256(0x00, 0x20)\n      swap1\n    tag_88:\n      dup2\n      sload\n      dup2\n      mstore\n      swap1\n      0x01\n      add\n      swap1\n      0x20\n      add\n      dup1\n      dup4\n      gt\n      tag_88\n      jumpi\n      dup3\n      swap1\n      sub\n      0x1f\n      and\n      dup3\n      add\n      swap2\n    tag_86:\n      pop\n      pop\n      pop\n      pop\n      pop\n      dup2\n      mstore\n      0x20\n      add\n      0x01\n      dup3\n      add\n      0x00\n      swap1\n      sload\n      swap1\n      0x0100\n      exp\n      swap1\n      div\n      0xffffffffffffffffffffffffffffffffffffffff\n      and\n      0xffffffffffffffffffffffffffffffffffffffff\n      and\n      0xffffffffffffffffffffffffffffffffffffffff\n      and\n      dup2\n      mstore\n      pop\n      pop\n      swap2\n      pop\n        /* \"contracts/myContract.sol\":1634:1669  SubscriberPrint(ret.name, ret.addr) */\n      0x509008841c10ccf2d4360b0b681479c830f619aac14e8fac7ac253216fdae8f9\n        /* \"contracts/myContract.sol\":1650:1653  ret */\n      dup3\n        /* \"contracts/myContract.sol\":1650:1658  ret.name */\n      0x00\n      add\n      mload\n        /* \"contracts/myContract.sol\":1660:1663  ret */\n      dup4\n        /* \"contracts/myContract.sol\":1660:1668  ret.addr */\n      0x20\n      add\n      mload\n        /* \"contracts/myContract.sol\":1634:1669  SubscriberPrint(ret.name, ret.addr) */\n      mload(0x40)\n      tag_89\n      swap3\n      swap2\n      swap1\n      tag_41\n      jump\t// in\n    tag_89:\n      mload(0x40)\n      dup1\n      swap2\n      sub\n      swap1\n      log1\n        /* \"contracts/myContract.sol\":1575:1578  i++ */\n      dup1\n      dup1\n      tag_90\n      swap1\n      tag_67\n      jump\t// in\n    tag_90:\n      swap2\n      pop\n      pop\n        /* \"contracts/myContract.sol\":1538:1681  for(uint i = 0; i < subscriberCount; i++){\r... */\n      jump(tag_81)\n    tag_82:\n      pop\n        /* \"contracts/myContract.sol\":1495:1688  {\r... */\n      pop\n        /* \"contracts/myContract.sol\":1456:1688  function printSubscribersList() public {\r... */\n      jump\t// out\n        /* \"contracts/myContract.sol\":283:312  address payable public author */\n    tag_55:\n      0x02\n      0x00\n      swap1\n      sload\n      swap1\n      0x0100\n      exp\n      swap1\n      div\n      0xffffffffffffffffffffffffffffffffffffffff\n      and\n      dup2\n      jump\t// out\n        /* \"contracts/myContract.sol\":164:195  uint public subscriberCount = 0 */\n    tag_60:\n      sload(0x01)\n      dup2\n      jump\t// out\n    tag_65:\n      dup3\n      dup1\n      sload\n      tag_91\n      swap1\n      tag_71\n      jump\t// in\n    tag_91:\n      swap1\n      0x00\n      mstore\n      keccak256(0x00, 0x20)\n      swap1\n      0x1f\n      add\n      0x20\n      swap1\n      div\n      dup2\n      add\n      swap3\n      dup3\n      tag_93\n      jumpi\n      0x00\n      dup6\n      sstore\n      jump(tag_92)\n    tag_93:\n      dup3\n      0x1f\n      lt\n      tag_94\n      jumpi\n      dup1\n      mload\n      not(0xff)\n      and\n      dup4\n      dup1\n      add\n      or\n      dup6\n      sstore\n      jump(tag_92)\n    tag_94:\n      dup3\n      dup1\n      add\n      0x01\n      add\n      dup6\n      sstore\n      dup3\n      iszero\n      tag_92\n      jumpi\n      swap2\n      dup3\n      add\n    tag_95:\n      dup3\n      dup2\n      gt\n      iszero\n      tag_96\n      jumpi\n      dup3\n      mload\n      dup3\n      sstore\n      swap2\n      0x20\n      add\n      swap2\n      swap1\n      0x01\n      add\n      swap1\n      jump(tag_95)\n    tag_96:\n    tag_92:\n      pop\n      swap1\n      pop\n      tag_97\n      swap2\n      swap1\n      tag_98\n      jump\t// in\n    tag_97:\n      pop\n      swap1\n      jump\t// out\n    tag_80:\n      mload(0x40)\n      dup1\n      0x40\n      add\n      0x40\n      mstore\n      dup1\n      0x60\n      dup2\n      mstore\n      0x20\n      add\n      and(0xffffffffffffffffffffffffffffffffffffffff, 0x00)\n      dup2\n      mstore\n      pop\n      swap1\n      jump\t// out\n    tag_98:\n    tag_99:\n      dup1\n      dup3\n      gt\n      iszero\n      tag_100\n      jumpi\n      0x00\n      dup2\n      0x00\n      swap1\n      sstore\n      pop\n      0x01\n      add\n      jump(tag_99)\n    tag_100:\n      pop\n      swap1\n      jump\t// out\n        /* \"#utility.yul\":7:419   */\n    tag_102:\n        /* \"#utility.yul\":85:90   */\n      0x00\n        /* \"#utility.yul\":110:176   */\n      tag_104\n        /* \"#utility.yul\":126:175   */\n      tag_105\n        /* \"#utility.yul\":168:174   */\n      dup5\n        /* \"#utility.yul\":126:175   */\n      tag_106\n      jump\t// in\n    tag_105:\n        /* \"#utility.yul\":110:176   */\n      tag_107\n      jump\t// in\n    tag_104:\n        /* \"#utility.yul\":101:176   */\n      swap1\n      pop\n        /* \"#utility.yul\":199:205   */\n      dup3\n        /* \"#utility.yul\":192:197   */\n      dup2\n        /* \"#utility.yul\":185:206   */\n      mstore\n        /* \"#utility.yul\":237:241   */\n      0x20\n        /* \"#utility.yul\":230:235   */\n      dup2\n        /* \"#utility.yul\":226:242   */\n      add\n        /* \"#utility.yul\":275:278   */\n      dup5\n        /* \"#utility.yul\":266:272   */\n      dup5\n        /* \"#utility.yul\":261:264   */\n      dup5\n        /* \"#utility.yul\":257:273   */\n      add\n        /* \"#utility.yul\":254:279   */\n      gt\n        /* \"#utility.yul\":251:363   */\n      iszero\n      tag_108\n      jumpi\n        /* \"#utility.yul\":282:361   */\n      tag_109\n      tag_110\n      jump\t// in\n    tag_109:\n        /* \"#utility.yul\":251:363   */\n    tag_108:\n        /* \"#utility.yul\":372:413   */\n      tag_111\n        /* \"#utility.yul\":406:412   */\n      dup5\n        /* \"#utility.yul\":401:404   */\n      dup3\n        /* \"#utility.yul\":396:399   */\n      dup6\n        /* \"#utility.yul\":372:413   */\n      tag_112\n      jump\t// in\n    tag_111:\n        /* \"#utility.yul\":91:419   */\n      pop\n        /* \"#utility.yul\":7:419   */\n      swap4\n      swap3\n      pop\n      pop\n      pop\n      jump\t// out\n        /* \"#utility.yul\":439:779   */\n    tag_113:\n        /* \"#utility.yul\":495:500   */\n      0x00\n        /* \"#utility.yul\":544:547   */\n      dup3\n        /* \"#utility.yul\":537:541   */\n      0x1f\n        /* \"#utility.yul\":529:535   */\n      dup4\n        /* \"#utility.yul\":525:542   */\n      add\n        /* \"#utility.yul\":521:548   */\n      slt\n        /* \"#utility.yul\":511:633   */\n      tag_115\n      jumpi\n        /* \"#utility.yul\":552:631   */\n      tag_116\n      tag_117\n      jump\t// in\n    tag_116:\n        /* \"#utility.yul\":511:633   */\n    tag_115:\n        /* \"#utility.yul\":669:675   */\n      dup2\n        /* \"#utility.yul\":656:676   */\n      calldataload\n        /* \"#utility.yul\":694:773   */\n      tag_118\n        /* \"#utility.yul\":769:772   */\n      dup5\n        /* \"#utility.yul\":761:767   */\n      dup3\n        /* \"#utility.yul\":754:758   */\n      0x20\n        /* \"#utility.yul\":746:752   */\n      dup7\n        /* \"#utility.yul\":742:759   */\n      add\n        /* \"#utility.yul\":694:773   */\n      tag_102\n      jump\t// in\n    tag_118:\n        /* \"#utility.yul\":685:773   */\n      swap2\n      pop\n        /* \"#utility.yul\":501:779   */\n      pop\n        /* \"#utility.yul\":439:779   */\n      swap3\n      swap2\n      pop\n      pop\n      jump\t// out\n        /* \"#utility.yul\":785:924   */\n    tag_119:\n        /* \"#utility.yul\":831:836   */\n      0x00\n        /* \"#utility.yul\":869:875   */\n      dup2\n        /* \"#utility.yul\":856:876   */\n      calldataload\n        /* \"#utility.yul\":847:876   */\n      swap1\n      pop\n        /* \"#utility.yul\":885:918   */\n      tag_121\n        /* \"#utility.yul\":912:917   */\n      dup2\n        /* \"#utility.yul\":885:918   */\n      tag_122\n      jump\t// in\n    tag_121:\n        /* \"#utility.yul\":785:924   */\n      swap3\n      swap2\n      pop\n      pop\n      jump\t// out\n        /* \"#utility.yul\":930:1439   */\n    tag_33:\n        /* \"#utility.yul\":999:1005   */\n      0x00\n        /* \"#utility.yul\":1048:1050   */\n      0x20\n        /* \"#utility.yul\":1036:1045   */\n      dup3\n        /* \"#utility.yul\":1027:1034   */\n      dup5\n        /* \"#utility.yul\":1023:1046   */\n      sub\n        /* \"#utility.yul\":1019:1051   */\n      slt\n        /* \"#utility.yul\":1016:1135   */\n      iszero\n      tag_124\n      jumpi\n        /* \"#utility.yul\":1054:1133   */\n      tag_125\n      tag_126\n      jump\t// in\n    tag_125:\n        /* \"#utility.yul\":1016:1135   */\n    tag_124:\n        /* \"#utility.yul\":1202:1203   */\n      0x00\n        /* \"#utility.yul\":1191:1200   */\n      dup3\n        /* \"#utility.yul\":1187:1204   */\n      add\n        /* \"#utility.yul\":1174:1205   */\n      calldataload\n        /* \"#utility.yul\":1232:1250   */\n      0xffffffffffffffff\n        /* \"#utility.yul\":1224:1230   */\n      dup2\n        /* \"#utility.yul\":1221:1251   */\n      gt\n        /* \"#utility.yul\":1218:1335   */\n      iszero\n      tag_127\n      jumpi\n        /* \"#utility.yul\":1254:1333   */\n      tag_128\n      tag_129\n      jump\t// in\n    tag_128:\n        /* \"#utility.yul\":1218:1335   */\n    tag_127:\n        /* \"#utility.yul\":1359:1422   */\n      tag_130\n        /* \"#utility.yul\":1414:1421   */\n      dup5\n        /* \"#utility.yul\":1405:1411   */\n      dup3\n        /* \"#utility.yul\":1394:1403   */\n      dup6\n        /* \"#utility.yul\":1390:1412   */\n      add\n        /* \"#utility.yul\":1359:1422   */\n      tag_113\n      jump\t// in\n    tag_130:\n        /* \"#utility.yul\":1349:1422   */\n      swap2\n      pop\n        /* \"#utility.yul\":1145:1432   */\n      pop\n        /* \"#utility.yul\":930:1439   */\n      swap3\n      swap2\n      pop\n      pop\n      jump\t// out\n        /* \"#utility.yul\":1445:1774   */\n    tag_38:\n        /* \"#utility.yul\":1504:1510   */\n      0x00\n        /* \"#utility.yul\":1553:1555   */\n      0x20\n        /* \"#utility.yul\":1541:1550   */\n      dup3\n        /* \"#utility.yul\":1532:1539   */\n      dup5\n        /* \"#utility.yul\":1528:1551   */\n      sub\n        /* \"#utility.yul\":1524:1556   */\n      slt\n        /* \"#utility.yul\":1521:1640   */\n      iszero\n      tag_132\n      jumpi\n        /* \"#utility.yul\":1559:1638   */\n      tag_133\n      tag_126\n      jump\t// in\n    tag_133:\n        /* \"#utility.yul\":1521:1640   */\n    tag_132:\n        /* \"#utility.yul\":1679:1680   */\n      0x00\n        /* \"#utility.yul\":1704:1757   */\n      tag_134\n        /* \"#utility.yul\":1749:1756   */\n      dup5\n        /* \"#utility.yul\":1740:1746   */\n      dup3\n        /* \"#utility.yul\":1729:1738   */\n      dup6\n        /* \"#utility.yul\":1725:1747   */\n      add\n        /* \"#utility.yul\":1704:1757   */\n      tag_119\n      jump\t// in\n    tag_134:\n        /* \"#utility.yul\":1694:1757   */\n      swap2\n      pop\n        /* \"#utility.yul\":1650:1767   */\n      pop\n        /* \"#utility.yul\":1445:1774   */\n      swap3\n      swap2\n      pop\n      pop\n      jump\t// out\n        /* \"#utility.yul\":1780:1922   */\n    tag_135:\n        /* \"#utility.yul\":1883:1915   */\n      tag_137\n        /* \"#utility.yul\":1909:1914   */\n      dup2\n        /* \"#utility.yul\":1883:1915   */\n      tag_138\n      jump\t// in\n    tag_137:\n        /* \"#utility.yul\":1878:1881   */\n      dup3\n        /* \"#utility.yul\":1871:1916   */\n      mstore\n        /* \"#utility.yul\":1780:1922   */\n      pop\n      pop\n      jump\t// out\n        /* \"#utility.yul\":1928:2046   */\n    tag_139:\n        /* \"#utility.yul\":2015:2039   */\n      tag_141\n        /* \"#utility.yul\":2033:2038   */\n      dup2\n        /* \"#utility.yul\":2015:2039   */\n      tag_142\n      jump\t// in\n    tag_141:\n        /* \"#utility.yul\":2010:2013   */\n      dup3\n        /* \"#utility.yul\":2003:2040   */\n      mstore\n        /* \"#utility.yul\":1928:2046   */\n      pop\n      pop\n      jump\t// out\n        /* \"#utility.yul\":2052:2416   */\n    tag_143:\n        /* \"#utility.yul\":2140:2143   */\n      0x00\n        /* \"#utility.yul\":2168:2207   */\n      tag_145\n        /* \"#utility.yul\":2201:2206   */\n      dup3\n        /* \"#utility.yul\":2168:2207   */\n      tag_146\n      jump\t// in\n    tag_145:\n        /* \"#utility.yul\":2223:2294   */\n      tag_147\n        /* \"#utility.yul\":2287:2293   */\n      dup2\n        /* \"#utility.yul\":2282:2285   */\n      dup6\n        /* \"#utility.yul\":2223:2294   */\n      tag_148\n      jump\t// in\n    tag_147:\n        /* \"#utility.yul\":2216:2294   */\n      swap4\n      pop\n        /* \"#utility.yul\":2303:2355   */\n      tag_149\n        /* \"#utility.yul\":2348:2354   */\n      dup2\n        /* \"#utility.yul\":2343:2346   */\n      dup6\n        /* \"#utility.yul\":2336:2340   */\n      0x20\n        /* \"#utility.yul\":2329:2334   */\n      dup7\n        /* \"#utility.yul\":2325:2341   */\n      add\n        /* \"#utility.yul\":2303:2355   */\n      tag_150\n      jump\t// in\n    tag_149:\n        /* \"#utility.yul\":2380:2409   */\n      tag_151\n        /* \"#utility.yul\":2402:2408   */\n      dup2\n        /* \"#utility.yul\":2380:2409   */\n      tag_152\n      jump\t// in\n    tag_151:\n        /* \"#utility.yul\":2375:2378   */\n      dup5\n        /* \"#utility.yul\":2371:2410   */\n      add\n        /* \"#utility.yul\":2364:2410   */\n      swap2\n      pop\n        /* \"#utility.yul\":2144:2416   */\n      pop\n        /* \"#utility.yul\":2052:2416   */\n      swap3\n      swap2\n      pop\n      pop\n      jump\t// out\n        /* \"#utility.yul\":2422:2788   */\n    tag_153:\n        /* \"#utility.yul\":2564:2567   */\n      0x00\n        /* \"#utility.yul\":2585:2652   */\n      tag_155\n        /* \"#utility.yul\":2649:2651   */\n      0x26\n        /* \"#utility.yul\":2644:2647   */\n      dup4\n        /* \"#utility.yul\":2585:2652   */\n      tag_148\n      jump\t// in\n    tag_155:\n        /* \"#utility.yul\":2578:2652   */\n      swap2\n      pop\n        /* \"#utility.yul\":2661:2754   */\n      tag_156\n        /* \"#utility.yul\":2750:2753   */\n      dup3\n        /* \"#utility.yul\":2661:2754   */\n      tag_157\n      jump\t// in\n    tag_156:\n        /* \"#utility.yul\":2779:2781   */\n      0x40\n        /* \"#utility.yul\":2774:2777   */\n      dup3\n        /* \"#utility.yul\":2770:2782   */\n      add\n        /* \"#utility.yul\":2763:2782   */\n      swap1\n      pop\n        /* \"#utility.yul\":2422:2788   */\n      swap2\n      swap1\n      pop\n      jump\t// out\n        /* \"#utility.yul\":2794:2912   */\n    tag_158:\n        /* \"#utility.yul\":2881:2905   */\n      tag_160\n        /* \"#utility.yul\":2899:2904   */\n      dup2\n        /* \"#utility.yul\":2881:2905   */\n      tag_161\n      jump\t// in\n    tag_160:\n        /* \"#utility.yul\":2876:2879   */\n      dup3\n        /* \"#utility.yul\":2869:2906   */\n      mstore\n        /* \"#utility.yul\":2794:2912   */\n      pop\n      pop\n      jump\t// out\n        /* \"#utility.yul\":2918:3172   */\n    tag_57:\n        /* \"#utility.yul\":3027:3031   */\n      0x00\n        /* \"#utility.yul\":3065:3067   */\n      0x20\n        /* \"#utility.yul\":3054:3063   */\n      dup3\n        /* \"#utility.yul\":3050:3068   */\n      add\n        /* \"#utility.yul\":3042:3068   */\n      swap1\n      pop\n        /* \"#utility.yul\":3078:3165   */\n      tag_163\n        /* \"#utility.yul\":3162:3163   */\n      0x00\n        /* \"#utility.yul\":3151:3160   */\n      dup4\n        /* \"#utility.yul\":3147:3164   */\n      add\n        /* \"#utility.yul\":3138:3144   */\n      dup5\n        /* \"#utility.yul\":3078:3165   */\n      tag_135\n      jump\t// in\n    tag_163:\n        /* \"#utility.yul\":2918:3172   */\n      swap3\n      swap2\n      pop\n      pop\n      jump\t// out\n        /* \"#utility.yul\":3178:3510   */\n    tag_69:\n        /* \"#utility.yul\":3299:3303   */\n      0x00\n        /* \"#utility.yul\":3337:3339   */\n      0x40\n        /* \"#utility.yul\":3326:3335   */\n      dup3\n        /* \"#utility.yul\":3322:3340   */\n      add\n        /* \"#utility.yul\":3314:3340   */\n      swap1\n      pop\n        /* \"#utility.yul\":3350:3421   */\n      tag_165\n        /* \"#utility.yul\":3418:3419   */\n      0x00\n        /* \"#utility.yul\":3407:3416   */\n      dup4\n        /* \"#utility.yul\":3403:3420   */\n      add\n        /* \"#utility.yul\":3394:3400   */\n      dup6\n        /* \"#utility.yul\":3350:3421   */\n      tag_139\n      jump\t// in\n    tag_165:\n        /* \"#utility.yul\":3431:3503   */\n      tag_166\n        /* \"#utility.yul\":3499:3501   */\n      0x20\n        /* \"#utility.yul\":3488:3497   */\n      dup4\n        /* \"#utility.yul\":3484:3502   */\n      add\n        /* \"#utility.yul\":3475:3481   */\n      dup5\n        /* \"#utility.yul\":3431:3503   */\n      tag_158\n      jump\t// in\n    tag_166:\n        /* \"#utility.yul\":3178:3510   */\n      swap4\n      swap3\n      pop\n      pop\n      pop\n      jump\t// out\n        /* \"#utility.yul\":3516:3939   */\n    tag_41:\n        /* \"#utility.yul\":3657:3661   */\n      0x00\n        /* \"#utility.yul\":3695:3697   */\n      0x40\n        /* \"#utility.yul\":3684:3693   */\n      dup3\n        /* \"#utility.yul\":3680:3698   */\n      add\n        /* \"#utility.yul\":3672:3698   */\n      swap1\n      pop\n        /* \"#utility.yul\":3744:3753   */\n      dup2\n        /* \"#utility.yul\":3738:3742   */\n      dup2\n        /* \"#utility.yul\":3734:3754   */\n      sub\n        /* \"#utility.yul\":3730:3731   */\n      0x00\n        /* \"#utility.yul\":3719:3728   */\n      dup4\n        /* \"#utility.yul\":3715:3732   */\n      add\n        /* \"#utility.yul\":3708:3755   */\n      mstore\n        /* \"#utility.yul\":3772:3850   */\n      tag_168\n        /* \"#utility.yul\":3845:3849   */\n      dup2\n        /* \"#utility.yul\":3836:3842   */\n      dup6\n        /* \"#utility.yul\":3772:3850   */\n      tag_143\n      jump\t// in\n    tag_168:\n        /* \"#utility.yul\":3764:3850   */\n      swap1\n      pop\n        /* \"#utility.yul\":3860:3932   */\n      tag_169\n        /* \"#utility.yul\":3928:3930   */\n      0x20\n        /* \"#utility.yul\":3917:3926   */\n      dup4\n        /* \"#utility.yul\":3913:3931   */\n      add\n        /* \"#utility.yul\":3904:3910   */\n      dup5\n        /* \"#utility.yul\":3860:3932   */\n      tag_139\n      jump\t// in\n    tag_169:\n        /* \"#utility.yul\":3516:3939   */\n      swap4\n      swap3\n      pop\n      pop\n      pop\n      jump\t// out\n        /* \"#utility.yul\":3945:4364   */\n    tag_17:\n        /* \"#utility.yul\":4111:4115   */\n      0x00\n        /* \"#utility.yul\":4149:4151   */\n      0x20\n        /* \"#utility.yul\":4138:4147   */\n      dup3\n        /* \"#utility.yul\":4134:4152   */\n      add\n        /* \"#utility.yul\":4126:4152   */\n      swap1\n      pop\n        /* \"#utility.yul\":4198:4207   */\n      dup2\n        /* \"#utility.yul\":4192:4196   */\n      dup2\n        /* \"#utility.yul\":4188:4208   */\n      sub\n        /* \"#utility.yul\":4184:4185   */\n      0x00\n        /* \"#utility.yul\":4173:4182   */\n      dup4\n        /* \"#utility.yul\":4169:4186   */\n      add\n        /* \"#utility.yul\":4162:4209   */\n      mstore\n        /* \"#utility.yul\":4226:4357   */\n      tag_171\n        /* \"#utility.yul\":4352:4356   */\n      dup2\n        /* \"#utility.yul\":4226:4357   */\n      tag_153\n      jump\t// in\n    tag_171:\n        /* \"#utility.yul\":4218:4357   */\n      swap1\n      pop\n        /* \"#utility.yul\":3945:4364   */\n      swap2\n      swap1\n      pop\n      jump\t// out\n        /* \"#utility.yul\":4370:4592   */\n    tag_26:\n        /* \"#utility.yul\":4463:4467   */\n      0x00\n        /* \"#utility.yul\":4501:4503   */\n      0x20\n        /* \"#utility.yul\":4490:4499   */\n      dup3\n        /* \"#utility.yul\":4486:4504   */\n      add\n        /* \"#utility.yul\":4478:4504   */\n      swap1\n      pop\n        /* \"#utility.yul\":4514:4585   */\n      tag_173\n        /* \"#utility.yul\":4582:4583   */\n      0x00\n        /* \"#utility.yul\":4571:4580   */\n      dup4\n        /* \"#utility.yul\":4567:4584   */\n      add\n        /* \"#utility.yul\":4558:4564   */\n      dup5\n        /* \"#utility.yul\":4514:4585   */\n      tag_158\n      jump\t// in\n    tag_173:\n        /* \"#utility.yul\":4370:4592   */\n      swap3\n      swap2\n      pop\n      pop\n      jump\t// out\n        /* \"#utility.yul\":4598:4727   */\n    tag_107:\n        /* \"#utility.yul\":4632:4638   */\n      0x00\n        /* \"#utility.yul\":4659:4679   */\n      tag_175\n      tag_176\n      jump\t// in\n    tag_175:\n        /* \"#utility.yul\":4649:4679   */\n      swap1\n      pop\n        /* \"#utility.yul\":4688:4721   */\n      tag_177\n        /* \"#utility.yul\":4716:4720   */\n      dup3\n        /* \"#utility.yul\":4708:4714   */\n      dup3\n        /* \"#utility.yul\":4688:4721   */\n      tag_178\n      jump\t// in\n    tag_177:\n        /* \"#utility.yul\":4598:4727   */\n      swap2\n      swap1\n      pop\n      jump\t// out\n        /* \"#utility.yul\":4733:4808   */\n    tag_176:\n        /* \"#utility.yul\":4766:4772   */\n      0x00\n        /* \"#utility.yul\":4799:4801   */\n      0x40\n        /* \"#utility.yul\":4793:4802   */\n      mload\n        /* \"#utility.yul\":4783:4802   */\n      swap1\n      pop\n        /* \"#utility.yul\":4733:4808   */\n      swap1\n      jump\t// out\n        /* \"#utility.yul\":4814:5122   */\n    tag_106:\n        /* \"#utility.yul\":4876:4880   */\n      0x00\n        /* \"#utility.yul\":4966:4984   */\n      0xffffffffffffffff\n        /* \"#utility.yul\":4958:4964   */\n      dup3\n        /* \"#utility.yul\":4955:4985   */\n      gt\n        /* \"#utility.yul\":4952:5008   */\n      iszero\n      tag_181\n      jumpi\n        /* \"#utility.yul\":4988:5006   */\n      tag_182\n      tag_183\n      jump\t// in\n    tag_182:\n        /* \"#utility.yul\":4952:5008   */\n    tag_181:\n        /* \"#utility.yul\":5026:5055   */\n      tag_184\n        /* \"#utility.yul\":5048:5054   */\n      dup3\n        /* \"#utility.yul\":5026:5055   */\n      tag_152\n      jump\t// in\n    tag_184:\n        /* \"#utility.yul\":5018:5055   */\n      swap1\n      pop\n        /* \"#utility.yul\":5110:5114   */\n      0x20\n        /* \"#utility.yul\":5104:5108   */\n      dup2\n        /* \"#utility.yul\":5100:5115   */\n      add\n        /* \"#utility.yul\":5092:5115   */\n      swap1\n      pop\n        /* \"#utility.yul\":4814:5122   */\n      swap2\n      swap1\n      pop\n      jump\t// out\n        /* \"#utility.yul\":5128:5227   */\n    tag_146:\n        /* \"#utility.yul\":5180:5186   */\n      0x00\n        /* \"#utility.yul\":5214:5219   */\n      dup2\n        /* \"#utility.yul\":5208:5220   */\n      mload\n        /* \"#utility.yul\":5198:5220   */\n      swap1\n      pop\n        /* \"#utility.yul\":5128:5227   */\n      swap2\n      swap1\n      pop\n      jump\t// out\n        /* \"#utility.yul\":5233:5402   */\n    tag_148:\n        /* \"#utility.yul\":5317:5328   */\n      0x00\n        /* \"#utility.yul\":5351:5357   */\n      dup3\n        /* \"#utility.yul\":5346:5349   */\n      dup3\n        /* \"#utility.yul\":5339:5358   */\n      mstore\n        /* \"#utility.yul\":5391:5395   */\n      0x20\n        /* \"#utility.yul\":5386:5389   */\n      dup3\n        /* \"#utility.yul\":5382:5396   */\n      add\n        /* \"#utility.yul\":5367:5396   */\n      swap1\n      pop\n        /* \"#utility.yul\":5233:5402   */\n      swap3\n      swap2\n      pop\n      pop\n      jump\t// out\n        /* \"#utility.yul\":5408:5504   */\n    tag_142:\n        /* \"#utility.yul\":5445:5452   */\n      0x00\n        /* \"#utility.yul\":5474:5498   */\n      tag_188\n        /* \"#utility.yul\":5492:5497   */\n      dup3\n        /* \"#utility.yul\":5474:5498   */\n      tag_189\n      jump\t// in\n    tag_188:\n        /* \"#utility.yul\":5463:5498   */\n      swap1\n      pop\n        /* \"#utility.yul\":5408:5504   */\n      swap2\n      swap1\n      pop\n      jump\t// out\n        /* \"#utility.yul\":5510:5614   */\n    tag_138:\n        /* \"#utility.yul\":5555:5562   */\n      0x00\n        /* \"#utility.yul\":5584:5608   */\n      tag_191\n        /* \"#utility.yul\":5602:5607   */\n      dup3\n        /* \"#utility.yul\":5584:5608   */\n      tag_189\n      jump\t// in\n    tag_191:\n        /* \"#utility.yul\":5573:5608   */\n      swap1\n      pop\n        /* \"#utility.yul\":5510:5614   */\n      swap2\n      swap1\n      pop\n      jump\t// out\n        /* \"#utility.yul\":5620:5746   */\n    tag_189:\n        /* \"#utility.yul\":5657:5664   */\n      0x00\n        /* \"#utility.yul\":5697:5739   */\n      0xffffffffffffffffffffffffffffffffffffffff\n        /* \"#utility.yul\":5690:5695   */\n      dup3\n        /* \"#utility.yul\":5686:5740   */\n      and\n        /* \"#utility.yul\":5675:5740   */\n      swap1\n      pop\n        /* \"#utility.yul\":5620:5746   */\n      swap2\n      swap1\n      pop\n      jump\t// out\n        /* \"#utility.yul\":5752:5829   */\n    tag_161:\n        /* \"#utility.yul\":5789:5796   */\n      0x00\n        /* \"#utility.yul\":5818:5823   */\n      dup2\n        /* \"#utility.yul\":5807:5823   */\n      swap1\n      pop\n        /* \"#utility.yul\":5752:5829   */\n      swap2\n      swap1\n      pop\n      jump\t// out\n        /* \"#utility.yul\":5835:5989   */\n    tag_112:\n        /* \"#utility.yul\":5919:5925   */\n      dup3\n        /* \"#utility.yul\":5914:5917   */\n      dup2\n        /* \"#utility.yul\":5909:5912   */\n      dup4\n        /* \"#utility.yul\":5896:5926   */\n      calldatacopy\n        /* \"#utility.yul\":5981:5982   */\n      0x00\n        /* \"#utility.yul\":5972:5978   */\n      dup4\n        /* \"#utility.yul\":5967:5970   */\n      dup4\n        /* \"#utility.yul\":5963:5979   */\n      add\n        /* \"#utility.yul\":5956:5983   */\n      mstore\n        /* \"#utility.yul\":5835:5989   */\n      pop\n      pop\n      pop\n      jump\t// out\n        /* \"#utility.yul\":5995:6302   */\n    tag_150:\n        /* \"#utility.yul\":6063:6064   */\n      0x00\n        /* \"#utility.yul\":6073:6186   */\n    tag_196:\n        /* \"#utility.yul\":6087:6093   */\n      dup4\n        /* \"#utility.yul\":6084:6085   */\n      dup2\n        /* \"#utility.yul\":6081:6094   */\n      lt\n        /* \"#utility.yul\":6073:6186   */\n      iszero\n      tag_198\n      jumpi\n        /* \"#utility.yul\":6172:6173   */\n      dup1\n        /* \"#utility.yul\":6167:6170   */\n      dup3\n        /* \"#utility.yul\":6163:6174   */\n      add\n        /* \"#utility.yul\":6157:6175   */\n      mload\n        /* \"#utility.yul\":6153:6154   */\n      dup2\n        /* \"#utility.yul\":6148:6151   */\n      dup5\n        /* \"#utility.yul\":6144:6155   */\n      add\n        /* \"#utility.yul\":6137:6176   */\n      mstore\n        /* \"#utility.yul\":6109:6111   */\n      0x20\n        /* \"#utility.yul\":6106:6107   */\n      dup2\n        /* \"#utility.yul\":6102:6112   */\n      add\n        /* \"#utility.yul\":6097:6112   */\n      swap1\n      pop\n        /* \"#utility.yul\":6073:6186   */\n      jump(tag_196)\n    tag_198:\n        /* \"#utility.yul\":6204:6210   */\n      dup4\n        /* \"#utility.yul\":6201:6202   */\n      dup2\n        /* \"#utility.yul\":6198:6211   */\n      gt\n        /* \"#utility.yul\":6195:6296   */\n      iszero\n      tag_199\n      jumpi\n        /* \"#utility.yul\":6284:6285   */\n      0x00\n        /* \"#utility.yul\":6275:6281   */\n      dup5\n        /* \"#utility.yul\":6270:6273   */\n      dup5\n        /* \"#utility.yul\":6266:6282   */\n      add\n        /* \"#utility.yul\":6259:6286   */\n      mstore\n        /* \"#utility.yul\":6195:6296   */\n    tag_199:\n        /* \"#utility.yul\":6044:6302   */\n      pop\n        /* \"#utility.yul\":5995:6302   */\n      pop\n      pop\n      pop\n      jump\t// out\n        /* \"#utility.yul\":6308:6628   */\n    tag_71:\n        /* \"#utility.yul\":6352:6358   */\n      0x00\n        /* \"#utility.yul\":6389:6390   */\n      0x02\n        /* \"#utility.yul\":6383:6387   */\n      dup3\n        /* \"#utility.yul\":6379:6391   */\n      div\n        /* \"#utility.yul\":6369:6391   */\n      swap1\n      pop\n        /* \"#utility.yul\":6436:6437   */\n      0x01\n        /* \"#utility.yul\":6430:6434   */\n      dup3\n        /* \"#utility.yul\":6426:6438   */\n      and\n        /* \"#utility.yul\":6457:6475   */\n      dup1\n        /* \"#utility.yul\":6447:6528   */\n      tag_201\n      jumpi\n        /* \"#utility.yul\":6513:6517   */\n      0x7f\n        /* \"#utility.yul\":6505:6511   */\n      dup3\n        /* \"#utility.yul\":6501:6518   */\n      and\n        /* \"#utility.yul\":6491:6518   */\n      swap2\n      pop\n        /* \"#utility.yul\":6447:6528   */\n    tag_201:\n        /* \"#utility.yul\":6575:6577   */\n      0x20\n        /* \"#utility.yul\":6567:6573   */\n      dup3\n        /* \"#utility.yul\":6564:6578   */\n      lt\n        /* \"#utility.yul\":6544:6562   */\n      dup2\n        /* \"#utility.yul\":6541:6579   */\n      eq\n        /* \"#utility.yul\":6538:6622   */\n      iszero\n      tag_202\n      jumpi\n        /* \"#utility.yul\":6594:6612   */\n      tag_203\n      tag_204\n      jump\t// in\n    tag_203:\n        /* \"#utility.yul\":6538:6622   */\n    tag_202:\n        /* \"#utility.yul\":6359:6628   */\n      pop\n        /* \"#utility.yul\":6308:6628   */\n      swap2\n      swap1\n      pop\n      jump\t// out\n        /* \"#utility.yul\":6634:6915   */\n    tag_178:\n        /* \"#utility.yul\":6717:6744   */\n      tag_206\n        /* \"#utility.yul\":6739:6743   */\n      dup3\n        /* \"#utility.yul\":6717:6744   */\n      tag_152\n      jump\t// in\n    tag_206:\n        /* \"#utility.yul\":6709:6715   */\n      dup2\n        /* \"#utility.yul\":6705:6745   */\n      add\n        /* \"#utility.yul\":6847:6853   */\n      dup2\n        /* \"#utility.yul\":6835:6845   */\n      dup2\n        /* \"#utility.yul\":6832:6854   */\n      lt\n        /* \"#utility.yul\":6811:6829   */\n      0xffffffffffffffff\n        /* \"#utility.yul\":6799:6809   */\n      dup3\n        /* \"#utility.yul\":6796:6830   */\n      gt\n        /* \"#utility.yul\":6793:6855   */\n      or\n        /* \"#utility.yul\":6790:6878   */\n      iszero\n      tag_207\n      jumpi\n        /* \"#utility.yul\":6858:6876   */\n      tag_208\n      tag_183\n      jump\t// in\n    tag_208:\n        /* \"#utility.yul\":6790:6878   */\n    tag_207:\n        /* \"#utility.yul\":6898:6908   */\n      dup1\n        /* \"#utility.yul\":6894:6896   */\n      0x40\n        /* \"#utility.yul\":6887:6909   */\n      mstore\n        /* \"#utility.yul\":6677:6915   */\n      pop\n        /* \"#utility.yul\":6634:6915   */\n      pop\n      pop\n      jump\t// out\n        /* \"#utility.yul\":6921:7154   */\n    tag_67:\n        /* \"#utility.yul\":6960:6963   */\n      0x00\n        /* \"#utility.yul\":6983:7007   */\n      tag_210\n        /* \"#utility.yul\":7001:7006   */\n      dup3\n        /* \"#utility.yul\":6983:7007   */\n      tag_161\n      jump\t// in\n    tag_210:\n        /* \"#utility.yul\":6974:7007   */\n      swap2\n      pop\n        /* \"#utility.yul\":7029:7095   */\n      0xffffffffffffffffffffffffffffffffffffffffffffffffffffffffffffffff\n        /* \"#utility.yul\":7022:7027   */\n      dup3\n        /* \"#utility.yul\":7019:7096   */\n      eq\n        /* \"#utility.yul\":7016:7119   */\n      iszero\n      tag_211\n      jumpi\n        /* \"#utility.yul\":7099:7117   */\n      tag_212\n      tag_213\n      jump\t// in\n    tag_212:\n        /* \"#utility.yul\":7016:7119   */\n    tag_211:\n        /* \"#utility.yul\":7146:7147   */\n      0x01\n        /* \"#utility.yul\":7139:7144   */\n      dup3\n        /* \"#utility.yul\":7135:7148   */\n      add\n        /* \"#utility.yul\":7128:7148   */\n      swap1\n      pop\n        /* \"#utility.yul\":6921:7154   */\n      swap2\n      swap1\n      pop\n      jump\t// out\n        /* \"#utility.yul\":7160:7340   */\n    tag_213:\n        /* \"#utility.yul\":7208:7285   */\n      0x4e487b7100000000000000000000000000000000000000000000000000000000\n        /* \"#utility.yul\":7205:7206   */\n      0x00\n        /* \"#utility.yul\":7198:7286   */\n      mstore\n        /* \"#utility.yul\":7305:7309   */\n      0x11\n        /* \"#utility.yul\":7302:7303   */\n      0x04\n        /* \"#utility.yul\":7295:7310   */\n      mstore\n        /* \"#utility.yul\":7329:7333   */\n      0x24\n        /* \"#utility.yul\":7326:7327   */\n      0x00\n        /* \"#utility.yul\":7319:7334   */\n      revert\n        /* \"#utility.yul\":7346:7526   */\n    tag_204:\n        /* \"#utility.yul\":7394:7471   */\n      0x4e487b7100000000000000000000000000000000000000000000000000000000\n        /* \"#utility.yul\":7391:7392   */\n      0x00\n        /* \"#utility.yul\":7384:7472   */\n      mstore\n        /* \"#utility.yul\":7491:7495   */\n      0x22\n        /* \"#utility.yul\":7488:7489   */\n      0x04\n        /* \"#utility.yul\":7481:7496   */\n      mstore\n        /* \"#utility.yul\":7515:7519   */\n      0x24\n        /* \"#utility.yul\":7512:7513   */\n      0x00\n        /* \"#utility.yul\":7505:7520   */\n      revert\n        /* \"#utility.yul\":7532:7712   */\n    tag_183:\n        /* \"#utility.yul\":7580:7657   */\n      0x4e487b7100000000000000000000000000000000000000000000000000000000\n        /* \"#utility.yul\":7577:7578   */\n      0x00\n        /* \"#utility.yul\":7570:7658   */\n      mstore\n        /* \"#utility.yul\":7677:7681   */\n      0x41\n        /* \"#utility.yul\":7674:7675   */\n      0x04\n        /* \"#utility.yul\":7667:7682   */\n      mstore\n        /* \"#utility.yul\":7701:7705   */\n      0x24\n        /* \"#utility.yul\":7698:7699   */\n      0x00\n        /* \"#utility.yul\":7691:7706   */\n      revert\n        /* \"#utility.yul\":7718:7835   */\n    tag_117:\n        /* \"#utility.yul\":7827:7828   */\n      0x00\n        /* \"#utility.yul\":7824:7825   */\n      dup1\n        /* \"#utility.yul\":7817:7829   */\n      revert\n        /* \"#utility.yul\":7841:7958   */\n    tag_110:\n        /* \"#utility.yul\":7950:7951   */\n      0x00\n        /* \"#utility.yul\":7947:7948   */\n      dup1\n        /* \"#utility.yul\":7940:7952   */\n      revert\n        /* \"#utility.yul\":7964:8081   */\n    tag_129:\n        /* \"#utility.yul\":8073:8074   */\n      0x00\n        /* \"#utility.yul\":8070:8071   */\n      dup1\n        /* \"#utility.yul\":8063:8075   */\n      revert\n        /* \"#utility.yul\":8087:8204   */\n    tag_126:\n        /* \"#utility.yul\":8196:8197   */\n      0x00\n        /* \"#utility.yul\":8193:8194   */\n      dup1\n        /* \"#utility.yul\":8186:8198   */\n      revert\n        /* \"#utility.yul\":8210:8312   */\n    tag_152:\n        /* \"#utility.yul\":8251:8257   */\n      0x00\n        /* \"#utility.yul\":8302:8304   */\n      0x1f\n        /* \"#utility.yul\":8298:8305   */\n      not\n        /* \"#utility.yul\":8293:8295   */\n      0x1f\n        /* \"#utility.yul\":8286:8291   */\n      dup4\n        /* \"#utility.yul\":8282:8296   */\n      add\n        /* \"#utility.yul\":8278:8306   */\n      and\n        /* \"#utility.yul\":8268:8306   */\n      swap1\n      pop\n        /* \"#utility.yul\":8210:8312   */\n      swap2\n      swap1\n      pop\n      jump\t// out\n        /* \"#utility.yul\":8318:8543   */\n    tag_157:\n        /* \"#utility.yul\":8458:8492   */\n      0x5061796d656e742073686f756c64206265207468652073756273637269707469\n        /* \"#utility.yul\":8454:8455   */\n      0x00\n        /* \"#utility.yul\":8446:8452   */\n      dup3\n        /* \"#utility.yul\":8442:8456   */\n      add\n        /* \"#utility.yul\":8435:8493   */\n      mstore\n        /* \"#utility.yul\":8527:8535   */\n      0x6f6e206665650000000000000000000000000000000000000000000000000000\n        /* \"#utility.yul\":8522:8524   */\n      0x20\n        /* \"#utility.yul\":8514:8520   */\n      dup3\n        /* \"#utility.yul\":8510:8525   */\n      add\n        /* \"#utility.yul\":8503:8536   */\n      mstore\n        /* \"#utility.yul\":8318:8543   */\n      pop\n      jump\t// out\n        /* \"#utility.yul\":8549:8671   */\n    tag_122:\n        /* \"#utility.yul\":8622:8646   */\n      tag_224\n        /* \"#utility.yul\":8640:8645   */\n      dup2\n        /* \"#utility.yul\":8622:8646   */\n      tag_161\n      jump\t// in\n    tag_224:\n        /* \"#utility.yul\":8615:8620   */\n      dup2\n        /* \"#utility.yul\":8612:8647   */\n      eq\n        /* \"#utility.yul\":8602:8665   */\n      tag_225\n      jumpi\n        /* \"#utility.yul\":8661:8662   */\n      0x00\n        /* \"#utility.yul\":8658:8659   */\n      dup1\n        /* \"#utility.yul\":8651:8663   */\n      revert\n        /* \"#utility.yul\":8602:8665   */\n    tag_225:\n        /* \"#utility.yul\":8549:8671   */\n      pop\n      jump\t// out\n\n    auxdata: 0xa2646970667358221220b2d0527a76554298768f652d00297d9deb9e5d9af17231e1c5f7d357aa9eaddc64736f6c63430008070033\n}\n",
				"bytecode": {
					"linkReferences": {},
					"object": "608060405260006001553480156200001657600080fd5b5060405162000e0138038062000e0183398181016040528101906200003c9190620000b7565b33600260006101000a81548173ffffffffffffffffffffffffffffffffffffffff021916908373ffffffffffffffffffffffffffffffffffffffff160217905550670de0b6b3a764000081620000939190620000e9565b60038190555050620001a2565b600081519050620000b18162000188565b92915050565b600060208284031215620000d057620000cf62000183565b5b6000620000e084828501620000a0565b91505092915050565b6000620000f6826200014a565b915062000103836200014a565b9250817fffffffffffffffffffffffffffffffffffffffffffffffffffffffffffffffff04831182151516156200013f576200013e62000154565b5b828202905092915050565b6000819050919050565b7f4e487b7100000000000000000000000000000000000000000000000000000000600052601160045260246000fd5b600080fd5b62000193816200014a565b81146200019f57600080fd5b50565b610c4f80620001b26000396000f3fe60806040526004361061008a5760003560e01c80636f9fb98a116100595780636f9fb98a146101cb5780637f6b2809146101f657806382d69b6214610221578063a6c3e6b914610238578063ef352bbe14610263576100d5565b80630aa0a1751461011b57806317e703ab146101465780632edd4fa51461017157806359221a681461018d576100d5565b366100d55760035434146100d3576040517f08c379a00000000000000000000000000000000000000000000000000000000081526004016100ca90610918565b60405180910390fd5b005b6003543414610119576040517f08c379a000000000000000000000000000000000000000000000000000000000815260040161011090610918565b60405180910390fd5b005b34801561012757600080fd5b5061013061028e565b60405161013d9190610938565b60405180910390f35b34801561015257600080fd5b5061015b610294565b6040516101689190610938565b60405180910390f35b61018b600480360381019061018691906107a5565b61029e565b005b34801561019957600080fd5b506101b460048036038101906101af91906107ee565b610398565b6040516101c29291906108e8565b60405180910390f35b3480156101d757600080fd5b506101e0610464565b6040516101ed9190610938565b60405180910390f35b34801561020257600080fd5b5061020b61046c565b6040516102189190610938565b60405180910390f35b34801561022d57600080fd5b506102366104ad565b005b34801561024457600080fd5b5061024d610621565b60405161025a91906108a4565b60405180910390f35b34801561026f57600080fd5b50610278610647565b6040516102859190610938565b60405180910390f35b60035481565b6000600154905090565b60405180604001604052808281526020013373ffffffffffffffffffffffffffffffffffffffff16815250600080600154815260200190815260200160002060008201518160000190805190602001906102f992919061064d565b5060208201518160010160006101000a81548173ffffffffffffffffffffffffffffffffffffffff021916908373ffffffffffffffffffffffffffffffffffffffff1602179055509050506001600081548092919061035790610ab8565b91905055507f88a5966d370b9919b20f3e2c13ff65706f196a4e32cc2c12bf57088f88525874333460405161038d9291906108bf565b60405180910390a150565b60006020528060005260406000206000915090508060000180546103bb90610a55565b80601f01602080910402602001604051908101604052809291908181526020018280546103e790610a55565b80156104345780601f1061040957610100808354040283529160200191610434565b820191906000526020600020905b81548152906001019060200180831161041757829003601f168201915b5050505050908060010160009054906101000a900473ffffffffffffffffffffffffffffffffffffffff16905082565b600047905090565b6000600260009054906101000a900473ffffffffffffffffffffffffffffffffffffffff1673ffffffffffffffffffffffffffffffffffffffff1631905090565b6104b56106d3565b60005b60015481101561061d576000808281526020019081526020016000206040518060400160405290816000820180546104ef90610a55565b80601f016020809104026020016040519081016040528092919081815260200182805461051b90610a55565b80156105685780601f1061053d57610100808354040283529160200191610568565b820191906000526020600020905b81548152906001019060200180831161054b57829003601f168201915b505050505081526020016001820160009054906101000a900473ffffffffffffffffffffffffffffffffffffffff1673ffffffffffffffffffffffffffffffffffffffff1673ffffffffffffffffffffffffffffffffffffffff168152505091507f509008841c10ccf2d4360b0b681479c830f619aac14e8fac7ac253216fdae8f9826000015183602001516040516106029291906108e8565b60405180910390a1808061061590610ab8565b9150506104b8565b5050565b600260009054906101000a900473ffffffffffffffffffffffffffffffffffffffff1681565b60015481565b82805461065990610a55565b90600052602060002090601f01602090048101928261067b57600085556106c2565b82601f1061069457805160ff19168380011785556106c2565b828001600101855582156106c2579182015b828111156106c15782518255916020019190600101906106a6565b5b5090506106cf9190610703565b5090565b604051806040016040528060608152602001600073ffffffffffffffffffffffffffffffffffffffff1681525090565b5b8082111561071c576000816000905550600101610704565b5090565b600061073361072e84610978565b610953565b90508281526020810184848401111561074f5761074e610b93565b5b61075a848285610a13565b509392505050565b600082601f83011261077757610776610b8e565b5b8135610787848260208601610720565b91505092915050565b60008135905061079f81610c02565b92915050565b6000602082840312156107bb576107ba610b9d565b5b600082013567ffffffffffffffff8111156107d9576107d8610b98565b5b6107e584828501610762565b91505092915050565b60006020828403121561080457610803610b9d565b5b600061081284828501610790565b91505092915050565b610824816109d7565b82525050565b610833816109c5565b82525050565b6000610844826109a9565b61084e81856109b4565b935061085e818560208601610a22565b61086781610ba2565b840191505092915050565b600061087f6026836109b4565b915061088a82610bb3565b604082019050919050565b61089e81610a09565b82525050565b60006020820190506108b9600083018461081b565b92915050565b60006040820190506108d4600083018561082a565b6108e16020830184610895565b9392505050565b600060408201905081810360008301526109028185610839565b9050610911602083018461082a565b9392505050565b6000602082019050818103600083015261093181610872565b9050919050565b600060208201905061094d6000830184610895565b92915050565b600061095d61096e565b90506109698282610a87565b919050565b6000604051905090565b600067ffffffffffffffff82111561099357610992610b5f565b5b61099c82610ba2565b9050602081019050919050565b600081519050919050565b600082825260208201905092915050565b60006109d0826109e9565b9050919050565b60006109e2826109e9565b9050919050565b600073ffffffffffffffffffffffffffffffffffffffff82169050919050565b6000819050919050565b82818337600083830152505050565b60005b83811015610a40578082015181840152602081019050610a25565b83811115610a4f576000848401525b50505050565b60006002820490506001821680610a6d57607f821691505b60208210811415610a8157610a80610b30565b5b50919050565b610a9082610ba2565b810181811067ffffffffffffffff82111715610aaf57610aae610b5f565b5b80604052505050565b6000610ac382610a09565b91507fffffffffffffffffffffffffffffffffffffffffffffffffffffffffffffffff821415610af657610af5610b01565b5b600182019050919050565b7f4e487b7100000000000000000000000000000000000000000000000000000000600052601160045260246000fd5b7f4e487b7100000000000000000000000000000000000000000000000000000000600052602260045260246000fd5b7f4e487b7100000000000000000000000000000000000000000000000000000000600052604160045260246000fd5b600080fd5b600080fd5b600080fd5b600080fd5b6000601f19601f8301169050919050565b7f5061796d656e742073686f756c6420626520746865207375627363726970746960008201527f6f6e206665650000000000000000000000000000000000000000000000000000602082015250565b610c0b81610a09565b8114610c1657600080fd5b5056fea2646970667358221220b2d0527a76554298768f652d00297d9deb9e5d9af17231e1c5f7d357aa9eaddc64736f6c63430008070033",
					"opcodes": "PUSH1 0x80 PUSH1 0x40 MSTORE PUSH1 0x0 PUSH1 0x1 SSTORE CALLVALUE DUP1 ISZERO PUSH3 0x16 JUMPI PUSH1 0x0 DUP1 REVERT JUMPDEST POP PUSH1 0x40 MLOAD PUSH3 0xE01 CODESIZE SUB DUP1 PUSH3 0xE01 DUP4 CODECOPY DUP2 DUP2 ADD PUSH1 0x40 MSTORE DUP2 ADD SWAP1 PUSH3 0x3C SWAP2 SWAP1 PUSH3 0xB7 JUMP JUMPDEST CALLER PUSH1 0x2 PUSH1 0x0 PUSH2 0x100 EXP DUP2 SLOAD DUP2 PUSH20 0xFFFFFFFFFFFFFFFFFFFFFFFFFFFFFFFFFFFFFFFF MUL NOT AND SWAP1 DUP4 PUSH20 0xFFFFFFFFFFFFFFFFFFFFFFFFFFFFFFFFFFFFFFFF AND MUL OR SWAP1 SSTORE POP PUSH8 0xDE0B6B3A7640000 DUP2 PUSH3 0x93 SWAP2 SWAP1 PUSH3 0xE9 JUMP JUMPDEST PUSH1 0x3 DUP2 SWAP1 SSTORE POP POP PUSH3 0x1A2 JUMP JUMPDEST PUSH1 0x0 DUP2 MLOAD SWAP1 POP PUSH3 0xB1 DUP2 PUSH3 0x188 JUMP JUMPDEST SWAP3 SWAP2 POP POP JUMP JUMPDEST PUSH1 0x0 PUSH1 0x20 DUP3 DUP5 SUB SLT ISZERO PUSH3 0xD0 JUMPI PUSH3 0xCF PUSH3 0x183 JUMP JUMPDEST JUMPDEST PUSH1 0x0 PUSH3 0xE0 DUP5 DUP3 DUP6 ADD PUSH3 0xA0 JUMP JUMPDEST SWAP2 POP POP SWAP3 SWAP2 POP POP JUMP JUMPDEST PUSH1 0x0 PUSH3 0xF6 DUP3 PUSH3 0x14A JUMP JUMPDEST SWAP2 POP PUSH3 0x103 DUP4 PUSH3 0x14A JUMP JUMPDEST SWAP3 POP DUP2 PUSH32 0xFFFFFFFFFFFFFFFFFFFFFFFFFFFFFFFFFFFFFFFFFFFFFFFFFFFFFFFFFFFFFFFF DIV DUP4 GT DUP3 ISZERO ISZERO AND ISZERO PUSH3 0x13F JUMPI PUSH3 0x13E PUSH3 0x154 JUMP JUMPDEST JUMPDEST DUP3 DUP3 MUL SWAP1 POP SWAP3 SWAP2 POP POP JUMP JUMPDEST PUSH1 0x0 DUP2 SWAP1 POP SWAP2 SWAP1 POP JUMP JUMPDEST PUSH32 0x4E487B7100000000000000000000000000000000000000000000000000000000 PUSH1 0x0 MSTORE PUSH1 0x11 PUSH1 0x4 MSTORE PUSH1 0x24 PUSH1 0x0 REVERT JUMPDEST PUSH1 0x0 DUP1 REVERT JUMPDEST PUSH3 0x193 DUP2 PUSH3 0x14A JUMP JUMPDEST DUP2 EQ PUSH3 0x19F JUMPI PUSH1 0x0 DUP1 REVERT JUMPDEST POP JUMP JUMPDEST PUSH2 0xC4F DUP1 PUSH3 0x1B2 PUSH1 0x0 CODECOPY PUSH1 0x0 RETURN INVALID PUSH1 0x80 PUSH1 0x40 MSTORE PUSH1 0x4 CALLDATASIZE LT PUSH2 0x8A JUMPI PUSH1 0x0 CALLDATALOAD PUSH1 0xE0 SHR DUP1 PUSH4 0x6F9FB98A GT PUSH2 0x59 JUMPI DUP1 PUSH4 0x6F9FB98A EQ PUSH2 0x1CB JUMPI DUP1 PUSH4 0x7F6B2809 EQ PUSH2 0x1F6 JUMPI DUP1 PUSH4 0x82D69B62 EQ PUSH2 0x221 JUMPI DUP1 PUSH4 0xA6C3E6B9 EQ PUSH2 0x238 JUMPI DUP1 PUSH4 0xEF352BBE EQ PUSH2 0x263 JUMPI PUSH2 0xD5 JUMP JUMPDEST DUP1 PUSH4 0xAA0A175 EQ PUSH2 0x11B JUMPI DUP1 PUSH4 0x17E703AB EQ PUSH2 0x146 JUMPI DUP1 PUSH4 0x2EDD4FA5 EQ PUSH2 0x171 JUMPI DUP1 PUSH4 0x59221A68 EQ PUSH2 0x18D JUMPI PUSH2 0xD5 JUMP JUMPDEST CALLDATASIZE PUSH2 0xD5 JUMPI PUSH1 0x3 SLOAD CALLVALUE EQ PUSH2 0xD3 JUMPI PUSH1 0x40 MLOAD PUSH32 0x8C379A000000000000000000000000000000000000000000000000000000000 DUP2 MSTORE PUSH1 0x4 ADD PUSH2 0xCA SWAP1 PUSH2 0x918 JUMP JUMPDEST PUSH1 0x40 MLOAD DUP1 SWAP2 SUB SWAP1 REVERT JUMPDEST STOP JUMPDEST PUSH1 0x3 SLOAD CALLVALUE EQ PUSH2 0x119 JUMPI PUSH1 0x40 MLOAD PUSH32 0x8C379A000000000000000000000000000000000000000000000000000000000 DUP2 MSTORE PUSH1 0x4 ADD PUSH2 0x110 SWAP1 PUSH2 0x918 JUMP JUMPDEST PUSH1 0x40 MLOAD DUP1 SWAP2 SUB SWAP1 REVERT JUMPDEST STOP JUMPDEST CALLVALUE DUP1 ISZERO PUSH2 0x127 JUMPI PUSH1 0x0 DUP1 REVERT JUMPDEST POP PUSH2 0x130 PUSH2 0x28E JUMP JUMPDEST PUSH1 0x40 MLOAD PUSH2 0x13D SWAP2 SWAP1 PUSH2 0x938 JUMP JUMPDEST PUSH1 0x40 MLOAD DUP1 SWAP2 SUB SWAP1 RETURN JUMPDEST CALLVALUE DUP1 ISZERO PUSH2 0x152 JUMPI PUSH1 0x0 DUP1 REVERT JUMPDEST POP PUSH2 0x15B PUSH2 0x294 JUMP JUMPDEST PUSH1 0x40 MLOAD PUSH2 0x168 SWAP2 SWAP1 PUSH2 0x938 JUMP JUMPDEST PUSH1 0x40 MLOAD DUP1 SWAP2 SUB SWAP1 RETURN JUMPDEST PUSH2 0x18B PUSH1 0x4 DUP1 CALLDATASIZE SUB DUP2 ADD SWAP1 PUSH2 0x186 SWAP2 SWAP1 PUSH2 0x7A5 JUMP JUMPDEST PUSH2 0x29E JUMP JUMPDEST STOP JUMPDEST CALLVALUE DUP1 ISZERO PUSH2 0x199 JUMPI PUSH1 0x0 DUP1 REVERT JUMPDEST POP PUSH2 0x1B4 PUSH1 0x4 DUP1 CALLDATASIZE SUB DUP2 ADD SWAP1 PUSH2 0x1AF SWAP2 SWAP1 PUSH2 0x7EE JUMP JUMPDEST PUSH2 0x398 JUMP JUMPDEST PUSH1 0x40 MLOAD PUSH2 0x1C2 SWAP3 SWAP2 SWAP1 PUSH2 0x8E8 JUMP JUMPDEST PUSH1 0x40 MLOAD DUP1 SWAP2 SUB SWAP1 RETURN JUMPDEST CALLVALUE DUP1 ISZERO PUSH2 0x1D7 JUMPI PUSH1 0x0 DUP1 REVERT JUMPDEST POP PUSH2 0x1E0 PUSH2 0x464 JUMP JUMPDEST PUSH1 0x40 MLOAD PUSH2 0x1ED SWAP2 SWAP1 PUSH2 0x938 JUMP JUMPDEST PUSH1 0x40 MLOAD DUP1 SWAP2 SUB SWAP1 RETURN JUMPDEST CALLVALUE DUP1 ISZERO PUSH2 0x202 JUMPI PUSH1 0x0 DUP1 REVERT JUMPDEST POP PUSH2 0x20B PUSH2 0x46C JUMP JUMPDEST PUSH1 0x40 MLOAD PUSH2 0x218 SWAP2 SWAP1 PUSH2 0x938 JUMP JUMPDEST PUSH1 0x40 MLOAD DUP1 SWAP2 SUB SWAP1 RETURN JUMPDEST CALLVALUE DUP1 ISZERO PUSH2 0x22D JUMPI PUSH1 0x0 DUP1 REVERT JUMPDEST POP PUSH2 0x236 PUSH2 0x4AD JUMP JUMPDEST STOP JUMPDEST CALLVALUE DUP1 ISZERO PUSH2 0x244 JUMPI PUSH1 0x0 DUP1 REVERT JUMPDEST POP PUSH2 0x24D PUSH2 0x621 JUMP JUMPDEST PUSH1 0x40 MLOAD PUSH2 0x25A SWAP2 SWAP1 PUSH2 0x8A4 JUMP JUMPDEST PUSH1 0x40 MLOAD DUP1 SWAP2 SUB SWAP1 RETURN JUMPDEST CALLVALUE DUP1 ISZERO PUSH2 0x26F JUMPI PUSH1 0x0 DUP1 REVERT JUMPDEST POP PUSH2 0x278 PUSH2 0x647 JUMP JUMPDEST PUSH1 0x40 MLOAD PUSH2 0x285 SWAP2 SWAP1 PUSH2 0x938 JUMP JUMPDEST PUSH1 0x40 MLOAD DUP1 SWAP2 SUB SWAP1 RETURN JUMPDEST PUSH1 0x3 SLOAD DUP2 JUMP JUMPDEST PUSH1 0x0 PUSH1 0x1 SLOAD SWAP1 POP SWAP1 JUMP JUMPDEST PUSH1 0x40 MLOAD DUP1 PUSH1 0x40 ADD PUSH1 0x40 MSTORE DUP1 DUP3 DUP2 MSTORE PUSH1 0x20 ADD CALLER PUSH20 0xFFFFFFFFFFFFFFFFFFFFFFFFFFFFFFFFFFFFFFFF AND DUP2 MSTORE POP PUSH1 0x0 DUP1 PUSH1 0x1 SLOAD DUP2 MSTORE PUSH1 0x20 ADD SWAP1 DUP2 MSTORE PUSH1 0x20 ADD PUSH1 0x0 KECCAK256 PUSH1 0x0 DUP3 ADD MLOAD DUP2 PUSH1 0x0 ADD SWAP1 DUP1 MLOAD SWAP1 PUSH1 0x20 ADD SWAP1 PUSH2 0x2F9 SWAP3 SWAP2 SWAP1 PUSH2 0x64D JUMP JUMPDEST POP PUSH1 0x20 DUP3 ADD MLOAD DUP2 PUSH1 0x1 ADD PUSH1 0x0 PUSH2 0x100 EXP DUP2 SLOAD DUP2 PUSH20 0xFFFFFFFFFFFFFFFFFFFFFFFFFFFFFFFFFFFFFFFF MUL NOT AND SWAP1 DUP4 PUSH20 0xFFFFFFFFFFFFFFFFFFFFFFFFFFFFFFFFFFFFFFFF AND MUL OR SWAP1 SSTORE POP SWAP1 POP POP PUSH1 0x1 PUSH1 0x0 DUP2 SLOAD DUP1 SWAP3 SWAP2 SWAP1 PUSH2 0x357 SWAP1 PUSH2 0xAB8 JUMP JUMPDEST SWAP2 SWAP1 POP SSTORE POP PUSH32 0x88A5966D370B9919B20F3E2C13FF65706F196A4E32CC2C12BF57088F88525874 CALLER CALLVALUE PUSH1 0x40 MLOAD PUSH2 0x38D SWAP3 SWAP2 SWAP1 PUSH2 0x8BF JUMP JUMPDEST PUSH1 0x40 MLOAD DUP1 SWAP2 SUB SWAP1 LOG1 POP JUMP JUMPDEST PUSH1 0x0 PUSH1 0x20 MSTORE DUP1 PUSH1 0x0 MSTORE PUSH1 0x40 PUSH1 0x0 KECCAK256 PUSH1 0x0 SWAP2 POP SWAP1 POP DUP1 PUSH1 0x0 ADD DUP1 SLOAD PUSH2 0x3BB SWAP1 PUSH2 0xA55 JUMP JUMPDEST DUP1 PUSH1 0x1F ADD PUSH1 0x20 DUP1 SWAP2 DIV MUL PUSH1 0x20 ADD PUSH1 0x40 MLOAD SWAP1 DUP2 ADD PUSH1 0x40 MSTORE DUP1 SWAP3 SWAP2 SWAP1 DUP2 DUP2 MSTORE PUSH1 0x20 ADD DUP3 DUP1 SLOAD PUSH2 0x3E7 SWAP1 PUSH2 0xA55 JUMP JUMPDEST DUP1 ISZERO PUSH2 0x434 JUMPI DUP1 PUSH1 0x1F LT PUSH2 0x409 JUMPI PUSH2 0x100 DUP1 DUP4 SLOAD DIV MUL DUP4 MSTORE SWAP2 PUSH1 0x20 ADD SWAP2 PUSH2 0x434 JUMP JUMPDEST DUP3 ADD SWAP2 SWAP1 PUSH1 0x0 MSTORE PUSH1 0x20 PUSH1 0x0 KECCAK256 SWAP1 JUMPDEST DUP2 SLOAD DUP2 MSTORE SWAP1 PUSH1 0x1 ADD SWAP1 PUSH1 0x20 ADD DUP1 DUP4 GT PUSH2 0x417 JUMPI DUP3 SWAP1 SUB PUSH1 0x1F AND DUP3 ADD SWAP2 JUMPDEST POP POP POP POP POP SWAP1 DUP1 PUSH1 0x1 ADD PUSH1 0x0 SWAP1 SLOAD SWAP1 PUSH2 0x100 EXP SWAP1 DIV PUSH20 0xFFFFFFFFFFFFFFFFFFFFFFFFFFFFFFFFFFFFFFFF AND SWAP1 POP DUP3 JUMP JUMPDEST PUSH1 0x0 SELFBALANCE SWAP1 POP SWAP1 JUMP JUMPDEST PUSH1 0x0 PUSH1 0x2 PUSH1 0x0 SWAP1 SLOAD SWAP1 PUSH2 0x100 EXP SWAP1 DIV PUSH20 0xFFFFFFFFFFFFFFFFFFFFFFFFFFFFFFFFFFFFFFFF AND PUSH20 0xFFFFFFFFFFFFFFFFFFFFFFFFFFFFFFFFFFFFFFFF AND BALANCE SWAP1 POP SWAP1 JUMP JUMPDEST PUSH2 0x4B5 PUSH2 0x6D3 JUMP JUMPDEST PUSH1 0x0 JUMPDEST PUSH1 0x1 SLOAD DUP2 LT ISZERO PUSH2 0x61D JUMPI PUSH1 0x0 DUP1 DUP3 DUP2 MSTORE PUSH1 0x20 ADD SWAP1 DUP2 MSTORE PUSH1 0x20 ADD PUSH1 0x0 KECCAK256 PUSH1 0x40 MLOAD DUP1 PUSH1 0x40 ADD PUSH1 0x40 MSTORE SWAP1 DUP2 PUSH1 0x0 DUP3 ADD DUP1 SLOAD PUSH2 0x4EF SWAP1 PUSH2 0xA55 JUMP JUMPDEST DUP1 PUSH1 0x1F ADD PUSH1 0x20 DUP1 SWAP2 DIV MUL PUSH1 0x20 ADD PUSH1 0x40 MLOAD SWAP1 DUP2 ADD PUSH1 0x40 MSTORE DUP1 SWAP3 SWAP2 SWAP1 DUP2 DUP2 MSTORE PUSH1 0x20 ADD DUP3 DUP1 SLOAD PUSH2 0x51B SWAP1 PUSH2 0xA55 JUMP JUMPDEST DUP1 ISZERO PUSH2 0x568 JUMPI DUP1 PUSH1 0x1F LT PUSH2 0x53D JUMPI PUSH2 0x100 DUP1 DUP4 SLOAD DIV MUL DUP4 MSTORE SWAP2 PUSH1 0x20 ADD SWAP2 PUSH2 0x568 JUMP JUMPDEST DUP3 ADD SWAP2 SWAP1 PUSH1 0x0 MSTORE PUSH1 0x20 PUSH1 0x0 KECCAK256 SWAP1 JUMPDEST DUP2 SLOAD DUP2 MSTORE SWAP1 PUSH1 0x1 ADD SWAP1 PUSH1 0x20 ADD DUP1 DUP4 GT PUSH2 0x54B JUMPI DUP3 SWAP1 SUB PUSH1 0x1F AND DUP3 ADD SWAP2 JUMPDEST POP POP POP POP POP DUP2 MSTORE PUSH1 0x20 ADD PUSH1 0x1 DUP3 ADD PUSH1 0x0 SWAP1 SLOAD SWAP1 PUSH2 0x100 EXP SWAP1 DIV PUSH20 0xFFFFFFFFFFFFFFFFFFFFFFFFFFFFFFFFFFFFFFFF AND PUSH20 0xFFFFFFFFFFFFFFFFFFFFFFFFFFFFFFFFFFFFFFFF AND PUSH20 0xFFFFFFFFFFFFFFFFFFFFFFFFFFFFFFFFFFFFFFFF AND DUP2 MSTORE POP POP SWAP2 POP PUSH32 0x509008841C10CCF2D4360B0B681479C830F619AAC14E8FAC7AC253216FDAE8F9 DUP3 PUSH1 0x0 ADD MLOAD DUP4 PUSH1 0x20 ADD MLOAD PUSH1 0x40 MLOAD PUSH2 0x602 SWAP3 SWAP2 SWAP1 PUSH2 0x8E8 JUMP JUMPDEST PUSH1 0x40 MLOAD DUP1 SWAP2 SUB SWAP1 LOG1 DUP1 DUP1 PUSH2 0x615 SWAP1 PUSH2 0xAB8 JUMP JUMPDEST SWAP2 POP POP PUSH2 0x4B8 JUMP JUMPDEST POP POP JUMP JUMPDEST PUSH1 0x2 PUSH1 0x0 SWAP1 SLOAD SWAP1 PUSH2 0x100 EXP SWAP1 DIV PUSH20 0xFFFFFFFFFFFFFFFFFFFFFFFFFFFFFFFFFFFFFFFF AND DUP2 JUMP JUMPDEST PUSH1 0x1 SLOAD DUP2 JUMP JUMPDEST DUP3 DUP1 SLOAD PUSH2 0x659 SWAP1 PUSH2 0xA55 JUMP JUMPDEST SWAP1 PUSH1 0x0 MSTORE PUSH1 0x20 PUSH1 0x0 KECCAK256 SWAP1 PUSH1 0x1F ADD PUSH1 0x20 SWAP1 DIV DUP2 ADD SWAP3 DUP3 PUSH2 0x67B JUMPI PUSH1 0x0 DUP6 SSTORE PUSH2 0x6C2 JUMP JUMPDEST DUP3 PUSH1 0x1F LT PUSH2 0x694 JUMPI DUP1 MLOAD PUSH1 0xFF NOT AND DUP4 DUP1 ADD OR DUP6 SSTORE PUSH2 0x6C2 JUMP JUMPDEST DUP3 DUP1 ADD PUSH1 0x1 ADD DUP6 SSTORE DUP3 ISZERO PUSH2 0x6C2 JUMPI SWAP2 DUP3 ADD JUMPDEST DUP3 DUP2 GT ISZERO PUSH2 0x6C1 JUMPI DUP3 MLOAD DUP3 SSTORE SWAP2 PUSH1 0x20 ADD SWAP2 SWAP1 PUSH1 0x1 ADD SWAP1 PUSH2 0x6A6 JUMP JUMPDEST JUMPDEST POP SWAP1 POP PUSH2 0x6CF SWAP2 SWAP1 PUSH2 0x703 JUMP JUMPDEST POP SWAP1 JUMP JUMPDEST PUSH1 0x40 MLOAD DUP1 PUSH1 0x40 ADD PUSH1 0x40 MSTORE DUP1 PUSH1 0x60 DUP2 MSTORE PUSH1 0x20 ADD PUSH1 0x0 PUSH20 0xFFFFFFFFFFFFFFFFFFFFFFFFFFFFFFFFFFFFFFFF AND DUP2 MSTORE POP SWAP1 JUMP JUMPDEST JUMPDEST DUP1 DUP3 GT ISZERO PUSH2 0x71C JUMPI PUSH1 0x0 DUP2 PUSH1 0x0 SWAP1 SSTORE POP PUSH1 0x1 ADD PUSH2 0x704 JUMP JUMPDEST POP SWAP1 JUMP JUMPDEST PUSH1 0x0 PUSH2 0x733 PUSH2 0x72E DUP5 PUSH2 0x978 JUMP JUMPDEST PUSH2 0x953 JUMP JUMPDEST SWAP1 POP DUP3 DUP2 MSTORE PUSH1 0x20 DUP2 ADD DUP5 DUP5 DUP5 ADD GT ISZERO PUSH2 0x74F JUMPI PUSH2 0x74E PUSH2 0xB93 JUMP JUMPDEST JUMPDEST PUSH2 0x75A DUP5 DUP3 DUP6 PUSH2 0xA13 JUMP JUMPDEST POP SWAP4 SWAP3 POP POP POP JUMP JUMPDEST PUSH1 0x0 DUP3 PUSH1 0x1F DUP4 ADD SLT PUSH2 0x777 JUMPI PUSH2 0x776 PUSH2 0xB8E JUMP JUMPDEST JUMPDEST DUP2 CALLDATALOAD PUSH2 0x787 DUP5 DUP3 PUSH1 0x20 DUP7 ADD PUSH2 0x720 JUMP JUMPDEST SWAP2 POP POP SWAP3 SWAP2 POP POP JUMP JUMPDEST PUSH1 0x0 DUP2 CALLDATALOAD SWAP1 POP PUSH2 0x79F DUP2 PUSH2 0xC02 JUMP JUMPDEST SWAP3 SWAP2 POP POP JUMP JUMPDEST PUSH1 0x0 PUSH1 0x20 DUP3 DUP5 SUB SLT ISZERO PUSH2 0x7BB JUMPI PUSH2 0x7BA PUSH2 0xB9D JUMP JUMPDEST JUMPDEST PUSH1 0x0 DUP3 ADD CALLDATALOAD PUSH8 0xFFFFFFFFFFFFFFFF DUP2 GT ISZERO PUSH2 0x7D9 JUMPI PUSH2 0x7D8 PUSH2 0xB98 JUMP JUMPDEST JUMPDEST PUSH2 0x7E5 DUP5 DUP3 DUP6 ADD PUSH2 0x762 JUMP JUMPDEST SWAP2 POP POP SWAP3 SWAP2 POP POP JUMP JUMPDEST PUSH1 0x0 PUSH1 0x20 DUP3 DUP5 SUB SLT ISZERO PUSH2 0x804 JUMPI PUSH2 0x803 PUSH2 0xB9D JUMP JUMPDEST JUMPDEST PUSH1 0x0 PUSH2 0x812 DUP5 DUP3 DUP6 ADD PUSH2 0x790 JUMP JUMPDEST SWAP2 POP POP SWAP3 SWAP2 POP POP JUMP JUMPDEST PUSH2 0x824 DUP2 PUSH2 0x9D7 JUMP JUMPDEST DUP3 MSTORE POP POP JUMP JUMPDEST PUSH2 0x833 DUP2 PUSH2 0x9C5 JUMP JUMPDEST DUP3 MSTORE POP POP JUMP JUMPDEST PUSH1 0x0 PUSH2 0x844 DUP3 PUSH2 0x9A9 JUMP JUMPDEST PUSH2 0x84E DUP2 DUP6 PUSH2 0x9B4 JUMP JUMPDEST SWAP4 POP PUSH2 0x85E DUP2 DUP6 PUSH1 0x20 DUP7 ADD PUSH2 0xA22 JUMP JUMPDEST PUSH2 0x867 DUP2 PUSH2 0xBA2 JUMP JUMPDEST DUP5 ADD SWAP2 POP POP SWAP3 SWAP2 POP POP JUMP JUMPDEST PUSH1 0x0 PUSH2 0x87F PUSH1 0x26 DUP4 PUSH2 0x9B4 JUMP JUMPDEST SWAP2 POP PUSH2 0x88A DUP3 PUSH2 0xBB3 JUMP JUMPDEST PUSH1 0x40 DUP3 ADD SWAP1 POP SWAP2 SWAP1 POP JUMP JUMPDEST PUSH2 0x89E DUP2 PUSH2 0xA09 JUMP JUMPDEST DUP3 MSTORE POP POP JUMP JUMPDEST PUSH1 0x0 PUSH1 0x20 DUP3 ADD SWAP1 POP PUSH2 0x8B9 PUSH1 0x0 DUP4 ADD DUP5 PUSH2 0x81B JUMP JUMPDEST SWAP3 SWAP2 POP POP JUMP JUMPDEST PUSH1 0x0 PUSH1 0x40 DUP3 ADD SWAP1 POP PUSH2 0x8D4 PUSH1 0x0 DUP4 ADD DUP6 PUSH2 0x82A JUMP JUMPDEST PUSH2 0x8E1 PUSH1 0x20 DUP4 ADD DUP5 PUSH2 0x895 JUMP JUMPDEST SWAP4 SWAP3 POP POP POP JUMP JUMPDEST PUSH1 0x0 PUSH1 0x40 DUP3 ADD SWAP1 POP DUP2 DUP2 SUB PUSH1 0x0 DUP4 ADD MSTORE PUSH2 0x902 DUP2 DUP6 PUSH2 0x839 JUMP JUMPDEST SWAP1 POP PUSH2 0x911 PUSH1 0x20 DUP4 ADD DUP5 PUSH2 0x82A JUMP JUMPDEST SWAP4 SWAP3 POP POP POP JUMP JUMPDEST PUSH1 0x0 PUSH1 0x20 DUP3 ADD SWAP1 POP DUP2 DUP2 SUB PUSH1 0x0 DUP4 ADD MSTORE PUSH2 0x931 DUP2 PUSH2 0x872 JUMP JUMPDEST SWAP1 POP SWAP2 SWAP1 POP JUMP JUMPDEST PUSH1 0x0 PUSH1 0x20 DUP3 ADD SWAP1 POP PUSH2 0x94D PUSH1 0x0 DUP4 ADD DUP5 PUSH2 0x895 JUMP JUMPDEST SWAP3 SWAP2 POP POP JUMP JUMPDEST PUSH1 0x0 PUSH2 0x95D PUSH2 0x96E JUMP JUMPDEST SWAP1 POP PUSH2 0x969 DUP3 DUP3 PUSH2 0xA87 JUMP JUMPDEST SWAP2 SWAP1 POP JUMP JUMPDEST PUSH1 0x0 PUSH1 0x40 MLOAD SWAP1 POP SWAP1 JUMP JUMPDEST PUSH1 0x0 PUSH8 0xFFFFFFFFFFFFFFFF DUP3 GT ISZERO PUSH2 0x993 JUMPI PUSH2 0x992 PUSH2 0xB5F JUMP JUMPDEST JUMPDEST PUSH2 0x99C DUP3 PUSH2 0xBA2 JUMP JUMPDEST SWAP1 POP PUSH1 0x20 DUP2 ADD SWAP1 POP SWAP2 SWAP1 POP JUMP JUMPDEST PUSH1 0x0 DUP2 MLOAD SWAP1 POP SWAP2 SWAP1 POP JUMP JUMPDEST PUSH1 0x0 DUP3 DUP3 MSTORE PUSH1 0x20 DUP3 ADD SWAP1 POP SWAP3 SWAP2 POP POP JUMP JUMPDEST PUSH1 0x0 PUSH2 0x9D0 DUP3 PUSH2 0x9E9 JUMP JUMPDEST SWAP1 POP SWAP2 SWAP1 POP JUMP JUMPDEST PUSH1 0x0 PUSH2 0x9E2 DUP3 PUSH2 0x9E9 JUMP JUMPDEST SWAP1 POP SWAP2 SWAP1 POP JUMP JUMPDEST PUSH1 0x0 PUSH20 0xFFFFFFFFFFFFFFFFFFFFFFFFFFFFFFFFFFFFFFFF DUP3 AND SWAP1 POP SWAP2 SWAP1 POP JUMP JUMPDEST PUSH1 0x0 DUP2 SWAP1 POP SWAP2 SWAP1 POP JUMP JUMPDEST DUP3 DUP2 DUP4 CALLDATACOPY PUSH1 0x0 DUP4 DUP4 ADD MSTORE POP POP POP JUMP JUMPDEST PUSH1 0x0 JUMPDEST DUP4 DUP2 LT ISZERO PUSH2 0xA40 JUMPI DUP1 DUP3 ADD MLOAD DUP2 DUP5 ADD MSTORE PUSH1 0x20 DUP2 ADD SWAP1 POP PUSH2 0xA25 JUMP JUMPDEST DUP4 DUP2 GT ISZERO PUSH2 0xA4F JUMPI PUSH1 0x0 DUP5 DUP5 ADD MSTORE JUMPDEST POP POP POP POP JUMP JUMPDEST PUSH1 0x0 PUSH1 0x2 DUP3 DIV SWAP1 POP PUSH1 0x1 DUP3 AND DUP1 PUSH2 0xA6D JUMPI PUSH1 0x7F DUP3 AND SWAP2 POP JUMPDEST PUSH1 0x20 DUP3 LT DUP2 EQ ISZERO PUSH2 0xA81 JUMPI PUSH2 0xA80 PUSH2 0xB30 JUMP JUMPDEST JUMPDEST POP SWAP2 SWAP1 POP JUMP JUMPDEST PUSH2 0xA90 DUP3 PUSH2 0xBA2 JUMP JUMPDEST DUP2 ADD DUP2 DUP2 LT PUSH8 0xFFFFFFFFFFFFFFFF DUP3 GT OR ISZERO PUSH2 0xAAF JUMPI PUSH2 0xAAE PUSH2 0xB5F JUMP JUMPDEST JUMPDEST DUP1 PUSH1 0x40 MSTORE POP POP POP JUMP JUMPDEST PUSH1 0x0 PUSH2 0xAC3 DUP3 PUSH2 0xA09 JUMP JUMPDEST SWAP2 POP PUSH32 0xFFFFFFFFFFFFFFFFFFFFFFFFFFFFFFFFFFFFFFFFFFFFFFFFFFFFFFFFFFFFFFFF DUP3 EQ ISZERO PUSH2 0xAF6 JUMPI PUSH2 0xAF5 PUSH2 0xB01 JUMP JUMPDEST JUMPDEST PUSH1 0x1 DUP3 ADD SWAP1 POP SWAP2 SWAP1 POP JUMP JUMPDEST PUSH32 0x4E487B7100000000000000000000000000000000000000000000000000000000 PUSH1 0x0 MSTORE PUSH1 0x11 PUSH1 0x4 MSTORE PUSH1 0x24 PUSH1 0x0 REVERT JUMPDEST PUSH32 0x4E487B7100000000000000000000000000000000000000000000000000000000 PUSH1 0x0 MSTORE PUSH1 0x22 PUSH1 0x4 MSTORE PUSH1 0x24 PUSH1 0x0 REVERT JUMPDEST PUSH32 0x4E487B7100000000000000000000000000000000000000000000000000000000 PUSH1 0x0 MSTORE PUSH1 0x41 PUSH1 0x4 MSTORE PUSH1 0x24 PUSH1 0x0 REVERT JUMPDEST PUSH1 0x0 DUP1 REVERT JUMPDEST PUSH1 0x0 DUP1 REVERT JUMPDEST PUSH1 0x0 DUP1 REVERT JUMPDEST PUSH1 0x0 DUP1 REVERT JUMPDEST PUSH1 0x0 PUSH1 0x1F NOT PUSH1 0x1F DUP4 ADD AND SWAP1 POP SWAP2 SWAP1 POP JUMP JUMPDEST PUSH32 0x5061796D656E742073686F756C64206265207468652073756273637269707469 PUSH1 0x0 DUP3 ADD MSTORE PUSH32 0x6F6E206665650000000000000000000000000000000000000000000000000000 PUSH1 0x20 DUP3 ADD MSTORE POP JUMP JUMPDEST PUSH2 0xC0B DUP2 PUSH2 0xA09 JUMP JUMPDEST DUP2 EQ PUSH2 0xC16 JUMPI PUSH1 0x0 DUP1 REVERT JUMPDEST POP JUMP INVALID LOG2 PUSH5 0x6970667358 0x22 SLT KECCAK256 0xB2 0xD0 MSTORE PUSH27 0x76554298768F652D00297D9DEB9E5D9AF17231E1C5F7D357AA9EAD 0xDC PUSH5 0x736F6C6343 STOP ADDMOD SMOD STOP CALLER "
				},
				"gasEstimates": {
					"creation": {
						"codeDepositCost": "630200",
						"executionCost": "infinite",
						"totalCost": "infinite"
					},
					"external": {
						"": "2612",
						"addSubscriber(string)": "infinite",
						"author()": "2580",
						"getAuthorBalance()": "5101",
						"getContractBalance()": "339",
						"getSubscriberCount()": "2460",
						"printSubscribersList()": "infinite",
						"subscriberCount()": "2517",
						"subscribers(uint256)": "infinite",
						"subscriptionFee()": "2430"
					}
				},
				"methodIdentifiers": {
					"addSubscriber(string)": "2edd4fa5",
					"author()": "a6c3e6b9",
					"getAuthorBalance()": "7f6b2809",
					"getContractBalance()": "6f9fb98a",
					"getSubscriberCount()": "17e703ab",
					"printSubscribersList()": "82d69b62",
					"subscriberCount()": "ef352bbe",
					"subscribers(uint256)": "59221a68",
					"subscriptionFee()": "0aa0a175"
				}
			},
			"storageLayout": {
				"storage": [
					{
						"astId": 6,
						"contract": "contracts/myContract.sol:testContract",
						"label": "subscribers",
						"offset": 0,
						"slot": "0",
						"type": "t_mapping(t_uint256,t_struct(subscriber)14_storage)"
					},
					{
						"astId": 9,
						"contract": "contracts/myContract.sol:testContract",
						"label": "subscriberCount",
						"offset": 0,
						"slot": "1",
						"type": "t_uint256"
					},
					{
						"astId": 16,
						"contract": "contracts/myContract.sol:testContract",
						"label": "author",
						"offset": 0,
						"slot": "2",
						"type": "t_address_payable"
					},
					{
						"astId": 18,
						"contract": "contracts/myContract.sol:testContract",
						"label": "subscriptionFee",
						"offset": 0,
						"slot": "3",
						"type": "t_uint256"
					}
				],
				"types": {
					"t_address": {
						"encoding": "inplace",
						"label": "address",
						"numberOfBytes": "20"
					},
					"t_address_payable": {
						"encoding": "inplace",
						"label": "address payable",
						"numberOfBytes": "20"
					},
					"t_mapping(t_uint256,t_struct(subscriber)14_storage)": {
						"encoding": "mapping",
						"key": "t_uint256",
						"label": "mapping(uint256 => struct testContract.subscriber)",
						"numberOfBytes": "32",
						"value": "t_struct(subscriber)14_storage"
					},
					"t_string_storage": {
						"encoding": "bytes",
						"label": "string",
						"numberOfBytes": "32"
					},
					"t_struct(subscriber)14_storage": {
						"encoding": "inplace",
						"label": "struct testContract.subscriber",
						"members": [
							{
								"astId": 11,
								"contract": "contracts/myContract.sol:testContract",
								"label": "name",
								"offset": 0,
								"slot": "0",
								"type": "t_string_storage"
							},
							{
								"astId": 13,
								"contract": "contracts/myContract.sol:testContract",
								"label": "addr",
								"offset": 0,
								"slot": "1",
								"type": "t_address"
							}
						],
						"numberOfBytes": "64"
					},
					"t_uint256": {
						"encoding": "inplace",
						"label": "uint256",
						"numberOfBytes": "32"
					}
				}
			},
			"userdoc": {
				"kind": "user",
				"methods": {},
				"version": 1
			}
		}
	}
}