{
	"contracts/myContract.sol": {
		"testContract": {
			"abi": [
				{
					"inputs": [
						{
							"internalType": "uint256",
							"name": "_fee",
							"type": "uint256"
						},
						{
							"internalType": "string",
							"name": "_channelName",
							"type": "string"
						}
					],
					"stateMutability": "nonpayable",
					"type": "constructor"
				},
				{
					"stateMutability": "payable",
					"type": "fallback"
				},
				{
					"inputs": [],
					"name": "addSubscriber",
					"outputs": [],
					"stateMutability": "payable",
					"type": "function"
				},
				{
					"inputs": [],
					"name": "channelName",
					"outputs": [
						{
							"internalType": "string",
							"name": "",
							"type": "string"
						}
					],
					"stateMutability": "view",
					"type": "function"
				},
				{
					"inputs": [],
					"name": "printSubscribersList",
					"outputs": [
						{
							"internalType": "address[]",
							"name": "",
							"type": "address[]"
						}
					],
					"stateMutability": "view",
					"type": "function"
				},
				{
					"inputs": [],
					"name": "subscriptionFee",
					"outputs": [
						{
							"internalType": "uint256",
							"name": "",
							"type": "uint256"
						}
					],
					"stateMutability": "view",
					"type": "function"
				},
				{
					"inputs": [],
					"name": "withdrawAmount",
					"outputs": [],
					"stateMutability": "payable",
					"type": "function"
				},
				{
					"stateMutability": "payable",
					"type": "receive"
				}
			],
			"devdoc": {
				"kind": "dev",
				"methods": {},
				"version": 1
			},
			"evm": {
				"assembly": "    /* \"contracts/myContract.sol\":76:1482  contract testContract {\r... */\n  mstore(0x40, 0x80)\n    /* \"contracts/myContract.sol\":193:194  0 */\n  0x00\n    /* \"contracts/myContract.sol\":162:194  uint private subscriberCount = 0 */\n  0x01\n  sstore\n    /* \"contracts/myContract.sol\":451:624  constructor(uint _fee, string memory _channelName){\r... */\n  callvalue\n  dup1\n  iszero\n  tag_1\n  jumpi\n  0x00\n  dup1\n  revert\ntag_1:\n  pop\n  mload(0x40)\n  sub(codesize, bytecodeSize)\n  dup1\n  bytecodeSize\n  dup4\n  codecopy\n  dup2\n  dup2\n  add\n  0x40\n  mstore\n  dup2\n  add\n  swap1\n  tag_2\n  swap2\n  swap1\n  tag_3\n  jump\t// in\ntag_2:\n    /* \"contracts/myContract.sol\":529:539  msg.sender */\n  caller\n    /* \"contracts/myContract.sol\":512:518  author */\n  0x02\n  0x00\n    /* \"contracts/myContract.sol\":512:540  author = payable(msg.sender) */\n  0x0100\n  exp\n  dup2\n  sload\n  dup2\n  0xffffffffffffffffffffffffffffffffffffffff\n  mul\n  not\n  and\n  swap1\n  dup4\n  0xffffffffffffffffffffffffffffffffffffffff\n  and\n  mul\n  or\n  swap1\n  sstore\n  pop\n    /* \"contracts/myContract.sol\":576:579  1e9 */\n  0x3b9aca00\n    /* \"contracts/myContract.sol\":569:573  _fee */\n  dup3\n    /* \"contracts/myContract.sol\":569:579  _fee * 1e9 */\n  tag_6\n  swap2\n  swap1\n  tag_7\n  jump\t// in\ntag_6:\n    /* \"contracts/myContract.sol\":551:566  subscriptionFee */\n  0x03\n    /* \"contracts/myContract.sol\":551:579  subscriptionFee = _fee * 1e9 */\n  dup2\n  swap1\n  sstore\n  pop\n    /* \"contracts/myContract.sol\":604:616  _channelName */\n  dup1\n    /* \"contracts/myContract.sol\":590:601  channelName */\n  0x04\n    /* \"contracts/myContract.sol\":590:616  channelName = _channelName */\n  swap1\n  dup1\n  mload\n  swap1\n  0x20\n  add\n  swap1\n  tag_8\n  swap3\n  swap2\n  swap1\n  tag_9\n  jump\t// in\ntag_8:\n  pop\n    /* \"contracts/myContract.sol\":451:624  constructor(uint _fee, string memory _channelName){\r... */\n  pop\n  pop\n    /* \"contracts/myContract.sol\":76:1482  contract testContract {\r... */\n  jump(tag_10)\ntag_9:\n  dup3\n  dup1\n  sload\n  tag_11\n  swap1\n  tag_12\n  jump\t// in\ntag_11:\n  swap1\n  0x00\n  mstore\n  keccak256(0x00, 0x20)\n  swap1\n  0x1f\n  add\n  0x20\n  swap1\n  div\n  dup2\n  add\n  swap3\n  dup3\n  tag_14\n  jumpi\n  0x00\n  dup6\n  sstore\n  jump(tag_13)\ntag_14:\n  dup3\n  0x1f\n  lt\n  tag_15\n  jumpi\n  dup1\n  mload\n  not(0xff)\n  and\n  dup4\n  dup1\n  add\n  or\n  dup6\n  sstore\n  jump(tag_13)\ntag_15:\n  dup3\n  dup1\n  add\n  0x01\n  add\n  dup6\n  sstore\n  dup3\n  iszero\n  tag_13\n  jumpi\n  swap2\n  dup3\n  add\ntag_16:\n  dup3\n  dup2\n  gt\n  iszero\n  tag_17\n  jumpi\n  dup3\n  mload\n  dup3\n  sstore\n  swap2\n  0x20\n  add\n  swap2\n  swap1\n  0x01\n  add\n  swap1\n  jump(tag_16)\ntag_17:\ntag_13:\n  pop\n  swap1\n  pop\n  tag_18\n  swap2\n  swap1\n  tag_19\n  jump\t// in\ntag_18:\n  pop\n  swap1\n  jump\t// out\ntag_19:\ntag_20:\n  dup1\n  dup3\n  gt\n  iszero\n  tag_21\n  jumpi\n  0x00\n  dup2\n  0x00\n  swap1\n  sstore\n  pop\n  0x01\n  add\n  jump(tag_20)\ntag_21:\n  pop\n  swap1\n  jump\t// out\n    /* \"#utility.yul\":7:428   */\ntag_23:\n    /* \"#utility.yul\":96:101   */\n  0x00\n    /* \"#utility.yul\":121:187   */\n  tag_25\n    /* \"#utility.yul\":137:186   */\n  tag_26\n    /* \"#utility.yul\":179:185   */\n  dup5\n    /* \"#utility.yul\":137:186   */\n  tag_27\n  jump\t// in\ntag_26:\n    /* \"#utility.yul\":121:187   */\n  tag_28\n  jump\t// in\ntag_25:\n    /* \"#utility.yul\":112:187   */\n  swap1\n  pop\n    /* \"#utility.yul\":210:216   */\n  dup3\n    /* \"#utility.yul\":203:208   */\n  dup2\n    /* \"#utility.yul\":196:217   */\n  mstore\n    /* \"#utility.yul\":248:252   */\n  0x20\n    /* \"#utility.yul\":241:246   */\n  dup2\n    /* \"#utility.yul\":237:253   */\n  add\n    /* \"#utility.yul\":286:289   */\n  dup5\n    /* \"#utility.yul\":277:283   */\n  dup5\n    /* \"#utility.yul\":272:275   */\n  dup5\n    /* \"#utility.yul\":268:284   */\n  add\n    /* \"#utility.yul\":265:290   */\n  gt\n    /* \"#utility.yul\":262:374   */\n  iszero\n  tag_29\n  jumpi\n    /* \"#utility.yul\":293:372   */\n  tag_30\n  tag_31\n  jump\t// in\ntag_30:\n    /* \"#utility.yul\":262:374   */\ntag_29:\n    /* \"#utility.yul\":383:422   */\n  tag_32\n    /* \"#utility.yul\":415:421   */\n  dup5\n    /* \"#utility.yul\":410:413   */\n  dup3\n    /* \"#utility.yul\":405:408   */\n  dup6\n    /* \"#utility.yul\":383:422   */\n  tag_33\n  jump\t// in\ntag_32:\n    /* \"#utility.yul\":102:428   */\n  pop\n    /* \"#utility.yul\":7:428   */\n  swap4\n  swap3\n  pop\n  pop\n  pop\n  jump\t// out\n    /* \"#utility.yul\":448:803   */\ntag_34:\n    /* \"#utility.yul\":515:520   */\n  0x00\n    /* \"#utility.yul\":564:567   */\n  dup3\n    /* \"#utility.yul\":557:561   */\n  0x1f\n    /* \"#utility.yul\":549:555   */\n  dup4\n    /* \"#utility.yul\":545:562   */\n  add\n    /* \"#utility.yul\":541:568   */\n  slt\n    /* \"#utility.yul\":531:653   */\n  tag_36\n  jumpi\n    /* \"#utility.yul\":572:651   */\n  tag_37\n  tag_38\n  jump\t// in\ntag_37:\n    /* \"#utility.yul\":531:653   */\ntag_36:\n    /* \"#utility.yul\":682:688   */\n  dup2\n    /* \"#utility.yul\":676:689   */\n  mload\n    /* \"#utility.yul\":707:797   */\n  tag_39\n    /* \"#utility.yul\":793:796   */\n  dup5\n    /* \"#utility.yul\":785:791   */\n  dup3\n    /* \"#utility.yul\":778:782   */\n  0x20\n    /* \"#utility.yul\":770:776   */\n  dup7\n    /* \"#utility.yul\":766:783   */\n  add\n    /* \"#utility.yul\":707:797   */\n  tag_23\n  jump\t// in\ntag_39:\n    /* \"#utility.yul\":698:797   */\n  swap2\n  pop\n    /* \"#utility.yul\":521:803   */\n  pop\n    /* \"#utility.yul\":448:803   */\n  swap3\n  swap2\n  pop\n  pop\n  jump\t// out\n    /* \"#utility.yul\":809:952   */\ntag_40:\n    /* \"#utility.yul\":866:871   */\n  0x00\n    /* \"#utility.yul\":897:903   */\n  dup2\n    /* \"#utility.yul\":891:904   */\n  mload\n    /* \"#utility.yul\":882:904   */\n  swap1\n  pop\n    /* \"#utility.yul\":913:946   */\n  tag_42\n    /* \"#utility.yul\":940:945   */\n  dup2\n    /* \"#utility.yul\":913:946   */\n  tag_43\n  jump\t// in\ntag_42:\n    /* \"#utility.yul\":809:952   */\n  swap3\n  swap2\n  pop\n  pop\n  jump\t// out\n    /* \"#utility.yul\":958:1638   */\ntag_3:\n    /* \"#utility.yul\":1047:1053   */\n  0x00\n    /* \"#utility.yul\":1055:1061   */\n  dup1\n    /* \"#utility.yul\":1104:1106   */\n  0x40\n    /* \"#utility.yul\":1092:1101   */\n  dup4\n    /* \"#utility.yul\":1083:1090   */\n  dup6\n    /* \"#utility.yul\":1079:1102   */\n  sub\n    /* \"#utility.yul\":1075:1107   */\n  slt\n    /* \"#utility.yul\":1072:1191   */\n  iszero\n  tag_45\n  jumpi\n    /* \"#utility.yul\":1110:1189   */\n  tag_46\n  tag_47\n  jump\t// in\ntag_46:\n    /* \"#utility.yul\":1072:1191   */\ntag_45:\n    /* \"#utility.yul\":1230:1231   */\n  0x00\n    /* \"#utility.yul\":1255:1319   */\n  tag_48\n    /* \"#utility.yul\":1311:1318   */\n  dup6\n    /* \"#utility.yul\":1302:1308   */\n  dup3\n    /* \"#utility.yul\":1291:1300   */\n  dup7\n    /* \"#utility.yul\":1287:1309   */\n  add\n    /* \"#utility.yul\":1255:1319   */\n  tag_40\n  jump\t// in\ntag_48:\n    /* \"#utility.yul\":1245:1319   */\n  swap3\n  pop\n    /* \"#utility.yul\":1201:1329   */\n  pop\n    /* \"#utility.yul\":1389:1391   */\n  0x20\n    /* \"#utility.yul\":1378:1387   */\n  dup4\n    /* \"#utility.yul\":1374:1392   */\n  add\n    /* \"#utility.yul\":1368:1393   */\n  mload\n    /* \"#utility.yul\":1420:1438   */\n  0xffffffffffffffff\n    /* \"#utility.yul\":1412:1418   */\n  dup2\n    /* \"#utility.yul\":1409:1439   */\n  gt\n    /* \"#utility.yul\":1406:1523   */\n  iszero\n  tag_49\n  jumpi\n    /* \"#utility.yul\":1442:1521   */\n  tag_50\n  tag_51\n  jump\t// in\ntag_50:\n    /* \"#utility.yul\":1406:1523   */\ntag_49:\n    /* \"#utility.yul\":1547:1621   */\n  tag_52\n    /* \"#utility.yul\":1613:1620   */\n  dup6\n    /* \"#utility.yul\":1604:1610   */\n  dup3\n    /* \"#utility.yul\":1593:1602   */\n  dup7\n    /* \"#utility.yul\":1589:1611   */\n  add\n    /* \"#utility.yul\":1547:1621   */\n  tag_34\n  jump\t// in\ntag_52:\n    /* \"#utility.yul\":1537:1621   */\n  swap2\n  pop\n    /* \"#utility.yul\":1339:1631   */\n  pop\n    /* \"#utility.yul\":958:1638   */\n  swap3\n  pop\n  swap3\n  swap1\n  pop\n  jump\t// out\n    /* \"#utility.yul\":1644:1773   */\ntag_28:\n    /* \"#utility.yul\":1678:1684   */\n  0x00\n    /* \"#utility.yul\":1705:1725   */\n  tag_54\n  tag_55\n  jump\t// in\ntag_54:\n    /* \"#utility.yul\":1695:1725   */\n  swap1\n  pop\n    /* \"#utility.yul\":1734:1767   */\n  tag_56\n    /* \"#utility.yul\":1762:1766   */\n  dup3\n    /* \"#utility.yul\":1754:1760   */\n  dup3\n    /* \"#utility.yul\":1734:1767   */\n  tag_57\n  jump\t// in\ntag_56:\n    /* \"#utility.yul\":1644:1773   */\n  swap2\n  swap1\n  pop\n  jump\t// out\n    /* \"#utility.yul\":1779:1854   */\ntag_55:\n    /* \"#utility.yul\":1812:1818   */\n  0x00\n    /* \"#utility.yul\":1845:1847   */\n  0x40\n    /* \"#utility.yul\":1839:1848   */\n  mload\n    /* \"#utility.yul\":1829:1848   */\n  swap1\n  pop\n    /* \"#utility.yul\":1779:1854   */\n  swap1\n  jump\t// out\n    /* \"#utility.yul\":1860:2168   */\ntag_27:\n    /* \"#utility.yul\":1922:1926   */\n  0x00\n    /* \"#utility.yul\":2012:2030   */\n  0xffffffffffffffff\n    /* \"#utility.yul\":2004:2010   */\n  dup3\n    /* \"#utility.yul\":2001:2031   */\n  gt\n    /* \"#utility.yul\":1998:2054   */\n  iszero\n  tag_60\n  jumpi\n    /* \"#utility.yul\":2034:2052   */\n  tag_61\n  tag_62\n  jump\t// in\ntag_61:\n    /* \"#utility.yul\":1998:2054   */\ntag_60:\n    /* \"#utility.yul\":2072:2101   */\n  tag_63\n    /* \"#utility.yul\":2094:2100   */\n  dup3\n    /* \"#utility.yul\":2072:2101   */\n  tag_64\n  jump\t// in\ntag_63:\n    /* \"#utility.yul\":2064:2101   */\n  swap1\n  pop\n    /* \"#utility.yul\":2156:2160   */\n  0x20\n    /* \"#utility.yul\":2150:2154   */\n  dup2\n    /* \"#utility.yul\":2146:2161   */\n  add\n    /* \"#utility.yul\":2138:2161   */\n  swap1\n  pop\n    /* \"#utility.yul\":1860:2168   */\n  swap2\n  swap1\n  pop\n  jump\t// out\n    /* \"#utility.yul\":2174:2522   */\ntag_7:\n    /* \"#utility.yul\":2214:2221   */\n  0x00\n    /* \"#utility.yul\":2237:2257   */\n  tag_66\n    /* \"#utility.yul\":2255:2256   */\n  dup3\n    /* \"#utility.yul\":2237:2257   */\n  tag_67\n  jump\t// in\ntag_66:\n    /* \"#utility.yul\":2232:2257   */\n  swap2\n  pop\n    /* \"#utility.yul\":2271:2291   */\n  tag_68\n    /* \"#utility.yul\":2289:2290   */\n  dup4\n    /* \"#utility.yul\":2271:2291   */\n  tag_67\n  jump\t// in\ntag_68:\n    /* \"#utility.yul\":2266:2291   */\n  swap3\n  pop\n    /* \"#utility.yul\":2459:2460   */\n  dup2\n    /* \"#utility.yul\":2391:2457   */\n  0xffffffffffffffffffffffffffffffffffffffffffffffffffffffffffffffff\n    /* \"#utility.yul\":2387:2461   */\n  div\n    /* \"#utility.yul\":2384:2385   */\n  dup4\n    /* \"#utility.yul\":2381:2462   */\n  gt\n    /* \"#utility.yul\":2376:2377   */\n  dup3\n    /* \"#utility.yul\":2369:2378   */\n  iszero\n    /* \"#utility.yul\":2362:2379   */\n  iszero\n    /* \"#utility.yul\":2358:2463   */\n  and\n    /* \"#utility.yul\":2355:2486   */\n  iszero\n  tag_69\n  jumpi\n    /* \"#utility.yul\":2466:2484   */\n  tag_70\n  tag_71\n  jump\t// in\ntag_70:\n    /* \"#utility.yul\":2355:2486   */\ntag_69:\n    /* \"#utility.yul\":2514:2515   */\n  dup3\n    /* \"#utility.yul\":2511:2512   */\n  dup3\n    /* \"#utility.yul\":2507:2516   */\n  mul\n    /* \"#utility.yul\":2496:2516   */\n  swap1\n  pop\n    /* \"#utility.yul\":2174:2522   */\n  swap3\n  swap2\n  pop\n  pop\n  jump\t// out\n    /* \"#utility.yul\":2528:2605   */\ntag_67:\n    /* \"#utility.yul\":2565:2572   */\n  0x00\n    /* \"#utility.yul\":2594:2599   */\n  dup2\n    /* \"#utility.yul\":2583:2599   */\n  swap1\n  pop\n    /* \"#utility.yul\":2528:2605   */\n  swap2\n  swap1\n  pop\n  jump\t// out\n    /* \"#utility.yul\":2611:2918   */\ntag_33:\n    /* \"#utility.yul\":2679:2680   */\n  0x00\n    /* \"#utility.yul\":2689:2802   */\ntag_74:\n    /* \"#utility.yul\":2703:2709   */\n  dup4\n    /* \"#utility.yul\":2700:2701   */\n  dup2\n    /* \"#utility.yul\":2697:2710   */\n  lt\n    /* \"#utility.yul\":2689:2802   */\n  iszero\n  tag_76\n  jumpi\n    /* \"#utility.yul\":2788:2789   */\n  dup1\n    /* \"#utility.yul\":2783:2786   */\n  dup3\n    /* \"#utility.yul\":2779:2790   */\n  add\n    /* \"#utility.yul\":2773:2791   */\n  mload\n    /* \"#utility.yul\":2769:2770   */\n  dup2\n    /* \"#utility.yul\":2764:2767   */\n  dup5\n    /* \"#utility.yul\":2760:2771   */\n  add\n    /* \"#utility.yul\":2753:2792   */\n  mstore\n    /* \"#utility.yul\":2725:2727   */\n  0x20\n    /* \"#utility.yul\":2722:2723   */\n  dup2\n    /* \"#utility.yul\":2718:2728   */\n  add\n    /* \"#utility.yul\":2713:2728   */\n  swap1\n  pop\n    /* \"#utility.yul\":2689:2802   */\n  jump(tag_74)\ntag_76:\n    /* \"#utility.yul\":2820:2826   */\n  dup4\n    /* \"#utility.yul\":2817:2818   */\n  dup2\n    /* \"#utility.yul\":2814:2827   */\n  gt\n    /* \"#utility.yul\":2811:2912   */\n  iszero\n  tag_77\n  jumpi\n    /* \"#utility.yul\":2900:2901   */\n  0x00\n    /* \"#utility.yul\":2891:2897   */\n  dup5\n    /* \"#utility.yul\":2886:2889   */\n  dup5\n    /* \"#utility.yul\":2882:2898   */\n  add\n    /* \"#utility.yul\":2875:2902   */\n  mstore\n    /* \"#utility.yul\":2811:2912   */\ntag_77:\n    /* \"#utility.yul\":2660:2918   */\n  pop\n    /* \"#utility.yul\":2611:2918   */\n  pop\n  pop\n  pop\n  jump\t// out\n    /* \"#utility.yul\":2924:3244   */\ntag_12:\n    /* \"#utility.yul\":2968:2974   */\n  0x00\n    /* \"#utility.yul\":3005:3006   */\n  0x02\n    /* \"#utility.yul\":2999:3003   */\n  dup3\n    /* \"#utility.yul\":2995:3007   */\n  div\n    /* \"#utility.yul\":2985:3007   */\n  swap1\n  pop\n    /* \"#utility.yul\":3052:3053   */\n  0x01\n    /* \"#utility.yul\":3046:3050   */\n  dup3\n    /* \"#utility.yul\":3042:3054   */\n  and\n    /* \"#utility.yul\":3073:3091   */\n  dup1\n    /* \"#utility.yul\":3063:3144   */\n  tag_79\n  jumpi\n    /* \"#utility.yul\":3129:3133   */\n  0x7f\n    /* \"#utility.yul\":3121:3127   */\n  dup3\n    /* \"#utility.yul\":3117:3134   */\n  and\n    /* \"#utility.yul\":3107:3134   */\n  swap2\n  pop\n    /* \"#utility.yul\":3063:3144   */\ntag_79:\n    /* \"#utility.yul\":3191:3193   */\n  0x20\n    /* \"#utility.yul\":3183:3189   */\n  dup3\n    /* \"#utility.yul\":3180:3194   */\n  lt\n    /* \"#utility.yul\":3160:3178   */\n  dup2\n    /* \"#utility.yul\":3157:3195   */\n  eq\n    /* \"#utility.yul\":3154:3238   */\n  iszero\n  tag_80\n  jumpi\n    /* \"#utility.yul\":3210:3228   */\n  tag_81\n  tag_82\n  jump\t// in\ntag_81:\n    /* \"#utility.yul\":3154:3238   */\ntag_80:\n    /* \"#utility.yul\":2975:3244   */\n  pop\n    /* \"#utility.yul\":2924:3244   */\n  swap2\n  swap1\n  pop\n  jump\t// out\n    /* \"#utility.yul\":3250:3531   */\ntag_57:\n    /* \"#utility.yul\":3333:3360   */\n  tag_84\n    /* \"#utility.yul\":3355:3359   */\n  dup3\n    /* \"#utility.yul\":3333:3360   */\n  tag_64\n  jump\t// in\ntag_84:\n    /* \"#utility.yul\":3325:3331   */\n  dup2\n    /* \"#utility.yul\":3321:3361   */\n  add\n    /* \"#utility.yul\":3463:3469   */\n  dup2\n    /* \"#utility.yul\":3451:3461   */\n  dup2\n    /* \"#utility.yul\":3448:3470   */\n  lt\n    /* \"#utility.yul\":3427:3445   */\n  0xffffffffffffffff\n    /* \"#utility.yul\":3415:3425   */\n  dup3\n    /* \"#utility.yul\":3412:3446   */\n  gt\n    /* \"#utility.yul\":3409:3471   */\n  or\n    /* \"#utility.yul\":3406:3494   */\n  iszero\n  tag_85\n  jumpi\n    /* \"#utility.yul\":3474:3492   */\n  tag_86\n  tag_62\n  jump\t// in\ntag_86:\n    /* \"#utility.yul\":3406:3494   */\ntag_85:\n    /* \"#utility.yul\":3514:3524   */\n  dup1\n    /* \"#utility.yul\":3510:3512   */\n  0x40\n    /* \"#utility.yul\":3503:3525   */\n  mstore\n    /* \"#utility.yul\":3293:3531   */\n  pop\n    /* \"#utility.yul\":3250:3531   */\n  pop\n  pop\n  jump\t// out\n    /* \"#utility.yul\":3537:3717   */\ntag_71:\n    /* \"#utility.yul\":3585:3662   */\n  0x4e487b7100000000000000000000000000000000000000000000000000000000\n    /* \"#utility.yul\":3582:3583   */\n  0x00\n    /* \"#utility.yul\":3575:3663   */\n  mstore\n    /* \"#utility.yul\":3682:3686   */\n  0x11\n    /* \"#utility.yul\":3679:3680   */\n  0x04\n    /* \"#utility.yul\":3672:3687   */\n  mstore\n    /* \"#utility.yul\":3706:3710   */\n  0x24\n    /* \"#utility.yul\":3703:3704   */\n  0x00\n    /* \"#utility.yul\":3696:3711   */\n  revert\n    /* \"#utility.yul\":3723:3903   */\ntag_82:\n    /* \"#utility.yul\":3771:3848   */\n  0x4e487b7100000000000000000000000000000000000000000000000000000000\n    /* \"#utility.yul\":3768:3769   */\n  0x00\n    /* \"#utility.yul\":3761:3849   */\n  mstore\n    /* \"#utility.yul\":3868:3872   */\n  0x22\n    /* \"#utility.yul\":3865:3866   */\n  0x04\n    /* \"#utility.yul\":3858:3873   */\n  mstore\n    /* \"#utility.yul\":3892:3896   */\n  0x24\n    /* \"#utility.yul\":3889:3890   */\n  0x00\n    /* \"#utility.yul\":3882:3897   */\n  revert\n    /* \"#utility.yul\":3909:4089   */\ntag_62:\n    /* \"#utility.yul\":3957:4034   */\n  0x4e487b7100000000000000000000000000000000000000000000000000000000\n    /* \"#utility.yul\":3954:3955   */\n  0x00\n    /* \"#utility.yul\":3947:4035   */\n  mstore\n    /* \"#utility.yul\":4054:4058   */\n  0x41\n    /* \"#utility.yul\":4051:4052   */\n  0x04\n    /* \"#utility.yul\":4044:4059   */\n  mstore\n    /* \"#utility.yul\":4078:4082   */\n  0x24\n    /* \"#utility.yul\":4075:4076   */\n  0x00\n    /* \"#utility.yul\":4068:4083   */\n  revert\n    /* \"#utility.yul\":4095:4212   */\ntag_38:\n    /* \"#utility.yul\":4204:4205   */\n  0x00\n    /* \"#utility.yul\":4201:4202   */\n  dup1\n    /* \"#utility.yul\":4194:4206   */\n  revert\n    /* \"#utility.yul\":4218:4335   */\ntag_31:\n    /* \"#utility.yul\":4327:4328   */\n  0x00\n    /* \"#utility.yul\":4324:4325   */\n  dup1\n    /* \"#utility.yul\":4317:4329   */\n  revert\n    /* \"#utility.yul\":4341:4458   */\ntag_51:\n    /* \"#utility.yul\":4450:4451   */\n  0x00\n    /* \"#utility.yul\":4447:4448   */\n  dup1\n    /* \"#utility.yul\":4440:4452   */\n  revert\n    /* \"#utility.yul\":4464:4581   */\ntag_47:\n    /* \"#utility.yul\":4573:4574   */\n  0x00\n    /* \"#utility.yul\":4570:4571   */\n  dup1\n    /* \"#utility.yul\":4563:4575   */\n  revert\n    /* \"#utility.yul\":4587:4689   */\ntag_64:\n    /* \"#utility.yul\":4628:4634   */\n  0x00\n    /* \"#utility.yul\":4679:4681   */\n  0x1f\n    /* \"#utility.yul\":4675:4682   */\n  not\n    /* \"#utility.yul\":4670:4672   */\n  0x1f\n    /* \"#utility.yul\":4663:4668   */\n  dup4\n    /* \"#utility.yul\":4659:4673   */\n  add\n    /* \"#utility.yul\":4655:4683   */\n  and\n    /* \"#utility.yul\":4645:4683   */\n  swap1\n  pop\n    /* \"#utility.yul\":4587:4689   */\n  swap2\n  swap1\n  pop\n  jump\t// out\n    /* \"#utility.yul\":4695:4817   */\ntag_43:\n    /* \"#utility.yul\":4768:4792   */\n  tag_96\n    /* \"#utility.yul\":4786:4791   */\n  dup2\n    /* \"#utility.yul\":4768:4792   */\n  tag_67\n  jump\t// in\ntag_96:\n    /* \"#utility.yul\":4761:4766   */\n  dup2\n    /* \"#utility.yul\":4758:4793   */\n  eq\n    /* \"#utility.yul\":4748:4811   */\n  tag_97\n  jumpi\n    /* \"#utility.yul\":4807:4808   */\n  0x00\n    /* \"#utility.yul\":4804:4805   */\n  dup1\n    /* \"#utility.yul\":4797:4809   */\n  revert\n    /* \"#utility.yul\":4748:4811   */\ntag_97:\n    /* \"#utility.yul\":4695:4817   */\n  pop\n  jump\t// out\n    /* \"contracts/myContract.sol\":76:1482  contract testContract {\r... */\ntag_10:\n  dataSize(sub_0)\n  dup1\n  dataOffset(sub_0)\n  0x00\n  codecopy\n  0x00\n  return\nstop\n\nsub_0: assembly {\n        /* \"contracts/myContract.sol\":76:1482  contract testContract {\r... */\n      mstore(0x40, 0x80)\n      jumpi(tag_1, lt(calldatasize, 0x04))\n      shr(0xe0, calldataload(0x00))\n      dup1\n      0x0aa0a175\n      eq\n      tag_3\n      jumpi\n      dup1\n      0x2443877c\n      eq\n      tag_4\n      jumpi\n      dup1\n      0x534844a2\n      eq\n      tag_5\n      jumpi\n      dup1\n      0x82d69b62\n      eq\n      tag_6\n      jumpi\n      dup1\n      0xbe291999\n      eq\n      tag_7\n      jumpi\n      jump(tag_2)\n    tag_1:\n      jumpi(tag_2, calldatasize)\n        /* \"contracts/myContract.sol\":1406:1421  subscriptionFee */\n      sload(0x03)\n        /* \"contracts/myContract.sol\":1392:1401  msg.value */\n      callvalue\n        /* \"contracts/myContract.sol\":1392:1421  msg.value ==  subscriptionFee */\n      eq\n        /* \"contracts/myContract.sol\":1383:1469  require( msg.value ==  subscriptionFee , \"Payment should be the subscription fee\"    ) */\n      tag_10\n      jumpi\n      mload(0x40)\n      0x08c379a000000000000000000000000000000000000000000000000000000000\n      dup2\n      mstore\n      0x04\n      add\n      tag_11\n      swap1\n      tag_12\n      jump\t// in\n    tag_11:\n      mload(0x40)\n      dup1\n      swap2\n      sub\n      swap1\n      revert\n    tag_10:\n        /* \"contracts/myContract.sol\":76:1482  contract testContract {\r... */\n      stop\n    tag_2:\n        /* \"contracts/myContract.sol\":1267:1282  subscriptionFee */\n      sload(0x03)\n        /* \"contracts/myContract.sol\":1253:1262  msg.value */\n      callvalue\n        /* \"contracts/myContract.sol\":1253:1282  msg.value ==  subscriptionFee */\n      eq\n        /* \"contracts/myContract.sol\":1244:1330  require( msg.value ==  subscriptionFee , \"Payment should be the subscription fee\"    ) */\n      tag_15\n      jumpi\n      mload(0x40)\n      0x08c379a000000000000000000000000000000000000000000000000000000000\n      dup2\n      mstore\n      0x04\n      add\n      tag_16\n      swap1\n      tag_12\n      jump\t// in\n    tag_16:\n      mload(0x40)\n      dup1\n      swap2\n      sub\n      swap1\n      revert\n    tag_15:\n        /* \"contracts/myContract.sol\":76:1482  contract testContract {\r... */\n      stop\n        /* \"contracts/myContract.sol\":240:267  uint public subscriptionFee */\n    tag_3:\n      callvalue\n      dup1\n      iszero\n      tag_17\n      jumpi\n      0x00\n      dup1\n      revert\n    tag_17:\n      pop\n      tag_18\n      tag_19\n      jump\t// in\n    tag_18:\n      mload(0x40)\n      tag_20\n      swap2\n      swap1\n      tag_21\n      jump\t// in\n    tag_20:\n      mload(0x40)\n      dup1\n      swap2\n      sub\n      swap1\n      return\n        /* \"contracts/myContract.sol\":274:299  string public channelName */\n    tag_4:\n      callvalue\n      dup1\n      iszero\n      tag_22\n      jumpi\n      0x00\n      dup1\n      revert\n    tag_22:\n      pop\n      tag_23\n      tag_24\n      jump\t// in\n    tag_23:\n      mload(0x40)\n      tag_25\n      swap2\n      swap1\n      tag_26\n      jump\t// in\n    tag_25:\n      mload(0x40)\n      dup1\n      swap2\n      sub\n      swap1\n      return\n        /* \"contracts/myContract.sol\":820:927  function withdrawAmount() payable public onlyOwner{\r... */\n    tag_5:\n      tag_27\n      tag_28\n      jump\t// in\n    tag_27:\n      stop\n        /* \"contracts/myContract.sol\":935:1198  function printSubscribersList() public view returns(address[] memory){\r... */\n    tag_6:\n      callvalue\n      dup1\n      iszero\n      tag_29\n      jumpi\n      0x00\n      dup1\n      revert\n    tag_29:\n      pop\n      tag_30\n      tag_31\n      jump\t// in\n    tag_30:\n      mload(0x40)\n      tag_32\n      swap2\n      swap1\n      tag_33\n      jump\t// in\n    tag_32:\n      mload(0x40)\n      dup1\n      swap2\n      sub\n      swap1\n      return\n        /* \"contracts/myContract.sol\":632:812  function addSubscriber() public payable{\r... */\n    tag_7:\n      tag_34\n      tag_35\n      jump\t// in\n    tag_34:\n      stop\n        /* \"contracts/myContract.sol\":240:267  uint public subscriptionFee */\n    tag_19:\n      sload(0x03)\n      dup2\n      jump\t// out\n        /* \"contracts/myContract.sol\":274:299  string public channelName */\n    tag_24:\n      0x04\n      dup1\n      sload\n      tag_36\n      swap1\n      tag_37\n      jump\t// in\n    tag_36:\n      dup1\n      0x1f\n      add\n      0x20\n      dup1\n      swap2\n      div\n      mul\n      0x20\n      add\n      mload(0x40)\n      swap1\n      dup2\n      add\n      0x40\n      mstore\n      dup1\n      swap3\n      swap2\n      swap1\n      dup2\n      dup2\n      mstore\n      0x20\n      add\n      dup3\n      dup1\n      sload\n      tag_38\n      swap1\n      tag_37\n      jump\t// in\n    tag_38:\n      dup1\n      iszero\n      tag_39\n      jumpi\n      dup1\n      0x1f\n      lt\n      tag_40\n      jumpi\n      0x0100\n      dup1\n      dup4\n      sload\n      div\n      mul\n      dup4\n      mstore\n      swap2\n      0x20\n      add\n      swap2\n      jump(tag_39)\n    tag_40:\n      dup3\n      add\n      swap2\n      swap1\n      0x00\n      mstore\n      keccak256(0x00, 0x20)\n      swap1\n    tag_41:\n      dup2\n      sload\n      dup2\n      mstore\n      swap1\n      0x01\n      add\n      swap1\n      0x20\n      add\n      dup1\n      dup4\n      gt\n      tag_41\n      jumpi\n      dup3\n      swap1\n      sub\n      0x1f\n      and\n      dup3\n      add\n      swap2\n    tag_39:\n      pop\n      pop\n      pop\n      pop\n      pop\n      dup2\n      jump\t// out\n        /* \"contracts/myContract.sol\":820:927  function withdrawAmount() payable public onlyOwner{\r... */\n    tag_28:\n        /* \"contracts/myContract.sol\":416:422  author */\n      0x02\n      0x00\n      swap1\n      sload\n      swap1\n      0x0100\n      exp\n      swap1\n      div\n      0xffffffffffffffffffffffffffffffffffffffff\n      and\n        /* \"contracts/myContract.sol\":402:422  msg.sender == author */\n      0xffffffffffffffffffffffffffffffffffffffff\n      and\n        /* \"contracts/myContract.sol\":402:412  msg.sender */\n      caller\n        /* \"contracts/myContract.sol\":402:422  msg.sender == author */\n      0xffffffffffffffffffffffffffffffffffffffff\n      and\n      eq\n        /* \"contracts/myContract.sol\":394:423  require(msg.sender == author) */\n      tag_43\n      jumpi\n      0x00\n      dup1\n      revert\n    tag_43:\n        /* \"contracts/myContract.sol\":881:887  author */\n      0x02\n      0x00\n      swap1\n      sload\n      swap1\n      0x0100\n      exp\n      swap1\n      div\n      0xffffffffffffffffffffffffffffffffffffffff\n      and\n        /* \"contracts/myContract.sol\":881:896  author.transfer */\n      0xffffffffffffffffffffffffffffffffffffffff\n      and\n        /* \"contracts/myContract.sol\":881:919  author.transfer(address(this).balance) */\n      0x08fc\n        /* \"contracts/myContract.sol\":897:918  address(this).balance */\n      selfbalance\n        /* \"contracts/myContract.sol\":881:919  author.transfer(address(this).balance) */\n      swap1\n      dup2\n      iszero\n      mul\n      swap1\n      mload(0x40)\n      0x00\n      mload(0x40)\n      dup1\n      dup4\n      sub\n      dup2\n      dup6\n      dup9\n      dup9\n      call\n      swap4\n      pop\n      pop\n      pop\n      pop\n      iszero\n      dup1\n      iszero\n      tag_46\n      jumpi\n      returndatasize\n      0x00\n      dup1\n      returndatacopy\n      revert(0x00, returndatasize)\n    tag_46:\n      pop\n        /* \"contracts/myContract.sol\":820:927  function withdrawAmount() payable public onlyOwner{\r... */\n      jump\t// out\n        /* \"contracts/myContract.sol\":935:1198  function printSubscribersList() public view returns(address[] memory){\r... */\n    tag_31:\n        /* \"contracts/myContract.sol\":987:1003  address[] memory */\n      0x60\n        /* \"contracts/myContract.sol\":1015:1035  address[] memory ret */\n      0x00\n        /* \"contracts/myContract.sol\":1052:1067  subscriberCount */\n      sload(0x01)\n        /* \"contracts/myContract.sol\":1038:1068  new address[](subscriberCount) */\n      0xffffffffffffffff\n      dup2\n      gt\n      iszero\n      tag_48\n      jumpi\n      tag_49\n      tag_50\n      jump\t// in\n    tag_49:\n    tag_48:\n      mload(0x40)\n      swap1\n      dup1\n      dup3\n      mstore\n      dup1\n      0x20\n      mul\n      0x20\n      add\n      dup3\n      add\n      0x40\n      mstore\n      dup1\n      iszero\n      tag_51\n      jumpi\n      dup2\n      0x20\n      add\n      0x20\n      dup3\n      mul\n      dup1\n      calldatasize\n      dup4\n      calldatacopy\n      dup1\n      dup3\n      add\n      swap2\n      pop\n      pop\n      swap1\n      pop\n    tag_51:\n      pop\n        /* \"contracts/myContract.sol\":1015:1068  address[] memory ret = new address[](subscriberCount) */\n      swap1\n      pop\n        /* \"contracts/myContract.sol\":1083:1089  uint i */\n      0x00\n        /* \"contracts/myContract.sol\":1079:1170  for(uint i = 0; i < subscriberCount; i++){\r... */\n    tag_52:\n        /* \"contracts/myContract.sol\":1099:1114  subscriberCount */\n      sload(0x01)\n        /* \"contracts/myContract.sol\":1095:1096  i */\n      dup2\n        /* \"contracts/myContract.sol\":1095:1114  i < subscriberCount */\n      lt\n        /* \"contracts/myContract.sol\":1079:1170  for(uint i = 0; i < subscriberCount; i++){\r... */\n      iszero\n      tag_53\n      jumpi\n        /* \"contracts/myContract.sol\":1144:1155  subscribers */\n      0x00\n        /* \"contracts/myContract.sol\":1144:1158  subscribers[i] */\n      dup1\n        /* \"contracts/myContract.sol\":1156:1157  i */\n      dup3\n        /* \"contracts/myContract.sol\":1144:1158  subscribers[i] */\n      dup2\n      mstore\n      0x20\n      add\n      swap1\n      dup2\n      mstore\n      0x20\n      add\n      0x00\n      keccak256\n      0x00\n      swap1\n      sload\n      swap1\n      0x0100\n      exp\n      swap1\n      div\n      0xffffffffffffffffffffffffffffffffffffffff\n      and\n        /* \"contracts/myContract.sol\":1135:1138  ret */\n      dup3\n        /* \"contracts/myContract.sol\":1139:1140  i */\n      dup3\n        /* \"contracts/myContract.sol\":1135:1141  ret[i] */\n      dup2\n      mload\n      dup2\n      lt\n      tag_55\n      jumpi\n      tag_56\n      tag_57\n      jump\t// in\n    tag_56:\n    tag_55:\n      0x20\n      mul\n      0x20\n      add\n      add\n        /* \"contracts/myContract.sol\":1135:1158  ret[i] = subscribers[i] */\n      swap1\n      0xffffffffffffffffffffffffffffffffffffffff\n      and\n      swap1\n      dup2\n      0xffffffffffffffffffffffffffffffffffffffff\n      and\n      dup2\n      mstore\n      pop\n      pop\n        /* \"contracts/myContract.sol\":1116:1119  i++ */\n      dup1\n      dup1\n      tag_58\n      swap1\n      tag_59\n      jump\t// in\n    tag_58:\n      swap2\n      pop\n      pop\n        /* \"contracts/myContract.sol\":1079:1170  for(uint i = 0; i < subscriberCount; i++){\r... */\n      jump(tag_52)\n    tag_53:\n      pop\n        /* \"contracts/myContract.sol\":1187:1190  ret */\n      dup1\n        /* \"contracts/myContract.sol\":1180:1190  return ret */\n      swap2\n      pop\n      pop\n        /* \"contracts/myContract.sol\":935:1198  function printSubscribersList() public view returns(address[] memory){\r... */\n      swap1\n      jump\t// out\n        /* \"contracts/myContract.sol\":632:812  function addSubscriber() public payable{\r... */\n    tag_35:\n        /* \"contracts/myContract.sol\":713:723  msg.sender */\n      caller\n        /* \"contracts/myContract.sol\":682:693  subscribers */\n      0x00\n        /* \"contracts/myContract.sol\":682:710  subscribers[subscriberCount] */\n      dup1\n        /* \"contracts/myContract.sol\":694:709  subscriberCount */\n      sload(0x01)\n        /* \"contracts/myContract.sol\":682:710  subscribers[subscriberCount] */\n      dup2\n      mstore\n      0x20\n      add\n      swap1\n      dup2\n      mstore\n      0x20\n      add\n      0x00\n      keccak256\n      0x00\n        /* \"contracts/myContract.sol\":682:723  subscribers[subscriberCount] = msg.sender */\n      0x0100\n      exp\n      dup2\n      sload\n      dup2\n      0xffffffffffffffffffffffffffffffffffffffff\n      mul\n      not\n      and\n      swap1\n      dup4\n      0xffffffffffffffffffffffffffffffffffffffff\n      and\n      mul\n      or\n      swap1\n      sstore\n      pop\n        /* \"contracts/myContract.sol\":734:749  subscriberCount */\n      0x01\n      0x00\n        /* \"contracts/myContract.sol\":734:751  subscriberCount++ */\n      dup2\n      sload\n      dup1\n      swap3\n      swap2\n      swap1\n      tag_61\n      swap1\n      tag_59\n      jump\t// in\n    tag_61:\n      swap2\n      swap1\n      pop\n      sstore\n      pop\n        /* \"contracts/myContract.sol\":778:782  this */\n      address\n        /* \"contracts/myContract.sol\":762:793  payable(address(this)).transfer */\n      0xffffffffffffffffffffffffffffffffffffffff\n      and\n        /* \"contracts/myContract.sol\":762:804  payable(address(this)).transfer(msg.value) */\n      0x08fc\n        /* \"contracts/myContract.sol\":794:803  msg.value */\n      callvalue\n        /* \"contracts/myContract.sol\":762:804  payable(address(this)).transfer(msg.value) */\n      swap1\n      dup2\n      iszero\n      mul\n      swap1\n      mload(0x40)\n      0x00\n      mload(0x40)\n      dup1\n      dup4\n      sub\n      dup2\n      dup6\n      dup9\n      dup9\n      call\n      swap4\n      pop\n      pop\n      pop\n      pop\n      iszero\n      dup1\n      iszero\n      tag_63\n      jumpi\n      returndatasize\n      0x00\n      dup1\n      returndatacopy\n      revert(0x00, returndatasize)\n    tag_63:\n      pop\n        /* \"contracts/myContract.sol\":632:812  function addSubscriber() public payable{\r... */\n      jump\t// out\n        /* \"#utility.yul\":7:186   */\n    tag_65:\n        /* \"#utility.yul\":76:86   */\n      0x00\n        /* \"#utility.yul\":97:143   */\n      tag_67\n        /* \"#utility.yul\":139:142   */\n      dup4\n        /* \"#utility.yul\":131:137   */\n      dup4\n        /* \"#utility.yul\":97:143   */\n      tag_68\n      jump\t// in\n    tag_67:\n        /* \"#utility.yul\":175:179   */\n      0x20\n        /* \"#utility.yul\":170:173   */\n      dup4\n        /* \"#utility.yul\":166:180   */\n      add\n        /* \"#utility.yul\":152:180   */\n      swap1\n      pop\n        /* \"#utility.yul\":7:186   */\n      swap3\n      swap2\n      pop\n      pop\n      jump\t// out\n        /* \"#utility.yul\":192:300   */\n    tag_68:\n        /* \"#utility.yul\":269:293   */\n      tag_70\n        /* \"#utility.yul\":287:292   */\n      dup2\n        /* \"#utility.yul\":269:293   */\n      tag_71\n      jump\t// in\n    tag_70:\n        /* \"#utility.yul\":264:267   */\n      dup3\n        /* \"#utility.yul\":257:294   */\n      mstore\n        /* \"#utility.yul\":192:300   */\n      pop\n      pop\n      jump\t// out\n        /* \"#utility.yul\":336:1068   */\n    tag_72:\n        /* \"#utility.yul\":455:458   */\n      0x00\n        /* \"#utility.yul\":484:538   */\n      tag_74\n        /* \"#utility.yul\":532:537   */\n      dup3\n        /* \"#utility.yul\":484:538   */\n      tag_75\n      jump\t// in\n    tag_74:\n        /* \"#utility.yul\":554:640   */\n      tag_76\n        /* \"#utility.yul\":633:639   */\n      dup2\n        /* \"#utility.yul\":628:631   */\n      dup6\n        /* \"#utility.yul\":554:640   */\n      tag_77\n      jump\t// in\n    tag_76:\n        /* \"#utility.yul\":547:640   */\n      swap4\n      pop\n        /* \"#utility.yul\":664:720   */\n      tag_78\n        /* \"#utility.yul\":714:719   */\n      dup4\n        /* \"#utility.yul\":664:720   */\n      tag_79\n      jump\t// in\n    tag_78:\n        /* \"#utility.yul\":743:750   */\n      dup1\n        /* \"#utility.yul\":774:775   */\n      0x00\n        /* \"#utility.yul\":759:1043   */\n    tag_80:\n        /* \"#utility.yul\":784:790   */\n      dup4\n        /* \"#utility.yul\":781:782   */\n      dup2\n        /* \"#utility.yul\":778:791   */\n      lt\n        /* \"#utility.yul\":759:1043   */\n      iszero\n      tag_82\n      jumpi\n        /* \"#utility.yul\":860:866   */\n      dup2\n        /* \"#utility.yul\":854:867   */\n      mload\n        /* \"#utility.yul\":887:950   */\n      tag_83\n        /* \"#utility.yul\":946:949   */\n      dup9\n        /* \"#utility.yul\":931:944   */\n      dup3\n        /* \"#utility.yul\":887:950   */\n      tag_65\n      jump\t// in\n    tag_83:\n        /* \"#utility.yul\":880:950   */\n      swap8\n      pop\n        /* \"#utility.yul\":973:1033   */\n      tag_84\n        /* \"#utility.yul\":1026:1032   */\n      dup4\n        /* \"#utility.yul\":973:1033   */\n      tag_85\n      jump\t// in\n    tag_84:\n        /* \"#utility.yul\":963:1033   */\n      swap3\n      pop\n        /* \"#utility.yul\":819:1043   */\n      pop\n        /* \"#utility.yul\":806:807   */\n      0x01\n        /* \"#utility.yul\":803:804   */\n      dup2\n        /* \"#utility.yul\":799:808   */\n      add\n        /* \"#utility.yul\":794:808   */\n      swap1\n      pop\n        /* \"#utility.yul\":759:1043   */\n      jump(tag_80)\n    tag_82:\n        /* \"#utility.yul\":763:777   */\n      pop\n        /* \"#utility.yul\":1059:1062   */\n      dup6\n        /* \"#utility.yul\":1052:1062   */\n      swap4\n      pop\n        /* \"#utility.yul\":460:1068   */\n      pop\n      pop\n      pop\n        /* \"#utility.yul\":336:1068   */\n      swap3\n      swap2\n      pop\n      pop\n      jump\t// out\n        /* \"#utility.yul\":1074:1438   */\n    tag_86:\n        /* \"#utility.yul\":1162:1165   */\n      0x00\n        /* \"#utility.yul\":1190:1229   */\n      tag_88\n        /* \"#utility.yul\":1223:1228   */\n      dup3\n        /* \"#utility.yul\":1190:1229   */\n      tag_89\n      jump\t// in\n    tag_88:\n        /* \"#utility.yul\":1245:1316   */\n      tag_90\n        /* \"#utility.yul\":1309:1315   */\n      dup2\n        /* \"#utility.yul\":1304:1307   */\n      dup6\n        /* \"#utility.yul\":1245:1316   */\n      tag_91\n      jump\t// in\n    tag_90:\n        /* \"#utility.yul\":1238:1316   */\n      swap4\n      pop\n        /* \"#utility.yul\":1325:1377   */\n      tag_92\n        /* \"#utility.yul\":1370:1376   */\n      dup2\n        /* \"#utility.yul\":1365:1368   */\n      dup6\n        /* \"#utility.yul\":1358:1362   */\n      0x20\n        /* \"#utility.yul\":1351:1356   */\n      dup7\n        /* \"#utility.yul\":1347:1363   */\n      add\n        /* \"#utility.yul\":1325:1377   */\n      tag_93\n      jump\t// in\n    tag_92:\n        /* \"#utility.yul\":1402:1431   */\n      tag_94\n        /* \"#utility.yul\":1424:1430   */\n      dup2\n        /* \"#utility.yul\":1402:1431   */\n      tag_95\n      jump\t// in\n    tag_94:\n        /* \"#utility.yul\":1397:1400   */\n      dup5\n        /* \"#utility.yul\":1393:1432   */\n      add\n        /* \"#utility.yul\":1386:1432   */\n      swap2\n      pop\n        /* \"#utility.yul\":1166:1438   */\n      pop\n        /* \"#utility.yul\":1074:1438   */\n      swap3\n      swap2\n      pop\n      pop\n      jump\t// out\n        /* \"#utility.yul\":1444:1810   */\n    tag_96:\n        /* \"#utility.yul\":1586:1589   */\n      0x00\n        /* \"#utility.yul\":1607:1674   */\n      tag_98\n        /* \"#utility.yul\":1671:1673   */\n      0x26\n        /* \"#utility.yul\":1666:1669   */\n      dup4\n        /* \"#utility.yul\":1607:1674   */\n      tag_91\n      jump\t// in\n    tag_98:\n        /* \"#utility.yul\":1600:1674   */\n      swap2\n      pop\n        /* \"#utility.yul\":1683:1776   */\n      tag_99\n        /* \"#utility.yul\":1772:1775   */\n      dup3\n        /* \"#utility.yul\":1683:1776   */\n      tag_100\n      jump\t// in\n    tag_99:\n        /* \"#utility.yul\":1801:1803   */\n      0x40\n        /* \"#utility.yul\":1796:1799   */\n      dup3\n        /* \"#utility.yul\":1792:1804   */\n      add\n        /* \"#utility.yul\":1785:1804   */\n      swap1\n      pop\n        /* \"#utility.yul\":1444:1810   */\n      swap2\n      swap1\n      pop\n      jump\t// out\n        /* \"#utility.yul\":1816:1934   */\n    tag_101:\n        /* \"#utility.yul\":1903:1927   */\n      tag_103\n        /* \"#utility.yul\":1921:1926   */\n      dup2\n        /* \"#utility.yul\":1903:1927   */\n      tag_104\n      jump\t// in\n    tag_103:\n        /* \"#utility.yul\":1898:1901   */\n      dup3\n        /* \"#utility.yul\":1891:1928   */\n      mstore\n        /* \"#utility.yul\":1816:1934   */\n      pop\n      pop\n      jump\t// out\n        /* \"#utility.yul\":1940:2313   */\n    tag_33:\n        /* \"#utility.yul\":2083:2087   */\n      0x00\n        /* \"#utility.yul\":2121:2123   */\n      0x20\n        /* \"#utility.yul\":2110:2119   */\n      dup3\n        /* \"#utility.yul\":2106:2124   */\n      add\n        /* \"#utility.yul\":2098:2124   */\n      swap1\n      pop\n        /* \"#utility.yul\":2170:2179   */\n      dup2\n        /* \"#utility.yul\":2164:2168   */\n      dup2\n        /* \"#utility.yul\":2160:2180   */\n      sub\n        /* \"#utility.yul\":2156:2157   */\n      0x00\n        /* \"#utility.yul\":2145:2154   */\n      dup4\n        /* \"#utility.yul\":2141:2158   */\n      add\n        /* \"#utility.yul\":2134:2181   */\n      mstore\n        /* \"#utility.yul\":2198:2306   */\n      tag_106\n        /* \"#utility.yul\":2301:2305   */\n      dup2\n        /* \"#utility.yul\":2292:2298   */\n      dup5\n        /* \"#utility.yul\":2198:2306   */\n      tag_72\n      jump\t// in\n    tag_106:\n        /* \"#utility.yul\":2190:2306   */\n      swap1\n      pop\n        /* \"#utility.yul\":1940:2313   */\n      swap3\n      swap2\n      pop\n      pop\n      jump\t// out\n        /* \"#utility.yul\":2319:2632   */\n    tag_26:\n        /* \"#utility.yul\":2432:2436   */\n      0x00\n        /* \"#utility.yul\":2470:2472   */\n      0x20\n        /* \"#utility.yul\":2459:2468   */\n      dup3\n        /* \"#utility.yul\":2455:2473   */\n      add\n        /* \"#utility.yul\":2447:2473   */\n      swap1\n      pop\n        /* \"#utility.yul\":2519:2528   */\n      dup2\n        /* \"#utility.yul\":2513:2517   */\n      dup2\n        /* \"#utility.yul\":2509:2529   */\n      sub\n        /* \"#utility.yul\":2505:2506   */\n      0x00\n        /* \"#utility.yul\":2494:2503   */\n      dup4\n        /* \"#utility.yul\":2490:2507   */\n      add\n        /* \"#utility.yul\":2483:2530   */\n      mstore\n        /* \"#utility.yul\":2547:2625   */\n      tag_108\n        /* \"#utility.yul\":2620:2624   */\n      dup2\n        /* \"#utility.yul\":2611:2617   */\n      dup5\n        /* \"#utility.yul\":2547:2625   */\n      tag_86\n      jump\t// in\n    tag_108:\n        /* \"#utility.yul\":2539:2625   */\n      swap1\n      pop\n        /* \"#utility.yul\":2319:2632   */\n      swap3\n      swap2\n      pop\n      pop\n      jump\t// out\n        /* \"#utility.yul\":2638:3057   */\n    tag_12:\n        /* \"#utility.yul\":2804:2808   */\n      0x00\n        /* \"#utility.yul\":2842:2844   */\n      0x20\n        /* \"#utility.yul\":2831:2840   */\n      dup3\n        /* \"#utility.yul\":2827:2845   */\n      add\n        /* \"#utility.yul\":2819:2845   */\n      swap1\n      pop\n        /* \"#utility.yul\":2891:2900   */\n      dup2\n        /* \"#utility.yul\":2885:2889   */\n      dup2\n        /* \"#utility.yul\":2881:2901   */\n      sub\n        /* \"#utility.yul\":2877:2878   */\n      0x00\n        /* \"#utility.yul\":2866:2875   */\n      dup4\n        /* \"#utility.yul\":2862:2879   */\n      add\n        /* \"#utility.yul\":2855:2902   */\n      mstore\n        /* \"#utility.yul\":2919:3050   */\n      tag_110\n        /* \"#utility.yul\":3045:3049   */\n      dup2\n        /* \"#utility.yul\":2919:3050   */\n      tag_96\n      jump\t// in\n    tag_110:\n        /* \"#utility.yul\":2911:3050   */\n      swap1\n      pop\n        /* \"#utility.yul\":2638:3057   */\n      swap2\n      swap1\n      pop\n      jump\t// out\n        /* \"#utility.yul\":3063:3285   */\n    tag_21:\n        /* \"#utility.yul\":3156:3160   */\n      0x00\n        /* \"#utility.yul\":3194:3196   */\n      0x20\n        /* \"#utility.yul\":3183:3192   */\n      dup3\n        /* \"#utility.yul\":3179:3197   */\n      add\n        /* \"#utility.yul\":3171:3197   */\n      swap1\n      pop\n        /* \"#utility.yul\":3207:3278   */\n      tag_112\n        /* \"#utility.yul\":3275:3276   */\n      0x00\n        /* \"#utility.yul\":3264:3273   */\n      dup4\n        /* \"#utility.yul\":3260:3277   */\n      add\n        /* \"#utility.yul\":3251:3257   */\n      dup5\n        /* \"#utility.yul\":3207:3278   */\n      tag_101\n      jump\t// in\n    tag_112:\n        /* \"#utility.yul\":3063:3285   */\n      swap3\n      swap2\n      pop\n      pop\n      jump\t// out\n        /* \"#utility.yul\":3291:3423   */\n    tag_79:\n        /* \"#utility.yul\":3358:3362   */\n      0x00\n        /* \"#utility.yul\":3381:3384   */\n      dup2\n        /* \"#utility.yul\":3373:3384   */\n      swap1\n      pop\n        /* \"#utility.yul\":3411:3415   */\n      0x20\n        /* \"#utility.yul\":3406:3409   */\n      dup3\n        /* \"#utility.yul\":3402:3416   */\n      add\n        /* \"#utility.yul\":3394:3416   */\n      swap1\n      pop\n        /* \"#utility.yul\":3291:3423   */\n      swap2\n      swap1\n      pop\n      jump\t// out\n        /* \"#utility.yul\":3429:3543   */\n    tag_75:\n        /* \"#utility.yul\":3496:3502   */\n      0x00\n        /* \"#utility.yul\":3530:3535   */\n      dup2\n        /* \"#utility.yul\":3524:3536   */\n      mload\n        /* \"#utility.yul\":3514:3536   */\n      swap1\n      pop\n        /* \"#utility.yul\":3429:3543   */\n      swap2\n      swap1\n      pop\n      jump\t// out\n        /* \"#utility.yul\":3549:3648   */\n    tag_89:\n        /* \"#utility.yul\":3601:3607   */\n      0x00\n        /* \"#utility.yul\":3635:3640   */\n      dup2\n        /* \"#utility.yul\":3629:3641   */\n      mload\n        /* \"#utility.yul\":3619:3641   */\n      swap1\n      pop\n        /* \"#utility.yul\":3549:3648   */\n      swap2\n      swap1\n      pop\n      jump\t// out\n        /* \"#utility.yul\":3654:3767   */\n    tag_85:\n        /* \"#utility.yul\":3724:3728   */\n      0x00\n        /* \"#utility.yul\":3756:3760   */\n      0x20\n        /* \"#utility.yul\":3751:3754   */\n      dup3\n        /* \"#utility.yul\":3747:3761   */\n      add\n        /* \"#utility.yul\":3739:3761   */\n      swap1\n      pop\n        /* \"#utility.yul\":3654:3767   */\n      swap2\n      swap1\n      pop\n      jump\t// out\n        /* \"#utility.yul\":3773:3957   */\n    tag_77:\n        /* \"#utility.yul\":3872:3883   */\n      0x00\n        /* \"#utility.yul\":3906:3912   */\n      dup3\n        /* \"#utility.yul\":3901:3904   */\n      dup3\n        /* \"#utility.yul\":3894:3913   */\n      mstore\n        /* \"#utility.yul\":3946:3950   */\n      0x20\n        /* \"#utility.yul\":3941:3944   */\n      dup3\n        /* \"#utility.yul\":3937:3951   */\n      add\n        /* \"#utility.yul\":3922:3951   */\n      swap1\n      pop\n        /* \"#utility.yul\":3773:3957   */\n      swap3\n      swap2\n      pop\n      pop\n      jump\t// out\n        /* \"#utility.yul\":3963:4132   */\n    tag_91:\n        /* \"#utility.yul\":4047:4058   */\n      0x00\n        /* \"#utility.yul\":4081:4087   */\n      dup3\n        /* \"#utility.yul\":4076:4079   */\n      dup3\n        /* \"#utility.yul\":4069:4088   */\n      mstore\n        /* \"#utility.yul\":4121:4125   */\n      0x20\n        /* \"#utility.yul\":4116:4119   */\n      dup3\n        /* \"#utility.yul\":4112:4126   */\n      add\n        /* \"#utility.yul\":4097:4126   */\n      swap1\n      pop\n        /* \"#utility.yul\":3963:4132   */\n      swap3\n      swap2\n      pop\n      pop\n      jump\t// out\n        /* \"#utility.yul\":4138:4234   */\n    tag_71:\n        /* \"#utility.yul\":4175:4182   */\n      0x00\n        /* \"#utility.yul\":4204:4228   */\n      tag_120\n        /* \"#utility.yul\":4222:4227   */\n      dup3\n        /* \"#utility.yul\":4204:4228   */\n      tag_121\n      jump\t// in\n    tag_120:\n        /* \"#utility.yul\":4193:4228   */\n      swap1\n      pop\n        /* \"#utility.yul\":4138:4234   */\n      swap2\n      swap1\n      pop\n      jump\t// out\n        /* \"#utility.yul\":4240:4366   */\n    tag_121:\n        /* \"#utility.yul\":4277:4284   */\n      0x00\n        /* \"#utility.yul\":4317:4359   */\n      0xffffffffffffffffffffffffffffffffffffffff\n        /* \"#utility.yul\":4310:4315   */\n      dup3\n        /* \"#utility.yul\":4306:4360   */\n      and\n        /* \"#utility.yul\":4295:4360   */\n      swap1\n      pop\n        /* \"#utility.yul\":4240:4366   */\n      swap2\n      swap1\n      pop\n      jump\t// out\n        /* \"#utility.yul\":4372:4449   */\n    tag_104:\n        /* \"#utility.yul\":4409:4416   */\n      0x00\n        /* \"#utility.yul\":4438:4443   */\n      dup2\n        /* \"#utility.yul\":4427:4443   */\n      swap1\n      pop\n        /* \"#utility.yul\":4372:4449   */\n      swap2\n      swap1\n      pop\n      jump\t// out\n        /* \"#utility.yul\":4455:4762   */\n    tag_93:\n        /* \"#utility.yul\":4523:4524   */\n      0x00\n        /* \"#utility.yul\":4533:4646   */\n    tag_125:\n        /* \"#utility.yul\":4547:4553   */\n      dup4\n        /* \"#utility.yul\":4544:4545   */\n      dup2\n        /* \"#utility.yul\":4541:4554   */\n      lt\n        /* \"#utility.yul\":4533:4646   */\n      iszero\n      tag_127\n      jumpi\n        /* \"#utility.yul\":4632:4633   */\n      dup1\n        /* \"#utility.yul\":4627:4630   */\n      dup3\n        /* \"#utility.yul\":4623:4634   */\n      add\n        /* \"#utility.yul\":4617:4635   */\n      mload\n        /* \"#utility.yul\":4613:4614   */\n      dup2\n        /* \"#utility.yul\":4608:4611   */\n      dup5\n        /* \"#utility.yul\":4604:4615   */\n      add\n        /* \"#utility.yul\":4597:4636   */\n      mstore\n        /* \"#utility.yul\":4569:4571   */\n      0x20\n        /* \"#utility.yul\":4566:4567   */\n      dup2\n        /* \"#utility.yul\":4562:4572   */\n      add\n        /* \"#utility.yul\":4557:4572   */\n      swap1\n      pop\n        /* \"#utility.yul\":4533:4646   */\n      jump(tag_125)\n    tag_127:\n        /* \"#utility.yul\":4664:4670   */\n      dup4\n        /* \"#utility.yul\":4661:4662   */\n      dup2\n        /* \"#utility.yul\":4658:4671   */\n      gt\n        /* \"#utility.yul\":4655:4756   */\n      iszero\n      tag_128\n      jumpi\n        /* \"#utility.yul\":4744:4745   */\n      0x00\n        /* \"#utility.yul\":4735:4741   */\n      dup5\n        /* \"#utility.yul\":4730:4733   */\n      dup5\n        /* \"#utility.yul\":4726:4742   */\n      add\n        /* \"#utility.yul\":4719:4746   */\n      mstore\n        /* \"#utility.yul\":4655:4756   */\n    tag_128:\n        /* \"#utility.yul\":4504:4762   */\n      pop\n        /* \"#utility.yul\":4455:4762   */\n      pop\n      pop\n      pop\n      jump\t// out\n        /* \"#utility.yul\":4768:5088   */\n    tag_37:\n        /* \"#utility.yul\":4812:4818   */\n      0x00\n        /* \"#utility.yul\":4849:4850   */\n      0x02\n        /* \"#utility.yul\":4843:4847   */\n      dup3\n        /* \"#utility.yul\":4839:4851   */\n      div\n        /* \"#utility.yul\":4829:4851   */\n      swap1\n      pop\n        /* \"#utility.yul\":4896:4897   */\n      0x01\n        /* \"#utility.yul\":4890:4894   */\n      dup3\n        /* \"#utility.yul\":4886:4898   */\n      and\n        /* \"#utility.yul\":4917:4935   */\n      dup1\n        /* \"#utility.yul\":4907:4988   */\n      tag_130\n      jumpi\n        /* \"#utility.yul\":4973:4977   */\n      0x7f\n        /* \"#utility.yul\":4965:4971   */\n      dup3\n        /* \"#utility.yul\":4961:4978   */\n      and\n        /* \"#utility.yul\":4951:4978   */\n      swap2\n      pop\n        /* \"#utility.yul\":4907:4988   */\n    tag_130:\n        /* \"#utility.yul\":5035:5037   */\n      0x20\n        /* \"#utility.yul\":5027:5033   */\n      dup3\n        /* \"#utility.yul\":5024:5038   */\n      lt\n        /* \"#utility.yul\":5004:5022   */\n      dup2\n        /* \"#utility.yul\":5001:5039   */\n      eq\n        /* \"#utility.yul\":4998:5082   */\n      iszero\n      tag_131\n      jumpi\n        /* \"#utility.yul\":5054:5072   */\n      tag_132\n      tag_133\n      jump\t// in\n    tag_132:\n        /* \"#utility.yul\":4998:5082   */\n    tag_131:\n        /* \"#utility.yul\":4819:5088   */\n      pop\n        /* \"#utility.yul\":4768:5088   */\n      swap2\n      swap1\n      pop\n      jump\t// out\n        /* \"#utility.yul\":5094:5327   */\n    tag_59:\n        /* \"#utility.yul\":5133:5136   */\n      0x00\n        /* \"#utility.yul\":5156:5180   */\n      tag_135\n        /* \"#utility.yul\":5174:5179   */\n      dup3\n        /* \"#utility.yul\":5156:5180   */\n      tag_104\n      jump\t// in\n    tag_135:\n        /* \"#utility.yul\":5147:5180   */\n      swap2\n      pop\n        /* \"#utility.yul\":5202:5268   */\n      0xffffffffffffffffffffffffffffffffffffffffffffffffffffffffffffffff\n        /* \"#utility.yul\":5195:5200   */\n      dup3\n        /* \"#utility.yul\":5192:5269   */\n      eq\n        /* \"#utility.yul\":5189:5292   */\n      iszero\n      tag_136\n      jumpi\n        /* \"#utility.yul\":5272:5290   */\n      tag_137\n      tag_138\n      jump\t// in\n    tag_137:\n        /* \"#utility.yul\":5189:5292   */\n    tag_136:\n        /* \"#utility.yul\":5319:5320   */\n      0x01\n        /* \"#utility.yul\":5312:5317   */\n      dup3\n        /* \"#utility.yul\":5308:5321   */\n      add\n        /* \"#utility.yul\":5301:5321   */\n      swap1\n      pop\n        /* \"#utility.yul\":5094:5327   */\n      swap2\n      swap1\n      pop\n      jump\t// out\n        /* \"#utility.yul\":5333:5513   */\n    tag_138:\n        /* \"#utility.yul\":5381:5458   */\n      0x4e487b7100000000000000000000000000000000000000000000000000000000\n        /* \"#utility.yul\":5378:5379   */\n      0x00\n        /* \"#utility.yul\":5371:5459   */\n      mstore\n        /* \"#utility.yul\":5478:5482   */\n      0x11\n        /* \"#utility.yul\":5475:5476   */\n      0x04\n        /* \"#utility.yul\":5468:5483   */\n      mstore\n        /* \"#utility.yul\":5502:5506   */\n      0x24\n        /* \"#utility.yul\":5499:5500   */\n      0x00\n        /* \"#utility.yul\":5492:5507   */\n      revert\n        /* \"#utility.yul\":5519:5699   */\n    tag_133:\n        /* \"#utility.yul\":5567:5644   */\n      0x4e487b7100000000000000000000000000000000000000000000000000000000\n        /* \"#utility.yul\":5564:5565   */\n      0x00\n        /* \"#utility.yul\":5557:5645   */\n      mstore\n        /* \"#utility.yul\":5664:5668   */\n      0x22\n        /* \"#utility.yul\":5661:5662   */\n      0x04\n        /* \"#utility.yul\":5654:5669   */\n      mstore\n        /* \"#utility.yul\":5688:5692   */\n      0x24\n        /* \"#utility.yul\":5685:5686   */\n      0x00\n        /* \"#utility.yul\":5678:5693   */\n      revert\n        /* \"#utility.yul\":5705:5885   */\n    tag_57:\n        /* \"#utility.yul\":5753:5830   */\n      0x4e487b7100000000000000000000000000000000000000000000000000000000\n        /* \"#utility.yul\":5750:5751   */\n      0x00\n        /* \"#utility.yul\":5743:5831   */\n      mstore\n        /* \"#utility.yul\":5850:5854   */\n      0x32\n        /* \"#utility.yul\":5847:5848   */\n      0x04\n        /* \"#utility.yul\":5840:5855   */\n      mstore\n        /* \"#utility.yul\":5874:5878   */\n      0x24\n        /* \"#utility.yul\":5871:5872   */\n      0x00\n        /* \"#utility.yul\":5864:5879   */\n      revert\n        /* \"#utility.yul\":5891:6071   */\n    tag_50:\n        /* \"#utility.yul\":5939:6016   */\n      0x4e487b7100000000000000000000000000000000000000000000000000000000\n        /* \"#utility.yul\":5936:5937   */\n      0x00\n        /* \"#utility.yul\":5929:6017   */\n      mstore\n        /* \"#utility.yul\":6036:6040   */\n      0x41\n        /* \"#utility.yul\":6033:6034   */\n      0x04\n        /* \"#utility.yul\":6026:6041   */\n      mstore\n        /* \"#utility.yul\":6060:6064   */\n      0x24\n        /* \"#utility.yul\":6057:6058   */\n      0x00\n        /* \"#utility.yul\":6050:6065   */\n      revert\n        /* \"#utility.yul\":6077:6179   */\n    tag_95:\n        /* \"#utility.yul\":6118:6124   */\n      0x00\n        /* \"#utility.yul\":6169:6171   */\n      0x1f\n        /* \"#utility.yul\":6165:6172   */\n      not\n        /* \"#utility.yul\":6160:6162   */\n      0x1f\n        /* \"#utility.yul\":6153:6158   */\n      dup4\n        /* \"#utility.yul\":6149:6163   */\n      add\n        /* \"#utility.yul\":6145:6173   */\n      and\n        /* \"#utility.yul\":6135:6173   */\n      swap1\n      pop\n        /* \"#utility.yul\":6077:6179   */\n      swap2\n      swap1\n      pop\n      jump\t// out\n        /* \"#utility.yul\":6185:6410   */\n    tag_100:\n        /* \"#utility.yul\":6325:6359   */\n      0x5061796d656e742073686f756c64206265207468652073756273637269707469\n        /* \"#utility.yul\":6321:6322   */\n      0x00\n        /* \"#utility.yul\":6313:6319   */\n      dup3\n        /* \"#utility.yul\":6309:6323   */\n      add\n        /* \"#utility.yul\":6302:6360   */\n      mstore\n        /* \"#utility.yul\":6394:6402   */\n      0x6f6e206665650000000000000000000000000000000000000000000000000000\n        /* \"#utility.yul\":6389:6391   */\n      0x20\n        /* \"#utility.yul\":6381:6387   */\n      dup3\n        /* \"#utility.yul\":6377:6392   */\n      add\n        /* \"#utility.yul\":6370:6403   */\n      mstore\n        /* \"#utility.yul\":6185:6410   */\n      pop\n      jump\t// out\n\n    auxdata: 0xa2646970667358221220b5634897e9def1d410755c96811224df7810b954b6258caa5b299bce5f374a6564736f6c63430008070033\n}\n",
				"bytecode": {
					"linkReferences": {},
					"object": "608060405260006001553480156200001657600080fd5b5060405162000d2338038062000d2383398181016040528101906200003c9190620001fb565b33600260006101000a81548173ffffffffffffffffffffffffffffffffffffffff021916908373ffffffffffffffffffffffffffffffffffffffff160217905550633b9aca00826200008f9190620002c0565b6003819055508060049080519060200190620000ad929190620000b6565b50505062000499565b828054620000c49062000361565b90600052602060002090601f016020900481019282620000e8576000855562000134565b82601f106200010357805160ff191683800117855562000134565b8280016001018555821562000134579182015b828111156200013357825182559160200191906001019062000116565b5b50905062000143919062000147565b5090565b5b808211156200016257600081600090555060010162000148565b5090565b60006200017d62000177846200028a565b62000261565b9050828152602081018484840111156200019c576200019b6200045f565b5b620001a98482856200032b565b509392505050565b600082601f830112620001c957620001c86200045a565b5b8151620001db84826020860162000166565b91505092915050565b600081519050620001f5816200047f565b92915050565b6000806040838503121562000215576200021462000469565b5b60006200022585828601620001e4565b925050602083015167ffffffffffffffff81111562000249576200024862000464565b5b6200025785828601620001b1565b9150509250929050565b60006200026d62000280565b90506200027b828262000397565b919050565b6000604051905090565b600067ffffffffffffffff821115620002a857620002a76200042b565b5b620002b3826200046e565b9050602081019050919050565b6000620002cd8262000321565b9150620002da8362000321565b9250817fffffffffffffffffffffffffffffffffffffffffffffffffffffffffffffffff0483118215151615620003165762000315620003cd565b5b828202905092915050565b6000819050919050565b60005b838110156200034b5780820151818401526020810190506200032e565b838111156200035b576000848401525b50505050565b600060028204905060018216806200037a57607f821691505b60208210811415620003915762000390620003fc565b5b50919050565b620003a2826200046e565b810181811067ffffffffffffffff82111715620003c457620003c36200042b565b5b80604052505050565b7f4e487b7100000000000000000000000000000000000000000000000000000000600052601160045260246000fd5b7f4e487b7100000000000000000000000000000000000000000000000000000000600052602260045260246000fd5b7f4e487b7100000000000000000000000000000000000000000000000000000000600052604160045260246000fd5b600080fd5b600080fd5b600080fd5b600080fd5b6000601f19601f8301169050919050565b6200048a8162000321565b81146200049657600080fd5b50565b61087a80620004a96000396000f3fe60806040526004361061004e5760003560e01c80630aa0a175146100df5780632443877c1461010a578063534844a21461013557806382d69b621461013f578063be2919991461016a57610099565b36610099576003543414610097576040517f08c379a000000000000000000000000000000000000000000000000000000000815260040161008e906105ae565b60405180910390fd5b005b60035434146100dd576040517f08c379a00000000000000000000000000000000000000000000000000000000081526004016100d4906105ae565b60405180910390fd5b005b3480156100eb57600080fd5b506100f4610174565b60405161010191906105ce565b60405180910390f35b34801561011657600080fd5b5061011f61017a565b60405161012c919061058c565b60405180910390f35b61013d610208565b005b34801561014b57600080fd5b506101546102cd565b604051610161919061056a565b60405180910390f35b6101726103c6565b005b60035481565b60048054610187906106ad565b80601f01602080910402602001604051908101604052809291908181526020018280546101b3906106ad565b80156102005780601f106101d557610100808354040283529160200191610200565b820191906000526020600020905b8154815290600101906020018083116101e357829003601f168201915b505050505081565b600260009054906101000a900473ffffffffffffffffffffffffffffffffffffffff1673ffffffffffffffffffffffffffffffffffffffff163373ffffffffffffffffffffffffffffffffffffffff161461026257600080fd5b600260009054906101000a900473ffffffffffffffffffffffffffffffffffffffff1673ffffffffffffffffffffffffffffffffffffffff166108fc479081150290604051600060405180830381858888f193505050501580156102ca573d6000803e3d6000fd5b50565b6060600060015467ffffffffffffffff8111156102ed576102ec6107b5565b5b60405190808252806020026020018201604052801561031b5781602001602082028036833780820191505090505b50905060005b6001548110156103be5760008082815260200190815260200160002060009054906101000a900473ffffffffffffffffffffffffffffffffffffffff1682828151811061037157610370610786565b5b602002602001019073ffffffffffffffffffffffffffffffffffffffff16908173ffffffffffffffffffffffffffffffffffffffff168152505080806103b6906106df565b915050610321565b508091505090565b33600080600154815260200190815260200160002060006101000a81548173ffffffffffffffffffffffffffffffffffffffff021916908373ffffffffffffffffffffffffffffffffffffffff1602179055506001600081548092919061042c906106df565b91905055503073ffffffffffffffffffffffffffffffffffffffff166108fc349081150290604051600060405180830381858888f19350505050158015610477573d6000803e3d6000fd5b50565b60006104868383610492565b60208301905092915050565b61049b8161063e565b82525050565b60006104ac826105f9565b6104b6818561061c565b93506104c1836105e9565b8060005b838110156104f25781516104d9888261047a565b97506104e48361060f565b9250506001810190506104c5565b5085935050505092915050565b600061050a82610604565b610514818561062d565b935061052481856020860161067a565b61052d816107e4565b840191505092915050565b600061054560268361062d565b9150610550826107f5565b604082019050919050565b61056481610670565b82525050565b6000602082019050818103600083015261058481846104a1565b905092915050565b600060208201905081810360008301526105a681846104ff565b905092915050565b600060208201905081810360008301526105c781610538565b9050919050565b60006020820190506105e3600083018461055b565b92915050565b6000819050602082019050919050565b600081519050919050565b600081519050919050565b6000602082019050919050565b600082825260208201905092915050565b600082825260208201905092915050565b600061064982610650565b9050919050565b600073ffffffffffffffffffffffffffffffffffffffff82169050919050565b6000819050919050565b60005b8381101561069857808201518184015260208101905061067d565b838111156106a7576000848401525b50505050565b600060028204905060018216806106c557607f821691505b602082108114156106d9576106d8610757565b5b50919050565b60006106ea82610670565b91507fffffffffffffffffffffffffffffffffffffffffffffffffffffffffffffffff82141561071d5761071c610728565b5b600182019050919050565b7f4e487b7100000000000000000000000000000000000000000000000000000000600052601160045260246000fd5b7f4e487b7100000000000000000000000000000000000000000000000000000000600052602260045260246000fd5b7f4e487b7100000000000000000000000000000000000000000000000000000000600052603260045260246000fd5b7f4e487b7100000000000000000000000000000000000000000000000000000000600052604160045260246000fd5b6000601f19601f8301169050919050565b7f5061796d656e742073686f756c6420626520746865207375627363726970746960008201527f6f6e20666565000000000000000000000000000000000000000000000000000060208201525056fea2646970667358221220b5634897e9def1d410755c96811224df7810b954b6258caa5b299bce5f374a6564736f6c63430008070033",
					"opcodes": "PUSH1 0x80 PUSH1 0x40 MSTORE PUSH1 0x0 PUSH1 0x1 SSTORE CALLVALUE DUP1 ISZERO PUSH3 0x16 JUMPI PUSH1 0x0 DUP1 REVERT JUMPDEST POP PUSH1 0x40 MLOAD PUSH3 0xD23 CODESIZE SUB DUP1 PUSH3 0xD23 DUP4 CODECOPY DUP2 DUP2 ADD PUSH1 0x40 MSTORE DUP2 ADD SWAP1 PUSH3 0x3C SWAP2 SWAP1 PUSH3 0x1FB JUMP JUMPDEST CALLER PUSH1 0x2 PUSH1 0x0 PUSH2 0x100 EXP DUP2 SLOAD DUP2 PUSH20 0xFFFFFFFFFFFFFFFFFFFFFFFFFFFFFFFFFFFFFFFF MUL NOT AND SWAP1 DUP4 PUSH20 0xFFFFFFFFFFFFFFFFFFFFFFFFFFFFFFFFFFFFFFFF AND MUL OR SWAP1 SSTORE POP PUSH4 0x3B9ACA00 DUP3 PUSH3 0x8F SWAP2 SWAP1 PUSH3 0x2C0 JUMP JUMPDEST PUSH1 0x3 DUP2 SWAP1 SSTORE POP DUP1 PUSH1 0x4 SWAP1 DUP1 MLOAD SWAP1 PUSH1 0x20 ADD SWAP1 PUSH3 0xAD SWAP3 SWAP2 SWAP1 PUSH3 0xB6 JUMP JUMPDEST POP POP POP PUSH3 0x499 JUMP JUMPDEST DUP3 DUP1 SLOAD PUSH3 0xC4 SWAP1 PUSH3 0x361 JUMP JUMPDEST SWAP1 PUSH1 0x0 MSTORE PUSH1 0x20 PUSH1 0x0 KECCAK256 SWAP1 PUSH1 0x1F ADD PUSH1 0x20 SWAP1 DIV DUP2 ADD SWAP3 DUP3 PUSH3 0xE8 JUMPI PUSH1 0x0 DUP6 SSTORE PUSH3 0x134 JUMP JUMPDEST DUP3 PUSH1 0x1F LT PUSH3 0x103 JUMPI DUP1 MLOAD PUSH1 0xFF NOT AND DUP4 DUP1 ADD OR DUP6 SSTORE PUSH3 0x134 JUMP JUMPDEST DUP3 DUP1 ADD PUSH1 0x1 ADD DUP6 SSTORE DUP3 ISZERO PUSH3 0x134 JUMPI SWAP2 DUP3 ADD JUMPDEST DUP3 DUP2 GT ISZERO PUSH3 0x133 JUMPI DUP3 MLOAD DUP3 SSTORE SWAP2 PUSH1 0x20 ADD SWAP2 SWAP1 PUSH1 0x1 ADD SWAP1 PUSH3 0x116 JUMP JUMPDEST JUMPDEST POP SWAP1 POP PUSH3 0x143 SWAP2 SWAP1 PUSH3 0x147 JUMP JUMPDEST POP SWAP1 JUMP JUMPDEST JUMPDEST DUP1 DUP3 GT ISZERO PUSH3 0x162 JUMPI PUSH1 0x0 DUP2 PUSH1 0x0 SWAP1 SSTORE POP PUSH1 0x1 ADD PUSH3 0x148 JUMP JUMPDEST POP SWAP1 JUMP JUMPDEST PUSH1 0x0 PUSH3 0x17D PUSH3 0x177 DUP5 PUSH3 0x28A JUMP JUMPDEST PUSH3 0x261 JUMP JUMPDEST SWAP1 POP DUP3 DUP2 MSTORE PUSH1 0x20 DUP2 ADD DUP5 DUP5 DUP5 ADD GT ISZERO PUSH3 0x19C JUMPI PUSH3 0x19B PUSH3 0x45F JUMP JUMPDEST JUMPDEST PUSH3 0x1A9 DUP5 DUP3 DUP6 PUSH3 0x32B JUMP JUMPDEST POP SWAP4 SWAP3 POP POP POP JUMP JUMPDEST PUSH1 0x0 DUP3 PUSH1 0x1F DUP4 ADD SLT PUSH3 0x1C9 JUMPI PUSH3 0x1C8 PUSH3 0x45A JUMP JUMPDEST JUMPDEST DUP2 MLOAD PUSH3 0x1DB DUP5 DUP3 PUSH1 0x20 DUP7 ADD PUSH3 0x166 JUMP JUMPDEST SWAP2 POP POP SWAP3 SWAP2 POP POP JUMP JUMPDEST PUSH1 0x0 DUP2 MLOAD SWAP1 POP PUSH3 0x1F5 DUP2 PUSH3 0x47F JUMP JUMPDEST SWAP3 SWAP2 POP POP JUMP JUMPDEST PUSH1 0x0 DUP1 PUSH1 0x40 DUP4 DUP6 SUB SLT ISZERO PUSH3 0x215 JUMPI PUSH3 0x214 PUSH3 0x469 JUMP JUMPDEST JUMPDEST PUSH1 0x0 PUSH3 0x225 DUP6 DUP3 DUP7 ADD PUSH3 0x1E4 JUMP JUMPDEST SWAP3 POP POP PUSH1 0x20 DUP4 ADD MLOAD PUSH8 0xFFFFFFFFFFFFFFFF DUP2 GT ISZERO PUSH3 0x249 JUMPI PUSH3 0x248 PUSH3 0x464 JUMP JUMPDEST JUMPDEST PUSH3 0x257 DUP6 DUP3 DUP7 ADD PUSH3 0x1B1 JUMP JUMPDEST SWAP2 POP POP SWAP3 POP SWAP3 SWAP1 POP JUMP JUMPDEST PUSH1 0x0 PUSH3 0x26D PUSH3 0x280 JUMP JUMPDEST SWAP1 POP PUSH3 0x27B DUP3 DUP3 PUSH3 0x397 JUMP JUMPDEST SWAP2 SWAP1 POP JUMP JUMPDEST PUSH1 0x0 PUSH1 0x40 MLOAD SWAP1 POP SWAP1 JUMP JUMPDEST PUSH1 0x0 PUSH8 0xFFFFFFFFFFFFFFFF DUP3 GT ISZERO PUSH3 0x2A8 JUMPI PUSH3 0x2A7 PUSH3 0x42B JUMP JUMPDEST JUMPDEST PUSH3 0x2B3 DUP3 PUSH3 0x46E JUMP JUMPDEST SWAP1 POP PUSH1 0x20 DUP2 ADD SWAP1 POP SWAP2 SWAP1 POP JUMP JUMPDEST PUSH1 0x0 PUSH3 0x2CD DUP3 PUSH3 0x321 JUMP JUMPDEST SWAP2 POP PUSH3 0x2DA DUP4 PUSH3 0x321 JUMP JUMPDEST SWAP3 POP DUP2 PUSH32 0xFFFFFFFFFFFFFFFFFFFFFFFFFFFFFFFFFFFFFFFFFFFFFFFFFFFFFFFFFFFFFFFF DIV DUP4 GT DUP3 ISZERO ISZERO AND ISZERO PUSH3 0x316 JUMPI PUSH3 0x315 PUSH3 0x3CD JUMP JUMPDEST JUMPDEST DUP3 DUP3 MUL SWAP1 POP SWAP3 SWAP2 POP POP JUMP JUMPDEST PUSH1 0x0 DUP2 SWAP1 POP SWAP2 SWAP1 POP JUMP JUMPDEST PUSH1 0x0 JUMPDEST DUP4 DUP2 LT ISZERO PUSH3 0x34B JUMPI DUP1 DUP3 ADD MLOAD DUP2 DUP5 ADD MSTORE PUSH1 0x20 DUP2 ADD SWAP1 POP PUSH3 0x32E JUMP JUMPDEST DUP4 DUP2 GT ISZERO PUSH3 0x35B JUMPI PUSH1 0x0 DUP5 DUP5 ADD MSTORE JUMPDEST POP POP POP POP JUMP JUMPDEST PUSH1 0x0 PUSH1 0x2 DUP3 DIV SWAP1 POP PUSH1 0x1 DUP3 AND DUP1 PUSH3 0x37A JUMPI PUSH1 0x7F DUP3 AND SWAP2 POP JUMPDEST PUSH1 0x20 DUP3 LT DUP2 EQ ISZERO PUSH3 0x391 JUMPI PUSH3 0x390 PUSH3 0x3FC JUMP JUMPDEST JUMPDEST POP SWAP2 SWAP1 POP JUMP JUMPDEST PUSH3 0x3A2 DUP3 PUSH3 0x46E JUMP JUMPDEST DUP2 ADD DUP2 DUP2 LT PUSH8 0xFFFFFFFFFFFFFFFF DUP3 GT OR ISZERO PUSH3 0x3C4 JUMPI PUSH3 0x3C3 PUSH3 0x42B JUMP JUMPDEST JUMPDEST DUP1 PUSH1 0x40 MSTORE POP POP POP JUMP JUMPDEST PUSH32 0x4E487B7100000000000000000000000000000000000000000000000000000000 PUSH1 0x0 MSTORE PUSH1 0x11 PUSH1 0x4 MSTORE PUSH1 0x24 PUSH1 0x0 REVERT JUMPDEST PUSH32 0x4E487B7100000000000000000000000000000000000000000000000000000000 PUSH1 0x0 MSTORE PUSH1 0x22 PUSH1 0x4 MSTORE PUSH1 0x24 PUSH1 0x0 REVERT JUMPDEST PUSH32 0x4E487B7100000000000000000000000000000000000000000000000000000000 PUSH1 0x0 MSTORE PUSH1 0x41 PUSH1 0x4 MSTORE PUSH1 0x24 PUSH1 0x0 REVERT JUMPDEST PUSH1 0x0 DUP1 REVERT JUMPDEST PUSH1 0x0 DUP1 REVERT JUMPDEST PUSH1 0x0 DUP1 REVERT JUMPDEST PUSH1 0x0 DUP1 REVERT JUMPDEST PUSH1 0x0 PUSH1 0x1F NOT PUSH1 0x1F DUP4 ADD AND SWAP1 POP SWAP2 SWAP1 POP JUMP JUMPDEST PUSH3 0x48A DUP2 PUSH3 0x321 JUMP JUMPDEST DUP2 EQ PUSH3 0x496 JUMPI PUSH1 0x0 DUP1 REVERT JUMPDEST POP JUMP JUMPDEST PUSH2 0x87A DUP1 PUSH3 0x4A9 PUSH1 0x0 CODECOPY PUSH1 0x0 RETURN INVALID PUSH1 0x80 PUSH1 0x40 MSTORE PUSH1 0x4 CALLDATASIZE LT PUSH2 0x4E JUMPI PUSH1 0x0 CALLDATALOAD PUSH1 0xE0 SHR DUP1 PUSH4 0xAA0A175 EQ PUSH2 0xDF JUMPI DUP1 PUSH4 0x2443877C EQ PUSH2 0x10A JUMPI DUP1 PUSH4 0x534844A2 EQ PUSH2 0x135 JUMPI DUP1 PUSH4 0x82D69B62 EQ PUSH2 0x13F JUMPI DUP1 PUSH4 0xBE291999 EQ PUSH2 0x16A JUMPI PUSH2 0x99 JUMP JUMPDEST CALLDATASIZE PUSH2 0x99 JUMPI PUSH1 0x3 SLOAD CALLVALUE EQ PUSH2 0x97 JUMPI PUSH1 0x40 MLOAD PUSH32 0x8C379A000000000000000000000000000000000000000000000000000000000 DUP2 MSTORE PUSH1 0x4 ADD PUSH2 0x8E SWAP1 PUSH2 0x5AE JUMP JUMPDEST PUSH1 0x40 MLOAD DUP1 SWAP2 SUB SWAP1 REVERT JUMPDEST STOP JUMPDEST PUSH1 0x3 SLOAD CALLVALUE EQ PUSH2 0xDD JUMPI PUSH1 0x40 MLOAD PUSH32 0x8C379A000000000000000000000000000000000000000000000000000000000 DUP2 MSTORE PUSH1 0x4 ADD PUSH2 0xD4 SWAP1 PUSH2 0x5AE JUMP JUMPDEST PUSH1 0x40 MLOAD DUP1 SWAP2 SUB SWAP1 REVERT JUMPDEST STOP JUMPDEST CALLVALUE DUP1 ISZERO PUSH2 0xEB JUMPI PUSH1 0x0 DUP1 REVERT JUMPDEST POP PUSH2 0xF4 PUSH2 0x174 JUMP JUMPDEST PUSH1 0x40 MLOAD PUSH2 0x101 SWAP2 SWAP1 PUSH2 0x5CE JUMP JUMPDEST PUSH1 0x40 MLOAD DUP1 SWAP2 SUB SWAP1 RETURN JUMPDEST CALLVALUE DUP1 ISZERO PUSH2 0x116 JUMPI PUSH1 0x0 DUP1 REVERT JUMPDEST POP PUSH2 0x11F PUSH2 0x17A JUMP JUMPDEST PUSH1 0x40 MLOAD PUSH2 0x12C SWAP2 SWAP1 PUSH2 0x58C JUMP JUMPDEST PUSH1 0x40 MLOAD DUP1 SWAP2 SUB SWAP1 RETURN JUMPDEST PUSH2 0x13D PUSH2 0x208 JUMP JUMPDEST STOP JUMPDEST CALLVALUE DUP1 ISZERO PUSH2 0x14B JUMPI PUSH1 0x0 DUP1 REVERT JUMPDEST POP PUSH2 0x154 PUSH2 0x2CD JUMP JUMPDEST PUSH1 0x40 MLOAD PUSH2 0x161 SWAP2 SWAP1 PUSH2 0x56A JUMP JUMPDEST PUSH1 0x40 MLOAD DUP1 SWAP2 SUB SWAP1 RETURN JUMPDEST PUSH2 0x172 PUSH2 0x3C6 JUMP JUMPDEST STOP JUMPDEST PUSH1 0x3 SLOAD DUP2 JUMP JUMPDEST PUSH1 0x4 DUP1 SLOAD PUSH2 0x187 SWAP1 PUSH2 0x6AD JUMP JUMPDEST DUP1 PUSH1 0x1F ADD PUSH1 0x20 DUP1 SWAP2 DIV MUL PUSH1 0x20 ADD PUSH1 0x40 MLOAD SWAP1 DUP2 ADD PUSH1 0x40 MSTORE DUP1 SWAP3 SWAP2 SWAP1 DUP2 DUP2 MSTORE PUSH1 0x20 ADD DUP3 DUP1 SLOAD PUSH2 0x1B3 SWAP1 PUSH2 0x6AD JUMP JUMPDEST DUP1 ISZERO PUSH2 0x200 JUMPI DUP1 PUSH1 0x1F LT PUSH2 0x1D5 JUMPI PUSH2 0x100 DUP1 DUP4 SLOAD DIV MUL DUP4 MSTORE SWAP2 PUSH1 0x20 ADD SWAP2 PUSH2 0x200 JUMP JUMPDEST DUP3 ADD SWAP2 SWAP1 PUSH1 0x0 MSTORE PUSH1 0x20 PUSH1 0x0 KECCAK256 SWAP1 JUMPDEST DUP2 SLOAD DUP2 MSTORE SWAP1 PUSH1 0x1 ADD SWAP1 PUSH1 0x20 ADD DUP1 DUP4 GT PUSH2 0x1E3 JUMPI DUP3 SWAP1 SUB PUSH1 0x1F AND DUP3 ADD SWAP2 JUMPDEST POP POP POP POP POP DUP2 JUMP JUMPDEST PUSH1 0x2 PUSH1 0x0 SWAP1 SLOAD SWAP1 PUSH2 0x100 EXP SWAP1 DIV PUSH20 0xFFFFFFFFFFFFFFFFFFFFFFFFFFFFFFFFFFFFFFFF AND PUSH20 0xFFFFFFFFFFFFFFFFFFFFFFFFFFFFFFFFFFFFFFFF AND CALLER PUSH20 0xFFFFFFFFFFFFFFFFFFFFFFFFFFFFFFFFFFFFFFFF AND EQ PUSH2 0x262 JUMPI PUSH1 0x0 DUP1 REVERT JUMPDEST PUSH1 0x2 PUSH1 0x0 SWAP1 SLOAD SWAP1 PUSH2 0x100 EXP SWAP1 DIV PUSH20 0xFFFFFFFFFFFFFFFFFFFFFFFFFFFFFFFFFFFFFFFF AND PUSH20 0xFFFFFFFFFFFFFFFFFFFFFFFFFFFFFFFFFFFFFFFF AND PUSH2 0x8FC SELFBALANCE SWAP1 DUP2 ISZERO MUL SWAP1 PUSH1 0x40 MLOAD PUSH1 0x0 PUSH1 0x40 MLOAD DUP1 DUP4 SUB DUP2 DUP6 DUP9 DUP9 CALL SWAP4 POP POP POP POP ISZERO DUP1 ISZERO PUSH2 0x2CA JUMPI RETURNDATASIZE PUSH1 0x0 DUP1 RETURNDATACOPY RETURNDATASIZE PUSH1 0x0 REVERT JUMPDEST POP JUMP JUMPDEST PUSH1 0x60 PUSH1 0x0 PUSH1 0x1 SLOAD PUSH8 0xFFFFFFFFFFFFFFFF DUP2 GT ISZERO PUSH2 0x2ED JUMPI PUSH2 0x2EC PUSH2 0x7B5 JUMP JUMPDEST JUMPDEST PUSH1 0x40 MLOAD SWAP1 DUP1 DUP3 MSTORE DUP1 PUSH1 0x20 MUL PUSH1 0x20 ADD DUP3 ADD PUSH1 0x40 MSTORE DUP1 ISZERO PUSH2 0x31B JUMPI DUP2 PUSH1 0x20 ADD PUSH1 0x20 DUP3 MUL DUP1 CALLDATASIZE DUP4 CALLDATACOPY DUP1 DUP3 ADD SWAP2 POP POP SWAP1 POP JUMPDEST POP SWAP1 POP PUSH1 0x0 JUMPDEST PUSH1 0x1 SLOAD DUP2 LT ISZERO PUSH2 0x3BE JUMPI PUSH1 0x0 DUP1 DUP3 DUP2 MSTORE PUSH1 0x20 ADD SWAP1 DUP2 MSTORE PUSH1 0x20 ADD PUSH1 0x0 KECCAK256 PUSH1 0x0 SWAP1 SLOAD SWAP1 PUSH2 0x100 EXP SWAP1 DIV PUSH20 0xFFFFFFFFFFFFFFFFFFFFFFFFFFFFFFFFFFFFFFFF AND DUP3 DUP3 DUP2 MLOAD DUP2 LT PUSH2 0x371 JUMPI PUSH2 0x370 PUSH2 0x786 JUMP JUMPDEST JUMPDEST PUSH1 0x20 MUL PUSH1 0x20 ADD ADD SWAP1 PUSH20 0xFFFFFFFFFFFFFFFFFFFFFFFFFFFFFFFFFFFFFFFF AND SWAP1 DUP2 PUSH20 0xFFFFFFFFFFFFFFFFFFFFFFFFFFFFFFFFFFFFFFFF AND DUP2 MSTORE POP POP DUP1 DUP1 PUSH2 0x3B6 SWAP1 PUSH2 0x6DF JUMP JUMPDEST SWAP2 POP POP PUSH2 0x321 JUMP JUMPDEST POP DUP1 SWAP2 POP POP SWAP1 JUMP JUMPDEST CALLER PUSH1 0x0 DUP1 PUSH1 0x1 SLOAD DUP2 MSTORE PUSH1 0x20 ADD SWAP1 DUP2 MSTORE PUSH1 0x20 ADD PUSH1 0x0 KECCAK256 PUSH1 0x0 PUSH2 0x100 EXP DUP2 SLOAD DUP2 PUSH20 0xFFFFFFFFFFFFFFFFFFFFFFFFFFFFFFFFFFFFFFFF MUL NOT AND SWAP1 DUP4 PUSH20 0xFFFFFFFFFFFFFFFFFFFFFFFFFFFFFFFFFFFFFFFF AND MUL OR SWAP1 SSTORE POP PUSH1 0x1 PUSH1 0x0 DUP2 SLOAD DUP1 SWAP3 SWAP2 SWAP1 PUSH2 0x42C SWAP1 PUSH2 0x6DF JUMP JUMPDEST SWAP2 SWAP1 POP SSTORE POP ADDRESS PUSH20 0xFFFFFFFFFFFFFFFFFFFFFFFFFFFFFFFFFFFFFFFF AND PUSH2 0x8FC CALLVALUE SWAP1 DUP2 ISZERO MUL SWAP1 PUSH1 0x40 MLOAD PUSH1 0x0 PUSH1 0x40 MLOAD DUP1 DUP4 SUB DUP2 DUP6 DUP9 DUP9 CALL SWAP4 POP POP POP POP ISZERO DUP1 ISZERO PUSH2 0x477 JUMPI RETURNDATASIZE PUSH1 0x0 DUP1 RETURNDATACOPY RETURNDATASIZE PUSH1 0x0 REVERT JUMPDEST POP JUMP JUMPDEST PUSH1 0x0 PUSH2 0x486 DUP4 DUP4 PUSH2 0x492 JUMP JUMPDEST PUSH1 0x20 DUP4 ADD SWAP1 POP SWAP3 SWAP2 POP POP JUMP JUMPDEST PUSH2 0x49B DUP2 PUSH2 0x63E JUMP JUMPDEST DUP3 MSTORE POP POP JUMP JUMPDEST PUSH1 0x0 PUSH2 0x4AC DUP3 PUSH2 0x5F9 JUMP JUMPDEST PUSH2 0x4B6 DUP2 DUP6 PUSH2 0x61C JUMP JUMPDEST SWAP4 POP PUSH2 0x4C1 DUP4 PUSH2 0x5E9 JUMP JUMPDEST DUP1 PUSH1 0x0 JUMPDEST DUP4 DUP2 LT ISZERO PUSH2 0x4F2 JUMPI DUP2 MLOAD PUSH2 0x4D9 DUP9 DUP3 PUSH2 0x47A JUMP JUMPDEST SWAP8 POP PUSH2 0x4E4 DUP4 PUSH2 0x60F JUMP JUMPDEST SWAP3 POP POP PUSH1 0x1 DUP2 ADD SWAP1 POP PUSH2 0x4C5 JUMP JUMPDEST POP DUP6 SWAP4 POP POP POP POP SWAP3 SWAP2 POP POP JUMP JUMPDEST PUSH1 0x0 PUSH2 0x50A DUP3 PUSH2 0x604 JUMP JUMPDEST PUSH2 0x514 DUP2 DUP6 PUSH2 0x62D JUMP JUMPDEST SWAP4 POP PUSH2 0x524 DUP2 DUP6 PUSH1 0x20 DUP7 ADD PUSH2 0x67A JUMP JUMPDEST PUSH2 0x52D DUP2 PUSH2 0x7E4 JUMP JUMPDEST DUP5 ADD SWAP2 POP POP SWAP3 SWAP2 POP POP JUMP JUMPDEST PUSH1 0x0 PUSH2 0x545 PUSH1 0x26 DUP4 PUSH2 0x62D JUMP JUMPDEST SWAP2 POP PUSH2 0x550 DUP3 PUSH2 0x7F5 JUMP JUMPDEST PUSH1 0x40 DUP3 ADD SWAP1 POP SWAP2 SWAP1 POP JUMP JUMPDEST PUSH2 0x564 DUP2 PUSH2 0x670 JUMP JUMPDEST DUP3 MSTORE POP POP JUMP JUMPDEST PUSH1 0x0 PUSH1 0x20 DUP3 ADD SWAP1 POP DUP2 DUP2 SUB PUSH1 0x0 DUP4 ADD MSTORE PUSH2 0x584 DUP2 DUP5 PUSH2 0x4A1 JUMP JUMPDEST SWAP1 POP SWAP3 SWAP2 POP POP JUMP JUMPDEST PUSH1 0x0 PUSH1 0x20 DUP3 ADD SWAP1 POP DUP2 DUP2 SUB PUSH1 0x0 DUP4 ADD MSTORE PUSH2 0x5A6 DUP2 DUP5 PUSH2 0x4FF JUMP JUMPDEST SWAP1 POP SWAP3 SWAP2 POP POP JUMP JUMPDEST PUSH1 0x0 PUSH1 0x20 DUP3 ADD SWAP1 POP DUP2 DUP2 SUB PUSH1 0x0 DUP4 ADD MSTORE PUSH2 0x5C7 DUP2 PUSH2 0x538 JUMP JUMPDEST SWAP1 POP SWAP2 SWAP1 POP JUMP JUMPDEST PUSH1 0x0 PUSH1 0x20 DUP3 ADD SWAP1 POP PUSH2 0x5E3 PUSH1 0x0 DUP4 ADD DUP5 PUSH2 0x55B JUMP JUMPDEST SWAP3 SWAP2 POP POP JUMP JUMPDEST PUSH1 0x0 DUP2 SWAP1 POP PUSH1 0x20 DUP3 ADD SWAP1 POP SWAP2 SWAP1 POP JUMP JUMPDEST PUSH1 0x0 DUP2 MLOAD SWAP1 POP SWAP2 SWAP1 POP JUMP JUMPDEST PUSH1 0x0 DUP2 MLOAD SWAP1 POP SWAP2 SWAP1 POP JUMP JUMPDEST PUSH1 0x0 PUSH1 0x20 DUP3 ADD SWAP1 POP SWAP2 SWAP1 POP JUMP JUMPDEST PUSH1 0x0 DUP3 DUP3 MSTORE PUSH1 0x20 DUP3 ADD SWAP1 POP SWAP3 SWAP2 POP POP JUMP JUMPDEST PUSH1 0x0 DUP3 DUP3 MSTORE PUSH1 0x20 DUP3 ADD SWAP1 POP SWAP3 SWAP2 POP POP JUMP JUMPDEST PUSH1 0x0 PUSH2 0x649 DUP3 PUSH2 0x650 JUMP JUMPDEST SWAP1 POP SWAP2 SWAP1 POP JUMP JUMPDEST PUSH1 0x0 PUSH20 0xFFFFFFFFFFFFFFFFFFFFFFFFFFFFFFFFFFFFFFFF DUP3 AND SWAP1 POP SWAP2 SWAP1 POP JUMP JUMPDEST PUSH1 0x0 DUP2 SWAP1 POP SWAP2 SWAP1 POP JUMP JUMPDEST PUSH1 0x0 JUMPDEST DUP4 DUP2 LT ISZERO PUSH2 0x698 JUMPI DUP1 DUP3 ADD MLOAD DUP2 DUP5 ADD MSTORE PUSH1 0x20 DUP2 ADD SWAP1 POP PUSH2 0x67D JUMP JUMPDEST DUP4 DUP2 GT ISZERO PUSH2 0x6A7 JUMPI PUSH1 0x0 DUP5 DUP5 ADD MSTORE JUMPDEST POP POP POP POP JUMP JUMPDEST PUSH1 0x0 PUSH1 0x2 DUP3 DIV SWAP1 POP PUSH1 0x1 DUP3 AND DUP1 PUSH2 0x6C5 JUMPI PUSH1 0x7F DUP3 AND SWAP2 POP JUMPDEST PUSH1 0x20 DUP3 LT DUP2 EQ ISZERO PUSH2 0x6D9 JUMPI PUSH2 0x6D8 PUSH2 0x757 JUMP JUMPDEST JUMPDEST POP SWAP2 SWAP1 POP JUMP JUMPDEST PUSH1 0x0 PUSH2 0x6EA DUP3 PUSH2 0x670 JUMP JUMPDEST SWAP2 POP PUSH32 0xFFFFFFFFFFFFFFFFFFFFFFFFFFFFFFFFFFFFFFFFFFFFFFFFFFFFFFFFFFFFFFFF DUP3 EQ ISZERO PUSH2 0x71D JUMPI PUSH2 0x71C PUSH2 0x728 JUMP JUMPDEST JUMPDEST PUSH1 0x1 DUP3 ADD SWAP1 POP SWAP2 SWAP1 POP JUMP JUMPDEST PUSH32 0x4E487B7100000000000000000000000000000000000000000000000000000000 PUSH1 0x0 MSTORE PUSH1 0x11 PUSH1 0x4 MSTORE PUSH1 0x24 PUSH1 0x0 REVERT JUMPDEST PUSH32 0x4E487B7100000000000000000000000000000000000000000000000000000000 PUSH1 0x0 MSTORE PUSH1 0x22 PUSH1 0x4 MSTORE PUSH1 0x24 PUSH1 0x0 REVERT JUMPDEST PUSH32 0x4E487B7100000000000000000000000000000000000000000000000000000000 PUSH1 0x0 MSTORE PUSH1 0x32 PUSH1 0x4 MSTORE PUSH1 0x24 PUSH1 0x0 REVERT JUMPDEST PUSH32 0x4E487B7100000000000000000000000000000000000000000000000000000000 PUSH1 0x0 MSTORE PUSH1 0x41 PUSH1 0x4 MSTORE PUSH1 0x24 PUSH1 0x0 REVERT JUMPDEST PUSH1 0x0 PUSH1 0x1F NOT PUSH1 0x1F DUP4 ADD AND SWAP1 POP SWAP2 SWAP1 POP JUMP JUMPDEST PUSH32 0x5061796D656E742073686F756C64206265207468652073756273637269707469 PUSH1 0x0 DUP3 ADD MSTORE PUSH32 0x6F6E206665650000000000000000000000000000000000000000000000000000 PUSH1 0x20 DUP3 ADD MSTORE POP JUMP INVALID LOG2 PUSH5 0x6970667358 0x22 SLT KECCAK256 0xB5 PUSH4 0x4897E9DE CALL 0xD4 LT PUSH22 0x5C96811224DF7810B954B6258CAA5B299BCE5F374A65 PUSH5 0x736F6C6343 STOP ADDMOD SMOD STOP CALLER "
				},
				"gasEstimates": {
					"creation": {
						"codeDepositCost": "434000",
						"executionCost": "infinite",
						"totalCost": "infinite"
					},
					"external": {
						"": "2611",
						"addSubscriber()": "infinite",
						"channelName()": "infinite",
						"printSubscribersList()": "infinite",
						"subscriptionFee()": "2407",
						"withdrawAmount()": "infinite"
					}
				},
				"methodIdentifiers": {
					"addSubscriber()": "be291999",
					"channelName()": "2443877c",
					"printSubscribersList()": "82d69b62",
					"subscriptionFee()": "0aa0a175",
					"withdrawAmount()": "534844a2"
				}
			},
			"storageLayout": {
				"storage": [
					{
						"astId": 5,
						"contract": "contracts/myContract.sol:testContract",
						"label": "subscribers",
						"offset": 0,
						"slot": "0",
						"type": "t_mapping(t_uint256,t_address)"
					},
					{
						"astId": 8,
						"contract": "contracts/myContract.sol:testContract",
						"label": "subscriberCount",
						"offset": 0,
						"slot": "1",
						"type": "t_uint256"
					},
					{
						"astId": 10,
						"contract": "contracts/myContract.sol:testContract",
						"label": "author",
						"offset": 0,
						"slot": "2",
						"type": "t_address_payable"
					},
					{
						"astId": 12,
						"contract": "contracts/myContract.sol:testContract",
						"label": "subscriptionFee",
						"offset": 0,
						"slot": "3",
						"type": "t_uint256"
					},
					{
						"astId": 14,
						"contract": "contracts/myContract.sol:testContract",
						"label": "channelName",
						"offset": 0,
						"slot": "4",
						"type": "t_string_storage"
					}
				],
				"types": {
					"t_address": {
						"encoding": "inplace",
						"label": "address",
						"numberOfBytes": "20"
					},
					"t_address_payable": {
						"encoding": "inplace",
						"label": "address payable",
						"numberOfBytes": "20"
					},
					"t_mapping(t_uint256,t_address)": {
						"encoding": "mapping",
						"key": "t_uint256",
						"label": "mapping(uint256 => address)",
						"numberOfBytes": "32",
						"value": "t_address"
					},
					"t_string_storage": {
						"encoding": "bytes",
						"label": "string",
						"numberOfBytes": "32"
					},
					"t_uint256": {
						"encoding": "inplace",
						"label": "uint256",
						"numberOfBytes": "32"
					}
				}
			},
			"userdoc": {
				"kind": "user",
				"methods": {},
				"version": 1
			}
		}
	}
}