{
	"contracts/myContract.sol": {
		"testContract": {
			"abi": [
				{
					"inputs": [
						{
							"internalType": "uint256",
							"name": "fee",
							"type": "uint256"
						}
					],
					"stateMutability": "nonpayable",
					"type": "constructor"
				},
				{
					"anonymous": false,
					"inputs": [
						{
							"indexed": false,
							"internalType": "address",
							"name": "addr",
							"type": "address"
						},
						{
							"indexed": false,
							"internalType": "uint256",
							"name": "amount",
							"type": "uint256"
						}
					],
					"name": "Received",
					"type": "event"
				},
				{
					"anonymous": false,
					"inputs": [
						{
							"indexed": false,
							"internalType": "string",
							"name": "name",
							"type": "string"
						},
						{
							"indexed": false,
							"internalType": "address",
							"name": "addr",
							"type": "address"
						}
					],
					"name": "SubscriberPrint",
					"type": "event"
				},
				{
					"stateMutability": "payable",
					"type": "fallback"
				},
				{
					"inputs": [
						{
							"internalType": "string",
							"name": "userName",
							"type": "string"
						}
					],
					"name": "addSubscriber",
					"outputs": [],
					"stateMutability": "payable",
					"type": "function"
				},
				{
					"inputs": [],
					"name": "author",
					"outputs": [
						{
							"internalType": "address payable",
							"name": "",
							"type": "address"
						}
					],
					"stateMutability": "view",
					"type": "function"
				},
				{
					"inputs": [],
					"name": "getAuthorBalance",
					"outputs": [
						{
							"internalType": "uint256",
							"name": "",
							"type": "uint256"
						}
					],
					"stateMutability": "view",
					"type": "function"
				},
				{
					"inputs": [],
					"name": "getContractBalance",
					"outputs": [
						{
							"internalType": "uint256",
							"name": "",
							"type": "uint256"
						}
					],
					"stateMutability": "view",
					"type": "function"
				},
				{
					"inputs": [],
					"name": "getSubscriberCount",
					"outputs": [
						{
							"internalType": "uint256",
							"name": "",
							"type": "uint256"
						}
					],
					"stateMutability": "view",
					"type": "function"
				},
				{
					"inputs": [],
					"name": "printSubscribersList",
					"outputs": [],
					"stateMutability": "nonpayable",
					"type": "function"
				},
				{
					"inputs": [],
					"name": "subscriberCount",
					"outputs": [
						{
							"internalType": "uint256",
							"name": "",
							"type": "uint256"
						}
					],
					"stateMutability": "view",
					"type": "function"
				},
				{
					"inputs": [
						{
							"internalType": "uint256",
							"name": "",
							"type": "uint256"
						}
					],
					"name": "subscribers",
					"outputs": [
						{
							"internalType": "string",
							"name": "name",
							"type": "string"
						},
						{
							"internalType": "address",
							"name": "addr",
							"type": "address"
						}
					],
					"stateMutability": "view",
					"type": "function"
				},
				{
					"inputs": [],
					"name": "subscriptionFee",
					"outputs": [
						{
							"internalType": "uint256",
							"name": "",
							"type": "uint256"
						}
					],
					"stateMutability": "view",
					"type": "function"
				},
				{
					"inputs": [],
					"name": "withdrawAmount",
					"outputs": [],
					"stateMutability": "payable",
					"type": "function"
				},
				{
					"stateMutability": "payable",
					"type": "receive"
				}
			],
			"devdoc": {
				"kind": "dev",
				"methods": {},
				"version": 1
			},
			"evm": {
				"assembly": "    /* \"contracts/myContract.sol\":76:1948  contract testContract {\r... */\n  mstore(0x40, 0x80)\n    /* \"contracts/myContract.sol\":194:195  0 */\n  0x00\n    /* \"contracts/myContract.sol\":164:195  uint public subscriberCount = 0 */\n  0x01\n  sstore\n    /* \"contracts/myContract.sol\":460:567  constructor(uint fee){\r... */\n  callvalue\n  dup1\n  iszero\n  tag_1\n  jumpi\n  0x00\n  dup1\n  revert\ntag_1:\n  pop\n  mload(0x40)\n  sub(codesize, bytecodeSize)\n  dup1\n  bytecodeSize\n  dup4\n  codecopy\n  dup2\n  dup2\n  add\n  0x40\n  mstore\n  dup2\n  add\n  swap1\n  tag_2\n  swap2\n  swap1\n  tag_3\n  jump\t// in\ntag_2:\n    /* \"contracts/myContract.sol\":509:519  msg.sender */\n  caller\n    /* \"contracts/myContract.sol\":492:498  author */\n  0x02\n  0x00\n    /* \"contracts/myContract.sol\":492:520  author = payable(msg.sender) */\n  0x0100\n  exp\n  dup2\n  sload\n  dup2\n  0xffffffffffffffffffffffffffffffffffffffff\n  mul\n  not\n  and\n  swap1\n  dup4\n  0xffffffffffffffffffffffffffffffffffffffff\n  and\n  mul\n  or\n  swap1\n  sstore\n  pop\n    /* \"contracts/myContract.sol\":555:559  1e18 */\n  0x0de0b6b3a7640000\n    /* \"contracts/myContract.sol\":549:552  fee */\n  dup2\n    /* \"contracts/myContract.sol\":549:559  fee * 1e18 */\n  tag_6\n  swap2\n  swap1\n  tag_7\n  jump\t// in\ntag_6:\n    /* \"contracts/myContract.sol\":531:546  subscriptionFee */\n  0x03\n    /* \"contracts/myContract.sol\":531:559  subscriptionFee = fee * 1e18 */\n  dup2\n  swap1\n  sstore\n  pop\n    /* \"contracts/myContract.sol\":460:567  constructor(uint fee){\r... */\n  pop\n    /* \"contracts/myContract.sol\":76:1948  contract testContract {\r... */\n  jump(tag_8)\n    /* \"#utility.yul\":7:150   */\ntag_10:\n    /* \"#utility.yul\":64:69   */\n  0x00\n    /* \"#utility.yul\":95:101   */\n  dup2\n    /* \"#utility.yul\":89:102   */\n  mload\n    /* \"#utility.yul\":80:102   */\n  swap1\n  pop\n    /* \"#utility.yul\":111:144   */\n  tag_12\n    /* \"#utility.yul\":138:143   */\n  dup2\n    /* \"#utility.yul\":111:144   */\n  tag_13\n  jump\t// in\ntag_12:\n    /* \"#utility.yul\":7:150   */\n  swap3\n  swap2\n  pop\n  pop\n  jump\t// out\n    /* \"#utility.yul\":156:507   */\ntag_3:\n    /* \"#utility.yul\":226:232   */\n  0x00\n    /* \"#utility.yul\":275:277   */\n  0x20\n    /* \"#utility.yul\":263:272   */\n  dup3\n    /* \"#utility.yul\":254:261   */\n  dup5\n    /* \"#utility.yul\":250:273   */\n  sub\n    /* \"#utility.yul\":246:278   */\n  slt\n    /* \"#utility.yul\":243:362   */\n  iszero\n  tag_15\n  jumpi\n    /* \"#utility.yul\":281:360   */\n  tag_16\n  tag_17\n  jump\t// in\ntag_16:\n    /* \"#utility.yul\":243:362   */\ntag_15:\n    /* \"#utility.yul\":401:402   */\n  0x00\n    /* \"#utility.yul\":426:490   */\n  tag_18\n    /* \"#utility.yul\":482:489   */\n  dup5\n    /* \"#utility.yul\":473:479   */\n  dup3\n    /* \"#utility.yul\":462:471   */\n  dup6\n    /* \"#utility.yul\":458:480   */\n  add\n    /* \"#utility.yul\":426:490   */\n  tag_10\n  jump\t// in\ntag_18:\n    /* \"#utility.yul\":416:490   */\n  swap2\n  pop\n    /* \"#utility.yul\":372:500   */\n  pop\n    /* \"#utility.yul\":156:507   */\n  swap3\n  swap2\n  pop\n  pop\n  jump\t// out\n    /* \"#utility.yul\":594:942   */\ntag_7:\n    /* \"#utility.yul\":634:641   */\n  0x00\n    /* \"#utility.yul\":657:677   */\n  tag_22\n    /* \"#utility.yul\":675:676   */\n  dup3\n    /* \"#utility.yul\":657:677   */\n  tag_23\n  jump\t// in\ntag_22:\n    /* \"#utility.yul\":652:677   */\n  swap2\n  pop\n    /* \"#utility.yul\":691:711   */\n  tag_24\n    /* \"#utility.yul\":709:710   */\n  dup4\n    /* \"#utility.yul\":691:711   */\n  tag_23\n  jump\t// in\ntag_24:\n    /* \"#utility.yul\":686:711   */\n  swap3\n  pop\n    /* \"#utility.yul\":879:880   */\n  dup2\n    /* \"#utility.yul\":811:877   */\n  0xffffffffffffffffffffffffffffffffffffffffffffffffffffffffffffffff\n    /* \"#utility.yul\":807:881   */\n  div\n    /* \"#utility.yul\":804:805   */\n  dup4\n    /* \"#utility.yul\":801:882   */\n  gt\n    /* \"#utility.yul\":796:797   */\n  dup3\n    /* \"#utility.yul\":789:798   */\n  iszero\n    /* \"#utility.yul\":782:799   */\n  iszero\n    /* \"#utility.yul\":778:883   */\n  and\n    /* \"#utility.yul\":775:906   */\n  iszero\n  tag_25\n  jumpi\n    /* \"#utility.yul\":886:904   */\n  tag_26\n  tag_27\n  jump\t// in\ntag_26:\n    /* \"#utility.yul\":775:906   */\ntag_25:\n    /* \"#utility.yul\":934:935   */\n  dup3\n    /* \"#utility.yul\":931:932   */\n  dup3\n    /* \"#utility.yul\":927:936   */\n  mul\n    /* \"#utility.yul\":916:936   */\n  swap1\n  pop\n    /* \"#utility.yul\":594:942   */\n  swap3\n  swap2\n  pop\n  pop\n  jump\t// out\n    /* \"#utility.yul\":948:1025   */\ntag_23:\n    /* \"#utility.yul\":985:992   */\n  0x00\n    /* \"#utility.yul\":1014:1019   */\n  dup2\n    /* \"#utility.yul\":1003:1019   */\n  swap1\n  pop\n    /* \"#utility.yul\":948:1025   */\n  swap2\n  swap1\n  pop\n  jump\t// out\n    /* \"#utility.yul\":1031:1211   */\ntag_27:\n    /* \"#utility.yul\":1079:1156   */\n  0x4e487b7100000000000000000000000000000000000000000000000000000000\n    /* \"#utility.yul\":1076:1077   */\n  0x00\n    /* \"#utility.yul\":1069:1157   */\n  mstore\n    /* \"#utility.yul\":1176:1180   */\n  0x11\n    /* \"#utility.yul\":1173:1174   */\n  0x04\n    /* \"#utility.yul\":1166:1181   */\n  mstore\n    /* \"#utility.yul\":1200:1204   */\n  0x24\n    /* \"#utility.yul\":1197:1198   */\n  0x00\n    /* \"#utility.yul\":1190:1205   */\n  revert\n    /* \"#utility.yul\":1340:1457   */\ntag_17:\n    /* \"#utility.yul\":1449:1450   */\n  0x00\n    /* \"#utility.yul\":1446:1447   */\n  dup1\n    /* \"#utility.yul\":1439:1451   */\n  revert\n    /* \"#utility.yul\":1463:1585   */\ntag_13:\n    /* \"#utility.yul\":1536:1560   */\n  tag_34\n    /* \"#utility.yul\":1554:1559   */\n  dup2\n    /* \"#utility.yul\":1536:1560   */\n  tag_23\n  jump\t// in\ntag_34:\n    /* \"#utility.yul\":1529:1534   */\n  dup2\n    /* \"#utility.yul\":1526:1561   */\n  eq\n    /* \"#utility.yul\":1516:1579   */\n  tag_35\n  jumpi\n    /* \"#utility.yul\":1575:1576   */\n  0x00\n    /* \"#utility.yul\":1572:1573   */\n  dup1\n    /* \"#utility.yul\":1565:1577   */\n  revert\n    /* \"#utility.yul\":1516:1579   */\ntag_35:\n    /* \"#utility.yul\":1463:1585   */\n  pop\n  jump\t// out\n    /* \"contracts/myContract.sol\":76:1948  contract testContract {\r... */\ntag_8:\n  dataSize(sub_0)\n  dup1\n  dataOffset(sub_0)\n  0x00\n  codecopy\n  0x00\n  return\nstop\n\nsub_0: assembly {\n        /* \"contracts/myContract.sol\":76:1948  contract testContract {\r... */\n      mstore(0x40, 0x80)\n      jumpi(tag_1, lt(calldatasize, 0x04))\n      shr(0xe0, calldataload(0x00))\n      dup1\n      0x6f9fb98a\n      gt\n      tag_13\n      jumpi\n      dup1\n      0x6f9fb98a\n      eq\n      tag_8\n      jumpi\n      dup1\n      0x7f6b2809\n      eq\n      tag_9\n      jumpi\n      dup1\n      0x82d69b62\n      eq\n      tag_10\n      jumpi\n      dup1\n      0xa6c3e6b9\n      eq\n      tag_11\n      jumpi\n      dup1\n      0xef352bbe\n      eq\n      tag_12\n      jumpi\n      jump(tag_2)\n    tag_13:\n      dup1\n      0x0aa0a175\n      eq\n      tag_3\n      jumpi\n      dup1\n      0x17e703ab\n      eq\n      tag_4\n      jumpi\n      dup1\n      0x2edd4fa5\n      eq\n      tag_5\n      jumpi\n      dup1\n      0x534844a2\n      eq\n      tag_6\n      jumpi\n      dup1\n      0x59221a68\n      eq\n      tag_7\n      jumpi\n      jump(tag_2)\n    tag_1:\n      jumpi(tag_2, calldatasize)\n        /* \"contracts/myContract.sol\":886:901  subscriptionFee */\n      sload(0x03)\n        /* \"contracts/myContract.sol\":872:881  msg.value */\n      callvalue\n        /* \"contracts/myContract.sol\":872:901  msg.value ==  subscriptionFee */\n      eq\n        /* \"contracts/myContract.sol\":863:949  require( msg.value ==  subscriptionFee , \"Payment should be the subscription fee\"    ) */\n      tag_16\n      jumpi\n      mload(0x40)\n      0x08c379a000000000000000000000000000000000000000000000000000000000\n      dup2\n      mstore\n      0x04\n      add\n      tag_17\n      swap1\n      tag_18\n      jump\t// in\n    tag_17:\n      mload(0x40)\n      dup1\n      swap2\n      sub\n      swap1\n      revert\n    tag_16:\n        /* \"contracts/myContract.sol\":76:1948  contract testContract {\r... */\n      stop\n    tag_2:\n        /* \"contracts/myContract.sol\":747:762  subscriptionFee */\n      sload(0x03)\n        /* \"contracts/myContract.sol\":733:742  msg.value */\n      callvalue\n        /* \"contracts/myContract.sol\":733:762  msg.value ==  subscriptionFee */\n      eq\n        /* \"contracts/myContract.sol\":724:810  require( msg.value ==  subscriptionFee , \"Payment should be the subscription fee\"    ) */\n      tag_21\n      jumpi\n      mload(0x40)\n      0x08c379a000000000000000000000000000000000000000000000000000000000\n      dup2\n      mstore\n      0x04\n      add\n      tag_22\n      swap1\n      tag_18\n      jump\t// in\n    tag_22:\n      mload(0x40)\n      dup1\n      swap2\n      sub\n      swap1\n      revert\n    tag_21:\n        /* \"contracts/myContract.sol\":76:1948  contract testContract {\r... */\n      stop\n        /* \"contracts/myContract.sol\":319:346  uint public subscriptionFee */\n    tag_3:\n      callvalue\n      dup1\n      iszero\n      tag_23\n      jumpi\n      0x00\n      dup1\n      revert\n    tag_23:\n      pop\n      tag_24\n      tag_25\n      jump\t// in\n    tag_24:\n      mload(0x40)\n      tag_26\n      swap2\n      swap1\n      tag_27\n      jump\t// in\n    tag_26:\n      mload(0x40)\n      dup1\n      swap2\n      sub\n      swap1\n      return\n        /* \"contracts/myContract.sol\":1603:1703  function getSubscriberCount() public view returns(uint256) {\r... */\n    tag_4:\n      callvalue\n      dup1\n      iszero\n      tag_28\n      jumpi\n      0x00\n      dup1\n      revert\n    tag_28:\n      pop\n      tag_29\n      tag_30\n      jump\t// in\n    tag_29:\n      mload(0x40)\n      tag_31\n      swap2\n      swap1\n      tag_27\n      jump\t// in\n    tag_31:\n      mload(0x40)\n      dup1\n      swap2\n      sub\n      swap1\n      return\n        /* \"contracts/myContract.sol\":1116:1392  function addSubscriber(string memory userName) public payable{\r... */\n    tag_5:\n      tag_32\n      0x04\n      dup1\n      calldatasize\n      sub\n      dup2\n      add\n      swap1\n      tag_33\n      swap2\n      swap1\n      tag_34\n      jump\t// in\n    tag_33:\n      tag_35\n      jump\t// in\n    tag_32:\n      stop\n        /* \"contracts/myContract.sol\":1401:1595  function withdrawAmount() payable public{\r... */\n    tag_6:\n      tag_36\n      tag_37\n      jump\t// in\n    tag_36:\n      stop\n        /* \"contracts/myContract.sol\":111:157  mapping(uint => subscriber) public subscribers */\n    tag_7:\n      callvalue\n      dup1\n      iszero\n      tag_38\n      jumpi\n      0x00\n      dup1\n      revert\n    tag_38:\n      pop\n      tag_39\n      0x04\n      dup1\n      calldatasize\n      sub\n      dup2\n      add\n      swap1\n      tag_40\n      swap2\n      swap1\n      tag_41\n      jump\t// in\n    tag_40:\n      tag_42\n      jump\t// in\n    tag_39:\n      mload(0x40)\n      tag_43\n      swap3\n      swap2\n      swap1\n      tag_44\n      jump\t// in\n    tag_43:\n      mload(0x40)\n      dup1\n      swap2\n      sub\n      swap1\n      return\n        /* \"contracts/myContract.sol\":575:678  function getContractBalance() public view returns (uint){\r... */\n    tag_8:\n      callvalue\n      dup1\n      iszero\n      tag_45\n      jumpi\n      0x00\n      dup1\n      revert\n    tag_45:\n      pop\n      tag_46\n      tag_47\n      jump\t// in\n    tag_46:\n      mload(0x40)\n      tag_48\n      swap2\n      swap1\n      tag_27\n      jump\t// in\n    tag_48:\n      mload(0x40)\n      dup1\n      swap2\n      sub\n      swap1\n      return\n        /* \"contracts/myContract.sol\":1015:1108  function getAuthorBalance() public view returns(uint){\r... */\n    tag_9:\n      callvalue\n      dup1\n      iszero\n      tag_49\n      jumpi\n      0x00\n      dup1\n      revert\n    tag_49:\n      pop\n      tag_50\n      tag_51\n      jump\t// in\n    tag_50:\n      mload(0x40)\n      tag_52\n      swap2\n      swap1\n      tag_27\n      jump\t// in\n    tag_52:\n      mload(0x40)\n      dup1\n      swap2\n      sub\n      swap1\n      return\n        /* \"contracts/myContract.sol\":1711:1943  function printSubscribersList() public {\r... */\n    tag_10:\n      callvalue\n      dup1\n      iszero\n      tag_53\n      jumpi\n      0x00\n      dup1\n      revert\n    tag_53:\n      pop\n      tag_54\n      tag_55\n      jump\t// in\n    tag_54:\n      stop\n        /* \"contracts/myContract.sol\":283:312  address payable public author */\n    tag_11:\n      callvalue\n      dup1\n      iszero\n      tag_56\n      jumpi\n      0x00\n      dup1\n      revert\n    tag_56:\n      pop\n      tag_57\n      tag_58\n      jump\t// in\n    tag_57:\n      mload(0x40)\n      tag_59\n      swap2\n      swap1\n      tag_60\n      jump\t// in\n    tag_59:\n      mload(0x40)\n      dup1\n      swap2\n      sub\n      swap1\n      return\n        /* \"contracts/myContract.sol\":164:195  uint public subscriberCount = 0 */\n    tag_12:\n      callvalue\n      dup1\n      iszero\n      tag_61\n      jumpi\n      0x00\n      dup1\n      revert\n    tag_61:\n      pop\n      tag_62\n      tag_63\n      jump\t// in\n    tag_62:\n      mload(0x40)\n      tag_64\n      swap2\n      swap1\n      tag_27\n      jump\t// in\n    tag_64:\n      mload(0x40)\n      dup1\n      swap2\n      sub\n      swap1\n      return\n        /* \"contracts/myContract.sol\":319:346  uint public subscriptionFee */\n    tag_25:\n      sload(0x03)\n      dup2\n      jump\t// out\n        /* \"contracts/myContract.sol\":1603:1703  function getSubscriberCount() public view returns(uint256) {\r... */\n    tag_30:\n        /* \"contracts/myContract.sol\":1653:1660  uint256 */\n      0x00\n        /* \"contracts/myContract.sol\":1680:1695  subscriberCount */\n      sload(0x01)\n        /* \"contracts/myContract.sol\":1673:1695  return subscriberCount */\n      swap1\n      pop\n        /* \"contracts/myContract.sol\":1603:1703  function getSubscriberCount() public view returns(uint256) {\r... */\n      swap1\n      jump\t// out\n        /* \"contracts/myContract.sol\":1116:1392  function addSubscriber(string memory userName) public payable{\r... */\n    tag_35:\n        /* \"contracts/myContract.sol\":1219:1250  subscriber(userName,msg.sender) */\n      mload(0x40)\n      dup1\n      0x40\n      add\n      0x40\n      mstore\n      dup1\n        /* \"contracts/myContract.sol\":1230:1238  userName */\n      dup3\n        /* \"contracts/myContract.sol\":1219:1250  subscriber(userName,msg.sender) */\n      dup2\n      mstore\n      0x20\n      add\n        /* \"contracts/myContract.sol\":1239:1249  msg.sender */\n      caller\n        /* \"contracts/myContract.sol\":1219:1250  subscriber(userName,msg.sender) */\n      0xffffffffffffffffffffffffffffffffffffffff\n      and\n      dup2\n      mstore\n      pop\n        /* \"contracts/myContract.sol\":1188:1199  subscribers */\n      0x00\n        /* \"contracts/myContract.sol\":1188:1216  subscribers[subscriberCount] */\n      dup1\n        /* \"contracts/myContract.sol\":1200:1215  subscriberCount */\n      sload(0x01)\n        /* \"contracts/myContract.sol\":1188:1216  subscribers[subscriberCount] */\n      dup2\n      mstore\n      0x20\n      add\n      swap1\n      dup2\n      mstore\n      0x20\n      add\n      0x00\n      keccak256\n        /* \"contracts/myContract.sol\":1188:1250  subscribers[subscriberCount] = subscriber(userName,msg.sender) */\n      0x00\n      dup3\n      add\n      mload\n      dup2\n      0x00\n      add\n      swap1\n      dup1\n      mload\n      swap1\n      0x20\n      add\n      swap1\n      tag_67\n      swap3\n      swap2\n      swap1\n      tag_68\n      jump\t// in\n    tag_67:\n      pop\n      0x20\n      dup3\n      add\n      mload\n      dup2\n      0x01\n      add\n      exp(0x0100, 0x00)\n      dup2\n      sload\n      dup2\n      0xffffffffffffffffffffffffffffffffffffffff\n      mul\n      not\n      and\n      swap1\n      dup4\n      0xffffffffffffffffffffffffffffffffffffffff\n      and\n      mul\n      or\n      swap1\n      sstore\n      pop\n      swap1\n      pop\n      pop\n        /* \"contracts/myContract.sol\":1261:1276  subscriberCount */\n      0x01\n      0x00\n        /* \"contracts/myContract.sol\":1261:1278  subscriberCount++ */\n      dup2\n      sload\n      dup1\n      swap3\n      swap2\n      swap1\n      tag_69\n      swap1\n      tag_70\n      jump\t// in\n    tag_69:\n      swap2\n      swap1\n      pop\n      sstore\n      pop\n        /* \"contracts/myContract.sol\":1305:1309  this */\n      address\n        /* \"contracts/myContract.sol\":1289:1320  payable(address(this)).transfer */\n      0xffffffffffffffffffffffffffffffffffffffff\n      and\n        /* \"contracts/myContract.sol\":1289:1337  payable(address(this)).transfer(subscriptionFee) */\n      0x08fc\n        /* \"contracts/myContract.sol\":1321:1336  subscriptionFee */\n      sload(0x03)\n        /* \"contracts/myContract.sol\":1289:1337  payable(address(this)).transfer(subscriptionFee) */\n      swap1\n      dup2\n      iszero\n      mul\n      swap1\n      mload(0x40)\n      0x00\n      mload(0x40)\n      dup1\n      dup4\n      sub\n      dup2\n      dup6\n      dup9\n      dup9\n      call\n      swap4\n      pop\n      pop\n      pop\n      pop\n      iszero\n      dup1\n      iszero\n      tag_72\n      jumpi\n      returndatasize\n      0x00\n      dup1\n      returndatacopy\n      revert(0x00, returndatasize)\n    tag_72:\n      pop\n        /* \"contracts/myContract.sol\":1353:1384  Received(msg.sender, msg.value) */\n      0x88a5966d370b9919b20f3e2c13ff65706f196a4e32cc2c12bf57088f88525874\n        /* \"contracts/myContract.sol\":1362:1372  msg.sender */\n      caller\n        /* \"contracts/myContract.sol\":1374:1383  msg.value */\n      callvalue\n        /* \"contracts/myContract.sol\":1353:1384  Received(msg.sender, msg.value) */\n      mload(0x40)\n      tag_73\n      swap3\n      swap2\n      swap1\n      tag_74\n      jump\t// in\n    tag_73:\n      mload(0x40)\n      dup1\n      swap2\n      sub\n      swap1\n      log1\n        /* \"contracts/myContract.sol\":1116:1392  function addSubscriber(string memory userName) public payable{\r... */\n      pop\n      jump\t// out\n        /* \"contracts/myContract.sol\":1401:1595  function withdrawAmount() payable public{\r... */\n    tag_37:\n        /* \"contracts/myContract.sol\":1488:1494  author */\n      0x02\n      0x00\n      swap1\n      sload\n      swap1\n      0x0100\n      exp\n      swap1\n      div\n      0xffffffffffffffffffffffffffffffffffffffff\n      and\n        /* \"contracts/myContract.sol\":1474:1494  msg.sender == author */\n      0xffffffffffffffffffffffffffffffffffffffff\n      and\n        /* \"contracts/myContract.sol\":1474:1484  msg.sender */\n      caller\n        /* \"contracts/myContract.sol\":1474:1494  msg.sender == author */\n      0xffffffffffffffffffffffffffffffffffffffff\n      and\n      eq\n        /* \"contracts/myContract.sol\":1452:1529  require(\r... */\n      tag_76\n      jumpi\n      mload(0x40)\n      0x08c379a000000000000000000000000000000000000000000000000000000000\n      dup2\n      mstore\n      0x04\n      add\n      tag_77\n      swap1\n      tag_78\n      jump\t// in\n    tag_77:\n      mload(0x40)\n      dup1\n      swap2\n      sub\n      swap1\n      revert\n    tag_76:\n        /* \"contracts/myContract.sol\":1548:1554  author */\n      0x02\n      0x00\n      swap1\n      sload\n      swap1\n      0x0100\n      exp\n      swap1\n      div\n      0xffffffffffffffffffffffffffffffffffffffff\n      and\n        /* \"contracts/myContract.sol\":1540:1564  payable(author).transfer */\n      0xffffffffffffffffffffffffffffffffffffffff\n      and\n        /* \"contracts/myContract.sol\":1540:1587  payable(author).transfer(address(this).balance) */\n      0x08fc\n        /* \"contracts/myContract.sol\":1565:1586  address(this).balance */\n      selfbalance\n        /* \"contracts/myContract.sol\":1540:1587  payable(author).transfer(address(this).balance) */\n      swap1\n      dup2\n      iszero\n      mul\n      swap1\n      mload(0x40)\n      0x00\n      mload(0x40)\n      dup1\n      dup4\n      sub\n      dup2\n      dup6\n      dup9\n      dup9\n      call\n      swap4\n      pop\n      pop\n      pop\n      pop\n      iszero\n      dup1\n      iszero\n      tag_80\n      jumpi\n      returndatasize\n      0x00\n      dup1\n      returndatacopy\n      revert(0x00, returndatasize)\n    tag_80:\n      pop\n        /* \"contracts/myContract.sol\":1401:1595  function withdrawAmount() payable public{\r... */\n      jump\t// out\n        /* \"contracts/myContract.sol\":111:157  mapping(uint => subscriber) public subscribers */\n    tag_42:\n      mstore(0x20, 0x00)\n      dup1\n      0x00\n      mstore\n      keccak256(0x00, 0x40)\n      0x00\n      swap2\n      pop\n      swap1\n      pop\n      dup1\n      0x00\n      add\n      dup1\n      sload\n      tag_81\n      swap1\n      tag_82\n      jump\t// in\n    tag_81:\n      dup1\n      0x1f\n      add\n      0x20\n      dup1\n      swap2\n      div\n      mul\n      0x20\n      add\n      mload(0x40)\n      swap1\n      dup2\n      add\n      0x40\n      mstore\n      dup1\n      swap3\n      swap2\n      swap1\n      dup2\n      dup2\n      mstore\n      0x20\n      add\n      dup3\n      dup1\n      sload\n      tag_83\n      swap1\n      tag_82\n      jump\t// in\n    tag_83:\n      dup1\n      iszero\n      tag_84\n      jumpi\n      dup1\n      0x1f\n      lt\n      tag_85\n      jumpi\n      0x0100\n      dup1\n      dup4\n      sload\n      div\n      mul\n      dup4\n      mstore\n      swap2\n      0x20\n      add\n      swap2\n      jump(tag_84)\n    tag_85:\n      dup3\n      add\n      swap2\n      swap1\n      0x00\n      mstore\n      keccak256(0x00, 0x20)\n      swap1\n    tag_86:\n      dup2\n      sload\n      dup2\n      mstore\n      swap1\n      0x01\n      add\n      swap1\n      0x20\n      add\n      dup1\n      dup4\n      gt\n      tag_86\n      jumpi\n      dup3\n      swap1\n      sub\n      0x1f\n      and\n      dup3\n      add\n      swap2\n    tag_84:\n      pop\n      pop\n      pop\n      pop\n      pop\n      swap1\n      dup1\n      0x01\n      add\n      0x00\n      swap1\n      sload\n      swap1\n      0x0100\n      exp\n      swap1\n      div\n      0xffffffffffffffffffffffffffffffffffffffff\n      and\n      swap1\n      pop\n      dup3\n      jump\t// out\n        /* \"contracts/myContract.sol\":575:678  function getContractBalance() public view returns (uint){\r... */\n    tag_47:\n        /* \"contracts/myContract.sol\":626:630  uint */\n      0x00\n        /* \"contracts/myContract.sol\":649:670  address(this).balance */\n      selfbalance\n        /* \"contracts/myContract.sol\":642:670  return address(this).balance */\n      swap1\n      pop\n        /* \"contracts/myContract.sol\":575:678  function getContractBalance() public view returns (uint){\r... */\n      swap1\n      jump\t// out\n        /* \"contracts/myContract.sol\":1015:1108  function getAuthorBalance() public view returns(uint){\r... */\n    tag_51:\n        /* \"contracts/myContract.sol\":1063:1067  uint */\n      0x00\n        /* \"contracts/myContract.sol\":1086:1092  author */\n      0x02\n      0x00\n      swap1\n      sload\n      swap1\n      0x0100\n      exp\n      swap1\n      div\n      0xffffffffffffffffffffffffffffffffffffffff\n      and\n        /* \"contracts/myContract.sol\":1086:1100  author.balance */\n      0xffffffffffffffffffffffffffffffffffffffff\n      and\n      balance\n        /* \"contracts/myContract.sol\":1079:1100  return author.balance */\n      swap1\n      pop\n        /* \"contracts/myContract.sol\":1015:1108  function getAuthorBalance() public view returns(uint){\r... */\n      swap1\n      jump\t// out\n        /* \"contracts/myContract.sol\":1711:1943  function printSubscribersList() public {\r... */\n    tag_55:\n        /* \"contracts/myContract.sol\":1761:1782  subscriber memory ret */\n      tag_90\n      tag_91\n      jump\t// in\n    tag_90:\n        /* \"contracts/myContract.sol\":1797:1803  uint i */\n      0x00\n        /* \"contracts/myContract.sol\":1793:1936  for(uint i = 0; i < subscriberCount; i++){\r... */\n    tag_92:\n        /* \"contracts/myContract.sol\":1813:1828  subscriberCount */\n      sload(0x01)\n        /* \"contracts/myContract.sol\":1809:1810  i */\n      dup2\n        /* \"contracts/myContract.sol\":1809:1828  i < subscriberCount */\n      lt\n        /* \"contracts/myContract.sol\":1793:1936  for(uint i = 0; i < subscriberCount; i++){\r... */\n      iszero\n      tag_93\n      jumpi\n        /* \"contracts/myContract.sol\":1855:1866  subscribers */\n      0x00\n        /* \"contracts/myContract.sol\":1855:1869  subscribers[i] */\n      dup1\n        /* \"contracts/myContract.sol\":1867:1868  i */\n      dup3\n        /* \"contracts/myContract.sol\":1855:1869  subscribers[i] */\n      dup2\n      mstore\n      0x20\n      add\n      swap1\n      dup2\n      mstore\n      0x20\n      add\n      0x00\n      keccak256\n        /* \"contracts/myContract.sol\":1849:1869  ret = subscribers[i] */\n      mload(0x40)\n      dup1\n      0x40\n      add\n      0x40\n      mstore\n      swap1\n      dup2\n      0x00\n      dup3\n      add\n      dup1\n      sload\n      tag_95\n      swap1\n      tag_82\n      jump\t// in\n    tag_95:\n      dup1\n      0x1f\n      add\n      0x20\n      dup1\n      swap2\n      div\n      mul\n      0x20\n      add\n      mload(0x40)\n      swap1\n      dup2\n      add\n      0x40\n      mstore\n      dup1\n      swap3\n      swap2\n      swap1\n      dup2\n      dup2\n      mstore\n      0x20\n      add\n      dup3\n      dup1\n      sload\n      tag_96\n      swap1\n      tag_82\n      jump\t// in\n    tag_96:\n      dup1\n      iszero\n      tag_97\n      jumpi\n      dup1\n      0x1f\n      lt\n      tag_98\n      jumpi\n      0x0100\n      dup1\n      dup4\n      sload\n      div\n      mul\n      dup4\n      mstore\n      swap2\n      0x20\n      add\n      swap2\n      jump(tag_97)\n    tag_98:\n      dup3\n      add\n      swap2\n      swap1\n      0x00\n      mstore\n      keccak256(0x00, 0x20)\n      swap1\n    tag_99:\n      dup2\n      sload\n      dup2\n      mstore\n      swap1\n      0x01\n      add\n      swap1\n      0x20\n      add\n      dup1\n      dup4\n      gt\n      tag_99\n      jumpi\n      dup3\n      swap1\n      sub\n      0x1f\n      and\n      dup3\n      add\n      swap2\n    tag_97:\n      pop\n      pop\n      pop\n      pop\n      pop\n      dup2\n      mstore\n      0x20\n      add\n      0x01\n      dup3\n      add\n      0x00\n      swap1\n      sload\n      swap1\n      0x0100\n      exp\n      swap1\n      div\n      0xffffffffffffffffffffffffffffffffffffffff\n      and\n      0xffffffffffffffffffffffffffffffffffffffff\n      and\n      0xffffffffffffffffffffffffffffffffffffffff\n      and\n      dup2\n      mstore\n      pop\n      pop\n      swap2\n      pop\n        /* \"contracts/myContract.sol\":1889:1924  SubscriberPrint(ret.name, ret.addr) */\n      0x509008841c10ccf2d4360b0b681479c830f619aac14e8fac7ac253216fdae8f9\n        /* \"contracts/myContract.sol\":1905:1908  ret */\n      dup3\n        /* \"contracts/myContract.sol\":1905:1913  ret.name */\n      0x00\n      add\n      mload\n        /* \"contracts/myContract.sol\":1915:1918  ret */\n      dup4\n        /* \"contracts/myContract.sol\":1915:1923  ret.addr */\n      0x20\n      add\n      mload\n        /* \"contracts/myContract.sol\":1889:1924  SubscriberPrint(ret.name, ret.addr) */\n      mload(0x40)\n      tag_100\n      swap3\n      swap2\n      swap1\n      tag_44\n      jump\t// in\n    tag_100:\n      mload(0x40)\n      dup1\n      swap2\n      sub\n      swap1\n      log1\n        /* \"contracts/myContract.sol\":1830:1833  i++ */\n      dup1\n      dup1\n      tag_101\n      swap1\n      tag_70\n      jump\t// in\n    tag_101:\n      swap2\n      pop\n      pop\n        /* \"contracts/myContract.sol\":1793:1936  for(uint i = 0; i < subscriberCount; i++){\r... */\n      jump(tag_92)\n    tag_93:\n      pop\n        /* \"contracts/myContract.sol\":1750:1943  {\r... */\n      pop\n        /* \"contracts/myContract.sol\":1711:1943  function printSubscribersList() public {\r... */\n      jump\t// out\n        /* \"contracts/myContract.sol\":283:312  address payable public author */\n    tag_58:\n      0x02\n      0x00\n      swap1\n      sload\n      swap1\n      0x0100\n      exp\n      swap1\n      div\n      0xffffffffffffffffffffffffffffffffffffffff\n      and\n      dup2\n      jump\t// out\n        /* \"contracts/myContract.sol\":164:195  uint public subscriberCount = 0 */\n    tag_63:\n      sload(0x01)\n      dup2\n      jump\t// out\n    tag_68:\n      dup3\n      dup1\n      sload\n      tag_102\n      swap1\n      tag_82\n      jump\t// in\n    tag_102:\n      swap1\n      0x00\n      mstore\n      keccak256(0x00, 0x20)\n      swap1\n      0x1f\n      add\n      0x20\n      swap1\n      div\n      dup2\n      add\n      swap3\n      dup3\n      tag_104\n      jumpi\n      0x00\n      dup6\n      sstore\n      jump(tag_103)\n    tag_104:\n      dup3\n      0x1f\n      lt\n      tag_105\n      jumpi\n      dup1\n      mload\n      not(0xff)\n      and\n      dup4\n      dup1\n      add\n      or\n      dup6\n      sstore\n      jump(tag_103)\n    tag_105:\n      dup3\n      dup1\n      add\n      0x01\n      add\n      dup6\n      sstore\n      dup3\n      iszero\n      tag_103\n      jumpi\n      swap2\n      dup3\n      add\n    tag_106:\n      dup3\n      dup2\n      gt\n      iszero\n      tag_107\n      jumpi\n      dup3\n      mload\n      dup3\n      sstore\n      swap2\n      0x20\n      add\n      swap2\n      swap1\n      0x01\n      add\n      swap1\n      jump(tag_106)\n    tag_107:\n    tag_103:\n      pop\n      swap1\n      pop\n      tag_108\n      swap2\n      swap1\n      tag_109\n      jump\t// in\n    tag_108:\n      pop\n      swap1\n      jump\t// out\n    tag_91:\n      mload(0x40)\n      dup1\n      0x40\n      add\n      0x40\n      mstore\n      dup1\n      0x60\n      dup2\n      mstore\n      0x20\n      add\n      and(0xffffffffffffffffffffffffffffffffffffffff, 0x00)\n      dup2\n      mstore\n      pop\n      swap1\n      jump\t// out\n    tag_109:\n    tag_110:\n      dup1\n      dup3\n      gt\n      iszero\n      tag_111\n      jumpi\n      0x00\n      dup2\n      0x00\n      swap1\n      sstore\n      pop\n      0x01\n      add\n      jump(tag_110)\n    tag_111:\n      pop\n      swap1\n      jump\t// out\n        /* \"#utility.yul\":7:419   */\n    tag_113:\n        /* \"#utility.yul\":85:90   */\n      0x00\n        /* \"#utility.yul\":110:176   */\n      tag_115\n        /* \"#utility.yul\":126:175   */\n      tag_116\n        /* \"#utility.yul\":168:174   */\n      dup5\n        /* \"#utility.yul\":126:175   */\n      tag_117\n      jump\t// in\n    tag_116:\n        /* \"#utility.yul\":110:176   */\n      tag_118\n      jump\t// in\n    tag_115:\n        /* \"#utility.yul\":101:176   */\n      swap1\n      pop\n        /* \"#utility.yul\":199:205   */\n      dup3\n        /* \"#utility.yul\":192:197   */\n      dup2\n        /* \"#utility.yul\":185:206   */\n      mstore\n        /* \"#utility.yul\":237:241   */\n      0x20\n        /* \"#utility.yul\":230:235   */\n      dup2\n        /* \"#utility.yul\":226:242   */\n      add\n        /* \"#utility.yul\":275:278   */\n      dup5\n        /* \"#utility.yul\":266:272   */\n      dup5\n        /* \"#utility.yul\":261:264   */\n      dup5\n        /* \"#utility.yul\":257:273   */\n      add\n        /* \"#utility.yul\":254:279   */\n      gt\n        /* \"#utility.yul\":251:363   */\n      iszero\n      tag_119\n      jumpi\n        /* \"#utility.yul\":282:361   */\n      tag_120\n      tag_121\n      jump\t// in\n    tag_120:\n        /* \"#utility.yul\":251:363   */\n    tag_119:\n        /* \"#utility.yul\":372:413   */\n      tag_122\n        /* \"#utility.yul\":406:412   */\n      dup5\n        /* \"#utility.yul\":401:404   */\n      dup3\n        /* \"#utility.yul\":396:399   */\n      dup6\n        /* \"#utility.yul\":372:413   */\n      tag_123\n      jump\t// in\n    tag_122:\n        /* \"#utility.yul\":91:419   */\n      pop\n        /* \"#utility.yul\":7:419   */\n      swap4\n      swap3\n      pop\n      pop\n      pop\n      jump\t// out\n        /* \"#utility.yul\":439:779   */\n    tag_124:\n        /* \"#utility.yul\":495:500   */\n      0x00\n        /* \"#utility.yul\":544:547   */\n      dup3\n        /* \"#utility.yul\":537:541   */\n      0x1f\n        /* \"#utility.yul\":529:535   */\n      dup4\n        /* \"#utility.yul\":525:542   */\n      add\n        /* \"#utility.yul\":521:548   */\n      slt\n        /* \"#utility.yul\":511:633   */\n      tag_126\n      jumpi\n        /* \"#utility.yul\":552:631   */\n      tag_127\n      tag_128\n      jump\t// in\n    tag_127:\n        /* \"#utility.yul\":511:633   */\n    tag_126:\n        /* \"#utility.yul\":669:675   */\n      dup2\n        /* \"#utility.yul\":656:676   */\n      calldataload\n        /* \"#utility.yul\":694:773   */\n      tag_129\n        /* \"#utility.yul\":769:772   */\n      dup5\n        /* \"#utility.yul\":761:767   */\n      dup3\n        /* \"#utility.yul\":754:758   */\n      0x20\n        /* \"#utility.yul\":746:752   */\n      dup7\n        /* \"#utility.yul\":742:759   */\n      add\n        /* \"#utility.yul\":694:773   */\n      tag_113\n      jump\t// in\n    tag_129:\n        /* \"#utility.yul\":685:773   */\n      swap2\n      pop\n        /* \"#utility.yul\":501:779   */\n      pop\n        /* \"#utility.yul\":439:779   */\n      swap3\n      swap2\n      pop\n      pop\n      jump\t// out\n        /* \"#utility.yul\":785:924   */\n    tag_130:\n        /* \"#utility.yul\":831:836   */\n      0x00\n        /* \"#utility.yul\":869:875   */\n      dup2\n        /* \"#utility.yul\":856:876   */\n      calldataload\n        /* \"#utility.yul\":847:876   */\n      swap1\n      pop\n        /* \"#utility.yul\":885:918   */\n      tag_132\n        /* \"#utility.yul\":912:917   */\n      dup2\n        /* \"#utility.yul\":885:918   */\n      tag_133\n      jump\t// in\n    tag_132:\n        /* \"#utility.yul\":785:924   */\n      swap3\n      swap2\n      pop\n      pop\n      jump\t// out\n        /* \"#utility.yul\":930:1439   */\n    tag_34:\n        /* \"#utility.yul\":999:1005   */\n      0x00\n        /* \"#utility.yul\":1048:1050   */\n      0x20\n        /* \"#utility.yul\":1036:1045   */\n      dup3\n        /* \"#utility.yul\":1027:1034   */\n      dup5\n        /* \"#utility.yul\":1023:1046   */\n      sub\n        /* \"#utility.yul\":1019:1051   */\n      slt\n        /* \"#utility.yul\":1016:1135   */\n      iszero\n      tag_135\n      jumpi\n        /* \"#utility.yul\":1054:1133   */\n      tag_136\n      tag_137\n      jump\t// in\n    tag_136:\n        /* \"#utility.yul\":1016:1135   */\n    tag_135:\n        /* \"#utility.yul\":1202:1203   */\n      0x00\n        /* \"#utility.yul\":1191:1200   */\n      dup3\n        /* \"#utility.yul\":1187:1204   */\n      add\n        /* \"#utility.yul\":1174:1205   */\n      calldataload\n        /* \"#utility.yul\":1232:1250   */\n      0xffffffffffffffff\n        /* \"#utility.yul\":1224:1230   */\n      dup2\n        /* \"#utility.yul\":1221:1251   */\n      gt\n        /* \"#utility.yul\":1218:1335   */\n      iszero\n      tag_138\n      jumpi\n        /* \"#utility.yul\":1254:1333   */\n      tag_139\n      tag_140\n      jump\t// in\n    tag_139:\n        /* \"#utility.yul\":1218:1335   */\n    tag_138:\n        /* \"#utility.yul\":1359:1422   */\n      tag_141\n        /* \"#utility.yul\":1414:1421   */\n      dup5\n        /* \"#utility.yul\":1405:1411   */\n      dup3\n        /* \"#utility.yul\":1394:1403   */\n      dup6\n        /* \"#utility.yul\":1390:1412   */\n      add\n        /* \"#utility.yul\":1359:1422   */\n      tag_124\n      jump\t// in\n    tag_141:\n        /* \"#utility.yul\":1349:1422   */\n      swap2\n      pop\n        /* \"#utility.yul\":1145:1432   */\n      pop\n        /* \"#utility.yul\":930:1439   */\n      swap3\n      swap2\n      pop\n      pop\n      jump\t// out\n        /* \"#utility.yul\":1445:1774   */\n    tag_41:\n        /* \"#utility.yul\":1504:1510   */\n      0x00\n        /* \"#utility.yul\":1553:1555   */\n      0x20\n        /* \"#utility.yul\":1541:1550   */\n      dup3\n        /* \"#utility.yul\":1532:1539   */\n      dup5\n        /* \"#utility.yul\":1528:1551   */\n      sub\n        /* \"#utility.yul\":1524:1556   */\n      slt\n        /* \"#utility.yul\":1521:1640   */\n      iszero\n      tag_143\n      jumpi\n        /* \"#utility.yul\":1559:1638   */\n      tag_144\n      tag_137\n      jump\t// in\n    tag_144:\n        /* \"#utility.yul\":1521:1640   */\n    tag_143:\n        /* \"#utility.yul\":1679:1680   */\n      0x00\n        /* \"#utility.yul\":1704:1757   */\n      tag_145\n        /* \"#utility.yul\":1749:1756   */\n      dup5\n        /* \"#utility.yul\":1740:1746   */\n      dup3\n        /* \"#utility.yul\":1729:1738   */\n      dup6\n        /* \"#utility.yul\":1725:1747   */\n      add\n        /* \"#utility.yul\":1704:1757   */\n      tag_130\n      jump\t// in\n    tag_145:\n        /* \"#utility.yul\":1694:1757   */\n      swap2\n      pop\n        /* \"#utility.yul\":1650:1767   */\n      pop\n        /* \"#utility.yul\":1445:1774   */\n      swap3\n      swap2\n      pop\n      pop\n      jump\t// out\n        /* \"#utility.yul\":1780:1922   */\n    tag_146:\n        /* \"#utility.yul\":1883:1915   */\n      tag_148\n        /* \"#utility.yul\":1909:1914   */\n      dup2\n        /* \"#utility.yul\":1883:1915   */\n      tag_149\n      jump\t// in\n    tag_148:\n        /* \"#utility.yul\":1878:1881   */\n      dup3\n        /* \"#utility.yul\":1871:1916   */\n      mstore\n        /* \"#utility.yul\":1780:1922   */\n      pop\n      pop\n      jump\t// out\n        /* \"#utility.yul\":1928:2046   */\n    tag_150:\n        /* \"#utility.yul\":2015:2039   */\n      tag_152\n        /* \"#utility.yul\":2033:2038   */\n      dup2\n        /* \"#utility.yul\":2015:2039   */\n      tag_153\n      jump\t// in\n    tag_152:\n        /* \"#utility.yul\":2010:2013   */\n      dup3\n        /* \"#utility.yul\":2003:2040   */\n      mstore\n        /* \"#utility.yul\":1928:2046   */\n      pop\n      pop\n      jump\t// out\n        /* \"#utility.yul\":2052:2416   */\n    tag_154:\n        /* \"#utility.yul\":2140:2143   */\n      0x00\n        /* \"#utility.yul\":2168:2207   */\n      tag_156\n        /* \"#utility.yul\":2201:2206   */\n      dup3\n        /* \"#utility.yul\":2168:2207   */\n      tag_157\n      jump\t// in\n    tag_156:\n        /* \"#utility.yul\":2223:2294   */\n      tag_158\n        /* \"#utility.yul\":2287:2293   */\n      dup2\n        /* \"#utility.yul\":2282:2285   */\n      dup6\n        /* \"#utility.yul\":2223:2294   */\n      tag_159\n      jump\t// in\n    tag_158:\n        /* \"#utility.yul\":2216:2294   */\n      swap4\n      pop\n        /* \"#utility.yul\":2303:2355   */\n      tag_160\n        /* \"#utility.yul\":2348:2354   */\n      dup2\n        /* \"#utility.yul\":2343:2346   */\n      dup6\n        /* \"#utility.yul\":2336:2340   */\n      0x20\n        /* \"#utility.yul\":2329:2334   */\n      dup7\n        /* \"#utility.yul\":2325:2341   */\n      add\n        /* \"#utility.yul\":2303:2355   */\n      tag_161\n      jump\t// in\n    tag_160:\n        /* \"#utility.yul\":2380:2409   */\n      tag_162\n        /* \"#utility.yul\":2402:2408   */\n      dup2\n        /* \"#utility.yul\":2380:2409   */\n      tag_163\n      jump\t// in\n    tag_162:\n        /* \"#utility.yul\":2375:2378   */\n      dup5\n        /* \"#utility.yul\":2371:2410   */\n      add\n        /* \"#utility.yul\":2364:2410   */\n      swap2\n      pop\n        /* \"#utility.yul\":2144:2416   */\n      pop\n        /* \"#utility.yul\":2052:2416   */\n      swap3\n      swap2\n      pop\n      pop\n      jump\t// out\n        /* \"#utility.yul\":2422:2788   */\n    tag_164:\n        /* \"#utility.yul\":2564:2567   */\n      0x00\n        /* \"#utility.yul\":2585:2652   */\n      tag_166\n        /* \"#utility.yul\":2649:2651   */\n      0x26\n        /* \"#utility.yul\":2644:2647   */\n      dup4\n        /* \"#utility.yul\":2585:2652   */\n      tag_159\n      jump\t// in\n    tag_166:\n        /* \"#utility.yul\":2578:2652   */\n      swap2\n      pop\n        /* \"#utility.yul\":2661:2754   */\n      tag_167\n        /* \"#utility.yul\":2750:2753   */\n      dup3\n        /* \"#utility.yul\":2661:2754   */\n      tag_168\n      jump\t// in\n    tag_167:\n        /* \"#utility.yul\":2779:2781   */\n      0x40\n        /* \"#utility.yul\":2774:2777   */\n      dup3\n        /* \"#utility.yul\":2770:2782   */\n      add\n        /* \"#utility.yul\":2763:2782   */\n      swap1\n      pop\n        /* \"#utility.yul\":2422:2788   */\n      swap2\n      swap1\n      pop\n      jump\t// out\n        /* \"#utility.yul\":2794:3160   */\n    tag_169:\n        /* \"#utility.yul\":2936:2939   */\n      0x00\n        /* \"#utility.yul\":2957:3024   */\n      tag_171\n        /* \"#utility.yul\":3021:3023   */\n      0x14\n        /* \"#utility.yul\":3016:3019   */\n      dup4\n        /* \"#utility.yul\":2957:3024   */\n      tag_159\n      jump\t// in\n    tag_171:\n        /* \"#utility.yul\":2950:3024   */\n      swap2\n      pop\n        /* \"#utility.yul\":3033:3126   */\n      tag_172\n        /* \"#utility.yul\":3122:3125   */\n      dup3\n        /* \"#utility.yul\":3033:3126   */\n      tag_173\n      jump\t// in\n    tag_172:\n        /* \"#utility.yul\":3151:3153   */\n      0x20\n        /* \"#utility.yul\":3146:3149   */\n      dup3\n        /* \"#utility.yul\":3142:3154   */\n      add\n        /* \"#utility.yul\":3135:3154   */\n      swap1\n      pop\n        /* \"#utility.yul\":2794:3160   */\n      swap2\n      swap1\n      pop\n      jump\t// out\n        /* \"#utility.yul\":3166:3284   */\n    tag_174:\n        /* \"#utility.yul\":3253:3277   */\n      tag_176\n        /* \"#utility.yul\":3271:3276   */\n      dup2\n        /* \"#utility.yul\":3253:3277   */\n      tag_177\n      jump\t// in\n    tag_176:\n        /* \"#utility.yul\":3248:3251   */\n      dup3\n        /* \"#utility.yul\":3241:3278   */\n      mstore\n        /* \"#utility.yul\":3166:3284   */\n      pop\n      pop\n      jump\t// out\n        /* \"#utility.yul\":3290:3544   */\n    tag_60:\n        /* \"#utility.yul\":3399:3403   */\n      0x00\n        /* \"#utility.yul\":3437:3439   */\n      0x20\n        /* \"#utility.yul\":3426:3435   */\n      dup3\n        /* \"#utility.yul\":3422:3440   */\n      add\n        /* \"#utility.yul\":3414:3440   */\n      swap1\n      pop\n        /* \"#utility.yul\":3450:3537   */\n      tag_179\n        /* \"#utility.yul\":3534:3535   */\n      0x00\n        /* \"#utility.yul\":3523:3532   */\n      dup4\n        /* \"#utility.yul\":3519:3536   */\n      add\n        /* \"#utility.yul\":3510:3516   */\n      dup5\n        /* \"#utility.yul\":3450:3537   */\n      tag_146\n      jump\t// in\n    tag_179:\n        /* \"#utility.yul\":3290:3544   */\n      swap3\n      swap2\n      pop\n      pop\n      jump\t// out\n        /* \"#utility.yul\":3550:3882   */\n    tag_74:\n        /* \"#utility.yul\":3671:3675   */\n      0x00\n        /* \"#utility.yul\":3709:3711   */\n      0x40\n        /* \"#utility.yul\":3698:3707   */\n      dup3\n        /* \"#utility.yul\":3694:3712   */\n      add\n        /* \"#utility.yul\":3686:3712   */\n      swap1\n      pop\n        /* \"#utility.yul\":3722:3793   */\n      tag_181\n        /* \"#utility.yul\":3790:3791   */\n      0x00\n        /* \"#utility.yul\":3779:3788   */\n      dup4\n        /* \"#utility.yul\":3775:3792   */\n      add\n        /* \"#utility.yul\":3766:3772   */\n      dup6\n        /* \"#utility.yul\":3722:3793   */\n      tag_150\n      jump\t// in\n    tag_181:\n        /* \"#utility.yul\":3803:3875   */\n      tag_182\n        /* \"#utility.yul\":3871:3873   */\n      0x20\n        /* \"#utility.yul\":3860:3869   */\n      dup4\n        /* \"#utility.yul\":3856:3874   */\n      add\n        /* \"#utility.yul\":3847:3853   */\n      dup5\n        /* \"#utility.yul\":3803:3875   */\n      tag_174\n      jump\t// in\n    tag_182:\n        /* \"#utility.yul\":3550:3882   */\n      swap4\n      swap3\n      pop\n      pop\n      pop\n      jump\t// out\n        /* \"#utility.yul\":3888:4311   */\n    tag_44:\n        /* \"#utility.yul\":4029:4033   */\n      0x00\n        /* \"#utility.yul\":4067:4069   */\n      0x40\n        /* \"#utility.yul\":4056:4065   */\n      dup3\n        /* \"#utility.yul\":4052:4070   */\n      add\n        /* \"#utility.yul\":4044:4070   */\n      swap1\n      pop\n        /* \"#utility.yul\":4116:4125   */\n      dup2\n        /* \"#utility.yul\":4110:4114   */\n      dup2\n        /* \"#utility.yul\":4106:4126   */\n      sub\n        /* \"#utility.yul\":4102:4103   */\n      0x00\n        /* \"#utility.yul\":4091:4100   */\n      dup4\n        /* \"#utility.yul\":4087:4104   */\n      add\n        /* \"#utility.yul\":4080:4127   */\n      mstore\n        /* \"#utility.yul\":4144:4222   */\n      tag_184\n        /* \"#utility.yul\":4217:4221   */\n      dup2\n        /* \"#utility.yul\":4208:4214   */\n      dup6\n        /* \"#utility.yul\":4144:4222   */\n      tag_154\n      jump\t// in\n    tag_184:\n        /* \"#utility.yul\":4136:4222   */\n      swap1\n      pop\n        /* \"#utility.yul\":4232:4304   */\n      tag_185\n        /* \"#utility.yul\":4300:4302   */\n      0x20\n        /* \"#utility.yul\":4289:4298   */\n      dup4\n        /* \"#utility.yul\":4285:4303   */\n      add\n        /* \"#utility.yul\":4276:4282   */\n      dup5\n        /* \"#utility.yul\":4232:4304   */\n      tag_150\n      jump\t// in\n    tag_185:\n        /* \"#utility.yul\":3888:4311   */\n      swap4\n      swap3\n      pop\n      pop\n      pop\n      jump\t// out\n        /* \"#utility.yul\":4317:4736   */\n    tag_18:\n        /* \"#utility.yul\":4483:4487   */\n      0x00\n        /* \"#utility.yul\":4521:4523   */\n      0x20\n        /* \"#utility.yul\":4510:4519   */\n      dup3\n        /* \"#utility.yul\":4506:4524   */\n      add\n        /* \"#utility.yul\":4498:4524   */\n      swap1\n      pop\n        /* \"#utility.yul\":4570:4579   */\n      dup2\n        /* \"#utility.yul\":4564:4568   */\n      dup2\n        /* \"#utility.yul\":4560:4580   */\n      sub\n        /* \"#utility.yul\":4556:4557   */\n      0x00\n        /* \"#utility.yul\":4545:4554   */\n      dup4\n        /* \"#utility.yul\":4541:4558   */\n      add\n        /* \"#utility.yul\":4534:4581   */\n      mstore\n        /* \"#utility.yul\":4598:4729   */\n      tag_187\n        /* \"#utility.yul\":4724:4728   */\n      dup2\n        /* \"#utility.yul\":4598:4729   */\n      tag_164\n      jump\t// in\n    tag_187:\n        /* \"#utility.yul\":4590:4729   */\n      swap1\n      pop\n        /* \"#utility.yul\":4317:4736   */\n      swap2\n      swap1\n      pop\n      jump\t// out\n        /* \"#utility.yul\":4742:5161   */\n    tag_78:\n        /* \"#utility.yul\":4908:4912   */\n      0x00\n        /* \"#utility.yul\":4946:4948   */\n      0x20\n        /* \"#utility.yul\":4935:4944   */\n      dup3\n        /* \"#utility.yul\":4931:4949   */\n      add\n        /* \"#utility.yul\":4923:4949   */\n      swap1\n      pop\n        /* \"#utility.yul\":4995:5004   */\n      dup2\n        /* \"#utility.yul\":4989:4993   */\n      dup2\n        /* \"#utility.yul\":4985:5005   */\n      sub\n        /* \"#utility.yul\":4981:4982   */\n      0x00\n        /* \"#utility.yul\":4970:4979   */\n      dup4\n        /* \"#utility.yul\":4966:4983   */\n      add\n        /* \"#utility.yul\":4959:5006   */\n      mstore\n        /* \"#utility.yul\":5023:5154   */\n      tag_189\n        /* \"#utility.yul\":5149:5153   */\n      dup2\n        /* \"#utility.yul\":5023:5154   */\n      tag_169\n      jump\t// in\n    tag_189:\n        /* \"#utility.yul\":5015:5154   */\n      swap1\n      pop\n        /* \"#utility.yul\":4742:5161   */\n      swap2\n      swap1\n      pop\n      jump\t// out\n        /* \"#utility.yul\":5167:5389   */\n    tag_27:\n        /* \"#utility.yul\":5260:5264   */\n      0x00\n        /* \"#utility.yul\":5298:5300   */\n      0x20\n        /* \"#utility.yul\":5287:5296   */\n      dup3\n        /* \"#utility.yul\":5283:5301   */\n      add\n        /* \"#utility.yul\":5275:5301   */\n      swap1\n      pop\n        /* \"#utility.yul\":5311:5382   */\n      tag_191\n        /* \"#utility.yul\":5379:5380   */\n      0x00\n        /* \"#utility.yul\":5368:5377   */\n      dup4\n        /* \"#utility.yul\":5364:5381   */\n      add\n        /* \"#utility.yul\":5355:5361   */\n      dup5\n        /* \"#utility.yul\":5311:5382   */\n      tag_174\n      jump\t// in\n    tag_191:\n        /* \"#utility.yul\":5167:5389   */\n      swap3\n      swap2\n      pop\n      pop\n      jump\t// out\n        /* \"#utility.yul\":5395:5524   */\n    tag_118:\n        /* \"#utility.yul\":5429:5435   */\n      0x00\n        /* \"#utility.yul\":5456:5476   */\n      tag_193\n      tag_194\n      jump\t// in\n    tag_193:\n        /* \"#utility.yul\":5446:5476   */\n      swap1\n      pop\n        /* \"#utility.yul\":5485:5518   */\n      tag_195\n        /* \"#utility.yul\":5513:5517   */\n      dup3\n        /* \"#utility.yul\":5505:5511   */\n      dup3\n        /* \"#utility.yul\":5485:5518   */\n      tag_196\n      jump\t// in\n    tag_195:\n        /* \"#utility.yul\":5395:5524   */\n      swap2\n      swap1\n      pop\n      jump\t// out\n        /* \"#utility.yul\":5530:5605   */\n    tag_194:\n        /* \"#utility.yul\":5563:5569   */\n      0x00\n        /* \"#utility.yul\":5596:5598   */\n      0x40\n        /* \"#utility.yul\":5590:5599   */\n      mload\n        /* \"#utility.yul\":5580:5599   */\n      swap1\n      pop\n        /* \"#utility.yul\":5530:5605   */\n      swap1\n      jump\t// out\n        /* \"#utility.yul\":5611:5919   */\n    tag_117:\n        /* \"#utility.yul\":5673:5677   */\n      0x00\n        /* \"#utility.yul\":5763:5781   */\n      0xffffffffffffffff\n        /* \"#utility.yul\":5755:5761   */\n      dup3\n        /* \"#utility.yul\":5752:5782   */\n      gt\n        /* \"#utility.yul\":5749:5805   */\n      iszero\n      tag_199\n      jumpi\n        /* \"#utility.yul\":5785:5803   */\n      tag_200\n      tag_201\n      jump\t// in\n    tag_200:\n        /* \"#utility.yul\":5749:5805   */\n    tag_199:\n        /* \"#utility.yul\":5823:5852   */\n      tag_202\n        /* \"#utility.yul\":5845:5851   */\n      dup3\n        /* \"#utility.yul\":5823:5852   */\n      tag_163\n      jump\t// in\n    tag_202:\n        /* \"#utility.yul\":5815:5852   */\n      swap1\n      pop\n        /* \"#utility.yul\":5907:5911   */\n      0x20\n        /* \"#utility.yul\":5901:5905   */\n      dup2\n        /* \"#utility.yul\":5897:5912   */\n      add\n        /* \"#utility.yul\":5889:5912   */\n      swap1\n      pop\n        /* \"#utility.yul\":5611:5919   */\n      swap2\n      swap1\n      pop\n      jump\t// out\n        /* \"#utility.yul\":5925:6024   */\n    tag_157:\n        /* \"#utility.yul\":5977:5983   */\n      0x00\n        /* \"#utility.yul\":6011:6016   */\n      dup2\n        /* \"#utility.yul\":6005:6017   */\n      mload\n        /* \"#utility.yul\":5995:6017   */\n      swap1\n      pop\n        /* \"#utility.yul\":5925:6024   */\n      swap2\n      swap1\n      pop\n      jump\t// out\n        /* \"#utility.yul\":6030:6199   */\n    tag_159:\n        /* \"#utility.yul\":6114:6125   */\n      0x00\n        /* \"#utility.yul\":6148:6154   */\n      dup3\n        /* \"#utility.yul\":6143:6146   */\n      dup3\n        /* \"#utility.yul\":6136:6155   */\n      mstore\n        /* \"#utility.yul\":6188:6192   */\n      0x20\n        /* \"#utility.yul\":6183:6186   */\n      dup3\n        /* \"#utility.yul\":6179:6193   */\n      add\n        /* \"#utility.yul\":6164:6193   */\n      swap1\n      pop\n        /* \"#utility.yul\":6030:6199   */\n      swap3\n      swap2\n      pop\n      pop\n      jump\t// out\n        /* \"#utility.yul\":6205:6301   */\n    tag_153:\n        /* \"#utility.yul\":6242:6249   */\n      0x00\n        /* \"#utility.yul\":6271:6295   */\n      tag_206\n        /* \"#utility.yul\":6289:6294   */\n      dup3\n        /* \"#utility.yul\":6271:6295   */\n      tag_207\n      jump\t// in\n    tag_206:\n        /* \"#utility.yul\":6260:6295   */\n      swap1\n      pop\n        /* \"#utility.yul\":6205:6301   */\n      swap2\n      swap1\n      pop\n      jump\t// out\n        /* \"#utility.yul\":6307:6411   */\n    tag_149:\n        /* \"#utility.yul\":6352:6359   */\n      0x00\n        /* \"#utility.yul\":6381:6405   */\n      tag_209\n        /* \"#utility.yul\":6399:6404   */\n      dup3\n        /* \"#utility.yul\":6381:6405   */\n      tag_207\n      jump\t// in\n    tag_209:\n        /* \"#utility.yul\":6370:6405   */\n      swap1\n      pop\n        /* \"#utility.yul\":6307:6411   */\n      swap2\n      swap1\n      pop\n      jump\t// out\n        /* \"#utility.yul\":6417:6543   */\n    tag_207:\n        /* \"#utility.yul\":6454:6461   */\n      0x00\n        /* \"#utility.yul\":6494:6536   */\n      0xffffffffffffffffffffffffffffffffffffffff\n        /* \"#utility.yul\":6487:6492   */\n      dup3\n        /* \"#utility.yul\":6483:6537   */\n      and\n        /* \"#utility.yul\":6472:6537   */\n      swap1\n      pop\n        /* \"#utility.yul\":6417:6543   */\n      swap2\n      swap1\n      pop\n      jump\t// out\n        /* \"#utility.yul\":6549:6626   */\n    tag_177:\n        /* \"#utility.yul\":6586:6593   */\n      0x00\n        /* \"#utility.yul\":6615:6620   */\n      dup2\n        /* \"#utility.yul\":6604:6620   */\n      swap1\n      pop\n        /* \"#utility.yul\":6549:6626   */\n      swap2\n      swap1\n      pop\n      jump\t// out\n        /* \"#utility.yul\":6632:6786   */\n    tag_123:\n        /* \"#utility.yul\":6716:6722   */\n      dup3\n        /* \"#utility.yul\":6711:6714   */\n      dup2\n        /* \"#utility.yul\":6706:6709   */\n      dup4\n        /* \"#utility.yul\":6693:6723   */\n      calldatacopy\n        /* \"#utility.yul\":6778:6779   */\n      0x00\n        /* \"#utility.yul\":6769:6775   */\n      dup4\n        /* \"#utility.yul\":6764:6767   */\n      dup4\n        /* \"#utility.yul\":6760:6776   */\n      add\n        /* \"#utility.yul\":6753:6780   */\n      mstore\n        /* \"#utility.yul\":6632:6786   */\n      pop\n      pop\n      pop\n      jump\t// out\n        /* \"#utility.yul\":6792:7099   */\n    tag_161:\n        /* \"#utility.yul\":6860:6861   */\n      0x00\n        /* \"#utility.yul\":6870:6983   */\n    tag_214:\n        /* \"#utility.yul\":6884:6890   */\n      dup4\n        /* \"#utility.yul\":6881:6882   */\n      dup2\n        /* \"#utility.yul\":6878:6891   */\n      lt\n        /* \"#utility.yul\":6870:6983   */\n      iszero\n      tag_216\n      jumpi\n        /* \"#utility.yul\":6969:6970   */\n      dup1\n        /* \"#utility.yul\":6964:6967   */\n      dup3\n        /* \"#utility.yul\":6960:6971   */\n      add\n        /* \"#utility.yul\":6954:6972   */\n      mload\n        /* \"#utility.yul\":6950:6951   */\n      dup2\n        /* \"#utility.yul\":6945:6948   */\n      dup5\n        /* \"#utility.yul\":6941:6952   */\n      add\n        /* \"#utility.yul\":6934:6973   */\n      mstore\n        /* \"#utility.yul\":6906:6908   */\n      0x20\n        /* \"#utility.yul\":6903:6904   */\n      dup2\n        /* \"#utility.yul\":6899:6909   */\n      add\n        /* \"#utility.yul\":6894:6909   */\n      swap1\n      pop\n        /* \"#utility.yul\":6870:6983   */\n      jump(tag_214)\n    tag_216:\n        /* \"#utility.yul\":7001:7007   */\n      dup4\n        /* \"#utility.yul\":6998:6999   */\n      dup2\n        /* \"#utility.yul\":6995:7008   */\n      gt\n        /* \"#utility.yul\":6992:7093   */\n      iszero\n      tag_217\n      jumpi\n        /* \"#utility.yul\":7081:7082   */\n      0x00\n        /* \"#utility.yul\":7072:7078   */\n      dup5\n        /* \"#utility.yul\":7067:7070   */\n      dup5\n        /* \"#utility.yul\":7063:7079   */\n      add\n        /* \"#utility.yul\":7056:7083   */\n      mstore\n        /* \"#utility.yul\":6992:7093   */\n    tag_217:\n        /* \"#utility.yul\":6841:7099   */\n      pop\n        /* \"#utility.yul\":6792:7099   */\n      pop\n      pop\n      pop\n      jump\t// out\n        /* \"#utility.yul\":7105:7425   */\n    tag_82:\n        /* \"#utility.yul\":7149:7155   */\n      0x00\n        /* \"#utility.yul\":7186:7187   */\n      0x02\n        /* \"#utility.yul\":7180:7184   */\n      dup3\n        /* \"#utility.yul\":7176:7188   */\n      div\n        /* \"#utility.yul\":7166:7188   */\n      swap1\n      pop\n        /* \"#utility.yul\":7233:7234   */\n      0x01\n        /* \"#utility.yul\":7227:7231   */\n      dup3\n        /* \"#utility.yul\":7223:7235   */\n      and\n        /* \"#utility.yul\":7254:7272   */\n      dup1\n        /* \"#utility.yul\":7244:7325   */\n      tag_219\n      jumpi\n        /* \"#utility.yul\":7310:7314   */\n      0x7f\n        /* \"#utility.yul\":7302:7308   */\n      dup3\n        /* \"#utility.yul\":7298:7315   */\n      and\n        /* \"#utility.yul\":7288:7315   */\n      swap2\n      pop\n        /* \"#utility.yul\":7244:7325   */\n    tag_219:\n        /* \"#utility.yul\":7372:7374   */\n      0x20\n        /* \"#utility.yul\":7364:7370   */\n      dup3\n        /* \"#utility.yul\":7361:7375   */\n      lt\n        /* \"#utility.yul\":7341:7359   */\n      dup2\n        /* \"#utility.yul\":7338:7376   */\n      eq\n        /* \"#utility.yul\":7335:7419   */\n      iszero\n      tag_220\n      jumpi\n        /* \"#utility.yul\":7391:7409   */\n      tag_221\n      tag_222\n      jump\t// in\n    tag_221:\n        /* \"#utility.yul\":7335:7419   */\n    tag_220:\n        /* \"#utility.yul\":7156:7425   */\n      pop\n        /* \"#utility.yul\":7105:7425   */\n      swap2\n      swap1\n      pop\n      jump\t// out\n        /* \"#utility.yul\":7431:7712   */\n    tag_196:\n        /* \"#utility.yul\":7514:7541   */\n      tag_224\n        /* \"#utility.yul\":7536:7540   */\n      dup3\n        /* \"#utility.yul\":7514:7541   */\n      tag_163\n      jump\t// in\n    tag_224:\n        /* \"#utility.yul\":7506:7512   */\n      dup2\n        /* \"#utility.yul\":7502:7542   */\n      add\n        /* \"#utility.yul\":7644:7650   */\n      dup2\n        /* \"#utility.yul\":7632:7642   */\n      dup2\n        /* \"#utility.yul\":7629:7651   */\n      lt\n        /* \"#utility.yul\":7608:7626   */\n      0xffffffffffffffff\n        /* \"#utility.yul\":7596:7606   */\n      dup3\n        /* \"#utility.yul\":7593:7627   */\n      gt\n        /* \"#utility.yul\":7590:7652   */\n      or\n        /* \"#utility.yul\":7587:7675   */\n      iszero\n      tag_225\n      jumpi\n        /* \"#utility.yul\":7655:7673   */\n      tag_226\n      tag_201\n      jump\t// in\n    tag_226:\n        /* \"#utility.yul\":7587:7675   */\n    tag_225:\n        /* \"#utility.yul\":7695:7705   */\n      dup1\n        /* \"#utility.yul\":7691:7693   */\n      0x40\n        /* \"#utility.yul\":7684:7706   */\n      mstore\n        /* \"#utility.yul\":7474:7712   */\n      pop\n        /* \"#utility.yul\":7431:7712   */\n      pop\n      pop\n      jump\t// out\n        /* \"#utility.yul\":7718:7951   */\n    tag_70:\n        /* \"#utility.yul\":7757:7760   */\n      0x00\n        /* \"#utility.yul\":7780:7804   */\n      tag_228\n        /* \"#utility.yul\":7798:7803   */\n      dup3\n        /* \"#utility.yul\":7780:7804   */\n      tag_177\n      jump\t// in\n    tag_228:\n        /* \"#utility.yul\":7771:7804   */\n      swap2\n      pop\n        /* \"#utility.yul\":7826:7892   */\n      0xffffffffffffffffffffffffffffffffffffffffffffffffffffffffffffffff\n        /* \"#utility.yul\":7819:7824   */\n      dup3\n        /* \"#utility.yul\":7816:7893   */\n      eq\n        /* \"#utility.yul\":7813:7916   */\n      iszero\n      tag_229\n      jumpi\n        /* \"#utility.yul\":7896:7914   */\n      tag_230\n      tag_231\n      jump\t// in\n    tag_230:\n        /* \"#utility.yul\":7813:7916   */\n    tag_229:\n        /* \"#utility.yul\":7943:7944   */\n      0x01\n        /* \"#utility.yul\":7936:7941   */\n      dup3\n        /* \"#utility.yul\":7932:7945   */\n      add\n        /* \"#utility.yul\":7925:7945   */\n      swap1\n      pop\n        /* \"#utility.yul\":7718:7951   */\n      swap2\n      swap1\n      pop\n      jump\t// out\n        /* \"#utility.yul\":7957:8137   */\n    tag_231:\n        /* \"#utility.yul\":8005:8082   */\n      0x4e487b7100000000000000000000000000000000000000000000000000000000\n        /* \"#utility.yul\":8002:8003   */\n      0x00\n        /* \"#utility.yul\":7995:8083   */\n      mstore\n        /* \"#utility.yul\":8102:8106   */\n      0x11\n        /* \"#utility.yul\":8099:8100   */\n      0x04\n        /* \"#utility.yul\":8092:8107   */\n      mstore\n        /* \"#utility.yul\":8126:8130   */\n      0x24\n        /* \"#utility.yul\":8123:8124   */\n      0x00\n        /* \"#utility.yul\":8116:8131   */\n      revert\n        /* \"#utility.yul\":8143:8323   */\n    tag_222:\n        /* \"#utility.yul\":8191:8268   */\n      0x4e487b7100000000000000000000000000000000000000000000000000000000\n        /* \"#utility.yul\":8188:8189   */\n      0x00\n        /* \"#utility.yul\":8181:8269   */\n      mstore\n        /* \"#utility.yul\":8288:8292   */\n      0x22\n        /* \"#utility.yul\":8285:8286   */\n      0x04\n        /* \"#utility.yul\":8278:8293   */\n      mstore\n        /* \"#utility.yul\":8312:8316   */\n      0x24\n        /* \"#utility.yul\":8309:8310   */\n      0x00\n        /* \"#utility.yul\":8302:8317   */\n      revert\n        /* \"#utility.yul\":8329:8509   */\n    tag_201:\n        /* \"#utility.yul\":8377:8454   */\n      0x4e487b7100000000000000000000000000000000000000000000000000000000\n        /* \"#utility.yul\":8374:8375   */\n      0x00\n        /* \"#utility.yul\":8367:8455   */\n      mstore\n        /* \"#utility.yul\":8474:8478   */\n      0x41\n        /* \"#utility.yul\":8471:8472   */\n      0x04\n        /* \"#utility.yul\":8464:8479   */\n      mstore\n        /* \"#utility.yul\":8498:8502   */\n      0x24\n        /* \"#utility.yul\":8495:8496   */\n      0x00\n        /* \"#utility.yul\":8488:8503   */\n      revert\n        /* \"#utility.yul\":8515:8632   */\n    tag_128:\n        /* \"#utility.yul\":8624:8625   */\n      0x00\n        /* \"#utility.yul\":8621:8622   */\n      dup1\n        /* \"#utility.yul\":8614:8626   */\n      revert\n        /* \"#utility.yul\":8638:8755   */\n    tag_121:\n        /* \"#utility.yul\":8747:8748   */\n      0x00\n        /* \"#utility.yul\":8744:8745   */\n      dup1\n        /* \"#utility.yul\":8737:8749   */\n      revert\n        /* \"#utility.yul\":8761:8878   */\n    tag_140:\n        /* \"#utility.yul\":8870:8871   */\n      0x00\n        /* \"#utility.yul\":8867:8868   */\n      dup1\n        /* \"#utility.yul\":8860:8872   */\n      revert\n        /* \"#utility.yul\":8884:9001   */\n    tag_137:\n        /* \"#utility.yul\":8993:8994   */\n      0x00\n        /* \"#utility.yul\":8990:8991   */\n      dup1\n        /* \"#utility.yul\":8983:8995   */\n      revert\n        /* \"#utility.yul\":9007:9109   */\n    tag_163:\n        /* \"#utility.yul\":9048:9054   */\n      0x00\n        /* \"#utility.yul\":9099:9101   */\n      0x1f\n        /* \"#utility.yul\":9095:9102   */\n      not\n        /* \"#utility.yul\":9090:9092   */\n      0x1f\n        /* \"#utility.yul\":9083:9088   */\n      dup4\n        /* \"#utility.yul\":9079:9093   */\n      add\n        /* \"#utility.yul\":9075:9103   */\n      and\n        /* \"#utility.yul\":9065:9103   */\n      swap1\n      pop\n        /* \"#utility.yul\":9007:9109   */\n      swap2\n      swap1\n      pop\n      jump\t// out\n        /* \"#utility.yul\":9115:9340   */\n    tag_168:\n        /* \"#utility.yul\":9255:9289   */\n      0x5061796d656e742073686f756c64206265207468652073756273637269707469\n        /* \"#utility.yul\":9251:9252   */\n      0x00\n        /* \"#utility.yul\":9243:9249   */\n      dup3\n        /* \"#utility.yul\":9239:9253   */\n      add\n        /* \"#utility.yul\":9232:9290   */\n      mstore\n        /* \"#utility.yul\":9324:9332   */\n      0x6f6e206665650000000000000000000000000000000000000000000000000000\n        /* \"#utility.yul\":9319:9321   */\n      0x20\n        /* \"#utility.yul\":9311:9317   */\n      dup3\n        /* \"#utility.yul\":9307:9322   */\n      add\n        /* \"#utility.yul\":9300:9333   */\n      mstore\n        /* \"#utility.yul\":9115:9340   */\n      pop\n      jump\t// out\n        /* \"#utility.yul\":9346:9516   */\n    tag_173:\n        /* \"#utility.yul\":9486:9508   */\n      0x4f6e6c7920617574686f722063616e2063616c6c000000000000000000000000\n        /* \"#utility.yul\":9482:9483   */\n      0x00\n        /* \"#utility.yul\":9474:9480   */\n      dup3\n        /* \"#utility.yul\":9470:9484   */\n      add\n        /* \"#utility.yul\":9463:9509   */\n      mstore\n        /* \"#utility.yul\":9346:9516   */\n      pop\n      jump\t// out\n        /* \"#utility.yul\":9522:9644   */\n    tag_133:\n        /* \"#utility.yul\":9595:9619   */\n      tag_243\n        /* \"#utility.yul\":9613:9618   */\n      dup2\n        /* \"#utility.yul\":9595:9619   */\n      tag_177\n      jump\t// in\n    tag_243:\n        /* \"#utility.yul\":9588:9593   */\n      dup2\n        /* \"#utility.yul\":9585:9620   */\n      eq\n        /* \"#utility.yul\":9575:9638   */\n      tag_244\n      jumpi\n        /* \"#utility.yul\":9634:9635   */\n      0x00\n        /* \"#utility.yul\":9631:9632   */\n      dup1\n        /* \"#utility.yul\":9624:9636   */\n      revert\n        /* \"#utility.yul\":9575:9638   */\n    tag_244:\n        /* \"#utility.yul\":9522:9644   */\n      pop\n      jump\t// out\n\n    auxdata: 0xa2646970667358221220676a17111c2fd6baf2c71fa0743a1209f9dbc620bccf66485e01bc1a60c72a4e64736f6c63430008070033\n}\n",
				"bytecode": {
					"linkReferences": {},
					"object": "608060405260006001553480156200001657600080fd5b5060405162000fc638038062000fc683398181016040528101906200003c9190620000b7565b33600260006101000a81548173ffffffffffffffffffffffffffffffffffffffff021916908373ffffffffffffffffffffffffffffffffffffffff160217905550670de0b6b3a764000081620000939190620000e9565b60038190555050620001a2565b600081519050620000b18162000188565b92915050565b600060208284031215620000d057620000cf62000183565b5b6000620000e084828501620000a0565b91505092915050565b6000620000f6826200014a565b915062000103836200014a565b9250817fffffffffffffffffffffffffffffffffffffffffffffffffffffffffffffffff04831182151516156200013f576200013e62000154565b5b828202905092915050565b6000819050919050565b7f4e487b7100000000000000000000000000000000000000000000000000000000600052601160045260246000fd5b600080fd5b62000193816200014a565b81146200019f57600080fd5b50565b610e1480620001b26000396000f3fe6080604052600436106100955760003560e01c80636f9fb98a116100595780636f9fb98a146101e05780637f6b28091461020b57806382d69b6214610236578063a6c3e6b91461024d578063ef352bbe14610278576100e0565b80630aa0a1751461012657806317e703ab146101515780632edd4fa51461017c578063534844a21461019857806359221a68146101a2576100e0565b366100e05760035434146100de576040517f08c379a00000000000000000000000000000000000000000000000000000000081526004016100d590610a94565b60405180910390fd5b005b6003543414610124576040517f08c379a000000000000000000000000000000000000000000000000000000000815260040161011b90610a94565b60405180910390fd5b005b34801561013257600080fd5b5061013b6102a3565b6040516101489190610ad4565b60405180910390f35b34801561015d57600080fd5b506101666102a9565b6040516101739190610ad4565b60405180910390f35b610196600480360381019061019191906108fe565b6102b3565b005b6101a06103f6565b005b3480156101ae57600080fd5b506101c960048036038101906101c49190610947565b6104f1565b6040516101d7929190610a64565b60405180910390f35b3480156101ec57600080fd5b506101f56105bd565b6040516102029190610ad4565b60405180910390f35b34801561021757600080fd5b506102206105c5565b60405161022d9190610ad4565b60405180910390f35b34801561024257600080fd5b5061024b610606565b005b34801561025957600080fd5b5061026261077a565b60405161026f9190610a20565b60405180910390f35b34801561028457600080fd5b5061028d6107a0565b60405161029a9190610ad4565b60405180910390f35b60035481565b6000600154905090565b60405180604001604052808281526020013373ffffffffffffffffffffffffffffffffffffffff168152506000806001548152602001908152602001600020600082015181600001908051906020019061030e9291906107a6565b5060208201518160010160006101000a81548173ffffffffffffffffffffffffffffffffffffffff021916908373ffffffffffffffffffffffffffffffffffffffff1602179055509050506001600081548092919061036c90610c54565b91905055503073ffffffffffffffffffffffffffffffffffffffff166108fc6003549081150290604051600060405180830381858888f193505050501580156103b9573d6000803e3d6000fd5b507f88a5966d370b9919b20f3e2c13ff65706f196a4e32cc2c12bf57088f8852587433346040516103eb929190610a3b565b60405180910390a150565b600260009054906101000a900473ffffffffffffffffffffffffffffffffffffffff1673ffffffffffffffffffffffffffffffffffffffff163373ffffffffffffffffffffffffffffffffffffffff1614610486576040517f08c379a000000000000000000000000000000000000000000000000000000000815260040161047d90610ab4565b60405180910390fd5b600260009054906101000a900473ffffffffffffffffffffffffffffffffffffffff1673ffffffffffffffffffffffffffffffffffffffff166108fc479081150290604051600060405180830381858888f193505050501580156104ee573d6000803e3d6000fd5b50565b600060205280600052604060002060009150905080600001805461051490610bf1565b80601f016020809104026020016040519081016040528092919081815260200182805461054090610bf1565b801561058d5780601f106105625761010080835404028352916020019161058d565b820191906000526020600020905b81548152906001019060200180831161057057829003601f168201915b5050505050908060010160009054906101000a900473ffffffffffffffffffffffffffffffffffffffff16905082565b600047905090565b6000600260009054906101000a900473ffffffffffffffffffffffffffffffffffffffff1673ffffffffffffffffffffffffffffffffffffffff1631905090565b61060e61082c565b60005b6001548110156107765760008082815260200190815260200160002060405180604001604052908160008201805461064890610bf1565b80601f016020809104026020016040519081016040528092919081815260200182805461067490610bf1565b80156106c15780601f10610696576101008083540402835291602001916106c1565b820191906000526020600020905b8154815290600101906020018083116106a457829003601f168201915b505050505081526020016001820160009054906101000a900473ffffffffffffffffffffffffffffffffffffffff1673ffffffffffffffffffffffffffffffffffffffff1673ffffffffffffffffffffffffffffffffffffffff168152505091507f509008841c10ccf2d4360b0b681479c830f619aac14e8fac7ac253216fdae8f98260000151836020015160405161075b929190610a64565b60405180910390a1808061076e90610c54565b915050610611565b5050565b600260009054906101000a900473ffffffffffffffffffffffffffffffffffffffff1681565b60015481565b8280546107b290610bf1565b90600052602060002090601f0160209004810192826107d4576000855561081b565b82601f106107ed57805160ff191683800117855561081b565b8280016001018555821561081b579182015b8281111561081a5782518255916020019190600101906107ff565b5b509050610828919061085c565b5090565b604051806040016040528060608152602001600073ffffffffffffffffffffffffffffffffffffffff1681525090565b5b8082111561087557600081600090555060010161085d565b5090565b600061088c61088784610b14565b610aef565b9050828152602081018484840111156108a8576108a7610d2f565b5b6108b3848285610baf565b509392505050565b600082601f8301126108d0576108cf610d2a565b5b81356108e0848260208601610879565b91505092915050565b6000813590506108f881610dc7565b92915050565b60006020828403121561091457610913610d39565b5b600082013567ffffffffffffffff81111561093257610931610d34565b5b61093e848285016108bb565b91505092915050565b60006020828403121561095d5761095c610d39565b5b600061096b848285016108e9565b91505092915050565b61097d81610b73565b82525050565b61098c81610b61565b82525050565b600061099d82610b45565b6109a78185610b50565b93506109b7818560208601610bbe565b6109c081610d3e565b840191505092915050565b60006109d8602683610b50565b91506109e382610d4f565b604082019050919050565b60006109fb601483610b50565b9150610a0682610d9e565b602082019050919050565b610a1a81610ba5565b82525050565b6000602082019050610a356000830184610974565b92915050565b6000604082019050610a506000830185610983565b610a5d6020830184610a11565b9392505050565b60006040820190508181036000830152610a7e8185610992565b9050610a8d6020830184610983565b9392505050565b60006020820190508181036000830152610aad816109cb565b9050919050565b60006020820190508181036000830152610acd816109ee565b9050919050565b6000602082019050610ae96000830184610a11565b92915050565b6000610af9610b0a565b9050610b058282610c23565b919050565b6000604051905090565b600067ffffffffffffffff821115610b2f57610b2e610cfb565b5b610b3882610d3e565b9050602081019050919050565b600081519050919050565b600082825260208201905092915050565b6000610b6c82610b85565b9050919050565b6000610b7e82610b85565b9050919050565b600073ffffffffffffffffffffffffffffffffffffffff82169050919050565b6000819050919050565b82818337600083830152505050565b60005b83811015610bdc578082015181840152602081019050610bc1565b83811115610beb576000848401525b50505050565b60006002820490506001821680610c0957607f821691505b60208210811415610c1d57610c1c610ccc565b5b50919050565b610c2c82610d3e565b810181811067ffffffffffffffff82111715610c4b57610c4a610cfb565b5b80604052505050565b6000610c5f82610ba5565b91507fffffffffffffffffffffffffffffffffffffffffffffffffffffffffffffffff821415610c9257610c91610c9d565b5b600182019050919050565b7f4e487b7100000000000000000000000000000000000000000000000000000000600052601160045260246000fd5b7f4e487b7100000000000000000000000000000000000000000000000000000000600052602260045260246000fd5b7f4e487b7100000000000000000000000000000000000000000000000000000000600052604160045260246000fd5b600080fd5b600080fd5b600080fd5b600080fd5b6000601f19601f8301169050919050565b7f5061796d656e742073686f756c6420626520746865207375627363726970746960008201527f6f6e206665650000000000000000000000000000000000000000000000000000602082015250565b7f4f6e6c7920617574686f722063616e2063616c6c000000000000000000000000600082015250565b610dd081610ba5565b8114610ddb57600080fd5b5056fea2646970667358221220676a17111c2fd6baf2c71fa0743a1209f9dbc620bccf66485e01bc1a60c72a4e64736f6c63430008070033",
					"opcodes": "PUSH1 0x80 PUSH1 0x40 MSTORE PUSH1 0x0 PUSH1 0x1 SSTORE CALLVALUE DUP1 ISZERO PUSH3 0x16 JUMPI PUSH1 0x0 DUP1 REVERT JUMPDEST POP PUSH1 0x40 MLOAD PUSH3 0xFC6 CODESIZE SUB DUP1 PUSH3 0xFC6 DUP4 CODECOPY DUP2 DUP2 ADD PUSH1 0x40 MSTORE DUP2 ADD SWAP1 PUSH3 0x3C SWAP2 SWAP1 PUSH3 0xB7 JUMP JUMPDEST CALLER PUSH1 0x2 PUSH1 0x0 PUSH2 0x100 EXP DUP2 SLOAD DUP2 PUSH20 0xFFFFFFFFFFFFFFFFFFFFFFFFFFFFFFFFFFFFFFFF MUL NOT AND SWAP1 DUP4 PUSH20 0xFFFFFFFFFFFFFFFFFFFFFFFFFFFFFFFFFFFFFFFF AND MUL OR SWAP1 SSTORE POP PUSH8 0xDE0B6B3A7640000 DUP2 PUSH3 0x93 SWAP2 SWAP1 PUSH3 0xE9 JUMP JUMPDEST PUSH1 0x3 DUP2 SWAP1 SSTORE POP POP PUSH3 0x1A2 JUMP JUMPDEST PUSH1 0x0 DUP2 MLOAD SWAP1 POP PUSH3 0xB1 DUP2 PUSH3 0x188 JUMP JUMPDEST SWAP3 SWAP2 POP POP JUMP JUMPDEST PUSH1 0x0 PUSH1 0x20 DUP3 DUP5 SUB SLT ISZERO PUSH3 0xD0 JUMPI PUSH3 0xCF PUSH3 0x183 JUMP JUMPDEST JUMPDEST PUSH1 0x0 PUSH3 0xE0 DUP5 DUP3 DUP6 ADD PUSH3 0xA0 JUMP JUMPDEST SWAP2 POP POP SWAP3 SWAP2 POP POP JUMP JUMPDEST PUSH1 0x0 PUSH3 0xF6 DUP3 PUSH3 0x14A JUMP JUMPDEST SWAP2 POP PUSH3 0x103 DUP4 PUSH3 0x14A JUMP JUMPDEST SWAP3 POP DUP2 PUSH32 0xFFFFFFFFFFFFFFFFFFFFFFFFFFFFFFFFFFFFFFFFFFFFFFFFFFFFFFFFFFFFFFFF DIV DUP4 GT DUP3 ISZERO ISZERO AND ISZERO PUSH3 0x13F JUMPI PUSH3 0x13E PUSH3 0x154 JUMP JUMPDEST JUMPDEST DUP3 DUP3 MUL SWAP1 POP SWAP3 SWAP2 POP POP JUMP JUMPDEST PUSH1 0x0 DUP2 SWAP1 POP SWAP2 SWAP1 POP JUMP JUMPDEST PUSH32 0x4E487B7100000000000000000000000000000000000000000000000000000000 PUSH1 0x0 MSTORE PUSH1 0x11 PUSH1 0x4 MSTORE PUSH1 0x24 PUSH1 0x0 REVERT JUMPDEST PUSH1 0x0 DUP1 REVERT JUMPDEST PUSH3 0x193 DUP2 PUSH3 0x14A JUMP JUMPDEST DUP2 EQ PUSH3 0x19F JUMPI PUSH1 0x0 DUP1 REVERT JUMPDEST POP JUMP JUMPDEST PUSH2 0xE14 DUP1 PUSH3 0x1B2 PUSH1 0x0 CODECOPY PUSH1 0x0 RETURN INVALID PUSH1 0x80 PUSH1 0x40 MSTORE PUSH1 0x4 CALLDATASIZE LT PUSH2 0x95 JUMPI PUSH1 0x0 CALLDATALOAD PUSH1 0xE0 SHR DUP1 PUSH4 0x6F9FB98A GT PUSH2 0x59 JUMPI DUP1 PUSH4 0x6F9FB98A EQ PUSH2 0x1E0 JUMPI DUP1 PUSH4 0x7F6B2809 EQ PUSH2 0x20B JUMPI DUP1 PUSH4 0x82D69B62 EQ PUSH2 0x236 JUMPI DUP1 PUSH4 0xA6C3E6B9 EQ PUSH2 0x24D JUMPI DUP1 PUSH4 0xEF352BBE EQ PUSH2 0x278 JUMPI PUSH2 0xE0 JUMP JUMPDEST DUP1 PUSH4 0xAA0A175 EQ PUSH2 0x126 JUMPI DUP1 PUSH4 0x17E703AB EQ PUSH2 0x151 JUMPI DUP1 PUSH4 0x2EDD4FA5 EQ PUSH2 0x17C JUMPI DUP1 PUSH4 0x534844A2 EQ PUSH2 0x198 JUMPI DUP1 PUSH4 0x59221A68 EQ PUSH2 0x1A2 JUMPI PUSH2 0xE0 JUMP JUMPDEST CALLDATASIZE PUSH2 0xE0 JUMPI PUSH1 0x3 SLOAD CALLVALUE EQ PUSH2 0xDE JUMPI PUSH1 0x40 MLOAD PUSH32 0x8C379A000000000000000000000000000000000000000000000000000000000 DUP2 MSTORE PUSH1 0x4 ADD PUSH2 0xD5 SWAP1 PUSH2 0xA94 JUMP JUMPDEST PUSH1 0x40 MLOAD DUP1 SWAP2 SUB SWAP1 REVERT JUMPDEST STOP JUMPDEST PUSH1 0x3 SLOAD CALLVALUE EQ PUSH2 0x124 JUMPI PUSH1 0x40 MLOAD PUSH32 0x8C379A000000000000000000000000000000000000000000000000000000000 DUP2 MSTORE PUSH1 0x4 ADD PUSH2 0x11B SWAP1 PUSH2 0xA94 JUMP JUMPDEST PUSH1 0x40 MLOAD DUP1 SWAP2 SUB SWAP1 REVERT JUMPDEST STOP JUMPDEST CALLVALUE DUP1 ISZERO PUSH2 0x132 JUMPI PUSH1 0x0 DUP1 REVERT JUMPDEST POP PUSH2 0x13B PUSH2 0x2A3 JUMP JUMPDEST PUSH1 0x40 MLOAD PUSH2 0x148 SWAP2 SWAP1 PUSH2 0xAD4 JUMP JUMPDEST PUSH1 0x40 MLOAD DUP1 SWAP2 SUB SWAP1 RETURN JUMPDEST CALLVALUE DUP1 ISZERO PUSH2 0x15D JUMPI PUSH1 0x0 DUP1 REVERT JUMPDEST POP PUSH2 0x166 PUSH2 0x2A9 JUMP JUMPDEST PUSH1 0x40 MLOAD PUSH2 0x173 SWAP2 SWAP1 PUSH2 0xAD4 JUMP JUMPDEST PUSH1 0x40 MLOAD DUP1 SWAP2 SUB SWAP1 RETURN JUMPDEST PUSH2 0x196 PUSH1 0x4 DUP1 CALLDATASIZE SUB DUP2 ADD SWAP1 PUSH2 0x191 SWAP2 SWAP1 PUSH2 0x8FE JUMP JUMPDEST PUSH2 0x2B3 JUMP JUMPDEST STOP JUMPDEST PUSH2 0x1A0 PUSH2 0x3F6 JUMP JUMPDEST STOP JUMPDEST CALLVALUE DUP1 ISZERO PUSH2 0x1AE JUMPI PUSH1 0x0 DUP1 REVERT JUMPDEST POP PUSH2 0x1C9 PUSH1 0x4 DUP1 CALLDATASIZE SUB DUP2 ADD SWAP1 PUSH2 0x1C4 SWAP2 SWAP1 PUSH2 0x947 JUMP JUMPDEST PUSH2 0x4F1 JUMP JUMPDEST PUSH1 0x40 MLOAD PUSH2 0x1D7 SWAP3 SWAP2 SWAP1 PUSH2 0xA64 JUMP JUMPDEST PUSH1 0x40 MLOAD DUP1 SWAP2 SUB SWAP1 RETURN JUMPDEST CALLVALUE DUP1 ISZERO PUSH2 0x1EC JUMPI PUSH1 0x0 DUP1 REVERT JUMPDEST POP PUSH2 0x1F5 PUSH2 0x5BD JUMP JUMPDEST PUSH1 0x40 MLOAD PUSH2 0x202 SWAP2 SWAP1 PUSH2 0xAD4 JUMP JUMPDEST PUSH1 0x40 MLOAD DUP1 SWAP2 SUB SWAP1 RETURN JUMPDEST CALLVALUE DUP1 ISZERO PUSH2 0x217 JUMPI PUSH1 0x0 DUP1 REVERT JUMPDEST POP PUSH2 0x220 PUSH2 0x5C5 JUMP JUMPDEST PUSH1 0x40 MLOAD PUSH2 0x22D SWAP2 SWAP1 PUSH2 0xAD4 JUMP JUMPDEST PUSH1 0x40 MLOAD DUP1 SWAP2 SUB SWAP1 RETURN JUMPDEST CALLVALUE DUP1 ISZERO PUSH2 0x242 JUMPI PUSH1 0x0 DUP1 REVERT JUMPDEST POP PUSH2 0x24B PUSH2 0x606 JUMP JUMPDEST STOP JUMPDEST CALLVALUE DUP1 ISZERO PUSH2 0x259 JUMPI PUSH1 0x0 DUP1 REVERT JUMPDEST POP PUSH2 0x262 PUSH2 0x77A JUMP JUMPDEST PUSH1 0x40 MLOAD PUSH2 0x26F SWAP2 SWAP1 PUSH2 0xA20 JUMP JUMPDEST PUSH1 0x40 MLOAD DUP1 SWAP2 SUB SWAP1 RETURN JUMPDEST CALLVALUE DUP1 ISZERO PUSH2 0x284 JUMPI PUSH1 0x0 DUP1 REVERT JUMPDEST POP PUSH2 0x28D PUSH2 0x7A0 JUMP JUMPDEST PUSH1 0x40 MLOAD PUSH2 0x29A SWAP2 SWAP1 PUSH2 0xAD4 JUMP JUMPDEST PUSH1 0x40 MLOAD DUP1 SWAP2 SUB SWAP1 RETURN JUMPDEST PUSH1 0x3 SLOAD DUP2 JUMP JUMPDEST PUSH1 0x0 PUSH1 0x1 SLOAD SWAP1 POP SWAP1 JUMP JUMPDEST PUSH1 0x40 MLOAD DUP1 PUSH1 0x40 ADD PUSH1 0x40 MSTORE DUP1 DUP3 DUP2 MSTORE PUSH1 0x20 ADD CALLER PUSH20 0xFFFFFFFFFFFFFFFFFFFFFFFFFFFFFFFFFFFFFFFF AND DUP2 MSTORE POP PUSH1 0x0 DUP1 PUSH1 0x1 SLOAD DUP2 MSTORE PUSH1 0x20 ADD SWAP1 DUP2 MSTORE PUSH1 0x20 ADD PUSH1 0x0 KECCAK256 PUSH1 0x0 DUP3 ADD MLOAD DUP2 PUSH1 0x0 ADD SWAP1 DUP1 MLOAD SWAP1 PUSH1 0x20 ADD SWAP1 PUSH2 0x30E SWAP3 SWAP2 SWAP1 PUSH2 0x7A6 JUMP JUMPDEST POP PUSH1 0x20 DUP3 ADD MLOAD DUP2 PUSH1 0x1 ADD PUSH1 0x0 PUSH2 0x100 EXP DUP2 SLOAD DUP2 PUSH20 0xFFFFFFFFFFFFFFFFFFFFFFFFFFFFFFFFFFFFFFFF MUL NOT AND SWAP1 DUP4 PUSH20 0xFFFFFFFFFFFFFFFFFFFFFFFFFFFFFFFFFFFFFFFF AND MUL OR SWAP1 SSTORE POP SWAP1 POP POP PUSH1 0x1 PUSH1 0x0 DUP2 SLOAD DUP1 SWAP3 SWAP2 SWAP1 PUSH2 0x36C SWAP1 PUSH2 0xC54 JUMP JUMPDEST SWAP2 SWAP1 POP SSTORE POP ADDRESS PUSH20 0xFFFFFFFFFFFFFFFFFFFFFFFFFFFFFFFFFFFFFFFF AND PUSH2 0x8FC PUSH1 0x3 SLOAD SWAP1 DUP2 ISZERO MUL SWAP1 PUSH1 0x40 MLOAD PUSH1 0x0 PUSH1 0x40 MLOAD DUP1 DUP4 SUB DUP2 DUP6 DUP9 DUP9 CALL SWAP4 POP POP POP POP ISZERO DUP1 ISZERO PUSH2 0x3B9 JUMPI RETURNDATASIZE PUSH1 0x0 DUP1 RETURNDATACOPY RETURNDATASIZE PUSH1 0x0 REVERT JUMPDEST POP PUSH32 0x88A5966D370B9919B20F3E2C13FF65706F196A4E32CC2C12BF57088F88525874 CALLER CALLVALUE PUSH1 0x40 MLOAD PUSH2 0x3EB SWAP3 SWAP2 SWAP1 PUSH2 0xA3B JUMP JUMPDEST PUSH1 0x40 MLOAD DUP1 SWAP2 SUB SWAP1 LOG1 POP JUMP JUMPDEST PUSH1 0x2 PUSH1 0x0 SWAP1 SLOAD SWAP1 PUSH2 0x100 EXP SWAP1 DIV PUSH20 0xFFFFFFFFFFFFFFFFFFFFFFFFFFFFFFFFFFFFFFFF AND PUSH20 0xFFFFFFFFFFFFFFFFFFFFFFFFFFFFFFFFFFFFFFFF AND CALLER PUSH20 0xFFFFFFFFFFFFFFFFFFFFFFFFFFFFFFFFFFFFFFFF AND EQ PUSH2 0x486 JUMPI PUSH1 0x40 MLOAD PUSH32 0x8C379A000000000000000000000000000000000000000000000000000000000 DUP2 MSTORE PUSH1 0x4 ADD PUSH2 0x47D SWAP1 PUSH2 0xAB4 JUMP JUMPDEST PUSH1 0x40 MLOAD DUP1 SWAP2 SUB SWAP1 REVERT JUMPDEST PUSH1 0x2 PUSH1 0x0 SWAP1 SLOAD SWAP1 PUSH2 0x100 EXP SWAP1 DIV PUSH20 0xFFFFFFFFFFFFFFFFFFFFFFFFFFFFFFFFFFFFFFFF AND PUSH20 0xFFFFFFFFFFFFFFFFFFFFFFFFFFFFFFFFFFFFFFFF AND PUSH2 0x8FC SELFBALANCE SWAP1 DUP2 ISZERO MUL SWAP1 PUSH1 0x40 MLOAD PUSH1 0x0 PUSH1 0x40 MLOAD DUP1 DUP4 SUB DUP2 DUP6 DUP9 DUP9 CALL SWAP4 POP POP POP POP ISZERO DUP1 ISZERO PUSH2 0x4EE JUMPI RETURNDATASIZE PUSH1 0x0 DUP1 RETURNDATACOPY RETURNDATASIZE PUSH1 0x0 REVERT JUMPDEST POP JUMP JUMPDEST PUSH1 0x0 PUSH1 0x20 MSTORE DUP1 PUSH1 0x0 MSTORE PUSH1 0x40 PUSH1 0x0 KECCAK256 PUSH1 0x0 SWAP2 POP SWAP1 POP DUP1 PUSH1 0x0 ADD DUP1 SLOAD PUSH2 0x514 SWAP1 PUSH2 0xBF1 JUMP JUMPDEST DUP1 PUSH1 0x1F ADD PUSH1 0x20 DUP1 SWAP2 DIV MUL PUSH1 0x20 ADD PUSH1 0x40 MLOAD SWAP1 DUP2 ADD PUSH1 0x40 MSTORE DUP1 SWAP3 SWAP2 SWAP1 DUP2 DUP2 MSTORE PUSH1 0x20 ADD DUP3 DUP1 SLOAD PUSH2 0x540 SWAP1 PUSH2 0xBF1 JUMP JUMPDEST DUP1 ISZERO PUSH2 0x58D JUMPI DUP1 PUSH1 0x1F LT PUSH2 0x562 JUMPI PUSH2 0x100 DUP1 DUP4 SLOAD DIV MUL DUP4 MSTORE SWAP2 PUSH1 0x20 ADD SWAP2 PUSH2 0x58D JUMP JUMPDEST DUP3 ADD SWAP2 SWAP1 PUSH1 0x0 MSTORE PUSH1 0x20 PUSH1 0x0 KECCAK256 SWAP1 JUMPDEST DUP2 SLOAD DUP2 MSTORE SWAP1 PUSH1 0x1 ADD SWAP1 PUSH1 0x20 ADD DUP1 DUP4 GT PUSH2 0x570 JUMPI DUP3 SWAP1 SUB PUSH1 0x1F AND DUP3 ADD SWAP2 JUMPDEST POP POP POP POP POP SWAP1 DUP1 PUSH1 0x1 ADD PUSH1 0x0 SWAP1 SLOAD SWAP1 PUSH2 0x100 EXP SWAP1 DIV PUSH20 0xFFFFFFFFFFFFFFFFFFFFFFFFFFFFFFFFFFFFFFFF AND SWAP1 POP DUP3 JUMP JUMPDEST PUSH1 0x0 SELFBALANCE SWAP1 POP SWAP1 JUMP JUMPDEST PUSH1 0x0 PUSH1 0x2 PUSH1 0x0 SWAP1 SLOAD SWAP1 PUSH2 0x100 EXP SWAP1 DIV PUSH20 0xFFFFFFFFFFFFFFFFFFFFFFFFFFFFFFFFFFFFFFFF AND PUSH20 0xFFFFFFFFFFFFFFFFFFFFFFFFFFFFFFFFFFFFFFFF AND BALANCE SWAP1 POP SWAP1 JUMP JUMPDEST PUSH2 0x60E PUSH2 0x82C JUMP JUMPDEST PUSH1 0x0 JUMPDEST PUSH1 0x1 SLOAD DUP2 LT ISZERO PUSH2 0x776 JUMPI PUSH1 0x0 DUP1 DUP3 DUP2 MSTORE PUSH1 0x20 ADD SWAP1 DUP2 MSTORE PUSH1 0x20 ADD PUSH1 0x0 KECCAK256 PUSH1 0x40 MLOAD DUP1 PUSH1 0x40 ADD PUSH1 0x40 MSTORE SWAP1 DUP2 PUSH1 0x0 DUP3 ADD DUP1 SLOAD PUSH2 0x648 SWAP1 PUSH2 0xBF1 JUMP JUMPDEST DUP1 PUSH1 0x1F ADD PUSH1 0x20 DUP1 SWAP2 DIV MUL PUSH1 0x20 ADD PUSH1 0x40 MLOAD SWAP1 DUP2 ADD PUSH1 0x40 MSTORE DUP1 SWAP3 SWAP2 SWAP1 DUP2 DUP2 MSTORE PUSH1 0x20 ADD DUP3 DUP1 SLOAD PUSH2 0x674 SWAP1 PUSH2 0xBF1 JUMP JUMPDEST DUP1 ISZERO PUSH2 0x6C1 JUMPI DUP1 PUSH1 0x1F LT PUSH2 0x696 JUMPI PUSH2 0x100 DUP1 DUP4 SLOAD DIV MUL DUP4 MSTORE SWAP2 PUSH1 0x20 ADD SWAP2 PUSH2 0x6C1 JUMP JUMPDEST DUP3 ADD SWAP2 SWAP1 PUSH1 0x0 MSTORE PUSH1 0x20 PUSH1 0x0 KECCAK256 SWAP1 JUMPDEST DUP2 SLOAD DUP2 MSTORE SWAP1 PUSH1 0x1 ADD SWAP1 PUSH1 0x20 ADD DUP1 DUP4 GT PUSH2 0x6A4 JUMPI DUP3 SWAP1 SUB PUSH1 0x1F AND DUP3 ADD SWAP2 JUMPDEST POP POP POP POP POP DUP2 MSTORE PUSH1 0x20 ADD PUSH1 0x1 DUP3 ADD PUSH1 0x0 SWAP1 SLOAD SWAP1 PUSH2 0x100 EXP SWAP1 DIV PUSH20 0xFFFFFFFFFFFFFFFFFFFFFFFFFFFFFFFFFFFFFFFF AND PUSH20 0xFFFFFFFFFFFFFFFFFFFFFFFFFFFFFFFFFFFFFFFF AND PUSH20 0xFFFFFFFFFFFFFFFFFFFFFFFFFFFFFFFFFFFFFFFF AND DUP2 MSTORE POP POP SWAP2 POP PUSH32 0x509008841C10CCF2D4360B0B681479C830F619AAC14E8FAC7AC253216FDAE8F9 DUP3 PUSH1 0x0 ADD MLOAD DUP4 PUSH1 0x20 ADD MLOAD PUSH1 0x40 MLOAD PUSH2 0x75B SWAP3 SWAP2 SWAP1 PUSH2 0xA64 JUMP JUMPDEST PUSH1 0x40 MLOAD DUP1 SWAP2 SUB SWAP1 LOG1 DUP1 DUP1 PUSH2 0x76E SWAP1 PUSH2 0xC54 JUMP JUMPDEST SWAP2 POP POP PUSH2 0x611 JUMP JUMPDEST POP POP JUMP JUMPDEST PUSH1 0x2 PUSH1 0x0 SWAP1 SLOAD SWAP1 PUSH2 0x100 EXP SWAP1 DIV PUSH20 0xFFFFFFFFFFFFFFFFFFFFFFFFFFFFFFFFFFFFFFFF AND DUP2 JUMP JUMPDEST PUSH1 0x1 SLOAD DUP2 JUMP JUMPDEST DUP3 DUP1 SLOAD PUSH2 0x7B2 SWAP1 PUSH2 0xBF1 JUMP JUMPDEST SWAP1 PUSH1 0x0 MSTORE PUSH1 0x20 PUSH1 0x0 KECCAK256 SWAP1 PUSH1 0x1F ADD PUSH1 0x20 SWAP1 DIV DUP2 ADD SWAP3 DUP3 PUSH2 0x7D4 JUMPI PUSH1 0x0 DUP6 SSTORE PUSH2 0x81B JUMP JUMPDEST DUP3 PUSH1 0x1F LT PUSH2 0x7ED JUMPI DUP1 MLOAD PUSH1 0xFF NOT AND DUP4 DUP1 ADD OR DUP6 SSTORE PUSH2 0x81B JUMP JUMPDEST DUP3 DUP1 ADD PUSH1 0x1 ADD DUP6 SSTORE DUP3 ISZERO PUSH2 0x81B JUMPI SWAP2 DUP3 ADD JUMPDEST DUP3 DUP2 GT ISZERO PUSH2 0x81A JUMPI DUP3 MLOAD DUP3 SSTORE SWAP2 PUSH1 0x20 ADD SWAP2 SWAP1 PUSH1 0x1 ADD SWAP1 PUSH2 0x7FF JUMP JUMPDEST JUMPDEST POP SWAP1 POP PUSH2 0x828 SWAP2 SWAP1 PUSH2 0x85C JUMP JUMPDEST POP SWAP1 JUMP JUMPDEST PUSH1 0x40 MLOAD DUP1 PUSH1 0x40 ADD PUSH1 0x40 MSTORE DUP1 PUSH1 0x60 DUP2 MSTORE PUSH1 0x20 ADD PUSH1 0x0 PUSH20 0xFFFFFFFFFFFFFFFFFFFFFFFFFFFFFFFFFFFFFFFF AND DUP2 MSTORE POP SWAP1 JUMP JUMPDEST JUMPDEST DUP1 DUP3 GT ISZERO PUSH2 0x875 JUMPI PUSH1 0x0 DUP2 PUSH1 0x0 SWAP1 SSTORE POP PUSH1 0x1 ADD PUSH2 0x85D JUMP JUMPDEST POP SWAP1 JUMP JUMPDEST PUSH1 0x0 PUSH2 0x88C PUSH2 0x887 DUP5 PUSH2 0xB14 JUMP JUMPDEST PUSH2 0xAEF JUMP JUMPDEST SWAP1 POP DUP3 DUP2 MSTORE PUSH1 0x20 DUP2 ADD DUP5 DUP5 DUP5 ADD GT ISZERO PUSH2 0x8A8 JUMPI PUSH2 0x8A7 PUSH2 0xD2F JUMP JUMPDEST JUMPDEST PUSH2 0x8B3 DUP5 DUP3 DUP6 PUSH2 0xBAF JUMP JUMPDEST POP SWAP4 SWAP3 POP POP POP JUMP JUMPDEST PUSH1 0x0 DUP3 PUSH1 0x1F DUP4 ADD SLT PUSH2 0x8D0 JUMPI PUSH2 0x8CF PUSH2 0xD2A JUMP JUMPDEST JUMPDEST DUP2 CALLDATALOAD PUSH2 0x8E0 DUP5 DUP3 PUSH1 0x20 DUP7 ADD PUSH2 0x879 JUMP JUMPDEST SWAP2 POP POP SWAP3 SWAP2 POP POP JUMP JUMPDEST PUSH1 0x0 DUP2 CALLDATALOAD SWAP1 POP PUSH2 0x8F8 DUP2 PUSH2 0xDC7 JUMP JUMPDEST SWAP3 SWAP2 POP POP JUMP JUMPDEST PUSH1 0x0 PUSH1 0x20 DUP3 DUP5 SUB SLT ISZERO PUSH2 0x914 JUMPI PUSH2 0x913 PUSH2 0xD39 JUMP JUMPDEST JUMPDEST PUSH1 0x0 DUP3 ADD CALLDATALOAD PUSH8 0xFFFFFFFFFFFFFFFF DUP2 GT ISZERO PUSH2 0x932 JUMPI PUSH2 0x931 PUSH2 0xD34 JUMP JUMPDEST JUMPDEST PUSH2 0x93E DUP5 DUP3 DUP6 ADD PUSH2 0x8BB JUMP JUMPDEST SWAP2 POP POP SWAP3 SWAP2 POP POP JUMP JUMPDEST PUSH1 0x0 PUSH1 0x20 DUP3 DUP5 SUB SLT ISZERO PUSH2 0x95D JUMPI PUSH2 0x95C PUSH2 0xD39 JUMP JUMPDEST JUMPDEST PUSH1 0x0 PUSH2 0x96B DUP5 DUP3 DUP6 ADD PUSH2 0x8E9 JUMP JUMPDEST SWAP2 POP POP SWAP3 SWAP2 POP POP JUMP JUMPDEST PUSH2 0x97D DUP2 PUSH2 0xB73 JUMP JUMPDEST DUP3 MSTORE POP POP JUMP JUMPDEST PUSH2 0x98C DUP2 PUSH2 0xB61 JUMP JUMPDEST DUP3 MSTORE POP POP JUMP JUMPDEST PUSH1 0x0 PUSH2 0x99D DUP3 PUSH2 0xB45 JUMP JUMPDEST PUSH2 0x9A7 DUP2 DUP6 PUSH2 0xB50 JUMP JUMPDEST SWAP4 POP PUSH2 0x9B7 DUP2 DUP6 PUSH1 0x20 DUP7 ADD PUSH2 0xBBE JUMP JUMPDEST PUSH2 0x9C0 DUP2 PUSH2 0xD3E JUMP JUMPDEST DUP5 ADD SWAP2 POP POP SWAP3 SWAP2 POP POP JUMP JUMPDEST PUSH1 0x0 PUSH2 0x9D8 PUSH1 0x26 DUP4 PUSH2 0xB50 JUMP JUMPDEST SWAP2 POP PUSH2 0x9E3 DUP3 PUSH2 0xD4F JUMP JUMPDEST PUSH1 0x40 DUP3 ADD SWAP1 POP SWAP2 SWAP1 POP JUMP JUMPDEST PUSH1 0x0 PUSH2 0x9FB PUSH1 0x14 DUP4 PUSH2 0xB50 JUMP JUMPDEST SWAP2 POP PUSH2 0xA06 DUP3 PUSH2 0xD9E JUMP JUMPDEST PUSH1 0x20 DUP3 ADD SWAP1 POP SWAP2 SWAP1 POP JUMP JUMPDEST PUSH2 0xA1A DUP2 PUSH2 0xBA5 JUMP JUMPDEST DUP3 MSTORE POP POP JUMP JUMPDEST PUSH1 0x0 PUSH1 0x20 DUP3 ADD SWAP1 POP PUSH2 0xA35 PUSH1 0x0 DUP4 ADD DUP5 PUSH2 0x974 JUMP JUMPDEST SWAP3 SWAP2 POP POP JUMP JUMPDEST PUSH1 0x0 PUSH1 0x40 DUP3 ADD SWAP1 POP PUSH2 0xA50 PUSH1 0x0 DUP4 ADD DUP6 PUSH2 0x983 JUMP JUMPDEST PUSH2 0xA5D PUSH1 0x20 DUP4 ADD DUP5 PUSH2 0xA11 JUMP JUMPDEST SWAP4 SWAP3 POP POP POP JUMP JUMPDEST PUSH1 0x0 PUSH1 0x40 DUP3 ADD SWAP1 POP DUP2 DUP2 SUB PUSH1 0x0 DUP4 ADD MSTORE PUSH2 0xA7E DUP2 DUP6 PUSH2 0x992 JUMP JUMPDEST SWAP1 POP PUSH2 0xA8D PUSH1 0x20 DUP4 ADD DUP5 PUSH2 0x983 JUMP JUMPDEST SWAP4 SWAP3 POP POP POP JUMP JUMPDEST PUSH1 0x0 PUSH1 0x20 DUP3 ADD SWAP1 POP DUP2 DUP2 SUB PUSH1 0x0 DUP4 ADD MSTORE PUSH2 0xAAD DUP2 PUSH2 0x9CB JUMP JUMPDEST SWAP1 POP SWAP2 SWAP1 POP JUMP JUMPDEST PUSH1 0x0 PUSH1 0x20 DUP3 ADD SWAP1 POP DUP2 DUP2 SUB PUSH1 0x0 DUP4 ADD MSTORE PUSH2 0xACD DUP2 PUSH2 0x9EE JUMP JUMPDEST SWAP1 POP SWAP2 SWAP1 POP JUMP JUMPDEST PUSH1 0x0 PUSH1 0x20 DUP3 ADD SWAP1 POP PUSH2 0xAE9 PUSH1 0x0 DUP4 ADD DUP5 PUSH2 0xA11 JUMP JUMPDEST SWAP3 SWAP2 POP POP JUMP JUMPDEST PUSH1 0x0 PUSH2 0xAF9 PUSH2 0xB0A JUMP JUMPDEST SWAP1 POP PUSH2 0xB05 DUP3 DUP3 PUSH2 0xC23 JUMP JUMPDEST SWAP2 SWAP1 POP JUMP JUMPDEST PUSH1 0x0 PUSH1 0x40 MLOAD SWAP1 POP SWAP1 JUMP JUMPDEST PUSH1 0x0 PUSH8 0xFFFFFFFFFFFFFFFF DUP3 GT ISZERO PUSH2 0xB2F JUMPI PUSH2 0xB2E PUSH2 0xCFB JUMP JUMPDEST JUMPDEST PUSH2 0xB38 DUP3 PUSH2 0xD3E JUMP JUMPDEST SWAP1 POP PUSH1 0x20 DUP2 ADD SWAP1 POP SWAP2 SWAP1 POP JUMP JUMPDEST PUSH1 0x0 DUP2 MLOAD SWAP1 POP SWAP2 SWAP1 POP JUMP JUMPDEST PUSH1 0x0 DUP3 DUP3 MSTORE PUSH1 0x20 DUP3 ADD SWAP1 POP SWAP3 SWAP2 POP POP JUMP JUMPDEST PUSH1 0x0 PUSH2 0xB6C DUP3 PUSH2 0xB85 JUMP JUMPDEST SWAP1 POP SWAP2 SWAP1 POP JUMP JUMPDEST PUSH1 0x0 PUSH2 0xB7E DUP3 PUSH2 0xB85 JUMP JUMPDEST SWAP1 POP SWAP2 SWAP1 POP JUMP JUMPDEST PUSH1 0x0 PUSH20 0xFFFFFFFFFFFFFFFFFFFFFFFFFFFFFFFFFFFFFFFF DUP3 AND SWAP1 POP SWAP2 SWAP1 POP JUMP JUMPDEST PUSH1 0x0 DUP2 SWAP1 POP SWAP2 SWAP1 POP JUMP JUMPDEST DUP3 DUP2 DUP4 CALLDATACOPY PUSH1 0x0 DUP4 DUP4 ADD MSTORE POP POP POP JUMP JUMPDEST PUSH1 0x0 JUMPDEST DUP4 DUP2 LT ISZERO PUSH2 0xBDC JUMPI DUP1 DUP3 ADD MLOAD DUP2 DUP5 ADD MSTORE PUSH1 0x20 DUP2 ADD SWAP1 POP PUSH2 0xBC1 JUMP JUMPDEST DUP4 DUP2 GT ISZERO PUSH2 0xBEB JUMPI PUSH1 0x0 DUP5 DUP5 ADD MSTORE JUMPDEST POP POP POP POP JUMP JUMPDEST PUSH1 0x0 PUSH1 0x2 DUP3 DIV SWAP1 POP PUSH1 0x1 DUP3 AND DUP1 PUSH2 0xC09 JUMPI PUSH1 0x7F DUP3 AND SWAP2 POP JUMPDEST PUSH1 0x20 DUP3 LT DUP2 EQ ISZERO PUSH2 0xC1D JUMPI PUSH2 0xC1C PUSH2 0xCCC JUMP JUMPDEST JUMPDEST POP SWAP2 SWAP1 POP JUMP JUMPDEST PUSH2 0xC2C DUP3 PUSH2 0xD3E JUMP JUMPDEST DUP2 ADD DUP2 DUP2 LT PUSH8 0xFFFFFFFFFFFFFFFF DUP3 GT OR ISZERO PUSH2 0xC4B JUMPI PUSH2 0xC4A PUSH2 0xCFB JUMP JUMPDEST JUMPDEST DUP1 PUSH1 0x40 MSTORE POP POP POP JUMP JUMPDEST PUSH1 0x0 PUSH2 0xC5F DUP3 PUSH2 0xBA5 JUMP JUMPDEST SWAP2 POP PUSH32 0xFFFFFFFFFFFFFFFFFFFFFFFFFFFFFFFFFFFFFFFFFFFFFFFFFFFFFFFFFFFFFFFF DUP3 EQ ISZERO PUSH2 0xC92 JUMPI PUSH2 0xC91 PUSH2 0xC9D JUMP JUMPDEST JUMPDEST PUSH1 0x1 DUP3 ADD SWAP1 POP SWAP2 SWAP1 POP JUMP JUMPDEST PUSH32 0x4E487B7100000000000000000000000000000000000000000000000000000000 PUSH1 0x0 MSTORE PUSH1 0x11 PUSH1 0x4 MSTORE PUSH1 0x24 PUSH1 0x0 REVERT JUMPDEST PUSH32 0x4E487B7100000000000000000000000000000000000000000000000000000000 PUSH1 0x0 MSTORE PUSH1 0x22 PUSH1 0x4 MSTORE PUSH1 0x24 PUSH1 0x0 REVERT JUMPDEST PUSH32 0x4E487B7100000000000000000000000000000000000000000000000000000000 PUSH1 0x0 MSTORE PUSH1 0x41 PUSH1 0x4 MSTORE PUSH1 0x24 PUSH1 0x0 REVERT JUMPDEST PUSH1 0x0 DUP1 REVERT JUMPDEST PUSH1 0x0 DUP1 REVERT JUMPDEST PUSH1 0x0 DUP1 REVERT JUMPDEST PUSH1 0x0 DUP1 REVERT JUMPDEST PUSH1 0x0 PUSH1 0x1F NOT PUSH1 0x1F DUP4 ADD AND SWAP1 POP SWAP2 SWAP1 POP JUMP JUMPDEST PUSH32 0x5061796D656E742073686F756C64206265207468652073756273637269707469 PUSH1 0x0 DUP3 ADD MSTORE PUSH32 0x6F6E206665650000000000000000000000000000000000000000000000000000 PUSH1 0x20 DUP3 ADD MSTORE POP JUMP JUMPDEST PUSH32 0x4F6E6C7920617574686F722063616E2063616C6C000000000000000000000000 PUSH1 0x0 DUP3 ADD MSTORE POP JUMP JUMPDEST PUSH2 0xDD0 DUP2 PUSH2 0xBA5 JUMP JUMPDEST DUP2 EQ PUSH2 0xDDB JUMPI PUSH1 0x0 DUP1 REVERT JUMPDEST POP JUMP INVALID LOG2 PUSH5 0x6970667358 0x22 SLT KECCAK256 PUSH8 0x6A17111C2FD6BAF2 0xC7 0x1F LOG0 PUSH21 0x3A1209F9DBC620BCCF66485E01BC1A60C72A4E6473 PUSH16 0x6C634300080700330000000000000000 "
				},
				"gasEstimates": {
					"creation": {
						"codeDepositCost": "720800",
						"executionCost": "infinite",
						"totalCost": "infinite"
					},
					"external": {
						"": "2634",
						"addSubscriber(string)": "infinite",
						"author()": "2580",
						"getAuthorBalance()": "5101",
						"getContractBalance()": "339",
						"getSubscriberCount()": "2460",
						"printSubscribersList()": "infinite",
						"subscriberCount()": "2517",
						"subscribers(uint256)": "infinite",
						"subscriptionFee()": "2430",
						"withdrawAmount()": "infinite"
					}
				},
				"methodIdentifiers": {
					"addSubscriber(string)": "2edd4fa5",
					"author()": "a6c3e6b9",
					"getAuthorBalance()": "7f6b2809",
					"getContractBalance()": "6f9fb98a",
					"getSubscriberCount()": "17e703ab",
					"printSubscribersList()": "82d69b62",
					"subscriberCount()": "ef352bbe",
					"subscribers(uint256)": "59221a68",
					"subscriptionFee()": "0aa0a175",
					"withdrawAmount()": "534844a2"
				}
			},
			"storageLayout": {
				"storage": [
					{
						"astId": 6,
						"contract": "contracts/myContract.sol:testContract",
						"label": "subscribers",
						"offset": 0,
						"slot": "0",
						"type": "t_mapping(t_uint256,t_struct(subscriber)14_storage)"
					},
					{
						"astId": 9,
						"contract": "contracts/myContract.sol:testContract",
						"label": "subscriberCount",
						"offset": 0,
						"slot": "1",
						"type": "t_uint256"
					},
					{
						"astId": 16,
						"contract": "contracts/myContract.sol:testContract",
						"label": "author",
						"offset": 0,
						"slot": "2",
						"type": "t_address_payable"
					},
					{
						"astId": 18,
						"contract": "contracts/myContract.sol:testContract",
						"label": "subscriptionFee",
						"offset": 0,
						"slot": "3",
						"type": "t_uint256"
					}
				],
				"types": {
					"t_address": {
						"encoding": "inplace",
						"label": "address",
						"numberOfBytes": "20"
					},
					"t_address_payable": {
						"encoding": "inplace",
						"label": "address payable",
						"numberOfBytes": "20"
					},
					"t_mapping(t_uint256,t_struct(subscriber)14_storage)": {
						"encoding": "mapping",
						"key": "t_uint256",
						"label": "mapping(uint256 => struct testContract.subscriber)",
						"numberOfBytes": "32",
						"value": "t_struct(subscriber)14_storage"
					},
					"t_string_storage": {
						"encoding": "bytes",
						"label": "string",
						"numberOfBytes": "32"
					},
					"t_struct(subscriber)14_storage": {
						"encoding": "inplace",
						"label": "struct testContract.subscriber",
						"members": [
							{
								"astId": 11,
								"contract": "contracts/myContract.sol:testContract",
								"label": "name",
								"offset": 0,
								"slot": "0",
								"type": "t_string_storage"
							},
							{
								"astId": 13,
								"contract": "contracts/myContract.sol:testContract",
								"label": "addr",
								"offset": 0,
								"slot": "1",
								"type": "t_address"
							}
						],
						"numberOfBytes": "64"
					},
					"t_uint256": {
						"encoding": "inplace",
						"label": "uint256",
						"numberOfBytes": "32"
					}
				}
			},
			"userdoc": {
				"kind": "user",
				"methods": {},
				"version": 1
			}
		}
	}
}