{
	"contracts/myContract.sol": {
		"testContract": {
			"abi": [
				{
					"inputs": [
						{
							"internalType": "uint256",
							"name": "_fee",
							"type": "uint256"
						},
						{
							"internalType": "string",
							"name": "_channelName",
							"type": "string"
						}
					],
					"stateMutability": "nonpayable",
					"type": "constructor"
				},
				{
					"anonymous": false,
					"inputs": [
						{
							"indexed": true,
							"internalType": "string",
							"name": "channelName",
							"type": "string"
						},
						{
							"indexed": false,
							"internalType": "string",
							"name": "articleTitle",
							"type": "string"
						},
						{
							"indexed": false,
							"internalType": "string",
							"name": "articleCID",
							"type": "string"
						},
						{
							"indexed": false,
							"internalType": "uint256",
							"name": "articleTimeStamp",
							"type": "uint256"
						}
					],
					"name": "articlePublished",
					"type": "event"
				},
				{
					"stateMutability": "payable",
					"type": "fallback"
				},
				{
					"inputs": [],
					"name": "addSubscriber",
					"outputs": [],
					"stateMutability": "payable",
					"type": "function"
				},
				{
					"inputs": [],
					"name": "channelName",
					"outputs": [
						{
							"internalType": "string",
							"name": "",
							"type": "string"
						}
					],
					"stateMutability": "view",
					"type": "function"
				},
				{
					"inputs": [],
					"name": "printSubscribersList",
					"outputs": [
						{
							"internalType": "address[]",
							"name": "",
							"type": "address[]"
						}
					],
					"stateMutability": "view",
					"type": "function"
				},
				{
					"inputs": [
						{
							"internalType": "string",
							"name": "_articleTitle",
							"type": "string"
						},
						{
							"internalType": "string",
							"name": "_articleCID",
							"type": "string"
						}
					],
					"name": "publishArticle",
					"outputs": [],
					"stateMutability": "payable",
					"type": "function"
				},
				{
					"inputs": [],
					"name": "subscriptionFee",
					"outputs": [
						{
							"internalType": "uint256",
							"name": "",
							"type": "uint256"
						}
					],
					"stateMutability": "view",
					"type": "function"
				},
				{
					"inputs": [],
					"name": "withdrawAmount",
					"outputs": [],
					"stateMutability": "payable",
					"type": "function"
				},
				{
					"stateMutability": "payable",
					"type": "receive"
				}
			],
			"devdoc": {
				"kind": "dev",
				"methods": {},
				"version": 1
			},
			"evm": {
				"assembly": "    /* \"contracts/myContract.sol\":76:2019  contract testContract {... */\n  mstore(0x40, 0x80)\n    /* \"contracts/myContract.sol\":798:1028  constructor(uint _fee, string memory _channelName){... */\n  callvalue\n  dup1\n  iszero\n  tag_1\n  jumpi\n  0x00\n  dup1\n  revert\ntag_1:\n  pop\n  mload(0x40)\n  sub(codesize, bytecodeSize)\n  dup1\n  bytecodeSize\n  dup4\n  codecopy\n  dup2\n  dup2\n  add\n  0x40\n  mstore\n  dup2\n  add\n  swap1\n  tag_2\n  swap2\n  swap1\n  tag_3\n  jump\t// in\ntag_2:\n    /* \"contracts/myContract.sol\":876:886  msg.sender */\n  caller\n    /* \"contracts/myContract.sol\":859:865  author */\n  0x04\n  0x00\n    /* \"contracts/myContract.sol\":859:887  author = payable(msg.sender) */\n  0x0100\n  exp\n  dup2\n  sload\n  dup2\n  0xffffffffffffffffffffffffffffffffffffffff\n  mul\n  not\n  and\n  swap1\n  dup4\n  0xffffffffffffffffffffffffffffffffffffffff\n  and\n  mul\n  or\n  swap1\n  sstore\n  pop\n    /* \"contracts/myContract.sol\":923:926  1e9 */\n  0x3b9aca00\n    /* \"contracts/myContract.sol\":916:920  _fee */\n  dup3\n    /* \"contracts/myContract.sol\":916:926  _fee * 1e9 */\n  tag_6\n  swap2\n  swap1\n  tag_7\n  jump\t// in\ntag_6:\n    /* \"contracts/myContract.sol\":898:913  subscriptionFee */\n  0x05\n    /* \"contracts/myContract.sol\":898:926  subscriptionFee = _fee * 1e9 */\n  dup2\n  swap1\n  sstore\n  pop\n    /* \"contracts/myContract.sol\":951:963  _channelName */\n  dup1\n    /* \"contracts/myContract.sol\":937:948  channelName */\n  0x06\n    /* \"contracts/myContract.sol\":937:963  channelName = _channelName */\n  swap1\n  dup1\n  mload\n  swap1\n  0x20\n  add\n  swap1\n  tag_8\n  swap3\n  swap2\n  swap1\n  tag_9\n  jump\t// in\ntag_8:\n  pop\n    /* \"contracts/myContract.sol\":992:993  0 */\n  0x00\n    /* \"contracts/myContract.sol\":974:989  subscriberCount */\n  0x01\n    /* \"contracts/myContract.sol\":974:993  subscriberCount = 0 */\n  dup2\n  swap1\n  sstore\n  pop\n    /* \"contracts/myContract.sol\":1019:1020  0 */\n  0x00\n    /* \"contracts/myContract.sol\":1004:1016  articleCount */\n  0x03\n    /* \"contracts/myContract.sol\":1004:1020  articleCount = 0 */\n  dup2\n  swap1\n  sstore\n  pop\n    /* \"contracts/myContract.sol\":798:1028  constructor(uint _fee, string memory _channelName){... */\n  pop\n  pop\n    /* \"contracts/myContract.sol\":76:2019  contract testContract {... */\n  jump(tag_10)\ntag_9:\n  dup3\n  dup1\n  sload\n  tag_11\n  swap1\n  tag_12\n  jump\t// in\ntag_11:\n  swap1\n  0x00\n  mstore\n  keccak256(0x00, 0x20)\n  swap1\n  0x1f\n  add\n  0x20\n  swap1\n  div\n  dup2\n  add\n  swap3\n  dup3\n  tag_14\n  jumpi\n  0x00\n  dup6\n  sstore\n  jump(tag_13)\ntag_14:\n  dup3\n  0x1f\n  lt\n  tag_15\n  jumpi\n  dup1\n  mload\n  not(0xff)\n  and\n  dup4\n  dup1\n  add\n  or\n  dup6\n  sstore\n  jump(tag_13)\ntag_15:\n  dup3\n  dup1\n  add\n  0x01\n  add\n  dup6\n  sstore\n  dup3\n  iszero\n  tag_13\n  jumpi\n  swap2\n  dup3\n  add\ntag_16:\n  dup3\n  dup2\n  gt\n  iszero\n  tag_17\n  jumpi\n  dup3\n  mload\n  dup3\n  sstore\n  swap2\n  0x20\n  add\n  swap2\n  swap1\n  0x01\n  add\n  swap1\n  jump(tag_16)\ntag_17:\ntag_13:\n  pop\n  swap1\n  pop\n  tag_18\n  swap2\n  swap1\n  tag_19\n  jump\t// in\ntag_18:\n  pop\n  swap1\n  jump\t// out\ntag_19:\ntag_20:\n  dup1\n  dup3\n  gt\n  iszero\n  tag_21\n  jumpi\n  0x00\n  dup2\n  0x00\n  swap1\n  sstore\n  pop\n  0x01\n  add\n  jump(tag_20)\ntag_21:\n  pop\n  swap1\n  jump\t// out\n    /* \"#utility.yul\":7:82   */\ntag_22:\n    /* \"#utility.yul\":40:46   */\n  0x00\n    /* \"#utility.yul\":73:75   */\n  0x40\n    /* \"#utility.yul\":67:76   */\n  mload\n    /* \"#utility.yul\":57:76   */\n  swap1\n  pop\n    /* \"#utility.yul\":7:82   */\n  swap1\n  jump\t// out\n    /* \"#utility.yul\":88:205   */\ntag_23:\n    /* \"#utility.yul\":197:198   */\n  0x00\n    /* \"#utility.yul\":194:195   */\n  dup1\n    /* \"#utility.yul\":187:199   */\n  revert\n    /* \"#utility.yul\":211:328   */\ntag_24:\n    /* \"#utility.yul\":320:321   */\n  0x00\n    /* \"#utility.yul\":317:318   */\n  dup1\n    /* \"#utility.yul\":310:322   */\n  revert\n    /* \"#utility.yul\":334:411   */\ntag_25:\n    /* \"#utility.yul\":371:378   */\n  0x00\n    /* \"#utility.yul\":400:405   */\n  dup2\n    /* \"#utility.yul\":389:405   */\n  swap1\n  pop\n    /* \"#utility.yul\":334:411   */\n  swap2\n  swap1\n  pop\n  jump\t// out\n    /* \"#utility.yul\":417:539   */\ntag_26:\n    /* \"#utility.yul\":490:514   */\n  tag_46\n    /* \"#utility.yul\":508:513   */\n  dup2\n    /* \"#utility.yul\":490:514   */\n  tag_25\n  jump\t// in\ntag_46:\n    /* \"#utility.yul\":483:488   */\n  dup2\n    /* \"#utility.yul\":480:515   */\n  eq\n    /* \"#utility.yul\":470:533   */\n  tag_47\n  jumpi\n    /* \"#utility.yul\":529:530   */\n  0x00\n    /* \"#utility.yul\":526:527   */\n  dup1\n    /* \"#utility.yul\":519:531   */\n  revert\n    /* \"#utility.yul\":470:533   */\ntag_47:\n    /* \"#utility.yul\":417:539   */\n  pop\n  jump\t// out\n    /* \"#utility.yul\":545:688   */\ntag_27:\n    /* \"#utility.yul\":602:607   */\n  0x00\n    /* \"#utility.yul\":633:639   */\n  dup2\n    /* \"#utility.yul\":627:640   */\n  mload\n    /* \"#utility.yul\":618:640   */\n  swap1\n  pop\n    /* \"#utility.yul\":649:682   */\n  tag_49\n    /* \"#utility.yul\":676:681   */\n  dup2\n    /* \"#utility.yul\":649:682   */\n  tag_26\n  jump\t// in\ntag_49:\n    /* \"#utility.yul\":545:688   */\n  swap3\n  swap2\n  pop\n  pop\n  jump\t// out\n    /* \"#utility.yul\":694:811   */\ntag_28:\n    /* \"#utility.yul\":803:804   */\n  0x00\n    /* \"#utility.yul\":800:801   */\n  dup1\n    /* \"#utility.yul\":793:805   */\n  revert\n    /* \"#utility.yul\":817:934   */\ntag_29:\n    /* \"#utility.yul\":926:927   */\n  0x00\n    /* \"#utility.yul\":923:924   */\n  dup1\n    /* \"#utility.yul\":916:928   */\n  revert\n    /* \"#utility.yul\":940:1042   */\ntag_30:\n    /* \"#utility.yul\":981:987   */\n  0x00\n    /* \"#utility.yul\":1032:1034   */\n  0x1f\n    /* \"#utility.yul\":1028:1035   */\n  not\n    /* \"#utility.yul\":1023:1025   */\n  0x1f\n    /* \"#utility.yul\":1016:1021   */\n  dup4\n    /* \"#utility.yul\":1012:1026   */\n  add\n    /* \"#utility.yul\":1008:1036   */\n  and\n    /* \"#utility.yul\":998:1036   */\n  swap1\n  pop\n    /* \"#utility.yul\":940:1042   */\n  swap2\n  swap1\n  pop\n  jump\t// out\n    /* \"#utility.yul\":1048:1228   */\ntag_31:\n    /* \"#utility.yul\":1096:1173   */\n  0x4e487b7100000000000000000000000000000000000000000000000000000000\n    /* \"#utility.yul\":1093:1094   */\n  0x00\n    /* \"#utility.yul\":1086:1174   */\n  mstore\n    /* \"#utility.yul\":1193:1197   */\n  0x41\n    /* \"#utility.yul\":1190:1191   */\n  0x04\n    /* \"#utility.yul\":1183:1198   */\n  mstore\n    /* \"#utility.yul\":1217:1221   */\n  0x24\n    /* \"#utility.yul\":1214:1215   */\n  0x00\n    /* \"#utility.yul\":1207:1222   */\n  revert\n    /* \"#utility.yul\":1234:1515   */\ntag_32:\n    /* \"#utility.yul\":1317:1344   */\n  tag_55\n    /* \"#utility.yul\":1339:1343   */\n  dup3\n    /* \"#utility.yul\":1317:1344   */\n  tag_30\n  jump\t// in\ntag_55:\n    /* \"#utility.yul\":1309:1315   */\n  dup2\n    /* \"#utility.yul\":1305:1345   */\n  add\n    /* \"#utility.yul\":1447:1453   */\n  dup2\n    /* \"#utility.yul\":1435:1445   */\n  dup2\n    /* \"#utility.yul\":1432:1454   */\n  lt\n    /* \"#utility.yul\":1411:1429   */\n  0xffffffffffffffff\n    /* \"#utility.yul\":1399:1409   */\n  dup3\n    /* \"#utility.yul\":1396:1430   */\n  gt\n    /* \"#utility.yul\":1393:1455   */\n  or\n    /* \"#utility.yul\":1390:1478   */\n  iszero\n  tag_56\n  jumpi\n    /* \"#utility.yul\":1458:1476   */\n  tag_57\n  tag_31\n  jump\t// in\ntag_57:\n    /* \"#utility.yul\":1390:1478   */\ntag_56:\n    /* \"#utility.yul\":1498:1508   */\n  dup1\n    /* \"#utility.yul\":1494:1496   */\n  0x40\n    /* \"#utility.yul\":1487:1509   */\n  mstore\n    /* \"#utility.yul\":1277:1515   */\n  pop\n    /* \"#utility.yul\":1234:1515   */\n  pop\n  pop\n  jump\t// out\n    /* \"#utility.yul\":1521:1650   */\ntag_33:\n    /* \"#utility.yul\":1555:1561   */\n  0x00\n    /* \"#utility.yul\":1582:1602   */\n  tag_59\n  tag_22\n  jump\t// in\ntag_59:\n    /* \"#utility.yul\":1572:1602   */\n  swap1\n  pop\n    /* \"#utility.yul\":1611:1644   */\n  tag_60\n    /* \"#utility.yul\":1639:1643   */\n  dup3\n    /* \"#utility.yul\":1631:1637   */\n  dup3\n    /* \"#utility.yul\":1611:1644   */\n  tag_32\n  jump\t// in\ntag_60:\n    /* \"#utility.yul\":1521:1650   */\n  swap2\n  swap1\n  pop\n  jump\t// out\n    /* \"#utility.yul\":1656:1964   */\ntag_34:\n    /* \"#utility.yul\":1718:1722   */\n  0x00\n    /* \"#utility.yul\":1808:1826   */\n  0xffffffffffffffff\n    /* \"#utility.yul\":1800:1806   */\n  dup3\n    /* \"#utility.yul\":1797:1827   */\n  gt\n    /* \"#utility.yul\":1794:1850   */\n  iszero\n  tag_62\n  jumpi\n    /* \"#utility.yul\":1830:1848   */\n  tag_63\n  tag_31\n  jump\t// in\ntag_63:\n    /* \"#utility.yul\":1794:1850   */\ntag_62:\n    /* \"#utility.yul\":1868:1897   */\n  tag_64\n    /* \"#utility.yul\":1890:1896   */\n  dup3\n    /* \"#utility.yul\":1868:1897   */\n  tag_30\n  jump\t// in\ntag_64:\n    /* \"#utility.yul\":1860:1897   */\n  swap1\n  pop\n    /* \"#utility.yul\":1952:1956   */\n  0x20\n    /* \"#utility.yul\":1946:1950   */\n  dup2\n    /* \"#utility.yul\":1942:1957   */\n  add\n    /* \"#utility.yul\":1934:1957   */\n  swap1\n  pop\n    /* \"#utility.yul\":1656:1964   */\n  swap2\n  swap1\n  pop\n  jump\t// out\n    /* \"#utility.yul\":1970:2277   */\ntag_35:\n    /* \"#utility.yul\":2038:2039   */\n  0x00\n    /* \"#utility.yul\":2048:2161   */\ntag_66:\n    /* \"#utility.yul\":2062:2068   */\n  dup4\n    /* \"#utility.yul\":2059:2060   */\n  dup2\n    /* \"#utility.yul\":2056:2069   */\n  lt\n    /* \"#utility.yul\":2048:2161   */\n  iszero\n  tag_68\n  jumpi\n    /* \"#utility.yul\":2147:2148   */\n  dup1\n    /* \"#utility.yul\":2142:2145   */\n  dup3\n    /* \"#utility.yul\":2138:2149   */\n  add\n    /* \"#utility.yul\":2132:2150   */\n  mload\n    /* \"#utility.yul\":2128:2129   */\n  dup2\n    /* \"#utility.yul\":2123:2126   */\n  dup5\n    /* \"#utility.yul\":2119:2130   */\n  add\n    /* \"#utility.yul\":2112:2151   */\n  mstore\n    /* \"#utility.yul\":2084:2086   */\n  0x20\n    /* \"#utility.yul\":2081:2082   */\n  dup2\n    /* \"#utility.yul\":2077:2087   */\n  add\n    /* \"#utility.yul\":2072:2087   */\n  swap1\n  pop\n    /* \"#utility.yul\":2048:2161   */\n  jump(tag_66)\ntag_68:\n    /* \"#utility.yul\":2179:2185   */\n  dup4\n    /* \"#utility.yul\":2176:2177   */\n  dup2\n    /* \"#utility.yul\":2173:2186   */\n  gt\n    /* \"#utility.yul\":2170:2271   */\n  iszero\n  tag_69\n  jumpi\n    /* \"#utility.yul\":2259:2260   */\n  0x00\n    /* \"#utility.yul\":2250:2256   */\n  dup5\n    /* \"#utility.yul\":2245:2248   */\n  dup5\n    /* \"#utility.yul\":2241:2257   */\n  add\n    /* \"#utility.yul\":2234:2261   */\n  mstore\n    /* \"#utility.yul\":2170:2271   */\ntag_69:\n    /* \"#utility.yul\":2019:2277   */\n  pop\n    /* \"#utility.yul\":1970:2277   */\n  pop\n  pop\n  pop\n  jump\t// out\n    /* \"#utility.yul\":2283:2704   */\ntag_36:\n    /* \"#utility.yul\":2372:2377   */\n  0x00\n    /* \"#utility.yul\":2397:2463   */\n  tag_71\n    /* \"#utility.yul\":2413:2462   */\n  tag_72\n    /* \"#utility.yul\":2455:2461   */\n  dup5\n    /* \"#utility.yul\":2413:2462   */\n  tag_34\n  jump\t// in\ntag_72:\n    /* \"#utility.yul\":2397:2463   */\n  tag_33\n  jump\t// in\ntag_71:\n    /* \"#utility.yul\":2388:2463   */\n  swap1\n  pop\n    /* \"#utility.yul\":2486:2492   */\n  dup3\n    /* \"#utility.yul\":2479:2484   */\n  dup2\n    /* \"#utility.yul\":2472:2493   */\n  mstore\n    /* \"#utility.yul\":2524:2528   */\n  0x20\n    /* \"#utility.yul\":2517:2522   */\n  dup2\n    /* \"#utility.yul\":2513:2529   */\n  add\n    /* \"#utility.yul\":2562:2565   */\n  dup5\n    /* \"#utility.yul\":2553:2559   */\n  dup5\n    /* \"#utility.yul\":2548:2551   */\n  dup5\n    /* \"#utility.yul\":2544:2560   */\n  add\n    /* \"#utility.yul\":2541:2566   */\n  gt\n    /* \"#utility.yul\":2538:2650   */\n  iszero\n  tag_73\n  jumpi\n    /* \"#utility.yul\":2569:2648   */\n  tag_74\n  tag_29\n  jump\t// in\ntag_74:\n    /* \"#utility.yul\":2538:2650   */\ntag_73:\n    /* \"#utility.yul\":2659:2698   */\n  tag_75\n    /* \"#utility.yul\":2691:2697   */\n  dup5\n    /* \"#utility.yul\":2686:2689   */\n  dup3\n    /* \"#utility.yul\":2681:2684   */\n  dup6\n    /* \"#utility.yul\":2659:2698   */\n  tag_35\n  jump\t// in\ntag_75:\n    /* \"#utility.yul\":2378:2704   */\n  pop\n    /* \"#utility.yul\":2283:2704   */\n  swap4\n  swap3\n  pop\n  pop\n  pop\n  jump\t// out\n    /* \"#utility.yul\":2724:3079   */\ntag_37:\n    /* \"#utility.yul\":2791:2796   */\n  0x00\n    /* \"#utility.yul\":2840:2843   */\n  dup3\n    /* \"#utility.yul\":2833:2837   */\n  0x1f\n    /* \"#utility.yul\":2825:2831   */\n  dup4\n    /* \"#utility.yul\":2821:2838   */\n  add\n    /* \"#utility.yul\":2817:2844   */\n  slt\n    /* \"#utility.yul\":2807:2929   */\n  tag_77\n  jumpi\n    /* \"#utility.yul\":2848:2927   */\n  tag_78\n  tag_28\n  jump\t// in\ntag_78:\n    /* \"#utility.yul\":2807:2929   */\ntag_77:\n    /* \"#utility.yul\":2958:2964   */\n  dup2\n    /* \"#utility.yul\":2952:2965   */\n  mload\n    /* \"#utility.yul\":2983:3073   */\n  tag_79\n    /* \"#utility.yul\":3069:3072   */\n  dup5\n    /* \"#utility.yul\":3061:3067   */\n  dup3\n    /* \"#utility.yul\":3054:3058   */\n  0x20\n    /* \"#utility.yul\":3046:3052   */\n  dup7\n    /* \"#utility.yul\":3042:3059   */\n  add\n    /* \"#utility.yul\":2983:3073   */\n  tag_36\n  jump\t// in\ntag_79:\n    /* \"#utility.yul\":2974:3073   */\n  swap2\n  pop\n    /* \"#utility.yul\":2797:3079   */\n  pop\n    /* \"#utility.yul\":2724:3079   */\n  swap3\n  swap2\n  pop\n  pop\n  jump\t// out\n    /* \"#utility.yul\":3085:3765   */\ntag_3:\n    /* \"#utility.yul\":3174:3180   */\n  0x00\n    /* \"#utility.yul\":3182:3188   */\n  dup1\n    /* \"#utility.yul\":3231:3233   */\n  0x40\n    /* \"#utility.yul\":3219:3228   */\n  dup4\n    /* \"#utility.yul\":3210:3217   */\n  dup6\n    /* \"#utility.yul\":3206:3229   */\n  sub\n    /* \"#utility.yul\":3202:3234   */\n  slt\n    /* \"#utility.yul\":3199:3318   */\n  iszero\n  tag_81\n  jumpi\n    /* \"#utility.yul\":3237:3316   */\n  tag_82\n  tag_23\n  jump\t// in\ntag_82:\n    /* \"#utility.yul\":3199:3318   */\ntag_81:\n    /* \"#utility.yul\":3357:3358   */\n  0x00\n    /* \"#utility.yul\":3382:3446   */\n  tag_83\n    /* \"#utility.yul\":3438:3445   */\n  dup6\n    /* \"#utility.yul\":3429:3435   */\n  dup3\n    /* \"#utility.yul\":3418:3427   */\n  dup7\n    /* \"#utility.yul\":3414:3436   */\n  add\n    /* \"#utility.yul\":3382:3446   */\n  tag_27\n  jump\t// in\ntag_83:\n    /* \"#utility.yul\":3372:3446   */\n  swap3\n  pop\n    /* \"#utility.yul\":3328:3456   */\n  pop\n    /* \"#utility.yul\":3516:3518   */\n  0x20\n    /* \"#utility.yul\":3505:3514   */\n  dup4\n    /* \"#utility.yul\":3501:3519   */\n  add\n    /* \"#utility.yul\":3495:3520   */\n  mload\n    /* \"#utility.yul\":3547:3565   */\n  0xffffffffffffffff\n    /* \"#utility.yul\":3539:3545   */\n  dup2\n    /* \"#utility.yul\":3536:3566   */\n  gt\n    /* \"#utility.yul\":3533:3650   */\n  iszero\n  tag_84\n  jumpi\n    /* \"#utility.yul\":3569:3648   */\n  tag_85\n  tag_24\n  jump\t// in\ntag_85:\n    /* \"#utility.yul\":3533:3650   */\ntag_84:\n    /* \"#utility.yul\":3674:3748   */\n  tag_86\n    /* \"#utility.yul\":3740:3747   */\n  dup6\n    /* \"#utility.yul\":3731:3737   */\n  dup3\n    /* \"#utility.yul\":3720:3729   */\n  dup7\n    /* \"#utility.yul\":3716:3738   */\n  add\n    /* \"#utility.yul\":3674:3748   */\n  tag_37\n  jump\t// in\ntag_86:\n    /* \"#utility.yul\":3664:3748   */\n  swap2\n  pop\n    /* \"#utility.yul\":3466:3758   */\n  pop\n    /* \"#utility.yul\":3085:3765   */\n  swap3\n  pop\n  swap3\n  swap1\n  pop\n  jump\t// out\n    /* \"#utility.yul\":3771:3951   */\ntag_38:\n    /* \"#utility.yul\":3819:3896   */\n  0x4e487b7100000000000000000000000000000000000000000000000000000000\n    /* \"#utility.yul\":3816:3817   */\n  0x00\n    /* \"#utility.yul\":3809:3897   */\n  mstore\n    /* \"#utility.yul\":3916:3920   */\n  0x11\n    /* \"#utility.yul\":3913:3914   */\n  0x04\n    /* \"#utility.yul\":3906:3921   */\n  mstore\n    /* \"#utility.yul\":3940:3944   */\n  0x24\n    /* \"#utility.yul\":3937:3938   */\n  0x00\n    /* \"#utility.yul\":3930:3945   */\n  revert\n    /* \"#utility.yul\":3957:4305   */\ntag_7:\n    /* \"#utility.yul\":3997:4004   */\n  0x00\n    /* \"#utility.yul\":4020:4040   */\n  tag_89\n    /* \"#utility.yul\":4038:4039   */\n  dup3\n    /* \"#utility.yul\":4020:4040   */\n  tag_25\n  jump\t// in\ntag_89:\n    /* \"#utility.yul\":4015:4040   */\n  swap2\n  pop\n    /* \"#utility.yul\":4054:4074   */\n  tag_90\n    /* \"#utility.yul\":4072:4073   */\n  dup4\n    /* \"#utility.yul\":4054:4074   */\n  tag_25\n  jump\t// in\ntag_90:\n    /* \"#utility.yul\":4049:4074   */\n  swap3\n  pop\n    /* \"#utility.yul\":4242:4243   */\n  dup2\n    /* \"#utility.yul\":4174:4240   */\n  0xffffffffffffffffffffffffffffffffffffffffffffffffffffffffffffffff\n    /* \"#utility.yul\":4170:4244   */\n  div\n    /* \"#utility.yul\":4167:4168   */\n  dup4\n    /* \"#utility.yul\":4164:4245   */\n  gt\n    /* \"#utility.yul\":4159:4160   */\n  dup3\n    /* \"#utility.yul\":4152:4161   */\n  iszero\n    /* \"#utility.yul\":4145:4162   */\n  iszero\n    /* \"#utility.yul\":4141:4246   */\n  and\n    /* \"#utility.yul\":4138:4269   */\n  iszero\n  tag_91\n  jumpi\n    /* \"#utility.yul\":4249:4267   */\n  tag_92\n  tag_38\n  jump\t// in\ntag_92:\n    /* \"#utility.yul\":4138:4269   */\ntag_91:\n    /* \"#utility.yul\":4297:4298   */\n  dup3\n    /* \"#utility.yul\":4294:4295   */\n  dup3\n    /* \"#utility.yul\":4290:4299   */\n  mul\n    /* \"#utility.yul\":4279:4299   */\n  swap1\n  pop\n    /* \"#utility.yul\":3957:4305   */\n  swap3\n  swap2\n  pop\n  pop\n  jump\t// out\n    /* \"#utility.yul\":4311:4491   */\ntag_39:\n    /* \"#utility.yul\":4359:4436   */\n  0x4e487b7100000000000000000000000000000000000000000000000000000000\n    /* \"#utility.yul\":4356:4357   */\n  0x00\n    /* \"#utility.yul\":4349:4437   */\n  mstore\n    /* \"#utility.yul\":4456:4460   */\n  0x22\n    /* \"#utility.yul\":4453:4454   */\n  0x04\n    /* \"#utility.yul\":4446:4461   */\n  mstore\n    /* \"#utility.yul\":4480:4484   */\n  0x24\n    /* \"#utility.yul\":4477:4478   */\n  0x00\n    /* \"#utility.yul\":4470:4485   */\n  revert\n    /* \"#utility.yul\":4497:4817   */\ntag_12:\n    /* \"#utility.yul\":4541:4547   */\n  0x00\n    /* \"#utility.yul\":4578:4579   */\n  0x02\n    /* \"#utility.yul\":4572:4576   */\n  dup3\n    /* \"#utility.yul\":4568:4580   */\n  div\n    /* \"#utility.yul\":4558:4580   */\n  swap1\n  pop\n    /* \"#utility.yul\":4625:4626   */\n  0x01\n    /* \"#utility.yul\":4619:4623   */\n  dup3\n    /* \"#utility.yul\":4615:4627   */\n  and\n    /* \"#utility.yul\":4646:4664   */\n  dup1\n    /* \"#utility.yul\":4636:4717   */\n  tag_95\n  jumpi\n    /* \"#utility.yul\":4702:4706   */\n  0x7f\n    /* \"#utility.yul\":4694:4700   */\n  dup3\n    /* \"#utility.yul\":4690:4707   */\n  and\n    /* \"#utility.yul\":4680:4707   */\n  swap2\n  pop\n    /* \"#utility.yul\":4636:4717   */\ntag_95:\n    /* \"#utility.yul\":4764:4766   */\n  0x20\n    /* \"#utility.yul\":4756:4762   */\n  dup3\n    /* \"#utility.yul\":4753:4767   */\n  lt\n    /* \"#utility.yul\":4733:4751   */\n  dup2\n    /* \"#utility.yul\":4730:4768   */\n  sub\n    /* \"#utility.yul\":4727:4811   */\n  tag_96\n  jumpi\n    /* \"#utility.yul\":4783:4801   */\n  tag_97\n  tag_39\n  jump\t// in\ntag_97:\n    /* \"#utility.yul\":4727:4811   */\ntag_96:\n    /* \"#utility.yul\":4548:4817   */\n  pop\n    /* \"#utility.yul\":4497:4817   */\n  swap2\n  swap1\n  pop\n  jump\t// out\n    /* \"contracts/myContract.sol\":76:2019  contract testContract {... */\ntag_10:\n  dataSize(sub_0)\n  dup1\n  dataOffset(sub_0)\n  0x00\n  codecopy\n  0x00\n  return\nstop\n\nsub_0: assembly {\n        /* \"contracts/myContract.sol\":76:2019  contract testContract {... */\n      mstore(0x40, 0x80)\n      jumpi(tag_1, lt(calldatasize, 0x04))\n      shr(0xe0, calldataload(0x00))\n      dup1\n      0x0aa0a175\n      eq\n      tag_3\n      jumpi\n      dup1\n      0x2443877c\n      eq\n      tag_4\n      jumpi\n      dup1\n      0x534844a2\n      eq\n      tag_5\n      jumpi\n      dup1\n      0x82d69b62\n      eq\n      tag_6\n      jumpi\n      dup1\n      0x95961f05\n      eq\n      tag_7\n      jumpi\n      dup1\n      0xbe291999\n      eq\n      tag_8\n      jumpi\n      jump(tag_2)\n    tag_1:\n      jumpi(tag_2, calldatasize)\n        /* \"contracts/myContract.sol\":1943:1958  subscriptionFee */\n      sload(0x05)\n        /* \"contracts/myContract.sol\":1929:1938  msg.value */\n      callvalue\n        /* \"contracts/myContract.sol\":1929:1958  msg.value ==  subscriptionFee */\n      eq\n        /* \"contracts/myContract.sol\":1920:2006  require( msg.value ==  subscriptionFee , \"Payment should be the subscription fee\"    ) */\n      tag_11\n      jumpi\n      mload(0x40)\n      0x08c379a000000000000000000000000000000000000000000000000000000000\n      dup2\n      mstore\n      0x04\n      add\n      tag_12\n      swap1\n      tag_13\n      jump\t// in\n    tag_12:\n      mload(0x40)\n      dup1\n      swap2\n      sub\n      swap1\n      revert\n    tag_11:\n        /* \"contracts/myContract.sol\":76:2019  contract testContract {... */\n      stop\n    tag_2:\n        /* \"contracts/myContract.sol\":1804:1819  subscriptionFee */\n      sload(0x05)\n        /* \"contracts/myContract.sol\":1790:1799  msg.value */\n      callvalue\n        /* \"contracts/myContract.sol\":1790:1819  msg.value ==  subscriptionFee */\n      eq\n        /* \"contracts/myContract.sol\":1781:1867  require( msg.value ==  subscriptionFee , \"Payment should be the subscription fee\"    ) */\n      tag_16\n      jumpi\n      mload(0x40)\n      0x08c379a000000000000000000000000000000000000000000000000000000000\n      dup2\n      mstore\n      0x04\n      add\n      tag_17\n      swap1\n      tag_13\n      jump\t// in\n    tag_17:\n      mload(0x40)\n      dup1\n      swap2\n      sub\n      swap1\n      revert\n    tag_16:\n        /* \"contracts/myContract.sol\":76:2019  contract testContract {... */\n      stop\n        /* \"contracts/myContract.sol\":479:506  uint public subscriptionFee */\n    tag_3:\n      callvalue\n      dup1\n      iszero\n      tag_18\n      jumpi\n      0x00\n      dup1\n      revert\n    tag_18:\n      pop\n      tag_19\n      tag_20\n      jump\t// in\n    tag_19:\n      mload(0x40)\n      tag_21\n      swap2\n      swap1\n      tag_22\n      jump\t// in\n    tag_21:\n      mload(0x40)\n      dup1\n      swap2\n      sub\n      swap1\n      return\n        /* \"contracts/myContract.sol\":513:538  string public channelName */\n    tag_4:\n      callvalue\n      dup1\n      iszero\n      tag_23\n      jumpi\n      0x00\n      dup1\n      revert\n    tag_23:\n      pop\n      tag_24\n      tag_25\n      jump\t// in\n    tag_24:\n      mload(0x40)\n      tag_26\n      swap2\n      swap1\n      tag_27\n      jump\t// in\n    tag_26:\n      mload(0x40)\n      dup1\n      swap2\n      sub\n      swap1\n      return\n        /* \"contracts/myContract.sol\":1224:1331  function withdrawAmount() payable public onlyOwner{... */\n    tag_5:\n      tag_28\n      tag_29\n      jump\t// in\n    tag_28:\n      stop\n        /* \"contracts/myContract.sol\":1339:1612  function printSubscribersList() public onlyOwner view returns(address[] memory){... */\n    tag_6:\n      callvalue\n      dup1\n      iszero\n      tag_30\n      jumpi\n      0x00\n      dup1\n      revert\n    tag_30:\n      pop\n      tag_31\n      tag_32\n      jump\t// in\n    tag_31:\n      mload(0x40)\n      tag_33\n      swap2\n      swap1\n      tag_34\n      jump\t// in\n    tag_33:\n      mload(0x40)\n      dup1\n      swap2\n      sub\n      swap1\n      return\n        /* \"contracts/myContract.sol\":1620:1735  function publishArticle(string memory _articleTitle, string memory _articleCID) payable public onlyOwner {... */\n    tag_7:\n      tag_35\n      0x04\n      dup1\n      calldatasize\n      sub\n      dup2\n      add\n      swap1\n      tag_36\n      swap2\n      swap1\n      tag_37\n      jump\t// in\n    tag_36:\n      tag_38\n      jump\t// in\n    tag_35:\n      stop\n        /* \"contracts/myContract.sol\":1036:1216  function addSubscriber() public payable{... */\n    tag_8:\n      tag_39\n      tag_40\n      jump\t// in\n    tag_39:\n      stop\n        /* \"contracts/myContract.sol\":479:506  uint public subscriptionFee */\n    tag_20:\n      sload(0x05)\n      dup2\n      jump\t// out\n        /* \"contracts/myContract.sol\":513:538  string public channelName */\n    tag_25:\n      0x06\n      dup1\n      sload\n      tag_41\n      swap1\n      tag_42\n      jump\t// in\n    tag_41:\n      dup1\n      0x1f\n      add\n      0x20\n      dup1\n      swap2\n      div\n      mul\n      0x20\n      add\n      mload(0x40)\n      swap1\n      dup2\n      add\n      0x40\n      mstore\n      dup1\n      swap3\n      swap2\n      swap1\n      dup2\n      dup2\n      mstore\n      0x20\n      add\n      dup3\n      dup1\n      sload\n      tag_43\n      swap1\n      tag_42\n      jump\t// in\n    tag_43:\n      dup1\n      iszero\n      tag_44\n      jumpi\n      dup1\n      0x1f\n      lt\n      tag_45\n      jumpi\n      0x0100\n      dup1\n      dup4\n      sload\n      div\n      mul\n      dup4\n      mstore\n      swap2\n      0x20\n      add\n      swap2\n      jump(tag_44)\n    tag_45:\n      dup3\n      add\n      swap2\n      swap1\n      0x00\n      mstore\n      keccak256(0x00, 0x20)\n      swap1\n    tag_46:\n      dup2\n      sload\n      dup2\n      mstore\n      swap1\n      0x01\n      add\n      swap1\n      0x20\n      add\n      dup1\n      dup4\n      gt\n      tag_46\n      jumpi\n      dup3\n      swap1\n      sub\n      0x1f\n      and\n      dup3\n      add\n      swap2\n    tag_44:\n      pop\n      pop\n      pop\n      pop\n      pop\n      dup2\n      jump\t// out\n        /* \"contracts/myContract.sol\":1224:1331  function withdrawAmount() payable public onlyOwner{... */\n    tag_29:\n        /* \"contracts/myContract.sol\":601:607  author */\n      0x04\n      0x00\n      swap1\n      sload\n      swap1\n      0x0100\n      exp\n      swap1\n      div\n      0xffffffffffffffffffffffffffffffffffffffff\n      and\n        /* \"contracts/myContract.sol\":587:607  msg.sender == author */\n      0xffffffffffffffffffffffffffffffffffffffff\n      and\n        /* \"contracts/myContract.sol\":587:597  msg.sender */\n      caller\n        /* \"contracts/myContract.sol\":587:607  msg.sender == author */\n      0xffffffffffffffffffffffffffffffffffffffff\n      and\n      eq\n        /* \"contracts/myContract.sol\":579:645  require(msg.sender == author, \"Only author can call this method!\") */\n      tag_48\n      jumpi\n      mload(0x40)\n      0x08c379a000000000000000000000000000000000000000000000000000000000\n      dup2\n      mstore\n      0x04\n      add\n      tag_49\n      swap1\n      tag_50\n      jump\t// in\n    tag_49:\n      mload(0x40)\n      dup1\n      swap2\n      sub\n      swap1\n      revert\n    tag_48:\n        /* \"contracts/myContract.sol\":1285:1291  author */\n      0x04\n      0x00\n      swap1\n      sload\n      swap1\n      0x0100\n      exp\n      swap1\n      div\n      0xffffffffffffffffffffffffffffffffffffffff\n      and\n        /* \"contracts/myContract.sol\":1285:1300  author.transfer */\n      0xffffffffffffffffffffffffffffffffffffffff\n      and\n        /* \"contracts/myContract.sol\":1285:1323  author.transfer(address(this).balance) */\n      0x08fc\n        /* \"contracts/myContract.sol\":1301:1322  address(this).balance */\n      selfbalance\n        /* \"contracts/myContract.sol\":1285:1323  author.transfer(address(this).balance) */\n      swap1\n      dup2\n      iszero\n      mul\n      swap1\n      mload(0x40)\n      0x00\n      mload(0x40)\n      dup1\n      dup4\n      sub\n      dup2\n      dup6\n      dup9\n      dup9\n      call\n      swap4\n      pop\n      pop\n      pop\n      pop\n      iszero\n      dup1\n      iszero\n      tag_53\n      jumpi\n      returndatasize\n      0x00\n      dup1\n      returndatacopy\n      revert(0x00, returndatasize)\n    tag_53:\n      pop\n        /* \"contracts/myContract.sol\":1224:1331  function withdrawAmount() payable public onlyOwner{... */\n      jump\t// out\n        /* \"contracts/myContract.sol\":1339:1612  function printSubscribersList() public onlyOwner view returns(address[] memory){... */\n    tag_32:\n        /* \"contracts/myContract.sol\":1401:1417  address[] memory */\n      0x60\n        /* \"contracts/myContract.sol\":601:607  author */\n      0x04\n      0x00\n      swap1\n      sload\n      swap1\n      0x0100\n      exp\n      swap1\n      div\n      0xffffffffffffffffffffffffffffffffffffffff\n      and\n        /* \"contracts/myContract.sol\":587:607  msg.sender == author */\n      0xffffffffffffffffffffffffffffffffffffffff\n      and\n        /* \"contracts/myContract.sol\":587:597  msg.sender */\n      caller\n        /* \"contracts/myContract.sol\":587:607  msg.sender == author */\n      0xffffffffffffffffffffffffffffffffffffffff\n      and\n      eq\n        /* \"contracts/myContract.sol\":579:645  require(msg.sender == author, \"Only author can call this method!\") */\n      tag_55\n      jumpi\n      mload(0x40)\n      0x08c379a000000000000000000000000000000000000000000000000000000000\n      dup2\n      mstore\n      0x04\n      add\n      tag_56\n      swap1\n      tag_50\n      jump\t// in\n    tag_56:\n      mload(0x40)\n      dup1\n      swap2\n      sub\n      swap1\n      revert\n    tag_55:\n        /* \"contracts/myContract.sol\":1429:1449  address[] memory ret */\n      0x00\n        /* \"contracts/myContract.sol\":1466:1481  subscriberCount */\n      sload(0x01)\n        /* \"contracts/myContract.sol\":1452:1482  new address[](subscriberCount) */\n      0xffffffffffffffff\n      dup2\n      gt\n      iszero\n      tag_58\n      jumpi\n      tag_59\n      tag_60\n      jump\t// in\n    tag_59:\n    tag_58:\n      mload(0x40)\n      swap1\n      dup1\n      dup3\n      mstore\n      dup1\n      0x20\n      mul\n      0x20\n      add\n      dup3\n      add\n      0x40\n      mstore\n      dup1\n      iszero\n      tag_61\n      jumpi\n      dup2\n      0x20\n      add\n      0x20\n      dup3\n      mul\n      dup1\n      calldatasize\n      dup4\n      calldatacopy\n      dup1\n      dup3\n      add\n      swap2\n      pop\n      pop\n      swap1\n      pop\n    tag_61:\n      pop\n        /* \"contracts/myContract.sol\":1429:1482  address[] memory ret = new address[](subscriberCount) */\n      swap1\n      pop\n        /* \"contracts/myContract.sol\":1497:1503  uint i */\n      0x00\n        /* \"contracts/myContract.sol\":1493:1584  for(uint i = 0; i < subscriberCount; i++){... */\n    tag_62:\n        /* \"contracts/myContract.sol\":1513:1528  subscriberCount */\n      sload(0x01)\n        /* \"contracts/myContract.sol\":1509:1510  i */\n      dup2\n        /* \"contracts/myContract.sol\":1509:1528  i < subscriberCount */\n      lt\n        /* \"contracts/myContract.sol\":1493:1584  for(uint i = 0; i < subscriberCount; i++){... */\n      iszero\n      tag_63\n      jumpi\n        /* \"contracts/myContract.sol\":1558:1569  subscribers */\n      0x00\n        /* \"contracts/myContract.sol\":1558:1572  subscribers[i] */\n      dup1\n        /* \"contracts/myContract.sol\":1570:1571  i */\n      dup3\n        /* \"contracts/myContract.sol\":1558:1572  subscribers[i] */\n      dup2\n      mstore\n      0x20\n      add\n      swap1\n      dup2\n      mstore\n      0x20\n      add\n      0x00\n      keccak256\n      0x00\n      swap1\n      sload\n      swap1\n      0x0100\n      exp\n      swap1\n      div\n      0xffffffffffffffffffffffffffffffffffffffff\n      and\n        /* \"contracts/myContract.sol\":1549:1552  ret */\n      dup3\n        /* \"contracts/myContract.sol\":1553:1554  i */\n      dup3\n        /* \"contracts/myContract.sol\":1549:1555  ret[i] */\n      dup2\n      mload\n      dup2\n      lt\n      tag_65\n      jumpi\n      tag_66\n      tag_67\n      jump\t// in\n    tag_66:\n    tag_65:\n      0x20\n      mul\n      0x20\n      add\n      add\n        /* \"contracts/myContract.sol\":1549:1572  ret[i] = subscribers[i] */\n      swap1\n      0xffffffffffffffffffffffffffffffffffffffff\n      and\n      swap1\n      dup2\n      0xffffffffffffffffffffffffffffffffffffffff\n      and\n      dup2\n      mstore\n      pop\n      pop\n        /* \"contracts/myContract.sol\":1530:1533  i++ */\n      dup1\n      dup1\n      tag_68\n      swap1\n      tag_69\n      jump\t// in\n    tag_68:\n      swap2\n      pop\n      pop\n        /* \"contracts/myContract.sol\":1493:1584  for(uint i = 0; i < subscriberCount; i++){... */\n      jump(tag_62)\n    tag_63:\n      pop\n        /* \"contracts/myContract.sol\":1601:1604  ret */\n      dup1\n        /* \"contracts/myContract.sol\":1594:1604  return ret */\n      swap2\n      pop\n      pop\n        /* \"contracts/myContract.sol\":1339:1612  function printSubscribersList() public onlyOwner view returns(address[] memory){... */\n      swap1\n      jump\t// out\n        /* \"contracts/myContract.sol\":1620:1735  function publishArticle(string memory _articleTitle, string memory _articleCID) payable public onlyOwner {... */\n    tag_38:\n        /* \"contracts/myContract.sol\":601:607  author */\n      0x04\n      0x00\n      swap1\n      sload\n      swap1\n      0x0100\n      exp\n      swap1\n      div\n      0xffffffffffffffffffffffffffffffffffffffff\n      and\n        /* \"contracts/myContract.sol\":587:607  msg.sender == author */\n      0xffffffffffffffffffffffffffffffffffffffff\n      and\n        /* \"contracts/myContract.sol\":587:597  msg.sender */\n      caller\n        /* \"contracts/myContract.sol\":587:607  msg.sender == author */\n      0xffffffffffffffffffffffffffffffffffffffff\n      and\n      eq\n        /* \"contracts/myContract.sol\":579:645  require(msg.sender == author, \"Only author can call this method!\") */\n      tag_71\n      jumpi\n      mload(0x40)\n      0x08c379a000000000000000000000000000000000000000000000000000000000\n      dup2\n      mstore\n      0x04\n      add\n      tag_72\n      swap1\n      tag_50\n      jump\t// in\n    tag_72:\n      mload(0x40)\n      dup1\n      swap2\n      sub\n      swap1\n      revert\n    tag_71:\n        /* \"contracts/myContract.sol\":1620:1735  function publishArticle(string memory _articleTitle, string memory _articleCID) payable public onlyOwner {... */\n      pop\n      pop\n      jump\t// out\n        /* \"contracts/myContract.sol\":1036:1216  function addSubscriber() public payable{... */\n    tag_40:\n        /* \"contracts/myContract.sol\":1117:1127  msg.sender */\n      caller\n        /* \"contracts/myContract.sol\":1086:1097  subscribers */\n      0x00\n        /* \"contracts/myContract.sol\":1086:1114  subscribers[subscriberCount] */\n      dup1\n        /* \"contracts/myContract.sol\":1098:1113  subscriberCount */\n      sload(0x01)\n        /* \"contracts/myContract.sol\":1086:1114  subscribers[subscriberCount] */\n      dup2\n      mstore\n      0x20\n      add\n      swap1\n      dup2\n      mstore\n      0x20\n      add\n      0x00\n      keccak256\n      0x00\n        /* \"contracts/myContract.sol\":1086:1127  subscribers[subscriberCount] = msg.sender */\n      0x0100\n      exp\n      dup2\n      sload\n      dup2\n      0xffffffffffffffffffffffffffffffffffffffff\n      mul\n      not\n      and\n      swap1\n      dup4\n      0xffffffffffffffffffffffffffffffffffffffff\n      and\n      mul\n      or\n      swap1\n      sstore\n      pop\n        /* \"contracts/myContract.sol\":1138:1153  subscriberCount */\n      0x01\n      0x00\n        /* \"contracts/myContract.sol\":1138:1155  subscriberCount++ */\n      dup2\n      sload\n      dup1\n      swap3\n      swap2\n      swap1\n      tag_75\n      swap1\n      tag_69\n      jump\t// in\n    tag_75:\n      swap2\n      swap1\n      pop\n      sstore\n      pop\n        /* \"contracts/myContract.sol\":1182:1186  this */\n      address\n        /* \"contracts/myContract.sol\":1166:1197  payable(address(this)).transfer */\n      0xffffffffffffffffffffffffffffffffffffffff\n      and\n        /* \"contracts/myContract.sol\":1166:1208  payable(address(this)).transfer(msg.value) */\n      0x08fc\n        /* \"contracts/myContract.sol\":1198:1207  msg.value */\n      callvalue\n        /* \"contracts/myContract.sol\":1166:1208  payable(address(this)).transfer(msg.value) */\n      swap1\n      dup2\n      iszero\n      mul\n      swap1\n      mload(0x40)\n      0x00\n      mload(0x40)\n      dup1\n      dup4\n      sub\n      dup2\n      dup6\n      dup9\n      dup9\n      call\n      swap4\n      pop\n      pop\n      pop\n      pop\n      iszero\n      dup1\n      iszero\n      tag_77\n      jumpi\n      returndatasize\n      0x00\n      dup1\n      returndatacopy\n      revert(0x00, returndatasize)\n    tag_77:\n      pop\n        /* \"contracts/myContract.sol\":1036:1216  function addSubscriber() public payable{... */\n      jump\t// out\n        /* \"#utility.yul\":7:176   */\n    tag_78:\n        /* \"#utility.yul\":91:102   */\n      0x00\n        /* \"#utility.yul\":125:131   */\n      dup3\n        /* \"#utility.yul\":120:123   */\n      dup3\n        /* \"#utility.yul\":113:132   */\n      mstore\n        /* \"#utility.yul\":165:169   */\n      0x20\n        /* \"#utility.yul\":160:163   */\n      dup3\n        /* \"#utility.yul\":156:170   */\n      add\n        /* \"#utility.yul\":141:170   */\n      swap1\n      pop\n        /* \"#utility.yul\":7:176   */\n      swap3\n      swap2\n      pop\n      pop\n      jump\t// out\n        /* \"#utility.yul\":182:407   */\n    tag_79:\n        /* \"#utility.yul\":322:356   */\n      0x5061796d656e742073686f756c64206265207468652073756273637269707469\n        /* \"#utility.yul\":318:319   */\n      0x00\n        /* \"#utility.yul\":310:316   */\n      dup3\n        /* \"#utility.yul\":306:320   */\n      add\n        /* \"#utility.yul\":299:357   */\n      mstore\n        /* \"#utility.yul\":391:399   */\n      0x6f6e206665650000000000000000000000000000000000000000000000000000\n        /* \"#utility.yul\":386:388   */\n      0x20\n        /* \"#utility.yul\":378:384   */\n      dup3\n        /* \"#utility.yul\":374:389   */\n      add\n        /* \"#utility.yul\":367:400   */\n      mstore\n        /* \"#utility.yul\":182:407   */\n      pop\n      jump\t// out\n        /* \"#utility.yul\":413:779   */\n    tag_80:\n        /* \"#utility.yul\":555:558   */\n      0x00\n        /* \"#utility.yul\":576:643   */\n      tag_115\n        /* \"#utility.yul\":640:642   */\n      0x26\n        /* \"#utility.yul\":635:638   */\n      dup4\n        /* \"#utility.yul\":576:643   */\n      tag_78\n      jump\t// in\n    tag_115:\n        /* \"#utility.yul\":569:643   */\n      swap2\n      pop\n        /* \"#utility.yul\":652:745   */\n      tag_116\n        /* \"#utility.yul\":741:744   */\n      dup3\n        /* \"#utility.yul\":652:745   */\n      tag_79\n      jump\t// in\n    tag_116:\n        /* \"#utility.yul\":770:772   */\n      0x40\n        /* \"#utility.yul\":765:768   */\n      dup3\n        /* \"#utility.yul\":761:773   */\n      add\n        /* \"#utility.yul\":754:773   */\n      swap1\n      pop\n        /* \"#utility.yul\":413:779   */\n      swap2\n      swap1\n      pop\n      jump\t// out\n        /* \"#utility.yul\":785:1204   */\n    tag_13:\n        /* \"#utility.yul\":951:955   */\n      0x00\n        /* \"#utility.yul\":989:991   */\n      0x20\n        /* \"#utility.yul\":978:987   */\n      dup3\n        /* \"#utility.yul\":974:992   */\n      add\n        /* \"#utility.yul\":966:992   */\n      swap1\n      pop\n        /* \"#utility.yul\":1038:1047   */\n      dup2\n        /* \"#utility.yul\":1032:1036   */\n      dup2\n        /* \"#utility.yul\":1028:1048   */\n      sub\n        /* \"#utility.yul\":1024:1025   */\n      0x00\n        /* \"#utility.yul\":1013:1022   */\n      dup4\n        /* \"#utility.yul\":1009:1026   */\n      add\n        /* \"#utility.yul\":1002:1049   */\n      mstore\n        /* \"#utility.yul\":1066:1197   */\n      tag_118\n        /* \"#utility.yul\":1192:1196   */\n      dup2\n        /* \"#utility.yul\":1066:1197   */\n      tag_80\n      jump\t// in\n    tag_118:\n        /* \"#utility.yul\":1058:1197   */\n      swap1\n      pop\n        /* \"#utility.yul\":785:1204   */\n      swap2\n      swap1\n      pop\n      jump\t// out\n        /* \"#utility.yul\":1210:1287   */\n    tag_81:\n        /* \"#utility.yul\":1247:1254   */\n      0x00\n        /* \"#utility.yul\":1276:1281   */\n      dup2\n        /* \"#utility.yul\":1265:1281   */\n      swap1\n      pop\n        /* \"#utility.yul\":1210:1287   */\n      swap2\n      swap1\n      pop\n      jump\t// out\n        /* \"#utility.yul\":1293:1411   */\n    tag_82:\n        /* \"#utility.yul\":1380:1404   */\n      tag_121\n        /* \"#utility.yul\":1398:1403   */\n      dup2\n        /* \"#utility.yul\":1380:1404   */\n      tag_81\n      jump\t// in\n    tag_121:\n        /* \"#utility.yul\":1375:1378   */\n      dup3\n        /* \"#utility.yul\":1368:1405   */\n      mstore\n        /* \"#utility.yul\":1293:1411   */\n      pop\n      pop\n      jump\t// out\n        /* \"#utility.yul\":1417:1639   */\n    tag_22:\n        /* \"#utility.yul\":1510:1514   */\n      0x00\n        /* \"#utility.yul\":1548:1550   */\n      0x20\n        /* \"#utility.yul\":1537:1546   */\n      dup3\n        /* \"#utility.yul\":1533:1551   */\n      add\n        /* \"#utility.yul\":1525:1551   */\n      swap1\n      pop\n        /* \"#utility.yul\":1561:1632   */\n      tag_123\n        /* \"#utility.yul\":1629:1630   */\n      0x00\n        /* \"#utility.yul\":1618:1627   */\n      dup4\n        /* \"#utility.yul\":1614:1631   */\n      add\n        /* \"#utility.yul\":1605:1611   */\n      dup5\n        /* \"#utility.yul\":1561:1632   */\n      tag_82\n      jump\t// in\n    tag_123:\n        /* \"#utility.yul\":1417:1639   */\n      swap3\n      swap2\n      pop\n      pop\n      jump\t// out\n        /* \"#utility.yul\":1645:1744   */\n    tag_83:\n        /* \"#utility.yul\":1697:1703   */\n      0x00\n        /* \"#utility.yul\":1731:1736   */\n      dup2\n        /* \"#utility.yul\":1725:1737   */\n      mload\n        /* \"#utility.yul\":1715:1737   */\n      swap1\n      pop\n        /* \"#utility.yul\":1645:1744   */\n      swap2\n      swap1\n      pop\n      jump\t// out\n        /* \"#utility.yul\":1750:2057   */\n    tag_84:\n        /* \"#utility.yul\":1818:1819   */\n      0x00\n        /* \"#utility.yul\":1828:1941   */\n    tag_126:\n        /* \"#utility.yul\":1842:1848   */\n      dup4\n        /* \"#utility.yul\":1839:1840   */\n      dup2\n        /* \"#utility.yul\":1836:1849   */\n      lt\n        /* \"#utility.yul\":1828:1941   */\n      iszero\n      tag_128\n      jumpi\n        /* \"#utility.yul\":1927:1928   */\n      dup1\n        /* \"#utility.yul\":1922:1925   */\n      dup3\n        /* \"#utility.yul\":1918:1929   */\n      add\n        /* \"#utility.yul\":1912:1930   */\n      mload\n        /* \"#utility.yul\":1908:1909   */\n      dup2\n        /* \"#utility.yul\":1903:1906   */\n      dup5\n        /* \"#utility.yul\":1899:1910   */\n      add\n        /* \"#utility.yul\":1892:1931   */\n      mstore\n        /* \"#utility.yul\":1864:1866   */\n      0x20\n        /* \"#utility.yul\":1861:1862   */\n      dup2\n        /* \"#utility.yul\":1857:1867   */\n      add\n        /* \"#utility.yul\":1852:1867   */\n      swap1\n      pop\n        /* \"#utility.yul\":1828:1941   */\n      jump(tag_126)\n    tag_128:\n        /* \"#utility.yul\":1959:1965   */\n      dup4\n        /* \"#utility.yul\":1956:1957   */\n      dup2\n        /* \"#utility.yul\":1953:1966   */\n      gt\n        /* \"#utility.yul\":1950:2051   */\n      iszero\n      tag_129\n      jumpi\n        /* \"#utility.yul\":2039:2040   */\n      0x00\n        /* \"#utility.yul\":2030:2036   */\n      dup5\n        /* \"#utility.yul\":2025:2028   */\n      dup5\n        /* \"#utility.yul\":2021:2037   */\n      add\n        /* \"#utility.yul\":2014:2041   */\n      mstore\n        /* \"#utility.yul\":1950:2051   */\n    tag_129:\n        /* \"#utility.yul\":1799:2057   */\n      pop\n        /* \"#utility.yul\":1750:2057   */\n      pop\n      pop\n      pop\n      jump\t// out\n        /* \"#utility.yul\":2063:2165   */\n    tag_85:\n        /* \"#utility.yul\":2104:2110   */\n      0x00\n        /* \"#utility.yul\":2155:2157   */\n      0x1f\n        /* \"#utility.yul\":2151:2158   */\n      not\n        /* \"#utility.yul\":2146:2148   */\n      0x1f\n        /* \"#utility.yul\":2139:2144   */\n      dup4\n        /* \"#utility.yul\":2135:2149   */\n      add\n        /* \"#utility.yul\":2131:2159   */\n      and\n        /* \"#utility.yul\":2121:2159   */\n      swap1\n      pop\n        /* \"#utility.yul\":2063:2165   */\n      swap2\n      swap1\n      pop\n      jump\t// out\n        /* \"#utility.yul\":2171:2535   */\n    tag_86:\n        /* \"#utility.yul\":2259:2262   */\n      0x00\n        /* \"#utility.yul\":2287:2326   */\n      tag_132\n        /* \"#utility.yul\":2320:2325   */\n      dup3\n        /* \"#utility.yul\":2287:2326   */\n      tag_83\n      jump\t// in\n    tag_132:\n        /* \"#utility.yul\":2342:2413   */\n      tag_133\n        /* \"#utility.yul\":2406:2412   */\n      dup2\n        /* \"#utility.yul\":2401:2404   */\n      dup6\n        /* \"#utility.yul\":2342:2413   */\n      tag_78\n      jump\t// in\n    tag_133:\n        /* \"#utility.yul\":2335:2413   */\n      swap4\n      pop\n        /* \"#utility.yul\":2422:2474   */\n      tag_134\n        /* \"#utility.yul\":2467:2473   */\n      dup2\n        /* \"#utility.yul\":2462:2465   */\n      dup6\n        /* \"#utility.yul\":2455:2459   */\n      0x20\n        /* \"#utility.yul\":2448:2453   */\n      dup7\n        /* \"#utility.yul\":2444:2460   */\n      add\n        /* \"#utility.yul\":2422:2474   */\n      tag_84\n      jump\t// in\n    tag_134:\n        /* \"#utility.yul\":2499:2528   */\n      tag_135\n        /* \"#utility.yul\":2521:2527   */\n      dup2\n        /* \"#utility.yul\":2499:2528   */\n      tag_85\n      jump\t// in\n    tag_135:\n        /* \"#utility.yul\":2494:2497   */\n      dup5\n        /* \"#utility.yul\":2490:2529   */\n      add\n        /* \"#utility.yul\":2483:2529   */\n      swap2\n      pop\n        /* \"#utility.yul\":2263:2535   */\n      pop\n        /* \"#utility.yul\":2171:2535   */\n      swap3\n      swap2\n      pop\n      pop\n      jump\t// out\n        /* \"#utility.yul\":2541:2854   */\n    tag_27:\n        /* \"#utility.yul\":2654:2658   */\n      0x00\n        /* \"#utility.yul\":2692:2694   */\n      0x20\n        /* \"#utility.yul\":2681:2690   */\n      dup3\n        /* \"#utility.yul\":2677:2695   */\n      add\n        /* \"#utility.yul\":2669:2695   */\n      swap1\n      pop\n        /* \"#utility.yul\":2741:2750   */\n      dup2\n        /* \"#utility.yul\":2735:2739   */\n      dup2\n        /* \"#utility.yul\":2731:2751   */\n      sub\n        /* \"#utility.yul\":2727:2728   */\n      0x00\n        /* \"#utility.yul\":2716:2725   */\n      dup4\n        /* \"#utility.yul\":2712:2729   */\n      add\n        /* \"#utility.yul\":2705:2752   */\n      mstore\n        /* \"#utility.yul\":2769:2847   */\n      tag_137\n        /* \"#utility.yul\":2842:2846   */\n      dup2\n        /* \"#utility.yul\":2833:2839   */\n      dup5\n        /* \"#utility.yul\":2769:2847   */\n      tag_86\n      jump\t// in\n    tag_137:\n        /* \"#utility.yul\":2761:2847   */\n      swap1\n      pop\n        /* \"#utility.yul\":2541:2854   */\n      swap3\n      swap2\n      pop\n      pop\n      jump\t// out\n        /* \"#utility.yul\":2860:2974   */\n    tag_87:\n        /* \"#utility.yul\":2927:2933   */\n      0x00\n        /* \"#utility.yul\":2961:2966   */\n      dup2\n        /* \"#utility.yul\":2955:2967   */\n      mload\n        /* \"#utility.yul\":2945:2967   */\n      swap1\n      pop\n        /* \"#utility.yul\":2860:2974   */\n      swap2\n      swap1\n      pop\n      jump\t// out\n        /* \"#utility.yul\":2980:3164   */\n    tag_88:\n        /* \"#utility.yul\":3079:3090   */\n      0x00\n        /* \"#utility.yul\":3113:3119   */\n      dup3\n        /* \"#utility.yul\":3108:3111   */\n      dup3\n        /* \"#utility.yul\":3101:3120   */\n      mstore\n        /* \"#utility.yul\":3153:3157   */\n      0x20\n        /* \"#utility.yul\":3148:3151   */\n      dup3\n        /* \"#utility.yul\":3144:3158   */\n      add\n        /* \"#utility.yul\":3129:3158   */\n      swap1\n      pop\n        /* \"#utility.yul\":2980:3164   */\n      swap3\n      swap2\n      pop\n      pop\n      jump\t// out\n        /* \"#utility.yul\":3170:3302   */\n    tag_89:\n        /* \"#utility.yul\":3237:3241   */\n      0x00\n        /* \"#utility.yul\":3260:3263   */\n      dup2\n        /* \"#utility.yul\":3252:3263   */\n      swap1\n      pop\n        /* \"#utility.yul\":3290:3294   */\n      0x20\n        /* \"#utility.yul\":3285:3288   */\n      dup3\n        /* \"#utility.yul\":3281:3295   */\n      add\n        /* \"#utility.yul\":3273:3295   */\n      swap1\n      pop\n        /* \"#utility.yul\":3170:3302   */\n      swap2\n      swap1\n      pop\n      jump\t// out\n        /* \"#utility.yul\":3308:3434   */\n    tag_90:\n        /* \"#utility.yul\":3345:3352   */\n      0x00\n        /* \"#utility.yul\":3385:3427   */\n      0xffffffffffffffffffffffffffffffffffffffff\n        /* \"#utility.yul\":3378:3383   */\n      dup3\n        /* \"#utility.yul\":3374:3428   */\n      and\n        /* \"#utility.yul\":3363:3428   */\n      swap1\n      pop\n        /* \"#utility.yul\":3308:3434   */\n      swap2\n      swap1\n      pop\n      jump\t// out\n        /* \"#utility.yul\":3440:3536   */\n    tag_91:\n        /* \"#utility.yul\":3477:3484   */\n      0x00\n        /* \"#utility.yul\":3506:3530   */\n      tag_143\n        /* \"#utility.yul\":3524:3529   */\n      dup3\n        /* \"#utility.yul\":3506:3530   */\n      tag_90\n      jump\t// in\n    tag_143:\n        /* \"#utility.yul\":3495:3530   */\n      swap1\n      pop\n        /* \"#utility.yul\":3440:3536   */\n      swap2\n      swap1\n      pop\n      jump\t// out\n        /* \"#utility.yul\":3542:3650   */\n    tag_92:\n        /* \"#utility.yul\":3619:3643   */\n      tag_145\n        /* \"#utility.yul\":3637:3642   */\n      dup2\n        /* \"#utility.yul\":3619:3643   */\n      tag_91\n      jump\t// in\n    tag_145:\n        /* \"#utility.yul\":3614:3617   */\n      dup3\n        /* \"#utility.yul\":3607:3644   */\n      mstore\n        /* \"#utility.yul\":3542:3650   */\n      pop\n      pop\n      jump\t// out\n        /* \"#utility.yul\":3656:3835   */\n    tag_93:\n        /* \"#utility.yul\":3725:3735   */\n      0x00\n        /* \"#utility.yul\":3746:3792   */\n      tag_147\n        /* \"#utility.yul\":3788:3791   */\n      dup4\n        /* \"#utility.yul\":3780:3786   */\n      dup4\n        /* \"#utility.yul\":3746:3792   */\n      tag_92\n      jump\t// in\n    tag_147:\n        /* \"#utility.yul\":3824:3828   */\n      0x20\n        /* \"#utility.yul\":3819:3822   */\n      dup4\n        /* \"#utility.yul\":3815:3829   */\n      add\n        /* \"#utility.yul\":3801:3829   */\n      swap1\n      pop\n        /* \"#utility.yul\":3656:3835   */\n      swap3\n      swap2\n      pop\n      pop\n      jump\t// out\n        /* \"#utility.yul\":3841:3954   */\n    tag_94:\n        /* \"#utility.yul\":3911:3915   */\n      0x00\n        /* \"#utility.yul\":3943:3947   */\n      0x20\n        /* \"#utility.yul\":3938:3941   */\n      dup3\n        /* \"#utility.yul\":3934:3948   */\n      add\n        /* \"#utility.yul\":3926:3948   */\n      swap1\n      pop\n        /* \"#utility.yul\":3841:3954   */\n      swap2\n      swap1\n      pop\n      jump\t// out\n        /* \"#utility.yul\":3990:4722   */\n    tag_95:\n        /* \"#utility.yul\":4109:4112   */\n      0x00\n        /* \"#utility.yul\":4138:4192   */\n      tag_150\n        /* \"#utility.yul\":4186:4191   */\n      dup3\n        /* \"#utility.yul\":4138:4192   */\n      tag_87\n      jump\t// in\n    tag_150:\n        /* \"#utility.yul\":4208:4294   */\n      tag_151\n        /* \"#utility.yul\":4287:4293   */\n      dup2\n        /* \"#utility.yul\":4282:4285   */\n      dup6\n        /* \"#utility.yul\":4208:4294   */\n      tag_88\n      jump\t// in\n    tag_151:\n        /* \"#utility.yul\":4201:4294   */\n      swap4\n      pop\n        /* \"#utility.yul\":4318:4374   */\n      tag_152\n        /* \"#utility.yul\":4368:4373   */\n      dup4\n        /* \"#utility.yul\":4318:4374   */\n      tag_89\n      jump\t// in\n    tag_152:\n        /* \"#utility.yul\":4397:4404   */\n      dup1\n        /* \"#utility.yul\":4428:4429   */\n      0x00\n        /* \"#utility.yul\":4413:4697   */\n    tag_153:\n        /* \"#utility.yul\":4438:4444   */\n      dup4\n        /* \"#utility.yul\":4435:4436   */\n      dup2\n        /* \"#utility.yul\":4432:4445   */\n      lt\n        /* \"#utility.yul\":4413:4697   */\n      iszero\n      tag_155\n      jumpi\n        /* \"#utility.yul\":4514:4520   */\n      dup2\n        /* \"#utility.yul\":4508:4521   */\n      mload\n        /* \"#utility.yul\":4541:4604   */\n      tag_156\n        /* \"#utility.yul\":4600:4603   */\n      dup9\n        /* \"#utility.yul\":4585:4598   */\n      dup3\n        /* \"#utility.yul\":4541:4604   */\n      tag_93\n      jump\t// in\n    tag_156:\n        /* \"#utility.yul\":4534:4604   */\n      swap8\n      pop\n        /* \"#utility.yul\":4627:4687   */\n      tag_157\n        /* \"#utility.yul\":4680:4686   */\n      dup4\n        /* \"#utility.yul\":4627:4687   */\n      tag_94\n      jump\t// in\n    tag_157:\n        /* \"#utility.yul\":4617:4687   */\n      swap3\n      pop\n        /* \"#utility.yul\":4473:4697   */\n      pop\n        /* \"#utility.yul\":4460:4461   */\n      0x01\n        /* \"#utility.yul\":4457:4458   */\n      dup2\n        /* \"#utility.yul\":4453:4462   */\n      add\n        /* \"#utility.yul\":4448:4462   */\n      swap1\n      pop\n        /* \"#utility.yul\":4413:4697   */\n      jump(tag_153)\n    tag_155:\n        /* \"#utility.yul\":4417:4431   */\n      pop\n        /* \"#utility.yul\":4713:4716   */\n      dup6\n        /* \"#utility.yul\":4706:4716   */\n      swap4\n      pop\n        /* \"#utility.yul\":4114:4722   */\n      pop\n      pop\n      pop\n        /* \"#utility.yul\":3990:4722   */\n      swap3\n      swap2\n      pop\n      pop\n      jump\t// out\n        /* \"#utility.yul\":4728:5101   */\n    tag_34:\n        /* \"#utility.yul\":4871:4875   */\n      0x00\n        /* \"#utility.yul\":4909:4911   */\n      0x20\n        /* \"#utility.yul\":4898:4907   */\n      dup3\n        /* \"#utility.yul\":4894:4912   */\n      add\n        /* \"#utility.yul\":4886:4912   */\n      swap1\n      pop\n        /* \"#utility.yul\":4958:4967   */\n      dup2\n        /* \"#utility.yul\":4952:4956   */\n      dup2\n        /* \"#utility.yul\":4948:4968   */\n      sub\n        /* \"#utility.yul\":4944:4945   */\n      0x00\n        /* \"#utility.yul\":4933:4942   */\n      dup4\n        /* \"#utility.yul\":4929:4946   */\n      add\n        /* \"#utility.yul\":4922:4969   */\n      mstore\n        /* \"#utility.yul\":4986:5094   */\n      tag_159\n        /* \"#utility.yul\":5089:5093   */\n      dup2\n        /* \"#utility.yul\":5080:5086   */\n      dup5\n        /* \"#utility.yul\":4986:5094   */\n      tag_95\n      jump\t// in\n    tag_159:\n        /* \"#utility.yul\":4978:5094   */\n      swap1\n      pop\n        /* \"#utility.yul\":4728:5101   */\n      swap3\n      swap2\n      pop\n      pop\n      jump\t// out\n        /* \"#utility.yul\":5107:5182   */\n    tag_96:\n        /* \"#utility.yul\":5140:5146   */\n      0x00\n        /* \"#utility.yul\":5173:5175   */\n      0x40\n        /* \"#utility.yul\":5167:5176   */\n      mload\n        /* \"#utility.yul\":5157:5176   */\n      swap1\n      pop\n        /* \"#utility.yul\":5107:5182   */\n      swap1\n      jump\t// out\n        /* \"#utility.yul\":5188:5305   */\n    tag_97:\n        /* \"#utility.yul\":5297:5298   */\n      0x00\n        /* \"#utility.yul\":5294:5295   */\n      dup1\n        /* \"#utility.yul\":5287:5299   */\n      revert\n        /* \"#utility.yul\":5311:5428   */\n    tag_98:\n        /* \"#utility.yul\":5420:5421   */\n      0x00\n        /* \"#utility.yul\":5417:5418   */\n      dup1\n        /* \"#utility.yul\":5410:5422   */\n      revert\n        /* \"#utility.yul\":5434:5551   */\n    tag_99:\n        /* \"#utility.yul\":5543:5544   */\n      0x00\n        /* \"#utility.yul\":5540:5541   */\n      dup1\n        /* \"#utility.yul\":5533:5545   */\n      revert\n        /* \"#utility.yul\":5557:5674   */\n    tag_100:\n        /* \"#utility.yul\":5666:5667   */\n      0x00\n        /* \"#utility.yul\":5663:5664   */\n      dup1\n        /* \"#utility.yul\":5656:5668   */\n      revert\n        /* \"#utility.yul\":5680:5860   */\n    tag_60:\n        /* \"#utility.yul\":5728:5805   */\n      0x4e487b7100000000000000000000000000000000000000000000000000000000\n        /* \"#utility.yul\":5725:5726   */\n      0x00\n        /* \"#utility.yul\":5718:5806   */\n      mstore\n        /* \"#utility.yul\":5825:5829   */\n      0x41\n        /* \"#utility.yul\":5822:5823   */\n      0x04\n        /* \"#utility.yul\":5815:5830   */\n      mstore\n        /* \"#utility.yul\":5849:5853   */\n      0x24\n        /* \"#utility.yul\":5846:5847   */\n      0x00\n        /* \"#utility.yul\":5839:5854   */\n      revert\n        /* \"#utility.yul\":5866:6147   */\n    tag_101:\n        /* \"#utility.yul\":5949:5976   */\n      tag_167\n        /* \"#utility.yul\":5971:5975   */\n      dup3\n        /* \"#utility.yul\":5949:5976   */\n      tag_85\n      jump\t// in\n    tag_167:\n        /* \"#utility.yul\":5941:5947   */\n      dup2\n        /* \"#utility.yul\":5937:5977   */\n      add\n        /* \"#utility.yul\":6079:6085   */\n      dup2\n        /* \"#utility.yul\":6067:6077   */\n      dup2\n        /* \"#utility.yul\":6064:6086   */\n      lt\n        /* \"#utility.yul\":6043:6061   */\n      0xffffffffffffffff\n        /* \"#utility.yul\":6031:6041   */\n      dup3\n        /* \"#utility.yul\":6028:6062   */\n      gt\n        /* \"#utility.yul\":6025:6087   */\n      or\n        /* \"#utility.yul\":6022:6110   */\n      iszero\n      tag_168\n      jumpi\n        /* \"#utility.yul\":6090:6108   */\n      tag_169\n      tag_60\n      jump\t// in\n    tag_169:\n        /* \"#utility.yul\":6022:6110   */\n    tag_168:\n        /* \"#utility.yul\":6130:6140   */\n      dup1\n        /* \"#utility.yul\":6126:6128   */\n      0x40\n        /* \"#utility.yul\":6119:6141   */\n      mstore\n        /* \"#utility.yul\":5909:6147   */\n      pop\n        /* \"#utility.yul\":5866:6147   */\n      pop\n      pop\n      jump\t// out\n        /* \"#utility.yul\":6153:6282   */\n    tag_102:\n        /* \"#utility.yul\":6187:6193   */\n      0x00\n        /* \"#utility.yul\":6214:6234   */\n      tag_171\n      tag_96\n      jump\t// in\n    tag_171:\n        /* \"#utility.yul\":6204:6234   */\n      swap1\n      pop\n        /* \"#utility.yul\":6243:6276   */\n      tag_172\n        /* \"#utility.yul\":6271:6275   */\n      dup3\n        /* \"#utility.yul\":6263:6269   */\n      dup3\n        /* \"#utility.yul\":6243:6276   */\n      tag_101\n      jump\t// in\n    tag_172:\n        /* \"#utility.yul\":6153:6282   */\n      swap2\n      swap1\n      pop\n      jump\t// out\n        /* \"#utility.yul\":6288:6596   */\n    tag_103:\n        /* \"#utility.yul\":6350:6354   */\n      0x00\n        /* \"#utility.yul\":6440:6458   */\n      0xffffffffffffffff\n        /* \"#utility.yul\":6432:6438   */\n      dup3\n        /* \"#utility.yul\":6429:6459   */\n      gt\n        /* \"#utility.yul\":6426:6482   */\n      iszero\n      tag_174\n      jumpi\n        /* \"#utility.yul\":6462:6480   */\n      tag_175\n      tag_60\n      jump\t// in\n    tag_175:\n        /* \"#utility.yul\":6426:6482   */\n    tag_174:\n        /* \"#utility.yul\":6500:6529   */\n      tag_176\n        /* \"#utility.yul\":6522:6528   */\n      dup3\n        /* \"#utility.yul\":6500:6529   */\n      tag_85\n      jump\t// in\n    tag_176:\n        /* \"#utility.yul\":6492:6529   */\n      swap1\n      pop\n        /* \"#utility.yul\":6584:6588   */\n      0x20\n        /* \"#utility.yul\":6578:6582   */\n      dup2\n        /* \"#utility.yul\":6574:6589   */\n      add\n        /* \"#utility.yul\":6566:6589   */\n      swap1\n      pop\n        /* \"#utility.yul\":6288:6596   */\n      swap2\n      swap1\n      pop\n      jump\t// out\n        /* \"#utility.yul\":6602:6756   */\n    tag_104:\n        /* \"#utility.yul\":6686:6692   */\n      dup3\n        /* \"#utility.yul\":6681:6684   */\n      dup2\n        /* \"#utility.yul\":6676:6679   */\n      dup4\n        /* \"#utility.yul\":6663:6693   */\n      calldatacopy\n        /* \"#utility.yul\":6748:6749   */\n      0x00\n        /* \"#utility.yul\":6739:6745   */\n      dup4\n        /* \"#utility.yul\":6734:6737   */\n      dup4\n        /* \"#utility.yul\":6730:6746   */\n      add\n        /* \"#utility.yul\":6723:6750   */\n      mstore\n        /* \"#utility.yul\":6602:6756   */\n      pop\n      pop\n      pop\n      jump\t// out\n        /* \"#utility.yul\":6762:7174   */\n    tag_105:\n        /* \"#utility.yul\":6840:6845   */\n      0x00\n        /* \"#utility.yul\":6865:6931   */\n      tag_179\n        /* \"#utility.yul\":6881:6930   */\n      tag_180\n        /* \"#utility.yul\":6923:6929   */\n      dup5\n        /* \"#utility.yul\":6881:6930   */\n      tag_103\n      jump\t// in\n    tag_180:\n        /* \"#utility.yul\":6865:6931   */\n      tag_102\n      jump\t// in\n    tag_179:\n        /* \"#utility.yul\":6856:6931   */\n      swap1\n      pop\n        /* \"#utility.yul\":6954:6960   */\n      dup3\n        /* \"#utility.yul\":6947:6952   */\n      dup2\n        /* \"#utility.yul\":6940:6961   */\n      mstore\n        /* \"#utility.yul\":6992:6996   */\n      0x20\n        /* \"#utility.yul\":6985:6990   */\n      dup2\n        /* \"#utility.yul\":6981:6997   */\n      add\n        /* \"#utility.yul\":7030:7033   */\n      dup5\n        /* \"#utility.yul\":7021:7027   */\n      dup5\n        /* \"#utility.yul\":7016:7019   */\n      dup5\n        /* \"#utility.yul\":7012:7028   */\n      add\n        /* \"#utility.yul\":7009:7034   */\n      gt\n        /* \"#utility.yul\":7006:7118   */\n      iszero\n      tag_181\n      jumpi\n        /* \"#utility.yul\":7037:7116   */\n      tag_182\n      tag_100\n      jump\t// in\n    tag_182:\n        /* \"#utility.yul\":7006:7118   */\n    tag_181:\n        /* \"#utility.yul\":7127:7168   */\n      tag_183\n        /* \"#utility.yul\":7161:7167   */\n      dup5\n        /* \"#utility.yul\":7156:7159   */\n      dup3\n        /* \"#utility.yul\":7151:7154   */\n      dup6\n        /* \"#utility.yul\":7127:7168   */\n      tag_104\n      jump\t// in\n    tag_183:\n        /* \"#utility.yul\":6846:7174   */\n      pop\n        /* \"#utility.yul\":6762:7174   */\n      swap4\n      swap3\n      pop\n      pop\n      pop\n      jump\t// out\n        /* \"#utility.yul\":7194:7534   */\n    tag_106:\n        /* \"#utility.yul\":7250:7255   */\n      0x00\n        /* \"#utility.yul\":7299:7302   */\n      dup3\n        /* \"#utility.yul\":7292:7296   */\n      0x1f\n        /* \"#utility.yul\":7284:7290   */\n      dup4\n        /* \"#utility.yul\":7280:7297   */\n      add\n        /* \"#utility.yul\":7276:7303   */\n      slt\n        /* \"#utility.yul\":7266:7388   */\n      tag_185\n      jumpi\n        /* \"#utility.yul\":7307:7386   */\n      tag_186\n      tag_99\n      jump\t// in\n    tag_186:\n        /* \"#utility.yul\":7266:7388   */\n    tag_185:\n        /* \"#utility.yul\":7424:7430   */\n      dup2\n        /* \"#utility.yul\":7411:7431   */\n      calldataload\n        /* \"#utility.yul\":7449:7528   */\n      tag_187\n        /* \"#utility.yul\":7524:7527   */\n      dup5\n        /* \"#utility.yul\":7516:7522   */\n      dup3\n        /* \"#utility.yul\":7509:7513   */\n      0x20\n        /* \"#utility.yul\":7501:7507   */\n      dup7\n        /* \"#utility.yul\":7497:7514   */\n      add\n        /* \"#utility.yul\":7449:7528   */\n      tag_105\n      jump\t// in\n    tag_187:\n        /* \"#utility.yul\":7440:7528   */\n      swap2\n      pop\n        /* \"#utility.yul\":7256:7534   */\n      pop\n        /* \"#utility.yul\":7194:7534   */\n      swap3\n      swap2\n      pop\n      pop\n      jump\t// out\n        /* \"#utility.yul\":7540:8374   */\n    tag_37:\n        /* \"#utility.yul\":7628:7634   */\n      0x00\n        /* \"#utility.yul\":7636:7642   */\n      dup1\n        /* \"#utility.yul\":7685:7687   */\n      0x40\n        /* \"#utility.yul\":7673:7682   */\n      dup4\n        /* \"#utility.yul\":7664:7671   */\n      dup6\n        /* \"#utility.yul\":7660:7683   */\n      sub\n        /* \"#utility.yul\":7656:7688   */\n      slt\n        /* \"#utility.yul\":7653:7772   */\n      iszero\n      tag_189\n      jumpi\n        /* \"#utility.yul\":7691:7770   */\n      tag_190\n      tag_97\n      jump\t// in\n    tag_190:\n        /* \"#utility.yul\":7653:7772   */\n    tag_189:\n        /* \"#utility.yul\":7839:7840   */\n      0x00\n        /* \"#utility.yul\":7828:7837   */\n      dup4\n        /* \"#utility.yul\":7824:7841   */\n      add\n        /* \"#utility.yul\":7811:7842   */\n      calldataload\n        /* \"#utility.yul\":7869:7887   */\n      0xffffffffffffffff\n        /* \"#utility.yul\":7861:7867   */\n      dup2\n        /* \"#utility.yul\":7858:7888   */\n      gt\n        /* \"#utility.yul\":7855:7972   */\n      iszero\n      tag_191\n      jumpi\n        /* \"#utility.yul\":7891:7970   */\n      tag_192\n      tag_98\n      jump\t// in\n    tag_192:\n        /* \"#utility.yul\":7855:7972   */\n    tag_191:\n        /* \"#utility.yul\":7996:8059   */\n      tag_193\n        /* \"#utility.yul\":8051:8058   */\n      dup6\n        /* \"#utility.yul\":8042:8048   */\n      dup3\n        /* \"#utility.yul\":8031:8040   */\n      dup7\n        /* \"#utility.yul\":8027:8049   */\n      add\n        /* \"#utility.yul\":7996:8059   */\n      tag_106\n      jump\t// in\n    tag_193:\n        /* \"#utility.yul\":7986:8059   */\n      swap3\n      pop\n        /* \"#utility.yul\":7782:8069   */\n      pop\n        /* \"#utility.yul\":8136:8138   */\n      0x20\n        /* \"#utility.yul\":8125:8134   */\n      dup4\n        /* \"#utility.yul\":8121:8139   */\n      add\n        /* \"#utility.yul\":8108:8140   */\n      calldataload\n        /* \"#utility.yul\":8167:8185   */\n      0xffffffffffffffff\n        /* \"#utility.yul\":8159:8165   */\n      dup2\n        /* \"#utility.yul\":8156:8186   */\n      gt\n        /* \"#utility.yul\":8153:8270   */\n      iszero\n      tag_194\n      jumpi\n        /* \"#utility.yul\":8189:8268   */\n      tag_195\n      tag_98\n      jump\t// in\n    tag_195:\n        /* \"#utility.yul\":8153:8270   */\n    tag_194:\n        /* \"#utility.yul\":8294:8357   */\n      tag_196\n        /* \"#utility.yul\":8349:8356   */\n      dup6\n        /* \"#utility.yul\":8340:8346   */\n      dup3\n        /* \"#utility.yul\":8329:8338   */\n      dup7\n        /* \"#utility.yul\":8325:8347   */\n      add\n        /* \"#utility.yul\":8294:8357   */\n      tag_106\n      jump\t// in\n    tag_196:\n        /* \"#utility.yul\":8284:8357   */\n      swap2\n      pop\n        /* \"#utility.yul\":8079:8367   */\n      pop\n        /* \"#utility.yul\":7540:8374   */\n      swap3\n      pop\n      swap3\n      swap1\n      pop\n      jump\t// out\n        /* \"#utility.yul\":8380:8560   */\n    tag_107:\n        /* \"#utility.yul\":8428:8505   */\n      0x4e487b7100000000000000000000000000000000000000000000000000000000\n        /* \"#utility.yul\":8425:8426   */\n      0x00\n        /* \"#utility.yul\":8418:8506   */\n      mstore\n        /* \"#utility.yul\":8525:8529   */\n      0x22\n        /* \"#utility.yul\":8522:8523   */\n      0x04\n        /* \"#utility.yul\":8515:8530   */\n      mstore\n        /* \"#utility.yul\":8549:8553   */\n      0x24\n        /* \"#utility.yul\":8546:8547   */\n      0x00\n        /* \"#utility.yul\":8539:8554   */\n      revert\n        /* \"#utility.yul\":8566:8886   */\n    tag_42:\n        /* \"#utility.yul\":8610:8616   */\n      0x00\n        /* \"#utility.yul\":8647:8648   */\n      0x02\n        /* \"#utility.yul\":8641:8645   */\n      dup3\n        /* \"#utility.yul\":8637:8649   */\n      div\n        /* \"#utility.yul\":8627:8649   */\n      swap1\n      pop\n        /* \"#utility.yul\":8694:8695   */\n      0x01\n        /* \"#utility.yul\":8688:8692   */\n      dup3\n        /* \"#utility.yul\":8684:8696   */\n      and\n        /* \"#utility.yul\":8715:8733   */\n      dup1\n        /* \"#utility.yul\":8705:8786   */\n      tag_199\n      jumpi\n        /* \"#utility.yul\":8771:8775   */\n      0x7f\n        /* \"#utility.yul\":8763:8769   */\n      dup3\n        /* \"#utility.yul\":8759:8776   */\n      and\n        /* \"#utility.yul\":8749:8776   */\n      swap2\n      pop\n        /* \"#utility.yul\":8705:8786   */\n    tag_199:\n        /* \"#utility.yul\":8833:8835   */\n      0x20\n        /* \"#utility.yul\":8825:8831   */\n      dup3\n        /* \"#utility.yul\":8822:8836   */\n      lt\n        /* \"#utility.yul\":8802:8820   */\n      dup2\n        /* \"#utility.yul\":8799:8837   */\n      sub\n        /* \"#utility.yul\":8796:8880   */\n      tag_200\n      jumpi\n        /* \"#utility.yul\":8852:8870   */\n      tag_201\n      tag_107\n      jump\t// in\n    tag_201:\n        /* \"#utility.yul\":8796:8880   */\n    tag_200:\n        /* \"#utility.yul\":8617:8886   */\n      pop\n        /* \"#utility.yul\":8566:8886   */\n      swap2\n      swap1\n      pop\n      jump\t// out\n        /* \"#utility.yul\":8892:9112   */\n    tag_108:\n        /* \"#utility.yul\":9032:9066   */\n      0x4f6e6c7920617574686f722063616e2063616c6c2074686973206d6574686f64\n        /* \"#utility.yul\":9028:9029   */\n      0x00\n        /* \"#utility.yul\":9020:9026   */\n      dup3\n        /* \"#utility.yul\":9016:9030   */\n      add\n        /* \"#utility.yul\":9009:9067   */\n      mstore\n        /* \"#utility.yul\":9101:9104   */\n      0x2100000000000000000000000000000000000000000000000000000000000000\n        /* \"#utility.yul\":9096:9098   */\n      0x20\n        /* \"#utility.yul\":9088:9094   */\n      dup3\n        /* \"#utility.yul\":9084:9099   */\n      add\n        /* \"#utility.yul\":9077:9105   */\n      mstore\n        /* \"#utility.yul\":8892:9112   */\n      pop\n      jump\t// out\n        /* \"#utility.yul\":9118:9484   */\n    tag_109:\n        /* \"#utility.yul\":9260:9263   */\n      0x00\n        /* \"#utility.yul\":9281:9348   */\n      tag_204\n        /* \"#utility.yul\":9345:9347   */\n      0x21\n        /* \"#utility.yul\":9340:9343   */\n      dup4\n        /* \"#utility.yul\":9281:9348   */\n      tag_78\n      jump\t// in\n    tag_204:\n        /* \"#utility.yul\":9274:9348   */\n      swap2\n      pop\n        /* \"#utility.yul\":9357:9450   */\n      tag_205\n        /* \"#utility.yul\":9446:9449   */\n      dup3\n        /* \"#utility.yul\":9357:9450   */\n      tag_108\n      jump\t// in\n    tag_205:\n        /* \"#utility.yul\":9475:9477   */\n      0x40\n        /* \"#utility.yul\":9470:9473   */\n      dup3\n        /* \"#utility.yul\":9466:9478   */\n      add\n        /* \"#utility.yul\":9459:9478   */\n      swap1\n      pop\n        /* \"#utility.yul\":9118:9484   */\n      swap2\n      swap1\n      pop\n      jump\t// out\n        /* \"#utility.yul\":9490:9909   */\n    tag_50:\n        /* \"#utility.yul\":9656:9660   */\n      0x00\n        /* \"#utility.yul\":9694:9696   */\n      0x20\n        /* \"#utility.yul\":9683:9692   */\n      dup3\n        /* \"#utility.yul\":9679:9697   */\n      add\n        /* \"#utility.yul\":9671:9697   */\n      swap1\n      pop\n        /* \"#utility.yul\":9743:9752   */\n      dup2\n        /* \"#utility.yul\":9737:9741   */\n      dup2\n        /* \"#utility.yul\":9733:9753   */\n      sub\n        /* \"#utility.yul\":9729:9730   */\n      0x00\n        /* \"#utility.yul\":9718:9727   */\n      dup4\n        /* \"#utility.yul\":9714:9731   */\n      add\n        /* \"#utility.yul\":9707:9754   */\n      mstore\n        /* \"#utility.yul\":9771:9902   */\n      tag_207\n        /* \"#utility.yul\":9897:9901   */\n      dup2\n        /* \"#utility.yul\":9771:9902   */\n      tag_109\n      jump\t// in\n    tag_207:\n        /* \"#utility.yul\":9763:9902   */\n      swap1\n      pop\n        /* \"#utility.yul\":9490:9909   */\n      swap2\n      swap1\n      pop\n      jump\t// out\n        /* \"#utility.yul\":9915:10095   */\n    tag_67:\n        /* \"#utility.yul\":9963:10040   */\n      0x4e487b7100000000000000000000000000000000000000000000000000000000\n        /* \"#utility.yul\":9960:9961   */\n      0x00\n        /* \"#utility.yul\":9953:10041   */\n      mstore\n        /* \"#utility.yul\":10060:10064   */\n      0x32\n        /* \"#utility.yul\":10057:10058   */\n      0x04\n        /* \"#utility.yul\":10050:10065   */\n      mstore\n        /* \"#utility.yul\":10084:10088   */\n      0x24\n        /* \"#utility.yul\":10081:10082   */\n      0x00\n        /* \"#utility.yul\":10074:10089   */\n      revert\n        /* \"#utility.yul\":10101:10281   */\n    tag_110:\n        /* \"#utility.yul\":10149:10226   */\n      0x4e487b7100000000000000000000000000000000000000000000000000000000\n        /* \"#utility.yul\":10146:10147   */\n      0x00\n        /* \"#utility.yul\":10139:10227   */\n      mstore\n        /* \"#utility.yul\":10246:10250   */\n      0x11\n        /* \"#utility.yul\":10243:10244   */\n      0x04\n        /* \"#utility.yul\":10236:10251   */\n      mstore\n        /* \"#utility.yul\":10270:10274   */\n      0x24\n        /* \"#utility.yul\":10267:10268   */\n      0x00\n        /* \"#utility.yul\":10260:10275   */\n      revert\n        /* \"#utility.yul\":10287:10520   */\n    tag_69:\n        /* \"#utility.yul\":10326:10329   */\n      0x00\n        /* \"#utility.yul\":10349:10373   */\n      tag_211\n        /* \"#utility.yul\":10367:10372   */\n      dup3\n        /* \"#utility.yul\":10349:10373   */\n      tag_81\n      jump\t// in\n    tag_211:\n        /* \"#utility.yul\":10340:10373   */\n      swap2\n      pop\n        /* \"#utility.yul\":10395:10461   */\n      0xffffffffffffffffffffffffffffffffffffffffffffffffffffffffffffffff\n        /* \"#utility.yul\":10388:10393   */\n      dup3\n        /* \"#utility.yul\":10385:10462   */\n      sub\n        /* \"#utility.yul\":10382:10485   */\n      tag_212\n      jumpi\n        /* \"#utility.yul\":10465:10483   */\n      tag_213\n      tag_110\n      jump\t// in\n    tag_213:\n        /* \"#utility.yul\":10382:10485   */\n    tag_212:\n        /* \"#utility.yul\":10512:10513   */\n      0x01\n        /* \"#utility.yul\":10505:10510   */\n      dup3\n        /* \"#utility.yul\":10501:10514   */\n      add\n        /* \"#utility.yul\":10494:10514   */\n      swap1\n      pop\n        /* \"#utility.yul\":10287:10520   */\n      swap2\n      swap1\n      pop\n      jump\t// out\n\n    auxdata: 0xa2646970667358221220360c553eef1ad3cc239732f62c1b9848dee24b1397b71a911dad3f508dd1887264736f6c634300080e0033\n}\n",
				"bytecode": {
					"linkReferences": {},
					"object": "60806040523480156200001157600080fd5b50604051620010d0380380620010d0833981810160405281019062000037919062000349565b33600460006101000a81548173ffffffffffffffffffffffffffffffffffffffff021916908373ffffffffffffffffffffffffffffffffffffffff160217905550633b9aca00826200008a9190620003de565b6005819055508060069080519060200190620000a8929190620000c1565b50600060018190555060006003819055505050620004a3565b828054620000cf906200046e565b90600052602060002090601f016020900481019282620000f357600085556200013f565b82601f106200010e57805160ff19168380011785556200013f565b828001600101855582156200013f579182015b828111156200013e57825182559160200191906001019062000121565b5b5090506200014e919062000152565b5090565b5b808211156200016d57600081600090555060010162000153565b5090565b6000604051905090565b600080fd5b600080fd5b6000819050919050565b6200019a8162000185565b8114620001a657600080fd5b50565b600081519050620001ba816200018f565b92915050565b600080fd5b600080fd5b6000601f19601f8301169050919050565b7f4e487b7100000000000000000000000000000000000000000000000000000000600052604160045260246000fd5b6200021582620001ca565b810181811067ffffffffffffffff82111715620002375762000236620001db565b5b80604052505050565b60006200024c62000171565b90506200025a82826200020a565b919050565b600067ffffffffffffffff8211156200027d576200027c620001db565b5b6200028882620001ca565b9050602081019050919050565b60005b83811015620002b557808201518184015260208101905062000298565b83811115620002c5576000848401525b50505050565b6000620002e2620002dc846200025f565b62000240565b905082815260208101848484011115620003015762000300620001c5565b5b6200030e84828562000295565b509392505050565b600082601f8301126200032e576200032d620001c0565b5b815162000340848260208601620002cb565b91505092915050565b600080604083850312156200036357620003626200017b565b5b60006200037385828601620001a9565b925050602083015167ffffffffffffffff81111562000397576200039662000180565b5b620003a58582860162000316565b9150509250929050565b7f4e487b7100000000000000000000000000000000000000000000000000000000600052601160045260246000fd5b6000620003eb8262000185565b9150620003f88362000185565b9250817fffffffffffffffffffffffffffffffffffffffffffffffffffffffffffffffff0483118215151615620004345762000433620003af565b5b828202905092915050565b7f4e487b7100000000000000000000000000000000000000000000000000000000600052602260045260246000fd5b600060028204905060018216806200048757607f821691505b6020821081036200049d576200049c6200043f565b5b50919050565b610c1d80620004b36000396000f3fe6080604052600436106100595760003560e01c80630aa0a175146100ea5780632443877c14610115578063534844a21461014057806382d69b621461014a57806395961f0514610175578063be29199914610191576100a4565b366100a45760055434146100a2576040517f08c379a00000000000000000000000000000000000000000000000000000000081526004016100999061067e565b60405180910390fd5b005b60055434146100e8576040517f08c379a00000000000000000000000000000000000000000000000000000000081526004016100df9061067e565b60405180910390fd5b005b3480156100f657600080fd5b506100ff61019b565b60405161010c91906106b7565b60405180910390f35b34801561012157600080fd5b5061012a6101a1565b604051610137919061075a565b60405180910390f35b61014861022f565b005b34801561015657600080fd5b5061015f61032a565b60405161016c919061086c565b60405180910390f35b61018f600480360381019061018a91906109d7565b6104b3565b005b610199610547565b005b60055481565b600680546101ae90610a7e565b80601f01602080910402602001604051908101604052809291908181526020018280546101da90610a7e565b80156102275780601f106101fc57610100808354040283529160200191610227565b820191906000526020600020905b81548152906001019060200180831161020a57829003601f168201915b505050505081565b600460009054906101000a900473ffffffffffffffffffffffffffffffffffffffff1673ffffffffffffffffffffffffffffffffffffffff163373ffffffffffffffffffffffffffffffffffffffff16146102bf576040517f08c379a00000000000000000000000000000000000000000000000000000000081526004016102b690610b21565b60405180910390fd5b600460009054906101000a900473ffffffffffffffffffffffffffffffffffffffff1673ffffffffffffffffffffffffffffffffffffffff166108fc479081150290604051600060405180830381858888f19350505050158015610327573d6000803e3d6000fd5b50565b6060600460009054906101000a900473ffffffffffffffffffffffffffffffffffffffff1673ffffffffffffffffffffffffffffffffffffffff163373ffffffffffffffffffffffffffffffffffffffff16146103bc576040517f08c379a00000000000000000000000000000000000000000000000000000000081526004016103b390610b21565b60405180910390fd5b600060015467ffffffffffffffff8111156103da576103d96108ac565b5b6040519080825280602002602001820160405280156104085781602001602082028036833780820191505090505b50905060005b6001548110156104ab5760008082815260200190815260200160002060009054906101000a900473ffffffffffffffffffffffffffffffffffffffff1682828151811061045e5761045d610b41565b5b602002602001019073ffffffffffffffffffffffffffffffffffffffff16908173ffffffffffffffffffffffffffffffffffffffff168152505080806104a390610b9f565b91505061040e565b508091505090565b600460009054906101000a900473ffffffffffffffffffffffffffffffffffffffff1673ffffffffffffffffffffffffffffffffffffffff163373ffffffffffffffffffffffffffffffffffffffff1614610543576040517f08c379a000000000000000000000000000000000000000000000000000000000815260040161053a90610b21565b60405180910390fd5b5050565b33600080600154815260200190815260200160002060006101000a81548173ffffffffffffffffffffffffffffffffffffffff021916908373ffffffffffffffffffffffffffffffffffffffff160217905550600160008154809291906105ad90610b9f565b91905055503073ffffffffffffffffffffffffffffffffffffffff166108fc349081150290604051600060405180830381858888f193505050501580156105f8573d6000803e3d6000fd5b50565b600082825260208201905092915050565b7f5061796d656e742073686f756c6420626520746865207375627363726970746960008201527f6f6e206665650000000000000000000000000000000000000000000000000000602082015250565b60006106686026836105fb565b91506106738261060c565b604082019050919050565b600060208201905081810360008301526106978161065b565b9050919050565b6000819050919050565b6106b18161069e565b82525050565b60006020820190506106cc60008301846106a8565b92915050565b600081519050919050565b60005b838110156106fb5780820151818401526020810190506106e0565b8381111561070a576000848401525b50505050565b6000601f19601f8301169050919050565b600061072c826106d2565b61073681856105fb565b93506107468185602086016106dd565b61074f81610710565b840191505092915050565b600060208201905081810360008301526107748184610721565b905092915050565b600081519050919050565b600082825260208201905092915050565b6000819050602082019050919050565b600073ffffffffffffffffffffffffffffffffffffffff82169050919050565b60006107d3826107a8565b9050919050565b6107e3816107c8565b82525050565b60006107f583836107da565b60208301905092915050565b6000602082019050919050565b60006108198261077c565b6108238185610787565b935061082e83610798565b8060005b8381101561085f57815161084688826107e9565b975061085183610801565b925050600181019050610832565b5085935050505092915050565b60006020820190508181036000830152610886818461080e565b905092915050565b6000604051905090565b600080fd5b600080fd5b600080fd5b600080fd5b7f4e487b7100000000000000000000000000000000000000000000000000000000600052604160045260246000fd5b6108e482610710565b810181811067ffffffffffffffff82111715610903576109026108ac565b5b80604052505050565b600061091661088e565b905061092282826108db565b919050565b600067ffffffffffffffff821115610942576109416108ac565b5b61094b82610710565b9050602081019050919050565b82818337600083830152505050565b600061097a61097584610927565b61090c565b905082815260208101848484011115610996576109956108a7565b5b6109a1848285610958565b509392505050565b600082601f8301126109be576109bd6108a2565b5b81356109ce848260208601610967565b91505092915050565b600080604083850312156109ee576109ed610898565b5b600083013567ffffffffffffffff811115610a0c57610a0b61089d565b5b610a18858286016109a9565b925050602083013567ffffffffffffffff811115610a3957610a3861089d565b5b610a45858286016109a9565b9150509250929050565b7f4e487b7100000000000000000000000000000000000000000000000000000000600052602260045260246000fd5b60006002820490506001821680610a9657607f821691505b602082108103610aa957610aa8610a4f565b5b50919050565b7f4f6e6c7920617574686f722063616e2063616c6c2074686973206d6574686f6460008201527f2100000000000000000000000000000000000000000000000000000000000000602082015250565b6000610b0b6021836105fb565b9150610b1682610aaf565b604082019050919050565b60006020820190508181036000830152610b3a81610afe565b9050919050565b7f4e487b7100000000000000000000000000000000000000000000000000000000600052603260045260246000fd5b7f4e487b7100000000000000000000000000000000000000000000000000000000600052601160045260246000fd5b6000610baa8261069e565b91507fffffffffffffffffffffffffffffffffffffffffffffffffffffffffffffffff8203610bdc57610bdb610b70565b5b60018201905091905056fea2646970667358221220360c553eef1ad3cc239732f62c1b9848dee24b1397b71a911dad3f508dd1887264736f6c634300080e0033",
					"opcodes": "PUSH1 0x80 PUSH1 0x40 MSTORE CALLVALUE DUP1 ISZERO PUSH3 0x11 JUMPI PUSH1 0x0 DUP1 REVERT JUMPDEST POP PUSH1 0x40 MLOAD PUSH3 0x10D0 CODESIZE SUB DUP1 PUSH3 0x10D0 DUP4 CODECOPY DUP2 DUP2 ADD PUSH1 0x40 MSTORE DUP2 ADD SWAP1 PUSH3 0x37 SWAP2 SWAP1 PUSH3 0x349 JUMP JUMPDEST CALLER PUSH1 0x4 PUSH1 0x0 PUSH2 0x100 EXP DUP2 SLOAD DUP2 PUSH20 0xFFFFFFFFFFFFFFFFFFFFFFFFFFFFFFFFFFFFFFFF MUL NOT AND SWAP1 DUP4 PUSH20 0xFFFFFFFFFFFFFFFFFFFFFFFFFFFFFFFFFFFFFFFF AND MUL OR SWAP1 SSTORE POP PUSH4 0x3B9ACA00 DUP3 PUSH3 0x8A SWAP2 SWAP1 PUSH3 0x3DE JUMP JUMPDEST PUSH1 0x5 DUP2 SWAP1 SSTORE POP DUP1 PUSH1 0x6 SWAP1 DUP1 MLOAD SWAP1 PUSH1 0x20 ADD SWAP1 PUSH3 0xA8 SWAP3 SWAP2 SWAP1 PUSH3 0xC1 JUMP JUMPDEST POP PUSH1 0x0 PUSH1 0x1 DUP2 SWAP1 SSTORE POP PUSH1 0x0 PUSH1 0x3 DUP2 SWAP1 SSTORE POP POP POP PUSH3 0x4A3 JUMP JUMPDEST DUP3 DUP1 SLOAD PUSH3 0xCF SWAP1 PUSH3 0x46E JUMP JUMPDEST SWAP1 PUSH1 0x0 MSTORE PUSH1 0x20 PUSH1 0x0 KECCAK256 SWAP1 PUSH1 0x1F ADD PUSH1 0x20 SWAP1 DIV DUP2 ADD SWAP3 DUP3 PUSH3 0xF3 JUMPI PUSH1 0x0 DUP6 SSTORE PUSH3 0x13F JUMP JUMPDEST DUP3 PUSH1 0x1F LT PUSH3 0x10E JUMPI DUP1 MLOAD PUSH1 0xFF NOT AND DUP4 DUP1 ADD OR DUP6 SSTORE PUSH3 0x13F JUMP JUMPDEST DUP3 DUP1 ADD PUSH1 0x1 ADD DUP6 SSTORE DUP3 ISZERO PUSH3 0x13F JUMPI SWAP2 DUP3 ADD JUMPDEST DUP3 DUP2 GT ISZERO PUSH3 0x13E JUMPI DUP3 MLOAD DUP3 SSTORE SWAP2 PUSH1 0x20 ADD SWAP2 SWAP1 PUSH1 0x1 ADD SWAP1 PUSH3 0x121 JUMP JUMPDEST JUMPDEST POP SWAP1 POP PUSH3 0x14E SWAP2 SWAP1 PUSH3 0x152 JUMP JUMPDEST POP SWAP1 JUMP JUMPDEST JUMPDEST DUP1 DUP3 GT ISZERO PUSH3 0x16D JUMPI PUSH1 0x0 DUP2 PUSH1 0x0 SWAP1 SSTORE POP PUSH1 0x1 ADD PUSH3 0x153 JUMP JUMPDEST POP SWAP1 JUMP JUMPDEST PUSH1 0x0 PUSH1 0x40 MLOAD SWAP1 POP SWAP1 JUMP JUMPDEST PUSH1 0x0 DUP1 REVERT JUMPDEST PUSH1 0x0 DUP1 REVERT JUMPDEST PUSH1 0x0 DUP2 SWAP1 POP SWAP2 SWAP1 POP JUMP JUMPDEST PUSH3 0x19A DUP2 PUSH3 0x185 JUMP JUMPDEST DUP2 EQ PUSH3 0x1A6 JUMPI PUSH1 0x0 DUP1 REVERT JUMPDEST POP JUMP JUMPDEST PUSH1 0x0 DUP2 MLOAD SWAP1 POP PUSH3 0x1BA DUP2 PUSH3 0x18F JUMP JUMPDEST SWAP3 SWAP2 POP POP JUMP JUMPDEST PUSH1 0x0 DUP1 REVERT JUMPDEST PUSH1 0x0 DUP1 REVERT JUMPDEST PUSH1 0x0 PUSH1 0x1F NOT PUSH1 0x1F DUP4 ADD AND SWAP1 POP SWAP2 SWAP1 POP JUMP JUMPDEST PUSH32 0x4E487B7100000000000000000000000000000000000000000000000000000000 PUSH1 0x0 MSTORE PUSH1 0x41 PUSH1 0x4 MSTORE PUSH1 0x24 PUSH1 0x0 REVERT JUMPDEST PUSH3 0x215 DUP3 PUSH3 0x1CA JUMP JUMPDEST DUP2 ADD DUP2 DUP2 LT PUSH8 0xFFFFFFFFFFFFFFFF DUP3 GT OR ISZERO PUSH3 0x237 JUMPI PUSH3 0x236 PUSH3 0x1DB JUMP JUMPDEST JUMPDEST DUP1 PUSH1 0x40 MSTORE POP POP POP JUMP JUMPDEST PUSH1 0x0 PUSH3 0x24C PUSH3 0x171 JUMP JUMPDEST SWAP1 POP PUSH3 0x25A DUP3 DUP3 PUSH3 0x20A JUMP JUMPDEST SWAP2 SWAP1 POP JUMP JUMPDEST PUSH1 0x0 PUSH8 0xFFFFFFFFFFFFFFFF DUP3 GT ISZERO PUSH3 0x27D JUMPI PUSH3 0x27C PUSH3 0x1DB JUMP JUMPDEST JUMPDEST PUSH3 0x288 DUP3 PUSH3 0x1CA JUMP JUMPDEST SWAP1 POP PUSH1 0x20 DUP2 ADD SWAP1 POP SWAP2 SWAP1 POP JUMP JUMPDEST PUSH1 0x0 JUMPDEST DUP4 DUP2 LT ISZERO PUSH3 0x2B5 JUMPI DUP1 DUP3 ADD MLOAD DUP2 DUP5 ADD MSTORE PUSH1 0x20 DUP2 ADD SWAP1 POP PUSH3 0x298 JUMP JUMPDEST DUP4 DUP2 GT ISZERO PUSH3 0x2C5 JUMPI PUSH1 0x0 DUP5 DUP5 ADD MSTORE JUMPDEST POP POP POP POP JUMP JUMPDEST PUSH1 0x0 PUSH3 0x2E2 PUSH3 0x2DC DUP5 PUSH3 0x25F JUMP JUMPDEST PUSH3 0x240 JUMP JUMPDEST SWAP1 POP DUP3 DUP2 MSTORE PUSH1 0x20 DUP2 ADD DUP5 DUP5 DUP5 ADD GT ISZERO PUSH3 0x301 JUMPI PUSH3 0x300 PUSH3 0x1C5 JUMP JUMPDEST JUMPDEST PUSH3 0x30E DUP5 DUP3 DUP6 PUSH3 0x295 JUMP JUMPDEST POP SWAP4 SWAP3 POP POP POP JUMP JUMPDEST PUSH1 0x0 DUP3 PUSH1 0x1F DUP4 ADD SLT PUSH3 0x32E JUMPI PUSH3 0x32D PUSH3 0x1C0 JUMP JUMPDEST JUMPDEST DUP2 MLOAD PUSH3 0x340 DUP5 DUP3 PUSH1 0x20 DUP7 ADD PUSH3 0x2CB JUMP JUMPDEST SWAP2 POP POP SWAP3 SWAP2 POP POP JUMP JUMPDEST PUSH1 0x0 DUP1 PUSH1 0x40 DUP4 DUP6 SUB SLT ISZERO PUSH3 0x363 JUMPI PUSH3 0x362 PUSH3 0x17B JUMP JUMPDEST JUMPDEST PUSH1 0x0 PUSH3 0x373 DUP6 DUP3 DUP7 ADD PUSH3 0x1A9 JUMP JUMPDEST SWAP3 POP POP PUSH1 0x20 DUP4 ADD MLOAD PUSH8 0xFFFFFFFFFFFFFFFF DUP2 GT ISZERO PUSH3 0x397 JUMPI PUSH3 0x396 PUSH3 0x180 JUMP JUMPDEST JUMPDEST PUSH3 0x3A5 DUP6 DUP3 DUP7 ADD PUSH3 0x316 JUMP JUMPDEST SWAP2 POP POP SWAP3 POP SWAP3 SWAP1 POP JUMP JUMPDEST PUSH32 0x4E487B7100000000000000000000000000000000000000000000000000000000 PUSH1 0x0 MSTORE PUSH1 0x11 PUSH1 0x4 MSTORE PUSH1 0x24 PUSH1 0x0 REVERT JUMPDEST PUSH1 0x0 PUSH3 0x3EB DUP3 PUSH3 0x185 JUMP JUMPDEST SWAP2 POP PUSH3 0x3F8 DUP4 PUSH3 0x185 JUMP JUMPDEST SWAP3 POP DUP2 PUSH32 0xFFFFFFFFFFFFFFFFFFFFFFFFFFFFFFFFFFFFFFFFFFFFFFFFFFFFFFFFFFFFFFFF DIV DUP4 GT DUP3 ISZERO ISZERO AND ISZERO PUSH3 0x434 JUMPI PUSH3 0x433 PUSH3 0x3AF JUMP JUMPDEST JUMPDEST DUP3 DUP3 MUL SWAP1 POP SWAP3 SWAP2 POP POP JUMP JUMPDEST PUSH32 0x4E487B7100000000000000000000000000000000000000000000000000000000 PUSH1 0x0 MSTORE PUSH1 0x22 PUSH1 0x4 MSTORE PUSH1 0x24 PUSH1 0x0 REVERT JUMPDEST PUSH1 0x0 PUSH1 0x2 DUP3 DIV SWAP1 POP PUSH1 0x1 DUP3 AND DUP1 PUSH3 0x487 JUMPI PUSH1 0x7F DUP3 AND SWAP2 POP JUMPDEST PUSH1 0x20 DUP3 LT DUP2 SUB PUSH3 0x49D JUMPI PUSH3 0x49C PUSH3 0x43F JUMP JUMPDEST JUMPDEST POP SWAP2 SWAP1 POP JUMP JUMPDEST PUSH2 0xC1D DUP1 PUSH3 0x4B3 PUSH1 0x0 CODECOPY PUSH1 0x0 RETURN INVALID PUSH1 0x80 PUSH1 0x40 MSTORE PUSH1 0x4 CALLDATASIZE LT PUSH2 0x59 JUMPI PUSH1 0x0 CALLDATALOAD PUSH1 0xE0 SHR DUP1 PUSH4 0xAA0A175 EQ PUSH2 0xEA JUMPI DUP1 PUSH4 0x2443877C EQ PUSH2 0x115 JUMPI DUP1 PUSH4 0x534844A2 EQ PUSH2 0x140 JUMPI DUP1 PUSH4 0x82D69B62 EQ PUSH2 0x14A JUMPI DUP1 PUSH4 0x95961F05 EQ PUSH2 0x175 JUMPI DUP1 PUSH4 0xBE291999 EQ PUSH2 0x191 JUMPI PUSH2 0xA4 JUMP JUMPDEST CALLDATASIZE PUSH2 0xA4 JUMPI PUSH1 0x5 SLOAD CALLVALUE EQ PUSH2 0xA2 JUMPI PUSH1 0x40 MLOAD PUSH32 0x8C379A000000000000000000000000000000000000000000000000000000000 DUP2 MSTORE PUSH1 0x4 ADD PUSH2 0x99 SWAP1 PUSH2 0x67E JUMP JUMPDEST PUSH1 0x40 MLOAD DUP1 SWAP2 SUB SWAP1 REVERT JUMPDEST STOP JUMPDEST PUSH1 0x5 SLOAD CALLVALUE EQ PUSH2 0xE8 JUMPI PUSH1 0x40 MLOAD PUSH32 0x8C379A000000000000000000000000000000000000000000000000000000000 DUP2 MSTORE PUSH1 0x4 ADD PUSH2 0xDF SWAP1 PUSH2 0x67E JUMP JUMPDEST PUSH1 0x40 MLOAD DUP1 SWAP2 SUB SWAP1 REVERT JUMPDEST STOP JUMPDEST CALLVALUE DUP1 ISZERO PUSH2 0xF6 JUMPI PUSH1 0x0 DUP1 REVERT JUMPDEST POP PUSH2 0xFF PUSH2 0x19B JUMP JUMPDEST PUSH1 0x40 MLOAD PUSH2 0x10C SWAP2 SWAP1 PUSH2 0x6B7 JUMP JUMPDEST PUSH1 0x40 MLOAD DUP1 SWAP2 SUB SWAP1 RETURN JUMPDEST CALLVALUE DUP1 ISZERO PUSH2 0x121 JUMPI PUSH1 0x0 DUP1 REVERT JUMPDEST POP PUSH2 0x12A PUSH2 0x1A1 JUMP JUMPDEST PUSH1 0x40 MLOAD PUSH2 0x137 SWAP2 SWAP1 PUSH2 0x75A JUMP JUMPDEST PUSH1 0x40 MLOAD DUP1 SWAP2 SUB SWAP1 RETURN JUMPDEST PUSH2 0x148 PUSH2 0x22F JUMP JUMPDEST STOP JUMPDEST CALLVALUE DUP1 ISZERO PUSH2 0x156 JUMPI PUSH1 0x0 DUP1 REVERT JUMPDEST POP PUSH2 0x15F PUSH2 0x32A JUMP JUMPDEST PUSH1 0x40 MLOAD PUSH2 0x16C SWAP2 SWAP1 PUSH2 0x86C JUMP JUMPDEST PUSH1 0x40 MLOAD DUP1 SWAP2 SUB SWAP1 RETURN JUMPDEST PUSH2 0x18F PUSH1 0x4 DUP1 CALLDATASIZE SUB DUP2 ADD SWAP1 PUSH2 0x18A SWAP2 SWAP1 PUSH2 0x9D7 JUMP JUMPDEST PUSH2 0x4B3 JUMP JUMPDEST STOP JUMPDEST PUSH2 0x199 PUSH2 0x547 JUMP JUMPDEST STOP JUMPDEST PUSH1 0x5 SLOAD DUP2 JUMP JUMPDEST PUSH1 0x6 DUP1 SLOAD PUSH2 0x1AE SWAP1 PUSH2 0xA7E JUMP JUMPDEST DUP1 PUSH1 0x1F ADD PUSH1 0x20 DUP1 SWAP2 DIV MUL PUSH1 0x20 ADD PUSH1 0x40 MLOAD SWAP1 DUP2 ADD PUSH1 0x40 MSTORE DUP1 SWAP3 SWAP2 SWAP1 DUP2 DUP2 MSTORE PUSH1 0x20 ADD DUP3 DUP1 SLOAD PUSH2 0x1DA SWAP1 PUSH2 0xA7E JUMP JUMPDEST DUP1 ISZERO PUSH2 0x227 JUMPI DUP1 PUSH1 0x1F LT PUSH2 0x1FC JUMPI PUSH2 0x100 DUP1 DUP4 SLOAD DIV MUL DUP4 MSTORE SWAP2 PUSH1 0x20 ADD SWAP2 PUSH2 0x227 JUMP JUMPDEST DUP3 ADD SWAP2 SWAP1 PUSH1 0x0 MSTORE PUSH1 0x20 PUSH1 0x0 KECCAK256 SWAP1 JUMPDEST DUP2 SLOAD DUP2 MSTORE SWAP1 PUSH1 0x1 ADD SWAP1 PUSH1 0x20 ADD DUP1 DUP4 GT PUSH2 0x20A JUMPI DUP3 SWAP1 SUB PUSH1 0x1F AND DUP3 ADD SWAP2 JUMPDEST POP POP POP POP POP DUP2 JUMP JUMPDEST PUSH1 0x4 PUSH1 0x0 SWAP1 SLOAD SWAP1 PUSH2 0x100 EXP SWAP1 DIV PUSH20 0xFFFFFFFFFFFFFFFFFFFFFFFFFFFFFFFFFFFFFFFF AND PUSH20 0xFFFFFFFFFFFFFFFFFFFFFFFFFFFFFFFFFFFFFFFF AND CALLER PUSH20 0xFFFFFFFFFFFFFFFFFFFFFFFFFFFFFFFFFFFFFFFF AND EQ PUSH2 0x2BF JUMPI PUSH1 0x40 MLOAD PUSH32 0x8C379A000000000000000000000000000000000000000000000000000000000 DUP2 MSTORE PUSH1 0x4 ADD PUSH2 0x2B6 SWAP1 PUSH2 0xB21 JUMP JUMPDEST PUSH1 0x40 MLOAD DUP1 SWAP2 SUB SWAP1 REVERT JUMPDEST PUSH1 0x4 PUSH1 0x0 SWAP1 SLOAD SWAP1 PUSH2 0x100 EXP SWAP1 DIV PUSH20 0xFFFFFFFFFFFFFFFFFFFFFFFFFFFFFFFFFFFFFFFF AND PUSH20 0xFFFFFFFFFFFFFFFFFFFFFFFFFFFFFFFFFFFFFFFF AND PUSH2 0x8FC SELFBALANCE SWAP1 DUP2 ISZERO MUL SWAP1 PUSH1 0x40 MLOAD PUSH1 0x0 PUSH1 0x40 MLOAD DUP1 DUP4 SUB DUP2 DUP6 DUP9 DUP9 CALL SWAP4 POP POP POP POP ISZERO DUP1 ISZERO PUSH2 0x327 JUMPI RETURNDATASIZE PUSH1 0x0 DUP1 RETURNDATACOPY RETURNDATASIZE PUSH1 0x0 REVERT JUMPDEST POP JUMP JUMPDEST PUSH1 0x60 PUSH1 0x4 PUSH1 0x0 SWAP1 SLOAD SWAP1 PUSH2 0x100 EXP SWAP1 DIV PUSH20 0xFFFFFFFFFFFFFFFFFFFFFFFFFFFFFFFFFFFFFFFF AND PUSH20 0xFFFFFFFFFFFFFFFFFFFFFFFFFFFFFFFFFFFFFFFF AND CALLER PUSH20 0xFFFFFFFFFFFFFFFFFFFFFFFFFFFFFFFFFFFFFFFF AND EQ PUSH2 0x3BC JUMPI PUSH1 0x40 MLOAD PUSH32 0x8C379A000000000000000000000000000000000000000000000000000000000 DUP2 MSTORE PUSH1 0x4 ADD PUSH2 0x3B3 SWAP1 PUSH2 0xB21 JUMP JUMPDEST PUSH1 0x40 MLOAD DUP1 SWAP2 SUB SWAP1 REVERT JUMPDEST PUSH1 0x0 PUSH1 0x1 SLOAD PUSH8 0xFFFFFFFFFFFFFFFF DUP2 GT ISZERO PUSH2 0x3DA JUMPI PUSH2 0x3D9 PUSH2 0x8AC JUMP JUMPDEST JUMPDEST PUSH1 0x40 MLOAD SWAP1 DUP1 DUP3 MSTORE DUP1 PUSH1 0x20 MUL PUSH1 0x20 ADD DUP3 ADD PUSH1 0x40 MSTORE DUP1 ISZERO PUSH2 0x408 JUMPI DUP2 PUSH1 0x20 ADD PUSH1 0x20 DUP3 MUL DUP1 CALLDATASIZE DUP4 CALLDATACOPY DUP1 DUP3 ADD SWAP2 POP POP SWAP1 POP JUMPDEST POP SWAP1 POP PUSH1 0x0 JUMPDEST PUSH1 0x1 SLOAD DUP2 LT ISZERO PUSH2 0x4AB JUMPI PUSH1 0x0 DUP1 DUP3 DUP2 MSTORE PUSH1 0x20 ADD SWAP1 DUP2 MSTORE PUSH1 0x20 ADD PUSH1 0x0 KECCAK256 PUSH1 0x0 SWAP1 SLOAD SWAP1 PUSH2 0x100 EXP SWAP1 DIV PUSH20 0xFFFFFFFFFFFFFFFFFFFFFFFFFFFFFFFFFFFFFFFF AND DUP3 DUP3 DUP2 MLOAD DUP2 LT PUSH2 0x45E JUMPI PUSH2 0x45D PUSH2 0xB41 JUMP JUMPDEST JUMPDEST PUSH1 0x20 MUL PUSH1 0x20 ADD ADD SWAP1 PUSH20 0xFFFFFFFFFFFFFFFFFFFFFFFFFFFFFFFFFFFFFFFF AND SWAP1 DUP2 PUSH20 0xFFFFFFFFFFFFFFFFFFFFFFFFFFFFFFFFFFFFFFFF AND DUP2 MSTORE POP POP DUP1 DUP1 PUSH2 0x4A3 SWAP1 PUSH2 0xB9F JUMP JUMPDEST SWAP2 POP POP PUSH2 0x40E JUMP JUMPDEST POP DUP1 SWAP2 POP POP SWAP1 JUMP JUMPDEST PUSH1 0x4 PUSH1 0x0 SWAP1 SLOAD SWAP1 PUSH2 0x100 EXP SWAP1 DIV PUSH20 0xFFFFFFFFFFFFFFFFFFFFFFFFFFFFFFFFFFFFFFFF AND PUSH20 0xFFFFFFFFFFFFFFFFFFFFFFFFFFFFFFFFFFFFFFFF AND CALLER PUSH20 0xFFFFFFFFFFFFFFFFFFFFFFFFFFFFFFFFFFFFFFFF AND EQ PUSH2 0x543 JUMPI PUSH1 0x40 MLOAD PUSH32 0x8C379A000000000000000000000000000000000000000000000000000000000 DUP2 MSTORE PUSH1 0x4 ADD PUSH2 0x53A SWAP1 PUSH2 0xB21 JUMP JUMPDEST PUSH1 0x40 MLOAD DUP1 SWAP2 SUB SWAP1 REVERT JUMPDEST POP POP JUMP JUMPDEST CALLER PUSH1 0x0 DUP1 PUSH1 0x1 SLOAD DUP2 MSTORE PUSH1 0x20 ADD SWAP1 DUP2 MSTORE PUSH1 0x20 ADD PUSH1 0x0 KECCAK256 PUSH1 0x0 PUSH2 0x100 EXP DUP2 SLOAD DUP2 PUSH20 0xFFFFFFFFFFFFFFFFFFFFFFFFFFFFFFFFFFFFFFFF MUL NOT AND SWAP1 DUP4 PUSH20 0xFFFFFFFFFFFFFFFFFFFFFFFFFFFFFFFFFFFFFFFF AND MUL OR SWAP1 SSTORE POP PUSH1 0x1 PUSH1 0x0 DUP2 SLOAD DUP1 SWAP3 SWAP2 SWAP1 PUSH2 0x5AD SWAP1 PUSH2 0xB9F JUMP JUMPDEST SWAP2 SWAP1 POP SSTORE POP ADDRESS PUSH20 0xFFFFFFFFFFFFFFFFFFFFFFFFFFFFFFFFFFFFFFFF AND PUSH2 0x8FC CALLVALUE SWAP1 DUP2 ISZERO MUL SWAP1 PUSH1 0x40 MLOAD PUSH1 0x0 PUSH1 0x40 MLOAD DUP1 DUP4 SUB DUP2 DUP6 DUP9 DUP9 CALL SWAP4 POP POP POP POP ISZERO DUP1 ISZERO PUSH2 0x5F8 JUMPI RETURNDATASIZE PUSH1 0x0 DUP1 RETURNDATACOPY RETURNDATASIZE PUSH1 0x0 REVERT JUMPDEST POP JUMP JUMPDEST PUSH1 0x0 DUP3 DUP3 MSTORE PUSH1 0x20 DUP3 ADD SWAP1 POP SWAP3 SWAP2 POP POP JUMP JUMPDEST PUSH32 0x5061796D656E742073686F756C64206265207468652073756273637269707469 PUSH1 0x0 DUP3 ADD MSTORE PUSH32 0x6F6E206665650000000000000000000000000000000000000000000000000000 PUSH1 0x20 DUP3 ADD MSTORE POP JUMP JUMPDEST PUSH1 0x0 PUSH2 0x668 PUSH1 0x26 DUP4 PUSH2 0x5FB JUMP JUMPDEST SWAP2 POP PUSH2 0x673 DUP3 PUSH2 0x60C JUMP JUMPDEST PUSH1 0x40 DUP3 ADD SWAP1 POP SWAP2 SWAP1 POP JUMP JUMPDEST PUSH1 0x0 PUSH1 0x20 DUP3 ADD SWAP1 POP DUP2 DUP2 SUB PUSH1 0x0 DUP4 ADD MSTORE PUSH2 0x697 DUP2 PUSH2 0x65B JUMP JUMPDEST SWAP1 POP SWAP2 SWAP1 POP JUMP JUMPDEST PUSH1 0x0 DUP2 SWAP1 POP SWAP2 SWAP1 POP JUMP JUMPDEST PUSH2 0x6B1 DUP2 PUSH2 0x69E JUMP JUMPDEST DUP3 MSTORE POP POP JUMP JUMPDEST PUSH1 0x0 PUSH1 0x20 DUP3 ADD SWAP1 POP PUSH2 0x6CC PUSH1 0x0 DUP4 ADD DUP5 PUSH2 0x6A8 JUMP JUMPDEST SWAP3 SWAP2 POP POP JUMP JUMPDEST PUSH1 0x0 DUP2 MLOAD SWAP1 POP SWAP2 SWAP1 POP JUMP JUMPDEST PUSH1 0x0 JUMPDEST DUP4 DUP2 LT ISZERO PUSH2 0x6FB JUMPI DUP1 DUP3 ADD MLOAD DUP2 DUP5 ADD MSTORE PUSH1 0x20 DUP2 ADD SWAP1 POP PUSH2 0x6E0 JUMP JUMPDEST DUP4 DUP2 GT ISZERO PUSH2 0x70A JUMPI PUSH1 0x0 DUP5 DUP5 ADD MSTORE JUMPDEST POP POP POP POP JUMP JUMPDEST PUSH1 0x0 PUSH1 0x1F NOT PUSH1 0x1F DUP4 ADD AND SWAP1 POP SWAP2 SWAP1 POP JUMP JUMPDEST PUSH1 0x0 PUSH2 0x72C DUP3 PUSH2 0x6D2 JUMP JUMPDEST PUSH2 0x736 DUP2 DUP6 PUSH2 0x5FB JUMP JUMPDEST SWAP4 POP PUSH2 0x746 DUP2 DUP6 PUSH1 0x20 DUP7 ADD PUSH2 0x6DD JUMP JUMPDEST PUSH2 0x74F DUP2 PUSH2 0x710 JUMP JUMPDEST DUP5 ADD SWAP2 POP POP SWAP3 SWAP2 POP POP JUMP JUMPDEST PUSH1 0x0 PUSH1 0x20 DUP3 ADD SWAP1 POP DUP2 DUP2 SUB PUSH1 0x0 DUP4 ADD MSTORE PUSH2 0x774 DUP2 DUP5 PUSH2 0x721 JUMP JUMPDEST SWAP1 POP SWAP3 SWAP2 POP POP JUMP JUMPDEST PUSH1 0x0 DUP2 MLOAD SWAP1 POP SWAP2 SWAP1 POP JUMP JUMPDEST PUSH1 0x0 DUP3 DUP3 MSTORE PUSH1 0x20 DUP3 ADD SWAP1 POP SWAP3 SWAP2 POP POP JUMP JUMPDEST PUSH1 0x0 DUP2 SWAP1 POP PUSH1 0x20 DUP3 ADD SWAP1 POP SWAP2 SWAP1 POP JUMP JUMPDEST PUSH1 0x0 PUSH20 0xFFFFFFFFFFFFFFFFFFFFFFFFFFFFFFFFFFFFFFFF DUP3 AND SWAP1 POP SWAP2 SWAP1 POP JUMP JUMPDEST PUSH1 0x0 PUSH2 0x7D3 DUP3 PUSH2 0x7A8 JUMP JUMPDEST SWAP1 POP SWAP2 SWAP1 POP JUMP JUMPDEST PUSH2 0x7E3 DUP2 PUSH2 0x7C8 JUMP JUMPDEST DUP3 MSTORE POP POP JUMP JUMPDEST PUSH1 0x0 PUSH2 0x7F5 DUP4 DUP4 PUSH2 0x7DA JUMP JUMPDEST PUSH1 0x20 DUP4 ADD SWAP1 POP SWAP3 SWAP2 POP POP JUMP JUMPDEST PUSH1 0x0 PUSH1 0x20 DUP3 ADD SWAP1 POP SWAP2 SWAP1 POP JUMP JUMPDEST PUSH1 0x0 PUSH2 0x819 DUP3 PUSH2 0x77C JUMP JUMPDEST PUSH2 0x823 DUP2 DUP6 PUSH2 0x787 JUMP JUMPDEST SWAP4 POP PUSH2 0x82E DUP4 PUSH2 0x798 JUMP JUMPDEST DUP1 PUSH1 0x0 JUMPDEST DUP4 DUP2 LT ISZERO PUSH2 0x85F JUMPI DUP2 MLOAD PUSH2 0x846 DUP9 DUP3 PUSH2 0x7E9 JUMP JUMPDEST SWAP8 POP PUSH2 0x851 DUP4 PUSH2 0x801 JUMP JUMPDEST SWAP3 POP POP PUSH1 0x1 DUP2 ADD SWAP1 POP PUSH2 0x832 JUMP JUMPDEST POP DUP6 SWAP4 POP POP POP POP SWAP3 SWAP2 POP POP JUMP JUMPDEST PUSH1 0x0 PUSH1 0x20 DUP3 ADD SWAP1 POP DUP2 DUP2 SUB PUSH1 0x0 DUP4 ADD MSTORE PUSH2 0x886 DUP2 DUP5 PUSH2 0x80E JUMP JUMPDEST SWAP1 POP SWAP3 SWAP2 POP POP JUMP JUMPDEST PUSH1 0x0 PUSH1 0x40 MLOAD SWAP1 POP SWAP1 JUMP JUMPDEST PUSH1 0x0 DUP1 REVERT JUMPDEST PUSH1 0x0 DUP1 REVERT JUMPDEST PUSH1 0x0 DUP1 REVERT JUMPDEST PUSH1 0x0 DUP1 REVERT JUMPDEST PUSH32 0x4E487B7100000000000000000000000000000000000000000000000000000000 PUSH1 0x0 MSTORE PUSH1 0x41 PUSH1 0x4 MSTORE PUSH1 0x24 PUSH1 0x0 REVERT JUMPDEST PUSH2 0x8E4 DUP3 PUSH2 0x710 JUMP JUMPDEST DUP2 ADD DUP2 DUP2 LT PUSH8 0xFFFFFFFFFFFFFFFF DUP3 GT OR ISZERO PUSH2 0x903 JUMPI PUSH2 0x902 PUSH2 0x8AC JUMP JUMPDEST JUMPDEST DUP1 PUSH1 0x40 MSTORE POP POP POP JUMP JUMPDEST PUSH1 0x0 PUSH2 0x916 PUSH2 0x88E JUMP JUMPDEST SWAP1 POP PUSH2 0x922 DUP3 DUP3 PUSH2 0x8DB JUMP JUMPDEST SWAP2 SWAP1 POP JUMP JUMPDEST PUSH1 0x0 PUSH8 0xFFFFFFFFFFFFFFFF DUP3 GT ISZERO PUSH2 0x942 JUMPI PUSH2 0x941 PUSH2 0x8AC JUMP JUMPDEST JUMPDEST PUSH2 0x94B DUP3 PUSH2 0x710 JUMP JUMPDEST SWAP1 POP PUSH1 0x20 DUP2 ADD SWAP1 POP SWAP2 SWAP1 POP JUMP JUMPDEST DUP3 DUP2 DUP4 CALLDATACOPY PUSH1 0x0 DUP4 DUP4 ADD MSTORE POP POP POP JUMP JUMPDEST PUSH1 0x0 PUSH2 0x97A PUSH2 0x975 DUP5 PUSH2 0x927 JUMP JUMPDEST PUSH2 0x90C JUMP JUMPDEST SWAP1 POP DUP3 DUP2 MSTORE PUSH1 0x20 DUP2 ADD DUP5 DUP5 DUP5 ADD GT ISZERO PUSH2 0x996 JUMPI PUSH2 0x995 PUSH2 0x8A7 JUMP JUMPDEST JUMPDEST PUSH2 0x9A1 DUP5 DUP3 DUP6 PUSH2 0x958 JUMP JUMPDEST POP SWAP4 SWAP3 POP POP POP JUMP JUMPDEST PUSH1 0x0 DUP3 PUSH1 0x1F DUP4 ADD SLT PUSH2 0x9BE JUMPI PUSH2 0x9BD PUSH2 0x8A2 JUMP JUMPDEST JUMPDEST DUP2 CALLDATALOAD PUSH2 0x9CE DUP5 DUP3 PUSH1 0x20 DUP7 ADD PUSH2 0x967 JUMP JUMPDEST SWAP2 POP POP SWAP3 SWAP2 POP POP JUMP JUMPDEST PUSH1 0x0 DUP1 PUSH1 0x40 DUP4 DUP6 SUB SLT ISZERO PUSH2 0x9EE JUMPI PUSH2 0x9ED PUSH2 0x898 JUMP JUMPDEST JUMPDEST PUSH1 0x0 DUP4 ADD CALLDATALOAD PUSH8 0xFFFFFFFFFFFFFFFF DUP2 GT ISZERO PUSH2 0xA0C JUMPI PUSH2 0xA0B PUSH2 0x89D JUMP JUMPDEST JUMPDEST PUSH2 0xA18 DUP6 DUP3 DUP7 ADD PUSH2 0x9A9 JUMP JUMPDEST SWAP3 POP POP PUSH1 0x20 DUP4 ADD CALLDATALOAD PUSH8 0xFFFFFFFFFFFFFFFF DUP2 GT ISZERO PUSH2 0xA39 JUMPI PUSH2 0xA38 PUSH2 0x89D JUMP JUMPDEST JUMPDEST PUSH2 0xA45 DUP6 DUP3 DUP7 ADD PUSH2 0x9A9 JUMP JUMPDEST SWAP2 POP POP SWAP3 POP SWAP3 SWAP1 POP JUMP JUMPDEST PUSH32 0x4E487B7100000000000000000000000000000000000000000000000000000000 PUSH1 0x0 MSTORE PUSH1 0x22 PUSH1 0x4 MSTORE PUSH1 0x24 PUSH1 0x0 REVERT JUMPDEST PUSH1 0x0 PUSH1 0x2 DUP3 DIV SWAP1 POP PUSH1 0x1 DUP3 AND DUP1 PUSH2 0xA96 JUMPI PUSH1 0x7F DUP3 AND SWAP2 POP JUMPDEST PUSH1 0x20 DUP3 LT DUP2 SUB PUSH2 0xAA9 JUMPI PUSH2 0xAA8 PUSH2 0xA4F JUMP JUMPDEST JUMPDEST POP SWAP2 SWAP1 POP JUMP JUMPDEST PUSH32 0x4F6E6C7920617574686F722063616E2063616C6C2074686973206D6574686F64 PUSH1 0x0 DUP3 ADD MSTORE PUSH32 0x2100000000000000000000000000000000000000000000000000000000000000 PUSH1 0x20 DUP3 ADD MSTORE POP JUMP JUMPDEST PUSH1 0x0 PUSH2 0xB0B PUSH1 0x21 DUP4 PUSH2 0x5FB JUMP JUMPDEST SWAP2 POP PUSH2 0xB16 DUP3 PUSH2 0xAAF JUMP JUMPDEST PUSH1 0x40 DUP3 ADD SWAP1 POP SWAP2 SWAP1 POP JUMP JUMPDEST PUSH1 0x0 PUSH1 0x20 DUP3 ADD SWAP1 POP DUP2 DUP2 SUB PUSH1 0x0 DUP4 ADD MSTORE PUSH2 0xB3A DUP2 PUSH2 0xAFE JUMP JUMPDEST SWAP1 POP SWAP2 SWAP1 POP JUMP JUMPDEST PUSH32 0x4E487B7100000000000000000000000000000000000000000000000000000000 PUSH1 0x0 MSTORE PUSH1 0x32 PUSH1 0x4 MSTORE PUSH1 0x24 PUSH1 0x0 REVERT JUMPDEST PUSH32 0x4E487B7100000000000000000000000000000000000000000000000000000000 PUSH1 0x0 MSTORE PUSH1 0x11 PUSH1 0x4 MSTORE PUSH1 0x24 PUSH1 0x0 REVERT JUMPDEST PUSH1 0x0 PUSH2 0xBAA DUP3 PUSH2 0x69E JUMP JUMPDEST SWAP2 POP PUSH32 0xFFFFFFFFFFFFFFFFFFFFFFFFFFFFFFFFFFFFFFFFFFFFFFFFFFFFFFFFFFFFFFFF DUP3 SUB PUSH2 0xBDC JUMPI PUSH2 0xBDB PUSH2 0xB70 JUMP JUMPDEST JUMPDEST PUSH1 0x1 DUP3 ADD SWAP1 POP SWAP2 SWAP1 POP JUMP INVALID LOG2 PUSH5 0x6970667358 0x22 SLT KECCAK256 CALLDATASIZE 0xC SSTORE RETURNDATACOPY 0xEF BYTE 0xD3 0xCC 0x23 SWAP8 ORIGIN 0xF6 0x2C SHL SWAP9 BASEFEE 0xDE 0xE2 0x4B SGT SWAP8 0xB7 BYTE SWAP2 SAR 0xAD EXTCODEHASH POP DUP14 0xD1 DUP9 PUSH19 0x64736F6C634300080E00330000000000000000 "
				},
				"gasEstimates": {
					"creation": {
						"codeDepositCost": "620200",
						"executionCost": "infinite",
						"totalCost": "infinite"
					},
					"external": {
						"": "2633",
						"addSubscriber()": "infinite",
						"channelName()": "infinite",
						"printSubscribersList()": "infinite",
						"publishArticle(string,string)": "infinite",
						"subscriptionFee()": "2407",
						"withdrawAmount()": "infinite"
					}
				},
				"methodIdentifiers": {
					"addSubscriber()": "be291999",
					"channelName()": "2443877c",
					"printSubscribersList()": "82d69b62",
					"publishArticle(string,string)": "95961f05",
					"subscriptionFee()": "0aa0a175",
					"withdrawAmount()": "534844a2"
				}
			},
			"storageLayout": {
				"storage": [
					{
						"astId": 5,
						"contract": "contracts/myContract.sol:testContract",
						"label": "subscribers",
						"offset": 0,
						"slot": "0",
						"type": "t_mapping(t_uint256,t_address)"
					},
					{
						"astId": 7,
						"contract": "contracts/myContract.sol:testContract",
						"label": "subscriberCount",
						"offset": 0,
						"slot": "1",
						"type": "t_uint256"
					},
					{
						"astId": 21,
						"contract": "contracts/myContract.sol:testContract",
						"label": "articles",
						"offset": 0,
						"slot": "2",
						"type": "t_mapping(t_uint256,t_struct(articleInfo)16_storage)"
					},
					{
						"astId": 23,
						"contract": "contracts/myContract.sol:testContract",
						"label": "articleCount",
						"offset": 0,
						"slot": "3",
						"type": "t_uint256"
					},
					{
						"astId": 25,
						"contract": "contracts/myContract.sol:testContract",
						"label": "author",
						"offset": 0,
						"slot": "4",
						"type": "t_address_payable"
					},
					{
						"astId": 27,
						"contract": "contracts/myContract.sol:testContract",
						"label": "subscriptionFee",
						"offset": 0,
						"slot": "5",
						"type": "t_uint256"
					},
					{
						"astId": 29,
						"contract": "contracts/myContract.sol:testContract",
						"label": "channelName",
						"offset": 0,
						"slot": "6",
						"type": "t_string_storage"
					}
				],
				"types": {
					"t_address": {
						"encoding": "inplace",
						"label": "address",
						"numberOfBytes": "20"
					},
					"t_address_payable": {
						"encoding": "inplace",
						"label": "address payable",
						"numberOfBytes": "20"
					},
					"t_mapping(t_uint256,t_address)": {
						"encoding": "mapping",
						"key": "t_uint256",
						"label": "mapping(uint256 => address)",
						"numberOfBytes": "32",
						"value": "t_address"
					},
					"t_mapping(t_uint256,t_struct(articleInfo)16_storage)": {
						"encoding": "mapping",
						"key": "t_uint256",
						"label": "mapping(uint256 => struct testContract.articleInfo)",
						"numberOfBytes": "32",
						"value": "t_struct(articleInfo)16_storage"
					},
					"t_string_storage": {
						"encoding": "bytes",
						"label": "string",
						"numberOfBytes": "32"
					},
					"t_struct(articleInfo)16_storage": {
						"encoding": "inplace",
						"label": "struct testContract.articleInfo",
						"members": [
							{
								"astId": 9,
								"contract": "contracts/myContract.sol:testContract",
								"label": "articleNo",
								"offset": 0,
								"slot": "0",
								"type": "t_uint256"
							},
							{
								"astId": 11,
								"contract": "contracts/myContract.sol:testContract",
								"label": "atricleTitle",
								"offset": 0,
								"slot": "1",
								"type": "t_string_storage"
							},
							{
								"astId": 13,
								"contract": "contracts/myContract.sol:testContract",
								"label": "articleCID",
								"offset": 0,
								"slot": "2",
								"type": "t_string_storage"
							},
							{
								"astId": 15,
								"contract": "contracts/myContract.sol:testContract",
								"label": "articleTimeStamp",
								"offset": 0,
								"slot": "3",
								"type": "t_uint256"
							}
						],
						"numberOfBytes": "128"
					},
					"t_uint256": {
						"encoding": "inplace",
						"label": "uint256",
						"numberOfBytes": "32"
					}
				}
			},
			"userdoc": {
				"kind": "user",
				"methods": {},
				"version": 1
			}
		}
	}
}