{
	"contracts/myContract.sol": {
		"testContract": {
			"abi": [
				{
					"inputs": [
						{
							"internalType": "uint256",
							"name": "fee",
							"type": "uint256"
						}
					],
					"stateMutability": "nonpayable",
					"type": "constructor"
				},
				{
					"anonymous": false,
					"inputs": [
						{
							"indexed": false,
							"internalType": "string",
							"name": "name",
							"type": "string"
						},
						{
							"indexed": false,
							"internalType": "address",
							"name": "addr",
							"type": "address"
						},
						{
							"indexed": false,
							"internalType": "uint256",
							"name": "amount",
							"type": "uint256"
						}
					],
					"name": "Received",
					"type": "event"
				},
				{
					"stateMutability": "payable",
					"type": "fallback"
				},
				{
					"inputs": [
						{
							"internalType": "string",
							"name": "userName",
							"type": "string"
						}
					],
					"name": "addSubscriber",
					"outputs": [],
					"stateMutability": "payable",
					"type": "function"
				},
				{
					"inputs": [],
					"name": "author",
					"outputs": [
						{
							"internalType": "address payable",
							"name": "",
							"type": "address"
						}
					],
					"stateMutability": "view",
					"type": "function"
				},
				{
					"inputs": [],
					"name": "getAuthorBalance",
					"outputs": [
						{
							"internalType": "uint256",
							"name": "",
							"type": "uint256"
						}
					],
					"stateMutability": "view",
					"type": "function"
				},
				{
					"inputs": [],
					"name": "getContractBalance",
					"outputs": [
						{
							"internalType": "uint256",
							"name": "",
							"type": "uint256"
						}
					],
					"stateMutability": "view",
					"type": "function"
				},
				{
					"inputs": [],
					"name": "printSubscribersList",
					"outputs": [
						{
							"components": [
								{
									"internalType": "string",
									"name": "name",
									"type": "string"
								},
								{
									"internalType": "address",
									"name": "addr",
									"type": "address"
								}
							],
							"internalType": "struct testContract.subscriber[]",
							"name": "",
							"type": "tuple[]"
						}
					],
					"stateMutability": "view",
					"type": "function"
				},
				{
					"inputs": [],
					"name": "subscriberCount",
					"outputs": [
						{
							"internalType": "uint256",
							"name": "",
							"type": "uint256"
						}
					],
					"stateMutability": "view",
					"type": "function"
				},
				{
					"inputs": [],
					"name": "subscriptionFee",
					"outputs": [
						{
							"internalType": "uint256",
							"name": "",
							"type": "uint256"
						}
					],
					"stateMutability": "view",
					"type": "function"
				},
				{
					"inputs": [],
					"name": "withdrawAmount",
					"outputs": [],
					"stateMutability": "payable",
					"type": "function"
				},
				{
					"stateMutability": "payable",
					"type": "receive"
				}
			],
			"devdoc": {
				"kind": "dev",
				"methods": {},
				"version": 1
			},
			"evm": {
				"assembly": "    /* \"contracts/myContract.sol\":76:1849  contract testContract {\r... */\n  mstore(0x40, 0x80)\n    /* \"contracts/myContract.sol\":195:196  0 */\n  0x00\n    /* \"contracts/myContract.sol\":165:196  uint public subscriberCount = 0 */\n  0x01\n  sstore\n    /* \"contracts/myContract.sol\":419:526  constructor(uint fee){\r... */\n  callvalue\n  dup1\n  iszero\n  tag_1\n  jumpi\n  0x00\n  dup1\n  revert\ntag_1:\n  pop\n  mload(0x40)\n  sub(codesize, bytecodeSize)\n  dup1\n  bytecodeSize\n  dup4\n  codecopy\n  dup2\n  dup2\n  add\n  0x40\n  mstore\n  dup2\n  add\n  swap1\n  tag_2\n  swap2\n  swap1\n  tag_3\n  jump\t// in\ntag_2:\n    /* \"contracts/myContract.sol\":468:478  msg.sender */\n  caller\n    /* \"contracts/myContract.sol\":451:457  author */\n  0x02\n  0x00\n    /* \"contracts/myContract.sol\":451:479  author = payable(msg.sender) */\n  0x0100\n  exp\n  dup2\n  sload\n  dup2\n  0xffffffffffffffffffffffffffffffffffffffff\n  mul\n  not\n  and\n  swap1\n  dup4\n  0xffffffffffffffffffffffffffffffffffffffff\n  and\n  mul\n  or\n  swap1\n  sstore\n  pop\n    /* \"contracts/myContract.sol\":514:518  1e18 */\n  0x0de0b6b3a7640000\n    /* \"contracts/myContract.sol\":508:511  fee */\n  dup2\n    /* \"contracts/myContract.sol\":508:518  fee * 1e18 */\n  tag_6\n  swap2\n  swap1\n  tag_7\n  jump\t// in\ntag_6:\n    /* \"contracts/myContract.sol\":490:505  subscriptionFee */\n  0x03\n    /* \"contracts/myContract.sol\":490:518  subscriptionFee = fee * 1e18 */\n  dup2\n  swap1\n  sstore\n  pop\n    /* \"contracts/myContract.sol\":419:526  constructor(uint fee){\r... */\n  pop\n    /* \"contracts/myContract.sol\":76:1849  contract testContract {\r... */\n  jump(tag_8)\n    /* \"#utility.yul\":7:150   */\ntag_10:\n    /* \"#utility.yul\":64:69   */\n  0x00\n    /* \"#utility.yul\":95:101   */\n  dup2\n    /* \"#utility.yul\":89:102   */\n  mload\n    /* \"#utility.yul\":80:102   */\n  swap1\n  pop\n    /* \"#utility.yul\":111:144   */\n  tag_12\n    /* \"#utility.yul\":138:143   */\n  dup2\n    /* \"#utility.yul\":111:144   */\n  tag_13\n  jump\t// in\ntag_12:\n    /* \"#utility.yul\":7:150   */\n  swap3\n  swap2\n  pop\n  pop\n  jump\t// out\n    /* \"#utility.yul\":156:507   */\ntag_3:\n    /* \"#utility.yul\":226:232   */\n  0x00\n    /* \"#utility.yul\":275:277   */\n  0x20\n    /* \"#utility.yul\":263:272   */\n  dup3\n    /* \"#utility.yul\":254:261   */\n  dup5\n    /* \"#utility.yul\":250:273   */\n  sub\n    /* \"#utility.yul\":246:278   */\n  slt\n    /* \"#utility.yul\":243:362   */\n  iszero\n  tag_15\n  jumpi\n    /* \"#utility.yul\":281:360   */\n  tag_16\n  tag_17\n  jump\t// in\ntag_16:\n    /* \"#utility.yul\":243:362   */\ntag_15:\n    /* \"#utility.yul\":401:402   */\n  0x00\n    /* \"#utility.yul\":426:490   */\n  tag_18\n    /* \"#utility.yul\":482:489   */\n  dup5\n    /* \"#utility.yul\":473:479   */\n  dup3\n    /* \"#utility.yul\":462:471   */\n  dup6\n    /* \"#utility.yul\":458:480   */\n  add\n    /* \"#utility.yul\":426:490   */\n  tag_10\n  jump\t// in\ntag_18:\n    /* \"#utility.yul\":416:490   */\n  swap2\n  pop\n    /* \"#utility.yul\":372:500   */\n  pop\n    /* \"#utility.yul\":156:507   */\n  swap3\n  swap2\n  pop\n  pop\n  jump\t// out\n    /* \"#utility.yul\":594:942   */\ntag_7:\n    /* \"#utility.yul\":634:641   */\n  0x00\n    /* \"#utility.yul\":657:677   */\n  tag_22\n    /* \"#utility.yul\":675:676   */\n  dup3\n    /* \"#utility.yul\":657:677   */\n  tag_23\n  jump\t// in\ntag_22:\n    /* \"#utility.yul\":652:677   */\n  swap2\n  pop\n    /* \"#utility.yul\":691:711   */\n  tag_24\n    /* \"#utility.yul\":709:710   */\n  dup4\n    /* \"#utility.yul\":691:711   */\n  tag_23\n  jump\t// in\ntag_24:\n    /* \"#utility.yul\":686:711   */\n  swap3\n  pop\n    /* \"#utility.yul\":879:880   */\n  dup2\n    /* \"#utility.yul\":811:877   */\n  0xffffffffffffffffffffffffffffffffffffffffffffffffffffffffffffffff\n    /* \"#utility.yul\":807:881   */\n  div\n    /* \"#utility.yul\":804:805   */\n  dup4\n    /* \"#utility.yul\":801:882   */\n  gt\n    /* \"#utility.yul\":796:797   */\n  dup3\n    /* \"#utility.yul\":789:798   */\n  iszero\n    /* \"#utility.yul\":782:799   */\n  iszero\n    /* \"#utility.yul\":778:883   */\n  and\n    /* \"#utility.yul\":775:906   */\n  iszero\n  tag_25\n  jumpi\n    /* \"#utility.yul\":886:904   */\n  tag_26\n  tag_27\n  jump\t// in\ntag_26:\n    /* \"#utility.yul\":775:906   */\ntag_25:\n    /* \"#utility.yul\":934:935   */\n  dup3\n    /* \"#utility.yul\":931:932   */\n  dup3\n    /* \"#utility.yul\":927:936   */\n  mul\n    /* \"#utility.yul\":916:936   */\n  swap1\n  pop\n    /* \"#utility.yul\":594:942   */\n  swap3\n  swap2\n  pop\n  pop\n  jump\t// out\n    /* \"#utility.yul\":948:1025   */\ntag_23:\n    /* \"#utility.yul\":985:992   */\n  0x00\n    /* \"#utility.yul\":1014:1019   */\n  dup2\n    /* \"#utility.yul\":1003:1019   */\n  swap1\n  pop\n    /* \"#utility.yul\":948:1025   */\n  swap2\n  swap1\n  pop\n  jump\t// out\n    /* \"#utility.yul\":1031:1211   */\ntag_27:\n    /* \"#utility.yul\":1079:1156   */\n  0x4e487b7100000000000000000000000000000000000000000000000000000000\n    /* \"#utility.yul\":1076:1077   */\n  0x00\n    /* \"#utility.yul\":1069:1157   */\n  mstore\n    /* \"#utility.yul\":1176:1180   */\n  0x11\n    /* \"#utility.yul\":1173:1174   */\n  0x04\n    /* \"#utility.yul\":1166:1181   */\n  mstore\n    /* \"#utility.yul\":1200:1204   */\n  0x24\n    /* \"#utility.yul\":1197:1198   */\n  0x00\n    /* \"#utility.yul\":1190:1205   */\n  revert\n    /* \"#utility.yul\":1340:1457   */\ntag_17:\n    /* \"#utility.yul\":1449:1450   */\n  0x00\n    /* \"#utility.yul\":1446:1447   */\n  dup1\n    /* \"#utility.yul\":1439:1451   */\n  revert\n    /* \"#utility.yul\":1463:1585   */\ntag_13:\n    /* \"#utility.yul\":1536:1560   */\n  tag_34\n    /* \"#utility.yul\":1554:1559   */\n  dup2\n    /* \"#utility.yul\":1536:1560   */\n  tag_23\n  jump\t// in\ntag_34:\n    /* \"#utility.yul\":1529:1534   */\n  dup2\n    /* \"#utility.yul\":1526:1561   */\n  eq\n    /* \"#utility.yul\":1516:1579   */\n  tag_35\n  jumpi\n    /* \"#utility.yul\":1575:1576   */\n  0x00\n    /* \"#utility.yul\":1572:1573   */\n  dup1\n    /* \"#utility.yul\":1565:1577   */\n  revert\n    /* \"#utility.yul\":1516:1579   */\ntag_35:\n    /* \"#utility.yul\":1463:1585   */\n  pop\n  jump\t// out\n    /* \"contracts/myContract.sol\":76:1849  contract testContract {\r... */\ntag_8:\n  dataSize(sub_0)\n  dup1\n  dataOffset(sub_0)\n  0x00\n  codecopy\n  0x00\n  return\nstop\n\nsub_0: assembly {\n        /* \"contracts/myContract.sol\":76:1849  contract testContract {\r... */\n      mstore(0x40, 0x80)\n      jumpi(tag_1, lt(calldatasize, 0x04))\n      shr(0xe0, calldataload(0x00))\n      dup1\n      0x7f6b2809\n      gt\n      tag_11\n      jumpi\n      dup1\n      0x7f6b2809\n      eq\n      tag_7\n      jumpi\n      dup1\n      0x82d69b62\n      eq\n      tag_8\n      jumpi\n      dup1\n      0xa6c3e6b9\n      eq\n      tag_9\n      jumpi\n      dup1\n      0xef352bbe\n      eq\n      tag_10\n      jumpi\n      jump(tag_2)\n    tag_11:\n      dup1\n      0x0aa0a175\n      eq\n      tag_3\n      jumpi\n      dup1\n      0x2edd4fa5\n      eq\n      tag_4\n      jumpi\n      dup1\n      0x534844a2\n      eq\n      tag_5\n      jumpi\n      dup1\n      0x6f9fb98a\n      eq\n      tag_6\n      jumpi\n      jump(tag_2)\n    tag_1:\n      jumpi(tag_2, calldatasize)\n        /* \"contracts/myContract.sol\":845:860  subscriptionFee */\n      sload(0x03)\n        /* \"contracts/myContract.sol\":831:840  msg.value */\n      callvalue\n        /* \"contracts/myContract.sol\":831:860  msg.value ==  subscriptionFee */\n      eq\n        /* \"contracts/myContract.sol\":822:908  require( msg.value ==  subscriptionFee , \"Payment should be the subscription fee\"    ) */\n      tag_14\n      jumpi\n      mload(0x40)\n      0x08c379a000000000000000000000000000000000000000000000000000000000\n      dup2\n      mstore\n      0x04\n      add\n      tag_15\n      swap1\n      tag_16\n      jump\t// in\n    tag_15:\n      mload(0x40)\n      dup1\n      swap2\n      sub\n      swap1\n      revert\n    tag_14:\n        /* \"contracts/myContract.sol\":76:1849  contract testContract {\r... */\n      stop\n    tag_2:\n        /* \"contracts/myContract.sol\":706:721  subscriptionFee */\n      sload(0x03)\n        /* \"contracts/myContract.sol\":692:701  msg.value */\n      callvalue\n        /* \"contracts/myContract.sol\":692:721  msg.value ==  subscriptionFee */\n      eq\n        /* \"contracts/myContract.sol\":683:769  require( msg.value ==  subscriptionFee , \"Payment should be the subscription fee\"    ) */\n      tag_19\n      jumpi\n      mload(0x40)\n      0x08c379a000000000000000000000000000000000000000000000000000000000\n      dup2\n      mstore\n      0x04\n      add\n      tag_20\n      swap1\n      tag_16\n      jump\t// in\n    tag_20:\n      mload(0x40)\n      dup1\n      swap2\n      sub\n      swap1\n      revert\n    tag_19:\n        /* \"contracts/myContract.sol\":76:1849  contract testContract {\r... */\n      stop\n        /* \"contracts/myContract.sol\":320:347  uint public subscriptionFee */\n    tag_3:\n      callvalue\n      dup1\n      iszero\n      tag_21\n      jumpi\n      0x00\n      dup1\n      revert\n    tag_21:\n      pop\n      tag_22\n      tag_23\n      jump\t// in\n    tag_22:\n      mload(0x40)\n      tag_24\n      swap2\n      swap1\n      tag_25\n      jump\t// in\n    tag_24:\n      mload(0x40)\n      dup1\n      swap2\n      sub\n      swap1\n      return\n        /* \"contracts/myContract.sol\":1075:1355  function addSubscriber(string memory userName) public payable{\r... */\n    tag_4:\n      tag_26\n      0x04\n      dup1\n      calldatasize\n      sub\n      dup2\n      add\n      swap1\n      tag_27\n      swap2\n      swap1\n      tag_28\n      jump\t// in\n    tag_27:\n      tag_29\n      jump\t// in\n    tag_26:\n      stop\n        /* \"contracts/myContract.sol\":1364:1559  function withdrawAmount() payable public{\r... */\n    tag_5:\n      tag_30\n      tag_31\n      jump\t// in\n    tag_30:\n      stop\n        /* \"contracts/myContract.sol\":534:637  function getContractBalance() public view returns (uint){\r... */\n    tag_6:\n      callvalue\n      dup1\n      iszero\n      tag_32\n      jumpi\n      0x00\n      dup1\n      revert\n    tag_32:\n      pop\n      tag_33\n      tag_34\n      jump\t// in\n    tag_33:\n      mload(0x40)\n      tag_35\n      swap2\n      swap1\n      tag_25\n      jump\t// in\n    tag_35:\n      mload(0x40)\n      dup1\n      swap2\n      sub\n      swap1\n      return\n        /* \"contracts/myContract.sol\":974:1067  function getAuthorBalance() public view returns(uint){\r... */\n    tag_7:\n      callvalue\n      dup1\n      iszero\n      tag_36\n      jumpi\n      0x00\n      dup1\n      revert\n    tag_36:\n      pop\n      tag_37\n      tag_38\n      jump\t// in\n    tag_37:\n      mload(0x40)\n      tag_39\n      swap2\n      swap1\n      tag_25\n      jump\t// in\n    tag_39:\n      mload(0x40)\n      dup1\n      swap2\n      sub\n      swap1\n      return\n        /* \"contracts/myContract.sol\":1573:1844  function printSubscribersList() public view returns(subscriber[]memory){\r... */\n    tag_8:\n      callvalue\n      dup1\n      iszero\n      tag_40\n      jumpi\n      0x00\n      dup1\n      revert\n    tag_40:\n      pop\n      tag_41\n      tag_42\n      jump\t// in\n    tag_41:\n      mload(0x40)\n      tag_43\n      swap2\n      swap1\n      tag_44\n      jump\t// in\n    tag_43:\n      mload(0x40)\n      dup1\n      swap2\n      sub\n      swap1\n      return\n        /* \"contracts/myContract.sol\":284:313  address payable public author */\n    tag_9:\n      callvalue\n      dup1\n      iszero\n      tag_45\n      jumpi\n      0x00\n      dup1\n      revert\n    tag_45:\n      pop\n      tag_46\n      tag_47\n      jump\t// in\n    tag_46:\n      mload(0x40)\n      tag_48\n      swap2\n      swap1\n      tag_49\n      jump\t// in\n    tag_48:\n      mload(0x40)\n      dup1\n      swap2\n      sub\n      swap1\n      return\n        /* \"contracts/myContract.sol\":165:196  uint public subscriberCount = 0 */\n    tag_10:\n      callvalue\n      dup1\n      iszero\n      tag_50\n      jumpi\n      0x00\n      dup1\n      revert\n    tag_50:\n      pop\n      tag_51\n      tag_52\n      jump\t// in\n    tag_51:\n      mload(0x40)\n      tag_53\n      swap2\n      swap1\n      tag_25\n      jump\t// in\n    tag_53:\n      mload(0x40)\n      dup1\n      swap2\n      sub\n      swap1\n      return\n        /* \"contracts/myContract.sol\":320:347  uint public subscriptionFee */\n    tag_23:\n      sload(0x03)\n      dup2\n      jump\t// out\n        /* \"contracts/myContract.sol\":1075:1355  function addSubscriber(string memory userName) public payable{\r... */\n    tag_29:\n        /* \"contracts/myContract.sol\":1178:1209  subscriber(userName,msg.sender) */\n      mload(0x40)\n      dup1\n      0x40\n      add\n      0x40\n      mstore\n      dup1\n        /* \"contracts/myContract.sol\":1189:1197  userName */\n      dup3\n        /* \"contracts/myContract.sol\":1178:1209  subscriber(userName,msg.sender) */\n      dup2\n      mstore\n      0x20\n      add\n        /* \"contracts/myContract.sol\":1198:1208  msg.sender */\n      caller\n        /* \"contracts/myContract.sol\":1178:1209  subscriber(userName,msg.sender) */\n      0xffffffffffffffffffffffffffffffffffffffff\n      and\n      dup2\n      mstore\n      pop\n        /* \"contracts/myContract.sol\":1147:1158  subscribers */\n      0x00\n        /* \"contracts/myContract.sol\":1147:1175  subscribers[subscriberCount] */\n      dup1\n        /* \"contracts/myContract.sol\":1159:1174  subscriberCount */\n      sload(0x01)\n        /* \"contracts/myContract.sol\":1147:1175  subscribers[subscriberCount] */\n      dup2\n      mstore\n      0x20\n      add\n      swap1\n      dup2\n      mstore\n      0x20\n      add\n      0x00\n      keccak256\n        /* \"contracts/myContract.sol\":1147:1209  subscribers[subscriberCount] = subscriber(userName,msg.sender) */\n      0x00\n      dup3\n      add\n      mload\n      dup2\n      0x00\n      add\n      swap1\n      dup1\n      mload\n      swap1\n      0x20\n      add\n      swap1\n      tag_55\n      swap3\n      swap2\n      swap1\n      tag_56\n      jump\t// in\n    tag_55:\n      pop\n      0x20\n      dup3\n      add\n      mload\n      dup2\n      0x01\n      add\n      exp(0x0100, 0x00)\n      dup2\n      sload\n      dup2\n      0xffffffffffffffffffffffffffffffffffffffff\n      mul\n      not\n      and\n      swap1\n      dup4\n      0xffffffffffffffffffffffffffffffffffffffff\n      and\n      mul\n      or\n      swap1\n      sstore\n      pop\n      swap1\n      pop\n      pop\n        /* \"contracts/myContract.sol\":1220:1235  subscriberCount */\n      0x01\n      0x00\n        /* \"contracts/myContract.sol\":1220:1237  subscriberCount++ */\n      dup2\n      sload\n      dup1\n      swap3\n      swap2\n      swap1\n      tag_57\n      swap1\n      tag_58\n      jump\t// in\n    tag_57:\n      swap2\n      swap1\n      pop\n      sstore\n      pop\n        /* \"contracts/myContract.sol\":1264:1268  this */\n      address\n        /* \"contracts/myContract.sol\":1248:1279  payable(address(this)).transfer */\n      0xffffffffffffffffffffffffffffffffffffffff\n      and\n        /* \"contracts/myContract.sol\":1248:1290  payable(address(this)).transfer(msg.value) */\n      0x08fc\n        /* \"contracts/myContract.sol\":1280:1289  msg.value */\n      callvalue\n        /* \"contracts/myContract.sol\":1248:1290  payable(address(this)).transfer(msg.value) */\n      swap1\n      dup2\n      iszero\n      mul\n      swap1\n      mload(0x40)\n      0x00\n      mload(0x40)\n      dup1\n      dup4\n      sub\n      dup2\n      dup6\n      dup9\n      dup9\n      call\n      swap4\n      pop\n      pop\n      pop\n      pop\n      iszero\n      dup1\n      iszero\n      tag_60\n      jumpi\n      returndatasize\n      0x00\n      dup1\n      returndatacopy\n      revert(0x00, returndatasize)\n    tag_60:\n      pop\n        /* \"contracts/myContract.sol\":1306:1347  Received(userName, msg.sender, msg.value) */\n      0x9dfc9870a49c7b43c3ac5f2205775397be1d30d784ea9ee34b41821548af3b11\n        /* \"contracts/myContract.sol\":1315:1323  userName */\n      dup2\n        /* \"contracts/myContract.sol\":1325:1335  msg.sender */\n      caller\n        /* \"contracts/myContract.sol\":1337:1346  msg.value */\n      callvalue\n        /* \"contracts/myContract.sol\":1306:1347  Received(userName, msg.sender, msg.value) */\n      mload(0x40)\n      tag_61\n      swap4\n      swap3\n      swap2\n      swap1\n      tag_62\n      jump\t// in\n    tag_61:\n      mload(0x40)\n      dup1\n      swap2\n      sub\n      swap1\n      log1\n        /* \"contracts/myContract.sol\":1075:1355  function addSubscriber(string memory userName) public payable{\r... */\n      pop\n      jump\t// out\n        /* \"contracts/myContract.sol\":1364:1559  function withdrawAmount() payable public{\r... */\n    tag_31:\n        /* \"contracts/myContract.sol\":1451:1457  author */\n      0x02\n      0x00\n      swap1\n      sload\n      swap1\n      0x0100\n      exp\n      swap1\n      div\n      0xffffffffffffffffffffffffffffffffffffffff\n      and\n        /* \"contracts/myContract.sol\":1437:1457  msg.sender == author */\n      0xffffffffffffffffffffffffffffffffffffffff\n      and\n        /* \"contracts/myContract.sol\":1437:1447  msg.sender */\n      caller\n        /* \"contracts/myContract.sol\":1437:1457  msg.sender == author */\n      0xffffffffffffffffffffffffffffffffffffffff\n      and\n      eq\n        /* \"contracts/myContract.sol\":1415:1493  require(\r... */\n      tag_64\n      jumpi\n      mload(0x40)\n      0x08c379a000000000000000000000000000000000000000000000000000000000\n      dup2\n      mstore\n      0x04\n      add\n      tag_65\n      swap1\n      tag_66\n      jump\t// in\n    tag_65:\n      mload(0x40)\n      dup1\n      swap2\n      sub\n      swap1\n      revert\n    tag_64:\n        /* \"contracts/myContract.sol\":1512:1518  author */\n      0x02\n      0x00\n      swap1\n      sload\n      swap1\n      0x0100\n      exp\n      swap1\n      div\n      0xffffffffffffffffffffffffffffffffffffffff\n      and\n        /* \"contracts/myContract.sol\":1504:1528  payable(author).transfer */\n      0xffffffffffffffffffffffffffffffffffffffff\n      and\n        /* \"contracts/myContract.sol\":1504:1551  payable(author).transfer(address(this).balance) */\n      0x08fc\n        /* \"contracts/myContract.sol\":1529:1550  address(this).balance */\n      selfbalance\n        /* \"contracts/myContract.sol\":1504:1551  payable(author).transfer(address(this).balance) */\n      swap1\n      dup2\n      iszero\n      mul\n      swap1\n      mload(0x40)\n      0x00\n      mload(0x40)\n      dup1\n      dup4\n      sub\n      dup2\n      dup6\n      dup9\n      dup9\n      call\n      swap4\n      pop\n      pop\n      pop\n      pop\n      iszero\n      dup1\n      iszero\n      tag_68\n      jumpi\n      returndatasize\n      0x00\n      dup1\n      returndatacopy\n      revert(0x00, returndatasize)\n    tag_68:\n      pop\n        /* \"contracts/myContract.sol\":1364:1559  function withdrawAmount() payable public{\r... */\n      jump\t// out\n        /* \"contracts/myContract.sol\":534:637  function getContractBalance() public view returns (uint){\r... */\n    tag_34:\n        /* \"contracts/myContract.sol\":585:589  uint */\n      0x00\n        /* \"contracts/myContract.sol\":608:629  address(this).balance */\n      selfbalance\n        /* \"contracts/myContract.sol\":601:629  return address(this).balance */\n      swap1\n      pop\n        /* \"contracts/myContract.sol\":534:637  function getContractBalance() public view returns (uint){\r... */\n      swap1\n      jump\t// out\n        /* \"contracts/myContract.sol\":974:1067  function getAuthorBalance() public view returns(uint){\r... */\n    tag_38:\n        /* \"contracts/myContract.sol\":1022:1026  uint */\n      0x00\n        /* \"contracts/myContract.sol\":1045:1051  author */\n      0x02\n      0x00\n      swap1\n      sload\n      swap1\n      0x0100\n      exp\n      swap1\n      div\n      0xffffffffffffffffffffffffffffffffffffffff\n      and\n        /* \"contracts/myContract.sol\":1045:1059  author.balance */\n      0xffffffffffffffffffffffffffffffffffffffff\n      and\n      balance\n        /* \"contracts/myContract.sol\":1038:1059  return author.balance */\n      swap1\n      pop\n        /* \"contracts/myContract.sol\":974:1067  function getAuthorBalance() public view returns(uint){\r... */\n      swap1\n      jump\t// out\n        /* \"contracts/myContract.sol\":1573:1844  function printSubscribersList() public view returns(subscriber[]memory){\r... */\n    tag_42:\n        /* \"contracts/myContract.sol\":1625:1643  subscriber[]memory */\n      0x60\n        /* \"contracts/myContract.sol\":1655:1678  subscriber[] memory ret */\n      0x00\n        /* \"contracts/myContract.sol\":1698:1713  subscriberCount */\n      sload(0x01)\n        /* \"contracts/myContract.sol\":1681:1714  new subscriber[](subscriberCount) */\n      0xffffffffffffffff\n      dup2\n      gt\n      iszero\n      tag_72\n      jumpi\n      tag_73\n      tag_74\n      jump\t// in\n    tag_73:\n    tag_72:\n      mload(0x40)\n      swap1\n      dup1\n      dup3\n      mstore\n      dup1\n      0x20\n      mul\n      0x20\n      add\n      dup3\n      add\n      0x40\n      mstore\n      dup1\n      iszero\n      tag_75\n      jumpi\n      dup2\n      0x20\n      add\n    tag_76:\n      tag_77\n      tag_78\n      jump\t// in\n    tag_77:\n      dup2\n      mstore\n      0x20\n      add\n      swap1\n      0x01\n      swap1\n      sub\n      swap1\n      dup2\n      tag_76\n      jumpi\n      swap1\n      pop\n    tag_75:\n      pop\n        /* \"contracts/myContract.sol\":1655:1714  subscriber[] memory ret = new subscriber[](subscriberCount) */\n      swap1\n      pop\n        /* \"contracts/myContract.sol\":1729:1735  uint i */\n      0x00\n        /* \"contracts/myContract.sol\":1725:1816  for(uint i = 0; i < subscriberCount; i++){\r... */\n    tag_79:\n        /* \"contracts/myContract.sol\":1745:1760  subscriberCount */\n      sload(0x01)\n        /* \"contracts/myContract.sol\":1741:1742  i */\n      dup2\n        /* \"contracts/myContract.sol\":1741:1760  i < subscriberCount */\n      lt\n        /* \"contracts/myContract.sol\":1725:1816  for(uint i = 0; i < subscriberCount; i++){\r... */\n      iszero\n      tag_80\n      jumpi\n        /* \"contracts/myContract.sol\":1790:1801  subscribers */\n      0x00\n        /* \"contracts/myContract.sol\":1790:1804  subscribers[i] */\n      dup1\n        /* \"contracts/myContract.sol\":1802:1803  i */\n      dup3\n        /* \"contracts/myContract.sol\":1790:1804  subscribers[i] */\n      dup2\n      mstore\n      0x20\n      add\n      swap1\n      dup2\n      mstore\n      0x20\n      add\n      0x00\n      keccak256\n        /* \"contracts/myContract.sol\":1781:1804  ret[i] = subscribers[i] */\n      mload(0x40)\n      dup1\n      0x40\n      add\n      0x40\n      mstore\n      swap1\n      dup2\n      0x00\n      dup3\n      add\n      dup1\n      sload\n      tag_82\n      swap1\n      tag_83\n      jump\t// in\n    tag_82:\n      dup1\n      0x1f\n      add\n      0x20\n      dup1\n      swap2\n      div\n      mul\n      0x20\n      add\n      mload(0x40)\n      swap1\n      dup2\n      add\n      0x40\n      mstore\n      dup1\n      swap3\n      swap2\n      swap1\n      dup2\n      dup2\n      mstore\n      0x20\n      add\n      dup3\n      dup1\n      sload\n      tag_84\n      swap1\n      tag_83\n      jump\t// in\n    tag_84:\n      dup1\n      iszero\n      tag_85\n      jumpi\n      dup1\n      0x1f\n      lt\n      tag_86\n      jumpi\n      0x0100\n      dup1\n      dup4\n      sload\n      div\n      mul\n      dup4\n      mstore\n      swap2\n      0x20\n      add\n      swap2\n      jump(tag_85)\n    tag_86:\n      dup3\n      add\n      swap2\n      swap1\n      0x00\n      mstore\n      keccak256(0x00, 0x20)\n      swap1\n    tag_87:\n      dup2\n      sload\n      dup2\n      mstore\n      swap1\n      0x01\n      add\n      swap1\n      0x20\n      add\n      dup1\n      dup4\n      gt\n      tag_87\n      jumpi\n      dup3\n      swap1\n      sub\n      0x1f\n      and\n      dup3\n      add\n      swap2\n    tag_85:\n      pop\n      pop\n      pop\n      pop\n      pop\n      dup2\n      mstore\n      0x20\n      add\n      0x01\n      dup3\n      add\n      0x00\n      swap1\n      sload\n      swap1\n      0x0100\n      exp\n      swap1\n      div\n      0xffffffffffffffffffffffffffffffffffffffff\n      and\n      0xffffffffffffffffffffffffffffffffffffffff\n      and\n      0xffffffffffffffffffffffffffffffffffffffff\n      and\n      dup2\n      mstore\n      pop\n      pop\n        /* \"contracts/myContract.sol\":1781:1784  ret */\n      dup3\n        /* \"contracts/myContract.sol\":1785:1786  i */\n      dup3\n        /* \"contracts/myContract.sol\":1781:1787  ret[i] */\n      dup2\n      mload\n      dup2\n      lt\n      tag_88\n      jumpi\n      tag_89\n      tag_90\n      jump\t// in\n    tag_89:\n    tag_88:\n      0x20\n      mul\n      0x20\n      add\n      add\n        /* \"contracts/myContract.sol\":1781:1804  ret[i] = subscribers[i] */\n      dup2\n      swap1\n      mstore\n      pop\n        /* \"contracts/myContract.sol\":1762:1765  i++ */\n      dup1\n      dup1\n      tag_91\n      swap1\n      tag_58\n      jump\t// in\n    tag_91:\n      swap2\n      pop\n      pop\n        /* \"contracts/myContract.sol\":1725:1816  for(uint i = 0; i < subscriberCount; i++){\r... */\n      jump(tag_79)\n    tag_80:\n      pop\n        /* \"contracts/myContract.sol\":1833:1836  ret */\n      dup1\n        /* \"contracts/myContract.sol\":1826:1836  return ret */\n      swap2\n      pop\n      pop\n        /* \"contracts/myContract.sol\":1573:1844  function printSubscribersList() public view returns(subscriber[]memory){\r... */\n      swap1\n      jump\t// out\n        /* \"contracts/myContract.sol\":284:313  address payable public author */\n    tag_47:\n      0x02\n      0x00\n      swap1\n      sload\n      swap1\n      0x0100\n      exp\n      swap1\n      div\n      0xffffffffffffffffffffffffffffffffffffffff\n      and\n      dup2\n      jump\t// out\n        /* \"contracts/myContract.sol\":165:196  uint public subscriberCount = 0 */\n    tag_52:\n      sload(0x01)\n      dup2\n      jump\t// out\n    tag_56:\n      dup3\n      dup1\n      sload\n      tag_92\n      swap1\n      tag_83\n      jump\t// in\n    tag_92:\n      swap1\n      0x00\n      mstore\n      keccak256(0x00, 0x20)\n      swap1\n      0x1f\n      add\n      0x20\n      swap1\n      div\n      dup2\n      add\n      swap3\n      dup3\n      tag_94\n      jumpi\n      0x00\n      dup6\n      sstore\n      jump(tag_93)\n    tag_94:\n      dup3\n      0x1f\n      lt\n      tag_95\n      jumpi\n      dup1\n      mload\n      not(0xff)\n      and\n      dup4\n      dup1\n      add\n      or\n      dup6\n      sstore\n      jump(tag_93)\n    tag_95:\n      dup3\n      dup1\n      add\n      0x01\n      add\n      dup6\n      sstore\n      dup3\n      iszero\n      tag_93\n      jumpi\n      swap2\n      dup3\n      add\n    tag_96:\n      dup3\n      dup2\n      gt\n      iszero\n      tag_97\n      jumpi\n      dup3\n      mload\n      dup3\n      sstore\n      swap2\n      0x20\n      add\n      swap2\n      swap1\n      0x01\n      add\n      swap1\n      jump(tag_96)\n    tag_97:\n    tag_93:\n      pop\n      swap1\n      pop\n      tag_98\n      swap2\n      swap1\n      tag_99\n      jump\t// in\n    tag_98:\n      pop\n      swap1\n      jump\t// out\n    tag_78:\n      mload(0x40)\n      dup1\n      0x40\n      add\n      0x40\n      mstore\n      dup1\n      0x60\n      dup2\n      mstore\n      0x20\n      add\n      and(0xffffffffffffffffffffffffffffffffffffffff, 0x00)\n      dup2\n      mstore\n      pop\n      swap1\n      jump\t// out\n    tag_99:\n    tag_100:\n      dup1\n      dup3\n      gt\n      iszero\n      tag_101\n      jumpi\n      0x00\n      dup2\n      0x00\n      swap1\n      sstore\n      pop\n      0x01\n      add\n      jump(tag_100)\n    tag_101:\n      pop\n      swap1\n      jump\t// out\n        /* \"#utility.yul\":7:419   */\n    tag_103:\n        /* \"#utility.yul\":85:90   */\n      0x00\n        /* \"#utility.yul\":110:176   */\n      tag_105\n        /* \"#utility.yul\":126:175   */\n      tag_106\n        /* \"#utility.yul\":168:174   */\n      dup5\n        /* \"#utility.yul\":126:175   */\n      tag_107\n      jump\t// in\n    tag_106:\n        /* \"#utility.yul\":110:176   */\n      tag_108\n      jump\t// in\n    tag_105:\n        /* \"#utility.yul\":101:176   */\n      swap1\n      pop\n        /* \"#utility.yul\":199:205   */\n      dup3\n        /* \"#utility.yul\":192:197   */\n      dup2\n        /* \"#utility.yul\":185:206   */\n      mstore\n        /* \"#utility.yul\":237:241   */\n      0x20\n        /* \"#utility.yul\":230:235   */\n      dup2\n        /* \"#utility.yul\":226:242   */\n      add\n        /* \"#utility.yul\":275:278   */\n      dup5\n        /* \"#utility.yul\":266:272   */\n      dup5\n        /* \"#utility.yul\":261:264   */\n      dup5\n        /* \"#utility.yul\":257:273   */\n      add\n        /* \"#utility.yul\":254:279   */\n      gt\n        /* \"#utility.yul\":251:363   */\n      iszero\n      tag_109\n      jumpi\n        /* \"#utility.yul\":282:361   */\n      tag_110\n      tag_111\n      jump\t// in\n    tag_110:\n        /* \"#utility.yul\":251:363   */\n    tag_109:\n        /* \"#utility.yul\":372:413   */\n      tag_112\n        /* \"#utility.yul\":406:412   */\n      dup5\n        /* \"#utility.yul\":401:404   */\n      dup3\n        /* \"#utility.yul\":396:399   */\n      dup6\n        /* \"#utility.yul\":372:413   */\n      tag_113\n      jump\t// in\n    tag_112:\n        /* \"#utility.yul\":91:419   */\n      pop\n        /* \"#utility.yul\":7:419   */\n      swap4\n      swap3\n      pop\n      pop\n      pop\n      jump\t// out\n        /* \"#utility.yul\":439:779   */\n    tag_114:\n        /* \"#utility.yul\":495:500   */\n      0x00\n        /* \"#utility.yul\":544:547   */\n      dup3\n        /* \"#utility.yul\":537:541   */\n      0x1f\n        /* \"#utility.yul\":529:535   */\n      dup4\n        /* \"#utility.yul\":525:542   */\n      add\n        /* \"#utility.yul\":521:548   */\n      slt\n        /* \"#utility.yul\":511:633   */\n      tag_116\n      jumpi\n        /* \"#utility.yul\":552:631   */\n      tag_117\n      tag_118\n      jump\t// in\n    tag_117:\n        /* \"#utility.yul\":511:633   */\n    tag_116:\n        /* \"#utility.yul\":669:675   */\n      dup2\n        /* \"#utility.yul\":656:676   */\n      calldataload\n        /* \"#utility.yul\":694:773   */\n      tag_119\n        /* \"#utility.yul\":769:772   */\n      dup5\n        /* \"#utility.yul\":761:767   */\n      dup3\n        /* \"#utility.yul\":754:758   */\n      0x20\n        /* \"#utility.yul\":746:752   */\n      dup7\n        /* \"#utility.yul\":742:759   */\n      add\n        /* \"#utility.yul\":694:773   */\n      tag_103\n      jump\t// in\n    tag_119:\n        /* \"#utility.yul\":685:773   */\n      swap2\n      pop\n        /* \"#utility.yul\":501:779   */\n      pop\n        /* \"#utility.yul\":439:779   */\n      swap3\n      swap2\n      pop\n      pop\n      jump\t// out\n        /* \"#utility.yul\":785:1294   */\n    tag_28:\n        /* \"#utility.yul\":854:860   */\n      0x00\n        /* \"#utility.yul\":903:905   */\n      0x20\n        /* \"#utility.yul\":891:900   */\n      dup3\n        /* \"#utility.yul\":882:889   */\n      dup5\n        /* \"#utility.yul\":878:901   */\n      sub\n        /* \"#utility.yul\":874:906   */\n      slt\n        /* \"#utility.yul\":871:990   */\n      iszero\n      tag_121\n      jumpi\n        /* \"#utility.yul\":909:988   */\n      tag_122\n      tag_123\n      jump\t// in\n    tag_122:\n        /* \"#utility.yul\":871:990   */\n    tag_121:\n        /* \"#utility.yul\":1057:1058   */\n      0x00\n        /* \"#utility.yul\":1046:1055   */\n      dup3\n        /* \"#utility.yul\":1042:1059   */\n      add\n        /* \"#utility.yul\":1029:1060   */\n      calldataload\n        /* \"#utility.yul\":1087:1105   */\n      0xffffffffffffffff\n        /* \"#utility.yul\":1079:1085   */\n      dup2\n        /* \"#utility.yul\":1076:1106   */\n      gt\n        /* \"#utility.yul\":1073:1190   */\n      iszero\n      tag_124\n      jumpi\n        /* \"#utility.yul\":1109:1188   */\n      tag_125\n      tag_126\n      jump\t// in\n    tag_125:\n        /* \"#utility.yul\":1073:1190   */\n    tag_124:\n        /* \"#utility.yul\":1214:1277   */\n      tag_127\n        /* \"#utility.yul\":1269:1276   */\n      dup5\n        /* \"#utility.yul\":1260:1266   */\n      dup3\n        /* \"#utility.yul\":1249:1258   */\n      dup6\n        /* \"#utility.yul\":1245:1267   */\n      add\n        /* \"#utility.yul\":1214:1277   */\n      tag_114\n      jump\t// in\n    tag_127:\n        /* \"#utility.yul\":1204:1277   */\n      swap2\n      pop\n        /* \"#utility.yul\":1000:1287   */\n      pop\n        /* \"#utility.yul\":785:1294   */\n      swap3\n      swap2\n      pop\n      pop\n      jump\t// out\n        /* \"#utility.yul\":1300:1560   */\n    tag_128:\n        /* \"#utility.yul\":1421:1431   */\n      0x00\n        /* \"#utility.yul\":1456:1554   */\n      tag_130\n        /* \"#utility.yul\":1550:1553   */\n      dup4\n        /* \"#utility.yul\":1542:1548   */\n      dup4\n        /* \"#utility.yul\":1456:1554   */\n      tag_131\n      jump\t// in\n    tag_130:\n        /* \"#utility.yul\":1442:1554   */\n      swap1\n      pop\n        /* \"#utility.yul\":1300:1560   */\n      swap3\n      swap2\n      pop\n      pop\n      jump\t// out\n        /* \"#utility.yul\":1566:1708   */\n    tag_132:\n        /* \"#utility.yul\":1669:1701   */\n      tag_134\n        /* \"#utility.yul\":1695:1700   */\n      dup2\n        /* \"#utility.yul\":1669:1701   */\n      tag_135\n      jump\t// in\n    tag_134:\n        /* \"#utility.yul\":1664:1667   */\n      dup3\n        /* \"#utility.yul\":1657:1702   */\n      mstore\n        /* \"#utility.yul\":1566:1708   */\n      pop\n      pop\n      jump\t// out\n        /* \"#utility.yul\":1714:1822   */\n    tag_136:\n        /* \"#utility.yul\":1791:1815   */\n      tag_138\n        /* \"#utility.yul\":1809:1814   */\n      dup2\n        /* \"#utility.yul\":1791:1815   */\n      tag_139\n      jump\t// in\n    tag_138:\n        /* \"#utility.yul\":1786:1789   */\n      dup3\n        /* \"#utility.yul\":1779:1816   */\n      mstore\n        /* \"#utility.yul\":1714:1822   */\n      pop\n      pop\n      jump\t// out\n        /* \"#utility.yul\":1828:1946   */\n    tag_140:\n        /* \"#utility.yul\":1915:1939   */\n      tag_142\n        /* \"#utility.yul\":1933:1938   */\n      dup2\n        /* \"#utility.yul\":1915:1939   */\n      tag_139\n      jump\t// in\n    tag_142:\n        /* \"#utility.yul\":1910:1913   */\n      dup3\n        /* \"#utility.yul\":1903:1940   */\n      mstore\n        /* \"#utility.yul\":1828:1946   */\n      pop\n      pop\n      jump\t// out\n        /* \"#utility.yul\":2028:3147   */\n    tag_143:\n        /* \"#utility.yul\":2199:2202   */\n      0x00\n        /* \"#utility.yul\":2228:2308   */\n      tag_145\n        /* \"#utility.yul\":2302:2307   */\n      dup3\n        /* \"#utility.yul\":2228:2308   */\n      tag_146\n      jump\t// in\n    tag_145:\n        /* \"#utility.yul\":2324:2436   */\n      tag_147\n        /* \"#utility.yul\":2429:2435   */\n      dup2\n        /* \"#utility.yul\":2424:2427   */\n      dup6\n        /* \"#utility.yul\":2324:2436   */\n      tag_148\n      jump\t// in\n    tag_147:\n        /* \"#utility.yul\":2317:2436   */\n      swap4\n      pop\n        /* \"#utility.yul\":2462:2465   */\n      dup4\n        /* \"#utility.yul\":2507:2511   */\n      0x20\n        /* \"#utility.yul\":2499:2505   */\n      dup3\n        /* \"#utility.yul\":2495:2512   */\n      mul\n        /* \"#utility.yul\":2490:2493   */\n      dup6\n        /* \"#utility.yul\":2486:2513   */\n      add\n        /* \"#utility.yul\":2537:2619   */\n      tag_149\n        /* \"#utility.yul\":2613:2618   */\n      dup6\n        /* \"#utility.yul\":2537:2619   */\n      tag_150\n      jump\t// in\n    tag_149:\n        /* \"#utility.yul\":2642:2649   */\n      dup1\n        /* \"#utility.yul\":2673:2674   */\n      0x00\n        /* \"#utility.yul\":2658:3102   */\n    tag_151:\n        /* \"#utility.yul\":2683:2689   */\n      dup6\n        /* \"#utility.yul\":2680:2681   */\n      dup2\n        /* \"#utility.yul\":2677:2690   */\n      lt\n        /* \"#utility.yul\":2658:3102   */\n      iszero\n      tag_153\n      jumpi\n        /* \"#utility.yul\":2754:2763   */\n      dup5\n        /* \"#utility.yul\":2748:2752   */\n      dup5\n        /* \"#utility.yul\":2744:2764   */\n      sub\n        /* \"#utility.yul\":2739:2742   */\n      dup10\n        /* \"#utility.yul\":2732:2765   */\n      mstore\n        /* \"#utility.yul\":2805:2811   */\n      dup2\n        /* \"#utility.yul\":2799:2812   */\n      mload\n        /* \"#utility.yul\":2833:2949   */\n      tag_154\n        /* \"#utility.yul\":2944:2948   */\n      dup6\n        /* \"#utility.yul\":2929:2942   */\n      dup3\n        /* \"#utility.yul\":2833:2949   */\n      tag_128\n      jump\t// in\n    tag_154:\n        /* \"#utility.yul\":2825:2949   */\n      swap5\n      pop\n        /* \"#utility.yul\":2972:3058   */\n      tag_155\n        /* \"#utility.yul\":3051:3057   */\n      dup4\n        /* \"#utility.yul\":2972:3058   */\n      tag_156\n      jump\t// in\n    tag_155:\n        /* \"#utility.yul\":2962:3058   */\n      swap3\n      pop\n        /* \"#utility.yul\":3087:3091   */\n      0x20\n        /* \"#utility.yul\":3082:3085   */\n      dup11\n        /* \"#utility.yul\":3078:3092   */\n      add\n        /* \"#utility.yul\":3071:3092   */\n      swap10\n      pop\n        /* \"#utility.yul\":2718:3102   */\n      pop\n        /* \"#utility.yul\":2705:2706   */\n      0x01\n        /* \"#utility.yul\":2702:2703   */\n      dup2\n        /* \"#utility.yul\":2698:2707   */\n      add\n        /* \"#utility.yul\":2693:2707   */\n      swap1\n      pop\n        /* \"#utility.yul\":2658:3102   */\n      jump(tag_151)\n    tag_153:\n        /* \"#utility.yul\":2662:2676   */\n      pop\n        /* \"#utility.yul\":3118:3122   */\n      dup3\n        /* \"#utility.yul\":3111:3122   */\n      swap8\n      pop\n        /* \"#utility.yul\":3138:3141   */\n      dup8\n        /* \"#utility.yul\":3131:3141   */\n      swap6\n      pop\n        /* \"#utility.yul\":2204:3147   */\n      pop\n      pop\n      pop\n      pop\n      pop\n        /* \"#utility.yul\":2028:3147   */\n      swap3\n      swap2\n      pop\n      pop\n      jump\t// out\n        /* \"#utility.yul\":3153:3497   */\n    tag_157:\n        /* \"#utility.yul\":3231:3234   */\n      0x00\n        /* \"#utility.yul\":3259:3298   */\n      tag_159\n        /* \"#utility.yul\":3292:3297   */\n      dup3\n        /* \"#utility.yul\":3259:3298   */\n      tag_160\n      jump\t// in\n    tag_159:\n        /* \"#utility.yul\":3314:3375   */\n      tag_161\n        /* \"#utility.yul\":3368:3374   */\n      dup2\n        /* \"#utility.yul\":3363:3366   */\n      dup6\n        /* \"#utility.yul\":3314:3375   */\n      tag_162\n      jump\t// in\n    tag_161:\n        /* \"#utility.yul\":3307:3375   */\n      swap4\n      pop\n        /* \"#utility.yul\":3384:3436   */\n      tag_163\n        /* \"#utility.yul\":3429:3435   */\n      dup2\n        /* \"#utility.yul\":3424:3427   */\n      dup6\n        /* \"#utility.yul\":3417:3421   */\n      0x20\n        /* \"#utility.yul\":3410:3415   */\n      dup7\n        /* \"#utility.yul\":3406:3422   */\n      add\n        /* \"#utility.yul\":3384:3436   */\n      tag_164\n      jump\t// in\n    tag_163:\n        /* \"#utility.yul\":3461:3490   */\n      tag_165\n        /* \"#utility.yul\":3483:3489   */\n      dup2\n        /* \"#utility.yul\":3461:3490   */\n      tag_166\n      jump\t// in\n    tag_165:\n        /* \"#utility.yul\":3456:3459   */\n      dup5\n        /* \"#utility.yul\":3452:3491   */\n      add\n        /* \"#utility.yul\":3445:3491   */\n      swap2\n      pop\n        /* \"#utility.yul\":3235:3497   */\n      pop\n        /* \"#utility.yul\":3153:3497   */\n      swap3\n      swap2\n      pop\n      pop\n      jump\t// out\n        /* \"#utility.yul\":3503:3867   */\n    tag_167:\n        /* \"#utility.yul\":3591:3594   */\n      0x00\n        /* \"#utility.yul\":3619:3658   */\n      tag_169\n        /* \"#utility.yul\":3652:3657   */\n      dup3\n        /* \"#utility.yul\":3619:3658   */\n      tag_160\n      jump\t// in\n    tag_169:\n        /* \"#utility.yul\":3674:3745   */\n      tag_170\n        /* \"#utility.yul\":3738:3744   */\n      dup2\n        /* \"#utility.yul\":3733:3736   */\n      dup6\n        /* \"#utility.yul\":3674:3745   */\n      tag_171\n      jump\t// in\n    tag_170:\n        /* \"#utility.yul\":3667:3745   */\n      swap4\n      pop\n        /* \"#utility.yul\":3754:3806   */\n      tag_172\n        /* \"#utility.yul\":3799:3805   */\n      dup2\n        /* \"#utility.yul\":3794:3797   */\n      dup6\n        /* \"#utility.yul\":3787:3791   */\n      0x20\n        /* \"#utility.yul\":3780:3785   */\n      dup7\n        /* \"#utility.yul\":3776:3792   */\n      add\n        /* \"#utility.yul\":3754:3806   */\n      tag_164\n      jump\t// in\n    tag_172:\n        /* \"#utility.yul\":3831:3860   */\n      tag_173\n        /* \"#utility.yul\":3853:3859   */\n      dup2\n        /* \"#utility.yul\":3831:3860   */\n      tag_166\n      jump\t// in\n    tag_173:\n        /* \"#utility.yul\":3826:3829   */\n      dup5\n        /* \"#utility.yul\":3822:3861   */\n      add\n        /* \"#utility.yul\":3815:3861   */\n      swap2\n      pop\n        /* \"#utility.yul\":3595:3867   */\n      pop\n        /* \"#utility.yul\":3503:3867   */\n      swap3\n      swap2\n      pop\n      pop\n      jump\t// out\n        /* \"#utility.yul\":3873:4239   */\n    tag_174:\n        /* \"#utility.yul\":4015:4018   */\n      0x00\n        /* \"#utility.yul\":4036:4103   */\n      tag_176\n        /* \"#utility.yul\":4100:4102   */\n      0x26\n        /* \"#utility.yul\":4095:4098   */\n      dup4\n        /* \"#utility.yul\":4036:4103   */\n      tag_171\n      jump\t// in\n    tag_176:\n        /* \"#utility.yul\":4029:4103   */\n      swap2\n      pop\n        /* \"#utility.yul\":4112:4205   */\n      tag_177\n        /* \"#utility.yul\":4201:4204   */\n      dup3\n        /* \"#utility.yul\":4112:4205   */\n      tag_178\n      jump\t// in\n    tag_177:\n        /* \"#utility.yul\":4230:4232   */\n      0x40\n        /* \"#utility.yul\":4225:4228   */\n      dup3\n        /* \"#utility.yul\":4221:4233   */\n      add\n        /* \"#utility.yul\":4214:4233   */\n      swap1\n      pop\n        /* \"#utility.yul\":3873:4239   */\n      swap2\n      swap1\n      pop\n      jump\t// out\n        /* \"#utility.yul\":4245:4611   */\n    tag_179:\n        /* \"#utility.yul\":4387:4390   */\n      0x00\n        /* \"#utility.yul\":4408:4475   */\n      tag_181\n        /* \"#utility.yul\":4472:4474   */\n      0x15\n        /* \"#utility.yul\":4467:4470   */\n      dup4\n        /* \"#utility.yul\":4408:4475   */\n      tag_171\n      jump\t// in\n    tag_181:\n        /* \"#utility.yul\":4401:4475   */\n      swap2\n      pop\n        /* \"#utility.yul\":4484:4577   */\n      tag_182\n        /* \"#utility.yul\":4573:4576   */\n      dup3\n        /* \"#utility.yul\":4484:4577   */\n      tag_183\n      jump\t// in\n    tag_182:\n        /* \"#utility.yul\":4602:4604   */\n      0x20\n        /* \"#utility.yul\":4597:4600   */\n      dup3\n        /* \"#utility.yul\":4593:4605   */\n      add\n        /* \"#utility.yul\":4586:4605   */\n      swap1\n      pop\n        /* \"#utility.yul\":4245:4611   */\n      swap2\n      swap1\n      pop\n      jump\t// out\n        /* \"#utility.yul\":4689:5287   */\n    tag_131:\n        /* \"#utility.yul\":4800:4803   */\n      0x00\n        /* \"#utility.yul\":4836:4840   */\n      0x40\n        /* \"#utility.yul\":4831:4834   */\n      dup4\n        /* \"#utility.yul\":4827:4841   */\n      add\n        /* \"#utility.yul\":4923:4927   */\n      0x00\n        /* \"#utility.yul\":4916:4921   */\n      dup4\n        /* \"#utility.yul\":4912:4928   */\n      add\n        /* \"#utility.yul\":4906:4929   */\n      mload\n        /* \"#utility.yul\":4976:4979   */\n      dup5\n        /* \"#utility.yul\":4970:4974   */\n      dup3\n        /* \"#utility.yul\":4966:4980   */\n      sub\n        /* \"#utility.yul\":4959:4963   */\n      0x00\n        /* \"#utility.yul\":4954:4957   */\n      dup7\n        /* \"#utility.yul\":4950:4964   */\n      add\n        /* \"#utility.yul\":4943:4981   */\n      mstore\n        /* \"#utility.yul\":5002:5075   */\n      tag_185\n        /* \"#utility.yul\":5070:5074   */\n      dup3\n        /* \"#utility.yul\":5056:5068   */\n      dup3\n        /* \"#utility.yul\":5002:5075   */\n      tag_157\n      jump\t// in\n    tag_185:\n        /* \"#utility.yul\":4994:5075   */\n      swap2\n      pop\n        /* \"#utility.yul\":4851:5086   */\n      pop\n        /* \"#utility.yul\":5168:5172   */\n      0x20\n        /* \"#utility.yul\":5161:5166   */\n      dup4\n        /* \"#utility.yul\":5157:5173   */\n      add\n        /* \"#utility.yul\":5151:5174   */\n      mload\n        /* \"#utility.yul\":5187:5250   */\n      tag_186\n        /* \"#utility.yul\":5244:5248   */\n      0x20\n        /* \"#utility.yul\":5239:5242   */\n      dup7\n        /* \"#utility.yul\":5235:5249   */\n      add\n        /* \"#utility.yul\":5221:5233   */\n      dup3\n        /* \"#utility.yul\":5187:5250   */\n      tag_136\n      jump\t// in\n    tag_186:\n        /* \"#utility.yul\":5096:5260   */\n      pop\n        /* \"#utility.yul\":5277:5281   */\n      dup1\n        /* \"#utility.yul\":5270:5281   */\n      swap2\n      pop\n        /* \"#utility.yul\":4805:5287   */\n      pop\n        /* \"#utility.yul\":4689:5287   */\n      swap3\n      swap2\n      pop\n      pop\n      jump\t// out\n        /* \"#utility.yul\":5293:5411   */\n    tag_187:\n        /* \"#utility.yul\":5380:5404   */\n      tag_189\n        /* \"#utility.yul\":5398:5403   */\n      dup2\n        /* \"#utility.yul\":5380:5404   */\n      tag_190\n      jump\t// in\n    tag_189:\n        /* \"#utility.yul\":5375:5378   */\n      dup3\n        /* \"#utility.yul\":5368:5405   */\n      mstore\n        /* \"#utility.yul\":5293:5411   */\n      pop\n      pop\n      jump\t// out\n        /* \"#utility.yul\":5417:5671   */\n    tag_49:\n        /* \"#utility.yul\":5526:5530   */\n      0x00\n        /* \"#utility.yul\":5564:5566   */\n      0x20\n        /* \"#utility.yul\":5553:5562   */\n      dup3\n        /* \"#utility.yul\":5549:5567   */\n      add\n        /* \"#utility.yul\":5541:5567   */\n      swap1\n      pop\n        /* \"#utility.yul\":5577:5664   */\n      tag_192\n        /* \"#utility.yul\":5661:5662   */\n      0x00\n        /* \"#utility.yul\":5650:5659   */\n      dup4\n        /* \"#utility.yul\":5646:5663   */\n      add\n        /* \"#utility.yul\":5637:5643   */\n      dup5\n        /* \"#utility.yul\":5577:5664   */\n      tag_132\n      jump\t// in\n    tag_192:\n        /* \"#utility.yul\":5417:5671   */\n      swap3\n      swap2\n      pop\n      pop\n      jump\t// out\n        /* \"#utility.yul\":5677:6154   */\n    tag_44:\n        /* \"#utility.yul\":5872:5876   */\n      0x00\n        /* \"#utility.yul\":5910:5912   */\n      0x20\n        /* \"#utility.yul\":5899:5908   */\n      dup3\n        /* \"#utility.yul\":5895:5913   */\n      add\n        /* \"#utility.yul\":5887:5913   */\n      swap1\n      pop\n        /* \"#utility.yul\":5959:5968   */\n      dup2\n        /* \"#utility.yul\":5953:5957   */\n      dup2\n        /* \"#utility.yul\":5949:5969   */\n      sub\n        /* \"#utility.yul\":5945:5946   */\n      0x00\n        /* \"#utility.yul\":5934:5943   */\n      dup4\n        /* \"#utility.yul\":5930:5947   */\n      add\n        /* \"#utility.yul\":5923:5970   */\n      mstore\n        /* \"#utility.yul\":5987:6147   */\n      tag_194\n        /* \"#utility.yul\":6142:6146   */\n      dup2\n        /* \"#utility.yul\":6133:6139   */\n      dup5\n        /* \"#utility.yul\":5987:6147   */\n      tag_143\n      jump\t// in\n    tag_194:\n        /* \"#utility.yul\":5979:6147   */\n      swap1\n      pop\n        /* \"#utility.yul\":5677:6154   */\n      swap3\n      swap2\n      pop\n      pop\n      jump\t// out\n        /* \"#utility.yul\":6160:6693   */\n    tag_62:\n        /* \"#utility.yul\":6329:6333   */\n      0x00\n        /* \"#utility.yul\":6367:6369   */\n      0x60\n        /* \"#utility.yul\":6356:6365   */\n      dup3\n        /* \"#utility.yul\":6352:6370   */\n      add\n        /* \"#utility.yul\":6344:6370   */\n      swap1\n      pop\n        /* \"#utility.yul\":6416:6425   */\n      dup2\n        /* \"#utility.yul\":6410:6414   */\n      dup2\n        /* \"#utility.yul\":6406:6426   */\n      sub\n        /* \"#utility.yul\":6402:6403   */\n      0x00\n        /* \"#utility.yul\":6391:6400   */\n      dup4\n        /* \"#utility.yul\":6387:6404   */\n      add\n        /* \"#utility.yul\":6380:6427   */\n      mstore\n        /* \"#utility.yul\":6444:6522   */\n      tag_196\n        /* \"#utility.yul\":6517:6521   */\n      dup2\n        /* \"#utility.yul\":6508:6514   */\n      dup7\n        /* \"#utility.yul\":6444:6522   */\n      tag_167\n      jump\t// in\n    tag_196:\n        /* \"#utility.yul\":6436:6522   */\n      swap1\n      pop\n        /* \"#utility.yul\":6532:6604   */\n      tag_197\n        /* \"#utility.yul\":6600:6602   */\n      0x20\n        /* \"#utility.yul\":6589:6598   */\n      dup4\n        /* \"#utility.yul\":6585:6603   */\n      add\n        /* \"#utility.yul\":6576:6582   */\n      dup6\n        /* \"#utility.yul\":6532:6604   */\n      tag_140\n      jump\t// in\n    tag_197:\n        /* \"#utility.yul\":6614:6686   */\n      tag_198\n        /* \"#utility.yul\":6682:6684   */\n      0x40\n        /* \"#utility.yul\":6671:6680   */\n      dup4\n        /* \"#utility.yul\":6667:6685   */\n      add\n        /* \"#utility.yul\":6658:6664   */\n      dup5\n        /* \"#utility.yul\":6614:6686   */\n      tag_187\n      jump\t// in\n    tag_198:\n        /* \"#utility.yul\":6160:6693   */\n      swap5\n      swap4\n      pop\n      pop\n      pop\n      pop\n      jump\t// out\n        /* \"#utility.yul\":6699:7118   */\n    tag_16:\n        /* \"#utility.yul\":6865:6869   */\n      0x00\n        /* \"#utility.yul\":6903:6905   */\n      0x20\n        /* \"#utility.yul\":6892:6901   */\n      dup3\n        /* \"#utility.yul\":6888:6906   */\n      add\n        /* \"#utility.yul\":6880:6906   */\n      swap1\n      pop\n        /* \"#utility.yul\":6952:6961   */\n      dup2\n        /* \"#utility.yul\":6946:6950   */\n      dup2\n        /* \"#utility.yul\":6942:6962   */\n      sub\n        /* \"#utility.yul\":6938:6939   */\n      0x00\n        /* \"#utility.yul\":6927:6936   */\n      dup4\n        /* \"#utility.yul\":6923:6940   */\n      add\n        /* \"#utility.yul\":6916:6963   */\n      mstore\n        /* \"#utility.yul\":6980:7111   */\n      tag_200\n        /* \"#utility.yul\":7106:7110   */\n      dup2\n        /* \"#utility.yul\":6980:7111   */\n      tag_174\n      jump\t// in\n    tag_200:\n        /* \"#utility.yul\":6972:7111   */\n      swap1\n      pop\n        /* \"#utility.yul\":6699:7118   */\n      swap2\n      swap1\n      pop\n      jump\t// out\n        /* \"#utility.yul\":7124:7543   */\n    tag_66:\n        /* \"#utility.yul\":7290:7294   */\n      0x00\n        /* \"#utility.yul\":7328:7330   */\n      0x20\n        /* \"#utility.yul\":7317:7326   */\n      dup3\n        /* \"#utility.yul\":7313:7331   */\n      add\n        /* \"#utility.yul\":7305:7331   */\n      swap1\n      pop\n        /* \"#utility.yul\":7377:7386   */\n      dup2\n        /* \"#utility.yul\":7371:7375   */\n      dup2\n        /* \"#utility.yul\":7367:7387   */\n      sub\n        /* \"#utility.yul\":7363:7364   */\n      0x00\n        /* \"#utility.yul\":7352:7361   */\n      dup4\n        /* \"#utility.yul\":7348:7365   */\n      add\n        /* \"#utility.yul\":7341:7388   */\n      mstore\n        /* \"#utility.yul\":7405:7536   */\n      tag_202\n        /* \"#utility.yul\":7531:7535   */\n      dup2\n        /* \"#utility.yul\":7405:7536   */\n      tag_179\n      jump\t// in\n    tag_202:\n        /* \"#utility.yul\":7397:7536   */\n      swap1\n      pop\n        /* \"#utility.yul\":7124:7543   */\n      swap2\n      swap1\n      pop\n      jump\t// out\n        /* \"#utility.yul\":7549:7771   */\n    tag_25:\n        /* \"#utility.yul\":7642:7646   */\n      0x00\n        /* \"#utility.yul\":7680:7682   */\n      0x20\n        /* \"#utility.yul\":7669:7678   */\n      dup3\n        /* \"#utility.yul\":7665:7683   */\n      add\n        /* \"#utility.yul\":7657:7683   */\n      swap1\n      pop\n        /* \"#utility.yul\":7693:7764   */\n      tag_204\n        /* \"#utility.yul\":7761:7762   */\n      0x00\n        /* \"#utility.yul\":7750:7759   */\n      dup4\n        /* \"#utility.yul\":7746:7763   */\n      add\n        /* \"#utility.yul\":7737:7743   */\n      dup5\n        /* \"#utility.yul\":7693:7764   */\n      tag_187\n      jump\t// in\n    tag_204:\n        /* \"#utility.yul\":7549:7771   */\n      swap3\n      swap2\n      pop\n      pop\n      jump\t// out\n        /* \"#utility.yul\":7777:7906   */\n    tag_108:\n        /* \"#utility.yul\":7811:7817   */\n      0x00\n        /* \"#utility.yul\":7838:7858   */\n      tag_206\n      tag_207\n      jump\t// in\n    tag_206:\n        /* \"#utility.yul\":7828:7858   */\n      swap1\n      pop\n        /* \"#utility.yul\":7867:7900   */\n      tag_208\n        /* \"#utility.yul\":7895:7899   */\n      dup3\n        /* \"#utility.yul\":7887:7893   */\n      dup3\n        /* \"#utility.yul\":7867:7900   */\n      tag_209\n      jump\t// in\n    tag_208:\n        /* \"#utility.yul\":7777:7906   */\n      swap2\n      swap1\n      pop\n      jump\t// out\n        /* \"#utility.yul\":7912:7987   */\n    tag_207:\n        /* \"#utility.yul\":7945:7951   */\n      0x00\n        /* \"#utility.yul\":7978:7980   */\n      0x40\n        /* \"#utility.yul\":7972:7981   */\n      mload\n        /* \"#utility.yul\":7962:7981   */\n      swap1\n      pop\n        /* \"#utility.yul\":7912:7987   */\n      swap1\n      jump\t// out\n        /* \"#utility.yul\":7993:8301   */\n    tag_107:\n        /* \"#utility.yul\":8055:8059   */\n      0x00\n        /* \"#utility.yul\":8145:8163   */\n      0xffffffffffffffff\n        /* \"#utility.yul\":8137:8143   */\n      dup3\n        /* \"#utility.yul\":8134:8164   */\n      gt\n        /* \"#utility.yul\":8131:8187   */\n      iszero\n      tag_212\n      jumpi\n        /* \"#utility.yul\":8167:8185   */\n      tag_213\n      tag_74\n      jump\t// in\n    tag_213:\n        /* \"#utility.yul\":8131:8187   */\n    tag_212:\n        /* \"#utility.yul\":8205:8234   */\n      tag_214\n        /* \"#utility.yul\":8227:8233   */\n      dup3\n        /* \"#utility.yul\":8205:8234   */\n      tag_166\n      jump\t// in\n    tag_214:\n        /* \"#utility.yul\":8197:8234   */\n      swap1\n      pop\n        /* \"#utility.yul\":8289:8293   */\n      0x20\n        /* \"#utility.yul\":8283:8287   */\n      dup2\n        /* \"#utility.yul\":8279:8294   */\n      add\n        /* \"#utility.yul\":8271:8294   */\n      swap1\n      pop\n        /* \"#utility.yul\":7993:8301   */\n      swap2\n      swap1\n      pop\n      jump\t// out\n        /* \"#utility.yul\":8307:8465   */\n    tag_150:\n        /* \"#utility.yul\":8400:8404   */\n      0x00\n        /* \"#utility.yul\":8423:8426   */\n      dup2\n        /* \"#utility.yul\":8415:8426   */\n      swap1\n      pop\n        /* \"#utility.yul\":8453:8457   */\n      0x20\n        /* \"#utility.yul\":8448:8451   */\n      dup3\n        /* \"#utility.yul\":8444:8458   */\n      add\n        /* \"#utility.yul\":8436:8458   */\n      swap1\n      pop\n        /* \"#utility.yul\":8307:8465   */\n      swap2\n      swap1\n      pop\n      jump\t// out\n        /* \"#utility.yul\":8471:8611   */\n    tag_146:\n        /* \"#utility.yul\":8564:8570   */\n      0x00\n        /* \"#utility.yul\":8598:8603   */\n      dup2\n        /* \"#utility.yul\":8592:8604   */\n      mload\n        /* \"#utility.yul\":8582:8604   */\n      swap1\n      pop\n        /* \"#utility.yul\":8471:8611   */\n      swap2\n      swap1\n      pop\n      jump\t// out\n        /* \"#utility.yul\":8617:8716   */\n    tag_160:\n        /* \"#utility.yul\":8669:8675   */\n      0x00\n        /* \"#utility.yul\":8703:8708   */\n      dup2\n        /* \"#utility.yul\":8697:8709   */\n      mload\n        /* \"#utility.yul\":8687:8709   */\n      swap1\n      pop\n        /* \"#utility.yul\":8617:8716   */\n      swap2\n      swap1\n      pop\n      jump\t// out\n        /* \"#utility.yul\":8722:8861   */\n    tag_156:\n        /* \"#utility.yul\":8818:8822   */\n      0x00\n        /* \"#utility.yul\":8850:8854   */\n      0x20\n        /* \"#utility.yul\":8845:8848   */\n      dup3\n        /* \"#utility.yul\":8841:8855   */\n      add\n        /* \"#utility.yul\":8833:8855   */\n      swap1\n      pop\n        /* \"#utility.yul\":8722:8861   */\n      swap2\n      swap1\n      pop\n      jump\t// out\n        /* \"#utility.yul\":8867:9077   */\n    tag_148:\n        /* \"#utility.yul\":8992:9003   */\n      0x00\n        /* \"#utility.yul\":9026:9032   */\n      dup3\n        /* \"#utility.yul\":9021:9024   */\n      dup3\n        /* \"#utility.yul\":9014:9033   */\n      mstore\n        /* \"#utility.yul\":9066:9070   */\n      0x20\n        /* \"#utility.yul\":9061:9064   */\n      dup3\n        /* \"#utility.yul\":9057:9071   */\n      add\n        /* \"#utility.yul\":9042:9071   */\n      swap1\n      pop\n        /* \"#utility.yul\":8867:9077   */\n      swap3\n      swap2\n      pop\n      pop\n      jump\t// out\n        /* \"#utility.yul\":9083:9242   */\n    tag_162:\n        /* \"#utility.yul\":9157:9168   */\n      0x00\n        /* \"#utility.yul\":9191:9197   */\n      dup3\n        /* \"#utility.yul\":9186:9189   */\n      dup3\n        /* \"#utility.yul\":9179:9198   */\n      mstore\n        /* \"#utility.yul\":9231:9235   */\n      0x20\n        /* \"#utility.yul\":9226:9229   */\n      dup3\n        /* \"#utility.yul\":9222:9236   */\n      add\n        /* \"#utility.yul\":9207:9236   */\n      swap1\n      pop\n        /* \"#utility.yul\":9083:9242   */\n      swap3\n      swap2\n      pop\n      pop\n      jump\t// out\n        /* \"#utility.yul\":9248:9417   */\n    tag_171:\n        /* \"#utility.yul\":9332:9343   */\n      0x00\n        /* \"#utility.yul\":9366:9372   */\n      dup3\n        /* \"#utility.yul\":9361:9364   */\n      dup3\n        /* \"#utility.yul\":9354:9373   */\n      mstore\n        /* \"#utility.yul\":9406:9410   */\n      0x20\n        /* \"#utility.yul\":9401:9404   */\n      dup3\n        /* \"#utility.yul\":9397:9411   */\n      add\n        /* \"#utility.yul\":9382:9411   */\n      swap1\n      pop\n        /* \"#utility.yul\":9248:9417   */\n      swap3\n      swap2\n      pop\n      pop\n      jump\t// out\n        /* \"#utility.yul\":9423:9519   */\n    tag_139:\n        /* \"#utility.yul\":9460:9467   */\n      0x00\n        /* \"#utility.yul\":9489:9513   */\n      tag_223\n        /* \"#utility.yul\":9507:9512   */\n      dup3\n        /* \"#utility.yul\":9489:9513   */\n      tag_224\n      jump\t// in\n    tag_223:\n        /* \"#utility.yul\":9478:9513   */\n      swap1\n      pop\n        /* \"#utility.yul\":9423:9519   */\n      swap2\n      swap1\n      pop\n      jump\t// out\n        /* \"#utility.yul\":9525:9629   */\n    tag_135:\n        /* \"#utility.yul\":9570:9577   */\n      0x00\n        /* \"#utility.yul\":9599:9623   */\n      tag_226\n        /* \"#utility.yul\":9617:9622   */\n      dup3\n        /* \"#utility.yul\":9599:9623   */\n      tag_224\n      jump\t// in\n    tag_226:\n        /* \"#utility.yul\":9588:9623   */\n      swap1\n      pop\n        /* \"#utility.yul\":9525:9629   */\n      swap2\n      swap1\n      pop\n      jump\t// out\n        /* \"#utility.yul\":9635:9761   */\n    tag_224:\n        /* \"#utility.yul\":9672:9679   */\n      0x00\n        /* \"#utility.yul\":9712:9754   */\n      0xffffffffffffffffffffffffffffffffffffffff\n        /* \"#utility.yul\":9705:9710   */\n      dup3\n        /* \"#utility.yul\":9701:9755   */\n      and\n        /* \"#utility.yul\":9690:9755   */\n      swap1\n      pop\n        /* \"#utility.yul\":9635:9761   */\n      swap2\n      swap1\n      pop\n      jump\t// out\n        /* \"#utility.yul\":9767:9844   */\n    tag_190:\n        /* \"#utility.yul\":9804:9811   */\n      0x00\n        /* \"#utility.yul\":9833:9838   */\n      dup2\n        /* \"#utility.yul\":9822:9838   */\n      swap1\n      pop\n        /* \"#utility.yul\":9767:9844   */\n      swap2\n      swap1\n      pop\n      jump\t// out\n        /* \"#utility.yul\":9850:10004   */\n    tag_113:\n        /* \"#utility.yul\":9934:9940   */\n      dup3\n        /* \"#utility.yul\":9929:9932   */\n      dup2\n        /* \"#utility.yul\":9924:9927   */\n      dup4\n        /* \"#utility.yul\":9911:9941   */\n      calldatacopy\n        /* \"#utility.yul\":9996:9997   */\n      0x00\n        /* \"#utility.yul\":9987:9993   */\n      dup4\n        /* \"#utility.yul\":9982:9985   */\n      dup4\n        /* \"#utility.yul\":9978:9994   */\n      add\n        /* \"#utility.yul\":9971:9998   */\n      mstore\n        /* \"#utility.yul\":9850:10004   */\n      pop\n      pop\n      pop\n      jump\t// out\n        /* \"#utility.yul\":10010:10317   */\n    tag_164:\n        /* \"#utility.yul\":10078:10079   */\n      0x00\n        /* \"#utility.yul\":10088:10201   */\n    tag_231:\n        /* \"#utility.yul\":10102:10108   */\n      dup4\n        /* \"#utility.yul\":10099:10100   */\n      dup2\n        /* \"#utility.yul\":10096:10109   */\n      lt\n        /* \"#utility.yul\":10088:10201   */\n      iszero\n      tag_233\n      jumpi\n        /* \"#utility.yul\":10187:10188   */\n      dup1\n        /* \"#utility.yul\":10182:10185   */\n      dup3\n        /* \"#utility.yul\":10178:10189   */\n      add\n        /* \"#utility.yul\":10172:10190   */\n      mload\n        /* \"#utility.yul\":10168:10169   */\n      dup2\n        /* \"#utility.yul\":10163:10166   */\n      dup5\n        /* \"#utility.yul\":10159:10170   */\n      add\n        /* \"#utility.yul\":10152:10191   */\n      mstore\n        /* \"#utility.yul\":10124:10126   */\n      0x20\n        /* \"#utility.yul\":10121:10122   */\n      dup2\n        /* \"#utility.yul\":10117:10127   */\n      add\n        /* \"#utility.yul\":10112:10127   */\n      swap1\n      pop\n        /* \"#utility.yul\":10088:10201   */\n      jump(tag_231)\n    tag_233:\n        /* \"#utility.yul\":10219:10225   */\n      dup4\n        /* \"#utility.yul\":10216:10217   */\n      dup2\n        /* \"#utility.yul\":10213:10226   */\n      gt\n        /* \"#utility.yul\":10210:10311   */\n      iszero\n      tag_234\n      jumpi\n        /* \"#utility.yul\":10299:10300   */\n      0x00\n        /* \"#utility.yul\":10290:10296   */\n      dup5\n        /* \"#utility.yul\":10285:10288   */\n      dup5\n        /* \"#utility.yul\":10281:10297   */\n      add\n        /* \"#utility.yul\":10274:10301   */\n      mstore\n        /* \"#utility.yul\":10210:10311   */\n    tag_234:\n        /* \"#utility.yul\":10059:10317   */\n      pop\n        /* \"#utility.yul\":10010:10317   */\n      pop\n      pop\n      pop\n      jump\t// out\n        /* \"#utility.yul\":10323:10643   */\n    tag_83:\n        /* \"#utility.yul\":10367:10373   */\n      0x00\n        /* \"#utility.yul\":10404:10405   */\n      0x02\n        /* \"#utility.yul\":10398:10402   */\n      dup3\n        /* \"#utility.yul\":10394:10406   */\n      div\n        /* \"#utility.yul\":10384:10406   */\n      swap1\n      pop\n        /* \"#utility.yul\":10451:10452   */\n      0x01\n        /* \"#utility.yul\":10445:10449   */\n      dup3\n        /* \"#utility.yul\":10441:10453   */\n      and\n        /* \"#utility.yul\":10472:10490   */\n      dup1\n        /* \"#utility.yul\":10462:10543   */\n      tag_236\n      jumpi\n        /* \"#utility.yul\":10528:10532   */\n      0x7f\n        /* \"#utility.yul\":10520:10526   */\n      dup3\n        /* \"#utility.yul\":10516:10533   */\n      and\n        /* \"#utility.yul\":10506:10533   */\n      swap2\n      pop\n        /* \"#utility.yul\":10462:10543   */\n    tag_236:\n        /* \"#utility.yul\":10590:10592   */\n      0x20\n        /* \"#utility.yul\":10582:10588   */\n      dup3\n        /* \"#utility.yul\":10579:10593   */\n      lt\n        /* \"#utility.yul\":10559:10577   */\n      dup2\n        /* \"#utility.yul\":10556:10594   */\n      eq\n        /* \"#utility.yul\":10553:10637   */\n      iszero\n      tag_237\n      jumpi\n        /* \"#utility.yul\":10609:10627   */\n      tag_238\n      tag_239\n      jump\t// in\n    tag_238:\n        /* \"#utility.yul\":10553:10637   */\n    tag_237:\n        /* \"#utility.yul\":10374:10643   */\n      pop\n        /* \"#utility.yul\":10323:10643   */\n      swap2\n      swap1\n      pop\n      jump\t// out\n        /* \"#utility.yul\":10649:10930   */\n    tag_209:\n        /* \"#utility.yul\":10732:10759   */\n      tag_241\n        /* \"#utility.yul\":10754:10758   */\n      dup3\n        /* \"#utility.yul\":10732:10759   */\n      tag_166\n      jump\t// in\n    tag_241:\n        /* \"#utility.yul\":10724:10730   */\n      dup2\n        /* \"#utility.yul\":10720:10760   */\n      add\n        /* \"#utility.yul\":10862:10868   */\n      dup2\n        /* \"#utility.yul\":10850:10860   */\n      dup2\n        /* \"#utility.yul\":10847:10869   */\n      lt\n        /* \"#utility.yul\":10826:10844   */\n      0xffffffffffffffff\n        /* \"#utility.yul\":10814:10824   */\n      dup3\n        /* \"#utility.yul\":10811:10845   */\n      gt\n        /* \"#utility.yul\":10808:10870   */\n      or\n        /* \"#utility.yul\":10805:10893   */\n      iszero\n      tag_242\n      jumpi\n        /* \"#utility.yul\":10873:10891   */\n      tag_243\n      tag_74\n      jump\t// in\n    tag_243:\n        /* \"#utility.yul\":10805:10893   */\n    tag_242:\n        /* \"#utility.yul\":10913:10923   */\n      dup1\n        /* \"#utility.yul\":10909:10911   */\n      0x40\n        /* \"#utility.yul\":10902:10924   */\n      mstore\n        /* \"#utility.yul\":10692:10930   */\n      pop\n        /* \"#utility.yul\":10649:10930   */\n      pop\n      pop\n      jump\t// out\n        /* \"#utility.yul\":10936:11169   */\n    tag_58:\n        /* \"#utility.yul\":10975:10978   */\n      0x00\n        /* \"#utility.yul\":10998:11022   */\n      tag_245\n        /* \"#utility.yul\":11016:11021   */\n      dup3\n        /* \"#utility.yul\":10998:11022   */\n      tag_190\n      jump\t// in\n    tag_245:\n        /* \"#utility.yul\":10989:11022   */\n      swap2\n      pop\n        /* \"#utility.yul\":11044:11110   */\n      0xffffffffffffffffffffffffffffffffffffffffffffffffffffffffffffffff\n        /* \"#utility.yul\":11037:11042   */\n      dup3\n        /* \"#utility.yul\":11034:11111   */\n      eq\n        /* \"#utility.yul\":11031:11134   */\n      iszero\n      tag_246\n      jumpi\n        /* \"#utility.yul\":11114:11132   */\n      tag_247\n      tag_248\n      jump\t// in\n    tag_247:\n        /* \"#utility.yul\":11031:11134   */\n    tag_246:\n        /* \"#utility.yul\":11161:11162   */\n      0x01\n        /* \"#utility.yul\":11154:11159   */\n      dup3\n        /* \"#utility.yul\":11150:11163   */\n      add\n        /* \"#utility.yul\":11143:11163   */\n      swap1\n      pop\n        /* \"#utility.yul\":10936:11169   */\n      swap2\n      swap1\n      pop\n      jump\t// out\n        /* \"#utility.yul\":11175:11355   */\n    tag_248:\n        /* \"#utility.yul\":11223:11300   */\n      0x4e487b7100000000000000000000000000000000000000000000000000000000\n        /* \"#utility.yul\":11220:11221   */\n      0x00\n        /* \"#utility.yul\":11213:11301   */\n      mstore\n        /* \"#utility.yul\":11320:11324   */\n      0x11\n        /* \"#utility.yul\":11317:11318   */\n      0x04\n        /* \"#utility.yul\":11310:11325   */\n      mstore\n        /* \"#utility.yul\":11344:11348   */\n      0x24\n        /* \"#utility.yul\":11341:11342   */\n      0x00\n        /* \"#utility.yul\":11334:11349   */\n      revert\n        /* \"#utility.yul\":11361:11541   */\n    tag_239:\n        /* \"#utility.yul\":11409:11486   */\n      0x4e487b7100000000000000000000000000000000000000000000000000000000\n        /* \"#utility.yul\":11406:11407   */\n      0x00\n        /* \"#utility.yul\":11399:11487   */\n      mstore\n        /* \"#utility.yul\":11506:11510   */\n      0x22\n        /* \"#utility.yul\":11503:11504   */\n      0x04\n        /* \"#utility.yul\":11496:11511   */\n      mstore\n        /* \"#utility.yul\":11530:11534   */\n      0x24\n        /* \"#utility.yul\":11527:11528   */\n      0x00\n        /* \"#utility.yul\":11520:11535   */\n      revert\n        /* \"#utility.yul\":11547:11727   */\n    tag_90:\n        /* \"#utility.yul\":11595:11672   */\n      0x4e487b7100000000000000000000000000000000000000000000000000000000\n        /* \"#utility.yul\":11592:11593   */\n      0x00\n        /* \"#utility.yul\":11585:11673   */\n      mstore\n        /* \"#utility.yul\":11692:11696   */\n      0x32\n        /* \"#utility.yul\":11689:11690   */\n      0x04\n        /* \"#utility.yul\":11682:11697   */\n      mstore\n        /* \"#utility.yul\":11716:11720   */\n      0x24\n        /* \"#utility.yul\":11713:11714   */\n      0x00\n        /* \"#utility.yul\":11706:11721   */\n      revert\n        /* \"#utility.yul\":11733:11913   */\n    tag_74:\n        /* \"#utility.yul\":11781:11858   */\n      0x4e487b7100000000000000000000000000000000000000000000000000000000\n        /* \"#utility.yul\":11778:11779   */\n      0x00\n        /* \"#utility.yul\":11771:11859   */\n      mstore\n        /* \"#utility.yul\":11878:11882   */\n      0x41\n        /* \"#utility.yul\":11875:11876   */\n      0x04\n        /* \"#utility.yul\":11868:11883   */\n      mstore\n        /* \"#utility.yul\":11902:11906   */\n      0x24\n        /* \"#utility.yul\":11899:11900   */\n      0x00\n        /* \"#utility.yul\":11892:11907   */\n      revert\n        /* \"#utility.yul\":11919:12036   */\n    tag_118:\n        /* \"#utility.yul\":12028:12029   */\n      0x00\n        /* \"#utility.yul\":12025:12026   */\n      dup1\n        /* \"#utility.yul\":12018:12030   */\n      revert\n        /* \"#utility.yul\":12042:12159   */\n    tag_111:\n        /* \"#utility.yul\":12151:12152   */\n      0x00\n        /* \"#utility.yul\":12148:12149   */\n      dup1\n        /* \"#utility.yul\":12141:12153   */\n      revert\n        /* \"#utility.yul\":12165:12282   */\n    tag_126:\n        /* \"#utility.yul\":12274:12275   */\n      0x00\n        /* \"#utility.yul\":12271:12272   */\n      dup1\n        /* \"#utility.yul\":12264:12276   */\n      revert\n        /* \"#utility.yul\":12288:12405   */\n    tag_123:\n        /* \"#utility.yul\":12397:12398   */\n      0x00\n        /* \"#utility.yul\":12394:12395   */\n      dup1\n        /* \"#utility.yul\":12387:12399   */\n      revert\n        /* \"#utility.yul\":12411:12513   */\n    tag_166:\n        /* \"#utility.yul\":12452:12458   */\n      0x00\n        /* \"#utility.yul\":12503:12505   */\n      0x1f\n        /* \"#utility.yul\":12499:12506   */\n      not\n        /* \"#utility.yul\":12494:12496   */\n      0x1f\n        /* \"#utility.yul\":12487:12492   */\n      dup4\n        /* \"#utility.yul\":12483:12497   */\n      add\n        /* \"#utility.yul\":12479:12507   */\n      and\n        /* \"#utility.yul\":12469:12507   */\n      swap1\n      pop\n        /* \"#utility.yul\":12411:12513   */\n      swap2\n      swap1\n      pop\n      jump\t// out\n        /* \"#utility.yul\":12519:12744   */\n    tag_178:\n        /* \"#utility.yul\":12659:12693   */\n      0x5061796d656e742073686f756c64206265207468652073756273637269707469\n        /* \"#utility.yul\":12655:12656   */\n      0x00\n        /* \"#utility.yul\":12647:12653   */\n      dup3\n        /* \"#utility.yul\":12643:12657   */\n      add\n        /* \"#utility.yul\":12636:12694   */\n      mstore\n        /* \"#utility.yul\":12728:12736   */\n      0x6f6e206665650000000000000000000000000000000000000000000000000000\n        /* \"#utility.yul\":12723:12725   */\n      0x20\n        /* \"#utility.yul\":12715:12721   */\n      dup3\n        /* \"#utility.yul\":12711:12726   */\n      add\n        /* \"#utility.yul\":12704:12737   */\n      mstore\n        /* \"#utility.yul\":12519:12744   */\n      pop\n      jump\t// out\n        /* \"#utility.yul\":12750:12921   */\n    tag_183:\n        /* \"#utility.yul\":12890:12913   */\n      0x4f6e6c7920617574686f722063616e2063616c6c210000000000000000000000\n        /* \"#utility.yul\":12886:12887   */\n      0x00\n        /* \"#utility.yul\":12878:12884   */\n      dup3\n        /* \"#utility.yul\":12874:12888   */\n      add\n        /* \"#utility.yul\":12867:12914   */\n      mstore\n        /* \"#utility.yul\":12750:12921   */\n      pop\n      jump\t// out\n\n    auxdata: 0xa2646970667358221220fd8a14c5ff74f2403d0d23ad01e12a45f193d8facb904d18d5365f1b919fb92b64736f6c63430008070033\n}\n",
				"bytecode": {
					"linkReferences": {},
					"object": "608060405260006001553480156200001657600080fd5b5060405162000fed38038062000fed83398181016040528101906200003c9190620000b7565b33600260006101000a81548173ffffffffffffffffffffffffffffffffffffffff021916908373ffffffffffffffffffffffffffffffffffffffff160217905550670de0b6b3a764000081620000939190620000e9565b60038190555050620001a2565b600081519050620000b18162000188565b92915050565b600060208284031215620000d057620000cf62000183565b5b6000620000e084828501620000a0565b91505092915050565b6000620000f6826200014a565b915062000103836200014a565b9250817fffffffffffffffffffffffffffffffffffffffffffffffffffffffffffffffff04831182151516156200013f576200013e62000154565b5b828202905092915050565b6000819050919050565b7f4e487b7100000000000000000000000000000000000000000000000000000000600052601160045260246000fd5b600080fd5b62000193816200014a565b81146200019f57600080fd5b50565b610e3b80620001b26000396000f3fe60806040526004361061007f5760003560e01c80637f6b28091161004e5780637f6b28091461018c57806382d69b62146101b7578063a6c3e6b9146101e2578063ef352bbe1461020d576100ca565b80630aa0a175146101105780632edd4fa51461013b578063534844a2146101575780636f9fb98a14610161576100ca565b366100ca5760035434146100c8576040517f08c379a00000000000000000000000000000000000000000000000000000000081526004016100bf90610a59565b60405180910390fd5b005b600354341461010e576040517f08c379a000000000000000000000000000000000000000000000000000000000815260040161010590610a59565b60405180910390fd5b005b34801561011c57600080fd5b50610125610238565b6040516101329190610a99565b60405180910390f35b610155600480360381019061015091906107db565b61023e565b005b61015f610381565b005b34801561016d57600080fd5b5061017661047c565b6040516101839190610a99565b60405180910390f35b34801561019857600080fd5b506101a1610484565b6040516101ae9190610a99565b60405180910390f35b3480156101c357600080fd5b506101cc6104c5565b6040516101d991906109f9565b60405180910390f35b3480156101ee57600080fd5b506101f761066c565b60405161020491906109de565b60405180910390f35b34801561021957600080fd5b50610222610692565b60405161022f9190610a99565b60405180910390f35b60035481565b60405180604001604052808281526020013373ffffffffffffffffffffffffffffffffffffffff1681525060008060015481526020019081526020016000206000820151816000019080519060200190610299929190610698565b5060208201518160010160006101000a81548173ffffffffffffffffffffffffffffffffffffffff021916908373ffffffffffffffffffffffffffffffffffffffff160217905550905050600160008154809291906102f790610c63565b91905055503073ffffffffffffffffffffffffffffffffffffffff166108fc349081150290604051600060405180830381858888f19350505050158015610342573d6000803e3d6000fd5b507f9dfc9870a49c7b43c3ac5f2205775397be1d30d784ea9ee34b41821548af3b1181333460405161037693929190610a1b565b60405180910390a150565b600260009054906101000a900473ffffffffffffffffffffffffffffffffffffffff1673ffffffffffffffffffffffffffffffffffffffff163373ffffffffffffffffffffffffffffffffffffffff1614610411576040517f08c379a000000000000000000000000000000000000000000000000000000000815260040161040890610a79565b60405180910390fd5b600260009054906101000a900473ffffffffffffffffffffffffffffffffffffffff1673ffffffffffffffffffffffffffffffffffffffff166108fc479081150290604051600060405180830381858888f19350505050158015610479573d6000803e3d6000fd5b50565b600047905090565b6000600260009054906101000a900473ffffffffffffffffffffffffffffffffffffffff1673ffffffffffffffffffffffffffffffffffffffff1631905090565b6060600060015467ffffffffffffffff8111156104e5576104e4610d39565b5b60405190808252806020026020018201604052801561051e57816020015b61050b61071e565b8152602001906001900390816105035790505b50905060005b6001548110156106645760008082815260200190815260200160002060405180604001604052908160008201805461055b90610c00565b80601f016020809104026020016040519081016040528092919081815260200182805461058790610c00565b80156105d45780601f106105a9576101008083540402835291602001916105d4565b820191906000526020600020905b8154815290600101906020018083116105b757829003601f168201915b505050505081526020016001820160009054906101000a900473ffffffffffffffffffffffffffffffffffffffff1673ffffffffffffffffffffffffffffffffffffffff1673ffffffffffffffffffffffffffffffffffffffff168152505082828151811061064657610645610d0a565b5b6020026020010181905250808061065c90610c63565b915050610524565b508091505090565b600260009054906101000a900473ffffffffffffffffffffffffffffffffffffffff1681565b60015481565b8280546106a490610c00565b90600052602060002090601f0160209004810192826106c6576000855561070d565b82601f106106df57805160ff191683800117855561070d565b8280016001018555821561070d579182015b8281111561070c5782518255916020019190600101906106f1565b5b50905061071a919061074e565b5090565b604051806040016040528060608152602001600073ffffffffffffffffffffffffffffffffffffffff1681525090565b5b8082111561076757600081600090555060010161074f565b5090565b600061077e61077984610ad9565b610ab4565b90508281526020810184848401111561079a57610799610d6d565b5b6107a5848285610bbe565b509392505050565b600082601f8301126107c2576107c1610d68565b5b81356107d284826020860161076b565b91505092915050565b6000602082840312156107f1576107f0610d77565b5b600082013567ffffffffffffffff81111561080f5761080e610d72565b5b61081b848285016107ad565b91505092915050565b60006108308383610992565b905092915050565b61084181610b82565b82525050565b61085081610b70565b82525050565b61085f81610b70565b82525050565b600061087082610b1a565b61087a8185610b3d565b93508360208202850161088c85610b0a565b8060005b858110156108c857848403895281516108a98582610824565b94506108b483610b30565b925060208a01995050600181019050610890565b50829750879550505050505092915050565b60006108e582610b25565b6108ef8185610b4e565b93506108ff818560208601610bcd565b61090881610d7c565b840191505092915050565b600061091e82610b25565b6109288185610b5f565b9350610938818560208601610bcd565b61094181610d7c565b840191505092915050565b6000610959602683610b5f565b915061096482610d8d565b604082019050919050565b600061097c601583610b5f565b915061098782610ddc565b602082019050919050565b600060408301600083015184820360008601526109af82826108da565b91505060208301516109c46020860182610847565b508091505092915050565b6109d881610bb4565b82525050565b60006020820190506109f36000830184610838565b92915050565b60006020820190508181036000830152610a138184610865565b905092915050565b60006060820190508181036000830152610a358186610913565b9050610a446020830185610856565b610a5160408301846109cf565b949350505050565b60006020820190508181036000830152610a728161094c565b9050919050565b60006020820190508181036000830152610a928161096f565b9050919050565b6000602082019050610aae60008301846109cf565b92915050565b6000610abe610acf565b9050610aca8282610c32565b919050565b6000604051905090565b600067ffffffffffffffff821115610af457610af3610d39565b5b610afd82610d7c565b9050602081019050919050565b6000819050602082019050919050565b600081519050919050565b600081519050919050565b6000602082019050919050565b600082825260208201905092915050565b600082825260208201905092915050565b600082825260208201905092915050565b6000610b7b82610b94565b9050919050565b6000610b8d82610b94565b9050919050565b600073ffffffffffffffffffffffffffffffffffffffff82169050919050565b6000819050919050565b82818337600083830152505050565b60005b83811015610beb578082015181840152602081019050610bd0565b83811115610bfa576000848401525b50505050565b60006002820490506001821680610c1857607f821691505b60208210811415610c2c57610c2b610cdb565b5b50919050565b610c3b82610d7c565b810181811067ffffffffffffffff82111715610c5a57610c59610d39565b5b80604052505050565b6000610c6e82610bb4565b91507fffffffffffffffffffffffffffffffffffffffffffffffffffffffffffffffff821415610ca157610ca0610cac565b5b600182019050919050565b7f4e487b7100000000000000000000000000000000000000000000000000000000600052601160045260246000fd5b7f4e487b7100000000000000000000000000000000000000000000000000000000600052602260045260246000fd5b7f4e487b7100000000000000000000000000000000000000000000000000000000600052603260045260246000fd5b7f4e487b7100000000000000000000000000000000000000000000000000000000600052604160045260246000fd5b600080fd5b600080fd5b600080fd5b600080fd5b6000601f19601f8301169050919050565b7f5061796d656e742073686f756c6420626520746865207375627363726970746960008201527f6f6e206665650000000000000000000000000000000000000000000000000000602082015250565b7f4f6e6c7920617574686f722063616e2063616c6c21000000000000000000000060008201525056fea2646970667358221220fd8a14c5ff74f2403d0d23ad01e12a45f193d8facb904d18d5365f1b919fb92b64736f6c63430008070033",
					"opcodes": "PUSH1 0x80 PUSH1 0x40 MSTORE PUSH1 0x0 PUSH1 0x1 SSTORE CALLVALUE DUP1 ISZERO PUSH3 0x16 JUMPI PUSH1 0x0 DUP1 REVERT JUMPDEST POP PUSH1 0x40 MLOAD PUSH3 0xFED CODESIZE SUB DUP1 PUSH3 0xFED DUP4 CODECOPY DUP2 DUP2 ADD PUSH1 0x40 MSTORE DUP2 ADD SWAP1 PUSH3 0x3C SWAP2 SWAP1 PUSH3 0xB7 JUMP JUMPDEST CALLER PUSH1 0x2 PUSH1 0x0 PUSH2 0x100 EXP DUP2 SLOAD DUP2 PUSH20 0xFFFFFFFFFFFFFFFFFFFFFFFFFFFFFFFFFFFFFFFF MUL NOT AND SWAP1 DUP4 PUSH20 0xFFFFFFFFFFFFFFFFFFFFFFFFFFFFFFFFFFFFFFFF AND MUL OR SWAP1 SSTORE POP PUSH8 0xDE0B6B3A7640000 DUP2 PUSH3 0x93 SWAP2 SWAP1 PUSH3 0xE9 JUMP JUMPDEST PUSH1 0x3 DUP2 SWAP1 SSTORE POP POP PUSH3 0x1A2 JUMP JUMPDEST PUSH1 0x0 DUP2 MLOAD SWAP1 POP PUSH3 0xB1 DUP2 PUSH3 0x188 JUMP JUMPDEST SWAP3 SWAP2 POP POP JUMP JUMPDEST PUSH1 0x0 PUSH1 0x20 DUP3 DUP5 SUB SLT ISZERO PUSH3 0xD0 JUMPI PUSH3 0xCF PUSH3 0x183 JUMP JUMPDEST JUMPDEST PUSH1 0x0 PUSH3 0xE0 DUP5 DUP3 DUP6 ADD PUSH3 0xA0 JUMP JUMPDEST SWAP2 POP POP SWAP3 SWAP2 POP POP JUMP JUMPDEST PUSH1 0x0 PUSH3 0xF6 DUP3 PUSH3 0x14A JUMP JUMPDEST SWAP2 POP PUSH3 0x103 DUP4 PUSH3 0x14A JUMP JUMPDEST SWAP3 POP DUP2 PUSH32 0xFFFFFFFFFFFFFFFFFFFFFFFFFFFFFFFFFFFFFFFFFFFFFFFFFFFFFFFFFFFFFFFF DIV DUP4 GT DUP3 ISZERO ISZERO AND ISZERO PUSH3 0x13F JUMPI PUSH3 0x13E PUSH3 0x154 JUMP JUMPDEST JUMPDEST DUP3 DUP3 MUL SWAP1 POP SWAP3 SWAP2 POP POP JUMP JUMPDEST PUSH1 0x0 DUP2 SWAP1 POP SWAP2 SWAP1 POP JUMP JUMPDEST PUSH32 0x4E487B7100000000000000000000000000000000000000000000000000000000 PUSH1 0x0 MSTORE PUSH1 0x11 PUSH1 0x4 MSTORE PUSH1 0x24 PUSH1 0x0 REVERT JUMPDEST PUSH1 0x0 DUP1 REVERT JUMPDEST PUSH3 0x193 DUP2 PUSH3 0x14A JUMP JUMPDEST DUP2 EQ PUSH3 0x19F JUMPI PUSH1 0x0 DUP1 REVERT JUMPDEST POP JUMP JUMPDEST PUSH2 0xE3B DUP1 PUSH3 0x1B2 PUSH1 0x0 CODECOPY PUSH1 0x0 RETURN INVALID PUSH1 0x80 PUSH1 0x40 MSTORE PUSH1 0x4 CALLDATASIZE LT PUSH2 0x7F JUMPI PUSH1 0x0 CALLDATALOAD PUSH1 0xE0 SHR DUP1 PUSH4 0x7F6B2809 GT PUSH2 0x4E JUMPI DUP1 PUSH4 0x7F6B2809 EQ PUSH2 0x18C JUMPI DUP1 PUSH4 0x82D69B62 EQ PUSH2 0x1B7 JUMPI DUP1 PUSH4 0xA6C3E6B9 EQ PUSH2 0x1E2 JUMPI DUP1 PUSH4 0xEF352BBE EQ PUSH2 0x20D JUMPI PUSH2 0xCA JUMP JUMPDEST DUP1 PUSH4 0xAA0A175 EQ PUSH2 0x110 JUMPI DUP1 PUSH4 0x2EDD4FA5 EQ PUSH2 0x13B JUMPI DUP1 PUSH4 0x534844A2 EQ PUSH2 0x157 JUMPI DUP1 PUSH4 0x6F9FB98A EQ PUSH2 0x161 JUMPI PUSH2 0xCA JUMP JUMPDEST CALLDATASIZE PUSH2 0xCA JUMPI PUSH1 0x3 SLOAD CALLVALUE EQ PUSH2 0xC8 JUMPI PUSH1 0x40 MLOAD PUSH32 0x8C379A000000000000000000000000000000000000000000000000000000000 DUP2 MSTORE PUSH1 0x4 ADD PUSH2 0xBF SWAP1 PUSH2 0xA59 JUMP JUMPDEST PUSH1 0x40 MLOAD DUP1 SWAP2 SUB SWAP1 REVERT JUMPDEST STOP JUMPDEST PUSH1 0x3 SLOAD CALLVALUE EQ PUSH2 0x10E JUMPI PUSH1 0x40 MLOAD PUSH32 0x8C379A000000000000000000000000000000000000000000000000000000000 DUP2 MSTORE PUSH1 0x4 ADD PUSH2 0x105 SWAP1 PUSH2 0xA59 JUMP JUMPDEST PUSH1 0x40 MLOAD DUP1 SWAP2 SUB SWAP1 REVERT JUMPDEST STOP JUMPDEST CALLVALUE DUP1 ISZERO PUSH2 0x11C JUMPI PUSH1 0x0 DUP1 REVERT JUMPDEST POP PUSH2 0x125 PUSH2 0x238 JUMP JUMPDEST PUSH1 0x40 MLOAD PUSH2 0x132 SWAP2 SWAP1 PUSH2 0xA99 JUMP JUMPDEST PUSH1 0x40 MLOAD DUP1 SWAP2 SUB SWAP1 RETURN JUMPDEST PUSH2 0x155 PUSH1 0x4 DUP1 CALLDATASIZE SUB DUP2 ADD SWAP1 PUSH2 0x150 SWAP2 SWAP1 PUSH2 0x7DB JUMP JUMPDEST PUSH2 0x23E JUMP JUMPDEST STOP JUMPDEST PUSH2 0x15F PUSH2 0x381 JUMP JUMPDEST STOP JUMPDEST CALLVALUE DUP1 ISZERO PUSH2 0x16D JUMPI PUSH1 0x0 DUP1 REVERT JUMPDEST POP PUSH2 0x176 PUSH2 0x47C JUMP JUMPDEST PUSH1 0x40 MLOAD PUSH2 0x183 SWAP2 SWAP1 PUSH2 0xA99 JUMP JUMPDEST PUSH1 0x40 MLOAD DUP1 SWAP2 SUB SWAP1 RETURN JUMPDEST CALLVALUE DUP1 ISZERO PUSH2 0x198 JUMPI PUSH1 0x0 DUP1 REVERT JUMPDEST POP PUSH2 0x1A1 PUSH2 0x484 JUMP JUMPDEST PUSH1 0x40 MLOAD PUSH2 0x1AE SWAP2 SWAP1 PUSH2 0xA99 JUMP JUMPDEST PUSH1 0x40 MLOAD DUP1 SWAP2 SUB SWAP1 RETURN JUMPDEST CALLVALUE DUP1 ISZERO PUSH2 0x1C3 JUMPI PUSH1 0x0 DUP1 REVERT JUMPDEST POP PUSH2 0x1CC PUSH2 0x4C5 JUMP JUMPDEST PUSH1 0x40 MLOAD PUSH2 0x1D9 SWAP2 SWAP1 PUSH2 0x9F9 JUMP JUMPDEST PUSH1 0x40 MLOAD DUP1 SWAP2 SUB SWAP1 RETURN JUMPDEST CALLVALUE DUP1 ISZERO PUSH2 0x1EE JUMPI PUSH1 0x0 DUP1 REVERT JUMPDEST POP PUSH2 0x1F7 PUSH2 0x66C JUMP JUMPDEST PUSH1 0x40 MLOAD PUSH2 0x204 SWAP2 SWAP1 PUSH2 0x9DE JUMP JUMPDEST PUSH1 0x40 MLOAD DUP1 SWAP2 SUB SWAP1 RETURN JUMPDEST CALLVALUE DUP1 ISZERO PUSH2 0x219 JUMPI PUSH1 0x0 DUP1 REVERT JUMPDEST POP PUSH2 0x222 PUSH2 0x692 JUMP JUMPDEST PUSH1 0x40 MLOAD PUSH2 0x22F SWAP2 SWAP1 PUSH2 0xA99 JUMP JUMPDEST PUSH1 0x40 MLOAD DUP1 SWAP2 SUB SWAP1 RETURN JUMPDEST PUSH1 0x3 SLOAD DUP2 JUMP JUMPDEST PUSH1 0x40 MLOAD DUP1 PUSH1 0x40 ADD PUSH1 0x40 MSTORE DUP1 DUP3 DUP2 MSTORE PUSH1 0x20 ADD CALLER PUSH20 0xFFFFFFFFFFFFFFFFFFFFFFFFFFFFFFFFFFFFFFFF AND DUP2 MSTORE POP PUSH1 0x0 DUP1 PUSH1 0x1 SLOAD DUP2 MSTORE PUSH1 0x20 ADD SWAP1 DUP2 MSTORE PUSH1 0x20 ADD PUSH1 0x0 KECCAK256 PUSH1 0x0 DUP3 ADD MLOAD DUP2 PUSH1 0x0 ADD SWAP1 DUP1 MLOAD SWAP1 PUSH1 0x20 ADD SWAP1 PUSH2 0x299 SWAP3 SWAP2 SWAP1 PUSH2 0x698 JUMP JUMPDEST POP PUSH1 0x20 DUP3 ADD MLOAD DUP2 PUSH1 0x1 ADD PUSH1 0x0 PUSH2 0x100 EXP DUP2 SLOAD DUP2 PUSH20 0xFFFFFFFFFFFFFFFFFFFFFFFFFFFFFFFFFFFFFFFF MUL NOT AND SWAP1 DUP4 PUSH20 0xFFFFFFFFFFFFFFFFFFFFFFFFFFFFFFFFFFFFFFFF AND MUL OR SWAP1 SSTORE POP SWAP1 POP POP PUSH1 0x1 PUSH1 0x0 DUP2 SLOAD DUP1 SWAP3 SWAP2 SWAP1 PUSH2 0x2F7 SWAP1 PUSH2 0xC63 JUMP JUMPDEST SWAP2 SWAP1 POP SSTORE POP ADDRESS PUSH20 0xFFFFFFFFFFFFFFFFFFFFFFFFFFFFFFFFFFFFFFFF AND PUSH2 0x8FC CALLVALUE SWAP1 DUP2 ISZERO MUL SWAP1 PUSH1 0x40 MLOAD PUSH1 0x0 PUSH1 0x40 MLOAD DUP1 DUP4 SUB DUP2 DUP6 DUP9 DUP9 CALL SWAP4 POP POP POP POP ISZERO DUP1 ISZERO PUSH2 0x342 JUMPI RETURNDATASIZE PUSH1 0x0 DUP1 RETURNDATACOPY RETURNDATASIZE PUSH1 0x0 REVERT JUMPDEST POP PUSH32 0x9DFC9870A49C7B43C3AC5F2205775397BE1D30D784EA9EE34B41821548AF3B11 DUP2 CALLER CALLVALUE PUSH1 0x40 MLOAD PUSH2 0x376 SWAP4 SWAP3 SWAP2 SWAP1 PUSH2 0xA1B JUMP JUMPDEST PUSH1 0x40 MLOAD DUP1 SWAP2 SUB SWAP1 LOG1 POP JUMP JUMPDEST PUSH1 0x2 PUSH1 0x0 SWAP1 SLOAD SWAP1 PUSH2 0x100 EXP SWAP1 DIV PUSH20 0xFFFFFFFFFFFFFFFFFFFFFFFFFFFFFFFFFFFFFFFF AND PUSH20 0xFFFFFFFFFFFFFFFFFFFFFFFFFFFFFFFFFFFFFFFF AND CALLER PUSH20 0xFFFFFFFFFFFFFFFFFFFFFFFFFFFFFFFFFFFFFFFF AND EQ PUSH2 0x411 JUMPI PUSH1 0x40 MLOAD PUSH32 0x8C379A000000000000000000000000000000000000000000000000000000000 DUP2 MSTORE PUSH1 0x4 ADD PUSH2 0x408 SWAP1 PUSH2 0xA79 JUMP JUMPDEST PUSH1 0x40 MLOAD DUP1 SWAP2 SUB SWAP1 REVERT JUMPDEST PUSH1 0x2 PUSH1 0x0 SWAP1 SLOAD SWAP1 PUSH2 0x100 EXP SWAP1 DIV PUSH20 0xFFFFFFFFFFFFFFFFFFFFFFFFFFFFFFFFFFFFFFFF AND PUSH20 0xFFFFFFFFFFFFFFFFFFFFFFFFFFFFFFFFFFFFFFFF AND PUSH2 0x8FC SELFBALANCE SWAP1 DUP2 ISZERO MUL SWAP1 PUSH1 0x40 MLOAD PUSH1 0x0 PUSH1 0x40 MLOAD DUP1 DUP4 SUB DUP2 DUP6 DUP9 DUP9 CALL SWAP4 POP POP POP POP ISZERO DUP1 ISZERO PUSH2 0x479 JUMPI RETURNDATASIZE PUSH1 0x0 DUP1 RETURNDATACOPY RETURNDATASIZE PUSH1 0x0 REVERT JUMPDEST POP JUMP JUMPDEST PUSH1 0x0 SELFBALANCE SWAP1 POP SWAP1 JUMP JUMPDEST PUSH1 0x0 PUSH1 0x2 PUSH1 0x0 SWAP1 SLOAD SWAP1 PUSH2 0x100 EXP SWAP1 DIV PUSH20 0xFFFFFFFFFFFFFFFFFFFFFFFFFFFFFFFFFFFFFFFF AND PUSH20 0xFFFFFFFFFFFFFFFFFFFFFFFFFFFFFFFFFFFFFFFF AND BALANCE SWAP1 POP SWAP1 JUMP JUMPDEST PUSH1 0x60 PUSH1 0x0 PUSH1 0x1 SLOAD PUSH8 0xFFFFFFFFFFFFFFFF DUP2 GT ISZERO PUSH2 0x4E5 JUMPI PUSH2 0x4E4 PUSH2 0xD39 JUMP JUMPDEST JUMPDEST PUSH1 0x40 MLOAD SWAP1 DUP1 DUP3 MSTORE DUP1 PUSH1 0x20 MUL PUSH1 0x20 ADD DUP3 ADD PUSH1 0x40 MSTORE DUP1 ISZERO PUSH2 0x51E JUMPI DUP2 PUSH1 0x20 ADD JUMPDEST PUSH2 0x50B PUSH2 0x71E JUMP JUMPDEST DUP2 MSTORE PUSH1 0x20 ADD SWAP1 PUSH1 0x1 SWAP1 SUB SWAP1 DUP2 PUSH2 0x503 JUMPI SWAP1 POP JUMPDEST POP SWAP1 POP PUSH1 0x0 JUMPDEST PUSH1 0x1 SLOAD DUP2 LT ISZERO PUSH2 0x664 JUMPI PUSH1 0x0 DUP1 DUP3 DUP2 MSTORE PUSH1 0x20 ADD SWAP1 DUP2 MSTORE PUSH1 0x20 ADD PUSH1 0x0 KECCAK256 PUSH1 0x40 MLOAD DUP1 PUSH1 0x40 ADD PUSH1 0x40 MSTORE SWAP1 DUP2 PUSH1 0x0 DUP3 ADD DUP1 SLOAD PUSH2 0x55B SWAP1 PUSH2 0xC00 JUMP JUMPDEST DUP1 PUSH1 0x1F ADD PUSH1 0x20 DUP1 SWAP2 DIV MUL PUSH1 0x20 ADD PUSH1 0x40 MLOAD SWAP1 DUP2 ADD PUSH1 0x40 MSTORE DUP1 SWAP3 SWAP2 SWAP1 DUP2 DUP2 MSTORE PUSH1 0x20 ADD DUP3 DUP1 SLOAD PUSH2 0x587 SWAP1 PUSH2 0xC00 JUMP JUMPDEST DUP1 ISZERO PUSH2 0x5D4 JUMPI DUP1 PUSH1 0x1F LT PUSH2 0x5A9 JUMPI PUSH2 0x100 DUP1 DUP4 SLOAD DIV MUL DUP4 MSTORE SWAP2 PUSH1 0x20 ADD SWAP2 PUSH2 0x5D4 JUMP JUMPDEST DUP3 ADD SWAP2 SWAP1 PUSH1 0x0 MSTORE PUSH1 0x20 PUSH1 0x0 KECCAK256 SWAP1 JUMPDEST DUP2 SLOAD DUP2 MSTORE SWAP1 PUSH1 0x1 ADD SWAP1 PUSH1 0x20 ADD DUP1 DUP4 GT PUSH2 0x5B7 JUMPI DUP3 SWAP1 SUB PUSH1 0x1F AND DUP3 ADD SWAP2 JUMPDEST POP POP POP POP POP DUP2 MSTORE PUSH1 0x20 ADD PUSH1 0x1 DUP3 ADD PUSH1 0x0 SWAP1 SLOAD SWAP1 PUSH2 0x100 EXP SWAP1 DIV PUSH20 0xFFFFFFFFFFFFFFFFFFFFFFFFFFFFFFFFFFFFFFFF AND PUSH20 0xFFFFFFFFFFFFFFFFFFFFFFFFFFFFFFFFFFFFFFFF AND PUSH20 0xFFFFFFFFFFFFFFFFFFFFFFFFFFFFFFFFFFFFFFFF AND DUP2 MSTORE POP POP DUP3 DUP3 DUP2 MLOAD DUP2 LT PUSH2 0x646 JUMPI PUSH2 0x645 PUSH2 0xD0A JUMP JUMPDEST JUMPDEST PUSH1 0x20 MUL PUSH1 0x20 ADD ADD DUP2 SWAP1 MSTORE POP DUP1 DUP1 PUSH2 0x65C SWAP1 PUSH2 0xC63 JUMP JUMPDEST SWAP2 POP POP PUSH2 0x524 JUMP JUMPDEST POP DUP1 SWAP2 POP POP SWAP1 JUMP JUMPDEST PUSH1 0x2 PUSH1 0x0 SWAP1 SLOAD SWAP1 PUSH2 0x100 EXP SWAP1 DIV PUSH20 0xFFFFFFFFFFFFFFFFFFFFFFFFFFFFFFFFFFFFFFFF AND DUP2 JUMP JUMPDEST PUSH1 0x1 SLOAD DUP2 JUMP JUMPDEST DUP3 DUP1 SLOAD PUSH2 0x6A4 SWAP1 PUSH2 0xC00 JUMP JUMPDEST SWAP1 PUSH1 0x0 MSTORE PUSH1 0x20 PUSH1 0x0 KECCAK256 SWAP1 PUSH1 0x1F ADD PUSH1 0x20 SWAP1 DIV DUP2 ADD SWAP3 DUP3 PUSH2 0x6C6 JUMPI PUSH1 0x0 DUP6 SSTORE PUSH2 0x70D JUMP JUMPDEST DUP3 PUSH1 0x1F LT PUSH2 0x6DF JUMPI DUP1 MLOAD PUSH1 0xFF NOT AND DUP4 DUP1 ADD OR DUP6 SSTORE PUSH2 0x70D JUMP JUMPDEST DUP3 DUP1 ADD PUSH1 0x1 ADD DUP6 SSTORE DUP3 ISZERO PUSH2 0x70D JUMPI SWAP2 DUP3 ADD JUMPDEST DUP3 DUP2 GT ISZERO PUSH2 0x70C JUMPI DUP3 MLOAD DUP3 SSTORE SWAP2 PUSH1 0x20 ADD SWAP2 SWAP1 PUSH1 0x1 ADD SWAP1 PUSH2 0x6F1 JUMP JUMPDEST JUMPDEST POP SWAP1 POP PUSH2 0x71A SWAP2 SWAP1 PUSH2 0x74E JUMP JUMPDEST POP SWAP1 JUMP JUMPDEST PUSH1 0x40 MLOAD DUP1 PUSH1 0x40 ADD PUSH1 0x40 MSTORE DUP1 PUSH1 0x60 DUP2 MSTORE PUSH1 0x20 ADD PUSH1 0x0 PUSH20 0xFFFFFFFFFFFFFFFFFFFFFFFFFFFFFFFFFFFFFFFF AND DUP2 MSTORE POP SWAP1 JUMP JUMPDEST JUMPDEST DUP1 DUP3 GT ISZERO PUSH2 0x767 JUMPI PUSH1 0x0 DUP2 PUSH1 0x0 SWAP1 SSTORE POP PUSH1 0x1 ADD PUSH2 0x74F JUMP JUMPDEST POP SWAP1 JUMP JUMPDEST PUSH1 0x0 PUSH2 0x77E PUSH2 0x779 DUP5 PUSH2 0xAD9 JUMP JUMPDEST PUSH2 0xAB4 JUMP JUMPDEST SWAP1 POP DUP3 DUP2 MSTORE PUSH1 0x20 DUP2 ADD DUP5 DUP5 DUP5 ADD GT ISZERO PUSH2 0x79A JUMPI PUSH2 0x799 PUSH2 0xD6D JUMP JUMPDEST JUMPDEST PUSH2 0x7A5 DUP5 DUP3 DUP6 PUSH2 0xBBE JUMP JUMPDEST POP SWAP4 SWAP3 POP POP POP JUMP JUMPDEST PUSH1 0x0 DUP3 PUSH1 0x1F DUP4 ADD SLT PUSH2 0x7C2 JUMPI PUSH2 0x7C1 PUSH2 0xD68 JUMP JUMPDEST JUMPDEST DUP2 CALLDATALOAD PUSH2 0x7D2 DUP5 DUP3 PUSH1 0x20 DUP7 ADD PUSH2 0x76B JUMP JUMPDEST SWAP2 POP POP SWAP3 SWAP2 POP POP JUMP JUMPDEST PUSH1 0x0 PUSH1 0x20 DUP3 DUP5 SUB SLT ISZERO PUSH2 0x7F1 JUMPI PUSH2 0x7F0 PUSH2 0xD77 JUMP JUMPDEST JUMPDEST PUSH1 0x0 DUP3 ADD CALLDATALOAD PUSH8 0xFFFFFFFFFFFFFFFF DUP2 GT ISZERO PUSH2 0x80F JUMPI PUSH2 0x80E PUSH2 0xD72 JUMP JUMPDEST JUMPDEST PUSH2 0x81B DUP5 DUP3 DUP6 ADD PUSH2 0x7AD JUMP JUMPDEST SWAP2 POP POP SWAP3 SWAP2 POP POP JUMP JUMPDEST PUSH1 0x0 PUSH2 0x830 DUP4 DUP4 PUSH2 0x992 JUMP JUMPDEST SWAP1 POP SWAP3 SWAP2 POP POP JUMP JUMPDEST PUSH2 0x841 DUP2 PUSH2 0xB82 JUMP JUMPDEST DUP3 MSTORE POP POP JUMP JUMPDEST PUSH2 0x850 DUP2 PUSH2 0xB70 JUMP JUMPDEST DUP3 MSTORE POP POP JUMP JUMPDEST PUSH2 0x85F DUP2 PUSH2 0xB70 JUMP JUMPDEST DUP3 MSTORE POP POP JUMP JUMPDEST PUSH1 0x0 PUSH2 0x870 DUP3 PUSH2 0xB1A JUMP JUMPDEST PUSH2 0x87A DUP2 DUP6 PUSH2 0xB3D JUMP JUMPDEST SWAP4 POP DUP4 PUSH1 0x20 DUP3 MUL DUP6 ADD PUSH2 0x88C DUP6 PUSH2 0xB0A JUMP JUMPDEST DUP1 PUSH1 0x0 JUMPDEST DUP6 DUP2 LT ISZERO PUSH2 0x8C8 JUMPI DUP5 DUP5 SUB DUP10 MSTORE DUP2 MLOAD PUSH2 0x8A9 DUP6 DUP3 PUSH2 0x824 JUMP JUMPDEST SWAP5 POP PUSH2 0x8B4 DUP4 PUSH2 0xB30 JUMP JUMPDEST SWAP3 POP PUSH1 0x20 DUP11 ADD SWAP10 POP POP PUSH1 0x1 DUP2 ADD SWAP1 POP PUSH2 0x890 JUMP JUMPDEST POP DUP3 SWAP8 POP DUP8 SWAP6 POP POP POP POP POP POP SWAP3 SWAP2 POP POP JUMP JUMPDEST PUSH1 0x0 PUSH2 0x8E5 DUP3 PUSH2 0xB25 JUMP JUMPDEST PUSH2 0x8EF DUP2 DUP6 PUSH2 0xB4E JUMP JUMPDEST SWAP4 POP PUSH2 0x8FF DUP2 DUP6 PUSH1 0x20 DUP7 ADD PUSH2 0xBCD JUMP JUMPDEST PUSH2 0x908 DUP2 PUSH2 0xD7C JUMP JUMPDEST DUP5 ADD SWAP2 POP POP SWAP3 SWAP2 POP POP JUMP JUMPDEST PUSH1 0x0 PUSH2 0x91E DUP3 PUSH2 0xB25 JUMP JUMPDEST PUSH2 0x928 DUP2 DUP6 PUSH2 0xB5F JUMP JUMPDEST SWAP4 POP PUSH2 0x938 DUP2 DUP6 PUSH1 0x20 DUP7 ADD PUSH2 0xBCD JUMP JUMPDEST PUSH2 0x941 DUP2 PUSH2 0xD7C JUMP JUMPDEST DUP5 ADD SWAP2 POP POP SWAP3 SWAP2 POP POP JUMP JUMPDEST PUSH1 0x0 PUSH2 0x959 PUSH1 0x26 DUP4 PUSH2 0xB5F JUMP JUMPDEST SWAP2 POP PUSH2 0x964 DUP3 PUSH2 0xD8D JUMP JUMPDEST PUSH1 0x40 DUP3 ADD SWAP1 POP SWAP2 SWAP1 POP JUMP JUMPDEST PUSH1 0x0 PUSH2 0x97C PUSH1 0x15 DUP4 PUSH2 0xB5F JUMP JUMPDEST SWAP2 POP PUSH2 0x987 DUP3 PUSH2 0xDDC JUMP JUMPDEST PUSH1 0x20 DUP3 ADD SWAP1 POP SWAP2 SWAP1 POP JUMP JUMPDEST PUSH1 0x0 PUSH1 0x40 DUP4 ADD PUSH1 0x0 DUP4 ADD MLOAD DUP5 DUP3 SUB PUSH1 0x0 DUP7 ADD MSTORE PUSH2 0x9AF DUP3 DUP3 PUSH2 0x8DA JUMP JUMPDEST SWAP2 POP POP PUSH1 0x20 DUP4 ADD MLOAD PUSH2 0x9C4 PUSH1 0x20 DUP7 ADD DUP3 PUSH2 0x847 JUMP JUMPDEST POP DUP1 SWAP2 POP POP SWAP3 SWAP2 POP POP JUMP JUMPDEST PUSH2 0x9D8 DUP2 PUSH2 0xBB4 JUMP JUMPDEST DUP3 MSTORE POP POP JUMP JUMPDEST PUSH1 0x0 PUSH1 0x20 DUP3 ADD SWAP1 POP PUSH2 0x9F3 PUSH1 0x0 DUP4 ADD DUP5 PUSH2 0x838 JUMP JUMPDEST SWAP3 SWAP2 POP POP JUMP JUMPDEST PUSH1 0x0 PUSH1 0x20 DUP3 ADD SWAP1 POP DUP2 DUP2 SUB PUSH1 0x0 DUP4 ADD MSTORE PUSH2 0xA13 DUP2 DUP5 PUSH2 0x865 JUMP JUMPDEST SWAP1 POP SWAP3 SWAP2 POP POP JUMP JUMPDEST PUSH1 0x0 PUSH1 0x60 DUP3 ADD SWAP1 POP DUP2 DUP2 SUB PUSH1 0x0 DUP4 ADD MSTORE PUSH2 0xA35 DUP2 DUP7 PUSH2 0x913 JUMP JUMPDEST SWAP1 POP PUSH2 0xA44 PUSH1 0x20 DUP4 ADD DUP6 PUSH2 0x856 JUMP JUMPDEST PUSH2 0xA51 PUSH1 0x40 DUP4 ADD DUP5 PUSH2 0x9CF JUMP JUMPDEST SWAP5 SWAP4 POP POP POP POP JUMP JUMPDEST PUSH1 0x0 PUSH1 0x20 DUP3 ADD SWAP1 POP DUP2 DUP2 SUB PUSH1 0x0 DUP4 ADD MSTORE PUSH2 0xA72 DUP2 PUSH2 0x94C JUMP JUMPDEST SWAP1 POP SWAP2 SWAP1 POP JUMP JUMPDEST PUSH1 0x0 PUSH1 0x20 DUP3 ADD SWAP1 POP DUP2 DUP2 SUB PUSH1 0x0 DUP4 ADD MSTORE PUSH2 0xA92 DUP2 PUSH2 0x96F JUMP JUMPDEST SWAP1 POP SWAP2 SWAP1 POP JUMP JUMPDEST PUSH1 0x0 PUSH1 0x20 DUP3 ADD SWAP1 POP PUSH2 0xAAE PUSH1 0x0 DUP4 ADD DUP5 PUSH2 0x9CF JUMP JUMPDEST SWAP3 SWAP2 POP POP JUMP JUMPDEST PUSH1 0x0 PUSH2 0xABE PUSH2 0xACF JUMP JUMPDEST SWAP1 POP PUSH2 0xACA DUP3 DUP3 PUSH2 0xC32 JUMP JUMPDEST SWAP2 SWAP1 POP JUMP JUMPDEST PUSH1 0x0 PUSH1 0x40 MLOAD SWAP1 POP SWAP1 JUMP JUMPDEST PUSH1 0x0 PUSH8 0xFFFFFFFFFFFFFFFF DUP3 GT ISZERO PUSH2 0xAF4 JUMPI PUSH2 0xAF3 PUSH2 0xD39 JUMP JUMPDEST JUMPDEST PUSH2 0xAFD DUP3 PUSH2 0xD7C JUMP JUMPDEST SWAP1 POP PUSH1 0x20 DUP2 ADD SWAP1 POP SWAP2 SWAP1 POP JUMP JUMPDEST PUSH1 0x0 DUP2 SWAP1 POP PUSH1 0x20 DUP3 ADD SWAP1 POP SWAP2 SWAP1 POP JUMP JUMPDEST PUSH1 0x0 DUP2 MLOAD SWAP1 POP SWAP2 SWAP1 POP JUMP JUMPDEST PUSH1 0x0 DUP2 MLOAD SWAP1 POP SWAP2 SWAP1 POP JUMP JUMPDEST PUSH1 0x0 PUSH1 0x20 DUP3 ADD SWAP1 POP SWAP2 SWAP1 POP JUMP JUMPDEST PUSH1 0x0 DUP3 DUP3 MSTORE PUSH1 0x20 DUP3 ADD SWAP1 POP SWAP3 SWAP2 POP POP JUMP JUMPDEST PUSH1 0x0 DUP3 DUP3 MSTORE PUSH1 0x20 DUP3 ADD SWAP1 POP SWAP3 SWAP2 POP POP JUMP JUMPDEST PUSH1 0x0 DUP3 DUP3 MSTORE PUSH1 0x20 DUP3 ADD SWAP1 POP SWAP3 SWAP2 POP POP JUMP JUMPDEST PUSH1 0x0 PUSH2 0xB7B DUP3 PUSH2 0xB94 JUMP JUMPDEST SWAP1 POP SWAP2 SWAP1 POP JUMP JUMPDEST PUSH1 0x0 PUSH2 0xB8D DUP3 PUSH2 0xB94 JUMP JUMPDEST SWAP1 POP SWAP2 SWAP1 POP JUMP JUMPDEST PUSH1 0x0 PUSH20 0xFFFFFFFFFFFFFFFFFFFFFFFFFFFFFFFFFFFFFFFF DUP3 AND SWAP1 POP SWAP2 SWAP1 POP JUMP JUMPDEST PUSH1 0x0 DUP2 SWAP1 POP SWAP2 SWAP1 POP JUMP JUMPDEST DUP3 DUP2 DUP4 CALLDATACOPY PUSH1 0x0 DUP4 DUP4 ADD MSTORE POP POP POP JUMP JUMPDEST PUSH1 0x0 JUMPDEST DUP4 DUP2 LT ISZERO PUSH2 0xBEB JUMPI DUP1 DUP3 ADD MLOAD DUP2 DUP5 ADD MSTORE PUSH1 0x20 DUP2 ADD SWAP1 POP PUSH2 0xBD0 JUMP JUMPDEST DUP4 DUP2 GT ISZERO PUSH2 0xBFA JUMPI PUSH1 0x0 DUP5 DUP5 ADD MSTORE JUMPDEST POP POP POP POP JUMP JUMPDEST PUSH1 0x0 PUSH1 0x2 DUP3 DIV SWAP1 POP PUSH1 0x1 DUP3 AND DUP1 PUSH2 0xC18 JUMPI PUSH1 0x7F DUP3 AND SWAP2 POP JUMPDEST PUSH1 0x20 DUP3 LT DUP2 EQ ISZERO PUSH2 0xC2C JUMPI PUSH2 0xC2B PUSH2 0xCDB JUMP JUMPDEST JUMPDEST POP SWAP2 SWAP1 POP JUMP JUMPDEST PUSH2 0xC3B DUP3 PUSH2 0xD7C JUMP JUMPDEST DUP2 ADD DUP2 DUP2 LT PUSH8 0xFFFFFFFFFFFFFFFF DUP3 GT OR ISZERO PUSH2 0xC5A JUMPI PUSH2 0xC59 PUSH2 0xD39 JUMP JUMPDEST JUMPDEST DUP1 PUSH1 0x40 MSTORE POP POP POP JUMP JUMPDEST PUSH1 0x0 PUSH2 0xC6E DUP3 PUSH2 0xBB4 JUMP JUMPDEST SWAP2 POP PUSH32 0xFFFFFFFFFFFFFFFFFFFFFFFFFFFFFFFFFFFFFFFFFFFFFFFFFFFFFFFFFFFFFFFF DUP3 EQ ISZERO PUSH2 0xCA1 JUMPI PUSH2 0xCA0 PUSH2 0xCAC JUMP JUMPDEST JUMPDEST PUSH1 0x1 DUP3 ADD SWAP1 POP SWAP2 SWAP1 POP JUMP JUMPDEST PUSH32 0x4E487B7100000000000000000000000000000000000000000000000000000000 PUSH1 0x0 MSTORE PUSH1 0x11 PUSH1 0x4 MSTORE PUSH1 0x24 PUSH1 0x0 REVERT JUMPDEST PUSH32 0x4E487B7100000000000000000000000000000000000000000000000000000000 PUSH1 0x0 MSTORE PUSH1 0x22 PUSH1 0x4 MSTORE PUSH1 0x24 PUSH1 0x0 REVERT JUMPDEST PUSH32 0x4E487B7100000000000000000000000000000000000000000000000000000000 PUSH1 0x0 MSTORE PUSH1 0x32 PUSH1 0x4 MSTORE PUSH1 0x24 PUSH1 0x0 REVERT JUMPDEST PUSH32 0x4E487B7100000000000000000000000000000000000000000000000000000000 PUSH1 0x0 MSTORE PUSH1 0x41 PUSH1 0x4 MSTORE PUSH1 0x24 PUSH1 0x0 REVERT JUMPDEST PUSH1 0x0 DUP1 REVERT JUMPDEST PUSH1 0x0 DUP1 REVERT JUMPDEST PUSH1 0x0 DUP1 REVERT JUMPDEST PUSH1 0x0 DUP1 REVERT JUMPDEST PUSH1 0x0 PUSH1 0x1F NOT PUSH1 0x1F DUP4 ADD AND SWAP1 POP SWAP2 SWAP1 POP JUMP JUMPDEST PUSH32 0x5061796D656E742073686F756C64206265207468652073756273637269707469 PUSH1 0x0 DUP3 ADD MSTORE PUSH32 0x6F6E206665650000000000000000000000000000000000000000000000000000 PUSH1 0x20 DUP3 ADD MSTORE POP JUMP JUMPDEST PUSH32 0x4F6E6C7920617574686F722063616E2063616C6C210000000000000000000000 PUSH1 0x0 DUP3 ADD MSTORE POP JUMP INVALID LOG2 PUSH5 0x6970667358 0x22 SLT KECCAK256 REVERT DUP11 EQ 0xC5 SELFDESTRUCT PUSH21 0xF2403D0D23AD01E12A45F193D8FACB904D18D5365F SHL SWAP2 SWAP16 0xB9 0x2B PUSH5 0x736F6C6343 STOP ADDMOD SMOD STOP CALLER "
				},
				"gasEstimates": {
					"creation": {
						"codeDepositCost": "728600",
						"executionCost": "infinite",
						"totalCost": "infinite"
					},
					"external": {
						"": "2612",
						"addSubscriber(string)": "infinite",
						"author()": "2558",
						"getAuthorBalance()": "5079",
						"getContractBalance()": "406",
						"printSubscribersList()": "infinite",
						"subscriberCount()": "2495",
						"subscriptionFee()": "2430",
						"withdrawAmount()": "infinite"
					}
				},
				"methodIdentifiers": {
					"addSubscriber(string)": "2edd4fa5",
					"author()": "a6c3e6b9",
					"getAuthorBalance()": "7f6b2809",
					"getContractBalance()": "6f9fb98a",
					"printSubscribersList()": "82d69b62",
					"subscriberCount()": "ef352bbe",
					"subscriptionFee()": "0aa0a175",
					"withdrawAmount()": "534844a2"
				}
			},
			"storageLayout": {
				"storage": [
					{
						"astId": 6,
						"contract": "contracts/myContract.sol:testContract",
						"label": "subscribers",
						"offset": 0,
						"slot": "0",
						"type": "t_mapping(t_uint256,t_struct(subscriber)14_storage)"
					},
					{
						"astId": 9,
						"contract": "contracts/myContract.sol:testContract",
						"label": "subscriberCount",
						"offset": 0,
						"slot": "1",
						"type": "t_uint256"
					},
					{
						"astId": 16,
						"contract": "contracts/myContract.sol:testContract",
						"label": "author",
						"offset": 0,
						"slot": "2",
						"type": "t_address_payable"
					},
					{
						"astId": 18,
						"contract": "contracts/myContract.sol:testContract",
						"label": "subscriptionFee",
						"offset": 0,
						"slot": "3",
						"type": "t_uint256"
					}
				],
				"types": {
					"t_address": {
						"encoding": "inplace",
						"label": "address",
						"numberOfBytes": "20"
					},
					"t_address_payable": {
						"encoding": "inplace",
						"label": "address payable",
						"numberOfBytes": "20"
					},
					"t_mapping(t_uint256,t_struct(subscriber)14_storage)": {
						"encoding": "mapping",
						"key": "t_uint256",
						"label": "mapping(uint256 => struct testContract.subscriber)",
						"numberOfBytes": "32",
						"value": "t_struct(subscriber)14_storage"
					},
					"t_string_storage": {
						"encoding": "bytes",
						"label": "string",
						"numberOfBytes": "32"
					},
					"t_struct(subscriber)14_storage": {
						"encoding": "inplace",
						"label": "struct testContract.subscriber",
						"members": [
							{
								"astId": 11,
								"contract": "contracts/myContract.sol:testContract",
								"label": "name",
								"offset": 0,
								"slot": "0",
								"type": "t_string_storage"
							},
							{
								"astId": 13,
								"contract": "contracts/myContract.sol:testContract",
								"label": "addr",
								"offset": 0,
								"slot": "1",
								"type": "t_address"
							}
						],
						"numberOfBytes": "64"
					},
					"t_uint256": {
						"encoding": "inplace",
						"label": "uint256",
						"numberOfBytes": "32"
					}
				}
			},
			"userdoc": {
				"kind": "user",
				"methods": {},
				"version": 1
			}
		}
	}
}