{
	"contracts/myContract.sol": {
		"testContract": {
			"abi": [
				{
					"inputs": [
						{
							"internalType": "uint256",
							"name": "fee",
							"type": "uint256"
						}
					],
					"stateMutability": "nonpayable",
					"type": "constructor"
				},
				{
					"anonymous": false,
					"inputs": [
						{
							"indexed": false,
							"internalType": "address",
							"name": "addr",
							"type": "address"
						},
						{
							"indexed": false,
							"internalType": "uint256",
							"name": "amount",
							"type": "uint256"
						}
					],
					"name": "Received",
					"type": "event"
				},
				{
					"anonymous": false,
					"inputs": [
						{
							"indexed": false,
							"internalType": "string",
							"name": "name",
							"type": "string"
						},
						{
							"indexed": false,
							"internalType": "address",
							"name": "addr",
							"type": "address"
						}
					],
					"name": "SubscriberPrint",
					"type": "event"
				},
				{
					"stateMutability": "payable",
					"type": "fallback"
				},
				{
					"inputs": [],
					"name": "author",
					"outputs": [
						{
							"internalType": "address",
							"name": "",
							"type": "address"
						}
					],
					"stateMutability": "view",
					"type": "function"
				},
				{
					"inputs": [],
					"name": "getContractBalance",
					"outputs": [
						{
							"internalType": "uint256",
							"name": "",
							"type": "uint256"
						}
					],
					"stateMutability": "view",
					"type": "function"
				},
				{
					"inputs": [],
					"name": "getSubscriberCount",
					"outputs": [
						{
							"internalType": "uint256",
							"name": "",
							"type": "uint256"
						}
					],
					"stateMutability": "view",
					"type": "function"
				},
				{
					"inputs": [],
					"name": "printSubscribersList",
					"outputs": [],
					"stateMutability": "nonpayable",
					"type": "function"
				},
				{
					"inputs": [],
					"name": "subscriberCount",
					"outputs": [
						{
							"internalType": "uint256",
							"name": "",
							"type": "uint256"
						}
					],
					"stateMutability": "view",
					"type": "function"
				},
				{
					"inputs": [
						{
							"internalType": "uint256",
							"name": "",
							"type": "uint256"
						}
					],
					"name": "subscribers",
					"outputs": [
						{
							"internalType": "string",
							"name": "name",
							"type": "string"
						},
						{
							"internalType": "address",
							"name": "addr",
							"type": "address"
						}
					],
					"stateMutability": "view",
					"type": "function"
				},
				{
					"inputs": [],
					"name": "subscriptionFee",
					"outputs": [
						{
							"internalType": "uint256",
							"name": "",
							"type": "uint256"
						}
					],
					"stateMutability": "view",
					"type": "function"
				}
			],
			"devdoc": {
				"kind": "dev",
				"methods": {},
				"version": 1
			},
			"evm": {
				"assembly": "    /* \"contracts/myContract.sol\":76:1499  contract testContract {\r... */\n  mstore(0x40, 0x80)\n    /* \"contracts/myContract.sol\":194:195  0 */\n  0x00\n    /* \"contracts/myContract.sol\":164:195  uint public subscriberCount = 0 */\n  0x01\n  sstore\n    /* \"contracts/myContract.sol\":452:550  constructor(uint fee){\r... */\n  callvalue\n  dup1\n  iszero\n  tag_1\n  jumpi\n  0x00\n  dup1\n  revert\ntag_1:\n  pop\n  mload(0x40)\n  sub(codesize, bytecodeSize)\n  dup1\n  bytecodeSize\n  dup4\n  codecopy\n  dup2\n  dup2\n  add\n  0x40\n  mstore\n  dup2\n  add\n  swap1\n  tag_2\n  swap2\n  swap1\n  tag_3\n  jump\t// in\ntag_2:\n    /* \"contracts/myContract.sol\":493:503  msg.sender */\n  caller\n    /* \"contracts/myContract.sol\":484:490  author */\n  0x02\n  0x00\n    /* \"contracts/myContract.sol\":484:503  author = msg.sender */\n  0x0100\n  exp\n  dup2\n  sload\n  dup2\n  0xffffffffffffffffffffffffffffffffffffffff\n  mul\n  not\n  and\n  swap1\n  dup4\n  0xffffffffffffffffffffffffffffffffffffffff\n  and\n  mul\n  or\n  swap1\n  sstore\n  pop\n    /* \"contracts/myContract.sol\":538:542  1e18 */\n  0x0de0b6b3a7640000\n    /* \"contracts/myContract.sol\":532:535  fee */\n  dup2\n    /* \"contracts/myContract.sol\":532:542  fee * 1e18 */\n  tag_6\n  swap2\n  swap1\n  tag_7\n  jump\t// in\ntag_6:\n    /* \"contracts/myContract.sol\":514:529  subscriptionFee */\n  0x03\n    /* \"contracts/myContract.sol\":514:542  subscriptionFee = fee * 1e18 */\n  dup2\n  swap1\n  sstore\n  pop\n    /* \"contracts/myContract.sol\":452:550  constructor(uint fee){\r... */\n  pop\n    /* \"contracts/myContract.sol\":76:1499  contract testContract {\r... */\n  jump(tag_8)\n    /* \"#utility.yul\":7:150   */\ntag_10:\n    /* \"#utility.yul\":64:69   */\n  0x00\n    /* \"#utility.yul\":95:101   */\n  dup2\n    /* \"#utility.yul\":89:102   */\n  mload\n    /* \"#utility.yul\":80:102   */\n  swap1\n  pop\n    /* \"#utility.yul\":111:144   */\n  tag_12\n    /* \"#utility.yul\":138:143   */\n  dup2\n    /* \"#utility.yul\":111:144   */\n  tag_13\n  jump\t// in\ntag_12:\n    /* \"#utility.yul\":7:150   */\n  swap3\n  swap2\n  pop\n  pop\n  jump\t// out\n    /* \"#utility.yul\":156:507   */\ntag_3:\n    /* \"#utility.yul\":226:232   */\n  0x00\n    /* \"#utility.yul\":275:277   */\n  0x20\n    /* \"#utility.yul\":263:272   */\n  dup3\n    /* \"#utility.yul\":254:261   */\n  dup5\n    /* \"#utility.yul\":250:273   */\n  sub\n    /* \"#utility.yul\":246:278   */\n  slt\n    /* \"#utility.yul\":243:362   */\n  iszero\n  tag_15\n  jumpi\n    /* \"#utility.yul\":281:360   */\n  tag_16\n  tag_17\n  jump\t// in\ntag_16:\n    /* \"#utility.yul\":243:362   */\ntag_15:\n    /* \"#utility.yul\":401:402   */\n  0x00\n    /* \"#utility.yul\":426:490   */\n  tag_18\n    /* \"#utility.yul\":482:489   */\n  dup5\n    /* \"#utility.yul\":473:479   */\n  dup3\n    /* \"#utility.yul\":462:471   */\n  dup6\n    /* \"#utility.yul\":458:480   */\n  add\n    /* \"#utility.yul\":426:490   */\n  tag_10\n  jump\t// in\ntag_18:\n    /* \"#utility.yul\":416:490   */\n  swap2\n  pop\n    /* \"#utility.yul\":372:500   */\n  pop\n    /* \"#utility.yul\":156:507   */\n  swap3\n  swap2\n  pop\n  pop\n  jump\t// out\n    /* \"#utility.yul\":594:942   */\ntag_7:\n    /* \"#utility.yul\":634:641   */\n  0x00\n    /* \"#utility.yul\":657:677   */\n  tag_22\n    /* \"#utility.yul\":675:676   */\n  dup3\n    /* \"#utility.yul\":657:677   */\n  tag_23\n  jump\t// in\ntag_22:\n    /* \"#utility.yul\":652:677   */\n  swap2\n  pop\n    /* \"#utility.yul\":691:711   */\n  tag_24\n    /* \"#utility.yul\":709:710   */\n  dup4\n    /* \"#utility.yul\":691:711   */\n  tag_23\n  jump\t// in\ntag_24:\n    /* \"#utility.yul\":686:711   */\n  swap3\n  pop\n    /* \"#utility.yul\":879:880   */\n  dup2\n    /* \"#utility.yul\":811:877   */\n  0xffffffffffffffffffffffffffffffffffffffffffffffffffffffffffffffff\n    /* \"#utility.yul\":807:881   */\n  div\n    /* \"#utility.yul\":804:805   */\n  dup4\n    /* \"#utility.yul\":801:882   */\n  gt\n    /* \"#utility.yul\":796:797   */\n  dup3\n    /* \"#utility.yul\":789:798   */\n  iszero\n    /* \"#utility.yul\":782:799   */\n  iszero\n    /* \"#utility.yul\":778:883   */\n  and\n    /* \"#utility.yul\":775:906   */\n  iszero\n  tag_25\n  jumpi\n    /* \"#utility.yul\":886:904   */\n  tag_26\n  tag_27\n  jump\t// in\ntag_26:\n    /* \"#utility.yul\":775:906   */\ntag_25:\n    /* \"#utility.yul\":934:935   */\n  dup3\n    /* \"#utility.yul\":931:932   */\n  dup3\n    /* \"#utility.yul\":927:936   */\n  mul\n    /* \"#utility.yul\":916:936   */\n  swap1\n  pop\n    /* \"#utility.yul\":594:942   */\n  swap3\n  swap2\n  pop\n  pop\n  jump\t// out\n    /* \"#utility.yul\":948:1025   */\ntag_23:\n    /* \"#utility.yul\":985:992   */\n  0x00\n    /* \"#utility.yul\":1014:1019   */\n  dup2\n    /* \"#utility.yul\":1003:1019   */\n  swap1\n  pop\n    /* \"#utility.yul\":948:1025   */\n  swap2\n  swap1\n  pop\n  jump\t// out\n    /* \"#utility.yul\":1031:1211   */\ntag_27:\n    /* \"#utility.yul\":1079:1156   */\n  0x4e487b7100000000000000000000000000000000000000000000000000000000\n    /* \"#utility.yul\":1076:1077   */\n  0x00\n    /* \"#utility.yul\":1069:1157   */\n  mstore\n    /* \"#utility.yul\":1176:1180   */\n  0x11\n    /* \"#utility.yul\":1173:1174   */\n  0x04\n    /* \"#utility.yul\":1166:1181   */\n  mstore\n    /* \"#utility.yul\":1200:1204   */\n  0x24\n    /* \"#utility.yul\":1197:1198   */\n  0x00\n    /* \"#utility.yul\":1190:1205   */\n  revert\n    /* \"#utility.yul\":1340:1457   */\ntag_17:\n    /* \"#utility.yul\":1449:1450   */\n  0x00\n    /* \"#utility.yul\":1446:1447   */\n  dup1\n    /* \"#utility.yul\":1439:1451   */\n  revert\n    /* \"#utility.yul\":1463:1585   */\ntag_13:\n    /* \"#utility.yul\":1536:1560   */\n  tag_34\n    /* \"#utility.yul\":1554:1559   */\n  dup2\n    /* \"#utility.yul\":1536:1560   */\n  tag_23\n  jump\t// in\ntag_34:\n    /* \"#utility.yul\":1529:1534   */\n  dup2\n    /* \"#utility.yul\":1526:1561   */\n  eq\n    /* \"#utility.yul\":1516:1579   */\n  tag_35\n  jumpi\n    /* \"#utility.yul\":1575:1576   */\n  0x00\n    /* \"#utility.yul\":1572:1573   */\n  dup1\n    /* \"#utility.yul\":1565:1577   */\n  revert\n    /* \"#utility.yul\":1516:1579   */\ntag_35:\n    /* \"#utility.yul\":1463:1585   */\n  pop\n  jump\t// out\n    /* \"contracts/myContract.sol\":76:1499  contract testContract {\r... */\ntag_8:\n  dataSize(sub_0)\n  dup1\n  dataOffset(sub_0)\n  0x00\n  codecopy\n  0x00\n  return\nstop\n\nsub_0: assembly {\n        /* \"contracts/myContract.sol\":76:1499  contract testContract {\r... */\n      mstore(0x40, 0x80)\n      jumpi(tag_1, lt(calldatasize, 0x04))\n      shr(0xe0, calldataload(0x00))\n      dup1\n      0x6f9fb98a\n      gt\n      tag_10\n      jumpi\n      dup1\n      0x6f9fb98a\n      eq\n      tag_6\n      jumpi\n      dup1\n      0x82d69b62\n      eq\n      tag_7\n      jumpi\n      dup1\n      0xa6c3e6b9\n      eq\n      tag_8\n      jumpi\n      dup1\n      0xef352bbe\n      eq\n      tag_9\n      jumpi\n      jump(tag_2)\n    tag_10:\n      dup1\n      0x0aa0a175\n      eq\n      tag_3\n      jumpi\n      dup1\n      0x17e703ab\n      eq\n      tag_4\n      jumpi\n      dup1\n      0x59221a68\n      eq\n      tag_5\n      jumpi\n      jump(tag_2)\n    tag_1:\n    tag_2:\n        /* \"contracts/myContract.sol\":730:745  subscriptionFee */\n      sload(0x03)\n        /* \"contracts/myContract.sol\":716:725  msg.value */\n      callvalue\n        /* \"contracts/myContract.sol\":716:745  msg.value ==  subscriptionFee */\n      eq\n        /* \"contracts/myContract.sol\":707:793  require( msg.value ==  subscriptionFee , \"Payment should be the subscription fee\"    ) */\n      tag_13\n      jumpi\n      mload(0x40)\n      0x08c379a000000000000000000000000000000000000000000000000000000000\n      dup2\n      mstore\n      0x04\n      add\n      tag_14\n      swap1\n      tag_15\n      jump\t// in\n    tag_14:\n      mload(0x40)\n      dup1\n      swap2\n      sub\n      swap1\n      revert\n    tag_13:\n        /* \"contracts/myContract.sol\":809:840  Received(msg.sender, msg.value) */\n      0x88a5966d370b9919b20f3e2c13ff65706f196a4e32cc2c12bf57088f88525874\n        /* \"contracts/myContract.sol\":818:828  msg.sender */\n      caller\n        /* \"contracts/myContract.sol\":830:839  msg.value */\n      callvalue\n        /* \"contracts/myContract.sol\":809:840  Received(msg.sender, msg.value) */\n      mload(0x40)\n      tag_16\n      swap3\n      swap2\n      swap1\n      tag_17\n      jump\t// in\n    tag_16:\n      mload(0x40)\n      dup1\n      swap2\n      sub\n      swap1\n      log1\n        /* \"contracts/myContract.sol\":76:1499  contract testContract {\r... */\n      stop\n        /* \"contracts/myContract.sol\":311:338  uint public subscriptionFee */\n    tag_3:\n      callvalue\n      dup1\n      iszero\n      tag_18\n      jumpi\n      0x00\n      dup1\n      revert\n    tag_18:\n      pop\n      tag_19\n      tag_20\n      jump\t// in\n    tag_19:\n      mload(0x40)\n      tag_21\n      swap2\n      swap1\n      tag_22\n      jump\t// in\n    tag_21:\n      mload(0x40)\n      dup1\n      swap2\n      sub\n      swap1\n      return\n        /* \"contracts/myContract.sol\":1081:1181  function getSubscriberCount() public view returns(uint256) {\r... */\n    tag_4:\n      callvalue\n      dup1\n      iszero\n      tag_23\n      jumpi\n      0x00\n      dup1\n      revert\n    tag_23:\n      pop\n      tag_24\n      tag_25\n      jump\t// in\n    tag_24:\n      mload(0x40)\n      tag_26\n      swap2\n      swap1\n      tag_22\n      jump\t// in\n    tag_26:\n      mload(0x40)\n      dup1\n      swap2\n      sub\n      swap1\n      return\n        /* \"contracts/myContract.sol\":111:157  mapping(uint => subscriber) public subscribers */\n    tag_5:\n      callvalue\n      dup1\n      iszero\n      tag_27\n      jumpi\n      0x00\n      dup1\n      revert\n    tag_27:\n      pop\n      tag_28\n      0x04\n      dup1\n      calldatasize\n      sub\n      dup2\n      add\n      swap1\n      tag_29\n      swap2\n      swap1\n      tag_30\n      jump\t// in\n    tag_29:\n      tag_31\n      jump\t// in\n    tag_28:\n      mload(0x40)\n      tag_32\n      swap3\n      swap2\n      swap1\n      tag_33\n      jump\t// in\n    tag_32:\n      mload(0x40)\n      dup1\n      swap2\n      sub\n      swap1\n      return\n        /* \"contracts/myContract.sol\":558:661  function getContractBalance() public view returns (uint){\r... */\n    tag_6:\n      callvalue\n      dup1\n      iszero\n      tag_34\n      jumpi\n      0x00\n      dup1\n      revert\n    tag_34:\n      pop\n      tag_35\n      tag_36\n      jump\t// in\n    tag_35:\n      mload(0x40)\n      tag_37\n      swap2\n      swap1\n      tag_22\n      jump\t// in\n    tag_37:\n      mload(0x40)\n      dup1\n      swap2\n      sub\n      swap1\n      return\n        /* \"contracts/myContract.sol\":1189:1494  function printSubscribersList() public {\r... */\n    tag_7:\n      callvalue\n      dup1\n      iszero\n      tag_38\n      jumpi\n      0x00\n      dup1\n      revert\n    tag_38:\n      pop\n      tag_39\n      tag_40\n      jump\t// in\n    tag_39:\n      stop\n        /* \"contracts/myContract.sol\":283:304  address public author */\n    tag_8:\n      callvalue\n      dup1\n      iszero\n      tag_41\n      jumpi\n      0x00\n      dup1\n      revert\n    tag_41:\n      pop\n      tag_42\n      tag_43\n      jump\t// in\n    tag_42:\n      mload(0x40)\n      tag_44\n      swap2\n      swap1\n      tag_45\n      jump\t// in\n    tag_44:\n      mload(0x40)\n      dup1\n      swap2\n      sub\n      swap1\n      return\n        /* \"contracts/myContract.sol\":164:195  uint public subscriberCount = 0 */\n    tag_9:\n      callvalue\n      dup1\n      iszero\n      tag_46\n      jumpi\n      0x00\n      dup1\n      revert\n    tag_46:\n      pop\n      tag_47\n      tag_48\n      jump\t// in\n    tag_47:\n      mload(0x40)\n      tag_49\n      swap2\n      swap1\n      tag_22\n      jump\t// in\n    tag_49:\n      mload(0x40)\n      dup1\n      swap2\n      sub\n      swap1\n      return\n        /* \"contracts/myContract.sol\":311:338  uint public subscriptionFee */\n    tag_20:\n      sload(0x03)\n      dup2\n      jump\t// out\n        /* \"contracts/myContract.sol\":1081:1181  function getSubscriberCount() public view returns(uint256) {\r... */\n    tag_25:\n        /* \"contracts/myContract.sol\":1131:1138  uint256 */\n      0x00\n        /* \"contracts/myContract.sol\":1158:1173  subscriberCount */\n      sload(0x01)\n        /* \"contracts/myContract.sol\":1151:1173  return subscriberCount */\n      swap1\n      pop\n        /* \"contracts/myContract.sol\":1081:1181  function getSubscriberCount() public view returns(uint256) {\r... */\n      swap1\n      jump\t// out\n        /* \"contracts/myContract.sol\":111:157  mapping(uint => subscriber) public subscribers */\n    tag_31:\n      mstore(0x20, 0x00)\n      dup1\n      0x00\n      mstore\n      keccak256(0x00, 0x40)\n      0x00\n      swap2\n      pop\n      swap1\n      pop\n      dup1\n      0x00\n      add\n      dup1\n      sload\n      tag_51\n      swap1\n      tag_52\n      jump\t// in\n    tag_51:\n      dup1\n      0x1f\n      add\n      0x20\n      dup1\n      swap2\n      div\n      mul\n      0x20\n      add\n      mload(0x40)\n      swap1\n      dup2\n      add\n      0x40\n      mstore\n      dup1\n      swap3\n      swap2\n      swap1\n      dup2\n      dup2\n      mstore\n      0x20\n      add\n      dup3\n      dup1\n      sload\n      tag_53\n      swap1\n      tag_52\n      jump\t// in\n    tag_53:\n      dup1\n      iszero\n      tag_54\n      jumpi\n      dup1\n      0x1f\n      lt\n      tag_55\n      jumpi\n      0x0100\n      dup1\n      dup4\n      sload\n      div\n      mul\n      dup4\n      mstore\n      swap2\n      0x20\n      add\n      swap2\n      jump(tag_54)\n    tag_55:\n      dup3\n      add\n      swap2\n      swap1\n      0x00\n      mstore\n      keccak256(0x00, 0x20)\n      swap1\n    tag_56:\n      dup2\n      sload\n      dup2\n      mstore\n      swap1\n      0x01\n      add\n      swap1\n      0x20\n      add\n      dup1\n      dup4\n      gt\n      tag_56\n      jumpi\n      dup3\n      swap1\n      sub\n      0x1f\n      and\n      dup3\n      add\n      swap2\n    tag_54:\n      pop\n      pop\n      pop\n      pop\n      pop\n      swap1\n      dup1\n      0x01\n      add\n      0x00\n      swap1\n      sload\n      swap1\n      0x0100\n      exp\n      swap1\n      div\n      0xffffffffffffffffffffffffffffffffffffffff\n      and\n      swap1\n      pop\n      dup3\n      jump\t// out\n        /* \"contracts/myContract.sol\":558:661  function getContractBalance() public view returns (uint){\r... */\n    tag_36:\n        /* \"contracts/myContract.sol\":609:613  uint */\n      0x00\n        /* \"contracts/myContract.sol\":632:653  address(this).balance */\n      selfbalance\n        /* \"contracts/myContract.sol\":625:653  return address(this).balance */\n      swap1\n      pop\n        /* \"contracts/myContract.sol\":558:661  function getContractBalance() public view returns (uint){\r... */\n      swap1\n      jump\t// out\n        /* \"contracts/myContract.sol\":1189:1494  function printSubscribersList() public {\r... */\n    tag_40:\n        /* \"contracts/myContract.sol\":1312:1333  subscriber memory ret */\n      tag_59\n      tag_60\n      jump\t// in\n    tag_59:\n        /* \"contracts/myContract.sol\":1348:1354  uint i */\n      0x00\n        /* \"contracts/myContract.sol\":1344:1487  for(uint i = 0; i < subscriberCount; i++){\r... */\n    tag_61:\n        /* \"contracts/myContract.sol\":1364:1379  subscriberCount */\n      sload(0x01)\n        /* \"contracts/myContract.sol\":1360:1361  i */\n      dup2\n        /* \"contracts/myContract.sol\":1360:1379  i < subscriberCount */\n      lt\n        /* \"contracts/myContract.sol\":1344:1487  for(uint i = 0; i < subscriberCount; i++){\r... */\n      iszero\n      tag_62\n      jumpi\n        /* \"contracts/myContract.sol\":1406:1417  subscribers */\n      0x00\n        /* \"contracts/myContract.sol\":1406:1420  subscribers[i] */\n      dup1\n        /* \"contracts/myContract.sol\":1418:1419  i */\n      dup3\n        /* \"contracts/myContract.sol\":1406:1420  subscribers[i] */\n      dup2\n      mstore\n      0x20\n      add\n      swap1\n      dup2\n      mstore\n      0x20\n      add\n      0x00\n      keccak256\n        /* \"contracts/myContract.sol\":1400:1420  ret = subscribers[i] */\n      mload(0x40)\n      dup1\n      0x40\n      add\n      0x40\n      mstore\n      swap1\n      dup2\n      0x00\n      dup3\n      add\n      dup1\n      sload\n      tag_64\n      swap1\n      tag_52\n      jump\t// in\n    tag_64:\n      dup1\n      0x1f\n      add\n      0x20\n      dup1\n      swap2\n      div\n      mul\n      0x20\n      add\n      mload(0x40)\n      swap1\n      dup2\n      add\n      0x40\n      mstore\n      dup1\n      swap3\n      swap2\n      swap1\n      dup2\n      dup2\n      mstore\n      0x20\n      add\n      dup3\n      dup1\n      sload\n      tag_65\n      swap1\n      tag_52\n      jump\t// in\n    tag_65:\n      dup1\n      iszero\n      tag_66\n      jumpi\n      dup1\n      0x1f\n      lt\n      tag_67\n      jumpi\n      0x0100\n      dup1\n      dup4\n      sload\n      div\n      mul\n      dup4\n      mstore\n      swap2\n      0x20\n      add\n      swap2\n      jump(tag_66)\n    tag_67:\n      dup3\n      add\n      swap2\n      swap1\n      0x00\n      mstore\n      keccak256(0x00, 0x20)\n      swap1\n    tag_68:\n      dup2\n      sload\n      dup2\n      mstore\n      swap1\n      0x01\n      add\n      swap1\n      0x20\n      add\n      dup1\n      dup4\n      gt\n      tag_68\n      jumpi\n      dup3\n      swap1\n      sub\n      0x1f\n      and\n      dup3\n      add\n      swap2\n    tag_66:\n      pop\n      pop\n      pop\n      pop\n      pop\n      dup2\n      mstore\n      0x20\n      add\n      0x01\n      dup3\n      add\n      0x00\n      swap1\n      sload\n      swap1\n      0x0100\n      exp\n      swap1\n      div\n      0xffffffffffffffffffffffffffffffffffffffff\n      and\n      0xffffffffffffffffffffffffffffffffffffffff\n      and\n      0xffffffffffffffffffffffffffffffffffffffff\n      and\n      dup2\n      mstore\n      pop\n      pop\n      swap2\n      pop\n        /* \"contracts/myContract.sol\":1440:1475  SubscriberPrint(ret.name, ret.addr) */\n      0x509008841c10ccf2d4360b0b681479c830f619aac14e8fac7ac253216fdae8f9\n        /* \"contracts/myContract.sol\":1456:1459  ret */\n      dup3\n        /* \"contracts/myContract.sol\":1456:1464  ret.name */\n      0x00\n      add\n      mload\n        /* \"contracts/myContract.sol\":1466:1469  ret */\n      dup4\n        /* \"contracts/myContract.sol\":1466:1474  ret.addr */\n      0x20\n      add\n      mload\n        /* \"contracts/myContract.sol\":1440:1475  SubscriberPrint(ret.name, ret.addr) */\n      mload(0x40)\n      tag_69\n      swap3\n      swap2\n      swap1\n      tag_33\n      jump\t// in\n    tag_69:\n      mload(0x40)\n      dup1\n      swap2\n      sub\n      swap1\n      log1\n        /* \"contracts/myContract.sol\":1381:1384  i++ */\n      dup1\n      dup1\n      tag_70\n      swap1\n      tag_71\n      jump\t// in\n    tag_70:\n      swap2\n      pop\n      pop\n        /* \"contracts/myContract.sol\":1344:1487  for(uint i = 0; i < subscriberCount; i++){\r... */\n      jump(tag_61)\n    tag_62:\n      pop\n        /* \"contracts/myContract.sol\":1228:1494  {\r... */\n      pop\n        /* \"contracts/myContract.sol\":1189:1494  function printSubscribersList() public {\r... */\n      jump\t// out\n        /* \"contracts/myContract.sol\":283:304  address public author */\n    tag_43:\n      0x02\n      0x00\n      swap1\n      sload\n      swap1\n      0x0100\n      exp\n      swap1\n      div\n      0xffffffffffffffffffffffffffffffffffffffff\n      and\n      dup2\n      jump\t// out\n        /* \"contracts/myContract.sol\":164:195  uint public subscriberCount = 0 */\n    tag_48:\n      sload(0x01)\n      dup2\n      jump\t// out\n    tag_60:\n      mload(0x40)\n      dup1\n      0x40\n      add\n      0x40\n      mstore\n      dup1\n      0x60\n      dup2\n      mstore\n      0x20\n      add\n      and(0xffffffffffffffffffffffffffffffffffffffff, 0x00)\n      dup2\n      mstore\n      pop\n      swap1\n      jump\t// out\n        /* \"#utility.yul\":7:146   */\n    tag_73:\n        /* \"#utility.yul\":53:58   */\n      0x00\n        /* \"#utility.yul\":91:97   */\n      dup2\n        /* \"#utility.yul\":78:98   */\n      calldataload\n        /* \"#utility.yul\":69:98   */\n      swap1\n      pop\n        /* \"#utility.yul\":107:140   */\n      tag_75\n        /* \"#utility.yul\":134:139   */\n      dup2\n        /* \"#utility.yul\":107:140   */\n      tag_76\n      jump\t// in\n    tag_75:\n        /* \"#utility.yul\":7:146   */\n      swap3\n      swap2\n      pop\n      pop\n      jump\t// out\n        /* \"#utility.yul\":152:481   */\n    tag_30:\n        /* \"#utility.yul\":211:217   */\n      0x00\n        /* \"#utility.yul\":260:262   */\n      0x20\n        /* \"#utility.yul\":248:257   */\n      dup3\n        /* \"#utility.yul\":239:246   */\n      dup5\n        /* \"#utility.yul\":235:258   */\n      sub\n        /* \"#utility.yul\":231:263   */\n      slt\n        /* \"#utility.yul\":228:347   */\n      iszero\n      tag_78\n      jumpi\n        /* \"#utility.yul\":266:345   */\n      tag_79\n      tag_80\n      jump\t// in\n    tag_79:\n        /* \"#utility.yul\":228:347   */\n    tag_78:\n        /* \"#utility.yul\":386:387   */\n      0x00\n        /* \"#utility.yul\":411:464   */\n      tag_81\n        /* \"#utility.yul\":456:463   */\n      dup5\n        /* \"#utility.yul\":447:453   */\n      dup3\n        /* \"#utility.yul\":436:445   */\n      dup6\n        /* \"#utility.yul\":432:454   */\n      add\n        /* \"#utility.yul\":411:464   */\n      tag_73\n      jump\t// in\n    tag_81:\n        /* \"#utility.yul\":401:464   */\n      swap2\n      pop\n        /* \"#utility.yul\":357:474   */\n      pop\n        /* \"#utility.yul\":152:481   */\n      swap3\n      swap2\n      pop\n      pop\n      jump\t// out\n        /* \"#utility.yul\":487:605   */\n    tag_82:\n        /* \"#utility.yul\":574:598   */\n      tag_84\n        /* \"#utility.yul\":592:597   */\n      dup2\n        /* \"#utility.yul\":574:598   */\n      tag_85\n      jump\t// in\n    tag_84:\n        /* \"#utility.yul\":569:572   */\n      dup3\n        /* \"#utility.yul\":562:599   */\n      mstore\n        /* \"#utility.yul\":487:605   */\n      pop\n      pop\n      jump\t// out\n        /* \"#utility.yul\":611:975   */\n    tag_86:\n        /* \"#utility.yul\":699:702   */\n      0x00\n        /* \"#utility.yul\":727:766   */\n      tag_88\n        /* \"#utility.yul\":760:765   */\n      dup3\n        /* \"#utility.yul\":727:766   */\n      tag_89\n      jump\t// in\n    tag_88:\n        /* \"#utility.yul\":782:853   */\n      tag_90\n        /* \"#utility.yul\":846:852   */\n      dup2\n        /* \"#utility.yul\":841:844   */\n      dup6\n        /* \"#utility.yul\":782:853   */\n      tag_91\n      jump\t// in\n    tag_90:\n        /* \"#utility.yul\":775:853   */\n      swap4\n      pop\n        /* \"#utility.yul\":862:914   */\n      tag_92\n        /* \"#utility.yul\":907:913   */\n      dup2\n        /* \"#utility.yul\":902:905   */\n      dup6\n        /* \"#utility.yul\":895:899   */\n      0x20\n        /* \"#utility.yul\":888:893   */\n      dup7\n        /* \"#utility.yul\":884:900   */\n      add\n        /* \"#utility.yul\":862:914   */\n      tag_93\n      jump\t// in\n    tag_92:\n        /* \"#utility.yul\":939:968   */\n      tag_94\n        /* \"#utility.yul\":961:967   */\n      dup2\n        /* \"#utility.yul\":939:968   */\n      tag_95\n      jump\t// in\n    tag_94:\n        /* \"#utility.yul\":934:937   */\n      dup5\n        /* \"#utility.yul\":930:969   */\n      add\n        /* \"#utility.yul\":923:969   */\n      swap2\n      pop\n        /* \"#utility.yul\":703:975   */\n      pop\n        /* \"#utility.yul\":611:975   */\n      swap3\n      swap2\n      pop\n      pop\n      jump\t// out\n        /* \"#utility.yul\":981:1347   */\n    tag_96:\n        /* \"#utility.yul\":1123:1126   */\n      0x00\n        /* \"#utility.yul\":1144:1211   */\n      tag_98\n        /* \"#utility.yul\":1208:1210   */\n      0x26\n        /* \"#utility.yul\":1203:1206   */\n      dup4\n        /* \"#utility.yul\":1144:1211   */\n      tag_91\n      jump\t// in\n    tag_98:\n        /* \"#utility.yul\":1137:1211   */\n      swap2\n      pop\n        /* \"#utility.yul\":1220:1313   */\n      tag_99\n        /* \"#utility.yul\":1309:1312   */\n      dup3\n        /* \"#utility.yul\":1220:1313   */\n      tag_100\n      jump\t// in\n    tag_99:\n        /* \"#utility.yul\":1338:1340   */\n      0x40\n        /* \"#utility.yul\":1333:1336   */\n      dup3\n        /* \"#utility.yul\":1329:1341   */\n      add\n        /* \"#utility.yul\":1322:1341   */\n      swap1\n      pop\n        /* \"#utility.yul\":981:1347   */\n      swap2\n      swap1\n      pop\n      jump\t// out\n        /* \"#utility.yul\":1353:1471   */\n    tag_101:\n        /* \"#utility.yul\":1440:1464   */\n      tag_103\n        /* \"#utility.yul\":1458:1463   */\n      dup2\n        /* \"#utility.yul\":1440:1464   */\n      tag_104\n      jump\t// in\n    tag_103:\n        /* \"#utility.yul\":1435:1438   */\n      dup3\n        /* \"#utility.yul\":1428:1465   */\n      mstore\n        /* \"#utility.yul\":1353:1471   */\n      pop\n      pop\n      jump\t// out\n        /* \"#utility.yul\":1477:1699   */\n    tag_45:\n        /* \"#utility.yul\":1570:1574   */\n      0x00\n        /* \"#utility.yul\":1608:1610   */\n      0x20\n        /* \"#utility.yul\":1597:1606   */\n      dup3\n        /* \"#utility.yul\":1593:1611   */\n      add\n        /* \"#utility.yul\":1585:1611   */\n      swap1\n      pop\n        /* \"#utility.yul\":1621:1692   */\n      tag_106\n        /* \"#utility.yul\":1689:1690   */\n      0x00\n        /* \"#utility.yul\":1678:1687   */\n      dup4\n        /* \"#utility.yul\":1674:1691   */\n      add\n        /* \"#utility.yul\":1665:1671   */\n      dup5\n        /* \"#utility.yul\":1621:1692   */\n      tag_82\n      jump\t// in\n    tag_106:\n        /* \"#utility.yul\":1477:1699   */\n      swap3\n      swap2\n      pop\n      pop\n      jump\t// out\n        /* \"#utility.yul\":1705:2037   */\n    tag_17:\n        /* \"#utility.yul\":1826:1830   */\n      0x00\n        /* \"#utility.yul\":1864:1866   */\n      0x40\n        /* \"#utility.yul\":1853:1862   */\n      dup3\n        /* \"#utility.yul\":1849:1867   */\n      add\n        /* \"#utility.yul\":1841:1867   */\n      swap1\n      pop\n        /* \"#utility.yul\":1877:1948   */\n      tag_108\n        /* \"#utility.yul\":1945:1946   */\n      0x00\n        /* \"#utility.yul\":1934:1943   */\n      dup4\n        /* \"#utility.yul\":1930:1947   */\n      add\n        /* \"#utility.yul\":1921:1927   */\n      dup6\n        /* \"#utility.yul\":1877:1948   */\n      tag_82\n      jump\t// in\n    tag_108:\n        /* \"#utility.yul\":1958:2030   */\n      tag_109\n        /* \"#utility.yul\":2026:2028   */\n      0x20\n        /* \"#utility.yul\":2015:2024   */\n      dup4\n        /* \"#utility.yul\":2011:2029   */\n      add\n        /* \"#utility.yul\":2002:2008   */\n      dup5\n        /* \"#utility.yul\":1958:2030   */\n      tag_101\n      jump\t// in\n    tag_109:\n        /* \"#utility.yul\":1705:2037   */\n      swap4\n      swap3\n      pop\n      pop\n      pop\n      jump\t// out\n        /* \"#utility.yul\":2043:2466   */\n    tag_33:\n        /* \"#utility.yul\":2184:2188   */\n      0x00\n        /* \"#utility.yul\":2222:2224   */\n      0x40\n        /* \"#utility.yul\":2211:2220   */\n      dup3\n        /* \"#utility.yul\":2207:2225   */\n      add\n        /* \"#utility.yul\":2199:2225   */\n      swap1\n      pop\n        /* \"#utility.yul\":2271:2280   */\n      dup2\n        /* \"#utility.yul\":2265:2269   */\n      dup2\n        /* \"#utility.yul\":2261:2281   */\n      sub\n        /* \"#utility.yul\":2257:2258   */\n      0x00\n        /* \"#utility.yul\":2246:2255   */\n      dup4\n        /* \"#utility.yul\":2242:2259   */\n      add\n        /* \"#utility.yul\":2235:2282   */\n      mstore\n        /* \"#utility.yul\":2299:2377   */\n      tag_111\n        /* \"#utility.yul\":2372:2376   */\n      dup2\n        /* \"#utility.yul\":2363:2369   */\n      dup6\n        /* \"#utility.yul\":2299:2377   */\n      tag_86\n      jump\t// in\n    tag_111:\n        /* \"#utility.yul\":2291:2377   */\n      swap1\n      pop\n        /* \"#utility.yul\":2387:2459   */\n      tag_112\n        /* \"#utility.yul\":2455:2457   */\n      0x20\n        /* \"#utility.yul\":2444:2453   */\n      dup4\n        /* \"#utility.yul\":2440:2458   */\n      add\n        /* \"#utility.yul\":2431:2437   */\n      dup5\n        /* \"#utility.yul\":2387:2459   */\n      tag_82\n      jump\t// in\n    tag_112:\n        /* \"#utility.yul\":2043:2466   */\n      swap4\n      swap3\n      pop\n      pop\n      pop\n      jump\t// out\n        /* \"#utility.yul\":2472:2891   */\n    tag_15:\n        /* \"#utility.yul\":2638:2642   */\n      0x00\n        /* \"#utility.yul\":2676:2678   */\n      0x20\n        /* \"#utility.yul\":2665:2674   */\n      dup3\n        /* \"#utility.yul\":2661:2679   */\n      add\n        /* \"#utility.yul\":2653:2679   */\n      swap1\n      pop\n        /* \"#utility.yul\":2725:2734   */\n      dup2\n        /* \"#utility.yul\":2719:2723   */\n      dup2\n        /* \"#utility.yul\":2715:2735   */\n      sub\n        /* \"#utility.yul\":2711:2712   */\n      0x00\n        /* \"#utility.yul\":2700:2709   */\n      dup4\n        /* \"#utility.yul\":2696:2713   */\n      add\n        /* \"#utility.yul\":2689:2736   */\n      mstore\n        /* \"#utility.yul\":2753:2884   */\n      tag_114\n        /* \"#utility.yul\":2879:2883   */\n      dup2\n        /* \"#utility.yul\":2753:2884   */\n      tag_96\n      jump\t// in\n    tag_114:\n        /* \"#utility.yul\":2745:2884   */\n      swap1\n      pop\n        /* \"#utility.yul\":2472:2891   */\n      swap2\n      swap1\n      pop\n      jump\t// out\n        /* \"#utility.yul\":2897:3119   */\n    tag_22:\n        /* \"#utility.yul\":2990:2994   */\n      0x00\n        /* \"#utility.yul\":3028:3030   */\n      0x20\n        /* \"#utility.yul\":3017:3026   */\n      dup3\n        /* \"#utility.yul\":3013:3031   */\n      add\n        /* \"#utility.yul\":3005:3031   */\n      swap1\n      pop\n        /* \"#utility.yul\":3041:3112   */\n      tag_116\n        /* \"#utility.yul\":3109:3110   */\n      0x00\n        /* \"#utility.yul\":3098:3107   */\n      dup4\n        /* \"#utility.yul\":3094:3111   */\n      add\n        /* \"#utility.yul\":3085:3091   */\n      dup5\n        /* \"#utility.yul\":3041:3112   */\n      tag_101\n      jump\t// in\n    tag_116:\n        /* \"#utility.yul\":2897:3119   */\n      swap3\n      swap2\n      pop\n      pop\n      jump\t// out\n        /* \"#utility.yul\":3206:3305   */\n    tag_89:\n        /* \"#utility.yul\":3258:3264   */\n      0x00\n        /* \"#utility.yul\":3292:3297   */\n      dup2\n        /* \"#utility.yul\":3286:3298   */\n      mload\n        /* \"#utility.yul\":3276:3298   */\n      swap1\n      pop\n        /* \"#utility.yul\":3206:3305   */\n      swap2\n      swap1\n      pop\n      jump\t// out\n        /* \"#utility.yul\":3311:3480   */\n    tag_91:\n        /* \"#utility.yul\":3395:3406   */\n      0x00\n        /* \"#utility.yul\":3429:3435   */\n      dup3\n        /* \"#utility.yul\":3424:3427   */\n      dup3\n        /* \"#utility.yul\":3417:3436   */\n      mstore\n        /* \"#utility.yul\":3469:3473   */\n      0x20\n        /* \"#utility.yul\":3464:3467   */\n      dup3\n        /* \"#utility.yul\":3460:3474   */\n      add\n        /* \"#utility.yul\":3445:3474   */\n      swap1\n      pop\n        /* \"#utility.yul\":3311:3480   */\n      swap3\n      swap2\n      pop\n      pop\n      jump\t// out\n        /* \"#utility.yul\":3486:3582   */\n    tag_85:\n        /* \"#utility.yul\":3523:3530   */\n      0x00\n        /* \"#utility.yul\":3552:3576   */\n      tag_122\n        /* \"#utility.yul\":3570:3575   */\n      dup3\n        /* \"#utility.yul\":3552:3576   */\n      tag_123\n      jump\t// in\n    tag_122:\n        /* \"#utility.yul\":3541:3576   */\n      swap1\n      pop\n        /* \"#utility.yul\":3486:3582   */\n      swap2\n      swap1\n      pop\n      jump\t// out\n        /* \"#utility.yul\":3588:3714   */\n    tag_123:\n        /* \"#utility.yul\":3625:3632   */\n      0x00\n        /* \"#utility.yul\":3665:3707   */\n      0xffffffffffffffffffffffffffffffffffffffff\n        /* \"#utility.yul\":3658:3663   */\n      dup3\n        /* \"#utility.yul\":3654:3708   */\n      and\n        /* \"#utility.yul\":3643:3708   */\n      swap1\n      pop\n        /* \"#utility.yul\":3588:3714   */\n      swap2\n      swap1\n      pop\n      jump\t// out\n        /* \"#utility.yul\":3720:3797   */\n    tag_104:\n        /* \"#utility.yul\":3757:3764   */\n      0x00\n        /* \"#utility.yul\":3786:3791   */\n      dup2\n        /* \"#utility.yul\":3775:3791   */\n      swap1\n      pop\n        /* \"#utility.yul\":3720:3797   */\n      swap2\n      swap1\n      pop\n      jump\t// out\n        /* \"#utility.yul\":3803:4110   */\n    tag_93:\n        /* \"#utility.yul\":3871:3872   */\n      0x00\n        /* \"#utility.yul\":3881:3994   */\n    tag_127:\n        /* \"#utility.yul\":3895:3901   */\n      dup4\n        /* \"#utility.yul\":3892:3893   */\n      dup2\n        /* \"#utility.yul\":3889:3902   */\n      lt\n        /* \"#utility.yul\":3881:3994   */\n      iszero\n      tag_129\n      jumpi\n        /* \"#utility.yul\":3980:3981   */\n      dup1\n        /* \"#utility.yul\":3975:3978   */\n      dup3\n        /* \"#utility.yul\":3971:3982   */\n      add\n        /* \"#utility.yul\":3965:3983   */\n      mload\n        /* \"#utility.yul\":3961:3962   */\n      dup2\n        /* \"#utility.yul\":3956:3959   */\n      dup5\n        /* \"#utility.yul\":3952:3963   */\n      add\n        /* \"#utility.yul\":3945:3984   */\n      mstore\n        /* \"#utility.yul\":3917:3919   */\n      0x20\n        /* \"#utility.yul\":3914:3915   */\n      dup2\n        /* \"#utility.yul\":3910:3920   */\n      add\n        /* \"#utility.yul\":3905:3920   */\n      swap1\n      pop\n        /* \"#utility.yul\":3881:3994   */\n      jump(tag_127)\n    tag_129:\n        /* \"#utility.yul\":4012:4018   */\n      dup4\n        /* \"#utility.yul\":4009:4010   */\n      dup2\n        /* \"#utility.yul\":4006:4019   */\n      gt\n        /* \"#utility.yul\":4003:4104   */\n      iszero\n      tag_130\n      jumpi\n        /* \"#utility.yul\":4092:4093   */\n      0x00\n        /* \"#utility.yul\":4083:4089   */\n      dup5\n        /* \"#utility.yul\":4078:4081   */\n      dup5\n        /* \"#utility.yul\":4074:4090   */\n      add\n        /* \"#utility.yul\":4067:4094   */\n      mstore\n        /* \"#utility.yul\":4003:4104   */\n    tag_130:\n        /* \"#utility.yul\":3852:4110   */\n      pop\n        /* \"#utility.yul\":3803:4110   */\n      pop\n      pop\n      pop\n      jump\t// out\n        /* \"#utility.yul\":4116:4436   */\n    tag_52:\n        /* \"#utility.yul\":4160:4166   */\n      0x00\n        /* \"#utility.yul\":4197:4198   */\n      0x02\n        /* \"#utility.yul\":4191:4195   */\n      dup3\n        /* \"#utility.yul\":4187:4199   */\n      div\n        /* \"#utility.yul\":4177:4199   */\n      swap1\n      pop\n        /* \"#utility.yul\":4244:4245   */\n      0x01\n        /* \"#utility.yul\":4238:4242   */\n      dup3\n        /* \"#utility.yul\":4234:4246   */\n      and\n        /* \"#utility.yul\":4265:4283   */\n      dup1\n        /* \"#utility.yul\":4255:4336   */\n      tag_132\n      jumpi\n        /* \"#utility.yul\":4321:4325   */\n      0x7f\n        /* \"#utility.yul\":4313:4319   */\n      dup3\n        /* \"#utility.yul\":4309:4326   */\n      and\n        /* \"#utility.yul\":4299:4326   */\n      swap2\n      pop\n        /* \"#utility.yul\":4255:4336   */\n    tag_132:\n        /* \"#utility.yul\":4383:4385   */\n      0x20\n        /* \"#utility.yul\":4375:4381   */\n      dup3\n        /* \"#utility.yul\":4372:4386   */\n      lt\n        /* \"#utility.yul\":4352:4370   */\n      dup2\n        /* \"#utility.yul\":4349:4387   */\n      eq\n        /* \"#utility.yul\":4346:4430   */\n      iszero\n      tag_133\n      jumpi\n        /* \"#utility.yul\":4402:4420   */\n      tag_134\n      tag_135\n      jump\t// in\n    tag_134:\n        /* \"#utility.yul\":4346:4430   */\n    tag_133:\n        /* \"#utility.yul\":4167:4436   */\n      pop\n        /* \"#utility.yul\":4116:4436   */\n      swap2\n      swap1\n      pop\n      jump\t// out\n        /* \"#utility.yul\":4442:4675   */\n    tag_71:\n        /* \"#utility.yul\":4481:4484   */\n      0x00\n        /* \"#utility.yul\":4504:4528   */\n      tag_137\n        /* \"#utility.yul\":4522:4527   */\n      dup3\n        /* \"#utility.yul\":4504:4528   */\n      tag_104\n      jump\t// in\n    tag_137:\n        /* \"#utility.yul\":4495:4528   */\n      swap2\n      pop\n        /* \"#utility.yul\":4550:4616   */\n      0xffffffffffffffffffffffffffffffffffffffffffffffffffffffffffffffff\n        /* \"#utility.yul\":4543:4548   */\n      dup3\n        /* \"#utility.yul\":4540:4617   */\n      eq\n        /* \"#utility.yul\":4537:4640   */\n      iszero\n      tag_138\n      jumpi\n        /* \"#utility.yul\":4620:4638   */\n      tag_139\n      tag_140\n      jump\t// in\n    tag_139:\n        /* \"#utility.yul\":4537:4640   */\n    tag_138:\n        /* \"#utility.yul\":4667:4668   */\n      0x01\n        /* \"#utility.yul\":4660:4665   */\n      dup3\n        /* \"#utility.yul\":4656:4669   */\n      add\n        /* \"#utility.yul\":4649:4669   */\n      swap1\n      pop\n        /* \"#utility.yul\":4442:4675   */\n      swap2\n      swap1\n      pop\n      jump\t// out\n        /* \"#utility.yul\":4681:4861   */\n    tag_140:\n        /* \"#utility.yul\":4729:4806   */\n      0x4e487b7100000000000000000000000000000000000000000000000000000000\n        /* \"#utility.yul\":4726:4727   */\n      0x00\n        /* \"#utility.yul\":4719:4807   */\n      mstore\n        /* \"#utility.yul\":4826:4830   */\n      0x11\n        /* \"#utility.yul\":4823:4824   */\n      0x04\n        /* \"#utility.yul\":4816:4831   */\n      mstore\n        /* \"#utility.yul\":4850:4854   */\n      0x24\n        /* \"#utility.yul\":4847:4848   */\n      0x00\n        /* \"#utility.yul\":4840:4855   */\n      revert\n        /* \"#utility.yul\":4867:5047   */\n    tag_135:\n        /* \"#utility.yul\":4915:4992   */\n      0x4e487b7100000000000000000000000000000000000000000000000000000000\n        /* \"#utility.yul\":4912:4913   */\n      0x00\n        /* \"#utility.yul\":4905:4993   */\n      mstore\n        /* \"#utility.yul\":5012:5016   */\n      0x22\n        /* \"#utility.yul\":5009:5010   */\n      0x04\n        /* \"#utility.yul\":5002:5017   */\n      mstore\n        /* \"#utility.yul\":5036:5040   */\n      0x24\n        /* \"#utility.yul\":5033:5034   */\n      0x00\n        /* \"#utility.yul\":5026:5041   */\n      revert\n        /* \"#utility.yul\":5176:5293   */\n    tag_80:\n        /* \"#utility.yul\":5285:5286   */\n      0x00\n        /* \"#utility.yul\":5282:5283   */\n      dup1\n        /* \"#utility.yul\":5275:5287   */\n      revert\n        /* \"#utility.yul\":5299:5401   */\n    tag_95:\n        /* \"#utility.yul\":5340:5346   */\n      0x00\n        /* \"#utility.yul\":5391:5393   */\n      0x1f\n        /* \"#utility.yul\":5387:5394   */\n      not\n        /* \"#utility.yul\":5382:5384   */\n      0x1f\n        /* \"#utility.yul\":5375:5380   */\n      dup4\n        /* \"#utility.yul\":5371:5385   */\n      add\n        /* \"#utility.yul\":5367:5395   */\n      and\n        /* \"#utility.yul\":5357:5395   */\n      swap1\n      pop\n        /* \"#utility.yul\":5299:5401   */\n      swap2\n      swap1\n      pop\n      jump\t// out\n        /* \"#utility.yul\":5407:5632   */\n    tag_100:\n        /* \"#utility.yul\":5547:5581   */\n      0x5061796d656e742073686f756c64206265207468652073756273637269707469\n        /* \"#utility.yul\":5543:5544   */\n      0x00\n        /* \"#utility.yul\":5535:5541   */\n      dup3\n        /* \"#utility.yul\":5531:5545   */\n      add\n        /* \"#utility.yul\":5524:5582   */\n      mstore\n        /* \"#utility.yul\":5616:5624   */\n      0x6f6e206665650000000000000000000000000000000000000000000000000000\n        /* \"#utility.yul\":5611:5613   */\n      0x20\n        /* \"#utility.yul\":5603:5609   */\n      dup3\n        /* \"#utility.yul\":5599:5614   */\n      add\n        /* \"#utility.yul\":5592:5625   */\n      mstore\n        /* \"#utility.yul\":5407:5632   */\n      pop\n      jump\t// out\n        /* \"#utility.yul\":5638:5760   */\n    tag_76:\n        /* \"#utility.yul\":5711:5735   */\n      tag_149\n        /* \"#utility.yul\":5729:5734   */\n      dup2\n        /* \"#utility.yul\":5711:5735   */\n      tag_104\n      jump\t// in\n    tag_149:\n        /* \"#utility.yul\":5704:5709   */\n      dup2\n        /* \"#utility.yul\":5701:5736   */\n      eq\n        /* \"#utility.yul\":5691:5754   */\n      tag_150\n      jumpi\n        /* \"#utility.yul\":5750:5751   */\n      0x00\n        /* \"#utility.yul\":5747:5748   */\n      dup1\n        /* \"#utility.yul\":5740:5752   */\n      revert\n        /* \"#utility.yul\":5691:5754   */\n    tag_150:\n        /* \"#utility.yul\":5638:5760   */\n      pop\n      jump\t// out\n\n    auxdata: 0xa2646970667358221220fed6f69a82a1c64b7bca5a4c1740773879d6508519e81e4f1f7b5705cabb878d64736f6c63430008070033\n}\n",
				"bytecode": {
					"linkReferences": {},
					"object": "6080604052600060015534801561001557600080fd5b506040516109ed3803806109ed833981810160405281019061003791906100ad565b33600260006101000a81548173ffffffffffffffffffffffffffffffffffffffff021916908373ffffffffffffffffffffffffffffffffffffffff160217905550670de0b6b3a76400008161008c91906100da565b60038190555050610189565b6000815190506100a781610172565b92915050565b6000602082840312156100c3576100c261016d565b5b60006100d184828501610098565b91505092915050565b60006100e582610134565b91506100f083610134565b9250817fffffffffffffffffffffffffffffffffffffffffffffffffffffffffffffffff04831182151516156101295761012861013e565b5b828202905092915050565b6000819050919050565b7f4e487b7100000000000000000000000000000000000000000000000000000000600052601160045260246000fd5b600080fd5b61017b81610134565b811461018657600080fd5b50565b610855806101986000396000f3fe6080604052600436106100745760003560e01c80636f9fb98a1161004e5780636f9fb98a1461018857806382d69b62146101b3578063a6c3e6b9146101ca578063ef352bbe146101f557610075565b80630aa0a175146100f457806317e703ab1461011f57806359221a681461014a57610075565b5b60035434146100b9576040517f08c379a00000000000000000000000000000000000000000000000000000000081526004016100b090610604565b60405180910390fd5b7f88a5966d370b9919b20f3e2c13ff65706f196a4e32cc2c12bf57088f8852587433346040516100ea9291906105ab565b60405180910390a1005b34801561010057600080fd5b50610109610220565b6040516101169190610624565b60405180910390f35b34801561012b57600080fd5b50610134610226565b6040516101419190610624565b60405180910390f35b34801561015657600080fd5b50610171600480360381019061016c91906104e9565b610230565b60405161017f9291906105d4565b60405180910390f35b34801561019457600080fd5b5061019d6102fc565b6040516101aa9190610624565b60405180910390f35b3480156101bf57600080fd5b506101c8610304565b005b3480156101d657600080fd5b506101df610478565b6040516101ec9190610590565b60405180910390f35b34801561020157600080fd5b5061020a61049e565b6040516102179190610624565b60405180910390f35b60035481565b6000600154905090565b6000602052806000526040600020600091509050806000018054610253906106ca565b80601f016020809104026020016040519081016040528092919081815260200182805461027f906106ca565b80156102cc5780601f106102a1576101008083540402835291602001916102cc565b820191906000526020600020905b8154815290600101906020018083116102af57829003601f168201915b5050505050908060010160009054906101000a900473ffffffffffffffffffffffffffffffffffffffff16905082565b600047905090565b61030c6104a4565b60005b60015481101561047457600080828152602001908152602001600020604051806040016040529081600082018054610346906106ca565b80601f0160208091040260200160405190810160405280929190818152602001828054610372906106ca565b80156103bf5780601f10610394576101008083540402835291602001916103bf565b820191906000526020600020905b8154815290600101906020018083116103a257829003601f168201915b505050505081526020016001820160009054906101000a900473ffffffffffffffffffffffffffffffffffffffff1673ffffffffffffffffffffffffffffffffffffffff1673ffffffffffffffffffffffffffffffffffffffff168152505091507f509008841c10ccf2d4360b0b681479c830f619aac14e8fac7ac253216fdae8f9826000015183602001516040516104599291906105d4565b60405180910390a1808061046c906106fc565b91505061030f565b5050565b600260009054906101000a900473ffffffffffffffffffffffffffffffffffffffff1681565b60015481565b604051806040016040528060608152602001600073ffffffffffffffffffffffffffffffffffffffff1681525090565b6000813590506104e381610808565b92915050565b6000602082840312156104ff576104fe6107a3565b5b600061050d848285016104d4565b91505092915050565b61051f8161065b565b82525050565b60006105308261063f565b61053a818561064a565b935061054a818560208601610697565b610553816107a8565b840191505092915050565b600061056b60268361064a565b9150610576826107b9565b604082019050919050565b61058a8161068d565b82525050565b60006020820190506105a56000830184610516565b92915050565b60006040820190506105c06000830185610516565b6105cd6020830184610581565b9392505050565b600060408201905081810360008301526105ee8185610525565b90506105fd6020830184610516565b9392505050565b6000602082019050818103600083015261061d8161055e565b9050919050565b60006020820190506106396000830184610581565b92915050565b600081519050919050565b600082825260208201905092915050565b60006106668261066d565b9050919050565b600073ffffffffffffffffffffffffffffffffffffffff82169050919050565b6000819050919050565b60005b838110156106b557808201518184015260208101905061069a565b838111156106c4576000848401525b50505050565b600060028204905060018216806106e257607f821691505b602082108114156106f6576106f5610774565b5b50919050565b60006107078261068d565b91507fffffffffffffffffffffffffffffffffffffffffffffffffffffffffffffffff82141561073a57610739610745565b5b600182019050919050565b7f4e487b7100000000000000000000000000000000000000000000000000000000600052601160045260246000fd5b7f4e487b7100000000000000000000000000000000000000000000000000000000600052602260045260246000fd5b600080fd5b6000601f19601f8301169050919050565b7f5061796d656e742073686f756c6420626520746865207375627363726970746960008201527f6f6e206665650000000000000000000000000000000000000000000000000000602082015250565b6108118161068d565b811461081c57600080fd5b5056fea2646970667358221220fed6f69a82a1c64b7bca5a4c1740773879d6508519e81e4f1f7b5705cabb878d64736f6c63430008070033",
					"opcodes": "PUSH1 0x80 PUSH1 0x40 MSTORE PUSH1 0x0 PUSH1 0x1 SSTORE CALLVALUE DUP1 ISZERO PUSH2 0x15 JUMPI PUSH1 0x0 DUP1 REVERT JUMPDEST POP PUSH1 0x40 MLOAD PUSH2 0x9ED CODESIZE SUB DUP1 PUSH2 0x9ED DUP4 CODECOPY DUP2 DUP2 ADD PUSH1 0x40 MSTORE DUP2 ADD SWAP1 PUSH2 0x37 SWAP2 SWAP1 PUSH2 0xAD JUMP JUMPDEST CALLER PUSH1 0x2 PUSH1 0x0 PUSH2 0x100 EXP DUP2 SLOAD DUP2 PUSH20 0xFFFFFFFFFFFFFFFFFFFFFFFFFFFFFFFFFFFFFFFF MUL NOT AND SWAP1 DUP4 PUSH20 0xFFFFFFFFFFFFFFFFFFFFFFFFFFFFFFFFFFFFFFFF AND MUL OR SWAP1 SSTORE POP PUSH8 0xDE0B6B3A7640000 DUP2 PUSH2 0x8C SWAP2 SWAP1 PUSH2 0xDA JUMP JUMPDEST PUSH1 0x3 DUP2 SWAP1 SSTORE POP POP PUSH2 0x189 JUMP JUMPDEST PUSH1 0x0 DUP2 MLOAD SWAP1 POP PUSH2 0xA7 DUP2 PUSH2 0x172 JUMP JUMPDEST SWAP3 SWAP2 POP POP JUMP JUMPDEST PUSH1 0x0 PUSH1 0x20 DUP3 DUP5 SUB SLT ISZERO PUSH2 0xC3 JUMPI PUSH2 0xC2 PUSH2 0x16D JUMP JUMPDEST JUMPDEST PUSH1 0x0 PUSH2 0xD1 DUP5 DUP3 DUP6 ADD PUSH2 0x98 JUMP JUMPDEST SWAP2 POP POP SWAP3 SWAP2 POP POP JUMP JUMPDEST PUSH1 0x0 PUSH2 0xE5 DUP3 PUSH2 0x134 JUMP JUMPDEST SWAP2 POP PUSH2 0xF0 DUP4 PUSH2 0x134 JUMP JUMPDEST SWAP3 POP DUP2 PUSH32 0xFFFFFFFFFFFFFFFFFFFFFFFFFFFFFFFFFFFFFFFFFFFFFFFFFFFFFFFFFFFFFFFF DIV DUP4 GT DUP3 ISZERO ISZERO AND ISZERO PUSH2 0x129 JUMPI PUSH2 0x128 PUSH2 0x13E JUMP JUMPDEST JUMPDEST DUP3 DUP3 MUL SWAP1 POP SWAP3 SWAP2 POP POP JUMP JUMPDEST PUSH1 0x0 DUP2 SWAP1 POP SWAP2 SWAP1 POP JUMP JUMPDEST PUSH32 0x4E487B7100000000000000000000000000000000000000000000000000000000 PUSH1 0x0 MSTORE PUSH1 0x11 PUSH1 0x4 MSTORE PUSH1 0x24 PUSH1 0x0 REVERT JUMPDEST PUSH1 0x0 DUP1 REVERT JUMPDEST PUSH2 0x17B DUP2 PUSH2 0x134 JUMP JUMPDEST DUP2 EQ PUSH2 0x186 JUMPI PUSH1 0x0 DUP1 REVERT JUMPDEST POP JUMP JUMPDEST PUSH2 0x855 DUP1 PUSH2 0x198 PUSH1 0x0 CODECOPY PUSH1 0x0 RETURN INVALID PUSH1 0x80 PUSH1 0x40 MSTORE PUSH1 0x4 CALLDATASIZE LT PUSH2 0x74 JUMPI PUSH1 0x0 CALLDATALOAD PUSH1 0xE0 SHR DUP1 PUSH4 0x6F9FB98A GT PUSH2 0x4E JUMPI DUP1 PUSH4 0x6F9FB98A EQ PUSH2 0x188 JUMPI DUP1 PUSH4 0x82D69B62 EQ PUSH2 0x1B3 JUMPI DUP1 PUSH4 0xA6C3E6B9 EQ PUSH2 0x1CA JUMPI DUP1 PUSH4 0xEF352BBE EQ PUSH2 0x1F5 JUMPI PUSH2 0x75 JUMP JUMPDEST DUP1 PUSH4 0xAA0A175 EQ PUSH2 0xF4 JUMPI DUP1 PUSH4 0x17E703AB EQ PUSH2 0x11F JUMPI DUP1 PUSH4 0x59221A68 EQ PUSH2 0x14A JUMPI PUSH2 0x75 JUMP JUMPDEST JUMPDEST PUSH1 0x3 SLOAD CALLVALUE EQ PUSH2 0xB9 JUMPI PUSH1 0x40 MLOAD PUSH32 0x8C379A000000000000000000000000000000000000000000000000000000000 DUP2 MSTORE PUSH1 0x4 ADD PUSH2 0xB0 SWAP1 PUSH2 0x604 JUMP JUMPDEST PUSH1 0x40 MLOAD DUP1 SWAP2 SUB SWAP1 REVERT JUMPDEST PUSH32 0x88A5966D370B9919B20F3E2C13FF65706F196A4E32CC2C12BF57088F88525874 CALLER CALLVALUE PUSH1 0x40 MLOAD PUSH2 0xEA SWAP3 SWAP2 SWAP1 PUSH2 0x5AB JUMP JUMPDEST PUSH1 0x40 MLOAD DUP1 SWAP2 SUB SWAP1 LOG1 STOP JUMPDEST CALLVALUE DUP1 ISZERO PUSH2 0x100 JUMPI PUSH1 0x0 DUP1 REVERT JUMPDEST POP PUSH2 0x109 PUSH2 0x220 JUMP JUMPDEST PUSH1 0x40 MLOAD PUSH2 0x116 SWAP2 SWAP1 PUSH2 0x624 JUMP JUMPDEST PUSH1 0x40 MLOAD DUP1 SWAP2 SUB SWAP1 RETURN JUMPDEST CALLVALUE DUP1 ISZERO PUSH2 0x12B JUMPI PUSH1 0x0 DUP1 REVERT JUMPDEST POP PUSH2 0x134 PUSH2 0x226 JUMP JUMPDEST PUSH1 0x40 MLOAD PUSH2 0x141 SWAP2 SWAP1 PUSH2 0x624 JUMP JUMPDEST PUSH1 0x40 MLOAD DUP1 SWAP2 SUB SWAP1 RETURN JUMPDEST CALLVALUE DUP1 ISZERO PUSH2 0x156 JUMPI PUSH1 0x0 DUP1 REVERT JUMPDEST POP PUSH2 0x171 PUSH1 0x4 DUP1 CALLDATASIZE SUB DUP2 ADD SWAP1 PUSH2 0x16C SWAP2 SWAP1 PUSH2 0x4E9 JUMP JUMPDEST PUSH2 0x230 JUMP JUMPDEST PUSH1 0x40 MLOAD PUSH2 0x17F SWAP3 SWAP2 SWAP1 PUSH2 0x5D4 JUMP JUMPDEST PUSH1 0x40 MLOAD DUP1 SWAP2 SUB SWAP1 RETURN JUMPDEST CALLVALUE DUP1 ISZERO PUSH2 0x194 JUMPI PUSH1 0x0 DUP1 REVERT JUMPDEST POP PUSH2 0x19D PUSH2 0x2FC JUMP JUMPDEST PUSH1 0x40 MLOAD PUSH2 0x1AA SWAP2 SWAP1 PUSH2 0x624 JUMP JUMPDEST PUSH1 0x40 MLOAD DUP1 SWAP2 SUB SWAP1 RETURN JUMPDEST CALLVALUE DUP1 ISZERO PUSH2 0x1BF JUMPI PUSH1 0x0 DUP1 REVERT JUMPDEST POP PUSH2 0x1C8 PUSH2 0x304 JUMP JUMPDEST STOP JUMPDEST CALLVALUE DUP1 ISZERO PUSH2 0x1D6 JUMPI PUSH1 0x0 DUP1 REVERT JUMPDEST POP PUSH2 0x1DF PUSH2 0x478 JUMP JUMPDEST PUSH1 0x40 MLOAD PUSH2 0x1EC SWAP2 SWAP1 PUSH2 0x590 JUMP JUMPDEST PUSH1 0x40 MLOAD DUP1 SWAP2 SUB SWAP1 RETURN JUMPDEST CALLVALUE DUP1 ISZERO PUSH2 0x201 JUMPI PUSH1 0x0 DUP1 REVERT JUMPDEST POP PUSH2 0x20A PUSH2 0x49E JUMP JUMPDEST PUSH1 0x40 MLOAD PUSH2 0x217 SWAP2 SWAP1 PUSH2 0x624 JUMP JUMPDEST PUSH1 0x40 MLOAD DUP1 SWAP2 SUB SWAP1 RETURN JUMPDEST PUSH1 0x3 SLOAD DUP2 JUMP JUMPDEST PUSH1 0x0 PUSH1 0x1 SLOAD SWAP1 POP SWAP1 JUMP JUMPDEST PUSH1 0x0 PUSH1 0x20 MSTORE DUP1 PUSH1 0x0 MSTORE PUSH1 0x40 PUSH1 0x0 KECCAK256 PUSH1 0x0 SWAP2 POP SWAP1 POP DUP1 PUSH1 0x0 ADD DUP1 SLOAD PUSH2 0x253 SWAP1 PUSH2 0x6CA JUMP JUMPDEST DUP1 PUSH1 0x1F ADD PUSH1 0x20 DUP1 SWAP2 DIV MUL PUSH1 0x20 ADD PUSH1 0x40 MLOAD SWAP1 DUP2 ADD PUSH1 0x40 MSTORE DUP1 SWAP3 SWAP2 SWAP1 DUP2 DUP2 MSTORE PUSH1 0x20 ADD DUP3 DUP1 SLOAD PUSH2 0x27F SWAP1 PUSH2 0x6CA JUMP JUMPDEST DUP1 ISZERO PUSH2 0x2CC JUMPI DUP1 PUSH1 0x1F LT PUSH2 0x2A1 JUMPI PUSH2 0x100 DUP1 DUP4 SLOAD DIV MUL DUP4 MSTORE SWAP2 PUSH1 0x20 ADD SWAP2 PUSH2 0x2CC JUMP JUMPDEST DUP3 ADD SWAP2 SWAP1 PUSH1 0x0 MSTORE PUSH1 0x20 PUSH1 0x0 KECCAK256 SWAP1 JUMPDEST DUP2 SLOAD DUP2 MSTORE SWAP1 PUSH1 0x1 ADD SWAP1 PUSH1 0x20 ADD DUP1 DUP4 GT PUSH2 0x2AF JUMPI DUP3 SWAP1 SUB PUSH1 0x1F AND DUP3 ADD SWAP2 JUMPDEST POP POP POP POP POP SWAP1 DUP1 PUSH1 0x1 ADD PUSH1 0x0 SWAP1 SLOAD SWAP1 PUSH2 0x100 EXP SWAP1 DIV PUSH20 0xFFFFFFFFFFFFFFFFFFFFFFFFFFFFFFFFFFFFFFFF AND SWAP1 POP DUP3 JUMP JUMPDEST PUSH1 0x0 SELFBALANCE SWAP1 POP SWAP1 JUMP JUMPDEST PUSH2 0x30C PUSH2 0x4A4 JUMP JUMPDEST PUSH1 0x0 JUMPDEST PUSH1 0x1 SLOAD DUP2 LT ISZERO PUSH2 0x474 JUMPI PUSH1 0x0 DUP1 DUP3 DUP2 MSTORE PUSH1 0x20 ADD SWAP1 DUP2 MSTORE PUSH1 0x20 ADD PUSH1 0x0 KECCAK256 PUSH1 0x40 MLOAD DUP1 PUSH1 0x40 ADD PUSH1 0x40 MSTORE SWAP1 DUP2 PUSH1 0x0 DUP3 ADD DUP1 SLOAD PUSH2 0x346 SWAP1 PUSH2 0x6CA JUMP JUMPDEST DUP1 PUSH1 0x1F ADD PUSH1 0x20 DUP1 SWAP2 DIV MUL PUSH1 0x20 ADD PUSH1 0x40 MLOAD SWAP1 DUP2 ADD PUSH1 0x40 MSTORE DUP1 SWAP3 SWAP2 SWAP1 DUP2 DUP2 MSTORE PUSH1 0x20 ADD DUP3 DUP1 SLOAD PUSH2 0x372 SWAP1 PUSH2 0x6CA JUMP JUMPDEST DUP1 ISZERO PUSH2 0x3BF JUMPI DUP1 PUSH1 0x1F LT PUSH2 0x394 JUMPI PUSH2 0x100 DUP1 DUP4 SLOAD DIV MUL DUP4 MSTORE SWAP2 PUSH1 0x20 ADD SWAP2 PUSH2 0x3BF JUMP JUMPDEST DUP3 ADD SWAP2 SWAP1 PUSH1 0x0 MSTORE PUSH1 0x20 PUSH1 0x0 KECCAK256 SWAP1 JUMPDEST DUP2 SLOAD DUP2 MSTORE SWAP1 PUSH1 0x1 ADD SWAP1 PUSH1 0x20 ADD DUP1 DUP4 GT PUSH2 0x3A2 JUMPI DUP3 SWAP1 SUB PUSH1 0x1F AND DUP3 ADD SWAP2 JUMPDEST POP POP POP POP POP DUP2 MSTORE PUSH1 0x20 ADD PUSH1 0x1 DUP3 ADD PUSH1 0x0 SWAP1 SLOAD SWAP1 PUSH2 0x100 EXP SWAP1 DIV PUSH20 0xFFFFFFFFFFFFFFFFFFFFFFFFFFFFFFFFFFFFFFFF AND PUSH20 0xFFFFFFFFFFFFFFFFFFFFFFFFFFFFFFFFFFFFFFFF AND PUSH20 0xFFFFFFFFFFFFFFFFFFFFFFFFFFFFFFFFFFFFFFFF AND DUP2 MSTORE POP POP SWAP2 POP PUSH32 0x509008841C10CCF2D4360B0B681479C830F619AAC14E8FAC7AC253216FDAE8F9 DUP3 PUSH1 0x0 ADD MLOAD DUP4 PUSH1 0x20 ADD MLOAD PUSH1 0x40 MLOAD PUSH2 0x459 SWAP3 SWAP2 SWAP1 PUSH2 0x5D4 JUMP JUMPDEST PUSH1 0x40 MLOAD DUP1 SWAP2 SUB SWAP1 LOG1 DUP1 DUP1 PUSH2 0x46C SWAP1 PUSH2 0x6FC JUMP JUMPDEST SWAP2 POP POP PUSH2 0x30F JUMP JUMPDEST POP POP JUMP JUMPDEST PUSH1 0x2 PUSH1 0x0 SWAP1 SLOAD SWAP1 PUSH2 0x100 EXP SWAP1 DIV PUSH20 0xFFFFFFFFFFFFFFFFFFFFFFFFFFFFFFFFFFFFFFFF AND DUP2 JUMP JUMPDEST PUSH1 0x1 SLOAD DUP2 JUMP JUMPDEST PUSH1 0x40 MLOAD DUP1 PUSH1 0x40 ADD PUSH1 0x40 MSTORE DUP1 PUSH1 0x60 DUP2 MSTORE PUSH1 0x20 ADD PUSH1 0x0 PUSH20 0xFFFFFFFFFFFFFFFFFFFFFFFFFFFFFFFFFFFFFFFF AND DUP2 MSTORE POP SWAP1 JUMP JUMPDEST PUSH1 0x0 DUP2 CALLDATALOAD SWAP1 POP PUSH2 0x4E3 DUP2 PUSH2 0x808 JUMP JUMPDEST SWAP3 SWAP2 POP POP JUMP JUMPDEST PUSH1 0x0 PUSH1 0x20 DUP3 DUP5 SUB SLT ISZERO PUSH2 0x4FF JUMPI PUSH2 0x4FE PUSH2 0x7A3 JUMP JUMPDEST JUMPDEST PUSH1 0x0 PUSH2 0x50D DUP5 DUP3 DUP6 ADD PUSH2 0x4D4 JUMP JUMPDEST SWAP2 POP POP SWAP3 SWAP2 POP POP JUMP JUMPDEST PUSH2 0x51F DUP2 PUSH2 0x65B JUMP JUMPDEST DUP3 MSTORE POP POP JUMP JUMPDEST PUSH1 0x0 PUSH2 0x530 DUP3 PUSH2 0x63F JUMP JUMPDEST PUSH2 0x53A DUP2 DUP6 PUSH2 0x64A JUMP JUMPDEST SWAP4 POP PUSH2 0x54A DUP2 DUP6 PUSH1 0x20 DUP7 ADD PUSH2 0x697 JUMP JUMPDEST PUSH2 0x553 DUP2 PUSH2 0x7A8 JUMP JUMPDEST DUP5 ADD SWAP2 POP POP SWAP3 SWAP2 POP POP JUMP JUMPDEST PUSH1 0x0 PUSH2 0x56B PUSH1 0x26 DUP4 PUSH2 0x64A JUMP JUMPDEST SWAP2 POP PUSH2 0x576 DUP3 PUSH2 0x7B9 JUMP JUMPDEST PUSH1 0x40 DUP3 ADD SWAP1 POP SWAP2 SWAP1 POP JUMP JUMPDEST PUSH2 0x58A DUP2 PUSH2 0x68D JUMP JUMPDEST DUP3 MSTORE POP POP JUMP JUMPDEST PUSH1 0x0 PUSH1 0x20 DUP3 ADD SWAP1 POP PUSH2 0x5A5 PUSH1 0x0 DUP4 ADD DUP5 PUSH2 0x516 JUMP JUMPDEST SWAP3 SWAP2 POP POP JUMP JUMPDEST PUSH1 0x0 PUSH1 0x40 DUP3 ADD SWAP1 POP PUSH2 0x5C0 PUSH1 0x0 DUP4 ADD DUP6 PUSH2 0x516 JUMP JUMPDEST PUSH2 0x5CD PUSH1 0x20 DUP4 ADD DUP5 PUSH2 0x581 JUMP JUMPDEST SWAP4 SWAP3 POP POP POP JUMP JUMPDEST PUSH1 0x0 PUSH1 0x40 DUP3 ADD SWAP1 POP DUP2 DUP2 SUB PUSH1 0x0 DUP4 ADD MSTORE PUSH2 0x5EE DUP2 DUP6 PUSH2 0x525 JUMP JUMPDEST SWAP1 POP PUSH2 0x5FD PUSH1 0x20 DUP4 ADD DUP5 PUSH2 0x516 JUMP JUMPDEST SWAP4 SWAP3 POP POP POP JUMP JUMPDEST PUSH1 0x0 PUSH1 0x20 DUP3 ADD SWAP1 POP DUP2 DUP2 SUB PUSH1 0x0 DUP4 ADD MSTORE PUSH2 0x61D DUP2 PUSH2 0x55E JUMP JUMPDEST SWAP1 POP SWAP2 SWAP1 POP JUMP JUMPDEST PUSH1 0x0 PUSH1 0x20 DUP3 ADD SWAP1 POP PUSH2 0x639 PUSH1 0x0 DUP4 ADD DUP5 PUSH2 0x581 JUMP JUMPDEST SWAP3 SWAP2 POP POP JUMP JUMPDEST PUSH1 0x0 DUP2 MLOAD SWAP1 POP SWAP2 SWAP1 POP JUMP JUMPDEST PUSH1 0x0 DUP3 DUP3 MSTORE PUSH1 0x20 DUP3 ADD SWAP1 POP SWAP3 SWAP2 POP POP JUMP JUMPDEST PUSH1 0x0 PUSH2 0x666 DUP3 PUSH2 0x66D JUMP JUMPDEST SWAP1 POP SWAP2 SWAP1 POP JUMP JUMPDEST PUSH1 0x0 PUSH20 0xFFFFFFFFFFFFFFFFFFFFFFFFFFFFFFFFFFFFFFFF DUP3 AND SWAP1 POP SWAP2 SWAP1 POP JUMP JUMPDEST PUSH1 0x0 DUP2 SWAP1 POP SWAP2 SWAP1 POP JUMP JUMPDEST PUSH1 0x0 JUMPDEST DUP4 DUP2 LT ISZERO PUSH2 0x6B5 JUMPI DUP1 DUP3 ADD MLOAD DUP2 DUP5 ADD MSTORE PUSH1 0x20 DUP2 ADD SWAP1 POP PUSH2 0x69A JUMP JUMPDEST DUP4 DUP2 GT ISZERO PUSH2 0x6C4 JUMPI PUSH1 0x0 DUP5 DUP5 ADD MSTORE JUMPDEST POP POP POP POP JUMP JUMPDEST PUSH1 0x0 PUSH1 0x2 DUP3 DIV SWAP1 POP PUSH1 0x1 DUP3 AND DUP1 PUSH2 0x6E2 JUMPI PUSH1 0x7F DUP3 AND SWAP2 POP JUMPDEST PUSH1 0x20 DUP3 LT DUP2 EQ ISZERO PUSH2 0x6F6 JUMPI PUSH2 0x6F5 PUSH2 0x774 JUMP JUMPDEST JUMPDEST POP SWAP2 SWAP1 POP JUMP JUMPDEST PUSH1 0x0 PUSH2 0x707 DUP3 PUSH2 0x68D JUMP JUMPDEST SWAP2 POP PUSH32 0xFFFFFFFFFFFFFFFFFFFFFFFFFFFFFFFFFFFFFFFFFFFFFFFFFFFFFFFFFFFFFFFF DUP3 EQ ISZERO PUSH2 0x73A JUMPI PUSH2 0x739 PUSH2 0x745 JUMP JUMPDEST JUMPDEST PUSH1 0x1 DUP3 ADD SWAP1 POP SWAP2 SWAP1 POP JUMP JUMPDEST PUSH32 0x4E487B7100000000000000000000000000000000000000000000000000000000 PUSH1 0x0 MSTORE PUSH1 0x11 PUSH1 0x4 MSTORE PUSH1 0x24 PUSH1 0x0 REVERT JUMPDEST PUSH32 0x4E487B7100000000000000000000000000000000000000000000000000000000 PUSH1 0x0 MSTORE PUSH1 0x22 PUSH1 0x4 MSTORE PUSH1 0x24 PUSH1 0x0 REVERT JUMPDEST PUSH1 0x0 DUP1 REVERT JUMPDEST PUSH1 0x0 PUSH1 0x1F NOT PUSH1 0x1F DUP4 ADD AND SWAP1 POP SWAP2 SWAP1 POP JUMP JUMPDEST PUSH32 0x5061796D656E742073686F756C64206265207468652073756273637269707469 PUSH1 0x0 DUP3 ADD MSTORE PUSH32 0x6F6E206665650000000000000000000000000000000000000000000000000000 PUSH1 0x20 DUP3 ADD MSTORE POP JUMP JUMPDEST PUSH2 0x811 DUP2 PUSH2 0x68D JUMP JUMPDEST DUP2 EQ PUSH2 0x81C JUMPI PUSH1 0x0 DUP1 REVERT JUMPDEST POP JUMP INVALID LOG2 PUSH5 0x6970667358 0x22 SLT KECCAK256 INVALID 0xD6 0xF6 SWAP11 DUP3 LOG1 0xC6 0x4B PUSH28 0xCA5A4C1740773879D6508519E81E4F1F7B5705CABB878D64736F6C63 NUMBER STOP ADDMOD SMOD STOP CALLER "
				},
				"gasEstimates": {
					"creation": {
						"codeDepositCost": "426600",
						"executionCost": "infinite",
						"totalCost": "infinite"
					},
					"external": {
						"": "3871",
						"author()": "2558",
						"getContractBalance()": "339",
						"getSubscriberCount()": "2460",
						"printSubscribersList()": "infinite",
						"subscriberCount()": "2495",
						"subscribers(uint256)": "infinite",
						"subscriptionFee()": "2430"
					},
					"internal": {
						"addSubscriber(string memory)": "infinite"
					}
				},
				"methodIdentifiers": {
					"author()": "a6c3e6b9",
					"getContractBalance()": "6f9fb98a",
					"getSubscriberCount()": "17e703ab",
					"printSubscribersList()": "82d69b62",
					"subscriberCount()": "ef352bbe",
					"subscribers(uint256)": "59221a68",
					"subscriptionFee()": "0aa0a175"
				}
			},
			"storageLayout": {
				"storage": [
					{
						"astId": 6,
						"contract": "contracts/myContract.sol:testContract",
						"label": "subscribers",
						"offset": 0,
						"slot": "0",
						"type": "t_mapping(t_uint256,t_struct(subscriber)14_storage)"
					},
					{
						"astId": 9,
						"contract": "contracts/myContract.sol:testContract",
						"label": "subscriberCount",
						"offset": 0,
						"slot": "1",
						"type": "t_uint256"
					},
					{
						"astId": 16,
						"contract": "contracts/myContract.sol:testContract",
						"label": "author",
						"offset": 0,
						"slot": "2",
						"type": "t_address"
					},
					{
						"astId": 18,
						"contract": "contracts/myContract.sol:testContract",
						"label": "subscriptionFee",
						"offset": 0,
						"slot": "3",
						"type": "t_uint256"
					}
				],
				"types": {
					"t_address": {
						"encoding": "inplace",
						"label": "address",
						"numberOfBytes": "20"
					},
					"t_mapping(t_uint256,t_struct(subscriber)14_storage)": {
						"encoding": "mapping",
						"key": "t_uint256",
						"label": "mapping(uint256 => struct testContract.subscriber)",
						"numberOfBytes": "32",
						"value": "t_struct(subscriber)14_storage"
					},
					"t_string_storage": {
						"encoding": "bytes",
						"label": "string",
						"numberOfBytes": "32"
					},
					"t_struct(subscriber)14_storage": {
						"encoding": "inplace",
						"label": "struct testContract.subscriber",
						"members": [
							{
								"astId": 11,
								"contract": "contracts/myContract.sol:testContract",
								"label": "name",
								"offset": 0,
								"slot": "0",
								"type": "t_string_storage"
							},
							{
								"astId": 13,
								"contract": "contracts/myContract.sol:testContract",
								"label": "addr",
								"offset": 0,
								"slot": "1",
								"type": "t_address"
							}
						],
						"numberOfBytes": "64"
					},
					"t_uint256": {
						"encoding": "inplace",
						"label": "uint256",
						"numberOfBytes": "32"
					}
				}
			},
			"userdoc": {
				"kind": "user",
				"methods": {},
				"version": 1
			}
		}
	}
}