{
	"contracts/myContract.sol": {
		"testContract": {
			"abi": [
				{
					"inputs": [
						{
							"internalType": "uint256",
							"name": "_fee",
							"type": "uint256"
						},
						{
							"internalType": "string",
							"name": "_channelName",
							"type": "string"
						}
					],
					"stateMutability": "nonpayable",
					"type": "constructor"
				},
				{
					"anonymous": false,
					"inputs": [
						{
							"indexed": true,
							"internalType": "string",
							"name": "channelName",
							"type": "string"
						},
						{
							"indexed": false,
							"internalType": "string",
							"name": "articleTitle",
							"type": "string"
						},
						{
							"indexed": false,
							"internalType": "string",
							"name": "articleCID",
							"type": "string"
						},
						{
							"indexed": false,
							"internalType": "uint256",
							"name": "articleTimeStamp",
							"type": "uint256"
						}
					],
					"name": "articlePublished",
					"type": "event"
				},
				{
					"stateMutability": "payable",
					"type": "fallback"
				},
				{
					"inputs": [],
					"name": "addSubscriber",
					"outputs": [],
					"stateMutability": "payable",
					"type": "function"
				},
				{
					"inputs": [],
					"name": "channelName",
					"outputs": [
						{
							"internalType": "string",
							"name": "",
							"type": "string"
						}
					],
					"stateMutability": "view",
					"type": "function"
				},
				{
					"inputs": [
						{
							"internalType": "uint256",
							"name": "_articleNo",
							"type": "uint256"
						}
					],
					"name": "getArticleInfo",
					"outputs": [
						{
							"components": [
								{
									"internalType": "uint256",
									"name": "articleNo",
									"type": "uint256"
								},
								{
									"internalType": "string",
									"name": "atricleTitle",
									"type": "string"
								},
								{
									"internalType": "string",
									"name": "articleCID",
									"type": "string"
								},
								{
									"internalType": "uint256",
									"name": "articleTimeStamp",
									"type": "uint256"
								}
							],
							"internalType": "struct testContract.articleInfo",
							"name": "",
							"type": "tuple"
						}
					],
					"stateMutability": "view",
					"type": "function"
				},
				{
					"inputs": [],
					"name": "printSubscribersList",
					"outputs": [
						{
							"internalType": "address[]",
							"name": "",
							"type": "address[]"
						}
					],
					"stateMutability": "view",
					"type": "function"
				},
				{
					"inputs": [
						{
							"internalType": "string",
							"name": "_articleTitle",
							"type": "string"
						},
						{
							"internalType": "string",
							"name": "_articleCID",
							"type": "string"
						}
					],
					"name": "publishArticle",
					"outputs": [],
					"stateMutability": "payable",
					"type": "function"
				},
				{
					"inputs": [],
					"name": "subscriptionFee",
					"outputs": [
						{
							"internalType": "uint256",
							"name": "",
							"type": "uint256"
						}
					],
					"stateMutability": "view",
					"type": "function"
				},
				{
					"inputs": [],
					"name": "withdrawAmount",
					"outputs": [],
					"stateMutability": "payable",
					"type": "function"
				},
				{
					"stateMutability": "payable",
					"type": "receive"
				}
			],
			"devdoc": {
				"kind": "dev",
				"methods": {},
				"version": 1
			},
			"evm": {
				"assembly": "    /* \"contracts/myContract.sol\":76:2520  contract testContract {\r... */\n  mstore(0x40, 0x80)\n    /* \"contracts/myContract.sol\":819:1049  constructor(uint _fee, string memory _channelName){\r... */\n  callvalue\n  dup1\n  iszero\n  tag_1\n  jumpi\n  0x00\n  dup1\n  revert\ntag_1:\n  pop\n  mload(0x40)\n  sub(codesize, bytecodeSize)\n  dup1\n  bytecodeSize\n  dup4\n  codecopy\n  dup2\n  dup2\n  add\n  0x40\n  mstore\n  dup2\n  add\n  swap1\n  tag_2\n  swap2\n  swap1\n  tag_3\n  jump\t// in\ntag_2:\n    /* \"contracts/myContract.sol\":897:907  msg.sender */\n  caller\n    /* \"contracts/myContract.sol\":880:886  author */\n  0x04\n  0x00\n    /* \"contracts/myContract.sol\":880:908  author = payable(msg.sender) */\n  0x0100\n  exp\n  dup2\n  sload\n  dup2\n  0xffffffffffffffffffffffffffffffffffffffff\n  mul\n  not\n  and\n  swap1\n  dup4\n  0xffffffffffffffffffffffffffffffffffffffff\n  and\n  mul\n  or\n  swap1\n  sstore\n  pop\n    /* \"contracts/myContract.sol\":944:947  1e9 */\n  0x3b9aca00\n    /* \"contracts/myContract.sol\":937:941  _fee */\n  dup3\n    /* \"contracts/myContract.sol\":937:947  _fee * 1e9 */\n  tag_6\n  swap2\n  swap1\n  tag_7\n  jump\t// in\ntag_6:\n    /* \"contracts/myContract.sol\":919:934  subscriptionFee */\n  0x05\n    /* \"contracts/myContract.sol\":919:947  subscriptionFee = _fee * 1e9 */\n  dup2\n  swap1\n  sstore\n  pop\n    /* \"contracts/myContract.sol\":972:984  _channelName */\n  dup1\n    /* \"contracts/myContract.sol\":958:969  channelName */\n  0x06\n    /* \"contracts/myContract.sol\":958:984  channelName = _channelName */\n  swap1\n  dup1\n  mload\n  swap1\n  0x20\n  add\n  swap1\n  tag_8\n  swap3\n  swap2\n  swap1\n  tag_9\n  jump\t// in\ntag_8:\n  pop\n    /* \"contracts/myContract.sol\":1013:1014  0 */\n  0x00\n    /* \"contracts/myContract.sol\":995:1010  subscriberCount */\n  0x01\n    /* \"contracts/myContract.sol\":995:1014  subscriberCount = 0 */\n  dup2\n  swap1\n  sstore\n  pop\n    /* \"contracts/myContract.sol\":1040:1041  0 */\n  0x00\n    /* \"contracts/myContract.sol\":1025:1037  articleCount */\n  0x03\n    /* \"contracts/myContract.sol\":1025:1041  articleCount = 0 */\n  dup2\n  swap1\n  sstore\n  pop\n    /* \"contracts/myContract.sol\":819:1049  constructor(uint _fee, string memory _channelName){\r... */\n  pop\n  pop\n    /* \"contracts/myContract.sol\":76:2520  contract testContract {\r... */\n  jump(tag_10)\ntag_9:\n  dup3\n  dup1\n  sload\n  tag_11\n  swap1\n  tag_12\n  jump\t// in\ntag_11:\n  swap1\n  0x00\n  mstore\n  keccak256(0x00, 0x20)\n  swap1\n  0x1f\n  add\n  0x20\n  swap1\n  div\n  dup2\n  add\n  swap3\n  dup3\n  tag_14\n  jumpi\n  0x00\n  dup6\n  sstore\n  jump(tag_13)\ntag_14:\n  dup3\n  0x1f\n  lt\n  tag_15\n  jumpi\n  dup1\n  mload\n  not(0xff)\n  and\n  dup4\n  dup1\n  add\n  or\n  dup6\n  sstore\n  jump(tag_13)\ntag_15:\n  dup3\n  dup1\n  add\n  0x01\n  add\n  dup6\n  sstore\n  dup3\n  iszero\n  tag_13\n  jumpi\n  swap2\n  dup3\n  add\ntag_16:\n  dup3\n  dup2\n  gt\n  iszero\n  tag_17\n  jumpi\n  dup3\n  mload\n  dup3\n  sstore\n  swap2\n  0x20\n  add\n  swap2\n  swap1\n  0x01\n  add\n  swap1\n  jump(tag_16)\ntag_17:\ntag_13:\n  pop\n  swap1\n  pop\n  tag_18\n  swap2\n  swap1\n  tag_19\n  jump\t// in\ntag_18:\n  pop\n  swap1\n  jump\t// out\ntag_19:\ntag_20:\n  dup1\n  dup3\n  gt\n  iszero\n  tag_21\n  jumpi\n  0x00\n  dup2\n  0x00\n  swap1\n  sstore\n  pop\n  0x01\n  add\n  jump(tag_20)\ntag_21:\n  pop\n  swap1\n  jump\t// out\n    /* \"#utility.yul\":7:428   */\ntag_23:\n    /* \"#utility.yul\":96:101   */\n  0x00\n    /* \"#utility.yul\":121:187   */\n  tag_25\n    /* \"#utility.yul\":137:186   */\n  tag_26\n    /* \"#utility.yul\":179:185   */\n  dup5\n    /* \"#utility.yul\":137:186   */\n  tag_27\n  jump\t// in\ntag_26:\n    /* \"#utility.yul\":121:187   */\n  tag_28\n  jump\t// in\ntag_25:\n    /* \"#utility.yul\":112:187   */\n  swap1\n  pop\n    /* \"#utility.yul\":210:216   */\n  dup3\n    /* \"#utility.yul\":203:208   */\n  dup2\n    /* \"#utility.yul\":196:217   */\n  mstore\n    /* \"#utility.yul\":248:252   */\n  0x20\n    /* \"#utility.yul\":241:246   */\n  dup2\n    /* \"#utility.yul\":237:253   */\n  add\n    /* \"#utility.yul\":286:289   */\n  dup5\n    /* \"#utility.yul\":277:283   */\n  dup5\n    /* \"#utility.yul\":272:275   */\n  dup5\n    /* \"#utility.yul\":268:284   */\n  add\n    /* \"#utility.yul\":265:290   */\n  gt\n    /* \"#utility.yul\":262:374   */\n  iszero\n  tag_29\n  jumpi\n    /* \"#utility.yul\":293:372   */\n  tag_30\n  tag_31\n  jump\t// in\ntag_30:\n    /* \"#utility.yul\":262:374   */\ntag_29:\n    /* \"#utility.yul\":383:422   */\n  tag_32\n    /* \"#utility.yul\":415:421   */\n  dup5\n    /* \"#utility.yul\":410:413   */\n  dup3\n    /* \"#utility.yul\":405:408   */\n  dup6\n    /* \"#utility.yul\":383:422   */\n  tag_33\n  jump\t// in\ntag_32:\n    /* \"#utility.yul\":102:428   */\n  pop\n    /* \"#utility.yul\":7:428   */\n  swap4\n  swap3\n  pop\n  pop\n  pop\n  jump\t// out\n    /* \"#utility.yul\":448:803   */\ntag_34:\n    /* \"#utility.yul\":515:520   */\n  0x00\n    /* \"#utility.yul\":564:567   */\n  dup3\n    /* \"#utility.yul\":557:561   */\n  0x1f\n    /* \"#utility.yul\":549:555   */\n  dup4\n    /* \"#utility.yul\":545:562   */\n  add\n    /* \"#utility.yul\":541:568   */\n  slt\n    /* \"#utility.yul\":531:653   */\n  tag_36\n  jumpi\n    /* \"#utility.yul\":572:651   */\n  tag_37\n  tag_38\n  jump\t// in\ntag_37:\n    /* \"#utility.yul\":531:653   */\ntag_36:\n    /* \"#utility.yul\":682:688   */\n  dup2\n    /* \"#utility.yul\":676:689   */\n  mload\n    /* \"#utility.yul\":707:797   */\n  tag_39\n    /* \"#utility.yul\":793:796   */\n  dup5\n    /* \"#utility.yul\":785:791   */\n  dup3\n    /* \"#utility.yul\":778:782   */\n  0x20\n    /* \"#utility.yul\":770:776   */\n  dup7\n    /* \"#utility.yul\":766:783   */\n  add\n    /* \"#utility.yul\":707:797   */\n  tag_23\n  jump\t// in\ntag_39:\n    /* \"#utility.yul\":698:797   */\n  swap2\n  pop\n    /* \"#utility.yul\":521:803   */\n  pop\n    /* \"#utility.yul\":448:803   */\n  swap3\n  swap2\n  pop\n  pop\n  jump\t// out\n    /* \"#utility.yul\":809:952   */\ntag_40:\n    /* \"#utility.yul\":866:871   */\n  0x00\n    /* \"#utility.yul\":897:903   */\n  dup2\n    /* \"#utility.yul\":891:904   */\n  mload\n    /* \"#utility.yul\":882:904   */\n  swap1\n  pop\n    /* \"#utility.yul\":913:946   */\n  tag_42\n    /* \"#utility.yul\":940:945   */\n  dup2\n    /* \"#utility.yul\":913:946   */\n  tag_43\n  jump\t// in\ntag_42:\n    /* \"#utility.yul\":809:952   */\n  swap3\n  swap2\n  pop\n  pop\n  jump\t// out\n    /* \"#utility.yul\":958:1638   */\ntag_3:\n    /* \"#utility.yul\":1047:1053   */\n  0x00\n    /* \"#utility.yul\":1055:1061   */\n  dup1\n    /* \"#utility.yul\":1104:1106   */\n  0x40\n    /* \"#utility.yul\":1092:1101   */\n  dup4\n    /* \"#utility.yul\":1083:1090   */\n  dup6\n    /* \"#utility.yul\":1079:1102   */\n  sub\n    /* \"#utility.yul\":1075:1107   */\n  slt\n    /* \"#utility.yul\":1072:1191   */\n  iszero\n  tag_45\n  jumpi\n    /* \"#utility.yul\":1110:1189   */\n  tag_46\n  tag_47\n  jump\t// in\ntag_46:\n    /* \"#utility.yul\":1072:1191   */\ntag_45:\n    /* \"#utility.yul\":1230:1231   */\n  0x00\n    /* \"#utility.yul\":1255:1319   */\n  tag_48\n    /* \"#utility.yul\":1311:1318   */\n  dup6\n    /* \"#utility.yul\":1302:1308   */\n  dup3\n    /* \"#utility.yul\":1291:1300   */\n  dup7\n    /* \"#utility.yul\":1287:1309   */\n  add\n    /* \"#utility.yul\":1255:1319   */\n  tag_40\n  jump\t// in\ntag_48:\n    /* \"#utility.yul\":1245:1319   */\n  swap3\n  pop\n    /* \"#utility.yul\":1201:1329   */\n  pop\n    /* \"#utility.yul\":1389:1391   */\n  0x20\n    /* \"#utility.yul\":1378:1387   */\n  dup4\n    /* \"#utility.yul\":1374:1392   */\n  add\n    /* \"#utility.yul\":1368:1393   */\n  mload\n    /* \"#utility.yul\":1420:1438   */\n  0xffffffffffffffff\n    /* \"#utility.yul\":1412:1418   */\n  dup2\n    /* \"#utility.yul\":1409:1439   */\n  gt\n    /* \"#utility.yul\":1406:1523   */\n  iszero\n  tag_49\n  jumpi\n    /* \"#utility.yul\":1442:1521   */\n  tag_50\n  tag_51\n  jump\t// in\ntag_50:\n    /* \"#utility.yul\":1406:1523   */\ntag_49:\n    /* \"#utility.yul\":1547:1621   */\n  tag_52\n    /* \"#utility.yul\":1613:1620   */\n  dup6\n    /* \"#utility.yul\":1604:1610   */\n  dup3\n    /* \"#utility.yul\":1593:1602   */\n  dup7\n    /* \"#utility.yul\":1589:1611   */\n  add\n    /* \"#utility.yul\":1547:1621   */\n  tag_34\n  jump\t// in\ntag_52:\n    /* \"#utility.yul\":1537:1621   */\n  swap2\n  pop\n    /* \"#utility.yul\":1339:1631   */\n  pop\n    /* \"#utility.yul\":958:1638   */\n  swap3\n  pop\n  swap3\n  swap1\n  pop\n  jump\t// out\n    /* \"#utility.yul\":1644:1773   */\ntag_28:\n    /* \"#utility.yul\":1678:1684   */\n  0x00\n    /* \"#utility.yul\":1705:1725   */\n  tag_54\n  tag_55\n  jump\t// in\ntag_54:\n    /* \"#utility.yul\":1695:1725   */\n  swap1\n  pop\n    /* \"#utility.yul\":1734:1767   */\n  tag_56\n    /* \"#utility.yul\":1762:1766   */\n  dup3\n    /* \"#utility.yul\":1754:1760   */\n  dup3\n    /* \"#utility.yul\":1734:1767   */\n  tag_57\n  jump\t// in\ntag_56:\n    /* \"#utility.yul\":1644:1773   */\n  swap2\n  swap1\n  pop\n  jump\t// out\n    /* \"#utility.yul\":1779:1854   */\ntag_55:\n    /* \"#utility.yul\":1812:1818   */\n  0x00\n    /* \"#utility.yul\":1845:1847   */\n  0x40\n    /* \"#utility.yul\":1839:1848   */\n  mload\n    /* \"#utility.yul\":1829:1848   */\n  swap1\n  pop\n    /* \"#utility.yul\":1779:1854   */\n  swap1\n  jump\t// out\n    /* \"#utility.yul\":1860:2168   */\ntag_27:\n    /* \"#utility.yul\":1922:1926   */\n  0x00\n    /* \"#utility.yul\":2012:2030   */\n  0xffffffffffffffff\n    /* \"#utility.yul\":2004:2010   */\n  dup3\n    /* \"#utility.yul\":2001:2031   */\n  gt\n    /* \"#utility.yul\":1998:2054   */\n  iszero\n  tag_60\n  jumpi\n    /* \"#utility.yul\":2034:2052   */\n  tag_61\n  tag_62\n  jump\t// in\ntag_61:\n    /* \"#utility.yul\":1998:2054   */\ntag_60:\n    /* \"#utility.yul\":2072:2101   */\n  tag_63\n    /* \"#utility.yul\":2094:2100   */\n  dup3\n    /* \"#utility.yul\":2072:2101   */\n  tag_64\n  jump\t// in\ntag_63:\n    /* \"#utility.yul\":2064:2101   */\n  swap1\n  pop\n    /* \"#utility.yul\":2156:2160   */\n  0x20\n    /* \"#utility.yul\":2150:2154   */\n  dup2\n    /* \"#utility.yul\":2146:2161   */\n  add\n    /* \"#utility.yul\":2138:2161   */\n  swap1\n  pop\n    /* \"#utility.yul\":1860:2168   */\n  swap2\n  swap1\n  pop\n  jump\t// out\n    /* \"#utility.yul\":2174:2522   */\ntag_7:\n    /* \"#utility.yul\":2214:2221   */\n  0x00\n    /* \"#utility.yul\":2237:2257   */\n  tag_66\n    /* \"#utility.yul\":2255:2256   */\n  dup3\n    /* \"#utility.yul\":2237:2257   */\n  tag_67\n  jump\t// in\ntag_66:\n    /* \"#utility.yul\":2232:2257   */\n  swap2\n  pop\n    /* \"#utility.yul\":2271:2291   */\n  tag_68\n    /* \"#utility.yul\":2289:2290   */\n  dup4\n    /* \"#utility.yul\":2271:2291   */\n  tag_67\n  jump\t// in\ntag_68:\n    /* \"#utility.yul\":2266:2291   */\n  swap3\n  pop\n    /* \"#utility.yul\":2459:2460   */\n  dup2\n    /* \"#utility.yul\":2391:2457   */\n  0xffffffffffffffffffffffffffffffffffffffffffffffffffffffffffffffff\n    /* \"#utility.yul\":2387:2461   */\n  div\n    /* \"#utility.yul\":2384:2385   */\n  dup4\n    /* \"#utility.yul\":2381:2462   */\n  gt\n    /* \"#utility.yul\":2376:2377   */\n  dup3\n    /* \"#utility.yul\":2369:2378   */\n  iszero\n    /* \"#utility.yul\":2362:2379   */\n  iszero\n    /* \"#utility.yul\":2358:2463   */\n  and\n    /* \"#utility.yul\":2355:2486   */\n  iszero\n  tag_69\n  jumpi\n    /* \"#utility.yul\":2466:2484   */\n  tag_70\n  tag_71\n  jump\t// in\ntag_70:\n    /* \"#utility.yul\":2355:2486   */\ntag_69:\n    /* \"#utility.yul\":2514:2515   */\n  dup3\n    /* \"#utility.yul\":2511:2512   */\n  dup3\n    /* \"#utility.yul\":2507:2516   */\n  mul\n    /* \"#utility.yul\":2496:2516   */\n  swap1\n  pop\n    /* \"#utility.yul\":2174:2522   */\n  swap3\n  swap2\n  pop\n  pop\n  jump\t// out\n    /* \"#utility.yul\":2528:2605   */\ntag_67:\n    /* \"#utility.yul\":2565:2572   */\n  0x00\n    /* \"#utility.yul\":2594:2599   */\n  dup2\n    /* \"#utility.yul\":2583:2599   */\n  swap1\n  pop\n    /* \"#utility.yul\":2528:2605   */\n  swap2\n  swap1\n  pop\n  jump\t// out\n    /* \"#utility.yul\":2611:2918   */\ntag_33:\n    /* \"#utility.yul\":2679:2680   */\n  0x00\n    /* \"#utility.yul\":2689:2802   */\ntag_74:\n    /* \"#utility.yul\":2703:2709   */\n  dup4\n    /* \"#utility.yul\":2700:2701   */\n  dup2\n    /* \"#utility.yul\":2697:2710   */\n  lt\n    /* \"#utility.yul\":2689:2802   */\n  iszero\n  tag_76\n  jumpi\n    /* \"#utility.yul\":2788:2789   */\n  dup1\n    /* \"#utility.yul\":2783:2786   */\n  dup3\n    /* \"#utility.yul\":2779:2790   */\n  add\n    /* \"#utility.yul\":2773:2791   */\n  mload\n    /* \"#utility.yul\":2769:2770   */\n  dup2\n    /* \"#utility.yul\":2764:2767   */\n  dup5\n    /* \"#utility.yul\":2760:2771   */\n  add\n    /* \"#utility.yul\":2753:2792   */\n  mstore\n    /* \"#utility.yul\":2725:2727   */\n  0x20\n    /* \"#utility.yul\":2722:2723   */\n  dup2\n    /* \"#utility.yul\":2718:2728   */\n  add\n    /* \"#utility.yul\":2713:2728   */\n  swap1\n  pop\n    /* \"#utility.yul\":2689:2802   */\n  jump(tag_74)\ntag_76:\n    /* \"#utility.yul\":2820:2826   */\n  dup4\n    /* \"#utility.yul\":2817:2818   */\n  dup2\n    /* \"#utility.yul\":2814:2827   */\n  gt\n    /* \"#utility.yul\":2811:2912   */\n  iszero\n  tag_77\n  jumpi\n    /* \"#utility.yul\":2900:2901   */\n  0x00\n    /* \"#utility.yul\":2891:2897   */\n  dup5\n    /* \"#utility.yul\":2886:2889   */\n  dup5\n    /* \"#utility.yul\":2882:2898   */\n  add\n    /* \"#utility.yul\":2875:2902   */\n  mstore\n    /* \"#utility.yul\":2811:2912   */\ntag_77:\n    /* \"#utility.yul\":2660:2918   */\n  pop\n    /* \"#utility.yul\":2611:2918   */\n  pop\n  pop\n  pop\n  jump\t// out\n    /* \"#utility.yul\":2924:3244   */\ntag_12:\n    /* \"#utility.yul\":2968:2974   */\n  0x00\n    /* \"#utility.yul\":3005:3006   */\n  0x02\n    /* \"#utility.yul\":2999:3003   */\n  dup3\n    /* \"#utility.yul\":2995:3007   */\n  div\n    /* \"#utility.yul\":2985:3007   */\n  swap1\n  pop\n    /* \"#utility.yul\":3052:3053   */\n  0x01\n    /* \"#utility.yul\":3046:3050   */\n  dup3\n    /* \"#utility.yul\":3042:3054   */\n  and\n    /* \"#utility.yul\":3073:3091   */\n  dup1\n    /* \"#utility.yul\":3063:3144   */\n  tag_79\n  jumpi\n    /* \"#utility.yul\":3129:3133   */\n  0x7f\n    /* \"#utility.yul\":3121:3127   */\n  dup3\n    /* \"#utility.yul\":3117:3134   */\n  and\n    /* \"#utility.yul\":3107:3134   */\n  swap2\n  pop\n    /* \"#utility.yul\":3063:3144   */\ntag_79:\n    /* \"#utility.yul\":3191:3193   */\n  0x20\n    /* \"#utility.yul\":3183:3189   */\n  dup3\n    /* \"#utility.yul\":3180:3194   */\n  lt\n    /* \"#utility.yul\":3160:3178   */\n  dup2\n    /* \"#utility.yul\":3157:3195   */\n  eq\n    /* \"#utility.yul\":3154:3238   */\n  iszero\n  tag_80\n  jumpi\n    /* \"#utility.yul\":3210:3228   */\n  tag_81\n  tag_82\n  jump\t// in\ntag_81:\n    /* \"#utility.yul\":3154:3238   */\ntag_80:\n    /* \"#utility.yul\":2975:3244   */\n  pop\n    /* \"#utility.yul\":2924:3244   */\n  swap2\n  swap1\n  pop\n  jump\t// out\n    /* \"#utility.yul\":3250:3531   */\ntag_57:\n    /* \"#utility.yul\":3333:3360   */\n  tag_84\n    /* \"#utility.yul\":3355:3359   */\n  dup3\n    /* \"#utility.yul\":3333:3360   */\n  tag_64\n  jump\t// in\ntag_84:\n    /* \"#utility.yul\":3325:3331   */\n  dup2\n    /* \"#utility.yul\":3321:3361   */\n  add\n    /* \"#utility.yul\":3463:3469   */\n  dup2\n    /* \"#utility.yul\":3451:3461   */\n  dup2\n    /* \"#utility.yul\":3448:3470   */\n  lt\n    /* \"#utility.yul\":3427:3445   */\n  0xffffffffffffffff\n    /* \"#utility.yul\":3415:3425   */\n  dup3\n    /* \"#utility.yul\":3412:3446   */\n  gt\n    /* \"#utility.yul\":3409:3471   */\n  or\n    /* \"#utility.yul\":3406:3494   */\n  iszero\n  tag_85\n  jumpi\n    /* \"#utility.yul\":3474:3492   */\n  tag_86\n  tag_62\n  jump\t// in\ntag_86:\n    /* \"#utility.yul\":3406:3494   */\ntag_85:\n    /* \"#utility.yul\":3514:3524   */\n  dup1\n    /* \"#utility.yul\":3510:3512   */\n  0x40\n    /* \"#utility.yul\":3503:3525   */\n  mstore\n    /* \"#utility.yul\":3293:3531   */\n  pop\n    /* \"#utility.yul\":3250:3531   */\n  pop\n  pop\n  jump\t// out\n    /* \"#utility.yul\":3537:3717   */\ntag_71:\n    /* \"#utility.yul\":3585:3662   */\n  0x4e487b7100000000000000000000000000000000000000000000000000000000\n    /* \"#utility.yul\":3582:3583   */\n  0x00\n    /* \"#utility.yul\":3575:3663   */\n  mstore\n    /* \"#utility.yul\":3682:3686   */\n  0x11\n    /* \"#utility.yul\":3679:3680   */\n  0x04\n    /* \"#utility.yul\":3672:3687   */\n  mstore\n    /* \"#utility.yul\":3706:3710   */\n  0x24\n    /* \"#utility.yul\":3703:3704   */\n  0x00\n    /* \"#utility.yul\":3696:3711   */\n  revert\n    /* \"#utility.yul\":3723:3903   */\ntag_82:\n    /* \"#utility.yul\":3771:3848   */\n  0x4e487b7100000000000000000000000000000000000000000000000000000000\n    /* \"#utility.yul\":3768:3769   */\n  0x00\n    /* \"#utility.yul\":3761:3849   */\n  mstore\n    /* \"#utility.yul\":3868:3872   */\n  0x22\n    /* \"#utility.yul\":3865:3866   */\n  0x04\n    /* \"#utility.yul\":3858:3873   */\n  mstore\n    /* \"#utility.yul\":3892:3896   */\n  0x24\n    /* \"#utility.yul\":3889:3890   */\n  0x00\n    /* \"#utility.yul\":3882:3897   */\n  revert\n    /* \"#utility.yul\":3909:4089   */\ntag_62:\n    /* \"#utility.yul\":3957:4034   */\n  0x4e487b7100000000000000000000000000000000000000000000000000000000\n    /* \"#utility.yul\":3954:3955   */\n  0x00\n    /* \"#utility.yul\":3947:4035   */\n  mstore\n    /* \"#utility.yul\":4054:4058   */\n  0x41\n    /* \"#utility.yul\":4051:4052   */\n  0x04\n    /* \"#utility.yul\":4044:4059   */\n  mstore\n    /* \"#utility.yul\":4078:4082   */\n  0x24\n    /* \"#utility.yul\":4075:4076   */\n  0x00\n    /* \"#utility.yul\":4068:4083   */\n  revert\n    /* \"#utility.yul\":4095:4212   */\ntag_38:\n    /* \"#utility.yul\":4204:4205   */\n  0x00\n    /* \"#utility.yul\":4201:4202   */\n  dup1\n    /* \"#utility.yul\":4194:4206   */\n  revert\n    /* \"#utility.yul\":4218:4335   */\ntag_31:\n    /* \"#utility.yul\":4327:4328   */\n  0x00\n    /* \"#utility.yul\":4324:4325   */\n  dup1\n    /* \"#utility.yul\":4317:4329   */\n  revert\n    /* \"#utility.yul\":4341:4458   */\ntag_51:\n    /* \"#utility.yul\":4450:4451   */\n  0x00\n    /* \"#utility.yul\":4447:4448   */\n  dup1\n    /* \"#utility.yul\":4440:4452   */\n  revert\n    /* \"#utility.yul\":4464:4581   */\ntag_47:\n    /* \"#utility.yul\":4573:4574   */\n  0x00\n    /* \"#utility.yul\":4570:4571   */\n  dup1\n    /* \"#utility.yul\":4563:4575   */\n  revert\n    /* \"#utility.yul\":4587:4689   */\ntag_64:\n    /* \"#utility.yul\":4628:4634   */\n  0x00\n    /* \"#utility.yul\":4679:4681   */\n  0x1f\n    /* \"#utility.yul\":4675:4682   */\n  not\n    /* \"#utility.yul\":4670:4672   */\n  0x1f\n    /* \"#utility.yul\":4663:4668   */\n  dup4\n    /* \"#utility.yul\":4659:4673   */\n  add\n    /* \"#utility.yul\":4655:4683   */\n  and\n    /* \"#utility.yul\":4645:4683   */\n  swap1\n  pop\n    /* \"#utility.yul\":4587:4689   */\n  swap2\n  swap1\n  pop\n  jump\t// out\n    /* \"#utility.yul\":4695:4817   */\ntag_43:\n    /* \"#utility.yul\":4768:4792   */\n  tag_96\n    /* \"#utility.yul\":4786:4791   */\n  dup2\n    /* \"#utility.yul\":4768:4792   */\n  tag_67\n  jump\t// in\ntag_96:\n    /* \"#utility.yul\":4761:4766   */\n  dup2\n    /* \"#utility.yul\":4758:4793   */\n  eq\n    /* \"#utility.yul\":4748:4811   */\n  tag_97\n  jumpi\n    /* \"#utility.yul\":4807:4808   */\n  0x00\n    /* \"#utility.yul\":4804:4805   */\n  dup1\n    /* \"#utility.yul\":4797:4809   */\n  revert\n    /* \"#utility.yul\":4748:4811   */\ntag_97:\n    /* \"#utility.yul\":4695:4817   */\n  pop\n  jump\t// out\n    /* \"contracts/myContract.sol\":76:2520  contract testContract {\r... */\ntag_10:\n  dataSize(sub_0)\n  dup1\n  dataOffset(sub_0)\n  0x00\n  codecopy\n  0x00\n  return\nstop\n\nsub_0: assembly {\n        /* \"contracts/myContract.sol\":76:2520  contract testContract {\r... */\n      mstore(0x40, 0x80)\n      jumpi(tag_1, lt(calldatasize, 0x04))\n      shr(0xe0, calldataload(0x00))\n      dup1\n      0x82d69b62\n      gt\n      tag_10\n      jumpi\n      dup1\n      0x82d69b62\n      eq\n      tag_6\n      jumpi\n      dup1\n      0x85aca317\n      eq\n      tag_7\n      jumpi\n      dup1\n      0x95961f05\n      eq\n      tag_8\n      jumpi\n      dup1\n      0xbe291999\n      eq\n      tag_9\n      jumpi\n      jump(tag_2)\n    tag_10:\n      dup1\n      0x0aa0a175\n      eq\n      tag_3\n      jumpi\n      dup1\n      0x2443877c\n      eq\n      tag_4\n      jumpi\n      dup1\n      0x534844a2\n      eq\n      tag_5\n      jumpi\n      jump(tag_2)\n    tag_1:\n      jumpi(tag_2, calldatasize)\n        /* \"contracts/myContract.sol\":2439:2454  subscriptionFee */\n      sload(0x05)\n        /* \"contracts/myContract.sol\":2425:2434  msg.value */\n      callvalue\n        /* \"contracts/myContract.sol\":2425:2454  msg.value ==  subscriptionFee */\n      eq\n        /* \"contracts/myContract.sol\":2416:2507  require( msg.value ==  subscriptionFee , \"Payment should be the subscription fee only\"    ) */\n      tag_13\n      jumpi\n      mload(0x40)\n      0x08c379a000000000000000000000000000000000000000000000000000000000\n      dup2\n      mstore\n      0x04\n      add\n      tag_14\n      swap1\n      tag_15\n      jump\t// in\n    tag_14:\n      mload(0x40)\n      dup1\n      swap2\n      sub\n      swap1\n      revert\n    tag_13:\n        /* \"contracts/myContract.sol\":76:2520  contract testContract {\r... */\n      stop\n    tag_2:\n        /* \"contracts/myContract.sol\":2295:2310  subscriptionFee */\n      sload(0x05)\n        /* \"contracts/myContract.sol\":2281:2290  msg.value */\n      callvalue\n        /* \"contracts/myContract.sol\":2281:2310  msg.value ==  subscriptionFee */\n      eq\n        /* \"contracts/myContract.sol\":2272:2363  require( msg.value ==  subscriptionFee , \"Payment should be the subscription fee only\"    ) */\n      tag_18\n      jumpi\n      mload(0x40)\n      0x08c379a000000000000000000000000000000000000000000000000000000000\n      dup2\n      mstore\n      0x04\n      add\n      tag_19\n      swap1\n      tag_15\n      jump\t// in\n    tag_19:\n      mload(0x40)\n      dup1\n      swap2\n      sub\n      swap1\n      revert\n    tag_18:\n        /* \"contracts/myContract.sol\":76:2520  contract testContract {\r... */\n      stop\n        /* \"contracts/myContract.sol\":497:527  uint256 public subscriptionFee */\n    tag_3:\n      callvalue\n      dup1\n      iszero\n      tag_20\n      jumpi\n      0x00\n      dup1\n      revert\n    tag_20:\n      pop\n      tag_21\n      tag_22\n      jump\t// in\n    tag_21:\n      mload(0x40)\n      tag_23\n      swap2\n      swap1\n      tag_24\n      jump\t// in\n    tag_23:\n      mload(0x40)\n      dup1\n      swap2\n      sub\n      swap1\n      return\n        /* \"contracts/myContract.sol\":534:559  string public channelName */\n    tag_4:\n      callvalue\n      dup1\n      iszero\n      tag_25\n      jumpi\n      0x00\n      dup1\n      revert\n    tag_25:\n      pop\n      tag_26\n      tag_27\n      jump\t// in\n    tag_26:\n      mload(0x40)\n      tag_28\n      swap2\n      swap1\n      tag_29\n      jump\t// in\n    tag_28:\n      mload(0x40)\n      dup1\n      swap2\n      sub\n      swap1\n      return\n        /* \"contracts/myContract.sol\":1245:1352  function withdrawAmount() payable public onlyOwner{\r... */\n    tag_5:\n      tag_30\n      tag_31\n      jump\t// in\n    tag_30:\n      stop\n        /* \"contracts/myContract.sol\":1602:1875  function printSubscribersList() public onlyOwner view returns(address[] memory){\r... */\n    tag_6:\n      callvalue\n      dup1\n      iszero\n      tag_32\n      jumpi\n      0x00\n      dup1\n      revert\n    tag_32:\n      pop\n      tag_33\n      tag_34\n      jump\t// in\n    tag_33:\n      mload(0x40)\n      tag_35\n      swap2\n      swap1\n      tag_36\n      jump\t// in\n    tag_35:\n      mload(0x40)\n      dup1\n      swap2\n      sub\n      swap1\n      return\n        /* \"contracts/myContract.sol\":1360:1594  function getArticleInfo(uint256 _articleNo) public view returns (articleInfo memory){\r... */\n    tag_7:\n      callvalue\n      dup1\n      iszero\n      tag_37\n      jumpi\n      0x00\n      dup1\n      revert\n    tag_37:\n      pop\n      tag_38\n      0x04\n      dup1\n      calldatasize\n      sub\n      dup2\n      add\n      swap1\n      tag_39\n      swap2\n      swap1\n      tag_40\n      jump\t// in\n    tag_39:\n      tag_41\n      jump\t// in\n    tag_38:\n      mload(0x40)\n      tag_42\n      swap2\n      swap1\n      tag_43\n      jump\t// in\n    tag_42:\n      mload(0x40)\n      dup1\n      swap2\n      sub\n      swap1\n      return\n        /* \"contracts/myContract.sol\":1883:2226  function publishArticle(string memory _articleTitle, string memory _articleCID) payable public onlyOwner {\r... */\n    tag_8:\n      tag_44\n      0x04\n      dup1\n      calldatasize\n      sub\n      dup2\n      add\n      swap1\n      tag_45\n      swap2\n      swap1\n      tag_46\n      jump\t// in\n    tag_45:\n      tag_47\n      jump\t// in\n    tag_44:\n      stop\n        /* \"contracts/myContract.sol\":1057:1237  function addSubscriber() public payable{\r... */\n    tag_9:\n      tag_48\n      tag_49\n      jump\t// in\n    tag_48:\n      stop\n        /* \"contracts/myContract.sol\":497:527  uint256 public subscriptionFee */\n    tag_22:\n      sload(0x05)\n      dup2\n      jump\t// out\n        /* \"contracts/myContract.sol\":534:559  string public channelName */\n    tag_27:\n      0x06\n      dup1\n      sload\n      tag_50\n      swap1\n      tag_51\n      jump\t// in\n    tag_50:\n      dup1\n      0x1f\n      add\n      0x20\n      dup1\n      swap2\n      div\n      mul\n      0x20\n      add\n      mload(0x40)\n      swap1\n      dup2\n      add\n      0x40\n      mstore\n      dup1\n      swap3\n      swap2\n      swap1\n      dup2\n      dup2\n      mstore\n      0x20\n      add\n      dup3\n      dup1\n      sload\n      tag_52\n      swap1\n      tag_51\n      jump\t// in\n    tag_52:\n      dup1\n      iszero\n      tag_53\n      jumpi\n      dup1\n      0x1f\n      lt\n      tag_54\n      jumpi\n      0x0100\n      dup1\n      dup4\n      sload\n      div\n      mul\n      dup4\n      mstore\n      swap2\n      0x20\n      add\n      swap2\n      jump(tag_53)\n    tag_54:\n      dup3\n      add\n      swap2\n      swap1\n      0x00\n      mstore\n      keccak256(0x00, 0x20)\n      swap1\n    tag_55:\n      dup2\n      sload\n      dup2\n      mstore\n      swap1\n      0x01\n      add\n      swap1\n      0x20\n      add\n      dup1\n      dup4\n      gt\n      tag_55\n      jumpi\n      dup3\n      swap1\n      sub\n      0x1f\n      and\n      dup3\n      add\n      swap2\n    tag_53:\n      pop\n      pop\n      pop\n      pop\n      pop\n      dup2\n      jump\t// out\n        /* \"contracts/myContract.sol\":1245:1352  function withdrawAmount() payable public onlyOwner{\r... */\n    tag_31:\n        /* \"contracts/myContract.sol\":622:628  author */\n      0x04\n      0x00\n      swap1\n      sload\n      swap1\n      0x0100\n      exp\n      swap1\n      div\n      0xffffffffffffffffffffffffffffffffffffffff\n      and\n        /* \"contracts/myContract.sol\":608:628  msg.sender == author */\n      0xffffffffffffffffffffffffffffffffffffffff\n      and\n        /* \"contracts/myContract.sol\":608:618  msg.sender */\n      caller\n        /* \"contracts/myContract.sol\":608:628  msg.sender == author */\n      0xffffffffffffffffffffffffffffffffffffffff\n      and\n      eq\n        /* \"contracts/myContract.sol\":600:666  require(msg.sender == author, \"Only author can call this method!\") */\n      tag_57\n      jumpi\n      mload(0x40)\n      0x08c379a000000000000000000000000000000000000000000000000000000000\n      dup2\n      mstore\n      0x04\n      add\n      tag_58\n      swap1\n      tag_59\n      jump\t// in\n    tag_58:\n      mload(0x40)\n      dup1\n      swap2\n      sub\n      swap1\n      revert\n    tag_57:\n        /* \"contracts/myContract.sol\":1306:1312  author */\n      0x04\n      0x00\n      swap1\n      sload\n      swap1\n      0x0100\n      exp\n      swap1\n      div\n      0xffffffffffffffffffffffffffffffffffffffff\n      and\n        /* \"contracts/myContract.sol\":1306:1321  author.transfer */\n      0xffffffffffffffffffffffffffffffffffffffff\n      and\n        /* \"contracts/myContract.sol\":1306:1344  author.transfer(address(this).balance) */\n      0x08fc\n        /* \"contracts/myContract.sol\":1322:1343  address(this).balance */\n      selfbalance\n        /* \"contracts/myContract.sol\":1306:1344  author.transfer(address(this).balance) */\n      swap1\n      dup2\n      iszero\n      mul\n      swap1\n      mload(0x40)\n      0x00\n      mload(0x40)\n      dup1\n      dup4\n      sub\n      dup2\n      dup6\n      dup9\n      dup9\n      call\n      swap4\n      pop\n      pop\n      pop\n      pop\n      iszero\n      dup1\n      iszero\n      tag_62\n      jumpi\n      returndatasize\n      0x00\n      dup1\n      returndatacopy\n      revert(0x00, returndatasize)\n    tag_62:\n      pop\n        /* \"contracts/myContract.sol\":1245:1352  function withdrawAmount() payable public onlyOwner{\r... */\n      jump\t// out\n        /* \"contracts/myContract.sol\":1602:1875  function printSubscribersList() public onlyOwner view returns(address[] memory){\r... */\n    tag_34:\n        /* \"contracts/myContract.sol\":1664:1680  address[] memory */\n      0x60\n        /* \"contracts/myContract.sol\":622:628  author */\n      0x04\n      0x00\n      swap1\n      sload\n      swap1\n      0x0100\n      exp\n      swap1\n      div\n      0xffffffffffffffffffffffffffffffffffffffff\n      and\n        /* \"contracts/myContract.sol\":608:628  msg.sender == author */\n      0xffffffffffffffffffffffffffffffffffffffff\n      and\n        /* \"contracts/myContract.sol\":608:618  msg.sender */\n      caller\n        /* \"contracts/myContract.sol\":608:628  msg.sender == author */\n      0xffffffffffffffffffffffffffffffffffffffff\n      and\n      eq\n        /* \"contracts/myContract.sol\":600:666  require(msg.sender == author, \"Only author can call this method!\") */\n      tag_64\n      jumpi\n      mload(0x40)\n      0x08c379a000000000000000000000000000000000000000000000000000000000\n      dup2\n      mstore\n      0x04\n      add\n      tag_65\n      swap1\n      tag_59\n      jump\t// in\n    tag_65:\n      mload(0x40)\n      dup1\n      swap2\n      sub\n      swap1\n      revert\n    tag_64:\n        /* \"contracts/myContract.sol\":1692:1712  address[] memory ret */\n      0x00\n        /* \"contracts/myContract.sol\":1729:1744  subscriberCount */\n      sload(0x01)\n        /* \"contracts/myContract.sol\":1715:1745  new address[](subscriberCount) */\n      0xffffffffffffffff\n      dup2\n      gt\n      iszero\n      tag_67\n      jumpi\n      tag_68\n      tag_69\n      jump\t// in\n    tag_68:\n    tag_67:\n      mload(0x40)\n      swap1\n      dup1\n      dup3\n      mstore\n      dup1\n      0x20\n      mul\n      0x20\n      add\n      dup3\n      add\n      0x40\n      mstore\n      dup1\n      iszero\n      tag_70\n      jumpi\n      dup2\n      0x20\n      add\n      0x20\n      dup3\n      mul\n      dup1\n      calldatasize\n      dup4\n      calldatacopy\n      dup1\n      dup3\n      add\n      swap2\n      pop\n      pop\n      swap1\n      pop\n    tag_70:\n      pop\n        /* \"contracts/myContract.sol\":1692:1745  address[] memory ret = new address[](subscriberCount) */\n      swap1\n      pop\n        /* \"contracts/myContract.sol\":1760:1766  uint i */\n      0x00\n        /* \"contracts/myContract.sol\":1756:1847  for(uint i = 0; i < subscriberCount; i++){\r... */\n    tag_71:\n        /* \"contracts/myContract.sol\":1776:1791  subscriberCount */\n      sload(0x01)\n        /* \"contracts/myContract.sol\":1772:1773  i */\n      dup2\n        /* \"contracts/myContract.sol\":1772:1791  i < subscriberCount */\n      lt\n        /* \"contracts/myContract.sol\":1756:1847  for(uint i = 0; i < subscriberCount; i++){\r... */\n      iszero\n      tag_72\n      jumpi\n        /* \"contracts/myContract.sol\":1821:1832  subscribers */\n      0x00\n        /* \"contracts/myContract.sol\":1821:1835  subscribers[i] */\n      dup1\n        /* \"contracts/myContract.sol\":1833:1834  i */\n      dup3\n        /* \"contracts/myContract.sol\":1821:1835  subscribers[i] */\n      dup2\n      mstore\n      0x20\n      add\n      swap1\n      dup2\n      mstore\n      0x20\n      add\n      0x00\n      keccak256\n      0x00\n      swap1\n      sload\n      swap1\n      0x0100\n      exp\n      swap1\n      div\n      0xffffffffffffffffffffffffffffffffffffffff\n      and\n        /* \"contracts/myContract.sol\":1812:1815  ret */\n      dup3\n        /* \"contracts/myContract.sol\":1816:1817  i */\n      dup3\n        /* \"contracts/myContract.sol\":1812:1818  ret[i] */\n      dup2\n      mload\n      dup2\n      lt\n      tag_74\n      jumpi\n      tag_75\n      tag_76\n      jump\t// in\n    tag_75:\n    tag_74:\n      0x20\n      mul\n      0x20\n      add\n      add\n        /* \"contracts/myContract.sol\":1812:1835  ret[i] = subscribers[i] */\n      swap1\n      0xffffffffffffffffffffffffffffffffffffffff\n      and\n      swap1\n      dup2\n      0xffffffffffffffffffffffffffffffffffffffff\n      and\n      dup2\n      mstore\n      pop\n      pop\n        /* \"contracts/myContract.sol\":1793:1796  i++ */\n      dup1\n      dup1\n      tag_77\n      swap1\n      tag_78\n      jump\t// in\n    tag_77:\n      swap2\n      pop\n      pop\n        /* \"contracts/myContract.sol\":1756:1847  for(uint i = 0; i < subscriberCount; i++){\r... */\n      jump(tag_71)\n    tag_72:\n      pop\n        /* \"contracts/myContract.sol\":1864:1867  ret */\n      dup1\n        /* \"contracts/myContract.sol\":1857:1867  return ret */\n      swap2\n      pop\n      pop\n        /* \"contracts/myContract.sol\":1602:1875  function printSubscribersList() public onlyOwner view returns(address[] memory){\r... */\n      swap1\n      jump\t// out\n        /* \"contracts/myContract.sol\":1360:1594  function getArticleInfo(uint256 _articleNo) public view returns (articleInfo memory){\r... */\n    tag_41:\n        /* \"contracts/myContract.sol\":1425:1443  articleInfo memory */\n      tag_79\n      tag_80\n      jump\t// in\n    tag_79:\n        /* \"contracts/myContract.sol\":1477:1489  articleCount */\n      sload(0x03)\n        /* \"contracts/myContract.sol\":1463:1473  _articleNo */\n      dup3\n        /* \"contracts/myContract.sol\":1463:1489  _articleNo <= articleCount */\n      gt\n      iszero\n        /* \"contracts/myContract.sol\":1455:1503  require(_articleNo <= articleCount, \"Not a val\") */\n      tag_82\n      jumpi\n      mload(0x40)\n      0x08c379a000000000000000000000000000000000000000000000000000000000\n      dup2\n      mstore\n      0x04\n      add\n      tag_83\n      swap1\n      tag_84\n      jump\t// in\n    tag_83:\n      mload(0x40)\n      dup1\n      swap2\n      sub\n      swap1\n      revert\n    tag_82:\n        /* \"contracts/myContract.sol\":1514:1536  articleInfo memory ret */\n      0x00\n        /* \"contracts/myContract.sol\":1539:1553  articleHistory */\n      0x02\n        /* \"contracts/myContract.sol\":1539:1565  articleHistory[_articleNo] */\n      0x00\n        /* \"contracts/myContract.sol\":1554:1564  _articleNo */\n      dup5\n        /* \"contracts/myContract.sol\":1539:1565  articleHistory[_articleNo] */\n      dup2\n      mstore\n      0x20\n      add\n      swap1\n      dup2\n      mstore\n      0x20\n      add\n      0x00\n      keccak256\n        /* \"contracts/myContract.sol\":1514:1565  articleInfo memory ret = articleHistory[_articleNo] */\n      mload(0x40)\n      dup1\n      0x80\n      add\n      0x40\n      mstore\n      swap1\n      dup2\n      0x00\n      dup3\n      add\n      sload\n      dup2\n      mstore\n      0x20\n      add\n      0x01\n      dup3\n      add\n      dup1\n      sload\n      tag_85\n      swap1\n      tag_51\n      jump\t// in\n    tag_85:\n      dup1\n      0x1f\n      add\n      0x20\n      dup1\n      swap2\n      div\n      mul\n      0x20\n      add\n      mload(0x40)\n      swap1\n      dup2\n      add\n      0x40\n      mstore\n      dup1\n      swap3\n      swap2\n      swap1\n      dup2\n      dup2\n      mstore\n      0x20\n      add\n      dup3\n      dup1\n      sload\n      tag_86\n      swap1\n      tag_51\n      jump\t// in\n    tag_86:\n      dup1\n      iszero\n      tag_87\n      jumpi\n      dup1\n      0x1f\n      lt\n      tag_88\n      jumpi\n      0x0100\n      dup1\n      dup4\n      sload\n      div\n      mul\n      dup4\n      mstore\n      swap2\n      0x20\n      add\n      swap2\n      jump(tag_87)\n    tag_88:\n      dup3\n      add\n      swap2\n      swap1\n      0x00\n      mstore\n      keccak256(0x00, 0x20)\n      swap1\n    tag_89:\n      dup2\n      sload\n      dup2\n      mstore\n      swap1\n      0x01\n      add\n      swap1\n      0x20\n      add\n      dup1\n      dup4\n      gt\n      tag_89\n      jumpi\n      dup3\n      swap1\n      sub\n      0x1f\n      and\n      dup3\n      add\n      swap2\n    tag_87:\n      pop\n      pop\n      pop\n      pop\n      pop\n      dup2\n      mstore\n      0x20\n      add\n      0x02\n      dup3\n      add\n      dup1\n      sload\n      tag_90\n      swap1\n      tag_51\n      jump\t// in\n    tag_90:\n      dup1\n      0x1f\n      add\n      0x20\n      dup1\n      swap2\n      div\n      mul\n      0x20\n      add\n      mload(0x40)\n      swap1\n      dup2\n      add\n      0x40\n      mstore\n      dup1\n      swap3\n      swap2\n      swap1\n      dup2\n      dup2\n      mstore\n      0x20\n      add\n      dup3\n      dup1\n      sload\n      tag_91\n      swap1\n      tag_51\n      jump\t// in\n    tag_91:\n      dup1\n      iszero\n      tag_92\n      jumpi\n      dup1\n      0x1f\n      lt\n      tag_93\n      jumpi\n      0x0100\n      dup1\n      dup4\n      sload\n      div\n      mul\n      dup4\n      mstore\n      swap2\n      0x20\n      add\n      swap2\n      jump(tag_92)\n    tag_93:\n      dup3\n      add\n      swap2\n      swap1\n      0x00\n      mstore\n      keccak256(0x00, 0x20)\n      swap1\n    tag_94:\n      dup2\n      sload\n      dup2\n      mstore\n      swap1\n      0x01\n      add\n      swap1\n      0x20\n      add\n      dup1\n      dup4\n      gt\n      tag_94\n      jumpi\n      dup3\n      swap1\n      sub\n      0x1f\n      and\n      dup3\n      add\n      swap2\n    tag_92:\n      pop\n      pop\n      pop\n      pop\n      pop\n      dup2\n      mstore\n      0x20\n      add\n      0x03\n      dup3\n      add\n      sload\n      dup2\n      mstore\n      pop\n      pop\n      swap1\n      pop\n        /* \"contracts/myContract.sol\":1583:1586  ret */\n      dup1\n        /* \"contracts/myContract.sol\":1576:1586  return ret */\n      swap2\n      pop\n      pop\n        /* \"contracts/myContract.sol\":1360:1594  function getArticleInfo(uint256 _articleNo) public view returns (articleInfo memory){\r... */\n      swap2\n      swap1\n      pop\n      jump\t// out\n        /* \"contracts/myContract.sol\":1883:2226  function publishArticle(string memory _articleTitle, string memory _articleCID) payable public onlyOwner {\r... */\n    tag_47:\n        /* \"contracts/myContract.sol\":622:628  author */\n      0x04\n      0x00\n      swap1\n      sload\n      swap1\n      0x0100\n      exp\n      swap1\n      div\n      0xffffffffffffffffffffffffffffffffffffffff\n      and\n        /* \"contracts/myContract.sol\":608:628  msg.sender == author */\n      0xffffffffffffffffffffffffffffffffffffffff\n      and\n        /* \"contracts/myContract.sol\":608:618  msg.sender */\n      caller\n        /* \"contracts/myContract.sol\":608:628  msg.sender == author */\n      0xffffffffffffffffffffffffffffffffffffffff\n      and\n      eq\n        /* \"contracts/myContract.sol\":600:666  require(msg.sender == author, \"Only author can call this method!\") */\n      tag_96\n      jumpi\n      mload(0x40)\n      0x08c379a000000000000000000000000000000000000000000000000000000000\n      dup2\n      mstore\n      0x04\n      add\n      tag_97\n      swap1\n      tag_59\n      jump\t// in\n    tag_97:\n      mload(0x40)\n      dup1\n      swap2\n      sub\n      swap1\n      revert\n    tag_96:\n        /* \"contracts/myContract.sol\":2031:2101  articleInfo(articleCount, _articleTitle, _articleCID, block.timestamp) */\n      mload(0x40)\n      dup1\n      0x80\n      add\n      0x40\n      mstore\n      dup1\n        /* \"contracts/myContract.sol\":2043:2055  articleCount */\n      sload(0x03)\n        /* \"contracts/myContract.sol\":2031:2101  articleInfo(articleCount, _articleTitle, _articleCID, block.timestamp) */\n      dup2\n      mstore\n      0x20\n      add\n        /* \"contracts/myContract.sol\":2057:2070  _articleTitle */\n      dup4\n        /* \"contracts/myContract.sol\":2031:2101  articleInfo(articleCount, _articleTitle, _articleCID, block.timestamp) */\n      dup2\n      mstore\n      0x20\n      add\n        /* \"contracts/myContract.sol\":2072:2083  _articleCID */\n      dup3\n        /* \"contracts/myContract.sol\":2031:2101  articleInfo(articleCount, _articleTitle, _articleCID, block.timestamp) */\n      dup2\n      mstore\n      0x20\n      add\n        /* \"contracts/myContract.sol\":2085:2100  block.timestamp */\n      timestamp\n        /* \"contracts/myContract.sol\":2031:2101  articleInfo(articleCount, _articleTitle, _articleCID, block.timestamp) */\n      dup2\n      mstore\n      pop\n        /* \"contracts/myContract.sol\":1999:2013  articleHistory */\n      0x02\n        /* \"contracts/myContract.sol\":1999:2027  articleHistory[articleCount] */\n      0x00\n        /* \"contracts/myContract.sol\":2014:2026  articleCount */\n      sload(0x03)\n        /* \"contracts/myContract.sol\":1999:2027  articleHistory[articleCount] */\n      dup2\n      mstore\n      0x20\n      add\n      swap1\n      dup2\n      mstore\n      0x20\n      add\n      0x00\n      keccak256\n        /* \"contracts/myContract.sol\":1999:2101  articleHistory[articleCount] =  articleInfo(articleCount, _articleTitle, _articleCID, block.timestamp) */\n      0x00\n      dup3\n      add\n      mload\n      dup2\n      0x00\n      add\n      sstore\n      0x20\n      dup3\n      add\n      mload\n      dup2\n      0x01\n      add\n      swap1\n      dup1\n      mload\n      swap1\n      0x20\n      add\n      swap1\n      tag_99\n      swap3\n      swap2\n      swap1\n      tag_100\n      jump\t// in\n    tag_99:\n      pop\n      0x40\n      dup3\n      add\n      mload\n      dup2\n      0x02\n      add\n      swap1\n      dup1\n      mload\n      swap1\n      0x20\n      add\n      swap1\n      tag_101\n      swap3\n      swap2\n      swap1\n      tag_100\n      jump\t// in\n    tag_101:\n      pop\n      0x60\n      dup3\n      add\n      mload\n      dup2\n      0x03\n      add\n      sstore\n      swap1\n      pop\n      pop\n        /* \"contracts/myContract.sol\":2112:2124  articleCount */\n      0x03\n      0x00\n        /* \"contracts/myContract.sol\":2112:2126  articleCount++ */\n      dup2\n      sload\n      dup1\n      swap3\n      swap2\n      swap1\n      tag_102\n      swap1\n      tag_78\n      jump\t// in\n    tag_102:\n      swap2\n      swap1\n      pop\n      sstore\n      pop\n        /* \"contracts/myContract.sol\":2161:2172  channelName */\n      0x06\n        /* \"contracts/myContract.sol\":2144:2218  articlePublished(channelName, _articleTitle, _articleCID, block.timestamp) */\n      mload(0x40)\n      tag_103\n      swap2\n      swap1\n      tag_104\n      jump\t// in\n    tag_103:\n      mload(0x40)\n      dup1\n      swap2\n      sub\n      swap1\n      keccak256\n      0x9009e7bf85e860bd815644b6510a84c4e537fd62acc6e9482cd84eea5167995d\n        /* \"contracts/myContract.sol\":2174:2187  _articleTitle */\n      dup4\n        /* \"contracts/myContract.sol\":2189:2200  _articleCID */\n      dup4\n        /* \"contracts/myContract.sol\":2202:2217  block.timestamp */\n      timestamp\n        /* \"contracts/myContract.sol\":2144:2218  articlePublished(channelName, _articleTitle, _articleCID, block.timestamp) */\n      mload(0x40)\n      tag_105\n      swap4\n      swap3\n      swap2\n      swap1\n      tag_106\n      jump\t// in\n    tag_105:\n      mload(0x40)\n      dup1\n      swap2\n      sub\n      swap1\n      log2\n        /* \"contracts/myContract.sol\":1883:2226  function publishArticle(string memory _articleTitle, string memory _articleCID) payable public onlyOwner {\r... */\n      pop\n      pop\n      jump\t// out\n        /* \"contracts/myContract.sol\":1057:1237  function addSubscriber() public payable{\r... */\n    tag_49:\n        /* \"contracts/myContract.sol\":1138:1148  msg.sender */\n      caller\n        /* \"contracts/myContract.sol\":1107:1118  subscribers */\n      0x00\n        /* \"contracts/myContract.sol\":1107:1135  subscribers[subscriberCount] */\n      dup1\n        /* \"contracts/myContract.sol\":1119:1134  subscriberCount */\n      sload(0x01)\n        /* \"contracts/myContract.sol\":1107:1135  subscribers[subscriberCount] */\n      dup2\n      mstore\n      0x20\n      add\n      swap1\n      dup2\n      mstore\n      0x20\n      add\n      0x00\n      keccak256\n      0x00\n        /* \"contracts/myContract.sol\":1107:1148  subscribers[subscriberCount] = msg.sender */\n      0x0100\n      exp\n      dup2\n      sload\n      dup2\n      0xffffffffffffffffffffffffffffffffffffffff\n      mul\n      not\n      and\n      swap1\n      dup4\n      0xffffffffffffffffffffffffffffffffffffffff\n      and\n      mul\n      or\n      swap1\n      sstore\n      pop\n        /* \"contracts/myContract.sol\":1159:1174  subscriberCount */\n      0x01\n      0x00\n        /* \"contracts/myContract.sol\":1159:1176  subscriberCount++ */\n      dup2\n      sload\n      dup1\n      swap3\n      swap2\n      swap1\n      tag_108\n      swap1\n      tag_78\n      jump\t// in\n    tag_108:\n      swap2\n      swap1\n      pop\n      sstore\n      pop\n        /* \"contracts/myContract.sol\":1203:1207  this */\n      address\n        /* \"contracts/myContract.sol\":1187:1218  payable(address(this)).transfer */\n      0xffffffffffffffffffffffffffffffffffffffff\n      and\n        /* \"contracts/myContract.sol\":1187:1229  payable(address(this)).transfer(msg.value) */\n      0x08fc\n        /* \"contracts/myContract.sol\":1219:1228  msg.value */\n      callvalue\n        /* \"contracts/myContract.sol\":1187:1229  payable(address(this)).transfer(msg.value) */\n      swap1\n      dup2\n      iszero\n      mul\n      swap1\n      mload(0x40)\n      0x00\n      mload(0x40)\n      dup1\n      dup4\n      sub\n      dup2\n      dup6\n      dup9\n      dup9\n      call\n      swap4\n      pop\n      pop\n      pop\n      pop\n      iszero\n      dup1\n      iszero\n      tag_110\n      jumpi\n      returndatasize\n      0x00\n      dup1\n      returndatacopy\n      revert(0x00, returndatasize)\n    tag_110:\n      pop\n        /* \"contracts/myContract.sol\":1057:1237  function addSubscriber() public payable{\r... */\n      jump\t// out\n    tag_80:\n      mload(0x40)\n      dup1\n      0x80\n      add\n      0x40\n      mstore\n      dup1\n      0x00\n      dup2\n      mstore\n      0x20\n      add\n      0x60\n      dup2\n      mstore\n      0x20\n      add\n      0x60\n      dup2\n      mstore\n      0x20\n      add\n      0x00\n      dup2\n      mstore\n      pop\n      swap1\n      jump\t// out\n    tag_100:\n      dup3\n      dup1\n      sload\n      tag_111\n      swap1\n      tag_51\n      jump\t// in\n    tag_111:\n      swap1\n      0x00\n      mstore\n      keccak256(0x00, 0x20)\n      swap1\n      0x1f\n      add\n      0x20\n      swap1\n      div\n      dup2\n      add\n      swap3\n      dup3\n      tag_113\n      jumpi\n      0x00\n      dup6\n      sstore\n      jump(tag_112)\n    tag_113:\n      dup3\n      0x1f\n      lt\n      tag_114\n      jumpi\n      dup1\n      mload\n      not(0xff)\n      and\n      dup4\n      dup1\n      add\n      or\n      dup6\n      sstore\n      jump(tag_112)\n    tag_114:\n      dup3\n      dup1\n      add\n      0x01\n      add\n      dup6\n      sstore\n      dup3\n      iszero\n      tag_112\n      jumpi\n      swap2\n      dup3\n      add\n    tag_115:\n      dup3\n      dup2\n      gt\n      iszero\n      tag_116\n      jumpi\n      dup3\n      mload\n      dup3\n      sstore\n      swap2\n      0x20\n      add\n      swap2\n      swap1\n      0x01\n      add\n      swap1\n      jump(tag_115)\n    tag_116:\n    tag_112:\n      pop\n      swap1\n      pop\n      tag_117\n      swap2\n      swap1\n      tag_118\n      jump\t// in\n    tag_117:\n      pop\n      swap1\n      jump\t// out\n    tag_118:\n    tag_119:\n      dup1\n      dup3\n      gt\n      iszero\n      tag_120\n      jumpi\n      0x00\n      dup2\n      0x00\n      swap1\n      sstore\n      pop\n      0x01\n      add\n      jump(tag_119)\n    tag_120:\n      pop\n      swap1\n      jump\t// out\n        /* \"#utility.yul\":7:419   */\n    tag_122:\n        /* \"#utility.yul\":85:90   */\n      0x00\n        /* \"#utility.yul\":110:176   */\n      tag_124\n        /* \"#utility.yul\":126:175   */\n      tag_125\n        /* \"#utility.yul\":168:174   */\n      dup5\n        /* \"#utility.yul\":126:175   */\n      tag_126\n      jump\t// in\n    tag_125:\n        /* \"#utility.yul\":110:176   */\n      tag_127\n      jump\t// in\n    tag_124:\n        /* \"#utility.yul\":101:176   */\n      swap1\n      pop\n        /* \"#utility.yul\":199:205   */\n      dup3\n        /* \"#utility.yul\":192:197   */\n      dup2\n        /* \"#utility.yul\":185:206   */\n      mstore\n        /* \"#utility.yul\":237:241   */\n      0x20\n        /* \"#utility.yul\":230:235   */\n      dup2\n        /* \"#utility.yul\":226:242   */\n      add\n        /* \"#utility.yul\":275:278   */\n      dup5\n        /* \"#utility.yul\":266:272   */\n      dup5\n        /* \"#utility.yul\":261:264   */\n      dup5\n        /* \"#utility.yul\":257:273   */\n      add\n        /* \"#utility.yul\":254:279   */\n      gt\n        /* \"#utility.yul\":251:363   */\n      iszero\n      tag_128\n      jumpi\n        /* \"#utility.yul\":282:361   */\n      tag_129\n      tag_130\n      jump\t// in\n    tag_129:\n        /* \"#utility.yul\":251:363   */\n    tag_128:\n        /* \"#utility.yul\":372:413   */\n      tag_131\n        /* \"#utility.yul\":406:412   */\n      dup5\n        /* \"#utility.yul\":401:404   */\n      dup3\n        /* \"#utility.yul\":396:399   */\n      dup6\n        /* \"#utility.yul\":372:413   */\n      tag_132\n      jump\t// in\n    tag_131:\n        /* \"#utility.yul\":91:419   */\n      pop\n        /* \"#utility.yul\":7:419   */\n      swap4\n      swap3\n      pop\n      pop\n      pop\n      jump\t// out\n        /* \"#utility.yul\":439:779   */\n    tag_133:\n        /* \"#utility.yul\":495:500   */\n      0x00\n        /* \"#utility.yul\":544:547   */\n      dup3\n        /* \"#utility.yul\":537:541   */\n      0x1f\n        /* \"#utility.yul\":529:535   */\n      dup4\n        /* \"#utility.yul\":525:542   */\n      add\n        /* \"#utility.yul\":521:548   */\n      slt\n        /* \"#utility.yul\":511:633   */\n      tag_135\n      jumpi\n        /* \"#utility.yul\":552:631   */\n      tag_136\n      tag_137\n      jump\t// in\n    tag_136:\n        /* \"#utility.yul\":511:633   */\n    tag_135:\n        /* \"#utility.yul\":669:675   */\n      dup2\n        /* \"#utility.yul\":656:676   */\n      calldataload\n        /* \"#utility.yul\":694:773   */\n      tag_138\n        /* \"#utility.yul\":769:772   */\n      dup5\n        /* \"#utility.yul\":761:767   */\n      dup3\n        /* \"#utility.yul\":754:758   */\n      0x20\n        /* \"#utility.yul\":746:752   */\n      dup7\n        /* \"#utility.yul\":742:759   */\n      add\n        /* \"#utility.yul\":694:773   */\n      tag_122\n      jump\t// in\n    tag_138:\n        /* \"#utility.yul\":685:773   */\n      swap2\n      pop\n        /* \"#utility.yul\":501:779   */\n      pop\n        /* \"#utility.yul\":439:779   */\n      swap3\n      swap2\n      pop\n      pop\n      jump\t// out\n        /* \"#utility.yul\":785:924   */\n    tag_139:\n        /* \"#utility.yul\":831:836   */\n      0x00\n        /* \"#utility.yul\":869:875   */\n      dup2\n        /* \"#utility.yul\":856:876   */\n      calldataload\n        /* \"#utility.yul\":847:876   */\n      swap1\n      pop\n        /* \"#utility.yul\":885:918   */\n      tag_141\n        /* \"#utility.yul\":912:917   */\n      dup2\n        /* \"#utility.yul\":885:918   */\n      tag_142\n      jump\t// in\n    tag_141:\n        /* \"#utility.yul\":785:924   */\n      swap3\n      swap2\n      pop\n      pop\n      jump\t// out\n        /* \"#utility.yul\":930:1764   */\n    tag_46:\n        /* \"#utility.yul\":1018:1024   */\n      0x00\n        /* \"#utility.yul\":1026:1032   */\n      dup1\n        /* \"#utility.yul\":1075:1077   */\n      0x40\n        /* \"#utility.yul\":1063:1072   */\n      dup4\n        /* \"#utility.yul\":1054:1061   */\n      dup6\n        /* \"#utility.yul\":1050:1073   */\n      sub\n        /* \"#utility.yul\":1046:1078   */\n      slt\n        /* \"#utility.yul\":1043:1162   */\n      iszero\n      tag_144\n      jumpi\n        /* \"#utility.yul\":1081:1160   */\n      tag_145\n      tag_146\n      jump\t// in\n    tag_145:\n        /* \"#utility.yul\":1043:1162   */\n    tag_144:\n        /* \"#utility.yul\":1229:1230   */\n      0x00\n        /* \"#utility.yul\":1218:1227   */\n      dup4\n        /* \"#utility.yul\":1214:1231   */\n      add\n        /* \"#utility.yul\":1201:1232   */\n      calldataload\n        /* \"#utility.yul\":1259:1277   */\n      0xffffffffffffffff\n        /* \"#utility.yul\":1251:1257   */\n      dup2\n        /* \"#utility.yul\":1248:1278   */\n      gt\n        /* \"#utility.yul\":1245:1362   */\n      iszero\n      tag_147\n      jumpi\n        /* \"#utility.yul\":1281:1360   */\n      tag_148\n      tag_149\n      jump\t// in\n    tag_148:\n        /* \"#utility.yul\":1245:1362   */\n    tag_147:\n        /* \"#utility.yul\":1386:1449   */\n      tag_150\n        /* \"#utility.yul\":1441:1448   */\n      dup6\n        /* \"#utility.yul\":1432:1438   */\n      dup3\n        /* \"#utility.yul\":1421:1430   */\n      dup7\n        /* \"#utility.yul\":1417:1439   */\n      add\n        /* \"#utility.yul\":1386:1449   */\n      tag_133\n      jump\t// in\n    tag_150:\n        /* \"#utility.yul\":1376:1449   */\n      swap3\n      pop\n        /* \"#utility.yul\":1172:1459   */\n      pop\n        /* \"#utility.yul\":1526:1528   */\n      0x20\n        /* \"#utility.yul\":1515:1524   */\n      dup4\n        /* \"#utility.yul\":1511:1529   */\n      add\n        /* \"#utility.yul\":1498:1530   */\n      calldataload\n        /* \"#utility.yul\":1557:1575   */\n      0xffffffffffffffff\n        /* \"#utility.yul\":1549:1555   */\n      dup2\n        /* \"#utility.yul\":1546:1576   */\n      gt\n        /* \"#utility.yul\":1543:1660   */\n      iszero\n      tag_151\n      jumpi\n        /* \"#utility.yul\":1579:1658   */\n      tag_152\n      tag_149\n      jump\t// in\n    tag_152:\n        /* \"#utility.yul\":1543:1660   */\n    tag_151:\n        /* \"#utility.yul\":1684:1747   */\n      tag_153\n        /* \"#utility.yul\":1739:1746   */\n      dup6\n        /* \"#utility.yul\":1730:1736   */\n      dup3\n        /* \"#utility.yul\":1719:1728   */\n      dup7\n        /* \"#utility.yul\":1715:1737   */\n      add\n        /* \"#utility.yul\":1684:1747   */\n      tag_133\n      jump\t// in\n    tag_153:\n        /* \"#utility.yul\":1674:1747   */\n      swap2\n      pop\n        /* \"#utility.yul\":1469:1757   */\n      pop\n        /* \"#utility.yul\":930:1764   */\n      swap3\n      pop\n      swap3\n      swap1\n      pop\n      jump\t// out\n        /* \"#utility.yul\":1770:2099   */\n    tag_40:\n        /* \"#utility.yul\":1829:1835   */\n      0x00\n        /* \"#utility.yul\":1878:1880   */\n      0x20\n        /* \"#utility.yul\":1866:1875   */\n      dup3\n        /* \"#utility.yul\":1857:1864   */\n      dup5\n        /* \"#utility.yul\":1853:1876   */\n      sub\n        /* \"#utility.yul\":1849:1881   */\n      slt\n        /* \"#utility.yul\":1846:1965   */\n      iszero\n      tag_155\n      jumpi\n        /* \"#utility.yul\":1884:1963   */\n      tag_156\n      tag_146\n      jump\t// in\n    tag_156:\n        /* \"#utility.yul\":1846:1965   */\n    tag_155:\n        /* \"#utility.yul\":2004:2005   */\n      0x00\n        /* \"#utility.yul\":2029:2082   */\n      tag_157\n        /* \"#utility.yul\":2074:2081   */\n      dup5\n        /* \"#utility.yul\":2065:2071   */\n      dup3\n        /* \"#utility.yul\":2054:2063   */\n      dup6\n        /* \"#utility.yul\":2050:2072   */\n      add\n        /* \"#utility.yul\":2029:2082   */\n      tag_139\n      jump\t// in\n    tag_157:\n        /* \"#utility.yul\":2019:2082   */\n      swap2\n      pop\n        /* \"#utility.yul\":1975:2092   */\n      pop\n        /* \"#utility.yul\":1770:2099   */\n      swap3\n      swap2\n      pop\n      pop\n      jump\t// out\n        /* \"#utility.yul\":2105:2284   */\n    tag_158:\n        /* \"#utility.yul\":2174:2184   */\n      0x00\n        /* \"#utility.yul\":2195:2241   */\n      tag_160\n        /* \"#utility.yul\":2237:2240   */\n      dup4\n        /* \"#utility.yul\":2229:2235   */\n      dup4\n        /* \"#utility.yul\":2195:2241   */\n      tag_161\n      jump\t// in\n    tag_160:\n        /* \"#utility.yul\":2273:2277   */\n      0x20\n        /* \"#utility.yul\":2268:2271   */\n      dup4\n        /* \"#utility.yul\":2264:2278   */\n      add\n        /* \"#utility.yul\":2250:2278   */\n      swap1\n      pop\n        /* \"#utility.yul\":2105:2284   */\n      swap3\n      swap2\n      pop\n      pop\n      jump\t// out\n        /* \"#utility.yul\":2290:2398   */\n    tag_161:\n        /* \"#utility.yul\":2367:2391   */\n      tag_163\n        /* \"#utility.yul\":2385:2390   */\n      dup2\n        /* \"#utility.yul\":2367:2391   */\n      tag_164\n      jump\t// in\n    tag_163:\n        /* \"#utility.yul\":2362:2365   */\n      dup3\n        /* \"#utility.yul\":2355:2392   */\n      mstore\n        /* \"#utility.yul\":2290:2398   */\n      pop\n      pop\n      jump\t// out\n        /* \"#utility.yul\":2434:3166   */\n    tag_165:\n        /* \"#utility.yul\":2553:2556   */\n      0x00\n        /* \"#utility.yul\":2582:2636   */\n      tag_167\n        /* \"#utility.yul\":2630:2635   */\n      dup3\n        /* \"#utility.yul\":2582:2636   */\n      tag_168\n      jump\t// in\n    tag_167:\n        /* \"#utility.yul\":2652:2738   */\n      tag_169\n        /* \"#utility.yul\":2731:2737   */\n      dup2\n        /* \"#utility.yul\":2726:2729   */\n      dup6\n        /* \"#utility.yul\":2652:2738   */\n      tag_170\n      jump\t// in\n    tag_169:\n        /* \"#utility.yul\":2645:2738   */\n      swap4\n      pop\n        /* \"#utility.yul\":2762:2818   */\n      tag_171\n        /* \"#utility.yul\":2812:2817   */\n      dup4\n        /* \"#utility.yul\":2762:2818   */\n      tag_172\n      jump\t// in\n    tag_171:\n        /* \"#utility.yul\":2841:2848   */\n      dup1\n        /* \"#utility.yul\":2872:2873   */\n      0x00\n        /* \"#utility.yul\":2857:3141   */\n    tag_173:\n        /* \"#utility.yul\":2882:2888   */\n      dup4\n        /* \"#utility.yul\":2879:2880   */\n      dup2\n        /* \"#utility.yul\":2876:2889   */\n      lt\n        /* \"#utility.yul\":2857:3141   */\n      iszero\n      tag_175\n      jumpi\n        /* \"#utility.yul\":2958:2964   */\n      dup2\n        /* \"#utility.yul\":2952:2965   */\n      mload\n        /* \"#utility.yul\":2985:3048   */\n      tag_176\n        /* \"#utility.yul\":3044:3047   */\n      dup9\n        /* \"#utility.yul\":3029:3042   */\n      dup3\n        /* \"#utility.yul\":2985:3048   */\n      tag_158\n      jump\t// in\n    tag_176:\n        /* \"#utility.yul\":2978:3048   */\n      swap8\n      pop\n        /* \"#utility.yul\":3071:3131   */\n      tag_177\n        /* \"#utility.yul\":3124:3130   */\n      dup4\n        /* \"#utility.yul\":3071:3131   */\n      tag_178\n      jump\t// in\n    tag_177:\n        /* \"#utility.yul\":3061:3131   */\n      swap3\n      pop\n        /* \"#utility.yul\":2917:3141   */\n      pop\n        /* \"#utility.yul\":2904:2905   */\n      0x01\n        /* \"#utility.yul\":2901:2902   */\n      dup2\n        /* \"#utility.yul\":2897:2906   */\n      add\n        /* \"#utility.yul\":2892:2906   */\n      swap1\n      pop\n        /* \"#utility.yul\":2857:3141   */\n      jump(tag_173)\n    tag_175:\n        /* \"#utility.yul\":2861:2875   */\n      pop\n        /* \"#utility.yul\":3157:3160   */\n      dup6\n        /* \"#utility.yul\":3150:3160   */\n      swap4\n      pop\n        /* \"#utility.yul\":2558:3166   */\n      pop\n      pop\n      pop\n        /* \"#utility.yul\":2434:3166   */\n      swap3\n      swap2\n      pop\n      pop\n      jump\t// out\n        /* \"#utility.yul\":3172:3516   */\n    tag_179:\n        /* \"#utility.yul\":3250:3253   */\n      0x00\n        /* \"#utility.yul\":3278:3317   */\n      tag_181\n        /* \"#utility.yul\":3311:3316   */\n      dup3\n        /* \"#utility.yul\":3278:3317   */\n      tag_182\n      jump\t// in\n    tag_181:\n        /* \"#utility.yul\":3333:3394   */\n      tag_183\n        /* \"#utility.yul\":3387:3393   */\n      dup2\n        /* \"#utility.yul\":3382:3385   */\n      dup6\n        /* \"#utility.yul\":3333:3394   */\n      tag_184\n      jump\t// in\n    tag_183:\n        /* \"#utility.yul\":3326:3394   */\n      swap4\n      pop\n        /* \"#utility.yul\":3403:3455   */\n      tag_185\n        /* \"#utility.yul\":3448:3454   */\n      dup2\n        /* \"#utility.yul\":3443:3446   */\n      dup6\n        /* \"#utility.yul\":3436:3440   */\n      0x20\n        /* \"#utility.yul\":3429:3434   */\n      dup7\n        /* \"#utility.yul\":3425:3441   */\n      add\n        /* \"#utility.yul\":3403:3455   */\n      tag_186\n      jump\t// in\n    tag_185:\n        /* \"#utility.yul\":3480:3509   */\n      tag_187\n        /* \"#utility.yul\":3502:3508   */\n      dup2\n        /* \"#utility.yul\":3480:3509   */\n      tag_188\n      jump\t// in\n    tag_187:\n        /* \"#utility.yul\":3475:3478   */\n      dup5\n        /* \"#utility.yul\":3471:3510   */\n      add\n        /* \"#utility.yul\":3464:3510   */\n      swap2\n      pop\n        /* \"#utility.yul\":3254:3516   */\n      pop\n        /* \"#utility.yul\":3172:3516   */\n      swap3\n      swap2\n      pop\n      pop\n      jump\t// out\n        /* \"#utility.yul\":3522:3886   */\n    tag_189:\n        /* \"#utility.yul\":3610:3613   */\n      0x00\n        /* \"#utility.yul\":3638:3677   */\n      tag_191\n        /* \"#utility.yul\":3671:3676   */\n      dup3\n        /* \"#utility.yul\":3638:3677   */\n      tag_182\n      jump\t// in\n    tag_191:\n        /* \"#utility.yul\":3693:3764   */\n      tag_192\n        /* \"#utility.yul\":3757:3763   */\n      dup2\n        /* \"#utility.yul\":3752:3755   */\n      dup6\n        /* \"#utility.yul\":3693:3764   */\n      tag_193\n      jump\t// in\n    tag_192:\n        /* \"#utility.yul\":3686:3764   */\n      swap4\n      pop\n        /* \"#utility.yul\":3773:3825   */\n      tag_194\n        /* \"#utility.yul\":3818:3824   */\n      dup2\n        /* \"#utility.yul\":3813:3816   */\n      dup6\n        /* \"#utility.yul\":3806:3810   */\n      0x20\n        /* \"#utility.yul\":3799:3804   */\n      dup7\n        /* \"#utility.yul\":3795:3811   */\n      add\n        /* \"#utility.yul\":3773:3825   */\n      tag_186\n      jump\t// in\n    tag_194:\n        /* \"#utility.yul\":3850:3879   */\n      tag_195\n        /* \"#utility.yul\":3872:3878   */\n      dup2\n        /* \"#utility.yul\":3850:3879   */\n      tag_188\n      jump\t// in\n    tag_195:\n        /* \"#utility.yul\":3845:3848   */\n      dup5\n        /* \"#utility.yul\":3841:3880   */\n      add\n        /* \"#utility.yul\":3834:3880   */\n      swap2\n      pop\n        /* \"#utility.yul\":3614:3886   */\n      pop\n        /* \"#utility.yul\":3522:3886   */\n      swap3\n      swap2\n      pop\n      pop\n      jump\t// out\n        /* \"#utility.yul\":3916:4761   */\n    tag_196:\n        /* \"#utility.yul\":4019:4022   */\n      0x00\n        /* \"#utility.yul\":4056:4061   */\n      dup2\n        /* \"#utility.yul\":4050:4062   */\n      sload\n        /* \"#utility.yul\":4085:4121   */\n      tag_198\n        /* \"#utility.yul\":4111:4120   */\n      dup2\n        /* \"#utility.yul\":4085:4121   */\n      tag_51\n      jump\t// in\n    tag_198:\n        /* \"#utility.yul\":4137:4226   */\n      tag_199\n        /* \"#utility.yul\":4219:4225   */\n      dup2\n        /* \"#utility.yul\":4214:4217   */\n      dup7\n        /* \"#utility.yul\":4137:4226   */\n      tag_200\n      jump\t// in\n    tag_199:\n        /* \"#utility.yul\":4130:4226   */\n      swap5\n      pop\n        /* \"#utility.yul\":4257:4258   */\n      0x01\n        /* \"#utility.yul\":4246:4255   */\n      dup3\n        /* \"#utility.yul\":4242:4259   */\n      and\n        /* \"#utility.yul\":4273:4274   */\n      0x00\n        /* \"#utility.yul\":4268:4405   */\n      dup2\n      eq\n      tag_202\n      jumpi\n        /* \"#utility.yul\":4419:4420   */\n      0x01\n        /* \"#utility.yul\":4414:4755   */\n      dup2\n      eq\n      tag_203\n      jumpi\n        /* \"#utility.yul\":4235:4755   */\n      jump(tag_201)\n        /* \"#utility.yul\":4268:4405   */\n    tag_202:\n        /* \"#utility.yul\":4352:4356   */\n      0xff\n        /* \"#utility.yul\":4348:4357   */\n      not\n        /* \"#utility.yul\":4337:4346   */\n      dup4\n        /* \"#utility.yul\":4333:4358   */\n      and\n        /* \"#utility.yul\":4328:4331   */\n      dup7\n        /* \"#utility.yul\":4321:4359   */\n      mstore\n        /* \"#utility.yul\":4388:4394   */\n      dup2\n        /* \"#utility.yul\":4383:4386   */\n      dup7\n        /* \"#utility.yul\":4379:4395   */\n      add\n        /* \"#utility.yul\":4372:4395   */\n      swap4\n      pop\n        /* \"#utility.yul\":4268:4405   */\n      jump(tag_201)\n        /* \"#utility.yul\":4414:4755   */\n    tag_203:\n        /* \"#utility.yul\":4481:4519   */\n      tag_204\n        /* \"#utility.yul\":4513:4518   */\n      dup6\n        /* \"#utility.yul\":4481:4519   */\n      tag_205\n      jump\t// in\n    tag_204:\n        /* \"#utility.yul\":4541:4542   */\n      0x00\n        /* \"#utility.yul\":4555:4709   */\n    tag_206:\n        /* \"#utility.yul\":4569:4575   */\n      dup4\n        /* \"#utility.yul\":4566:4567   */\n      dup2\n        /* \"#utility.yul\":4563:4576   */\n      lt\n        /* \"#utility.yul\":4555:4709   */\n      iszero\n      tag_208\n      jumpi\n        /* \"#utility.yul\":4643:4650   */\n      dup2\n        /* \"#utility.yul\":4637:4651   */\n      sload\n        /* \"#utility.yul\":4633:4634   */\n      dup2\n        /* \"#utility.yul\":4628:4631   */\n      dup10\n        /* \"#utility.yul\":4624:4635   */\n      add\n        /* \"#utility.yul\":4617:4652   */\n      mstore\n        /* \"#utility.yul\":4693:4694   */\n      0x01\n        /* \"#utility.yul\":4684:4691   */\n      dup3\n        /* \"#utility.yul\":4680:4695   */\n      add\n        /* \"#utility.yul\":4669:4695   */\n      swap2\n      pop\n        /* \"#utility.yul\":4591:4595   */\n      0x20\n        /* \"#utility.yul\":4588:4589   */\n      dup2\n        /* \"#utility.yul\":4584:4596   */\n      add\n        /* \"#utility.yul\":4579:4596   */\n      swap1\n      pop\n        /* \"#utility.yul\":4555:4709   */\n      jump(tag_206)\n    tag_208:\n        /* \"#utility.yul\":4738:4744   */\n      dup4\n        /* \"#utility.yul\":4733:4736   */\n      dup9\n        /* \"#utility.yul\":4729:4745   */\n      add\n        /* \"#utility.yul\":4722:4745   */\n      swap6\n      pop\n        /* \"#utility.yul\":4421:4755   */\n      pop\n      pop\n        /* \"#utility.yul\":4235:4755   */\n    tag_201:\n      pop\n        /* \"#utility.yul\":4023:4761   */\n      pop\n      pop\n        /* \"#utility.yul\":3916:4761   */\n      swap3\n      swap2\n      pop\n      pop\n      jump\t// out\n        /* \"#utility.yul\":4767:5133   */\n    tag_209:\n        /* \"#utility.yul\":4909:4912   */\n      0x00\n        /* \"#utility.yul\":4930:4997   */\n      tag_211\n        /* \"#utility.yul\":4994:4996   */\n      0x2b\n        /* \"#utility.yul\":4989:4992   */\n      dup4\n        /* \"#utility.yul\":4930:4997   */\n      tag_193\n      jump\t// in\n    tag_211:\n        /* \"#utility.yul\":4923:4997   */\n      swap2\n      pop\n        /* \"#utility.yul\":5006:5099   */\n      tag_212\n        /* \"#utility.yul\":5095:5098   */\n      dup3\n        /* \"#utility.yul\":5006:5099   */\n      tag_213\n      jump\t// in\n    tag_212:\n        /* \"#utility.yul\":5124:5126   */\n      0x40\n        /* \"#utility.yul\":5119:5122   */\n      dup3\n        /* \"#utility.yul\":5115:5127   */\n      add\n        /* \"#utility.yul\":5108:5127   */\n      swap1\n      pop\n        /* \"#utility.yul\":4767:5133   */\n      swap2\n      swap1\n      pop\n      jump\t// out\n        /* \"#utility.yul\":5139:5505   */\n    tag_214:\n        /* \"#utility.yul\":5281:5284   */\n      0x00\n        /* \"#utility.yul\":5302:5369   */\n      tag_216\n        /* \"#utility.yul\":5366:5368   */\n      0x21\n        /* \"#utility.yul\":5361:5364   */\n      dup4\n        /* \"#utility.yul\":5302:5369   */\n      tag_193\n      jump\t// in\n    tag_216:\n        /* \"#utility.yul\":5295:5369   */\n      swap2\n      pop\n        /* \"#utility.yul\":5378:5471   */\n      tag_217\n        /* \"#utility.yul\":5467:5470   */\n      dup3\n        /* \"#utility.yul\":5378:5471   */\n      tag_218\n      jump\t// in\n    tag_217:\n        /* \"#utility.yul\":5496:5498   */\n      0x40\n        /* \"#utility.yul\":5491:5494   */\n      dup3\n        /* \"#utility.yul\":5487:5499   */\n      add\n        /* \"#utility.yul\":5480:5499   */\n      swap1\n      pop\n        /* \"#utility.yul\":5139:5505   */\n      swap2\n      swap1\n      pop\n      jump\t// out\n        /* \"#utility.yul\":5511:5876   */\n    tag_219:\n        /* \"#utility.yul\":5653:5656   */\n      0x00\n        /* \"#utility.yul\":5674:5740   */\n      tag_221\n        /* \"#utility.yul\":5738:5739   */\n      0x09\n        /* \"#utility.yul\":5733:5736   */\n      dup4\n        /* \"#utility.yul\":5674:5740   */\n      tag_193\n      jump\t// in\n    tag_221:\n        /* \"#utility.yul\":5667:5740   */\n      swap2\n      pop\n        /* \"#utility.yul\":5749:5842   */\n      tag_222\n        /* \"#utility.yul\":5838:5841   */\n      dup3\n        /* \"#utility.yul\":5749:5842   */\n      tag_223\n      jump\t// in\n    tag_222:\n        /* \"#utility.yul\":5867:5869   */\n      0x20\n        /* \"#utility.yul\":5862:5865   */\n      dup3\n        /* \"#utility.yul\":5858:5870   */\n      add\n        /* \"#utility.yul\":5851:5870   */\n      swap1\n      pop\n        /* \"#utility.yul\":5511:5876   */\n      swap2\n      swap1\n      pop\n      jump\t// out\n        /* \"#utility.yul\":5956:7016   */\n    tag_224:\n        /* \"#utility.yul\":6079:6082   */\n      0x00\n        /* \"#utility.yul\":6115:6119   */\n      0x80\n        /* \"#utility.yul\":6110:6113   */\n      dup4\n        /* \"#utility.yul\":6106:6120   */\n      add\n        /* \"#utility.yul\":6207:6211   */\n      0x00\n        /* \"#utility.yul\":6200:6205   */\n      dup4\n        /* \"#utility.yul\":6196:6212   */\n      add\n        /* \"#utility.yul\":6190:6213   */\n      mload\n        /* \"#utility.yul\":6226:6289   */\n      tag_226\n        /* \"#utility.yul\":6283:6287   */\n      0x00\n        /* \"#utility.yul\":6278:6281   */\n      dup7\n        /* \"#utility.yul\":6274:6288   */\n      add\n        /* \"#utility.yul\":6260:6272   */\n      dup3\n        /* \"#utility.yul\":6226:6289   */\n      tag_227\n      jump\t// in\n    tag_226:\n        /* \"#utility.yul\":6130:6299   */\n      pop\n        /* \"#utility.yul\":6389:6393   */\n      0x20\n        /* \"#utility.yul\":6382:6387   */\n      dup4\n        /* \"#utility.yul\":6378:6394   */\n      add\n        /* \"#utility.yul\":6372:6395   */\n      mload\n        /* \"#utility.yul\":6442:6445   */\n      dup5\n        /* \"#utility.yul\":6436:6440   */\n      dup3\n        /* \"#utility.yul\":6432:6446   */\n      sub\n        /* \"#utility.yul\":6425:6429   */\n      0x20\n        /* \"#utility.yul\":6420:6423   */\n      dup7\n        /* \"#utility.yul\":6416:6430   */\n      add\n        /* \"#utility.yul\":6409:6447   */\n      mstore\n        /* \"#utility.yul\":6468:6541   */\n      tag_228\n        /* \"#utility.yul\":6536:6540   */\n      dup3\n        /* \"#utility.yul\":6522:6534   */\n      dup3\n        /* \"#utility.yul\":6468:6541   */\n      tag_179\n      jump\t// in\n    tag_228:\n        /* \"#utility.yul\":6460:6541   */\n      swap2\n      pop\n        /* \"#utility.yul\":6309:6552   */\n      pop\n        /* \"#utility.yul\":6640:6644   */\n      0x40\n        /* \"#utility.yul\":6633:6638   */\n      dup4\n        /* \"#utility.yul\":6629:6645   */\n      add\n        /* \"#utility.yul\":6623:6646   */\n      mload\n        /* \"#utility.yul\":6693:6696   */\n      dup5\n        /* \"#utility.yul\":6687:6691   */\n      dup3\n        /* \"#utility.yul\":6683:6697   */\n      sub\n        /* \"#utility.yul\":6676:6680   */\n      0x40\n        /* \"#utility.yul\":6671:6674   */\n      dup7\n        /* \"#utility.yul\":6667:6681   */\n      add\n        /* \"#utility.yul\":6660:6698   */\n      mstore\n        /* \"#utility.yul\":6719:6792   */\n      tag_229\n        /* \"#utility.yul\":6787:6791   */\n      dup3\n        /* \"#utility.yul\":6773:6785   */\n      dup3\n        /* \"#utility.yul\":6719:6792   */\n      tag_179\n      jump\t// in\n    tag_229:\n        /* \"#utility.yul\":6711:6792   */\n      swap2\n      pop\n        /* \"#utility.yul\":6562:6803   */\n      pop\n        /* \"#utility.yul\":6897:6901   */\n      0x60\n        /* \"#utility.yul\":6890:6895   */\n      dup4\n        /* \"#utility.yul\":6886:6902   */\n      add\n        /* \"#utility.yul\":6880:6903   */\n      mload\n        /* \"#utility.yul\":6916:6979   */\n      tag_230\n        /* \"#utility.yul\":6973:6977   */\n      0x60\n        /* \"#utility.yul\":6968:6971   */\n      dup7\n        /* \"#utility.yul\":6964:6978   */\n      add\n        /* \"#utility.yul\":6950:6962   */\n      dup3\n        /* \"#utility.yul\":6916:6979   */\n      tag_227\n      jump\t// in\n    tag_230:\n        /* \"#utility.yul\":6813:6989   */\n      pop\n        /* \"#utility.yul\":7006:7010   */\n      dup1\n        /* \"#utility.yul\":6999:7010   */\n      swap2\n      pop\n        /* \"#utility.yul\":6084:7016   */\n      pop\n        /* \"#utility.yul\":5956:7016   */\n      swap3\n      swap2\n      pop\n      pop\n      jump\t// out\n        /* \"#utility.yul\":7022:7130   */\n    tag_227:\n        /* \"#utility.yul\":7099:7123   */\n      tag_232\n        /* \"#utility.yul\":7117:7122   */\n      dup2\n        /* \"#utility.yul\":7099:7123   */\n      tag_233\n      jump\t// in\n    tag_232:\n        /* \"#utility.yul\":7094:7097   */\n      dup3\n        /* \"#utility.yul\":7087:7124   */\n      mstore\n        /* \"#utility.yul\":7022:7130   */\n      pop\n      pop\n      jump\t// out\n        /* \"#utility.yul\":7136:7254   */\n    tag_234:\n        /* \"#utility.yul\":7223:7247   */\n      tag_236\n        /* \"#utility.yul\":7241:7246   */\n      dup2\n        /* \"#utility.yul\":7223:7247   */\n      tag_233\n      jump\t// in\n    tag_236:\n        /* \"#utility.yul\":7218:7221   */\n      dup3\n        /* \"#utility.yul\":7211:7248   */\n      mstore\n        /* \"#utility.yul\":7136:7254   */\n      pop\n      pop\n      jump\t// out\n        /* \"#utility.yul\":7260:7529   */\n    tag_104:\n        /* \"#utility.yul\":7389:7392   */\n      0x00\n        /* \"#utility.yul\":7411:7503   */\n      tag_238\n        /* \"#utility.yul\":7499:7502   */\n      dup3\n        /* \"#utility.yul\":7490:7496   */\n      dup5\n        /* \"#utility.yul\":7411:7503   */\n      tag_196\n      jump\t// in\n    tag_238:\n        /* \"#utility.yul\":7404:7503   */\n      swap2\n      pop\n        /* \"#utility.yul\":7520:7523   */\n      dup2\n        /* \"#utility.yul\":7513:7523   */\n      swap1\n      pop\n        /* \"#utility.yul\":7260:7529   */\n      swap3\n      swap2\n      pop\n      pop\n      jump\t// out\n        /* \"#utility.yul\":7535:7908   */\n    tag_36:\n        /* \"#utility.yul\":7678:7682   */\n      0x00\n        /* \"#utility.yul\":7716:7718   */\n      0x20\n        /* \"#utility.yul\":7705:7714   */\n      dup3\n        /* \"#utility.yul\":7701:7719   */\n      add\n        /* \"#utility.yul\":7693:7719   */\n      swap1\n      pop\n        /* \"#utility.yul\":7765:7774   */\n      dup2\n        /* \"#utility.yul\":7759:7763   */\n      dup2\n        /* \"#utility.yul\":7755:7775   */\n      sub\n        /* \"#utility.yul\":7751:7752   */\n      0x00\n        /* \"#utility.yul\":7740:7749   */\n      dup4\n        /* \"#utility.yul\":7736:7753   */\n      add\n        /* \"#utility.yul\":7729:7776   */\n      mstore\n        /* \"#utility.yul\":7793:7901   */\n      tag_240\n        /* \"#utility.yul\":7896:7900   */\n      dup2\n        /* \"#utility.yul\":7887:7893   */\n      dup5\n        /* \"#utility.yul\":7793:7901   */\n      tag_165\n      jump\t// in\n    tag_240:\n        /* \"#utility.yul\":7785:7901   */\n      swap1\n      pop\n        /* \"#utility.yul\":7535:7908   */\n      swap3\n      swap2\n      pop\n      pop\n      jump\t// out\n        /* \"#utility.yul\":7914:8227   */\n    tag_29:\n        /* \"#utility.yul\":8027:8031   */\n      0x00\n        /* \"#utility.yul\":8065:8067   */\n      0x20\n        /* \"#utility.yul\":8054:8063   */\n      dup3\n        /* \"#utility.yul\":8050:8068   */\n      add\n        /* \"#utility.yul\":8042:8068   */\n      swap1\n      pop\n        /* \"#utility.yul\":8114:8123   */\n      dup2\n        /* \"#utility.yul\":8108:8112   */\n      dup2\n        /* \"#utility.yul\":8104:8124   */\n      sub\n        /* \"#utility.yul\":8100:8101   */\n      0x00\n        /* \"#utility.yul\":8089:8098   */\n      dup4\n        /* \"#utility.yul\":8085:8102   */\n      add\n        /* \"#utility.yul\":8078:8125   */\n      mstore\n        /* \"#utility.yul\":8142:8220   */\n      tag_242\n        /* \"#utility.yul\":8215:8219   */\n      dup2\n        /* \"#utility.yul\":8206:8212   */\n      dup5\n        /* \"#utility.yul\":8142:8220   */\n      tag_189\n      jump\t// in\n    tag_242:\n        /* \"#utility.yul\":8134:8220   */\n      swap1\n      pop\n        /* \"#utility.yul\":7914:8227   */\n      swap3\n      swap2\n      pop\n      pop\n      jump\t// out\n        /* \"#utility.yul\":8233:8857   */\n    tag_106:\n        /* \"#utility.yul\":8422:8426   */\n      0x00\n        /* \"#utility.yul\":8460:8462   */\n      0x60\n        /* \"#utility.yul\":8449:8458   */\n      dup3\n        /* \"#utility.yul\":8445:8463   */\n      add\n        /* \"#utility.yul\":8437:8463   */\n      swap1\n      pop\n        /* \"#utility.yul\":8509:8518   */\n      dup2\n        /* \"#utility.yul\":8503:8507   */\n      dup2\n        /* \"#utility.yul\":8499:8519   */\n      sub\n        /* \"#utility.yul\":8495:8496   */\n      0x00\n        /* \"#utility.yul\":8484:8493   */\n      dup4\n        /* \"#utility.yul\":8480:8497   */\n      add\n        /* \"#utility.yul\":8473:8520   */\n      mstore\n        /* \"#utility.yul\":8537:8615   */\n      tag_244\n        /* \"#utility.yul\":8610:8614   */\n      dup2\n        /* \"#utility.yul\":8601:8607   */\n      dup7\n        /* \"#utility.yul\":8537:8615   */\n      tag_189\n      jump\t// in\n    tag_244:\n        /* \"#utility.yul\":8529:8615   */\n      swap1\n      pop\n        /* \"#utility.yul\":8662:8671   */\n      dup2\n        /* \"#utility.yul\":8656:8660   */\n      dup2\n        /* \"#utility.yul\":8652:8672   */\n      sub\n        /* \"#utility.yul\":8647:8649   */\n      0x20\n        /* \"#utility.yul\":8636:8645   */\n      dup4\n        /* \"#utility.yul\":8632:8650   */\n      add\n        /* \"#utility.yul\":8625:8673   */\n      mstore\n        /* \"#utility.yul\":8690:8768   */\n      tag_245\n        /* \"#utility.yul\":8763:8767   */\n      dup2\n        /* \"#utility.yul\":8754:8760   */\n      dup6\n        /* \"#utility.yul\":8690:8768   */\n      tag_189\n      jump\t// in\n    tag_245:\n        /* \"#utility.yul\":8682:8768   */\n      swap1\n      pop\n        /* \"#utility.yul\":8778:8850   */\n      tag_246\n        /* \"#utility.yul\":8846:8848   */\n      0x40\n        /* \"#utility.yul\":8835:8844   */\n      dup4\n        /* \"#utility.yul\":8831:8849   */\n      add\n        /* \"#utility.yul\":8822:8828   */\n      dup5\n        /* \"#utility.yul\":8778:8850   */\n      tag_234\n      jump\t// in\n    tag_246:\n        /* \"#utility.yul\":8233:8857   */\n      swap5\n      swap4\n      pop\n      pop\n      pop\n      pop\n      jump\t// out\n        /* \"#utility.yul\":8863:9282   */\n    tag_15:\n        /* \"#utility.yul\":9029:9033   */\n      0x00\n        /* \"#utility.yul\":9067:9069   */\n      0x20\n        /* \"#utility.yul\":9056:9065   */\n      dup3\n        /* \"#utility.yul\":9052:9070   */\n      add\n        /* \"#utility.yul\":9044:9070   */\n      swap1\n      pop\n        /* \"#utility.yul\":9116:9125   */\n      dup2\n        /* \"#utility.yul\":9110:9114   */\n      dup2\n        /* \"#utility.yul\":9106:9126   */\n      sub\n        /* \"#utility.yul\":9102:9103   */\n      0x00\n        /* \"#utility.yul\":9091:9100   */\n      dup4\n        /* \"#utility.yul\":9087:9104   */\n      add\n        /* \"#utility.yul\":9080:9127   */\n      mstore\n        /* \"#utility.yul\":9144:9275   */\n      tag_248\n        /* \"#utility.yul\":9270:9274   */\n      dup2\n        /* \"#utility.yul\":9144:9275   */\n      tag_209\n      jump\t// in\n    tag_248:\n        /* \"#utility.yul\":9136:9275   */\n      swap1\n      pop\n        /* \"#utility.yul\":8863:9282   */\n      swap2\n      swap1\n      pop\n      jump\t// out\n        /* \"#utility.yul\":9288:9707   */\n    tag_59:\n        /* \"#utility.yul\":9454:9458   */\n      0x00\n        /* \"#utility.yul\":9492:9494   */\n      0x20\n        /* \"#utility.yul\":9481:9490   */\n      dup3\n        /* \"#utility.yul\":9477:9495   */\n      add\n        /* \"#utility.yul\":9469:9495   */\n      swap1\n      pop\n        /* \"#utility.yul\":9541:9550   */\n      dup2\n        /* \"#utility.yul\":9535:9539   */\n      dup2\n        /* \"#utility.yul\":9531:9551   */\n      sub\n        /* \"#utility.yul\":9527:9528   */\n      0x00\n        /* \"#utility.yul\":9516:9525   */\n      dup4\n        /* \"#utility.yul\":9512:9529   */\n      add\n        /* \"#utility.yul\":9505:9552   */\n      mstore\n        /* \"#utility.yul\":9569:9700   */\n      tag_250\n        /* \"#utility.yul\":9695:9699   */\n      dup2\n        /* \"#utility.yul\":9569:9700   */\n      tag_214\n      jump\t// in\n    tag_250:\n        /* \"#utility.yul\":9561:9700   */\n      swap1\n      pop\n        /* \"#utility.yul\":9288:9707   */\n      swap2\n      swap1\n      pop\n      jump\t// out\n        /* \"#utility.yul\":9713:10132   */\n    tag_84:\n        /* \"#utility.yul\":9879:9883   */\n      0x00\n        /* \"#utility.yul\":9917:9919   */\n      0x20\n        /* \"#utility.yul\":9906:9915   */\n      dup3\n        /* \"#utility.yul\":9902:9920   */\n      add\n        /* \"#utility.yul\":9894:9920   */\n      swap1\n      pop\n        /* \"#utility.yul\":9966:9975   */\n      dup2\n        /* \"#utility.yul\":9960:9964   */\n      dup2\n        /* \"#utility.yul\":9956:9976   */\n      sub\n        /* \"#utility.yul\":9952:9953   */\n      0x00\n        /* \"#utility.yul\":9941:9950   */\n      dup4\n        /* \"#utility.yul\":9937:9954   */\n      add\n        /* \"#utility.yul\":9930:9977   */\n      mstore\n        /* \"#utility.yul\":9994:10125   */\n      tag_252\n        /* \"#utility.yul\":10120:10124   */\n      dup2\n        /* \"#utility.yul\":9994:10125   */\n      tag_219\n      jump\t// in\n    tag_252:\n        /* \"#utility.yul\":9986:10125   */\n      swap1\n      pop\n        /* \"#utility.yul\":9713:10132   */\n      swap2\n      swap1\n      pop\n      jump\t// out\n        /* \"#utility.yul\":10138:10519   */\n    tag_43:\n        /* \"#utility.yul\":10285:10289   */\n      0x00\n        /* \"#utility.yul\":10323:10325   */\n      0x20\n        /* \"#utility.yul\":10312:10321   */\n      dup3\n        /* \"#utility.yul\":10308:10326   */\n      add\n        /* \"#utility.yul\":10300:10326   */\n      swap1\n      pop\n        /* \"#utility.yul\":10372:10381   */\n      dup2\n        /* \"#utility.yul\":10366:10370   */\n      dup2\n        /* \"#utility.yul\":10362:10382   */\n      sub\n        /* \"#utility.yul\":10358:10359   */\n      0x00\n        /* \"#utility.yul\":10347:10356   */\n      dup4\n        /* \"#utility.yul\":10343:10360   */\n      add\n        /* \"#utility.yul\":10336:10383   */\n      mstore\n        /* \"#utility.yul\":10400:10512   */\n      tag_254\n        /* \"#utility.yul\":10507:10511   */\n      dup2\n        /* \"#utility.yul\":10498:10504   */\n      dup5\n        /* \"#utility.yul\":10400:10512   */\n      tag_224\n      jump\t// in\n    tag_254:\n        /* \"#utility.yul\":10392:10512   */\n      swap1\n      pop\n        /* \"#utility.yul\":10138:10519   */\n      swap3\n      swap2\n      pop\n      pop\n      jump\t// out\n        /* \"#utility.yul\":10525:10747   */\n    tag_24:\n        /* \"#utility.yul\":10618:10622   */\n      0x00\n        /* \"#utility.yul\":10656:10658   */\n      0x20\n        /* \"#utility.yul\":10645:10654   */\n      dup3\n        /* \"#utility.yul\":10641:10659   */\n      add\n        /* \"#utility.yul\":10633:10659   */\n      swap1\n      pop\n        /* \"#utility.yul\":10669:10740   */\n      tag_256\n        /* \"#utility.yul\":10737:10738   */\n      0x00\n        /* \"#utility.yul\":10726:10735   */\n      dup4\n        /* \"#utility.yul\":10722:10739   */\n      add\n        /* \"#utility.yul\":10713:10719   */\n      dup5\n        /* \"#utility.yul\":10669:10740   */\n      tag_234\n      jump\t// in\n    tag_256:\n        /* \"#utility.yul\":10525:10747   */\n      swap3\n      swap2\n      pop\n      pop\n      jump\t// out\n        /* \"#utility.yul\":10753:10882   */\n    tag_127:\n        /* \"#utility.yul\":10787:10793   */\n      0x00\n        /* \"#utility.yul\":10814:10834   */\n      tag_258\n      tag_259\n      jump\t// in\n    tag_258:\n        /* \"#utility.yul\":10804:10834   */\n      swap1\n      pop\n        /* \"#utility.yul\":10843:10876   */\n      tag_260\n        /* \"#utility.yul\":10871:10875   */\n      dup3\n        /* \"#utility.yul\":10863:10869   */\n      dup3\n        /* \"#utility.yul\":10843:10876   */\n      tag_261\n      jump\t// in\n    tag_260:\n        /* \"#utility.yul\":10753:10882   */\n      swap2\n      swap1\n      pop\n      jump\t// out\n        /* \"#utility.yul\":10888:10963   */\n    tag_259:\n        /* \"#utility.yul\":10921:10927   */\n      0x00\n        /* \"#utility.yul\":10954:10956   */\n      0x40\n        /* \"#utility.yul\":10948:10957   */\n      mload\n        /* \"#utility.yul\":10938:10957   */\n      swap1\n      pop\n        /* \"#utility.yul\":10888:10963   */\n      swap1\n      jump\t// out\n        /* \"#utility.yul\":10969:11277   */\n    tag_126:\n        /* \"#utility.yul\":11031:11035   */\n      0x00\n        /* \"#utility.yul\":11121:11139   */\n      0xffffffffffffffff\n        /* \"#utility.yul\":11113:11119   */\n      dup3\n        /* \"#utility.yul\":11110:11140   */\n      gt\n        /* \"#utility.yul\":11107:11163   */\n      iszero\n      tag_264\n      jumpi\n        /* \"#utility.yul\":11143:11161   */\n      tag_265\n      tag_69\n      jump\t// in\n    tag_265:\n        /* \"#utility.yul\":11107:11163   */\n    tag_264:\n        /* \"#utility.yul\":11181:11210   */\n      tag_266\n        /* \"#utility.yul\":11203:11209   */\n      dup3\n        /* \"#utility.yul\":11181:11210   */\n      tag_188\n      jump\t// in\n    tag_266:\n        /* \"#utility.yul\":11173:11210   */\n      swap1\n      pop\n        /* \"#utility.yul\":11265:11269   */\n      0x20\n        /* \"#utility.yul\":11259:11263   */\n      dup2\n        /* \"#utility.yul\":11255:11270   */\n      add\n        /* \"#utility.yul\":11247:11270   */\n      swap1\n      pop\n        /* \"#utility.yul\":10969:11277   */\n      swap2\n      swap1\n      pop\n      jump\t// out\n        /* \"#utility.yul\":11283:11415   */\n    tag_172:\n        /* \"#utility.yul\":11350:11354   */\n      0x00\n        /* \"#utility.yul\":11373:11376   */\n      dup2\n        /* \"#utility.yul\":11365:11376   */\n      swap1\n      pop\n        /* \"#utility.yul\":11403:11407   */\n      0x20\n        /* \"#utility.yul\":11398:11401   */\n      dup3\n        /* \"#utility.yul\":11394:11408   */\n      add\n        /* \"#utility.yul\":11386:11408   */\n      swap1\n      pop\n        /* \"#utility.yul\":11283:11415   */\n      swap2\n      swap1\n      pop\n      jump\t// out\n        /* \"#utility.yul\":11421:11562   */\n    tag_205:\n        /* \"#utility.yul\":11470:11474   */\n      0x00\n        /* \"#utility.yul\":11493:11496   */\n      dup2\n        /* \"#utility.yul\":11485:11496   */\n      swap1\n      pop\n        /* \"#utility.yul\":11516:11519   */\n      dup2\n        /* \"#utility.yul\":11513:11514   */\n      0x00\n        /* \"#utility.yul\":11506:11520   */\n      mstore\n        /* \"#utility.yul\":11550:11554   */\n      0x20\n        /* \"#utility.yul\":11547:11548   */\n      0x00\n        /* \"#utility.yul\":11537:11555   */\n      keccak256\n        /* \"#utility.yul\":11529:11555   */\n      swap1\n      pop\n        /* \"#utility.yul\":11421:11562   */\n      swap2\n      swap1\n      pop\n      jump\t// out\n        /* \"#utility.yul\":11568:11682   */\n    tag_168:\n        /* \"#utility.yul\":11635:11641   */\n      0x00\n        /* \"#utility.yul\":11669:11674   */\n      dup2\n        /* \"#utility.yul\":11663:11675   */\n      mload\n        /* \"#utility.yul\":11653:11675   */\n      swap1\n      pop\n        /* \"#utility.yul\":11568:11682   */\n      swap2\n      swap1\n      pop\n      jump\t// out\n        /* \"#utility.yul\":11688:11787   */\n    tag_182:\n        /* \"#utility.yul\":11740:11746   */\n      0x00\n        /* \"#utility.yul\":11774:11779   */\n      dup2\n        /* \"#utility.yul\":11768:11780   */\n      mload\n        /* \"#utility.yul\":11758:11780   */\n      swap1\n      pop\n        /* \"#utility.yul\":11688:11787   */\n      swap2\n      swap1\n      pop\n      jump\t// out\n        /* \"#utility.yul\":11793:11906   */\n    tag_178:\n        /* \"#utility.yul\":11863:11867   */\n      0x00\n        /* \"#utility.yul\":11895:11899   */\n      0x20\n        /* \"#utility.yul\":11890:11893   */\n      dup3\n        /* \"#utility.yul\":11886:11900   */\n      add\n        /* \"#utility.yul\":11878:11900   */\n      swap1\n      pop\n        /* \"#utility.yul\":11793:11906   */\n      swap2\n      swap1\n      pop\n      jump\t// out\n        /* \"#utility.yul\":11912:12096   */\n    tag_170:\n        /* \"#utility.yul\":12011:12022   */\n      0x00\n        /* \"#utility.yul\":12045:12051   */\n      dup3\n        /* \"#utility.yul\":12040:12043   */\n      dup3\n        /* \"#utility.yul\":12033:12052   */\n      mstore\n        /* \"#utility.yul\":12085:12089   */\n      0x20\n        /* \"#utility.yul\":12080:12083   */\n      dup3\n        /* \"#utility.yul\":12076:12090   */\n      add\n        /* \"#utility.yul\":12061:12090   */\n      swap1\n      pop\n        /* \"#utility.yul\":11912:12096   */\n      swap3\n      swap2\n      pop\n      pop\n      jump\t// out\n        /* \"#utility.yul\":12102:12261   */\n    tag_184:\n        /* \"#utility.yul\":12176:12187   */\n      0x00\n        /* \"#utility.yul\":12210:12216   */\n      dup3\n        /* \"#utility.yul\":12205:12208   */\n      dup3\n        /* \"#utility.yul\":12198:12217   */\n      mstore\n        /* \"#utility.yul\":12250:12254   */\n      0x20\n        /* \"#utility.yul\":12245:12248   */\n      dup3\n        /* \"#utility.yul\":12241:12255   */\n      add\n        /* \"#utility.yul\":12226:12255   */\n      swap1\n      pop\n        /* \"#utility.yul\":12102:12261   */\n      swap3\n      swap2\n      pop\n      pop\n      jump\t// out\n        /* \"#utility.yul\":12267:12436   */\n    tag_193:\n        /* \"#utility.yul\":12351:12362   */\n      0x00\n        /* \"#utility.yul\":12385:12391   */\n      dup3\n        /* \"#utility.yul\":12380:12383   */\n      dup3\n        /* \"#utility.yul\":12373:12392   */\n      mstore\n        /* \"#utility.yul\":12425:12429   */\n      0x20\n        /* \"#utility.yul\":12420:12423   */\n      dup3\n        /* \"#utility.yul\":12416:12430   */\n      add\n        /* \"#utility.yul\":12401:12430   */\n      swap1\n      pop\n        /* \"#utility.yul\":12267:12436   */\n      swap3\n      swap2\n      pop\n      pop\n      jump\t// out\n        /* \"#utility.yul\":12442:12590   */\n    tag_200:\n        /* \"#utility.yul\":12544:12555   */\n      0x00\n        /* \"#utility.yul\":12581:12584   */\n      dup2\n        /* \"#utility.yul\":12566:12584   */\n      swap1\n      pop\n        /* \"#utility.yul\":12442:12590   */\n      swap3\n      swap2\n      pop\n      pop\n      jump\t// out\n        /* \"#utility.yul\":12596:12692   */\n    tag_164:\n        /* \"#utility.yul\":12633:12640   */\n      0x00\n        /* \"#utility.yul\":12662:12686   */\n      tag_277\n        /* \"#utility.yul\":12680:12685   */\n      dup3\n        /* \"#utility.yul\":12662:12686   */\n      tag_278\n      jump\t// in\n    tag_277:\n        /* \"#utility.yul\":12651:12686   */\n      swap1\n      pop\n        /* \"#utility.yul\":12596:12692   */\n      swap2\n      swap1\n      pop\n      jump\t// out\n        /* \"#utility.yul\":12698:12824   */\n    tag_278:\n        /* \"#utility.yul\":12735:12742   */\n      0x00\n        /* \"#utility.yul\":12775:12817   */\n      0xffffffffffffffffffffffffffffffffffffffff\n        /* \"#utility.yul\":12768:12773   */\n      dup3\n        /* \"#utility.yul\":12764:12818   */\n      and\n        /* \"#utility.yul\":12753:12818   */\n      swap1\n      pop\n        /* \"#utility.yul\":12698:12824   */\n      swap2\n      swap1\n      pop\n      jump\t// out\n        /* \"#utility.yul\":12830:12907   */\n    tag_233:\n        /* \"#utility.yul\":12867:12874   */\n      0x00\n        /* \"#utility.yul\":12896:12901   */\n      dup2\n        /* \"#utility.yul\":12885:12901   */\n      swap1\n      pop\n        /* \"#utility.yul\":12830:12907   */\n      swap2\n      swap1\n      pop\n      jump\t// out\n        /* \"#utility.yul\":12913:13067   */\n    tag_132:\n        /* \"#utility.yul\":12997:13003   */\n      dup3\n        /* \"#utility.yul\":12992:12995   */\n      dup2\n        /* \"#utility.yul\":12987:12990   */\n      dup4\n        /* \"#utility.yul\":12974:13004   */\n      calldatacopy\n        /* \"#utility.yul\":13059:13060   */\n      0x00\n        /* \"#utility.yul\":13050:13056   */\n      dup4\n        /* \"#utility.yul\":13045:13048   */\n      dup4\n        /* \"#utility.yul\":13041:13057   */\n      add\n        /* \"#utility.yul\":13034:13061   */\n      mstore\n        /* \"#utility.yul\":12913:13067   */\n      pop\n      pop\n      pop\n      jump\t// out\n        /* \"#utility.yul\":13073:13380   */\n    tag_186:\n        /* \"#utility.yul\":13141:13142   */\n      0x00\n        /* \"#utility.yul\":13151:13264   */\n    tag_283:\n        /* \"#utility.yul\":13165:13171   */\n      dup4\n        /* \"#utility.yul\":13162:13163   */\n      dup2\n        /* \"#utility.yul\":13159:13172   */\n      lt\n        /* \"#utility.yul\":13151:13264   */\n      iszero\n      tag_285\n      jumpi\n        /* \"#utility.yul\":13250:13251   */\n      dup1\n        /* \"#utility.yul\":13245:13248   */\n      dup3\n        /* \"#utility.yul\":13241:13252   */\n      add\n        /* \"#utility.yul\":13235:13253   */\n      mload\n        /* \"#utility.yul\":13231:13232   */\n      dup2\n        /* \"#utility.yul\":13226:13229   */\n      dup5\n        /* \"#utility.yul\":13222:13233   */\n      add\n        /* \"#utility.yul\":13215:13254   */\n      mstore\n        /* \"#utility.yul\":13187:13189   */\n      0x20\n        /* \"#utility.yul\":13184:13185   */\n      dup2\n        /* \"#utility.yul\":13180:13190   */\n      add\n        /* \"#utility.yul\":13175:13190   */\n      swap1\n      pop\n        /* \"#utility.yul\":13151:13264   */\n      jump(tag_283)\n    tag_285:\n        /* \"#utility.yul\":13282:13288   */\n      dup4\n        /* \"#utility.yul\":13279:13280   */\n      dup2\n        /* \"#utility.yul\":13276:13289   */\n      gt\n        /* \"#utility.yul\":13273:13374   */\n      iszero\n      tag_286\n      jumpi\n        /* \"#utility.yul\":13362:13363   */\n      0x00\n        /* \"#utility.yul\":13353:13359   */\n      dup5\n        /* \"#utility.yul\":13348:13351   */\n      dup5\n        /* \"#utility.yul\":13344:13360   */\n      add\n        /* \"#utility.yul\":13337:13364   */\n      mstore\n        /* \"#utility.yul\":13273:13374   */\n    tag_286:\n        /* \"#utility.yul\":13122:13380   */\n      pop\n        /* \"#utility.yul\":13073:13380   */\n      pop\n      pop\n      pop\n      jump\t// out\n        /* \"#utility.yul\":13386:13706   */\n    tag_51:\n        /* \"#utility.yul\":13430:13436   */\n      0x00\n        /* \"#utility.yul\":13467:13468   */\n      0x02\n        /* \"#utility.yul\":13461:13465   */\n      dup3\n        /* \"#utility.yul\":13457:13469   */\n      div\n        /* \"#utility.yul\":13447:13469   */\n      swap1\n      pop\n        /* \"#utility.yul\":13514:13515   */\n      0x01\n        /* \"#utility.yul\":13508:13512   */\n      dup3\n        /* \"#utility.yul\":13504:13516   */\n      and\n        /* \"#utility.yul\":13535:13553   */\n      dup1\n        /* \"#utility.yul\":13525:13606   */\n      tag_288\n      jumpi\n        /* \"#utility.yul\":13591:13595   */\n      0x7f\n        /* \"#utility.yul\":13583:13589   */\n      dup3\n        /* \"#utility.yul\":13579:13596   */\n      and\n        /* \"#utility.yul\":13569:13596   */\n      swap2\n      pop\n        /* \"#utility.yul\":13525:13606   */\n    tag_288:\n        /* \"#utility.yul\":13653:13655   */\n      0x20\n        /* \"#utility.yul\":13645:13651   */\n      dup3\n        /* \"#utility.yul\":13642:13656   */\n      lt\n        /* \"#utility.yul\":13622:13640   */\n      dup2\n        /* \"#utility.yul\":13619:13657   */\n      eq\n        /* \"#utility.yul\":13616:13700   */\n      iszero\n      tag_289\n      jumpi\n        /* \"#utility.yul\":13672:13690   */\n      tag_290\n      tag_291\n      jump\t// in\n    tag_290:\n        /* \"#utility.yul\":13616:13700   */\n    tag_289:\n        /* \"#utility.yul\":13437:13706   */\n      pop\n        /* \"#utility.yul\":13386:13706   */\n      swap2\n      swap1\n      pop\n      jump\t// out\n        /* \"#utility.yul\":13712:13993   */\n    tag_261:\n        /* \"#utility.yul\":13795:13822   */\n      tag_293\n        /* \"#utility.yul\":13817:13821   */\n      dup3\n        /* \"#utility.yul\":13795:13822   */\n      tag_188\n      jump\t// in\n    tag_293:\n        /* \"#utility.yul\":13787:13793   */\n      dup2\n        /* \"#utility.yul\":13783:13823   */\n      add\n        /* \"#utility.yul\":13925:13931   */\n      dup2\n        /* \"#utility.yul\":13913:13923   */\n      dup2\n        /* \"#utility.yul\":13910:13932   */\n      lt\n        /* \"#utility.yul\":13889:13907   */\n      0xffffffffffffffff\n        /* \"#utility.yul\":13877:13887   */\n      dup3\n        /* \"#utility.yul\":13874:13908   */\n      gt\n        /* \"#utility.yul\":13871:13933   */\n      or\n        /* \"#utility.yul\":13868:13956   */\n      iszero\n      tag_294\n      jumpi\n        /* \"#utility.yul\":13936:13954   */\n      tag_295\n      tag_69\n      jump\t// in\n    tag_295:\n        /* \"#utility.yul\":13868:13956   */\n    tag_294:\n        /* \"#utility.yul\":13976:13986   */\n      dup1\n        /* \"#utility.yul\":13972:13974   */\n      0x40\n        /* \"#utility.yul\":13965:13987   */\n      mstore\n        /* \"#utility.yul\":13755:13993   */\n      pop\n        /* \"#utility.yul\":13712:13993   */\n      pop\n      pop\n      jump\t// out\n        /* \"#utility.yul\":13999:14232   */\n    tag_78:\n        /* \"#utility.yul\":14038:14041   */\n      0x00\n        /* \"#utility.yul\":14061:14085   */\n      tag_297\n        /* \"#utility.yul\":14079:14084   */\n      dup3\n        /* \"#utility.yul\":14061:14085   */\n      tag_233\n      jump\t// in\n    tag_297:\n        /* \"#utility.yul\":14052:14085   */\n      swap2\n      pop\n        /* \"#utility.yul\":14107:14173   */\n      0xffffffffffffffffffffffffffffffffffffffffffffffffffffffffffffffff\n        /* \"#utility.yul\":14100:14105   */\n      dup3\n        /* \"#utility.yul\":14097:14174   */\n      eq\n        /* \"#utility.yul\":14094:14197   */\n      iszero\n      tag_298\n      jumpi\n        /* \"#utility.yul\":14177:14195   */\n      tag_299\n      tag_300\n      jump\t// in\n    tag_299:\n        /* \"#utility.yul\":14094:14197   */\n    tag_298:\n        /* \"#utility.yul\":14224:14225   */\n      0x01\n        /* \"#utility.yul\":14217:14222   */\n      dup3\n        /* \"#utility.yul\":14213:14226   */\n      add\n        /* \"#utility.yul\":14206:14226   */\n      swap1\n      pop\n        /* \"#utility.yul\":13999:14232   */\n      swap2\n      swap1\n      pop\n      jump\t// out\n        /* \"#utility.yul\":14238:14418   */\n    tag_300:\n        /* \"#utility.yul\":14286:14363   */\n      0x4e487b7100000000000000000000000000000000000000000000000000000000\n        /* \"#utility.yul\":14283:14284   */\n      0x00\n        /* \"#utility.yul\":14276:14364   */\n      mstore\n        /* \"#utility.yul\":14383:14387   */\n      0x11\n        /* \"#utility.yul\":14380:14381   */\n      0x04\n        /* \"#utility.yul\":14373:14388   */\n      mstore\n        /* \"#utility.yul\":14407:14411   */\n      0x24\n        /* \"#utility.yul\":14404:14405   */\n      0x00\n        /* \"#utility.yul\":14397:14412   */\n      revert\n        /* \"#utility.yul\":14424:14604   */\n    tag_291:\n        /* \"#utility.yul\":14472:14549   */\n      0x4e487b7100000000000000000000000000000000000000000000000000000000\n        /* \"#utility.yul\":14469:14470   */\n      0x00\n        /* \"#utility.yul\":14462:14550   */\n      mstore\n        /* \"#utility.yul\":14569:14573   */\n      0x22\n        /* \"#utility.yul\":14566:14567   */\n      0x04\n        /* \"#utility.yul\":14559:14574   */\n      mstore\n        /* \"#utility.yul\":14593:14597   */\n      0x24\n        /* \"#utility.yul\":14590:14591   */\n      0x00\n        /* \"#utility.yul\":14583:14598   */\n      revert\n        /* \"#utility.yul\":14610:14790   */\n    tag_76:\n        /* \"#utility.yul\":14658:14735   */\n      0x4e487b7100000000000000000000000000000000000000000000000000000000\n        /* \"#utility.yul\":14655:14656   */\n      0x00\n        /* \"#utility.yul\":14648:14736   */\n      mstore\n        /* \"#utility.yul\":14755:14759   */\n      0x32\n        /* \"#utility.yul\":14752:14753   */\n      0x04\n        /* \"#utility.yul\":14745:14760   */\n      mstore\n        /* \"#utility.yul\":14779:14783   */\n      0x24\n        /* \"#utility.yul\":14776:14777   */\n      0x00\n        /* \"#utility.yul\":14769:14784   */\n      revert\n        /* \"#utility.yul\":14796:14976   */\n    tag_69:\n        /* \"#utility.yul\":14844:14921   */\n      0x4e487b7100000000000000000000000000000000000000000000000000000000\n        /* \"#utility.yul\":14841:14842   */\n      0x00\n        /* \"#utility.yul\":14834:14922   */\n      mstore\n        /* \"#utility.yul\":14941:14945   */\n      0x41\n        /* \"#utility.yul\":14938:14939   */\n      0x04\n        /* \"#utility.yul\":14931:14946   */\n      mstore\n        /* \"#utility.yul\":14965:14969   */\n      0x24\n        /* \"#utility.yul\":14962:14963   */\n      0x00\n        /* \"#utility.yul\":14955:14970   */\n      revert\n        /* \"#utility.yul\":14982:15099   */\n    tag_137:\n        /* \"#utility.yul\":15091:15092   */\n      0x00\n        /* \"#utility.yul\":15088:15089   */\n      dup1\n        /* \"#utility.yul\":15081:15093   */\n      revert\n        /* \"#utility.yul\":15105:15222   */\n    tag_130:\n        /* \"#utility.yul\":15214:15215   */\n      0x00\n        /* \"#utility.yul\":15211:15212   */\n      dup1\n        /* \"#utility.yul\":15204:15216   */\n      revert\n        /* \"#utility.yul\":15228:15345   */\n    tag_149:\n        /* \"#utility.yul\":15337:15338   */\n      0x00\n        /* \"#utility.yul\":15334:15335   */\n      dup1\n        /* \"#utility.yul\":15327:15339   */\n      revert\n        /* \"#utility.yul\":15351:15468   */\n    tag_146:\n        /* \"#utility.yul\":15460:15461   */\n      0x00\n        /* \"#utility.yul\":15457:15458   */\n      dup1\n        /* \"#utility.yul\":15450:15462   */\n      revert\n        /* \"#utility.yul\":15474:15576   */\n    tag_188:\n        /* \"#utility.yul\":15515:15521   */\n      0x00\n        /* \"#utility.yul\":15566:15568   */\n      0x1f\n        /* \"#utility.yul\":15562:15569   */\n      not\n        /* \"#utility.yul\":15557:15559   */\n      0x1f\n        /* \"#utility.yul\":15550:15555   */\n      dup4\n        /* \"#utility.yul\":15546:15560   */\n      add\n        /* \"#utility.yul\":15542:15570   */\n      and\n        /* \"#utility.yul\":15532:15570   */\n      swap1\n      pop\n        /* \"#utility.yul\":15474:15576   */\n      swap2\n      swap1\n      pop\n      jump\t// out\n        /* \"#utility.yul\":15582:15812   */\n    tag_213:\n        /* \"#utility.yul\":15722:15756   */\n      0x5061796d656e742073686f756c64206265207468652073756273637269707469\n        /* \"#utility.yul\":15718:15719   */\n      0x00\n        /* \"#utility.yul\":15710:15716   */\n      dup3\n        /* \"#utility.yul\":15706:15720   */\n      add\n        /* \"#utility.yul\":15699:15757   */\n      mstore\n        /* \"#utility.yul\":15791:15804   */\n      0x6f6e20666565206f6e6c79000000000000000000000000000000000000000000\n        /* \"#utility.yul\":15786:15788   */\n      0x20\n        /* \"#utility.yul\":15778:15784   */\n      dup3\n        /* \"#utility.yul\":15774:15789   */\n      add\n        /* \"#utility.yul\":15767:15805   */\n      mstore\n        /* \"#utility.yul\":15582:15812   */\n      pop\n      jump\t// out\n        /* \"#utility.yul\":15818:16038   */\n    tag_218:\n        /* \"#utility.yul\":15958:15992   */\n      0x4f6e6c7920617574686f722063616e2063616c6c2074686973206d6574686f64\n        /* \"#utility.yul\":15954:15955   */\n      0x00\n        /* \"#utility.yul\":15946:15952   */\n      dup3\n        /* \"#utility.yul\":15942:15956   */\n      add\n        /* \"#utility.yul\":15935:15993   */\n      mstore\n        /* \"#utility.yul\":16027:16030   */\n      0x2100000000000000000000000000000000000000000000000000000000000000\n        /* \"#utility.yul\":16022:16024   */\n      0x20\n        /* \"#utility.yul\":16014:16020   */\n      dup3\n        /* \"#utility.yul\":16010:16025   */\n      add\n        /* \"#utility.yul\":16003:16031   */\n      mstore\n        /* \"#utility.yul\":15818:16038   */\n      pop\n      jump\t// out\n        /* \"#utility.yul\":16044:16203   */\n    tag_223:\n        /* \"#utility.yul\":16184:16195   */\n      0x4e6f7420612076616c0000000000000000000000000000000000000000000000\n        /* \"#utility.yul\":16180:16181   */\n      0x00\n        /* \"#utility.yul\":16172:16178   */\n      dup3\n        /* \"#utility.yul\":16168:16182   */\n      add\n        /* \"#utility.yul\":16161:16196   */\n      mstore\n        /* \"#utility.yul\":16044:16203   */\n      pop\n      jump\t// out\n        /* \"#utility.yul\":16209:16331   */\n    tag_142:\n        /* \"#utility.yul\":16282:16306   */\n      tag_314\n        /* \"#utility.yul\":16300:16305   */\n      dup2\n        /* \"#utility.yul\":16282:16306   */\n      tag_233\n      jump\t// in\n    tag_314:\n        /* \"#utility.yul\":16275:16280   */\n      dup2\n        /* \"#utility.yul\":16272:16307   */\n      eq\n        /* \"#utility.yul\":16262:16325   */\n      tag_315\n      jumpi\n        /* \"#utility.yul\":16321:16322   */\n      0x00\n        /* \"#utility.yul\":16318:16319   */\n      dup1\n        /* \"#utility.yul\":16311:16323   */\n      revert\n        /* \"#utility.yul\":16262:16325   */\n    tag_315:\n        /* \"#utility.yul\":16209:16331   */\n      pop\n      jump\t// out\n\n    auxdata: 0xa26469706673582212209c95aba19cf0ae2f7bf57e50df864958ff77dedaa370e51bd3044db922d596df64736f6c63430008070033\n}\n",
				"bytecode": {
					"linkReferences": {},
					"object": "60806040523480156200001157600080fd5b506040516200173e3803806200173e833981810160405281019062000037919062000206565b33600460006101000a81548173ffffffffffffffffffffffffffffffffffffffff021916908373ffffffffffffffffffffffffffffffffffffffff160217905550633b9aca00826200008a9190620002cb565b6005819055508060069080519060200190620000a8929190620000c1565b50600060018190555060006003819055505050620004a4565b828054620000cf906200036c565b90600052602060002090601f016020900481019282620000f357600085556200013f565b82601f106200010e57805160ff19168380011785556200013f565b828001600101855582156200013f579182015b828111156200013e57825182559160200191906001019062000121565b5b5090506200014e919062000152565b5090565b5b808211156200016d57600081600090555060010162000153565b5090565b600062000188620001828462000295565b6200026c565b905082815260208101848484011115620001a757620001a66200046a565b5b620001b484828562000336565b509392505050565b600082601f830112620001d457620001d362000465565b5b8151620001e684826020860162000171565b91505092915050565b60008151905062000200816200048a565b92915050565b6000806040838503121562000220576200021f62000474565b5b60006200023085828601620001ef565b925050602083015167ffffffffffffffff8111156200025457620002536200046f565b5b6200026285828601620001bc565b9150509250929050565b6000620002786200028b565b9050620002868282620003a2565b919050565b6000604051905090565b600067ffffffffffffffff821115620002b357620002b262000436565b5b620002be8262000479565b9050602081019050919050565b6000620002d8826200032c565b9150620002e5836200032c565b9250817fffffffffffffffffffffffffffffffffffffffffffffffffffffffffffffffff0483118215151615620003215762000320620003d8565b5b828202905092915050565b6000819050919050565b60005b838110156200035657808201518184015260208101905062000339565b8381111562000366576000848401525b50505050565b600060028204905060018216806200038557607f821691505b602082108114156200039c576200039b62000407565b5b50919050565b620003ad8262000479565b810181811067ffffffffffffffff82111715620003cf57620003ce62000436565b5b80604052505050565b7f4e487b7100000000000000000000000000000000000000000000000000000000600052601160045260246000fd5b7f4e487b7100000000000000000000000000000000000000000000000000000000600052602260045260246000fd5b7f4e487b7100000000000000000000000000000000000000000000000000000000600052604160045260246000fd5b600080fd5b600080fd5b600080fd5b600080fd5b6000601f19601f8301169050919050565b62000495816200032c565b8114620004a157600080fd5b50565b61128a80620004b46000396000f3fe6080604052600436106100745760003560e01c806382d69b621161004e57806382d69b621461016557806385aca3171461019057806395961f05146101cd578063be291999146101e9576100bf565b80630aa0a175146101055780632443877c14610130578063534844a21461015b576100bf565b366100bf5760055434146100bd576040517f08c379a00000000000000000000000000000000000000000000000000000000081526004016100b490610df2565b60405180910390fd5b005b6005543414610103576040517f08c379a00000000000000000000000000000000000000000000000000000000081526004016100fa90610df2565b60405180910390fd5b005b34801561011157600080fd5b5061011a6101f3565b6040516101279190610e74565b60405180910390f35b34801561013c57600080fd5b506101456101f9565b6040516101529190610d8b565b60405180910390f35b610163610287565b005b34801561017157600080fd5b5061017a610382565b6040516101879190610d69565b60405180910390f35b34801561019c57600080fd5b506101b760048036038101906101b29190610abe565b61050b565b6040516101c49190610e52565b60405180910390f35b6101e760048036038101906101e29190610a46565b6106bb565b005b6101f1610842565b005b60055481565b6006805461020690610fe9565b80601f016020809104026020016040519081016040528092919081815260200182805461023290610fe9565b801561027f5780601f106102545761010080835404028352916020019161027f565b820191906000526020600020905b81548152906001019060200180831161026257829003601f168201915b505050505081565b600460009054906101000a900473ffffffffffffffffffffffffffffffffffffffff1673ffffffffffffffffffffffffffffffffffffffff163373ffffffffffffffffffffffffffffffffffffffff1614610317576040517f08c379a000000000000000000000000000000000000000000000000000000000815260040161030e90610e12565b60405180910390fd5b600460009054906101000a900473ffffffffffffffffffffffffffffffffffffffff1673ffffffffffffffffffffffffffffffffffffffff166108fc479081150290604051600060405180830381858888f1935050505015801561037f573d6000803e3d6000fd5b50565b6060600460009054906101000a900473ffffffffffffffffffffffffffffffffffffffff1673ffffffffffffffffffffffffffffffffffffffff163373ffffffffffffffffffffffffffffffffffffffff1614610414576040517f08c379a000000000000000000000000000000000000000000000000000000000815260040161040b90610e12565b60405180910390fd5b600060015467ffffffffffffffff81111561043257610431611122565b5b6040519080825280602002602001820160405280156104605781602001602082028036833780820191505090505b50905060005b6001548110156105035760008082815260200190815260200160002060009054906101000a900473ffffffffffffffffffffffffffffffffffffffff168282815181106104b6576104b56110f3565b5b602002602001019073ffffffffffffffffffffffffffffffffffffffff16908173ffffffffffffffffffffffffffffffffffffffff168152505080806104fb9061104c565b915050610466565b508091505090565b6105136108f6565b600354821115610558576040517f08c379a000000000000000000000000000000000000000000000000000000000815260040161054f90610e32565b60405180910390fd5b6000600260008481526020019081526020016000206040518060800160405290816000820154815260200160018201805461059290610fe9565b80601f01602080910402602001604051908101604052809291908181526020018280546105be90610fe9565b801561060b5780601f106105e05761010080835404028352916020019161060b565b820191906000526020600020905b8154815290600101906020018083116105ee57829003601f168201915b5050505050815260200160028201805461062490610fe9565b80601f016020809104026020016040519081016040528092919081815260200182805461065090610fe9565b801561069d5780601f106106725761010080835404028352916020019161069d565b820191906000526020600020905b81548152906001019060200180831161068057829003601f168201915b50505050508152602001600382015481525050905080915050919050565b600460009054906101000a900473ffffffffffffffffffffffffffffffffffffffff1673ffffffffffffffffffffffffffffffffffffffff163373ffffffffffffffffffffffffffffffffffffffff161461074b576040517f08c379a000000000000000000000000000000000000000000000000000000000815260040161074290610e12565b60405180910390fd5b60405180608001604052806003548152602001838152602001828152602001428152506002600060035481526020019081526020016000206000820151816000015560208201518160010190805190602001906107a992919061091e565b5060408201518160020190805190602001906107c692919061091e565b5060608201518160030155905050600360008154809291906107e79061104c565b919050555060066040516107fb9190610d52565b60405180910390207f9009e7bf85e860bd815644b6510a84c4e537fd62acc6e9482cd84eea5167995d83834260405161083693929190610dad565b60405180910390a25050565b33600080600154815260200190815260200160002060006101000a81548173ffffffffffffffffffffffffffffffffffffffff021916908373ffffffffffffffffffffffffffffffffffffffff160217905550600160008154809291906108a89061104c565b91905055503073ffffffffffffffffffffffffffffffffffffffff166108fc349081150290604051600060405180830381858888f193505050501580156108f3573d6000803e3d6000fd5b50565b6040518060800160405280600081526020016060815260200160608152602001600081525090565b82805461092a90610fe9565b90600052602060002090601f01602090048101928261094c5760008555610993565b82601f1061096557805160ff1916838001178555610993565b82800160010185558215610993579182015b82811115610992578251825591602001919060010190610977565b5b5090506109a091906109a4565b5090565b5b808211156109bd5760008160009055506001016109a5565b5090565b60006109d46109cf84610eb4565b610e8f565b9050828152602081018484840111156109f0576109ef611156565b5b6109fb848285610fa7565b509392505050565b600082601f830112610a1857610a17611151565b5b8135610a288482602086016109c1565b91505092915050565b600081359050610a408161123d565b92915050565b60008060408385031215610a5d57610a5c611160565b5b600083013567ffffffffffffffff811115610a7b57610a7a61115b565b5b610a8785828601610a03565b925050602083013567ffffffffffffffff811115610aa857610aa761115b565b5b610ab485828601610a03565b9150509250929050565b600060208284031215610ad457610ad3611160565b5b6000610ae284828501610a31565b91505092915050565b6000610af78383610b03565b60208301905092915050565b610b0c81610f6b565b82525050565b6000610b1d82610f0a565b610b278185610f2d565b9350610b3283610ee5565b8060005b83811015610b63578151610b4a8882610aeb565b9750610b5583610f20565b925050600181019050610b36565b5085935050505092915050565b6000610b7b82610f15565b610b858185610f3e565b9350610b95818560208601610fb6565b610b9e81611165565b840191505092915050565b6000610bb482610f15565b610bbe8185610f4f565b9350610bce818560208601610fb6565b610bd781611165565b840191505092915050565b60008154610bef81610fe9565b610bf98186610f60565b94506001821660008114610c145760018114610c2557610c58565b60ff19831686528186019350610c58565b610c2e85610ef5565b60005b83811015610c5057815481890152600182019150602081019050610c31565b838801955050505b50505092915050565b6000610c6e602b83610f4f565b9150610c7982611176565b604082019050919050565b6000610c91602183610f4f565b9150610c9c826111c5565b604082019050919050565b6000610cb4600983610f4f565b9150610cbf82611214565b602082019050919050565b6000608083016000830151610ce26000860182610d34565b5060208301518482036020860152610cfa8282610b70565b91505060408301518482036040860152610d148282610b70565b9150506060830151610d296060860182610d34565b508091505092915050565b610d3d81610f9d565b82525050565b610d4c81610f9d565b82525050565b6000610d5e8284610be2565b915081905092915050565b60006020820190508181036000830152610d838184610b12565b905092915050565b60006020820190508181036000830152610da58184610ba9565b905092915050565b60006060820190508181036000830152610dc78186610ba9565b90508181036020830152610ddb8185610ba9565b9050610dea6040830184610d43565b949350505050565b60006020820190508181036000830152610e0b81610c61565b9050919050565b60006020820190508181036000830152610e2b81610c84565b9050919050565b60006020820190508181036000830152610e4b81610ca7565b9050919050565b60006020820190508181036000830152610e6c8184610cca565b905092915050565b6000602082019050610e896000830184610d43565b92915050565b6000610e99610eaa565b9050610ea5828261101b565b919050565b6000604051905090565b600067ffffffffffffffff821115610ecf57610ece611122565b5b610ed882611165565b9050602081019050919050565b6000819050602082019050919050565b60008190508160005260206000209050919050565b600081519050919050565b600081519050919050565b6000602082019050919050565b600082825260208201905092915050565b600082825260208201905092915050565b600082825260208201905092915050565b600081905092915050565b6000610f7682610f7d565b9050919050565b600073ffffffffffffffffffffffffffffffffffffffff82169050919050565b6000819050919050565b82818337600083830152505050565b60005b83811015610fd4578082015181840152602081019050610fb9565b83811115610fe3576000848401525b50505050565b6000600282049050600182168061100157607f821691505b60208210811415611015576110146110c4565b5b50919050565b61102482611165565b810181811067ffffffffffffffff8211171561104357611042611122565b5b80604052505050565b600061105782610f9d565b91507fffffffffffffffffffffffffffffffffffffffffffffffffffffffffffffffff82141561108a57611089611095565b5b600182019050919050565b7f4e487b7100000000000000000000000000000000000000000000000000000000600052601160045260246000fd5b7f4e487b7100000000000000000000000000000000000000000000000000000000600052602260045260246000fd5b7f4e487b7100000000000000000000000000000000000000000000000000000000600052603260045260246000fd5b7f4e487b7100000000000000000000000000000000000000000000000000000000600052604160045260246000fd5b600080fd5b600080fd5b600080fd5b600080fd5b6000601f19601f8301169050919050565b7f5061796d656e742073686f756c6420626520746865207375627363726970746960008201527f6f6e20666565206f6e6c79000000000000000000000000000000000000000000602082015250565b7f4f6e6c7920617574686f722063616e2063616c6c2074686973206d6574686f6460008201527f2100000000000000000000000000000000000000000000000000000000000000602082015250565b7f4e6f7420612076616c0000000000000000000000000000000000000000000000600082015250565b61124681610f9d565b811461125157600080fd5b5056fea26469706673582212209c95aba19cf0ae2f7bf57e50df864958ff77dedaa370e51bd3044db922d596df64736f6c63430008070033",
					"opcodes": "PUSH1 0x80 PUSH1 0x40 MSTORE CALLVALUE DUP1 ISZERO PUSH3 0x11 JUMPI PUSH1 0x0 DUP1 REVERT JUMPDEST POP PUSH1 0x40 MLOAD PUSH3 0x173E CODESIZE SUB DUP1 PUSH3 0x173E DUP4 CODECOPY DUP2 DUP2 ADD PUSH1 0x40 MSTORE DUP2 ADD SWAP1 PUSH3 0x37 SWAP2 SWAP1 PUSH3 0x206 JUMP JUMPDEST CALLER PUSH1 0x4 PUSH1 0x0 PUSH2 0x100 EXP DUP2 SLOAD DUP2 PUSH20 0xFFFFFFFFFFFFFFFFFFFFFFFFFFFFFFFFFFFFFFFF MUL NOT AND SWAP1 DUP4 PUSH20 0xFFFFFFFFFFFFFFFFFFFFFFFFFFFFFFFFFFFFFFFF AND MUL OR SWAP1 SSTORE POP PUSH4 0x3B9ACA00 DUP3 PUSH3 0x8A SWAP2 SWAP1 PUSH3 0x2CB JUMP JUMPDEST PUSH1 0x5 DUP2 SWAP1 SSTORE POP DUP1 PUSH1 0x6 SWAP1 DUP1 MLOAD SWAP1 PUSH1 0x20 ADD SWAP1 PUSH3 0xA8 SWAP3 SWAP2 SWAP1 PUSH3 0xC1 JUMP JUMPDEST POP PUSH1 0x0 PUSH1 0x1 DUP2 SWAP1 SSTORE POP PUSH1 0x0 PUSH1 0x3 DUP2 SWAP1 SSTORE POP POP POP PUSH3 0x4A4 JUMP JUMPDEST DUP3 DUP1 SLOAD PUSH3 0xCF SWAP1 PUSH3 0x36C JUMP JUMPDEST SWAP1 PUSH1 0x0 MSTORE PUSH1 0x20 PUSH1 0x0 KECCAK256 SWAP1 PUSH1 0x1F ADD PUSH1 0x20 SWAP1 DIV DUP2 ADD SWAP3 DUP3 PUSH3 0xF3 JUMPI PUSH1 0x0 DUP6 SSTORE PUSH3 0x13F JUMP JUMPDEST DUP3 PUSH1 0x1F LT PUSH3 0x10E JUMPI DUP1 MLOAD PUSH1 0xFF NOT AND DUP4 DUP1 ADD OR DUP6 SSTORE PUSH3 0x13F JUMP JUMPDEST DUP3 DUP1 ADD PUSH1 0x1 ADD DUP6 SSTORE DUP3 ISZERO PUSH3 0x13F JUMPI SWAP2 DUP3 ADD JUMPDEST DUP3 DUP2 GT ISZERO PUSH3 0x13E JUMPI DUP3 MLOAD DUP3 SSTORE SWAP2 PUSH1 0x20 ADD SWAP2 SWAP1 PUSH1 0x1 ADD SWAP1 PUSH3 0x121 JUMP JUMPDEST JUMPDEST POP SWAP1 POP PUSH3 0x14E SWAP2 SWAP1 PUSH3 0x152 JUMP JUMPDEST POP SWAP1 JUMP JUMPDEST JUMPDEST DUP1 DUP3 GT ISZERO PUSH3 0x16D JUMPI PUSH1 0x0 DUP2 PUSH1 0x0 SWAP1 SSTORE POP PUSH1 0x1 ADD PUSH3 0x153 JUMP JUMPDEST POP SWAP1 JUMP JUMPDEST PUSH1 0x0 PUSH3 0x188 PUSH3 0x182 DUP5 PUSH3 0x295 JUMP JUMPDEST PUSH3 0x26C JUMP JUMPDEST SWAP1 POP DUP3 DUP2 MSTORE PUSH1 0x20 DUP2 ADD DUP5 DUP5 DUP5 ADD GT ISZERO PUSH3 0x1A7 JUMPI PUSH3 0x1A6 PUSH3 0x46A JUMP JUMPDEST JUMPDEST PUSH3 0x1B4 DUP5 DUP3 DUP6 PUSH3 0x336 JUMP JUMPDEST POP SWAP4 SWAP3 POP POP POP JUMP JUMPDEST PUSH1 0x0 DUP3 PUSH1 0x1F DUP4 ADD SLT PUSH3 0x1D4 JUMPI PUSH3 0x1D3 PUSH3 0x465 JUMP JUMPDEST JUMPDEST DUP2 MLOAD PUSH3 0x1E6 DUP5 DUP3 PUSH1 0x20 DUP7 ADD PUSH3 0x171 JUMP JUMPDEST SWAP2 POP POP SWAP3 SWAP2 POP POP JUMP JUMPDEST PUSH1 0x0 DUP2 MLOAD SWAP1 POP PUSH3 0x200 DUP2 PUSH3 0x48A JUMP JUMPDEST SWAP3 SWAP2 POP POP JUMP JUMPDEST PUSH1 0x0 DUP1 PUSH1 0x40 DUP4 DUP6 SUB SLT ISZERO PUSH3 0x220 JUMPI PUSH3 0x21F PUSH3 0x474 JUMP JUMPDEST JUMPDEST PUSH1 0x0 PUSH3 0x230 DUP6 DUP3 DUP7 ADD PUSH3 0x1EF JUMP JUMPDEST SWAP3 POP POP PUSH1 0x20 DUP4 ADD MLOAD PUSH8 0xFFFFFFFFFFFFFFFF DUP2 GT ISZERO PUSH3 0x254 JUMPI PUSH3 0x253 PUSH3 0x46F JUMP JUMPDEST JUMPDEST PUSH3 0x262 DUP6 DUP3 DUP7 ADD PUSH3 0x1BC JUMP JUMPDEST SWAP2 POP POP SWAP3 POP SWAP3 SWAP1 POP JUMP JUMPDEST PUSH1 0x0 PUSH3 0x278 PUSH3 0x28B JUMP JUMPDEST SWAP1 POP PUSH3 0x286 DUP3 DUP3 PUSH3 0x3A2 JUMP JUMPDEST SWAP2 SWAP1 POP JUMP JUMPDEST PUSH1 0x0 PUSH1 0x40 MLOAD SWAP1 POP SWAP1 JUMP JUMPDEST PUSH1 0x0 PUSH8 0xFFFFFFFFFFFFFFFF DUP3 GT ISZERO PUSH3 0x2B3 JUMPI PUSH3 0x2B2 PUSH3 0x436 JUMP JUMPDEST JUMPDEST PUSH3 0x2BE DUP3 PUSH3 0x479 JUMP JUMPDEST SWAP1 POP PUSH1 0x20 DUP2 ADD SWAP1 POP SWAP2 SWAP1 POP JUMP JUMPDEST PUSH1 0x0 PUSH3 0x2D8 DUP3 PUSH3 0x32C JUMP JUMPDEST SWAP2 POP PUSH3 0x2E5 DUP4 PUSH3 0x32C JUMP JUMPDEST SWAP3 POP DUP2 PUSH32 0xFFFFFFFFFFFFFFFFFFFFFFFFFFFFFFFFFFFFFFFFFFFFFFFFFFFFFFFFFFFFFFFF DIV DUP4 GT DUP3 ISZERO ISZERO AND ISZERO PUSH3 0x321 JUMPI PUSH3 0x320 PUSH3 0x3D8 JUMP JUMPDEST JUMPDEST DUP3 DUP3 MUL SWAP1 POP SWAP3 SWAP2 POP POP JUMP JUMPDEST PUSH1 0x0 DUP2 SWAP1 POP SWAP2 SWAP1 POP JUMP JUMPDEST PUSH1 0x0 JUMPDEST DUP4 DUP2 LT ISZERO PUSH3 0x356 JUMPI DUP1 DUP3 ADD MLOAD DUP2 DUP5 ADD MSTORE PUSH1 0x20 DUP2 ADD SWAP1 POP PUSH3 0x339 JUMP JUMPDEST DUP4 DUP2 GT ISZERO PUSH3 0x366 JUMPI PUSH1 0x0 DUP5 DUP5 ADD MSTORE JUMPDEST POP POP POP POP JUMP JUMPDEST PUSH1 0x0 PUSH1 0x2 DUP3 DIV SWAP1 POP PUSH1 0x1 DUP3 AND DUP1 PUSH3 0x385 JUMPI PUSH1 0x7F DUP3 AND SWAP2 POP JUMPDEST PUSH1 0x20 DUP3 LT DUP2 EQ ISZERO PUSH3 0x39C JUMPI PUSH3 0x39B PUSH3 0x407 JUMP JUMPDEST JUMPDEST POP SWAP2 SWAP1 POP JUMP JUMPDEST PUSH3 0x3AD DUP3 PUSH3 0x479 JUMP JUMPDEST DUP2 ADD DUP2 DUP2 LT PUSH8 0xFFFFFFFFFFFFFFFF DUP3 GT OR ISZERO PUSH3 0x3CF JUMPI PUSH3 0x3CE PUSH3 0x436 JUMP JUMPDEST JUMPDEST DUP1 PUSH1 0x40 MSTORE POP POP POP JUMP JUMPDEST PUSH32 0x4E487B7100000000000000000000000000000000000000000000000000000000 PUSH1 0x0 MSTORE PUSH1 0x11 PUSH1 0x4 MSTORE PUSH1 0x24 PUSH1 0x0 REVERT JUMPDEST PUSH32 0x4E487B7100000000000000000000000000000000000000000000000000000000 PUSH1 0x0 MSTORE PUSH1 0x22 PUSH1 0x4 MSTORE PUSH1 0x24 PUSH1 0x0 REVERT JUMPDEST PUSH32 0x4E487B7100000000000000000000000000000000000000000000000000000000 PUSH1 0x0 MSTORE PUSH1 0x41 PUSH1 0x4 MSTORE PUSH1 0x24 PUSH1 0x0 REVERT JUMPDEST PUSH1 0x0 DUP1 REVERT JUMPDEST PUSH1 0x0 DUP1 REVERT JUMPDEST PUSH1 0x0 DUP1 REVERT JUMPDEST PUSH1 0x0 DUP1 REVERT JUMPDEST PUSH1 0x0 PUSH1 0x1F NOT PUSH1 0x1F DUP4 ADD AND SWAP1 POP SWAP2 SWAP1 POP JUMP JUMPDEST PUSH3 0x495 DUP2 PUSH3 0x32C JUMP JUMPDEST DUP2 EQ PUSH3 0x4A1 JUMPI PUSH1 0x0 DUP1 REVERT JUMPDEST POP JUMP JUMPDEST PUSH2 0x128A DUP1 PUSH3 0x4B4 PUSH1 0x0 CODECOPY PUSH1 0x0 RETURN INVALID PUSH1 0x80 PUSH1 0x40 MSTORE PUSH1 0x4 CALLDATASIZE LT PUSH2 0x74 JUMPI PUSH1 0x0 CALLDATALOAD PUSH1 0xE0 SHR DUP1 PUSH4 0x82D69B62 GT PUSH2 0x4E JUMPI DUP1 PUSH4 0x82D69B62 EQ PUSH2 0x165 JUMPI DUP1 PUSH4 0x85ACA317 EQ PUSH2 0x190 JUMPI DUP1 PUSH4 0x95961F05 EQ PUSH2 0x1CD JUMPI DUP1 PUSH4 0xBE291999 EQ PUSH2 0x1E9 JUMPI PUSH2 0xBF JUMP JUMPDEST DUP1 PUSH4 0xAA0A175 EQ PUSH2 0x105 JUMPI DUP1 PUSH4 0x2443877C EQ PUSH2 0x130 JUMPI DUP1 PUSH4 0x534844A2 EQ PUSH2 0x15B JUMPI PUSH2 0xBF JUMP JUMPDEST CALLDATASIZE PUSH2 0xBF JUMPI PUSH1 0x5 SLOAD CALLVALUE EQ PUSH2 0xBD JUMPI PUSH1 0x40 MLOAD PUSH32 0x8C379A000000000000000000000000000000000000000000000000000000000 DUP2 MSTORE PUSH1 0x4 ADD PUSH2 0xB4 SWAP1 PUSH2 0xDF2 JUMP JUMPDEST PUSH1 0x40 MLOAD DUP1 SWAP2 SUB SWAP1 REVERT JUMPDEST STOP JUMPDEST PUSH1 0x5 SLOAD CALLVALUE EQ PUSH2 0x103 JUMPI PUSH1 0x40 MLOAD PUSH32 0x8C379A000000000000000000000000000000000000000000000000000000000 DUP2 MSTORE PUSH1 0x4 ADD PUSH2 0xFA SWAP1 PUSH2 0xDF2 JUMP JUMPDEST PUSH1 0x40 MLOAD DUP1 SWAP2 SUB SWAP1 REVERT JUMPDEST STOP JUMPDEST CALLVALUE DUP1 ISZERO PUSH2 0x111 JUMPI PUSH1 0x0 DUP1 REVERT JUMPDEST POP PUSH2 0x11A PUSH2 0x1F3 JUMP JUMPDEST PUSH1 0x40 MLOAD PUSH2 0x127 SWAP2 SWAP1 PUSH2 0xE74 JUMP JUMPDEST PUSH1 0x40 MLOAD DUP1 SWAP2 SUB SWAP1 RETURN JUMPDEST CALLVALUE DUP1 ISZERO PUSH2 0x13C JUMPI PUSH1 0x0 DUP1 REVERT JUMPDEST POP PUSH2 0x145 PUSH2 0x1F9 JUMP JUMPDEST PUSH1 0x40 MLOAD PUSH2 0x152 SWAP2 SWAP1 PUSH2 0xD8B JUMP JUMPDEST PUSH1 0x40 MLOAD DUP1 SWAP2 SUB SWAP1 RETURN JUMPDEST PUSH2 0x163 PUSH2 0x287 JUMP JUMPDEST STOP JUMPDEST CALLVALUE DUP1 ISZERO PUSH2 0x171 JUMPI PUSH1 0x0 DUP1 REVERT JUMPDEST POP PUSH2 0x17A PUSH2 0x382 JUMP JUMPDEST PUSH1 0x40 MLOAD PUSH2 0x187 SWAP2 SWAP1 PUSH2 0xD69 JUMP JUMPDEST PUSH1 0x40 MLOAD DUP1 SWAP2 SUB SWAP1 RETURN JUMPDEST CALLVALUE DUP1 ISZERO PUSH2 0x19C JUMPI PUSH1 0x0 DUP1 REVERT JUMPDEST POP PUSH2 0x1B7 PUSH1 0x4 DUP1 CALLDATASIZE SUB DUP2 ADD SWAP1 PUSH2 0x1B2 SWAP2 SWAP1 PUSH2 0xABE JUMP JUMPDEST PUSH2 0x50B JUMP JUMPDEST PUSH1 0x40 MLOAD PUSH2 0x1C4 SWAP2 SWAP1 PUSH2 0xE52 JUMP JUMPDEST PUSH1 0x40 MLOAD DUP1 SWAP2 SUB SWAP1 RETURN JUMPDEST PUSH2 0x1E7 PUSH1 0x4 DUP1 CALLDATASIZE SUB DUP2 ADD SWAP1 PUSH2 0x1E2 SWAP2 SWAP1 PUSH2 0xA46 JUMP JUMPDEST PUSH2 0x6BB JUMP JUMPDEST STOP JUMPDEST PUSH2 0x1F1 PUSH2 0x842 JUMP JUMPDEST STOP JUMPDEST PUSH1 0x5 SLOAD DUP2 JUMP JUMPDEST PUSH1 0x6 DUP1 SLOAD PUSH2 0x206 SWAP1 PUSH2 0xFE9 JUMP JUMPDEST DUP1 PUSH1 0x1F ADD PUSH1 0x20 DUP1 SWAP2 DIV MUL PUSH1 0x20 ADD PUSH1 0x40 MLOAD SWAP1 DUP2 ADD PUSH1 0x40 MSTORE DUP1 SWAP3 SWAP2 SWAP1 DUP2 DUP2 MSTORE PUSH1 0x20 ADD DUP3 DUP1 SLOAD PUSH2 0x232 SWAP1 PUSH2 0xFE9 JUMP JUMPDEST DUP1 ISZERO PUSH2 0x27F JUMPI DUP1 PUSH1 0x1F LT PUSH2 0x254 JUMPI PUSH2 0x100 DUP1 DUP4 SLOAD DIV MUL DUP4 MSTORE SWAP2 PUSH1 0x20 ADD SWAP2 PUSH2 0x27F JUMP JUMPDEST DUP3 ADD SWAP2 SWAP1 PUSH1 0x0 MSTORE PUSH1 0x20 PUSH1 0x0 KECCAK256 SWAP1 JUMPDEST DUP2 SLOAD DUP2 MSTORE SWAP1 PUSH1 0x1 ADD SWAP1 PUSH1 0x20 ADD DUP1 DUP4 GT PUSH2 0x262 JUMPI DUP3 SWAP1 SUB PUSH1 0x1F AND DUP3 ADD SWAP2 JUMPDEST POP POP POP POP POP DUP2 JUMP JUMPDEST PUSH1 0x4 PUSH1 0x0 SWAP1 SLOAD SWAP1 PUSH2 0x100 EXP SWAP1 DIV PUSH20 0xFFFFFFFFFFFFFFFFFFFFFFFFFFFFFFFFFFFFFFFF AND PUSH20 0xFFFFFFFFFFFFFFFFFFFFFFFFFFFFFFFFFFFFFFFF AND CALLER PUSH20 0xFFFFFFFFFFFFFFFFFFFFFFFFFFFFFFFFFFFFFFFF AND EQ PUSH2 0x317 JUMPI PUSH1 0x40 MLOAD PUSH32 0x8C379A000000000000000000000000000000000000000000000000000000000 DUP2 MSTORE PUSH1 0x4 ADD PUSH2 0x30E SWAP1 PUSH2 0xE12 JUMP JUMPDEST PUSH1 0x40 MLOAD DUP1 SWAP2 SUB SWAP1 REVERT JUMPDEST PUSH1 0x4 PUSH1 0x0 SWAP1 SLOAD SWAP1 PUSH2 0x100 EXP SWAP1 DIV PUSH20 0xFFFFFFFFFFFFFFFFFFFFFFFFFFFFFFFFFFFFFFFF AND PUSH20 0xFFFFFFFFFFFFFFFFFFFFFFFFFFFFFFFFFFFFFFFF AND PUSH2 0x8FC SELFBALANCE SWAP1 DUP2 ISZERO MUL SWAP1 PUSH1 0x40 MLOAD PUSH1 0x0 PUSH1 0x40 MLOAD DUP1 DUP4 SUB DUP2 DUP6 DUP9 DUP9 CALL SWAP4 POP POP POP POP ISZERO DUP1 ISZERO PUSH2 0x37F JUMPI RETURNDATASIZE PUSH1 0x0 DUP1 RETURNDATACOPY RETURNDATASIZE PUSH1 0x0 REVERT JUMPDEST POP JUMP JUMPDEST PUSH1 0x60 PUSH1 0x4 PUSH1 0x0 SWAP1 SLOAD SWAP1 PUSH2 0x100 EXP SWAP1 DIV PUSH20 0xFFFFFFFFFFFFFFFFFFFFFFFFFFFFFFFFFFFFFFFF AND PUSH20 0xFFFFFFFFFFFFFFFFFFFFFFFFFFFFFFFFFFFFFFFF AND CALLER PUSH20 0xFFFFFFFFFFFFFFFFFFFFFFFFFFFFFFFFFFFFFFFF AND EQ PUSH2 0x414 JUMPI PUSH1 0x40 MLOAD PUSH32 0x8C379A000000000000000000000000000000000000000000000000000000000 DUP2 MSTORE PUSH1 0x4 ADD PUSH2 0x40B SWAP1 PUSH2 0xE12 JUMP JUMPDEST PUSH1 0x40 MLOAD DUP1 SWAP2 SUB SWAP1 REVERT JUMPDEST PUSH1 0x0 PUSH1 0x1 SLOAD PUSH8 0xFFFFFFFFFFFFFFFF DUP2 GT ISZERO PUSH2 0x432 JUMPI PUSH2 0x431 PUSH2 0x1122 JUMP JUMPDEST JUMPDEST PUSH1 0x40 MLOAD SWAP1 DUP1 DUP3 MSTORE DUP1 PUSH1 0x20 MUL PUSH1 0x20 ADD DUP3 ADD PUSH1 0x40 MSTORE DUP1 ISZERO PUSH2 0x460 JUMPI DUP2 PUSH1 0x20 ADD PUSH1 0x20 DUP3 MUL DUP1 CALLDATASIZE DUP4 CALLDATACOPY DUP1 DUP3 ADD SWAP2 POP POP SWAP1 POP JUMPDEST POP SWAP1 POP PUSH1 0x0 JUMPDEST PUSH1 0x1 SLOAD DUP2 LT ISZERO PUSH2 0x503 JUMPI PUSH1 0x0 DUP1 DUP3 DUP2 MSTORE PUSH1 0x20 ADD SWAP1 DUP2 MSTORE PUSH1 0x20 ADD PUSH1 0x0 KECCAK256 PUSH1 0x0 SWAP1 SLOAD SWAP1 PUSH2 0x100 EXP SWAP1 DIV PUSH20 0xFFFFFFFFFFFFFFFFFFFFFFFFFFFFFFFFFFFFFFFF AND DUP3 DUP3 DUP2 MLOAD DUP2 LT PUSH2 0x4B6 JUMPI PUSH2 0x4B5 PUSH2 0x10F3 JUMP JUMPDEST JUMPDEST PUSH1 0x20 MUL PUSH1 0x20 ADD ADD SWAP1 PUSH20 0xFFFFFFFFFFFFFFFFFFFFFFFFFFFFFFFFFFFFFFFF AND SWAP1 DUP2 PUSH20 0xFFFFFFFFFFFFFFFFFFFFFFFFFFFFFFFFFFFFFFFF AND DUP2 MSTORE POP POP DUP1 DUP1 PUSH2 0x4FB SWAP1 PUSH2 0x104C JUMP JUMPDEST SWAP2 POP POP PUSH2 0x466 JUMP JUMPDEST POP DUP1 SWAP2 POP POP SWAP1 JUMP JUMPDEST PUSH2 0x513 PUSH2 0x8F6 JUMP JUMPDEST PUSH1 0x3 SLOAD DUP3 GT ISZERO PUSH2 0x558 JUMPI PUSH1 0x40 MLOAD PUSH32 0x8C379A000000000000000000000000000000000000000000000000000000000 DUP2 MSTORE PUSH1 0x4 ADD PUSH2 0x54F SWAP1 PUSH2 0xE32 JUMP JUMPDEST PUSH1 0x40 MLOAD DUP1 SWAP2 SUB SWAP1 REVERT JUMPDEST PUSH1 0x0 PUSH1 0x2 PUSH1 0x0 DUP5 DUP2 MSTORE PUSH1 0x20 ADD SWAP1 DUP2 MSTORE PUSH1 0x20 ADD PUSH1 0x0 KECCAK256 PUSH1 0x40 MLOAD DUP1 PUSH1 0x80 ADD PUSH1 0x40 MSTORE SWAP1 DUP2 PUSH1 0x0 DUP3 ADD SLOAD DUP2 MSTORE PUSH1 0x20 ADD PUSH1 0x1 DUP3 ADD DUP1 SLOAD PUSH2 0x592 SWAP1 PUSH2 0xFE9 JUMP JUMPDEST DUP1 PUSH1 0x1F ADD PUSH1 0x20 DUP1 SWAP2 DIV MUL PUSH1 0x20 ADD PUSH1 0x40 MLOAD SWAP1 DUP2 ADD PUSH1 0x40 MSTORE DUP1 SWAP3 SWAP2 SWAP1 DUP2 DUP2 MSTORE PUSH1 0x20 ADD DUP3 DUP1 SLOAD PUSH2 0x5BE SWAP1 PUSH2 0xFE9 JUMP JUMPDEST DUP1 ISZERO PUSH2 0x60B JUMPI DUP1 PUSH1 0x1F LT PUSH2 0x5E0 JUMPI PUSH2 0x100 DUP1 DUP4 SLOAD DIV MUL DUP4 MSTORE SWAP2 PUSH1 0x20 ADD SWAP2 PUSH2 0x60B JUMP JUMPDEST DUP3 ADD SWAP2 SWAP1 PUSH1 0x0 MSTORE PUSH1 0x20 PUSH1 0x0 KECCAK256 SWAP1 JUMPDEST DUP2 SLOAD DUP2 MSTORE SWAP1 PUSH1 0x1 ADD SWAP1 PUSH1 0x20 ADD DUP1 DUP4 GT PUSH2 0x5EE JUMPI DUP3 SWAP1 SUB PUSH1 0x1F AND DUP3 ADD SWAP2 JUMPDEST POP POP POP POP POP DUP2 MSTORE PUSH1 0x20 ADD PUSH1 0x2 DUP3 ADD DUP1 SLOAD PUSH2 0x624 SWAP1 PUSH2 0xFE9 JUMP JUMPDEST DUP1 PUSH1 0x1F ADD PUSH1 0x20 DUP1 SWAP2 DIV MUL PUSH1 0x20 ADD PUSH1 0x40 MLOAD SWAP1 DUP2 ADD PUSH1 0x40 MSTORE DUP1 SWAP3 SWAP2 SWAP1 DUP2 DUP2 MSTORE PUSH1 0x20 ADD DUP3 DUP1 SLOAD PUSH2 0x650 SWAP1 PUSH2 0xFE9 JUMP JUMPDEST DUP1 ISZERO PUSH2 0x69D JUMPI DUP1 PUSH1 0x1F LT PUSH2 0x672 JUMPI PUSH2 0x100 DUP1 DUP4 SLOAD DIV MUL DUP4 MSTORE SWAP2 PUSH1 0x20 ADD SWAP2 PUSH2 0x69D JUMP JUMPDEST DUP3 ADD SWAP2 SWAP1 PUSH1 0x0 MSTORE PUSH1 0x20 PUSH1 0x0 KECCAK256 SWAP1 JUMPDEST DUP2 SLOAD DUP2 MSTORE SWAP1 PUSH1 0x1 ADD SWAP1 PUSH1 0x20 ADD DUP1 DUP4 GT PUSH2 0x680 JUMPI DUP3 SWAP1 SUB PUSH1 0x1F AND DUP3 ADD SWAP2 JUMPDEST POP POP POP POP POP DUP2 MSTORE PUSH1 0x20 ADD PUSH1 0x3 DUP3 ADD SLOAD DUP2 MSTORE POP POP SWAP1 POP DUP1 SWAP2 POP POP SWAP2 SWAP1 POP JUMP JUMPDEST PUSH1 0x4 PUSH1 0x0 SWAP1 SLOAD SWAP1 PUSH2 0x100 EXP SWAP1 DIV PUSH20 0xFFFFFFFFFFFFFFFFFFFFFFFFFFFFFFFFFFFFFFFF AND PUSH20 0xFFFFFFFFFFFFFFFFFFFFFFFFFFFFFFFFFFFFFFFF AND CALLER PUSH20 0xFFFFFFFFFFFFFFFFFFFFFFFFFFFFFFFFFFFFFFFF AND EQ PUSH2 0x74B JUMPI PUSH1 0x40 MLOAD PUSH32 0x8C379A000000000000000000000000000000000000000000000000000000000 DUP2 MSTORE PUSH1 0x4 ADD PUSH2 0x742 SWAP1 PUSH2 0xE12 JUMP JUMPDEST PUSH1 0x40 MLOAD DUP1 SWAP2 SUB SWAP1 REVERT JUMPDEST PUSH1 0x40 MLOAD DUP1 PUSH1 0x80 ADD PUSH1 0x40 MSTORE DUP1 PUSH1 0x3 SLOAD DUP2 MSTORE PUSH1 0x20 ADD DUP4 DUP2 MSTORE PUSH1 0x20 ADD DUP3 DUP2 MSTORE PUSH1 0x20 ADD TIMESTAMP DUP2 MSTORE POP PUSH1 0x2 PUSH1 0x0 PUSH1 0x3 SLOAD DUP2 MSTORE PUSH1 0x20 ADD SWAP1 DUP2 MSTORE PUSH1 0x20 ADD PUSH1 0x0 KECCAK256 PUSH1 0x0 DUP3 ADD MLOAD DUP2 PUSH1 0x0 ADD SSTORE PUSH1 0x20 DUP3 ADD MLOAD DUP2 PUSH1 0x1 ADD SWAP1 DUP1 MLOAD SWAP1 PUSH1 0x20 ADD SWAP1 PUSH2 0x7A9 SWAP3 SWAP2 SWAP1 PUSH2 0x91E JUMP JUMPDEST POP PUSH1 0x40 DUP3 ADD MLOAD DUP2 PUSH1 0x2 ADD SWAP1 DUP1 MLOAD SWAP1 PUSH1 0x20 ADD SWAP1 PUSH2 0x7C6 SWAP3 SWAP2 SWAP1 PUSH2 0x91E JUMP JUMPDEST POP PUSH1 0x60 DUP3 ADD MLOAD DUP2 PUSH1 0x3 ADD SSTORE SWAP1 POP POP PUSH1 0x3 PUSH1 0x0 DUP2 SLOAD DUP1 SWAP3 SWAP2 SWAP1 PUSH2 0x7E7 SWAP1 PUSH2 0x104C JUMP JUMPDEST SWAP2 SWAP1 POP SSTORE POP PUSH1 0x6 PUSH1 0x40 MLOAD PUSH2 0x7FB SWAP2 SWAP1 PUSH2 0xD52 JUMP JUMPDEST PUSH1 0x40 MLOAD DUP1 SWAP2 SUB SWAP1 KECCAK256 PUSH32 0x9009E7BF85E860BD815644B6510A84C4E537FD62ACC6E9482CD84EEA5167995D DUP4 DUP4 TIMESTAMP PUSH1 0x40 MLOAD PUSH2 0x836 SWAP4 SWAP3 SWAP2 SWAP1 PUSH2 0xDAD JUMP JUMPDEST PUSH1 0x40 MLOAD DUP1 SWAP2 SUB SWAP1 LOG2 POP POP JUMP JUMPDEST CALLER PUSH1 0x0 DUP1 PUSH1 0x1 SLOAD DUP2 MSTORE PUSH1 0x20 ADD SWAP1 DUP2 MSTORE PUSH1 0x20 ADD PUSH1 0x0 KECCAK256 PUSH1 0x0 PUSH2 0x100 EXP DUP2 SLOAD DUP2 PUSH20 0xFFFFFFFFFFFFFFFFFFFFFFFFFFFFFFFFFFFFFFFF MUL NOT AND SWAP1 DUP4 PUSH20 0xFFFFFFFFFFFFFFFFFFFFFFFFFFFFFFFFFFFFFFFF AND MUL OR SWAP1 SSTORE POP PUSH1 0x1 PUSH1 0x0 DUP2 SLOAD DUP1 SWAP3 SWAP2 SWAP1 PUSH2 0x8A8 SWAP1 PUSH2 0x104C JUMP JUMPDEST SWAP2 SWAP1 POP SSTORE POP ADDRESS PUSH20 0xFFFFFFFFFFFFFFFFFFFFFFFFFFFFFFFFFFFFFFFF AND PUSH2 0x8FC CALLVALUE SWAP1 DUP2 ISZERO MUL SWAP1 PUSH1 0x40 MLOAD PUSH1 0x0 PUSH1 0x40 MLOAD DUP1 DUP4 SUB DUP2 DUP6 DUP9 DUP9 CALL SWAP4 POP POP POP POP ISZERO DUP1 ISZERO PUSH2 0x8F3 JUMPI RETURNDATASIZE PUSH1 0x0 DUP1 RETURNDATACOPY RETURNDATASIZE PUSH1 0x0 REVERT JUMPDEST POP JUMP JUMPDEST PUSH1 0x40 MLOAD DUP1 PUSH1 0x80 ADD PUSH1 0x40 MSTORE DUP1 PUSH1 0x0 DUP2 MSTORE PUSH1 0x20 ADD PUSH1 0x60 DUP2 MSTORE PUSH1 0x20 ADD PUSH1 0x60 DUP2 MSTORE PUSH1 0x20 ADD PUSH1 0x0 DUP2 MSTORE POP SWAP1 JUMP JUMPDEST DUP3 DUP1 SLOAD PUSH2 0x92A SWAP1 PUSH2 0xFE9 JUMP JUMPDEST SWAP1 PUSH1 0x0 MSTORE PUSH1 0x20 PUSH1 0x0 KECCAK256 SWAP1 PUSH1 0x1F ADD PUSH1 0x20 SWAP1 DIV DUP2 ADD SWAP3 DUP3 PUSH2 0x94C JUMPI PUSH1 0x0 DUP6 SSTORE PUSH2 0x993 JUMP JUMPDEST DUP3 PUSH1 0x1F LT PUSH2 0x965 JUMPI DUP1 MLOAD PUSH1 0xFF NOT AND DUP4 DUP1 ADD OR DUP6 SSTORE PUSH2 0x993 JUMP JUMPDEST DUP3 DUP1 ADD PUSH1 0x1 ADD DUP6 SSTORE DUP3 ISZERO PUSH2 0x993 JUMPI SWAP2 DUP3 ADD JUMPDEST DUP3 DUP2 GT ISZERO PUSH2 0x992 JUMPI DUP3 MLOAD DUP3 SSTORE SWAP2 PUSH1 0x20 ADD SWAP2 SWAP1 PUSH1 0x1 ADD SWAP1 PUSH2 0x977 JUMP JUMPDEST JUMPDEST POP SWAP1 POP PUSH2 0x9A0 SWAP2 SWAP1 PUSH2 0x9A4 JUMP JUMPDEST POP SWAP1 JUMP JUMPDEST JUMPDEST DUP1 DUP3 GT ISZERO PUSH2 0x9BD JUMPI PUSH1 0x0 DUP2 PUSH1 0x0 SWAP1 SSTORE POP PUSH1 0x1 ADD PUSH2 0x9A5 JUMP JUMPDEST POP SWAP1 JUMP JUMPDEST PUSH1 0x0 PUSH2 0x9D4 PUSH2 0x9CF DUP5 PUSH2 0xEB4 JUMP JUMPDEST PUSH2 0xE8F JUMP JUMPDEST SWAP1 POP DUP3 DUP2 MSTORE PUSH1 0x20 DUP2 ADD DUP5 DUP5 DUP5 ADD GT ISZERO PUSH2 0x9F0 JUMPI PUSH2 0x9EF PUSH2 0x1156 JUMP JUMPDEST JUMPDEST PUSH2 0x9FB DUP5 DUP3 DUP6 PUSH2 0xFA7 JUMP JUMPDEST POP SWAP4 SWAP3 POP POP POP JUMP JUMPDEST PUSH1 0x0 DUP3 PUSH1 0x1F DUP4 ADD SLT PUSH2 0xA18 JUMPI PUSH2 0xA17 PUSH2 0x1151 JUMP JUMPDEST JUMPDEST DUP2 CALLDATALOAD PUSH2 0xA28 DUP5 DUP3 PUSH1 0x20 DUP7 ADD PUSH2 0x9C1 JUMP JUMPDEST SWAP2 POP POP SWAP3 SWAP2 POP POP JUMP JUMPDEST PUSH1 0x0 DUP2 CALLDATALOAD SWAP1 POP PUSH2 0xA40 DUP2 PUSH2 0x123D JUMP JUMPDEST SWAP3 SWAP2 POP POP JUMP JUMPDEST PUSH1 0x0 DUP1 PUSH1 0x40 DUP4 DUP6 SUB SLT ISZERO PUSH2 0xA5D JUMPI PUSH2 0xA5C PUSH2 0x1160 JUMP JUMPDEST JUMPDEST PUSH1 0x0 DUP4 ADD CALLDATALOAD PUSH8 0xFFFFFFFFFFFFFFFF DUP2 GT ISZERO PUSH2 0xA7B JUMPI PUSH2 0xA7A PUSH2 0x115B JUMP JUMPDEST JUMPDEST PUSH2 0xA87 DUP6 DUP3 DUP7 ADD PUSH2 0xA03 JUMP JUMPDEST SWAP3 POP POP PUSH1 0x20 DUP4 ADD CALLDATALOAD PUSH8 0xFFFFFFFFFFFFFFFF DUP2 GT ISZERO PUSH2 0xAA8 JUMPI PUSH2 0xAA7 PUSH2 0x115B JUMP JUMPDEST JUMPDEST PUSH2 0xAB4 DUP6 DUP3 DUP7 ADD PUSH2 0xA03 JUMP JUMPDEST SWAP2 POP POP SWAP3 POP SWAP3 SWAP1 POP JUMP JUMPDEST PUSH1 0x0 PUSH1 0x20 DUP3 DUP5 SUB SLT ISZERO PUSH2 0xAD4 JUMPI PUSH2 0xAD3 PUSH2 0x1160 JUMP JUMPDEST JUMPDEST PUSH1 0x0 PUSH2 0xAE2 DUP5 DUP3 DUP6 ADD PUSH2 0xA31 JUMP JUMPDEST SWAP2 POP POP SWAP3 SWAP2 POP POP JUMP JUMPDEST PUSH1 0x0 PUSH2 0xAF7 DUP4 DUP4 PUSH2 0xB03 JUMP JUMPDEST PUSH1 0x20 DUP4 ADD SWAP1 POP SWAP3 SWAP2 POP POP JUMP JUMPDEST PUSH2 0xB0C DUP2 PUSH2 0xF6B JUMP JUMPDEST DUP3 MSTORE POP POP JUMP JUMPDEST PUSH1 0x0 PUSH2 0xB1D DUP3 PUSH2 0xF0A JUMP JUMPDEST PUSH2 0xB27 DUP2 DUP6 PUSH2 0xF2D JUMP JUMPDEST SWAP4 POP PUSH2 0xB32 DUP4 PUSH2 0xEE5 JUMP JUMPDEST DUP1 PUSH1 0x0 JUMPDEST DUP4 DUP2 LT ISZERO PUSH2 0xB63 JUMPI DUP2 MLOAD PUSH2 0xB4A DUP9 DUP3 PUSH2 0xAEB JUMP JUMPDEST SWAP8 POP PUSH2 0xB55 DUP4 PUSH2 0xF20 JUMP JUMPDEST SWAP3 POP POP PUSH1 0x1 DUP2 ADD SWAP1 POP PUSH2 0xB36 JUMP JUMPDEST POP DUP6 SWAP4 POP POP POP POP SWAP3 SWAP2 POP POP JUMP JUMPDEST PUSH1 0x0 PUSH2 0xB7B DUP3 PUSH2 0xF15 JUMP JUMPDEST PUSH2 0xB85 DUP2 DUP6 PUSH2 0xF3E JUMP JUMPDEST SWAP4 POP PUSH2 0xB95 DUP2 DUP6 PUSH1 0x20 DUP7 ADD PUSH2 0xFB6 JUMP JUMPDEST PUSH2 0xB9E DUP2 PUSH2 0x1165 JUMP JUMPDEST DUP5 ADD SWAP2 POP POP SWAP3 SWAP2 POP POP JUMP JUMPDEST PUSH1 0x0 PUSH2 0xBB4 DUP3 PUSH2 0xF15 JUMP JUMPDEST PUSH2 0xBBE DUP2 DUP6 PUSH2 0xF4F JUMP JUMPDEST SWAP4 POP PUSH2 0xBCE DUP2 DUP6 PUSH1 0x20 DUP7 ADD PUSH2 0xFB6 JUMP JUMPDEST PUSH2 0xBD7 DUP2 PUSH2 0x1165 JUMP JUMPDEST DUP5 ADD SWAP2 POP POP SWAP3 SWAP2 POP POP JUMP JUMPDEST PUSH1 0x0 DUP2 SLOAD PUSH2 0xBEF DUP2 PUSH2 0xFE9 JUMP JUMPDEST PUSH2 0xBF9 DUP2 DUP7 PUSH2 0xF60 JUMP JUMPDEST SWAP5 POP PUSH1 0x1 DUP3 AND PUSH1 0x0 DUP2 EQ PUSH2 0xC14 JUMPI PUSH1 0x1 DUP2 EQ PUSH2 0xC25 JUMPI PUSH2 0xC58 JUMP JUMPDEST PUSH1 0xFF NOT DUP4 AND DUP7 MSTORE DUP2 DUP7 ADD SWAP4 POP PUSH2 0xC58 JUMP JUMPDEST PUSH2 0xC2E DUP6 PUSH2 0xEF5 JUMP JUMPDEST PUSH1 0x0 JUMPDEST DUP4 DUP2 LT ISZERO PUSH2 0xC50 JUMPI DUP2 SLOAD DUP2 DUP10 ADD MSTORE PUSH1 0x1 DUP3 ADD SWAP2 POP PUSH1 0x20 DUP2 ADD SWAP1 POP PUSH2 0xC31 JUMP JUMPDEST DUP4 DUP9 ADD SWAP6 POP POP POP JUMPDEST POP POP POP SWAP3 SWAP2 POP POP JUMP JUMPDEST PUSH1 0x0 PUSH2 0xC6E PUSH1 0x2B DUP4 PUSH2 0xF4F JUMP JUMPDEST SWAP2 POP PUSH2 0xC79 DUP3 PUSH2 0x1176 JUMP JUMPDEST PUSH1 0x40 DUP3 ADD SWAP1 POP SWAP2 SWAP1 POP JUMP JUMPDEST PUSH1 0x0 PUSH2 0xC91 PUSH1 0x21 DUP4 PUSH2 0xF4F JUMP JUMPDEST SWAP2 POP PUSH2 0xC9C DUP3 PUSH2 0x11C5 JUMP JUMPDEST PUSH1 0x40 DUP3 ADD SWAP1 POP SWAP2 SWAP1 POP JUMP JUMPDEST PUSH1 0x0 PUSH2 0xCB4 PUSH1 0x9 DUP4 PUSH2 0xF4F JUMP JUMPDEST SWAP2 POP PUSH2 0xCBF DUP3 PUSH2 0x1214 JUMP JUMPDEST PUSH1 0x20 DUP3 ADD SWAP1 POP SWAP2 SWAP1 POP JUMP JUMPDEST PUSH1 0x0 PUSH1 0x80 DUP4 ADD PUSH1 0x0 DUP4 ADD MLOAD PUSH2 0xCE2 PUSH1 0x0 DUP7 ADD DUP3 PUSH2 0xD34 JUMP JUMPDEST POP PUSH1 0x20 DUP4 ADD MLOAD DUP5 DUP3 SUB PUSH1 0x20 DUP7 ADD MSTORE PUSH2 0xCFA DUP3 DUP3 PUSH2 0xB70 JUMP JUMPDEST SWAP2 POP POP PUSH1 0x40 DUP4 ADD MLOAD DUP5 DUP3 SUB PUSH1 0x40 DUP7 ADD MSTORE PUSH2 0xD14 DUP3 DUP3 PUSH2 0xB70 JUMP JUMPDEST SWAP2 POP POP PUSH1 0x60 DUP4 ADD MLOAD PUSH2 0xD29 PUSH1 0x60 DUP7 ADD DUP3 PUSH2 0xD34 JUMP JUMPDEST POP DUP1 SWAP2 POP POP SWAP3 SWAP2 POP POP JUMP JUMPDEST PUSH2 0xD3D DUP2 PUSH2 0xF9D JUMP JUMPDEST DUP3 MSTORE POP POP JUMP JUMPDEST PUSH2 0xD4C DUP2 PUSH2 0xF9D JUMP JUMPDEST DUP3 MSTORE POP POP JUMP JUMPDEST PUSH1 0x0 PUSH2 0xD5E DUP3 DUP5 PUSH2 0xBE2 JUMP JUMPDEST SWAP2 POP DUP2 SWAP1 POP SWAP3 SWAP2 POP POP JUMP JUMPDEST PUSH1 0x0 PUSH1 0x20 DUP3 ADD SWAP1 POP DUP2 DUP2 SUB PUSH1 0x0 DUP4 ADD MSTORE PUSH2 0xD83 DUP2 DUP5 PUSH2 0xB12 JUMP JUMPDEST SWAP1 POP SWAP3 SWAP2 POP POP JUMP JUMPDEST PUSH1 0x0 PUSH1 0x20 DUP3 ADD SWAP1 POP DUP2 DUP2 SUB PUSH1 0x0 DUP4 ADD MSTORE PUSH2 0xDA5 DUP2 DUP5 PUSH2 0xBA9 JUMP JUMPDEST SWAP1 POP SWAP3 SWAP2 POP POP JUMP JUMPDEST PUSH1 0x0 PUSH1 0x60 DUP3 ADD SWAP1 POP DUP2 DUP2 SUB PUSH1 0x0 DUP4 ADD MSTORE PUSH2 0xDC7 DUP2 DUP7 PUSH2 0xBA9 JUMP JUMPDEST SWAP1 POP DUP2 DUP2 SUB PUSH1 0x20 DUP4 ADD MSTORE PUSH2 0xDDB DUP2 DUP6 PUSH2 0xBA9 JUMP JUMPDEST SWAP1 POP PUSH2 0xDEA PUSH1 0x40 DUP4 ADD DUP5 PUSH2 0xD43 JUMP JUMPDEST SWAP5 SWAP4 POP POP POP POP JUMP JUMPDEST PUSH1 0x0 PUSH1 0x20 DUP3 ADD SWAP1 POP DUP2 DUP2 SUB PUSH1 0x0 DUP4 ADD MSTORE PUSH2 0xE0B DUP2 PUSH2 0xC61 JUMP JUMPDEST SWAP1 POP SWAP2 SWAP1 POP JUMP JUMPDEST PUSH1 0x0 PUSH1 0x20 DUP3 ADD SWAP1 POP DUP2 DUP2 SUB PUSH1 0x0 DUP4 ADD MSTORE PUSH2 0xE2B DUP2 PUSH2 0xC84 JUMP JUMPDEST SWAP1 POP SWAP2 SWAP1 POP JUMP JUMPDEST PUSH1 0x0 PUSH1 0x20 DUP3 ADD SWAP1 POP DUP2 DUP2 SUB PUSH1 0x0 DUP4 ADD MSTORE PUSH2 0xE4B DUP2 PUSH2 0xCA7 JUMP JUMPDEST SWAP1 POP SWAP2 SWAP1 POP JUMP JUMPDEST PUSH1 0x0 PUSH1 0x20 DUP3 ADD SWAP1 POP DUP2 DUP2 SUB PUSH1 0x0 DUP4 ADD MSTORE PUSH2 0xE6C DUP2 DUP5 PUSH2 0xCCA JUMP JUMPDEST SWAP1 POP SWAP3 SWAP2 POP POP JUMP JUMPDEST PUSH1 0x0 PUSH1 0x20 DUP3 ADD SWAP1 POP PUSH2 0xE89 PUSH1 0x0 DUP4 ADD DUP5 PUSH2 0xD43 JUMP JUMPDEST SWAP3 SWAP2 POP POP JUMP JUMPDEST PUSH1 0x0 PUSH2 0xE99 PUSH2 0xEAA JUMP JUMPDEST SWAP1 POP PUSH2 0xEA5 DUP3 DUP3 PUSH2 0x101B JUMP JUMPDEST SWAP2 SWAP1 POP JUMP JUMPDEST PUSH1 0x0 PUSH1 0x40 MLOAD SWAP1 POP SWAP1 JUMP JUMPDEST PUSH1 0x0 PUSH8 0xFFFFFFFFFFFFFFFF DUP3 GT ISZERO PUSH2 0xECF JUMPI PUSH2 0xECE PUSH2 0x1122 JUMP JUMPDEST JUMPDEST PUSH2 0xED8 DUP3 PUSH2 0x1165 JUMP JUMPDEST SWAP1 POP PUSH1 0x20 DUP2 ADD SWAP1 POP SWAP2 SWAP1 POP JUMP JUMPDEST PUSH1 0x0 DUP2 SWAP1 POP PUSH1 0x20 DUP3 ADD SWAP1 POP SWAP2 SWAP1 POP JUMP JUMPDEST PUSH1 0x0 DUP2 SWAP1 POP DUP2 PUSH1 0x0 MSTORE PUSH1 0x20 PUSH1 0x0 KECCAK256 SWAP1 POP SWAP2 SWAP1 POP JUMP JUMPDEST PUSH1 0x0 DUP2 MLOAD SWAP1 POP SWAP2 SWAP1 POP JUMP JUMPDEST PUSH1 0x0 DUP2 MLOAD SWAP1 POP SWAP2 SWAP1 POP JUMP JUMPDEST PUSH1 0x0 PUSH1 0x20 DUP3 ADD SWAP1 POP SWAP2 SWAP1 POP JUMP JUMPDEST PUSH1 0x0 DUP3 DUP3 MSTORE PUSH1 0x20 DUP3 ADD SWAP1 POP SWAP3 SWAP2 POP POP JUMP JUMPDEST PUSH1 0x0 DUP3 DUP3 MSTORE PUSH1 0x20 DUP3 ADD SWAP1 POP SWAP3 SWAP2 POP POP JUMP JUMPDEST PUSH1 0x0 DUP3 DUP3 MSTORE PUSH1 0x20 DUP3 ADD SWAP1 POP SWAP3 SWAP2 POP POP JUMP JUMPDEST PUSH1 0x0 DUP2 SWAP1 POP SWAP3 SWAP2 POP POP JUMP JUMPDEST PUSH1 0x0 PUSH2 0xF76 DUP3 PUSH2 0xF7D JUMP JUMPDEST SWAP1 POP SWAP2 SWAP1 POP JUMP JUMPDEST PUSH1 0x0 PUSH20 0xFFFFFFFFFFFFFFFFFFFFFFFFFFFFFFFFFFFFFFFF DUP3 AND SWAP1 POP SWAP2 SWAP1 POP JUMP JUMPDEST PUSH1 0x0 DUP2 SWAP1 POP SWAP2 SWAP1 POP JUMP JUMPDEST DUP3 DUP2 DUP4 CALLDATACOPY PUSH1 0x0 DUP4 DUP4 ADD MSTORE POP POP POP JUMP JUMPDEST PUSH1 0x0 JUMPDEST DUP4 DUP2 LT ISZERO PUSH2 0xFD4 JUMPI DUP1 DUP3 ADD MLOAD DUP2 DUP5 ADD MSTORE PUSH1 0x20 DUP2 ADD SWAP1 POP PUSH2 0xFB9 JUMP JUMPDEST DUP4 DUP2 GT ISZERO PUSH2 0xFE3 JUMPI PUSH1 0x0 DUP5 DUP5 ADD MSTORE JUMPDEST POP POP POP POP JUMP JUMPDEST PUSH1 0x0 PUSH1 0x2 DUP3 DIV SWAP1 POP PUSH1 0x1 DUP3 AND DUP1 PUSH2 0x1001 JUMPI PUSH1 0x7F DUP3 AND SWAP2 POP JUMPDEST PUSH1 0x20 DUP3 LT DUP2 EQ ISZERO PUSH2 0x1015 JUMPI PUSH2 0x1014 PUSH2 0x10C4 JUMP JUMPDEST JUMPDEST POP SWAP2 SWAP1 POP JUMP JUMPDEST PUSH2 0x1024 DUP3 PUSH2 0x1165 JUMP JUMPDEST DUP2 ADD DUP2 DUP2 LT PUSH8 0xFFFFFFFFFFFFFFFF DUP3 GT OR ISZERO PUSH2 0x1043 JUMPI PUSH2 0x1042 PUSH2 0x1122 JUMP JUMPDEST JUMPDEST DUP1 PUSH1 0x40 MSTORE POP POP POP JUMP JUMPDEST PUSH1 0x0 PUSH2 0x1057 DUP3 PUSH2 0xF9D JUMP JUMPDEST SWAP2 POP PUSH32 0xFFFFFFFFFFFFFFFFFFFFFFFFFFFFFFFFFFFFFFFFFFFFFFFFFFFFFFFFFFFFFFFF DUP3 EQ ISZERO PUSH2 0x108A JUMPI PUSH2 0x1089 PUSH2 0x1095 JUMP JUMPDEST JUMPDEST PUSH1 0x1 DUP3 ADD SWAP1 POP SWAP2 SWAP1 POP JUMP JUMPDEST PUSH32 0x4E487B7100000000000000000000000000000000000000000000000000000000 PUSH1 0x0 MSTORE PUSH1 0x11 PUSH1 0x4 MSTORE PUSH1 0x24 PUSH1 0x0 REVERT JUMPDEST PUSH32 0x4E487B7100000000000000000000000000000000000000000000000000000000 PUSH1 0x0 MSTORE PUSH1 0x22 PUSH1 0x4 MSTORE PUSH1 0x24 PUSH1 0x0 REVERT JUMPDEST PUSH32 0x4E487B7100000000000000000000000000000000000000000000000000000000 PUSH1 0x0 MSTORE PUSH1 0x32 PUSH1 0x4 MSTORE PUSH1 0x24 PUSH1 0x0 REVERT JUMPDEST PUSH32 0x4E487B7100000000000000000000000000000000000000000000000000000000 PUSH1 0x0 MSTORE PUSH1 0x41 PUSH1 0x4 MSTORE PUSH1 0x24 PUSH1 0x0 REVERT JUMPDEST PUSH1 0x0 DUP1 REVERT JUMPDEST PUSH1 0x0 DUP1 REVERT JUMPDEST PUSH1 0x0 DUP1 REVERT JUMPDEST PUSH1 0x0 DUP1 REVERT JUMPDEST PUSH1 0x0 PUSH1 0x1F NOT PUSH1 0x1F DUP4 ADD AND SWAP1 POP SWAP2 SWAP1 POP JUMP JUMPDEST PUSH32 0x5061796D656E742073686F756C64206265207468652073756273637269707469 PUSH1 0x0 DUP3 ADD MSTORE PUSH32 0x6F6E20666565206F6E6C79000000000000000000000000000000000000000000 PUSH1 0x20 DUP3 ADD MSTORE POP JUMP JUMPDEST PUSH32 0x4F6E6C7920617574686F722063616E2063616C6C2074686973206D6574686F64 PUSH1 0x0 DUP3 ADD MSTORE PUSH32 0x2100000000000000000000000000000000000000000000000000000000000000 PUSH1 0x20 DUP3 ADD MSTORE POP JUMP JUMPDEST PUSH32 0x4E6F7420612076616C0000000000000000000000000000000000000000000000 PUSH1 0x0 DUP3 ADD MSTORE POP JUMP JUMPDEST PUSH2 0x1246 DUP2 PUSH2 0xF9D JUMP JUMPDEST DUP2 EQ PUSH2 0x1251 JUMPI PUSH1 0x0 DUP1 REVERT JUMPDEST POP JUMP INVALID LOG2 PUSH5 0x6970667358 0x22 SLT KECCAK256 SWAP13 SWAP6 0xAB LOG1 SWAP13 CREATE 0xAE 0x2F PUSH28 0xF57E50DF864958FF77DEDAA370E51BD3044DB922D596DF64736F6C63 NUMBER STOP ADDMOD SMOD STOP CALLER "
				},
				"gasEstimates": {
					"creation": {
						"codeDepositCost": "949200",
						"executionCost": "infinite",
						"totalCost": "infinite"
					},
					"external": {
						"": "2590",
						"addSubscriber()": "infinite",
						"channelName()": "infinite",
						"getArticleInfo(uint256)": "infinite",
						"printSubscribersList()": "infinite",
						"publishArticle(string,string)": "infinite",
						"subscriptionFee()": "2430",
						"withdrawAmount()": "infinite"
					}
				},
				"methodIdentifiers": {
					"addSubscriber()": "be291999",
					"channelName()": "2443877c",
					"getArticleInfo(uint256)": "85aca317",
					"printSubscribersList()": "82d69b62",
					"publishArticle(string,string)": "95961f05",
					"subscriptionFee()": "0aa0a175",
					"withdrawAmount()": "534844a2"
				}
			},
			"storageLayout": {
				"storage": [
					{
						"astId": 5,
						"contract": "contracts/myContract.sol:testContract",
						"label": "subscribers",
						"offset": 0,
						"slot": "0",
						"type": "t_mapping(t_uint256,t_address)"
					},
					{
						"astId": 7,
						"contract": "contracts/myContract.sol:testContract",
						"label": "subscriberCount",
						"offset": 0,
						"slot": "1",
						"type": "t_uint256"
					},
					{
						"astId": 21,
						"contract": "contracts/myContract.sol:testContract",
						"label": "articleHistory",
						"offset": 0,
						"slot": "2",
						"type": "t_mapping(t_uint256,t_struct(articleInfo)16_storage)"
					},
					{
						"astId": 23,
						"contract": "contracts/myContract.sol:testContract",
						"label": "articleCount",
						"offset": 0,
						"slot": "3",
						"type": "t_uint256"
					},
					{
						"astId": 25,
						"contract": "contracts/myContract.sol:testContract",
						"label": "author",
						"offset": 0,
						"slot": "4",
						"type": "t_address_payable"
					},
					{
						"astId": 27,
						"contract": "contracts/myContract.sol:testContract",
						"label": "subscriptionFee",
						"offset": 0,
						"slot": "5",
						"type": "t_uint256"
					},
					{
						"astId": 29,
						"contract": "contracts/myContract.sol:testContract",
						"label": "channelName",
						"offset": 0,
						"slot": "6",
						"type": "t_string_storage"
					}
				],
				"types": {
					"t_address": {
						"encoding": "inplace",
						"label": "address",
						"numberOfBytes": "20"
					},
					"t_address_payable": {
						"encoding": "inplace",
						"label": "address payable",
						"numberOfBytes": "20"
					},
					"t_mapping(t_uint256,t_address)": {
						"encoding": "mapping",
						"key": "t_uint256",
						"label": "mapping(uint256 => address)",
						"numberOfBytes": "32",
						"value": "t_address"
					},
					"t_mapping(t_uint256,t_struct(articleInfo)16_storage)": {
						"encoding": "mapping",
						"key": "t_uint256",
						"label": "mapping(uint256 => struct testContract.articleInfo)",
						"numberOfBytes": "32",
						"value": "t_struct(articleInfo)16_storage"
					},
					"t_string_storage": {
						"encoding": "bytes",
						"label": "string",
						"numberOfBytes": "32"
					},
					"t_struct(articleInfo)16_storage": {
						"encoding": "inplace",
						"label": "struct testContract.articleInfo",
						"members": [
							{
								"astId": 9,
								"contract": "contracts/myContract.sol:testContract",
								"label": "articleNo",
								"offset": 0,
								"slot": "0",
								"type": "t_uint256"
							},
							{
								"astId": 11,
								"contract": "contracts/myContract.sol:testContract",
								"label": "atricleTitle",
								"offset": 0,
								"slot": "1",
								"type": "t_string_storage"
							},
							{
								"astId": 13,
								"contract": "contracts/myContract.sol:testContract",
								"label": "articleCID",
								"offset": 0,
								"slot": "2",
								"type": "t_string_storage"
							},
							{
								"astId": 15,
								"contract": "contracts/myContract.sol:testContract",
								"label": "articleTimeStamp",
								"offset": 0,
								"slot": "3",
								"type": "t_uint256"
							}
						],
						"numberOfBytes": "128"
					},
					"t_uint256": {
						"encoding": "inplace",
						"label": "uint256",
						"numberOfBytes": "32"
					}
				}
			},
			"userdoc": {
				"kind": "user",
				"methods": {},
				"version": 1
			}
		}
	}
}