{
	"contracts/myContract.sol": {
		"testContract": {
			"abi": [
				{
					"inputs": [
						{
							"internalType": "string",
							"name": "userName",
							"type": "string"
						}
					],
					"name": "addSubscriber",
					"outputs": [],
					"stateMutability": "nonpayable",
					"type": "function"
				},
				{
					"inputs": [],
					"name": "author",
					"outputs": [
						{
							"internalType": "string",
							"name": "",
							"type": "string"
						}
					],
					"stateMutability": "view",
					"type": "function"
				},
				{
					"inputs": [],
					"name": "getSubscriberCount",
					"outputs": [
						{
							"internalType": "uint256",
							"name": "",
							"type": "uint256"
						}
					],
					"stateMutability": "view",
					"type": "function"
				},
				{
					"inputs": [],
					"name": "subscriberCount",
					"outputs": [
						{
							"internalType": "uint256",
							"name": "",
							"type": "uint256"
						}
					],
					"stateMutability": "view",
					"type": "function"
				},
				{
					"inputs": [
						{
							"internalType": "string",
							"name": "",
							"type": "string"
						}
					],
					"name": "subscribers",
					"outputs": [
						{
							"internalType": "address",
							"name": "",
							"type": "address"
						}
					],
					"stateMutability": "view",
					"type": "function"
				}
			],
			"devdoc": {
				"kind": "dev",
				"methods": {},
				"version": 1
			},
			"evm": {
				"assembly": "    /* \"contracts/myContract.sol\":76:706  contract testContract {\r... */\n  mstore(0x40, 0x80)\n    /* \"contracts/myContract.sol\":193:194  0 */\n  0x00\n    /* \"contracts/myContract.sol\":163:194  uint public subscriberCount = 0 */\n  0x01\n  sstore\n    /* \"contracts/myContract.sol\":76:706  contract testContract {\r... */\n  callvalue\n  dup1\n  iszero\n  tag_1\n  jumpi\n  0x00\n  dup1\n  revert\ntag_1:\n  pop\n  dataSize(sub_0)\n  dup1\n  dataOffset(sub_0)\n  0x00\n  codecopy\n  0x00\n  return\nstop\n\nsub_0: assembly {\n        /* \"contracts/myContract.sol\":76:706  contract testContract {\r... */\n      mstore(0x40, 0x80)\n      callvalue\n      dup1\n      iszero\n      tag_1\n      jumpi\n      0x00\n      dup1\n      revert\n    tag_1:\n      pop\n      jumpi(tag_2, lt(calldatasize, 0x04))\n      shr(0xe0, calldataload(0x00))\n      dup1\n      0x17e703ab\n      eq\n      tag_3\n      jumpi\n      dup1\n      0x2edd4fa5\n      eq\n      tag_4\n      jumpi\n      dup1\n      0x4155ad23\n      eq\n      tag_5\n      jumpi\n      dup1\n      0xa6c3e6b9\n      eq\n      tag_6\n      jumpi\n      dup1\n      0xef352bbe\n      eq\n      tag_7\n      jumpi\n    tag_2:\n      0x00\n      dup1\n      revert\n        /* \"contracts/myContract.sol\":468:568  function getSubscriberCount() public view returns(uint256) {\r... */\n    tag_3:\n      tag_8\n      tag_9\n      jump\t// in\n    tag_8:\n      mload(0x40)\n      tag_10\n      swap2\n      swap1\n      tag_11\n      jump\t// in\n    tag_10:\n      mload(0x40)\n      dup1\n      swap2\n      sub\n      swap1\n      return\n        /* \"contracts/myContract.sol\":324:459  function addSubscriber(string memory userName) public {\r... */\n    tag_4:\n      tag_12\n      0x04\n      dup1\n      calldatasize\n      sub\n      dup2\n      add\n      swap1\n      tag_13\n      swap2\n      swap1\n      tag_14\n      jump\t// in\n    tag_13:\n      tag_15\n      jump\t// in\n    tag_12:\n      stop\n        /* \"contracts/myContract.sol\":111:156  mapping(string => address) public subscribers */\n    tag_5:\n      tag_16\n      0x04\n      dup1\n      calldatasize\n      sub\n      dup2\n      add\n      swap1\n      tag_17\n      swap2\n      swap1\n      tag_14\n      jump\t// in\n    tag_17:\n      tag_18\n      jump\t// in\n    tag_16:\n      mload(0x40)\n      tag_19\n      swap2\n      swap1\n      tag_20\n      jump\t// in\n    tag_19:\n      mload(0x40)\n      dup1\n      swap2\n      sub\n      swap1\n      return\n        /* \"contracts/myContract.sol\":289:309  string public author */\n    tag_6:\n      tag_21\n      tag_22\n      jump\t// in\n    tag_21:\n      mload(0x40)\n      tag_23\n      swap2\n      swap1\n      tag_24\n      jump\t// in\n    tag_23:\n      mload(0x40)\n      dup1\n      swap2\n      sub\n      swap1\n      return\n        /* \"contracts/myContract.sol\":163:194  uint public subscriberCount = 0 */\n    tag_7:\n      tag_25\n      tag_26\n      jump\t// in\n    tag_25:\n      mload(0x40)\n      tag_27\n      swap2\n      swap1\n      tag_11\n      jump\t// in\n    tag_27:\n      mload(0x40)\n      dup1\n      swap2\n      sub\n      swap1\n      return\n        /* \"contracts/myContract.sol\":468:568  function getSubscriberCount() public view returns(uint256) {\r... */\n    tag_9:\n        /* \"contracts/myContract.sol\":518:525  uint256 */\n      0x00\n        /* \"contracts/myContract.sol\":545:560  subscriberCount */\n      sload(0x01)\n        /* \"contracts/myContract.sol\":538:560  return subscriberCount */\n      swap1\n      pop\n        /* \"contracts/myContract.sol\":468:568  function getSubscriberCount() public view returns(uint256) {\r... */\n      swap1\n      jump\t// out\n        /* \"contracts/myContract.sol\":324:459  function addSubscriber(string memory userName) public {\r... */\n    tag_15:\n        /* \"contracts/myContract.sol\":413:423  msg.sender */\n      caller\n        /* \"contracts/myContract.sol\":389:400  subscribers */\n      0x00\n        /* \"contracts/myContract.sol\":401:409  userName */\n      dup3\n        /* \"contracts/myContract.sol\":389:410  subscribers[userName] */\n      mload(0x40)\n      tag_30\n      swap2\n      swap1\n      tag_31\n      jump\t// in\n    tag_30:\n      swap1\n      dup2\n      mstore\n      0x20\n      add\n      mload(0x40)\n      dup1\n      swap2\n      sub\n      swap1\n      keccak256\n      0x00\n        /* \"contracts/myContract.sol\":389:423  subscribers[userName] = msg.sender */\n      0x0100\n      exp\n      dup2\n      sload\n      dup2\n      0xffffffffffffffffffffffffffffffffffffffff\n      mul\n      not\n      and\n      swap1\n      dup4\n      0xffffffffffffffffffffffffffffffffffffffff\n      and\n      mul\n      or\n      swap1\n      sstore\n      pop\n        /* \"contracts/myContract.sol\":434:449  subscriberCount */\n      0x01\n      0x00\n        /* \"contracts/myContract.sol\":434:451  subscriberCount++ */\n      dup2\n      sload\n      dup1\n      swap3\n      swap2\n      swap1\n      tag_32\n      swap1\n      tag_33\n      jump\t// in\n    tag_32:\n      swap2\n      swap1\n      pop\n      sstore\n      pop\n        /* \"contracts/myContract.sol\":324:459  function addSubscriber(string memory userName) public {\r... */\n      pop\n      jump\t// out\n        /* \"contracts/myContract.sol\":111:156  mapping(string => address) public subscribers */\n    tag_18:\n      0x00\n      dup2\n      dup1\n      mload\n      0x20\n      dup2\n      add\n      dup3\n      add\n      dup1\n      mload\n      dup5\n      dup3\n      mstore\n      0x20\n      dup4\n      add\n      0x20\n      dup6\n      add\n      keccak256\n      dup2\n      dup4\n      mstore\n      dup1\n      swap6\n      pop\n      pop\n      pop\n      pop\n      pop\n      pop\n      0x00\n      swap2\n      pop\n      sload\n      swap1\n      0x0100\n      exp\n      swap1\n      div\n      0xffffffffffffffffffffffffffffffffffffffff\n      and\n      dup2\n      jump\t// out\n        /* \"contracts/myContract.sol\":289:309  string public author */\n    tag_22:\n      0x02\n      dup1\n      sload\n      tag_34\n      swap1\n      tag_35\n      jump\t// in\n    tag_34:\n      dup1\n      0x1f\n      add\n      0x20\n      dup1\n      swap2\n      div\n      mul\n      0x20\n      add\n      mload(0x40)\n      swap1\n      dup2\n      add\n      0x40\n      mstore\n      dup1\n      swap3\n      swap2\n      swap1\n      dup2\n      dup2\n      mstore\n      0x20\n      add\n      dup3\n      dup1\n      sload\n      tag_36\n      swap1\n      tag_35\n      jump\t// in\n    tag_36:\n      dup1\n      iszero\n      tag_37\n      jumpi\n      dup1\n      0x1f\n      lt\n      tag_38\n      jumpi\n      0x0100\n      dup1\n      dup4\n      sload\n      div\n      mul\n      dup4\n      mstore\n      swap2\n      0x20\n      add\n      swap2\n      jump(tag_37)\n    tag_38:\n      dup3\n      add\n      swap2\n      swap1\n      0x00\n      mstore\n      keccak256(0x00, 0x20)\n      swap1\n    tag_39:\n      dup2\n      sload\n      dup2\n      mstore\n      swap1\n      0x01\n      add\n      swap1\n      0x20\n      add\n      dup1\n      dup4\n      gt\n      tag_39\n      jumpi\n      dup3\n      swap1\n      sub\n      0x1f\n      and\n      dup3\n      add\n      swap2\n    tag_37:\n      pop\n      pop\n      pop\n      pop\n      pop\n      dup2\n      jump\t// out\n        /* \"contracts/myContract.sol\":163:194  uint public subscriberCount = 0 */\n    tag_26:\n      sload(0x01)\n      dup2\n      jump\t// out\n        /* \"#utility.yul\":7:419   */\n    tag_41:\n        /* \"#utility.yul\":85:90   */\n      0x00\n        /* \"#utility.yul\":110:176   */\n      tag_43\n        /* \"#utility.yul\":126:175   */\n      tag_44\n        /* \"#utility.yul\":168:174   */\n      dup5\n        /* \"#utility.yul\":126:175   */\n      tag_45\n      jump\t// in\n    tag_44:\n        /* \"#utility.yul\":110:176   */\n      tag_46\n      jump\t// in\n    tag_43:\n        /* \"#utility.yul\":101:176   */\n      swap1\n      pop\n        /* \"#utility.yul\":199:205   */\n      dup3\n        /* \"#utility.yul\":192:197   */\n      dup2\n        /* \"#utility.yul\":185:206   */\n      mstore\n        /* \"#utility.yul\":237:241   */\n      0x20\n        /* \"#utility.yul\":230:235   */\n      dup2\n        /* \"#utility.yul\":226:242   */\n      add\n        /* \"#utility.yul\":275:278   */\n      dup5\n        /* \"#utility.yul\":266:272   */\n      dup5\n        /* \"#utility.yul\":261:264   */\n      dup5\n        /* \"#utility.yul\":257:273   */\n      add\n        /* \"#utility.yul\":254:279   */\n      gt\n        /* \"#utility.yul\":251:363   */\n      iszero\n      tag_47\n      jumpi\n        /* \"#utility.yul\":282:361   */\n      tag_48\n      tag_49\n      jump\t// in\n    tag_48:\n        /* \"#utility.yul\":251:363   */\n    tag_47:\n        /* \"#utility.yul\":372:413   */\n      tag_50\n        /* \"#utility.yul\":406:412   */\n      dup5\n        /* \"#utility.yul\":401:404   */\n      dup3\n        /* \"#utility.yul\":396:399   */\n      dup6\n        /* \"#utility.yul\":372:413   */\n      tag_51\n      jump\t// in\n    tag_50:\n        /* \"#utility.yul\":91:419   */\n      pop\n        /* \"#utility.yul\":7:419   */\n      swap4\n      swap3\n      pop\n      pop\n      pop\n      jump\t// out\n        /* \"#utility.yul\":439:779   */\n    tag_52:\n        /* \"#utility.yul\":495:500   */\n      0x00\n        /* \"#utility.yul\":544:547   */\n      dup3\n        /* \"#utility.yul\":537:541   */\n      0x1f\n        /* \"#utility.yul\":529:535   */\n      dup4\n        /* \"#utility.yul\":525:542   */\n      add\n        /* \"#utility.yul\":521:548   */\n      slt\n        /* \"#utility.yul\":511:633   */\n      tag_54\n      jumpi\n        /* \"#utility.yul\":552:631   */\n      tag_55\n      tag_56\n      jump\t// in\n    tag_55:\n        /* \"#utility.yul\":511:633   */\n    tag_54:\n        /* \"#utility.yul\":669:675   */\n      dup2\n        /* \"#utility.yul\":656:676   */\n      calldataload\n        /* \"#utility.yul\":694:773   */\n      tag_57\n        /* \"#utility.yul\":769:772   */\n      dup5\n        /* \"#utility.yul\":761:767   */\n      dup3\n        /* \"#utility.yul\":754:758   */\n      0x20\n        /* \"#utility.yul\":746:752   */\n      dup7\n        /* \"#utility.yul\":742:759   */\n      add\n        /* \"#utility.yul\":694:773   */\n      tag_41\n      jump\t// in\n    tag_57:\n        /* \"#utility.yul\":685:773   */\n      swap2\n      pop\n        /* \"#utility.yul\":501:779   */\n      pop\n        /* \"#utility.yul\":439:779   */\n      swap3\n      swap2\n      pop\n      pop\n      jump\t// out\n        /* \"#utility.yul\":785:1294   */\n    tag_14:\n        /* \"#utility.yul\":854:860   */\n      0x00\n        /* \"#utility.yul\":903:905   */\n      0x20\n        /* \"#utility.yul\":891:900   */\n      dup3\n        /* \"#utility.yul\":882:889   */\n      dup5\n        /* \"#utility.yul\":878:901   */\n      sub\n        /* \"#utility.yul\":874:906   */\n      slt\n        /* \"#utility.yul\":871:990   */\n      iszero\n      tag_59\n      jumpi\n        /* \"#utility.yul\":909:988   */\n      tag_60\n      tag_61\n      jump\t// in\n    tag_60:\n        /* \"#utility.yul\":871:990   */\n    tag_59:\n        /* \"#utility.yul\":1057:1058   */\n      0x00\n        /* \"#utility.yul\":1046:1055   */\n      dup3\n        /* \"#utility.yul\":1042:1059   */\n      add\n        /* \"#utility.yul\":1029:1060   */\n      calldataload\n        /* \"#utility.yul\":1087:1105   */\n      0xffffffffffffffff\n        /* \"#utility.yul\":1079:1085   */\n      dup2\n        /* \"#utility.yul\":1076:1106   */\n      gt\n        /* \"#utility.yul\":1073:1190   */\n      iszero\n      tag_62\n      jumpi\n        /* \"#utility.yul\":1109:1188   */\n      tag_63\n      tag_64\n      jump\t// in\n    tag_63:\n        /* \"#utility.yul\":1073:1190   */\n    tag_62:\n        /* \"#utility.yul\":1214:1277   */\n      tag_65\n        /* \"#utility.yul\":1269:1276   */\n      dup5\n        /* \"#utility.yul\":1260:1266   */\n      dup3\n        /* \"#utility.yul\":1249:1258   */\n      dup6\n        /* \"#utility.yul\":1245:1267   */\n      add\n        /* \"#utility.yul\":1214:1277   */\n      tag_52\n      jump\t// in\n    tag_65:\n        /* \"#utility.yul\":1204:1277   */\n      swap2\n      pop\n        /* \"#utility.yul\":1000:1287   */\n      pop\n        /* \"#utility.yul\":785:1294   */\n      swap3\n      swap2\n      pop\n      pop\n      jump\t// out\n        /* \"#utility.yul\":1300:1418   */\n    tag_66:\n        /* \"#utility.yul\":1387:1411   */\n      tag_68\n        /* \"#utility.yul\":1405:1410   */\n      dup2\n        /* \"#utility.yul\":1387:1411   */\n      tag_69\n      jump\t// in\n    tag_68:\n        /* \"#utility.yul\":1382:1385   */\n      dup3\n        /* \"#utility.yul\":1375:1412   */\n      mstore\n        /* \"#utility.yul\":1300:1418   */\n      pop\n      pop\n      jump\t// out\n        /* \"#utility.yul\":1424:1788   */\n    tag_70:\n        /* \"#utility.yul\":1512:1515   */\n      0x00\n        /* \"#utility.yul\":1540:1579   */\n      tag_72\n        /* \"#utility.yul\":1573:1578   */\n      dup3\n        /* \"#utility.yul\":1540:1579   */\n      tag_73\n      jump\t// in\n    tag_72:\n        /* \"#utility.yul\":1595:1666   */\n      tag_74\n        /* \"#utility.yul\":1659:1665   */\n      dup2\n        /* \"#utility.yul\":1654:1657   */\n      dup6\n        /* \"#utility.yul\":1595:1666   */\n      tag_75\n      jump\t// in\n    tag_74:\n        /* \"#utility.yul\":1588:1666   */\n      swap4\n      pop\n        /* \"#utility.yul\":1675:1727   */\n      tag_76\n        /* \"#utility.yul\":1720:1726   */\n      dup2\n        /* \"#utility.yul\":1715:1718   */\n      dup6\n        /* \"#utility.yul\":1708:1712   */\n      0x20\n        /* \"#utility.yul\":1701:1706   */\n      dup7\n        /* \"#utility.yul\":1697:1713   */\n      add\n        /* \"#utility.yul\":1675:1727   */\n      tag_77\n      jump\t// in\n    tag_76:\n        /* \"#utility.yul\":1752:1781   */\n      tag_78\n        /* \"#utility.yul\":1774:1780   */\n      dup2\n        /* \"#utility.yul\":1752:1781   */\n      tag_79\n      jump\t// in\n    tag_78:\n        /* \"#utility.yul\":1747:1750   */\n      dup5\n        /* \"#utility.yul\":1743:1782   */\n      add\n        /* \"#utility.yul\":1736:1782   */\n      swap2\n      pop\n        /* \"#utility.yul\":1516:1788   */\n      pop\n        /* \"#utility.yul\":1424:1788   */\n      swap3\n      swap2\n      pop\n      pop\n      jump\t// out\n        /* \"#utility.yul\":1794:2171   */\n    tag_80:\n        /* \"#utility.yul\":1900:1903   */\n      0x00\n        /* \"#utility.yul\":1928:1967   */\n      tag_82\n        /* \"#utility.yul\":1961:1966   */\n      dup3\n        /* \"#utility.yul\":1928:1967   */\n      tag_73\n      jump\t// in\n    tag_82:\n        /* \"#utility.yul\":1983:2072   */\n      tag_83\n        /* \"#utility.yul\":2065:2071   */\n      dup2\n        /* \"#utility.yul\":2060:2063   */\n      dup6\n        /* \"#utility.yul\":1983:2072   */\n      tag_84\n      jump\t// in\n    tag_83:\n        /* \"#utility.yul\":1976:2072   */\n      swap4\n      pop\n        /* \"#utility.yul\":2081:2133   */\n      tag_85\n        /* \"#utility.yul\":2126:2132   */\n      dup2\n        /* \"#utility.yul\":2121:2124   */\n      dup6\n        /* \"#utility.yul\":2114:2118   */\n      0x20\n        /* \"#utility.yul\":2107:2112   */\n      dup7\n        /* \"#utility.yul\":2103:2119   */\n      add\n        /* \"#utility.yul\":2081:2133   */\n      tag_77\n      jump\t// in\n    tag_85:\n        /* \"#utility.yul\":2158:2164   */\n      dup1\n        /* \"#utility.yul\":2153:2156   */\n      dup5\n        /* \"#utility.yul\":2149:2165   */\n      add\n        /* \"#utility.yul\":2142:2165   */\n      swap2\n      pop\n        /* \"#utility.yul\":1904:2171   */\n      pop\n        /* \"#utility.yul\":1794:2171   */\n      swap3\n      swap2\n      pop\n      pop\n      jump\t// out\n        /* \"#utility.yul\":2177:2295   */\n    tag_86:\n        /* \"#utility.yul\":2264:2288   */\n      tag_88\n        /* \"#utility.yul\":2282:2287   */\n      dup2\n        /* \"#utility.yul\":2264:2288   */\n      tag_89\n      jump\t// in\n    tag_88:\n        /* \"#utility.yul\":2259:2262   */\n      dup3\n        /* \"#utility.yul\":2252:2289   */\n      mstore\n        /* \"#utility.yul\":2177:2295   */\n      pop\n      pop\n      jump\t// out\n        /* \"#utility.yul\":2301:2576   */\n    tag_31:\n        /* \"#utility.yul\":2433:2436   */\n      0x00\n        /* \"#utility.yul\":2455:2550   */\n      tag_91\n        /* \"#utility.yul\":2546:2549   */\n      dup3\n        /* \"#utility.yul\":2537:2543   */\n      dup5\n        /* \"#utility.yul\":2455:2550   */\n      tag_80\n      jump\t// in\n    tag_91:\n        /* \"#utility.yul\":2448:2550   */\n      swap2\n      pop\n        /* \"#utility.yul\":2567:2570   */\n      dup2\n        /* \"#utility.yul\":2560:2570   */\n      swap1\n      pop\n        /* \"#utility.yul\":2301:2576   */\n      swap3\n      swap2\n      pop\n      pop\n      jump\t// out\n        /* \"#utility.yul\":2582:2804   */\n    tag_20:\n        /* \"#utility.yul\":2675:2679   */\n      0x00\n        /* \"#utility.yul\":2713:2715   */\n      0x20\n        /* \"#utility.yul\":2702:2711   */\n      dup3\n        /* \"#utility.yul\":2698:2716   */\n      add\n        /* \"#utility.yul\":2690:2716   */\n      swap1\n      pop\n        /* \"#utility.yul\":2726:2797   */\n      tag_93\n        /* \"#utility.yul\":2794:2795   */\n      0x00\n        /* \"#utility.yul\":2783:2792   */\n      dup4\n        /* \"#utility.yul\":2779:2796   */\n      add\n        /* \"#utility.yul\":2770:2776   */\n      dup5\n        /* \"#utility.yul\":2726:2797   */\n      tag_66\n      jump\t// in\n    tag_93:\n        /* \"#utility.yul\":2582:2804   */\n      swap3\n      swap2\n      pop\n      pop\n      jump\t// out\n        /* \"#utility.yul\":2810:3123   */\n    tag_24:\n        /* \"#utility.yul\":2923:2927   */\n      0x00\n        /* \"#utility.yul\":2961:2963   */\n      0x20\n        /* \"#utility.yul\":2950:2959   */\n      dup3\n        /* \"#utility.yul\":2946:2964   */\n      add\n        /* \"#utility.yul\":2938:2964   */\n      swap1\n      pop\n        /* \"#utility.yul\":3010:3019   */\n      dup2\n        /* \"#utility.yul\":3004:3008   */\n      dup2\n        /* \"#utility.yul\":3000:3020   */\n      sub\n        /* \"#utility.yul\":2996:2997   */\n      0x00\n        /* \"#utility.yul\":2985:2994   */\n      dup4\n        /* \"#utility.yul\":2981:2998   */\n      add\n        /* \"#utility.yul\":2974:3021   */\n      mstore\n        /* \"#utility.yul\":3038:3116   */\n      tag_95\n        /* \"#utility.yul\":3111:3115   */\n      dup2\n        /* \"#utility.yul\":3102:3108   */\n      dup5\n        /* \"#utility.yul\":3038:3116   */\n      tag_70\n      jump\t// in\n    tag_95:\n        /* \"#utility.yul\":3030:3116   */\n      swap1\n      pop\n        /* \"#utility.yul\":2810:3123   */\n      swap3\n      swap2\n      pop\n      pop\n      jump\t// out\n        /* \"#utility.yul\":3129:3351   */\n    tag_11:\n        /* \"#utility.yul\":3222:3226   */\n      0x00\n        /* \"#utility.yul\":3260:3262   */\n      0x20\n        /* \"#utility.yul\":3249:3258   */\n      dup3\n        /* \"#utility.yul\":3245:3263   */\n      add\n        /* \"#utility.yul\":3237:3263   */\n      swap1\n      pop\n        /* \"#utility.yul\":3273:3344   */\n      tag_97\n        /* \"#utility.yul\":3341:3342   */\n      0x00\n        /* \"#utility.yul\":3330:3339   */\n      dup4\n        /* \"#utility.yul\":3326:3343   */\n      add\n        /* \"#utility.yul\":3317:3323   */\n      dup5\n        /* \"#utility.yul\":3273:3344   */\n      tag_86\n      jump\t// in\n    tag_97:\n        /* \"#utility.yul\":3129:3351   */\n      swap3\n      swap2\n      pop\n      pop\n      jump\t// out\n        /* \"#utility.yul\":3357:3486   */\n    tag_46:\n        /* \"#utility.yul\":3391:3397   */\n      0x00\n        /* \"#utility.yul\":3418:3438   */\n      tag_99\n      tag_100\n      jump\t// in\n    tag_99:\n        /* \"#utility.yul\":3408:3438   */\n      swap1\n      pop\n        /* \"#utility.yul\":3447:3480   */\n      tag_101\n        /* \"#utility.yul\":3475:3479   */\n      dup3\n        /* \"#utility.yul\":3467:3473   */\n      dup3\n        /* \"#utility.yul\":3447:3480   */\n      tag_102\n      jump\t// in\n    tag_101:\n        /* \"#utility.yul\":3357:3486   */\n      swap2\n      swap1\n      pop\n      jump\t// out\n        /* \"#utility.yul\":3492:3567   */\n    tag_100:\n        /* \"#utility.yul\":3525:3531   */\n      0x00\n        /* \"#utility.yul\":3558:3560   */\n      0x40\n        /* \"#utility.yul\":3552:3561   */\n      mload\n        /* \"#utility.yul\":3542:3561   */\n      swap1\n      pop\n        /* \"#utility.yul\":3492:3567   */\n      swap1\n      jump\t// out\n        /* \"#utility.yul\":3573:3881   */\n    tag_45:\n        /* \"#utility.yul\":3635:3639   */\n      0x00\n        /* \"#utility.yul\":3725:3743   */\n      0xffffffffffffffff\n        /* \"#utility.yul\":3717:3723   */\n      dup3\n        /* \"#utility.yul\":3714:3744   */\n      gt\n        /* \"#utility.yul\":3711:3767   */\n      iszero\n      tag_105\n      jumpi\n        /* \"#utility.yul\":3747:3765   */\n      tag_106\n      tag_107\n      jump\t// in\n    tag_106:\n        /* \"#utility.yul\":3711:3767   */\n    tag_105:\n        /* \"#utility.yul\":3785:3814   */\n      tag_108\n        /* \"#utility.yul\":3807:3813   */\n      dup3\n        /* \"#utility.yul\":3785:3814   */\n      tag_79\n      jump\t// in\n    tag_108:\n        /* \"#utility.yul\":3777:3814   */\n      swap1\n      pop\n        /* \"#utility.yul\":3869:3873   */\n      0x20\n        /* \"#utility.yul\":3863:3867   */\n      dup2\n        /* \"#utility.yul\":3859:3874   */\n      add\n        /* \"#utility.yul\":3851:3874   */\n      swap1\n      pop\n        /* \"#utility.yul\":3573:3881   */\n      swap2\n      swap1\n      pop\n      jump\t// out\n        /* \"#utility.yul\":3887:3986   */\n    tag_73:\n        /* \"#utility.yul\":3939:3945   */\n      0x00\n        /* \"#utility.yul\":3973:3978   */\n      dup2\n        /* \"#utility.yul\":3967:3979   */\n      mload\n        /* \"#utility.yul\":3957:3979   */\n      swap1\n      pop\n        /* \"#utility.yul\":3887:3986   */\n      swap2\n      swap1\n      pop\n      jump\t// out\n        /* \"#utility.yul\":3992:4161   */\n    tag_75:\n        /* \"#utility.yul\":4076:4087   */\n      0x00\n        /* \"#utility.yul\":4110:4116   */\n      dup3\n        /* \"#utility.yul\":4105:4108   */\n      dup3\n        /* \"#utility.yul\":4098:4117   */\n      mstore\n        /* \"#utility.yul\":4150:4154   */\n      0x20\n        /* \"#utility.yul\":4145:4148   */\n      dup3\n        /* \"#utility.yul\":4141:4155   */\n      add\n        /* \"#utility.yul\":4126:4155   */\n      swap1\n      pop\n        /* \"#utility.yul\":3992:4161   */\n      swap3\n      swap2\n      pop\n      pop\n      jump\t// out\n        /* \"#utility.yul\":4167:4315   */\n    tag_84:\n        /* \"#utility.yul\":4269:4280   */\n      0x00\n        /* \"#utility.yul\":4306:4309   */\n      dup2\n        /* \"#utility.yul\":4291:4309   */\n      swap1\n      pop\n        /* \"#utility.yul\":4167:4315   */\n      swap3\n      swap2\n      pop\n      pop\n      jump\t// out\n        /* \"#utility.yul\":4321:4417   */\n    tag_69:\n        /* \"#utility.yul\":4358:4365   */\n      0x00\n        /* \"#utility.yul\":4387:4411   */\n      tag_113\n        /* \"#utility.yul\":4405:4410   */\n      dup3\n        /* \"#utility.yul\":4387:4411   */\n      tag_114\n      jump\t// in\n    tag_113:\n        /* \"#utility.yul\":4376:4411   */\n      swap1\n      pop\n        /* \"#utility.yul\":4321:4417   */\n      swap2\n      swap1\n      pop\n      jump\t// out\n        /* \"#utility.yul\":4423:4549   */\n    tag_114:\n        /* \"#utility.yul\":4460:4467   */\n      0x00\n        /* \"#utility.yul\":4500:4542   */\n      0xffffffffffffffffffffffffffffffffffffffff\n        /* \"#utility.yul\":4493:4498   */\n      dup3\n        /* \"#utility.yul\":4489:4543   */\n      and\n        /* \"#utility.yul\":4478:4543   */\n      swap1\n      pop\n        /* \"#utility.yul\":4423:4549   */\n      swap2\n      swap1\n      pop\n      jump\t// out\n        /* \"#utility.yul\":4555:4632   */\n    tag_89:\n        /* \"#utility.yul\":4592:4599   */\n      0x00\n        /* \"#utility.yul\":4621:4626   */\n      dup2\n        /* \"#utility.yul\":4610:4626   */\n      swap1\n      pop\n        /* \"#utility.yul\":4555:4632   */\n      swap2\n      swap1\n      pop\n      jump\t// out\n        /* \"#utility.yul\":4638:4792   */\n    tag_51:\n        /* \"#utility.yul\":4722:4728   */\n      dup3\n        /* \"#utility.yul\":4717:4720   */\n      dup2\n        /* \"#utility.yul\":4712:4715   */\n      dup4\n        /* \"#utility.yul\":4699:4729   */\n      calldatacopy\n        /* \"#utility.yul\":4784:4785   */\n      0x00\n        /* \"#utility.yul\":4775:4781   */\n      dup4\n        /* \"#utility.yul\":4770:4773   */\n      dup4\n        /* \"#utility.yul\":4766:4782   */\n      add\n        /* \"#utility.yul\":4759:4786   */\n      mstore\n        /* \"#utility.yul\":4638:4792   */\n      pop\n      pop\n      pop\n      jump\t// out\n        /* \"#utility.yul\":4798:5105   */\n    tag_77:\n        /* \"#utility.yul\":4866:4867   */\n      0x00\n        /* \"#utility.yul\":4876:4989   */\n    tag_119:\n        /* \"#utility.yul\":4890:4896   */\n      dup4\n        /* \"#utility.yul\":4887:4888   */\n      dup2\n        /* \"#utility.yul\":4884:4897   */\n      lt\n        /* \"#utility.yul\":4876:4989   */\n      iszero\n      tag_121\n      jumpi\n        /* \"#utility.yul\":4975:4976   */\n      dup1\n        /* \"#utility.yul\":4970:4973   */\n      dup3\n        /* \"#utility.yul\":4966:4977   */\n      add\n        /* \"#utility.yul\":4960:4978   */\n      mload\n        /* \"#utility.yul\":4956:4957   */\n      dup2\n        /* \"#utility.yul\":4951:4954   */\n      dup5\n        /* \"#utility.yul\":4947:4958   */\n      add\n        /* \"#utility.yul\":4940:4979   */\n      mstore\n        /* \"#utility.yul\":4912:4914   */\n      0x20\n        /* \"#utility.yul\":4909:4910   */\n      dup2\n        /* \"#utility.yul\":4905:4915   */\n      add\n        /* \"#utility.yul\":4900:4915   */\n      swap1\n      pop\n        /* \"#utility.yul\":4876:4989   */\n      jump(tag_119)\n    tag_121:\n        /* \"#utility.yul\":5007:5013   */\n      dup4\n        /* \"#utility.yul\":5004:5005   */\n      dup2\n        /* \"#utility.yul\":5001:5014   */\n      gt\n        /* \"#utility.yul\":4998:5099   */\n      iszero\n      tag_122\n      jumpi\n        /* \"#utility.yul\":5087:5088   */\n      0x00\n        /* \"#utility.yul\":5078:5084   */\n      dup5\n        /* \"#utility.yul\":5073:5076   */\n      dup5\n        /* \"#utility.yul\":5069:5085   */\n      add\n        /* \"#utility.yul\":5062:5089   */\n      mstore\n        /* \"#utility.yul\":4998:5099   */\n    tag_122:\n        /* \"#utility.yul\":4847:5105   */\n      pop\n        /* \"#utility.yul\":4798:5105   */\n      pop\n      pop\n      pop\n      jump\t// out\n        /* \"#utility.yul\":5111:5431   */\n    tag_35:\n        /* \"#utility.yul\":5155:5161   */\n      0x00\n        /* \"#utility.yul\":5192:5193   */\n      0x02\n        /* \"#utility.yul\":5186:5190   */\n      dup3\n        /* \"#utility.yul\":5182:5194   */\n      div\n        /* \"#utility.yul\":5172:5194   */\n      swap1\n      pop\n        /* \"#utility.yul\":5239:5240   */\n      0x01\n        /* \"#utility.yul\":5233:5237   */\n      dup3\n        /* \"#utility.yul\":5229:5241   */\n      and\n        /* \"#utility.yul\":5260:5278   */\n      dup1\n        /* \"#utility.yul\":5250:5331   */\n      tag_124\n      jumpi\n        /* \"#utility.yul\":5316:5320   */\n      0x7f\n        /* \"#utility.yul\":5308:5314   */\n      dup3\n        /* \"#utility.yul\":5304:5321   */\n      and\n        /* \"#utility.yul\":5294:5321   */\n      swap2\n      pop\n        /* \"#utility.yul\":5250:5331   */\n    tag_124:\n        /* \"#utility.yul\":5378:5380   */\n      0x20\n        /* \"#utility.yul\":5370:5376   */\n      dup3\n        /* \"#utility.yul\":5367:5381   */\n      lt\n        /* \"#utility.yul\":5347:5365   */\n      dup2\n        /* \"#utility.yul\":5344:5382   */\n      eq\n        /* \"#utility.yul\":5341:5425   */\n      iszero\n      tag_125\n      jumpi\n        /* \"#utility.yul\":5397:5415   */\n      tag_126\n      tag_127\n      jump\t// in\n    tag_126:\n        /* \"#utility.yul\":5341:5425   */\n    tag_125:\n        /* \"#utility.yul\":5162:5431   */\n      pop\n        /* \"#utility.yul\":5111:5431   */\n      swap2\n      swap1\n      pop\n      jump\t// out\n        /* \"#utility.yul\":5437:5718   */\n    tag_102:\n        /* \"#utility.yul\":5520:5547   */\n      tag_129\n        /* \"#utility.yul\":5542:5546   */\n      dup3\n        /* \"#utility.yul\":5520:5547   */\n      tag_79\n      jump\t// in\n    tag_129:\n        /* \"#utility.yul\":5512:5518   */\n      dup2\n        /* \"#utility.yul\":5508:5548   */\n      add\n        /* \"#utility.yul\":5650:5656   */\n      dup2\n        /* \"#utility.yul\":5638:5648   */\n      dup2\n        /* \"#utility.yul\":5635:5657   */\n      lt\n        /* \"#utility.yul\":5614:5632   */\n      0xffffffffffffffff\n        /* \"#utility.yul\":5602:5612   */\n      dup3\n        /* \"#utility.yul\":5599:5633   */\n      gt\n        /* \"#utility.yul\":5596:5658   */\n      or\n        /* \"#utility.yul\":5593:5681   */\n      iszero\n      tag_130\n      jumpi\n        /* \"#utility.yul\":5661:5679   */\n      tag_131\n      tag_107\n      jump\t// in\n    tag_131:\n        /* \"#utility.yul\":5593:5681   */\n    tag_130:\n        /* \"#utility.yul\":5701:5711   */\n      dup1\n        /* \"#utility.yul\":5697:5699   */\n      0x40\n        /* \"#utility.yul\":5690:5712   */\n      mstore\n        /* \"#utility.yul\":5480:5718   */\n      pop\n        /* \"#utility.yul\":5437:5718   */\n      pop\n      pop\n      jump\t// out\n        /* \"#utility.yul\":5724:5957   */\n    tag_33:\n        /* \"#utility.yul\":5763:5766   */\n      0x00\n        /* \"#utility.yul\":5786:5810   */\n      tag_133\n        /* \"#utility.yul\":5804:5809   */\n      dup3\n        /* \"#utility.yul\":5786:5810   */\n      tag_89\n      jump\t// in\n    tag_133:\n        /* \"#utility.yul\":5777:5810   */\n      swap2\n      pop\n        /* \"#utility.yul\":5832:5898   */\n      0xffffffffffffffffffffffffffffffffffffffffffffffffffffffffffffffff\n        /* \"#utility.yul\":5825:5830   */\n      dup3\n        /* \"#utility.yul\":5822:5899   */\n      eq\n        /* \"#utility.yul\":5819:5922   */\n      iszero\n      tag_134\n      jumpi\n        /* \"#utility.yul\":5902:5920   */\n      tag_135\n      tag_136\n      jump\t// in\n    tag_135:\n        /* \"#utility.yul\":5819:5922   */\n    tag_134:\n        /* \"#utility.yul\":5949:5950   */\n      0x01\n        /* \"#utility.yul\":5942:5947   */\n      dup3\n        /* \"#utility.yul\":5938:5951   */\n      add\n        /* \"#utility.yul\":5931:5951   */\n      swap1\n      pop\n        /* \"#utility.yul\":5724:5957   */\n      swap2\n      swap1\n      pop\n      jump\t// out\n        /* \"#utility.yul\":5963:6143   */\n    tag_136:\n        /* \"#utility.yul\":6011:6088   */\n      0x4e487b7100000000000000000000000000000000000000000000000000000000\n        /* \"#utility.yul\":6008:6009   */\n      0x00\n        /* \"#utility.yul\":6001:6089   */\n      mstore\n        /* \"#utility.yul\":6108:6112   */\n      0x11\n        /* \"#utility.yul\":6105:6106   */\n      0x04\n        /* \"#utility.yul\":6098:6113   */\n      mstore\n        /* \"#utility.yul\":6132:6136   */\n      0x24\n        /* \"#utility.yul\":6129:6130   */\n      0x00\n        /* \"#utility.yul\":6122:6137   */\n      revert\n        /* \"#utility.yul\":6149:6329   */\n    tag_127:\n        /* \"#utility.yul\":6197:6274   */\n      0x4e487b7100000000000000000000000000000000000000000000000000000000\n        /* \"#utility.yul\":6194:6195   */\n      0x00\n        /* \"#utility.yul\":6187:6275   */\n      mstore\n        /* \"#utility.yul\":6294:6298   */\n      0x22\n        /* \"#utility.yul\":6291:6292   */\n      0x04\n        /* \"#utility.yul\":6284:6299   */\n      mstore\n        /* \"#utility.yul\":6318:6322   */\n      0x24\n        /* \"#utility.yul\":6315:6316   */\n      0x00\n        /* \"#utility.yul\":6308:6323   */\n      revert\n        /* \"#utility.yul\":6335:6515   */\n    tag_107:\n        /* \"#utility.yul\":6383:6460   */\n      0x4e487b7100000000000000000000000000000000000000000000000000000000\n        /* \"#utility.yul\":6380:6381   */\n      0x00\n        /* \"#utility.yul\":6373:6461   */\n      mstore\n        /* \"#utility.yul\":6480:6484   */\n      0x41\n        /* \"#utility.yul\":6477:6478   */\n      0x04\n        /* \"#utility.yul\":6470:6485   */\n      mstore\n        /* \"#utility.yul\":6504:6508   */\n      0x24\n        /* \"#utility.yul\":6501:6502   */\n      0x00\n        /* \"#utility.yul\":6494:6509   */\n      revert\n        /* \"#utility.yul\":6521:6638   */\n    tag_56:\n        /* \"#utility.yul\":6630:6631   */\n      0x00\n        /* \"#utility.yul\":6627:6628   */\n      dup1\n        /* \"#utility.yul\":6620:6632   */\n      revert\n        /* \"#utility.yul\":6644:6761   */\n    tag_49:\n        /* \"#utility.yul\":6753:6754   */\n      0x00\n        /* \"#utility.yul\":6750:6751   */\n      dup1\n        /* \"#utility.yul\":6743:6755   */\n      revert\n        /* \"#utility.yul\":6767:6884   */\n    tag_64:\n        /* \"#utility.yul\":6876:6877   */\n      0x00\n        /* \"#utility.yul\":6873:6874   */\n      dup1\n        /* \"#utility.yul\":6866:6878   */\n      revert\n        /* \"#utility.yul\":6890:7007   */\n    tag_61:\n        /* \"#utility.yul\":6999:7000   */\n      0x00\n        /* \"#utility.yul\":6996:6997   */\n      dup1\n        /* \"#utility.yul\":6989:7001   */\n      revert\n        /* \"#utility.yul\":7013:7115   */\n    tag_79:\n        /* \"#utility.yul\":7054:7060   */\n      0x00\n        /* \"#utility.yul\":7105:7107   */\n      0x1f\n        /* \"#utility.yul\":7101:7108   */\n      not\n        /* \"#utility.yul\":7096:7098   */\n      0x1f\n        /* \"#utility.yul\":7089:7094   */\n      dup4\n        /* \"#utility.yul\":7085:7099   */\n      add\n        /* \"#utility.yul\":7081:7109   */\n      and\n        /* \"#utility.yul\":7071:7109   */\n      swap1\n      pop\n        /* \"#utility.yul\":7013:7115   */\n      swap2\n      swap1\n      pop\n      jump\t// out\n\n    auxdata: 0xa2646970667358221220823eb7f384ba0ec2b1241f79de800aeea81dce6294b6a2fb177747cf9eebc9df64736f6c63430008070033\n}\n",
				"bytecode": {
					"linkReferences": {},
					"object": "6080604052600060015534801561001557600080fd5b506106a0806100256000396000f3fe608060405234801561001057600080fd5b50600436106100575760003560e01c806317e703ab1461005c5780632edd4fa51461007a5780634155ad2314610096578063a6c3e6b9146100c6578063ef352bbe146100e4575b600080fd5b610064610102565b60405161007191906103f6565b60405180910390f35b610094600480360381019061008f91906102d1565b61010c565b005b6100b060048036038101906100ab91906102d1565b610184565b6040516100bd91906103b9565b60405180910390f35b6100ce6101cd565b6040516100db91906103d4565b60405180910390f35b6100ec61025b565b6040516100f991906103f6565b60405180910390f35b6000600154905090565b3360008260405161011d91906103a2565b908152602001604051809103902060006101000a81548173ffffffffffffffffffffffffffffffffffffffff021916908373ffffffffffffffffffffffffffffffffffffffff1602179055506001600081548092919061017c9061056f565b919050555050565b6000818051602081018201805184825260208301602085012081835280955050505050506000915054906101000a900473ffffffffffffffffffffffffffffffffffffffff1681565b600280546101da9061050c565b80601f01602080910402602001604051908101604052809291908181526020018280546102069061050c565b80156102535780601f1061022857610100808354040283529160200191610253565b820191906000526020600020905b81548152906001019060200180831161023657829003601f168201915b505050505081565b60015481565b600061027461026f84610436565b610411565b9050828152602081018484840111156102905761028f61064a565b5b61029b8482856104ca565b509392505050565b600082601f8301126102b8576102b7610645565b5b81356102c8848260208601610261565b91505092915050565b6000602082840312156102e7576102e6610654565b5b600082013567ffffffffffffffff8111156103055761030461064f565b5b610311848285016102a3565b91505092915050565b6103238161048e565b82525050565b600061033482610467565b61033e8185610472565b935061034e8185602086016104d9565b61035781610659565b840191505092915050565b600061036d82610467565b6103778185610483565b93506103878185602086016104d9565b80840191505092915050565b61039c816104c0565b82525050565b60006103ae8284610362565b915081905092915050565b60006020820190506103ce600083018461031a565b92915050565b600060208201905081810360008301526103ee8184610329565b905092915050565b600060208201905061040b6000830184610393565b92915050565b600061041b61042c565b9050610427828261053e565b919050565b6000604051905090565b600067ffffffffffffffff82111561045157610450610616565b5b61045a82610659565b9050602081019050919050565b600081519050919050565b600082825260208201905092915050565b600081905092915050565b6000610499826104a0565b9050919050565b600073ffffffffffffffffffffffffffffffffffffffff82169050919050565b6000819050919050565b82818337600083830152505050565b60005b838110156104f75780820151818401526020810190506104dc565b83811115610506576000848401525b50505050565b6000600282049050600182168061052457607f821691505b60208210811415610538576105376105e7565b5b50919050565b61054782610659565b810181811067ffffffffffffffff8211171561056657610565610616565b5b80604052505050565b600061057a826104c0565b91507fffffffffffffffffffffffffffffffffffffffffffffffffffffffffffffffff8214156105ad576105ac6105b8565b5b600182019050919050565b7f4e487b7100000000000000000000000000000000000000000000000000000000600052601160045260246000fd5b7f4e487b7100000000000000000000000000000000000000000000000000000000600052602260045260246000fd5b7f4e487b7100000000000000000000000000000000000000000000000000000000600052604160045260246000fd5b600080fd5b600080fd5b600080fd5b600080fd5b6000601f19601f830116905091905056fea2646970667358221220823eb7f384ba0ec2b1241f79de800aeea81dce6294b6a2fb177747cf9eebc9df64736f6c63430008070033",
					"opcodes": "PUSH1 0x80 PUSH1 0x40 MSTORE PUSH1 0x0 PUSH1 0x1 SSTORE CALLVALUE DUP1 ISZERO PUSH2 0x15 JUMPI PUSH1 0x0 DUP1 REVERT JUMPDEST POP PUSH2 0x6A0 DUP1 PUSH2 0x25 PUSH1 0x0 CODECOPY PUSH1 0x0 RETURN INVALID PUSH1 0x80 PUSH1 0x40 MSTORE CALLVALUE DUP1 ISZERO PUSH2 0x10 JUMPI PUSH1 0x0 DUP1 REVERT JUMPDEST POP PUSH1 0x4 CALLDATASIZE LT PUSH2 0x57 JUMPI PUSH1 0x0 CALLDATALOAD PUSH1 0xE0 SHR DUP1 PUSH4 0x17E703AB EQ PUSH2 0x5C JUMPI DUP1 PUSH4 0x2EDD4FA5 EQ PUSH2 0x7A JUMPI DUP1 PUSH4 0x4155AD23 EQ PUSH2 0x96 JUMPI DUP1 PUSH4 0xA6C3E6B9 EQ PUSH2 0xC6 JUMPI DUP1 PUSH4 0xEF352BBE EQ PUSH2 0xE4 JUMPI JUMPDEST PUSH1 0x0 DUP1 REVERT JUMPDEST PUSH2 0x64 PUSH2 0x102 JUMP JUMPDEST PUSH1 0x40 MLOAD PUSH2 0x71 SWAP2 SWAP1 PUSH2 0x3F6 JUMP JUMPDEST PUSH1 0x40 MLOAD DUP1 SWAP2 SUB SWAP1 RETURN JUMPDEST PUSH2 0x94 PUSH1 0x4 DUP1 CALLDATASIZE SUB DUP2 ADD SWAP1 PUSH2 0x8F SWAP2 SWAP1 PUSH2 0x2D1 JUMP JUMPDEST PUSH2 0x10C JUMP JUMPDEST STOP JUMPDEST PUSH2 0xB0 PUSH1 0x4 DUP1 CALLDATASIZE SUB DUP2 ADD SWAP1 PUSH2 0xAB SWAP2 SWAP1 PUSH2 0x2D1 JUMP JUMPDEST PUSH2 0x184 JUMP JUMPDEST PUSH1 0x40 MLOAD PUSH2 0xBD SWAP2 SWAP1 PUSH2 0x3B9 JUMP JUMPDEST PUSH1 0x40 MLOAD DUP1 SWAP2 SUB SWAP1 RETURN JUMPDEST PUSH2 0xCE PUSH2 0x1CD JUMP JUMPDEST PUSH1 0x40 MLOAD PUSH2 0xDB SWAP2 SWAP1 PUSH2 0x3D4 JUMP JUMPDEST PUSH1 0x40 MLOAD DUP1 SWAP2 SUB SWAP1 RETURN JUMPDEST PUSH2 0xEC PUSH2 0x25B JUMP JUMPDEST PUSH1 0x40 MLOAD PUSH2 0xF9 SWAP2 SWAP1 PUSH2 0x3F6 JUMP JUMPDEST PUSH1 0x40 MLOAD DUP1 SWAP2 SUB SWAP1 RETURN JUMPDEST PUSH1 0x0 PUSH1 0x1 SLOAD SWAP1 POP SWAP1 JUMP JUMPDEST CALLER PUSH1 0x0 DUP3 PUSH1 0x40 MLOAD PUSH2 0x11D SWAP2 SWAP1 PUSH2 0x3A2 JUMP JUMPDEST SWAP1 DUP2 MSTORE PUSH1 0x20 ADD PUSH1 0x40 MLOAD DUP1 SWAP2 SUB SWAP1 KECCAK256 PUSH1 0x0 PUSH2 0x100 EXP DUP2 SLOAD DUP2 PUSH20 0xFFFFFFFFFFFFFFFFFFFFFFFFFFFFFFFFFFFFFFFF MUL NOT AND SWAP1 DUP4 PUSH20 0xFFFFFFFFFFFFFFFFFFFFFFFFFFFFFFFFFFFFFFFF AND MUL OR SWAP1 SSTORE POP PUSH1 0x1 PUSH1 0x0 DUP2 SLOAD DUP1 SWAP3 SWAP2 SWAP1 PUSH2 0x17C SWAP1 PUSH2 0x56F JUMP JUMPDEST SWAP2 SWAP1 POP SSTORE POP POP JUMP JUMPDEST PUSH1 0x0 DUP2 DUP1 MLOAD PUSH1 0x20 DUP2 ADD DUP3 ADD DUP1 MLOAD DUP5 DUP3 MSTORE PUSH1 0x20 DUP4 ADD PUSH1 0x20 DUP6 ADD KECCAK256 DUP2 DUP4 MSTORE DUP1 SWAP6 POP POP POP POP POP POP PUSH1 0x0 SWAP2 POP SLOAD SWAP1 PUSH2 0x100 EXP SWAP1 DIV PUSH20 0xFFFFFFFFFFFFFFFFFFFFFFFFFFFFFFFFFFFFFFFF AND DUP2 JUMP JUMPDEST PUSH1 0x2 DUP1 SLOAD PUSH2 0x1DA SWAP1 PUSH2 0x50C JUMP JUMPDEST DUP1 PUSH1 0x1F ADD PUSH1 0x20 DUP1 SWAP2 DIV MUL PUSH1 0x20 ADD PUSH1 0x40 MLOAD SWAP1 DUP2 ADD PUSH1 0x40 MSTORE DUP1 SWAP3 SWAP2 SWAP1 DUP2 DUP2 MSTORE PUSH1 0x20 ADD DUP3 DUP1 SLOAD PUSH2 0x206 SWAP1 PUSH2 0x50C JUMP JUMPDEST DUP1 ISZERO PUSH2 0x253 JUMPI DUP1 PUSH1 0x1F LT PUSH2 0x228 JUMPI PUSH2 0x100 DUP1 DUP4 SLOAD DIV MUL DUP4 MSTORE SWAP2 PUSH1 0x20 ADD SWAP2 PUSH2 0x253 JUMP JUMPDEST DUP3 ADD SWAP2 SWAP1 PUSH1 0x0 MSTORE PUSH1 0x20 PUSH1 0x0 KECCAK256 SWAP1 JUMPDEST DUP2 SLOAD DUP2 MSTORE SWAP1 PUSH1 0x1 ADD SWAP1 PUSH1 0x20 ADD DUP1 DUP4 GT PUSH2 0x236 JUMPI DUP3 SWAP1 SUB PUSH1 0x1F AND DUP3 ADD SWAP2 JUMPDEST POP POP POP POP POP DUP2 JUMP JUMPDEST PUSH1 0x1 SLOAD DUP2 JUMP JUMPDEST PUSH1 0x0 PUSH2 0x274 PUSH2 0x26F DUP5 PUSH2 0x436 JUMP JUMPDEST PUSH2 0x411 JUMP JUMPDEST SWAP1 POP DUP3 DUP2 MSTORE PUSH1 0x20 DUP2 ADD DUP5 DUP5 DUP5 ADD GT ISZERO PUSH2 0x290 JUMPI PUSH2 0x28F PUSH2 0x64A JUMP JUMPDEST JUMPDEST PUSH2 0x29B DUP5 DUP3 DUP6 PUSH2 0x4CA JUMP JUMPDEST POP SWAP4 SWAP3 POP POP POP JUMP JUMPDEST PUSH1 0x0 DUP3 PUSH1 0x1F DUP4 ADD SLT PUSH2 0x2B8 JUMPI PUSH2 0x2B7 PUSH2 0x645 JUMP JUMPDEST JUMPDEST DUP2 CALLDATALOAD PUSH2 0x2C8 DUP5 DUP3 PUSH1 0x20 DUP7 ADD PUSH2 0x261 JUMP JUMPDEST SWAP2 POP POP SWAP3 SWAP2 POP POP JUMP JUMPDEST PUSH1 0x0 PUSH1 0x20 DUP3 DUP5 SUB SLT ISZERO PUSH2 0x2E7 JUMPI PUSH2 0x2E6 PUSH2 0x654 JUMP JUMPDEST JUMPDEST PUSH1 0x0 DUP3 ADD CALLDATALOAD PUSH8 0xFFFFFFFFFFFFFFFF DUP2 GT ISZERO PUSH2 0x305 JUMPI PUSH2 0x304 PUSH2 0x64F JUMP JUMPDEST JUMPDEST PUSH2 0x311 DUP5 DUP3 DUP6 ADD PUSH2 0x2A3 JUMP JUMPDEST SWAP2 POP POP SWAP3 SWAP2 POP POP JUMP JUMPDEST PUSH2 0x323 DUP2 PUSH2 0x48E JUMP JUMPDEST DUP3 MSTORE POP POP JUMP JUMPDEST PUSH1 0x0 PUSH2 0x334 DUP3 PUSH2 0x467 JUMP JUMPDEST PUSH2 0x33E DUP2 DUP6 PUSH2 0x472 JUMP JUMPDEST SWAP4 POP PUSH2 0x34E DUP2 DUP6 PUSH1 0x20 DUP7 ADD PUSH2 0x4D9 JUMP JUMPDEST PUSH2 0x357 DUP2 PUSH2 0x659 JUMP JUMPDEST DUP5 ADD SWAP2 POP POP SWAP3 SWAP2 POP POP JUMP JUMPDEST PUSH1 0x0 PUSH2 0x36D DUP3 PUSH2 0x467 JUMP JUMPDEST PUSH2 0x377 DUP2 DUP6 PUSH2 0x483 JUMP JUMPDEST SWAP4 POP PUSH2 0x387 DUP2 DUP6 PUSH1 0x20 DUP7 ADD PUSH2 0x4D9 JUMP JUMPDEST DUP1 DUP5 ADD SWAP2 POP POP SWAP3 SWAP2 POP POP JUMP JUMPDEST PUSH2 0x39C DUP2 PUSH2 0x4C0 JUMP JUMPDEST DUP3 MSTORE POP POP JUMP JUMPDEST PUSH1 0x0 PUSH2 0x3AE DUP3 DUP5 PUSH2 0x362 JUMP JUMPDEST SWAP2 POP DUP2 SWAP1 POP SWAP3 SWAP2 POP POP JUMP JUMPDEST PUSH1 0x0 PUSH1 0x20 DUP3 ADD SWAP1 POP PUSH2 0x3CE PUSH1 0x0 DUP4 ADD DUP5 PUSH2 0x31A JUMP JUMPDEST SWAP3 SWAP2 POP POP JUMP JUMPDEST PUSH1 0x0 PUSH1 0x20 DUP3 ADD SWAP1 POP DUP2 DUP2 SUB PUSH1 0x0 DUP4 ADD MSTORE PUSH2 0x3EE DUP2 DUP5 PUSH2 0x329 JUMP JUMPDEST SWAP1 POP SWAP3 SWAP2 POP POP JUMP JUMPDEST PUSH1 0x0 PUSH1 0x20 DUP3 ADD SWAP1 POP PUSH2 0x40B PUSH1 0x0 DUP4 ADD DUP5 PUSH2 0x393 JUMP JUMPDEST SWAP3 SWAP2 POP POP JUMP JUMPDEST PUSH1 0x0 PUSH2 0x41B PUSH2 0x42C JUMP JUMPDEST SWAP1 POP PUSH2 0x427 DUP3 DUP3 PUSH2 0x53E JUMP JUMPDEST SWAP2 SWAP1 POP JUMP JUMPDEST PUSH1 0x0 PUSH1 0x40 MLOAD SWAP1 POP SWAP1 JUMP JUMPDEST PUSH1 0x0 PUSH8 0xFFFFFFFFFFFFFFFF DUP3 GT ISZERO PUSH2 0x451 JUMPI PUSH2 0x450 PUSH2 0x616 JUMP JUMPDEST JUMPDEST PUSH2 0x45A DUP3 PUSH2 0x659 JUMP JUMPDEST SWAP1 POP PUSH1 0x20 DUP2 ADD SWAP1 POP SWAP2 SWAP1 POP JUMP JUMPDEST PUSH1 0x0 DUP2 MLOAD SWAP1 POP SWAP2 SWAP1 POP JUMP JUMPDEST PUSH1 0x0 DUP3 DUP3 MSTORE PUSH1 0x20 DUP3 ADD SWAP1 POP SWAP3 SWAP2 POP POP JUMP JUMPDEST PUSH1 0x0 DUP2 SWAP1 POP SWAP3 SWAP2 POP POP JUMP JUMPDEST PUSH1 0x0 PUSH2 0x499 DUP3 PUSH2 0x4A0 JUMP JUMPDEST SWAP1 POP SWAP2 SWAP1 POP JUMP JUMPDEST PUSH1 0x0 PUSH20 0xFFFFFFFFFFFFFFFFFFFFFFFFFFFFFFFFFFFFFFFF DUP3 AND SWAP1 POP SWAP2 SWAP1 POP JUMP JUMPDEST PUSH1 0x0 DUP2 SWAP1 POP SWAP2 SWAP1 POP JUMP JUMPDEST DUP3 DUP2 DUP4 CALLDATACOPY PUSH1 0x0 DUP4 DUP4 ADD MSTORE POP POP POP JUMP JUMPDEST PUSH1 0x0 JUMPDEST DUP4 DUP2 LT ISZERO PUSH2 0x4F7 JUMPI DUP1 DUP3 ADD MLOAD DUP2 DUP5 ADD MSTORE PUSH1 0x20 DUP2 ADD SWAP1 POP PUSH2 0x4DC JUMP JUMPDEST DUP4 DUP2 GT ISZERO PUSH2 0x506 JUMPI PUSH1 0x0 DUP5 DUP5 ADD MSTORE JUMPDEST POP POP POP POP JUMP JUMPDEST PUSH1 0x0 PUSH1 0x2 DUP3 DIV SWAP1 POP PUSH1 0x1 DUP3 AND DUP1 PUSH2 0x524 JUMPI PUSH1 0x7F DUP3 AND SWAP2 POP JUMPDEST PUSH1 0x20 DUP3 LT DUP2 EQ ISZERO PUSH2 0x538 JUMPI PUSH2 0x537 PUSH2 0x5E7 JUMP JUMPDEST JUMPDEST POP SWAP2 SWAP1 POP JUMP JUMPDEST PUSH2 0x547 DUP3 PUSH2 0x659 JUMP JUMPDEST DUP2 ADD DUP2 DUP2 LT PUSH8 0xFFFFFFFFFFFFFFFF DUP3 GT OR ISZERO PUSH2 0x566 JUMPI PUSH2 0x565 PUSH2 0x616 JUMP JUMPDEST JUMPDEST DUP1 PUSH1 0x40 MSTORE POP POP POP JUMP JUMPDEST PUSH1 0x0 PUSH2 0x57A DUP3 PUSH2 0x4C0 JUMP JUMPDEST SWAP2 POP PUSH32 0xFFFFFFFFFFFFFFFFFFFFFFFFFFFFFFFFFFFFFFFFFFFFFFFFFFFFFFFFFFFFFFFF DUP3 EQ ISZERO PUSH2 0x5AD JUMPI PUSH2 0x5AC PUSH2 0x5B8 JUMP JUMPDEST JUMPDEST PUSH1 0x1 DUP3 ADD SWAP1 POP SWAP2 SWAP1 POP JUMP JUMPDEST PUSH32 0x4E487B7100000000000000000000000000000000000000000000000000000000 PUSH1 0x0 MSTORE PUSH1 0x11 PUSH1 0x4 MSTORE PUSH1 0x24 PUSH1 0x0 REVERT JUMPDEST PUSH32 0x4E487B7100000000000000000000000000000000000000000000000000000000 PUSH1 0x0 MSTORE PUSH1 0x22 PUSH1 0x4 MSTORE PUSH1 0x24 PUSH1 0x0 REVERT JUMPDEST PUSH32 0x4E487B7100000000000000000000000000000000000000000000000000000000 PUSH1 0x0 MSTORE PUSH1 0x41 PUSH1 0x4 MSTORE PUSH1 0x24 PUSH1 0x0 REVERT JUMPDEST PUSH1 0x0 DUP1 REVERT JUMPDEST PUSH1 0x0 DUP1 REVERT JUMPDEST PUSH1 0x0 DUP1 REVERT JUMPDEST PUSH1 0x0 DUP1 REVERT JUMPDEST PUSH1 0x0 PUSH1 0x1F NOT PUSH1 0x1F DUP4 ADD AND SWAP1 POP SWAP2 SWAP1 POP JUMP INVALID LOG2 PUSH5 0x6970667358 0x22 SLT KECCAK256 DUP3 RETURNDATACOPY 0xB7 RETURN DUP5 0xBA 0xE 0xC2 0xB1 0x24 0x1F PUSH26 0xDE800AEEA81DCE6294B6A2FB177747CF9EEBC9DF64736F6C6343 STOP ADDMOD SMOD STOP CALLER "
				},
				"gasEstimates": {
					"creation": {
						"codeDepositCost": "339200",
						"executionCost": "5380",
						"totalCost": "344580"
					},
					"external": {
						"addSubscriber(string)": "infinite",
						"author()": "infinite",
						"getSubscriberCount()": "2415",
						"subscriberCount()": "2495",
						"subscribers(string)": "infinite"
					}
				},
				"methodIdentifiers": {
					"addSubscriber(string)": "2edd4fa5",
					"author()": "a6c3e6b9",
					"getSubscriberCount()": "17e703ab",
					"subscriberCount()": "ef352bbe",
					"subscribers(string)": "4155ad23"
				}
			},
			"userdoc": {
				"kind": "user",
				"methods": {},
				"version": 1
			}
		}
	}
}