{
	"contracts/myContract.sol": {
		"testContract": {
			"abi": [
				{
					"inputs": [
						{
							"internalType": "uint256",
							"name": "fee",
							"type": "uint256"
						}
					],
					"stateMutability": "nonpayable",
					"type": "constructor"
				},
				{
					"stateMutability": "payable",
					"type": "fallback"
				},
				{
					"inputs": [
						{
							"internalType": "string",
							"name": "userName",
							"type": "string"
						}
					],
					"name": "addSubscriber",
					"outputs": [],
					"stateMutability": "nonpayable",
					"type": "function"
				},
				{
					"inputs": [],
					"name": "author",
					"outputs": [
						{
							"internalType": "address",
							"name": "",
							"type": "address"
						}
					],
					"stateMutability": "view",
					"type": "function"
				},
				{
					"inputs": [],
					"name": "getContractBalance",
					"outputs": [
						{
							"internalType": "uint256",
							"name": "",
							"type": "uint256"
						}
					],
					"stateMutability": "view",
					"type": "function"
				},
				{
					"inputs": [],
					"name": "getSubscriberCount",
					"outputs": [
						{
							"internalType": "uint256",
							"name": "",
							"type": "uint256"
						}
					],
					"stateMutability": "view",
					"type": "function"
				},
				{
					"inputs": [],
					"name": "printSubscribersList",
					"outputs": [
						{
							"components": [
								{
									"internalType": "string",
									"name": "name",
									"type": "string"
								},
								{
									"internalType": "address",
									"name": "addr",
									"type": "address"
								}
							],
							"internalType": "struct testContract.subscriber[]",
							"name": "",
							"type": "tuple[]"
						}
					],
					"stateMutability": "view",
					"type": "function"
				},
				{
					"inputs": [],
					"name": "subscriberCount",
					"outputs": [
						{
							"internalType": "uint256",
							"name": "",
							"type": "uint256"
						}
					],
					"stateMutability": "view",
					"type": "function"
				},
				{
					"inputs": [
						{
							"internalType": "uint256",
							"name": "",
							"type": "uint256"
						}
					],
					"name": "subscribers",
					"outputs": [
						{
							"internalType": "string",
							"name": "name",
							"type": "string"
						},
						{
							"internalType": "address",
							"name": "addr",
							"type": "address"
						}
					],
					"stateMutability": "view",
					"type": "function"
				},
				{
					"inputs": [],
					"name": "subscriptionFee",
					"outputs": [
						{
							"internalType": "uint256",
							"name": "",
							"type": "uint256"
						}
					],
					"stateMutability": "view",
					"type": "function"
				},
				{
					"inputs": [],
					"name": "withdraw",
					"outputs": [],
					"stateMutability": "nonpayable",
					"type": "function"
				}
			],
			"devdoc": {
				"kind": "dev",
				"methods": {},
				"version": 1
			},
			"evm": {
				"assembly": "    /* \"contracts/myContract.sol\":76:1344  contract testContract {\r... */\n  mstore(0x40, 0x80)\n    /* \"contracts/myContract.sol\":194:195  0 */\n  0x00\n    /* \"contracts/myContract.sol\":164:195  uint public subscriberCount = 0 */\n  0x01\n  sstore\n    /* \"contracts/myContract.sol\":348:439  constructor(uint fee){\r... */\n  callvalue\n  dup1\n  iszero\n  tag_1\n  jumpi\n  0x00\n  dup1\n  revert\ntag_1:\n  pop\n  mload(0x40)\n  sub(codesize, bytecodeSize)\n  dup1\n  bytecodeSize\n  dup4\n  codecopy\n  dup2\n  dup2\n  add\n  0x40\n  mstore\n  dup2\n  add\n  swap1\n  tag_2\n  swap2\n  swap1\n  tag_3\n  jump\t// in\ntag_2:\n    /* \"contracts/myContract.sol\":389:399  msg.sender */\n  caller\n    /* \"contracts/myContract.sol\":380:386  author */\n  0x02\n  0x00\n    /* \"contracts/myContract.sol\":380:399  author = msg.sender */\n  0x0100\n  exp\n  dup2\n  sload\n  dup2\n  0xffffffffffffffffffffffffffffffffffffffff\n  mul\n  not\n  and\n  swap1\n  dup4\n  0xffffffffffffffffffffffffffffffffffffffff\n  and\n  mul\n  or\n  swap1\n  sstore\n  pop\n    /* \"contracts/myContract.sol\":428:431  fee */\n  dup1\n    /* \"contracts/myContract.sol\":410:425  subscriptionFee */\n  0x03\n    /* \"contracts/myContract.sol\":410:431  subscriptionFee = fee */\n  dup2\n  swap1\n  sstore\n  pop\n    /* \"contracts/myContract.sol\":348:439  constructor(uint fee){\r... */\n  pop\n    /* \"contracts/myContract.sol\":76:1344  contract testContract {\r... */\n  jump(tag_6)\n    /* \"#utility.yul\":7:150   */\ntag_8:\n    /* \"#utility.yul\":64:69   */\n  0x00\n    /* \"#utility.yul\":95:101   */\n  dup2\n    /* \"#utility.yul\":89:102   */\n  mload\n    /* \"#utility.yul\":80:102   */\n  swap1\n  pop\n    /* \"#utility.yul\":111:144   */\n  tag_10\n    /* \"#utility.yul\":138:143   */\n  dup2\n    /* \"#utility.yul\":111:144   */\n  tag_11\n  jump\t// in\ntag_10:\n    /* \"#utility.yul\":7:150   */\n  swap3\n  swap2\n  pop\n  pop\n  jump\t// out\n    /* \"#utility.yul\":156:507   */\ntag_3:\n    /* \"#utility.yul\":226:232   */\n  0x00\n    /* \"#utility.yul\":275:277   */\n  0x20\n    /* \"#utility.yul\":263:272   */\n  dup3\n    /* \"#utility.yul\":254:261   */\n  dup5\n    /* \"#utility.yul\":250:273   */\n  sub\n    /* \"#utility.yul\":246:278   */\n  slt\n    /* \"#utility.yul\":243:362   */\n  iszero\n  tag_13\n  jumpi\n    /* \"#utility.yul\":281:360   */\n  tag_14\n  tag_15\n  jump\t// in\ntag_14:\n    /* \"#utility.yul\":243:362   */\ntag_13:\n    /* \"#utility.yul\":401:402   */\n  0x00\n    /* \"#utility.yul\":426:490   */\n  tag_16\n    /* \"#utility.yul\":482:489   */\n  dup5\n    /* \"#utility.yul\":473:479   */\n  dup3\n    /* \"#utility.yul\":462:471   */\n  dup6\n    /* \"#utility.yul\":458:480   */\n  add\n    /* \"#utility.yul\":426:490   */\n  tag_8\n  jump\t// in\ntag_16:\n    /* \"#utility.yul\":416:490   */\n  swap2\n  pop\n    /* \"#utility.yul\":372:500   */\n  pop\n    /* \"#utility.yul\":156:507   */\n  swap3\n  swap2\n  pop\n  pop\n  jump\t// out\n    /* \"#utility.yul\":594:671   */\ntag_19:\n    /* \"#utility.yul\":631:638   */\n  0x00\n    /* \"#utility.yul\":660:665   */\n  dup2\n    /* \"#utility.yul\":649:665   */\n  swap1\n  pop\n    /* \"#utility.yul\":594:671   */\n  swap2\n  swap1\n  pop\n  jump\t// out\n    /* \"#utility.yul\":800:917   */\ntag_15:\n    /* \"#utility.yul\":909:910   */\n  0x00\n    /* \"#utility.yul\":906:907   */\n  dup1\n    /* \"#utility.yul\":899:911   */\n  revert\n    /* \"#utility.yul\":923:1045   */\ntag_11:\n    /* \"#utility.yul\":996:1020   */\n  tag_25\n    /* \"#utility.yul\":1014:1019   */\n  dup2\n    /* \"#utility.yul\":996:1020   */\n  tag_19\n  jump\t// in\ntag_25:\n    /* \"#utility.yul\":989:994   */\n  dup2\n    /* \"#utility.yul\":986:1021   */\n  eq\n    /* \"#utility.yul\":976:1039   */\n  tag_26\n  jumpi\n    /* \"#utility.yul\":1035:1036   */\n  0x00\n    /* \"#utility.yul\":1032:1033   */\n  dup1\n    /* \"#utility.yul\":1025:1037   */\n  revert\n    /* \"#utility.yul\":976:1039   */\ntag_26:\n    /* \"#utility.yul\":923:1045   */\n  pop\n  jump\t// out\n    /* \"contracts/myContract.sol\":76:1344  contract testContract {\r... */\ntag_6:\n  dataSize(sub_0)\n  dup1\n  dataOffset(sub_0)\n  0x00\n  codecopy\n  0x00\n  return\nstop\n\nsub_0: assembly {\n        /* \"contracts/myContract.sol\":76:1344  contract testContract {\r... */\n      mstore(0x40, 0x80)\n      jumpi(tag_1, lt(calldatasize, 0x04))\n      shr(0xe0, calldataload(0x00))\n      dup1\n      0x59221a68\n      gt\n      tag_12\n      jumpi\n      dup1\n      0x59221a68\n      eq\n      tag_7\n      jumpi\n      dup1\n      0x6f9fb98a\n      eq\n      tag_8\n      jumpi\n      dup1\n      0x82d69b62\n      eq\n      tag_9\n      jumpi\n      dup1\n      0xa6c3e6b9\n      eq\n      tag_10\n      jumpi\n      dup1\n      0xef352bbe\n      eq\n      tag_11\n      jumpi\n      jump(tag_2)\n    tag_12:\n      dup1\n      0x0aa0a175\n      eq\n      tag_3\n      jumpi\n      dup1\n      0x17e703ab\n      eq\n      tag_4\n      jumpi\n      dup1\n      0x2edd4fa5\n      eq\n      tag_5\n      jumpi\n      dup1\n      0x3ccfd60b\n      eq\n      tag_6\n      jumpi\n      jump(tag_2)\n    tag_1:\n    tag_2:\n        /* \"contracts/myContract.sol\":511:526  subscriptionFee */\n      sload(0x03)\n        /* \"contracts/myContract.sol\":495:504  msg.value */\n      callvalue\n        /* \"contracts/myContract.sol\":495:526  msg.value ==    subscriptionFee */\n      eq\n        /* \"contracts/myContract.sol\":486:574  require( msg.value ==    subscriptionFee , \"Payment should be the subscription fee\"    ) */\n      tag_15\n      jumpi\n      mload(0x40)\n      0x08c379a000000000000000000000000000000000000000000000000000000000\n      dup2\n      mstore\n      0x04\n      add\n      tag_16\n      swap1\n      tag_17\n      jump\t// in\n    tag_16:\n      mload(0x40)\n      dup1\n      swap2\n      sub\n      swap1\n      revert\n    tag_15:\n        /* \"contracts/myContract.sol\":76:1344  contract testContract {\r... */\n      stop\n        /* \"contracts/myContract.sol\":312:339  uint public subscriptionFee */\n    tag_3:\n      callvalue\n      dup1\n      iszero\n      tag_18\n      jumpi\n      0x00\n      dup1\n      revert\n    tag_18:\n      pop\n      tag_19\n      tag_20\n      jump\t// in\n    tag_19:\n      mload(0x40)\n      tag_21\n      swap2\n      swap1\n      tag_22\n      jump\t// in\n    tag_21:\n      mload(0x40)\n      dup1\n      swap2\n      sub\n      swap1\n      return\n        /* \"contracts/myContract.sol\":960:1060  function getSubscriberCount() public view returns(uint256) {\r... */\n    tag_4:\n      callvalue\n      dup1\n      iszero\n      tag_23\n      jumpi\n      0x00\n      dup1\n      revert\n    tag_23:\n      pop\n      tag_24\n      tag_25\n      jump\t// in\n    tag_24:\n      mload(0x40)\n      tag_26\n      swap2\n      swap1\n      tag_22\n      jump\t// in\n    tag_26:\n      mload(0x40)\n      dup1\n      swap2\n      sub\n      swap1\n      return\n        /* \"contracts/myContract.sol\":788:951  function addSubscriber(string memory userName) public {\r... */\n    tag_5:\n      callvalue\n      dup1\n      iszero\n      tag_27\n      jumpi\n      0x00\n      dup1\n      revert\n    tag_27:\n      pop\n      tag_28\n      0x04\n      dup1\n      calldatasize\n      sub\n      dup2\n      add\n      swap1\n      tag_29\n      swap2\n      swap1\n      tag_30\n      jump\t// in\n    tag_29:\n      tag_31\n      jump\t// in\n    tag_28:\n      stop\n        /* \"contracts/myContract.sol\":701:780  function withdraw() public{\r... */\n    tag_6:\n      callvalue\n      dup1\n      iszero\n      tag_32\n      jumpi\n      0x00\n      dup1\n      revert\n    tag_32:\n      pop\n      tag_33\n      tag_34\n      jump\t// in\n    tag_33:\n      stop\n        /* \"contracts/myContract.sol\":111:157  mapping(uint => subscriber) public subscribers */\n    tag_7:\n      callvalue\n      dup1\n      iszero\n      tag_35\n      jumpi\n      0x00\n      dup1\n      revert\n    tag_35:\n      pop\n      tag_36\n      0x04\n      dup1\n      calldatasize\n      sub\n      dup2\n      add\n      swap1\n      tag_37\n      swap2\n      swap1\n      tag_38\n      jump\t// in\n    tag_37:\n      tag_39\n      jump\t// in\n    tag_36:\n      mload(0x40)\n      tag_40\n      swap3\n      swap2\n      swap1\n      tag_41\n      jump\t// in\n    tag_40:\n      mload(0x40)\n      dup1\n      swap2\n      sub\n      swap1\n      return\n        /* \"contracts/myContract.sol\":590:693  function getContractBalance() public view returns (uint){\r... */\n    tag_8:\n      callvalue\n      dup1\n      iszero\n      tag_42\n      jumpi\n      0x00\n      dup1\n      revert\n    tag_42:\n      pop\n      tag_43\n      tag_44\n      jump\t// in\n    tag_43:\n      mload(0x40)\n      tag_45\n      swap2\n      swap1\n      tag_22\n      jump\t// in\n    tag_45:\n      mload(0x40)\n      dup1\n      swap2\n      sub\n      swap1\n      return\n        /* \"contracts/myContract.sol\":1068:1339  function printSubscribersList() public view returns(subscriber[]memory){\r... */\n    tag_9:\n      callvalue\n      dup1\n      iszero\n      tag_46\n      jumpi\n      0x00\n      dup1\n      revert\n    tag_46:\n      pop\n      tag_47\n      tag_48\n      jump\t// in\n    tag_47:\n      mload(0x40)\n      tag_49\n      swap2\n      swap1\n      tag_50\n      jump\t// in\n    tag_49:\n      mload(0x40)\n      dup1\n      swap2\n      sub\n      swap1\n      return\n        /* \"contracts/myContract.sol\":284:305  address public author */\n    tag_10:\n      callvalue\n      dup1\n      iszero\n      tag_51\n      jumpi\n      0x00\n      dup1\n      revert\n    tag_51:\n      pop\n      tag_52\n      tag_53\n      jump\t// in\n    tag_52:\n      mload(0x40)\n      tag_54\n      swap2\n      swap1\n      tag_55\n      jump\t// in\n    tag_54:\n      mload(0x40)\n      dup1\n      swap2\n      sub\n      swap1\n      return\n        /* \"contracts/myContract.sol\":164:195  uint public subscriberCount = 0 */\n    tag_11:\n      callvalue\n      dup1\n      iszero\n      tag_56\n      jumpi\n      0x00\n      dup1\n      revert\n    tag_56:\n      pop\n      tag_57\n      tag_58\n      jump\t// in\n    tag_57:\n      mload(0x40)\n      tag_59\n      swap2\n      swap1\n      tag_22\n      jump\t// in\n    tag_59:\n      mload(0x40)\n      dup1\n      swap2\n      sub\n      swap1\n      return\n        /* \"contracts/myContract.sol\":312:339  uint public subscriptionFee */\n    tag_20:\n      sload(0x03)\n      dup2\n      jump\t// out\n        /* \"contracts/myContract.sol\":960:1060  function getSubscriberCount() public view returns(uint256) {\r... */\n    tag_25:\n        /* \"contracts/myContract.sol\":1010:1017  uint256 */\n      0x00\n        /* \"contracts/myContract.sol\":1037:1052  subscriberCount */\n      sload(0x01)\n        /* \"contracts/myContract.sol\":1030:1052  return subscriberCount */\n      swap1\n      pop\n        /* \"contracts/myContract.sol\":960:1060  function getSubscriberCount() public view returns(uint256) {\r... */\n      swap1\n      jump\t// out\n        /* \"contracts/myContract.sol\":788:951  function addSubscriber(string memory userName) public {\r... */\n    tag_31:\n        /* \"contracts/myContract.sol\":884:915  subscriber(userName,msg.sender) */\n      mload(0x40)\n      dup1\n      0x40\n      add\n      0x40\n      mstore\n      dup1\n        /* \"contracts/myContract.sol\":895:903  userName */\n      dup3\n        /* \"contracts/myContract.sol\":884:915  subscriber(userName,msg.sender) */\n      dup2\n      mstore\n      0x20\n      add\n        /* \"contracts/myContract.sol\":904:914  msg.sender */\n      caller\n        /* \"contracts/myContract.sol\":884:915  subscriber(userName,msg.sender) */\n      0xffffffffffffffffffffffffffffffffffffffff\n      and\n      dup2\n      mstore\n      pop\n        /* \"contracts/myContract.sol\":853:864  subscribers */\n      0x00\n        /* \"contracts/myContract.sol\":853:881  subscribers[subscriberCount] */\n      dup1\n        /* \"contracts/myContract.sol\":865:880  subscriberCount */\n      sload(0x01)\n        /* \"contracts/myContract.sol\":853:881  subscribers[subscriberCount] */\n      dup2\n      mstore\n      0x20\n      add\n      swap1\n      dup2\n      mstore\n      0x20\n      add\n      0x00\n      keccak256\n        /* \"contracts/myContract.sol\":853:915  subscribers[subscriberCount] = subscriber(userName,msg.sender) */\n      0x00\n      dup3\n      add\n      mload\n      dup2\n      0x00\n      add\n      swap1\n      dup1\n      mload\n      swap1\n      0x20\n      add\n      swap1\n      tag_62\n      swap3\n      swap2\n      swap1\n      tag_63\n      jump\t// in\n    tag_62:\n      pop\n      0x20\n      dup3\n      add\n      mload\n      dup2\n      0x01\n      add\n      exp(0x0100, 0x00)\n      dup2\n      sload\n      dup2\n      0xffffffffffffffffffffffffffffffffffffffff\n      mul\n      not\n      and\n      swap1\n      dup4\n      0xffffffffffffffffffffffffffffffffffffffff\n      and\n      mul\n      or\n      swap1\n      sstore\n      pop\n      swap1\n      pop\n      pop\n        /* \"contracts/myContract.sol\":926:941  subscriberCount */\n      0x01\n      0x00\n        /* \"contracts/myContract.sol\":926:943  subscriberCount++ */\n      dup2\n      sload\n      dup1\n      swap3\n      swap2\n      swap1\n      tag_64\n      swap1\n      tag_65\n      jump\t// in\n    tag_64:\n      swap2\n      swap1\n      pop\n      sstore\n      pop\n        /* \"contracts/myContract.sol\":788:951  function addSubscriber(string memory userName) public {\r... */\n      pop\n      jump\t// out\n        /* \"contracts/myContract.sol\":701:780  function withdraw() public{\r... */\n    tag_34:\n        /* \"contracts/myContract.sol\":761:767  author */\n      0x02\n      0x00\n      swap1\n      sload\n      swap1\n      0x0100\n      exp\n      swap1\n      div\n      0xffffffffffffffffffffffffffffffffffffffff\n      and\n        /* \"contracts/myContract.sol\":747:767  msg.sender == author */\n      0xffffffffffffffffffffffffffffffffffffffff\n      and\n        /* \"contracts/myContract.sol\":747:757  msg.sender */\n      caller\n        /* \"contracts/myContract.sol\":747:767  msg.sender == author */\n      0xffffffffffffffffffffffffffffffffffffffff\n      and\n      eq\n        /* \"contracts/myContract.sol\":738:772  require (msg.sender == author, \"\") */\n      tag_67\n      jumpi\n      mload(0x40)\n      0x08c379a000000000000000000000000000000000000000000000000000000000\n      dup2\n      mstore\n      0x04\n      add\n      tag_68\n      swap1\n      tag_69\n      jump\t// in\n    tag_68:\n      mload(0x40)\n      dup1\n      swap2\n      sub\n      swap1\n      revert\n    tag_67:\n        /* \"contracts/myContract.sol\":701:780  function withdraw() public{\r... */\n      jump\t// out\n        /* \"contracts/myContract.sol\":111:157  mapping(uint => subscriber) public subscribers */\n    tag_39:\n      mstore(0x20, 0x00)\n      dup1\n      0x00\n      mstore\n      keccak256(0x00, 0x40)\n      0x00\n      swap2\n      pop\n      swap1\n      pop\n      dup1\n      0x00\n      add\n      dup1\n      sload\n      tag_70\n      swap1\n      tag_71\n      jump\t// in\n    tag_70:\n      dup1\n      0x1f\n      add\n      0x20\n      dup1\n      swap2\n      div\n      mul\n      0x20\n      add\n      mload(0x40)\n      swap1\n      dup2\n      add\n      0x40\n      mstore\n      dup1\n      swap3\n      swap2\n      swap1\n      dup2\n      dup2\n      mstore\n      0x20\n      add\n      dup3\n      dup1\n      sload\n      tag_72\n      swap1\n      tag_71\n      jump\t// in\n    tag_72:\n      dup1\n      iszero\n      tag_73\n      jumpi\n      dup1\n      0x1f\n      lt\n      tag_74\n      jumpi\n      0x0100\n      dup1\n      dup4\n      sload\n      div\n      mul\n      dup4\n      mstore\n      swap2\n      0x20\n      add\n      swap2\n      jump(tag_73)\n    tag_74:\n      dup3\n      add\n      swap2\n      swap1\n      0x00\n      mstore\n      keccak256(0x00, 0x20)\n      swap1\n    tag_75:\n      dup2\n      sload\n      dup2\n      mstore\n      swap1\n      0x01\n      add\n      swap1\n      0x20\n      add\n      dup1\n      dup4\n      gt\n      tag_75\n      jumpi\n      dup3\n      swap1\n      sub\n      0x1f\n      and\n      dup3\n      add\n      swap2\n    tag_73:\n      pop\n      pop\n      pop\n      pop\n      pop\n      swap1\n      dup1\n      0x01\n      add\n      0x00\n      swap1\n      sload\n      swap1\n      0x0100\n      exp\n      swap1\n      div\n      0xffffffffffffffffffffffffffffffffffffffff\n      and\n      swap1\n      pop\n      dup3\n      jump\t// out\n        /* \"contracts/myContract.sol\":590:693  function getContractBalance() public view returns (uint){\r... */\n    tag_44:\n        /* \"contracts/myContract.sol\":641:645  uint */\n      0x00\n        /* \"contracts/myContract.sol\":664:685  address(this).balance */\n      selfbalance\n        /* \"contracts/myContract.sol\":657:685  return address(this).balance */\n      swap1\n      pop\n        /* \"contracts/myContract.sol\":590:693  function getContractBalance() public view returns (uint){\r... */\n      swap1\n      jump\t// out\n        /* \"contracts/myContract.sol\":1068:1339  function printSubscribersList() public view returns(subscriber[]memory){\r... */\n    tag_48:\n        /* \"contracts/myContract.sol\":1120:1138  subscriber[]memory */\n      0x60\n        /* \"contracts/myContract.sol\":1150:1173  subscriber[] memory ret */\n      0x00\n        /* \"contracts/myContract.sol\":1193:1208  subscriberCount */\n      sload(0x01)\n        /* \"contracts/myContract.sol\":1176:1209  new subscriber[](subscriberCount) */\n      0xffffffffffffffff\n      dup2\n      gt\n      iszero\n      tag_78\n      jumpi\n      tag_79\n      tag_80\n      jump\t// in\n    tag_79:\n    tag_78:\n      mload(0x40)\n      swap1\n      dup1\n      dup3\n      mstore\n      dup1\n      0x20\n      mul\n      0x20\n      add\n      dup3\n      add\n      0x40\n      mstore\n      dup1\n      iszero\n      tag_81\n      jumpi\n      dup2\n      0x20\n      add\n    tag_82:\n      tag_83\n      tag_84\n      jump\t// in\n    tag_83:\n      dup2\n      mstore\n      0x20\n      add\n      swap1\n      0x01\n      swap1\n      sub\n      swap1\n      dup2\n      tag_82\n      jumpi\n      swap1\n      pop\n    tag_81:\n      pop\n        /* \"contracts/myContract.sol\":1150:1209  subscriber[] memory ret = new subscriber[](subscriberCount) */\n      swap1\n      pop\n        /* \"contracts/myContract.sol\":1224:1230  uint i */\n      0x00\n        /* \"contracts/myContract.sol\":1220:1311  for(uint i = 0; i < subscriberCount; i++){\r... */\n    tag_85:\n        /* \"contracts/myContract.sol\":1240:1255  subscriberCount */\n      sload(0x01)\n        /* \"contracts/myContract.sol\":1236:1237  i */\n      dup2\n        /* \"contracts/myContract.sol\":1236:1255  i < subscriberCount */\n      lt\n        /* \"contracts/myContract.sol\":1220:1311  for(uint i = 0; i < subscriberCount; i++){\r... */\n      iszero\n      tag_86\n      jumpi\n        /* \"contracts/myContract.sol\":1285:1296  subscribers */\n      0x00\n        /* \"contracts/myContract.sol\":1285:1299  subscribers[i] */\n      dup1\n        /* \"contracts/myContract.sol\":1297:1298  i */\n      dup3\n        /* \"contracts/myContract.sol\":1285:1299  subscribers[i] */\n      dup2\n      mstore\n      0x20\n      add\n      swap1\n      dup2\n      mstore\n      0x20\n      add\n      0x00\n      keccak256\n        /* \"contracts/myContract.sol\":1276:1299  ret[i] = subscribers[i] */\n      mload(0x40)\n      dup1\n      0x40\n      add\n      0x40\n      mstore\n      swap1\n      dup2\n      0x00\n      dup3\n      add\n      dup1\n      sload\n      tag_88\n      swap1\n      tag_71\n      jump\t// in\n    tag_88:\n      dup1\n      0x1f\n      add\n      0x20\n      dup1\n      swap2\n      div\n      mul\n      0x20\n      add\n      mload(0x40)\n      swap1\n      dup2\n      add\n      0x40\n      mstore\n      dup1\n      swap3\n      swap2\n      swap1\n      dup2\n      dup2\n      mstore\n      0x20\n      add\n      dup3\n      dup1\n      sload\n      tag_89\n      swap1\n      tag_71\n      jump\t// in\n    tag_89:\n      dup1\n      iszero\n      tag_90\n      jumpi\n      dup1\n      0x1f\n      lt\n      tag_91\n      jumpi\n      0x0100\n      dup1\n      dup4\n      sload\n      div\n      mul\n      dup4\n      mstore\n      swap2\n      0x20\n      add\n      swap2\n      jump(tag_90)\n    tag_91:\n      dup3\n      add\n      swap2\n      swap1\n      0x00\n      mstore\n      keccak256(0x00, 0x20)\n      swap1\n    tag_92:\n      dup2\n      sload\n      dup2\n      mstore\n      swap1\n      0x01\n      add\n      swap1\n      0x20\n      add\n      dup1\n      dup4\n      gt\n      tag_92\n      jumpi\n      dup3\n      swap1\n      sub\n      0x1f\n      and\n      dup3\n      add\n      swap2\n    tag_90:\n      pop\n      pop\n      pop\n      pop\n      pop\n      dup2\n      mstore\n      0x20\n      add\n      0x01\n      dup3\n      add\n      0x00\n      swap1\n      sload\n      swap1\n      0x0100\n      exp\n      swap1\n      div\n      0xffffffffffffffffffffffffffffffffffffffff\n      and\n      0xffffffffffffffffffffffffffffffffffffffff\n      and\n      0xffffffffffffffffffffffffffffffffffffffff\n      and\n      dup2\n      mstore\n      pop\n      pop\n        /* \"contracts/myContract.sol\":1276:1279  ret */\n      dup3\n        /* \"contracts/myContract.sol\":1280:1281  i */\n      dup3\n        /* \"contracts/myContract.sol\":1276:1282  ret[i] */\n      dup2\n      mload\n      dup2\n      lt\n      tag_93\n      jumpi\n      tag_94\n      tag_95\n      jump\t// in\n    tag_94:\n    tag_93:\n      0x20\n      mul\n      0x20\n      add\n      add\n        /* \"contracts/myContract.sol\":1276:1299  ret[i] = subscribers[i] */\n      dup2\n      swap1\n      mstore\n      pop\n        /* \"contracts/myContract.sol\":1257:1260  i++ */\n      dup1\n      dup1\n      tag_96\n      swap1\n      tag_65\n      jump\t// in\n    tag_96:\n      swap2\n      pop\n      pop\n        /* \"contracts/myContract.sol\":1220:1311  for(uint i = 0; i < subscriberCount; i++){\r... */\n      jump(tag_85)\n    tag_86:\n      pop\n        /* \"contracts/myContract.sol\":1328:1331  ret */\n      dup1\n        /* \"contracts/myContract.sol\":1321:1331  return ret */\n      swap2\n      pop\n      pop\n        /* \"contracts/myContract.sol\":1068:1339  function printSubscribersList() public view returns(subscriber[]memory){\r... */\n      swap1\n      jump\t// out\n        /* \"contracts/myContract.sol\":284:305  address public author */\n    tag_53:\n      0x02\n      0x00\n      swap1\n      sload\n      swap1\n      0x0100\n      exp\n      swap1\n      div\n      0xffffffffffffffffffffffffffffffffffffffff\n      and\n      dup2\n      jump\t// out\n        /* \"contracts/myContract.sol\":164:195  uint public subscriberCount = 0 */\n    tag_58:\n      sload(0x01)\n      dup2\n      jump\t// out\n    tag_63:\n      dup3\n      dup1\n      sload\n      tag_97\n      swap1\n      tag_71\n      jump\t// in\n    tag_97:\n      swap1\n      0x00\n      mstore\n      keccak256(0x00, 0x20)\n      swap1\n      0x1f\n      add\n      0x20\n      swap1\n      div\n      dup2\n      add\n      swap3\n      dup3\n      tag_99\n      jumpi\n      0x00\n      dup6\n      sstore\n      jump(tag_98)\n    tag_99:\n      dup3\n      0x1f\n      lt\n      tag_100\n      jumpi\n      dup1\n      mload\n      not(0xff)\n      and\n      dup4\n      dup1\n      add\n      or\n      dup6\n      sstore\n      jump(tag_98)\n    tag_100:\n      dup3\n      dup1\n      add\n      0x01\n      add\n      dup6\n      sstore\n      dup3\n      iszero\n      tag_98\n      jumpi\n      swap2\n      dup3\n      add\n    tag_101:\n      dup3\n      dup2\n      gt\n      iszero\n      tag_102\n      jumpi\n      dup3\n      mload\n      dup3\n      sstore\n      swap2\n      0x20\n      add\n      swap2\n      swap1\n      0x01\n      add\n      swap1\n      jump(tag_101)\n    tag_102:\n    tag_98:\n      pop\n      swap1\n      pop\n      tag_103\n      swap2\n      swap1\n      tag_104\n      jump\t// in\n    tag_103:\n      pop\n      swap1\n      jump\t// out\n    tag_84:\n      mload(0x40)\n      dup1\n      0x40\n      add\n      0x40\n      mstore\n      dup1\n      0x60\n      dup2\n      mstore\n      0x20\n      add\n      and(0xffffffffffffffffffffffffffffffffffffffff, 0x00)\n      dup2\n      mstore\n      pop\n      swap1\n      jump\t// out\n    tag_104:\n    tag_105:\n      dup1\n      dup3\n      gt\n      iszero\n      tag_106\n      jumpi\n      0x00\n      dup2\n      0x00\n      swap1\n      sstore\n      pop\n      0x01\n      add\n      jump(tag_105)\n    tag_106:\n      pop\n      swap1\n      jump\t// out\n        /* \"#utility.yul\":7:419   */\n    tag_108:\n        /* \"#utility.yul\":85:90   */\n      0x00\n        /* \"#utility.yul\":110:176   */\n      tag_110\n        /* \"#utility.yul\":126:175   */\n      tag_111\n        /* \"#utility.yul\":168:174   */\n      dup5\n        /* \"#utility.yul\":126:175   */\n      tag_112\n      jump\t// in\n    tag_111:\n        /* \"#utility.yul\":110:176   */\n      tag_113\n      jump\t// in\n    tag_110:\n        /* \"#utility.yul\":101:176   */\n      swap1\n      pop\n        /* \"#utility.yul\":199:205   */\n      dup3\n        /* \"#utility.yul\":192:197   */\n      dup2\n        /* \"#utility.yul\":185:206   */\n      mstore\n        /* \"#utility.yul\":237:241   */\n      0x20\n        /* \"#utility.yul\":230:235   */\n      dup2\n        /* \"#utility.yul\":226:242   */\n      add\n        /* \"#utility.yul\":275:278   */\n      dup5\n        /* \"#utility.yul\":266:272   */\n      dup5\n        /* \"#utility.yul\":261:264   */\n      dup5\n        /* \"#utility.yul\":257:273   */\n      add\n        /* \"#utility.yul\":254:279   */\n      gt\n        /* \"#utility.yul\":251:363   */\n      iszero\n      tag_114\n      jumpi\n        /* \"#utility.yul\":282:361   */\n      tag_115\n      tag_116\n      jump\t// in\n    tag_115:\n        /* \"#utility.yul\":251:363   */\n    tag_114:\n        /* \"#utility.yul\":372:413   */\n      tag_117\n        /* \"#utility.yul\":406:412   */\n      dup5\n        /* \"#utility.yul\":401:404   */\n      dup3\n        /* \"#utility.yul\":396:399   */\n      dup6\n        /* \"#utility.yul\":372:413   */\n      tag_118\n      jump\t// in\n    tag_117:\n        /* \"#utility.yul\":91:419   */\n      pop\n        /* \"#utility.yul\":7:419   */\n      swap4\n      swap3\n      pop\n      pop\n      pop\n      jump\t// out\n        /* \"#utility.yul\":439:779   */\n    tag_119:\n        /* \"#utility.yul\":495:500   */\n      0x00\n        /* \"#utility.yul\":544:547   */\n      dup3\n        /* \"#utility.yul\":537:541   */\n      0x1f\n        /* \"#utility.yul\":529:535   */\n      dup4\n        /* \"#utility.yul\":525:542   */\n      add\n        /* \"#utility.yul\":521:548   */\n      slt\n        /* \"#utility.yul\":511:633   */\n      tag_121\n      jumpi\n        /* \"#utility.yul\":552:631   */\n      tag_122\n      tag_123\n      jump\t// in\n    tag_122:\n        /* \"#utility.yul\":511:633   */\n    tag_121:\n        /* \"#utility.yul\":669:675   */\n      dup2\n        /* \"#utility.yul\":656:676   */\n      calldataload\n        /* \"#utility.yul\":694:773   */\n      tag_124\n        /* \"#utility.yul\":769:772   */\n      dup5\n        /* \"#utility.yul\":761:767   */\n      dup3\n        /* \"#utility.yul\":754:758   */\n      0x20\n        /* \"#utility.yul\":746:752   */\n      dup7\n        /* \"#utility.yul\":742:759   */\n      add\n        /* \"#utility.yul\":694:773   */\n      tag_108\n      jump\t// in\n    tag_124:\n        /* \"#utility.yul\":685:773   */\n      swap2\n      pop\n        /* \"#utility.yul\":501:779   */\n      pop\n        /* \"#utility.yul\":439:779   */\n      swap3\n      swap2\n      pop\n      pop\n      jump\t// out\n        /* \"#utility.yul\":785:924   */\n    tag_125:\n        /* \"#utility.yul\":831:836   */\n      0x00\n        /* \"#utility.yul\":869:875   */\n      dup2\n        /* \"#utility.yul\":856:876   */\n      calldataload\n        /* \"#utility.yul\":847:876   */\n      swap1\n      pop\n        /* \"#utility.yul\":885:918   */\n      tag_127\n        /* \"#utility.yul\":912:917   */\n      dup2\n        /* \"#utility.yul\":885:918   */\n      tag_128\n      jump\t// in\n    tag_127:\n        /* \"#utility.yul\":785:924   */\n      swap3\n      swap2\n      pop\n      pop\n      jump\t// out\n        /* \"#utility.yul\":930:1439   */\n    tag_30:\n        /* \"#utility.yul\":999:1005   */\n      0x00\n        /* \"#utility.yul\":1048:1050   */\n      0x20\n        /* \"#utility.yul\":1036:1045   */\n      dup3\n        /* \"#utility.yul\":1027:1034   */\n      dup5\n        /* \"#utility.yul\":1023:1046   */\n      sub\n        /* \"#utility.yul\":1019:1051   */\n      slt\n        /* \"#utility.yul\":1016:1135   */\n      iszero\n      tag_130\n      jumpi\n        /* \"#utility.yul\":1054:1133   */\n      tag_131\n      tag_132\n      jump\t// in\n    tag_131:\n        /* \"#utility.yul\":1016:1135   */\n    tag_130:\n        /* \"#utility.yul\":1202:1203   */\n      0x00\n        /* \"#utility.yul\":1191:1200   */\n      dup3\n        /* \"#utility.yul\":1187:1204   */\n      add\n        /* \"#utility.yul\":1174:1205   */\n      calldataload\n        /* \"#utility.yul\":1232:1250   */\n      0xffffffffffffffff\n        /* \"#utility.yul\":1224:1230   */\n      dup2\n        /* \"#utility.yul\":1221:1251   */\n      gt\n        /* \"#utility.yul\":1218:1335   */\n      iszero\n      tag_133\n      jumpi\n        /* \"#utility.yul\":1254:1333   */\n      tag_134\n      tag_135\n      jump\t// in\n    tag_134:\n        /* \"#utility.yul\":1218:1335   */\n    tag_133:\n        /* \"#utility.yul\":1359:1422   */\n      tag_136\n        /* \"#utility.yul\":1414:1421   */\n      dup5\n        /* \"#utility.yul\":1405:1411   */\n      dup3\n        /* \"#utility.yul\":1394:1403   */\n      dup6\n        /* \"#utility.yul\":1390:1412   */\n      add\n        /* \"#utility.yul\":1359:1422   */\n      tag_119\n      jump\t// in\n    tag_136:\n        /* \"#utility.yul\":1349:1422   */\n      swap2\n      pop\n        /* \"#utility.yul\":1145:1432   */\n      pop\n        /* \"#utility.yul\":930:1439   */\n      swap3\n      swap2\n      pop\n      pop\n      jump\t// out\n        /* \"#utility.yul\":1445:1774   */\n    tag_38:\n        /* \"#utility.yul\":1504:1510   */\n      0x00\n        /* \"#utility.yul\":1553:1555   */\n      0x20\n        /* \"#utility.yul\":1541:1550   */\n      dup3\n        /* \"#utility.yul\":1532:1539   */\n      dup5\n        /* \"#utility.yul\":1528:1551   */\n      sub\n        /* \"#utility.yul\":1524:1556   */\n      slt\n        /* \"#utility.yul\":1521:1640   */\n      iszero\n      tag_138\n      jumpi\n        /* \"#utility.yul\":1559:1638   */\n      tag_139\n      tag_132\n      jump\t// in\n    tag_139:\n        /* \"#utility.yul\":1521:1640   */\n    tag_138:\n        /* \"#utility.yul\":1679:1680   */\n      0x00\n        /* \"#utility.yul\":1704:1757   */\n      tag_140\n        /* \"#utility.yul\":1749:1756   */\n      dup5\n        /* \"#utility.yul\":1740:1746   */\n      dup3\n        /* \"#utility.yul\":1729:1738   */\n      dup6\n        /* \"#utility.yul\":1725:1747   */\n      add\n        /* \"#utility.yul\":1704:1757   */\n      tag_125\n      jump\t// in\n    tag_140:\n        /* \"#utility.yul\":1694:1757   */\n      swap2\n      pop\n        /* \"#utility.yul\":1650:1767   */\n      pop\n        /* \"#utility.yul\":1445:1774   */\n      swap3\n      swap2\n      pop\n      pop\n      jump\t// out\n        /* \"#utility.yul\":1780:2040   */\n    tag_141:\n        /* \"#utility.yul\":1901:1911   */\n      0x00\n        /* \"#utility.yul\":1936:2034   */\n      tag_143\n        /* \"#utility.yul\":2030:2033   */\n      dup4\n        /* \"#utility.yul\":2022:2028   */\n      dup4\n        /* \"#utility.yul\":1936:2034   */\n      tag_144\n      jump\t// in\n    tag_143:\n        /* \"#utility.yul\":1922:2034   */\n      swap1\n      pop\n        /* \"#utility.yul\":1780:2040   */\n      swap3\n      swap2\n      pop\n      pop\n      jump\t// out\n        /* \"#utility.yul\":2046:2154   */\n    tag_145:\n        /* \"#utility.yul\":2123:2147   */\n      tag_147\n        /* \"#utility.yul\":2141:2146   */\n      dup2\n        /* \"#utility.yul\":2123:2147   */\n      tag_148\n      jump\t// in\n    tag_147:\n        /* \"#utility.yul\":2118:2121   */\n      dup3\n        /* \"#utility.yul\":2111:2148   */\n      mstore\n        /* \"#utility.yul\":2046:2154   */\n      pop\n      pop\n      jump\t// out\n        /* \"#utility.yul\":2160:2278   */\n    tag_149:\n        /* \"#utility.yul\":2247:2271   */\n      tag_151\n        /* \"#utility.yul\":2265:2270   */\n      dup2\n        /* \"#utility.yul\":2247:2271   */\n      tag_148\n      jump\t// in\n    tag_151:\n        /* \"#utility.yul\":2242:2245   */\n      dup3\n        /* \"#utility.yul\":2235:2272   */\n      mstore\n        /* \"#utility.yul\":2160:2278   */\n      pop\n      pop\n      jump\t// out\n        /* \"#utility.yul\":2360:3479   */\n    tag_152:\n        /* \"#utility.yul\":2531:2534   */\n      0x00\n        /* \"#utility.yul\":2560:2640   */\n      tag_154\n        /* \"#utility.yul\":2634:2639   */\n      dup3\n        /* \"#utility.yul\":2560:2640   */\n      tag_155\n      jump\t// in\n    tag_154:\n        /* \"#utility.yul\":2656:2768   */\n      tag_156\n        /* \"#utility.yul\":2761:2767   */\n      dup2\n        /* \"#utility.yul\":2756:2759   */\n      dup6\n        /* \"#utility.yul\":2656:2768   */\n      tag_157\n      jump\t// in\n    tag_156:\n        /* \"#utility.yul\":2649:2768   */\n      swap4\n      pop\n        /* \"#utility.yul\":2794:2797   */\n      dup4\n        /* \"#utility.yul\":2839:2843   */\n      0x20\n        /* \"#utility.yul\":2831:2837   */\n      dup3\n        /* \"#utility.yul\":2827:2844   */\n      mul\n        /* \"#utility.yul\":2822:2825   */\n      dup6\n        /* \"#utility.yul\":2818:2845   */\n      add\n        /* \"#utility.yul\":2869:2951   */\n      tag_158\n        /* \"#utility.yul\":2945:2950   */\n      dup6\n        /* \"#utility.yul\":2869:2951   */\n      tag_159\n      jump\t// in\n    tag_158:\n        /* \"#utility.yul\":2974:2981   */\n      dup1\n        /* \"#utility.yul\":3005:3006   */\n      0x00\n        /* \"#utility.yul\":2990:3434   */\n    tag_160:\n        /* \"#utility.yul\":3015:3021   */\n      dup6\n        /* \"#utility.yul\":3012:3013   */\n      dup2\n        /* \"#utility.yul\":3009:3022   */\n      lt\n        /* \"#utility.yul\":2990:3434   */\n      iszero\n      tag_162\n      jumpi\n        /* \"#utility.yul\":3086:3095   */\n      dup5\n        /* \"#utility.yul\":3080:3084   */\n      dup5\n        /* \"#utility.yul\":3076:3096   */\n      sub\n        /* \"#utility.yul\":3071:3074   */\n      dup10\n        /* \"#utility.yul\":3064:3097   */\n      mstore\n        /* \"#utility.yul\":3137:3143   */\n      dup2\n        /* \"#utility.yul\":3131:3144   */\n      mload\n        /* \"#utility.yul\":3165:3281   */\n      tag_163\n        /* \"#utility.yul\":3276:3280   */\n      dup6\n        /* \"#utility.yul\":3261:3274   */\n      dup3\n        /* \"#utility.yul\":3165:3281   */\n      tag_141\n      jump\t// in\n    tag_163:\n        /* \"#utility.yul\":3157:3281   */\n      swap5\n      pop\n        /* \"#utility.yul\":3304:3390   */\n      tag_164\n        /* \"#utility.yul\":3383:3389   */\n      dup4\n        /* \"#utility.yul\":3304:3390   */\n      tag_165\n      jump\t// in\n    tag_164:\n        /* \"#utility.yul\":3294:3390   */\n      swap3\n      pop\n        /* \"#utility.yul\":3419:3423   */\n      0x20\n        /* \"#utility.yul\":3414:3417   */\n      dup11\n        /* \"#utility.yul\":3410:3424   */\n      add\n        /* \"#utility.yul\":3403:3424   */\n      swap10\n      pop\n        /* \"#utility.yul\":3050:3434   */\n      pop\n        /* \"#utility.yul\":3037:3038   */\n      0x01\n        /* \"#utility.yul\":3034:3035   */\n      dup2\n        /* \"#utility.yul\":3030:3039   */\n      add\n        /* \"#utility.yul\":3025:3039   */\n      swap1\n      pop\n        /* \"#utility.yul\":2990:3434   */\n      jump(tag_160)\n    tag_162:\n        /* \"#utility.yul\":2994:3008   */\n      pop\n        /* \"#utility.yul\":3450:3454   */\n      dup3\n        /* \"#utility.yul\":3443:3454   */\n      swap8\n      pop\n        /* \"#utility.yul\":3470:3473   */\n      dup8\n        /* \"#utility.yul\":3463:3473   */\n      swap6\n      pop\n        /* \"#utility.yul\":2536:3479   */\n      pop\n      pop\n      pop\n      pop\n      pop\n        /* \"#utility.yul\":2360:3479   */\n      swap3\n      swap2\n      pop\n      pop\n      jump\t// out\n        /* \"#utility.yul\":3485:3829   */\n    tag_166:\n        /* \"#utility.yul\":3563:3566   */\n      0x00\n        /* \"#utility.yul\":3591:3630   */\n      tag_168\n        /* \"#utility.yul\":3624:3629   */\n      dup3\n        /* \"#utility.yul\":3591:3630   */\n      tag_169\n      jump\t// in\n    tag_168:\n        /* \"#utility.yul\":3646:3707   */\n      tag_170\n        /* \"#utility.yul\":3700:3706   */\n      dup2\n        /* \"#utility.yul\":3695:3698   */\n      dup6\n        /* \"#utility.yul\":3646:3707   */\n      tag_171\n      jump\t// in\n    tag_170:\n        /* \"#utility.yul\":3639:3707   */\n      swap4\n      pop\n        /* \"#utility.yul\":3716:3768   */\n      tag_172\n        /* \"#utility.yul\":3761:3767   */\n      dup2\n        /* \"#utility.yul\":3756:3759   */\n      dup6\n        /* \"#utility.yul\":3749:3753   */\n      0x20\n        /* \"#utility.yul\":3742:3747   */\n      dup7\n        /* \"#utility.yul\":3738:3754   */\n      add\n        /* \"#utility.yul\":3716:3768   */\n      tag_173\n      jump\t// in\n    tag_172:\n        /* \"#utility.yul\":3793:3822   */\n      tag_174\n        /* \"#utility.yul\":3815:3821   */\n      dup2\n        /* \"#utility.yul\":3793:3822   */\n      tag_175\n      jump\t// in\n    tag_174:\n        /* \"#utility.yul\":3788:3791   */\n      dup5\n        /* \"#utility.yul\":3784:3823   */\n      add\n        /* \"#utility.yul\":3777:3823   */\n      swap2\n      pop\n        /* \"#utility.yul\":3567:3829   */\n      pop\n        /* \"#utility.yul\":3485:3829   */\n      swap3\n      swap2\n      pop\n      pop\n      jump\t// out\n        /* \"#utility.yul\":3835:4199   */\n    tag_176:\n        /* \"#utility.yul\":3923:3926   */\n      0x00\n        /* \"#utility.yul\":3951:3990   */\n      tag_178\n        /* \"#utility.yul\":3984:3989   */\n      dup3\n        /* \"#utility.yul\":3951:3990   */\n      tag_169\n      jump\t// in\n    tag_178:\n        /* \"#utility.yul\":4006:4077   */\n      tag_179\n        /* \"#utility.yul\":4070:4076   */\n      dup2\n        /* \"#utility.yul\":4065:4068   */\n      dup6\n        /* \"#utility.yul\":4006:4077   */\n      tag_180\n      jump\t// in\n    tag_179:\n        /* \"#utility.yul\":3999:4077   */\n      swap4\n      pop\n        /* \"#utility.yul\":4086:4138   */\n      tag_181\n        /* \"#utility.yul\":4131:4137   */\n      dup2\n        /* \"#utility.yul\":4126:4129   */\n      dup6\n        /* \"#utility.yul\":4119:4123   */\n      0x20\n        /* \"#utility.yul\":4112:4117   */\n      dup7\n        /* \"#utility.yul\":4108:4124   */\n      add\n        /* \"#utility.yul\":4086:4138   */\n      tag_173\n      jump\t// in\n    tag_181:\n        /* \"#utility.yul\":4163:4192   */\n      tag_182\n        /* \"#utility.yul\":4185:4191   */\n      dup2\n        /* \"#utility.yul\":4163:4192   */\n      tag_175\n      jump\t// in\n    tag_182:\n        /* \"#utility.yul\":4158:4161   */\n      dup5\n        /* \"#utility.yul\":4154:4193   */\n      add\n        /* \"#utility.yul\":4147:4193   */\n      swap2\n      pop\n        /* \"#utility.yul\":3927:4199   */\n      pop\n        /* \"#utility.yul\":3835:4199   */\n      swap3\n      swap2\n      pop\n      pop\n      jump\t// out\n        /* \"#utility.yul\":4205:4571   */\n    tag_183:\n        /* \"#utility.yul\":4347:4350   */\n      0x00\n        /* \"#utility.yul\":4368:4435   */\n      tag_185\n        /* \"#utility.yul\":4432:4434   */\n      0x26\n        /* \"#utility.yul\":4427:4430   */\n      dup4\n        /* \"#utility.yul\":4368:4435   */\n      tag_180\n      jump\t// in\n    tag_185:\n        /* \"#utility.yul\":4361:4435   */\n      swap2\n      pop\n        /* \"#utility.yul\":4444:4537   */\n      tag_186\n        /* \"#utility.yul\":4533:4536   */\n      dup3\n        /* \"#utility.yul\":4444:4537   */\n      tag_187\n      jump\t// in\n    tag_186:\n        /* \"#utility.yul\":4562:4564   */\n      0x40\n        /* \"#utility.yul\":4557:4560   */\n      dup3\n        /* \"#utility.yul\":4553:4565   */\n      add\n        /* \"#utility.yul\":4546:4565   */\n      swap1\n      pop\n        /* \"#utility.yul\":4205:4571   */\n      swap2\n      swap1\n      pop\n      jump\t// out\n        /* \"#utility.yul\":4577:4941   */\n    tag_188:\n        /* \"#utility.yul\":4719:4722   */\n      0x00\n        /* \"#utility.yul\":4740:4806   */\n      tag_190\n        /* \"#utility.yul\":4804:4805   */\n      0x00\n        /* \"#utility.yul\":4799:4802   */\n      dup4\n        /* \"#utility.yul\":4740:4806   */\n      tag_180\n      jump\t// in\n    tag_190:\n        /* \"#utility.yul\":4733:4806   */\n      swap2\n      pop\n        /* \"#utility.yul\":4815:4908   */\n      tag_191\n        /* \"#utility.yul\":4904:4907   */\n      dup3\n        /* \"#utility.yul\":4815:4908   */\n      tag_192\n      jump\t// in\n    tag_191:\n        /* \"#utility.yul\":4933:4934   */\n      0x00\n        /* \"#utility.yul\":4928:4931   */\n      dup3\n        /* \"#utility.yul\":4924:4935   */\n      add\n        /* \"#utility.yul\":4917:4935   */\n      swap1\n      pop\n        /* \"#utility.yul\":4577:4941   */\n      swap2\n      swap1\n      pop\n      jump\t// out\n        /* \"#utility.yul\":5019:5617   */\n    tag_144:\n        /* \"#utility.yul\":5130:5133   */\n      0x00\n        /* \"#utility.yul\":5166:5170   */\n      0x40\n        /* \"#utility.yul\":5161:5164   */\n      dup4\n        /* \"#utility.yul\":5157:5171   */\n      add\n        /* \"#utility.yul\":5253:5257   */\n      0x00\n        /* \"#utility.yul\":5246:5251   */\n      dup4\n        /* \"#utility.yul\":5242:5258   */\n      add\n        /* \"#utility.yul\":5236:5259   */\n      mload\n        /* \"#utility.yul\":5306:5309   */\n      dup5\n        /* \"#utility.yul\":5300:5304   */\n      dup3\n        /* \"#utility.yul\":5296:5310   */\n      sub\n        /* \"#utility.yul\":5289:5293   */\n      0x00\n        /* \"#utility.yul\":5284:5287   */\n      dup7\n        /* \"#utility.yul\":5280:5294   */\n      add\n        /* \"#utility.yul\":5273:5311   */\n      mstore\n        /* \"#utility.yul\":5332:5405   */\n      tag_194\n        /* \"#utility.yul\":5400:5404   */\n      dup3\n        /* \"#utility.yul\":5386:5398   */\n      dup3\n        /* \"#utility.yul\":5332:5405   */\n      tag_166\n      jump\t// in\n    tag_194:\n        /* \"#utility.yul\":5324:5405   */\n      swap2\n      pop\n        /* \"#utility.yul\":5181:5416   */\n      pop\n        /* \"#utility.yul\":5498:5502   */\n      0x20\n        /* \"#utility.yul\":5491:5496   */\n      dup4\n        /* \"#utility.yul\":5487:5503   */\n      add\n        /* \"#utility.yul\":5481:5504   */\n      mload\n        /* \"#utility.yul\":5517:5580   */\n      tag_195\n        /* \"#utility.yul\":5574:5578   */\n      0x20\n        /* \"#utility.yul\":5569:5572   */\n      dup7\n        /* \"#utility.yul\":5565:5579   */\n      add\n        /* \"#utility.yul\":5551:5563   */\n      dup3\n        /* \"#utility.yul\":5517:5580   */\n      tag_145\n      jump\t// in\n    tag_195:\n        /* \"#utility.yul\":5426:5590   */\n      pop\n        /* \"#utility.yul\":5607:5611   */\n      dup1\n        /* \"#utility.yul\":5600:5611   */\n      swap2\n      pop\n        /* \"#utility.yul\":5135:5617   */\n      pop\n        /* \"#utility.yul\":5019:5617   */\n      swap3\n      swap2\n      pop\n      pop\n      jump\t// out\n        /* \"#utility.yul\":5623:5741   */\n    tag_196:\n        /* \"#utility.yul\":5710:5734   */\n      tag_198\n        /* \"#utility.yul\":5728:5733   */\n      dup2\n        /* \"#utility.yul\":5710:5734   */\n      tag_199\n      jump\t// in\n    tag_198:\n        /* \"#utility.yul\":5705:5708   */\n      dup3\n        /* \"#utility.yul\":5698:5735   */\n      mstore\n        /* \"#utility.yul\":5623:5741   */\n      pop\n      pop\n      jump\t// out\n        /* \"#utility.yul\":5747:5969   */\n    tag_55:\n        /* \"#utility.yul\":5840:5844   */\n      0x00\n        /* \"#utility.yul\":5878:5880   */\n      0x20\n        /* \"#utility.yul\":5867:5876   */\n      dup3\n        /* \"#utility.yul\":5863:5881   */\n      add\n        /* \"#utility.yul\":5855:5881   */\n      swap1\n      pop\n        /* \"#utility.yul\":5891:5962   */\n      tag_201\n        /* \"#utility.yul\":5959:5960   */\n      0x00\n        /* \"#utility.yul\":5948:5957   */\n      dup4\n        /* \"#utility.yul\":5944:5961   */\n      add\n        /* \"#utility.yul\":5935:5941   */\n      dup5\n        /* \"#utility.yul\":5891:5962   */\n      tag_149\n      jump\t// in\n    tag_201:\n        /* \"#utility.yul\":5747:5969   */\n      swap3\n      swap2\n      pop\n      pop\n      jump\t// out\n        /* \"#utility.yul\":5975:6452   */\n    tag_50:\n        /* \"#utility.yul\":6170:6174   */\n      0x00\n        /* \"#utility.yul\":6208:6210   */\n      0x20\n        /* \"#utility.yul\":6197:6206   */\n      dup3\n        /* \"#utility.yul\":6193:6211   */\n      add\n        /* \"#utility.yul\":6185:6211   */\n      swap1\n      pop\n        /* \"#utility.yul\":6257:6266   */\n      dup2\n        /* \"#utility.yul\":6251:6255   */\n      dup2\n        /* \"#utility.yul\":6247:6267   */\n      sub\n        /* \"#utility.yul\":6243:6244   */\n      0x00\n        /* \"#utility.yul\":6232:6241   */\n      dup4\n        /* \"#utility.yul\":6228:6245   */\n      add\n        /* \"#utility.yul\":6221:6268   */\n      mstore\n        /* \"#utility.yul\":6285:6445   */\n      tag_203\n        /* \"#utility.yul\":6440:6444   */\n      dup2\n        /* \"#utility.yul\":6431:6437   */\n      dup5\n        /* \"#utility.yul\":6285:6445   */\n      tag_152\n      jump\t// in\n    tag_203:\n        /* \"#utility.yul\":6277:6445   */\n      swap1\n      pop\n        /* \"#utility.yul\":5975:6452   */\n      swap3\n      swap2\n      pop\n      pop\n      jump\t// out\n        /* \"#utility.yul\":6458:6881   */\n    tag_41:\n        /* \"#utility.yul\":6599:6603   */\n      0x00\n        /* \"#utility.yul\":6637:6639   */\n      0x40\n        /* \"#utility.yul\":6626:6635   */\n      dup3\n        /* \"#utility.yul\":6622:6640   */\n      add\n        /* \"#utility.yul\":6614:6640   */\n      swap1\n      pop\n        /* \"#utility.yul\":6686:6695   */\n      dup2\n        /* \"#utility.yul\":6680:6684   */\n      dup2\n        /* \"#utility.yul\":6676:6696   */\n      sub\n        /* \"#utility.yul\":6672:6673   */\n      0x00\n        /* \"#utility.yul\":6661:6670   */\n      dup4\n        /* \"#utility.yul\":6657:6674   */\n      add\n        /* \"#utility.yul\":6650:6697   */\n      mstore\n        /* \"#utility.yul\":6714:6792   */\n      tag_205\n        /* \"#utility.yul\":6787:6791   */\n      dup2\n        /* \"#utility.yul\":6778:6784   */\n      dup6\n        /* \"#utility.yul\":6714:6792   */\n      tag_176\n      jump\t// in\n    tag_205:\n        /* \"#utility.yul\":6706:6792   */\n      swap1\n      pop\n        /* \"#utility.yul\":6802:6874   */\n      tag_206\n        /* \"#utility.yul\":6870:6872   */\n      0x20\n        /* \"#utility.yul\":6859:6868   */\n      dup4\n        /* \"#utility.yul\":6855:6873   */\n      add\n        /* \"#utility.yul\":6846:6852   */\n      dup5\n        /* \"#utility.yul\":6802:6874   */\n      tag_149\n      jump\t// in\n    tag_206:\n        /* \"#utility.yul\":6458:6881   */\n      swap4\n      swap3\n      pop\n      pop\n      pop\n      jump\t// out\n        /* \"#utility.yul\":6887:7306   */\n    tag_17:\n        /* \"#utility.yul\":7053:7057   */\n      0x00\n        /* \"#utility.yul\":7091:7093   */\n      0x20\n        /* \"#utility.yul\":7080:7089   */\n      dup3\n        /* \"#utility.yul\":7076:7094   */\n      add\n        /* \"#utility.yul\":7068:7094   */\n      swap1\n      pop\n        /* \"#utility.yul\":7140:7149   */\n      dup2\n        /* \"#utility.yul\":7134:7138   */\n      dup2\n        /* \"#utility.yul\":7130:7150   */\n      sub\n        /* \"#utility.yul\":7126:7127   */\n      0x00\n        /* \"#utility.yul\":7115:7124   */\n      dup4\n        /* \"#utility.yul\":7111:7128   */\n      add\n        /* \"#utility.yul\":7104:7151   */\n      mstore\n        /* \"#utility.yul\":7168:7299   */\n      tag_208\n        /* \"#utility.yul\":7294:7298   */\n      dup2\n        /* \"#utility.yul\":7168:7299   */\n      tag_183\n      jump\t// in\n    tag_208:\n        /* \"#utility.yul\":7160:7299   */\n      swap1\n      pop\n        /* \"#utility.yul\":6887:7306   */\n      swap2\n      swap1\n      pop\n      jump\t// out\n        /* \"#utility.yul\":7312:7731   */\n    tag_69:\n        /* \"#utility.yul\":7478:7482   */\n      0x00\n        /* \"#utility.yul\":7516:7518   */\n      0x20\n        /* \"#utility.yul\":7505:7514   */\n      dup3\n        /* \"#utility.yul\":7501:7519   */\n      add\n        /* \"#utility.yul\":7493:7519   */\n      swap1\n      pop\n        /* \"#utility.yul\":7565:7574   */\n      dup2\n        /* \"#utility.yul\":7559:7563   */\n      dup2\n        /* \"#utility.yul\":7555:7575   */\n      sub\n        /* \"#utility.yul\":7551:7552   */\n      0x00\n        /* \"#utility.yul\":7540:7549   */\n      dup4\n        /* \"#utility.yul\":7536:7553   */\n      add\n        /* \"#utility.yul\":7529:7576   */\n      mstore\n        /* \"#utility.yul\":7593:7724   */\n      tag_210\n        /* \"#utility.yul\":7719:7723   */\n      dup2\n        /* \"#utility.yul\":7593:7724   */\n      tag_188\n      jump\t// in\n    tag_210:\n        /* \"#utility.yul\":7585:7724   */\n      swap1\n      pop\n        /* \"#utility.yul\":7312:7731   */\n      swap2\n      swap1\n      pop\n      jump\t// out\n        /* \"#utility.yul\":7737:7959   */\n    tag_22:\n        /* \"#utility.yul\":7830:7834   */\n      0x00\n        /* \"#utility.yul\":7868:7870   */\n      0x20\n        /* \"#utility.yul\":7857:7866   */\n      dup3\n        /* \"#utility.yul\":7853:7871   */\n      add\n        /* \"#utility.yul\":7845:7871   */\n      swap1\n      pop\n        /* \"#utility.yul\":7881:7952   */\n      tag_212\n        /* \"#utility.yul\":7949:7950   */\n      0x00\n        /* \"#utility.yul\":7938:7947   */\n      dup4\n        /* \"#utility.yul\":7934:7951   */\n      add\n        /* \"#utility.yul\":7925:7931   */\n      dup5\n        /* \"#utility.yul\":7881:7952   */\n      tag_196\n      jump\t// in\n    tag_212:\n        /* \"#utility.yul\":7737:7959   */\n      swap3\n      swap2\n      pop\n      pop\n      jump\t// out\n        /* \"#utility.yul\":7965:8094   */\n    tag_113:\n        /* \"#utility.yul\":7999:8005   */\n      0x00\n        /* \"#utility.yul\":8026:8046   */\n      tag_214\n      tag_215\n      jump\t// in\n    tag_214:\n        /* \"#utility.yul\":8016:8046   */\n      swap1\n      pop\n        /* \"#utility.yul\":8055:8088   */\n      tag_216\n        /* \"#utility.yul\":8083:8087   */\n      dup3\n        /* \"#utility.yul\":8075:8081   */\n      dup3\n        /* \"#utility.yul\":8055:8088   */\n      tag_217\n      jump\t// in\n    tag_216:\n        /* \"#utility.yul\":7965:8094   */\n      swap2\n      swap1\n      pop\n      jump\t// out\n        /* \"#utility.yul\":8100:8175   */\n    tag_215:\n        /* \"#utility.yul\":8133:8139   */\n      0x00\n        /* \"#utility.yul\":8166:8168   */\n      0x40\n        /* \"#utility.yul\":8160:8169   */\n      mload\n        /* \"#utility.yul\":8150:8169   */\n      swap1\n      pop\n        /* \"#utility.yul\":8100:8175   */\n      swap1\n      jump\t// out\n        /* \"#utility.yul\":8181:8489   */\n    tag_112:\n        /* \"#utility.yul\":8243:8247   */\n      0x00\n        /* \"#utility.yul\":8333:8351   */\n      0xffffffffffffffff\n        /* \"#utility.yul\":8325:8331   */\n      dup3\n        /* \"#utility.yul\":8322:8352   */\n      gt\n        /* \"#utility.yul\":8319:8375   */\n      iszero\n      tag_220\n      jumpi\n        /* \"#utility.yul\":8355:8373   */\n      tag_221\n      tag_80\n      jump\t// in\n    tag_221:\n        /* \"#utility.yul\":8319:8375   */\n    tag_220:\n        /* \"#utility.yul\":8393:8422   */\n      tag_222\n        /* \"#utility.yul\":8415:8421   */\n      dup3\n        /* \"#utility.yul\":8393:8422   */\n      tag_175\n      jump\t// in\n    tag_222:\n        /* \"#utility.yul\":8385:8422   */\n      swap1\n      pop\n        /* \"#utility.yul\":8477:8481   */\n      0x20\n        /* \"#utility.yul\":8471:8475   */\n      dup2\n        /* \"#utility.yul\":8467:8482   */\n      add\n        /* \"#utility.yul\":8459:8482   */\n      swap1\n      pop\n        /* \"#utility.yul\":8181:8489   */\n      swap2\n      swap1\n      pop\n      jump\t// out\n        /* \"#utility.yul\":8495:8653   */\n    tag_159:\n        /* \"#utility.yul\":8588:8592   */\n      0x00\n        /* \"#utility.yul\":8611:8614   */\n      dup2\n        /* \"#utility.yul\":8603:8614   */\n      swap1\n      pop\n        /* \"#utility.yul\":8641:8645   */\n      0x20\n        /* \"#utility.yul\":8636:8639   */\n      dup3\n        /* \"#utility.yul\":8632:8646   */\n      add\n        /* \"#utility.yul\":8624:8646   */\n      swap1\n      pop\n        /* \"#utility.yul\":8495:8653   */\n      swap2\n      swap1\n      pop\n      jump\t// out\n        /* \"#utility.yul\":8659:8799   */\n    tag_155:\n        /* \"#utility.yul\":8752:8758   */\n      0x00\n        /* \"#utility.yul\":8786:8791   */\n      dup2\n        /* \"#utility.yul\":8780:8792   */\n      mload\n        /* \"#utility.yul\":8770:8792   */\n      swap1\n      pop\n        /* \"#utility.yul\":8659:8799   */\n      swap2\n      swap1\n      pop\n      jump\t// out\n        /* \"#utility.yul\":8805:8904   */\n    tag_169:\n        /* \"#utility.yul\":8857:8863   */\n      0x00\n        /* \"#utility.yul\":8891:8896   */\n      dup2\n        /* \"#utility.yul\":8885:8897   */\n      mload\n        /* \"#utility.yul\":8875:8897   */\n      swap1\n      pop\n        /* \"#utility.yul\":8805:8904   */\n      swap2\n      swap1\n      pop\n      jump\t// out\n        /* \"#utility.yul\":8910:9049   */\n    tag_165:\n        /* \"#utility.yul\":9006:9010   */\n      0x00\n        /* \"#utility.yul\":9038:9042   */\n      0x20\n        /* \"#utility.yul\":9033:9036   */\n      dup3\n        /* \"#utility.yul\":9029:9043   */\n      add\n        /* \"#utility.yul\":9021:9043   */\n      swap1\n      pop\n        /* \"#utility.yul\":8910:9049   */\n      swap2\n      swap1\n      pop\n      jump\t// out\n        /* \"#utility.yul\":9055:9265   */\n    tag_157:\n        /* \"#utility.yul\":9180:9191   */\n      0x00\n        /* \"#utility.yul\":9214:9220   */\n      dup3\n        /* \"#utility.yul\":9209:9212   */\n      dup3\n        /* \"#utility.yul\":9202:9221   */\n      mstore\n        /* \"#utility.yul\":9254:9258   */\n      0x20\n        /* \"#utility.yul\":9249:9252   */\n      dup3\n        /* \"#utility.yul\":9245:9259   */\n      add\n        /* \"#utility.yul\":9230:9259   */\n      swap1\n      pop\n        /* \"#utility.yul\":9055:9265   */\n      swap3\n      swap2\n      pop\n      pop\n      jump\t// out\n        /* \"#utility.yul\":9271:9430   */\n    tag_171:\n        /* \"#utility.yul\":9345:9356   */\n      0x00\n        /* \"#utility.yul\":9379:9385   */\n      dup3\n        /* \"#utility.yul\":9374:9377   */\n      dup3\n        /* \"#utility.yul\":9367:9386   */\n      mstore\n        /* \"#utility.yul\":9419:9423   */\n      0x20\n        /* \"#utility.yul\":9414:9417   */\n      dup3\n        /* \"#utility.yul\":9410:9424   */\n      add\n        /* \"#utility.yul\":9395:9424   */\n      swap1\n      pop\n        /* \"#utility.yul\":9271:9430   */\n      swap3\n      swap2\n      pop\n      pop\n      jump\t// out\n        /* \"#utility.yul\":9436:9605   */\n    tag_180:\n        /* \"#utility.yul\":9520:9531   */\n      0x00\n        /* \"#utility.yul\":9554:9560   */\n      dup3\n        /* \"#utility.yul\":9549:9552   */\n      dup3\n        /* \"#utility.yul\":9542:9561   */\n      mstore\n        /* \"#utility.yul\":9594:9598   */\n      0x20\n        /* \"#utility.yul\":9589:9592   */\n      dup3\n        /* \"#utility.yul\":9585:9599   */\n      add\n        /* \"#utility.yul\":9570:9599   */\n      swap1\n      pop\n        /* \"#utility.yul\":9436:9605   */\n      swap3\n      swap2\n      pop\n      pop\n      jump\t// out\n        /* \"#utility.yul\":9611:9707   */\n    tag_148:\n        /* \"#utility.yul\":9648:9655   */\n      0x00\n        /* \"#utility.yul\":9677:9701   */\n      tag_231\n        /* \"#utility.yul\":9695:9700   */\n      dup3\n        /* \"#utility.yul\":9677:9701   */\n      tag_232\n      jump\t// in\n    tag_231:\n        /* \"#utility.yul\":9666:9701   */\n      swap1\n      pop\n        /* \"#utility.yul\":9611:9707   */\n      swap2\n      swap1\n      pop\n      jump\t// out\n        /* \"#utility.yul\":9713:9839   */\n    tag_232:\n        /* \"#utility.yul\":9750:9757   */\n      0x00\n        /* \"#utility.yul\":9790:9832   */\n      0xffffffffffffffffffffffffffffffffffffffff\n        /* \"#utility.yul\":9783:9788   */\n      dup3\n        /* \"#utility.yul\":9779:9833   */\n      and\n        /* \"#utility.yul\":9768:9833   */\n      swap1\n      pop\n        /* \"#utility.yul\":9713:9839   */\n      swap2\n      swap1\n      pop\n      jump\t// out\n        /* \"#utility.yul\":9845:9922   */\n    tag_199:\n        /* \"#utility.yul\":9882:9889   */\n      0x00\n        /* \"#utility.yul\":9911:9916   */\n      dup2\n        /* \"#utility.yul\":9900:9916   */\n      swap1\n      pop\n        /* \"#utility.yul\":9845:9922   */\n      swap2\n      swap1\n      pop\n      jump\t// out\n        /* \"#utility.yul\":9928:10082   */\n    tag_118:\n        /* \"#utility.yul\":10012:10018   */\n      dup3\n        /* \"#utility.yul\":10007:10010   */\n      dup2\n        /* \"#utility.yul\":10002:10005   */\n      dup4\n        /* \"#utility.yul\":9989:10019   */\n      calldatacopy\n        /* \"#utility.yul\":10074:10075   */\n      0x00\n        /* \"#utility.yul\":10065:10071   */\n      dup4\n        /* \"#utility.yul\":10060:10063   */\n      dup4\n        /* \"#utility.yul\":10056:10072   */\n      add\n        /* \"#utility.yul\":10049:10076   */\n      mstore\n        /* \"#utility.yul\":9928:10082   */\n      pop\n      pop\n      pop\n      jump\t// out\n        /* \"#utility.yul\":10088:10395   */\n    tag_173:\n        /* \"#utility.yul\":10156:10157   */\n      0x00\n        /* \"#utility.yul\":10166:10279   */\n    tag_237:\n        /* \"#utility.yul\":10180:10186   */\n      dup4\n        /* \"#utility.yul\":10177:10178   */\n      dup2\n        /* \"#utility.yul\":10174:10187   */\n      lt\n        /* \"#utility.yul\":10166:10279   */\n      iszero\n      tag_239\n      jumpi\n        /* \"#utility.yul\":10265:10266   */\n      dup1\n        /* \"#utility.yul\":10260:10263   */\n      dup3\n        /* \"#utility.yul\":10256:10267   */\n      add\n        /* \"#utility.yul\":10250:10268   */\n      mload\n        /* \"#utility.yul\":10246:10247   */\n      dup2\n        /* \"#utility.yul\":10241:10244   */\n      dup5\n        /* \"#utility.yul\":10237:10248   */\n      add\n        /* \"#utility.yul\":10230:10269   */\n      mstore\n        /* \"#utility.yul\":10202:10204   */\n      0x20\n        /* \"#utility.yul\":10199:10200   */\n      dup2\n        /* \"#utility.yul\":10195:10205   */\n      add\n        /* \"#utility.yul\":10190:10205   */\n      swap1\n      pop\n        /* \"#utility.yul\":10166:10279   */\n      jump(tag_237)\n    tag_239:\n        /* \"#utility.yul\":10297:10303   */\n      dup4\n        /* \"#utility.yul\":10294:10295   */\n      dup2\n        /* \"#utility.yul\":10291:10304   */\n      gt\n        /* \"#utility.yul\":10288:10389   */\n      iszero\n      tag_240\n      jumpi\n        /* \"#utility.yul\":10377:10378   */\n      0x00\n        /* \"#utility.yul\":10368:10374   */\n      dup5\n        /* \"#utility.yul\":10363:10366   */\n      dup5\n        /* \"#utility.yul\":10359:10375   */\n      add\n        /* \"#utility.yul\":10352:10379   */\n      mstore\n        /* \"#utility.yul\":10288:10389   */\n    tag_240:\n        /* \"#utility.yul\":10137:10395   */\n      pop\n        /* \"#utility.yul\":10088:10395   */\n      pop\n      pop\n      pop\n      jump\t// out\n        /* \"#utility.yul\":10401:10721   */\n    tag_71:\n        /* \"#utility.yul\":10445:10451   */\n      0x00\n        /* \"#utility.yul\":10482:10483   */\n      0x02\n        /* \"#utility.yul\":10476:10480   */\n      dup3\n        /* \"#utility.yul\":10472:10484   */\n      div\n        /* \"#utility.yul\":10462:10484   */\n      swap1\n      pop\n        /* \"#utility.yul\":10529:10530   */\n      0x01\n        /* \"#utility.yul\":10523:10527   */\n      dup3\n        /* \"#utility.yul\":10519:10531   */\n      and\n        /* \"#utility.yul\":10550:10568   */\n      dup1\n        /* \"#utility.yul\":10540:10621   */\n      tag_242\n      jumpi\n        /* \"#utility.yul\":10606:10610   */\n      0x7f\n        /* \"#utility.yul\":10598:10604   */\n      dup3\n        /* \"#utility.yul\":10594:10611   */\n      and\n        /* \"#utility.yul\":10584:10611   */\n      swap2\n      pop\n        /* \"#utility.yul\":10540:10621   */\n    tag_242:\n        /* \"#utility.yul\":10668:10670   */\n      0x20\n        /* \"#utility.yul\":10660:10666   */\n      dup3\n        /* \"#utility.yul\":10657:10671   */\n      lt\n        /* \"#utility.yul\":10637:10655   */\n      dup2\n        /* \"#utility.yul\":10634:10672   */\n      eq\n        /* \"#utility.yul\":10631:10715   */\n      iszero\n      tag_243\n      jumpi\n        /* \"#utility.yul\":10687:10705   */\n      tag_244\n      tag_245\n      jump\t// in\n    tag_244:\n        /* \"#utility.yul\":10631:10715   */\n    tag_243:\n        /* \"#utility.yul\":10452:10721   */\n      pop\n        /* \"#utility.yul\":10401:10721   */\n      swap2\n      swap1\n      pop\n      jump\t// out\n        /* \"#utility.yul\":10727:11008   */\n    tag_217:\n        /* \"#utility.yul\":10810:10837   */\n      tag_247\n        /* \"#utility.yul\":10832:10836   */\n      dup3\n        /* \"#utility.yul\":10810:10837   */\n      tag_175\n      jump\t// in\n    tag_247:\n        /* \"#utility.yul\":10802:10808   */\n      dup2\n        /* \"#utility.yul\":10798:10838   */\n      add\n        /* \"#utility.yul\":10940:10946   */\n      dup2\n        /* \"#utility.yul\":10928:10938   */\n      dup2\n        /* \"#utility.yul\":10925:10947   */\n      lt\n        /* \"#utility.yul\":10904:10922   */\n      0xffffffffffffffff\n        /* \"#utility.yul\":10892:10902   */\n      dup3\n        /* \"#utility.yul\":10889:10923   */\n      gt\n        /* \"#utility.yul\":10886:10948   */\n      or\n        /* \"#utility.yul\":10883:10971   */\n      iszero\n      tag_248\n      jumpi\n        /* \"#utility.yul\":10951:10969   */\n      tag_249\n      tag_80\n      jump\t// in\n    tag_249:\n        /* \"#utility.yul\":10883:10971   */\n    tag_248:\n        /* \"#utility.yul\":10991:11001   */\n      dup1\n        /* \"#utility.yul\":10987:10989   */\n      0x40\n        /* \"#utility.yul\":10980:11002   */\n      mstore\n        /* \"#utility.yul\":10770:11008   */\n      pop\n        /* \"#utility.yul\":10727:11008   */\n      pop\n      pop\n      jump\t// out\n        /* \"#utility.yul\":11014:11247   */\n    tag_65:\n        /* \"#utility.yul\":11053:11056   */\n      0x00\n        /* \"#utility.yul\":11076:11100   */\n      tag_251\n        /* \"#utility.yul\":11094:11099   */\n      dup3\n        /* \"#utility.yul\":11076:11100   */\n      tag_199\n      jump\t// in\n    tag_251:\n        /* \"#utility.yul\":11067:11100   */\n      swap2\n      pop\n        /* \"#utility.yul\":11122:11188   */\n      0xffffffffffffffffffffffffffffffffffffffffffffffffffffffffffffffff\n        /* \"#utility.yul\":11115:11120   */\n      dup3\n        /* \"#utility.yul\":11112:11189   */\n      eq\n        /* \"#utility.yul\":11109:11212   */\n      iszero\n      tag_252\n      jumpi\n        /* \"#utility.yul\":11192:11210   */\n      tag_253\n      tag_254\n      jump\t// in\n    tag_253:\n        /* \"#utility.yul\":11109:11212   */\n    tag_252:\n        /* \"#utility.yul\":11239:11240   */\n      0x01\n        /* \"#utility.yul\":11232:11237   */\n      dup3\n        /* \"#utility.yul\":11228:11241   */\n      add\n        /* \"#utility.yul\":11221:11241   */\n      swap1\n      pop\n        /* \"#utility.yul\":11014:11247   */\n      swap2\n      swap1\n      pop\n      jump\t// out\n        /* \"#utility.yul\":11253:11433   */\n    tag_254:\n        /* \"#utility.yul\":11301:11378   */\n      0x4e487b7100000000000000000000000000000000000000000000000000000000\n        /* \"#utility.yul\":11298:11299   */\n      0x00\n        /* \"#utility.yul\":11291:11379   */\n      mstore\n        /* \"#utility.yul\":11398:11402   */\n      0x11\n        /* \"#utility.yul\":11395:11396   */\n      0x04\n        /* \"#utility.yul\":11388:11403   */\n      mstore\n        /* \"#utility.yul\":11422:11426   */\n      0x24\n        /* \"#utility.yul\":11419:11420   */\n      0x00\n        /* \"#utility.yul\":11412:11427   */\n      revert\n        /* \"#utility.yul\":11439:11619   */\n    tag_245:\n        /* \"#utility.yul\":11487:11564   */\n      0x4e487b7100000000000000000000000000000000000000000000000000000000\n        /* \"#utility.yul\":11484:11485   */\n      0x00\n        /* \"#utility.yul\":11477:11565   */\n      mstore\n        /* \"#utility.yul\":11584:11588   */\n      0x22\n        /* \"#utility.yul\":11581:11582   */\n      0x04\n        /* \"#utility.yul\":11574:11589   */\n      mstore\n        /* \"#utility.yul\":11608:11612   */\n      0x24\n        /* \"#utility.yul\":11605:11606   */\n      0x00\n        /* \"#utility.yul\":11598:11613   */\n      revert\n        /* \"#utility.yul\":11625:11805   */\n    tag_95:\n        /* \"#utility.yul\":11673:11750   */\n      0x4e487b7100000000000000000000000000000000000000000000000000000000\n        /* \"#utility.yul\":11670:11671   */\n      0x00\n        /* \"#utility.yul\":11663:11751   */\n      mstore\n        /* \"#utility.yul\":11770:11774   */\n      0x32\n        /* \"#utility.yul\":11767:11768   */\n      0x04\n        /* \"#utility.yul\":11760:11775   */\n      mstore\n        /* \"#utility.yul\":11794:11798   */\n      0x24\n        /* \"#utility.yul\":11791:11792   */\n      0x00\n        /* \"#utility.yul\":11784:11799   */\n      revert\n        /* \"#utility.yul\":11811:11991   */\n    tag_80:\n        /* \"#utility.yul\":11859:11936   */\n      0x4e487b7100000000000000000000000000000000000000000000000000000000\n        /* \"#utility.yul\":11856:11857   */\n      0x00\n        /* \"#utility.yul\":11849:11937   */\n      mstore\n        /* \"#utility.yul\":11956:11960   */\n      0x41\n        /* \"#utility.yul\":11953:11954   */\n      0x04\n        /* \"#utility.yul\":11946:11961   */\n      mstore\n        /* \"#utility.yul\":11980:11984   */\n      0x24\n        /* \"#utility.yul\":11977:11978   */\n      0x00\n        /* \"#utility.yul\":11970:11985   */\n      revert\n        /* \"#utility.yul\":11997:12114   */\n    tag_123:\n        /* \"#utility.yul\":12106:12107   */\n      0x00\n        /* \"#utility.yul\":12103:12104   */\n      dup1\n        /* \"#utility.yul\":12096:12108   */\n      revert\n        /* \"#utility.yul\":12120:12237   */\n    tag_116:\n        /* \"#utility.yul\":12229:12230   */\n      0x00\n        /* \"#utility.yul\":12226:12227   */\n      dup1\n        /* \"#utility.yul\":12219:12231   */\n      revert\n        /* \"#utility.yul\":12243:12360   */\n    tag_135:\n        /* \"#utility.yul\":12352:12353   */\n      0x00\n        /* \"#utility.yul\":12349:12350   */\n      dup1\n        /* \"#utility.yul\":12342:12354   */\n      revert\n        /* \"#utility.yul\":12366:12483   */\n    tag_132:\n        /* \"#utility.yul\":12475:12476   */\n      0x00\n        /* \"#utility.yul\":12472:12473   */\n      dup1\n        /* \"#utility.yul\":12465:12477   */\n      revert\n        /* \"#utility.yul\":12489:12591   */\n    tag_175:\n        /* \"#utility.yul\":12530:12536   */\n      0x00\n        /* \"#utility.yul\":12581:12583   */\n      0x1f\n        /* \"#utility.yul\":12577:12584   */\n      not\n        /* \"#utility.yul\":12572:12574   */\n      0x1f\n        /* \"#utility.yul\":12565:12570   */\n      dup4\n        /* \"#utility.yul\":12561:12575   */\n      add\n        /* \"#utility.yul\":12557:12585   */\n      and\n        /* \"#utility.yul\":12547:12585   */\n      swap1\n      pop\n        /* \"#utility.yul\":12489:12591   */\n      swap2\n      swap1\n      pop\n      jump\t// out\n        /* \"#utility.yul\":12597:12822   */\n    tag_187:\n        /* \"#utility.yul\":12737:12771   */\n      0x5061796d656e742073686f756c64206265207468652073756273637269707469\n        /* \"#utility.yul\":12733:12734   */\n      0x00\n        /* \"#utility.yul\":12725:12731   */\n      dup3\n        /* \"#utility.yul\":12721:12735   */\n      add\n        /* \"#utility.yul\":12714:12772   */\n      mstore\n        /* \"#utility.yul\":12806:12814   */\n      0x6f6e206665650000000000000000000000000000000000000000000000000000\n        /* \"#utility.yul\":12801:12803   */\n      0x20\n        /* \"#utility.yul\":12793:12799   */\n      dup3\n        /* \"#utility.yul\":12789:12804   */\n      add\n        /* \"#utility.yul\":12782:12815   */\n      mstore\n        /* \"#utility.yul\":12597:12822   */\n      pop\n      jump\t// out\n        /* \"#utility.yul\":12828:12942   */\n    tag_192:\n      pop\n      jump\t// out\n        /* \"#utility.yul\":12948:13070   */\n    tag_128:\n        /* \"#utility.yul\":13021:13045   */\n      tag_267\n        /* \"#utility.yul\":13039:13044   */\n      dup2\n        /* \"#utility.yul\":13021:13045   */\n      tag_199\n      jump\t// in\n    tag_267:\n        /* \"#utility.yul\":13014:13019   */\n      dup2\n        /* \"#utility.yul\":13011:13046   */\n      eq\n        /* \"#utility.yul\":13001:13064   */\n      tag_268\n      jumpi\n        /* \"#utility.yul\":13060:13061   */\n      0x00\n        /* \"#utility.yul\":13057:13058   */\n      dup1\n        /* \"#utility.yul\":13050:13062   */\n      revert\n        /* \"#utility.yul\":13001:13064   */\n    tag_268:\n        /* \"#utility.yul\":12948:13070   */\n      pop\n      jump\t// out\n\n    auxdata: 0xa2646970667358221220ff0791a0d81499c0f6d096b6b2bf74965a8c5cd74cf71a757d89c650ed19694564736f6c63430008070033\n}\n",
				"bytecode": {
					"linkReferences": {},
					"object": "6080604052600060015534801561001557600080fd5b50604051610efe380380610efe8339818101604052810190610037919061009a565b33600260006101000a81548173ffffffffffffffffffffffffffffffffffffffff021916908373ffffffffffffffffffffffffffffffffffffffff16021790555080600381905550506100ed565b600081519050610094816100d6565b92915050565b6000602082840312156100b0576100af6100d1565b5b60006100be84828501610085565b91505092915050565b6000819050919050565b600080fd5b6100df816100c7565b81146100ea57600080fd5b50565b610e02806100fc6000396000f3fe60806040526004361061008a5760003560e01c806359221a681161005957806359221a68146101675780636f9fb98a146101a557806382d69b62146101d0578063a6c3e6b9146101fb578063ef352bbe146102265761008b565b80630aa0a175146100d157806317e703ab146100fc5780632edd4fa5146101275780633ccfd60b146101505761008b565b5b60035434146100cf576040517f08c379a00000000000000000000000000000000000000000000000000000000081526004016100c690610a41565b60405180910390fd5b005b3480156100dd57600080fd5b506100e6610251565b6040516100f39190610a81565b60405180910390f35b34801561010857600080fd5b50610111610257565b60405161011e9190610a81565b60405180910390f35b34801561013357600080fd5b5061014e600480360381019061014991906107b3565b610261565b005b34801561015c57600080fd5b50610165610322565b005b34801561017357600080fd5b5061018e600480360381019061018991906107fc565b6103b4565b60405161019c929190610a11565b60405180910390f35b3480156101b157600080fd5b506101ba610480565b6040516101c79190610a81565b60405180910390f35b3480156101dc57600080fd5b506101e5610488565b6040516101f291906109ef565b60405180910390f35b34801561020757600080fd5b5061021061062f565b60405161021d91906109d4565b60405180910390f35b34801561023257600080fd5b5061023b610655565b6040516102489190610a81565b60405180910390f35b60035481565b6000600154905090565b60405180604001604052808281526020013373ffffffffffffffffffffffffffffffffffffffff16815250600080600154815260200190815260200160002060008201518160000190805190602001906102bc92919061065b565b5060208201518160010160006101000a81548173ffffffffffffffffffffffffffffffffffffffff021916908373ffffffffffffffffffffffffffffffffffffffff1602179055509050506001600081548092919061031a90610c39565b919050555050565b600260009054906101000a900473ffffffffffffffffffffffffffffffffffffffff1673ffffffffffffffffffffffffffffffffffffffff163373ffffffffffffffffffffffffffffffffffffffff16146103b2576040517f08c379a00000000000000000000000000000000000000000000000000000000081526004016103a990610a61565b60405180910390fd5b565b60006020528060005260406000206000915090508060000180546103d790610bd6565b80601f016020809104026020016040519081016040528092919081815260200182805461040390610bd6565b80156104505780601f1061042557610100808354040283529160200191610450565b820191906000526020600020905b81548152906001019060200180831161043357829003601f168201915b5050505050908060010160009054906101000a900473ffffffffffffffffffffffffffffffffffffffff16905082565b600047905090565b6060600060015467ffffffffffffffff8111156104a8576104a7610d0f565b5b6040519080825280602002602001820160405280156104e157816020015b6104ce6106e1565b8152602001906001900390816104c65790505b50905060005b6001548110156106275760008082815260200190815260200160002060405180604001604052908160008201805461051e90610bd6565b80601f016020809104026020016040519081016040528092919081815260200182805461054a90610bd6565b80156105975780601f1061056c57610100808354040283529160200191610597565b820191906000526020600020905b81548152906001019060200180831161057a57829003601f168201915b505050505081526020016001820160009054906101000a900473ffffffffffffffffffffffffffffffffffffffff1673ffffffffffffffffffffffffffffffffffffffff1673ffffffffffffffffffffffffffffffffffffffff168152505082828151811061060957610608610ce0565b5b6020026020010181905250808061061f90610c39565b9150506104e7565b508091505090565b600260009054906101000a900473ffffffffffffffffffffffffffffffffffffffff1681565b60015481565b82805461066790610bd6565b90600052602060002090601f01602090048101928261068957600085556106d0565b82601f106106a257805160ff19168380011785556106d0565b828001600101855582156106d0579182015b828111156106cf5782518255916020019190600101906106b4565b5b5090506106dd9190610711565b5090565b604051806040016040528060608152602001600073ffffffffffffffffffffffffffffffffffffffff1681525090565b5b8082111561072a576000816000905550600101610712565b5090565b600061074161073c84610ac1565b610a9c565b90508281526020810184848401111561075d5761075c610d43565b5b610768848285610b94565b509392505050565b600082601f83011261078557610784610d3e565b5b813561079584826020860161072e565b91505092915050565b6000813590506107ad81610db5565b92915050565b6000602082840312156107c9576107c8610d4d565b5b600082013567ffffffffffffffff8111156107e7576107e6610d48565b5b6107f384828501610770565b91505092915050565b60006020828403121561081257610811610d4d565b5b60006108208482850161079e565b91505092915050565b60006108358383610988565b905092915050565b61084681610b58565b82525050565b61085581610b58565b82525050565b600061086682610b02565b6108708185610b25565b93508360208202850161088285610af2565b8060005b858110156108be578484038952815161089f8582610829565b94506108aa83610b18565b925060208a01995050600181019050610886565b50829750879550505050505092915050565b60006108db82610b0d565b6108e58185610b36565b93506108f5818560208601610ba3565b6108fe81610d52565b840191505092915050565b600061091482610b0d565b61091e8185610b47565b935061092e818560208601610ba3565b61093781610d52565b840191505092915050565b600061094f602683610b47565b915061095a82610d63565b604082019050919050565b6000610972600083610b47565b915061097d82610db2565b600082019050919050565b600060408301600083015184820360008601526109a582826108d0565b91505060208301516109ba602086018261083d565b508091505092915050565b6109ce81610b8a565b82525050565b60006020820190506109e9600083018461084c565b92915050565b60006020820190508181036000830152610a09818461085b565b905092915050565b60006040820190508181036000830152610a2b8185610909565b9050610a3a602083018461084c565b9392505050565b60006020820190508181036000830152610a5a81610942565b9050919050565b60006020820190508181036000830152610a7a81610965565b9050919050565b6000602082019050610a9660008301846109c5565b92915050565b6000610aa6610ab7565b9050610ab28282610c08565b919050565b6000604051905090565b600067ffffffffffffffff821115610adc57610adb610d0f565b5b610ae582610d52565b9050602081019050919050565b6000819050602082019050919050565b600081519050919050565b600081519050919050565b6000602082019050919050565b600082825260208201905092915050565b600082825260208201905092915050565b600082825260208201905092915050565b6000610b6382610b6a565b9050919050565b600073ffffffffffffffffffffffffffffffffffffffff82169050919050565b6000819050919050565b82818337600083830152505050565b60005b83811015610bc1578082015181840152602081019050610ba6565b83811115610bd0576000848401525b50505050565b60006002820490506001821680610bee57607f821691505b60208210811415610c0257610c01610cb1565b5b50919050565b610c1182610d52565b810181811067ffffffffffffffff82111715610c3057610c2f610d0f565b5b80604052505050565b6000610c4482610b8a565b91507fffffffffffffffffffffffffffffffffffffffffffffffffffffffffffffffff821415610c7757610c76610c82565b5b600182019050919050565b7f4e487b7100000000000000000000000000000000000000000000000000000000600052601160045260246000fd5b7f4e487b7100000000000000000000000000000000000000000000000000000000600052602260045260246000fd5b7f4e487b7100000000000000000000000000000000000000000000000000000000600052603260045260246000fd5b7f4e487b7100000000000000000000000000000000000000000000000000000000600052604160045260246000fd5b600080fd5b600080fd5b600080fd5b600080fd5b6000601f19601f8301169050919050565b7f5061796d656e742073686f756c6420626520746865207375627363726970746960008201527f6f6e206665650000000000000000000000000000000000000000000000000000602082015250565b50565b610dbe81610b8a565b8114610dc957600080fd5b5056fea2646970667358221220ff0791a0d81499c0f6d096b6b2bf74965a8c5cd74cf71a757d89c650ed19694564736f6c63430008070033",
					"opcodes": "PUSH1 0x80 PUSH1 0x40 MSTORE PUSH1 0x0 PUSH1 0x1 SSTORE CALLVALUE DUP1 ISZERO PUSH2 0x15 JUMPI PUSH1 0x0 DUP1 REVERT JUMPDEST POP PUSH1 0x40 MLOAD PUSH2 0xEFE CODESIZE SUB DUP1 PUSH2 0xEFE DUP4 CODECOPY DUP2 DUP2 ADD PUSH1 0x40 MSTORE DUP2 ADD SWAP1 PUSH2 0x37 SWAP2 SWAP1 PUSH2 0x9A JUMP JUMPDEST CALLER PUSH1 0x2 PUSH1 0x0 PUSH2 0x100 EXP DUP2 SLOAD DUP2 PUSH20 0xFFFFFFFFFFFFFFFFFFFFFFFFFFFFFFFFFFFFFFFF MUL NOT AND SWAP1 DUP4 PUSH20 0xFFFFFFFFFFFFFFFFFFFFFFFFFFFFFFFFFFFFFFFF AND MUL OR SWAP1 SSTORE POP DUP1 PUSH1 0x3 DUP2 SWAP1 SSTORE POP POP PUSH2 0xED JUMP JUMPDEST PUSH1 0x0 DUP2 MLOAD SWAP1 POP PUSH2 0x94 DUP2 PUSH2 0xD6 JUMP JUMPDEST SWAP3 SWAP2 POP POP JUMP JUMPDEST PUSH1 0x0 PUSH1 0x20 DUP3 DUP5 SUB SLT ISZERO PUSH2 0xB0 JUMPI PUSH2 0xAF PUSH2 0xD1 JUMP JUMPDEST JUMPDEST PUSH1 0x0 PUSH2 0xBE DUP5 DUP3 DUP6 ADD PUSH2 0x85 JUMP JUMPDEST SWAP2 POP POP SWAP3 SWAP2 POP POP JUMP JUMPDEST PUSH1 0x0 DUP2 SWAP1 POP SWAP2 SWAP1 POP JUMP JUMPDEST PUSH1 0x0 DUP1 REVERT JUMPDEST PUSH2 0xDF DUP2 PUSH2 0xC7 JUMP JUMPDEST DUP2 EQ PUSH2 0xEA JUMPI PUSH1 0x0 DUP1 REVERT JUMPDEST POP JUMP JUMPDEST PUSH2 0xE02 DUP1 PUSH2 0xFC PUSH1 0x0 CODECOPY PUSH1 0x0 RETURN INVALID PUSH1 0x80 PUSH1 0x40 MSTORE PUSH1 0x4 CALLDATASIZE LT PUSH2 0x8A JUMPI PUSH1 0x0 CALLDATALOAD PUSH1 0xE0 SHR DUP1 PUSH4 0x59221A68 GT PUSH2 0x59 JUMPI DUP1 PUSH4 0x59221A68 EQ PUSH2 0x167 JUMPI DUP1 PUSH4 0x6F9FB98A EQ PUSH2 0x1A5 JUMPI DUP1 PUSH4 0x82D69B62 EQ PUSH2 0x1D0 JUMPI DUP1 PUSH4 0xA6C3E6B9 EQ PUSH2 0x1FB JUMPI DUP1 PUSH4 0xEF352BBE EQ PUSH2 0x226 JUMPI PUSH2 0x8B JUMP JUMPDEST DUP1 PUSH4 0xAA0A175 EQ PUSH2 0xD1 JUMPI DUP1 PUSH4 0x17E703AB EQ PUSH2 0xFC JUMPI DUP1 PUSH4 0x2EDD4FA5 EQ PUSH2 0x127 JUMPI DUP1 PUSH4 0x3CCFD60B EQ PUSH2 0x150 JUMPI PUSH2 0x8B JUMP JUMPDEST JUMPDEST PUSH1 0x3 SLOAD CALLVALUE EQ PUSH2 0xCF JUMPI PUSH1 0x40 MLOAD PUSH32 0x8C379A000000000000000000000000000000000000000000000000000000000 DUP2 MSTORE PUSH1 0x4 ADD PUSH2 0xC6 SWAP1 PUSH2 0xA41 JUMP JUMPDEST PUSH1 0x40 MLOAD DUP1 SWAP2 SUB SWAP1 REVERT JUMPDEST STOP JUMPDEST CALLVALUE DUP1 ISZERO PUSH2 0xDD JUMPI PUSH1 0x0 DUP1 REVERT JUMPDEST POP PUSH2 0xE6 PUSH2 0x251 JUMP JUMPDEST PUSH1 0x40 MLOAD PUSH2 0xF3 SWAP2 SWAP1 PUSH2 0xA81 JUMP JUMPDEST PUSH1 0x40 MLOAD DUP1 SWAP2 SUB SWAP1 RETURN JUMPDEST CALLVALUE DUP1 ISZERO PUSH2 0x108 JUMPI PUSH1 0x0 DUP1 REVERT JUMPDEST POP PUSH2 0x111 PUSH2 0x257 JUMP JUMPDEST PUSH1 0x40 MLOAD PUSH2 0x11E SWAP2 SWAP1 PUSH2 0xA81 JUMP JUMPDEST PUSH1 0x40 MLOAD DUP1 SWAP2 SUB SWAP1 RETURN JUMPDEST CALLVALUE DUP1 ISZERO PUSH2 0x133 JUMPI PUSH1 0x0 DUP1 REVERT JUMPDEST POP PUSH2 0x14E PUSH1 0x4 DUP1 CALLDATASIZE SUB DUP2 ADD SWAP1 PUSH2 0x149 SWAP2 SWAP1 PUSH2 0x7B3 JUMP JUMPDEST PUSH2 0x261 JUMP JUMPDEST STOP JUMPDEST CALLVALUE DUP1 ISZERO PUSH2 0x15C JUMPI PUSH1 0x0 DUP1 REVERT JUMPDEST POP PUSH2 0x165 PUSH2 0x322 JUMP JUMPDEST STOP JUMPDEST CALLVALUE DUP1 ISZERO PUSH2 0x173 JUMPI PUSH1 0x0 DUP1 REVERT JUMPDEST POP PUSH2 0x18E PUSH1 0x4 DUP1 CALLDATASIZE SUB DUP2 ADD SWAP1 PUSH2 0x189 SWAP2 SWAP1 PUSH2 0x7FC JUMP JUMPDEST PUSH2 0x3B4 JUMP JUMPDEST PUSH1 0x40 MLOAD PUSH2 0x19C SWAP3 SWAP2 SWAP1 PUSH2 0xA11 JUMP JUMPDEST PUSH1 0x40 MLOAD DUP1 SWAP2 SUB SWAP1 RETURN JUMPDEST CALLVALUE DUP1 ISZERO PUSH2 0x1B1 JUMPI PUSH1 0x0 DUP1 REVERT JUMPDEST POP PUSH2 0x1BA PUSH2 0x480 JUMP JUMPDEST PUSH1 0x40 MLOAD PUSH2 0x1C7 SWAP2 SWAP1 PUSH2 0xA81 JUMP JUMPDEST PUSH1 0x40 MLOAD DUP1 SWAP2 SUB SWAP1 RETURN JUMPDEST CALLVALUE DUP1 ISZERO PUSH2 0x1DC JUMPI PUSH1 0x0 DUP1 REVERT JUMPDEST POP PUSH2 0x1E5 PUSH2 0x488 JUMP JUMPDEST PUSH1 0x40 MLOAD PUSH2 0x1F2 SWAP2 SWAP1 PUSH2 0x9EF JUMP JUMPDEST PUSH1 0x40 MLOAD DUP1 SWAP2 SUB SWAP1 RETURN JUMPDEST CALLVALUE DUP1 ISZERO PUSH2 0x207 JUMPI PUSH1 0x0 DUP1 REVERT JUMPDEST POP PUSH2 0x210 PUSH2 0x62F JUMP JUMPDEST PUSH1 0x40 MLOAD PUSH2 0x21D SWAP2 SWAP1 PUSH2 0x9D4 JUMP JUMPDEST PUSH1 0x40 MLOAD DUP1 SWAP2 SUB SWAP1 RETURN JUMPDEST CALLVALUE DUP1 ISZERO PUSH2 0x232 JUMPI PUSH1 0x0 DUP1 REVERT JUMPDEST POP PUSH2 0x23B PUSH2 0x655 JUMP JUMPDEST PUSH1 0x40 MLOAD PUSH2 0x248 SWAP2 SWAP1 PUSH2 0xA81 JUMP JUMPDEST PUSH1 0x40 MLOAD DUP1 SWAP2 SUB SWAP1 RETURN JUMPDEST PUSH1 0x3 SLOAD DUP2 JUMP JUMPDEST PUSH1 0x0 PUSH1 0x1 SLOAD SWAP1 POP SWAP1 JUMP JUMPDEST PUSH1 0x40 MLOAD DUP1 PUSH1 0x40 ADD PUSH1 0x40 MSTORE DUP1 DUP3 DUP2 MSTORE PUSH1 0x20 ADD CALLER PUSH20 0xFFFFFFFFFFFFFFFFFFFFFFFFFFFFFFFFFFFFFFFF AND DUP2 MSTORE POP PUSH1 0x0 DUP1 PUSH1 0x1 SLOAD DUP2 MSTORE PUSH1 0x20 ADD SWAP1 DUP2 MSTORE PUSH1 0x20 ADD PUSH1 0x0 KECCAK256 PUSH1 0x0 DUP3 ADD MLOAD DUP2 PUSH1 0x0 ADD SWAP1 DUP1 MLOAD SWAP1 PUSH1 0x20 ADD SWAP1 PUSH2 0x2BC SWAP3 SWAP2 SWAP1 PUSH2 0x65B JUMP JUMPDEST POP PUSH1 0x20 DUP3 ADD MLOAD DUP2 PUSH1 0x1 ADD PUSH1 0x0 PUSH2 0x100 EXP DUP2 SLOAD DUP2 PUSH20 0xFFFFFFFFFFFFFFFFFFFFFFFFFFFFFFFFFFFFFFFF MUL NOT AND SWAP1 DUP4 PUSH20 0xFFFFFFFFFFFFFFFFFFFFFFFFFFFFFFFFFFFFFFFF AND MUL OR SWAP1 SSTORE POP SWAP1 POP POP PUSH1 0x1 PUSH1 0x0 DUP2 SLOAD DUP1 SWAP3 SWAP2 SWAP1 PUSH2 0x31A SWAP1 PUSH2 0xC39 JUMP JUMPDEST SWAP2 SWAP1 POP SSTORE POP POP JUMP JUMPDEST PUSH1 0x2 PUSH1 0x0 SWAP1 SLOAD SWAP1 PUSH2 0x100 EXP SWAP1 DIV PUSH20 0xFFFFFFFFFFFFFFFFFFFFFFFFFFFFFFFFFFFFFFFF AND PUSH20 0xFFFFFFFFFFFFFFFFFFFFFFFFFFFFFFFFFFFFFFFF AND CALLER PUSH20 0xFFFFFFFFFFFFFFFFFFFFFFFFFFFFFFFFFFFFFFFF AND EQ PUSH2 0x3B2 JUMPI PUSH1 0x40 MLOAD PUSH32 0x8C379A000000000000000000000000000000000000000000000000000000000 DUP2 MSTORE PUSH1 0x4 ADD PUSH2 0x3A9 SWAP1 PUSH2 0xA61 JUMP JUMPDEST PUSH1 0x40 MLOAD DUP1 SWAP2 SUB SWAP1 REVERT JUMPDEST JUMP JUMPDEST PUSH1 0x0 PUSH1 0x20 MSTORE DUP1 PUSH1 0x0 MSTORE PUSH1 0x40 PUSH1 0x0 KECCAK256 PUSH1 0x0 SWAP2 POP SWAP1 POP DUP1 PUSH1 0x0 ADD DUP1 SLOAD PUSH2 0x3D7 SWAP1 PUSH2 0xBD6 JUMP JUMPDEST DUP1 PUSH1 0x1F ADD PUSH1 0x20 DUP1 SWAP2 DIV MUL PUSH1 0x20 ADD PUSH1 0x40 MLOAD SWAP1 DUP2 ADD PUSH1 0x40 MSTORE DUP1 SWAP3 SWAP2 SWAP1 DUP2 DUP2 MSTORE PUSH1 0x20 ADD DUP3 DUP1 SLOAD PUSH2 0x403 SWAP1 PUSH2 0xBD6 JUMP JUMPDEST DUP1 ISZERO PUSH2 0x450 JUMPI DUP1 PUSH1 0x1F LT PUSH2 0x425 JUMPI PUSH2 0x100 DUP1 DUP4 SLOAD DIV MUL DUP4 MSTORE SWAP2 PUSH1 0x20 ADD SWAP2 PUSH2 0x450 JUMP JUMPDEST DUP3 ADD SWAP2 SWAP1 PUSH1 0x0 MSTORE PUSH1 0x20 PUSH1 0x0 KECCAK256 SWAP1 JUMPDEST DUP2 SLOAD DUP2 MSTORE SWAP1 PUSH1 0x1 ADD SWAP1 PUSH1 0x20 ADD DUP1 DUP4 GT PUSH2 0x433 JUMPI DUP3 SWAP1 SUB PUSH1 0x1F AND DUP3 ADD SWAP2 JUMPDEST POP POP POP POP POP SWAP1 DUP1 PUSH1 0x1 ADD PUSH1 0x0 SWAP1 SLOAD SWAP1 PUSH2 0x100 EXP SWAP1 DIV PUSH20 0xFFFFFFFFFFFFFFFFFFFFFFFFFFFFFFFFFFFFFFFF AND SWAP1 POP DUP3 JUMP JUMPDEST PUSH1 0x0 SELFBALANCE SWAP1 POP SWAP1 JUMP JUMPDEST PUSH1 0x60 PUSH1 0x0 PUSH1 0x1 SLOAD PUSH8 0xFFFFFFFFFFFFFFFF DUP2 GT ISZERO PUSH2 0x4A8 JUMPI PUSH2 0x4A7 PUSH2 0xD0F JUMP JUMPDEST JUMPDEST PUSH1 0x40 MLOAD SWAP1 DUP1 DUP3 MSTORE DUP1 PUSH1 0x20 MUL PUSH1 0x20 ADD DUP3 ADD PUSH1 0x40 MSTORE DUP1 ISZERO PUSH2 0x4E1 JUMPI DUP2 PUSH1 0x20 ADD JUMPDEST PUSH2 0x4CE PUSH2 0x6E1 JUMP JUMPDEST DUP2 MSTORE PUSH1 0x20 ADD SWAP1 PUSH1 0x1 SWAP1 SUB SWAP1 DUP2 PUSH2 0x4C6 JUMPI SWAP1 POP JUMPDEST POP SWAP1 POP PUSH1 0x0 JUMPDEST PUSH1 0x1 SLOAD DUP2 LT ISZERO PUSH2 0x627 JUMPI PUSH1 0x0 DUP1 DUP3 DUP2 MSTORE PUSH1 0x20 ADD SWAP1 DUP2 MSTORE PUSH1 0x20 ADD PUSH1 0x0 KECCAK256 PUSH1 0x40 MLOAD DUP1 PUSH1 0x40 ADD PUSH1 0x40 MSTORE SWAP1 DUP2 PUSH1 0x0 DUP3 ADD DUP1 SLOAD PUSH2 0x51E SWAP1 PUSH2 0xBD6 JUMP JUMPDEST DUP1 PUSH1 0x1F ADD PUSH1 0x20 DUP1 SWAP2 DIV MUL PUSH1 0x20 ADD PUSH1 0x40 MLOAD SWAP1 DUP2 ADD PUSH1 0x40 MSTORE DUP1 SWAP3 SWAP2 SWAP1 DUP2 DUP2 MSTORE PUSH1 0x20 ADD DUP3 DUP1 SLOAD PUSH2 0x54A SWAP1 PUSH2 0xBD6 JUMP JUMPDEST DUP1 ISZERO PUSH2 0x597 JUMPI DUP1 PUSH1 0x1F LT PUSH2 0x56C JUMPI PUSH2 0x100 DUP1 DUP4 SLOAD DIV MUL DUP4 MSTORE SWAP2 PUSH1 0x20 ADD SWAP2 PUSH2 0x597 JUMP JUMPDEST DUP3 ADD SWAP2 SWAP1 PUSH1 0x0 MSTORE PUSH1 0x20 PUSH1 0x0 KECCAK256 SWAP1 JUMPDEST DUP2 SLOAD DUP2 MSTORE SWAP1 PUSH1 0x1 ADD SWAP1 PUSH1 0x20 ADD DUP1 DUP4 GT PUSH2 0x57A JUMPI DUP3 SWAP1 SUB PUSH1 0x1F AND DUP3 ADD SWAP2 JUMPDEST POP POP POP POP POP DUP2 MSTORE PUSH1 0x20 ADD PUSH1 0x1 DUP3 ADD PUSH1 0x0 SWAP1 SLOAD SWAP1 PUSH2 0x100 EXP SWAP1 DIV PUSH20 0xFFFFFFFFFFFFFFFFFFFFFFFFFFFFFFFFFFFFFFFF AND PUSH20 0xFFFFFFFFFFFFFFFFFFFFFFFFFFFFFFFFFFFFFFFF AND PUSH20 0xFFFFFFFFFFFFFFFFFFFFFFFFFFFFFFFFFFFFFFFF AND DUP2 MSTORE POP POP DUP3 DUP3 DUP2 MLOAD DUP2 LT PUSH2 0x609 JUMPI PUSH2 0x608 PUSH2 0xCE0 JUMP JUMPDEST JUMPDEST PUSH1 0x20 MUL PUSH1 0x20 ADD ADD DUP2 SWAP1 MSTORE POP DUP1 DUP1 PUSH2 0x61F SWAP1 PUSH2 0xC39 JUMP JUMPDEST SWAP2 POP POP PUSH2 0x4E7 JUMP JUMPDEST POP DUP1 SWAP2 POP POP SWAP1 JUMP JUMPDEST PUSH1 0x2 PUSH1 0x0 SWAP1 SLOAD SWAP1 PUSH2 0x100 EXP SWAP1 DIV PUSH20 0xFFFFFFFFFFFFFFFFFFFFFFFFFFFFFFFFFFFFFFFF AND DUP2 JUMP JUMPDEST PUSH1 0x1 SLOAD DUP2 JUMP JUMPDEST DUP3 DUP1 SLOAD PUSH2 0x667 SWAP1 PUSH2 0xBD6 JUMP JUMPDEST SWAP1 PUSH1 0x0 MSTORE PUSH1 0x20 PUSH1 0x0 KECCAK256 SWAP1 PUSH1 0x1F ADD PUSH1 0x20 SWAP1 DIV DUP2 ADD SWAP3 DUP3 PUSH2 0x689 JUMPI PUSH1 0x0 DUP6 SSTORE PUSH2 0x6D0 JUMP JUMPDEST DUP3 PUSH1 0x1F LT PUSH2 0x6A2 JUMPI DUP1 MLOAD PUSH1 0xFF NOT AND DUP4 DUP1 ADD OR DUP6 SSTORE PUSH2 0x6D0 JUMP JUMPDEST DUP3 DUP1 ADD PUSH1 0x1 ADD DUP6 SSTORE DUP3 ISZERO PUSH2 0x6D0 JUMPI SWAP2 DUP3 ADD JUMPDEST DUP3 DUP2 GT ISZERO PUSH2 0x6CF JUMPI DUP3 MLOAD DUP3 SSTORE SWAP2 PUSH1 0x20 ADD SWAP2 SWAP1 PUSH1 0x1 ADD SWAP1 PUSH2 0x6B4 JUMP JUMPDEST JUMPDEST POP SWAP1 POP PUSH2 0x6DD SWAP2 SWAP1 PUSH2 0x711 JUMP JUMPDEST POP SWAP1 JUMP JUMPDEST PUSH1 0x40 MLOAD DUP1 PUSH1 0x40 ADD PUSH1 0x40 MSTORE DUP1 PUSH1 0x60 DUP2 MSTORE PUSH1 0x20 ADD PUSH1 0x0 PUSH20 0xFFFFFFFFFFFFFFFFFFFFFFFFFFFFFFFFFFFFFFFF AND DUP2 MSTORE POP SWAP1 JUMP JUMPDEST JUMPDEST DUP1 DUP3 GT ISZERO PUSH2 0x72A JUMPI PUSH1 0x0 DUP2 PUSH1 0x0 SWAP1 SSTORE POP PUSH1 0x1 ADD PUSH2 0x712 JUMP JUMPDEST POP SWAP1 JUMP JUMPDEST PUSH1 0x0 PUSH2 0x741 PUSH2 0x73C DUP5 PUSH2 0xAC1 JUMP JUMPDEST PUSH2 0xA9C JUMP JUMPDEST SWAP1 POP DUP3 DUP2 MSTORE PUSH1 0x20 DUP2 ADD DUP5 DUP5 DUP5 ADD GT ISZERO PUSH2 0x75D JUMPI PUSH2 0x75C PUSH2 0xD43 JUMP JUMPDEST JUMPDEST PUSH2 0x768 DUP5 DUP3 DUP6 PUSH2 0xB94 JUMP JUMPDEST POP SWAP4 SWAP3 POP POP POP JUMP JUMPDEST PUSH1 0x0 DUP3 PUSH1 0x1F DUP4 ADD SLT PUSH2 0x785 JUMPI PUSH2 0x784 PUSH2 0xD3E JUMP JUMPDEST JUMPDEST DUP2 CALLDATALOAD PUSH2 0x795 DUP5 DUP3 PUSH1 0x20 DUP7 ADD PUSH2 0x72E JUMP JUMPDEST SWAP2 POP POP SWAP3 SWAP2 POP POP JUMP JUMPDEST PUSH1 0x0 DUP2 CALLDATALOAD SWAP1 POP PUSH2 0x7AD DUP2 PUSH2 0xDB5 JUMP JUMPDEST SWAP3 SWAP2 POP POP JUMP JUMPDEST PUSH1 0x0 PUSH1 0x20 DUP3 DUP5 SUB SLT ISZERO PUSH2 0x7C9 JUMPI PUSH2 0x7C8 PUSH2 0xD4D JUMP JUMPDEST JUMPDEST PUSH1 0x0 DUP3 ADD CALLDATALOAD PUSH8 0xFFFFFFFFFFFFFFFF DUP2 GT ISZERO PUSH2 0x7E7 JUMPI PUSH2 0x7E6 PUSH2 0xD48 JUMP JUMPDEST JUMPDEST PUSH2 0x7F3 DUP5 DUP3 DUP6 ADD PUSH2 0x770 JUMP JUMPDEST SWAP2 POP POP SWAP3 SWAP2 POP POP JUMP JUMPDEST PUSH1 0x0 PUSH1 0x20 DUP3 DUP5 SUB SLT ISZERO PUSH2 0x812 JUMPI PUSH2 0x811 PUSH2 0xD4D JUMP JUMPDEST JUMPDEST PUSH1 0x0 PUSH2 0x820 DUP5 DUP3 DUP6 ADD PUSH2 0x79E JUMP JUMPDEST SWAP2 POP POP SWAP3 SWAP2 POP POP JUMP JUMPDEST PUSH1 0x0 PUSH2 0x835 DUP4 DUP4 PUSH2 0x988 JUMP JUMPDEST SWAP1 POP SWAP3 SWAP2 POP POP JUMP JUMPDEST PUSH2 0x846 DUP2 PUSH2 0xB58 JUMP JUMPDEST DUP3 MSTORE POP POP JUMP JUMPDEST PUSH2 0x855 DUP2 PUSH2 0xB58 JUMP JUMPDEST DUP3 MSTORE POP POP JUMP JUMPDEST PUSH1 0x0 PUSH2 0x866 DUP3 PUSH2 0xB02 JUMP JUMPDEST PUSH2 0x870 DUP2 DUP6 PUSH2 0xB25 JUMP JUMPDEST SWAP4 POP DUP4 PUSH1 0x20 DUP3 MUL DUP6 ADD PUSH2 0x882 DUP6 PUSH2 0xAF2 JUMP JUMPDEST DUP1 PUSH1 0x0 JUMPDEST DUP6 DUP2 LT ISZERO PUSH2 0x8BE JUMPI DUP5 DUP5 SUB DUP10 MSTORE DUP2 MLOAD PUSH2 0x89F DUP6 DUP3 PUSH2 0x829 JUMP JUMPDEST SWAP5 POP PUSH2 0x8AA DUP4 PUSH2 0xB18 JUMP JUMPDEST SWAP3 POP PUSH1 0x20 DUP11 ADD SWAP10 POP POP PUSH1 0x1 DUP2 ADD SWAP1 POP PUSH2 0x886 JUMP JUMPDEST POP DUP3 SWAP8 POP DUP8 SWAP6 POP POP POP POP POP POP SWAP3 SWAP2 POP POP JUMP JUMPDEST PUSH1 0x0 PUSH2 0x8DB DUP3 PUSH2 0xB0D JUMP JUMPDEST PUSH2 0x8E5 DUP2 DUP6 PUSH2 0xB36 JUMP JUMPDEST SWAP4 POP PUSH2 0x8F5 DUP2 DUP6 PUSH1 0x20 DUP7 ADD PUSH2 0xBA3 JUMP JUMPDEST PUSH2 0x8FE DUP2 PUSH2 0xD52 JUMP JUMPDEST DUP5 ADD SWAP2 POP POP SWAP3 SWAP2 POP POP JUMP JUMPDEST PUSH1 0x0 PUSH2 0x914 DUP3 PUSH2 0xB0D JUMP JUMPDEST PUSH2 0x91E DUP2 DUP6 PUSH2 0xB47 JUMP JUMPDEST SWAP4 POP PUSH2 0x92E DUP2 DUP6 PUSH1 0x20 DUP7 ADD PUSH2 0xBA3 JUMP JUMPDEST PUSH2 0x937 DUP2 PUSH2 0xD52 JUMP JUMPDEST DUP5 ADD SWAP2 POP POP SWAP3 SWAP2 POP POP JUMP JUMPDEST PUSH1 0x0 PUSH2 0x94F PUSH1 0x26 DUP4 PUSH2 0xB47 JUMP JUMPDEST SWAP2 POP PUSH2 0x95A DUP3 PUSH2 0xD63 JUMP JUMPDEST PUSH1 0x40 DUP3 ADD SWAP1 POP SWAP2 SWAP1 POP JUMP JUMPDEST PUSH1 0x0 PUSH2 0x972 PUSH1 0x0 DUP4 PUSH2 0xB47 JUMP JUMPDEST SWAP2 POP PUSH2 0x97D DUP3 PUSH2 0xDB2 JUMP JUMPDEST PUSH1 0x0 DUP3 ADD SWAP1 POP SWAP2 SWAP1 POP JUMP JUMPDEST PUSH1 0x0 PUSH1 0x40 DUP4 ADD PUSH1 0x0 DUP4 ADD MLOAD DUP5 DUP3 SUB PUSH1 0x0 DUP7 ADD MSTORE PUSH2 0x9A5 DUP3 DUP3 PUSH2 0x8D0 JUMP JUMPDEST SWAP2 POP POP PUSH1 0x20 DUP4 ADD MLOAD PUSH2 0x9BA PUSH1 0x20 DUP7 ADD DUP3 PUSH2 0x83D JUMP JUMPDEST POP DUP1 SWAP2 POP POP SWAP3 SWAP2 POP POP JUMP JUMPDEST PUSH2 0x9CE DUP2 PUSH2 0xB8A JUMP JUMPDEST DUP3 MSTORE POP POP JUMP JUMPDEST PUSH1 0x0 PUSH1 0x20 DUP3 ADD SWAP1 POP PUSH2 0x9E9 PUSH1 0x0 DUP4 ADD DUP5 PUSH2 0x84C JUMP JUMPDEST SWAP3 SWAP2 POP POP JUMP JUMPDEST PUSH1 0x0 PUSH1 0x20 DUP3 ADD SWAP1 POP DUP2 DUP2 SUB PUSH1 0x0 DUP4 ADD MSTORE PUSH2 0xA09 DUP2 DUP5 PUSH2 0x85B JUMP JUMPDEST SWAP1 POP SWAP3 SWAP2 POP POP JUMP JUMPDEST PUSH1 0x0 PUSH1 0x40 DUP3 ADD SWAP1 POP DUP2 DUP2 SUB PUSH1 0x0 DUP4 ADD MSTORE PUSH2 0xA2B DUP2 DUP6 PUSH2 0x909 JUMP JUMPDEST SWAP1 POP PUSH2 0xA3A PUSH1 0x20 DUP4 ADD DUP5 PUSH2 0x84C JUMP JUMPDEST SWAP4 SWAP3 POP POP POP JUMP JUMPDEST PUSH1 0x0 PUSH1 0x20 DUP3 ADD SWAP1 POP DUP2 DUP2 SUB PUSH1 0x0 DUP4 ADD MSTORE PUSH2 0xA5A DUP2 PUSH2 0x942 JUMP JUMPDEST SWAP1 POP SWAP2 SWAP1 POP JUMP JUMPDEST PUSH1 0x0 PUSH1 0x20 DUP3 ADD SWAP1 POP DUP2 DUP2 SUB PUSH1 0x0 DUP4 ADD MSTORE PUSH2 0xA7A DUP2 PUSH2 0x965 JUMP JUMPDEST SWAP1 POP SWAP2 SWAP1 POP JUMP JUMPDEST PUSH1 0x0 PUSH1 0x20 DUP3 ADD SWAP1 POP PUSH2 0xA96 PUSH1 0x0 DUP4 ADD DUP5 PUSH2 0x9C5 JUMP JUMPDEST SWAP3 SWAP2 POP POP JUMP JUMPDEST PUSH1 0x0 PUSH2 0xAA6 PUSH2 0xAB7 JUMP JUMPDEST SWAP1 POP PUSH2 0xAB2 DUP3 DUP3 PUSH2 0xC08 JUMP JUMPDEST SWAP2 SWAP1 POP JUMP JUMPDEST PUSH1 0x0 PUSH1 0x40 MLOAD SWAP1 POP SWAP1 JUMP JUMPDEST PUSH1 0x0 PUSH8 0xFFFFFFFFFFFFFFFF DUP3 GT ISZERO PUSH2 0xADC JUMPI PUSH2 0xADB PUSH2 0xD0F JUMP JUMPDEST JUMPDEST PUSH2 0xAE5 DUP3 PUSH2 0xD52 JUMP JUMPDEST SWAP1 POP PUSH1 0x20 DUP2 ADD SWAP1 POP SWAP2 SWAP1 POP JUMP JUMPDEST PUSH1 0x0 DUP2 SWAP1 POP PUSH1 0x20 DUP3 ADD SWAP1 POP SWAP2 SWAP1 POP JUMP JUMPDEST PUSH1 0x0 DUP2 MLOAD SWAP1 POP SWAP2 SWAP1 POP JUMP JUMPDEST PUSH1 0x0 DUP2 MLOAD SWAP1 POP SWAP2 SWAP1 POP JUMP JUMPDEST PUSH1 0x0 PUSH1 0x20 DUP3 ADD SWAP1 POP SWAP2 SWAP1 POP JUMP JUMPDEST PUSH1 0x0 DUP3 DUP3 MSTORE PUSH1 0x20 DUP3 ADD SWAP1 POP SWAP3 SWAP2 POP POP JUMP JUMPDEST PUSH1 0x0 DUP3 DUP3 MSTORE PUSH1 0x20 DUP3 ADD SWAP1 POP SWAP3 SWAP2 POP POP JUMP JUMPDEST PUSH1 0x0 DUP3 DUP3 MSTORE PUSH1 0x20 DUP3 ADD SWAP1 POP SWAP3 SWAP2 POP POP JUMP JUMPDEST PUSH1 0x0 PUSH2 0xB63 DUP3 PUSH2 0xB6A JUMP JUMPDEST SWAP1 POP SWAP2 SWAP1 POP JUMP JUMPDEST PUSH1 0x0 PUSH20 0xFFFFFFFFFFFFFFFFFFFFFFFFFFFFFFFFFFFFFFFF DUP3 AND SWAP1 POP SWAP2 SWAP1 POP JUMP JUMPDEST PUSH1 0x0 DUP2 SWAP1 POP SWAP2 SWAP1 POP JUMP JUMPDEST DUP3 DUP2 DUP4 CALLDATACOPY PUSH1 0x0 DUP4 DUP4 ADD MSTORE POP POP POP JUMP JUMPDEST PUSH1 0x0 JUMPDEST DUP4 DUP2 LT ISZERO PUSH2 0xBC1 JUMPI DUP1 DUP3 ADD MLOAD DUP2 DUP5 ADD MSTORE PUSH1 0x20 DUP2 ADD SWAP1 POP PUSH2 0xBA6 JUMP JUMPDEST DUP4 DUP2 GT ISZERO PUSH2 0xBD0 JUMPI PUSH1 0x0 DUP5 DUP5 ADD MSTORE JUMPDEST POP POP POP POP JUMP JUMPDEST PUSH1 0x0 PUSH1 0x2 DUP3 DIV SWAP1 POP PUSH1 0x1 DUP3 AND DUP1 PUSH2 0xBEE JUMPI PUSH1 0x7F DUP3 AND SWAP2 POP JUMPDEST PUSH1 0x20 DUP3 LT DUP2 EQ ISZERO PUSH2 0xC02 JUMPI PUSH2 0xC01 PUSH2 0xCB1 JUMP JUMPDEST JUMPDEST POP SWAP2 SWAP1 POP JUMP JUMPDEST PUSH2 0xC11 DUP3 PUSH2 0xD52 JUMP JUMPDEST DUP2 ADD DUP2 DUP2 LT PUSH8 0xFFFFFFFFFFFFFFFF DUP3 GT OR ISZERO PUSH2 0xC30 JUMPI PUSH2 0xC2F PUSH2 0xD0F JUMP JUMPDEST JUMPDEST DUP1 PUSH1 0x40 MSTORE POP POP POP JUMP JUMPDEST PUSH1 0x0 PUSH2 0xC44 DUP3 PUSH2 0xB8A JUMP JUMPDEST SWAP2 POP PUSH32 0xFFFFFFFFFFFFFFFFFFFFFFFFFFFFFFFFFFFFFFFFFFFFFFFFFFFFFFFFFFFFFFFF DUP3 EQ ISZERO PUSH2 0xC77 JUMPI PUSH2 0xC76 PUSH2 0xC82 JUMP JUMPDEST JUMPDEST PUSH1 0x1 DUP3 ADD SWAP1 POP SWAP2 SWAP1 POP JUMP JUMPDEST PUSH32 0x4E487B7100000000000000000000000000000000000000000000000000000000 PUSH1 0x0 MSTORE PUSH1 0x11 PUSH1 0x4 MSTORE PUSH1 0x24 PUSH1 0x0 REVERT JUMPDEST PUSH32 0x4E487B7100000000000000000000000000000000000000000000000000000000 PUSH1 0x0 MSTORE PUSH1 0x22 PUSH1 0x4 MSTORE PUSH1 0x24 PUSH1 0x0 REVERT JUMPDEST PUSH32 0x4E487B7100000000000000000000000000000000000000000000000000000000 PUSH1 0x0 MSTORE PUSH1 0x32 PUSH1 0x4 MSTORE PUSH1 0x24 PUSH1 0x0 REVERT JUMPDEST PUSH32 0x4E487B7100000000000000000000000000000000000000000000000000000000 PUSH1 0x0 MSTORE PUSH1 0x41 PUSH1 0x4 MSTORE PUSH1 0x24 PUSH1 0x0 REVERT JUMPDEST PUSH1 0x0 DUP1 REVERT JUMPDEST PUSH1 0x0 DUP1 REVERT JUMPDEST PUSH1 0x0 DUP1 REVERT JUMPDEST PUSH1 0x0 DUP1 REVERT JUMPDEST PUSH1 0x0 PUSH1 0x1F NOT PUSH1 0x1F DUP4 ADD AND SWAP1 POP SWAP2 SWAP1 POP JUMP JUMPDEST PUSH32 0x5061796D656E742073686F756C64206265207468652073756273637269707469 PUSH1 0x0 DUP3 ADD MSTORE PUSH32 0x6F6E206665650000000000000000000000000000000000000000000000000000 PUSH1 0x20 DUP3 ADD MSTORE POP JUMP JUMPDEST POP JUMP JUMPDEST PUSH2 0xDBE DUP2 PUSH2 0xB8A JUMP JUMPDEST DUP2 EQ PUSH2 0xDC9 JUMPI PUSH1 0x0 DUP1 REVERT JUMPDEST POP JUMP INVALID LOG2 PUSH5 0x6970667358 0x22 SLT KECCAK256 SELFDESTRUCT SMOD SWAP2 LOG0 0xD8 EQ SWAP10 0xC0 0xF6 0xD0 SWAP7 0xB6 0xB2 0xBF PUSH21 0x965A8C5CD74CF71A757D89C650ED19694564736F6C PUSH4 0x43000807 STOP CALLER "
				},
				"gasEstimates": {
					"creation": {
						"codeDepositCost": "717200",
						"executionCost": "infinite",
						"totalCost": "infinite"
					},
					"external": {
						"": "2612",
						"addSubscriber(string)": "infinite",
						"author()": "2580",
						"getContractBalance()": "361",
						"getSubscriberCount()": "2460",
						"printSubscribersList()": "infinite",
						"subscriberCount()": "2517",
						"subscribers(uint256)": "infinite",
						"subscriptionFee()": "2430",
						"withdraw()": "2652"
					}
				},
				"methodIdentifiers": {
					"addSubscriber(string)": "2edd4fa5",
					"author()": "a6c3e6b9",
					"getContractBalance()": "6f9fb98a",
					"getSubscriberCount()": "17e703ab",
					"printSubscribersList()": "82d69b62",
					"subscriberCount()": "ef352bbe",
					"subscribers(uint256)": "59221a68",
					"subscriptionFee()": "0aa0a175",
					"withdraw()": "3ccfd60b"
				}
			},
			"storageLayout": {
				"storage": [
					{
						"astId": 6,
						"contract": "contracts/myContract.sol:testContract",
						"label": "subscribers",
						"offset": 0,
						"slot": "0",
						"type": "t_mapping(t_uint256,t_struct(subscriber)14_storage)"
					},
					{
						"astId": 9,
						"contract": "contracts/myContract.sol:testContract",
						"label": "subscriberCount",
						"offset": 0,
						"slot": "1",
						"type": "t_uint256"
					},
					{
						"astId": 16,
						"contract": "contracts/myContract.sol:testContract",
						"label": "author",
						"offset": 0,
						"slot": "2",
						"type": "t_address"
					},
					{
						"astId": 18,
						"contract": "contracts/myContract.sol:testContract",
						"label": "subscriptionFee",
						"offset": 0,
						"slot": "3",
						"type": "t_uint256"
					}
				],
				"types": {
					"t_address": {
						"encoding": "inplace",
						"label": "address",
						"numberOfBytes": "20"
					},
					"t_mapping(t_uint256,t_struct(subscriber)14_storage)": {
						"encoding": "mapping",
						"key": "t_uint256",
						"label": "mapping(uint256 => struct testContract.subscriber)",
						"numberOfBytes": "32",
						"value": "t_struct(subscriber)14_storage"
					},
					"t_string_storage": {
						"encoding": "bytes",
						"label": "string",
						"numberOfBytes": "32"
					},
					"t_struct(subscriber)14_storage": {
						"encoding": "inplace",
						"label": "struct testContract.subscriber",
						"members": [
							{
								"astId": 11,
								"contract": "contracts/myContract.sol:testContract",
								"label": "name",
								"offset": 0,
								"slot": "0",
								"type": "t_string_storage"
							},
							{
								"astId": 13,
								"contract": "contracts/myContract.sol:testContract",
								"label": "addr",
								"offset": 0,
								"slot": "1",
								"type": "t_address"
							}
						],
						"numberOfBytes": "64"
					},
					"t_uint256": {
						"encoding": "inplace",
						"label": "uint256",
						"numberOfBytes": "32"
					}
				}
			},
			"userdoc": {
				"kind": "user",
				"methods": {},
				"version": 1
			}
		}
	}
}