{
	"contracts/myContract.sol": {
		"testContract": {
			"abi": [
				{
					"inputs": [
						{
							"internalType": "string",
							"name": "user",
							"type": "string"
						}
					],
					"name": "addSubscriber",
					"outputs": [],
					"stateMutability": "nonpayable",
					"type": "function"
				},
				{
					"inputs": [],
					"name": "author",
					"outputs": [
						{
							"internalType": "string",
							"name": "",
							"type": "string"
						}
					],
					"stateMutability": "view",
					"type": "function"
				},
				{
					"inputs": [],
					"name": "getSubscriberCount",
					"outputs": [
						{
							"internalType": "uint256",
							"name": "",
							"type": "uint256"
						}
					],
					"stateMutability": "view",
					"type": "function"
				},
				{
					"inputs": [],
					"name": "printSubscribersList",
					"outputs": [
						{
							"internalType": "string[]",
							"name": "",
							"type": "string[]"
						}
					],
					"stateMutability": "view",
					"type": "function"
				},
				{
					"inputs": [
						{
							"internalType": "uint256",
							"name": "",
							"type": "uint256"
						}
					],
					"name": "subscribers",
					"outputs": [
						{
							"internalType": "string",
							"name": "",
							"type": "string"
						}
					],
					"stateMutability": "view",
					"type": "function"
				}
			],
			"devdoc": {
				"kind": "dev",
				"methods": {},
				"version": 1
			},
			"evm": {
				"assembly": "    /* \"contracts/myContract.sol\":76:511  contract testContract {\r... */\n  mstore(0x40, 0x80)\n  callvalue\n  dup1\n  iszero\n  tag_1\n  jumpi\n  0x00\n  dup1\n  revert\ntag_1:\n  pop\n  dataSize(sub_0)\n  dup1\n  dataOffset(sub_0)\n  0x00\n  codecopy\n  0x00\n  return\nstop\n\nsub_0: assembly {\n        /* \"contracts/myContract.sol\":76:511  contract testContract {\r... */\n      mstore(0x40, 0x80)\n      callvalue\n      dup1\n      iszero\n      tag_1\n      jumpi\n      0x00\n      dup1\n      revert\n    tag_1:\n      pop\n      jumpi(tag_2, lt(calldatasize, 0x04))\n      shr(0xe0, calldataload(0x00))\n      dup1\n      0x17e703ab\n      eq\n      tag_3\n      jumpi\n      dup1\n      0x2edd4fa5\n      eq\n      tag_4\n      jumpi\n      dup1\n      0x59221a68\n      eq\n      tag_5\n      jumpi\n      dup1\n      0x82d69b62\n      eq\n      tag_6\n      jumpi\n      dup1\n      0xa6c3e6b9\n      eq\n      tag_7\n      jumpi\n    tag_2:\n      0x00\n      dup1\n      revert\n        /* \"contracts/myContract.sol\":290:393  function getSubscriberCount() public view returns(uint256) {\r... */\n    tag_3:\n      tag_8\n      tag_9\n      jump\t// in\n    tag_8:\n      mload(0x40)\n      tag_10\n      swap2\n      swap1\n      tag_11\n      jump\t// in\n    tag_10:\n      mload(0x40)\n      dup1\n      swap2\n      sub\n      swap1\n      return\n        /* \"contracts/myContract.sol\":190:281  function addSubscriber(string memory user) public {\r... */\n    tag_4:\n      tag_12\n      0x04\n      dup1\n      calldatasize\n      sub\n      dup2\n      add\n      swap1\n      tag_13\n      swap2\n      swap1\n      tag_14\n      jump\t// in\n    tag_13:\n      tag_15\n      jump\t// in\n    tag_12:\n      stop\n        /* \"contracts/myContract.sol\":119:146  string[] public subscribers */\n    tag_5:\n      tag_16\n      0x04\n      dup1\n      calldatasize\n      sub\n      dup2\n      add\n      swap1\n      tag_17\n      swap2\n      swap1\n      tag_18\n      jump\t// in\n    tag_17:\n      tag_19\n      jump\t// in\n    tag_16:\n      mload(0x40)\n      tag_20\n      swap2\n      swap1\n      tag_21\n      jump\t// in\n    tag_20:\n      mload(0x40)\n      dup1\n      swap2\n      sub\n      swap1\n      return\n        /* \"contracts/myContract.sol\":401:506  function printSubscribersList() public view returns(string[] memory){\r... */\n    tag_6:\n      tag_22\n      tag_23\n      jump\t// in\n    tag_22:\n      mload(0x40)\n      tag_24\n      swap2\n      swap1\n      tag_25\n      jump\t// in\n    tag_24:\n      mload(0x40)\n      dup1\n      swap2\n      sub\n      swap1\n      return\n        /* \"contracts/myContract.sol\":155:175  string public author */\n    tag_7:\n      tag_26\n      tag_27\n      jump\t// in\n    tag_26:\n      mload(0x40)\n      tag_28\n      swap2\n      swap1\n      tag_21\n      jump\t// in\n    tag_28:\n      mload(0x40)\n      dup1\n      swap2\n      sub\n      swap1\n      return\n        /* \"contracts/myContract.sol\":290:393  function getSubscriberCount() public view returns(uint256) {\r... */\n    tag_9:\n        /* \"contracts/myContract.sol\":340:347  uint256 */\n      0x00\n        /* \"contracts/myContract.sol\":367:378  subscribers */\n      dup1\n        /* \"contracts/myContract.sol\":367:385  subscribers.length */\n      dup1\n      sload\n      swap1\n      pop\n        /* \"contracts/myContract.sol\":360:385  return subscribers.length */\n      swap1\n      pop\n        /* \"contracts/myContract.sol\":290:393  function getSubscriberCount() public view returns(uint256) {\r... */\n      swap1\n      jump\t// out\n        /* \"contracts/myContract.sol\":190:281  function addSubscriber(string memory user) public {\r... */\n    tag_15:\n        /* \"contracts/myContract.sol\":251:262  subscribers */\n      0x00\n        /* \"contracts/myContract.sol\":268:272  user */\n      dup2\n        /* \"contracts/myContract.sol\":251:273  subscribers.push(user) */\n      swap1\n      dup1\n      0x01\n      dup2\n      sload\n      add\n      dup1\n      dup3\n      sstore\n      dup1\n      swap2\n      pop\n      pop\n      0x01\n      swap1\n      sub\n      swap1\n      0x00\n      mstore\n      keccak256(0x00, 0x20)\n      add\n      0x00\n      swap1\n      swap2\n      swap1\n      swap2\n      swap1\n      swap2\n      pop\n      swap1\n      dup1\n      mload\n      swap1\n      0x20\n      add\n      swap1\n      tag_32\n      swap3\n      swap2\n      swap1\n      tag_33\n      jump\t// in\n    tag_32:\n      pop\n        /* \"contracts/myContract.sol\":190:281  function addSubscriber(string memory user) public {\r... */\n      pop\n      jump\t// out\n        /* \"contracts/myContract.sol\":119:146  string[] public subscribers */\n    tag_19:\n      0x00\n      dup2\n      dup2\n      sload\n      dup2\n      lt\n      tag_34\n      jumpi\n      0x00\n      dup1\n      revert\n    tag_34:\n      swap1\n      0x00\n      mstore\n      keccak256(0x00, 0x20)\n      add\n      0x00\n      swap2\n      pop\n      swap1\n      pop\n      dup1\n      sload\n      tag_36\n      swap1\n      tag_37\n      jump\t// in\n    tag_36:\n      dup1\n      0x1f\n      add\n      0x20\n      dup1\n      swap2\n      div\n      mul\n      0x20\n      add\n      mload(0x40)\n      swap1\n      dup2\n      add\n      0x40\n      mstore\n      dup1\n      swap3\n      swap2\n      swap1\n      dup2\n      dup2\n      mstore\n      0x20\n      add\n      dup3\n      dup1\n      sload\n      tag_38\n      swap1\n      tag_37\n      jump\t// in\n    tag_38:\n      dup1\n      iszero\n      tag_39\n      jumpi\n      dup1\n      0x1f\n      lt\n      tag_40\n      jumpi\n      0x0100\n      dup1\n      dup4\n      sload\n      div\n      mul\n      dup4\n      mstore\n      swap2\n      0x20\n      add\n      swap2\n      jump(tag_39)\n    tag_40:\n      dup3\n      add\n      swap2\n      swap1\n      0x00\n      mstore\n      keccak256(0x00, 0x20)\n      swap1\n    tag_41:\n      dup2\n      sload\n      dup2\n      mstore\n      swap1\n      0x01\n      add\n      swap1\n      0x20\n      add\n      dup1\n      dup4\n      gt\n      tag_41\n      jumpi\n      dup3\n      swap1\n      sub\n      0x1f\n      and\n      dup3\n      add\n      swap2\n    tag_39:\n      pop\n      pop\n      pop\n      pop\n      pop\n      dup2\n      jump\t// out\n        /* \"contracts/myContract.sol\":401:506  function printSubscribersList() public view returns(string[] memory){\r... */\n    tag_23:\n        /* \"contracts/myContract.sol\":453:468  string[] memory */\n      0x60\n        /* \"contracts/myContract.sol\":487:498  subscribers */\n      0x00\n        /* \"contracts/myContract.sol\":480:498  return subscribers */\n      dup1\n      sload\n      dup1\n      0x20\n      mul\n      0x20\n      add\n      mload(0x40)\n      swap1\n      dup2\n      add\n      0x40\n      mstore\n      dup1\n      swap3\n      swap2\n      swap1\n      dup2\n      dup2\n      mstore\n      0x20\n      add\n      0x00\n      swap1\n    tag_43:\n      dup3\n      dup3\n      lt\n      iszero\n      tag_44\n      jumpi\n      dup4\n      dup3\n      swap1\n      0x00\n      mstore\n      keccak256(0x00, 0x20)\n      add\n      dup1\n      sload\n      tag_46\n      swap1\n      tag_37\n      jump\t// in\n    tag_46:\n      dup1\n      0x1f\n      add\n      0x20\n      dup1\n      swap2\n      div\n      mul\n      0x20\n      add\n      mload(0x40)\n      swap1\n      dup2\n      add\n      0x40\n      mstore\n      dup1\n      swap3\n      swap2\n      swap1\n      dup2\n      dup2\n      mstore\n      0x20\n      add\n      dup3\n      dup1\n      sload\n      tag_47\n      swap1\n      tag_37\n      jump\t// in\n    tag_47:\n      dup1\n      iszero\n      tag_48\n      jumpi\n      dup1\n      0x1f\n      lt\n      tag_49\n      jumpi\n      0x0100\n      dup1\n      dup4\n      sload\n      div\n      mul\n      dup4\n      mstore\n      swap2\n      0x20\n      add\n      swap2\n      jump(tag_48)\n    tag_49:\n      dup3\n      add\n      swap2\n      swap1\n      0x00\n      mstore\n      keccak256(0x00, 0x20)\n      swap1\n    tag_50:\n      dup2\n      sload\n      dup2\n      mstore\n      swap1\n      0x01\n      add\n      swap1\n      0x20\n      add\n      dup1\n      dup4\n      gt\n      tag_50\n      jumpi\n      dup3\n      swap1\n      sub\n      0x1f\n      and\n      dup3\n      add\n      swap2\n    tag_48:\n      pop\n      pop\n      pop\n      pop\n      pop\n      dup2\n      mstore\n      0x20\n      add\n      swap1\n      0x01\n      add\n      swap1\n      jump(tag_43)\n    tag_44:\n      pop\n      pop\n      pop\n      pop\n      swap1\n      pop\n        /* \"contracts/myContract.sol\":401:506  function printSubscribersList() public view returns(string[] memory){\r... */\n      swap1\n      jump\t// out\n        /* \"contracts/myContract.sol\":155:175  string public author */\n    tag_27:\n      0x01\n      dup1\n      sload\n      tag_51\n      swap1\n      tag_37\n      jump\t// in\n    tag_51:\n      dup1\n      0x1f\n      add\n      0x20\n      dup1\n      swap2\n      div\n      mul\n      0x20\n      add\n      mload(0x40)\n      swap1\n      dup2\n      add\n      0x40\n      mstore\n      dup1\n      swap3\n      swap2\n      swap1\n      dup2\n      dup2\n      mstore\n      0x20\n      add\n      dup3\n      dup1\n      sload\n      tag_52\n      swap1\n      tag_37\n      jump\t// in\n    tag_52:\n      dup1\n      iszero\n      tag_53\n      jumpi\n      dup1\n      0x1f\n      lt\n      tag_54\n      jumpi\n      0x0100\n      dup1\n      dup4\n      sload\n      div\n      mul\n      dup4\n      mstore\n      swap2\n      0x20\n      add\n      swap2\n      jump(tag_53)\n    tag_54:\n      dup3\n      add\n      swap2\n      swap1\n      0x00\n      mstore\n      keccak256(0x00, 0x20)\n      swap1\n    tag_55:\n      dup2\n      sload\n      dup2\n      mstore\n      swap1\n      0x01\n      add\n      swap1\n      0x20\n      add\n      dup1\n      dup4\n      gt\n      tag_55\n      jumpi\n      dup3\n      swap1\n      sub\n      0x1f\n      and\n      dup3\n      add\n      swap2\n    tag_53:\n      pop\n      pop\n      pop\n      pop\n      pop\n      dup2\n      jump\t// out\n    tag_33:\n      dup3\n      dup1\n      sload\n      tag_56\n      swap1\n      tag_37\n      jump\t// in\n    tag_56:\n      swap1\n      0x00\n      mstore\n      keccak256(0x00, 0x20)\n      swap1\n      0x1f\n      add\n      0x20\n      swap1\n      div\n      dup2\n      add\n      swap3\n      dup3\n      tag_58\n      jumpi\n      0x00\n      dup6\n      sstore\n      jump(tag_57)\n    tag_58:\n      dup3\n      0x1f\n      lt\n      tag_59\n      jumpi\n      dup1\n      mload\n      not(0xff)\n      and\n      dup4\n      dup1\n      add\n      or\n      dup6\n      sstore\n      jump(tag_57)\n    tag_59:\n      dup3\n      dup1\n      add\n      0x01\n      add\n      dup6\n      sstore\n      dup3\n      iszero\n      tag_57\n      jumpi\n      swap2\n      dup3\n      add\n    tag_60:\n      dup3\n      dup2\n      gt\n      iszero\n      tag_61\n      jumpi\n      dup3\n      mload\n      dup3\n      sstore\n      swap2\n      0x20\n      add\n      swap2\n      swap1\n      0x01\n      add\n      swap1\n      jump(tag_60)\n    tag_61:\n    tag_57:\n      pop\n      swap1\n      pop\n      tag_62\n      swap2\n      swap1\n      tag_63\n      jump\t// in\n    tag_62:\n      pop\n      swap1\n      jump\t// out\n    tag_63:\n    tag_64:\n      dup1\n      dup3\n      gt\n      iszero\n      tag_65\n      jumpi\n      0x00\n      dup2\n      0x00\n      swap1\n      sstore\n      pop\n      0x01\n      add\n      jump(tag_64)\n    tag_65:\n      pop\n      swap1\n      jump\t// out\n        /* \"#utility.yul\":7:419   */\n    tag_67:\n        /* \"#utility.yul\":85:90   */\n      0x00\n        /* \"#utility.yul\":110:176   */\n      tag_69\n        /* \"#utility.yul\":126:175   */\n      tag_70\n        /* \"#utility.yul\":168:174   */\n      dup5\n        /* \"#utility.yul\":126:175   */\n      tag_71\n      jump\t// in\n    tag_70:\n        /* \"#utility.yul\":110:176   */\n      tag_72\n      jump\t// in\n    tag_69:\n        /* \"#utility.yul\":101:176   */\n      swap1\n      pop\n        /* \"#utility.yul\":199:205   */\n      dup3\n        /* \"#utility.yul\":192:197   */\n      dup2\n        /* \"#utility.yul\":185:206   */\n      mstore\n        /* \"#utility.yul\":237:241   */\n      0x20\n        /* \"#utility.yul\":230:235   */\n      dup2\n        /* \"#utility.yul\":226:242   */\n      add\n        /* \"#utility.yul\":275:278   */\n      dup5\n        /* \"#utility.yul\":266:272   */\n      dup5\n        /* \"#utility.yul\":261:264   */\n      dup5\n        /* \"#utility.yul\":257:273   */\n      add\n        /* \"#utility.yul\":254:279   */\n      gt\n        /* \"#utility.yul\":251:363   */\n      iszero\n      tag_73\n      jumpi\n        /* \"#utility.yul\":282:361   */\n      tag_74\n      tag_75\n      jump\t// in\n    tag_74:\n        /* \"#utility.yul\":251:363   */\n    tag_73:\n        /* \"#utility.yul\":372:413   */\n      tag_76\n        /* \"#utility.yul\":406:412   */\n      dup5\n        /* \"#utility.yul\":401:404   */\n      dup3\n        /* \"#utility.yul\":396:399   */\n      dup6\n        /* \"#utility.yul\":372:413   */\n      tag_77\n      jump\t// in\n    tag_76:\n        /* \"#utility.yul\":91:419   */\n      pop\n        /* \"#utility.yul\":7:419   */\n      swap4\n      swap3\n      pop\n      pop\n      pop\n      jump\t// out\n        /* \"#utility.yul\":439:779   */\n    tag_78:\n        /* \"#utility.yul\":495:500   */\n      0x00\n        /* \"#utility.yul\":544:547   */\n      dup3\n        /* \"#utility.yul\":537:541   */\n      0x1f\n        /* \"#utility.yul\":529:535   */\n      dup4\n        /* \"#utility.yul\":525:542   */\n      add\n        /* \"#utility.yul\":521:548   */\n      slt\n        /* \"#utility.yul\":511:633   */\n      tag_80\n      jumpi\n        /* \"#utility.yul\":552:631   */\n      tag_81\n      tag_82\n      jump\t// in\n    tag_81:\n        /* \"#utility.yul\":511:633   */\n    tag_80:\n        /* \"#utility.yul\":669:675   */\n      dup2\n        /* \"#utility.yul\":656:676   */\n      calldataload\n        /* \"#utility.yul\":694:773   */\n      tag_83\n        /* \"#utility.yul\":769:772   */\n      dup5\n        /* \"#utility.yul\":761:767   */\n      dup3\n        /* \"#utility.yul\":754:758   */\n      0x20\n        /* \"#utility.yul\":746:752   */\n      dup7\n        /* \"#utility.yul\":742:759   */\n      add\n        /* \"#utility.yul\":694:773   */\n      tag_67\n      jump\t// in\n    tag_83:\n        /* \"#utility.yul\":685:773   */\n      swap2\n      pop\n        /* \"#utility.yul\":501:779   */\n      pop\n        /* \"#utility.yul\":439:779   */\n      swap3\n      swap2\n      pop\n      pop\n      jump\t// out\n        /* \"#utility.yul\":785:924   */\n    tag_84:\n        /* \"#utility.yul\":831:836   */\n      0x00\n        /* \"#utility.yul\":869:875   */\n      dup2\n        /* \"#utility.yul\":856:876   */\n      calldataload\n        /* \"#utility.yul\":847:876   */\n      swap1\n      pop\n        /* \"#utility.yul\":885:918   */\n      tag_86\n        /* \"#utility.yul\":912:917   */\n      dup2\n        /* \"#utility.yul\":885:918   */\n      tag_87\n      jump\t// in\n    tag_86:\n        /* \"#utility.yul\":785:924   */\n      swap3\n      swap2\n      pop\n      pop\n      jump\t// out\n        /* \"#utility.yul\":930:1439   */\n    tag_14:\n        /* \"#utility.yul\":999:1005   */\n      0x00\n        /* \"#utility.yul\":1048:1050   */\n      0x20\n        /* \"#utility.yul\":1036:1045   */\n      dup3\n        /* \"#utility.yul\":1027:1034   */\n      dup5\n        /* \"#utility.yul\":1023:1046   */\n      sub\n        /* \"#utility.yul\":1019:1051   */\n      slt\n        /* \"#utility.yul\":1016:1135   */\n      iszero\n      tag_89\n      jumpi\n        /* \"#utility.yul\":1054:1133   */\n      tag_90\n      tag_91\n      jump\t// in\n    tag_90:\n        /* \"#utility.yul\":1016:1135   */\n    tag_89:\n        /* \"#utility.yul\":1202:1203   */\n      0x00\n        /* \"#utility.yul\":1191:1200   */\n      dup3\n        /* \"#utility.yul\":1187:1204   */\n      add\n        /* \"#utility.yul\":1174:1205   */\n      calldataload\n        /* \"#utility.yul\":1232:1250   */\n      0xffffffffffffffff\n        /* \"#utility.yul\":1224:1230   */\n      dup2\n        /* \"#utility.yul\":1221:1251   */\n      gt\n        /* \"#utility.yul\":1218:1335   */\n      iszero\n      tag_92\n      jumpi\n        /* \"#utility.yul\":1254:1333   */\n      tag_93\n      tag_94\n      jump\t// in\n    tag_93:\n        /* \"#utility.yul\":1218:1335   */\n    tag_92:\n        /* \"#utility.yul\":1359:1422   */\n      tag_95\n        /* \"#utility.yul\":1414:1421   */\n      dup5\n        /* \"#utility.yul\":1405:1411   */\n      dup3\n        /* \"#utility.yul\":1394:1403   */\n      dup6\n        /* \"#utility.yul\":1390:1412   */\n      add\n        /* \"#utility.yul\":1359:1422   */\n      tag_78\n      jump\t// in\n    tag_95:\n        /* \"#utility.yul\":1349:1422   */\n      swap2\n      pop\n        /* \"#utility.yul\":1145:1432   */\n      pop\n        /* \"#utility.yul\":930:1439   */\n      swap3\n      swap2\n      pop\n      pop\n      jump\t// out\n        /* \"#utility.yul\":1445:1774   */\n    tag_18:\n        /* \"#utility.yul\":1504:1510   */\n      0x00\n        /* \"#utility.yul\":1553:1555   */\n      0x20\n        /* \"#utility.yul\":1541:1550   */\n      dup3\n        /* \"#utility.yul\":1532:1539   */\n      dup5\n        /* \"#utility.yul\":1528:1551   */\n      sub\n        /* \"#utility.yul\":1524:1556   */\n      slt\n        /* \"#utility.yul\":1521:1640   */\n      iszero\n      tag_97\n      jumpi\n        /* \"#utility.yul\":1559:1638   */\n      tag_98\n      tag_91\n      jump\t// in\n    tag_98:\n        /* \"#utility.yul\":1521:1640   */\n    tag_97:\n        /* \"#utility.yul\":1679:1680   */\n      0x00\n        /* \"#utility.yul\":1704:1757   */\n      tag_99\n        /* \"#utility.yul\":1749:1756   */\n      dup5\n        /* \"#utility.yul\":1740:1746   */\n      dup3\n        /* \"#utility.yul\":1729:1738   */\n      dup6\n        /* \"#utility.yul\":1725:1747   */\n      add\n        /* \"#utility.yul\":1704:1757   */\n      tag_84\n      jump\t// in\n    tag_99:\n        /* \"#utility.yul\":1694:1757   */\n      swap2\n      pop\n        /* \"#utility.yul\":1650:1767   */\n      pop\n        /* \"#utility.yul\":1445:1774   */\n      swap3\n      swap2\n      pop\n      pop\n      jump\t// out\n        /* \"#utility.yul\":1780:1976   */\n    tag_100:\n        /* \"#utility.yul\":1869:1879   */\n      0x00\n        /* \"#utility.yul\":1904:1970   */\n      tag_102\n        /* \"#utility.yul\":1966:1969   */\n      dup4\n        /* \"#utility.yul\":1958:1964   */\n      dup4\n        /* \"#utility.yul\":1904:1970   */\n      tag_103\n      jump\t// in\n    tag_102:\n        /* \"#utility.yul\":1890:1970   */\n      swap1\n      pop\n        /* \"#utility.yul\":1780:1976   */\n      swap3\n      swap2\n      pop\n      pop\n      jump\t// out\n        /* \"#utility.yul\":2010:3001   */\n    tag_104:\n        /* \"#utility.yul\":2149:2152   */\n      0x00\n        /* \"#utility.yul\":2178:2242   */\n      tag_106\n        /* \"#utility.yul\":2236:2241   */\n      dup3\n        /* \"#utility.yul\":2178:2242   */\n      tag_107\n      jump\t// in\n    tag_106:\n        /* \"#utility.yul\":2258:2354   */\n      tag_108\n        /* \"#utility.yul\":2347:2353   */\n      dup2\n        /* \"#utility.yul\":2342:2345   */\n      dup6\n        /* \"#utility.yul\":2258:2354   */\n      tag_109\n      jump\t// in\n    tag_108:\n        /* \"#utility.yul\":2251:2354   */\n      swap4\n      pop\n        /* \"#utility.yul\":2380:2383   */\n      dup4\n        /* \"#utility.yul\":2425:2429   */\n      0x20\n        /* \"#utility.yul\":2417:2423   */\n      dup3\n        /* \"#utility.yul\":2413:2430   */\n      mul\n        /* \"#utility.yul\":2408:2411   */\n      dup6\n        /* \"#utility.yul\":2404:2431   */\n      add\n        /* \"#utility.yul\":2455:2521   */\n      tag_110\n        /* \"#utility.yul\":2515:2520   */\n      dup6\n        /* \"#utility.yul\":2455:2521   */\n      tag_111\n      jump\t// in\n    tag_110:\n        /* \"#utility.yul\":2544:2551   */\n      dup1\n        /* \"#utility.yul\":2575:2576   */\n      0x00\n        /* \"#utility.yul\":2560:2956   */\n    tag_112:\n        /* \"#utility.yul\":2585:2591   */\n      dup6\n        /* \"#utility.yul\":2582:2583   */\n      dup2\n        /* \"#utility.yul\":2579:2592   */\n      lt\n        /* \"#utility.yul\":2560:2956   */\n      iszero\n      tag_114\n      jumpi\n        /* \"#utility.yul\":2656:2665   */\n      dup5\n        /* \"#utility.yul\":2650:2654   */\n      dup5\n        /* \"#utility.yul\":2646:2666   */\n      sub\n        /* \"#utility.yul\":2641:2644   */\n      dup10\n        /* \"#utility.yul\":2634:2667   */\n      mstore\n        /* \"#utility.yul\":2707:2713   */\n      dup2\n        /* \"#utility.yul\":2701:2714   */\n      mload\n        /* \"#utility.yul\":2735:2819   */\n      tag_115\n        /* \"#utility.yul\":2814:2818   */\n      dup6\n        /* \"#utility.yul\":2799:2812   */\n      dup3\n        /* \"#utility.yul\":2735:2819   */\n      tag_100\n      jump\t// in\n    tag_115:\n        /* \"#utility.yul\":2727:2819   */\n      swap5\n      pop\n        /* \"#utility.yul\":2842:2912   */\n      tag_116\n        /* \"#utility.yul\":2905:2911   */\n      dup4\n        /* \"#utility.yul\":2842:2912   */\n      tag_117\n      jump\t// in\n    tag_116:\n        /* \"#utility.yul\":2832:2912   */\n      swap3\n      pop\n        /* \"#utility.yul\":2941:2945   */\n      0x20\n        /* \"#utility.yul\":2936:2939   */\n      dup11\n        /* \"#utility.yul\":2932:2946   */\n      add\n        /* \"#utility.yul\":2925:2946   */\n      swap10\n      pop\n        /* \"#utility.yul\":2620:2956   */\n      pop\n        /* \"#utility.yul\":2607:2608   */\n      0x01\n        /* \"#utility.yul\":2604:2605   */\n      dup2\n        /* \"#utility.yul\":2600:2609   */\n      add\n        /* \"#utility.yul\":2595:2609   */\n      swap1\n      pop\n        /* \"#utility.yul\":2560:2956   */\n      jump(tag_112)\n    tag_114:\n        /* \"#utility.yul\":2564:2578   */\n      pop\n        /* \"#utility.yul\":2972:2976   */\n      dup3\n        /* \"#utility.yul\":2965:2976   */\n      swap8\n      pop\n        /* \"#utility.yul\":2992:2995   */\n      dup8\n        /* \"#utility.yul\":2985:2995   */\n      swap6\n      pop\n        /* \"#utility.yul\":2154:3001   */\n      pop\n      pop\n      pop\n      pop\n      pop\n        /* \"#utility.yul\":2010:3001   */\n      swap3\n      swap2\n      pop\n      pop\n      jump\t// out\n        /* \"#utility.yul\":3007:3351   */\n    tag_103:\n        /* \"#utility.yul\":3085:3088   */\n      0x00\n        /* \"#utility.yul\":3113:3152   */\n      tag_119\n        /* \"#utility.yul\":3146:3151   */\n      dup3\n        /* \"#utility.yul\":3113:3152   */\n      tag_120\n      jump\t// in\n    tag_119:\n        /* \"#utility.yul\":3168:3229   */\n      tag_121\n        /* \"#utility.yul\":3222:3228   */\n      dup2\n        /* \"#utility.yul\":3217:3220   */\n      dup6\n        /* \"#utility.yul\":3168:3229   */\n      tag_122\n      jump\t// in\n    tag_121:\n        /* \"#utility.yul\":3161:3229   */\n      swap4\n      pop\n        /* \"#utility.yul\":3238:3290   */\n      tag_123\n        /* \"#utility.yul\":3283:3289   */\n      dup2\n        /* \"#utility.yul\":3278:3281   */\n      dup6\n        /* \"#utility.yul\":3271:3275   */\n      0x20\n        /* \"#utility.yul\":3264:3269   */\n      dup7\n        /* \"#utility.yul\":3260:3276   */\n      add\n        /* \"#utility.yul\":3238:3290   */\n      tag_124\n      jump\t// in\n    tag_123:\n        /* \"#utility.yul\":3315:3344   */\n      tag_125\n        /* \"#utility.yul\":3337:3343   */\n      dup2\n        /* \"#utility.yul\":3315:3344   */\n      tag_126\n      jump\t// in\n    tag_125:\n        /* \"#utility.yul\":3310:3313   */\n      dup5\n        /* \"#utility.yul\":3306:3345   */\n      add\n        /* \"#utility.yul\":3299:3345   */\n      swap2\n      pop\n        /* \"#utility.yul\":3089:3351   */\n      pop\n        /* \"#utility.yul\":3007:3351   */\n      swap3\n      swap2\n      pop\n      pop\n      jump\t// out\n        /* \"#utility.yul\":3357:3721   */\n    tag_127:\n        /* \"#utility.yul\":3445:3448   */\n      0x00\n        /* \"#utility.yul\":3473:3512   */\n      tag_129\n        /* \"#utility.yul\":3506:3511   */\n      dup3\n        /* \"#utility.yul\":3473:3512   */\n      tag_120\n      jump\t// in\n    tag_129:\n        /* \"#utility.yul\":3528:3599   */\n      tag_130\n        /* \"#utility.yul\":3592:3598   */\n      dup2\n        /* \"#utility.yul\":3587:3590   */\n      dup6\n        /* \"#utility.yul\":3528:3599   */\n      tag_131\n      jump\t// in\n    tag_130:\n        /* \"#utility.yul\":3521:3599   */\n      swap4\n      pop\n        /* \"#utility.yul\":3608:3660   */\n      tag_132\n        /* \"#utility.yul\":3653:3659   */\n      dup2\n        /* \"#utility.yul\":3648:3651   */\n      dup6\n        /* \"#utility.yul\":3641:3645   */\n      0x20\n        /* \"#utility.yul\":3634:3639   */\n      dup7\n        /* \"#utility.yul\":3630:3646   */\n      add\n        /* \"#utility.yul\":3608:3660   */\n      tag_124\n      jump\t// in\n    tag_132:\n        /* \"#utility.yul\":3685:3714   */\n      tag_133\n        /* \"#utility.yul\":3707:3713   */\n      dup2\n        /* \"#utility.yul\":3685:3714   */\n      tag_126\n      jump\t// in\n    tag_133:\n        /* \"#utility.yul\":3680:3683   */\n      dup5\n        /* \"#utility.yul\":3676:3715   */\n      add\n        /* \"#utility.yul\":3669:3715   */\n      swap2\n      pop\n        /* \"#utility.yul\":3449:3721   */\n      pop\n        /* \"#utility.yul\":3357:3721   */\n      swap3\n      swap2\n      pop\n      pop\n      jump\t// out\n        /* \"#utility.yul\":3727:3845   */\n    tag_134:\n        /* \"#utility.yul\":3814:3838   */\n      tag_136\n        /* \"#utility.yul\":3832:3837   */\n      dup2\n        /* \"#utility.yul\":3814:3838   */\n      tag_137\n      jump\t// in\n    tag_136:\n        /* \"#utility.yul\":3809:3812   */\n      dup3\n        /* \"#utility.yul\":3802:3839   */\n      mstore\n        /* \"#utility.yul\":3727:3845   */\n      pop\n      pop\n      jump\t// out\n        /* \"#utility.yul\":3851:4264   */\n    tag_25:\n        /* \"#utility.yul\":4014:4018   */\n      0x00\n        /* \"#utility.yul\":4052:4054   */\n      0x20\n        /* \"#utility.yul\":4041:4050   */\n      dup3\n        /* \"#utility.yul\":4037:4055   */\n      add\n        /* \"#utility.yul\":4029:4055   */\n      swap1\n      pop\n        /* \"#utility.yul\":4101:4110   */\n      dup2\n        /* \"#utility.yul\":4095:4099   */\n      dup2\n        /* \"#utility.yul\":4091:4111   */\n      sub\n        /* \"#utility.yul\":4087:4088   */\n      0x00\n        /* \"#utility.yul\":4076:4085   */\n      dup4\n        /* \"#utility.yul\":4072:4089   */\n      add\n        /* \"#utility.yul\":4065:4112   */\n      mstore\n        /* \"#utility.yul\":4129:4257   */\n      tag_139\n        /* \"#utility.yul\":4252:4256   */\n      dup2\n        /* \"#utility.yul\":4243:4249   */\n      dup5\n        /* \"#utility.yul\":4129:4257   */\n      tag_104\n      jump\t// in\n    tag_139:\n        /* \"#utility.yul\":4121:4257   */\n      swap1\n      pop\n        /* \"#utility.yul\":3851:4264   */\n      swap3\n      swap2\n      pop\n      pop\n      jump\t// out\n        /* \"#utility.yul\":4270:4583   */\n    tag_21:\n        /* \"#utility.yul\":4383:4387   */\n      0x00\n        /* \"#utility.yul\":4421:4423   */\n      0x20\n        /* \"#utility.yul\":4410:4419   */\n      dup3\n        /* \"#utility.yul\":4406:4424   */\n      add\n        /* \"#utility.yul\":4398:4424   */\n      swap1\n      pop\n        /* \"#utility.yul\":4470:4479   */\n      dup2\n        /* \"#utility.yul\":4464:4468   */\n      dup2\n        /* \"#utility.yul\":4460:4480   */\n      sub\n        /* \"#utility.yul\":4456:4457   */\n      0x00\n        /* \"#utility.yul\":4445:4454   */\n      dup4\n        /* \"#utility.yul\":4441:4458   */\n      add\n        /* \"#utility.yul\":4434:4481   */\n      mstore\n        /* \"#utility.yul\":4498:4576   */\n      tag_141\n        /* \"#utility.yul\":4571:4575   */\n      dup2\n        /* \"#utility.yul\":4562:4568   */\n      dup5\n        /* \"#utility.yul\":4498:4576   */\n      tag_127\n      jump\t// in\n    tag_141:\n        /* \"#utility.yul\":4490:4576   */\n      swap1\n      pop\n        /* \"#utility.yul\":4270:4583   */\n      swap3\n      swap2\n      pop\n      pop\n      jump\t// out\n        /* \"#utility.yul\":4589:4811   */\n    tag_11:\n        /* \"#utility.yul\":4682:4686   */\n      0x00\n        /* \"#utility.yul\":4720:4722   */\n      0x20\n        /* \"#utility.yul\":4709:4718   */\n      dup3\n        /* \"#utility.yul\":4705:4723   */\n      add\n        /* \"#utility.yul\":4697:4723   */\n      swap1\n      pop\n        /* \"#utility.yul\":4733:4804   */\n      tag_143\n        /* \"#utility.yul\":4801:4802   */\n      0x00\n        /* \"#utility.yul\":4790:4799   */\n      dup4\n        /* \"#utility.yul\":4786:4803   */\n      add\n        /* \"#utility.yul\":4777:4783   */\n      dup5\n        /* \"#utility.yul\":4733:4804   */\n      tag_134\n      jump\t// in\n    tag_143:\n        /* \"#utility.yul\":4589:4811   */\n      swap3\n      swap2\n      pop\n      pop\n      jump\t// out\n        /* \"#utility.yul\":4817:4946   */\n    tag_72:\n        /* \"#utility.yul\":4851:4857   */\n      0x00\n        /* \"#utility.yul\":4878:4898   */\n      tag_145\n      tag_146\n      jump\t// in\n    tag_145:\n        /* \"#utility.yul\":4868:4898   */\n      swap1\n      pop\n        /* \"#utility.yul\":4907:4940   */\n      tag_147\n        /* \"#utility.yul\":4935:4939   */\n      dup3\n        /* \"#utility.yul\":4927:4933   */\n      dup3\n        /* \"#utility.yul\":4907:4940   */\n      tag_148\n      jump\t// in\n    tag_147:\n        /* \"#utility.yul\":4817:4946   */\n      swap2\n      swap1\n      pop\n      jump\t// out\n        /* \"#utility.yul\":4952:5027   */\n    tag_146:\n        /* \"#utility.yul\":4985:4991   */\n      0x00\n        /* \"#utility.yul\":5018:5020   */\n      0x40\n        /* \"#utility.yul\":5012:5021   */\n      mload\n        /* \"#utility.yul\":5002:5021   */\n      swap1\n      pop\n        /* \"#utility.yul\":4952:5027   */\n      swap1\n      jump\t// out\n        /* \"#utility.yul\":5033:5341   */\n    tag_71:\n        /* \"#utility.yul\":5095:5099   */\n      0x00\n        /* \"#utility.yul\":5185:5203   */\n      0xffffffffffffffff\n        /* \"#utility.yul\":5177:5183   */\n      dup3\n        /* \"#utility.yul\":5174:5204   */\n      gt\n        /* \"#utility.yul\":5171:5227   */\n      iszero\n      tag_151\n      jumpi\n        /* \"#utility.yul\":5207:5225   */\n      tag_152\n      tag_153\n      jump\t// in\n    tag_152:\n        /* \"#utility.yul\":5171:5227   */\n    tag_151:\n        /* \"#utility.yul\":5245:5274   */\n      tag_154\n        /* \"#utility.yul\":5267:5273   */\n      dup3\n        /* \"#utility.yul\":5245:5274   */\n      tag_126\n      jump\t// in\n    tag_154:\n        /* \"#utility.yul\":5237:5274   */\n      swap1\n      pop\n        /* \"#utility.yul\":5329:5333   */\n      0x20\n        /* \"#utility.yul\":5323:5327   */\n      dup2\n        /* \"#utility.yul\":5319:5334   */\n      add\n        /* \"#utility.yul\":5311:5334   */\n      swap1\n      pop\n        /* \"#utility.yul\":5033:5341   */\n      swap2\n      swap1\n      pop\n      jump\t// out\n        /* \"#utility.yul\":5347:5489   */\n    tag_111:\n        /* \"#utility.yul\":5424:5428   */\n      0x00\n        /* \"#utility.yul\":5447:5450   */\n      dup2\n        /* \"#utility.yul\":5439:5450   */\n      swap1\n      pop\n        /* \"#utility.yul\":5477:5481   */\n      0x20\n        /* \"#utility.yul\":5472:5475   */\n      dup3\n        /* \"#utility.yul\":5468:5482   */\n      add\n        /* \"#utility.yul\":5460:5482   */\n      swap1\n      pop\n        /* \"#utility.yul\":5347:5489   */\n      swap2\n      swap1\n      pop\n      jump\t// out\n        /* \"#utility.yul\":5495:5619   */\n    tag_107:\n        /* \"#utility.yul\":5572:5578   */\n      0x00\n        /* \"#utility.yul\":5606:5611   */\n      dup2\n        /* \"#utility.yul\":5600:5612   */\n      mload\n        /* \"#utility.yul\":5590:5612   */\n      swap1\n      pop\n        /* \"#utility.yul\":5495:5619   */\n      swap2\n      swap1\n      pop\n      jump\t// out\n        /* \"#utility.yul\":5625:5724   */\n    tag_120:\n        /* \"#utility.yul\":5677:5683   */\n      0x00\n        /* \"#utility.yul\":5711:5716   */\n      dup2\n        /* \"#utility.yul\":5705:5717   */\n      mload\n        /* \"#utility.yul\":5695:5717   */\n      swap1\n      pop\n        /* \"#utility.yul\":5625:5724   */\n      swap2\n      swap1\n      pop\n      jump\t// out\n        /* \"#utility.yul\":5730:5853   */\n    tag_117:\n        /* \"#utility.yul\":5810:5814   */\n      0x00\n        /* \"#utility.yul\":5842:5846   */\n      0x20\n        /* \"#utility.yul\":5837:5840   */\n      dup3\n        /* \"#utility.yul\":5833:5847   */\n      add\n        /* \"#utility.yul\":5825:5847   */\n      swap1\n      pop\n        /* \"#utility.yul\":5730:5853   */\n      swap2\n      swap1\n      pop\n      jump\t// out\n        /* \"#utility.yul\":5859:6053   */\n    tag_109:\n        /* \"#utility.yul\":5968:5979   */\n      0x00\n        /* \"#utility.yul\":6002:6008   */\n      dup3\n        /* \"#utility.yul\":5997:6000   */\n      dup3\n        /* \"#utility.yul\":5990:6009   */\n      mstore\n        /* \"#utility.yul\":6042:6046   */\n      0x20\n        /* \"#utility.yul\":6037:6040   */\n      dup3\n        /* \"#utility.yul\":6033:6047   */\n      add\n        /* \"#utility.yul\":6018:6047   */\n      swap1\n      pop\n        /* \"#utility.yul\":5859:6053   */\n      swap3\n      swap2\n      pop\n      pop\n      jump\t// out\n        /* \"#utility.yul\":6059:6218   */\n    tag_122:\n        /* \"#utility.yul\":6133:6144   */\n      0x00\n        /* \"#utility.yul\":6167:6173   */\n      dup3\n        /* \"#utility.yul\":6162:6165   */\n      dup3\n        /* \"#utility.yul\":6155:6174   */\n      mstore\n        /* \"#utility.yul\":6207:6211   */\n      0x20\n        /* \"#utility.yul\":6202:6205   */\n      dup3\n        /* \"#utility.yul\":6198:6212   */\n      add\n        /* \"#utility.yul\":6183:6212   */\n      swap1\n      pop\n        /* \"#utility.yul\":6059:6218   */\n      swap3\n      swap2\n      pop\n      pop\n      jump\t// out\n        /* \"#utility.yul\":6224:6393   */\n    tag_131:\n        /* \"#utility.yul\":6308:6319   */\n      0x00\n        /* \"#utility.yul\":6342:6348   */\n      dup3\n        /* \"#utility.yul\":6337:6340   */\n      dup3\n        /* \"#utility.yul\":6330:6349   */\n      mstore\n        /* \"#utility.yul\":6382:6386   */\n      0x20\n        /* \"#utility.yul\":6377:6380   */\n      dup3\n        /* \"#utility.yul\":6373:6387   */\n      add\n        /* \"#utility.yul\":6358:6387   */\n      swap1\n      pop\n        /* \"#utility.yul\":6224:6393   */\n      swap3\n      swap2\n      pop\n      pop\n      jump\t// out\n        /* \"#utility.yul\":6399:6476   */\n    tag_137:\n        /* \"#utility.yul\":6436:6443   */\n      0x00\n        /* \"#utility.yul\":6465:6470   */\n      dup2\n        /* \"#utility.yul\":6454:6470   */\n      swap1\n      pop\n        /* \"#utility.yul\":6399:6476   */\n      swap2\n      swap1\n      pop\n      jump\t// out\n        /* \"#utility.yul\":6482:6636   */\n    tag_77:\n        /* \"#utility.yul\":6566:6572   */\n      dup3\n        /* \"#utility.yul\":6561:6564   */\n      dup2\n        /* \"#utility.yul\":6556:6559   */\n      dup4\n        /* \"#utility.yul\":6543:6573   */\n      calldatacopy\n        /* \"#utility.yul\":6628:6629   */\n      0x00\n        /* \"#utility.yul\":6619:6625   */\n      dup4\n        /* \"#utility.yul\":6614:6617   */\n      dup4\n        /* \"#utility.yul\":6610:6626   */\n      add\n        /* \"#utility.yul\":6603:6630   */\n      mstore\n        /* \"#utility.yul\":6482:6636   */\n      pop\n      pop\n      pop\n      jump\t// out\n        /* \"#utility.yul\":6642:6949   */\n    tag_124:\n        /* \"#utility.yul\":6710:6711   */\n      0x00\n        /* \"#utility.yul\":6720:6833   */\n    tag_165:\n        /* \"#utility.yul\":6734:6740   */\n      dup4\n        /* \"#utility.yul\":6731:6732   */\n      dup2\n        /* \"#utility.yul\":6728:6741   */\n      lt\n        /* \"#utility.yul\":6720:6833   */\n      iszero\n      tag_167\n      jumpi\n        /* \"#utility.yul\":6819:6820   */\n      dup1\n        /* \"#utility.yul\":6814:6817   */\n      dup3\n        /* \"#utility.yul\":6810:6821   */\n      add\n        /* \"#utility.yul\":6804:6822   */\n      mload\n        /* \"#utility.yul\":6800:6801   */\n      dup2\n        /* \"#utility.yul\":6795:6798   */\n      dup5\n        /* \"#utility.yul\":6791:6802   */\n      add\n        /* \"#utility.yul\":6784:6823   */\n      mstore\n        /* \"#utility.yul\":6756:6758   */\n      0x20\n        /* \"#utility.yul\":6753:6754   */\n      dup2\n        /* \"#utility.yul\":6749:6759   */\n      add\n        /* \"#utility.yul\":6744:6759   */\n      swap1\n      pop\n        /* \"#utility.yul\":6720:6833   */\n      jump(tag_165)\n    tag_167:\n        /* \"#utility.yul\":6851:6857   */\n      dup4\n        /* \"#utility.yul\":6848:6849   */\n      dup2\n        /* \"#utility.yul\":6845:6858   */\n      gt\n        /* \"#utility.yul\":6842:6943   */\n      iszero\n      tag_168\n      jumpi\n        /* \"#utility.yul\":6931:6932   */\n      0x00\n        /* \"#utility.yul\":6922:6928   */\n      dup5\n        /* \"#utility.yul\":6917:6920   */\n      dup5\n        /* \"#utility.yul\":6913:6929   */\n      add\n        /* \"#utility.yul\":6906:6933   */\n      mstore\n        /* \"#utility.yul\":6842:6943   */\n    tag_168:\n        /* \"#utility.yul\":6691:6949   */\n      pop\n        /* \"#utility.yul\":6642:6949   */\n      pop\n      pop\n      pop\n      jump\t// out\n        /* \"#utility.yul\":6955:7275   */\n    tag_37:\n        /* \"#utility.yul\":6999:7005   */\n      0x00\n        /* \"#utility.yul\":7036:7037   */\n      0x02\n        /* \"#utility.yul\":7030:7034   */\n      dup3\n        /* \"#utility.yul\":7026:7038   */\n      div\n        /* \"#utility.yul\":7016:7038   */\n      swap1\n      pop\n        /* \"#utility.yul\":7083:7084   */\n      0x01\n        /* \"#utility.yul\":7077:7081   */\n      dup3\n        /* \"#utility.yul\":7073:7085   */\n      and\n        /* \"#utility.yul\":7104:7122   */\n      dup1\n        /* \"#utility.yul\":7094:7175   */\n      tag_170\n      jumpi\n        /* \"#utility.yul\":7160:7164   */\n      0x7f\n        /* \"#utility.yul\":7152:7158   */\n      dup3\n        /* \"#utility.yul\":7148:7165   */\n      and\n        /* \"#utility.yul\":7138:7165   */\n      swap2\n      pop\n        /* \"#utility.yul\":7094:7175   */\n    tag_170:\n        /* \"#utility.yul\":7222:7224   */\n      0x20\n        /* \"#utility.yul\":7214:7220   */\n      dup3\n        /* \"#utility.yul\":7211:7225   */\n      lt\n        /* \"#utility.yul\":7191:7209   */\n      dup2\n        /* \"#utility.yul\":7188:7226   */\n      eq\n        /* \"#utility.yul\":7185:7269   */\n      iszero\n      tag_171\n      jumpi\n        /* \"#utility.yul\":7241:7259   */\n      tag_172\n      tag_173\n      jump\t// in\n    tag_172:\n        /* \"#utility.yul\":7185:7269   */\n    tag_171:\n        /* \"#utility.yul\":7006:7275   */\n      pop\n        /* \"#utility.yul\":6955:7275   */\n      swap2\n      swap1\n      pop\n      jump\t// out\n        /* \"#utility.yul\":7281:7562   */\n    tag_148:\n        /* \"#utility.yul\":7364:7391   */\n      tag_175\n        /* \"#utility.yul\":7386:7390   */\n      dup3\n        /* \"#utility.yul\":7364:7391   */\n      tag_126\n      jump\t// in\n    tag_175:\n        /* \"#utility.yul\":7356:7362   */\n      dup2\n        /* \"#utility.yul\":7352:7392   */\n      add\n        /* \"#utility.yul\":7494:7500   */\n      dup2\n        /* \"#utility.yul\":7482:7492   */\n      dup2\n        /* \"#utility.yul\":7479:7501   */\n      lt\n        /* \"#utility.yul\":7458:7476   */\n      0xffffffffffffffff\n        /* \"#utility.yul\":7446:7456   */\n      dup3\n        /* \"#utility.yul\":7443:7477   */\n      gt\n        /* \"#utility.yul\":7440:7502   */\n      or\n        /* \"#utility.yul\":7437:7525   */\n      iszero\n      tag_176\n      jumpi\n        /* \"#utility.yul\":7505:7523   */\n      tag_177\n      tag_153\n      jump\t// in\n    tag_177:\n        /* \"#utility.yul\":7437:7525   */\n    tag_176:\n        /* \"#utility.yul\":7545:7555   */\n      dup1\n        /* \"#utility.yul\":7541:7543   */\n      0x40\n        /* \"#utility.yul\":7534:7556   */\n      mstore\n        /* \"#utility.yul\":7324:7562   */\n      pop\n        /* \"#utility.yul\":7281:7562   */\n      pop\n      pop\n      jump\t// out\n        /* \"#utility.yul\":7568:7748   */\n    tag_173:\n        /* \"#utility.yul\":7616:7693   */\n      0x4e487b7100000000000000000000000000000000000000000000000000000000\n        /* \"#utility.yul\":7613:7614   */\n      0x00\n        /* \"#utility.yul\":7606:7694   */\n      mstore\n        /* \"#utility.yul\":7713:7717   */\n      0x22\n        /* \"#utility.yul\":7710:7711   */\n      0x04\n        /* \"#utility.yul\":7703:7718   */\n      mstore\n        /* \"#utility.yul\":7737:7741   */\n      0x24\n        /* \"#utility.yul\":7734:7735   */\n      0x00\n        /* \"#utility.yul\":7727:7742   */\n      revert\n        /* \"#utility.yul\":7754:7934   */\n    tag_153:\n        /* \"#utility.yul\":7802:7879   */\n      0x4e487b7100000000000000000000000000000000000000000000000000000000\n        /* \"#utility.yul\":7799:7800   */\n      0x00\n        /* \"#utility.yul\":7792:7880   */\n      mstore\n        /* \"#utility.yul\":7899:7903   */\n      0x41\n        /* \"#utility.yul\":7896:7897   */\n      0x04\n        /* \"#utility.yul\":7889:7904   */\n      mstore\n        /* \"#utility.yul\":7923:7927   */\n      0x24\n        /* \"#utility.yul\":7920:7921   */\n      0x00\n        /* \"#utility.yul\":7913:7928   */\n      revert\n        /* \"#utility.yul\":7940:8057   */\n    tag_82:\n        /* \"#utility.yul\":8049:8050   */\n      0x00\n        /* \"#utility.yul\":8046:8047   */\n      dup1\n        /* \"#utility.yul\":8039:8051   */\n      revert\n        /* \"#utility.yul\":8063:8180   */\n    tag_75:\n        /* \"#utility.yul\":8172:8173   */\n      0x00\n        /* \"#utility.yul\":8169:8170   */\n      dup1\n        /* \"#utility.yul\":8162:8174   */\n      revert\n        /* \"#utility.yul\":8186:8303   */\n    tag_94:\n        /* \"#utility.yul\":8295:8296   */\n      0x00\n        /* \"#utility.yul\":8292:8293   */\n      dup1\n        /* \"#utility.yul\":8285:8297   */\n      revert\n        /* \"#utility.yul\":8309:8426   */\n    tag_91:\n        /* \"#utility.yul\":8418:8419   */\n      0x00\n        /* \"#utility.yul\":8415:8416   */\n      dup1\n        /* \"#utility.yul\":8408:8420   */\n      revert\n        /* \"#utility.yul\":8432:8534   */\n    tag_126:\n        /* \"#utility.yul\":8473:8479   */\n      0x00\n        /* \"#utility.yul\":8524:8526   */\n      0x1f\n        /* \"#utility.yul\":8520:8527   */\n      not\n        /* \"#utility.yul\":8515:8517   */\n      0x1f\n        /* \"#utility.yul\":8508:8513   */\n      dup4\n        /* \"#utility.yul\":8504:8518   */\n      add\n        /* \"#utility.yul\":8500:8528   */\n      and\n        /* \"#utility.yul\":8490:8528   */\n      swap1\n      pop\n        /* \"#utility.yul\":8432:8534   */\n      swap2\n      swap1\n      pop\n      jump\t// out\n        /* \"#utility.yul\":8540:8662   */\n    tag_87:\n        /* \"#utility.yul\":8613:8637   */\n      tag_186\n        /* \"#utility.yul\":8631:8636   */\n      dup2\n        /* \"#utility.yul\":8613:8637   */\n      tag_137\n      jump\t// in\n    tag_186:\n        /* \"#utility.yul\":8606:8611   */\n      dup2\n        /* \"#utility.yul\":8603:8638   */\n      eq\n        /* \"#utility.yul\":8593:8656   */\n      tag_187\n      jumpi\n        /* \"#utility.yul\":8652:8653   */\n      0x00\n        /* \"#utility.yul\":8649:8650   */\n      dup1\n        /* \"#utility.yul\":8642:8654   */\n      revert\n        /* \"#utility.yul\":8593:8656   */\n    tag_187:\n        /* \"#utility.yul\":8540:8662   */\n      pop\n      jump\t// out\n\n    auxdata: 0xa2646970667358221220a4e23b3c3411801df6bfd2d13a306a53ae81adfdd2e1f0b4bb6dd25abccff07064736f6c63430008070033\n}\n",
				"bytecode": {
					"linkReferences": {},
					"object": "608060405234801561001057600080fd5b506108a2806100206000396000f3fe608060405234801561001057600080fd5b50600436106100575760003560e01c806317e703ab1461005c5780632edd4fa51461007a57806359221a681461009657806382d69b62146100c6578063a6c3e6b9146100e4575b600080fd5b610064610102565b604051610071919061064c565b60405180910390f35b610094600480360381019061008f9190610488565b61010e565b005b6100b060048036038101906100ab91906104d1565b61014d565b6040516100bd919061062a565b60405180910390f35b6100ce6101f9565b6040516100db9190610608565b60405180910390f35b6100ec6102d2565b6040516100f9919061062a565b60405180910390f35b60008080549050905090565b600081908060018154018082558091505060019003906000526020600020016000909190919091509080519060200190610149929190610360565b5050565b6000818154811061015d57600080fd5b9060005260206000200160009150905080546101789061076f565b80601f01602080910402602001604051908101604052809291908181526020018280546101a49061076f565b80156101f15780601f106101c6576101008083540402835291602001916101f1565b820191906000526020600020905b8154815290600101906020018083116101d457829003601f168201915b505050505081565b60606000805480602002602001604051908101604052809291908181526020016000905b828210156102c957838290600052602060002001805461023c9061076f565b80601f01602080910402602001604051908101604052809291908181526020018280546102689061076f565b80156102b55780601f1061028a576101008083540402835291602001916102b5565b820191906000526020600020905b81548152906001019060200180831161029857829003601f168201915b50505050508152602001906001019061021d565b50505050905090565b600180546102df9061076f565b80601f016020809104026020016040519081016040528092919081815260200182805461030b9061076f565b80156103585780601f1061032d57610100808354040283529160200191610358565b820191906000526020600020905b81548152906001019060200180831161033b57829003601f168201915b505050505081565b82805461036c9061076f565b90600052602060002090601f01602090048101928261038e57600085556103d5565b82601f106103a757805160ff19168380011785556103d5565b828001600101855582156103d5579182015b828111156103d45782518255916020019190600101906103b9565b5b5090506103e291906103e6565b5090565b5b808211156103ff5760008160009055506001016103e7565b5090565b60006104166104118461068c565b610667565b90508281526020810184848401111561043257610431610835565b5b61043d84828561072d565b509392505050565b600082601f83011261045a57610459610830565b5b813561046a848260208601610403565b91505092915050565b60008135905061048281610855565b92915050565b60006020828403121561049e5761049d61083f565b5b600082013567ffffffffffffffff8111156104bc576104bb61083a565b5b6104c884828501610445565b91505092915050565b6000602082840312156104e7576104e661083f565b5b60006104f584828501610473565b91505092915050565b600061050a8383610587565b905092915050565b600061051d826106cd565b61052781856106f0565b935083602082028501610539856106bd565b8060005b85811015610575578484038952815161055685826104fe565b9450610561836106e3565b925060208a0199505060018101905061053d565b50829750879550505050505092915050565b6000610592826106d8565b61059c8185610701565b93506105ac81856020860161073c565b6105b581610844565b840191505092915050565b60006105cb826106d8565b6105d58185610712565b93506105e581856020860161073c565b6105ee81610844565b840191505092915050565b61060281610723565b82525050565b600060208201905081810360008301526106228184610512565b905092915050565b6000602082019050818103600083015261064481846105c0565b905092915050565b600060208201905061066160008301846105f9565b92915050565b6000610671610682565b905061067d82826107a1565b919050565b6000604051905090565b600067ffffffffffffffff8211156106a7576106a6610801565b5b6106b082610844565b9050602081019050919050565b6000819050602082019050919050565b600081519050919050565b600081519050919050565b6000602082019050919050565b600082825260208201905092915050565b600082825260208201905092915050565b600082825260208201905092915050565b6000819050919050565b82818337600083830152505050565b60005b8381101561075a57808201518184015260208101905061073f565b83811115610769576000848401525b50505050565b6000600282049050600182168061078757607f821691505b6020821081141561079b5761079a6107d2565b5b50919050565b6107aa82610844565b810181811067ffffffffffffffff821117156107c9576107c8610801565b5b80604052505050565b7f4e487b7100000000000000000000000000000000000000000000000000000000600052602260045260246000fd5b7f4e487b7100000000000000000000000000000000000000000000000000000000600052604160045260246000fd5b600080fd5b600080fd5b600080fd5b600080fd5b6000601f19601f8301169050919050565b61085e81610723565b811461086957600080fd5b5056fea2646970667358221220a4e23b3c3411801df6bfd2d13a306a53ae81adfdd2e1f0b4bb6dd25abccff07064736f6c63430008070033",
					"opcodes": "PUSH1 0x80 PUSH1 0x40 MSTORE CALLVALUE DUP1 ISZERO PUSH2 0x10 JUMPI PUSH1 0x0 DUP1 REVERT JUMPDEST POP PUSH2 0x8A2 DUP1 PUSH2 0x20 PUSH1 0x0 CODECOPY PUSH1 0x0 RETURN INVALID PUSH1 0x80 PUSH1 0x40 MSTORE CALLVALUE DUP1 ISZERO PUSH2 0x10 JUMPI PUSH1 0x0 DUP1 REVERT JUMPDEST POP PUSH1 0x4 CALLDATASIZE LT PUSH2 0x57 JUMPI PUSH1 0x0 CALLDATALOAD PUSH1 0xE0 SHR DUP1 PUSH4 0x17E703AB EQ PUSH2 0x5C JUMPI DUP1 PUSH4 0x2EDD4FA5 EQ PUSH2 0x7A JUMPI DUP1 PUSH4 0x59221A68 EQ PUSH2 0x96 JUMPI DUP1 PUSH4 0x82D69B62 EQ PUSH2 0xC6 JUMPI DUP1 PUSH4 0xA6C3E6B9 EQ PUSH2 0xE4 JUMPI JUMPDEST PUSH1 0x0 DUP1 REVERT JUMPDEST PUSH2 0x64 PUSH2 0x102 JUMP JUMPDEST PUSH1 0x40 MLOAD PUSH2 0x71 SWAP2 SWAP1 PUSH2 0x64C JUMP JUMPDEST PUSH1 0x40 MLOAD DUP1 SWAP2 SUB SWAP1 RETURN JUMPDEST PUSH2 0x94 PUSH1 0x4 DUP1 CALLDATASIZE SUB DUP2 ADD SWAP1 PUSH2 0x8F SWAP2 SWAP1 PUSH2 0x488 JUMP JUMPDEST PUSH2 0x10E JUMP JUMPDEST STOP JUMPDEST PUSH2 0xB0 PUSH1 0x4 DUP1 CALLDATASIZE SUB DUP2 ADD SWAP1 PUSH2 0xAB SWAP2 SWAP1 PUSH2 0x4D1 JUMP JUMPDEST PUSH2 0x14D JUMP JUMPDEST PUSH1 0x40 MLOAD PUSH2 0xBD SWAP2 SWAP1 PUSH2 0x62A JUMP JUMPDEST PUSH1 0x40 MLOAD DUP1 SWAP2 SUB SWAP1 RETURN JUMPDEST PUSH2 0xCE PUSH2 0x1F9 JUMP JUMPDEST PUSH1 0x40 MLOAD PUSH2 0xDB SWAP2 SWAP1 PUSH2 0x608 JUMP JUMPDEST PUSH1 0x40 MLOAD DUP1 SWAP2 SUB SWAP1 RETURN JUMPDEST PUSH2 0xEC PUSH2 0x2D2 JUMP JUMPDEST PUSH1 0x40 MLOAD PUSH2 0xF9 SWAP2 SWAP1 PUSH2 0x62A JUMP JUMPDEST PUSH1 0x40 MLOAD DUP1 SWAP2 SUB SWAP1 RETURN JUMPDEST PUSH1 0x0 DUP1 DUP1 SLOAD SWAP1 POP SWAP1 POP SWAP1 JUMP JUMPDEST PUSH1 0x0 DUP2 SWAP1 DUP1 PUSH1 0x1 DUP2 SLOAD ADD DUP1 DUP3 SSTORE DUP1 SWAP2 POP POP PUSH1 0x1 SWAP1 SUB SWAP1 PUSH1 0x0 MSTORE PUSH1 0x20 PUSH1 0x0 KECCAK256 ADD PUSH1 0x0 SWAP1 SWAP2 SWAP1 SWAP2 SWAP1 SWAP2 POP SWAP1 DUP1 MLOAD SWAP1 PUSH1 0x20 ADD SWAP1 PUSH2 0x149 SWAP3 SWAP2 SWAP1 PUSH2 0x360 JUMP JUMPDEST POP POP JUMP JUMPDEST PUSH1 0x0 DUP2 DUP2 SLOAD DUP2 LT PUSH2 0x15D JUMPI PUSH1 0x0 DUP1 REVERT JUMPDEST SWAP1 PUSH1 0x0 MSTORE PUSH1 0x20 PUSH1 0x0 KECCAK256 ADD PUSH1 0x0 SWAP2 POP SWAP1 POP DUP1 SLOAD PUSH2 0x178 SWAP1 PUSH2 0x76F JUMP JUMPDEST DUP1 PUSH1 0x1F ADD PUSH1 0x20 DUP1 SWAP2 DIV MUL PUSH1 0x20 ADD PUSH1 0x40 MLOAD SWAP1 DUP2 ADD PUSH1 0x40 MSTORE DUP1 SWAP3 SWAP2 SWAP1 DUP2 DUP2 MSTORE PUSH1 0x20 ADD DUP3 DUP1 SLOAD PUSH2 0x1A4 SWAP1 PUSH2 0x76F JUMP JUMPDEST DUP1 ISZERO PUSH2 0x1F1 JUMPI DUP1 PUSH1 0x1F LT PUSH2 0x1C6 JUMPI PUSH2 0x100 DUP1 DUP4 SLOAD DIV MUL DUP4 MSTORE SWAP2 PUSH1 0x20 ADD SWAP2 PUSH2 0x1F1 JUMP JUMPDEST DUP3 ADD SWAP2 SWAP1 PUSH1 0x0 MSTORE PUSH1 0x20 PUSH1 0x0 KECCAK256 SWAP1 JUMPDEST DUP2 SLOAD DUP2 MSTORE SWAP1 PUSH1 0x1 ADD SWAP1 PUSH1 0x20 ADD DUP1 DUP4 GT PUSH2 0x1D4 JUMPI DUP3 SWAP1 SUB PUSH1 0x1F AND DUP3 ADD SWAP2 JUMPDEST POP POP POP POP POP DUP2 JUMP JUMPDEST PUSH1 0x60 PUSH1 0x0 DUP1 SLOAD DUP1 PUSH1 0x20 MUL PUSH1 0x20 ADD PUSH1 0x40 MLOAD SWAP1 DUP2 ADD PUSH1 0x40 MSTORE DUP1 SWAP3 SWAP2 SWAP1 DUP2 DUP2 MSTORE PUSH1 0x20 ADD PUSH1 0x0 SWAP1 JUMPDEST DUP3 DUP3 LT ISZERO PUSH2 0x2C9 JUMPI DUP4 DUP3 SWAP1 PUSH1 0x0 MSTORE PUSH1 0x20 PUSH1 0x0 KECCAK256 ADD DUP1 SLOAD PUSH2 0x23C SWAP1 PUSH2 0x76F JUMP JUMPDEST DUP1 PUSH1 0x1F ADD PUSH1 0x20 DUP1 SWAP2 DIV MUL PUSH1 0x20 ADD PUSH1 0x40 MLOAD SWAP1 DUP2 ADD PUSH1 0x40 MSTORE DUP1 SWAP3 SWAP2 SWAP1 DUP2 DUP2 MSTORE PUSH1 0x20 ADD DUP3 DUP1 SLOAD PUSH2 0x268 SWAP1 PUSH2 0x76F JUMP JUMPDEST DUP1 ISZERO PUSH2 0x2B5 JUMPI DUP1 PUSH1 0x1F LT PUSH2 0x28A JUMPI PUSH2 0x100 DUP1 DUP4 SLOAD DIV MUL DUP4 MSTORE SWAP2 PUSH1 0x20 ADD SWAP2 PUSH2 0x2B5 JUMP JUMPDEST DUP3 ADD SWAP2 SWAP1 PUSH1 0x0 MSTORE PUSH1 0x20 PUSH1 0x0 KECCAK256 SWAP1 JUMPDEST DUP2 SLOAD DUP2 MSTORE SWAP1 PUSH1 0x1 ADD SWAP1 PUSH1 0x20 ADD DUP1 DUP4 GT PUSH2 0x298 JUMPI DUP3 SWAP1 SUB PUSH1 0x1F AND DUP3 ADD SWAP2 JUMPDEST POP POP POP POP POP DUP2 MSTORE PUSH1 0x20 ADD SWAP1 PUSH1 0x1 ADD SWAP1 PUSH2 0x21D JUMP JUMPDEST POP POP POP POP SWAP1 POP SWAP1 JUMP JUMPDEST PUSH1 0x1 DUP1 SLOAD PUSH2 0x2DF SWAP1 PUSH2 0x76F JUMP JUMPDEST DUP1 PUSH1 0x1F ADD PUSH1 0x20 DUP1 SWAP2 DIV MUL PUSH1 0x20 ADD PUSH1 0x40 MLOAD SWAP1 DUP2 ADD PUSH1 0x40 MSTORE DUP1 SWAP3 SWAP2 SWAP1 DUP2 DUP2 MSTORE PUSH1 0x20 ADD DUP3 DUP1 SLOAD PUSH2 0x30B SWAP1 PUSH2 0x76F JUMP JUMPDEST DUP1 ISZERO PUSH2 0x358 JUMPI DUP1 PUSH1 0x1F LT PUSH2 0x32D JUMPI PUSH2 0x100 DUP1 DUP4 SLOAD DIV MUL DUP4 MSTORE SWAP2 PUSH1 0x20 ADD SWAP2 PUSH2 0x358 JUMP JUMPDEST DUP3 ADD SWAP2 SWAP1 PUSH1 0x0 MSTORE PUSH1 0x20 PUSH1 0x0 KECCAK256 SWAP1 JUMPDEST DUP2 SLOAD DUP2 MSTORE SWAP1 PUSH1 0x1 ADD SWAP1 PUSH1 0x20 ADD DUP1 DUP4 GT PUSH2 0x33B JUMPI DUP3 SWAP1 SUB PUSH1 0x1F AND DUP3 ADD SWAP2 JUMPDEST POP POP POP POP POP DUP2 JUMP JUMPDEST DUP3 DUP1 SLOAD PUSH2 0x36C SWAP1 PUSH2 0x76F JUMP JUMPDEST SWAP1 PUSH1 0x0 MSTORE PUSH1 0x20 PUSH1 0x0 KECCAK256 SWAP1 PUSH1 0x1F ADD PUSH1 0x20 SWAP1 DIV DUP2 ADD SWAP3 DUP3 PUSH2 0x38E JUMPI PUSH1 0x0 DUP6 SSTORE PUSH2 0x3D5 JUMP JUMPDEST DUP3 PUSH1 0x1F LT PUSH2 0x3A7 JUMPI DUP1 MLOAD PUSH1 0xFF NOT AND DUP4 DUP1 ADD OR DUP6 SSTORE PUSH2 0x3D5 JUMP JUMPDEST DUP3 DUP1 ADD PUSH1 0x1 ADD DUP6 SSTORE DUP3 ISZERO PUSH2 0x3D5 JUMPI SWAP2 DUP3 ADD JUMPDEST DUP3 DUP2 GT ISZERO PUSH2 0x3D4 JUMPI DUP3 MLOAD DUP3 SSTORE SWAP2 PUSH1 0x20 ADD SWAP2 SWAP1 PUSH1 0x1 ADD SWAP1 PUSH2 0x3B9 JUMP JUMPDEST JUMPDEST POP SWAP1 POP PUSH2 0x3E2 SWAP2 SWAP1 PUSH2 0x3E6 JUMP JUMPDEST POP SWAP1 JUMP JUMPDEST JUMPDEST DUP1 DUP3 GT ISZERO PUSH2 0x3FF JUMPI PUSH1 0x0 DUP2 PUSH1 0x0 SWAP1 SSTORE POP PUSH1 0x1 ADD PUSH2 0x3E7 JUMP JUMPDEST POP SWAP1 JUMP JUMPDEST PUSH1 0x0 PUSH2 0x416 PUSH2 0x411 DUP5 PUSH2 0x68C JUMP JUMPDEST PUSH2 0x667 JUMP JUMPDEST SWAP1 POP DUP3 DUP2 MSTORE PUSH1 0x20 DUP2 ADD DUP5 DUP5 DUP5 ADD GT ISZERO PUSH2 0x432 JUMPI PUSH2 0x431 PUSH2 0x835 JUMP JUMPDEST JUMPDEST PUSH2 0x43D DUP5 DUP3 DUP6 PUSH2 0x72D JUMP JUMPDEST POP SWAP4 SWAP3 POP POP POP JUMP JUMPDEST PUSH1 0x0 DUP3 PUSH1 0x1F DUP4 ADD SLT PUSH2 0x45A JUMPI PUSH2 0x459 PUSH2 0x830 JUMP JUMPDEST JUMPDEST DUP2 CALLDATALOAD PUSH2 0x46A DUP5 DUP3 PUSH1 0x20 DUP7 ADD PUSH2 0x403 JUMP JUMPDEST SWAP2 POP POP SWAP3 SWAP2 POP POP JUMP JUMPDEST PUSH1 0x0 DUP2 CALLDATALOAD SWAP1 POP PUSH2 0x482 DUP2 PUSH2 0x855 JUMP JUMPDEST SWAP3 SWAP2 POP POP JUMP JUMPDEST PUSH1 0x0 PUSH1 0x20 DUP3 DUP5 SUB SLT ISZERO PUSH2 0x49E JUMPI PUSH2 0x49D PUSH2 0x83F JUMP JUMPDEST JUMPDEST PUSH1 0x0 DUP3 ADD CALLDATALOAD PUSH8 0xFFFFFFFFFFFFFFFF DUP2 GT ISZERO PUSH2 0x4BC JUMPI PUSH2 0x4BB PUSH2 0x83A JUMP JUMPDEST JUMPDEST PUSH2 0x4C8 DUP5 DUP3 DUP6 ADD PUSH2 0x445 JUMP JUMPDEST SWAP2 POP POP SWAP3 SWAP2 POP POP JUMP JUMPDEST PUSH1 0x0 PUSH1 0x20 DUP3 DUP5 SUB SLT ISZERO PUSH2 0x4E7 JUMPI PUSH2 0x4E6 PUSH2 0x83F JUMP JUMPDEST JUMPDEST PUSH1 0x0 PUSH2 0x4F5 DUP5 DUP3 DUP6 ADD PUSH2 0x473 JUMP JUMPDEST SWAP2 POP POP SWAP3 SWAP2 POP POP JUMP JUMPDEST PUSH1 0x0 PUSH2 0x50A DUP4 DUP4 PUSH2 0x587 JUMP JUMPDEST SWAP1 POP SWAP3 SWAP2 POP POP JUMP JUMPDEST PUSH1 0x0 PUSH2 0x51D DUP3 PUSH2 0x6CD JUMP JUMPDEST PUSH2 0x527 DUP2 DUP6 PUSH2 0x6F0 JUMP JUMPDEST SWAP4 POP DUP4 PUSH1 0x20 DUP3 MUL DUP6 ADD PUSH2 0x539 DUP6 PUSH2 0x6BD JUMP JUMPDEST DUP1 PUSH1 0x0 JUMPDEST DUP6 DUP2 LT ISZERO PUSH2 0x575 JUMPI DUP5 DUP5 SUB DUP10 MSTORE DUP2 MLOAD PUSH2 0x556 DUP6 DUP3 PUSH2 0x4FE JUMP JUMPDEST SWAP5 POP PUSH2 0x561 DUP4 PUSH2 0x6E3 JUMP JUMPDEST SWAP3 POP PUSH1 0x20 DUP11 ADD SWAP10 POP POP PUSH1 0x1 DUP2 ADD SWAP1 POP PUSH2 0x53D JUMP JUMPDEST POP DUP3 SWAP8 POP DUP8 SWAP6 POP POP POP POP POP POP SWAP3 SWAP2 POP POP JUMP JUMPDEST PUSH1 0x0 PUSH2 0x592 DUP3 PUSH2 0x6D8 JUMP JUMPDEST PUSH2 0x59C DUP2 DUP6 PUSH2 0x701 JUMP JUMPDEST SWAP4 POP PUSH2 0x5AC DUP2 DUP6 PUSH1 0x20 DUP7 ADD PUSH2 0x73C JUMP JUMPDEST PUSH2 0x5B5 DUP2 PUSH2 0x844 JUMP JUMPDEST DUP5 ADD SWAP2 POP POP SWAP3 SWAP2 POP POP JUMP JUMPDEST PUSH1 0x0 PUSH2 0x5CB DUP3 PUSH2 0x6D8 JUMP JUMPDEST PUSH2 0x5D5 DUP2 DUP6 PUSH2 0x712 JUMP JUMPDEST SWAP4 POP PUSH2 0x5E5 DUP2 DUP6 PUSH1 0x20 DUP7 ADD PUSH2 0x73C JUMP JUMPDEST PUSH2 0x5EE DUP2 PUSH2 0x844 JUMP JUMPDEST DUP5 ADD SWAP2 POP POP SWAP3 SWAP2 POP POP JUMP JUMPDEST PUSH2 0x602 DUP2 PUSH2 0x723 JUMP JUMPDEST DUP3 MSTORE POP POP JUMP JUMPDEST PUSH1 0x0 PUSH1 0x20 DUP3 ADD SWAP1 POP DUP2 DUP2 SUB PUSH1 0x0 DUP4 ADD MSTORE PUSH2 0x622 DUP2 DUP5 PUSH2 0x512 JUMP JUMPDEST SWAP1 POP SWAP3 SWAP2 POP POP JUMP JUMPDEST PUSH1 0x0 PUSH1 0x20 DUP3 ADD SWAP1 POP DUP2 DUP2 SUB PUSH1 0x0 DUP4 ADD MSTORE PUSH2 0x644 DUP2 DUP5 PUSH2 0x5C0 JUMP JUMPDEST SWAP1 POP SWAP3 SWAP2 POP POP JUMP JUMPDEST PUSH1 0x0 PUSH1 0x20 DUP3 ADD SWAP1 POP PUSH2 0x661 PUSH1 0x0 DUP4 ADD DUP5 PUSH2 0x5F9 JUMP JUMPDEST SWAP3 SWAP2 POP POP JUMP JUMPDEST PUSH1 0x0 PUSH2 0x671 PUSH2 0x682 JUMP JUMPDEST SWAP1 POP PUSH2 0x67D DUP3 DUP3 PUSH2 0x7A1 JUMP JUMPDEST SWAP2 SWAP1 POP JUMP JUMPDEST PUSH1 0x0 PUSH1 0x40 MLOAD SWAP1 POP SWAP1 JUMP JUMPDEST PUSH1 0x0 PUSH8 0xFFFFFFFFFFFFFFFF DUP3 GT ISZERO PUSH2 0x6A7 JUMPI PUSH2 0x6A6 PUSH2 0x801 JUMP JUMPDEST JUMPDEST PUSH2 0x6B0 DUP3 PUSH2 0x844 JUMP JUMPDEST SWAP1 POP PUSH1 0x20 DUP2 ADD SWAP1 POP SWAP2 SWAP1 POP JUMP JUMPDEST PUSH1 0x0 DUP2 SWAP1 POP PUSH1 0x20 DUP3 ADD SWAP1 POP SWAP2 SWAP1 POP JUMP JUMPDEST PUSH1 0x0 DUP2 MLOAD SWAP1 POP SWAP2 SWAP1 POP JUMP JUMPDEST PUSH1 0x0 DUP2 MLOAD SWAP1 POP SWAP2 SWAP1 POP JUMP JUMPDEST PUSH1 0x0 PUSH1 0x20 DUP3 ADD SWAP1 POP SWAP2 SWAP1 POP JUMP JUMPDEST PUSH1 0x0 DUP3 DUP3 MSTORE PUSH1 0x20 DUP3 ADD SWAP1 POP SWAP3 SWAP2 POP POP JUMP JUMPDEST PUSH1 0x0 DUP3 DUP3 MSTORE PUSH1 0x20 DUP3 ADD SWAP1 POP SWAP3 SWAP2 POP POP JUMP JUMPDEST PUSH1 0x0 DUP3 DUP3 MSTORE PUSH1 0x20 DUP3 ADD SWAP1 POP SWAP3 SWAP2 POP POP JUMP JUMPDEST PUSH1 0x0 DUP2 SWAP1 POP SWAP2 SWAP1 POP JUMP JUMPDEST DUP3 DUP2 DUP4 CALLDATACOPY PUSH1 0x0 DUP4 DUP4 ADD MSTORE POP POP POP JUMP JUMPDEST PUSH1 0x0 JUMPDEST DUP4 DUP2 LT ISZERO PUSH2 0x75A JUMPI DUP1 DUP3 ADD MLOAD DUP2 DUP5 ADD MSTORE PUSH1 0x20 DUP2 ADD SWAP1 POP PUSH2 0x73F JUMP JUMPDEST DUP4 DUP2 GT ISZERO PUSH2 0x769 JUMPI PUSH1 0x0 DUP5 DUP5 ADD MSTORE JUMPDEST POP POP POP POP JUMP JUMPDEST PUSH1 0x0 PUSH1 0x2 DUP3 DIV SWAP1 POP PUSH1 0x1 DUP3 AND DUP1 PUSH2 0x787 JUMPI PUSH1 0x7F DUP3 AND SWAP2 POP JUMPDEST PUSH1 0x20 DUP3 LT DUP2 EQ ISZERO PUSH2 0x79B JUMPI PUSH2 0x79A PUSH2 0x7D2 JUMP JUMPDEST JUMPDEST POP SWAP2 SWAP1 POP JUMP JUMPDEST PUSH2 0x7AA DUP3 PUSH2 0x844 JUMP JUMPDEST DUP2 ADD DUP2 DUP2 LT PUSH8 0xFFFFFFFFFFFFFFFF DUP3 GT OR ISZERO PUSH2 0x7C9 JUMPI PUSH2 0x7C8 PUSH2 0x801 JUMP JUMPDEST JUMPDEST DUP1 PUSH1 0x40 MSTORE POP POP POP JUMP JUMPDEST PUSH32 0x4E487B7100000000000000000000000000000000000000000000000000000000 PUSH1 0x0 MSTORE PUSH1 0x22 PUSH1 0x4 MSTORE PUSH1 0x24 PUSH1 0x0 REVERT JUMPDEST PUSH32 0x4E487B7100000000000000000000000000000000000000000000000000000000 PUSH1 0x0 MSTORE PUSH1 0x41 PUSH1 0x4 MSTORE PUSH1 0x24 PUSH1 0x0 REVERT JUMPDEST PUSH1 0x0 DUP1 REVERT JUMPDEST PUSH1 0x0 DUP1 REVERT JUMPDEST PUSH1 0x0 DUP1 REVERT JUMPDEST PUSH1 0x0 DUP1 REVERT JUMPDEST PUSH1 0x0 PUSH1 0x1F NOT PUSH1 0x1F DUP4 ADD AND SWAP1 POP SWAP2 SWAP1 POP JUMP JUMPDEST PUSH2 0x85E DUP2 PUSH2 0x723 JUMP JUMPDEST DUP2 EQ PUSH2 0x869 JUMPI PUSH1 0x0 DUP1 REVERT JUMPDEST POP JUMP INVALID LOG2 PUSH5 0x6970667358 0x22 SLT KECCAK256 LOG4 0xE2 EXTCODESIZE EXTCODECOPY CALLVALUE GT DUP1 SAR 0xF6 0xBF 0xD2 0xD1 GASPRICE ADDRESS PUSH11 0x53AE81ADFDD2E1F0B4BB6D 0xD2 GAS 0xBC 0xCF CREATE PUSH17 0x64736F6C63430008070033000000000000 "
				},
				"gasEstimates": {
					"creation": {
						"codeDepositCost": "442000",
						"executionCost": "480",
						"totalCost": "442480"
					},
					"external": {
						"addSubscriber(string)": "infinite",
						"author()": "infinite",
						"getSubscriberCount()": "2423",
						"printSubscribersList()": "infinite",
						"subscribers(uint256)": "infinite"
					}
				},
				"methodIdentifiers": {
					"addSubscriber(string)": "2edd4fa5",
					"author()": "a6c3e6b9",
					"getSubscriberCount()": "17e703ab",
					"printSubscribersList()": "82d69b62",
					"subscribers(uint256)": "59221a68"
				}
			},
			"userdoc": {
				"kind": "user",
				"methods": {},
				"version": 1
			}
		}
	}
}