{
	"contracts/myContract.sol": {
		"testContract": {
			"abi": [
				{
					"inputs": [
						{
							"internalType": "uint256",
							"name": "fee",
							"type": "uint256"
						}
					],
					"stateMutability": "nonpayable",
					"type": "constructor"
				},
				{
					"stateMutability": "payable",
					"type": "fallback"
				},
				{
					"inputs": [],
					"name": "addSubscriber",
					"outputs": [],
					"stateMutability": "payable",
					"type": "function"
				},
				{
					"inputs": [],
					"name": "printSubscribersList",
					"outputs": [
						{
							"internalType": "address[]",
							"name": "",
							"type": "address[]"
						}
					],
					"stateMutability": "view",
					"type": "function"
				},
				{
					"inputs": [],
					"name": "subscriptionFee",
					"outputs": [
						{
							"internalType": "uint256",
							"name": "",
							"type": "uint256"
						}
					],
					"stateMutability": "view",
					"type": "function"
				},
				{
					"inputs": [],
					"name": "withdrawAmount",
					"outputs": [],
					"stateMutability": "payable",
					"type": "function"
				},
				{
					"stateMutability": "payable",
					"type": "receive"
				}
			],
			"devdoc": {
				"kind": "dev",
				"methods": {},
				"version": 1
			},
			"evm": {
				"assembly": "    /* \"contracts/myContract.sol\":76:1381  contract testContract {\r... */\n  mstore(0x40, 0x80)\n    /* \"contracts/myContract.sol\":193:194  0 */\n  0x00\n    /* \"contracts/myContract.sol\":162:194  uint private subscriberCount = 0 */\n  0x01\n  sstore\n    /* \"contracts/myContract.sol\":334:434  constructor(uint fee){\r... */\n  callvalue\n  dup1\n  iszero\n  tag_1\n  jumpi\n  0x00\n  dup1\n  revert\ntag_1:\n  pop\n  mload(0x40)\n  sub(codesize, bytecodeSize)\n  dup1\n  bytecodeSize\n  dup4\n  codecopy\n  dup2\n  dup2\n  add\n  0x40\n  mstore\n  dup2\n  add\n  swap1\n  tag_2\n  swap2\n  swap1\n  tag_3\n  jump\t// in\ntag_2:\n    /* \"contracts/myContract.sol\":383:393  msg.sender */\n  caller\n    /* \"contracts/myContract.sol\":366:372  author */\n  0x02\n  0x00\n    /* \"contracts/myContract.sol\":366:394  author = payable(msg.sender) */\n  0x0100\n  exp\n  dup2\n  sload\n  dup2\n  0xffffffffffffffffffffffffffffffffffffffff\n  mul\n  not\n  and\n  swap1\n  dup4\n  0xffffffffffffffffffffffffffffffffffffffff\n  and\n  mul\n  or\n  swap1\n  sstore\n  pop\n    /* \"contracts/myContract.sol\":423:426  fee */\n  dup1\n    /* \"contracts/myContract.sol\":405:420  subscriptionFee */\n  0x03\n    /* \"contracts/myContract.sol\":405:426  subscriptionFee = fee */\n  dup2\n  swap1\n  sstore\n  pop\n    /* \"contracts/myContract.sol\":334:434  constructor(uint fee){\r... */\n  pop\n    /* \"contracts/myContract.sol\":76:1381  contract testContract {\r... */\n  jump(tag_6)\n    /* \"#utility.yul\":7:150   */\ntag_8:\n    /* \"#utility.yul\":64:69   */\n  0x00\n    /* \"#utility.yul\":95:101   */\n  dup2\n    /* \"#utility.yul\":89:102   */\n  mload\n    /* \"#utility.yul\":80:102   */\n  swap1\n  pop\n    /* \"#utility.yul\":111:144   */\n  tag_10\n    /* \"#utility.yul\":138:143   */\n  dup2\n    /* \"#utility.yul\":111:144   */\n  tag_11\n  jump\t// in\ntag_10:\n    /* \"#utility.yul\":7:150   */\n  swap3\n  swap2\n  pop\n  pop\n  jump\t// out\n    /* \"#utility.yul\":156:507   */\ntag_3:\n    /* \"#utility.yul\":226:232   */\n  0x00\n    /* \"#utility.yul\":275:277   */\n  0x20\n    /* \"#utility.yul\":263:272   */\n  dup3\n    /* \"#utility.yul\":254:261   */\n  dup5\n    /* \"#utility.yul\":250:273   */\n  sub\n    /* \"#utility.yul\":246:278   */\n  slt\n    /* \"#utility.yul\":243:362   */\n  iszero\n  tag_13\n  jumpi\n    /* \"#utility.yul\":281:360   */\n  tag_14\n  tag_15\n  jump\t// in\ntag_14:\n    /* \"#utility.yul\":243:362   */\ntag_13:\n    /* \"#utility.yul\":401:402   */\n  0x00\n    /* \"#utility.yul\":426:490   */\n  tag_16\n    /* \"#utility.yul\":482:489   */\n  dup5\n    /* \"#utility.yul\":473:479   */\n  dup3\n    /* \"#utility.yul\":462:471   */\n  dup6\n    /* \"#utility.yul\":458:480   */\n  add\n    /* \"#utility.yul\":426:490   */\n  tag_8\n  jump\t// in\ntag_16:\n    /* \"#utility.yul\":416:490   */\n  swap2\n  pop\n    /* \"#utility.yul\":372:500   */\n  pop\n    /* \"#utility.yul\":156:507   */\n  swap3\n  swap2\n  pop\n  pop\n  jump\t// out\n    /* \"#utility.yul\":594:671   */\ntag_19:\n    /* \"#utility.yul\":631:638   */\n  0x00\n    /* \"#utility.yul\":660:665   */\n  dup2\n    /* \"#utility.yul\":649:665   */\n  swap1\n  pop\n    /* \"#utility.yul\":594:671   */\n  swap2\n  swap1\n  pop\n  jump\t// out\n    /* \"#utility.yul\":800:917   */\ntag_15:\n    /* \"#utility.yul\":909:910   */\n  0x00\n    /* \"#utility.yul\":906:907   */\n  dup1\n    /* \"#utility.yul\":899:911   */\n  revert\n    /* \"#utility.yul\":923:1045   */\ntag_11:\n    /* \"#utility.yul\":996:1020   */\n  tag_25\n    /* \"#utility.yul\":1014:1019   */\n  dup2\n    /* \"#utility.yul\":996:1020   */\n  tag_19\n  jump\t// in\ntag_25:\n    /* \"#utility.yul\":989:994   */\n  dup2\n    /* \"#utility.yul\":986:1021   */\n  eq\n    /* \"#utility.yul\":976:1039   */\n  tag_26\n  jumpi\n    /* \"#utility.yul\":1035:1036   */\n  0x00\n    /* \"#utility.yul\":1032:1033   */\n  dup1\n    /* \"#utility.yul\":1025:1037   */\n  revert\n    /* \"#utility.yul\":976:1039   */\ntag_26:\n    /* \"#utility.yul\":923:1045   */\n  pop\n  jump\t// out\n    /* \"contracts/myContract.sol\":76:1381  contract testContract {\r... */\ntag_6:\n  dataSize(sub_0)\n  dup1\n  dataOffset(sub_0)\n  0x00\n  codecopy\n  0x00\n  return\nstop\n\nsub_0: assembly {\n        /* \"contracts/myContract.sol\":76:1381  contract testContract {\r... */\n      mstore(0x40, 0x80)\n      jumpi(tag_1, lt(calldatasize, 0x04))\n      shr(0xe0, calldataload(0x00))\n      dup1\n      0x0aa0a175\n      eq\n      tag_3\n      jumpi\n      dup1\n      0x534844a2\n      eq\n      tag_4\n      jumpi\n      dup1\n      0x82d69b62\n      eq\n      tag_5\n      jumpi\n      dup1\n      0xbe291999\n      eq\n      tag_6\n      jumpi\n      jump(tag_2)\n    tag_1:\n      jumpi(tag_2, calldatasize)\n        /* \"contracts/myContract.sol\":1305:1320  subscriptionFee */\n      sload(0x03)\n        /* \"contracts/myContract.sol\":1291:1300  msg.value */\n      callvalue\n        /* \"contracts/myContract.sol\":1291:1320  msg.value ==  subscriptionFee */\n      eq\n        /* \"contracts/myContract.sol\":1282:1368  require( msg.value ==  subscriptionFee , \"Payment should be the subscription fee\"    ) */\n      tag_9\n      jumpi\n      mload(0x40)\n      0x08c379a000000000000000000000000000000000000000000000000000000000\n      dup2\n      mstore\n      0x04\n      add\n      tag_10\n      swap1\n      tag_11\n      jump\t// in\n    tag_10:\n      mload(0x40)\n      dup1\n      swap2\n      sub\n      swap1\n      revert\n    tag_9:\n        /* \"contracts/myContract.sol\":76:1381  contract testContract {\r... */\n      stop\n    tag_2:\n        /* \"contracts/myContract.sol\":1166:1181  subscriptionFee */\n      sload(0x03)\n        /* \"contracts/myContract.sol\":1152:1161  msg.value */\n      callvalue\n        /* \"contracts/myContract.sol\":1152:1181  msg.value ==  subscriptionFee */\n      eq\n        /* \"contracts/myContract.sol\":1143:1229  require( msg.value ==  subscriptionFee , \"Payment should be the subscription fee\"    ) */\n      tag_14\n      jumpi\n      mload(0x40)\n      0x08c379a000000000000000000000000000000000000000000000000000000000\n      dup2\n      mstore\n      0x04\n      add\n      tag_15\n      swap1\n      tag_11\n      jump\t// in\n    tag_15:\n      mload(0x40)\n      dup1\n      swap2\n      sub\n      swap1\n      revert\n    tag_14:\n        /* \"contracts/myContract.sol\":76:1381  contract testContract {\r... */\n      stop\n        /* \"contracts/myContract.sol\":240:267  uint public subscriptionFee */\n    tag_3:\n      callvalue\n      dup1\n      iszero\n      tag_16\n      jumpi\n      0x00\n      dup1\n      revert\n    tag_16:\n      pop\n      tag_17\n      tag_18\n      jump\t// in\n    tag_17:\n      mload(0x40)\n      tag_19\n      swap2\n      swap1\n      tag_20\n      jump\t// in\n    tag_19:\n      mload(0x40)\n      dup1\n      swap2\n      sub\n      swap1\n      return\n        /* \"contracts/myContract.sol\":631:826  function withdrawAmount() payable public{\r... */\n    tag_4:\n      tag_21\n      tag_22\n      jump\t// in\n    tag_21:\n      stop\n        /* \"contracts/myContract.sol\":834:1097  function printSubscribersList() public view returns(address[] memory){\r... */\n    tag_5:\n      callvalue\n      dup1\n      iszero\n      tag_23\n      jumpi\n      0x00\n      dup1\n      revert\n    tag_23:\n      pop\n      tag_24\n      tag_25\n      jump\t// in\n    tag_24:\n      mload(0x40)\n      tag_26\n      swap2\n      swap1\n      tag_27\n      jump\t// in\n    tag_26:\n      mload(0x40)\n      dup1\n      swap2\n      sub\n      swap1\n      return\n        /* \"contracts/myContract.sol\":442:622  function addSubscriber() public payable{\r... */\n    tag_6:\n      tag_28\n      tag_29\n      jump\t// in\n    tag_28:\n      stop\n        /* \"contracts/myContract.sol\":240:267  uint public subscriptionFee */\n    tag_18:\n      sload(0x03)\n      dup2\n      jump\t// out\n        /* \"contracts/myContract.sol\":631:826  function withdrawAmount() payable public{\r... */\n    tag_22:\n        /* \"contracts/myContract.sol\":718:724  author */\n      0x02\n      0x00\n      swap1\n      sload\n      swap1\n      0x0100\n      exp\n      swap1\n      div\n      0xffffffffffffffffffffffffffffffffffffffff\n      and\n        /* \"contracts/myContract.sol\":704:724  msg.sender == author */\n      0xffffffffffffffffffffffffffffffffffffffff\n      and\n        /* \"contracts/myContract.sol\":704:714  msg.sender */\n      caller\n        /* \"contracts/myContract.sol\":704:724  msg.sender == author */\n      0xffffffffffffffffffffffffffffffffffffffff\n      and\n      eq\n        /* \"contracts/myContract.sol\":682:760  require(\r... */\n      tag_31\n      jumpi\n      mload(0x40)\n      0x08c379a000000000000000000000000000000000000000000000000000000000\n      dup2\n      mstore\n      0x04\n      add\n      tag_32\n      swap1\n      tag_33\n      jump\t// in\n    tag_32:\n      mload(0x40)\n      dup1\n      swap2\n      sub\n      swap1\n      revert\n    tag_31:\n        /* \"contracts/myContract.sol\":779:785  author */\n      0x02\n      0x00\n      swap1\n      sload\n      swap1\n      0x0100\n      exp\n      swap1\n      div\n      0xffffffffffffffffffffffffffffffffffffffff\n      and\n        /* \"contracts/myContract.sol\":771:795  payable(author).transfer */\n      0xffffffffffffffffffffffffffffffffffffffff\n      and\n        /* \"contracts/myContract.sol\":771:818  payable(author).transfer(address(this).balance) */\n      0x08fc\n        /* \"contracts/myContract.sol\":796:817  address(this).balance */\n      selfbalance\n        /* \"contracts/myContract.sol\":771:818  payable(author).transfer(address(this).balance) */\n      swap1\n      dup2\n      iszero\n      mul\n      swap1\n      mload(0x40)\n      0x00\n      mload(0x40)\n      dup1\n      dup4\n      sub\n      dup2\n      dup6\n      dup9\n      dup9\n      call\n      swap4\n      pop\n      pop\n      pop\n      pop\n      iszero\n      dup1\n      iszero\n      tag_35\n      jumpi\n      returndatasize\n      0x00\n      dup1\n      returndatacopy\n      revert(0x00, returndatasize)\n    tag_35:\n      pop\n        /* \"contracts/myContract.sol\":631:826  function withdrawAmount() payable public{\r... */\n      jump\t// out\n        /* \"contracts/myContract.sol\":834:1097  function printSubscribersList() public view returns(address[] memory){\r... */\n    tag_25:\n        /* \"contracts/myContract.sol\":886:902  address[] memory */\n      0x60\n        /* \"contracts/myContract.sol\":914:934  address[] memory ret */\n      0x00\n        /* \"contracts/myContract.sol\":951:966  subscriberCount */\n      sload(0x01)\n        /* \"contracts/myContract.sol\":937:967  new address[](subscriberCount) */\n      0xffffffffffffffff\n      dup2\n      gt\n      iszero\n      tag_37\n      jumpi\n      tag_38\n      tag_39\n      jump\t// in\n    tag_38:\n    tag_37:\n      mload(0x40)\n      swap1\n      dup1\n      dup3\n      mstore\n      dup1\n      0x20\n      mul\n      0x20\n      add\n      dup3\n      add\n      0x40\n      mstore\n      dup1\n      iszero\n      tag_40\n      jumpi\n      dup2\n      0x20\n      add\n      0x20\n      dup3\n      mul\n      dup1\n      calldatasize\n      dup4\n      calldatacopy\n      dup1\n      dup3\n      add\n      swap2\n      pop\n      pop\n      swap1\n      pop\n    tag_40:\n      pop\n        /* \"contracts/myContract.sol\":914:967  address[] memory ret = new address[](subscriberCount) */\n      swap1\n      pop\n        /* \"contracts/myContract.sol\":982:988  uint i */\n      0x00\n        /* \"contracts/myContract.sol\":978:1069  for(uint i = 0; i < subscriberCount; i++){\r... */\n    tag_41:\n        /* \"contracts/myContract.sol\":998:1013  subscriberCount */\n      sload(0x01)\n        /* \"contracts/myContract.sol\":994:995  i */\n      dup2\n        /* \"contracts/myContract.sol\":994:1013  i < subscriberCount */\n      lt\n        /* \"contracts/myContract.sol\":978:1069  for(uint i = 0; i < subscriberCount; i++){\r... */\n      iszero\n      tag_42\n      jumpi\n        /* \"contracts/myContract.sol\":1043:1054  subscribers */\n      0x00\n        /* \"contracts/myContract.sol\":1043:1057  subscribers[i] */\n      dup1\n        /* \"contracts/myContract.sol\":1055:1056  i */\n      dup3\n        /* \"contracts/myContract.sol\":1043:1057  subscribers[i] */\n      dup2\n      mstore\n      0x20\n      add\n      swap1\n      dup2\n      mstore\n      0x20\n      add\n      0x00\n      keccak256\n      0x00\n      swap1\n      sload\n      swap1\n      0x0100\n      exp\n      swap1\n      div\n      0xffffffffffffffffffffffffffffffffffffffff\n      and\n        /* \"contracts/myContract.sol\":1034:1037  ret */\n      dup3\n        /* \"contracts/myContract.sol\":1038:1039  i */\n      dup3\n        /* \"contracts/myContract.sol\":1034:1040  ret[i] */\n      dup2\n      mload\n      dup2\n      lt\n      tag_44\n      jumpi\n      tag_45\n      tag_46\n      jump\t// in\n    tag_45:\n    tag_44:\n      0x20\n      mul\n      0x20\n      add\n      add\n        /* \"contracts/myContract.sol\":1034:1057  ret[i] = subscribers[i] */\n      swap1\n      0xffffffffffffffffffffffffffffffffffffffff\n      and\n      swap1\n      dup2\n      0xffffffffffffffffffffffffffffffffffffffff\n      and\n      dup2\n      mstore\n      pop\n      pop\n        /* \"contracts/myContract.sol\":1015:1018  i++ */\n      dup1\n      dup1\n      tag_47\n      swap1\n      tag_48\n      jump\t// in\n    tag_47:\n      swap2\n      pop\n      pop\n        /* \"contracts/myContract.sol\":978:1069  for(uint i = 0; i < subscriberCount; i++){\r... */\n      jump(tag_41)\n    tag_42:\n      pop\n        /* \"contracts/myContract.sol\":1086:1089  ret */\n      dup1\n        /* \"contracts/myContract.sol\":1079:1089  return ret */\n      swap2\n      pop\n      pop\n        /* \"contracts/myContract.sol\":834:1097  function printSubscribersList() public view returns(address[] memory){\r... */\n      swap1\n      jump\t// out\n        /* \"contracts/myContract.sol\":442:622  function addSubscriber() public payable{\r... */\n    tag_29:\n        /* \"contracts/myContract.sol\":523:533  msg.sender */\n      caller\n        /* \"contracts/myContract.sol\":492:503  subscribers */\n      0x00\n        /* \"contracts/myContract.sol\":492:520  subscribers[subscriberCount] */\n      dup1\n        /* \"contracts/myContract.sol\":504:519  subscriberCount */\n      sload(0x01)\n        /* \"contracts/myContract.sol\":492:520  subscribers[subscriberCount] */\n      dup2\n      mstore\n      0x20\n      add\n      swap1\n      dup2\n      mstore\n      0x20\n      add\n      0x00\n      keccak256\n      0x00\n        /* \"contracts/myContract.sol\":492:533  subscribers[subscriberCount] = msg.sender */\n      0x0100\n      exp\n      dup2\n      sload\n      dup2\n      0xffffffffffffffffffffffffffffffffffffffff\n      mul\n      not\n      and\n      swap1\n      dup4\n      0xffffffffffffffffffffffffffffffffffffffff\n      and\n      mul\n      or\n      swap1\n      sstore\n      pop\n        /* \"contracts/myContract.sol\":544:559  subscriberCount */\n      0x01\n      0x00\n        /* \"contracts/myContract.sol\":544:561  subscriberCount++ */\n      dup2\n      sload\n      dup1\n      swap3\n      swap2\n      swap1\n      tag_50\n      swap1\n      tag_48\n      jump\t// in\n    tag_50:\n      swap2\n      swap1\n      pop\n      sstore\n      pop\n        /* \"contracts/myContract.sol\":588:592  this */\n      address\n        /* \"contracts/myContract.sol\":572:603  payable(address(this)).transfer */\n      0xffffffffffffffffffffffffffffffffffffffff\n      and\n        /* \"contracts/myContract.sol\":572:614  payable(address(this)).transfer(msg.value) */\n      0x08fc\n        /* \"contracts/myContract.sol\":604:613  msg.value */\n      callvalue\n        /* \"contracts/myContract.sol\":572:614  payable(address(this)).transfer(msg.value) */\n      swap1\n      dup2\n      iszero\n      mul\n      swap1\n      mload(0x40)\n      0x00\n      mload(0x40)\n      dup1\n      dup4\n      sub\n      dup2\n      dup6\n      dup9\n      dup9\n      call\n      swap4\n      pop\n      pop\n      pop\n      pop\n      iszero\n      dup1\n      iszero\n      tag_52\n      jumpi\n      returndatasize\n      0x00\n      dup1\n      returndatacopy\n      revert(0x00, returndatasize)\n    tag_52:\n      pop\n        /* \"contracts/myContract.sol\":442:622  function addSubscriber() public payable{\r... */\n      jump\t// out\n        /* \"#utility.yul\":7:186   */\n    tag_54:\n        /* \"#utility.yul\":76:86   */\n      0x00\n        /* \"#utility.yul\":97:143   */\n      tag_56\n        /* \"#utility.yul\":139:142   */\n      dup4\n        /* \"#utility.yul\":131:137   */\n      dup4\n        /* \"#utility.yul\":97:143   */\n      tag_57\n      jump\t// in\n    tag_56:\n        /* \"#utility.yul\":175:179   */\n      0x20\n        /* \"#utility.yul\":170:173   */\n      dup4\n        /* \"#utility.yul\":166:180   */\n      add\n        /* \"#utility.yul\":152:180   */\n      swap1\n      pop\n        /* \"#utility.yul\":7:186   */\n      swap3\n      swap2\n      pop\n      pop\n      jump\t// out\n        /* \"#utility.yul\":192:300   */\n    tag_57:\n        /* \"#utility.yul\":269:293   */\n      tag_59\n        /* \"#utility.yul\":287:292   */\n      dup2\n        /* \"#utility.yul\":269:293   */\n      tag_60\n      jump\t// in\n    tag_59:\n        /* \"#utility.yul\":264:267   */\n      dup3\n        /* \"#utility.yul\":257:294   */\n      mstore\n        /* \"#utility.yul\":192:300   */\n      pop\n      pop\n      jump\t// out\n        /* \"#utility.yul\":336:1068   */\n    tag_61:\n        /* \"#utility.yul\":455:458   */\n      0x00\n        /* \"#utility.yul\":484:538   */\n      tag_63\n        /* \"#utility.yul\":532:537   */\n      dup3\n        /* \"#utility.yul\":484:538   */\n      tag_64\n      jump\t// in\n    tag_63:\n        /* \"#utility.yul\":554:640   */\n      tag_65\n        /* \"#utility.yul\":633:639   */\n      dup2\n        /* \"#utility.yul\":628:631   */\n      dup6\n        /* \"#utility.yul\":554:640   */\n      tag_66\n      jump\t// in\n    tag_65:\n        /* \"#utility.yul\":547:640   */\n      swap4\n      pop\n        /* \"#utility.yul\":664:720   */\n      tag_67\n        /* \"#utility.yul\":714:719   */\n      dup4\n        /* \"#utility.yul\":664:720   */\n      tag_68\n      jump\t// in\n    tag_67:\n        /* \"#utility.yul\":743:750   */\n      dup1\n        /* \"#utility.yul\":774:775   */\n      0x00\n        /* \"#utility.yul\":759:1043   */\n    tag_69:\n        /* \"#utility.yul\":784:790   */\n      dup4\n        /* \"#utility.yul\":781:782   */\n      dup2\n        /* \"#utility.yul\":778:791   */\n      lt\n        /* \"#utility.yul\":759:1043   */\n      iszero\n      tag_71\n      jumpi\n        /* \"#utility.yul\":860:866   */\n      dup2\n        /* \"#utility.yul\":854:867   */\n      mload\n        /* \"#utility.yul\":887:950   */\n      tag_72\n        /* \"#utility.yul\":946:949   */\n      dup9\n        /* \"#utility.yul\":931:944   */\n      dup3\n        /* \"#utility.yul\":887:950   */\n      tag_54\n      jump\t// in\n    tag_72:\n        /* \"#utility.yul\":880:950   */\n      swap8\n      pop\n        /* \"#utility.yul\":973:1033   */\n      tag_73\n        /* \"#utility.yul\":1026:1032   */\n      dup4\n        /* \"#utility.yul\":973:1033   */\n      tag_74\n      jump\t// in\n    tag_73:\n        /* \"#utility.yul\":963:1033   */\n      swap3\n      pop\n        /* \"#utility.yul\":819:1043   */\n      pop\n        /* \"#utility.yul\":806:807   */\n      0x01\n        /* \"#utility.yul\":803:804   */\n      dup2\n        /* \"#utility.yul\":799:808   */\n      add\n        /* \"#utility.yul\":794:808   */\n      swap1\n      pop\n        /* \"#utility.yul\":759:1043   */\n      jump(tag_69)\n    tag_71:\n        /* \"#utility.yul\":763:777   */\n      pop\n        /* \"#utility.yul\":1059:1062   */\n      dup6\n        /* \"#utility.yul\":1052:1062   */\n      swap4\n      pop\n        /* \"#utility.yul\":460:1068   */\n      pop\n      pop\n      pop\n        /* \"#utility.yul\":336:1068   */\n      swap3\n      swap2\n      pop\n      pop\n      jump\t// out\n        /* \"#utility.yul\":1074:1440   */\n    tag_75:\n        /* \"#utility.yul\":1216:1219   */\n      0x00\n        /* \"#utility.yul\":1237:1304   */\n      tag_77\n        /* \"#utility.yul\":1301:1303   */\n      0x26\n        /* \"#utility.yul\":1296:1299   */\n      dup4\n        /* \"#utility.yul\":1237:1304   */\n      tag_78\n      jump\t// in\n    tag_77:\n        /* \"#utility.yul\":1230:1304   */\n      swap2\n      pop\n        /* \"#utility.yul\":1313:1406   */\n      tag_79\n        /* \"#utility.yul\":1402:1405   */\n      dup3\n        /* \"#utility.yul\":1313:1406   */\n      tag_80\n      jump\t// in\n    tag_79:\n        /* \"#utility.yul\":1431:1433   */\n      0x40\n        /* \"#utility.yul\":1426:1429   */\n      dup3\n        /* \"#utility.yul\":1422:1434   */\n      add\n        /* \"#utility.yul\":1415:1434   */\n      swap1\n      pop\n        /* \"#utility.yul\":1074:1440   */\n      swap2\n      swap1\n      pop\n      jump\t// out\n        /* \"#utility.yul\":1446:1812   */\n    tag_81:\n        /* \"#utility.yul\":1588:1591   */\n      0x00\n        /* \"#utility.yul\":1609:1676   */\n      tag_83\n        /* \"#utility.yul\":1673:1675   */\n      0x15\n        /* \"#utility.yul\":1668:1671   */\n      dup4\n        /* \"#utility.yul\":1609:1676   */\n      tag_78\n      jump\t// in\n    tag_83:\n        /* \"#utility.yul\":1602:1676   */\n      swap2\n      pop\n        /* \"#utility.yul\":1685:1778   */\n      tag_84\n        /* \"#utility.yul\":1774:1777   */\n      dup3\n        /* \"#utility.yul\":1685:1778   */\n      tag_85\n      jump\t// in\n    tag_84:\n        /* \"#utility.yul\":1803:1805   */\n      0x20\n        /* \"#utility.yul\":1798:1801   */\n      dup3\n        /* \"#utility.yul\":1794:1806   */\n      add\n        /* \"#utility.yul\":1787:1806   */\n      swap1\n      pop\n        /* \"#utility.yul\":1446:1812   */\n      swap2\n      swap1\n      pop\n      jump\t// out\n        /* \"#utility.yul\":1818:1936   */\n    tag_86:\n        /* \"#utility.yul\":1905:1929   */\n      tag_88\n        /* \"#utility.yul\":1923:1928   */\n      dup2\n        /* \"#utility.yul\":1905:1929   */\n      tag_89\n      jump\t// in\n    tag_88:\n        /* \"#utility.yul\":1900:1903   */\n      dup3\n        /* \"#utility.yul\":1893:1930   */\n      mstore\n        /* \"#utility.yul\":1818:1936   */\n      pop\n      pop\n      jump\t// out\n        /* \"#utility.yul\":1942:2315   */\n    tag_27:\n        /* \"#utility.yul\":2085:2089   */\n      0x00\n        /* \"#utility.yul\":2123:2125   */\n      0x20\n        /* \"#utility.yul\":2112:2121   */\n      dup3\n        /* \"#utility.yul\":2108:2126   */\n      add\n        /* \"#utility.yul\":2100:2126   */\n      swap1\n      pop\n        /* \"#utility.yul\":2172:2181   */\n      dup2\n        /* \"#utility.yul\":2166:2170   */\n      dup2\n        /* \"#utility.yul\":2162:2182   */\n      sub\n        /* \"#utility.yul\":2158:2159   */\n      0x00\n        /* \"#utility.yul\":2147:2156   */\n      dup4\n        /* \"#utility.yul\":2143:2160   */\n      add\n        /* \"#utility.yul\":2136:2183   */\n      mstore\n        /* \"#utility.yul\":2200:2308   */\n      tag_91\n        /* \"#utility.yul\":2303:2307   */\n      dup2\n        /* \"#utility.yul\":2294:2300   */\n      dup5\n        /* \"#utility.yul\":2200:2308   */\n      tag_61\n      jump\t// in\n    tag_91:\n        /* \"#utility.yul\":2192:2308   */\n      swap1\n      pop\n        /* \"#utility.yul\":1942:2315   */\n      swap3\n      swap2\n      pop\n      pop\n      jump\t// out\n        /* \"#utility.yul\":2321:2740   */\n    tag_11:\n        /* \"#utility.yul\":2487:2491   */\n      0x00\n        /* \"#utility.yul\":2525:2527   */\n      0x20\n        /* \"#utility.yul\":2514:2523   */\n      dup3\n        /* \"#utility.yul\":2510:2528   */\n      add\n        /* \"#utility.yul\":2502:2528   */\n      swap1\n      pop\n        /* \"#utility.yul\":2574:2583   */\n      dup2\n        /* \"#utility.yul\":2568:2572   */\n      dup2\n        /* \"#utility.yul\":2564:2584   */\n      sub\n        /* \"#utility.yul\":2560:2561   */\n      0x00\n        /* \"#utility.yul\":2549:2558   */\n      dup4\n        /* \"#utility.yul\":2545:2562   */\n      add\n        /* \"#utility.yul\":2538:2585   */\n      mstore\n        /* \"#utility.yul\":2602:2733   */\n      tag_93\n        /* \"#utility.yul\":2728:2732   */\n      dup2\n        /* \"#utility.yul\":2602:2733   */\n      tag_75\n      jump\t// in\n    tag_93:\n        /* \"#utility.yul\":2594:2733   */\n      swap1\n      pop\n        /* \"#utility.yul\":2321:2740   */\n      swap2\n      swap1\n      pop\n      jump\t// out\n        /* \"#utility.yul\":2746:3165   */\n    tag_33:\n        /* \"#utility.yul\":2912:2916   */\n      0x00\n        /* \"#utility.yul\":2950:2952   */\n      0x20\n        /* \"#utility.yul\":2939:2948   */\n      dup3\n        /* \"#utility.yul\":2935:2953   */\n      add\n        /* \"#utility.yul\":2927:2953   */\n      swap1\n      pop\n        /* \"#utility.yul\":2999:3008   */\n      dup2\n        /* \"#utility.yul\":2993:2997   */\n      dup2\n        /* \"#utility.yul\":2989:3009   */\n      sub\n        /* \"#utility.yul\":2985:2986   */\n      0x00\n        /* \"#utility.yul\":2974:2983   */\n      dup4\n        /* \"#utility.yul\":2970:2987   */\n      add\n        /* \"#utility.yul\":2963:3010   */\n      mstore\n        /* \"#utility.yul\":3027:3158   */\n      tag_95\n        /* \"#utility.yul\":3153:3157   */\n      dup2\n        /* \"#utility.yul\":3027:3158   */\n      tag_81\n      jump\t// in\n    tag_95:\n        /* \"#utility.yul\":3019:3158   */\n      swap1\n      pop\n        /* \"#utility.yul\":2746:3165   */\n      swap2\n      swap1\n      pop\n      jump\t// out\n        /* \"#utility.yul\":3171:3393   */\n    tag_20:\n        /* \"#utility.yul\":3264:3268   */\n      0x00\n        /* \"#utility.yul\":3302:3304   */\n      0x20\n        /* \"#utility.yul\":3291:3300   */\n      dup3\n        /* \"#utility.yul\":3287:3305   */\n      add\n        /* \"#utility.yul\":3279:3305   */\n      swap1\n      pop\n        /* \"#utility.yul\":3315:3386   */\n      tag_97\n        /* \"#utility.yul\":3383:3384   */\n      0x00\n        /* \"#utility.yul\":3372:3381   */\n      dup4\n        /* \"#utility.yul\":3368:3385   */\n      add\n        /* \"#utility.yul\":3359:3365   */\n      dup5\n        /* \"#utility.yul\":3315:3386   */\n      tag_86\n      jump\t// in\n    tag_97:\n        /* \"#utility.yul\":3171:3393   */\n      swap3\n      swap2\n      pop\n      pop\n      jump\t// out\n        /* \"#utility.yul\":3399:3531   */\n    tag_68:\n        /* \"#utility.yul\":3466:3470   */\n      0x00\n        /* \"#utility.yul\":3489:3492   */\n      dup2\n        /* \"#utility.yul\":3481:3492   */\n      swap1\n      pop\n        /* \"#utility.yul\":3519:3523   */\n      0x20\n        /* \"#utility.yul\":3514:3517   */\n      dup3\n        /* \"#utility.yul\":3510:3524   */\n      add\n        /* \"#utility.yul\":3502:3524   */\n      swap1\n      pop\n        /* \"#utility.yul\":3399:3531   */\n      swap2\n      swap1\n      pop\n      jump\t// out\n        /* \"#utility.yul\":3537:3651   */\n    tag_64:\n        /* \"#utility.yul\":3604:3610   */\n      0x00\n        /* \"#utility.yul\":3638:3643   */\n      dup2\n        /* \"#utility.yul\":3632:3644   */\n      mload\n        /* \"#utility.yul\":3622:3644   */\n      swap1\n      pop\n        /* \"#utility.yul\":3537:3651   */\n      swap2\n      swap1\n      pop\n      jump\t// out\n        /* \"#utility.yul\":3657:3770   */\n    tag_74:\n        /* \"#utility.yul\":3727:3731   */\n      0x00\n        /* \"#utility.yul\":3759:3763   */\n      0x20\n        /* \"#utility.yul\":3754:3757   */\n      dup3\n        /* \"#utility.yul\":3750:3764   */\n      add\n        /* \"#utility.yul\":3742:3764   */\n      swap1\n      pop\n        /* \"#utility.yul\":3657:3770   */\n      swap2\n      swap1\n      pop\n      jump\t// out\n        /* \"#utility.yul\":3776:3960   */\n    tag_66:\n        /* \"#utility.yul\":3875:3886   */\n      0x00\n        /* \"#utility.yul\":3909:3915   */\n      dup3\n        /* \"#utility.yul\":3904:3907   */\n      dup3\n        /* \"#utility.yul\":3897:3916   */\n      mstore\n        /* \"#utility.yul\":3949:3953   */\n      0x20\n        /* \"#utility.yul\":3944:3947   */\n      dup3\n        /* \"#utility.yul\":3940:3954   */\n      add\n        /* \"#utility.yul\":3925:3954   */\n      swap1\n      pop\n        /* \"#utility.yul\":3776:3960   */\n      swap3\n      swap2\n      pop\n      pop\n      jump\t// out\n        /* \"#utility.yul\":3966:4135   */\n    tag_78:\n        /* \"#utility.yul\":4050:4061   */\n      0x00\n        /* \"#utility.yul\":4084:4090   */\n      dup3\n        /* \"#utility.yul\":4079:4082   */\n      dup3\n        /* \"#utility.yul\":4072:4091   */\n      mstore\n        /* \"#utility.yul\":4124:4128   */\n      0x20\n        /* \"#utility.yul\":4119:4122   */\n      dup3\n        /* \"#utility.yul\":4115:4129   */\n      add\n        /* \"#utility.yul\":4100:4129   */\n      swap1\n      pop\n        /* \"#utility.yul\":3966:4135   */\n      swap3\n      swap2\n      pop\n      pop\n      jump\t// out\n        /* \"#utility.yul\":4141:4237   */\n    tag_60:\n        /* \"#utility.yul\":4178:4185   */\n      0x00\n        /* \"#utility.yul\":4207:4231   */\n      tag_104\n        /* \"#utility.yul\":4225:4230   */\n      dup3\n        /* \"#utility.yul\":4207:4231   */\n      tag_105\n      jump\t// in\n    tag_104:\n        /* \"#utility.yul\":4196:4231   */\n      swap1\n      pop\n        /* \"#utility.yul\":4141:4237   */\n      swap2\n      swap1\n      pop\n      jump\t// out\n        /* \"#utility.yul\":4243:4369   */\n    tag_105:\n        /* \"#utility.yul\":4280:4287   */\n      0x00\n        /* \"#utility.yul\":4320:4362   */\n      0xffffffffffffffffffffffffffffffffffffffff\n        /* \"#utility.yul\":4313:4318   */\n      dup3\n        /* \"#utility.yul\":4309:4363   */\n      and\n        /* \"#utility.yul\":4298:4363   */\n      swap1\n      pop\n        /* \"#utility.yul\":4243:4369   */\n      swap2\n      swap1\n      pop\n      jump\t// out\n        /* \"#utility.yul\":4375:4452   */\n    tag_89:\n        /* \"#utility.yul\":4412:4419   */\n      0x00\n        /* \"#utility.yul\":4441:4446   */\n      dup2\n        /* \"#utility.yul\":4430:4446   */\n      swap1\n      pop\n        /* \"#utility.yul\":4375:4452   */\n      swap2\n      swap1\n      pop\n      jump\t// out\n        /* \"#utility.yul\":4458:4691   */\n    tag_48:\n        /* \"#utility.yul\":4497:4500   */\n      0x00\n        /* \"#utility.yul\":4520:4544   */\n      tag_109\n        /* \"#utility.yul\":4538:4543   */\n      dup3\n        /* \"#utility.yul\":4520:4544   */\n      tag_89\n      jump\t// in\n    tag_109:\n        /* \"#utility.yul\":4511:4544   */\n      swap2\n      pop\n        /* \"#utility.yul\":4566:4632   */\n      0xffffffffffffffffffffffffffffffffffffffffffffffffffffffffffffffff\n        /* \"#utility.yul\":4559:4564   */\n      dup3\n        /* \"#utility.yul\":4556:4633   */\n      eq\n        /* \"#utility.yul\":4553:4656   */\n      iszero\n      tag_110\n      jumpi\n        /* \"#utility.yul\":4636:4654   */\n      tag_111\n      tag_112\n      jump\t// in\n    tag_111:\n        /* \"#utility.yul\":4553:4656   */\n    tag_110:\n        /* \"#utility.yul\":4683:4684   */\n      0x01\n        /* \"#utility.yul\":4676:4681   */\n      dup3\n        /* \"#utility.yul\":4672:4685   */\n      add\n        /* \"#utility.yul\":4665:4685   */\n      swap1\n      pop\n        /* \"#utility.yul\":4458:4691   */\n      swap2\n      swap1\n      pop\n      jump\t// out\n        /* \"#utility.yul\":4697:4877   */\n    tag_112:\n        /* \"#utility.yul\":4745:4822   */\n      0x4e487b7100000000000000000000000000000000000000000000000000000000\n        /* \"#utility.yul\":4742:4743   */\n      0x00\n        /* \"#utility.yul\":4735:4823   */\n      mstore\n        /* \"#utility.yul\":4842:4846   */\n      0x11\n        /* \"#utility.yul\":4839:4840   */\n      0x04\n        /* \"#utility.yul\":4832:4847   */\n      mstore\n        /* \"#utility.yul\":4866:4870   */\n      0x24\n        /* \"#utility.yul\":4863:4864   */\n      0x00\n        /* \"#utility.yul\":4856:4871   */\n      revert\n        /* \"#utility.yul\":4883:5063   */\n    tag_46:\n        /* \"#utility.yul\":4931:5008   */\n      0x4e487b7100000000000000000000000000000000000000000000000000000000\n        /* \"#utility.yul\":4928:4929   */\n      0x00\n        /* \"#utility.yul\":4921:5009   */\n      mstore\n        /* \"#utility.yul\":5028:5032   */\n      0x32\n        /* \"#utility.yul\":5025:5026   */\n      0x04\n        /* \"#utility.yul\":5018:5033   */\n      mstore\n        /* \"#utility.yul\":5052:5056   */\n      0x24\n        /* \"#utility.yul\":5049:5050   */\n      0x00\n        /* \"#utility.yul\":5042:5057   */\n      revert\n        /* \"#utility.yul\":5069:5249   */\n    tag_39:\n        /* \"#utility.yul\":5117:5194   */\n      0x4e487b7100000000000000000000000000000000000000000000000000000000\n        /* \"#utility.yul\":5114:5115   */\n      0x00\n        /* \"#utility.yul\":5107:5195   */\n      mstore\n        /* \"#utility.yul\":5214:5218   */\n      0x41\n        /* \"#utility.yul\":5211:5212   */\n      0x04\n        /* \"#utility.yul\":5204:5219   */\n      mstore\n        /* \"#utility.yul\":5238:5242   */\n      0x24\n        /* \"#utility.yul\":5235:5236   */\n      0x00\n        /* \"#utility.yul\":5228:5243   */\n      revert\n        /* \"#utility.yul\":5255:5480   */\n    tag_80:\n        /* \"#utility.yul\":5395:5429   */\n      0x5061796d656e742073686f756c64206265207468652073756273637269707469\n        /* \"#utility.yul\":5391:5392   */\n      0x00\n        /* \"#utility.yul\":5383:5389   */\n      dup3\n        /* \"#utility.yul\":5379:5393   */\n      add\n        /* \"#utility.yul\":5372:5430   */\n      mstore\n        /* \"#utility.yul\":5464:5472   */\n      0x6f6e206665650000000000000000000000000000000000000000000000000000\n        /* \"#utility.yul\":5459:5461   */\n      0x20\n        /* \"#utility.yul\":5451:5457   */\n      dup3\n        /* \"#utility.yul\":5447:5462   */\n      add\n        /* \"#utility.yul\":5440:5473   */\n      mstore\n        /* \"#utility.yul\":5255:5480   */\n      pop\n      jump\t// out\n        /* \"#utility.yul\":5486:5657   */\n    tag_85:\n        /* \"#utility.yul\":5626:5649   */\n      0x4f6e6c7920617574686f722063616e2063616c6c210000000000000000000000\n        /* \"#utility.yul\":5622:5623   */\n      0x00\n        /* \"#utility.yul\":5614:5620   */\n      dup3\n        /* \"#utility.yul\":5610:5624   */\n      add\n        /* \"#utility.yul\":5603:5650   */\n      mstore\n        /* \"#utility.yul\":5486:5657   */\n      pop\n      jump\t// out\n\n    auxdata: 0xa26469706673582212208f855e75b9588b993783a27babbbb1d7c6550065019b58d2de97ad25bec3ab4564736f6c63430008070033\n}\n",
				"bytecode": {
					"linkReferences": {},
					"object": "6080604052600060015534801561001557600080fd5b506040516108493803806108498339818101604052810190610037919061009a565b33600260006101000a81548173ffffffffffffffffffffffffffffffffffffffff021916908373ffffffffffffffffffffffffffffffffffffffff16021790555080600381905550506100ed565b600081519050610094816100d6565b92915050565b6000602082840312156100b0576100af6100d1565b5b60006100be84828501610085565b91505092915050565b6000819050919050565b600080fd5b6100df816100c7565b81146100ea57600080fd5b50565b61074d806100fc6000396000f3fe6080604052600436106100435760003560e01c80630aa0a175146100d4578063534844a2146100ff57806382d69b6214610109578063be291999146101345761008e565b3661008e57600354341461008c576040517f08c379a0000000000000000000000000000000000000000000000000000000008152600401610083906104e8565b60405180910390fd5b005b60035434146100d2576040517f08c379a00000000000000000000000000000000000000000000000000000000081526004016100c9906104e8565b60405180910390fd5b005b3480156100e057600080fd5b506100e961013e565b6040516100f69190610528565b60405180910390f35b610107610144565b005b34801561011557600080fd5b5061011e61023f565b60405161012b91906104c6565b60405180910390f35b61013c610338565b005b60035481565b600260009054906101000a900473ffffffffffffffffffffffffffffffffffffffff1673ffffffffffffffffffffffffffffffffffffffff163373ffffffffffffffffffffffffffffffffffffffff16146101d4576040517f08c379a00000000000000000000000000000000000000000000000000000000081526004016101cb90610508565b60405180910390fd5b600260009054906101000a900473ffffffffffffffffffffffffffffffffffffffff1673ffffffffffffffffffffffffffffffffffffffff166108fc479081150290604051600060405180830381858888f1935050505015801561023c573d6000803e3d6000fd5b50565b6060600060015467ffffffffffffffff81111561025f5761025e610670565b5b60405190808252806020026020018201604052801561028d5781602001602082028036833780820191505090505b50905060005b6001548110156103305760008082815260200190815260200160002060009054906101000a900473ffffffffffffffffffffffffffffffffffffffff168282815181106102e3576102e2610641565b5b602002602001019073ffffffffffffffffffffffffffffffffffffffff16908173ffffffffffffffffffffffffffffffffffffffff16815250508080610328906105c9565b915050610293565b508091505090565b33600080600154815260200190815260200160002060006101000a81548173ffffffffffffffffffffffffffffffffffffffff021916908373ffffffffffffffffffffffffffffffffffffffff1602179055506001600081548092919061039e906105c9565b91905055503073ffffffffffffffffffffffffffffffffffffffff166108fc349081150290604051600060405180830381858888f193505050501580156103e9573d6000803e3d6000fd5b50565b60006103f88383610404565b60208301905092915050565b61040d8161058d565b82525050565b600061041e82610553565b610428818561056b565b935061043383610543565b8060005b8381101561046457815161044b88826103ec565b97506104568361055e565b925050600181019050610437565b5085935050505092915050565b600061047e60268361057c565b91506104898261069f565b604082019050919050565b60006104a160158361057c565b91506104ac826106ee565b602082019050919050565b6104c0816105bf565b82525050565b600060208201905081810360008301526104e08184610413565b905092915050565b6000602082019050818103600083015261050181610471565b9050919050565b6000602082019050818103600083015261052181610494565b9050919050565b600060208201905061053d60008301846104b7565b92915050565b6000819050602082019050919050565b600081519050919050565b6000602082019050919050565b600082825260208201905092915050565b600082825260208201905092915050565b60006105988261059f565b9050919050565b600073ffffffffffffffffffffffffffffffffffffffff82169050919050565b6000819050919050565b60006105d4826105bf565b91507fffffffffffffffffffffffffffffffffffffffffffffffffffffffffffffffff82141561060757610606610612565b5b600182019050919050565b7f4e487b7100000000000000000000000000000000000000000000000000000000600052601160045260246000fd5b7f4e487b7100000000000000000000000000000000000000000000000000000000600052603260045260246000fd5b7f4e487b7100000000000000000000000000000000000000000000000000000000600052604160045260246000fd5b7f5061796d656e742073686f756c6420626520746865207375627363726970746960008201527f6f6e206665650000000000000000000000000000000000000000000000000000602082015250565b7f4f6e6c7920617574686f722063616e2063616c6c21000000000000000000000060008201525056fea26469706673582212208f855e75b9588b993783a27babbbb1d7c6550065019b58d2de97ad25bec3ab4564736f6c63430008070033",
					"opcodes": "PUSH1 0x80 PUSH1 0x40 MSTORE PUSH1 0x0 PUSH1 0x1 SSTORE CALLVALUE DUP1 ISZERO PUSH2 0x15 JUMPI PUSH1 0x0 DUP1 REVERT JUMPDEST POP PUSH1 0x40 MLOAD PUSH2 0x849 CODESIZE SUB DUP1 PUSH2 0x849 DUP4 CODECOPY DUP2 DUP2 ADD PUSH1 0x40 MSTORE DUP2 ADD SWAP1 PUSH2 0x37 SWAP2 SWAP1 PUSH2 0x9A JUMP JUMPDEST CALLER PUSH1 0x2 PUSH1 0x0 PUSH2 0x100 EXP DUP2 SLOAD DUP2 PUSH20 0xFFFFFFFFFFFFFFFFFFFFFFFFFFFFFFFFFFFFFFFF MUL NOT AND SWAP1 DUP4 PUSH20 0xFFFFFFFFFFFFFFFFFFFFFFFFFFFFFFFFFFFFFFFF AND MUL OR SWAP1 SSTORE POP DUP1 PUSH1 0x3 DUP2 SWAP1 SSTORE POP POP PUSH2 0xED JUMP JUMPDEST PUSH1 0x0 DUP2 MLOAD SWAP1 POP PUSH2 0x94 DUP2 PUSH2 0xD6 JUMP JUMPDEST SWAP3 SWAP2 POP POP JUMP JUMPDEST PUSH1 0x0 PUSH1 0x20 DUP3 DUP5 SUB SLT ISZERO PUSH2 0xB0 JUMPI PUSH2 0xAF PUSH2 0xD1 JUMP JUMPDEST JUMPDEST PUSH1 0x0 PUSH2 0xBE DUP5 DUP3 DUP6 ADD PUSH2 0x85 JUMP JUMPDEST SWAP2 POP POP SWAP3 SWAP2 POP POP JUMP JUMPDEST PUSH1 0x0 DUP2 SWAP1 POP SWAP2 SWAP1 POP JUMP JUMPDEST PUSH1 0x0 DUP1 REVERT JUMPDEST PUSH2 0xDF DUP2 PUSH2 0xC7 JUMP JUMPDEST DUP2 EQ PUSH2 0xEA JUMPI PUSH1 0x0 DUP1 REVERT JUMPDEST POP JUMP JUMPDEST PUSH2 0x74D DUP1 PUSH2 0xFC PUSH1 0x0 CODECOPY PUSH1 0x0 RETURN INVALID PUSH1 0x80 PUSH1 0x40 MSTORE PUSH1 0x4 CALLDATASIZE LT PUSH2 0x43 JUMPI PUSH1 0x0 CALLDATALOAD PUSH1 0xE0 SHR DUP1 PUSH4 0xAA0A175 EQ PUSH2 0xD4 JUMPI DUP1 PUSH4 0x534844A2 EQ PUSH2 0xFF JUMPI DUP1 PUSH4 0x82D69B62 EQ PUSH2 0x109 JUMPI DUP1 PUSH4 0xBE291999 EQ PUSH2 0x134 JUMPI PUSH2 0x8E JUMP JUMPDEST CALLDATASIZE PUSH2 0x8E JUMPI PUSH1 0x3 SLOAD CALLVALUE EQ PUSH2 0x8C JUMPI PUSH1 0x40 MLOAD PUSH32 0x8C379A000000000000000000000000000000000000000000000000000000000 DUP2 MSTORE PUSH1 0x4 ADD PUSH2 0x83 SWAP1 PUSH2 0x4E8 JUMP JUMPDEST PUSH1 0x40 MLOAD DUP1 SWAP2 SUB SWAP1 REVERT JUMPDEST STOP JUMPDEST PUSH1 0x3 SLOAD CALLVALUE EQ PUSH2 0xD2 JUMPI PUSH1 0x40 MLOAD PUSH32 0x8C379A000000000000000000000000000000000000000000000000000000000 DUP2 MSTORE PUSH1 0x4 ADD PUSH2 0xC9 SWAP1 PUSH2 0x4E8 JUMP JUMPDEST PUSH1 0x40 MLOAD DUP1 SWAP2 SUB SWAP1 REVERT JUMPDEST STOP JUMPDEST CALLVALUE DUP1 ISZERO PUSH2 0xE0 JUMPI PUSH1 0x0 DUP1 REVERT JUMPDEST POP PUSH2 0xE9 PUSH2 0x13E JUMP JUMPDEST PUSH1 0x40 MLOAD PUSH2 0xF6 SWAP2 SWAP1 PUSH2 0x528 JUMP JUMPDEST PUSH1 0x40 MLOAD DUP1 SWAP2 SUB SWAP1 RETURN JUMPDEST PUSH2 0x107 PUSH2 0x144 JUMP JUMPDEST STOP JUMPDEST CALLVALUE DUP1 ISZERO PUSH2 0x115 JUMPI PUSH1 0x0 DUP1 REVERT JUMPDEST POP PUSH2 0x11E PUSH2 0x23F JUMP JUMPDEST PUSH1 0x40 MLOAD PUSH2 0x12B SWAP2 SWAP1 PUSH2 0x4C6 JUMP JUMPDEST PUSH1 0x40 MLOAD DUP1 SWAP2 SUB SWAP1 RETURN JUMPDEST PUSH2 0x13C PUSH2 0x338 JUMP JUMPDEST STOP JUMPDEST PUSH1 0x3 SLOAD DUP2 JUMP JUMPDEST PUSH1 0x2 PUSH1 0x0 SWAP1 SLOAD SWAP1 PUSH2 0x100 EXP SWAP1 DIV PUSH20 0xFFFFFFFFFFFFFFFFFFFFFFFFFFFFFFFFFFFFFFFF AND PUSH20 0xFFFFFFFFFFFFFFFFFFFFFFFFFFFFFFFFFFFFFFFF AND CALLER PUSH20 0xFFFFFFFFFFFFFFFFFFFFFFFFFFFFFFFFFFFFFFFF AND EQ PUSH2 0x1D4 JUMPI PUSH1 0x40 MLOAD PUSH32 0x8C379A000000000000000000000000000000000000000000000000000000000 DUP2 MSTORE PUSH1 0x4 ADD PUSH2 0x1CB SWAP1 PUSH2 0x508 JUMP JUMPDEST PUSH1 0x40 MLOAD DUP1 SWAP2 SUB SWAP1 REVERT JUMPDEST PUSH1 0x2 PUSH1 0x0 SWAP1 SLOAD SWAP1 PUSH2 0x100 EXP SWAP1 DIV PUSH20 0xFFFFFFFFFFFFFFFFFFFFFFFFFFFFFFFFFFFFFFFF AND PUSH20 0xFFFFFFFFFFFFFFFFFFFFFFFFFFFFFFFFFFFFFFFF AND PUSH2 0x8FC SELFBALANCE SWAP1 DUP2 ISZERO MUL SWAP1 PUSH1 0x40 MLOAD PUSH1 0x0 PUSH1 0x40 MLOAD DUP1 DUP4 SUB DUP2 DUP6 DUP9 DUP9 CALL SWAP4 POP POP POP POP ISZERO DUP1 ISZERO PUSH2 0x23C JUMPI RETURNDATASIZE PUSH1 0x0 DUP1 RETURNDATACOPY RETURNDATASIZE PUSH1 0x0 REVERT JUMPDEST POP JUMP JUMPDEST PUSH1 0x60 PUSH1 0x0 PUSH1 0x1 SLOAD PUSH8 0xFFFFFFFFFFFFFFFF DUP2 GT ISZERO PUSH2 0x25F JUMPI PUSH2 0x25E PUSH2 0x670 JUMP JUMPDEST JUMPDEST PUSH1 0x40 MLOAD SWAP1 DUP1 DUP3 MSTORE DUP1 PUSH1 0x20 MUL PUSH1 0x20 ADD DUP3 ADD PUSH1 0x40 MSTORE DUP1 ISZERO PUSH2 0x28D JUMPI DUP2 PUSH1 0x20 ADD PUSH1 0x20 DUP3 MUL DUP1 CALLDATASIZE DUP4 CALLDATACOPY DUP1 DUP3 ADD SWAP2 POP POP SWAP1 POP JUMPDEST POP SWAP1 POP PUSH1 0x0 JUMPDEST PUSH1 0x1 SLOAD DUP2 LT ISZERO PUSH2 0x330 JUMPI PUSH1 0x0 DUP1 DUP3 DUP2 MSTORE PUSH1 0x20 ADD SWAP1 DUP2 MSTORE PUSH1 0x20 ADD PUSH1 0x0 KECCAK256 PUSH1 0x0 SWAP1 SLOAD SWAP1 PUSH2 0x100 EXP SWAP1 DIV PUSH20 0xFFFFFFFFFFFFFFFFFFFFFFFFFFFFFFFFFFFFFFFF AND DUP3 DUP3 DUP2 MLOAD DUP2 LT PUSH2 0x2E3 JUMPI PUSH2 0x2E2 PUSH2 0x641 JUMP JUMPDEST JUMPDEST PUSH1 0x20 MUL PUSH1 0x20 ADD ADD SWAP1 PUSH20 0xFFFFFFFFFFFFFFFFFFFFFFFFFFFFFFFFFFFFFFFF AND SWAP1 DUP2 PUSH20 0xFFFFFFFFFFFFFFFFFFFFFFFFFFFFFFFFFFFFFFFF AND DUP2 MSTORE POP POP DUP1 DUP1 PUSH2 0x328 SWAP1 PUSH2 0x5C9 JUMP JUMPDEST SWAP2 POP POP PUSH2 0x293 JUMP JUMPDEST POP DUP1 SWAP2 POP POP SWAP1 JUMP JUMPDEST CALLER PUSH1 0x0 DUP1 PUSH1 0x1 SLOAD DUP2 MSTORE PUSH1 0x20 ADD SWAP1 DUP2 MSTORE PUSH1 0x20 ADD PUSH1 0x0 KECCAK256 PUSH1 0x0 PUSH2 0x100 EXP DUP2 SLOAD DUP2 PUSH20 0xFFFFFFFFFFFFFFFFFFFFFFFFFFFFFFFFFFFFFFFF MUL NOT AND SWAP1 DUP4 PUSH20 0xFFFFFFFFFFFFFFFFFFFFFFFFFFFFFFFFFFFFFFFF AND MUL OR SWAP1 SSTORE POP PUSH1 0x1 PUSH1 0x0 DUP2 SLOAD DUP1 SWAP3 SWAP2 SWAP1 PUSH2 0x39E SWAP1 PUSH2 0x5C9 JUMP JUMPDEST SWAP2 SWAP1 POP SSTORE POP ADDRESS PUSH20 0xFFFFFFFFFFFFFFFFFFFFFFFFFFFFFFFFFFFFFFFF AND PUSH2 0x8FC CALLVALUE SWAP1 DUP2 ISZERO MUL SWAP1 PUSH1 0x40 MLOAD PUSH1 0x0 PUSH1 0x40 MLOAD DUP1 DUP4 SUB DUP2 DUP6 DUP9 DUP9 CALL SWAP4 POP POP POP POP ISZERO DUP1 ISZERO PUSH2 0x3E9 JUMPI RETURNDATASIZE PUSH1 0x0 DUP1 RETURNDATACOPY RETURNDATASIZE PUSH1 0x0 REVERT JUMPDEST POP JUMP JUMPDEST PUSH1 0x0 PUSH2 0x3F8 DUP4 DUP4 PUSH2 0x404 JUMP JUMPDEST PUSH1 0x20 DUP4 ADD SWAP1 POP SWAP3 SWAP2 POP POP JUMP JUMPDEST PUSH2 0x40D DUP2 PUSH2 0x58D JUMP JUMPDEST DUP3 MSTORE POP POP JUMP JUMPDEST PUSH1 0x0 PUSH2 0x41E DUP3 PUSH2 0x553 JUMP JUMPDEST PUSH2 0x428 DUP2 DUP6 PUSH2 0x56B JUMP JUMPDEST SWAP4 POP PUSH2 0x433 DUP4 PUSH2 0x543 JUMP JUMPDEST DUP1 PUSH1 0x0 JUMPDEST DUP4 DUP2 LT ISZERO PUSH2 0x464 JUMPI DUP2 MLOAD PUSH2 0x44B DUP9 DUP3 PUSH2 0x3EC JUMP JUMPDEST SWAP8 POP PUSH2 0x456 DUP4 PUSH2 0x55E JUMP JUMPDEST SWAP3 POP POP PUSH1 0x1 DUP2 ADD SWAP1 POP PUSH2 0x437 JUMP JUMPDEST POP DUP6 SWAP4 POP POP POP POP SWAP3 SWAP2 POP POP JUMP JUMPDEST PUSH1 0x0 PUSH2 0x47E PUSH1 0x26 DUP4 PUSH2 0x57C JUMP JUMPDEST SWAP2 POP PUSH2 0x489 DUP3 PUSH2 0x69F JUMP JUMPDEST PUSH1 0x40 DUP3 ADD SWAP1 POP SWAP2 SWAP1 POP JUMP JUMPDEST PUSH1 0x0 PUSH2 0x4A1 PUSH1 0x15 DUP4 PUSH2 0x57C JUMP JUMPDEST SWAP2 POP PUSH2 0x4AC DUP3 PUSH2 0x6EE JUMP JUMPDEST PUSH1 0x20 DUP3 ADD SWAP1 POP SWAP2 SWAP1 POP JUMP JUMPDEST PUSH2 0x4C0 DUP2 PUSH2 0x5BF JUMP JUMPDEST DUP3 MSTORE POP POP JUMP JUMPDEST PUSH1 0x0 PUSH1 0x20 DUP3 ADD SWAP1 POP DUP2 DUP2 SUB PUSH1 0x0 DUP4 ADD MSTORE PUSH2 0x4E0 DUP2 DUP5 PUSH2 0x413 JUMP JUMPDEST SWAP1 POP SWAP3 SWAP2 POP POP JUMP JUMPDEST PUSH1 0x0 PUSH1 0x20 DUP3 ADD SWAP1 POP DUP2 DUP2 SUB PUSH1 0x0 DUP4 ADD MSTORE PUSH2 0x501 DUP2 PUSH2 0x471 JUMP JUMPDEST SWAP1 POP SWAP2 SWAP1 POP JUMP JUMPDEST PUSH1 0x0 PUSH1 0x20 DUP3 ADD SWAP1 POP DUP2 DUP2 SUB PUSH1 0x0 DUP4 ADD MSTORE PUSH2 0x521 DUP2 PUSH2 0x494 JUMP JUMPDEST SWAP1 POP SWAP2 SWAP1 POP JUMP JUMPDEST PUSH1 0x0 PUSH1 0x20 DUP3 ADD SWAP1 POP PUSH2 0x53D PUSH1 0x0 DUP4 ADD DUP5 PUSH2 0x4B7 JUMP JUMPDEST SWAP3 SWAP2 POP POP JUMP JUMPDEST PUSH1 0x0 DUP2 SWAP1 POP PUSH1 0x20 DUP3 ADD SWAP1 POP SWAP2 SWAP1 POP JUMP JUMPDEST PUSH1 0x0 DUP2 MLOAD SWAP1 POP SWAP2 SWAP1 POP JUMP JUMPDEST PUSH1 0x0 PUSH1 0x20 DUP3 ADD SWAP1 POP SWAP2 SWAP1 POP JUMP JUMPDEST PUSH1 0x0 DUP3 DUP3 MSTORE PUSH1 0x20 DUP3 ADD SWAP1 POP SWAP3 SWAP2 POP POP JUMP JUMPDEST PUSH1 0x0 DUP3 DUP3 MSTORE PUSH1 0x20 DUP3 ADD SWAP1 POP SWAP3 SWAP2 POP POP JUMP JUMPDEST PUSH1 0x0 PUSH2 0x598 DUP3 PUSH2 0x59F JUMP JUMPDEST SWAP1 POP SWAP2 SWAP1 POP JUMP JUMPDEST PUSH1 0x0 PUSH20 0xFFFFFFFFFFFFFFFFFFFFFFFFFFFFFFFFFFFFFFFF DUP3 AND SWAP1 POP SWAP2 SWAP1 POP JUMP JUMPDEST PUSH1 0x0 DUP2 SWAP1 POP SWAP2 SWAP1 POP JUMP JUMPDEST PUSH1 0x0 PUSH2 0x5D4 DUP3 PUSH2 0x5BF JUMP JUMPDEST SWAP2 POP PUSH32 0xFFFFFFFFFFFFFFFFFFFFFFFFFFFFFFFFFFFFFFFFFFFFFFFFFFFFFFFFFFFFFFFF DUP3 EQ ISZERO PUSH2 0x607 JUMPI PUSH2 0x606 PUSH2 0x612 JUMP JUMPDEST JUMPDEST PUSH1 0x1 DUP3 ADD SWAP1 POP SWAP2 SWAP1 POP JUMP JUMPDEST PUSH32 0x4E487B7100000000000000000000000000000000000000000000000000000000 PUSH1 0x0 MSTORE PUSH1 0x11 PUSH1 0x4 MSTORE PUSH1 0x24 PUSH1 0x0 REVERT JUMPDEST PUSH32 0x4E487B7100000000000000000000000000000000000000000000000000000000 PUSH1 0x0 MSTORE PUSH1 0x32 PUSH1 0x4 MSTORE PUSH1 0x24 PUSH1 0x0 REVERT JUMPDEST PUSH32 0x4E487B7100000000000000000000000000000000000000000000000000000000 PUSH1 0x0 MSTORE PUSH1 0x41 PUSH1 0x4 MSTORE PUSH1 0x24 PUSH1 0x0 REVERT JUMPDEST PUSH32 0x5061796D656E742073686F756C64206265207468652073756273637269707469 PUSH1 0x0 DUP3 ADD MSTORE PUSH32 0x6F6E206665650000000000000000000000000000000000000000000000000000 PUSH1 0x20 DUP3 ADD MSTORE POP JUMP JUMPDEST PUSH32 0x4F6E6C7920617574686F722063616E2063616C6C210000000000000000000000 PUSH1 0x0 DUP3 ADD MSTORE POP JUMP INVALID LOG2 PUSH5 0x6970667358 0x22 SLT KECCAK256 DUP16 DUP6 0x5E PUSH22 0xB9588B993783A27BABBBB1D7C6550065019B58D2DE97 0xAD 0x25 0xBE 0xC3 0xAB GASLIMIT PUSH5 0x736F6C6343 STOP ADDMOD SMOD STOP CALLER "
				},
				"gasEstimates": {
					"creation": {
						"codeDepositCost": "373800",
						"executionCost": "infinite",
						"totalCost": "infinite"
					},
					"external": {
						"": "2589",
						"addSubscriber()": "infinite",
						"printSubscribersList()": "infinite",
						"subscriptionFee()": "2407",
						"withdrawAmount()": "infinite"
					}
				},
				"methodIdentifiers": {
					"addSubscriber()": "be291999",
					"printSubscribersList()": "82d69b62",
					"subscriptionFee()": "0aa0a175",
					"withdrawAmount()": "534844a2"
				}
			},
			"storageLayout": {
				"storage": [
					{
						"astId": 5,
						"contract": "contracts/myContract.sol:testContract",
						"label": "subscribers",
						"offset": 0,
						"slot": "0",
						"type": "t_mapping(t_uint256,t_address)"
					},
					{
						"astId": 8,
						"contract": "contracts/myContract.sol:testContract",
						"label": "subscriberCount",
						"offset": 0,
						"slot": "1",
						"type": "t_uint256"
					},
					{
						"astId": 10,
						"contract": "contracts/myContract.sol:testContract",
						"label": "author",
						"offset": 0,
						"slot": "2",
						"type": "t_address_payable"
					},
					{
						"astId": 12,
						"contract": "contracts/myContract.sol:testContract",
						"label": "subscriptionFee",
						"offset": 0,
						"slot": "3",
						"type": "t_uint256"
					}
				],
				"types": {
					"t_address": {
						"encoding": "inplace",
						"label": "address",
						"numberOfBytes": "20"
					},
					"t_address_payable": {
						"encoding": "inplace",
						"label": "address payable",
						"numberOfBytes": "20"
					},
					"t_mapping(t_uint256,t_address)": {
						"encoding": "mapping",
						"key": "t_uint256",
						"label": "mapping(uint256 => address)",
						"numberOfBytes": "32",
						"value": "t_address"
					},
					"t_uint256": {
						"encoding": "inplace",
						"label": "uint256",
						"numberOfBytes": "32"
					}
				}
			},
			"userdoc": {
				"kind": "user",
				"methods": {},
				"version": 1
			}
		}
	}
}