{
	"contracts/myContract.sol": {
		"testContract": {
			"abi": [
				{
					"inputs": [
						{
							"internalType": "uint256",
							"name": "_fee",
							"type": "uint256"
						},
						{
							"internalType": "string",
							"name": "_channelName",
							"type": "string"
						}
					],
					"stateMutability": "nonpayable",
					"type": "constructor"
				},
				{
					"stateMutability": "payable",
					"type": "fallback"
				},
				{
					"inputs": [],
					"name": "addSubscriber",
					"outputs": [],
					"stateMutability": "payable",
					"type": "function"
				},
				{
					"inputs": [],
					"name": "channelName",
					"outputs": [
						{
							"internalType": "string",
							"name": "",
							"type": "string"
						}
					],
					"stateMutability": "view",
					"type": "function"
				},
				{
					"inputs": [],
					"name": "printSubscribersList",
					"outputs": [
						{
							"internalType": "address[]",
							"name": "",
							"type": "address[]"
						}
					],
					"stateMutability": "view",
					"type": "function"
				},
				{
					"inputs": [],
					"name": "subscriptionFee",
					"outputs": [
						{
							"internalType": "uint256",
							"name": "",
							"type": "uint256"
						}
					],
					"stateMutability": "view",
					"type": "function"
				},
				{
					"inputs": [],
					"name": "withdrawAmount",
					"outputs": [],
					"stateMutability": "payable",
					"type": "function"
				},
				{
					"stateMutability": "payable",
					"type": "receive"
				}
			],
			"devdoc": {
				"kind": "dev",
				"methods": {},
				"version": 1
			},
			"evm": {
				"assembly": "    /* \"contracts/myContract.sol\":76:1477  contract testContract {\r... */\n  mstore(0x40, 0x80)\n    /* \"contracts/myContract.sol\":193:194  0 */\n  0x00\n    /* \"contracts/myContract.sol\":162:194  uint private subscriberCount = 0 */\n  0x01\n  sstore\n    /* \"contracts/myContract.sol\":364:537  constructor(uint _fee, string memory _channelName){\r... */\n  callvalue\n  dup1\n  iszero\n  tag_1\n  jumpi\n  0x00\n  dup1\n  revert\ntag_1:\n  pop\n  mload(0x40)\n  sub(codesize, bytecodeSize)\n  dup1\n  bytecodeSize\n  dup4\n  codecopy\n  dup2\n  dup2\n  add\n  0x40\n  mstore\n  dup2\n  add\n  swap1\n  tag_2\n  swap2\n  swap1\n  tag_3\n  jump\t// in\ntag_2:\n    /* \"contracts/myContract.sol\":442:452  msg.sender */\n  caller\n    /* \"contracts/myContract.sol\":425:431  author */\n  0x02\n  0x00\n    /* \"contracts/myContract.sol\":425:453  author = payable(msg.sender) */\n  0x0100\n  exp\n  dup2\n  sload\n  dup2\n  0xffffffffffffffffffffffffffffffffffffffff\n  mul\n  not\n  and\n  swap1\n  dup4\n  0xffffffffffffffffffffffffffffffffffffffff\n  and\n  mul\n  or\n  swap1\n  sstore\n  pop\n    /* \"contracts/myContract.sol\":489:492  1e9 */\n  0x3b9aca00\n    /* \"contracts/myContract.sol\":482:486  _fee */\n  dup3\n    /* \"contracts/myContract.sol\":482:492  _fee * 1e9 */\n  tag_6\n  swap2\n  swap1\n  tag_7\n  jump\t// in\ntag_6:\n    /* \"contracts/myContract.sol\":464:479  subscriptionFee */\n  0x03\n    /* \"contracts/myContract.sol\":464:492  subscriptionFee = _fee * 1e9 */\n  dup2\n  swap1\n  sstore\n  pop\n    /* \"contracts/myContract.sol\":517:529  _channelName */\n  dup1\n    /* \"contracts/myContract.sol\":503:514  channelName */\n  0x04\n    /* \"contracts/myContract.sol\":503:529  channelName = _channelName */\n  swap1\n  dup1\n  mload\n  swap1\n  0x20\n  add\n  swap1\n  tag_8\n  swap3\n  swap2\n  swap1\n  tag_9\n  jump\t// in\ntag_8:\n  pop\n    /* \"contracts/myContract.sol\":364:537  constructor(uint _fee, string memory _channelName){\r... */\n  pop\n  pop\n    /* \"contracts/myContract.sol\":76:1477  contract testContract {\r... */\n  jump(tag_10)\ntag_9:\n  dup3\n  dup1\n  sload\n  tag_11\n  swap1\n  tag_12\n  jump\t// in\ntag_11:\n  swap1\n  0x00\n  mstore\n  keccak256(0x00, 0x20)\n  swap1\n  0x1f\n  add\n  0x20\n  swap1\n  div\n  dup2\n  add\n  swap3\n  dup3\n  tag_14\n  jumpi\n  0x00\n  dup6\n  sstore\n  jump(tag_13)\ntag_14:\n  dup3\n  0x1f\n  lt\n  tag_15\n  jumpi\n  dup1\n  mload\n  not(0xff)\n  and\n  dup4\n  dup1\n  add\n  or\n  dup6\n  sstore\n  jump(tag_13)\ntag_15:\n  dup3\n  dup1\n  add\n  0x01\n  add\n  dup6\n  sstore\n  dup3\n  iszero\n  tag_13\n  jumpi\n  swap2\n  dup3\n  add\ntag_16:\n  dup3\n  dup2\n  gt\n  iszero\n  tag_17\n  jumpi\n  dup3\n  mload\n  dup3\n  sstore\n  swap2\n  0x20\n  add\n  swap2\n  swap1\n  0x01\n  add\n  swap1\n  jump(tag_16)\ntag_17:\ntag_13:\n  pop\n  swap1\n  pop\n  tag_18\n  swap2\n  swap1\n  tag_19\n  jump\t// in\ntag_18:\n  pop\n  swap1\n  jump\t// out\ntag_19:\ntag_20:\n  dup1\n  dup3\n  gt\n  iszero\n  tag_21\n  jumpi\n  0x00\n  dup2\n  0x00\n  swap1\n  sstore\n  pop\n  0x01\n  add\n  jump(tag_20)\ntag_21:\n  pop\n  swap1\n  jump\t// out\n    /* \"#utility.yul\":7:428   */\ntag_23:\n    /* \"#utility.yul\":96:101   */\n  0x00\n    /* \"#utility.yul\":121:187   */\n  tag_25\n    /* \"#utility.yul\":137:186   */\n  tag_26\n    /* \"#utility.yul\":179:185   */\n  dup5\n    /* \"#utility.yul\":137:186   */\n  tag_27\n  jump\t// in\ntag_26:\n    /* \"#utility.yul\":121:187   */\n  tag_28\n  jump\t// in\ntag_25:\n    /* \"#utility.yul\":112:187   */\n  swap1\n  pop\n    /* \"#utility.yul\":210:216   */\n  dup3\n    /* \"#utility.yul\":203:208   */\n  dup2\n    /* \"#utility.yul\":196:217   */\n  mstore\n    /* \"#utility.yul\":248:252   */\n  0x20\n    /* \"#utility.yul\":241:246   */\n  dup2\n    /* \"#utility.yul\":237:253   */\n  add\n    /* \"#utility.yul\":286:289   */\n  dup5\n    /* \"#utility.yul\":277:283   */\n  dup5\n    /* \"#utility.yul\":272:275   */\n  dup5\n    /* \"#utility.yul\":268:284   */\n  add\n    /* \"#utility.yul\":265:290   */\n  gt\n    /* \"#utility.yul\":262:374   */\n  iszero\n  tag_29\n  jumpi\n    /* \"#utility.yul\":293:372   */\n  tag_30\n  tag_31\n  jump\t// in\ntag_30:\n    /* \"#utility.yul\":262:374   */\ntag_29:\n    /* \"#utility.yul\":383:422   */\n  tag_32\n    /* \"#utility.yul\":415:421   */\n  dup5\n    /* \"#utility.yul\":410:413   */\n  dup3\n    /* \"#utility.yul\":405:408   */\n  dup6\n    /* \"#utility.yul\":383:422   */\n  tag_33\n  jump\t// in\ntag_32:\n    /* \"#utility.yul\":102:428   */\n  pop\n    /* \"#utility.yul\":7:428   */\n  swap4\n  swap3\n  pop\n  pop\n  pop\n  jump\t// out\n    /* \"#utility.yul\":448:803   */\ntag_34:\n    /* \"#utility.yul\":515:520   */\n  0x00\n    /* \"#utility.yul\":564:567   */\n  dup3\n    /* \"#utility.yul\":557:561   */\n  0x1f\n    /* \"#utility.yul\":549:555   */\n  dup4\n    /* \"#utility.yul\":545:562   */\n  add\n    /* \"#utility.yul\":541:568   */\n  slt\n    /* \"#utility.yul\":531:653   */\n  tag_36\n  jumpi\n    /* \"#utility.yul\":572:651   */\n  tag_37\n  tag_38\n  jump\t// in\ntag_37:\n    /* \"#utility.yul\":531:653   */\ntag_36:\n    /* \"#utility.yul\":682:688   */\n  dup2\n    /* \"#utility.yul\":676:689   */\n  mload\n    /* \"#utility.yul\":707:797   */\n  tag_39\n    /* \"#utility.yul\":793:796   */\n  dup5\n    /* \"#utility.yul\":785:791   */\n  dup3\n    /* \"#utility.yul\":778:782   */\n  0x20\n    /* \"#utility.yul\":770:776   */\n  dup7\n    /* \"#utility.yul\":766:783   */\n  add\n    /* \"#utility.yul\":707:797   */\n  tag_23\n  jump\t// in\ntag_39:\n    /* \"#utility.yul\":698:797   */\n  swap2\n  pop\n    /* \"#utility.yul\":521:803   */\n  pop\n    /* \"#utility.yul\":448:803   */\n  swap3\n  swap2\n  pop\n  pop\n  jump\t// out\n    /* \"#utility.yul\":809:952   */\ntag_40:\n    /* \"#utility.yul\":866:871   */\n  0x00\n    /* \"#utility.yul\":897:903   */\n  dup2\n    /* \"#utility.yul\":891:904   */\n  mload\n    /* \"#utility.yul\":882:904   */\n  swap1\n  pop\n    /* \"#utility.yul\":913:946   */\n  tag_42\n    /* \"#utility.yul\":940:945   */\n  dup2\n    /* \"#utility.yul\":913:946   */\n  tag_43\n  jump\t// in\ntag_42:\n    /* \"#utility.yul\":809:952   */\n  swap3\n  swap2\n  pop\n  pop\n  jump\t// out\n    /* \"#utility.yul\":958:1638   */\ntag_3:\n    /* \"#utility.yul\":1047:1053   */\n  0x00\n    /* \"#utility.yul\":1055:1061   */\n  dup1\n    /* \"#utility.yul\":1104:1106   */\n  0x40\n    /* \"#utility.yul\":1092:1101   */\n  dup4\n    /* \"#utility.yul\":1083:1090   */\n  dup6\n    /* \"#utility.yul\":1079:1102   */\n  sub\n    /* \"#utility.yul\":1075:1107   */\n  slt\n    /* \"#utility.yul\":1072:1191   */\n  iszero\n  tag_45\n  jumpi\n    /* \"#utility.yul\":1110:1189   */\n  tag_46\n  tag_47\n  jump\t// in\ntag_46:\n    /* \"#utility.yul\":1072:1191   */\ntag_45:\n    /* \"#utility.yul\":1230:1231   */\n  0x00\n    /* \"#utility.yul\":1255:1319   */\n  tag_48\n    /* \"#utility.yul\":1311:1318   */\n  dup6\n    /* \"#utility.yul\":1302:1308   */\n  dup3\n    /* \"#utility.yul\":1291:1300   */\n  dup7\n    /* \"#utility.yul\":1287:1309   */\n  add\n    /* \"#utility.yul\":1255:1319   */\n  tag_40\n  jump\t// in\ntag_48:\n    /* \"#utility.yul\":1245:1319   */\n  swap3\n  pop\n    /* \"#utility.yul\":1201:1329   */\n  pop\n    /* \"#utility.yul\":1389:1391   */\n  0x20\n    /* \"#utility.yul\":1378:1387   */\n  dup4\n    /* \"#utility.yul\":1374:1392   */\n  add\n    /* \"#utility.yul\":1368:1393   */\n  mload\n    /* \"#utility.yul\":1420:1438   */\n  0xffffffffffffffff\n    /* \"#utility.yul\":1412:1418   */\n  dup2\n    /* \"#utility.yul\":1409:1439   */\n  gt\n    /* \"#utility.yul\":1406:1523   */\n  iszero\n  tag_49\n  jumpi\n    /* \"#utility.yul\":1442:1521   */\n  tag_50\n  tag_51\n  jump\t// in\ntag_50:\n    /* \"#utility.yul\":1406:1523   */\ntag_49:\n    /* \"#utility.yul\":1547:1621   */\n  tag_52\n    /* \"#utility.yul\":1613:1620   */\n  dup6\n    /* \"#utility.yul\":1604:1610   */\n  dup3\n    /* \"#utility.yul\":1593:1602   */\n  dup7\n    /* \"#utility.yul\":1589:1611   */\n  add\n    /* \"#utility.yul\":1547:1621   */\n  tag_34\n  jump\t// in\ntag_52:\n    /* \"#utility.yul\":1537:1621   */\n  swap2\n  pop\n    /* \"#utility.yul\":1339:1631   */\n  pop\n    /* \"#utility.yul\":958:1638   */\n  swap3\n  pop\n  swap3\n  swap1\n  pop\n  jump\t// out\n    /* \"#utility.yul\":1644:1773   */\ntag_28:\n    /* \"#utility.yul\":1678:1684   */\n  0x00\n    /* \"#utility.yul\":1705:1725   */\n  tag_54\n  tag_55\n  jump\t// in\ntag_54:\n    /* \"#utility.yul\":1695:1725   */\n  swap1\n  pop\n    /* \"#utility.yul\":1734:1767   */\n  tag_56\n    /* \"#utility.yul\":1762:1766   */\n  dup3\n    /* \"#utility.yul\":1754:1760   */\n  dup3\n    /* \"#utility.yul\":1734:1767   */\n  tag_57\n  jump\t// in\ntag_56:\n    /* \"#utility.yul\":1644:1773   */\n  swap2\n  swap1\n  pop\n  jump\t// out\n    /* \"#utility.yul\":1779:1854   */\ntag_55:\n    /* \"#utility.yul\":1812:1818   */\n  0x00\n    /* \"#utility.yul\":1845:1847   */\n  0x40\n    /* \"#utility.yul\":1839:1848   */\n  mload\n    /* \"#utility.yul\":1829:1848   */\n  swap1\n  pop\n    /* \"#utility.yul\":1779:1854   */\n  swap1\n  jump\t// out\n    /* \"#utility.yul\":1860:2168   */\ntag_27:\n    /* \"#utility.yul\":1922:1926   */\n  0x00\n    /* \"#utility.yul\":2012:2030   */\n  0xffffffffffffffff\n    /* \"#utility.yul\":2004:2010   */\n  dup3\n    /* \"#utility.yul\":2001:2031   */\n  gt\n    /* \"#utility.yul\":1998:2054   */\n  iszero\n  tag_60\n  jumpi\n    /* \"#utility.yul\":2034:2052   */\n  tag_61\n  tag_62\n  jump\t// in\ntag_61:\n    /* \"#utility.yul\":1998:2054   */\ntag_60:\n    /* \"#utility.yul\":2072:2101   */\n  tag_63\n    /* \"#utility.yul\":2094:2100   */\n  dup3\n    /* \"#utility.yul\":2072:2101   */\n  tag_64\n  jump\t// in\ntag_63:\n    /* \"#utility.yul\":2064:2101   */\n  swap1\n  pop\n    /* \"#utility.yul\":2156:2160   */\n  0x20\n    /* \"#utility.yul\":2150:2154   */\n  dup2\n    /* \"#utility.yul\":2146:2161   */\n  add\n    /* \"#utility.yul\":2138:2161   */\n  swap1\n  pop\n    /* \"#utility.yul\":1860:2168   */\n  swap2\n  swap1\n  pop\n  jump\t// out\n    /* \"#utility.yul\":2174:2522   */\ntag_7:\n    /* \"#utility.yul\":2214:2221   */\n  0x00\n    /* \"#utility.yul\":2237:2257   */\n  tag_66\n    /* \"#utility.yul\":2255:2256   */\n  dup3\n    /* \"#utility.yul\":2237:2257   */\n  tag_67\n  jump\t// in\ntag_66:\n    /* \"#utility.yul\":2232:2257   */\n  swap2\n  pop\n    /* \"#utility.yul\":2271:2291   */\n  tag_68\n    /* \"#utility.yul\":2289:2290   */\n  dup4\n    /* \"#utility.yul\":2271:2291   */\n  tag_67\n  jump\t// in\ntag_68:\n    /* \"#utility.yul\":2266:2291   */\n  swap3\n  pop\n    /* \"#utility.yul\":2459:2460   */\n  dup2\n    /* \"#utility.yul\":2391:2457   */\n  0xffffffffffffffffffffffffffffffffffffffffffffffffffffffffffffffff\n    /* \"#utility.yul\":2387:2461   */\n  div\n    /* \"#utility.yul\":2384:2385   */\n  dup4\n    /* \"#utility.yul\":2381:2462   */\n  gt\n    /* \"#utility.yul\":2376:2377   */\n  dup3\n    /* \"#utility.yul\":2369:2378   */\n  iszero\n    /* \"#utility.yul\":2362:2379   */\n  iszero\n    /* \"#utility.yul\":2358:2463   */\n  and\n    /* \"#utility.yul\":2355:2486   */\n  iszero\n  tag_69\n  jumpi\n    /* \"#utility.yul\":2466:2484   */\n  tag_70\n  tag_71\n  jump\t// in\ntag_70:\n    /* \"#utility.yul\":2355:2486   */\ntag_69:\n    /* \"#utility.yul\":2514:2515   */\n  dup3\n    /* \"#utility.yul\":2511:2512   */\n  dup3\n    /* \"#utility.yul\":2507:2516   */\n  mul\n    /* \"#utility.yul\":2496:2516   */\n  swap1\n  pop\n    /* \"#utility.yul\":2174:2522   */\n  swap3\n  swap2\n  pop\n  pop\n  jump\t// out\n    /* \"#utility.yul\":2528:2605   */\ntag_67:\n    /* \"#utility.yul\":2565:2572   */\n  0x00\n    /* \"#utility.yul\":2594:2599   */\n  dup2\n    /* \"#utility.yul\":2583:2599   */\n  swap1\n  pop\n    /* \"#utility.yul\":2528:2605   */\n  swap2\n  swap1\n  pop\n  jump\t// out\n    /* \"#utility.yul\":2611:2918   */\ntag_33:\n    /* \"#utility.yul\":2679:2680   */\n  0x00\n    /* \"#utility.yul\":2689:2802   */\ntag_74:\n    /* \"#utility.yul\":2703:2709   */\n  dup4\n    /* \"#utility.yul\":2700:2701   */\n  dup2\n    /* \"#utility.yul\":2697:2710   */\n  lt\n    /* \"#utility.yul\":2689:2802   */\n  iszero\n  tag_76\n  jumpi\n    /* \"#utility.yul\":2788:2789   */\n  dup1\n    /* \"#utility.yul\":2783:2786   */\n  dup3\n    /* \"#utility.yul\":2779:2790   */\n  add\n    /* \"#utility.yul\":2773:2791   */\n  mload\n    /* \"#utility.yul\":2769:2770   */\n  dup2\n    /* \"#utility.yul\":2764:2767   */\n  dup5\n    /* \"#utility.yul\":2760:2771   */\n  add\n    /* \"#utility.yul\":2753:2792   */\n  mstore\n    /* \"#utility.yul\":2725:2727   */\n  0x20\n    /* \"#utility.yul\":2722:2723   */\n  dup2\n    /* \"#utility.yul\":2718:2728   */\n  add\n    /* \"#utility.yul\":2713:2728   */\n  swap1\n  pop\n    /* \"#utility.yul\":2689:2802   */\n  jump(tag_74)\ntag_76:\n    /* \"#utility.yul\":2820:2826   */\n  dup4\n    /* \"#utility.yul\":2817:2818   */\n  dup2\n    /* \"#utility.yul\":2814:2827   */\n  gt\n    /* \"#utility.yul\":2811:2912   */\n  iszero\n  tag_77\n  jumpi\n    /* \"#utility.yul\":2900:2901   */\n  0x00\n    /* \"#utility.yul\":2891:2897   */\n  dup5\n    /* \"#utility.yul\":2886:2889   */\n  dup5\n    /* \"#utility.yul\":2882:2898   */\n  add\n    /* \"#utility.yul\":2875:2902   */\n  mstore\n    /* \"#utility.yul\":2811:2912   */\ntag_77:\n    /* \"#utility.yul\":2660:2918   */\n  pop\n    /* \"#utility.yul\":2611:2918   */\n  pop\n  pop\n  pop\n  jump\t// out\n    /* \"#utility.yul\":2924:3244   */\ntag_12:\n    /* \"#utility.yul\":2968:2974   */\n  0x00\n    /* \"#utility.yul\":3005:3006   */\n  0x02\n    /* \"#utility.yul\":2999:3003   */\n  dup3\n    /* \"#utility.yul\":2995:3007   */\n  div\n    /* \"#utility.yul\":2985:3007   */\n  swap1\n  pop\n    /* \"#utility.yul\":3052:3053   */\n  0x01\n    /* \"#utility.yul\":3046:3050   */\n  dup3\n    /* \"#utility.yul\":3042:3054   */\n  and\n    /* \"#utility.yul\":3073:3091   */\n  dup1\n    /* \"#utility.yul\":3063:3144   */\n  tag_79\n  jumpi\n    /* \"#utility.yul\":3129:3133   */\n  0x7f\n    /* \"#utility.yul\":3121:3127   */\n  dup3\n    /* \"#utility.yul\":3117:3134   */\n  and\n    /* \"#utility.yul\":3107:3134   */\n  swap2\n  pop\n    /* \"#utility.yul\":3063:3144   */\ntag_79:\n    /* \"#utility.yul\":3191:3193   */\n  0x20\n    /* \"#utility.yul\":3183:3189   */\n  dup3\n    /* \"#utility.yul\":3180:3194   */\n  lt\n    /* \"#utility.yul\":3160:3178   */\n  dup2\n    /* \"#utility.yul\":3157:3195   */\n  eq\n    /* \"#utility.yul\":3154:3238   */\n  iszero\n  tag_80\n  jumpi\n    /* \"#utility.yul\":3210:3228   */\n  tag_81\n  tag_82\n  jump\t// in\ntag_81:\n    /* \"#utility.yul\":3154:3238   */\ntag_80:\n    /* \"#utility.yul\":2975:3244   */\n  pop\n    /* \"#utility.yul\":2924:3244   */\n  swap2\n  swap1\n  pop\n  jump\t// out\n    /* \"#utility.yul\":3250:3531   */\ntag_57:\n    /* \"#utility.yul\":3333:3360   */\n  tag_84\n    /* \"#utility.yul\":3355:3359   */\n  dup3\n    /* \"#utility.yul\":3333:3360   */\n  tag_64\n  jump\t// in\ntag_84:\n    /* \"#utility.yul\":3325:3331   */\n  dup2\n    /* \"#utility.yul\":3321:3361   */\n  add\n    /* \"#utility.yul\":3463:3469   */\n  dup2\n    /* \"#utility.yul\":3451:3461   */\n  dup2\n    /* \"#utility.yul\":3448:3470   */\n  lt\n    /* \"#utility.yul\":3427:3445   */\n  0xffffffffffffffff\n    /* \"#utility.yul\":3415:3425   */\n  dup3\n    /* \"#utility.yul\":3412:3446   */\n  gt\n    /* \"#utility.yul\":3409:3471   */\n  or\n    /* \"#utility.yul\":3406:3494   */\n  iszero\n  tag_85\n  jumpi\n    /* \"#utility.yul\":3474:3492   */\n  tag_86\n  tag_62\n  jump\t// in\ntag_86:\n    /* \"#utility.yul\":3406:3494   */\ntag_85:\n    /* \"#utility.yul\":3514:3524   */\n  dup1\n    /* \"#utility.yul\":3510:3512   */\n  0x40\n    /* \"#utility.yul\":3503:3525   */\n  mstore\n    /* \"#utility.yul\":3293:3531   */\n  pop\n    /* \"#utility.yul\":3250:3531   */\n  pop\n  pop\n  jump\t// out\n    /* \"#utility.yul\":3537:3717   */\ntag_71:\n    /* \"#utility.yul\":3585:3662   */\n  0x4e487b7100000000000000000000000000000000000000000000000000000000\n    /* \"#utility.yul\":3582:3583   */\n  0x00\n    /* \"#utility.yul\":3575:3663   */\n  mstore\n    /* \"#utility.yul\":3682:3686   */\n  0x11\n    /* \"#utility.yul\":3679:3680   */\n  0x04\n    /* \"#utility.yul\":3672:3687   */\n  mstore\n    /* \"#utility.yul\":3706:3710   */\n  0x24\n    /* \"#utility.yul\":3703:3704   */\n  0x00\n    /* \"#utility.yul\":3696:3711   */\n  revert\n    /* \"#utility.yul\":3723:3903   */\ntag_82:\n    /* \"#utility.yul\":3771:3848   */\n  0x4e487b7100000000000000000000000000000000000000000000000000000000\n    /* \"#utility.yul\":3768:3769   */\n  0x00\n    /* \"#utility.yul\":3761:3849   */\n  mstore\n    /* \"#utility.yul\":3868:3872   */\n  0x22\n    /* \"#utility.yul\":3865:3866   */\n  0x04\n    /* \"#utility.yul\":3858:3873   */\n  mstore\n    /* \"#utility.yul\":3892:3896   */\n  0x24\n    /* \"#utility.yul\":3889:3890   */\n  0x00\n    /* \"#utility.yul\":3882:3897   */\n  revert\n    /* \"#utility.yul\":3909:4089   */\ntag_62:\n    /* \"#utility.yul\":3957:4034   */\n  0x4e487b7100000000000000000000000000000000000000000000000000000000\n    /* \"#utility.yul\":3954:3955   */\n  0x00\n    /* \"#utility.yul\":3947:4035   */\n  mstore\n    /* \"#utility.yul\":4054:4058   */\n  0x41\n    /* \"#utility.yul\":4051:4052   */\n  0x04\n    /* \"#utility.yul\":4044:4059   */\n  mstore\n    /* \"#utility.yul\":4078:4082   */\n  0x24\n    /* \"#utility.yul\":4075:4076   */\n  0x00\n    /* \"#utility.yul\":4068:4083   */\n  revert\n    /* \"#utility.yul\":4095:4212   */\ntag_38:\n    /* \"#utility.yul\":4204:4205   */\n  0x00\n    /* \"#utility.yul\":4201:4202   */\n  dup1\n    /* \"#utility.yul\":4194:4206   */\n  revert\n    /* \"#utility.yul\":4218:4335   */\ntag_31:\n    /* \"#utility.yul\":4327:4328   */\n  0x00\n    /* \"#utility.yul\":4324:4325   */\n  dup1\n    /* \"#utility.yul\":4317:4329   */\n  revert\n    /* \"#utility.yul\":4341:4458   */\ntag_51:\n    /* \"#utility.yul\":4450:4451   */\n  0x00\n    /* \"#utility.yul\":4447:4448   */\n  dup1\n    /* \"#utility.yul\":4440:4452   */\n  revert\n    /* \"#utility.yul\":4464:4581   */\ntag_47:\n    /* \"#utility.yul\":4573:4574   */\n  0x00\n    /* \"#utility.yul\":4570:4571   */\n  dup1\n    /* \"#utility.yul\":4563:4575   */\n  revert\n    /* \"#utility.yul\":4587:4689   */\ntag_64:\n    /* \"#utility.yul\":4628:4634   */\n  0x00\n    /* \"#utility.yul\":4679:4681   */\n  0x1f\n    /* \"#utility.yul\":4675:4682   */\n  not\n    /* \"#utility.yul\":4670:4672   */\n  0x1f\n    /* \"#utility.yul\":4663:4668   */\n  dup4\n    /* \"#utility.yul\":4659:4673   */\n  add\n    /* \"#utility.yul\":4655:4683   */\n  and\n    /* \"#utility.yul\":4645:4683   */\n  swap1\n  pop\n    /* \"#utility.yul\":4587:4689   */\n  swap2\n  swap1\n  pop\n  jump\t// out\n    /* \"#utility.yul\":4695:4817   */\ntag_43:\n    /* \"#utility.yul\":4768:4792   */\n  tag_96\n    /* \"#utility.yul\":4786:4791   */\n  dup2\n    /* \"#utility.yul\":4768:4792   */\n  tag_67\n  jump\t// in\ntag_96:\n    /* \"#utility.yul\":4761:4766   */\n  dup2\n    /* \"#utility.yul\":4758:4793   */\n  eq\n    /* \"#utility.yul\":4748:4811   */\n  tag_97\n  jumpi\n    /* \"#utility.yul\":4807:4808   */\n  0x00\n    /* \"#utility.yul\":4804:4805   */\n  dup1\n    /* \"#utility.yul\":4797:4809   */\n  revert\n    /* \"#utility.yul\":4748:4811   */\ntag_97:\n    /* \"#utility.yul\":4695:4817   */\n  pop\n  jump\t// out\n    /* \"contracts/myContract.sol\":76:1477  contract testContract {\r... */\ntag_10:\n  dataSize(sub_0)\n  dup1\n  dataOffset(sub_0)\n  0x00\n  codecopy\n  0x00\n  return\nstop\n\nsub_0: assembly {\n        /* \"contracts/myContract.sol\":76:1477  contract testContract {\r... */\n      mstore(0x40, 0x80)\n      jumpi(tag_1, lt(calldatasize, 0x04))\n      shr(0xe0, calldataload(0x00))\n      dup1\n      0x0aa0a175\n      eq\n      tag_3\n      jumpi\n      dup1\n      0x2443877c\n      eq\n      tag_4\n      jumpi\n      dup1\n      0x534844a2\n      eq\n      tag_5\n      jumpi\n      dup1\n      0x82d69b62\n      eq\n      tag_6\n      jumpi\n      dup1\n      0xbe291999\n      eq\n      tag_7\n      jumpi\n      jump(tag_2)\n    tag_1:\n      jumpi(tag_2, calldatasize)\n        /* \"contracts/myContract.sol\":1401:1416  subscriptionFee */\n      sload(0x03)\n        /* \"contracts/myContract.sol\":1387:1396  msg.value */\n      callvalue\n        /* \"contracts/myContract.sol\":1387:1416  msg.value ==  subscriptionFee */\n      eq\n        /* \"contracts/myContract.sol\":1378:1464  require( msg.value ==  subscriptionFee , \"Payment should be the subscription fee\"    ) */\n      tag_10\n      jumpi\n      mload(0x40)\n      0x08c379a000000000000000000000000000000000000000000000000000000000\n      dup2\n      mstore\n      0x04\n      add\n      tag_11\n      swap1\n      tag_12\n      jump\t// in\n    tag_11:\n      mload(0x40)\n      dup1\n      swap2\n      sub\n      swap1\n      revert\n    tag_10:\n        /* \"contracts/myContract.sol\":76:1477  contract testContract {\r... */\n      stop\n    tag_2:\n        /* \"contracts/myContract.sol\":1262:1277  subscriptionFee */\n      sload(0x03)\n        /* \"contracts/myContract.sol\":1248:1257  msg.value */\n      callvalue\n        /* \"contracts/myContract.sol\":1248:1277  msg.value ==  subscriptionFee */\n      eq\n        /* \"contracts/myContract.sol\":1239:1325  require( msg.value ==  subscriptionFee , \"Payment should be the subscription fee\"    ) */\n      tag_15\n      jumpi\n      mload(0x40)\n      0x08c379a000000000000000000000000000000000000000000000000000000000\n      dup2\n      mstore\n      0x04\n      add\n      tag_16\n      swap1\n      tag_12\n      jump\t// in\n    tag_16:\n      mload(0x40)\n      dup1\n      swap2\n      sub\n      swap1\n      revert\n    tag_15:\n        /* \"contracts/myContract.sol\":76:1477  contract testContract {\r... */\n      stop\n        /* \"contracts/myContract.sol\":240:267  uint public subscriptionFee */\n    tag_3:\n      callvalue\n      dup1\n      iszero\n      tag_17\n      jumpi\n      0x00\n      dup1\n      revert\n    tag_17:\n      pop\n      tag_18\n      tag_19\n      jump\t// in\n    tag_18:\n      mload(0x40)\n      tag_20\n      swap2\n      swap1\n      tag_21\n      jump\t// in\n    tag_20:\n      mload(0x40)\n      dup1\n      swap2\n      sub\n      swap1\n      return\n        /* \"contracts/myContract.sol\":274:299  string public channelName */\n    tag_4:\n      callvalue\n      dup1\n      iszero\n      tag_22\n      jumpi\n      0x00\n      dup1\n      revert\n    tag_22:\n      pop\n      tag_23\n      tag_24\n      jump\t// in\n    tag_23:\n      mload(0x40)\n      tag_25\n      swap2\n      swap1\n      tag_26\n      jump\t// in\n    tag_25:\n      mload(0x40)\n      dup1\n      swap2\n      sub\n      swap1\n      return\n        /* \"contracts/myContract.sol\":733:922  function withdrawAmount() payable public{\r... */\n    tag_5:\n      tag_27\n      tag_28\n      jump\t// in\n    tag_27:\n      stop\n        /* \"contracts/myContract.sol\":930:1193  function printSubscribersList() public view returns(address[] memory){\r... */\n    tag_6:\n      callvalue\n      dup1\n      iszero\n      tag_29\n      jumpi\n      0x00\n      dup1\n      revert\n    tag_29:\n      pop\n      tag_30\n      tag_31\n      jump\t// in\n    tag_30:\n      mload(0x40)\n      tag_32\n      swap2\n      swap1\n      tag_33\n      jump\t// in\n    tag_32:\n      mload(0x40)\n      dup1\n      swap2\n      sub\n      swap1\n      return\n        /* \"contracts/myContract.sol\":545:725  function addSubscriber() public payable{\r... */\n    tag_7:\n      tag_34\n      tag_35\n      jump\t// in\n    tag_34:\n      stop\n        /* \"contracts/myContract.sol\":240:267  uint public subscriptionFee */\n    tag_19:\n      sload(0x03)\n      dup2\n      jump\t// out\n        /* \"contracts/myContract.sol\":274:299  string public channelName */\n    tag_24:\n      0x04\n      dup1\n      sload\n      tag_36\n      swap1\n      tag_37\n      jump\t// in\n    tag_36:\n      dup1\n      0x1f\n      add\n      0x20\n      dup1\n      swap2\n      div\n      mul\n      0x20\n      add\n      mload(0x40)\n      swap1\n      dup2\n      add\n      0x40\n      mstore\n      dup1\n      swap3\n      swap2\n      swap1\n      dup2\n      dup2\n      mstore\n      0x20\n      add\n      dup3\n      dup1\n      sload\n      tag_38\n      swap1\n      tag_37\n      jump\t// in\n    tag_38:\n      dup1\n      iszero\n      tag_39\n      jumpi\n      dup1\n      0x1f\n      lt\n      tag_40\n      jumpi\n      0x0100\n      dup1\n      dup4\n      sload\n      div\n      mul\n      dup4\n      mstore\n      swap2\n      0x20\n      add\n      swap2\n      jump(tag_39)\n    tag_40:\n      dup3\n      add\n      swap2\n      swap1\n      0x00\n      mstore\n      keccak256(0x00, 0x20)\n      swap1\n    tag_41:\n      dup2\n      sload\n      dup2\n      mstore\n      swap1\n      0x01\n      add\n      swap1\n      0x20\n      add\n      dup1\n      dup4\n      gt\n      tag_41\n      jumpi\n      dup3\n      swap1\n      sub\n      0x1f\n      and\n      dup3\n      add\n      swap2\n    tag_39:\n      pop\n      pop\n      pop\n      pop\n      pop\n      dup2\n      jump\t// out\n        /* \"contracts/myContract.sol\":733:922  function withdrawAmount() payable public{\r... */\n    tag_28:\n        /* \"contracts/myContract.sol\":820:826  author */\n      0x02\n      0x00\n      swap1\n      sload\n      swap1\n      0x0100\n      exp\n      swap1\n      div\n      0xffffffffffffffffffffffffffffffffffffffff\n      and\n        /* \"contracts/myContract.sol\":806:826  msg.sender == author */\n      0xffffffffffffffffffffffffffffffffffffffff\n      and\n        /* \"contracts/myContract.sol\":806:816  msg.sender */\n      caller\n        /* \"contracts/myContract.sol\":806:826  msg.sender == author */\n      0xffffffffffffffffffffffffffffffffffffffff\n      and\n      eq\n        /* \"contracts/myContract.sol\":784:865  require(\r... */\n      tag_43\n      jumpi\n      mload(0x40)\n      0x08c379a000000000000000000000000000000000000000000000000000000000\n      dup2\n      mstore\n      0x04\n      add\n      tag_44\n      swap1\n      tag_45\n      jump\t// in\n    tag_44:\n      mload(0x40)\n      dup1\n      swap2\n      sub\n      swap1\n      revert\n    tag_43:\n        /* \"contracts/myContract.sol\":876:882  author */\n      0x02\n      0x00\n      swap1\n      sload\n      swap1\n      0x0100\n      exp\n      swap1\n      div\n      0xffffffffffffffffffffffffffffffffffffffff\n      and\n        /* \"contracts/myContract.sol\":876:891  author.transfer */\n      0xffffffffffffffffffffffffffffffffffffffff\n      and\n        /* \"contracts/myContract.sol\":876:914  author.transfer(address(this).balance) */\n      0x08fc\n        /* \"contracts/myContract.sol\":892:913  address(this).balance */\n      selfbalance\n        /* \"contracts/myContract.sol\":876:914  author.transfer(address(this).balance) */\n      swap1\n      dup2\n      iszero\n      mul\n      swap1\n      mload(0x40)\n      0x00\n      mload(0x40)\n      dup1\n      dup4\n      sub\n      dup2\n      dup6\n      dup9\n      dup9\n      call\n      swap4\n      pop\n      pop\n      pop\n      pop\n      iszero\n      dup1\n      iszero\n      tag_47\n      jumpi\n      returndatasize\n      0x00\n      dup1\n      returndatacopy\n      revert(0x00, returndatasize)\n    tag_47:\n      pop\n        /* \"contracts/myContract.sol\":733:922  function withdrawAmount() payable public{\r... */\n      jump\t// out\n        /* \"contracts/myContract.sol\":930:1193  function printSubscribersList() public view returns(address[] memory){\r... */\n    tag_31:\n        /* \"contracts/myContract.sol\":982:998  address[] memory */\n      0x60\n        /* \"contracts/myContract.sol\":1010:1030  address[] memory ret */\n      0x00\n        /* \"contracts/myContract.sol\":1047:1062  subscriberCount */\n      sload(0x01)\n        /* \"contracts/myContract.sol\":1033:1063  new address[](subscriberCount) */\n      0xffffffffffffffff\n      dup2\n      gt\n      iszero\n      tag_49\n      jumpi\n      tag_50\n      tag_51\n      jump\t// in\n    tag_50:\n    tag_49:\n      mload(0x40)\n      swap1\n      dup1\n      dup3\n      mstore\n      dup1\n      0x20\n      mul\n      0x20\n      add\n      dup3\n      add\n      0x40\n      mstore\n      dup1\n      iszero\n      tag_52\n      jumpi\n      dup2\n      0x20\n      add\n      0x20\n      dup3\n      mul\n      dup1\n      calldatasize\n      dup4\n      calldatacopy\n      dup1\n      dup3\n      add\n      swap2\n      pop\n      pop\n      swap1\n      pop\n    tag_52:\n      pop\n        /* \"contracts/myContract.sol\":1010:1063  address[] memory ret = new address[](subscriberCount) */\n      swap1\n      pop\n        /* \"contracts/myContract.sol\":1078:1084  uint i */\n      0x00\n        /* \"contracts/myContract.sol\":1074:1165  for(uint i = 0; i < subscriberCount; i++){\r... */\n    tag_53:\n        /* \"contracts/myContract.sol\":1094:1109  subscriberCount */\n      sload(0x01)\n        /* \"contracts/myContract.sol\":1090:1091  i */\n      dup2\n        /* \"contracts/myContract.sol\":1090:1109  i < subscriberCount */\n      lt\n        /* \"contracts/myContract.sol\":1074:1165  for(uint i = 0; i < subscriberCount; i++){\r... */\n      iszero\n      tag_54\n      jumpi\n        /* \"contracts/myContract.sol\":1139:1150  subscribers */\n      0x00\n        /* \"contracts/myContract.sol\":1139:1153  subscribers[i] */\n      dup1\n        /* \"contracts/myContract.sol\":1151:1152  i */\n      dup3\n        /* \"contracts/myContract.sol\":1139:1153  subscribers[i] */\n      dup2\n      mstore\n      0x20\n      add\n      swap1\n      dup2\n      mstore\n      0x20\n      add\n      0x00\n      keccak256\n      0x00\n      swap1\n      sload\n      swap1\n      0x0100\n      exp\n      swap1\n      div\n      0xffffffffffffffffffffffffffffffffffffffff\n      and\n        /* \"contracts/myContract.sol\":1130:1133  ret */\n      dup3\n        /* \"contracts/myContract.sol\":1134:1135  i */\n      dup3\n        /* \"contracts/myContract.sol\":1130:1136  ret[i] */\n      dup2\n      mload\n      dup2\n      lt\n      tag_56\n      jumpi\n      tag_57\n      tag_58\n      jump\t// in\n    tag_57:\n    tag_56:\n      0x20\n      mul\n      0x20\n      add\n      add\n        /* \"contracts/myContract.sol\":1130:1153  ret[i] = subscribers[i] */\n      swap1\n      0xffffffffffffffffffffffffffffffffffffffff\n      and\n      swap1\n      dup2\n      0xffffffffffffffffffffffffffffffffffffffff\n      and\n      dup2\n      mstore\n      pop\n      pop\n        /* \"contracts/myContract.sol\":1111:1114  i++ */\n      dup1\n      dup1\n      tag_59\n      swap1\n      tag_60\n      jump\t// in\n    tag_59:\n      swap2\n      pop\n      pop\n        /* \"contracts/myContract.sol\":1074:1165  for(uint i = 0; i < subscriberCount; i++){\r... */\n      jump(tag_53)\n    tag_54:\n      pop\n        /* \"contracts/myContract.sol\":1182:1185  ret */\n      dup1\n        /* \"contracts/myContract.sol\":1175:1185  return ret */\n      swap2\n      pop\n      pop\n        /* \"contracts/myContract.sol\":930:1193  function printSubscribersList() public view returns(address[] memory){\r... */\n      swap1\n      jump\t// out\n        /* \"contracts/myContract.sol\":545:725  function addSubscriber() public payable{\r... */\n    tag_35:\n        /* \"contracts/myContract.sol\":626:636  msg.sender */\n      caller\n        /* \"contracts/myContract.sol\":595:606  subscribers */\n      0x00\n        /* \"contracts/myContract.sol\":595:623  subscribers[subscriberCount] */\n      dup1\n        /* \"contracts/myContract.sol\":607:622  subscriberCount */\n      sload(0x01)\n        /* \"contracts/myContract.sol\":595:623  subscribers[subscriberCount] */\n      dup2\n      mstore\n      0x20\n      add\n      swap1\n      dup2\n      mstore\n      0x20\n      add\n      0x00\n      keccak256\n      0x00\n        /* \"contracts/myContract.sol\":595:636  subscribers[subscriberCount] = msg.sender */\n      0x0100\n      exp\n      dup2\n      sload\n      dup2\n      0xffffffffffffffffffffffffffffffffffffffff\n      mul\n      not\n      and\n      swap1\n      dup4\n      0xffffffffffffffffffffffffffffffffffffffff\n      and\n      mul\n      or\n      swap1\n      sstore\n      pop\n        /* \"contracts/myContract.sol\":647:662  subscriberCount */\n      0x01\n      0x00\n        /* \"contracts/myContract.sol\":647:664  subscriberCount++ */\n      dup2\n      sload\n      dup1\n      swap3\n      swap2\n      swap1\n      tag_62\n      swap1\n      tag_60\n      jump\t// in\n    tag_62:\n      swap2\n      swap1\n      pop\n      sstore\n      pop\n        /* \"contracts/myContract.sol\":691:695  this */\n      address\n        /* \"contracts/myContract.sol\":675:706  payable(address(this)).transfer */\n      0xffffffffffffffffffffffffffffffffffffffff\n      and\n        /* \"contracts/myContract.sol\":675:717  payable(address(this)).transfer(msg.value) */\n      0x08fc\n        /* \"contracts/myContract.sol\":707:716  msg.value */\n      callvalue\n        /* \"contracts/myContract.sol\":675:717  payable(address(this)).transfer(msg.value) */\n      swap1\n      dup2\n      iszero\n      mul\n      swap1\n      mload(0x40)\n      0x00\n      mload(0x40)\n      dup1\n      dup4\n      sub\n      dup2\n      dup6\n      dup9\n      dup9\n      call\n      swap4\n      pop\n      pop\n      pop\n      pop\n      iszero\n      dup1\n      iszero\n      tag_64\n      jumpi\n      returndatasize\n      0x00\n      dup1\n      returndatacopy\n      revert(0x00, returndatasize)\n    tag_64:\n      pop\n        /* \"contracts/myContract.sol\":545:725  function addSubscriber() public payable{\r... */\n      jump\t// out\n        /* \"#utility.yul\":7:186   */\n    tag_66:\n        /* \"#utility.yul\":76:86   */\n      0x00\n        /* \"#utility.yul\":97:143   */\n      tag_68\n        /* \"#utility.yul\":139:142   */\n      dup4\n        /* \"#utility.yul\":131:137   */\n      dup4\n        /* \"#utility.yul\":97:143   */\n      tag_69\n      jump\t// in\n    tag_68:\n        /* \"#utility.yul\":175:179   */\n      0x20\n        /* \"#utility.yul\":170:173   */\n      dup4\n        /* \"#utility.yul\":166:180   */\n      add\n        /* \"#utility.yul\":152:180   */\n      swap1\n      pop\n        /* \"#utility.yul\":7:186   */\n      swap3\n      swap2\n      pop\n      pop\n      jump\t// out\n        /* \"#utility.yul\":192:300   */\n    tag_69:\n        /* \"#utility.yul\":269:293   */\n      tag_71\n        /* \"#utility.yul\":287:292   */\n      dup2\n        /* \"#utility.yul\":269:293   */\n      tag_72\n      jump\t// in\n    tag_71:\n        /* \"#utility.yul\":264:267   */\n      dup3\n        /* \"#utility.yul\":257:294   */\n      mstore\n        /* \"#utility.yul\":192:300   */\n      pop\n      pop\n      jump\t// out\n        /* \"#utility.yul\":336:1068   */\n    tag_73:\n        /* \"#utility.yul\":455:458   */\n      0x00\n        /* \"#utility.yul\":484:538   */\n      tag_75\n        /* \"#utility.yul\":532:537   */\n      dup3\n        /* \"#utility.yul\":484:538   */\n      tag_76\n      jump\t// in\n    tag_75:\n        /* \"#utility.yul\":554:640   */\n      tag_77\n        /* \"#utility.yul\":633:639   */\n      dup2\n        /* \"#utility.yul\":628:631   */\n      dup6\n        /* \"#utility.yul\":554:640   */\n      tag_78\n      jump\t// in\n    tag_77:\n        /* \"#utility.yul\":547:640   */\n      swap4\n      pop\n        /* \"#utility.yul\":664:720   */\n      tag_79\n        /* \"#utility.yul\":714:719   */\n      dup4\n        /* \"#utility.yul\":664:720   */\n      tag_80\n      jump\t// in\n    tag_79:\n        /* \"#utility.yul\":743:750   */\n      dup1\n        /* \"#utility.yul\":774:775   */\n      0x00\n        /* \"#utility.yul\":759:1043   */\n    tag_81:\n        /* \"#utility.yul\":784:790   */\n      dup4\n        /* \"#utility.yul\":781:782   */\n      dup2\n        /* \"#utility.yul\":778:791   */\n      lt\n        /* \"#utility.yul\":759:1043   */\n      iszero\n      tag_83\n      jumpi\n        /* \"#utility.yul\":860:866   */\n      dup2\n        /* \"#utility.yul\":854:867   */\n      mload\n        /* \"#utility.yul\":887:950   */\n      tag_84\n        /* \"#utility.yul\":946:949   */\n      dup9\n        /* \"#utility.yul\":931:944   */\n      dup3\n        /* \"#utility.yul\":887:950   */\n      tag_66\n      jump\t// in\n    tag_84:\n        /* \"#utility.yul\":880:950   */\n      swap8\n      pop\n        /* \"#utility.yul\":973:1033   */\n      tag_85\n        /* \"#utility.yul\":1026:1032   */\n      dup4\n        /* \"#utility.yul\":973:1033   */\n      tag_86\n      jump\t// in\n    tag_85:\n        /* \"#utility.yul\":963:1033   */\n      swap3\n      pop\n        /* \"#utility.yul\":819:1043   */\n      pop\n        /* \"#utility.yul\":806:807   */\n      0x01\n        /* \"#utility.yul\":803:804   */\n      dup2\n        /* \"#utility.yul\":799:808   */\n      add\n        /* \"#utility.yul\":794:808   */\n      swap1\n      pop\n        /* \"#utility.yul\":759:1043   */\n      jump(tag_81)\n    tag_83:\n        /* \"#utility.yul\":763:777   */\n      pop\n        /* \"#utility.yul\":1059:1062   */\n      dup6\n        /* \"#utility.yul\":1052:1062   */\n      swap4\n      pop\n        /* \"#utility.yul\":460:1068   */\n      pop\n      pop\n      pop\n        /* \"#utility.yul\":336:1068   */\n      swap3\n      swap2\n      pop\n      pop\n      jump\t// out\n        /* \"#utility.yul\":1074:1438   */\n    tag_87:\n        /* \"#utility.yul\":1162:1165   */\n      0x00\n        /* \"#utility.yul\":1190:1229   */\n      tag_89\n        /* \"#utility.yul\":1223:1228   */\n      dup3\n        /* \"#utility.yul\":1190:1229   */\n      tag_90\n      jump\t// in\n    tag_89:\n        /* \"#utility.yul\":1245:1316   */\n      tag_91\n        /* \"#utility.yul\":1309:1315   */\n      dup2\n        /* \"#utility.yul\":1304:1307   */\n      dup6\n        /* \"#utility.yul\":1245:1316   */\n      tag_92\n      jump\t// in\n    tag_91:\n        /* \"#utility.yul\":1238:1316   */\n      swap4\n      pop\n        /* \"#utility.yul\":1325:1377   */\n      tag_93\n        /* \"#utility.yul\":1370:1376   */\n      dup2\n        /* \"#utility.yul\":1365:1368   */\n      dup6\n        /* \"#utility.yul\":1358:1362   */\n      0x20\n        /* \"#utility.yul\":1351:1356   */\n      dup7\n        /* \"#utility.yul\":1347:1363   */\n      add\n        /* \"#utility.yul\":1325:1377   */\n      tag_94\n      jump\t// in\n    tag_93:\n        /* \"#utility.yul\":1402:1431   */\n      tag_95\n        /* \"#utility.yul\":1424:1430   */\n      dup2\n        /* \"#utility.yul\":1402:1431   */\n      tag_96\n      jump\t// in\n    tag_95:\n        /* \"#utility.yul\":1397:1400   */\n      dup5\n        /* \"#utility.yul\":1393:1432   */\n      add\n        /* \"#utility.yul\":1386:1432   */\n      swap2\n      pop\n        /* \"#utility.yul\":1166:1438   */\n      pop\n        /* \"#utility.yul\":1074:1438   */\n      swap3\n      swap2\n      pop\n      pop\n      jump\t// out\n        /* \"#utility.yul\":1444:1810   */\n    tag_97:\n        /* \"#utility.yul\":1586:1589   */\n      0x00\n        /* \"#utility.yul\":1607:1674   */\n      tag_99\n        /* \"#utility.yul\":1671:1673   */\n      0x26\n        /* \"#utility.yul\":1666:1669   */\n      dup4\n        /* \"#utility.yul\":1607:1674   */\n      tag_92\n      jump\t// in\n    tag_99:\n        /* \"#utility.yul\":1600:1674   */\n      swap2\n      pop\n        /* \"#utility.yul\":1683:1776   */\n      tag_100\n        /* \"#utility.yul\":1772:1775   */\n      dup3\n        /* \"#utility.yul\":1683:1776   */\n      tag_101\n      jump\t// in\n    tag_100:\n        /* \"#utility.yul\":1801:1803   */\n      0x40\n        /* \"#utility.yul\":1796:1799   */\n      dup3\n        /* \"#utility.yul\":1792:1804   */\n      add\n        /* \"#utility.yul\":1785:1804   */\n      swap1\n      pop\n        /* \"#utility.yul\":1444:1810   */\n      swap2\n      swap1\n      pop\n      jump\t// out\n        /* \"#utility.yul\":1816:2182   */\n    tag_102:\n        /* \"#utility.yul\":1958:1961   */\n      0x00\n        /* \"#utility.yul\":1979:2046   */\n      tag_104\n        /* \"#utility.yul\":2043:2045   */\n      0x18\n        /* \"#utility.yul\":2038:2041   */\n      dup4\n        /* \"#utility.yul\":1979:2046   */\n      tag_92\n      jump\t// in\n    tag_104:\n        /* \"#utility.yul\":1972:2046   */\n      swap2\n      pop\n        /* \"#utility.yul\":2055:2148   */\n      tag_105\n        /* \"#utility.yul\":2144:2147   */\n      dup3\n        /* \"#utility.yul\":2055:2148   */\n      tag_106\n      jump\t// in\n    tag_105:\n        /* \"#utility.yul\":2173:2175   */\n      0x20\n        /* \"#utility.yul\":2168:2171   */\n      dup3\n        /* \"#utility.yul\":2164:2176   */\n      add\n        /* \"#utility.yul\":2157:2176   */\n      swap1\n      pop\n        /* \"#utility.yul\":1816:2182   */\n      swap2\n      swap1\n      pop\n      jump\t// out\n        /* \"#utility.yul\":2188:2306   */\n    tag_107:\n        /* \"#utility.yul\":2275:2299   */\n      tag_109\n        /* \"#utility.yul\":2293:2298   */\n      dup2\n        /* \"#utility.yul\":2275:2299   */\n      tag_110\n      jump\t// in\n    tag_109:\n        /* \"#utility.yul\":2270:2273   */\n      dup3\n        /* \"#utility.yul\":2263:2300   */\n      mstore\n        /* \"#utility.yul\":2188:2306   */\n      pop\n      pop\n      jump\t// out\n        /* \"#utility.yul\":2312:2685   */\n    tag_33:\n        /* \"#utility.yul\":2455:2459   */\n      0x00\n        /* \"#utility.yul\":2493:2495   */\n      0x20\n        /* \"#utility.yul\":2482:2491   */\n      dup3\n        /* \"#utility.yul\":2478:2496   */\n      add\n        /* \"#utility.yul\":2470:2496   */\n      swap1\n      pop\n        /* \"#utility.yul\":2542:2551   */\n      dup2\n        /* \"#utility.yul\":2536:2540   */\n      dup2\n        /* \"#utility.yul\":2532:2552   */\n      sub\n        /* \"#utility.yul\":2528:2529   */\n      0x00\n        /* \"#utility.yul\":2517:2526   */\n      dup4\n        /* \"#utility.yul\":2513:2530   */\n      add\n        /* \"#utility.yul\":2506:2553   */\n      mstore\n        /* \"#utility.yul\":2570:2678   */\n      tag_112\n        /* \"#utility.yul\":2673:2677   */\n      dup2\n        /* \"#utility.yul\":2664:2670   */\n      dup5\n        /* \"#utility.yul\":2570:2678   */\n      tag_73\n      jump\t// in\n    tag_112:\n        /* \"#utility.yul\":2562:2678   */\n      swap1\n      pop\n        /* \"#utility.yul\":2312:2685   */\n      swap3\n      swap2\n      pop\n      pop\n      jump\t// out\n        /* \"#utility.yul\":2691:3004   */\n    tag_26:\n        /* \"#utility.yul\":2804:2808   */\n      0x00\n        /* \"#utility.yul\":2842:2844   */\n      0x20\n        /* \"#utility.yul\":2831:2840   */\n      dup3\n        /* \"#utility.yul\":2827:2845   */\n      add\n        /* \"#utility.yul\":2819:2845   */\n      swap1\n      pop\n        /* \"#utility.yul\":2891:2900   */\n      dup2\n        /* \"#utility.yul\":2885:2889   */\n      dup2\n        /* \"#utility.yul\":2881:2901   */\n      sub\n        /* \"#utility.yul\":2877:2878   */\n      0x00\n        /* \"#utility.yul\":2866:2875   */\n      dup4\n        /* \"#utility.yul\":2862:2879   */\n      add\n        /* \"#utility.yul\":2855:2902   */\n      mstore\n        /* \"#utility.yul\":2919:2997   */\n      tag_114\n        /* \"#utility.yul\":2992:2996   */\n      dup2\n        /* \"#utility.yul\":2983:2989   */\n      dup5\n        /* \"#utility.yul\":2919:2997   */\n      tag_87\n      jump\t// in\n    tag_114:\n        /* \"#utility.yul\":2911:2997   */\n      swap1\n      pop\n        /* \"#utility.yul\":2691:3004   */\n      swap3\n      swap2\n      pop\n      pop\n      jump\t// out\n        /* \"#utility.yul\":3010:3429   */\n    tag_12:\n        /* \"#utility.yul\":3176:3180   */\n      0x00\n        /* \"#utility.yul\":3214:3216   */\n      0x20\n        /* \"#utility.yul\":3203:3212   */\n      dup3\n        /* \"#utility.yul\":3199:3217   */\n      add\n        /* \"#utility.yul\":3191:3217   */\n      swap1\n      pop\n        /* \"#utility.yul\":3263:3272   */\n      dup2\n        /* \"#utility.yul\":3257:3261   */\n      dup2\n        /* \"#utility.yul\":3253:3273   */\n      sub\n        /* \"#utility.yul\":3249:3250   */\n      0x00\n        /* \"#utility.yul\":3238:3247   */\n      dup4\n        /* \"#utility.yul\":3234:3251   */\n      add\n        /* \"#utility.yul\":3227:3274   */\n      mstore\n        /* \"#utility.yul\":3291:3422   */\n      tag_116\n        /* \"#utility.yul\":3417:3421   */\n      dup2\n        /* \"#utility.yul\":3291:3422   */\n      tag_97\n      jump\t// in\n    tag_116:\n        /* \"#utility.yul\":3283:3422   */\n      swap1\n      pop\n        /* \"#utility.yul\":3010:3429   */\n      swap2\n      swap1\n      pop\n      jump\t// out\n        /* \"#utility.yul\":3435:3854   */\n    tag_45:\n        /* \"#utility.yul\":3601:3605   */\n      0x00\n        /* \"#utility.yul\":3639:3641   */\n      0x20\n        /* \"#utility.yul\":3628:3637   */\n      dup3\n        /* \"#utility.yul\":3624:3642   */\n      add\n        /* \"#utility.yul\":3616:3642   */\n      swap1\n      pop\n        /* \"#utility.yul\":3688:3697   */\n      dup2\n        /* \"#utility.yul\":3682:3686   */\n      dup2\n        /* \"#utility.yul\":3678:3698   */\n      sub\n        /* \"#utility.yul\":3674:3675   */\n      0x00\n        /* \"#utility.yul\":3663:3672   */\n      dup4\n        /* \"#utility.yul\":3659:3676   */\n      add\n        /* \"#utility.yul\":3652:3699   */\n      mstore\n        /* \"#utility.yul\":3716:3847   */\n      tag_118\n        /* \"#utility.yul\":3842:3846   */\n      dup2\n        /* \"#utility.yul\":3716:3847   */\n      tag_102\n      jump\t// in\n    tag_118:\n        /* \"#utility.yul\":3708:3847   */\n      swap1\n      pop\n        /* \"#utility.yul\":3435:3854   */\n      swap2\n      swap1\n      pop\n      jump\t// out\n        /* \"#utility.yul\":3860:4082   */\n    tag_21:\n        /* \"#utility.yul\":3953:3957   */\n      0x00\n        /* \"#utility.yul\":3991:3993   */\n      0x20\n        /* \"#utility.yul\":3980:3989   */\n      dup3\n        /* \"#utility.yul\":3976:3994   */\n      add\n        /* \"#utility.yul\":3968:3994   */\n      swap1\n      pop\n        /* \"#utility.yul\":4004:4075   */\n      tag_120\n        /* \"#utility.yul\":4072:4073   */\n      0x00\n        /* \"#utility.yul\":4061:4070   */\n      dup4\n        /* \"#utility.yul\":4057:4074   */\n      add\n        /* \"#utility.yul\":4048:4054   */\n      dup5\n        /* \"#utility.yul\":4004:4075   */\n      tag_107\n      jump\t// in\n    tag_120:\n        /* \"#utility.yul\":3860:4082   */\n      swap3\n      swap2\n      pop\n      pop\n      jump\t// out\n        /* \"#utility.yul\":4088:4220   */\n    tag_80:\n        /* \"#utility.yul\":4155:4159   */\n      0x00\n        /* \"#utility.yul\":4178:4181   */\n      dup2\n        /* \"#utility.yul\":4170:4181   */\n      swap1\n      pop\n        /* \"#utility.yul\":4208:4212   */\n      0x20\n        /* \"#utility.yul\":4203:4206   */\n      dup3\n        /* \"#utility.yul\":4199:4213   */\n      add\n        /* \"#utility.yul\":4191:4213   */\n      swap1\n      pop\n        /* \"#utility.yul\":4088:4220   */\n      swap2\n      swap1\n      pop\n      jump\t// out\n        /* \"#utility.yul\":4226:4340   */\n    tag_76:\n        /* \"#utility.yul\":4293:4299   */\n      0x00\n        /* \"#utility.yul\":4327:4332   */\n      dup2\n        /* \"#utility.yul\":4321:4333   */\n      mload\n        /* \"#utility.yul\":4311:4333   */\n      swap1\n      pop\n        /* \"#utility.yul\":4226:4340   */\n      swap2\n      swap1\n      pop\n      jump\t// out\n        /* \"#utility.yul\":4346:4445   */\n    tag_90:\n        /* \"#utility.yul\":4398:4404   */\n      0x00\n        /* \"#utility.yul\":4432:4437   */\n      dup2\n        /* \"#utility.yul\":4426:4438   */\n      mload\n        /* \"#utility.yul\":4416:4438   */\n      swap1\n      pop\n        /* \"#utility.yul\":4346:4445   */\n      swap2\n      swap1\n      pop\n      jump\t// out\n        /* \"#utility.yul\":4451:4564   */\n    tag_86:\n        /* \"#utility.yul\":4521:4525   */\n      0x00\n        /* \"#utility.yul\":4553:4557   */\n      0x20\n        /* \"#utility.yul\":4548:4551   */\n      dup3\n        /* \"#utility.yul\":4544:4558   */\n      add\n        /* \"#utility.yul\":4536:4558   */\n      swap1\n      pop\n        /* \"#utility.yul\":4451:4564   */\n      swap2\n      swap1\n      pop\n      jump\t// out\n        /* \"#utility.yul\":4570:4754   */\n    tag_78:\n        /* \"#utility.yul\":4669:4680   */\n      0x00\n        /* \"#utility.yul\":4703:4709   */\n      dup3\n        /* \"#utility.yul\":4698:4701   */\n      dup3\n        /* \"#utility.yul\":4691:4710   */\n      mstore\n        /* \"#utility.yul\":4743:4747   */\n      0x20\n        /* \"#utility.yul\":4738:4741   */\n      dup3\n        /* \"#utility.yul\":4734:4748   */\n      add\n        /* \"#utility.yul\":4719:4748   */\n      swap1\n      pop\n        /* \"#utility.yul\":4570:4754   */\n      swap3\n      swap2\n      pop\n      pop\n      jump\t// out\n        /* \"#utility.yul\":4760:4929   */\n    tag_92:\n        /* \"#utility.yul\":4844:4855   */\n      0x00\n        /* \"#utility.yul\":4878:4884   */\n      dup3\n        /* \"#utility.yul\":4873:4876   */\n      dup3\n        /* \"#utility.yul\":4866:4885   */\n      mstore\n        /* \"#utility.yul\":4918:4922   */\n      0x20\n        /* \"#utility.yul\":4913:4916   */\n      dup3\n        /* \"#utility.yul\":4909:4923   */\n      add\n        /* \"#utility.yul\":4894:4923   */\n      swap1\n      pop\n        /* \"#utility.yul\":4760:4929   */\n      swap3\n      swap2\n      pop\n      pop\n      jump\t// out\n        /* \"#utility.yul\":4935:5031   */\n    tag_72:\n        /* \"#utility.yul\":4972:4979   */\n      0x00\n        /* \"#utility.yul\":5001:5025   */\n      tag_128\n        /* \"#utility.yul\":5019:5024   */\n      dup3\n        /* \"#utility.yul\":5001:5025   */\n      tag_129\n      jump\t// in\n    tag_128:\n        /* \"#utility.yul\":4990:5025   */\n      swap1\n      pop\n        /* \"#utility.yul\":4935:5031   */\n      swap2\n      swap1\n      pop\n      jump\t// out\n        /* \"#utility.yul\":5037:5163   */\n    tag_129:\n        /* \"#utility.yul\":5074:5081   */\n      0x00\n        /* \"#utility.yul\":5114:5156   */\n      0xffffffffffffffffffffffffffffffffffffffff\n        /* \"#utility.yul\":5107:5112   */\n      dup3\n        /* \"#utility.yul\":5103:5157   */\n      and\n        /* \"#utility.yul\":5092:5157   */\n      swap1\n      pop\n        /* \"#utility.yul\":5037:5163   */\n      swap2\n      swap1\n      pop\n      jump\t// out\n        /* \"#utility.yul\":5169:5246   */\n    tag_110:\n        /* \"#utility.yul\":5206:5213   */\n      0x00\n        /* \"#utility.yul\":5235:5240   */\n      dup2\n        /* \"#utility.yul\":5224:5240   */\n      swap1\n      pop\n        /* \"#utility.yul\":5169:5246   */\n      swap2\n      swap1\n      pop\n      jump\t// out\n        /* \"#utility.yul\":5252:5559   */\n    tag_94:\n        /* \"#utility.yul\":5320:5321   */\n      0x00\n        /* \"#utility.yul\":5330:5443   */\n    tag_133:\n        /* \"#utility.yul\":5344:5350   */\n      dup4\n        /* \"#utility.yul\":5341:5342   */\n      dup2\n        /* \"#utility.yul\":5338:5351   */\n      lt\n        /* \"#utility.yul\":5330:5443   */\n      iszero\n      tag_135\n      jumpi\n        /* \"#utility.yul\":5429:5430   */\n      dup1\n        /* \"#utility.yul\":5424:5427   */\n      dup3\n        /* \"#utility.yul\":5420:5431   */\n      add\n        /* \"#utility.yul\":5414:5432   */\n      mload\n        /* \"#utility.yul\":5410:5411   */\n      dup2\n        /* \"#utility.yul\":5405:5408   */\n      dup5\n        /* \"#utility.yul\":5401:5412   */\n      add\n        /* \"#utility.yul\":5394:5433   */\n      mstore\n        /* \"#utility.yul\":5366:5368   */\n      0x20\n        /* \"#utility.yul\":5363:5364   */\n      dup2\n        /* \"#utility.yul\":5359:5369   */\n      add\n        /* \"#utility.yul\":5354:5369   */\n      swap1\n      pop\n        /* \"#utility.yul\":5330:5443   */\n      jump(tag_133)\n    tag_135:\n        /* \"#utility.yul\":5461:5467   */\n      dup4\n        /* \"#utility.yul\":5458:5459   */\n      dup2\n        /* \"#utility.yul\":5455:5468   */\n      gt\n        /* \"#utility.yul\":5452:5553   */\n      iszero\n      tag_136\n      jumpi\n        /* \"#utility.yul\":5541:5542   */\n      0x00\n        /* \"#utility.yul\":5532:5538   */\n      dup5\n        /* \"#utility.yul\":5527:5530   */\n      dup5\n        /* \"#utility.yul\":5523:5539   */\n      add\n        /* \"#utility.yul\":5516:5543   */\n      mstore\n        /* \"#utility.yul\":5452:5553   */\n    tag_136:\n        /* \"#utility.yul\":5301:5559   */\n      pop\n        /* \"#utility.yul\":5252:5559   */\n      pop\n      pop\n      pop\n      jump\t// out\n        /* \"#utility.yul\":5565:5885   */\n    tag_37:\n        /* \"#utility.yul\":5609:5615   */\n      0x00\n        /* \"#utility.yul\":5646:5647   */\n      0x02\n        /* \"#utility.yul\":5640:5644   */\n      dup3\n        /* \"#utility.yul\":5636:5648   */\n      div\n        /* \"#utility.yul\":5626:5648   */\n      swap1\n      pop\n        /* \"#utility.yul\":5693:5694   */\n      0x01\n        /* \"#utility.yul\":5687:5691   */\n      dup3\n        /* \"#utility.yul\":5683:5695   */\n      and\n        /* \"#utility.yul\":5714:5732   */\n      dup1\n        /* \"#utility.yul\":5704:5785   */\n      tag_138\n      jumpi\n        /* \"#utility.yul\":5770:5774   */\n      0x7f\n        /* \"#utility.yul\":5762:5768   */\n      dup3\n        /* \"#utility.yul\":5758:5775   */\n      and\n        /* \"#utility.yul\":5748:5775   */\n      swap2\n      pop\n        /* \"#utility.yul\":5704:5785   */\n    tag_138:\n        /* \"#utility.yul\":5832:5834   */\n      0x20\n        /* \"#utility.yul\":5824:5830   */\n      dup3\n        /* \"#utility.yul\":5821:5835   */\n      lt\n        /* \"#utility.yul\":5801:5819   */\n      dup2\n        /* \"#utility.yul\":5798:5836   */\n      eq\n        /* \"#utility.yul\":5795:5879   */\n      iszero\n      tag_139\n      jumpi\n        /* \"#utility.yul\":5851:5869   */\n      tag_140\n      tag_141\n      jump\t// in\n    tag_140:\n        /* \"#utility.yul\":5795:5879   */\n    tag_139:\n        /* \"#utility.yul\":5616:5885   */\n      pop\n        /* \"#utility.yul\":5565:5885   */\n      swap2\n      swap1\n      pop\n      jump\t// out\n        /* \"#utility.yul\":5891:6124   */\n    tag_60:\n        /* \"#utility.yul\":5930:5933   */\n      0x00\n        /* \"#utility.yul\":5953:5977   */\n      tag_143\n        /* \"#utility.yul\":5971:5976   */\n      dup3\n        /* \"#utility.yul\":5953:5977   */\n      tag_110\n      jump\t// in\n    tag_143:\n        /* \"#utility.yul\":5944:5977   */\n      swap2\n      pop\n        /* \"#utility.yul\":5999:6065   */\n      0xffffffffffffffffffffffffffffffffffffffffffffffffffffffffffffffff\n        /* \"#utility.yul\":5992:5997   */\n      dup3\n        /* \"#utility.yul\":5989:6066   */\n      eq\n        /* \"#utility.yul\":5986:6089   */\n      iszero\n      tag_144\n      jumpi\n        /* \"#utility.yul\":6069:6087   */\n      tag_145\n      tag_146\n      jump\t// in\n    tag_145:\n        /* \"#utility.yul\":5986:6089   */\n    tag_144:\n        /* \"#utility.yul\":6116:6117   */\n      0x01\n        /* \"#utility.yul\":6109:6114   */\n      dup3\n        /* \"#utility.yul\":6105:6118   */\n      add\n        /* \"#utility.yul\":6098:6118   */\n      swap1\n      pop\n        /* \"#utility.yul\":5891:6124   */\n      swap2\n      swap1\n      pop\n      jump\t// out\n        /* \"#utility.yul\":6130:6310   */\n    tag_146:\n        /* \"#utility.yul\":6178:6255   */\n      0x4e487b7100000000000000000000000000000000000000000000000000000000\n        /* \"#utility.yul\":6175:6176   */\n      0x00\n        /* \"#utility.yul\":6168:6256   */\n      mstore\n        /* \"#utility.yul\":6275:6279   */\n      0x11\n        /* \"#utility.yul\":6272:6273   */\n      0x04\n        /* \"#utility.yul\":6265:6280   */\n      mstore\n        /* \"#utility.yul\":6299:6303   */\n      0x24\n        /* \"#utility.yul\":6296:6297   */\n      0x00\n        /* \"#utility.yul\":6289:6304   */\n      revert\n        /* \"#utility.yul\":6316:6496   */\n    tag_141:\n        /* \"#utility.yul\":6364:6441   */\n      0x4e487b7100000000000000000000000000000000000000000000000000000000\n        /* \"#utility.yul\":6361:6362   */\n      0x00\n        /* \"#utility.yul\":6354:6442   */\n      mstore\n        /* \"#utility.yul\":6461:6465   */\n      0x22\n        /* \"#utility.yul\":6458:6459   */\n      0x04\n        /* \"#utility.yul\":6451:6466   */\n      mstore\n        /* \"#utility.yul\":6485:6489   */\n      0x24\n        /* \"#utility.yul\":6482:6483   */\n      0x00\n        /* \"#utility.yul\":6475:6490   */\n      revert\n        /* \"#utility.yul\":6502:6682   */\n    tag_58:\n        /* \"#utility.yul\":6550:6627   */\n      0x4e487b7100000000000000000000000000000000000000000000000000000000\n        /* \"#utility.yul\":6547:6548   */\n      0x00\n        /* \"#utility.yul\":6540:6628   */\n      mstore\n        /* \"#utility.yul\":6647:6651   */\n      0x32\n        /* \"#utility.yul\":6644:6645   */\n      0x04\n        /* \"#utility.yul\":6637:6652   */\n      mstore\n        /* \"#utility.yul\":6671:6675   */\n      0x24\n        /* \"#utility.yul\":6668:6669   */\n      0x00\n        /* \"#utility.yul\":6661:6676   */\n      revert\n        /* \"#utility.yul\":6688:6868   */\n    tag_51:\n        /* \"#utility.yul\":6736:6813   */\n      0x4e487b7100000000000000000000000000000000000000000000000000000000\n        /* \"#utility.yul\":6733:6734   */\n      0x00\n        /* \"#utility.yul\":6726:6814   */\n      mstore\n        /* \"#utility.yul\":6833:6837   */\n      0x41\n        /* \"#utility.yul\":6830:6831   */\n      0x04\n        /* \"#utility.yul\":6823:6838   */\n      mstore\n        /* \"#utility.yul\":6857:6861   */\n      0x24\n        /* \"#utility.yul\":6854:6855   */\n      0x00\n        /* \"#utility.yul\":6847:6862   */\n      revert\n        /* \"#utility.yul\":6874:6976   */\n    tag_96:\n        /* \"#utility.yul\":6915:6921   */\n      0x00\n        /* \"#utility.yul\":6966:6968   */\n      0x1f\n        /* \"#utility.yul\":6962:6969   */\n      not\n        /* \"#utility.yul\":6957:6959   */\n      0x1f\n        /* \"#utility.yul\":6950:6955   */\n      dup4\n        /* \"#utility.yul\":6946:6960   */\n      add\n        /* \"#utility.yul\":6942:6970   */\n      and\n        /* \"#utility.yul\":6932:6970   */\n      swap1\n      pop\n        /* \"#utility.yul\":6874:6976   */\n      swap2\n      swap1\n      pop\n      jump\t// out\n        /* \"#utility.yul\":6982:7207   */\n    tag_101:\n        /* \"#utility.yul\":7122:7156   */\n      0x5061796d656e742073686f756c64206265207468652073756273637269707469\n        /* \"#utility.yul\":7118:7119   */\n      0x00\n        /* \"#utility.yul\":7110:7116   */\n      dup3\n        /* \"#utility.yul\":7106:7120   */\n      add\n        /* \"#utility.yul\":7099:7157   */\n      mstore\n        /* \"#utility.yul\":7191:7199   */\n      0x6f6e206665650000000000000000000000000000000000000000000000000000\n        /* \"#utility.yul\":7186:7188   */\n      0x20\n        /* \"#utility.yul\":7178:7184   */\n      dup3\n        /* \"#utility.yul\":7174:7189   */\n      add\n        /* \"#utility.yul\":7167:7200   */\n      mstore\n        /* \"#utility.yul\":6982:7207   */\n      pop\n      jump\t// out\n        /* \"#utility.yul\":7213:7387   */\n    tag_106:\n        /* \"#utility.yul\":7353:7379   */\n      0x4f6e6c7920617574686f722063616e2077697468647261210000000000000000\n        /* \"#utility.yul\":7349:7350   */\n      0x00\n        /* \"#utility.yul\":7341:7347   */\n      dup3\n        /* \"#utility.yul\":7337:7351   */\n      add\n        /* \"#utility.yul\":7330:7380   */\n      mstore\n        /* \"#utility.yul\":7213:7387   */\n      pop\n      jump\t// out\n\n    auxdata: 0xa26469706673582212207b5fe2df6b37cf6681878c7c818a9a5739ce1b1bd664a38feaf7f46ff284d96e64736f6c63430008070033\n}\n",
				"bytecode": {
					"linkReferences": {},
					"object": "608060405260006001553480156200001657600080fd5b5060405162000dc538038062000dc583398181016040528101906200003c9190620001fb565b33600260006101000a81548173ffffffffffffffffffffffffffffffffffffffff021916908373ffffffffffffffffffffffffffffffffffffffff160217905550633b9aca00826200008f9190620002c0565b6003819055508060049080519060200190620000ad929190620000b6565b50505062000499565b828054620000c49062000361565b90600052602060002090601f016020900481019282620000e8576000855562000134565b82601f106200010357805160ff191683800117855562000134565b8280016001018555821562000134579182015b828111156200013357825182559160200191906001019062000116565b5b50905062000143919062000147565b5090565b5b808211156200016257600081600090555060010162000148565b5090565b60006200017d62000177846200028a565b62000261565b9050828152602081018484840111156200019c576200019b6200045f565b5b620001a98482856200032b565b509392505050565b600082601f830112620001c957620001c86200045a565b5b8151620001db84826020860162000166565b91505092915050565b600081519050620001f5816200047f565b92915050565b6000806040838503121562000215576200021462000469565b5b60006200022585828601620001e4565b925050602083015167ffffffffffffffff81111562000249576200024862000464565b5b6200025785828601620001b1565b9150509250929050565b60006200026d62000280565b90506200027b828262000397565b919050565b6000604051905090565b600067ffffffffffffffff821115620002a857620002a76200042b565b5b620002b3826200046e565b9050602081019050919050565b6000620002cd8262000321565b9150620002da8362000321565b9250817fffffffffffffffffffffffffffffffffffffffffffffffffffffffffffffffff0483118215151615620003165762000315620003cd565b5b828202905092915050565b6000819050919050565b60005b838110156200034b5780820151818401526020810190506200032e565b838111156200035b576000848401525b50505050565b600060028204905060018216806200037a57607f821691505b60208210811415620003915762000390620003fc565b5b50919050565b620003a2826200046e565b810181811067ffffffffffffffff82111715620003c457620003c36200042b565b5b80604052505050565b7f4e487b7100000000000000000000000000000000000000000000000000000000600052601160045260246000fd5b7f4e487b7100000000000000000000000000000000000000000000000000000000600052602260045260246000fd5b7f4e487b7100000000000000000000000000000000000000000000000000000000600052604160045260246000fd5b600080fd5b600080fd5b600080fd5b600080fd5b6000601f19601f8301169050919050565b6200048a8162000321565b81146200049657600080fd5b50565b61091c80620004a96000396000f3fe60806040526004361061004e5760003560e01c80630aa0a175146100df5780632443877c1461010a578063534844a21461013557806382d69b621461013f578063be2919991461016a57610099565b36610099576003543414610097576040517f08c379a000000000000000000000000000000000000000000000000000000000815260040161008e90610607565b60405180910390fd5b005b60035434146100dd576040517f08c379a00000000000000000000000000000000000000000000000000000000081526004016100d490610607565b60405180910390fd5b005b3480156100eb57600080fd5b506100f4610174565b6040516101019190610647565b60405180910390f35b34801561011657600080fd5b5061011f61017a565b60405161012c91906105e5565b60405180910390f35b61013d610208565b005b34801561014b57600080fd5b50610154610303565b60405161016191906105c3565b60405180910390f35b6101726103fc565b005b60035481565b6004805461018790610726565b80601f01602080910402602001604051908101604052809291908181526020018280546101b390610726565b80156102005780601f106101d557610100808354040283529160200191610200565b820191906000526020600020905b8154815290600101906020018083116101e357829003601f168201915b505050505081565b600260009054906101000a900473ffffffffffffffffffffffffffffffffffffffff1673ffffffffffffffffffffffffffffffffffffffff163373ffffffffffffffffffffffffffffffffffffffff1614610298576040517f08c379a000000000000000000000000000000000000000000000000000000000815260040161028f90610627565b60405180910390fd5b600260009054906101000a900473ffffffffffffffffffffffffffffffffffffffff1673ffffffffffffffffffffffffffffffffffffffff166108fc479081150290604051600060405180830381858888f19350505050158015610300573d6000803e3d6000fd5b50565b6060600060015467ffffffffffffffff8111156103235761032261082e565b5b6040519080825280602002602001820160405280156103515781602001602082028036833780820191505090505b50905060005b6001548110156103f45760008082815260200190815260200160002060009054906101000a900473ffffffffffffffffffffffffffffffffffffffff168282815181106103a7576103a66107ff565b5b602002602001019073ffffffffffffffffffffffffffffffffffffffff16908173ffffffffffffffffffffffffffffffffffffffff168152505080806103ec90610758565b915050610357565b508091505090565b33600080600154815260200190815260200160002060006101000a81548173ffffffffffffffffffffffffffffffffffffffff021916908373ffffffffffffffffffffffffffffffffffffffff1602179055506001600081548092919061046290610758565b91905055503073ffffffffffffffffffffffffffffffffffffffff166108fc349081150290604051600060405180830381858888f193505050501580156104ad573d6000803e3d6000fd5b50565b60006104bc83836104c8565b60208301905092915050565b6104d1816106b7565b82525050565b60006104e282610672565b6104ec8185610695565b93506104f783610662565b8060005b8381101561052857815161050f88826104b0565b975061051a83610688565b9250506001810190506104fb565b5085935050505092915050565b60006105408261067d565b61054a81856106a6565b935061055a8185602086016106f3565b6105638161085d565b840191505092915050565b600061057b6026836106a6565b91506105868261086e565b604082019050919050565b600061059e6018836106a6565b91506105a9826108bd565b602082019050919050565b6105bd816106e9565b82525050565b600060208201905081810360008301526105dd81846104d7565b905092915050565b600060208201905081810360008301526105ff8184610535565b905092915050565b600060208201905081810360008301526106208161056e565b9050919050565b6000602082019050818103600083015261064081610591565b9050919050565b600060208201905061065c60008301846105b4565b92915050565b6000819050602082019050919050565b600081519050919050565b600081519050919050565b6000602082019050919050565b600082825260208201905092915050565b600082825260208201905092915050565b60006106c2826106c9565b9050919050565b600073ffffffffffffffffffffffffffffffffffffffff82169050919050565b6000819050919050565b60005b838110156107115780820151818401526020810190506106f6565b83811115610720576000848401525b50505050565b6000600282049050600182168061073e57607f821691505b60208210811415610752576107516107d0565b5b50919050565b6000610763826106e9565b91507fffffffffffffffffffffffffffffffffffffffffffffffffffffffffffffffff821415610796576107956107a1565b5b600182019050919050565b7f4e487b7100000000000000000000000000000000000000000000000000000000600052601160045260246000fd5b7f4e487b7100000000000000000000000000000000000000000000000000000000600052602260045260246000fd5b7f4e487b7100000000000000000000000000000000000000000000000000000000600052603260045260246000fd5b7f4e487b7100000000000000000000000000000000000000000000000000000000600052604160045260246000fd5b6000601f19601f8301169050919050565b7f5061796d656e742073686f756c6420626520746865207375627363726970746960008201527f6f6e206665650000000000000000000000000000000000000000000000000000602082015250565b7f4f6e6c7920617574686f722063616e207769746864726121000000000000000060008201525056fea26469706673582212207b5fe2df6b37cf6681878c7c818a9a5739ce1b1bd664a38feaf7f46ff284d96e64736f6c63430008070033",
					"opcodes": "PUSH1 0x80 PUSH1 0x40 MSTORE PUSH1 0x0 PUSH1 0x1 SSTORE CALLVALUE DUP1 ISZERO PUSH3 0x16 JUMPI PUSH1 0x0 DUP1 REVERT JUMPDEST POP PUSH1 0x40 MLOAD PUSH3 0xDC5 CODESIZE SUB DUP1 PUSH3 0xDC5 DUP4 CODECOPY DUP2 DUP2 ADD PUSH1 0x40 MSTORE DUP2 ADD SWAP1 PUSH3 0x3C SWAP2 SWAP1 PUSH3 0x1FB JUMP JUMPDEST CALLER PUSH1 0x2 PUSH1 0x0 PUSH2 0x100 EXP DUP2 SLOAD DUP2 PUSH20 0xFFFFFFFFFFFFFFFFFFFFFFFFFFFFFFFFFFFFFFFF MUL NOT AND SWAP1 DUP4 PUSH20 0xFFFFFFFFFFFFFFFFFFFFFFFFFFFFFFFFFFFFFFFF AND MUL OR SWAP1 SSTORE POP PUSH4 0x3B9ACA00 DUP3 PUSH3 0x8F SWAP2 SWAP1 PUSH3 0x2C0 JUMP JUMPDEST PUSH1 0x3 DUP2 SWAP1 SSTORE POP DUP1 PUSH1 0x4 SWAP1 DUP1 MLOAD SWAP1 PUSH1 0x20 ADD SWAP1 PUSH3 0xAD SWAP3 SWAP2 SWAP1 PUSH3 0xB6 JUMP JUMPDEST POP POP POP PUSH3 0x499 JUMP JUMPDEST DUP3 DUP1 SLOAD PUSH3 0xC4 SWAP1 PUSH3 0x361 JUMP JUMPDEST SWAP1 PUSH1 0x0 MSTORE PUSH1 0x20 PUSH1 0x0 KECCAK256 SWAP1 PUSH1 0x1F ADD PUSH1 0x20 SWAP1 DIV DUP2 ADD SWAP3 DUP3 PUSH3 0xE8 JUMPI PUSH1 0x0 DUP6 SSTORE PUSH3 0x134 JUMP JUMPDEST DUP3 PUSH1 0x1F LT PUSH3 0x103 JUMPI DUP1 MLOAD PUSH1 0xFF NOT AND DUP4 DUP1 ADD OR DUP6 SSTORE PUSH3 0x134 JUMP JUMPDEST DUP3 DUP1 ADD PUSH1 0x1 ADD DUP6 SSTORE DUP3 ISZERO PUSH3 0x134 JUMPI SWAP2 DUP3 ADD JUMPDEST DUP3 DUP2 GT ISZERO PUSH3 0x133 JUMPI DUP3 MLOAD DUP3 SSTORE SWAP2 PUSH1 0x20 ADD SWAP2 SWAP1 PUSH1 0x1 ADD SWAP1 PUSH3 0x116 JUMP JUMPDEST JUMPDEST POP SWAP1 POP PUSH3 0x143 SWAP2 SWAP1 PUSH3 0x147 JUMP JUMPDEST POP SWAP1 JUMP JUMPDEST JUMPDEST DUP1 DUP3 GT ISZERO PUSH3 0x162 JUMPI PUSH1 0x0 DUP2 PUSH1 0x0 SWAP1 SSTORE POP PUSH1 0x1 ADD PUSH3 0x148 JUMP JUMPDEST POP SWAP1 JUMP JUMPDEST PUSH1 0x0 PUSH3 0x17D PUSH3 0x177 DUP5 PUSH3 0x28A JUMP JUMPDEST PUSH3 0x261 JUMP JUMPDEST SWAP1 POP DUP3 DUP2 MSTORE PUSH1 0x20 DUP2 ADD DUP5 DUP5 DUP5 ADD GT ISZERO PUSH3 0x19C JUMPI PUSH3 0x19B PUSH3 0x45F JUMP JUMPDEST JUMPDEST PUSH3 0x1A9 DUP5 DUP3 DUP6 PUSH3 0x32B JUMP JUMPDEST POP SWAP4 SWAP3 POP POP POP JUMP JUMPDEST PUSH1 0x0 DUP3 PUSH1 0x1F DUP4 ADD SLT PUSH3 0x1C9 JUMPI PUSH3 0x1C8 PUSH3 0x45A JUMP JUMPDEST JUMPDEST DUP2 MLOAD PUSH3 0x1DB DUP5 DUP3 PUSH1 0x20 DUP7 ADD PUSH3 0x166 JUMP JUMPDEST SWAP2 POP POP SWAP3 SWAP2 POP POP JUMP JUMPDEST PUSH1 0x0 DUP2 MLOAD SWAP1 POP PUSH3 0x1F5 DUP2 PUSH3 0x47F JUMP JUMPDEST SWAP3 SWAP2 POP POP JUMP JUMPDEST PUSH1 0x0 DUP1 PUSH1 0x40 DUP4 DUP6 SUB SLT ISZERO PUSH3 0x215 JUMPI PUSH3 0x214 PUSH3 0x469 JUMP JUMPDEST JUMPDEST PUSH1 0x0 PUSH3 0x225 DUP6 DUP3 DUP7 ADD PUSH3 0x1E4 JUMP JUMPDEST SWAP3 POP POP PUSH1 0x20 DUP4 ADD MLOAD PUSH8 0xFFFFFFFFFFFFFFFF DUP2 GT ISZERO PUSH3 0x249 JUMPI PUSH3 0x248 PUSH3 0x464 JUMP JUMPDEST JUMPDEST PUSH3 0x257 DUP6 DUP3 DUP7 ADD PUSH3 0x1B1 JUMP JUMPDEST SWAP2 POP POP SWAP3 POP SWAP3 SWAP1 POP JUMP JUMPDEST PUSH1 0x0 PUSH3 0x26D PUSH3 0x280 JUMP JUMPDEST SWAP1 POP PUSH3 0x27B DUP3 DUP3 PUSH3 0x397 JUMP JUMPDEST SWAP2 SWAP1 POP JUMP JUMPDEST PUSH1 0x0 PUSH1 0x40 MLOAD SWAP1 POP SWAP1 JUMP JUMPDEST PUSH1 0x0 PUSH8 0xFFFFFFFFFFFFFFFF DUP3 GT ISZERO PUSH3 0x2A8 JUMPI PUSH3 0x2A7 PUSH3 0x42B JUMP JUMPDEST JUMPDEST PUSH3 0x2B3 DUP3 PUSH3 0x46E JUMP JUMPDEST SWAP1 POP PUSH1 0x20 DUP2 ADD SWAP1 POP SWAP2 SWAP1 POP JUMP JUMPDEST PUSH1 0x0 PUSH3 0x2CD DUP3 PUSH3 0x321 JUMP JUMPDEST SWAP2 POP PUSH3 0x2DA DUP4 PUSH3 0x321 JUMP JUMPDEST SWAP3 POP DUP2 PUSH32 0xFFFFFFFFFFFFFFFFFFFFFFFFFFFFFFFFFFFFFFFFFFFFFFFFFFFFFFFFFFFFFFFF DIV DUP4 GT DUP3 ISZERO ISZERO AND ISZERO PUSH3 0x316 JUMPI PUSH3 0x315 PUSH3 0x3CD JUMP JUMPDEST JUMPDEST DUP3 DUP3 MUL SWAP1 POP SWAP3 SWAP2 POP POP JUMP JUMPDEST PUSH1 0x0 DUP2 SWAP1 POP SWAP2 SWAP1 POP JUMP JUMPDEST PUSH1 0x0 JUMPDEST DUP4 DUP2 LT ISZERO PUSH3 0x34B JUMPI DUP1 DUP3 ADD MLOAD DUP2 DUP5 ADD MSTORE PUSH1 0x20 DUP2 ADD SWAP1 POP PUSH3 0x32E JUMP JUMPDEST DUP4 DUP2 GT ISZERO PUSH3 0x35B JUMPI PUSH1 0x0 DUP5 DUP5 ADD MSTORE JUMPDEST POP POP POP POP JUMP JUMPDEST PUSH1 0x0 PUSH1 0x2 DUP3 DIV SWAP1 POP PUSH1 0x1 DUP3 AND DUP1 PUSH3 0x37A JUMPI PUSH1 0x7F DUP3 AND SWAP2 POP JUMPDEST PUSH1 0x20 DUP3 LT DUP2 EQ ISZERO PUSH3 0x391 JUMPI PUSH3 0x390 PUSH3 0x3FC JUMP JUMPDEST JUMPDEST POP SWAP2 SWAP1 POP JUMP JUMPDEST PUSH3 0x3A2 DUP3 PUSH3 0x46E JUMP JUMPDEST DUP2 ADD DUP2 DUP2 LT PUSH8 0xFFFFFFFFFFFFFFFF DUP3 GT OR ISZERO PUSH3 0x3C4 JUMPI PUSH3 0x3C3 PUSH3 0x42B JUMP JUMPDEST JUMPDEST DUP1 PUSH1 0x40 MSTORE POP POP POP JUMP JUMPDEST PUSH32 0x4E487B7100000000000000000000000000000000000000000000000000000000 PUSH1 0x0 MSTORE PUSH1 0x11 PUSH1 0x4 MSTORE PUSH1 0x24 PUSH1 0x0 REVERT JUMPDEST PUSH32 0x4E487B7100000000000000000000000000000000000000000000000000000000 PUSH1 0x0 MSTORE PUSH1 0x22 PUSH1 0x4 MSTORE PUSH1 0x24 PUSH1 0x0 REVERT JUMPDEST PUSH32 0x4E487B7100000000000000000000000000000000000000000000000000000000 PUSH1 0x0 MSTORE PUSH1 0x41 PUSH1 0x4 MSTORE PUSH1 0x24 PUSH1 0x0 REVERT JUMPDEST PUSH1 0x0 DUP1 REVERT JUMPDEST PUSH1 0x0 DUP1 REVERT JUMPDEST PUSH1 0x0 DUP1 REVERT JUMPDEST PUSH1 0x0 DUP1 REVERT JUMPDEST PUSH1 0x0 PUSH1 0x1F NOT PUSH1 0x1F DUP4 ADD AND SWAP1 POP SWAP2 SWAP1 POP JUMP JUMPDEST PUSH3 0x48A DUP2 PUSH3 0x321 JUMP JUMPDEST DUP2 EQ PUSH3 0x496 JUMPI PUSH1 0x0 DUP1 REVERT JUMPDEST POP JUMP JUMPDEST PUSH2 0x91C DUP1 PUSH3 0x4A9 PUSH1 0x0 CODECOPY PUSH1 0x0 RETURN INVALID PUSH1 0x80 PUSH1 0x40 MSTORE PUSH1 0x4 CALLDATASIZE LT PUSH2 0x4E JUMPI PUSH1 0x0 CALLDATALOAD PUSH1 0xE0 SHR DUP1 PUSH4 0xAA0A175 EQ PUSH2 0xDF JUMPI DUP1 PUSH4 0x2443877C EQ PUSH2 0x10A JUMPI DUP1 PUSH4 0x534844A2 EQ PUSH2 0x135 JUMPI DUP1 PUSH4 0x82D69B62 EQ PUSH2 0x13F JUMPI DUP1 PUSH4 0xBE291999 EQ PUSH2 0x16A JUMPI PUSH2 0x99 JUMP JUMPDEST CALLDATASIZE PUSH2 0x99 JUMPI PUSH1 0x3 SLOAD CALLVALUE EQ PUSH2 0x97 JUMPI PUSH1 0x40 MLOAD PUSH32 0x8C379A000000000000000000000000000000000000000000000000000000000 DUP2 MSTORE PUSH1 0x4 ADD PUSH2 0x8E SWAP1 PUSH2 0x607 JUMP JUMPDEST PUSH1 0x40 MLOAD DUP1 SWAP2 SUB SWAP1 REVERT JUMPDEST STOP JUMPDEST PUSH1 0x3 SLOAD CALLVALUE EQ PUSH2 0xDD JUMPI PUSH1 0x40 MLOAD PUSH32 0x8C379A000000000000000000000000000000000000000000000000000000000 DUP2 MSTORE PUSH1 0x4 ADD PUSH2 0xD4 SWAP1 PUSH2 0x607 JUMP JUMPDEST PUSH1 0x40 MLOAD DUP1 SWAP2 SUB SWAP1 REVERT JUMPDEST STOP JUMPDEST CALLVALUE DUP1 ISZERO PUSH2 0xEB JUMPI PUSH1 0x0 DUP1 REVERT JUMPDEST POP PUSH2 0xF4 PUSH2 0x174 JUMP JUMPDEST PUSH1 0x40 MLOAD PUSH2 0x101 SWAP2 SWAP1 PUSH2 0x647 JUMP JUMPDEST PUSH1 0x40 MLOAD DUP1 SWAP2 SUB SWAP1 RETURN JUMPDEST CALLVALUE DUP1 ISZERO PUSH2 0x116 JUMPI PUSH1 0x0 DUP1 REVERT JUMPDEST POP PUSH2 0x11F PUSH2 0x17A JUMP JUMPDEST PUSH1 0x40 MLOAD PUSH2 0x12C SWAP2 SWAP1 PUSH2 0x5E5 JUMP JUMPDEST PUSH1 0x40 MLOAD DUP1 SWAP2 SUB SWAP1 RETURN JUMPDEST PUSH2 0x13D PUSH2 0x208 JUMP JUMPDEST STOP JUMPDEST CALLVALUE DUP1 ISZERO PUSH2 0x14B JUMPI PUSH1 0x0 DUP1 REVERT JUMPDEST POP PUSH2 0x154 PUSH2 0x303 JUMP JUMPDEST PUSH1 0x40 MLOAD PUSH2 0x161 SWAP2 SWAP1 PUSH2 0x5C3 JUMP JUMPDEST PUSH1 0x40 MLOAD DUP1 SWAP2 SUB SWAP1 RETURN JUMPDEST PUSH2 0x172 PUSH2 0x3FC JUMP JUMPDEST STOP JUMPDEST PUSH1 0x3 SLOAD DUP2 JUMP JUMPDEST PUSH1 0x4 DUP1 SLOAD PUSH2 0x187 SWAP1 PUSH2 0x726 JUMP JUMPDEST DUP1 PUSH1 0x1F ADD PUSH1 0x20 DUP1 SWAP2 DIV MUL PUSH1 0x20 ADD PUSH1 0x40 MLOAD SWAP1 DUP2 ADD PUSH1 0x40 MSTORE DUP1 SWAP3 SWAP2 SWAP1 DUP2 DUP2 MSTORE PUSH1 0x20 ADD DUP3 DUP1 SLOAD PUSH2 0x1B3 SWAP1 PUSH2 0x726 JUMP JUMPDEST DUP1 ISZERO PUSH2 0x200 JUMPI DUP1 PUSH1 0x1F LT PUSH2 0x1D5 JUMPI PUSH2 0x100 DUP1 DUP4 SLOAD DIV MUL DUP4 MSTORE SWAP2 PUSH1 0x20 ADD SWAP2 PUSH2 0x200 JUMP JUMPDEST DUP3 ADD SWAP2 SWAP1 PUSH1 0x0 MSTORE PUSH1 0x20 PUSH1 0x0 KECCAK256 SWAP1 JUMPDEST DUP2 SLOAD DUP2 MSTORE SWAP1 PUSH1 0x1 ADD SWAP1 PUSH1 0x20 ADD DUP1 DUP4 GT PUSH2 0x1E3 JUMPI DUP3 SWAP1 SUB PUSH1 0x1F AND DUP3 ADD SWAP2 JUMPDEST POP POP POP POP POP DUP2 JUMP JUMPDEST PUSH1 0x2 PUSH1 0x0 SWAP1 SLOAD SWAP1 PUSH2 0x100 EXP SWAP1 DIV PUSH20 0xFFFFFFFFFFFFFFFFFFFFFFFFFFFFFFFFFFFFFFFF AND PUSH20 0xFFFFFFFFFFFFFFFFFFFFFFFFFFFFFFFFFFFFFFFF AND CALLER PUSH20 0xFFFFFFFFFFFFFFFFFFFFFFFFFFFFFFFFFFFFFFFF AND EQ PUSH2 0x298 JUMPI PUSH1 0x40 MLOAD PUSH32 0x8C379A000000000000000000000000000000000000000000000000000000000 DUP2 MSTORE PUSH1 0x4 ADD PUSH2 0x28F SWAP1 PUSH2 0x627 JUMP JUMPDEST PUSH1 0x40 MLOAD DUP1 SWAP2 SUB SWAP1 REVERT JUMPDEST PUSH1 0x2 PUSH1 0x0 SWAP1 SLOAD SWAP1 PUSH2 0x100 EXP SWAP1 DIV PUSH20 0xFFFFFFFFFFFFFFFFFFFFFFFFFFFFFFFFFFFFFFFF AND PUSH20 0xFFFFFFFFFFFFFFFFFFFFFFFFFFFFFFFFFFFFFFFF AND PUSH2 0x8FC SELFBALANCE SWAP1 DUP2 ISZERO MUL SWAP1 PUSH1 0x40 MLOAD PUSH1 0x0 PUSH1 0x40 MLOAD DUP1 DUP4 SUB DUP2 DUP6 DUP9 DUP9 CALL SWAP4 POP POP POP POP ISZERO DUP1 ISZERO PUSH2 0x300 JUMPI RETURNDATASIZE PUSH1 0x0 DUP1 RETURNDATACOPY RETURNDATASIZE PUSH1 0x0 REVERT JUMPDEST POP JUMP JUMPDEST PUSH1 0x60 PUSH1 0x0 PUSH1 0x1 SLOAD PUSH8 0xFFFFFFFFFFFFFFFF DUP2 GT ISZERO PUSH2 0x323 JUMPI PUSH2 0x322 PUSH2 0x82E JUMP JUMPDEST JUMPDEST PUSH1 0x40 MLOAD SWAP1 DUP1 DUP3 MSTORE DUP1 PUSH1 0x20 MUL PUSH1 0x20 ADD DUP3 ADD PUSH1 0x40 MSTORE DUP1 ISZERO PUSH2 0x351 JUMPI DUP2 PUSH1 0x20 ADD PUSH1 0x20 DUP3 MUL DUP1 CALLDATASIZE DUP4 CALLDATACOPY DUP1 DUP3 ADD SWAP2 POP POP SWAP1 POP JUMPDEST POP SWAP1 POP PUSH1 0x0 JUMPDEST PUSH1 0x1 SLOAD DUP2 LT ISZERO PUSH2 0x3F4 JUMPI PUSH1 0x0 DUP1 DUP3 DUP2 MSTORE PUSH1 0x20 ADD SWAP1 DUP2 MSTORE PUSH1 0x20 ADD PUSH1 0x0 KECCAK256 PUSH1 0x0 SWAP1 SLOAD SWAP1 PUSH2 0x100 EXP SWAP1 DIV PUSH20 0xFFFFFFFFFFFFFFFFFFFFFFFFFFFFFFFFFFFFFFFF AND DUP3 DUP3 DUP2 MLOAD DUP2 LT PUSH2 0x3A7 JUMPI PUSH2 0x3A6 PUSH2 0x7FF JUMP JUMPDEST JUMPDEST PUSH1 0x20 MUL PUSH1 0x20 ADD ADD SWAP1 PUSH20 0xFFFFFFFFFFFFFFFFFFFFFFFFFFFFFFFFFFFFFFFF AND SWAP1 DUP2 PUSH20 0xFFFFFFFFFFFFFFFFFFFFFFFFFFFFFFFFFFFFFFFF AND DUP2 MSTORE POP POP DUP1 DUP1 PUSH2 0x3EC SWAP1 PUSH2 0x758 JUMP JUMPDEST SWAP2 POP POP PUSH2 0x357 JUMP JUMPDEST POP DUP1 SWAP2 POP POP SWAP1 JUMP JUMPDEST CALLER PUSH1 0x0 DUP1 PUSH1 0x1 SLOAD DUP2 MSTORE PUSH1 0x20 ADD SWAP1 DUP2 MSTORE PUSH1 0x20 ADD PUSH1 0x0 KECCAK256 PUSH1 0x0 PUSH2 0x100 EXP DUP2 SLOAD DUP2 PUSH20 0xFFFFFFFFFFFFFFFFFFFFFFFFFFFFFFFFFFFFFFFF MUL NOT AND SWAP1 DUP4 PUSH20 0xFFFFFFFFFFFFFFFFFFFFFFFFFFFFFFFFFFFFFFFF AND MUL OR SWAP1 SSTORE POP PUSH1 0x1 PUSH1 0x0 DUP2 SLOAD DUP1 SWAP3 SWAP2 SWAP1 PUSH2 0x462 SWAP1 PUSH2 0x758 JUMP JUMPDEST SWAP2 SWAP1 POP SSTORE POP ADDRESS PUSH20 0xFFFFFFFFFFFFFFFFFFFFFFFFFFFFFFFFFFFFFFFF AND PUSH2 0x8FC CALLVALUE SWAP1 DUP2 ISZERO MUL SWAP1 PUSH1 0x40 MLOAD PUSH1 0x0 PUSH1 0x40 MLOAD DUP1 DUP4 SUB DUP2 DUP6 DUP9 DUP9 CALL SWAP4 POP POP POP POP ISZERO DUP1 ISZERO PUSH2 0x4AD JUMPI RETURNDATASIZE PUSH1 0x0 DUP1 RETURNDATACOPY RETURNDATASIZE PUSH1 0x0 REVERT JUMPDEST POP JUMP JUMPDEST PUSH1 0x0 PUSH2 0x4BC DUP4 DUP4 PUSH2 0x4C8 JUMP JUMPDEST PUSH1 0x20 DUP4 ADD SWAP1 POP SWAP3 SWAP2 POP POP JUMP JUMPDEST PUSH2 0x4D1 DUP2 PUSH2 0x6B7 JUMP JUMPDEST DUP3 MSTORE POP POP JUMP JUMPDEST PUSH1 0x0 PUSH2 0x4E2 DUP3 PUSH2 0x672 JUMP JUMPDEST PUSH2 0x4EC DUP2 DUP6 PUSH2 0x695 JUMP JUMPDEST SWAP4 POP PUSH2 0x4F7 DUP4 PUSH2 0x662 JUMP JUMPDEST DUP1 PUSH1 0x0 JUMPDEST DUP4 DUP2 LT ISZERO PUSH2 0x528 JUMPI DUP2 MLOAD PUSH2 0x50F DUP9 DUP3 PUSH2 0x4B0 JUMP JUMPDEST SWAP8 POP PUSH2 0x51A DUP4 PUSH2 0x688 JUMP JUMPDEST SWAP3 POP POP PUSH1 0x1 DUP2 ADD SWAP1 POP PUSH2 0x4FB JUMP JUMPDEST POP DUP6 SWAP4 POP POP POP POP SWAP3 SWAP2 POP POP JUMP JUMPDEST PUSH1 0x0 PUSH2 0x540 DUP3 PUSH2 0x67D JUMP JUMPDEST PUSH2 0x54A DUP2 DUP6 PUSH2 0x6A6 JUMP JUMPDEST SWAP4 POP PUSH2 0x55A DUP2 DUP6 PUSH1 0x20 DUP7 ADD PUSH2 0x6F3 JUMP JUMPDEST PUSH2 0x563 DUP2 PUSH2 0x85D JUMP JUMPDEST DUP5 ADD SWAP2 POP POP SWAP3 SWAP2 POP POP JUMP JUMPDEST PUSH1 0x0 PUSH2 0x57B PUSH1 0x26 DUP4 PUSH2 0x6A6 JUMP JUMPDEST SWAP2 POP PUSH2 0x586 DUP3 PUSH2 0x86E JUMP JUMPDEST PUSH1 0x40 DUP3 ADD SWAP1 POP SWAP2 SWAP1 POP JUMP JUMPDEST PUSH1 0x0 PUSH2 0x59E PUSH1 0x18 DUP4 PUSH2 0x6A6 JUMP JUMPDEST SWAP2 POP PUSH2 0x5A9 DUP3 PUSH2 0x8BD JUMP JUMPDEST PUSH1 0x20 DUP3 ADD SWAP1 POP SWAP2 SWAP1 POP JUMP JUMPDEST PUSH2 0x5BD DUP2 PUSH2 0x6E9 JUMP JUMPDEST DUP3 MSTORE POP POP JUMP JUMPDEST PUSH1 0x0 PUSH1 0x20 DUP3 ADD SWAP1 POP DUP2 DUP2 SUB PUSH1 0x0 DUP4 ADD MSTORE PUSH2 0x5DD DUP2 DUP5 PUSH2 0x4D7 JUMP JUMPDEST SWAP1 POP SWAP3 SWAP2 POP POP JUMP JUMPDEST PUSH1 0x0 PUSH1 0x20 DUP3 ADD SWAP1 POP DUP2 DUP2 SUB PUSH1 0x0 DUP4 ADD MSTORE PUSH2 0x5FF DUP2 DUP5 PUSH2 0x535 JUMP JUMPDEST SWAP1 POP SWAP3 SWAP2 POP POP JUMP JUMPDEST PUSH1 0x0 PUSH1 0x20 DUP3 ADD SWAP1 POP DUP2 DUP2 SUB PUSH1 0x0 DUP4 ADD MSTORE PUSH2 0x620 DUP2 PUSH2 0x56E JUMP JUMPDEST SWAP1 POP SWAP2 SWAP1 POP JUMP JUMPDEST PUSH1 0x0 PUSH1 0x20 DUP3 ADD SWAP1 POP DUP2 DUP2 SUB PUSH1 0x0 DUP4 ADD MSTORE PUSH2 0x640 DUP2 PUSH2 0x591 JUMP JUMPDEST SWAP1 POP SWAP2 SWAP1 POP JUMP JUMPDEST PUSH1 0x0 PUSH1 0x20 DUP3 ADD SWAP1 POP PUSH2 0x65C PUSH1 0x0 DUP4 ADD DUP5 PUSH2 0x5B4 JUMP JUMPDEST SWAP3 SWAP2 POP POP JUMP JUMPDEST PUSH1 0x0 DUP2 SWAP1 POP PUSH1 0x20 DUP3 ADD SWAP1 POP SWAP2 SWAP1 POP JUMP JUMPDEST PUSH1 0x0 DUP2 MLOAD SWAP1 POP SWAP2 SWAP1 POP JUMP JUMPDEST PUSH1 0x0 DUP2 MLOAD SWAP1 POP SWAP2 SWAP1 POP JUMP JUMPDEST PUSH1 0x0 PUSH1 0x20 DUP3 ADD SWAP1 POP SWAP2 SWAP1 POP JUMP JUMPDEST PUSH1 0x0 DUP3 DUP3 MSTORE PUSH1 0x20 DUP3 ADD SWAP1 POP SWAP3 SWAP2 POP POP JUMP JUMPDEST PUSH1 0x0 DUP3 DUP3 MSTORE PUSH1 0x20 DUP3 ADD SWAP1 POP SWAP3 SWAP2 POP POP JUMP JUMPDEST PUSH1 0x0 PUSH2 0x6C2 DUP3 PUSH2 0x6C9 JUMP JUMPDEST SWAP1 POP SWAP2 SWAP1 POP JUMP JUMPDEST PUSH1 0x0 PUSH20 0xFFFFFFFFFFFFFFFFFFFFFFFFFFFFFFFFFFFFFFFF DUP3 AND SWAP1 POP SWAP2 SWAP1 POP JUMP JUMPDEST PUSH1 0x0 DUP2 SWAP1 POP SWAP2 SWAP1 POP JUMP JUMPDEST PUSH1 0x0 JUMPDEST DUP4 DUP2 LT ISZERO PUSH2 0x711 JUMPI DUP1 DUP3 ADD MLOAD DUP2 DUP5 ADD MSTORE PUSH1 0x20 DUP2 ADD SWAP1 POP PUSH2 0x6F6 JUMP JUMPDEST DUP4 DUP2 GT ISZERO PUSH2 0x720 JUMPI PUSH1 0x0 DUP5 DUP5 ADD MSTORE JUMPDEST POP POP POP POP JUMP JUMPDEST PUSH1 0x0 PUSH1 0x2 DUP3 DIV SWAP1 POP PUSH1 0x1 DUP3 AND DUP1 PUSH2 0x73E JUMPI PUSH1 0x7F DUP3 AND SWAP2 POP JUMPDEST PUSH1 0x20 DUP3 LT DUP2 EQ ISZERO PUSH2 0x752 JUMPI PUSH2 0x751 PUSH2 0x7D0 JUMP JUMPDEST JUMPDEST POP SWAP2 SWAP1 POP JUMP JUMPDEST PUSH1 0x0 PUSH2 0x763 DUP3 PUSH2 0x6E9 JUMP JUMPDEST SWAP2 POP PUSH32 0xFFFFFFFFFFFFFFFFFFFFFFFFFFFFFFFFFFFFFFFFFFFFFFFFFFFFFFFFFFFFFFFF DUP3 EQ ISZERO PUSH2 0x796 JUMPI PUSH2 0x795 PUSH2 0x7A1 JUMP JUMPDEST JUMPDEST PUSH1 0x1 DUP3 ADD SWAP1 POP SWAP2 SWAP1 POP JUMP JUMPDEST PUSH32 0x4E487B7100000000000000000000000000000000000000000000000000000000 PUSH1 0x0 MSTORE PUSH1 0x11 PUSH1 0x4 MSTORE PUSH1 0x24 PUSH1 0x0 REVERT JUMPDEST PUSH32 0x4E487B7100000000000000000000000000000000000000000000000000000000 PUSH1 0x0 MSTORE PUSH1 0x22 PUSH1 0x4 MSTORE PUSH1 0x24 PUSH1 0x0 REVERT JUMPDEST PUSH32 0x4E487B7100000000000000000000000000000000000000000000000000000000 PUSH1 0x0 MSTORE PUSH1 0x32 PUSH1 0x4 MSTORE PUSH1 0x24 PUSH1 0x0 REVERT JUMPDEST PUSH32 0x4E487B7100000000000000000000000000000000000000000000000000000000 PUSH1 0x0 MSTORE PUSH1 0x41 PUSH1 0x4 MSTORE PUSH1 0x24 PUSH1 0x0 REVERT JUMPDEST PUSH1 0x0 PUSH1 0x1F NOT PUSH1 0x1F DUP4 ADD AND SWAP1 POP SWAP2 SWAP1 POP JUMP JUMPDEST PUSH32 0x5061796D656E742073686F756C64206265207468652073756273637269707469 PUSH1 0x0 DUP3 ADD MSTORE PUSH32 0x6F6E206665650000000000000000000000000000000000000000000000000000 PUSH1 0x20 DUP3 ADD MSTORE POP JUMP JUMPDEST PUSH32 0x4F6E6C7920617574686F722063616E2077697468647261210000000000000000 PUSH1 0x0 DUP3 ADD MSTORE POP JUMP INVALID LOG2 PUSH5 0x6970667358 0x22 SLT KECCAK256 PUSH28 0x5FE2DF6B37CF6681878C7C818A9A5739CE1B1BD664A38FEAF7F46FF2 DUP5 0xD9 PUSH15 0x64736F6C6343000807003300000000 "
				},
				"gasEstimates": {
					"creation": {
						"codeDepositCost": "466400",
						"executionCost": "infinite",
						"totalCost": "infinite"
					},
					"external": {
						"": "2611",
						"addSubscriber()": "infinite",
						"channelName()": "infinite",
						"printSubscribersList()": "infinite",
						"subscriptionFee()": "2407",
						"withdrawAmount()": "infinite"
					}
				},
				"methodIdentifiers": {
					"addSubscriber()": "be291999",
					"channelName()": "2443877c",
					"printSubscribersList()": "82d69b62",
					"subscriptionFee()": "0aa0a175",
					"withdrawAmount()": "534844a2"
				}
			},
			"storageLayout": {
				"storage": [
					{
						"astId": 5,
						"contract": "contracts/myContract.sol:testContract",
						"label": "subscribers",
						"offset": 0,
						"slot": "0",
						"type": "t_mapping(t_uint256,t_address)"
					},
					{
						"astId": 8,
						"contract": "contracts/myContract.sol:testContract",
						"label": "subscriberCount",
						"offset": 0,
						"slot": "1",
						"type": "t_uint256"
					},
					{
						"astId": 10,
						"contract": "contracts/myContract.sol:testContract",
						"label": "author",
						"offset": 0,
						"slot": "2",
						"type": "t_address_payable"
					},
					{
						"astId": 12,
						"contract": "contracts/myContract.sol:testContract",
						"label": "subscriptionFee",
						"offset": 0,
						"slot": "3",
						"type": "t_uint256"
					},
					{
						"astId": 14,
						"contract": "contracts/myContract.sol:testContract",
						"label": "channelName",
						"offset": 0,
						"slot": "4",
						"type": "t_string_storage"
					}
				],
				"types": {
					"t_address": {
						"encoding": "inplace",
						"label": "address",
						"numberOfBytes": "20"
					},
					"t_address_payable": {
						"encoding": "inplace",
						"label": "address payable",
						"numberOfBytes": "20"
					},
					"t_mapping(t_uint256,t_address)": {
						"encoding": "mapping",
						"key": "t_uint256",
						"label": "mapping(uint256 => address)",
						"numberOfBytes": "32",
						"value": "t_address"
					},
					"t_string_storage": {
						"encoding": "bytes",
						"label": "string",
						"numberOfBytes": "32"
					},
					"t_uint256": {
						"encoding": "inplace",
						"label": "uint256",
						"numberOfBytes": "32"
					}
				}
			},
			"userdoc": {
				"kind": "user",
				"methods": {},
				"version": 1
			}
		}
	}
}