{
	"contracts/myContract.sol": {
		"testContract": {
			"abi": [
				{
					"inputs": [
						{
							"internalType": "string",
							"name": "_firstName",
							"type": "string"
						},
						{
							"internalType": "string",
							"name": "_lastName",
							"type": "string"
						}
					],
					"name": "addPerson",
					"outputs": [],
					"stateMutability": "nonpayable",
					"type": "function"
				},
				{
					"inputs": [
						{
							"internalType": "string",
							"name": "user",
							"type": "string"
						}
					],
					"name": "addSubscriber",
					"outputs": [],
					"stateMutability": "nonpayable",
					"type": "function"
				},
				{
					"inputs": [],
					"name": "author",
					"outputs": [
						{
							"internalType": "string",
							"name": "",
							"type": "string"
						}
					],
					"stateMutability": "view",
					"type": "function"
				},
				{
					"inputs": [],
					"name": "getSubscriberCount",
					"outputs": [
						{
							"internalType": "uint256",
							"name": "",
							"type": "uint256"
						}
					],
					"stateMutability": "view",
					"type": "function"
				},
				{
					"inputs": [
						{
							"internalType": "uint256",
							"name": "",
							"type": "uint256"
						}
					],
					"name": "people",
					"outputs": [
						{
							"internalType": "uint256",
							"name": "_id",
							"type": "uint256"
						},
						{
							"internalType": "string",
							"name": "_firstName",
							"type": "string"
						},
						{
							"internalType": "string",
							"name": "_lastName",
							"type": "string"
						}
					],
					"stateMutability": "view",
					"type": "function"
				},
				{
					"inputs": [],
					"name": "peopleCount",
					"outputs": [
						{
							"internalType": "uint256",
							"name": "",
							"type": "uint256"
						}
					],
					"stateMutability": "view",
					"type": "function"
				},
				{
					"inputs": [],
					"name": "printSubscribersList",
					"outputs": [
						{
							"internalType": "string[]",
							"name": "",
							"type": "string[]"
						}
					],
					"stateMutability": "view",
					"type": "function"
				},
				{
					"inputs": [
						{
							"internalType": "uint256",
							"name": "",
							"type": "uint256"
						}
					],
					"name": "subscribers",
					"outputs": [
						{
							"internalType": "string",
							"name": "",
							"type": "string"
						}
					],
					"stateMutability": "view",
					"type": "function"
				}
			],
			"devdoc": {
				"kind": "dev",
				"methods": {},
				"version": 1
			},
			"evm": {
				"assembly": "    /* \"contracts/myContract.sol\":76:882  contract testContract {\r... */\n  mstore(0x40, 0x80)\n    /* \"contracts/myContract.sol\":182:183  0 */\n  0x00\n    /* \"contracts/myContract.sol\":156:183  uint public peopleCount = 0 */\n  0x01\n  sstore\n    /* \"contracts/myContract.sol\":76:882  contract testContract {\r... */\n  callvalue\n  dup1\n  iszero\n  tag_1\n  jumpi\n  0x00\n  dup1\n  revert\ntag_1:\n  pop\n  dataSize(sub_0)\n  dup1\n  dataOffset(sub_0)\n  0x00\n  codecopy\n  0x00\n  return\nstop\n\nsub_0: assembly {\n        /* \"contracts/myContract.sol\":76:882  contract testContract {\r... */\n      mstore(0x40, 0x80)\n      callvalue\n      dup1\n      iszero\n      tag_1\n      jumpi\n      0x00\n      dup1\n      revert\n    tag_1:\n      pop\n      jumpi(tag_2, lt(calldatasize, 0x04))\n      shr(0xe0, calldataload(0x00))\n      dup1\n      0x59221a68\n      gt\n      tag_11\n      jumpi\n      dup1\n      0x59221a68\n      eq\n      tag_7\n      jumpi\n      dup1\n      0x82d69b62\n      eq\n      tag_8\n      jumpi\n      dup1\n      0x9e7a13ad\n      eq\n      tag_9\n      jumpi\n      dup1\n      0xa6c3e6b9\n      eq\n      tag_10\n      jumpi\n      jump(tag_2)\n    tag_11:\n      dup1\n      0x17e703ab\n      eq\n      tag_3\n      jumpi\n      dup1\n      0x22f5b58d\n      eq\n      tag_4\n      jumpi\n      dup1\n      0x267c68e0\n      eq\n      tag_5\n      jumpi\n      dup1\n      0x2edd4fa5\n      eq\n      tag_6\n      jumpi\n    tag_2:\n      0x00\n      dup1\n      revert\n        /* \"contracts/myContract.sol\":661:764  function getSubscriberCount() public view returns(uint256) {\r... */\n    tag_3:\n      tag_12\n      tag_13\n      jump\t// in\n    tag_12:\n      mload(0x40)\n      tag_14\n      swap2\n      swap1\n      tag_15\n      jump\t// in\n    tag_14:\n      mload(0x40)\n      dup1\n      swap2\n      sub\n      swap1\n      return\n        /* \"contracts/myContract.sol\":298:482  function addPerson(string memory _firstName, string memory _lastName) public {\r... */\n    tag_4:\n      tag_16\n      0x04\n      dup1\n      calldatasize\n      sub\n      dup2\n      add\n      swap1\n      tag_17\n      swap2\n      swap1\n      tag_18\n      jump\t// in\n    tag_17:\n      tag_19\n      jump\t// in\n    tag_16:\n      stop\n        /* \"contracts/myContract.sol\":156:183  uint public peopleCount = 0 */\n    tag_5:\n      tag_20\n      tag_21\n      jump\t// in\n    tag_20:\n      mload(0x40)\n      tag_22\n      swap2\n      swap1\n      tag_15\n      jump\t// in\n    tag_22:\n      mload(0x40)\n      dup1\n      swap2\n      sub\n      swap1\n      return\n        /* \"contracts/myContract.sol\":561:652  function addSubscriber(string memory user) public {\r... */\n    tag_6:\n      tag_23\n      0x04\n      dup1\n      calldatasize\n      sub\n      dup2\n      add\n      swap1\n      tag_24\n      swap2\n      swap1\n      tag_25\n      jump\t// in\n    tag_24:\n      tag_26\n      jump\t// in\n    tag_23:\n      stop\n        /* \"contracts/myContract.sol\":490:517  string[] public subscribers */\n    tag_7:\n      tag_27\n      0x04\n      dup1\n      calldatasize\n      sub\n      dup2\n      add\n      swap1\n      tag_28\n      swap2\n      swap1\n      tag_29\n      jump\t// in\n    tag_28:\n      tag_30\n      jump\t// in\n    tag_27:\n      mload(0x40)\n      tag_31\n      swap2\n      swap1\n      tag_32\n      jump\t// in\n    tag_31:\n      mload(0x40)\n      dup1\n      swap2\n      sub\n      swap1\n      return\n        /* \"contracts/myContract.sol\":772:877  function printSubscribersList() public view returns(string[] memory){\r... */\n    tag_8:\n      tag_33\n      tag_34\n      jump\t// in\n    tag_33:\n      mload(0x40)\n      tag_35\n      swap2\n      swap1\n      tag_36\n      jump\t// in\n    tag_35:\n      mload(0x40)\n      dup1\n      swap2\n      sub\n      swap1\n      return\n        /* \"contracts/myContract.sol\":112:149  mapping(uint => Person) public people */\n    tag_9:\n      tag_37\n      0x04\n      dup1\n      calldatasize\n      sub\n      dup2\n      add\n      swap1\n      tag_38\n      swap2\n      swap1\n      tag_29\n      jump\t// in\n    tag_38:\n      tag_39\n      jump\t// in\n    tag_37:\n      mload(0x40)\n      tag_40\n      swap4\n      swap3\n      swap2\n      swap1\n      tag_41\n      jump\t// in\n    tag_40:\n      mload(0x40)\n      dup1\n      swap2\n      sub\n      swap1\n      return\n        /* \"contracts/myContract.sol\":526:546  string public author */\n    tag_10:\n      tag_42\n      tag_43\n      jump\t// in\n    tag_42:\n      mload(0x40)\n      tag_44\n      swap2\n      swap1\n      tag_32\n      jump\t// in\n    tag_44:\n      mload(0x40)\n      dup1\n      swap2\n      sub\n      swap1\n      return\n        /* \"contracts/myContract.sol\":661:764  function getSubscriberCount() public view returns(uint256) {\r... */\n    tag_13:\n        /* \"contracts/myContract.sol\":711:718  uint256 */\n      0x00\n        /* \"contracts/myContract.sol\":738:749  subscribers */\n      0x02\n        /* \"contracts/myContract.sol\":738:756  subscribers.length */\n      dup1\n      sload\n      swap1\n      pop\n        /* \"contracts/myContract.sol\":731:756  return subscribers.length */\n      swap1\n      pop\n        /* \"contracts/myContract.sol\":661:764  function getSubscriberCount() public view returns(uint256) {\r... */\n      swap1\n      jump\t// out\n        /* \"contracts/myContract.sol\":298:482  function addPerson(string memory _firstName, string memory _lastName) public {\r... */\n    tag_19:\n        /* \"contracts/myContract.sol\":386:397  peopleCount */\n      0x01\n      0x00\n        /* \"contracts/myContract.sol\":386:399  peopleCount++ */\n      dup2\n      sload\n      dup1\n      swap3\n      swap2\n      swap1\n      tag_47\n      swap1\n      tag_48\n      jump\t// in\n    tag_47:\n      swap2\n      swap1\n      pop\n      sstore\n      pop\n        /* \"contracts/myContract.sol\":432:474  Person(peopleCount, _firstName, _lastName) */\n      mload(0x40)\n      dup1\n      0x60\n      add\n      0x40\n      mstore\n      dup1\n        /* \"contracts/myContract.sol\":439:450  peopleCount */\n      sload(0x01)\n        /* \"contracts/myContract.sol\":432:474  Person(peopleCount, _firstName, _lastName) */\n      dup2\n      mstore\n      0x20\n      add\n        /* \"contracts/myContract.sol\":452:462  _firstName */\n      dup4\n        /* \"contracts/myContract.sol\":432:474  Person(peopleCount, _firstName, _lastName) */\n      dup2\n      mstore\n      0x20\n      add\n        /* \"contracts/myContract.sol\":464:473  _lastName */\n      dup3\n        /* \"contracts/myContract.sol\":432:474  Person(peopleCount, _firstName, _lastName) */\n      dup2\n      mstore\n      pop\n        /* \"contracts/myContract.sol\":410:416  people */\n      0x00\n        /* \"contracts/myContract.sol\":410:429  people[peopleCount] */\n      dup1\n        /* \"contracts/myContract.sol\":417:428  peopleCount */\n      sload(0x01)\n        /* \"contracts/myContract.sol\":410:429  people[peopleCount] */\n      dup2\n      mstore\n      0x20\n      add\n      swap1\n      dup2\n      mstore\n      0x20\n      add\n      0x00\n      keccak256\n        /* \"contracts/myContract.sol\":410:474  people[peopleCount] = Person(peopleCount, _firstName, _lastName) */\n      0x00\n      dup3\n      add\n      mload\n      dup2\n      0x00\n      add\n      sstore\n      0x20\n      dup3\n      add\n      mload\n      dup2\n      0x01\n      add\n      swap1\n      dup1\n      mload\n      swap1\n      0x20\n      add\n      swap1\n      tag_49\n      swap3\n      swap2\n      swap1\n      tag_50\n      jump\t// in\n    tag_49:\n      pop\n      0x40\n      dup3\n      add\n      mload\n      dup2\n      0x02\n      add\n      swap1\n      dup1\n      mload\n      swap1\n      0x20\n      add\n      swap1\n      tag_51\n      swap3\n      swap2\n      swap1\n      tag_50\n      jump\t// in\n    tag_51:\n      pop\n      swap1\n      pop\n      pop\n        /* \"contracts/myContract.sol\":298:482  function addPerson(string memory _firstName, string memory _lastName) public {\r... */\n      pop\n      pop\n      jump\t// out\n        /* \"contracts/myContract.sol\":156:183  uint public peopleCount = 0 */\n    tag_21:\n      sload(0x01)\n      dup2\n      jump\t// out\n        /* \"contracts/myContract.sol\":561:652  function addSubscriber(string memory user) public {\r... */\n    tag_26:\n        /* \"contracts/myContract.sol\":622:633  subscribers */\n      0x02\n        /* \"contracts/myContract.sol\":639:643  user */\n      dup2\n        /* \"contracts/myContract.sol\":622:644  subscribers.push(user) */\n      swap1\n      dup1\n      0x01\n      dup2\n      sload\n      add\n      dup1\n      dup3\n      sstore\n      dup1\n      swap2\n      pop\n      pop\n      0x01\n      swap1\n      sub\n      swap1\n      0x00\n      mstore\n      keccak256(0x00, 0x20)\n      add\n      0x00\n      swap1\n      swap2\n      swap1\n      swap2\n      swap1\n      swap2\n      pop\n      swap1\n      dup1\n      mload\n      swap1\n      0x20\n      add\n      swap1\n      tag_54\n      swap3\n      swap2\n      swap1\n      tag_50\n      jump\t// in\n    tag_54:\n      pop\n        /* \"contracts/myContract.sol\":561:652  function addSubscriber(string memory user) public {\r... */\n      pop\n      jump\t// out\n        /* \"contracts/myContract.sol\":490:517  string[] public subscribers */\n    tag_30:\n      0x02\n      dup2\n      dup2\n      sload\n      dup2\n      lt\n      tag_55\n      jumpi\n      0x00\n      dup1\n      revert\n    tag_55:\n      swap1\n      0x00\n      mstore\n      keccak256(0x00, 0x20)\n      add\n      0x00\n      swap2\n      pop\n      swap1\n      pop\n      dup1\n      sload\n      tag_57\n      swap1\n      tag_58\n      jump\t// in\n    tag_57:\n      dup1\n      0x1f\n      add\n      0x20\n      dup1\n      swap2\n      div\n      mul\n      0x20\n      add\n      mload(0x40)\n      swap1\n      dup2\n      add\n      0x40\n      mstore\n      dup1\n      swap3\n      swap2\n      swap1\n      dup2\n      dup2\n      mstore\n      0x20\n      add\n      dup3\n      dup1\n      sload\n      tag_59\n      swap1\n      tag_58\n      jump\t// in\n    tag_59:\n      dup1\n      iszero\n      tag_60\n      jumpi\n      dup1\n      0x1f\n      lt\n      tag_61\n      jumpi\n      0x0100\n      dup1\n      dup4\n      sload\n      div\n      mul\n      dup4\n      mstore\n      swap2\n      0x20\n      add\n      swap2\n      jump(tag_60)\n    tag_61:\n      dup3\n      add\n      swap2\n      swap1\n      0x00\n      mstore\n      keccak256(0x00, 0x20)\n      swap1\n    tag_62:\n      dup2\n      sload\n      dup2\n      mstore\n      swap1\n      0x01\n      add\n      swap1\n      0x20\n      add\n      dup1\n      dup4\n      gt\n      tag_62\n      jumpi\n      dup3\n      swap1\n      sub\n      0x1f\n      and\n      dup3\n      add\n      swap2\n    tag_60:\n      pop\n      pop\n      pop\n      pop\n      pop\n      dup2\n      jump\t// out\n        /* \"contracts/myContract.sol\":772:877  function printSubscribersList() public view returns(string[] memory){\r... */\n    tag_34:\n        /* \"contracts/myContract.sol\":824:839  string[] memory */\n      0x60\n        /* \"contracts/myContract.sol\":858:869  subscribers */\n      0x02\n        /* \"contracts/myContract.sol\":851:869  return subscribers */\n      dup1\n      sload\n      dup1\n      0x20\n      mul\n      0x20\n      add\n      mload(0x40)\n      swap1\n      dup2\n      add\n      0x40\n      mstore\n      dup1\n      swap3\n      swap2\n      swap1\n      dup2\n      dup2\n      mstore\n      0x20\n      add\n      0x00\n      swap1\n    tag_64:\n      dup3\n      dup3\n      lt\n      iszero\n      tag_65\n      jumpi\n      dup4\n      dup3\n      swap1\n      0x00\n      mstore\n      keccak256(0x00, 0x20)\n      add\n      dup1\n      sload\n      tag_67\n      swap1\n      tag_58\n      jump\t// in\n    tag_67:\n      dup1\n      0x1f\n      add\n      0x20\n      dup1\n      swap2\n      div\n      mul\n      0x20\n      add\n      mload(0x40)\n      swap1\n      dup2\n      add\n      0x40\n      mstore\n      dup1\n      swap3\n      swap2\n      swap1\n      dup2\n      dup2\n      mstore\n      0x20\n      add\n      dup3\n      dup1\n      sload\n      tag_68\n      swap1\n      tag_58\n      jump\t// in\n    tag_68:\n      dup1\n      iszero\n      tag_69\n      jumpi\n      dup1\n      0x1f\n      lt\n      tag_70\n      jumpi\n      0x0100\n      dup1\n      dup4\n      sload\n      div\n      mul\n      dup4\n      mstore\n      swap2\n      0x20\n      add\n      swap2\n      jump(tag_69)\n    tag_70:\n      dup3\n      add\n      swap2\n      swap1\n      0x00\n      mstore\n      keccak256(0x00, 0x20)\n      swap1\n    tag_71:\n      dup2\n      sload\n      dup2\n      mstore\n      swap1\n      0x01\n      add\n      swap1\n      0x20\n      add\n      dup1\n      dup4\n      gt\n      tag_71\n      jumpi\n      dup3\n      swap1\n      sub\n      0x1f\n      and\n      dup3\n      add\n      swap2\n    tag_69:\n      pop\n      pop\n      pop\n      pop\n      pop\n      dup2\n      mstore\n      0x20\n      add\n      swap1\n      0x01\n      add\n      swap1\n      jump(tag_64)\n    tag_65:\n      pop\n      pop\n      pop\n      pop\n      swap1\n      pop\n        /* \"contracts/myContract.sol\":772:877  function printSubscribersList() public view returns(string[] memory){\r... */\n      swap1\n      jump\t// out\n        /* \"contracts/myContract.sol\":112:149  mapping(uint => Person) public people */\n    tag_39:\n      mstore(0x20, 0x00)\n      dup1\n      0x00\n      mstore\n      keccak256(0x00, 0x40)\n      0x00\n      swap2\n      pop\n      swap1\n      pop\n      dup1\n      0x00\n      add\n      sload\n      swap1\n      dup1\n      0x01\n      add\n      dup1\n      sload\n      tag_72\n      swap1\n      tag_58\n      jump\t// in\n    tag_72:\n      dup1\n      0x1f\n      add\n      0x20\n      dup1\n      swap2\n      div\n      mul\n      0x20\n      add\n      mload(0x40)\n      swap1\n      dup2\n      add\n      0x40\n      mstore\n      dup1\n      swap3\n      swap2\n      swap1\n      dup2\n      dup2\n      mstore\n      0x20\n      add\n      dup3\n      dup1\n      sload\n      tag_73\n      swap1\n      tag_58\n      jump\t// in\n    tag_73:\n      dup1\n      iszero\n      tag_74\n      jumpi\n      dup1\n      0x1f\n      lt\n      tag_75\n      jumpi\n      0x0100\n      dup1\n      dup4\n      sload\n      div\n      mul\n      dup4\n      mstore\n      swap2\n      0x20\n      add\n      swap2\n      jump(tag_74)\n    tag_75:\n      dup3\n      add\n      swap2\n      swap1\n      0x00\n      mstore\n      keccak256(0x00, 0x20)\n      swap1\n    tag_76:\n      dup2\n      sload\n      dup2\n      mstore\n      swap1\n      0x01\n      add\n      swap1\n      0x20\n      add\n      dup1\n      dup4\n      gt\n      tag_76\n      jumpi\n      dup3\n      swap1\n      sub\n      0x1f\n      and\n      dup3\n      add\n      swap2\n    tag_74:\n      pop\n      pop\n      pop\n      pop\n      pop\n      swap1\n      dup1\n      0x02\n      add\n      dup1\n      sload\n      tag_77\n      swap1\n      tag_58\n      jump\t// in\n    tag_77:\n      dup1\n      0x1f\n      add\n      0x20\n      dup1\n      swap2\n      div\n      mul\n      0x20\n      add\n      mload(0x40)\n      swap1\n      dup2\n      add\n      0x40\n      mstore\n      dup1\n      swap3\n      swap2\n      swap1\n      dup2\n      dup2\n      mstore\n      0x20\n      add\n      dup3\n      dup1\n      sload\n      tag_78\n      swap1\n      tag_58\n      jump\t// in\n    tag_78:\n      dup1\n      iszero\n      tag_79\n      jumpi\n      dup1\n      0x1f\n      lt\n      tag_80\n      jumpi\n      0x0100\n      dup1\n      dup4\n      sload\n      div\n      mul\n      dup4\n      mstore\n      swap2\n      0x20\n      add\n      swap2\n      jump(tag_79)\n    tag_80:\n      dup3\n      add\n      swap2\n      swap1\n      0x00\n      mstore\n      keccak256(0x00, 0x20)\n      swap1\n    tag_81:\n      dup2\n      sload\n      dup2\n      mstore\n      swap1\n      0x01\n      add\n      swap1\n      0x20\n      add\n      dup1\n      dup4\n      gt\n      tag_81\n      jumpi\n      dup3\n      swap1\n      sub\n      0x1f\n      and\n      dup3\n      add\n      swap2\n    tag_79:\n      pop\n      pop\n      pop\n      pop\n      pop\n      swap1\n      pop\n      dup4\n      jump\t// out\n        /* \"contracts/myContract.sol\":526:546  string public author */\n    tag_43:\n      0x03\n      dup1\n      sload\n      tag_82\n      swap1\n      tag_58\n      jump\t// in\n    tag_82:\n      dup1\n      0x1f\n      add\n      0x20\n      dup1\n      swap2\n      div\n      mul\n      0x20\n      add\n      mload(0x40)\n      swap1\n      dup2\n      add\n      0x40\n      mstore\n      dup1\n      swap3\n      swap2\n      swap1\n      dup2\n      dup2\n      mstore\n      0x20\n      add\n      dup3\n      dup1\n      sload\n      tag_83\n      swap1\n      tag_58\n      jump\t// in\n    tag_83:\n      dup1\n      iszero\n      tag_84\n      jumpi\n      dup1\n      0x1f\n      lt\n      tag_85\n      jumpi\n      0x0100\n      dup1\n      dup4\n      sload\n      div\n      mul\n      dup4\n      mstore\n      swap2\n      0x20\n      add\n      swap2\n      jump(tag_84)\n    tag_85:\n      dup3\n      add\n      swap2\n      swap1\n      0x00\n      mstore\n      keccak256(0x00, 0x20)\n      swap1\n    tag_86:\n      dup2\n      sload\n      dup2\n      mstore\n      swap1\n      0x01\n      add\n      swap1\n      0x20\n      add\n      dup1\n      dup4\n      gt\n      tag_86\n      jumpi\n      dup3\n      swap1\n      sub\n      0x1f\n      and\n      dup3\n      add\n      swap2\n    tag_84:\n      pop\n      pop\n      pop\n      pop\n      pop\n      dup2\n      jump\t// out\n    tag_50:\n      dup3\n      dup1\n      sload\n      tag_87\n      swap1\n      tag_58\n      jump\t// in\n    tag_87:\n      swap1\n      0x00\n      mstore\n      keccak256(0x00, 0x20)\n      swap1\n      0x1f\n      add\n      0x20\n      swap1\n      div\n      dup2\n      add\n      swap3\n      dup3\n      tag_89\n      jumpi\n      0x00\n      dup6\n      sstore\n      jump(tag_88)\n    tag_89:\n      dup3\n      0x1f\n      lt\n      tag_90\n      jumpi\n      dup1\n      mload\n      not(0xff)\n      and\n      dup4\n      dup1\n      add\n      or\n      dup6\n      sstore\n      jump(tag_88)\n    tag_90:\n      dup3\n      dup1\n      add\n      0x01\n      add\n      dup6\n      sstore\n      dup3\n      iszero\n      tag_88\n      jumpi\n      swap2\n      dup3\n      add\n    tag_91:\n      dup3\n      dup2\n      gt\n      iszero\n      tag_92\n      jumpi\n      dup3\n      mload\n      dup3\n      sstore\n      swap2\n      0x20\n      add\n      swap2\n      swap1\n      0x01\n      add\n      swap1\n      jump(tag_91)\n    tag_92:\n    tag_88:\n      pop\n      swap1\n      pop\n      tag_93\n      swap2\n      swap1\n      tag_94\n      jump\t// in\n    tag_93:\n      pop\n      swap1\n      jump\t// out\n    tag_94:\n    tag_95:\n      dup1\n      dup3\n      gt\n      iszero\n      tag_96\n      jumpi\n      0x00\n      dup2\n      0x00\n      swap1\n      sstore\n      pop\n      0x01\n      add\n      jump(tag_95)\n    tag_96:\n      pop\n      swap1\n      jump\t// out\n        /* \"#utility.yul\":7:419   */\n    tag_98:\n        /* \"#utility.yul\":85:90   */\n      0x00\n        /* \"#utility.yul\":110:176   */\n      tag_100\n        /* \"#utility.yul\":126:175   */\n      tag_101\n        /* \"#utility.yul\":168:174   */\n      dup5\n        /* \"#utility.yul\":126:175   */\n      tag_102\n      jump\t// in\n    tag_101:\n        /* \"#utility.yul\":110:176   */\n      tag_103\n      jump\t// in\n    tag_100:\n        /* \"#utility.yul\":101:176   */\n      swap1\n      pop\n        /* \"#utility.yul\":199:205   */\n      dup3\n        /* \"#utility.yul\":192:197   */\n      dup2\n        /* \"#utility.yul\":185:206   */\n      mstore\n        /* \"#utility.yul\":237:241   */\n      0x20\n        /* \"#utility.yul\":230:235   */\n      dup2\n        /* \"#utility.yul\":226:242   */\n      add\n        /* \"#utility.yul\":275:278   */\n      dup5\n        /* \"#utility.yul\":266:272   */\n      dup5\n        /* \"#utility.yul\":261:264   */\n      dup5\n        /* \"#utility.yul\":257:273   */\n      add\n        /* \"#utility.yul\":254:279   */\n      gt\n        /* \"#utility.yul\":251:363   */\n      iszero\n      tag_104\n      jumpi\n        /* \"#utility.yul\":282:361   */\n      tag_105\n      tag_106\n      jump\t// in\n    tag_105:\n        /* \"#utility.yul\":251:363   */\n    tag_104:\n        /* \"#utility.yul\":372:413   */\n      tag_107\n        /* \"#utility.yul\":406:412   */\n      dup5\n        /* \"#utility.yul\":401:404   */\n      dup3\n        /* \"#utility.yul\":396:399   */\n      dup6\n        /* \"#utility.yul\":372:413   */\n      tag_108\n      jump\t// in\n    tag_107:\n        /* \"#utility.yul\":91:419   */\n      pop\n        /* \"#utility.yul\":7:419   */\n      swap4\n      swap3\n      pop\n      pop\n      pop\n      jump\t// out\n        /* \"#utility.yul\":439:779   */\n    tag_109:\n        /* \"#utility.yul\":495:500   */\n      0x00\n        /* \"#utility.yul\":544:547   */\n      dup3\n        /* \"#utility.yul\":537:541   */\n      0x1f\n        /* \"#utility.yul\":529:535   */\n      dup4\n        /* \"#utility.yul\":525:542   */\n      add\n        /* \"#utility.yul\":521:548   */\n      slt\n        /* \"#utility.yul\":511:633   */\n      tag_111\n      jumpi\n        /* \"#utility.yul\":552:631   */\n      tag_112\n      tag_113\n      jump\t// in\n    tag_112:\n        /* \"#utility.yul\":511:633   */\n    tag_111:\n        /* \"#utility.yul\":669:675   */\n      dup2\n        /* \"#utility.yul\":656:676   */\n      calldataload\n        /* \"#utility.yul\":694:773   */\n      tag_114\n        /* \"#utility.yul\":769:772   */\n      dup5\n        /* \"#utility.yul\":761:767   */\n      dup3\n        /* \"#utility.yul\":754:758   */\n      0x20\n        /* \"#utility.yul\":746:752   */\n      dup7\n        /* \"#utility.yul\":742:759   */\n      add\n        /* \"#utility.yul\":694:773   */\n      tag_98\n      jump\t// in\n    tag_114:\n        /* \"#utility.yul\":685:773   */\n      swap2\n      pop\n        /* \"#utility.yul\":501:779   */\n      pop\n        /* \"#utility.yul\":439:779   */\n      swap3\n      swap2\n      pop\n      pop\n      jump\t// out\n        /* \"#utility.yul\":785:924   */\n    tag_115:\n        /* \"#utility.yul\":831:836   */\n      0x00\n        /* \"#utility.yul\":869:875   */\n      dup2\n        /* \"#utility.yul\":856:876   */\n      calldataload\n        /* \"#utility.yul\":847:876   */\n      swap1\n      pop\n        /* \"#utility.yul\":885:918   */\n      tag_117\n        /* \"#utility.yul\":912:917   */\n      dup2\n        /* \"#utility.yul\":885:918   */\n      tag_118\n      jump\t// in\n    tag_117:\n        /* \"#utility.yul\":785:924   */\n      swap3\n      swap2\n      pop\n      pop\n      jump\t// out\n        /* \"#utility.yul\":930:1439   */\n    tag_25:\n        /* \"#utility.yul\":999:1005   */\n      0x00\n        /* \"#utility.yul\":1048:1050   */\n      0x20\n        /* \"#utility.yul\":1036:1045   */\n      dup3\n        /* \"#utility.yul\":1027:1034   */\n      dup5\n        /* \"#utility.yul\":1023:1046   */\n      sub\n        /* \"#utility.yul\":1019:1051   */\n      slt\n        /* \"#utility.yul\":1016:1135   */\n      iszero\n      tag_120\n      jumpi\n        /* \"#utility.yul\":1054:1133   */\n      tag_121\n      tag_122\n      jump\t// in\n    tag_121:\n        /* \"#utility.yul\":1016:1135   */\n    tag_120:\n        /* \"#utility.yul\":1202:1203   */\n      0x00\n        /* \"#utility.yul\":1191:1200   */\n      dup3\n        /* \"#utility.yul\":1187:1204   */\n      add\n        /* \"#utility.yul\":1174:1205   */\n      calldataload\n        /* \"#utility.yul\":1232:1250   */\n      0xffffffffffffffff\n        /* \"#utility.yul\":1224:1230   */\n      dup2\n        /* \"#utility.yul\":1221:1251   */\n      gt\n        /* \"#utility.yul\":1218:1335   */\n      iszero\n      tag_123\n      jumpi\n        /* \"#utility.yul\":1254:1333   */\n      tag_124\n      tag_125\n      jump\t// in\n    tag_124:\n        /* \"#utility.yul\":1218:1335   */\n    tag_123:\n        /* \"#utility.yul\":1359:1422   */\n      tag_126\n        /* \"#utility.yul\":1414:1421   */\n      dup5\n        /* \"#utility.yul\":1405:1411   */\n      dup3\n        /* \"#utility.yul\":1394:1403   */\n      dup6\n        /* \"#utility.yul\":1390:1412   */\n      add\n        /* \"#utility.yul\":1359:1422   */\n      tag_109\n      jump\t// in\n    tag_126:\n        /* \"#utility.yul\":1349:1422   */\n      swap2\n      pop\n        /* \"#utility.yul\":1145:1432   */\n      pop\n        /* \"#utility.yul\":930:1439   */\n      swap3\n      swap2\n      pop\n      pop\n      jump\t// out\n        /* \"#utility.yul\":1445:2279   */\n    tag_18:\n        /* \"#utility.yul\":1533:1539   */\n      0x00\n        /* \"#utility.yul\":1541:1547   */\n      dup1\n        /* \"#utility.yul\":1590:1592   */\n      0x40\n        /* \"#utility.yul\":1578:1587   */\n      dup4\n        /* \"#utility.yul\":1569:1576   */\n      dup6\n        /* \"#utility.yul\":1565:1588   */\n      sub\n        /* \"#utility.yul\":1561:1593   */\n      slt\n        /* \"#utility.yul\":1558:1677   */\n      iszero\n      tag_128\n      jumpi\n        /* \"#utility.yul\":1596:1675   */\n      tag_129\n      tag_122\n      jump\t// in\n    tag_129:\n        /* \"#utility.yul\":1558:1677   */\n    tag_128:\n        /* \"#utility.yul\":1744:1745   */\n      0x00\n        /* \"#utility.yul\":1733:1742   */\n      dup4\n        /* \"#utility.yul\":1729:1746   */\n      add\n        /* \"#utility.yul\":1716:1747   */\n      calldataload\n        /* \"#utility.yul\":1774:1792   */\n      0xffffffffffffffff\n        /* \"#utility.yul\":1766:1772   */\n      dup2\n        /* \"#utility.yul\":1763:1793   */\n      gt\n        /* \"#utility.yul\":1760:1877   */\n      iszero\n      tag_130\n      jumpi\n        /* \"#utility.yul\":1796:1875   */\n      tag_131\n      tag_125\n      jump\t// in\n    tag_131:\n        /* \"#utility.yul\":1760:1877   */\n    tag_130:\n        /* \"#utility.yul\":1901:1964   */\n      tag_132\n        /* \"#utility.yul\":1956:1963   */\n      dup6\n        /* \"#utility.yul\":1947:1953   */\n      dup3\n        /* \"#utility.yul\":1936:1945   */\n      dup7\n        /* \"#utility.yul\":1932:1954   */\n      add\n        /* \"#utility.yul\":1901:1964   */\n      tag_109\n      jump\t// in\n    tag_132:\n        /* \"#utility.yul\":1891:1964   */\n      swap3\n      pop\n        /* \"#utility.yul\":1687:1974   */\n      pop\n        /* \"#utility.yul\":2041:2043   */\n      0x20\n        /* \"#utility.yul\":2030:2039   */\n      dup4\n        /* \"#utility.yul\":2026:2044   */\n      add\n        /* \"#utility.yul\":2013:2045   */\n      calldataload\n        /* \"#utility.yul\":2072:2090   */\n      0xffffffffffffffff\n        /* \"#utility.yul\":2064:2070   */\n      dup2\n        /* \"#utility.yul\":2061:2091   */\n      gt\n        /* \"#utility.yul\":2058:2175   */\n      iszero\n      tag_133\n      jumpi\n        /* \"#utility.yul\":2094:2173   */\n      tag_134\n      tag_125\n      jump\t// in\n    tag_134:\n        /* \"#utility.yul\":2058:2175   */\n    tag_133:\n        /* \"#utility.yul\":2199:2262   */\n      tag_135\n        /* \"#utility.yul\":2254:2261   */\n      dup6\n        /* \"#utility.yul\":2245:2251   */\n      dup3\n        /* \"#utility.yul\":2234:2243   */\n      dup7\n        /* \"#utility.yul\":2230:2252   */\n      add\n        /* \"#utility.yul\":2199:2262   */\n      tag_109\n      jump\t// in\n    tag_135:\n        /* \"#utility.yul\":2189:2262   */\n      swap2\n      pop\n        /* \"#utility.yul\":1984:2272   */\n      pop\n        /* \"#utility.yul\":1445:2279   */\n      swap3\n      pop\n      swap3\n      swap1\n      pop\n      jump\t// out\n        /* \"#utility.yul\":2285:2614   */\n    tag_29:\n        /* \"#utility.yul\":2344:2350   */\n      0x00\n        /* \"#utility.yul\":2393:2395   */\n      0x20\n        /* \"#utility.yul\":2381:2390   */\n      dup3\n        /* \"#utility.yul\":2372:2379   */\n      dup5\n        /* \"#utility.yul\":2368:2391   */\n      sub\n        /* \"#utility.yul\":2364:2396   */\n      slt\n        /* \"#utility.yul\":2361:2480   */\n      iszero\n      tag_137\n      jumpi\n        /* \"#utility.yul\":2399:2478   */\n      tag_138\n      tag_122\n      jump\t// in\n    tag_138:\n        /* \"#utility.yul\":2361:2480   */\n    tag_137:\n        /* \"#utility.yul\":2519:2520   */\n      0x00\n        /* \"#utility.yul\":2544:2597   */\n      tag_139\n        /* \"#utility.yul\":2589:2596   */\n      dup5\n        /* \"#utility.yul\":2580:2586   */\n      dup3\n        /* \"#utility.yul\":2569:2578   */\n      dup6\n        /* \"#utility.yul\":2565:2587   */\n      add\n        /* \"#utility.yul\":2544:2597   */\n      tag_115\n      jump\t// in\n    tag_139:\n        /* \"#utility.yul\":2534:2597   */\n      swap2\n      pop\n        /* \"#utility.yul\":2490:2607   */\n      pop\n        /* \"#utility.yul\":2285:2614   */\n      swap3\n      swap2\n      pop\n      pop\n      jump\t// out\n        /* \"#utility.yul\":2620:2816   */\n    tag_140:\n        /* \"#utility.yul\":2709:2719   */\n      0x00\n        /* \"#utility.yul\":2744:2810   */\n      tag_142\n        /* \"#utility.yul\":2806:2809   */\n      dup4\n        /* \"#utility.yul\":2798:2804   */\n      dup4\n        /* \"#utility.yul\":2744:2810   */\n      tag_143\n      jump\t// in\n    tag_142:\n        /* \"#utility.yul\":2730:2810   */\n      swap1\n      pop\n        /* \"#utility.yul\":2620:2816   */\n      swap3\n      swap2\n      pop\n      pop\n      jump\t// out\n        /* \"#utility.yul\":2850:3841   */\n    tag_144:\n        /* \"#utility.yul\":2989:2992   */\n      0x00\n        /* \"#utility.yul\":3018:3082   */\n      tag_146\n        /* \"#utility.yul\":3076:3081   */\n      dup3\n        /* \"#utility.yul\":3018:3082   */\n      tag_147\n      jump\t// in\n    tag_146:\n        /* \"#utility.yul\":3098:3194   */\n      tag_148\n        /* \"#utility.yul\":3187:3193   */\n      dup2\n        /* \"#utility.yul\":3182:3185   */\n      dup6\n        /* \"#utility.yul\":3098:3194   */\n      tag_149\n      jump\t// in\n    tag_148:\n        /* \"#utility.yul\":3091:3194   */\n      swap4\n      pop\n        /* \"#utility.yul\":3220:3223   */\n      dup4\n        /* \"#utility.yul\":3265:3269   */\n      0x20\n        /* \"#utility.yul\":3257:3263   */\n      dup3\n        /* \"#utility.yul\":3253:3270   */\n      mul\n        /* \"#utility.yul\":3248:3251   */\n      dup6\n        /* \"#utility.yul\":3244:3271   */\n      add\n        /* \"#utility.yul\":3295:3361   */\n      tag_150\n        /* \"#utility.yul\":3355:3360   */\n      dup6\n        /* \"#utility.yul\":3295:3361   */\n      tag_151\n      jump\t// in\n    tag_150:\n        /* \"#utility.yul\":3384:3391   */\n      dup1\n        /* \"#utility.yul\":3415:3416   */\n      0x00\n        /* \"#utility.yul\":3400:3796   */\n    tag_152:\n        /* \"#utility.yul\":3425:3431   */\n      dup6\n        /* \"#utility.yul\":3422:3423   */\n      dup2\n        /* \"#utility.yul\":3419:3432   */\n      lt\n        /* \"#utility.yul\":3400:3796   */\n      iszero\n      tag_154\n      jumpi\n        /* \"#utility.yul\":3496:3505   */\n      dup5\n        /* \"#utility.yul\":3490:3494   */\n      dup5\n        /* \"#utility.yul\":3486:3506   */\n      sub\n        /* \"#utility.yul\":3481:3484   */\n      dup10\n        /* \"#utility.yul\":3474:3507   */\n      mstore\n        /* \"#utility.yul\":3547:3553   */\n      dup2\n        /* \"#utility.yul\":3541:3554   */\n      mload\n        /* \"#utility.yul\":3575:3659   */\n      tag_155\n        /* \"#utility.yul\":3654:3658   */\n      dup6\n        /* \"#utility.yul\":3639:3652   */\n      dup3\n        /* \"#utility.yul\":3575:3659   */\n      tag_140\n      jump\t// in\n    tag_155:\n        /* \"#utility.yul\":3567:3659   */\n      swap5\n      pop\n        /* \"#utility.yul\":3682:3752   */\n      tag_156\n        /* \"#utility.yul\":3745:3751   */\n      dup4\n        /* \"#utility.yul\":3682:3752   */\n      tag_157\n      jump\t// in\n    tag_156:\n        /* \"#utility.yul\":3672:3752   */\n      swap3\n      pop\n        /* \"#utility.yul\":3781:3785   */\n      0x20\n        /* \"#utility.yul\":3776:3779   */\n      dup11\n        /* \"#utility.yul\":3772:3786   */\n      add\n        /* \"#utility.yul\":3765:3786   */\n      swap10\n      pop\n        /* \"#utility.yul\":3460:3796   */\n      pop\n        /* \"#utility.yul\":3447:3448   */\n      0x01\n        /* \"#utility.yul\":3444:3445   */\n      dup2\n        /* \"#utility.yul\":3440:3449   */\n      add\n        /* \"#utility.yul\":3435:3449   */\n      swap1\n      pop\n        /* \"#utility.yul\":3400:3796   */\n      jump(tag_152)\n    tag_154:\n        /* \"#utility.yul\":3404:3418   */\n      pop\n        /* \"#utility.yul\":3812:3816   */\n      dup3\n        /* \"#utility.yul\":3805:3816   */\n      swap8\n      pop\n        /* \"#utility.yul\":3832:3835   */\n      dup8\n        /* \"#utility.yul\":3825:3835   */\n      swap6\n      pop\n        /* \"#utility.yul\":2994:3841   */\n      pop\n      pop\n      pop\n      pop\n      pop\n        /* \"#utility.yul\":2850:3841   */\n      swap3\n      swap2\n      pop\n      pop\n      jump\t// out\n        /* \"#utility.yul\":3847:4191   */\n    tag_143:\n        /* \"#utility.yul\":3925:3928   */\n      0x00\n        /* \"#utility.yul\":3953:3992   */\n      tag_159\n        /* \"#utility.yul\":3986:3991   */\n      dup3\n        /* \"#utility.yul\":3953:3992   */\n      tag_160\n      jump\t// in\n    tag_159:\n        /* \"#utility.yul\":4008:4069   */\n      tag_161\n        /* \"#utility.yul\":4062:4068   */\n      dup2\n        /* \"#utility.yul\":4057:4060   */\n      dup6\n        /* \"#utility.yul\":4008:4069   */\n      tag_162\n      jump\t// in\n    tag_161:\n        /* \"#utility.yul\":4001:4069   */\n      swap4\n      pop\n        /* \"#utility.yul\":4078:4130   */\n      tag_163\n        /* \"#utility.yul\":4123:4129   */\n      dup2\n        /* \"#utility.yul\":4118:4121   */\n      dup6\n        /* \"#utility.yul\":4111:4115   */\n      0x20\n        /* \"#utility.yul\":4104:4109   */\n      dup7\n        /* \"#utility.yul\":4100:4116   */\n      add\n        /* \"#utility.yul\":4078:4130   */\n      tag_164\n      jump\t// in\n    tag_163:\n        /* \"#utility.yul\":4155:4184   */\n      tag_165\n        /* \"#utility.yul\":4177:4183   */\n      dup2\n        /* \"#utility.yul\":4155:4184   */\n      tag_166\n      jump\t// in\n    tag_165:\n        /* \"#utility.yul\":4150:4153   */\n      dup5\n        /* \"#utility.yul\":4146:4185   */\n      add\n        /* \"#utility.yul\":4139:4185   */\n      swap2\n      pop\n        /* \"#utility.yul\":3929:4191   */\n      pop\n        /* \"#utility.yul\":3847:4191   */\n      swap3\n      swap2\n      pop\n      pop\n      jump\t// out\n        /* \"#utility.yul\":4197:4561   */\n    tag_167:\n        /* \"#utility.yul\":4285:4288   */\n      0x00\n        /* \"#utility.yul\":4313:4352   */\n      tag_169\n        /* \"#utility.yul\":4346:4351   */\n      dup3\n        /* \"#utility.yul\":4313:4352   */\n      tag_160\n      jump\t// in\n    tag_169:\n        /* \"#utility.yul\":4368:4439   */\n      tag_170\n        /* \"#utility.yul\":4432:4438   */\n      dup2\n        /* \"#utility.yul\":4427:4430   */\n      dup6\n        /* \"#utility.yul\":4368:4439   */\n      tag_171\n      jump\t// in\n    tag_170:\n        /* \"#utility.yul\":4361:4439   */\n      swap4\n      pop\n        /* \"#utility.yul\":4448:4500   */\n      tag_172\n        /* \"#utility.yul\":4493:4499   */\n      dup2\n        /* \"#utility.yul\":4488:4491   */\n      dup6\n        /* \"#utility.yul\":4481:4485   */\n      0x20\n        /* \"#utility.yul\":4474:4479   */\n      dup7\n        /* \"#utility.yul\":4470:4486   */\n      add\n        /* \"#utility.yul\":4448:4500   */\n      tag_164\n      jump\t// in\n    tag_172:\n        /* \"#utility.yul\":4525:4554   */\n      tag_173\n        /* \"#utility.yul\":4547:4553   */\n      dup2\n        /* \"#utility.yul\":4525:4554   */\n      tag_166\n      jump\t// in\n    tag_173:\n        /* \"#utility.yul\":4520:4523   */\n      dup5\n        /* \"#utility.yul\":4516:4555   */\n      add\n        /* \"#utility.yul\":4509:4555   */\n      swap2\n      pop\n        /* \"#utility.yul\":4289:4561   */\n      pop\n        /* \"#utility.yul\":4197:4561   */\n      swap3\n      swap2\n      pop\n      pop\n      jump\t// out\n        /* \"#utility.yul\":4567:4685   */\n    tag_174:\n        /* \"#utility.yul\":4654:4678   */\n      tag_176\n        /* \"#utility.yul\":4672:4677   */\n      dup2\n        /* \"#utility.yul\":4654:4678   */\n      tag_177\n      jump\t// in\n    tag_176:\n        /* \"#utility.yul\":4649:4652   */\n      dup3\n        /* \"#utility.yul\":4642:4679   */\n      mstore\n        /* \"#utility.yul\":4567:4685   */\n      pop\n      pop\n      jump\t// out\n        /* \"#utility.yul\":4691:5104   */\n    tag_36:\n        /* \"#utility.yul\":4854:4858   */\n      0x00\n        /* \"#utility.yul\":4892:4894   */\n      0x20\n        /* \"#utility.yul\":4881:4890   */\n      dup3\n        /* \"#utility.yul\":4877:4895   */\n      add\n        /* \"#utility.yul\":4869:4895   */\n      swap1\n      pop\n        /* \"#utility.yul\":4941:4950   */\n      dup2\n        /* \"#utility.yul\":4935:4939   */\n      dup2\n        /* \"#utility.yul\":4931:4951   */\n      sub\n        /* \"#utility.yul\":4927:4928   */\n      0x00\n        /* \"#utility.yul\":4916:4925   */\n      dup4\n        /* \"#utility.yul\":4912:4929   */\n      add\n        /* \"#utility.yul\":4905:4952   */\n      mstore\n        /* \"#utility.yul\":4969:5097   */\n      tag_179\n        /* \"#utility.yul\":5092:5096   */\n      dup2\n        /* \"#utility.yul\":5083:5089   */\n      dup5\n        /* \"#utility.yul\":4969:5097   */\n      tag_144\n      jump\t// in\n    tag_179:\n        /* \"#utility.yul\":4961:5097   */\n      swap1\n      pop\n        /* \"#utility.yul\":4691:5104   */\n      swap3\n      swap2\n      pop\n      pop\n      jump\t// out\n        /* \"#utility.yul\":5110:5423   */\n    tag_32:\n        /* \"#utility.yul\":5223:5227   */\n      0x00\n        /* \"#utility.yul\":5261:5263   */\n      0x20\n        /* \"#utility.yul\":5250:5259   */\n      dup3\n        /* \"#utility.yul\":5246:5264   */\n      add\n        /* \"#utility.yul\":5238:5264   */\n      swap1\n      pop\n        /* \"#utility.yul\":5310:5319   */\n      dup2\n        /* \"#utility.yul\":5304:5308   */\n      dup2\n        /* \"#utility.yul\":5300:5320   */\n      sub\n        /* \"#utility.yul\":5296:5297   */\n      0x00\n        /* \"#utility.yul\":5285:5294   */\n      dup4\n        /* \"#utility.yul\":5281:5298   */\n      add\n        /* \"#utility.yul\":5274:5321   */\n      mstore\n        /* \"#utility.yul\":5338:5416   */\n      tag_181\n        /* \"#utility.yul\":5411:5415   */\n      dup2\n        /* \"#utility.yul\":5402:5408   */\n      dup5\n        /* \"#utility.yul\":5338:5416   */\n      tag_167\n      jump\t// in\n    tag_181:\n        /* \"#utility.yul\":5330:5416   */\n      swap1\n      pop\n        /* \"#utility.yul\":5110:5423   */\n      swap3\n      swap2\n      pop\n      pop\n      jump\t// out\n        /* \"#utility.yul\":5429:5651   */\n    tag_15:\n        /* \"#utility.yul\":5522:5526   */\n      0x00\n        /* \"#utility.yul\":5560:5562   */\n      0x20\n        /* \"#utility.yul\":5549:5558   */\n      dup3\n        /* \"#utility.yul\":5545:5563   */\n      add\n        /* \"#utility.yul\":5537:5563   */\n      swap1\n      pop\n        /* \"#utility.yul\":5573:5644   */\n      tag_183\n        /* \"#utility.yul\":5641:5642   */\n      0x00\n        /* \"#utility.yul\":5630:5639   */\n      dup4\n        /* \"#utility.yul\":5626:5643   */\n      add\n        /* \"#utility.yul\":5617:5623   */\n      dup5\n        /* \"#utility.yul\":5573:5644   */\n      tag_174\n      jump\t// in\n    tag_183:\n        /* \"#utility.yul\":5429:5651   */\n      swap3\n      swap2\n      pop\n      pop\n      jump\t// out\n        /* \"#utility.yul\":5657:6281   */\n    tag_41:\n        /* \"#utility.yul\":5846:5850   */\n      0x00\n        /* \"#utility.yul\":5884:5886   */\n      0x60\n        /* \"#utility.yul\":5873:5882   */\n      dup3\n        /* \"#utility.yul\":5869:5887   */\n      add\n        /* \"#utility.yul\":5861:5887   */\n      swap1\n      pop\n        /* \"#utility.yul\":5897:5968   */\n      tag_185\n        /* \"#utility.yul\":5965:5966   */\n      0x00\n        /* \"#utility.yul\":5954:5963   */\n      dup4\n        /* \"#utility.yul\":5950:5967   */\n      add\n        /* \"#utility.yul\":5941:5947   */\n      dup7\n        /* \"#utility.yul\":5897:5968   */\n      tag_174\n      jump\t// in\n    tag_185:\n        /* \"#utility.yul\":6015:6024   */\n      dup2\n        /* \"#utility.yul\":6009:6013   */\n      dup2\n        /* \"#utility.yul\":6005:6025   */\n      sub\n        /* \"#utility.yul\":6000:6002   */\n      0x20\n        /* \"#utility.yul\":5989:5998   */\n      dup4\n        /* \"#utility.yul\":5985:6003   */\n      add\n        /* \"#utility.yul\":5978:6026   */\n      mstore\n        /* \"#utility.yul\":6043:6121   */\n      tag_186\n        /* \"#utility.yul\":6116:6120   */\n      dup2\n        /* \"#utility.yul\":6107:6113   */\n      dup6\n        /* \"#utility.yul\":6043:6121   */\n      tag_167\n      jump\t// in\n    tag_186:\n        /* \"#utility.yul\":6035:6121   */\n      swap1\n      pop\n        /* \"#utility.yul\":6168:6177   */\n      dup2\n        /* \"#utility.yul\":6162:6166   */\n      dup2\n        /* \"#utility.yul\":6158:6178   */\n      sub\n        /* \"#utility.yul\":6153:6155   */\n      0x40\n        /* \"#utility.yul\":6142:6151   */\n      dup4\n        /* \"#utility.yul\":6138:6156   */\n      add\n        /* \"#utility.yul\":6131:6179   */\n      mstore\n        /* \"#utility.yul\":6196:6274   */\n      tag_187\n        /* \"#utility.yul\":6269:6273   */\n      dup2\n        /* \"#utility.yul\":6260:6266   */\n      dup5\n        /* \"#utility.yul\":6196:6274   */\n      tag_167\n      jump\t// in\n    tag_187:\n        /* \"#utility.yul\":6188:6274   */\n      swap1\n      pop\n        /* \"#utility.yul\":5657:6281   */\n      swap5\n      swap4\n      pop\n      pop\n      pop\n      pop\n      jump\t// out\n        /* \"#utility.yul\":6287:6416   */\n    tag_103:\n        /* \"#utility.yul\":6321:6327   */\n      0x00\n        /* \"#utility.yul\":6348:6368   */\n      tag_189\n      tag_190\n      jump\t// in\n    tag_189:\n        /* \"#utility.yul\":6338:6368   */\n      swap1\n      pop\n        /* \"#utility.yul\":6377:6410   */\n      tag_191\n        /* \"#utility.yul\":6405:6409   */\n      dup3\n        /* \"#utility.yul\":6397:6403   */\n      dup3\n        /* \"#utility.yul\":6377:6410   */\n      tag_192\n      jump\t// in\n    tag_191:\n        /* \"#utility.yul\":6287:6416   */\n      swap2\n      swap1\n      pop\n      jump\t// out\n        /* \"#utility.yul\":6422:6497   */\n    tag_190:\n        /* \"#utility.yul\":6455:6461   */\n      0x00\n        /* \"#utility.yul\":6488:6490   */\n      0x40\n        /* \"#utility.yul\":6482:6491   */\n      mload\n        /* \"#utility.yul\":6472:6491   */\n      swap1\n      pop\n        /* \"#utility.yul\":6422:6497   */\n      swap1\n      jump\t// out\n        /* \"#utility.yul\":6503:6811   */\n    tag_102:\n        /* \"#utility.yul\":6565:6569   */\n      0x00\n        /* \"#utility.yul\":6655:6673   */\n      0xffffffffffffffff\n        /* \"#utility.yul\":6647:6653   */\n      dup3\n        /* \"#utility.yul\":6644:6674   */\n      gt\n        /* \"#utility.yul\":6641:6697   */\n      iszero\n      tag_195\n      jumpi\n        /* \"#utility.yul\":6677:6695   */\n      tag_196\n      tag_197\n      jump\t// in\n    tag_196:\n        /* \"#utility.yul\":6641:6697   */\n    tag_195:\n        /* \"#utility.yul\":6715:6744   */\n      tag_198\n        /* \"#utility.yul\":6737:6743   */\n      dup3\n        /* \"#utility.yul\":6715:6744   */\n      tag_166\n      jump\t// in\n    tag_198:\n        /* \"#utility.yul\":6707:6744   */\n      swap1\n      pop\n        /* \"#utility.yul\":6799:6803   */\n      0x20\n        /* \"#utility.yul\":6793:6797   */\n      dup2\n        /* \"#utility.yul\":6789:6804   */\n      add\n        /* \"#utility.yul\":6781:6804   */\n      swap1\n      pop\n        /* \"#utility.yul\":6503:6811   */\n      swap2\n      swap1\n      pop\n      jump\t// out\n        /* \"#utility.yul\":6817:6959   */\n    tag_151:\n        /* \"#utility.yul\":6894:6898   */\n      0x00\n        /* \"#utility.yul\":6917:6920   */\n      dup2\n        /* \"#utility.yul\":6909:6920   */\n      swap1\n      pop\n        /* \"#utility.yul\":6947:6951   */\n      0x20\n        /* \"#utility.yul\":6942:6945   */\n      dup3\n        /* \"#utility.yul\":6938:6952   */\n      add\n        /* \"#utility.yul\":6930:6952   */\n      swap1\n      pop\n        /* \"#utility.yul\":6817:6959   */\n      swap2\n      swap1\n      pop\n      jump\t// out\n        /* \"#utility.yul\":6965:7089   */\n    tag_147:\n        /* \"#utility.yul\":7042:7048   */\n      0x00\n        /* \"#utility.yul\":7076:7081   */\n      dup2\n        /* \"#utility.yul\":7070:7082   */\n      mload\n        /* \"#utility.yul\":7060:7082   */\n      swap1\n      pop\n        /* \"#utility.yul\":6965:7089   */\n      swap2\n      swap1\n      pop\n      jump\t// out\n        /* \"#utility.yul\":7095:7194   */\n    tag_160:\n        /* \"#utility.yul\":7147:7153   */\n      0x00\n        /* \"#utility.yul\":7181:7186   */\n      dup2\n        /* \"#utility.yul\":7175:7187   */\n      mload\n        /* \"#utility.yul\":7165:7187   */\n      swap1\n      pop\n        /* \"#utility.yul\":7095:7194   */\n      swap2\n      swap1\n      pop\n      jump\t// out\n        /* \"#utility.yul\":7200:7323   */\n    tag_157:\n        /* \"#utility.yul\":7280:7284   */\n      0x00\n        /* \"#utility.yul\":7312:7316   */\n      0x20\n        /* \"#utility.yul\":7307:7310   */\n      dup3\n        /* \"#utility.yul\":7303:7317   */\n      add\n        /* \"#utility.yul\":7295:7317   */\n      swap1\n      pop\n        /* \"#utility.yul\":7200:7323   */\n      swap2\n      swap1\n      pop\n      jump\t// out\n        /* \"#utility.yul\":7329:7523   */\n    tag_149:\n        /* \"#utility.yul\":7438:7449   */\n      0x00\n        /* \"#utility.yul\":7472:7478   */\n      dup3\n        /* \"#utility.yul\":7467:7470   */\n      dup3\n        /* \"#utility.yul\":7460:7479   */\n      mstore\n        /* \"#utility.yul\":7512:7516   */\n      0x20\n        /* \"#utility.yul\":7507:7510   */\n      dup3\n        /* \"#utility.yul\":7503:7517   */\n      add\n        /* \"#utility.yul\":7488:7517   */\n      swap1\n      pop\n        /* \"#utility.yul\":7329:7523   */\n      swap3\n      swap2\n      pop\n      pop\n      jump\t// out\n        /* \"#utility.yul\":7529:7688   */\n    tag_162:\n        /* \"#utility.yul\":7603:7614   */\n      0x00\n        /* \"#utility.yul\":7637:7643   */\n      dup3\n        /* \"#utility.yul\":7632:7635   */\n      dup3\n        /* \"#utility.yul\":7625:7644   */\n      mstore\n        /* \"#utility.yul\":7677:7681   */\n      0x20\n        /* \"#utility.yul\":7672:7675   */\n      dup3\n        /* \"#utility.yul\":7668:7682   */\n      add\n        /* \"#utility.yul\":7653:7682   */\n      swap1\n      pop\n        /* \"#utility.yul\":7529:7688   */\n      swap3\n      swap2\n      pop\n      pop\n      jump\t// out\n        /* \"#utility.yul\":7694:7863   */\n    tag_171:\n        /* \"#utility.yul\":7778:7789   */\n      0x00\n        /* \"#utility.yul\":7812:7818   */\n      dup3\n        /* \"#utility.yul\":7807:7810   */\n      dup3\n        /* \"#utility.yul\":7800:7819   */\n      mstore\n        /* \"#utility.yul\":7852:7856   */\n      0x20\n        /* \"#utility.yul\":7847:7850   */\n      dup3\n        /* \"#utility.yul\":7843:7857   */\n      add\n        /* \"#utility.yul\":7828:7857   */\n      swap1\n      pop\n        /* \"#utility.yul\":7694:7863   */\n      swap3\n      swap2\n      pop\n      pop\n      jump\t// out\n        /* \"#utility.yul\":7869:7946   */\n    tag_177:\n        /* \"#utility.yul\":7906:7913   */\n      0x00\n        /* \"#utility.yul\":7935:7940   */\n      dup2\n        /* \"#utility.yul\":7924:7940   */\n      swap1\n      pop\n        /* \"#utility.yul\":7869:7946   */\n      swap2\n      swap1\n      pop\n      jump\t// out\n        /* \"#utility.yul\":7952:8106   */\n    tag_108:\n        /* \"#utility.yul\":8036:8042   */\n      dup3\n        /* \"#utility.yul\":8031:8034   */\n      dup2\n        /* \"#utility.yul\":8026:8029   */\n      dup4\n        /* \"#utility.yul\":8013:8043   */\n      calldatacopy\n        /* \"#utility.yul\":8098:8099   */\n      0x00\n        /* \"#utility.yul\":8089:8095   */\n      dup4\n        /* \"#utility.yul\":8084:8087   */\n      dup4\n        /* \"#utility.yul\":8080:8096   */\n      add\n        /* \"#utility.yul\":8073:8100   */\n      mstore\n        /* \"#utility.yul\":7952:8106   */\n      pop\n      pop\n      pop\n      jump\t// out\n        /* \"#utility.yul\":8112:8419   */\n    tag_164:\n        /* \"#utility.yul\":8180:8181   */\n      0x00\n        /* \"#utility.yul\":8190:8303   */\n    tag_209:\n        /* \"#utility.yul\":8204:8210   */\n      dup4\n        /* \"#utility.yul\":8201:8202   */\n      dup2\n        /* \"#utility.yul\":8198:8211   */\n      lt\n        /* \"#utility.yul\":8190:8303   */\n      iszero\n      tag_211\n      jumpi\n        /* \"#utility.yul\":8289:8290   */\n      dup1\n        /* \"#utility.yul\":8284:8287   */\n      dup3\n        /* \"#utility.yul\":8280:8291   */\n      add\n        /* \"#utility.yul\":8274:8292   */\n      mload\n        /* \"#utility.yul\":8270:8271   */\n      dup2\n        /* \"#utility.yul\":8265:8268   */\n      dup5\n        /* \"#utility.yul\":8261:8272   */\n      add\n        /* \"#utility.yul\":8254:8293   */\n      mstore\n        /* \"#utility.yul\":8226:8228   */\n      0x20\n        /* \"#utility.yul\":8223:8224   */\n      dup2\n        /* \"#utility.yul\":8219:8229   */\n      add\n        /* \"#utility.yul\":8214:8229   */\n      swap1\n      pop\n        /* \"#utility.yul\":8190:8303   */\n      jump(tag_209)\n    tag_211:\n        /* \"#utility.yul\":8321:8327   */\n      dup4\n        /* \"#utility.yul\":8318:8319   */\n      dup2\n        /* \"#utility.yul\":8315:8328   */\n      gt\n        /* \"#utility.yul\":8312:8413   */\n      iszero\n      tag_212\n      jumpi\n        /* \"#utility.yul\":8401:8402   */\n      0x00\n        /* \"#utility.yul\":8392:8398   */\n      dup5\n        /* \"#utility.yul\":8387:8390   */\n      dup5\n        /* \"#utility.yul\":8383:8399   */\n      add\n        /* \"#utility.yul\":8376:8403   */\n      mstore\n        /* \"#utility.yul\":8312:8413   */\n    tag_212:\n        /* \"#utility.yul\":8161:8419   */\n      pop\n        /* \"#utility.yul\":8112:8419   */\n      pop\n      pop\n      pop\n      jump\t// out\n        /* \"#utility.yul\":8425:8745   */\n    tag_58:\n        /* \"#utility.yul\":8469:8475   */\n      0x00\n        /* \"#utility.yul\":8506:8507   */\n      0x02\n        /* \"#utility.yul\":8500:8504   */\n      dup3\n        /* \"#utility.yul\":8496:8508   */\n      div\n        /* \"#utility.yul\":8486:8508   */\n      swap1\n      pop\n        /* \"#utility.yul\":8553:8554   */\n      0x01\n        /* \"#utility.yul\":8547:8551   */\n      dup3\n        /* \"#utility.yul\":8543:8555   */\n      and\n        /* \"#utility.yul\":8574:8592   */\n      dup1\n        /* \"#utility.yul\":8564:8645   */\n      tag_214\n      jumpi\n        /* \"#utility.yul\":8630:8634   */\n      0x7f\n        /* \"#utility.yul\":8622:8628   */\n      dup3\n        /* \"#utility.yul\":8618:8635   */\n      and\n        /* \"#utility.yul\":8608:8635   */\n      swap2\n      pop\n        /* \"#utility.yul\":8564:8645   */\n    tag_214:\n        /* \"#utility.yul\":8692:8694   */\n      0x20\n        /* \"#utility.yul\":8684:8690   */\n      dup3\n        /* \"#utility.yul\":8681:8695   */\n      lt\n        /* \"#utility.yul\":8661:8679   */\n      dup2\n        /* \"#utility.yul\":8658:8696   */\n      eq\n        /* \"#utility.yul\":8655:8739   */\n      iszero\n      tag_215\n      jumpi\n        /* \"#utility.yul\":8711:8729   */\n      tag_216\n      tag_217\n      jump\t// in\n    tag_216:\n        /* \"#utility.yul\":8655:8739   */\n    tag_215:\n        /* \"#utility.yul\":8476:8745   */\n      pop\n        /* \"#utility.yul\":8425:8745   */\n      swap2\n      swap1\n      pop\n      jump\t// out\n        /* \"#utility.yul\":8751:9032   */\n    tag_192:\n        /* \"#utility.yul\":8834:8861   */\n      tag_219\n        /* \"#utility.yul\":8856:8860   */\n      dup3\n        /* \"#utility.yul\":8834:8861   */\n      tag_166\n      jump\t// in\n    tag_219:\n        /* \"#utility.yul\":8826:8832   */\n      dup2\n        /* \"#utility.yul\":8822:8862   */\n      add\n        /* \"#utility.yul\":8964:8970   */\n      dup2\n        /* \"#utility.yul\":8952:8962   */\n      dup2\n        /* \"#utility.yul\":8949:8971   */\n      lt\n        /* \"#utility.yul\":8928:8946   */\n      0xffffffffffffffff\n        /* \"#utility.yul\":8916:8926   */\n      dup3\n        /* \"#utility.yul\":8913:8947   */\n      gt\n        /* \"#utility.yul\":8910:8972   */\n      or\n        /* \"#utility.yul\":8907:8995   */\n      iszero\n      tag_220\n      jumpi\n        /* \"#utility.yul\":8975:8993   */\n      tag_221\n      tag_197\n      jump\t// in\n    tag_221:\n        /* \"#utility.yul\":8907:8995   */\n    tag_220:\n        /* \"#utility.yul\":9015:9025   */\n      dup1\n        /* \"#utility.yul\":9011:9013   */\n      0x40\n        /* \"#utility.yul\":9004:9026   */\n      mstore\n        /* \"#utility.yul\":8794:9032   */\n      pop\n        /* \"#utility.yul\":8751:9032   */\n      pop\n      pop\n      jump\t// out\n        /* \"#utility.yul\":9038:9271   */\n    tag_48:\n        /* \"#utility.yul\":9077:9080   */\n      0x00\n        /* \"#utility.yul\":9100:9124   */\n      tag_223\n        /* \"#utility.yul\":9118:9123   */\n      dup3\n        /* \"#utility.yul\":9100:9124   */\n      tag_177\n      jump\t// in\n    tag_223:\n        /* \"#utility.yul\":9091:9124   */\n      swap2\n      pop\n        /* \"#utility.yul\":9146:9212   */\n      0xffffffffffffffffffffffffffffffffffffffffffffffffffffffffffffffff\n        /* \"#utility.yul\":9139:9144   */\n      dup3\n        /* \"#utility.yul\":9136:9213   */\n      eq\n        /* \"#utility.yul\":9133:9236   */\n      iszero\n      tag_224\n      jumpi\n        /* \"#utility.yul\":9216:9234   */\n      tag_225\n      tag_226\n      jump\t// in\n    tag_225:\n        /* \"#utility.yul\":9133:9236   */\n    tag_224:\n        /* \"#utility.yul\":9263:9264   */\n      0x01\n        /* \"#utility.yul\":9256:9261   */\n      dup3\n        /* \"#utility.yul\":9252:9265   */\n      add\n        /* \"#utility.yul\":9245:9265   */\n      swap1\n      pop\n        /* \"#utility.yul\":9038:9271   */\n      swap2\n      swap1\n      pop\n      jump\t// out\n        /* \"#utility.yul\":9277:9457   */\n    tag_226:\n        /* \"#utility.yul\":9325:9402   */\n      0x4e487b7100000000000000000000000000000000000000000000000000000000\n        /* \"#utility.yul\":9322:9323   */\n      0x00\n        /* \"#utility.yul\":9315:9403   */\n      mstore\n        /* \"#utility.yul\":9422:9426   */\n      0x11\n        /* \"#utility.yul\":9419:9420   */\n      0x04\n        /* \"#utility.yul\":9412:9427   */\n      mstore\n        /* \"#utility.yul\":9446:9450   */\n      0x24\n        /* \"#utility.yul\":9443:9444   */\n      0x00\n        /* \"#utility.yul\":9436:9451   */\n      revert\n        /* \"#utility.yul\":9463:9643   */\n    tag_217:\n        /* \"#utility.yul\":9511:9588   */\n      0x4e487b7100000000000000000000000000000000000000000000000000000000\n        /* \"#utility.yul\":9508:9509   */\n      0x00\n        /* \"#utility.yul\":9501:9589   */\n      mstore\n        /* \"#utility.yul\":9608:9612   */\n      0x22\n        /* \"#utility.yul\":9605:9606   */\n      0x04\n        /* \"#utility.yul\":9598:9613   */\n      mstore\n        /* \"#utility.yul\":9632:9636   */\n      0x24\n        /* \"#utility.yul\":9629:9630   */\n      0x00\n        /* \"#utility.yul\":9622:9637   */\n      revert\n        /* \"#utility.yul\":9649:9829   */\n    tag_197:\n        /* \"#utility.yul\":9697:9774   */\n      0x4e487b7100000000000000000000000000000000000000000000000000000000\n        /* \"#utility.yul\":9694:9695   */\n      0x00\n        /* \"#utility.yul\":9687:9775   */\n      mstore\n        /* \"#utility.yul\":9794:9798   */\n      0x41\n        /* \"#utility.yul\":9791:9792   */\n      0x04\n        /* \"#utility.yul\":9784:9799   */\n      mstore\n        /* \"#utility.yul\":9818:9822   */\n      0x24\n        /* \"#utility.yul\":9815:9816   */\n      0x00\n        /* \"#utility.yul\":9808:9823   */\n      revert\n        /* \"#utility.yul\":9835:9952   */\n    tag_113:\n        /* \"#utility.yul\":9944:9945   */\n      0x00\n        /* \"#utility.yul\":9941:9942   */\n      dup1\n        /* \"#utility.yul\":9934:9946   */\n      revert\n        /* \"#utility.yul\":9958:10075   */\n    tag_106:\n        /* \"#utility.yul\":10067:10068   */\n      0x00\n        /* \"#utility.yul\":10064:10065   */\n      dup1\n        /* \"#utility.yul\":10057:10069   */\n      revert\n        /* \"#utility.yul\":10081:10198   */\n    tag_125:\n        /* \"#utility.yul\":10190:10191   */\n      0x00\n        /* \"#utility.yul\":10187:10188   */\n      dup1\n        /* \"#utility.yul\":10180:10192   */\n      revert\n        /* \"#utility.yul\":10204:10321   */\n    tag_122:\n        /* \"#utility.yul\":10313:10314   */\n      0x00\n        /* \"#utility.yul\":10310:10311   */\n      dup1\n        /* \"#utility.yul\":10303:10315   */\n      revert\n        /* \"#utility.yul\":10327:10429   */\n    tag_166:\n        /* \"#utility.yul\":10368:10374   */\n      0x00\n        /* \"#utility.yul\":10419:10421   */\n      0x1f\n        /* \"#utility.yul\":10415:10422   */\n      not\n        /* \"#utility.yul\":10410:10412   */\n      0x1f\n        /* \"#utility.yul\":10403:10408   */\n      dup4\n        /* \"#utility.yul\":10399:10413   */\n      add\n        /* \"#utility.yul\":10395:10423   */\n      and\n        /* \"#utility.yul\":10385:10423   */\n      swap1\n      pop\n        /* \"#utility.yul\":10327:10429   */\n      swap2\n      swap1\n      pop\n      jump\t// out\n        /* \"#utility.yul\":10435:10557   */\n    tag_118:\n        /* \"#utility.yul\":10508:10532   */\n      tag_236\n        /* \"#utility.yul\":10526:10531   */\n      dup2\n        /* \"#utility.yul\":10508:10532   */\n      tag_177\n      jump\t// in\n    tag_236:\n        /* \"#utility.yul\":10501:10506   */\n      dup2\n        /* \"#utility.yul\":10498:10533   */\n      eq\n        /* \"#utility.yul\":10488:10551   */\n      tag_237\n      jumpi\n        /* \"#utility.yul\":10547:10548   */\n      0x00\n        /* \"#utility.yul\":10544:10545   */\n      dup1\n        /* \"#utility.yul\":10537:10549   */\n      revert\n        /* \"#utility.yul\":10488:10551   */\n    tag_237:\n        /* \"#utility.yul\":10435:10557   */\n      pop\n      jump\t// out\n\n    auxdata: 0xa2646970667358221220b05ae02d94168c9ba179a38624a49bb562d79224b4e09a4335d364d54b3c563764736f6c63430008070033\n}\n",
				"bytecode": {
					"linkReferences": {},
					"object": "6080604052600060015534801561001557600080fd5b50610c49806100256000396000f3fe608060405234801561001057600080fd5b50600436106100885760003560e01c806359221a681161005b57806359221a681461010157806382d69b62146101315780639e7a13ad1461014f578063a6c3e6b91461018157610088565b806317e703ab1461008d57806322f5b58d146100ab578063267c68e0146100c75780632edd4fa5146100e5575b600080fd5b61009561019f565b6040516100a29190610936565b60405180910390f35b6100c560048036038101906100c09190610743565b6101ac565b005b6100cf610240565b6040516100dc9190610936565b60405180910390f35b6100ff60048036038101906100fa91906106fa565b610246565b005b61011b600480360381019061011691906107bb565b610285565b6040516101289190610914565b60405180910390f35b610139610331565b60405161014691906108f2565b60405180910390f35b610169600480360381019061016491906107bb565b61040a565b60405161017893929190610951565b60405180910390f35b610189610544565b6040516101969190610914565b60405180910390f35b6000600280549050905090565b600160008154809291906101bf90610b01565b91905055506040518060600160405280600154815260200183815260200182815250600080600154815260200190815260200160002060008201518160000155602082015181600101908051906020019061021b9291906105d2565b5060408201518160020190805190602001906102389291906105d2565b509050505050565b60015481565b6002819080600181540180825580915050600190039060005260206000200160009091909190915090805190602001906102819291906105d2565b5050565b6002818154811061029557600080fd5b9060005260206000200160009150905080546102b090610a9e565b80601f01602080910402602001604051908101604052809291908181526020018280546102dc90610a9e565b80156103295780601f106102fe57610100808354040283529160200191610329565b820191906000526020600020905b81548152906001019060200180831161030c57829003601f168201915b505050505081565b60606002805480602002602001604051908101604052809291908181526020016000905b8282101561040157838290600052602060002001805461037490610a9e565b80601f01602080910402602001604051908101604052809291908181526020018280546103a090610a9e565b80156103ed5780601f106103c2576101008083540402835291602001916103ed565b820191906000526020600020905b8154815290600101906020018083116103d057829003601f168201915b505050505081526020019060010190610355565b50505050905090565b600060205280600052604060002060009150905080600001549080600101805461043390610a9e565b80601f016020809104026020016040519081016040528092919081815260200182805461045f90610a9e565b80156104ac5780601f10610481576101008083540402835291602001916104ac565b820191906000526020600020905b81548152906001019060200180831161048f57829003601f168201915b5050505050908060020180546104c190610a9e565b80601f01602080910402602001604051908101604052809291908181526020018280546104ed90610a9e565b801561053a5780601f1061050f5761010080835404028352916020019161053a565b820191906000526020600020905b81548152906001019060200180831161051d57829003601f168201915b5050505050905083565b6003805461055190610a9e565b80601f016020809104026020016040519081016040528092919081815260200182805461057d90610a9e565b80156105ca5780601f1061059f576101008083540402835291602001916105ca565b820191906000526020600020905b8154815290600101906020018083116105ad57829003601f168201915b505050505081565b8280546105de90610a9e565b90600052602060002090601f0160209004810192826106005760008555610647565b82601f1061061957805160ff1916838001178555610647565b82800160010185558215610647579182015b8281111561064657825182559160200191906001019061062b565b5b5090506106549190610658565b5090565b5b80821115610671576000816000905550600101610659565b5090565b6000610688610683846109bb565b610996565b9050828152602081018484840111156106a4576106a3610bdc565b5b6106af848285610a5c565b509392505050565b600082601f8301126106cc576106cb610bd7565b5b81356106dc848260208601610675565b91505092915050565b6000813590506106f481610bfc565b92915050565b6000602082840312156107105761070f610be6565b5b600082013567ffffffffffffffff81111561072e5761072d610be1565b5b61073a848285016106b7565b91505092915050565b6000806040838503121561075a57610759610be6565b5b600083013567ffffffffffffffff81111561077857610777610be1565b5b610784858286016106b7565b925050602083013567ffffffffffffffff8111156107a5576107a4610be1565b5b6107b1858286016106b7565b9150509250929050565b6000602082840312156107d1576107d0610be6565b5b60006107df848285016106e5565b91505092915050565b60006107f48383610871565b905092915050565b6000610807826109fc565b6108118185610a1f565b935083602082028501610823856109ec565b8060005b8581101561085f578484038952815161084085826107e8565b945061084b83610a12565b925060208a01995050600181019050610827565b50829750879550505050505092915050565b600061087c82610a07565b6108868185610a30565b9350610896818560208601610a6b565b61089f81610beb565b840191505092915050565b60006108b582610a07565b6108bf8185610a41565b93506108cf818560208601610a6b565b6108d881610beb565b840191505092915050565b6108ec81610a52565b82525050565b6000602082019050818103600083015261090c81846107fc565b905092915050565b6000602082019050818103600083015261092e81846108aa565b905092915050565b600060208201905061094b60008301846108e3565b92915050565b600060608201905061096660008301866108e3565b818103602083015261097881856108aa565b9050818103604083015261098c81846108aa565b9050949350505050565b60006109a06109b1565b90506109ac8282610ad0565b919050565b6000604051905090565b600067ffffffffffffffff8211156109d6576109d5610ba8565b5b6109df82610beb565b9050602081019050919050565b6000819050602082019050919050565b600081519050919050565b600081519050919050565b6000602082019050919050565b600082825260208201905092915050565b600082825260208201905092915050565b600082825260208201905092915050565b6000819050919050565b82818337600083830152505050565b60005b83811015610a89578082015181840152602081019050610a6e565b83811115610a98576000848401525b50505050565b60006002820490506001821680610ab657607f821691505b60208210811415610aca57610ac9610b79565b5b50919050565b610ad982610beb565b810181811067ffffffffffffffff82111715610af857610af7610ba8565b5b80604052505050565b6000610b0c82610a52565b91507fffffffffffffffffffffffffffffffffffffffffffffffffffffffffffffffff821415610b3f57610b3e610b4a565b5b600182019050919050565b7f4e487b7100000000000000000000000000000000000000000000000000000000600052601160045260246000fd5b7f4e487b7100000000000000000000000000000000000000000000000000000000600052602260045260246000fd5b7f4e487b7100000000000000000000000000000000000000000000000000000000600052604160045260246000fd5b600080fd5b600080fd5b600080fd5b600080fd5b6000601f19601f8301169050919050565b610c0581610a52565b8114610c1057600080fd5b5056fea2646970667358221220b05ae02d94168c9ba179a38624a49bb562d79224b4e09a4335d364d54b3c563764736f6c63430008070033",
					"opcodes": "PUSH1 0x80 PUSH1 0x40 MSTORE PUSH1 0x0 PUSH1 0x1 SSTORE CALLVALUE DUP1 ISZERO PUSH2 0x15 JUMPI PUSH1 0x0 DUP1 REVERT JUMPDEST POP PUSH2 0xC49 DUP1 PUSH2 0x25 PUSH1 0x0 CODECOPY PUSH1 0x0 RETURN INVALID PUSH1 0x80 PUSH1 0x40 MSTORE CALLVALUE DUP1 ISZERO PUSH2 0x10 JUMPI PUSH1 0x0 DUP1 REVERT JUMPDEST POP PUSH1 0x4 CALLDATASIZE LT PUSH2 0x88 JUMPI PUSH1 0x0 CALLDATALOAD PUSH1 0xE0 SHR DUP1 PUSH4 0x59221A68 GT PUSH2 0x5B JUMPI DUP1 PUSH4 0x59221A68 EQ PUSH2 0x101 JUMPI DUP1 PUSH4 0x82D69B62 EQ PUSH2 0x131 JUMPI DUP1 PUSH4 0x9E7A13AD EQ PUSH2 0x14F JUMPI DUP1 PUSH4 0xA6C3E6B9 EQ PUSH2 0x181 JUMPI PUSH2 0x88 JUMP JUMPDEST DUP1 PUSH4 0x17E703AB EQ PUSH2 0x8D JUMPI DUP1 PUSH4 0x22F5B58D EQ PUSH2 0xAB JUMPI DUP1 PUSH4 0x267C68E0 EQ PUSH2 0xC7 JUMPI DUP1 PUSH4 0x2EDD4FA5 EQ PUSH2 0xE5 JUMPI JUMPDEST PUSH1 0x0 DUP1 REVERT JUMPDEST PUSH2 0x95 PUSH2 0x19F JUMP JUMPDEST PUSH1 0x40 MLOAD PUSH2 0xA2 SWAP2 SWAP1 PUSH2 0x936 JUMP JUMPDEST PUSH1 0x40 MLOAD DUP1 SWAP2 SUB SWAP1 RETURN JUMPDEST PUSH2 0xC5 PUSH1 0x4 DUP1 CALLDATASIZE SUB DUP2 ADD SWAP1 PUSH2 0xC0 SWAP2 SWAP1 PUSH2 0x743 JUMP JUMPDEST PUSH2 0x1AC JUMP JUMPDEST STOP JUMPDEST PUSH2 0xCF PUSH2 0x240 JUMP JUMPDEST PUSH1 0x40 MLOAD PUSH2 0xDC SWAP2 SWAP1 PUSH2 0x936 JUMP JUMPDEST PUSH1 0x40 MLOAD DUP1 SWAP2 SUB SWAP1 RETURN JUMPDEST PUSH2 0xFF PUSH1 0x4 DUP1 CALLDATASIZE SUB DUP2 ADD SWAP1 PUSH2 0xFA SWAP2 SWAP1 PUSH2 0x6FA JUMP JUMPDEST PUSH2 0x246 JUMP JUMPDEST STOP JUMPDEST PUSH2 0x11B PUSH1 0x4 DUP1 CALLDATASIZE SUB DUP2 ADD SWAP1 PUSH2 0x116 SWAP2 SWAP1 PUSH2 0x7BB JUMP JUMPDEST PUSH2 0x285 JUMP JUMPDEST PUSH1 0x40 MLOAD PUSH2 0x128 SWAP2 SWAP1 PUSH2 0x914 JUMP JUMPDEST PUSH1 0x40 MLOAD DUP1 SWAP2 SUB SWAP1 RETURN JUMPDEST PUSH2 0x139 PUSH2 0x331 JUMP JUMPDEST PUSH1 0x40 MLOAD PUSH2 0x146 SWAP2 SWAP1 PUSH2 0x8F2 JUMP JUMPDEST PUSH1 0x40 MLOAD DUP1 SWAP2 SUB SWAP1 RETURN JUMPDEST PUSH2 0x169 PUSH1 0x4 DUP1 CALLDATASIZE SUB DUP2 ADD SWAP1 PUSH2 0x164 SWAP2 SWAP1 PUSH2 0x7BB JUMP JUMPDEST PUSH2 0x40A JUMP JUMPDEST PUSH1 0x40 MLOAD PUSH2 0x178 SWAP4 SWAP3 SWAP2 SWAP1 PUSH2 0x951 JUMP JUMPDEST PUSH1 0x40 MLOAD DUP1 SWAP2 SUB SWAP1 RETURN JUMPDEST PUSH2 0x189 PUSH2 0x544 JUMP JUMPDEST PUSH1 0x40 MLOAD PUSH2 0x196 SWAP2 SWAP1 PUSH2 0x914 JUMP JUMPDEST PUSH1 0x40 MLOAD DUP1 SWAP2 SUB SWAP1 RETURN JUMPDEST PUSH1 0x0 PUSH1 0x2 DUP1 SLOAD SWAP1 POP SWAP1 POP SWAP1 JUMP JUMPDEST PUSH1 0x1 PUSH1 0x0 DUP2 SLOAD DUP1 SWAP3 SWAP2 SWAP1 PUSH2 0x1BF SWAP1 PUSH2 0xB01 JUMP JUMPDEST SWAP2 SWAP1 POP SSTORE POP PUSH1 0x40 MLOAD DUP1 PUSH1 0x60 ADD PUSH1 0x40 MSTORE DUP1 PUSH1 0x1 SLOAD DUP2 MSTORE PUSH1 0x20 ADD DUP4 DUP2 MSTORE PUSH1 0x20 ADD DUP3 DUP2 MSTORE POP PUSH1 0x0 DUP1 PUSH1 0x1 SLOAD DUP2 MSTORE PUSH1 0x20 ADD SWAP1 DUP2 MSTORE PUSH1 0x20 ADD PUSH1 0x0 KECCAK256 PUSH1 0x0 DUP3 ADD MLOAD DUP2 PUSH1 0x0 ADD SSTORE PUSH1 0x20 DUP3 ADD MLOAD DUP2 PUSH1 0x1 ADD SWAP1 DUP1 MLOAD SWAP1 PUSH1 0x20 ADD SWAP1 PUSH2 0x21B SWAP3 SWAP2 SWAP1 PUSH2 0x5D2 JUMP JUMPDEST POP PUSH1 0x40 DUP3 ADD MLOAD DUP2 PUSH1 0x2 ADD SWAP1 DUP1 MLOAD SWAP1 PUSH1 0x20 ADD SWAP1 PUSH2 0x238 SWAP3 SWAP2 SWAP1 PUSH2 0x5D2 JUMP JUMPDEST POP SWAP1 POP POP POP POP JUMP JUMPDEST PUSH1 0x1 SLOAD DUP2 JUMP JUMPDEST PUSH1 0x2 DUP2 SWAP1 DUP1 PUSH1 0x1 DUP2 SLOAD ADD DUP1 DUP3 SSTORE DUP1 SWAP2 POP POP PUSH1 0x1 SWAP1 SUB SWAP1 PUSH1 0x0 MSTORE PUSH1 0x20 PUSH1 0x0 KECCAK256 ADD PUSH1 0x0 SWAP1 SWAP2 SWAP1 SWAP2 SWAP1 SWAP2 POP SWAP1 DUP1 MLOAD SWAP1 PUSH1 0x20 ADD SWAP1 PUSH2 0x281 SWAP3 SWAP2 SWAP1 PUSH2 0x5D2 JUMP JUMPDEST POP POP JUMP JUMPDEST PUSH1 0x2 DUP2 DUP2 SLOAD DUP2 LT PUSH2 0x295 JUMPI PUSH1 0x0 DUP1 REVERT JUMPDEST SWAP1 PUSH1 0x0 MSTORE PUSH1 0x20 PUSH1 0x0 KECCAK256 ADD PUSH1 0x0 SWAP2 POP SWAP1 POP DUP1 SLOAD PUSH2 0x2B0 SWAP1 PUSH2 0xA9E JUMP JUMPDEST DUP1 PUSH1 0x1F ADD PUSH1 0x20 DUP1 SWAP2 DIV MUL PUSH1 0x20 ADD PUSH1 0x40 MLOAD SWAP1 DUP2 ADD PUSH1 0x40 MSTORE DUP1 SWAP3 SWAP2 SWAP1 DUP2 DUP2 MSTORE PUSH1 0x20 ADD DUP3 DUP1 SLOAD PUSH2 0x2DC SWAP1 PUSH2 0xA9E JUMP JUMPDEST DUP1 ISZERO PUSH2 0x329 JUMPI DUP1 PUSH1 0x1F LT PUSH2 0x2FE JUMPI PUSH2 0x100 DUP1 DUP4 SLOAD DIV MUL DUP4 MSTORE SWAP2 PUSH1 0x20 ADD SWAP2 PUSH2 0x329 JUMP JUMPDEST DUP3 ADD SWAP2 SWAP1 PUSH1 0x0 MSTORE PUSH1 0x20 PUSH1 0x0 KECCAK256 SWAP1 JUMPDEST DUP2 SLOAD DUP2 MSTORE SWAP1 PUSH1 0x1 ADD SWAP1 PUSH1 0x20 ADD DUP1 DUP4 GT PUSH2 0x30C JUMPI DUP3 SWAP1 SUB PUSH1 0x1F AND DUP3 ADD SWAP2 JUMPDEST POP POP POP POP POP DUP2 JUMP JUMPDEST PUSH1 0x60 PUSH1 0x2 DUP1 SLOAD DUP1 PUSH1 0x20 MUL PUSH1 0x20 ADD PUSH1 0x40 MLOAD SWAP1 DUP2 ADD PUSH1 0x40 MSTORE DUP1 SWAP3 SWAP2 SWAP1 DUP2 DUP2 MSTORE PUSH1 0x20 ADD PUSH1 0x0 SWAP1 JUMPDEST DUP3 DUP3 LT ISZERO PUSH2 0x401 JUMPI DUP4 DUP3 SWAP1 PUSH1 0x0 MSTORE PUSH1 0x20 PUSH1 0x0 KECCAK256 ADD DUP1 SLOAD PUSH2 0x374 SWAP1 PUSH2 0xA9E JUMP JUMPDEST DUP1 PUSH1 0x1F ADD PUSH1 0x20 DUP1 SWAP2 DIV MUL PUSH1 0x20 ADD PUSH1 0x40 MLOAD SWAP1 DUP2 ADD PUSH1 0x40 MSTORE DUP1 SWAP3 SWAP2 SWAP1 DUP2 DUP2 MSTORE PUSH1 0x20 ADD DUP3 DUP1 SLOAD PUSH2 0x3A0 SWAP1 PUSH2 0xA9E JUMP JUMPDEST DUP1 ISZERO PUSH2 0x3ED JUMPI DUP1 PUSH1 0x1F LT PUSH2 0x3C2 JUMPI PUSH2 0x100 DUP1 DUP4 SLOAD DIV MUL DUP4 MSTORE SWAP2 PUSH1 0x20 ADD SWAP2 PUSH2 0x3ED JUMP JUMPDEST DUP3 ADD SWAP2 SWAP1 PUSH1 0x0 MSTORE PUSH1 0x20 PUSH1 0x0 KECCAK256 SWAP1 JUMPDEST DUP2 SLOAD DUP2 MSTORE SWAP1 PUSH1 0x1 ADD SWAP1 PUSH1 0x20 ADD DUP1 DUP4 GT PUSH2 0x3D0 JUMPI DUP3 SWAP1 SUB PUSH1 0x1F AND DUP3 ADD SWAP2 JUMPDEST POP POP POP POP POP DUP2 MSTORE PUSH1 0x20 ADD SWAP1 PUSH1 0x1 ADD SWAP1 PUSH2 0x355 JUMP JUMPDEST POP POP POP POP SWAP1 POP SWAP1 JUMP JUMPDEST PUSH1 0x0 PUSH1 0x20 MSTORE DUP1 PUSH1 0x0 MSTORE PUSH1 0x40 PUSH1 0x0 KECCAK256 PUSH1 0x0 SWAP2 POP SWAP1 POP DUP1 PUSH1 0x0 ADD SLOAD SWAP1 DUP1 PUSH1 0x1 ADD DUP1 SLOAD PUSH2 0x433 SWAP1 PUSH2 0xA9E JUMP JUMPDEST DUP1 PUSH1 0x1F ADD PUSH1 0x20 DUP1 SWAP2 DIV MUL PUSH1 0x20 ADD PUSH1 0x40 MLOAD SWAP1 DUP2 ADD PUSH1 0x40 MSTORE DUP1 SWAP3 SWAP2 SWAP1 DUP2 DUP2 MSTORE PUSH1 0x20 ADD DUP3 DUP1 SLOAD PUSH2 0x45F SWAP1 PUSH2 0xA9E JUMP JUMPDEST DUP1 ISZERO PUSH2 0x4AC JUMPI DUP1 PUSH1 0x1F LT PUSH2 0x481 JUMPI PUSH2 0x100 DUP1 DUP4 SLOAD DIV MUL DUP4 MSTORE SWAP2 PUSH1 0x20 ADD SWAP2 PUSH2 0x4AC JUMP JUMPDEST DUP3 ADD SWAP2 SWAP1 PUSH1 0x0 MSTORE PUSH1 0x20 PUSH1 0x0 KECCAK256 SWAP1 JUMPDEST DUP2 SLOAD DUP2 MSTORE SWAP1 PUSH1 0x1 ADD SWAP1 PUSH1 0x20 ADD DUP1 DUP4 GT PUSH2 0x48F JUMPI DUP3 SWAP1 SUB PUSH1 0x1F AND DUP3 ADD SWAP2 JUMPDEST POP POP POP POP POP SWAP1 DUP1 PUSH1 0x2 ADD DUP1 SLOAD PUSH2 0x4C1 SWAP1 PUSH2 0xA9E JUMP JUMPDEST DUP1 PUSH1 0x1F ADD PUSH1 0x20 DUP1 SWAP2 DIV MUL PUSH1 0x20 ADD PUSH1 0x40 MLOAD SWAP1 DUP2 ADD PUSH1 0x40 MSTORE DUP1 SWAP3 SWAP2 SWAP1 DUP2 DUP2 MSTORE PUSH1 0x20 ADD DUP3 DUP1 SLOAD PUSH2 0x4ED SWAP1 PUSH2 0xA9E JUMP JUMPDEST DUP1 ISZERO PUSH2 0x53A JUMPI DUP1 PUSH1 0x1F LT PUSH2 0x50F JUMPI PUSH2 0x100 DUP1 DUP4 SLOAD DIV MUL DUP4 MSTORE SWAP2 PUSH1 0x20 ADD SWAP2 PUSH2 0x53A JUMP JUMPDEST DUP3 ADD SWAP2 SWAP1 PUSH1 0x0 MSTORE PUSH1 0x20 PUSH1 0x0 KECCAK256 SWAP1 JUMPDEST DUP2 SLOAD DUP2 MSTORE SWAP1 PUSH1 0x1 ADD SWAP1 PUSH1 0x20 ADD DUP1 DUP4 GT PUSH2 0x51D JUMPI DUP3 SWAP1 SUB PUSH1 0x1F AND DUP3 ADD SWAP2 JUMPDEST POP POP POP POP POP SWAP1 POP DUP4 JUMP JUMPDEST PUSH1 0x3 DUP1 SLOAD PUSH2 0x551 SWAP1 PUSH2 0xA9E JUMP JUMPDEST DUP1 PUSH1 0x1F ADD PUSH1 0x20 DUP1 SWAP2 DIV MUL PUSH1 0x20 ADD PUSH1 0x40 MLOAD SWAP1 DUP2 ADD PUSH1 0x40 MSTORE DUP1 SWAP3 SWAP2 SWAP1 DUP2 DUP2 MSTORE PUSH1 0x20 ADD DUP3 DUP1 SLOAD PUSH2 0x57D SWAP1 PUSH2 0xA9E JUMP JUMPDEST DUP1 ISZERO PUSH2 0x5CA JUMPI DUP1 PUSH1 0x1F LT PUSH2 0x59F JUMPI PUSH2 0x100 DUP1 DUP4 SLOAD DIV MUL DUP4 MSTORE SWAP2 PUSH1 0x20 ADD SWAP2 PUSH2 0x5CA JUMP JUMPDEST DUP3 ADD SWAP2 SWAP1 PUSH1 0x0 MSTORE PUSH1 0x20 PUSH1 0x0 KECCAK256 SWAP1 JUMPDEST DUP2 SLOAD DUP2 MSTORE SWAP1 PUSH1 0x1 ADD SWAP1 PUSH1 0x20 ADD DUP1 DUP4 GT PUSH2 0x5AD JUMPI DUP3 SWAP1 SUB PUSH1 0x1F AND DUP3 ADD SWAP2 JUMPDEST POP POP POP POP POP DUP2 JUMP JUMPDEST DUP3 DUP1 SLOAD PUSH2 0x5DE SWAP1 PUSH2 0xA9E JUMP JUMPDEST SWAP1 PUSH1 0x0 MSTORE PUSH1 0x20 PUSH1 0x0 KECCAK256 SWAP1 PUSH1 0x1F ADD PUSH1 0x20 SWAP1 DIV DUP2 ADD SWAP3 DUP3 PUSH2 0x600 JUMPI PUSH1 0x0 DUP6 SSTORE PUSH2 0x647 JUMP JUMPDEST DUP3 PUSH1 0x1F LT PUSH2 0x619 JUMPI DUP1 MLOAD PUSH1 0xFF NOT AND DUP4 DUP1 ADD OR DUP6 SSTORE PUSH2 0x647 JUMP JUMPDEST DUP3 DUP1 ADD PUSH1 0x1 ADD DUP6 SSTORE DUP3 ISZERO PUSH2 0x647 JUMPI SWAP2 DUP3 ADD JUMPDEST DUP3 DUP2 GT ISZERO PUSH2 0x646 JUMPI DUP3 MLOAD DUP3 SSTORE SWAP2 PUSH1 0x20 ADD SWAP2 SWAP1 PUSH1 0x1 ADD SWAP1 PUSH2 0x62B JUMP JUMPDEST JUMPDEST POP SWAP1 POP PUSH2 0x654 SWAP2 SWAP1 PUSH2 0x658 JUMP JUMPDEST POP SWAP1 JUMP JUMPDEST JUMPDEST DUP1 DUP3 GT ISZERO PUSH2 0x671 JUMPI PUSH1 0x0 DUP2 PUSH1 0x0 SWAP1 SSTORE POP PUSH1 0x1 ADD PUSH2 0x659 JUMP JUMPDEST POP SWAP1 JUMP JUMPDEST PUSH1 0x0 PUSH2 0x688 PUSH2 0x683 DUP5 PUSH2 0x9BB JUMP JUMPDEST PUSH2 0x996 JUMP JUMPDEST SWAP1 POP DUP3 DUP2 MSTORE PUSH1 0x20 DUP2 ADD DUP5 DUP5 DUP5 ADD GT ISZERO PUSH2 0x6A4 JUMPI PUSH2 0x6A3 PUSH2 0xBDC JUMP JUMPDEST JUMPDEST PUSH2 0x6AF DUP5 DUP3 DUP6 PUSH2 0xA5C JUMP JUMPDEST POP SWAP4 SWAP3 POP POP POP JUMP JUMPDEST PUSH1 0x0 DUP3 PUSH1 0x1F DUP4 ADD SLT PUSH2 0x6CC JUMPI PUSH2 0x6CB PUSH2 0xBD7 JUMP JUMPDEST JUMPDEST DUP2 CALLDATALOAD PUSH2 0x6DC DUP5 DUP3 PUSH1 0x20 DUP7 ADD PUSH2 0x675 JUMP JUMPDEST SWAP2 POP POP SWAP3 SWAP2 POP POP JUMP JUMPDEST PUSH1 0x0 DUP2 CALLDATALOAD SWAP1 POP PUSH2 0x6F4 DUP2 PUSH2 0xBFC JUMP JUMPDEST SWAP3 SWAP2 POP POP JUMP JUMPDEST PUSH1 0x0 PUSH1 0x20 DUP3 DUP5 SUB SLT ISZERO PUSH2 0x710 JUMPI PUSH2 0x70F PUSH2 0xBE6 JUMP JUMPDEST JUMPDEST PUSH1 0x0 DUP3 ADD CALLDATALOAD PUSH8 0xFFFFFFFFFFFFFFFF DUP2 GT ISZERO PUSH2 0x72E JUMPI PUSH2 0x72D PUSH2 0xBE1 JUMP JUMPDEST JUMPDEST PUSH2 0x73A DUP5 DUP3 DUP6 ADD PUSH2 0x6B7 JUMP JUMPDEST SWAP2 POP POP SWAP3 SWAP2 POP POP JUMP JUMPDEST PUSH1 0x0 DUP1 PUSH1 0x40 DUP4 DUP6 SUB SLT ISZERO PUSH2 0x75A JUMPI PUSH2 0x759 PUSH2 0xBE6 JUMP JUMPDEST JUMPDEST PUSH1 0x0 DUP4 ADD CALLDATALOAD PUSH8 0xFFFFFFFFFFFFFFFF DUP2 GT ISZERO PUSH2 0x778 JUMPI PUSH2 0x777 PUSH2 0xBE1 JUMP JUMPDEST JUMPDEST PUSH2 0x784 DUP6 DUP3 DUP7 ADD PUSH2 0x6B7 JUMP JUMPDEST SWAP3 POP POP PUSH1 0x20 DUP4 ADD CALLDATALOAD PUSH8 0xFFFFFFFFFFFFFFFF DUP2 GT ISZERO PUSH2 0x7A5 JUMPI PUSH2 0x7A4 PUSH2 0xBE1 JUMP JUMPDEST JUMPDEST PUSH2 0x7B1 DUP6 DUP3 DUP7 ADD PUSH2 0x6B7 JUMP JUMPDEST SWAP2 POP POP SWAP3 POP SWAP3 SWAP1 POP JUMP JUMPDEST PUSH1 0x0 PUSH1 0x20 DUP3 DUP5 SUB SLT ISZERO PUSH2 0x7D1 JUMPI PUSH2 0x7D0 PUSH2 0xBE6 JUMP JUMPDEST JUMPDEST PUSH1 0x0 PUSH2 0x7DF DUP5 DUP3 DUP6 ADD PUSH2 0x6E5 JUMP JUMPDEST SWAP2 POP POP SWAP3 SWAP2 POP POP JUMP JUMPDEST PUSH1 0x0 PUSH2 0x7F4 DUP4 DUP4 PUSH2 0x871 JUMP JUMPDEST SWAP1 POP SWAP3 SWAP2 POP POP JUMP JUMPDEST PUSH1 0x0 PUSH2 0x807 DUP3 PUSH2 0x9FC JUMP JUMPDEST PUSH2 0x811 DUP2 DUP6 PUSH2 0xA1F JUMP JUMPDEST SWAP4 POP DUP4 PUSH1 0x20 DUP3 MUL DUP6 ADD PUSH2 0x823 DUP6 PUSH2 0x9EC JUMP JUMPDEST DUP1 PUSH1 0x0 JUMPDEST DUP6 DUP2 LT ISZERO PUSH2 0x85F JUMPI DUP5 DUP5 SUB DUP10 MSTORE DUP2 MLOAD PUSH2 0x840 DUP6 DUP3 PUSH2 0x7E8 JUMP JUMPDEST SWAP5 POP PUSH2 0x84B DUP4 PUSH2 0xA12 JUMP JUMPDEST SWAP3 POP PUSH1 0x20 DUP11 ADD SWAP10 POP POP PUSH1 0x1 DUP2 ADD SWAP1 POP PUSH2 0x827 JUMP JUMPDEST POP DUP3 SWAP8 POP DUP8 SWAP6 POP POP POP POP POP POP SWAP3 SWAP2 POP POP JUMP JUMPDEST PUSH1 0x0 PUSH2 0x87C DUP3 PUSH2 0xA07 JUMP JUMPDEST PUSH2 0x886 DUP2 DUP6 PUSH2 0xA30 JUMP JUMPDEST SWAP4 POP PUSH2 0x896 DUP2 DUP6 PUSH1 0x20 DUP7 ADD PUSH2 0xA6B JUMP JUMPDEST PUSH2 0x89F DUP2 PUSH2 0xBEB JUMP JUMPDEST DUP5 ADD SWAP2 POP POP SWAP3 SWAP2 POP POP JUMP JUMPDEST PUSH1 0x0 PUSH2 0x8B5 DUP3 PUSH2 0xA07 JUMP JUMPDEST PUSH2 0x8BF DUP2 DUP6 PUSH2 0xA41 JUMP JUMPDEST SWAP4 POP PUSH2 0x8CF DUP2 DUP6 PUSH1 0x20 DUP7 ADD PUSH2 0xA6B JUMP JUMPDEST PUSH2 0x8D8 DUP2 PUSH2 0xBEB JUMP JUMPDEST DUP5 ADD SWAP2 POP POP SWAP3 SWAP2 POP POP JUMP JUMPDEST PUSH2 0x8EC DUP2 PUSH2 0xA52 JUMP JUMPDEST DUP3 MSTORE POP POP JUMP JUMPDEST PUSH1 0x0 PUSH1 0x20 DUP3 ADD SWAP1 POP DUP2 DUP2 SUB PUSH1 0x0 DUP4 ADD MSTORE PUSH2 0x90C DUP2 DUP5 PUSH2 0x7FC JUMP JUMPDEST SWAP1 POP SWAP3 SWAP2 POP POP JUMP JUMPDEST PUSH1 0x0 PUSH1 0x20 DUP3 ADD SWAP1 POP DUP2 DUP2 SUB PUSH1 0x0 DUP4 ADD MSTORE PUSH2 0x92E DUP2 DUP5 PUSH2 0x8AA JUMP JUMPDEST SWAP1 POP SWAP3 SWAP2 POP POP JUMP JUMPDEST PUSH1 0x0 PUSH1 0x20 DUP3 ADD SWAP1 POP PUSH2 0x94B PUSH1 0x0 DUP4 ADD DUP5 PUSH2 0x8E3 JUMP JUMPDEST SWAP3 SWAP2 POP POP JUMP JUMPDEST PUSH1 0x0 PUSH1 0x60 DUP3 ADD SWAP1 POP PUSH2 0x966 PUSH1 0x0 DUP4 ADD DUP7 PUSH2 0x8E3 JUMP JUMPDEST DUP2 DUP2 SUB PUSH1 0x20 DUP4 ADD MSTORE PUSH2 0x978 DUP2 DUP6 PUSH2 0x8AA JUMP JUMPDEST SWAP1 POP DUP2 DUP2 SUB PUSH1 0x40 DUP4 ADD MSTORE PUSH2 0x98C DUP2 DUP5 PUSH2 0x8AA JUMP JUMPDEST SWAP1 POP SWAP5 SWAP4 POP POP POP POP JUMP JUMPDEST PUSH1 0x0 PUSH2 0x9A0 PUSH2 0x9B1 JUMP JUMPDEST SWAP1 POP PUSH2 0x9AC DUP3 DUP3 PUSH2 0xAD0 JUMP JUMPDEST SWAP2 SWAP1 POP JUMP JUMPDEST PUSH1 0x0 PUSH1 0x40 MLOAD SWAP1 POP SWAP1 JUMP JUMPDEST PUSH1 0x0 PUSH8 0xFFFFFFFFFFFFFFFF DUP3 GT ISZERO PUSH2 0x9D6 JUMPI PUSH2 0x9D5 PUSH2 0xBA8 JUMP JUMPDEST JUMPDEST PUSH2 0x9DF DUP3 PUSH2 0xBEB JUMP JUMPDEST SWAP1 POP PUSH1 0x20 DUP2 ADD SWAP1 POP SWAP2 SWAP1 POP JUMP JUMPDEST PUSH1 0x0 DUP2 SWAP1 POP PUSH1 0x20 DUP3 ADD SWAP1 POP SWAP2 SWAP1 POP JUMP JUMPDEST PUSH1 0x0 DUP2 MLOAD SWAP1 POP SWAP2 SWAP1 POP JUMP JUMPDEST PUSH1 0x0 DUP2 MLOAD SWAP1 POP SWAP2 SWAP1 POP JUMP JUMPDEST PUSH1 0x0 PUSH1 0x20 DUP3 ADD SWAP1 POP SWAP2 SWAP1 POP JUMP JUMPDEST PUSH1 0x0 DUP3 DUP3 MSTORE PUSH1 0x20 DUP3 ADD SWAP1 POP SWAP3 SWAP2 POP POP JUMP JUMPDEST PUSH1 0x0 DUP3 DUP3 MSTORE PUSH1 0x20 DUP3 ADD SWAP1 POP SWAP3 SWAP2 POP POP JUMP JUMPDEST PUSH1 0x0 DUP3 DUP3 MSTORE PUSH1 0x20 DUP3 ADD SWAP1 POP SWAP3 SWAP2 POP POP JUMP JUMPDEST PUSH1 0x0 DUP2 SWAP1 POP SWAP2 SWAP1 POP JUMP JUMPDEST DUP3 DUP2 DUP4 CALLDATACOPY PUSH1 0x0 DUP4 DUP4 ADD MSTORE POP POP POP JUMP JUMPDEST PUSH1 0x0 JUMPDEST DUP4 DUP2 LT ISZERO PUSH2 0xA89 JUMPI DUP1 DUP3 ADD MLOAD DUP2 DUP5 ADD MSTORE PUSH1 0x20 DUP2 ADD SWAP1 POP PUSH2 0xA6E JUMP JUMPDEST DUP4 DUP2 GT ISZERO PUSH2 0xA98 JUMPI PUSH1 0x0 DUP5 DUP5 ADD MSTORE JUMPDEST POP POP POP POP JUMP JUMPDEST PUSH1 0x0 PUSH1 0x2 DUP3 DIV SWAP1 POP PUSH1 0x1 DUP3 AND DUP1 PUSH2 0xAB6 JUMPI PUSH1 0x7F DUP3 AND SWAP2 POP JUMPDEST PUSH1 0x20 DUP3 LT DUP2 EQ ISZERO PUSH2 0xACA JUMPI PUSH2 0xAC9 PUSH2 0xB79 JUMP JUMPDEST JUMPDEST POP SWAP2 SWAP1 POP JUMP JUMPDEST PUSH2 0xAD9 DUP3 PUSH2 0xBEB JUMP JUMPDEST DUP2 ADD DUP2 DUP2 LT PUSH8 0xFFFFFFFFFFFFFFFF DUP3 GT OR ISZERO PUSH2 0xAF8 JUMPI PUSH2 0xAF7 PUSH2 0xBA8 JUMP JUMPDEST JUMPDEST DUP1 PUSH1 0x40 MSTORE POP POP POP JUMP JUMPDEST PUSH1 0x0 PUSH2 0xB0C DUP3 PUSH2 0xA52 JUMP JUMPDEST SWAP2 POP PUSH32 0xFFFFFFFFFFFFFFFFFFFFFFFFFFFFFFFFFFFFFFFFFFFFFFFFFFFFFFFFFFFFFFFF DUP3 EQ ISZERO PUSH2 0xB3F JUMPI PUSH2 0xB3E PUSH2 0xB4A JUMP JUMPDEST JUMPDEST PUSH1 0x1 DUP3 ADD SWAP1 POP SWAP2 SWAP1 POP JUMP JUMPDEST PUSH32 0x4E487B7100000000000000000000000000000000000000000000000000000000 PUSH1 0x0 MSTORE PUSH1 0x11 PUSH1 0x4 MSTORE PUSH1 0x24 PUSH1 0x0 REVERT JUMPDEST PUSH32 0x4E487B7100000000000000000000000000000000000000000000000000000000 PUSH1 0x0 MSTORE PUSH1 0x22 PUSH1 0x4 MSTORE PUSH1 0x24 PUSH1 0x0 REVERT JUMPDEST PUSH32 0x4E487B7100000000000000000000000000000000000000000000000000000000 PUSH1 0x0 MSTORE PUSH1 0x41 PUSH1 0x4 MSTORE PUSH1 0x24 PUSH1 0x0 REVERT JUMPDEST PUSH1 0x0 DUP1 REVERT JUMPDEST PUSH1 0x0 DUP1 REVERT JUMPDEST PUSH1 0x0 DUP1 REVERT JUMPDEST PUSH1 0x0 DUP1 REVERT JUMPDEST PUSH1 0x0 PUSH1 0x1F NOT PUSH1 0x1F DUP4 ADD AND SWAP1 POP SWAP2 SWAP1 POP JUMP JUMPDEST PUSH2 0xC05 DUP2 PUSH2 0xA52 JUMP JUMPDEST DUP2 EQ PUSH2 0xC10 JUMPI PUSH1 0x0 DUP1 REVERT JUMPDEST POP JUMP INVALID LOG2 PUSH5 0x6970667358 0x22 SLT KECCAK256 0xB0 GAS 0xE0 0x2D SWAP5 AND DUP13 SWAP12 LOG1 PUSH26 0xA38624A49BB562D79224B4E09A4335D364D54B3C563764736F6C PUSH4 0x43000807 STOP CALLER "
				},
				"gasEstimates": {
					"creation": {
						"codeDepositCost": "629000",
						"executionCost": "5670",
						"totalCost": "634670"
					},
					"external": {
						"addPerson(string,string)": "infinite",
						"addSubscriber(string)": "infinite",
						"author()": "infinite",
						"getSubscriberCount()": "2446",
						"people(uint256)": "infinite",
						"peopleCount()": "2474",
						"printSubscribersList()": "infinite",
						"subscribers(uint256)": "infinite"
					}
				},
				"methodIdentifiers": {
					"addPerson(string,string)": "22f5b58d",
					"addSubscriber(string)": "2edd4fa5",
					"author()": "a6c3e6b9",
					"getSubscriberCount()": "17e703ab",
					"people(uint256)": "9e7a13ad",
					"peopleCount()": "267c68e0",
					"printSubscribersList()": "82d69b62",
					"subscribers(uint256)": "59221a68"
				}
			},
			"userdoc": {
				"kind": "user",
				"methods": {},
				"version": 1
			}
		}
	}
}