{
	"contracts/myContract.sol": {
		"testContract": {
			"abi": [
				{
					"inputs": [
						{
							"internalType": "uint256",
							"name": "fee",
							"type": "uint256"
						}
					],
					"stateMutability": "nonpayable",
					"type": "constructor"
				},
				{
					"stateMutability": "payable",
					"type": "fallback"
				},
				{
					"inputs": [
						{
							"internalType": "string",
							"name": "userName",
							"type": "string"
						}
					],
					"name": "addSubscriber",
					"outputs": [],
					"stateMutability": "nonpayable",
					"type": "function"
				},
				{
					"inputs": [],
					"name": "author",
					"outputs": [
						{
							"internalType": "address",
							"name": "",
							"type": "address"
						}
					],
					"stateMutability": "view",
					"type": "function"
				},
				{
					"inputs": [],
					"name": "getSubscriberCount",
					"outputs": [
						{
							"internalType": "uint256",
							"name": "",
							"type": "uint256"
						}
					],
					"stateMutability": "view",
					"type": "function"
				},
				{
					"inputs": [],
					"name": "printSubscribersList",
					"outputs": [
						{
							"components": [
								{
									"internalType": "string",
									"name": "name",
									"type": "string"
								},
								{
									"internalType": "address",
									"name": "addr",
									"type": "address"
								}
							],
							"internalType": "struct testContract.subscriber[]",
							"name": "",
							"type": "tuple[]"
						}
					],
					"stateMutability": "view",
					"type": "function"
				},
				{
					"inputs": [],
					"name": "subscriberCount",
					"outputs": [
						{
							"internalType": "uint256",
							"name": "",
							"type": "uint256"
						}
					],
					"stateMutability": "view",
					"type": "function"
				},
				{
					"inputs": [
						{
							"internalType": "uint256",
							"name": "",
							"type": "uint256"
						}
					],
					"name": "subscribers",
					"outputs": [
						{
							"internalType": "string",
							"name": "name",
							"type": "string"
						},
						{
							"internalType": "address",
							"name": "addr",
							"type": "address"
						}
					],
					"stateMutability": "view",
					"type": "function"
				},
				{
					"inputs": [],
					"name": "subscriptionFee",
					"outputs": [
						{
							"internalType": "uint256",
							"name": "",
							"type": "uint256"
						}
					],
					"stateMutability": "view",
					"type": "function"
				}
			],
			"devdoc": {
				"kind": "dev",
				"methods": {},
				"version": 1
			},
			"evm": {
				"assembly": "    /* \"contracts/myContract.sol\":76:1150  contract testContract {\r... */\n  mstore(0x40, 0x80)\n    /* \"contracts/myContract.sol\":194:195  0 */\n  0x00\n    /* \"contracts/myContract.sol\":164:195  uint public subscriberCount = 0 */\n  0x01\n  sstore\n    /* \"contracts/myContract.sol\":348:439  constructor(uint fee){\r... */\n  callvalue\n  dup1\n  iszero\n  tag_1\n  jumpi\n  0x00\n  dup1\n  revert\ntag_1:\n  pop\n  mload(0x40)\n  sub(codesize, bytecodeSize)\n  dup1\n  bytecodeSize\n  dup4\n  codecopy\n  dup2\n  dup2\n  add\n  0x40\n  mstore\n  dup2\n  add\n  swap1\n  tag_2\n  swap2\n  swap1\n  tag_3\n  jump\t// in\ntag_2:\n    /* \"contracts/myContract.sol\":389:399  msg.sender */\n  caller\n    /* \"contracts/myContract.sol\":380:386  author */\n  0x02\n  0x00\n    /* \"contracts/myContract.sol\":380:399  author = msg.sender */\n  0x0100\n  exp\n  dup2\n  sload\n  dup2\n  0xffffffffffffffffffffffffffffffffffffffff\n  mul\n  not\n  and\n  swap1\n  dup4\n  0xffffffffffffffffffffffffffffffffffffffff\n  and\n  mul\n  or\n  swap1\n  sstore\n  pop\n    /* \"contracts/myContract.sol\":428:431  fee */\n  dup1\n    /* \"contracts/myContract.sol\":410:425  subscriptionFee */\n  0x03\n    /* \"contracts/myContract.sol\":410:431  subscriptionFee = fee */\n  dup2\n  swap1\n  sstore\n  pop\n    /* \"contracts/myContract.sol\":348:439  constructor(uint fee){\r... */\n  pop\n    /* \"contracts/myContract.sol\":76:1150  contract testContract {\r... */\n  jump(tag_6)\n    /* \"#utility.yul\":7:150   */\ntag_8:\n    /* \"#utility.yul\":64:69   */\n  0x00\n    /* \"#utility.yul\":95:101   */\n  dup2\n    /* \"#utility.yul\":89:102   */\n  mload\n    /* \"#utility.yul\":80:102   */\n  swap1\n  pop\n    /* \"#utility.yul\":111:144   */\n  tag_10\n    /* \"#utility.yul\":138:143   */\n  dup2\n    /* \"#utility.yul\":111:144   */\n  tag_11\n  jump\t// in\ntag_10:\n    /* \"#utility.yul\":7:150   */\n  swap3\n  swap2\n  pop\n  pop\n  jump\t// out\n    /* \"#utility.yul\":156:507   */\ntag_3:\n    /* \"#utility.yul\":226:232   */\n  0x00\n    /* \"#utility.yul\":275:277   */\n  0x20\n    /* \"#utility.yul\":263:272   */\n  dup3\n    /* \"#utility.yul\":254:261   */\n  dup5\n    /* \"#utility.yul\":250:273   */\n  sub\n    /* \"#utility.yul\":246:278   */\n  slt\n    /* \"#utility.yul\":243:362   */\n  iszero\n  tag_13\n  jumpi\n    /* \"#utility.yul\":281:360   */\n  tag_14\n  tag_15\n  jump\t// in\ntag_14:\n    /* \"#utility.yul\":243:362   */\ntag_13:\n    /* \"#utility.yul\":401:402   */\n  0x00\n    /* \"#utility.yul\":426:490   */\n  tag_16\n    /* \"#utility.yul\":482:489   */\n  dup5\n    /* \"#utility.yul\":473:479   */\n  dup3\n    /* \"#utility.yul\":462:471   */\n  dup6\n    /* \"#utility.yul\":458:480   */\n  add\n    /* \"#utility.yul\":426:490   */\n  tag_8\n  jump\t// in\ntag_16:\n    /* \"#utility.yul\":416:490   */\n  swap2\n  pop\n    /* \"#utility.yul\":372:500   */\n  pop\n    /* \"#utility.yul\":156:507   */\n  swap3\n  swap2\n  pop\n  pop\n  jump\t// out\n    /* \"#utility.yul\":594:671   */\ntag_19:\n    /* \"#utility.yul\":631:638   */\n  0x00\n    /* \"#utility.yul\":660:665   */\n  dup2\n    /* \"#utility.yul\":649:665   */\n  swap1\n  pop\n    /* \"#utility.yul\":594:671   */\n  swap2\n  swap1\n  pop\n  jump\t// out\n    /* \"#utility.yul\":800:917   */\ntag_15:\n    /* \"#utility.yul\":909:910   */\n  0x00\n    /* \"#utility.yul\":906:907   */\n  dup1\n    /* \"#utility.yul\":899:911   */\n  revert\n    /* \"#utility.yul\":923:1045   */\ntag_11:\n    /* \"#utility.yul\":996:1020   */\n  tag_25\n    /* \"#utility.yul\":1014:1019   */\n  dup2\n    /* \"#utility.yul\":996:1020   */\n  tag_19\n  jump\t// in\ntag_25:\n    /* \"#utility.yul\":989:994   */\n  dup2\n    /* \"#utility.yul\":986:1021   */\n  eq\n    /* \"#utility.yul\":976:1039   */\n  tag_26\n  jumpi\n    /* \"#utility.yul\":1035:1036   */\n  0x00\n    /* \"#utility.yul\":1032:1033   */\n  dup1\n    /* \"#utility.yul\":1025:1037   */\n  revert\n    /* \"#utility.yul\":976:1039   */\ntag_26:\n    /* \"#utility.yul\":923:1045   */\n  pop\n  jump\t// out\n    /* \"contracts/myContract.sol\":76:1150  contract testContract {\r... */\ntag_6:\n  dataSize(sub_0)\n  dup1\n  dataOffset(sub_0)\n  0x00\n  codecopy\n  0x00\n  return\nstop\n\nsub_0: assembly {\n        /* \"contracts/myContract.sol\":76:1150  contract testContract {\r... */\n      mstore(0x40, 0x80)\n      jumpi(tag_1, lt(calldatasize, 0x04))\n      shr(0xe0, calldataload(0x00))\n      dup1\n      0x59221a68\n      gt\n      tag_10\n      jumpi\n      dup1\n      0x59221a68\n      eq\n      tag_6\n      jumpi\n      dup1\n      0x82d69b62\n      eq\n      tag_7\n      jumpi\n      dup1\n      0xa6c3e6b9\n      eq\n      tag_8\n      jumpi\n      dup1\n      0xef352bbe\n      eq\n      tag_9\n      jumpi\n      jump(tag_2)\n    tag_10:\n      dup1\n      0x0aa0a175\n      eq\n      tag_3\n      jumpi\n      dup1\n      0x17e703ab\n      eq\n      tag_4\n      jumpi\n      dup1\n      0x2edd4fa5\n      eq\n      tag_5\n      jumpi\n      jump(tag_2)\n    tag_1:\n    tag_2:\n        /* \"contracts/myContract.sol\":511:526  subscriptionFee */\n      sload(0x03)\n        /* \"contracts/myContract.sol\":495:504  msg.value */\n      callvalue\n        /* \"contracts/myContract.sol\":495:526  msg.value ==    subscriptionFee */\n      eq\n        /* \"contracts/myContract.sol\":486:574  require( msg.value ==    subscriptionFee , \"Payment should be the subscription fee\"    ) */\n      tag_13\n      jumpi\n      mload(0x40)\n      0x08c379a000000000000000000000000000000000000000000000000000000000\n      dup2\n      mstore\n      0x04\n      add\n      tag_14\n      swap1\n      tag_15\n      jump\t// in\n    tag_14:\n      mload(0x40)\n      dup1\n      swap2\n      sub\n      swap1\n      revert\n    tag_13:\n        /* \"contracts/myContract.sol\":76:1150  contract testContract {\r... */\n      stop\n        /* \"contracts/myContract.sol\":312:339  uint public subscriptionFee */\n    tag_3:\n      callvalue\n      dup1\n      iszero\n      tag_16\n      jumpi\n      0x00\n      dup1\n      revert\n    tag_16:\n      pop\n      tag_17\n      tag_18\n      jump\t// in\n    tag_17:\n      mload(0x40)\n      tag_19\n      swap2\n      swap1\n      tag_20\n      jump\t// in\n    tag_19:\n      mload(0x40)\n      dup1\n      swap2\n      sub\n      swap1\n      return\n        /* \"contracts/myContract.sol\":766:866  function getSubscriberCount() public view returns(uint256) {\r... */\n    tag_4:\n      callvalue\n      dup1\n      iszero\n      tag_21\n      jumpi\n      0x00\n      dup1\n      revert\n    tag_21:\n      pop\n      tag_22\n      tag_23\n      jump\t// in\n    tag_22:\n      mload(0x40)\n      tag_24\n      swap2\n      swap1\n      tag_20\n      jump\t// in\n    tag_24:\n      mload(0x40)\n      dup1\n      swap2\n      sub\n      swap1\n      return\n        /* \"contracts/myContract.sol\":594:757  function addSubscriber(string memory userName) public {\r... */\n    tag_5:\n      callvalue\n      dup1\n      iszero\n      tag_25\n      jumpi\n      0x00\n      dup1\n      revert\n    tag_25:\n      pop\n      tag_26\n      0x04\n      dup1\n      calldatasize\n      sub\n      dup2\n      add\n      swap1\n      tag_27\n      swap2\n      swap1\n      tag_28\n      jump\t// in\n    tag_27:\n      tag_29\n      jump\t// in\n    tag_26:\n      stop\n        /* \"contracts/myContract.sol\":111:157  mapping(uint => subscriber) public subscribers */\n    tag_6:\n      callvalue\n      dup1\n      iszero\n      tag_30\n      jumpi\n      0x00\n      dup1\n      revert\n    tag_30:\n      pop\n      tag_31\n      0x04\n      dup1\n      calldatasize\n      sub\n      dup2\n      add\n      swap1\n      tag_32\n      swap2\n      swap1\n      tag_33\n      jump\t// in\n    tag_32:\n      tag_34\n      jump\t// in\n    tag_31:\n      mload(0x40)\n      tag_35\n      swap3\n      swap2\n      swap1\n      tag_36\n      jump\t// in\n    tag_35:\n      mload(0x40)\n      dup1\n      swap2\n      sub\n      swap1\n      return\n        /* \"contracts/myContract.sol\":874:1145  function printSubscribersList() public view returns(subscriber[]memory){\r... */\n    tag_7:\n      callvalue\n      dup1\n      iszero\n      tag_37\n      jumpi\n      0x00\n      dup1\n      revert\n    tag_37:\n      pop\n      tag_38\n      tag_39\n      jump\t// in\n    tag_38:\n      mload(0x40)\n      tag_40\n      swap2\n      swap1\n      tag_41\n      jump\t// in\n    tag_40:\n      mload(0x40)\n      dup1\n      swap2\n      sub\n      swap1\n      return\n        /* \"contracts/myContract.sol\":284:305  address public author */\n    tag_8:\n      callvalue\n      dup1\n      iszero\n      tag_42\n      jumpi\n      0x00\n      dup1\n      revert\n    tag_42:\n      pop\n      tag_43\n      tag_44\n      jump\t// in\n    tag_43:\n      mload(0x40)\n      tag_45\n      swap2\n      swap1\n      tag_46\n      jump\t// in\n    tag_45:\n      mload(0x40)\n      dup1\n      swap2\n      sub\n      swap1\n      return\n        /* \"contracts/myContract.sol\":164:195  uint public subscriberCount = 0 */\n    tag_9:\n      callvalue\n      dup1\n      iszero\n      tag_47\n      jumpi\n      0x00\n      dup1\n      revert\n    tag_47:\n      pop\n      tag_48\n      tag_49\n      jump\t// in\n    tag_48:\n      mload(0x40)\n      tag_50\n      swap2\n      swap1\n      tag_20\n      jump\t// in\n    tag_50:\n      mload(0x40)\n      dup1\n      swap2\n      sub\n      swap1\n      return\n        /* \"contracts/myContract.sol\":312:339  uint public subscriptionFee */\n    tag_18:\n      sload(0x03)\n      dup2\n      jump\t// out\n        /* \"contracts/myContract.sol\":766:866  function getSubscriberCount() public view returns(uint256) {\r... */\n    tag_23:\n        /* \"contracts/myContract.sol\":816:823  uint256 */\n      0x00\n        /* \"contracts/myContract.sol\":843:858  subscriberCount */\n      sload(0x01)\n        /* \"contracts/myContract.sol\":836:858  return subscriberCount */\n      swap1\n      pop\n        /* \"contracts/myContract.sol\":766:866  function getSubscriberCount() public view returns(uint256) {\r... */\n      swap1\n      jump\t// out\n        /* \"contracts/myContract.sol\":594:757  function addSubscriber(string memory userName) public {\r... */\n    tag_29:\n        /* \"contracts/myContract.sol\":690:721  subscriber(userName,msg.sender) */\n      mload(0x40)\n      dup1\n      0x40\n      add\n      0x40\n      mstore\n      dup1\n        /* \"contracts/myContract.sol\":701:709  userName */\n      dup3\n        /* \"contracts/myContract.sol\":690:721  subscriber(userName,msg.sender) */\n      dup2\n      mstore\n      0x20\n      add\n        /* \"contracts/myContract.sol\":710:720  msg.sender */\n      caller\n        /* \"contracts/myContract.sol\":690:721  subscriber(userName,msg.sender) */\n      0xffffffffffffffffffffffffffffffffffffffff\n      and\n      dup2\n      mstore\n      pop\n        /* \"contracts/myContract.sol\":659:670  subscribers */\n      0x00\n        /* \"contracts/myContract.sol\":659:687  subscribers[subscriberCount] */\n      dup1\n        /* \"contracts/myContract.sol\":671:686  subscriberCount */\n      sload(0x01)\n        /* \"contracts/myContract.sol\":659:687  subscribers[subscriberCount] */\n      dup2\n      mstore\n      0x20\n      add\n      swap1\n      dup2\n      mstore\n      0x20\n      add\n      0x00\n      keccak256\n        /* \"contracts/myContract.sol\":659:721  subscribers[subscriberCount] = subscriber(userName,msg.sender) */\n      0x00\n      dup3\n      add\n      mload\n      dup2\n      0x00\n      add\n      swap1\n      dup1\n      mload\n      swap1\n      0x20\n      add\n      swap1\n      tag_53\n      swap3\n      swap2\n      swap1\n      tag_54\n      jump\t// in\n    tag_53:\n      pop\n      0x20\n      dup3\n      add\n      mload\n      dup2\n      0x01\n      add\n      exp(0x0100, 0x00)\n      dup2\n      sload\n      dup2\n      0xffffffffffffffffffffffffffffffffffffffff\n      mul\n      not\n      and\n      swap1\n      dup4\n      0xffffffffffffffffffffffffffffffffffffffff\n      and\n      mul\n      or\n      swap1\n      sstore\n      pop\n      swap1\n      pop\n      pop\n        /* \"contracts/myContract.sol\":732:747  subscriberCount */\n      0x01\n      0x00\n        /* \"contracts/myContract.sol\":732:749  subscriberCount++ */\n      dup2\n      sload\n      dup1\n      swap3\n      swap2\n      swap1\n      tag_55\n      swap1\n      tag_56\n      jump\t// in\n    tag_55:\n      swap2\n      swap1\n      pop\n      sstore\n      pop\n        /* \"contracts/myContract.sol\":594:757  function addSubscriber(string memory userName) public {\r... */\n      pop\n      jump\t// out\n        /* \"contracts/myContract.sol\":111:157  mapping(uint => subscriber) public subscribers */\n    tag_34:\n      mstore(0x20, 0x00)\n      dup1\n      0x00\n      mstore\n      keccak256(0x00, 0x40)\n      0x00\n      swap2\n      pop\n      swap1\n      pop\n      dup1\n      0x00\n      add\n      dup1\n      sload\n      tag_57\n      swap1\n      tag_58\n      jump\t// in\n    tag_57:\n      dup1\n      0x1f\n      add\n      0x20\n      dup1\n      swap2\n      div\n      mul\n      0x20\n      add\n      mload(0x40)\n      swap1\n      dup2\n      add\n      0x40\n      mstore\n      dup1\n      swap3\n      swap2\n      swap1\n      dup2\n      dup2\n      mstore\n      0x20\n      add\n      dup3\n      dup1\n      sload\n      tag_59\n      swap1\n      tag_58\n      jump\t// in\n    tag_59:\n      dup1\n      iszero\n      tag_60\n      jumpi\n      dup1\n      0x1f\n      lt\n      tag_61\n      jumpi\n      0x0100\n      dup1\n      dup4\n      sload\n      div\n      mul\n      dup4\n      mstore\n      swap2\n      0x20\n      add\n      swap2\n      jump(tag_60)\n    tag_61:\n      dup3\n      add\n      swap2\n      swap1\n      0x00\n      mstore\n      keccak256(0x00, 0x20)\n      swap1\n    tag_62:\n      dup2\n      sload\n      dup2\n      mstore\n      swap1\n      0x01\n      add\n      swap1\n      0x20\n      add\n      dup1\n      dup4\n      gt\n      tag_62\n      jumpi\n      dup3\n      swap1\n      sub\n      0x1f\n      and\n      dup3\n      add\n      swap2\n    tag_60:\n      pop\n      pop\n      pop\n      pop\n      pop\n      swap1\n      dup1\n      0x01\n      add\n      0x00\n      swap1\n      sload\n      swap1\n      0x0100\n      exp\n      swap1\n      div\n      0xffffffffffffffffffffffffffffffffffffffff\n      and\n      swap1\n      pop\n      dup3\n      jump\t// out\n        /* \"contracts/myContract.sol\":874:1145  function printSubscribersList() public view returns(subscriber[]memory){\r... */\n    tag_39:\n        /* \"contracts/myContract.sol\":926:944  subscriber[]memory */\n      0x60\n        /* \"contracts/myContract.sol\":956:979  subscriber[] memory ret */\n      0x00\n        /* \"contracts/myContract.sol\":999:1014  subscriberCount */\n      sload(0x01)\n        /* \"contracts/myContract.sol\":982:1015  new subscriber[](subscriberCount) */\n      0xffffffffffffffff\n      dup2\n      gt\n      iszero\n      tag_64\n      jumpi\n      tag_65\n      tag_66\n      jump\t// in\n    tag_65:\n    tag_64:\n      mload(0x40)\n      swap1\n      dup1\n      dup3\n      mstore\n      dup1\n      0x20\n      mul\n      0x20\n      add\n      dup3\n      add\n      0x40\n      mstore\n      dup1\n      iszero\n      tag_67\n      jumpi\n      dup2\n      0x20\n      add\n    tag_68:\n      tag_69\n      tag_70\n      jump\t// in\n    tag_69:\n      dup2\n      mstore\n      0x20\n      add\n      swap1\n      0x01\n      swap1\n      sub\n      swap1\n      dup2\n      tag_68\n      jumpi\n      swap1\n      pop\n    tag_67:\n      pop\n        /* \"contracts/myContract.sol\":956:1015  subscriber[] memory ret = new subscriber[](subscriberCount) */\n      swap1\n      pop\n        /* \"contracts/myContract.sol\":1030:1036  uint i */\n      0x00\n        /* \"contracts/myContract.sol\":1026:1117  for(uint i = 0; i < subscriberCount; i++){\r... */\n    tag_71:\n        /* \"contracts/myContract.sol\":1046:1061  subscriberCount */\n      sload(0x01)\n        /* \"contracts/myContract.sol\":1042:1043  i */\n      dup2\n        /* \"contracts/myContract.sol\":1042:1061  i < subscriberCount */\n      lt\n        /* \"contracts/myContract.sol\":1026:1117  for(uint i = 0; i < subscriberCount; i++){\r... */\n      iszero\n      tag_72\n      jumpi\n        /* \"contracts/myContract.sol\":1091:1102  subscribers */\n      0x00\n        /* \"contracts/myContract.sol\":1091:1105  subscribers[i] */\n      dup1\n        /* \"contracts/myContract.sol\":1103:1104  i */\n      dup3\n        /* \"contracts/myContract.sol\":1091:1105  subscribers[i] */\n      dup2\n      mstore\n      0x20\n      add\n      swap1\n      dup2\n      mstore\n      0x20\n      add\n      0x00\n      keccak256\n        /* \"contracts/myContract.sol\":1082:1105  ret[i] = subscribers[i] */\n      mload(0x40)\n      dup1\n      0x40\n      add\n      0x40\n      mstore\n      swap1\n      dup2\n      0x00\n      dup3\n      add\n      dup1\n      sload\n      tag_74\n      swap1\n      tag_58\n      jump\t// in\n    tag_74:\n      dup1\n      0x1f\n      add\n      0x20\n      dup1\n      swap2\n      div\n      mul\n      0x20\n      add\n      mload(0x40)\n      swap1\n      dup2\n      add\n      0x40\n      mstore\n      dup1\n      swap3\n      swap2\n      swap1\n      dup2\n      dup2\n      mstore\n      0x20\n      add\n      dup3\n      dup1\n      sload\n      tag_75\n      swap1\n      tag_58\n      jump\t// in\n    tag_75:\n      dup1\n      iszero\n      tag_76\n      jumpi\n      dup1\n      0x1f\n      lt\n      tag_77\n      jumpi\n      0x0100\n      dup1\n      dup4\n      sload\n      div\n      mul\n      dup4\n      mstore\n      swap2\n      0x20\n      add\n      swap2\n      jump(tag_76)\n    tag_77:\n      dup3\n      add\n      swap2\n      swap1\n      0x00\n      mstore\n      keccak256(0x00, 0x20)\n      swap1\n    tag_78:\n      dup2\n      sload\n      dup2\n      mstore\n      swap1\n      0x01\n      add\n      swap1\n      0x20\n      add\n      dup1\n      dup4\n      gt\n      tag_78\n      jumpi\n      dup3\n      swap1\n      sub\n      0x1f\n      and\n      dup3\n      add\n      swap2\n    tag_76:\n      pop\n      pop\n      pop\n      pop\n      pop\n      dup2\n      mstore\n      0x20\n      add\n      0x01\n      dup3\n      add\n      0x00\n      swap1\n      sload\n      swap1\n      0x0100\n      exp\n      swap1\n      div\n      0xffffffffffffffffffffffffffffffffffffffff\n      and\n      0xffffffffffffffffffffffffffffffffffffffff\n      and\n      0xffffffffffffffffffffffffffffffffffffffff\n      and\n      dup2\n      mstore\n      pop\n      pop\n        /* \"contracts/myContract.sol\":1082:1085  ret */\n      dup3\n        /* \"contracts/myContract.sol\":1086:1087  i */\n      dup3\n        /* \"contracts/myContract.sol\":1082:1088  ret[i] */\n      dup2\n      mload\n      dup2\n      lt\n      tag_79\n      jumpi\n      tag_80\n      tag_81\n      jump\t// in\n    tag_80:\n    tag_79:\n      0x20\n      mul\n      0x20\n      add\n      add\n        /* \"contracts/myContract.sol\":1082:1105  ret[i] = subscribers[i] */\n      dup2\n      swap1\n      mstore\n      pop\n        /* \"contracts/myContract.sol\":1063:1066  i++ */\n      dup1\n      dup1\n      tag_82\n      swap1\n      tag_56\n      jump\t// in\n    tag_82:\n      swap2\n      pop\n      pop\n        /* \"contracts/myContract.sol\":1026:1117  for(uint i = 0; i < subscriberCount; i++){\r... */\n      jump(tag_71)\n    tag_72:\n      pop\n        /* \"contracts/myContract.sol\":1134:1137  ret */\n      dup1\n        /* \"contracts/myContract.sol\":1127:1137  return ret */\n      swap2\n      pop\n      pop\n        /* \"contracts/myContract.sol\":874:1145  function printSubscribersList() public view returns(subscriber[]memory){\r... */\n      swap1\n      jump\t// out\n        /* \"contracts/myContract.sol\":284:305  address public author */\n    tag_44:\n      0x02\n      0x00\n      swap1\n      sload\n      swap1\n      0x0100\n      exp\n      swap1\n      div\n      0xffffffffffffffffffffffffffffffffffffffff\n      and\n      dup2\n      jump\t// out\n        /* \"contracts/myContract.sol\":164:195  uint public subscriberCount = 0 */\n    tag_49:\n      sload(0x01)\n      dup2\n      jump\t// out\n    tag_54:\n      dup3\n      dup1\n      sload\n      tag_83\n      swap1\n      tag_58\n      jump\t// in\n    tag_83:\n      swap1\n      0x00\n      mstore\n      keccak256(0x00, 0x20)\n      swap1\n      0x1f\n      add\n      0x20\n      swap1\n      div\n      dup2\n      add\n      swap3\n      dup3\n      tag_85\n      jumpi\n      0x00\n      dup6\n      sstore\n      jump(tag_84)\n    tag_85:\n      dup3\n      0x1f\n      lt\n      tag_86\n      jumpi\n      dup1\n      mload\n      not(0xff)\n      and\n      dup4\n      dup1\n      add\n      or\n      dup6\n      sstore\n      jump(tag_84)\n    tag_86:\n      dup3\n      dup1\n      add\n      0x01\n      add\n      dup6\n      sstore\n      dup3\n      iszero\n      tag_84\n      jumpi\n      swap2\n      dup3\n      add\n    tag_87:\n      dup3\n      dup2\n      gt\n      iszero\n      tag_88\n      jumpi\n      dup3\n      mload\n      dup3\n      sstore\n      swap2\n      0x20\n      add\n      swap2\n      swap1\n      0x01\n      add\n      swap1\n      jump(tag_87)\n    tag_88:\n    tag_84:\n      pop\n      swap1\n      pop\n      tag_89\n      swap2\n      swap1\n      tag_90\n      jump\t// in\n    tag_89:\n      pop\n      swap1\n      jump\t// out\n    tag_70:\n      mload(0x40)\n      dup1\n      0x40\n      add\n      0x40\n      mstore\n      dup1\n      0x60\n      dup2\n      mstore\n      0x20\n      add\n      and(0xffffffffffffffffffffffffffffffffffffffff, 0x00)\n      dup2\n      mstore\n      pop\n      swap1\n      jump\t// out\n    tag_90:\n    tag_91:\n      dup1\n      dup3\n      gt\n      iszero\n      tag_92\n      jumpi\n      0x00\n      dup2\n      0x00\n      swap1\n      sstore\n      pop\n      0x01\n      add\n      jump(tag_91)\n    tag_92:\n      pop\n      swap1\n      jump\t// out\n        /* \"#utility.yul\":7:419   */\n    tag_94:\n        /* \"#utility.yul\":85:90   */\n      0x00\n        /* \"#utility.yul\":110:176   */\n      tag_96\n        /* \"#utility.yul\":126:175   */\n      tag_97\n        /* \"#utility.yul\":168:174   */\n      dup5\n        /* \"#utility.yul\":126:175   */\n      tag_98\n      jump\t// in\n    tag_97:\n        /* \"#utility.yul\":110:176   */\n      tag_99\n      jump\t// in\n    tag_96:\n        /* \"#utility.yul\":101:176   */\n      swap1\n      pop\n        /* \"#utility.yul\":199:205   */\n      dup3\n        /* \"#utility.yul\":192:197   */\n      dup2\n        /* \"#utility.yul\":185:206   */\n      mstore\n        /* \"#utility.yul\":237:241   */\n      0x20\n        /* \"#utility.yul\":230:235   */\n      dup2\n        /* \"#utility.yul\":226:242   */\n      add\n        /* \"#utility.yul\":275:278   */\n      dup5\n        /* \"#utility.yul\":266:272   */\n      dup5\n        /* \"#utility.yul\":261:264   */\n      dup5\n        /* \"#utility.yul\":257:273   */\n      add\n        /* \"#utility.yul\":254:279   */\n      gt\n        /* \"#utility.yul\":251:363   */\n      iszero\n      tag_100\n      jumpi\n        /* \"#utility.yul\":282:361   */\n      tag_101\n      tag_102\n      jump\t// in\n    tag_101:\n        /* \"#utility.yul\":251:363   */\n    tag_100:\n        /* \"#utility.yul\":372:413   */\n      tag_103\n        /* \"#utility.yul\":406:412   */\n      dup5\n        /* \"#utility.yul\":401:404   */\n      dup3\n        /* \"#utility.yul\":396:399   */\n      dup6\n        /* \"#utility.yul\":372:413   */\n      tag_104\n      jump\t// in\n    tag_103:\n        /* \"#utility.yul\":91:419   */\n      pop\n        /* \"#utility.yul\":7:419   */\n      swap4\n      swap3\n      pop\n      pop\n      pop\n      jump\t// out\n        /* \"#utility.yul\":439:779   */\n    tag_105:\n        /* \"#utility.yul\":495:500   */\n      0x00\n        /* \"#utility.yul\":544:547   */\n      dup3\n        /* \"#utility.yul\":537:541   */\n      0x1f\n        /* \"#utility.yul\":529:535   */\n      dup4\n        /* \"#utility.yul\":525:542   */\n      add\n        /* \"#utility.yul\":521:548   */\n      slt\n        /* \"#utility.yul\":511:633   */\n      tag_107\n      jumpi\n        /* \"#utility.yul\":552:631   */\n      tag_108\n      tag_109\n      jump\t// in\n    tag_108:\n        /* \"#utility.yul\":511:633   */\n    tag_107:\n        /* \"#utility.yul\":669:675   */\n      dup2\n        /* \"#utility.yul\":656:676   */\n      calldataload\n        /* \"#utility.yul\":694:773   */\n      tag_110\n        /* \"#utility.yul\":769:772   */\n      dup5\n        /* \"#utility.yul\":761:767   */\n      dup3\n        /* \"#utility.yul\":754:758   */\n      0x20\n        /* \"#utility.yul\":746:752   */\n      dup7\n        /* \"#utility.yul\":742:759   */\n      add\n        /* \"#utility.yul\":694:773   */\n      tag_94\n      jump\t// in\n    tag_110:\n        /* \"#utility.yul\":685:773   */\n      swap2\n      pop\n        /* \"#utility.yul\":501:779   */\n      pop\n        /* \"#utility.yul\":439:779   */\n      swap3\n      swap2\n      pop\n      pop\n      jump\t// out\n        /* \"#utility.yul\":785:924   */\n    tag_111:\n        /* \"#utility.yul\":831:836   */\n      0x00\n        /* \"#utility.yul\":869:875   */\n      dup2\n        /* \"#utility.yul\":856:876   */\n      calldataload\n        /* \"#utility.yul\":847:876   */\n      swap1\n      pop\n        /* \"#utility.yul\":885:918   */\n      tag_113\n        /* \"#utility.yul\":912:917   */\n      dup2\n        /* \"#utility.yul\":885:918   */\n      tag_114\n      jump\t// in\n    tag_113:\n        /* \"#utility.yul\":785:924   */\n      swap3\n      swap2\n      pop\n      pop\n      jump\t// out\n        /* \"#utility.yul\":930:1439   */\n    tag_28:\n        /* \"#utility.yul\":999:1005   */\n      0x00\n        /* \"#utility.yul\":1048:1050   */\n      0x20\n        /* \"#utility.yul\":1036:1045   */\n      dup3\n        /* \"#utility.yul\":1027:1034   */\n      dup5\n        /* \"#utility.yul\":1023:1046   */\n      sub\n        /* \"#utility.yul\":1019:1051   */\n      slt\n        /* \"#utility.yul\":1016:1135   */\n      iszero\n      tag_116\n      jumpi\n        /* \"#utility.yul\":1054:1133   */\n      tag_117\n      tag_118\n      jump\t// in\n    tag_117:\n        /* \"#utility.yul\":1016:1135   */\n    tag_116:\n        /* \"#utility.yul\":1202:1203   */\n      0x00\n        /* \"#utility.yul\":1191:1200   */\n      dup3\n        /* \"#utility.yul\":1187:1204   */\n      add\n        /* \"#utility.yul\":1174:1205   */\n      calldataload\n        /* \"#utility.yul\":1232:1250   */\n      0xffffffffffffffff\n        /* \"#utility.yul\":1224:1230   */\n      dup2\n        /* \"#utility.yul\":1221:1251   */\n      gt\n        /* \"#utility.yul\":1218:1335   */\n      iszero\n      tag_119\n      jumpi\n        /* \"#utility.yul\":1254:1333   */\n      tag_120\n      tag_121\n      jump\t// in\n    tag_120:\n        /* \"#utility.yul\":1218:1335   */\n    tag_119:\n        /* \"#utility.yul\":1359:1422   */\n      tag_122\n        /* \"#utility.yul\":1414:1421   */\n      dup5\n        /* \"#utility.yul\":1405:1411   */\n      dup3\n        /* \"#utility.yul\":1394:1403   */\n      dup6\n        /* \"#utility.yul\":1390:1412   */\n      add\n        /* \"#utility.yul\":1359:1422   */\n      tag_105\n      jump\t// in\n    tag_122:\n        /* \"#utility.yul\":1349:1422   */\n      swap2\n      pop\n        /* \"#utility.yul\":1145:1432   */\n      pop\n        /* \"#utility.yul\":930:1439   */\n      swap3\n      swap2\n      pop\n      pop\n      jump\t// out\n        /* \"#utility.yul\":1445:1774   */\n    tag_33:\n        /* \"#utility.yul\":1504:1510   */\n      0x00\n        /* \"#utility.yul\":1553:1555   */\n      0x20\n        /* \"#utility.yul\":1541:1550   */\n      dup3\n        /* \"#utility.yul\":1532:1539   */\n      dup5\n        /* \"#utility.yul\":1528:1551   */\n      sub\n        /* \"#utility.yul\":1524:1556   */\n      slt\n        /* \"#utility.yul\":1521:1640   */\n      iszero\n      tag_124\n      jumpi\n        /* \"#utility.yul\":1559:1638   */\n      tag_125\n      tag_118\n      jump\t// in\n    tag_125:\n        /* \"#utility.yul\":1521:1640   */\n    tag_124:\n        /* \"#utility.yul\":1679:1680   */\n      0x00\n        /* \"#utility.yul\":1704:1757   */\n      tag_126\n        /* \"#utility.yul\":1749:1756   */\n      dup5\n        /* \"#utility.yul\":1740:1746   */\n      dup3\n        /* \"#utility.yul\":1729:1738   */\n      dup6\n        /* \"#utility.yul\":1725:1747   */\n      add\n        /* \"#utility.yul\":1704:1757   */\n      tag_111\n      jump\t// in\n    tag_126:\n        /* \"#utility.yul\":1694:1757   */\n      swap2\n      pop\n        /* \"#utility.yul\":1650:1767   */\n      pop\n        /* \"#utility.yul\":1445:1774   */\n      swap3\n      swap2\n      pop\n      pop\n      jump\t// out\n        /* \"#utility.yul\":1780:2040   */\n    tag_127:\n        /* \"#utility.yul\":1901:1911   */\n      0x00\n        /* \"#utility.yul\":1936:2034   */\n      tag_129\n        /* \"#utility.yul\":2030:2033   */\n      dup4\n        /* \"#utility.yul\":2022:2028   */\n      dup4\n        /* \"#utility.yul\":1936:2034   */\n      tag_130\n      jump\t// in\n    tag_129:\n        /* \"#utility.yul\":1922:2034   */\n      swap1\n      pop\n        /* \"#utility.yul\":1780:2040   */\n      swap3\n      swap2\n      pop\n      pop\n      jump\t// out\n        /* \"#utility.yul\":2046:2154   */\n    tag_131:\n        /* \"#utility.yul\":2123:2147   */\n      tag_133\n        /* \"#utility.yul\":2141:2146   */\n      dup2\n        /* \"#utility.yul\":2123:2147   */\n      tag_134\n      jump\t// in\n    tag_133:\n        /* \"#utility.yul\":2118:2121   */\n      dup3\n        /* \"#utility.yul\":2111:2148   */\n      mstore\n        /* \"#utility.yul\":2046:2154   */\n      pop\n      pop\n      jump\t// out\n        /* \"#utility.yul\":2160:2278   */\n    tag_135:\n        /* \"#utility.yul\":2247:2271   */\n      tag_137\n        /* \"#utility.yul\":2265:2270   */\n      dup2\n        /* \"#utility.yul\":2247:2271   */\n      tag_134\n      jump\t// in\n    tag_137:\n        /* \"#utility.yul\":2242:2245   */\n      dup3\n        /* \"#utility.yul\":2235:2272   */\n      mstore\n        /* \"#utility.yul\":2160:2278   */\n      pop\n      pop\n      jump\t// out\n        /* \"#utility.yul\":2360:3479   */\n    tag_138:\n        /* \"#utility.yul\":2531:2534   */\n      0x00\n        /* \"#utility.yul\":2560:2640   */\n      tag_140\n        /* \"#utility.yul\":2634:2639   */\n      dup3\n        /* \"#utility.yul\":2560:2640   */\n      tag_141\n      jump\t// in\n    tag_140:\n        /* \"#utility.yul\":2656:2768   */\n      tag_142\n        /* \"#utility.yul\":2761:2767   */\n      dup2\n        /* \"#utility.yul\":2756:2759   */\n      dup6\n        /* \"#utility.yul\":2656:2768   */\n      tag_143\n      jump\t// in\n    tag_142:\n        /* \"#utility.yul\":2649:2768   */\n      swap4\n      pop\n        /* \"#utility.yul\":2794:2797   */\n      dup4\n        /* \"#utility.yul\":2839:2843   */\n      0x20\n        /* \"#utility.yul\":2831:2837   */\n      dup3\n        /* \"#utility.yul\":2827:2844   */\n      mul\n        /* \"#utility.yul\":2822:2825   */\n      dup6\n        /* \"#utility.yul\":2818:2845   */\n      add\n        /* \"#utility.yul\":2869:2951   */\n      tag_144\n        /* \"#utility.yul\":2945:2950   */\n      dup6\n        /* \"#utility.yul\":2869:2951   */\n      tag_145\n      jump\t// in\n    tag_144:\n        /* \"#utility.yul\":2974:2981   */\n      dup1\n        /* \"#utility.yul\":3005:3006   */\n      0x00\n        /* \"#utility.yul\":2990:3434   */\n    tag_146:\n        /* \"#utility.yul\":3015:3021   */\n      dup6\n        /* \"#utility.yul\":3012:3013   */\n      dup2\n        /* \"#utility.yul\":3009:3022   */\n      lt\n        /* \"#utility.yul\":2990:3434   */\n      iszero\n      tag_148\n      jumpi\n        /* \"#utility.yul\":3086:3095   */\n      dup5\n        /* \"#utility.yul\":3080:3084   */\n      dup5\n        /* \"#utility.yul\":3076:3096   */\n      sub\n        /* \"#utility.yul\":3071:3074   */\n      dup10\n        /* \"#utility.yul\":3064:3097   */\n      mstore\n        /* \"#utility.yul\":3137:3143   */\n      dup2\n        /* \"#utility.yul\":3131:3144   */\n      mload\n        /* \"#utility.yul\":3165:3281   */\n      tag_149\n        /* \"#utility.yul\":3276:3280   */\n      dup6\n        /* \"#utility.yul\":3261:3274   */\n      dup3\n        /* \"#utility.yul\":3165:3281   */\n      tag_127\n      jump\t// in\n    tag_149:\n        /* \"#utility.yul\":3157:3281   */\n      swap5\n      pop\n        /* \"#utility.yul\":3304:3390   */\n      tag_150\n        /* \"#utility.yul\":3383:3389   */\n      dup4\n        /* \"#utility.yul\":3304:3390   */\n      tag_151\n      jump\t// in\n    tag_150:\n        /* \"#utility.yul\":3294:3390   */\n      swap3\n      pop\n        /* \"#utility.yul\":3419:3423   */\n      0x20\n        /* \"#utility.yul\":3414:3417   */\n      dup11\n        /* \"#utility.yul\":3410:3424   */\n      add\n        /* \"#utility.yul\":3403:3424   */\n      swap10\n      pop\n        /* \"#utility.yul\":3050:3434   */\n      pop\n        /* \"#utility.yul\":3037:3038   */\n      0x01\n        /* \"#utility.yul\":3034:3035   */\n      dup2\n        /* \"#utility.yul\":3030:3039   */\n      add\n        /* \"#utility.yul\":3025:3039   */\n      swap1\n      pop\n        /* \"#utility.yul\":2990:3434   */\n      jump(tag_146)\n    tag_148:\n        /* \"#utility.yul\":2994:3008   */\n      pop\n        /* \"#utility.yul\":3450:3454   */\n      dup3\n        /* \"#utility.yul\":3443:3454   */\n      swap8\n      pop\n        /* \"#utility.yul\":3470:3473   */\n      dup8\n        /* \"#utility.yul\":3463:3473   */\n      swap6\n      pop\n        /* \"#utility.yul\":2536:3479   */\n      pop\n      pop\n      pop\n      pop\n      pop\n        /* \"#utility.yul\":2360:3479   */\n      swap3\n      swap2\n      pop\n      pop\n      jump\t// out\n        /* \"#utility.yul\":3485:3829   */\n    tag_152:\n        /* \"#utility.yul\":3563:3566   */\n      0x00\n        /* \"#utility.yul\":3591:3630   */\n      tag_154\n        /* \"#utility.yul\":3624:3629   */\n      dup3\n        /* \"#utility.yul\":3591:3630   */\n      tag_155\n      jump\t// in\n    tag_154:\n        /* \"#utility.yul\":3646:3707   */\n      tag_156\n        /* \"#utility.yul\":3700:3706   */\n      dup2\n        /* \"#utility.yul\":3695:3698   */\n      dup6\n        /* \"#utility.yul\":3646:3707   */\n      tag_157\n      jump\t// in\n    tag_156:\n        /* \"#utility.yul\":3639:3707   */\n      swap4\n      pop\n        /* \"#utility.yul\":3716:3768   */\n      tag_158\n        /* \"#utility.yul\":3761:3767   */\n      dup2\n        /* \"#utility.yul\":3756:3759   */\n      dup6\n        /* \"#utility.yul\":3749:3753   */\n      0x20\n        /* \"#utility.yul\":3742:3747   */\n      dup7\n        /* \"#utility.yul\":3738:3754   */\n      add\n        /* \"#utility.yul\":3716:3768   */\n      tag_159\n      jump\t// in\n    tag_158:\n        /* \"#utility.yul\":3793:3822   */\n      tag_160\n        /* \"#utility.yul\":3815:3821   */\n      dup2\n        /* \"#utility.yul\":3793:3822   */\n      tag_161\n      jump\t// in\n    tag_160:\n        /* \"#utility.yul\":3788:3791   */\n      dup5\n        /* \"#utility.yul\":3784:3823   */\n      add\n        /* \"#utility.yul\":3777:3823   */\n      swap2\n      pop\n        /* \"#utility.yul\":3567:3829   */\n      pop\n        /* \"#utility.yul\":3485:3829   */\n      swap3\n      swap2\n      pop\n      pop\n      jump\t// out\n        /* \"#utility.yul\":3835:4199   */\n    tag_162:\n        /* \"#utility.yul\":3923:3926   */\n      0x00\n        /* \"#utility.yul\":3951:3990   */\n      tag_164\n        /* \"#utility.yul\":3984:3989   */\n      dup3\n        /* \"#utility.yul\":3951:3990   */\n      tag_155\n      jump\t// in\n    tag_164:\n        /* \"#utility.yul\":4006:4077   */\n      tag_165\n        /* \"#utility.yul\":4070:4076   */\n      dup2\n        /* \"#utility.yul\":4065:4068   */\n      dup6\n        /* \"#utility.yul\":4006:4077   */\n      tag_166\n      jump\t// in\n    tag_165:\n        /* \"#utility.yul\":3999:4077   */\n      swap4\n      pop\n        /* \"#utility.yul\":4086:4138   */\n      tag_167\n        /* \"#utility.yul\":4131:4137   */\n      dup2\n        /* \"#utility.yul\":4126:4129   */\n      dup6\n        /* \"#utility.yul\":4119:4123   */\n      0x20\n        /* \"#utility.yul\":4112:4117   */\n      dup7\n        /* \"#utility.yul\":4108:4124   */\n      add\n        /* \"#utility.yul\":4086:4138   */\n      tag_159\n      jump\t// in\n    tag_167:\n        /* \"#utility.yul\":4163:4192   */\n      tag_168\n        /* \"#utility.yul\":4185:4191   */\n      dup2\n        /* \"#utility.yul\":4163:4192   */\n      tag_161\n      jump\t// in\n    tag_168:\n        /* \"#utility.yul\":4158:4161   */\n      dup5\n        /* \"#utility.yul\":4154:4193   */\n      add\n        /* \"#utility.yul\":4147:4193   */\n      swap2\n      pop\n        /* \"#utility.yul\":3927:4199   */\n      pop\n        /* \"#utility.yul\":3835:4199   */\n      swap3\n      swap2\n      pop\n      pop\n      jump\t// out\n        /* \"#utility.yul\":4205:4571   */\n    tag_169:\n        /* \"#utility.yul\":4347:4350   */\n      0x00\n        /* \"#utility.yul\":4368:4435   */\n      tag_171\n        /* \"#utility.yul\":4432:4434   */\n      0x26\n        /* \"#utility.yul\":4427:4430   */\n      dup4\n        /* \"#utility.yul\":4368:4435   */\n      tag_166\n      jump\t// in\n    tag_171:\n        /* \"#utility.yul\":4361:4435   */\n      swap2\n      pop\n        /* \"#utility.yul\":4444:4537   */\n      tag_172\n        /* \"#utility.yul\":4533:4536   */\n      dup3\n        /* \"#utility.yul\":4444:4537   */\n      tag_173\n      jump\t// in\n    tag_172:\n        /* \"#utility.yul\":4562:4564   */\n      0x40\n        /* \"#utility.yul\":4557:4560   */\n      dup3\n        /* \"#utility.yul\":4553:4565   */\n      add\n        /* \"#utility.yul\":4546:4565   */\n      swap1\n      pop\n        /* \"#utility.yul\":4205:4571   */\n      swap2\n      swap1\n      pop\n      jump\t// out\n        /* \"#utility.yul\":4649:5247   */\n    tag_130:\n        /* \"#utility.yul\":4760:4763   */\n      0x00\n        /* \"#utility.yul\":4796:4800   */\n      0x40\n        /* \"#utility.yul\":4791:4794   */\n      dup4\n        /* \"#utility.yul\":4787:4801   */\n      add\n        /* \"#utility.yul\":4883:4887   */\n      0x00\n        /* \"#utility.yul\":4876:4881   */\n      dup4\n        /* \"#utility.yul\":4872:4888   */\n      add\n        /* \"#utility.yul\":4866:4889   */\n      mload\n        /* \"#utility.yul\":4936:4939   */\n      dup5\n        /* \"#utility.yul\":4930:4934   */\n      dup3\n        /* \"#utility.yul\":4926:4940   */\n      sub\n        /* \"#utility.yul\":4919:4923   */\n      0x00\n        /* \"#utility.yul\":4914:4917   */\n      dup7\n        /* \"#utility.yul\":4910:4924   */\n      add\n        /* \"#utility.yul\":4903:4941   */\n      mstore\n        /* \"#utility.yul\":4962:5035   */\n      tag_175\n        /* \"#utility.yul\":5030:5034   */\n      dup3\n        /* \"#utility.yul\":5016:5028   */\n      dup3\n        /* \"#utility.yul\":4962:5035   */\n      tag_152\n      jump\t// in\n    tag_175:\n        /* \"#utility.yul\":4954:5035   */\n      swap2\n      pop\n        /* \"#utility.yul\":4811:5046   */\n      pop\n        /* \"#utility.yul\":5128:5132   */\n      0x20\n        /* \"#utility.yul\":5121:5126   */\n      dup4\n        /* \"#utility.yul\":5117:5133   */\n      add\n        /* \"#utility.yul\":5111:5134   */\n      mload\n        /* \"#utility.yul\":5147:5210   */\n      tag_176\n        /* \"#utility.yul\":5204:5208   */\n      0x20\n        /* \"#utility.yul\":5199:5202   */\n      dup7\n        /* \"#utility.yul\":5195:5209   */\n      add\n        /* \"#utility.yul\":5181:5193   */\n      dup3\n        /* \"#utility.yul\":5147:5210   */\n      tag_131\n      jump\t// in\n    tag_176:\n        /* \"#utility.yul\":5056:5220   */\n      pop\n        /* \"#utility.yul\":5237:5241   */\n      dup1\n        /* \"#utility.yul\":5230:5241   */\n      swap2\n      pop\n        /* \"#utility.yul\":4765:5247   */\n      pop\n        /* \"#utility.yul\":4649:5247   */\n      swap3\n      swap2\n      pop\n      pop\n      jump\t// out\n        /* \"#utility.yul\":5253:5371   */\n    tag_177:\n        /* \"#utility.yul\":5340:5364   */\n      tag_179\n        /* \"#utility.yul\":5358:5363   */\n      dup2\n        /* \"#utility.yul\":5340:5364   */\n      tag_180\n      jump\t// in\n    tag_179:\n        /* \"#utility.yul\":5335:5338   */\n      dup3\n        /* \"#utility.yul\":5328:5365   */\n      mstore\n        /* \"#utility.yul\":5253:5371   */\n      pop\n      pop\n      jump\t// out\n        /* \"#utility.yul\":5377:5599   */\n    tag_46:\n        /* \"#utility.yul\":5470:5474   */\n      0x00\n        /* \"#utility.yul\":5508:5510   */\n      0x20\n        /* \"#utility.yul\":5497:5506   */\n      dup3\n        /* \"#utility.yul\":5493:5511   */\n      add\n        /* \"#utility.yul\":5485:5511   */\n      swap1\n      pop\n        /* \"#utility.yul\":5521:5592   */\n      tag_182\n        /* \"#utility.yul\":5589:5590   */\n      0x00\n        /* \"#utility.yul\":5578:5587   */\n      dup4\n        /* \"#utility.yul\":5574:5591   */\n      add\n        /* \"#utility.yul\":5565:5571   */\n      dup5\n        /* \"#utility.yul\":5521:5592   */\n      tag_135\n      jump\t// in\n    tag_182:\n        /* \"#utility.yul\":5377:5599   */\n      swap3\n      swap2\n      pop\n      pop\n      jump\t// out\n        /* \"#utility.yul\":5605:6082   */\n    tag_41:\n        /* \"#utility.yul\":5800:5804   */\n      0x00\n        /* \"#utility.yul\":5838:5840   */\n      0x20\n        /* \"#utility.yul\":5827:5836   */\n      dup3\n        /* \"#utility.yul\":5823:5841   */\n      add\n        /* \"#utility.yul\":5815:5841   */\n      swap1\n      pop\n        /* \"#utility.yul\":5887:5896   */\n      dup2\n        /* \"#utility.yul\":5881:5885   */\n      dup2\n        /* \"#utility.yul\":5877:5897   */\n      sub\n        /* \"#utility.yul\":5873:5874   */\n      0x00\n        /* \"#utility.yul\":5862:5871   */\n      dup4\n        /* \"#utility.yul\":5858:5875   */\n      add\n        /* \"#utility.yul\":5851:5898   */\n      mstore\n        /* \"#utility.yul\":5915:6075   */\n      tag_184\n        /* \"#utility.yul\":6070:6074   */\n      dup2\n        /* \"#utility.yul\":6061:6067   */\n      dup5\n        /* \"#utility.yul\":5915:6075   */\n      tag_138\n      jump\t// in\n    tag_184:\n        /* \"#utility.yul\":5907:6075   */\n      swap1\n      pop\n        /* \"#utility.yul\":5605:6082   */\n      swap3\n      swap2\n      pop\n      pop\n      jump\t// out\n        /* \"#utility.yul\":6088:6511   */\n    tag_36:\n        /* \"#utility.yul\":6229:6233   */\n      0x00\n        /* \"#utility.yul\":6267:6269   */\n      0x40\n        /* \"#utility.yul\":6256:6265   */\n      dup3\n        /* \"#utility.yul\":6252:6270   */\n      add\n        /* \"#utility.yul\":6244:6270   */\n      swap1\n      pop\n        /* \"#utility.yul\":6316:6325   */\n      dup2\n        /* \"#utility.yul\":6310:6314   */\n      dup2\n        /* \"#utility.yul\":6306:6326   */\n      sub\n        /* \"#utility.yul\":6302:6303   */\n      0x00\n        /* \"#utility.yul\":6291:6300   */\n      dup4\n        /* \"#utility.yul\":6287:6304   */\n      add\n        /* \"#utility.yul\":6280:6327   */\n      mstore\n        /* \"#utility.yul\":6344:6422   */\n      tag_186\n        /* \"#utility.yul\":6417:6421   */\n      dup2\n        /* \"#utility.yul\":6408:6414   */\n      dup6\n        /* \"#utility.yul\":6344:6422   */\n      tag_162\n      jump\t// in\n    tag_186:\n        /* \"#utility.yul\":6336:6422   */\n      swap1\n      pop\n        /* \"#utility.yul\":6432:6504   */\n      tag_187\n        /* \"#utility.yul\":6500:6502   */\n      0x20\n        /* \"#utility.yul\":6489:6498   */\n      dup4\n        /* \"#utility.yul\":6485:6503   */\n      add\n        /* \"#utility.yul\":6476:6482   */\n      dup5\n        /* \"#utility.yul\":6432:6504   */\n      tag_135\n      jump\t// in\n    tag_187:\n        /* \"#utility.yul\":6088:6511   */\n      swap4\n      swap3\n      pop\n      pop\n      pop\n      jump\t// out\n        /* \"#utility.yul\":6517:6936   */\n    tag_15:\n        /* \"#utility.yul\":6683:6687   */\n      0x00\n        /* \"#utility.yul\":6721:6723   */\n      0x20\n        /* \"#utility.yul\":6710:6719   */\n      dup3\n        /* \"#utility.yul\":6706:6724   */\n      add\n        /* \"#utility.yul\":6698:6724   */\n      swap1\n      pop\n        /* \"#utility.yul\":6770:6779   */\n      dup2\n        /* \"#utility.yul\":6764:6768   */\n      dup2\n        /* \"#utility.yul\":6760:6780   */\n      sub\n        /* \"#utility.yul\":6756:6757   */\n      0x00\n        /* \"#utility.yul\":6745:6754   */\n      dup4\n        /* \"#utility.yul\":6741:6758   */\n      add\n        /* \"#utility.yul\":6734:6781   */\n      mstore\n        /* \"#utility.yul\":6798:6929   */\n      tag_189\n        /* \"#utility.yul\":6924:6928   */\n      dup2\n        /* \"#utility.yul\":6798:6929   */\n      tag_169\n      jump\t// in\n    tag_189:\n        /* \"#utility.yul\":6790:6929   */\n      swap1\n      pop\n        /* \"#utility.yul\":6517:6936   */\n      swap2\n      swap1\n      pop\n      jump\t// out\n        /* \"#utility.yul\":6942:7164   */\n    tag_20:\n        /* \"#utility.yul\":7035:7039   */\n      0x00\n        /* \"#utility.yul\":7073:7075   */\n      0x20\n        /* \"#utility.yul\":7062:7071   */\n      dup3\n        /* \"#utility.yul\":7058:7076   */\n      add\n        /* \"#utility.yul\":7050:7076   */\n      swap1\n      pop\n        /* \"#utility.yul\":7086:7157   */\n      tag_191\n        /* \"#utility.yul\":7154:7155   */\n      0x00\n        /* \"#utility.yul\":7143:7152   */\n      dup4\n        /* \"#utility.yul\":7139:7156   */\n      add\n        /* \"#utility.yul\":7130:7136   */\n      dup5\n        /* \"#utility.yul\":7086:7157   */\n      tag_177\n      jump\t// in\n    tag_191:\n        /* \"#utility.yul\":6942:7164   */\n      swap3\n      swap2\n      pop\n      pop\n      jump\t// out\n        /* \"#utility.yul\":7170:7299   */\n    tag_99:\n        /* \"#utility.yul\":7204:7210   */\n      0x00\n        /* \"#utility.yul\":7231:7251   */\n      tag_193\n      tag_194\n      jump\t// in\n    tag_193:\n        /* \"#utility.yul\":7221:7251   */\n      swap1\n      pop\n        /* \"#utility.yul\":7260:7293   */\n      tag_195\n        /* \"#utility.yul\":7288:7292   */\n      dup3\n        /* \"#utility.yul\":7280:7286   */\n      dup3\n        /* \"#utility.yul\":7260:7293   */\n      tag_196\n      jump\t// in\n    tag_195:\n        /* \"#utility.yul\":7170:7299   */\n      swap2\n      swap1\n      pop\n      jump\t// out\n        /* \"#utility.yul\":7305:7380   */\n    tag_194:\n        /* \"#utility.yul\":7338:7344   */\n      0x00\n        /* \"#utility.yul\":7371:7373   */\n      0x40\n        /* \"#utility.yul\":7365:7374   */\n      mload\n        /* \"#utility.yul\":7355:7374   */\n      swap1\n      pop\n        /* \"#utility.yul\":7305:7380   */\n      swap1\n      jump\t// out\n        /* \"#utility.yul\":7386:7694   */\n    tag_98:\n        /* \"#utility.yul\":7448:7452   */\n      0x00\n        /* \"#utility.yul\":7538:7556   */\n      0xffffffffffffffff\n        /* \"#utility.yul\":7530:7536   */\n      dup3\n        /* \"#utility.yul\":7527:7557   */\n      gt\n        /* \"#utility.yul\":7524:7580   */\n      iszero\n      tag_199\n      jumpi\n        /* \"#utility.yul\":7560:7578   */\n      tag_200\n      tag_66\n      jump\t// in\n    tag_200:\n        /* \"#utility.yul\":7524:7580   */\n    tag_199:\n        /* \"#utility.yul\":7598:7627   */\n      tag_201\n        /* \"#utility.yul\":7620:7626   */\n      dup3\n        /* \"#utility.yul\":7598:7627   */\n      tag_161\n      jump\t// in\n    tag_201:\n        /* \"#utility.yul\":7590:7627   */\n      swap1\n      pop\n        /* \"#utility.yul\":7682:7686   */\n      0x20\n        /* \"#utility.yul\":7676:7680   */\n      dup2\n        /* \"#utility.yul\":7672:7687   */\n      add\n        /* \"#utility.yul\":7664:7687   */\n      swap1\n      pop\n        /* \"#utility.yul\":7386:7694   */\n      swap2\n      swap1\n      pop\n      jump\t// out\n        /* \"#utility.yul\":7700:7858   */\n    tag_145:\n        /* \"#utility.yul\":7793:7797   */\n      0x00\n        /* \"#utility.yul\":7816:7819   */\n      dup2\n        /* \"#utility.yul\":7808:7819   */\n      swap1\n      pop\n        /* \"#utility.yul\":7846:7850   */\n      0x20\n        /* \"#utility.yul\":7841:7844   */\n      dup3\n        /* \"#utility.yul\":7837:7851   */\n      add\n        /* \"#utility.yul\":7829:7851   */\n      swap1\n      pop\n        /* \"#utility.yul\":7700:7858   */\n      swap2\n      swap1\n      pop\n      jump\t// out\n        /* \"#utility.yul\":7864:8004   */\n    tag_141:\n        /* \"#utility.yul\":7957:7963   */\n      0x00\n        /* \"#utility.yul\":7991:7996   */\n      dup2\n        /* \"#utility.yul\":7985:7997   */\n      mload\n        /* \"#utility.yul\":7975:7997   */\n      swap1\n      pop\n        /* \"#utility.yul\":7864:8004   */\n      swap2\n      swap1\n      pop\n      jump\t// out\n        /* \"#utility.yul\":8010:8109   */\n    tag_155:\n        /* \"#utility.yul\":8062:8068   */\n      0x00\n        /* \"#utility.yul\":8096:8101   */\n      dup2\n        /* \"#utility.yul\":8090:8102   */\n      mload\n        /* \"#utility.yul\":8080:8102   */\n      swap1\n      pop\n        /* \"#utility.yul\":8010:8109   */\n      swap2\n      swap1\n      pop\n      jump\t// out\n        /* \"#utility.yul\":8115:8254   */\n    tag_151:\n        /* \"#utility.yul\":8211:8215   */\n      0x00\n        /* \"#utility.yul\":8243:8247   */\n      0x20\n        /* \"#utility.yul\":8238:8241   */\n      dup3\n        /* \"#utility.yul\":8234:8248   */\n      add\n        /* \"#utility.yul\":8226:8248   */\n      swap1\n      pop\n        /* \"#utility.yul\":8115:8254   */\n      swap2\n      swap1\n      pop\n      jump\t// out\n        /* \"#utility.yul\":8260:8470   */\n    tag_143:\n        /* \"#utility.yul\":8385:8396   */\n      0x00\n        /* \"#utility.yul\":8419:8425   */\n      dup3\n        /* \"#utility.yul\":8414:8417   */\n      dup3\n        /* \"#utility.yul\":8407:8426   */\n      mstore\n        /* \"#utility.yul\":8459:8463   */\n      0x20\n        /* \"#utility.yul\":8454:8457   */\n      dup3\n        /* \"#utility.yul\":8450:8464   */\n      add\n        /* \"#utility.yul\":8435:8464   */\n      swap1\n      pop\n        /* \"#utility.yul\":8260:8470   */\n      swap3\n      swap2\n      pop\n      pop\n      jump\t// out\n        /* \"#utility.yul\":8476:8635   */\n    tag_157:\n        /* \"#utility.yul\":8550:8561   */\n      0x00\n        /* \"#utility.yul\":8584:8590   */\n      dup3\n        /* \"#utility.yul\":8579:8582   */\n      dup3\n        /* \"#utility.yul\":8572:8591   */\n      mstore\n        /* \"#utility.yul\":8624:8628   */\n      0x20\n        /* \"#utility.yul\":8619:8622   */\n      dup3\n        /* \"#utility.yul\":8615:8629   */\n      add\n        /* \"#utility.yul\":8600:8629   */\n      swap1\n      pop\n        /* \"#utility.yul\":8476:8635   */\n      swap3\n      swap2\n      pop\n      pop\n      jump\t// out\n        /* \"#utility.yul\":8641:8810   */\n    tag_166:\n        /* \"#utility.yul\":8725:8736   */\n      0x00\n        /* \"#utility.yul\":8759:8765   */\n      dup3\n        /* \"#utility.yul\":8754:8757   */\n      dup3\n        /* \"#utility.yul\":8747:8766   */\n      mstore\n        /* \"#utility.yul\":8799:8803   */\n      0x20\n        /* \"#utility.yul\":8794:8797   */\n      dup3\n        /* \"#utility.yul\":8790:8804   */\n      add\n        /* \"#utility.yul\":8775:8804   */\n      swap1\n      pop\n        /* \"#utility.yul\":8641:8810   */\n      swap3\n      swap2\n      pop\n      pop\n      jump\t// out\n        /* \"#utility.yul\":8816:8912   */\n    tag_134:\n        /* \"#utility.yul\":8853:8860   */\n      0x00\n        /* \"#utility.yul\":8882:8906   */\n      tag_210\n        /* \"#utility.yul\":8900:8905   */\n      dup3\n        /* \"#utility.yul\":8882:8906   */\n      tag_211\n      jump\t// in\n    tag_210:\n        /* \"#utility.yul\":8871:8906   */\n      swap1\n      pop\n        /* \"#utility.yul\":8816:8912   */\n      swap2\n      swap1\n      pop\n      jump\t// out\n        /* \"#utility.yul\":8918:9044   */\n    tag_211:\n        /* \"#utility.yul\":8955:8962   */\n      0x00\n        /* \"#utility.yul\":8995:9037   */\n      0xffffffffffffffffffffffffffffffffffffffff\n        /* \"#utility.yul\":8988:8993   */\n      dup3\n        /* \"#utility.yul\":8984:9038   */\n      and\n        /* \"#utility.yul\":8973:9038   */\n      swap1\n      pop\n        /* \"#utility.yul\":8918:9044   */\n      swap2\n      swap1\n      pop\n      jump\t// out\n        /* \"#utility.yul\":9050:9127   */\n    tag_180:\n        /* \"#utility.yul\":9087:9094   */\n      0x00\n        /* \"#utility.yul\":9116:9121   */\n      dup2\n        /* \"#utility.yul\":9105:9121   */\n      swap1\n      pop\n        /* \"#utility.yul\":9050:9127   */\n      swap2\n      swap1\n      pop\n      jump\t// out\n        /* \"#utility.yul\":9133:9287   */\n    tag_104:\n        /* \"#utility.yul\":9217:9223   */\n      dup3\n        /* \"#utility.yul\":9212:9215   */\n      dup2\n        /* \"#utility.yul\":9207:9210   */\n      dup4\n        /* \"#utility.yul\":9194:9224   */\n      calldatacopy\n        /* \"#utility.yul\":9279:9280   */\n      0x00\n        /* \"#utility.yul\":9270:9276   */\n      dup4\n        /* \"#utility.yul\":9265:9268   */\n      dup4\n        /* \"#utility.yul\":9261:9277   */\n      add\n        /* \"#utility.yul\":9254:9281   */\n      mstore\n        /* \"#utility.yul\":9133:9287   */\n      pop\n      pop\n      pop\n      jump\t// out\n        /* \"#utility.yul\":9293:9600   */\n    tag_159:\n        /* \"#utility.yul\":9361:9362   */\n      0x00\n        /* \"#utility.yul\":9371:9484   */\n    tag_216:\n        /* \"#utility.yul\":9385:9391   */\n      dup4\n        /* \"#utility.yul\":9382:9383   */\n      dup2\n        /* \"#utility.yul\":9379:9392   */\n      lt\n        /* \"#utility.yul\":9371:9484   */\n      iszero\n      tag_218\n      jumpi\n        /* \"#utility.yul\":9470:9471   */\n      dup1\n        /* \"#utility.yul\":9465:9468   */\n      dup3\n        /* \"#utility.yul\":9461:9472   */\n      add\n        /* \"#utility.yul\":9455:9473   */\n      mload\n        /* \"#utility.yul\":9451:9452   */\n      dup2\n        /* \"#utility.yul\":9446:9449   */\n      dup5\n        /* \"#utility.yul\":9442:9453   */\n      add\n        /* \"#utility.yul\":9435:9474   */\n      mstore\n        /* \"#utility.yul\":9407:9409   */\n      0x20\n        /* \"#utility.yul\":9404:9405   */\n      dup2\n        /* \"#utility.yul\":9400:9410   */\n      add\n        /* \"#utility.yul\":9395:9410   */\n      swap1\n      pop\n        /* \"#utility.yul\":9371:9484   */\n      jump(tag_216)\n    tag_218:\n        /* \"#utility.yul\":9502:9508   */\n      dup4\n        /* \"#utility.yul\":9499:9500   */\n      dup2\n        /* \"#utility.yul\":9496:9509   */\n      gt\n        /* \"#utility.yul\":9493:9594   */\n      iszero\n      tag_219\n      jumpi\n        /* \"#utility.yul\":9582:9583   */\n      0x00\n        /* \"#utility.yul\":9573:9579   */\n      dup5\n        /* \"#utility.yul\":9568:9571   */\n      dup5\n        /* \"#utility.yul\":9564:9580   */\n      add\n        /* \"#utility.yul\":9557:9584   */\n      mstore\n        /* \"#utility.yul\":9493:9594   */\n    tag_219:\n        /* \"#utility.yul\":9342:9600   */\n      pop\n        /* \"#utility.yul\":9293:9600   */\n      pop\n      pop\n      pop\n      jump\t// out\n        /* \"#utility.yul\":9606:9926   */\n    tag_58:\n        /* \"#utility.yul\":9650:9656   */\n      0x00\n        /* \"#utility.yul\":9687:9688   */\n      0x02\n        /* \"#utility.yul\":9681:9685   */\n      dup3\n        /* \"#utility.yul\":9677:9689   */\n      div\n        /* \"#utility.yul\":9667:9689   */\n      swap1\n      pop\n        /* \"#utility.yul\":9734:9735   */\n      0x01\n        /* \"#utility.yul\":9728:9732   */\n      dup3\n        /* \"#utility.yul\":9724:9736   */\n      and\n        /* \"#utility.yul\":9755:9773   */\n      dup1\n        /* \"#utility.yul\":9745:9826   */\n      tag_221\n      jumpi\n        /* \"#utility.yul\":9811:9815   */\n      0x7f\n        /* \"#utility.yul\":9803:9809   */\n      dup3\n        /* \"#utility.yul\":9799:9816   */\n      and\n        /* \"#utility.yul\":9789:9816   */\n      swap2\n      pop\n        /* \"#utility.yul\":9745:9826   */\n    tag_221:\n        /* \"#utility.yul\":9873:9875   */\n      0x20\n        /* \"#utility.yul\":9865:9871   */\n      dup3\n        /* \"#utility.yul\":9862:9876   */\n      lt\n        /* \"#utility.yul\":9842:9860   */\n      dup2\n        /* \"#utility.yul\":9839:9877   */\n      eq\n        /* \"#utility.yul\":9836:9920   */\n      iszero\n      tag_222\n      jumpi\n        /* \"#utility.yul\":9892:9910   */\n      tag_223\n      tag_224\n      jump\t// in\n    tag_223:\n        /* \"#utility.yul\":9836:9920   */\n    tag_222:\n        /* \"#utility.yul\":9657:9926   */\n      pop\n        /* \"#utility.yul\":9606:9926   */\n      swap2\n      swap1\n      pop\n      jump\t// out\n        /* \"#utility.yul\":9932:10213   */\n    tag_196:\n        /* \"#utility.yul\":10015:10042   */\n      tag_226\n        /* \"#utility.yul\":10037:10041   */\n      dup3\n        /* \"#utility.yul\":10015:10042   */\n      tag_161\n      jump\t// in\n    tag_226:\n        /* \"#utility.yul\":10007:10013   */\n      dup2\n        /* \"#utility.yul\":10003:10043   */\n      add\n        /* \"#utility.yul\":10145:10151   */\n      dup2\n        /* \"#utility.yul\":10133:10143   */\n      dup2\n        /* \"#utility.yul\":10130:10152   */\n      lt\n        /* \"#utility.yul\":10109:10127   */\n      0xffffffffffffffff\n        /* \"#utility.yul\":10097:10107   */\n      dup3\n        /* \"#utility.yul\":10094:10128   */\n      gt\n        /* \"#utility.yul\":10091:10153   */\n      or\n        /* \"#utility.yul\":10088:10176   */\n      iszero\n      tag_227\n      jumpi\n        /* \"#utility.yul\":10156:10174   */\n      tag_228\n      tag_66\n      jump\t// in\n    tag_228:\n        /* \"#utility.yul\":10088:10176   */\n    tag_227:\n        /* \"#utility.yul\":10196:10206   */\n      dup1\n        /* \"#utility.yul\":10192:10194   */\n      0x40\n        /* \"#utility.yul\":10185:10207   */\n      mstore\n        /* \"#utility.yul\":9975:10213   */\n      pop\n        /* \"#utility.yul\":9932:10213   */\n      pop\n      pop\n      jump\t// out\n        /* \"#utility.yul\":10219:10452   */\n    tag_56:\n        /* \"#utility.yul\":10258:10261   */\n      0x00\n        /* \"#utility.yul\":10281:10305   */\n      tag_230\n        /* \"#utility.yul\":10299:10304   */\n      dup3\n        /* \"#utility.yul\":10281:10305   */\n      tag_180\n      jump\t// in\n    tag_230:\n        /* \"#utility.yul\":10272:10305   */\n      swap2\n      pop\n        /* \"#utility.yul\":10327:10393   */\n      0xffffffffffffffffffffffffffffffffffffffffffffffffffffffffffffffff\n        /* \"#utility.yul\":10320:10325   */\n      dup3\n        /* \"#utility.yul\":10317:10394   */\n      eq\n        /* \"#utility.yul\":10314:10417   */\n      iszero\n      tag_231\n      jumpi\n        /* \"#utility.yul\":10397:10415   */\n      tag_232\n      tag_233\n      jump\t// in\n    tag_232:\n        /* \"#utility.yul\":10314:10417   */\n    tag_231:\n        /* \"#utility.yul\":10444:10445   */\n      0x01\n        /* \"#utility.yul\":10437:10442   */\n      dup3\n        /* \"#utility.yul\":10433:10446   */\n      add\n        /* \"#utility.yul\":10426:10446   */\n      swap1\n      pop\n        /* \"#utility.yul\":10219:10452   */\n      swap2\n      swap1\n      pop\n      jump\t// out\n        /* \"#utility.yul\":10458:10638   */\n    tag_233:\n        /* \"#utility.yul\":10506:10583   */\n      0x4e487b7100000000000000000000000000000000000000000000000000000000\n        /* \"#utility.yul\":10503:10504   */\n      0x00\n        /* \"#utility.yul\":10496:10584   */\n      mstore\n        /* \"#utility.yul\":10603:10607   */\n      0x11\n        /* \"#utility.yul\":10600:10601   */\n      0x04\n        /* \"#utility.yul\":10593:10608   */\n      mstore\n        /* \"#utility.yul\":10627:10631   */\n      0x24\n        /* \"#utility.yul\":10624:10625   */\n      0x00\n        /* \"#utility.yul\":10617:10632   */\n      revert\n        /* \"#utility.yul\":10644:10824   */\n    tag_224:\n        /* \"#utility.yul\":10692:10769   */\n      0x4e487b7100000000000000000000000000000000000000000000000000000000\n        /* \"#utility.yul\":10689:10690   */\n      0x00\n        /* \"#utility.yul\":10682:10770   */\n      mstore\n        /* \"#utility.yul\":10789:10793   */\n      0x22\n        /* \"#utility.yul\":10786:10787   */\n      0x04\n        /* \"#utility.yul\":10779:10794   */\n      mstore\n        /* \"#utility.yul\":10813:10817   */\n      0x24\n        /* \"#utility.yul\":10810:10811   */\n      0x00\n        /* \"#utility.yul\":10803:10818   */\n      revert\n        /* \"#utility.yul\":10830:11010   */\n    tag_81:\n        /* \"#utility.yul\":10878:10955   */\n      0x4e487b7100000000000000000000000000000000000000000000000000000000\n        /* \"#utility.yul\":10875:10876   */\n      0x00\n        /* \"#utility.yul\":10868:10956   */\n      mstore\n        /* \"#utility.yul\":10975:10979   */\n      0x32\n        /* \"#utility.yul\":10972:10973   */\n      0x04\n        /* \"#utility.yul\":10965:10980   */\n      mstore\n        /* \"#utility.yul\":10999:11003   */\n      0x24\n        /* \"#utility.yul\":10996:10997   */\n      0x00\n        /* \"#utility.yul\":10989:11004   */\n      revert\n        /* \"#utility.yul\":11016:11196   */\n    tag_66:\n        /* \"#utility.yul\":11064:11141   */\n      0x4e487b7100000000000000000000000000000000000000000000000000000000\n        /* \"#utility.yul\":11061:11062   */\n      0x00\n        /* \"#utility.yul\":11054:11142   */\n      mstore\n        /* \"#utility.yul\":11161:11165   */\n      0x41\n        /* \"#utility.yul\":11158:11159   */\n      0x04\n        /* \"#utility.yul\":11151:11166   */\n      mstore\n        /* \"#utility.yul\":11185:11189   */\n      0x24\n        /* \"#utility.yul\":11182:11183   */\n      0x00\n        /* \"#utility.yul\":11175:11190   */\n      revert\n        /* \"#utility.yul\":11202:11319   */\n    tag_109:\n        /* \"#utility.yul\":11311:11312   */\n      0x00\n        /* \"#utility.yul\":11308:11309   */\n      dup1\n        /* \"#utility.yul\":11301:11313   */\n      revert\n        /* \"#utility.yul\":11325:11442   */\n    tag_102:\n        /* \"#utility.yul\":11434:11435   */\n      0x00\n        /* \"#utility.yul\":11431:11432   */\n      dup1\n        /* \"#utility.yul\":11424:11436   */\n      revert\n        /* \"#utility.yul\":11448:11565   */\n    tag_121:\n        /* \"#utility.yul\":11557:11558   */\n      0x00\n        /* \"#utility.yul\":11554:11555   */\n      dup1\n        /* \"#utility.yul\":11547:11559   */\n      revert\n        /* \"#utility.yul\":11571:11688   */\n    tag_118:\n        /* \"#utility.yul\":11680:11681   */\n      0x00\n        /* \"#utility.yul\":11677:11678   */\n      dup1\n        /* \"#utility.yul\":11670:11682   */\n      revert\n        /* \"#utility.yul\":11694:11796   */\n    tag_161:\n        /* \"#utility.yul\":11735:11741   */\n      0x00\n        /* \"#utility.yul\":11786:11788   */\n      0x1f\n        /* \"#utility.yul\":11782:11789   */\n      not\n        /* \"#utility.yul\":11777:11779   */\n      0x1f\n        /* \"#utility.yul\":11770:11775   */\n      dup4\n        /* \"#utility.yul\":11766:11780   */\n      add\n        /* \"#utility.yul\":11762:11790   */\n      and\n        /* \"#utility.yul\":11752:11790   */\n      swap1\n      pop\n        /* \"#utility.yul\":11694:11796   */\n      swap2\n      swap1\n      pop\n      jump\t// out\n        /* \"#utility.yul\":11802:12027   */\n    tag_173:\n        /* \"#utility.yul\":11942:11976   */\n      0x5061796d656e742073686f756c64206265207468652073756273637269707469\n        /* \"#utility.yul\":11938:11939   */\n      0x00\n        /* \"#utility.yul\":11930:11936   */\n      dup3\n        /* \"#utility.yul\":11926:11940   */\n      add\n        /* \"#utility.yul\":11919:11977   */\n      mstore\n        /* \"#utility.yul\":12011:12019   */\n      0x6f6e206665650000000000000000000000000000000000000000000000000000\n        /* \"#utility.yul\":12006:12008   */\n      0x20\n        /* \"#utility.yul\":11998:12004   */\n      dup3\n        /* \"#utility.yul\":11994:12009   */\n      add\n        /* \"#utility.yul\":11987:12020   */\n      mstore\n        /* \"#utility.yul\":11802:12027   */\n      pop\n      jump\t// out\n        /* \"#utility.yul\":12033:12155   */\n    tag_114:\n        /* \"#utility.yul\":12106:12130   */\n      tag_245\n        /* \"#utility.yul\":12124:12129   */\n      dup2\n        /* \"#utility.yul\":12106:12130   */\n      tag_180\n      jump\t// in\n    tag_245:\n        /* \"#utility.yul\":12099:12104   */\n      dup2\n        /* \"#utility.yul\":12096:12131   */\n      eq\n        /* \"#utility.yul\":12086:12149   */\n      tag_246\n      jumpi\n        /* \"#utility.yul\":12145:12146   */\n      0x00\n        /* \"#utility.yul\":12142:12143   */\n      dup1\n        /* \"#utility.yul\":12135:12147   */\n      revert\n        /* \"#utility.yul\":12086:12149   */\n    tag_246:\n        /* \"#utility.yul\":12033:12155   */\n      pop\n      jump\t// out\n\n    auxdata: 0xa264697066735822122023be21a3962f937621465a456fafdd59671abe8668bc7522fa13a71052fd047464736f6c63430008070033\n}\n",
				"bytecode": {
					"linkReferences": {},
					"object": "6080604052600060015534801561001557600080fd5b50604051610dc6380380610dc68339818101604052810190610037919061009a565b33600260006101000a81548173ffffffffffffffffffffffffffffffffffffffff021916908373ffffffffffffffffffffffffffffffffffffffff16021790555080600381905550506100ed565b600081519050610094816100d6565b92915050565b6000602082840312156100b0576100af6100d1565b5b60006100be84828501610085565b91505092915050565b6000819050919050565b600080fd5b6100df816100c7565b81146100ea57600080fd5b50565b610cca806100fc6000396000f3fe6080604052600436106100745760003560e01c806359221a681161004e57806359221a681461013a57806382d69b6214610178578063a6c3e6b9146101a3578063ef352bbe146101ce57610075565b80630aa0a175146100bb57806317e703ab146100e65780632edd4fa51461011157610075565b5b60035434146100b9576040517f08c379a00000000000000000000000000000000000000000000000000000000081526004016100b09061092c565b60405180910390fd5b005b3480156100c757600080fd5b506100d06101f9565b6040516100dd919061094c565b60405180910390f35b3480156100f257600080fd5b506100fb6101ff565b604051610108919061094c565b60405180910390f35b34801561011d57600080fd5b50610138600480360381019061013391906106c1565b610209565b005b34801561014657600080fd5b50610161600480360381019061015c919061070a565b6102ca565b60405161016f9291906108fc565b60405180910390f35b34801561018457600080fd5b5061018d610396565b60405161019a91906108da565b60405180910390f35b3480156101af57600080fd5b506101b861053d565b6040516101c591906108bf565b60405180910390f35b3480156101da57600080fd5b506101e3610563565b6040516101f0919061094c565b60405180910390f35b60035481565b6000600154905090565b60405180604001604052808281526020013373ffffffffffffffffffffffffffffffffffffffff1681525060008060015481526020019081526020016000206000820151816000019080519060200190610264929190610569565b5060208201518160010160006101000a81548173ffffffffffffffffffffffffffffffffffffffff021916908373ffffffffffffffffffffffffffffffffffffffff160217905550905050600160008154809291906102c290610b04565b919050555050565b60006020528060005260406000206000915090508060000180546102ed90610aa1565b80601f016020809104026020016040519081016040528092919081815260200182805461031990610aa1565b80156103665780601f1061033b57610100808354040283529160200191610366565b820191906000526020600020905b81548152906001019060200180831161034957829003601f168201915b5050505050908060010160009054906101000a900473ffffffffffffffffffffffffffffffffffffffff16905082565b6060600060015467ffffffffffffffff8111156103b6576103b5610bda565b5b6040519080825280602002602001820160405280156103ef57816020015b6103dc6105ef565b8152602001906001900390816103d45790505b50905060005b6001548110156105355760008082815260200190815260200160002060405180604001604052908160008201805461042c90610aa1565b80601f016020809104026020016040519081016040528092919081815260200182805461045890610aa1565b80156104a55780601f1061047a576101008083540402835291602001916104a5565b820191906000526020600020905b81548152906001019060200180831161048857829003601f168201915b505050505081526020016001820160009054906101000a900473ffffffffffffffffffffffffffffffffffffffff1673ffffffffffffffffffffffffffffffffffffffff1673ffffffffffffffffffffffffffffffffffffffff168152505082828151811061051757610516610bab565b5b6020026020010181905250808061052d90610b04565b9150506103f5565b508091505090565b600260009054906101000a900473ffffffffffffffffffffffffffffffffffffffff1681565b60015481565b82805461057590610aa1565b90600052602060002090601f01602090048101928261059757600085556105de565b82601f106105b057805160ff19168380011785556105de565b828001600101855582156105de579182015b828111156105dd5782518255916020019190600101906105c2565b5b5090506105eb919061061f565b5090565b604051806040016040528060608152602001600073ffffffffffffffffffffffffffffffffffffffff1681525090565b5b80821115610638576000816000905550600101610620565b5090565b600061064f61064a8461098c565b610967565b90508281526020810184848401111561066b5761066a610c0e565b5b610676848285610a5f565b509392505050565b600082601f83011261069357610692610c09565b5b81356106a384826020860161063c565b91505092915050565b6000813590506106bb81610c7d565b92915050565b6000602082840312156106d7576106d6610c18565b5b600082013567ffffffffffffffff8111156106f5576106f4610c13565b5b6107018482850161067e565b91505092915050565b6000602082840312156107205761071f610c18565b5b600061072e848285016106ac565b91505092915050565b60006107438383610873565b905092915050565b61075481610a23565b82525050565b61076381610a23565b82525050565b6000610774826109cd565b61077e81856109f0565b935083602082028501610790856109bd565b8060005b858110156107cc57848403895281516107ad8582610737565b94506107b8836109e3565b925060208a01995050600181019050610794565b50829750879550505050505092915050565b60006107e9826109d8565b6107f38185610a01565b9350610803818560208601610a6e565b61080c81610c1d565b840191505092915050565b6000610822826109d8565b61082c8185610a12565b935061083c818560208601610a6e565b61084581610c1d565b840191505092915050565b600061085d602683610a12565b915061086882610c2e565b604082019050919050565b6000604083016000830151848203600086015261089082826107de565b91505060208301516108a5602086018261074b565b508091505092915050565b6108b981610a55565b82525050565b60006020820190506108d4600083018461075a565b92915050565b600060208201905081810360008301526108f48184610769565b905092915050565b600060408201905081810360008301526109168185610817565b9050610925602083018461075a565b9392505050565b6000602082019050818103600083015261094581610850565b9050919050565b600060208201905061096160008301846108b0565b92915050565b6000610971610982565b905061097d8282610ad3565b919050565b6000604051905090565b600067ffffffffffffffff8211156109a7576109a6610bda565b5b6109b082610c1d565b9050602081019050919050565b6000819050602082019050919050565b600081519050919050565b600081519050919050565b6000602082019050919050565b600082825260208201905092915050565b600082825260208201905092915050565b600082825260208201905092915050565b6000610a2e82610a35565b9050919050565b600073ffffffffffffffffffffffffffffffffffffffff82169050919050565b6000819050919050565b82818337600083830152505050565b60005b83811015610a8c578082015181840152602081019050610a71565b83811115610a9b576000848401525b50505050565b60006002820490506001821680610ab957607f821691505b60208210811415610acd57610acc610b7c565b5b50919050565b610adc82610c1d565b810181811067ffffffffffffffff82111715610afb57610afa610bda565b5b80604052505050565b6000610b0f82610a55565b91507fffffffffffffffffffffffffffffffffffffffffffffffffffffffffffffffff821415610b4257610b41610b4d565b5b600182019050919050565b7f4e487b7100000000000000000000000000000000000000000000000000000000600052601160045260246000fd5b7f4e487b7100000000000000000000000000000000000000000000000000000000600052602260045260246000fd5b7f4e487b7100000000000000000000000000000000000000000000000000000000600052603260045260246000fd5b7f4e487b7100000000000000000000000000000000000000000000000000000000600052604160045260246000fd5b600080fd5b600080fd5b600080fd5b600080fd5b6000601f19601f8301169050919050565b7f5061796d656e742073686f756c6420626520746865207375627363726970746960008201527f6f6e206665650000000000000000000000000000000000000000000000000000602082015250565b610c8681610a55565b8114610c9157600080fd5b5056fea264697066735822122023be21a3962f937621465a456fafdd59671abe8668bc7522fa13a71052fd047464736f6c63430008070033",
					"opcodes": "PUSH1 0x80 PUSH1 0x40 MSTORE PUSH1 0x0 PUSH1 0x1 SSTORE CALLVALUE DUP1 ISZERO PUSH2 0x15 JUMPI PUSH1 0x0 DUP1 REVERT JUMPDEST POP PUSH1 0x40 MLOAD PUSH2 0xDC6 CODESIZE SUB DUP1 PUSH2 0xDC6 DUP4 CODECOPY DUP2 DUP2 ADD PUSH1 0x40 MSTORE DUP2 ADD SWAP1 PUSH2 0x37 SWAP2 SWAP1 PUSH2 0x9A JUMP JUMPDEST CALLER PUSH1 0x2 PUSH1 0x0 PUSH2 0x100 EXP DUP2 SLOAD DUP2 PUSH20 0xFFFFFFFFFFFFFFFFFFFFFFFFFFFFFFFFFFFFFFFF MUL NOT AND SWAP1 DUP4 PUSH20 0xFFFFFFFFFFFFFFFFFFFFFFFFFFFFFFFFFFFFFFFF AND MUL OR SWAP1 SSTORE POP DUP1 PUSH1 0x3 DUP2 SWAP1 SSTORE POP POP PUSH2 0xED JUMP JUMPDEST PUSH1 0x0 DUP2 MLOAD SWAP1 POP PUSH2 0x94 DUP2 PUSH2 0xD6 JUMP JUMPDEST SWAP3 SWAP2 POP POP JUMP JUMPDEST PUSH1 0x0 PUSH1 0x20 DUP3 DUP5 SUB SLT ISZERO PUSH2 0xB0 JUMPI PUSH2 0xAF PUSH2 0xD1 JUMP JUMPDEST JUMPDEST PUSH1 0x0 PUSH2 0xBE DUP5 DUP3 DUP6 ADD PUSH2 0x85 JUMP JUMPDEST SWAP2 POP POP SWAP3 SWAP2 POP POP JUMP JUMPDEST PUSH1 0x0 DUP2 SWAP1 POP SWAP2 SWAP1 POP JUMP JUMPDEST PUSH1 0x0 DUP1 REVERT JUMPDEST PUSH2 0xDF DUP2 PUSH2 0xC7 JUMP JUMPDEST DUP2 EQ PUSH2 0xEA JUMPI PUSH1 0x0 DUP1 REVERT JUMPDEST POP JUMP JUMPDEST PUSH2 0xCCA DUP1 PUSH2 0xFC PUSH1 0x0 CODECOPY PUSH1 0x0 RETURN INVALID PUSH1 0x80 PUSH1 0x40 MSTORE PUSH1 0x4 CALLDATASIZE LT PUSH2 0x74 JUMPI PUSH1 0x0 CALLDATALOAD PUSH1 0xE0 SHR DUP1 PUSH4 0x59221A68 GT PUSH2 0x4E JUMPI DUP1 PUSH4 0x59221A68 EQ PUSH2 0x13A JUMPI DUP1 PUSH4 0x82D69B62 EQ PUSH2 0x178 JUMPI DUP1 PUSH4 0xA6C3E6B9 EQ PUSH2 0x1A3 JUMPI DUP1 PUSH4 0xEF352BBE EQ PUSH2 0x1CE JUMPI PUSH2 0x75 JUMP JUMPDEST DUP1 PUSH4 0xAA0A175 EQ PUSH2 0xBB JUMPI DUP1 PUSH4 0x17E703AB EQ PUSH2 0xE6 JUMPI DUP1 PUSH4 0x2EDD4FA5 EQ PUSH2 0x111 JUMPI PUSH2 0x75 JUMP JUMPDEST JUMPDEST PUSH1 0x3 SLOAD CALLVALUE EQ PUSH2 0xB9 JUMPI PUSH1 0x40 MLOAD PUSH32 0x8C379A000000000000000000000000000000000000000000000000000000000 DUP2 MSTORE PUSH1 0x4 ADD PUSH2 0xB0 SWAP1 PUSH2 0x92C JUMP JUMPDEST PUSH1 0x40 MLOAD DUP1 SWAP2 SUB SWAP1 REVERT JUMPDEST STOP JUMPDEST CALLVALUE DUP1 ISZERO PUSH2 0xC7 JUMPI PUSH1 0x0 DUP1 REVERT JUMPDEST POP PUSH2 0xD0 PUSH2 0x1F9 JUMP JUMPDEST PUSH1 0x40 MLOAD PUSH2 0xDD SWAP2 SWAP1 PUSH2 0x94C JUMP JUMPDEST PUSH1 0x40 MLOAD DUP1 SWAP2 SUB SWAP1 RETURN JUMPDEST CALLVALUE DUP1 ISZERO PUSH2 0xF2 JUMPI PUSH1 0x0 DUP1 REVERT JUMPDEST POP PUSH2 0xFB PUSH2 0x1FF JUMP JUMPDEST PUSH1 0x40 MLOAD PUSH2 0x108 SWAP2 SWAP1 PUSH2 0x94C JUMP JUMPDEST PUSH1 0x40 MLOAD DUP1 SWAP2 SUB SWAP1 RETURN JUMPDEST CALLVALUE DUP1 ISZERO PUSH2 0x11D JUMPI PUSH1 0x0 DUP1 REVERT JUMPDEST POP PUSH2 0x138 PUSH1 0x4 DUP1 CALLDATASIZE SUB DUP2 ADD SWAP1 PUSH2 0x133 SWAP2 SWAP1 PUSH2 0x6C1 JUMP JUMPDEST PUSH2 0x209 JUMP JUMPDEST STOP JUMPDEST CALLVALUE DUP1 ISZERO PUSH2 0x146 JUMPI PUSH1 0x0 DUP1 REVERT JUMPDEST POP PUSH2 0x161 PUSH1 0x4 DUP1 CALLDATASIZE SUB DUP2 ADD SWAP1 PUSH2 0x15C SWAP2 SWAP1 PUSH2 0x70A JUMP JUMPDEST PUSH2 0x2CA JUMP JUMPDEST PUSH1 0x40 MLOAD PUSH2 0x16F SWAP3 SWAP2 SWAP1 PUSH2 0x8FC JUMP JUMPDEST PUSH1 0x40 MLOAD DUP1 SWAP2 SUB SWAP1 RETURN JUMPDEST CALLVALUE DUP1 ISZERO PUSH2 0x184 JUMPI PUSH1 0x0 DUP1 REVERT JUMPDEST POP PUSH2 0x18D PUSH2 0x396 JUMP JUMPDEST PUSH1 0x40 MLOAD PUSH2 0x19A SWAP2 SWAP1 PUSH2 0x8DA JUMP JUMPDEST PUSH1 0x40 MLOAD DUP1 SWAP2 SUB SWAP1 RETURN JUMPDEST CALLVALUE DUP1 ISZERO PUSH2 0x1AF JUMPI PUSH1 0x0 DUP1 REVERT JUMPDEST POP PUSH2 0x1B8 PUSH2 0x53D JUMP JUMPDEST PUSH1 0x40 MLOAD PUSH2 0x1C5 SWAP2 SWAP1 PUSH2 0x8BF JUMP JUMPDEST PUSH1 0x40 MLOAD DUP1 SWAP2 SUB SWAP1 RETURN JUMPDEST CALLVALUE DUP1 ISZERO PUSH2 0x1DA JUMPI PUSH1 0x0 DUP1 REVERT JUMPDEST POP PUSH2 0x1E3 PUSH2 0x563 JUMP JUMPDEST PUSH1 0x40 MLOAD PUSH2 0x1F0 SWAP2 SWAP1 PUSH2 0x94C JUMP JUMPDEST PUSH1 0x40 MLOAD DUP1 SWAP2 SUB SWAP1 RETURN JUMPDEST PUSH1 0x3 SLOAD DUP2 JUMP JUMPDEST PUSH1 0x0 PUSH1 0x1 SLOAD SWAP1 POP SWAP1 JUMP JUMPDEST PUSH1 0x40 MLOAD DUP1 PUSH1 0x40 ADD PUSH1 0x40 MSTORE DUP1 DUP3 DUP2 MSTORE PUSH1 0x20 ADD CALLER PUSH20 0xFFFFFFFFFFFFFFFFFFFFFFFFFFFFFFFFFFFFFFFF AND DUP2 MSTORE POP PUSH1 0x0 DUP1 PUSH1 0x1 SLOAD DUP2 MSTORE PUSH1 0x20 ADD SWAP1 DUP2 MSTORE PUSH1 0x20 ADD PUSH1 0x0 KECCAK256 PUSH1 0x0 DUP3 ADD MLOAD DUP2 PUSH1 0x0 ADD SWAP1 DUP1 MLOAD SWAP1 PUSH1 0x20 ADD SWAP1 PUSH2 0x264 SWAP3 SWAP2 SWAP1 PUSH2 0x569 JUMP JUMPDEST POP PUSH1 0x20 DUP3 ADD MLOAD DUP2 PUSH1 0x1 ADD PUSH1 0x0 PUSH2 0x100 EXP DUP2 SLOAD DUP2 PUSH20 0xFFFFFFFFFFFFFFFFFFFFFFFFFFFFFFFFFFFFFFFF MUL NOT AND SWAP1 DUP4 PUSH20 0xFFFFFFFFFFFFFFFFFFFFFFFFFFFFFFFFFFFFFFFF AND MUL OR SWAP1 SSTORE POP SWAP1 POP POP PUSH1 0x1 PUSH1 0x0 DUP2 SLOAD DUP1 SWAP3 SWAP2 SWAP1 PUSH2 0x2C2 SWAP1 PUSH2 0xB04 JUMP JUMPDEST SWAP2 SWAP1 POP SSTORE POP POP JUMP JUMPDEST PUSH1 0x0 PUSH1 0x20 MSTORE DUP1 PUSH1 0x0 MSTORE PUSH1 0x40 PUSH1 0x0 KECCAK256 PUSH1 0x0 SWAP2 POP SWAP1 POP DUP1 PUSH1 0x0 ADD DUP1 SLOAD PUSH2 0x2ED SWAP1 PUSH2 0xAA1 JUMP JUMPDEST DUP1 PUSH1 0x1F ADD PUSH1 0x20 DUP1 SWAP2 DIV MUL PUSH1 0x20 ADD PUSH1 0x40 MLOAD SWAP1 DUP2 ADD PUSH1 0x40 MSTORE DUP1 SWAP3 SWAP2 SWAP1 DUP2 DUP2 MSTORE PUSH1 0x20 ADD DUP3 DUP1 SLOAD PUSH2 0x319 SWAP1 PUSH2 0xAA1 JUMP JUMPDEST DUP1 ISZERO PUSH2 0x366 JUMPI DUP1 PUSH1 0x1F LT PUSH2 0x33B JUMPI PUSH2 0x100 DUP1 DUP4 SLOAD DIV MUL DUP4 MSTORE SWAP2 PUSH1 0x20 ADD SWAP2 PUSH2 0x366 JUMP JUMPDEST DUP3 ADD SWAP2 SWAP1 PUSH1 0x0 MSTORE PUSH1 0x20 PUSH1 0x0 KECCAK256 SWAP1 JUMPDEST DUP2 SLOAD DUP2 MSTORE SWAP1 PUSH1 0x1 ADD SWAP1 PUSH1 0x20 ADD DUP1 DUP4 GT PUSH2 0x349 JUMPI DUP3 SWAP1 SUB PUSH1 0x1F AND DUP3 ADD SWAP2 JUMPDEST POP POP POP POP POP SWAP1 DUP1 PUSH1 0x1 ADD PUSH1 0x0 SWAP1 SLOAD SWAP1 PUSH2 0x100 EXP SWAP1 DIV PUSH20 0xFFFFFFFFFFFFFFFFFFFFFFFFFFFFFFFFFFFFFFFF AND SWAP1 POP DUP3 JUMP JUMPDEST PUSH1 0x60 PUSH1 0x0 PUSH1 0x1 SLOAD PUSH8 0xFFFFFFFFFFFFFFFF DUP2 GT ISZERO PUSH2 0x3B6 JUMPI PUSH2 0x3B5 PUSH2 0xBDA JUMP JUMPDEST JUMPDEST PUSH1 0x40 MLOAD SWAP1 DUP1 DUP3 MSTORE DUP1 PUSH1 0x20 MUL PUSH1 0x20 ADD DUP3 ADD PUSH1 0x40 MSTORE DUP1 ISZERO PUSH2 0x3EF JUMPI DUP2 PUSH1 0x20 ADD JUMPDEST PUSH2 0x3DC PUSH2 0x5EF JUMP JUMPDEST DUP2 MSTORE PUSH1 0x20 ADD SWAP1 PUSH1 0x1 SWAP1 SUB SWAP1 DUP2 PUSH2 0x3D4 JUMPI SWAP1 POP JUMPDEST POP SWAP1 POP PUSH1 0x0 JUMPDEST PUSH1 0x1 SLOAD DUP2 LT ISZERO PUSH2 0x535 JUMPI PUSH1 0x0 DUP1 DUP3 DUP2 MSTORE PUSH1 0x20 ADD SWAP1 DUP2 MSTORE PUSH1 0x20 ADD PUSH1 0x0 KECCAK256 PUSH1 0x40 MLOAD DUP1 PUSH1 0x40 ADD PUSH1 0x40 MSTORE SWAP1 DUP2 PUSH1 0x0 DUP3 ADD DUP1 SLOAD PUSH2 0x42C SWAP1 PUSH2 0xAA1 JUMP JUMPDEST DUP1 PUSH1 0x1F ADD PUSH1 0x20 DUP1 SWAP2 DIV MUL PUSH1 0x20 ADD PUSH1 0x40 MLOAD SWAP1 DUP2 ADD PUSH1 0x40 MSTORE DUP1 SWAP3 SWAP2 SWAP1 DUP2 DUP2 MSTORE PUSH1 0x20 ADD DUP3 DUP1 SLOAD PUSH2 0x458 SWAP1 PUSH2 0xAA1 JUMP JUMPDEST DUP1 ISZERO PUSH2 0x4A5 JUMPI DUP1 PUSH1 0x1F LT PUSH2 0x47A JUMPI PUSH2 0x100 DUP1 DUP4 SLOAD DIV MUL DUP4 MSTORE SWAP2 PUSH1 0x20 ADD SWAP2 PUSH2 0x4A5 JUMP JUMPDEST DUP3 ADD SWAP2 SWAP1 PUSH1 0x0 MSTORE PUSH1 0x20 PUSH1 0x0 KECCAK256 SWAP1 JUMPDEST DUP2 SLOAD DUP2 MSTORE SWAP1 PUSH1 0x1 ADD SWAP1 PUSH1 0x20 ADD DUP1 DUP4 GT PUSH2 0x488 JUMPI DUP3 SWAP1 SUB PUSH1 0x1F AND DUP3 ADD SWAP2 JUMPDEST POP POP POP POP POP DUP2 MSTORE PUSH1 0x20 ADD PUSH1 0x1 DUP3 ADD PUSH1 0x0 SWAP1 SLOAD SWAP1 PUSH2 0x100 EXP SWAP1 DIV PUSH20 0xFFFFFFFFFFFFFFFFFFFFFFFFFFFFFFFFFFFFFFFF AND PUSH20 0xFFFFFFFFFFFFFFFFFFFFFFFFFFFFFFFFFFFFFFFF AND PUSH20 0xFFFFFFFFFFFFFFFFFFFFFFFFFFFFFFFFFFFFFFFF AND DUP2 MSTORE POP POP DUP3 DUP3 DUP2 MLOAD DUP2 LT PUSH2 0x517 JUMPI PUSH2 0x516 PUSH2 0xBAB JUMP JUMPDEST JUMPDEST PUSH1 0x20 MUL PUSH1 0x20 ADD ADD DUP2 SWAP1 MSTORE POP DUP1 DUP1 PUSH2 0x52D SWAP1 PUSH2 0xB04 JUMP JUMPDEST SWAP2 POP POP PUSH2 0x3F5 JUMP JUMPDEST POP DUP1 SWAP2 POP POP SWAP1 JUMP JUMPDEST PUSH1 0x2 PUSH1 0x0 SWAP1 SLOAD SWAP1 PUSH2 0x100 EXP SWAP1 DIV PUSH20 0xFFFFFFFFFFFFFFFFFFFFFFFFFFFFFFFFFFFFFFFF AND DUP2 JUMP JUMPDEST PUSH1 0x1 SLOAD DUP2 JUMP JUMPDEST DUP3 DUP1 SLOAD PUSH2 0x575 SWAP1 PUSH2 0xAA1 JUMP JUMPDEST SWAP1 PUSH1 0x0 MSTORE PUSH1 0x20 PUSH1 0x0 KECCAK256 SWAP1 PUSH1 0x1F ADD PUSH1 0x20 SWAP1 DIV DUP2 ADD SWAP3 DUP3 PUSH2 0x597 JUMPI PUSH1 0x0 DUP6 SSTORE PUSH2 0x5DE JUMP JUMPDEST DUP3 PUSH1 0x1F LT PUSH2 0x5B0 JUMPI DUP1 MLOAD PUSH1 0xFF NOT AND DUP4 DUP1 ADD OR DUP6 SSTORE PUSH2 0x5DE JUMP JUMPDEST DUP3 DUP1 ADD PUSH1 0x1 ADD DUP6 SSTORE DUP3 ISZERO PUSH2 0x5DE JUMPI SWAP2 DUP3 ADD JUMPDEST DUP3 DUP2 GT ISZERO PUSH2 0x5DD JUMPI DUP3 MLOAD DUP3 SSTORE SWAP2 PUSH1 0x20 ADD SWAP2 SWAP1 PUSH1 0x1 ADD SWAP1 PUSH2 0x5C2 JUMP JUMPDEST JUMPDEST POP SWAP1 POP PUSH2 0x5EB SWAP2 SWAP1 PUSH2 0x61F JUMP JUMPDEST POP SWAP1 JUMP JUMPDEST PUSH1 0x40 MLOAD DUP1 PUSH1 0x40 ADD PUSH1 0x40 MSTORE DUP1 PUSH1 0x60 DUP2 MSTORE PUSH1 0x20 ADD PUSH1 0x0 PUSH20 0xFFFFFFFFFFFFFFFFFFFFFFFFFFFFFFFFFFFFFFFF AND DUP2 MSTORE POP SWAP1 JUMP JUMPDEST JUMPDEST DUP1 DUP3 GT ISZERO PUSH2 0x638 JUMPI PUSH1 0x0 DUP2 PUSH1 0x0 SWAP1 SSTORE POP PUSH1 0x1 ADD PUSH2 0x620 JUMP JUMPDEST POP SWAP1 JUMP JUMPDEST PUSH1 0x0 PUSH2 0x64F PUSH2 0x64A DUP5 PUSH2 0x98C JUMP JUMPDEST PUSH2 0x967 JUMP JUMPDEST SWAP1 POP DUP3 DUP2 MSTORE PUSH1 0x20 DUP2 ADD DUP5 DUP5 DUP5 ADD GT ISZERO PUSH2 0x66B JUMPI PUSH2 0x66A PUSH2 0xC0E JUMP JUMPDEST JUMPDEST PUSH2 0x676 DUP5 DUP3 DUP6 PUSH2 0xA5F JUMP JUMPDEST POP SWAP4 SWAP3 POP POP POP JUMP JUMPDEST PUSH1 0x0 DUP3 PUSH1 0x1F DUP4 ADD SLT PUSH2 0x693 JUMPI PUSH2 0x692 PUSH2 0xC09 JUMP JUMPDEST JUMPDEST DUP2 CALLDATALOAD PUSH2 0x6A3 DUP5 DUP3 PUSH1 0x20 DUP7 ADD PUSH2 0x63C JUMP JUMPDEST SWAP2 POP POP SWAP3 SWAP2 POP POP JUMP JUMPDEST PUSH1 0x0 DUP2 CALLDATALOAD SWAP1 POP PUSH2 0x6BB DUP2 PUSH2 0xC7D JUMP JUMPDEST SWAP3 SWAP2 POP POP JUMP JUMPDEST PUSH1 0x0 PUSH1 0x20 DUP3 DUP5 SUB SLT ISZERO PUSH2 0x6D7 JUMPI PUSH2 0x6D6 PUSH2 0xC18 JUMP JUMPDEST JUMPDEST PUSH1 0x0 DUP3 ADD CALLDATALOAD PUSH8 0xFFFFFFFFFFFFFFFF DUP2 GT ISZERO PUSH2 0x6F5 JUMPI PUSH2 0x6F4 PUSH2 0xC13 JUMP JUMPDEST JUMPDEST PUSH2 0x701 DUP5 DUP3 DUP6 ADD PUSH2 0x67E JUMP JUMPDEST SWAP2 POP POP SWAP3 SWAP2 POP POP JUMP JUMPDEST PUSH1 0x0 PUSH1 0x20 DUP3 DUP5 SUB SLT ISZERO PUSH2 0x720 JUMPI PUSH2 0x71F PUSH2 0xC18 JUMP JUMPDEST JUMPDEST PUSH1 0x0 PUSH2 0x72E DUP5 DUP3 DUP6 ADD PUSH2 0x6AC JUMP JUMPDEST SWAP2 POP POP SWAP3 SWAP2 POP POP JUMP JUMPDEST PUSH1 0x0 PUSH2 0x743 DUP4 DUP4 PUSH2 0x873 JUMP JUMPDEST SWAP1 POP SWAP3 SWAP2 POP POP JUMP JUMPDEST PUSH2 0x754 DUP2 PUSH2 0xA23 JUMP JUMPDEST DUP3 MSTORE POP POP JUMP JUMPDEST PUSH2 0x763 DUP2 PUSH2 0xA23 JUMP JUMPDEST DUP3 MSTORE POP POP JUMP JUMPDEST PUSH1 0x0 PUSH2 0x774 DUP3 PUSH2 0x9CD JUMP JUMPDEST PUSH2 0x77E DUP2 DUP6 PUSH2 0x9F0 JUMP JUMPDEST SWAP4 POP DUP4 PUSH1 0x20 DUP3 MUL DUP6 ADD PUSH2 0x790 DUP6 PUSH2 0x9BD JUMP JUMPDEST DUP1 PUSH1 0x0 JUMPDEST DUP6 DUP2 LT ISZERO PUSH2 0x7CC JUMPI DUP5 DUP5 SUB DUP10 MSTORE DUP2 MLOAD PUSH2 0x7AD DUP6 DUP3 PUSH2 0x737 JUMP JUMPDEST SWAP5 POP PUSH2 0x7B8 DUP4 PUSH2 0x9E3 JUMP JUMPDEST SWAP3 POP PUSH1 0x20 DUP11 ADD SWAP10 POP POP PUSH1 0x1 DUP2 ADD SWAP1 POP PUSH2 0x794 JUMP JUMPDEST POP DUP3 SWAP8 POP DUP8 SWAP6 POP POP POP POP POP POP SWAP3 SWAP2 POP POP JUMP JUMPDEST PUSH1 0x0 PUSH2 0x7E9 DUP3 PUSH2 0x9D8 JUMP JUMPDEST PUSH2 0x7F3 DUP2 DUP6 PUSH2 0xA01 JUMP JUMPDEST SWAP4 POP PUSH2 0x803 DUP2 DUP6 PUSH1 0x20 DUP7 ADD PUSH2 0xA6E JUMP JUMPDEST PUSH2 0x80C DUP2 PUSH2 0xC1D JUMP JUMPDEST DUP5 ADD SWAP2 POP POP SWAP3 SWAP2 POP POP JUMP JUMPDEST PUSH1 0x0 PUSH2 0x822 DUP3 PUSH2 0x9D8 JUMP JUMPDEST PUSH2 0x82C DUP2 DUP6 PUSH2 0xA12 JUMP JUMPDEST SWAP4 POP PUSH2 0x83C DUP2 DUP6 PUSH1 0x20 DUP7 ADD PUSH2 0xA6E JUMP JUMPDEST PUSH2 0x845 DUP2 PUSH2 0xC1D JUMP JUMPDEST DUP5 ADD SWAP2 POP POP SWAP3 SWAP2 POP POP JUMP JUMPDEST PUSH1 0x0 PUSH2 0x85D PUSH1 0x26 DUP4 PUSH2 0xA12 JUMP JUMPDEST SWAP2 POP PUSH2 0x868 DUP3 PUSH2 0xC2E JUMP JUMPDEST PUSH1 0x40 DUP3 ADD SWAP1 POP SWAP2 SWAP1 POP JUMP JUMPDEST PUSH1 0x0 PUSH1 0x40 DUP4 ADD PUSH1 0x0 DUP4 ADD MLOAD DUP5 DUP3 SUB PUSH1 0x0 DUP7 ADD MSTORE PUSH2 0x890 DUP3 DUP3 PUSH2 0x7DE JUMP JUMPDEST SWAP2 POP POP PUSH1 0x20 DUP4 ADD MLOAD PUSH2 0x8A5 PUSH1 0x20 DUP7 ADD DUP3 PUSH2 0x74B JUMP JUMPDEST POP DUP1 SWAP2 POP POP SWAP3 SWAP2 POP POP JUMP JUMPDEST PUSH2 0x8B9 DUP2 PUSH2 0xA55 JUMP JUMPDEST DUP3 MSTORE POP POP JUMP JUMPDEST PUSH1 0x0 PUSH1 0x20 DUP3 ADD SWAP1 POP PUSH2 0x8D4 PUSH1 0x0 DUP4 ADD DUP5 PUSH2 0x75A JUMP JUMPDEST SWAP3 SWAP2 POP POP JUMP JUMPDEST PUSH1 0x0 PUSH1 0x20 DUP3 ADD SWAP1 POP DUP2 DUP2 SUB PUSH1 0x0 DUP4 ADD MSTORE PUSH2 0x8F4 DUP2 DUP5 PUSH2 0x769 JUMP JUMPDEST SWAP1 POP SWAP3 SWAP2 POP POP JUMP JUMPDEST PUSH1 0x0 PUSH1 0x40 DUP3 ADD SWAP1 POP DUP2 DUP2 SUB PUSH1 0x0 DUP4 ADD MSTORE PUSH2 0x916 DUP2 DUP6 PUSH2 0x817 JUMP JUMPDEST SWAP1 POP PUSH2 0x925 PUSH1 0x20 DUP4 ADD DUP5 PUSH2 0x75A JUMP JUMPDEST SWAP4 SWAP3 POP POP POP JUMP JUMPDEST PUSH1 0x0 PUSH1 0x20 DUP3 ADD SWAP1 POP DUP2 DUP2 SUB PUSH1 0x0 DUP4 ADD MSTORE PUSH2 0x945 DUP2 PUSH2 0x850 JUMP JUMPDEST SWAP1 POP SWAP2 SWAP1 POP JUMP JUMPDEST PUSH1 0x0 PUSH1 0x20 DUP3 ADD SWAP1 POP PUSH2 0x961 PUSH1 0x0 DUP4 ADD DUP5 PUSH2 0x8B0 JUMP JUMPDEST SWAP3 SWAP2 POP POP JUMP JUMPDEST PUSH1 0x0 PUSH2 0x971 PUSH2 0x982 JUMP JUMPDEST SWAP1 POP PUSH2 0x97D DUP3 DUP3 PUSH2 0xAD3 JUMP JUMPDEST SWAP2 SWAP1 POP JUMP JUMPDEST PUSH1 0x0 PUSH1 0x40 MLOAD SWAP1 POP SWAP1 JUMP JUMPDEST PUSH1 0x0 PUSH8 0xFFFFFFFFFFFFFFFF DUP3 GT ISZERO PUSH2 0x9A7 JUMPI PUSH2 0x9A6 PUSH2 0xBDA JUMP JUMPDEST JUMPDEST PUSH2 0x9B0 DUP3 PUSH2 0xC1D JUMP JUMPDEST SWAP1 POP PUSH1 0x20 DUP2 ADD SWAP1 POP SWAP2 SWAP1 POP JUMP JUMPDEST PUSH1 0x0 DUP2 SWAP1 POP PUSH1 0x20 DUP3 ADD SWAP1 POP SWAP2 SWAP1 POP JUMP JUMPDEST PUSH1 0x0 DUP2 MLOAD SWAP1 POP SWAP2 SWAP1 POP JUMP JUMPDEST PUSH1 0x0 DUP2 MLOAD SWAP1 POP SWAP2 SWAP1 POP JUMP JUMPDEST PUSH1 0x0 PUSH1 0x20 DUP3 ADD SWAP1 POP SWAP2 SWAP1 POP JUMP JUMPDEST PUSH1 0x0 DUP3 DUP3 MSTORE PUSH1 0x20 DUP3 ADD SWAP1 POP SWAP3 SWAP2 POP POP JUMP JUMPDEST PUSH1 0x0 DUP3 DUP3 MSTORE PUSH1 0x20 DUP3 ADD SWAP1 POP SWAP3 SWAP2 POP POP JUMP JUMPDEST PUSH1 0x0 DUP3 DUP3 MSTORE PUSH1 0x20 DUP3 ADD SWAP1 POP SWAP3 SWAP2 POP POP JUMP JUMPDEST PUSH1 0x0 PUSH2 0xA2E DUP3 PUSH2 0xA35 JUMP JUMPDEST SWAP1 POP SWAP2 SWAP1 POP JUMP JUMPDEST PUSH1 0x0 PUSH20 0xFFFFFFFFFFFFFFFFFFFFFFFFFFFFFFFFFFFFFFFF DUP3 AND SWAP1 POP SWAP2 SWAP1 POP JUMP JUMPDEST PUSH1 0x0 DUP2 SWAP1 POP SWAP2 SWAP1 POP JUMP JUMPDEST DUP3 DUP2 DUP4 CALLDATACOPY PUSH1 0x0 DUP4 DUP4 ADD MSTORE POP POP POP JUMP JUMPDEST PUSH1 0x0 JUMPDEST DUP4 DUP2 LT ISZERO PUSH2 0xA8C JUMPI DUP1 DUP3 ADD MLOAD DUP2 DUP5 ADD MSTORE PUSH1 0x20 DUP2 ADD SWAP1 POP PUSH2 0xA71 JUMP JUMPDEST DUP4 DUP2 GT ISZERO PUSH2 0xA9B JUMPI PUSH1 0x0 DUP5 DUP5 ADD MSTORE JUMPDEST POP POP POP POP JUMP JUMPDEST PUSH1 0x0 PUSH1 0x2 DUP3 DIV SWAP1 POP PUSH1 0x1 DUP3 AND DUP1 PUSH2 0xAB9 JUMPI PUSH1 0x7F DUP3 AND SWAP2 POP JUMPDEST PUSH1 0x20 DUP3 LT DUP2 EQ ISZERO PUSH2 0xACD JUMPI PUSH2 0xACC PUSH2 0xB7C JUMP JUMPDEST JUMPDEST POP SWAP2 SWAP1 POP JUMP JUMPDEST PUSH2 0xADC DUP3 PUSH2 0xC1D JUMP JUMPDEST DUP2 ADD DUP2 DUP2 LT PUSH8 0xFFFFFFFFFFFFFFFF DUP3 GT OR ISZERO PUSH2 0xAFB JUMPI PUSH2 0xAFA PUSH2 0xBDA JUMP JUMPDEST JUMPDEST DUP1 PUSH1 0x40 MSTORE POP POP POP JUMP JUMPDEST PUSH1 0x0 PUSH2 0xB0F DUP3 PUSH2 0xA55 JUMP JUMPDEST SWAP2 POP PUSH32 0xFFFFFFFFFFFFFFFFFFFFFFFFFFFFFFFFFFFFFFFFFFFFFFFFFFFFFFFFFFFFFFFF DUP3 EQ ISZERO PUSH2 0xB42 JUMPI PUSH2 0xB41 PUSH2 0xB4D JUMP JUMPDEST JUMPDEST PUSH1 0x1 DUP3 ADD SWAP1 POP SWAP2 SWAP1 POP JUMP JUMPDEST PUSH32 0x4E487B7100000000000000000000000000000000000000000000000000000000 PUSH1 0x0 MSTORE PUSH1 0x11 PUSH1 0x4 MSTORE PUSH1 0x24 PUSH1 0x0 REVERT JUMPDEST PUSH32 0x4E487B7100000000000000000000000000000000000000000000000000000000 PUSH1 0x0 MSTORE PUSH1 0x22 PUSH1 0x4 MSTORE PUSH1 0x24 PUSH1 0x0 REVERT JUMPDEST PUSH32 0x4E487B7100000000000000000000000000000000000000000000000000000000 PUSH1 0x0 MSTORE PUSH1 0x32 PUSH1 0x4 MSTORE PUSH1 0x24 PUSH1 0x0 REVERT JUMPDEST PUSH32 0x4E487B7100000000000000000000000000000000000000000000000000000000 PUSH1 0x0 MSTORE PUSH1 0x41 PUSH1 0x4 MSTORE PUSH1 0x24 PUSH1 0x0 REVERT JUMPDEST PUSH1 0x0 DUP1 REVERT JUMPDEST PUSH1 0x0 DUP1 REVERT JUMPDEST PUSH1 0x0 DUP1 REVERT JUMPDEST PUSH1 0x0 DUP1 REVERT JUMPDEST PUSH1 0x0 PUSH1 0x1F NOT PUSH1 0x1F DUP4 ADD AND SWAP1 POP SWAP2 SWAP1 POP JUMP JUMPDEST PUSH32 0x5061796D656E742073686F756C64206265207468652073756273637269707469 PUSH1 0x0 DUP3 ADD MSTORE PUSH32 0x6F6E206665650000000000000000000000000000000000000000000000000000 PUSH1 0x20 DUP3 ADD MSTORE POP JUMP JUMPDEST PUSH2 0xC86 DUP2 PUSH2 0xA55 JUMP JUMPDEST DUP2 EQ PUSH2 0xC91 JUMPI PUSH1 0x0 DUP1 REVERT JUMPDEST POP JUMP INVALID LOG2 PUSH5 0x6970667358 0x22 SLT KECCAK256 0x23 0xBE 0x21 LOG3 SWAP7 0x2F SWAP4 PUSH23 0x21465A456FAFDD59671ABE8668BC7522FA13A71052FD04 PUSH21 0x64736F6C6343000807003300000000000000000000 "
				},
				"gasEstimates": {
					"creation": {
						"codeDepositCost": "654800",
						"executionCost": "infinite",
						"totalCost": "infinite"
					},
					"external": {
						"": "2590",
						"addSubscriber(string)": "infinite",
						"author()": "2558",
						"getSubscriberCount()": "2460",
						"printSubscribersList()": "infinite",
						"subscriberCount()": "2495",
						"subscribers(uint256)": "infinite",
						"subscriptionFee()": "2430"
					}
				},
				"methodIdentifiers": {
					"addSubscriber(string)": "2edd4fa5",
					"author()": "a6c3e6b9",
					"getSubscriberCount()": "17e703ab",
					"printSubscribersList()": "82d69b62",
					"subscriberCount()": "ef352bbe",
					"subscribers(uint256)": "59221a68",
					"subscriptionFee()": "0aa0a175"
				}
			},
			"storageLayout": {
				"storage": [
					{
						"astId": 6,
						"contract": "contracts/myContract.sol:testContract",
						"label": "subscribers",
						"offset": 0,
						"slot": "0",
						"type": "t_mapping(t_uint256,t_struct(subscriber)14_storage)"
					},
					{
						"astId": 9,
						"contract": "contracts/myContract.sol:testContract",
						"label": "subscriberCount",
						"offset": 0,
						"slot": "1",
						"type": "t_uint256"
					},
					{
						"astId": 16,
						"contract": "contracts/myContract.sol:testContract",
						"label": "author",
						"offset": 0,
						"slot": "2",
						"type": "t_address"
					},
					{
						"astId": 18,
						"contract": "contracts/myContract.sol:testContract",
						"label": "subscriptionFee",
						"offset": 0,
						"slot": "3",
						"type": "t_uint256"
					}
				],
				"types": {
					"t_address": {
						"encoding": "inplace",
						"label": "address",
						"numberOfBytes": "20"
					},
					"t_mapping(t_uint256,t_struct(subscriber)14_storage)": {
						"encoding": "mapping",
						"key": "t_uint256",
						"label": "mapping(uint256 => struct testContract.subscriber)",
						"numberOfBytes": "32",
						"value": "t_struct(subscriber)14_storage"
					},
					"t_string_storage": {
						"encoding": "bytes",
						"label": "string",
						"numberOfBytes": "32"
					},
					"t_struct(subscriber)14_storage": {
						"encoding": "inplace",
						"label": "struct testContract.subscriber",
						"members": [
							{
								"astId": 11,
								"contract": "contracts/myContract.sol:testContract",
								"label": "name",
								"offset": 0,
								"slot": "0",
								"type": "t_string_storage"
							},
							{
								"astId": 13,
								"contract": "contracts/myContract.sol:testContract",
								"label": "addr",
								"offset": 0,
								"slot": "1",
								"type": "t_address"
							}
						],
						"numberOfBytes": "64"
					},
					"t_uint256": {
						"encoding": "inplace",
						"label": "uint256",
						"numberOfBytes": "32"
					}
				}
			},
			"userdoc": {
				"kind": "user",
				"methods": {},
				"version": 1
			}
		}
	}
}