{
	"contracts/myContract.sol": {
		"testContract": {
			"abi": [
				{
					"inputs": [
						{
							"internalType": "uint256",
							"name": "fee",
							"type": "uint256"
						}
					],
					"stateMutability": "nonpayable",
					"type": "constructor"
				},
				{
					"anonymous": false,
					"inputs": [
						{
							"indexed": false,
							"internalType": "string",
							"name": "name",
							"type": "string"
						},
						{
							"indexed": false,
							"internalType": "address",
							"name": "addr",
							"type": "address"
						},
						{
							"indexed": false,
							"internalType": "uint256",
							"name": "amount",
							"type": "uint256"
						}
					],
					"name": "Received",
					"type": "event"
				},
				{
					"stateMutability": "payable",
					"type": "fallback"
				},
				{
					"inputs": [
						{
							"internalType": "string",
							"name": "userName",
							"type": "string"
						}
					],
					"name": "addSubscriber",
					"outputs": [],
					"stateMutability": "payable",
					"type": "function"
				},
				{
					"inputs": [],
					"name": "getAuthorBalance",
					"outputs": [
						{
							"internalType": "uint256",
							"name": "",
							"type": "uint256"
						}
					],
					"stateMutability": "view",
					"type": "function"
				},
				{
					"inputs": [],
					"name": "getContractBalance",
					"outputs": [
						{
							"internalType": "uint256",
							"name": "",
							"type": "uint256"
						}
					],
					"stateMutability": "view",
					"type": "function"
				},
				{
					"inputs": [],
					"name": "printSubscribersList",
					"outputs": [
						{
							"components": [
								{
									"internalType": "string",
									"name": "name",
									"type": "string"
								},
								{
									"internalType": "address",
									"name": "addr",
									"type": "address"
								}
							],
							"internalType": "struct testContract.subscriber[]",
							"name": "",
							"type": "tuple[]"
						}
					],
					"stateMutability": "view",
					"type": "function"
				},
				{
					"inputs": [],
					"name": "subscriptionFee",
					"outputs": [
						{
							"internalType": "uint256",
							"name": "",
							"type": "uint256"
						}
					],
					"stateMutability": "view",
					"type": "function"
				},
				{
					"inputs": [],
					"name": "withdrawAmount",
					"outputs": [],
					"stateMutability": "payable",
					"type": "function"
				},
				{
					"stateMutability": "payable",
					"type": "receive"
				}
			],
			"devdoc": {
				"kind": "dev",
				"methods": {},
				"version": 1
			},
			"evm": {
				"assembly": "    /* \"contracts/myContract.sol\":76:1851  contract testContract {\r... */\n  mstore(0x40, 0x80)\n    /* \"contracts/myContract.sol\":196:197  0 */\n  0x00\n    /* \"contracts/myContract.sol\":165:197  uint private subscriberCount = 0 */\n  0x01\n  sstore\n    /* \"contracts/myContract.sol\":421:528  constructor(uint fee){\r... */\n  callvalue\n  dup1\n  iszero\n  tag_1\n  jumpi\n  0x00\n  dup1\n  revert\ntag_1:\n  pop\n  mload(0x40)\n  sub(codesize, bytecodeSize)\n  dup1\n  bytecodeSize\n  dup4\n  codecopy\n  dup2\n  dup2\n  add\n  0x40\n  mstore\n  dup2\n  add\n  swap1\n  tag_2\n  swap2\n  swap1\n  tag_3\n  jump\t// in\ntag_2:\n    /* \"contracts/myContract.sol\":470:480  msg.sender */\n  caller\n    /* \"contracts/myContract.sol\":453:459  author */\n  0x02\n  0x00\n    /* \"contracts/myContract.sol\":453:481  author = payable(msg.sender) */\n  0x0100\n  exp\n  dup2\n  sload\n  dup2\n  0xffffffffffffffffffffffffffffffffffffffff\n  mul\n  not\n  and\n  swap1\n  dup4\n  0xffffffffffffffffffffffffffffffffffffffff\n  and\n  mul\n  or\n  swap1\n  sstore\n  pop\n    /* \"contracts/myContract.sol\":516:520  1e18 */\n  0x0de0b6b3a7640000\n    /* \"contracts/myContract.sol\":510:513  fee */\n  dup2\n    /* \"contracts/myContract.sol\":510:520  fee * 1e18 */\n  tag_6\n  swap2\n  swap1\n  tag_7\n  jump\t// in\ntag_6:\n    /* \"contracts/myContract.sol\":492:507  subscriptionFee */\n  0x03\n    /* \"contracts/myContract.sol\":492:520  subscriptionFee = fee * 1e18 */\n  dup2\n  swap1\n  sstore\n  pop\n    /* \"contracts/myContract.sol\":421:528  constructor(uint fee){\r... */\n  pop\n    /* \"contracts/myContract.sol\":76:1851  contract testContract {\r... */\n  jump(tag_8)\n    /* \"#utility.yul\":7:150   */\ntag_10:\n    /* \"#utility.yul\":64:69   */\n  0x00\n    /* \"#utility.yul\":95:101   */\n  dup2\n    /* \"#utility.yul\":89:102   */\n  mload\n    /* \"#utility.yul\":80:102   */\n  swap1\n  pop\n    /* \"#utility.yul\":111:144   */\n  tag_12\n    /* \"#utility.yul\":138:143   */\n  dup2\n    /* \"#utility.yul\":111:144   */\n  tag_13\n  jump\t// in\ntag_12:\n    /* \"#utility.yul\":7:150   */\n  swap3\n  swap2\n  pop\n  pop\n  jump\t// out\n    /* \"#utility.yul\":156:507   */\ntag_3:\n    /* \"#utility.yul\":226:232   */\n  0x00\n    /* \"#utility.yul\":275:277   */\n  0x20\n    /* \"#utility.yul\":263:272   */\n  dup3\n    /* \"#utility.yul\":254:261   */\n  dup5\n    /* \"#utility.yul\":250:273   */\n  sub\n    /* \"#utility.yul\":246:278   */\n  slt\n    /* \"#utility.yul\":243:362   */\n  iszero\n  tag_15\n  jumpi\n    /* \"#utility.yul\":281:360   */\n  tag_16\n  tag_17\n  jump\t// in\ntag_16:\n    /* \"#utility.yul\":243:362   */\ntag_15:\n    /* \"#utility.yul\":401:402   */\n  0x00\n    /* \"#utility.yul\":426:490   */\n  tag_18\n    /* \"#utility.yul\":482:489   */\n  dup5\n    /* \"#utility.yul\":473:479   */\n  dup3\n    /* \"#utility.yul\":462:471   */\n  dup6\n    /* \"#utility.yul\":458:480   */\n  add\n    /* \"#utility.yul\":426:490   */\n  tag_10\n  jump\t// in\ntag_18:\n    /* \"#utility.yul\":416:490   */\n  swap2\n  pop\n    /* \"#utility.yul\":372:500   */\n  pop\n    /* \"#utility.yul\":156:507   */\n  swap3\n  swap2\n  pop\n  pop\n  jump\t// out\n    /* \"#utility.yul\":594:942   */\ntag_7:\n    /* \"#utility.yul\":634:641   */\n  0x00\n    /* \"#utility.yul\":657:677   */\n  tag_22\n    /* \"#utility.yul\":675:676   */\n  dup3\n    /* \"#utility.yul\":657:677   */\n  tag_23\n  jump\t// in\ntag_22:\n    /* \"#utility.yul\":652:677   */\n  swap2\n  pop\n    /* \"#utility.yul\":691:711   */\n  tag_24\n    /* \"#utility.yul\":709:710   */\n  dup4\n    /* \"#utility.yul\":691:711   */\n  tag_23\n  jump\t// in\ntag_24:\n    /* \"#utility.yul\":686:711   */\n  swap3\n  pop\n    /* \"#utility.yul\":879:880   */\n  dup2\n    /* \"#utility.yul\":811:877   */\n  0xffffffffffffffffffffffffffffffffffffffffffffffffffffffffffffffff\n    /* \"#utility.yul\":807:881   */\n  div\n    /* \"#utility.yul\":804:805   */\n  dup4\n    /* \"#utility.yul\":801:882   */\n  gt\n    /* \"#utility.yul\":796:797   */\n  dup3\n    /* \"#utility.yul\":789:798   */\n  iszero\n    /* \"#utility.yul\":782:799   */\n  iszero\n    /* \"#utility.yul\":778:883   */\n  and\n    /* \"#utility.yul\":775:906   */\n  iszero\n  tag_25\n  jumpi\n    /* \"#utility.yul\":886:904   */\n  tag_26\n  tag_27\n  jump\t// in\ntag_26:\n    /* \"#utility.yul\":775:906   */\ntag_25:\n    /* \"#utility.yul\":934:935   */\n  dup3\n    /* \"#utility.yul\":931:932   */\n  dup3\n    /* \"#utility.yul\":927:936   */\n  mul\n    /* \"#utility.yul\":916:936   */\n  swap1\n  pop\n    /* \"#utility.yul\":594:942   */\n  swap3\n  swap2\n  pop\n  pop\n  jump\t// out\n    /* \"#utility.yul\":948:1025   */\ntag_23:\n    /* \"#utility.yul\":985:992   */\n  0x00\n    /* \"#utility.yul\":1014:1019   */\n  dup2\n    /* \"#utility.yul\":1003:1019   */\n  swap1\n  pop\n    /* \"#utility.yul\":948:1025   */\n  swap2\n  swap1\n  pop\n  jump\t// out\n    /* \"#utility.yul\":1031:1211   */\ntag_27:\n    /* \"#utility.yul\":1079:1156   */\n  0x4e487b7100000000000000000000000000000000000000000000000000000000\n    /* \"#utility.yul\":1076:1077   */\n  0x00\n    /* \"#utility.yul\":1069:1157   */\n  mstore\n    /* \"#utility.yul\":1176:1180   */\n  0x11\n    /* \"#utility.yul\":1173:1174   */\n  0x04\n    /* \"#utility.yul\":1166:1181   */\n  mstore\n    /* \"#utility.yul\":1200:1204   */\n  0x24\n    /* \"#utility.yul\":1197:1198   */\n  0x00\n    /* \"#utility.yul\":1190:1205   */\n  revert\n    /* \"#utility.yul\":1340:1457   */\ntag_17:\n    /* \"#utility.yul\":1449:1450   */\n  0x00\n    /* \"#utility.yul\":1446:1447   */\n  dup1\n    /* \"#utility.yul\":1439:1451   */\n  revert\n    /* \"#utility.yul\":1463:1585   */\ntag_13:\n    /* \"#utility.yul\":1536:1560   */\n  tag_34\n    /* \"#utility.yul\":1554:1559   */\n  dup2\n    /* \"#utility.yul\":1536:1560   */\n  tag_23\n  jump\t// in\ntag_34:\n    /* \"#utility.yul\":1529:1534   */\n  dup2\n    /* \"#utility.yul\":1526:1561   */\n  eq\n    /* \"#utility.yul\":1516:1579   */\n  tag_35\n  jumpi\n    /* \"#utility.yul\":1575:1576   */\n  0x00\n    /* \"#utility.yul\":1572:1573   */\n  dup1\n    /* \"#utility.yul\":1565:1577   */\n  revert\n    /* \"#utility.yul\":1516:1579   */\ntag_35:\n    /* \"#utility.yul\":1463:1585   */\n  pop\n  jump\t// out\n    /* \"contracts/myContract.sol\":76:1851  contract testContract {\r... */\ntag_8:\n  dataSize(sub_0)\n  dup1\n  dataOffset(sub_0)\n  0x00\n  codecopy\n  0x00\n  return\nstop\n\nsub_0: assembly {\n        /* \"contracts/myContract.sol\":76:1851  contract testContract {\r... */\n      mstore(0x40, 0x80)\n      jumpi(tag_1, lt(calldatasize, 0x04))\n      shr(0xe0, calldataload(0x00))\n      dup1\n      0x0aa0a175\n      eq\n      tag_3\n      jumpi\n      dup1\n      0x2edd4fa5\n      eq\n      tag_4\n      jumpi\n      dup1\n      0x534844a2\n      eq\n      tag_5\n      jumpi\n      dup1\n      0x6f9fb98a\n      eq\n      tag_6\n      jumpi\n      dup1\n      0x7f6b2809\n      eq\n      tag_7\n      jumpi\n      dup1\n      0x82d69b62\n      eq\n      tag_8\n      jumpi\n      jump(tag_2)\n    tag_1:\n      jumpi(tag_2, calldatasize)\n        /* \"contracts/myContract.sol\":847:862  subscriptionFee */\n      sload(0x03)\n        /* \"contracts/myContract.sol\":833:842  msg.value */\n      callvalue\n        /* \"contracts/myContract.sol\":833:862  msg.value ==  subscriptionFee */\n      eq\n        /* \"contracts/myContract.sol\":824:910  require( msg.value ==  subscriptionFee , \"Payment should be the subscription fee\"    ) */\n      tag_11\n      jumpi\n      mload(0x40)\n      0x08c379a000000000000000000000000000000000000000000000000000000000\n      dup2\n      mstore\n      0x04\n      add\n      tag_12\n      swap1\n      tag_13\n      jump\t// in\n    tag_12:\n      mload(0x40)\n      dup1\n      swap2\n      sub\n      swap1\n      revert\n    tag_11:\n        /* \"contracts/myContract.sol\":76:1851  contract testContract {\r... */\n      stop\n    tag_2:\n        /* \"contracts/myContract.sol\":708:723  subscriptionFee */\n      sload(0x03)\n        /* \"contracts/myContract.sol\":694:703  msg.value */\n      callvalue\n        /* \"contracts/myContract.sol\":694:723  msg.value ==  subscriptionFee */\n      eq\n        /* \"contracts/myContract.sol\":685:771  require( msg.value ==  subscriptionFee , \"Payment should be the subscription fee\"    ) */\n      tag_16\n      jumpi\n      mload(0x40)\n      0x08c379a000000000000000000000000000000000000000000000000000000000\n      dup2\n      mstore\n      0x04\n      add\n      tag_17\n      swap1\n      tag_13\n      jump\t// in\n    tag_17:\n      mload(0x40)\n      dup1\n      swap2\n      sub\n      swap1\n      revert\n    tag_16:\n        /* \"contracts/myContract.sol\":76:1851  contract testContract {\r... */\n      stop\n        /* \"contracts/myContract.sol\":322:349  uint public subscriptionFee */\n    tag_3:\n      callvalue\n      dup1\n      iszero\n      tag_18\n      jumpi\n      0x00\n      dup1\n      revert\n    tag_18:\n      pop\n      tag_19\n      tag_20\n      jump\t// in\n    tag_19:\n      mload(0x40)\n      tag_21\n      swap2\n      swap1\n      tag_22\n      jump\t// in\n    tag_21:\n      mload(0x40)\n      dup1\n      swap2\n      sub\n      swap1\n      return\n        /* \"contracts/myContract.sol\":1077:1357  function addSubscriber(string memory userName) public payable{\r... */\n    tag_4:\n      tag_23\n      0x04\n      dup1\n      calldatasize\n      sub\n      dup2\n      add\n      swap1\n      tag_24\n      swap2\n      swap1\n      tag_25\n      jump\t// in\n    tag_24:\n      tag_26\n      jump\t// in\n    tag_23:\n      stop\n        /* \"contracts/myContract.sol\":1366:1561  function withdrawAmount() payable public{\r... */\n    tag_5:\n      tag_27\n      tag_28\n      jump\t// in\n    tag_27:\n      stop\n        /* \"contracts/myContract.sol\":536:639  function getContractBalance() public view returns (uint){\r... */\n    tag_6:\n      callvalue\n      dup1\n      iszero\n      tag_29\n      jumpi\n      0x00\n      dup1\n      revert\n    tag_29:\n      pop\n      tag_30\n      tag_31\n      jump\t// in\n    tag_30:\n      mload(0x40)\n      tag_32\n      swap2\n      swap1\n      tag_22\n      jump\t// in\n    tag_32:\n      mload(0x40)\n      dup1\n      swap2\n      sub\n      swap1\n      return\n        /* \"contracts/myContract.sol\":976:1069  function getAuthorBalance() public view returns(uint){\r... */\n    tag_7:\n      callvalue\n      dup1\n      iszero\n      tag_33\n      jumpi\n      0x00\n      dup1\n      revert\n    tag_33:\n      pop\n      tag_34\n      tag_35\n      jump\t// in\n    tag_34:\n      mload(0x40)\n      tag_36\n      swap2\n      swap1\n      tag_22\n      jump\t// in\n    tag_36:\n      mload(0x40)\n      dup1\n      swap2\n      sub\n      swap1\n      return\n        /* \"contracts/myContract.sol\":1575:1846  function printSubscribersList() public view returns(subscriber[]memory){\r... */\n    tag_8:\n      callvalue\n      dup1\n      iszero\n      tag_37\n      jumpi\n      0x00\n      dup1\n      revert\n    tag_37:\n      pop\n      tag_38\n      tag_39\n      jump\t// in\n    tag_38:\n      mload(0x40)\n      tag_40\n      swap2\n      swap1\n      tag_41\n      jump\t// in\n    tag_40:\n      mload(0x40)\n      dup1\n      swap2\n      sub\n      swap1\n      return\n        /* \"contracts/myContract.sol\":322:349  uint public subscriptionFee */\n    tag_20:\n      sload(0x03)\n      dup2\n      jump\t// out\n        /* \"contracts/myContract.sol\":1077:1357  function addSubscriber(string memory userName) public payable{\r... */\n    tag_26:\n        /* \"contracts/myContract.sol\":1180:1211  subscriber(userName,msg.sender) */\n      mload(0x40)\n      dup1\n      0x40\n      add\n      0x40\n      mstore\n      dup1\n        /* \"contracts/myContract.sol\":1191:1199  userName */\n      dup3\n        /* \"contracts/myContract.sol\":1180:1211  subscriber(userName,msg.sender) */\n      dup2\n      mstore\n      0x20\n      add\n        /* \"contracts/myContract.sol\":1200:1210  msg.sender */\n      caller\n        /* \"contracts/myContract.sol\":1180:1211  subscriber(userName,msg.sender) */\n      0xffffffffffffffffffffffffffffffffffffffff\n      and\n      dup2\n      mstore\n      pop\n        /* \"contracts/myContract.sol\":1149:1160  subscribers */\n      0x00\n        /* \"contracts/myContract.sol\":1149:1177  subscribers[subscriberCount] */\n      dup1\n        /* \"contracts/myContract.sol\":1161:1176  subscriberCount */\n      sload(0x01)\n        /* \"contracts/myContract.sol\":1149:1177  subscribers[subscriberCount] */\n      dup2\n      mstore\n      0x20\n      add\n      swap1\n      dup2\n      mstore\n      0x20\n      add\n      0x00\n      keccak256\n        /* \"contracts/myContract.sol\":1149:1211  subscribers[subscriberCount] = subscriber(userName,msg.sender) */\n      0x00\n      dup3\n      add\n      mload\n      dup2\n      0x00\n      add\n      swap1\n      dup1\n      mload\n      swap1\n      0x20\n      add\n      swap1\n      tag_43\n      swap3\n      swap2\n      swap1\n      tag_44\n      jump\t// in\n    tag_43:\n      pop\n      0x20\n      dup3\n      add\n      mload\n      dup2\n      0x01\n      add\n      exp(0x0100, 0x00)\n      dup2\n      sload\n      dup2\n      0xffffffffffffffffffffffffffffffffffffffff\n      mul\n      not\n      and\n      swap1\n      dup4\n      0xffffffffffffffffffffffffffffffffffffffff\n      and\n      mul\n      or\n      swap1\n      sstore\n      pop\n      swap1\n      pop\n      pop\n        /* \"contracts/myContract.sol\":1222:1237  subscriberCount */\n      0x01\n      0x00\n        /* \"contracts/myContract.sol\":1222:1239  subscriberCount++ */\n      dup2\n      sload\n      dup1\n      swap3\n      swap2\n      swap1\n      tag_45\n      swap1\n      tag_46\n      jump\t// in\n    tag_45:\n      swap2\n      swap1\n      pop\n      sstore\n      pop\n        /* \"contracts/myContract.sol\":1266:1270  this */\n      address\n        /* \"contracts/myContract.sol\":1250:1281  payable(address(this)).transfer */\n      0xffffffffffffffffffffffffffffffffffffffff\n      and\n        /* \"contracts/myContract.sol\":1250:1292  payable(address(this)).transfer(msg.value) */\n      0x08fc\n        /* \"contracts/myContract.sol\":1282:1291  msg.value */\n      callvalue\n        /* \"contracts/myContract.sol\":1250:1292  payable(address(this)).transfer(msg.value) */\n      swap1\n      dup2\n      iszero\n      mul\n      swap1\n      mload(0x40)\n      0x00\n      mload(0x40)\n      dup1\n      dup4\n      sub\n      dup2\n      dup6\n      dup9\n      dup9\n      call\n      swap4\n      pop\n      pop\n      pop\n      pop\n      iszero\n      dup1\n      iszero\n      tag_48\n      jumpi\n      returndatasize\n      0x00\n      dup1\n      returndatacopy\n      revert(0x00, returndatasize)\n    tag_48:\n      pop\n        /* \"contracts/myContract.sol\":1308:1349  Received(userName, msg.sender, msg.value) */\n      0x9dfc9870a49c7b43c3ac5f2205775397be1d30d784ea9ee34b41821548af3b11\n        /* \"contracts/myContract.sol\":1317:1325  userName */\n      dup2\n        /* \"contracts/myContract.sol\":1327:1337  msg.sender */\n      caller\n        /* \"contracts/myContract.sol\":1339:1348  msg.value */\n      callvalue\n        /* \"contracts/myContract.sol\":1308:1349  Received(userName, msg.sender, msg.value) */\n      mload(0x40)\n      tag_49\n      swap4\n      swap3\n      swap2\n      swap1\n      tag_50\n      jump\t// in\n    tag_49:\n      mload(0x40)\n      dup1\n      swap2\n      sub\n      swap1\n      log1\n        /* \"contracts/myContract.sol\":1077:1357  function addSubscriber(string memory userName) public payable{\r... */\n      pop\n      jump\t// out\n        /* \"contracts/myContract.sol\":1366:1561  function withdrawAmount() payable public{\r... */\n    tag_28:\n        /* \"contracts/myContract.sol\":1453:1459  author */\n      0x02\n      0x00\n      swap1\n      sload\n      swap1\n      0x0100\n      exp\n      swap1\n      div\n      0xffffffffffffffffffffffffffffffffffffffff\n      and\n        /* \"contracts/myContract.sol\":1439:1459  msg.sender == author */\n      0xffffffffffffffffffffffffffffffffffffffff\n      and\n        /* \"contracts/myContract.sol\":1439:1449  msg.sender */\n      caller\n        /* \"contracts/myContract.sol\":1439:1459  msg.sender == author */\n      0xffffffffffffffffffffffffffffffffffffffff\n      and\n      eq\n        /* \"contracts/myContract.sol\":1417:1495  require(\r... */\n      tag_52\n      jumpi\n      mload(0x40)\n      0x08c379a000000000000000000000000000000000000000000000000000000000\n      dup2\n      mstore\n      0x04\n      add\n      tag_53\n      swap1\n      tag_54\n      jump\t// in\n    tag_53:\n      mload(0x40)\n      dup1\n      swap2\n      sub\n      swap1\n      revert\n    tag_52:\n        /* \"contracts/myContract.sol\":1514:1520  author */\n      0x02\n      0x00\n      swap1\n      sload\n      swap1\n      0x0100\n      exp\n      swap1\n      div\n      0xffffffffffffffffffffffffffffffffffffffff\n      and\n        /* \"contracts/myContract.sol\":1506:1530  payable(author).transfer */\n      0xffffffffffffffffffffffffffffffffffffffff\n      and\n        /* \"contracts/myContract.sol\":1506:1553  payable(author).transfer(address(this).balance) */\n      0x08fc\n        /* \"contracts/myContract.sol\":1531:1552  address(this).balance */\n      selfbalance\n        /* \"contracts/myContract.sol\":1506:1553  payable(author).transfer(address(this).balance) */\n      swap1\n      dup2\n      iszero\n      mul\n      swap1\n      mload(0x40)\n      0x00\n      mload(0x40)\n      dup1\n      dup4\n      sub\n      dup2\n      dup6\n      dup9\n      dup9\n      call\n      swap4\n      pop\n      pop\n      pop\n      pop\n      iszero\n      dup1\n      iszero\n      tag_56\n      jumpi\n      returndatasize\n      0x00\n      dup1\n      returndatacopy\n      revert(0x00, returndatasize)\n    tag_56:\n      pop\n        /* \"contracts/myContract.sol\":1366:1561  function withdrawAmount() payable public{\r... */\n      jump\t// out\n        /* \"contracts/myContract.sol\":536:639  function getContractBalance() public view returns (uint){\r... */\n    tag_31:\n        /* \"contracts/myContract.sol\":587:591  uint */\n      0x00\n        /* \"contracts/myContract.sol\":610:631  address(this).balance */\n      selfbalance\n        /* \"contracts/myContract.sol\":603:631  return address(this).balance */\n      swap1\n      pop\n        /* \"contracts/myContract.sol\":536:639  function getContractBalance() public view returns (uint){\r... */\n      swap1\n      jump\t// out\n        /* \"contracts/myContract.sol\":976:1069  function getAuthorBalance() public view returns(uint){\r... */\n    tag_35:\n        /* \"contracts/myContract.sol\":1024:1028  uint */\n      0x00\n        /* \"contracts/myContract.sol\":1047:1053  author */\n      0x02\n      0x00\n      swap1\n      sload\n      swap1\n      0x0100\n      exp\n      swap1\n      div\n      0xffffffffffffffffffffffffffffffffffffffff\n      and\n        /* \"contracts/myContract.sol\":1047:1061  author.balance */\n      0xffffffffffffffffffffffffffffffffffffffff\n      and\n      balance\n        /* \"contracts/myContract.sol\":1040:1061  return author.balance */\n      swap1\n      pop\n        /* \"contracts/myContract.sol\":976:1069  function getAuthorBalance() public view returns(uint){\r... */\n      swap1\n      jump\t// out\n        /* \"contracts/myContract.sol\":1575:1846  function printSubscribersList() public view returns(subscriber[]memory){\r... */\n    tag_39:\n        /* \"contracts/myContract.sol\":1627:1645  subscriber[]memory */\n      0x60\n        /* \"contracts/myContract.sol\":1657:1680  subscriber[] memory ret */\n      0x00\n        /* \"contracts/myContract.sol\":1700:1715  subscriberCount */\n      sload(0x01)\n        /* \"contracts/myContract.sol\":1683:1716  new subscriber[](subscriberCount) */\n      0xffffffffffffffff\n      dup2\n      gt\n      iszero\n      tag_60\n      jumpi\n      tag_61\n      tag_62\n      jump\t// in\n    tag_61:\n    tag_60:\n      mload(0x40)\n      swap1\n      dup1\n      dup3\n      mstore\n      dup1\n      0x20\n      mul\n      0x20\n      add\n      dup3\n      add\n      0x40\n      mstore\n      dup1\n      iszero\n      tag_63\n      jumpi\n      dup2\n      0x20\n      add\n    tag_64:\n      tag_65\n      tag_66\n      jump\t// in\n    tag_65:\n      dup2\n      mstore\n      0x20\n      add\n      swap1\n      0x01\n      swap1\n      sub\n      swap1\n      dup2\n      tag_64\n      jumpi\n      swap1\n      pop\n    tag_63:\n      pop\n        /* \"contracts/myContract.sol\":1657:1716  subscriber[] memory ret = new subscriber[](subscriberCount) */\n      swap1\n      pop\n        /* \"contracts/myContract.sol\":1731:1737  uint i */\n      0x00\n        /* \"contracts/myContract.sol\":1727:1818  for(uint i = 0; i < subscriberCount; i++){\r... */\n    tag_67:\n        /* \"contracts/myContract.sol\":1747:1762  subscriberCount */\n      sload(0x01)\n        /* \"contracts/myContract.sol\":1743:1744  i */\n      dup2\n        /* \"contracts/myContract.sol\":1743:1762  i < subscriberCount */\n      lt\n        /* \"contracts/myContract.sol\":1727:1818  for(uint i = 0; i < subscriberCount; i++){\r... */\n      iszero\n      tag_68\n      jumpi\n        /* \"contracts/myContract.sol\":1792:1803  subscribers */\n      0x00\n        /* \"contracts/myContract.sol\":1792:1806  subscribers[i] */\n      dup1\n        /* \"contracts/myContract.sol\":1804:1805  i */\n      dup3\n        /* \"contracts/myContract.sol\":1792:1806  subscribers[i] */\n      dup2\n      mstore\n      0x20\n      add\n      swap1\n      dup2\n      mstore\n      0x20\n      add\n      0x00\n      keccak256\n        /* \"contracts/myContract.sol\":1783:1806  ret[i] = subscribers[i] */\n      mload(0x40)\n      dup1\n      0x40\n      add\n      0x40\n      mstore\n      swap1\n      dup2\n      0x00\n      dup3\n      add\n      dup1\n      sload\n      tag_70\n      swap1\n      tag_71\n      jump\t// in\n    tag_70:\n      dup1\n      0x1f\n      add\n      0x20\n      dup1\n      swap2\n      div\n      mul\n      0x20\n      add\n      mload(0x40)\n      swap1\n      dup2\n      add\n      0x40\n      mstore\n      dup1\n      swap3\n      swap2\n      swap1\n      dup2\n      dup2\n      mstore\n      0x20\n      add\n      dup3\n      dup1\n      sload\n      tag_72\n      swap1\n      tag_71\n      jump\t// in\n    tag_72:\n      dup1\n      iszero\n      tag_73\n      jumpi\n      dup1\n      0x1f\n      lt\n      tag_74\n      jumpi\n      0x0100\n      dup1\n      dup4\n      sload\n      div\n      mul\n      dup4\n      mstore\n      swap2\n      0x20\n      add\n      swap2\n      jump(tag_73)\n    tag_74:\n      dup3\n      add\n      swap2\n      swap1\n      0x00\n      mstore\n      keccak256(0x00, 0x20)\n      swap1\n    tag_75:\n      dup2\n      sload\n      dup2\n      mstore\n      swap1\n      0x01\n      add\n      swap1\n      0x20\n      add\n      dup1\n      dup4\n      gt\n      tag_75\n      jumpi\n      dup3\n      swap1\n      sub\n      0x1f\n      and\n      dup3\n      add\n      swap2\n    tag_73:\n      pop\n      pop\n      pop\n      pop\n      pop\n      dup2\n      mstore\n      0x20\n      add\n      0x01\n      dup3\n      add\n      0x00\n      swap1\n      sload\n      swap1\n      0x0100\n      exp\n      swap1\n      div\n      0xffffffffffffffffffffffffffffffffffffffff\n      and\n      0xffffffffffffffffffffffffffffffffffffffff\n      and\n      0xffffffffffffffffffffffffffffffffffffffff\n      and\n      dup2\n      mstore\n      pop\n      pop\n        /* \"contracts/myContract.sol\":1783:1786  ret */\n      dup3\n        /* \"contracts/myContract.sol\":1787:1788  i */\n      dup3\n        /* \"contracts/myContract.sol\":1783:1789  ret[i] */\n      dup2\n      mload\n      dup2\n      lt\n      tag_76\n      jumpi\n      tag_77\n      tag_78\n      jump\t// in\n    tag_77:\n    tag_76:\n      0x20\n      mul\n      0x20\n      add\n      add\n        /* \"contracts/myContract.sol\":1783:1806  ret[i] = subscribers[i] */\n      dup2\n      swap1\n      mstore\n      pop\n        /* \"contracts/myContract.sol\":1764:1767  i++ */\n      dup1\n      dup1\n      tag_79\n      swap1\n      tag_46\n      jump\t// in\n    tag_79:\n      swap2\n      pop\n      pop\n        /* \"contracts/myContract.sol\":1727:1818  for(uint i = 0; i < subscriberCount; i++){\r... */\n      jump(tag_67)\n    tag_68:\n      pop\n        /* \"contracts/myContract.sol\":1835:1838  ret */\n      dup1\n        /* \"contracts/myContract.sol\":1828:1838  return ret */\n      swap2\n      pop\n      pop\n        /* \"contracts/myContract.sol\":1575:1846  function printSubscribersList() public view returns(subscriber[]memory){\r... */\n      swap1\n      jump\t// out\n    tag_44:\n      dup3\n      dup1\n      sload\n      tag_80\n      swap1\n      tag_71\n      jump\t// in\n    tag_80:\n      swap1\n      0x00\n      mstore\n      keccak256(0x00, 0x20)\n      swap1\n      0x1f\n      add\n      0x20\n      swap1\n      div\n      dup2\n      add\n      swap3\n      dup3\n      tag_82\n      jumpi\n      0x00\n      dup6\n      sstore\n      jump(tag_81)\n    tag_82:\n      dup3\n      0x1f\n      lt\n      tag_83\n      jumpi\n      dup1\n      mload\n      not(0xff)\n      and\n      dup4\n      dup1\n      add\n      or\n      dup6\n      sstore\n      jump(tag_81)\n    tag_83:\n      dup3\n      dup1\n      add\n      0x01\n      add\n      dup6\n      sstore\n      dup3\n      iszero\n      tag_81\n      jumpi\n      swap2\n      dup3\n      add\n    tag_84:\n      dup3\n      dup2\n      gt\n      iszero\n      tag_85\n      jumpi\n      dup3\n      mload\n      dup3\n      sstore\n      swap2\n      0x20\n      add\n      swap2\n      swap1\n      0x01\n      add\n      swap1\n      jump(tag_84)\n    tag_85:\n    tag_81:\n      pop\n      swap1\n      pop\n      tag_86\n      swap2\n      swap1\n      tag_87\n      jump\t// in\n    tag_86:\n      pop\n      swap1\n      jump\t// out\n    tag_66:\n      mload(0x40)\n      dup1\n      0x40\n      add\n      0x40\n      mstore\n      dup1\n      0x60\n      dup2\n      mstore\n      0x20\n      add\n      and(0xffffffffffffffffffffffffffffffffffffffff, 0x00)\n      dup2\n      mstore\n      pop\n      swap1\n      jump\t// out\n    tag_87:\n    tag_88:\n      dup1\n      dup3\n      gt\n      iszero\n      tag_89\n      jumpi\n      0x00\n      dup2\n      0x00\n      swap1\n      sstore\n      pop\n      0x01\n      add\n      jump(tag_88)\n    tag_89:\n      pop\n      swap1\n      jump\t// out\n        /* \"#utility.yul\":7:419   */\n    tag_91:\n        /* \"#utility.yul\":85:90   */\n      0x00\n        /* \"#utility.yul\":110:176   */\n      tag_93\n        /* \"#utility.yul\":126:175   */\n      tag_94\n        /* \"#utility.yul\":168:174   */\n      dup5\n        /* \"#utility.yul\":126:175   */\n      tag_95\n      jump\t// in\n    tag_94:\n        /* \"#utility.yul\":110:176   */\n      tag_96\n      jump\t// in\n    tag_93:\n        /* \"#utility.yul\":101:176   */\n      swap1\n      pop\n        /* \"#utility.yul\":199:205   */\n      dup3\n        /* \"#utility.yul\":192:197   */\n      dup2\n        /* \"#utility.yul\":185:206   */\n      mstore\n        /* \"#utility.yul\":237:241   */\n      0x20\n        /* \"#utility.yul\":230:235   */\n      dup2\n        /* \"#utility.yul\":226:242   */\n      add\n        /* \"#utility.yul\":275:278   */\n      dup5\n        /* \"#utility.yul\":266:272   */\n      dup5\n        /* \"#utility.yul\":261:264   */\n      dup5\n        /* \"#utility.yul\":257:273   */\n      add\n        /* \"#utility.yul\":254:279   */\n      gt\n        /* \"#utility.yul\":251:363   */\n      iszero\n      tag_97\n      jumpi\n        /* \"#utility.yul\":282:361   */\n      tag_98\n      tag_99\n      jump\t// in\n    tag_98:\n        /* \"#utility.yul\":251:363   */\n    tag_97:\n        /* \"#utility.yul\":372:413   */\n      tag_100\n        /* \"#utility.yul\":406:412   */\n      dup5\n        /* \"#utility.yul\":401:404   */\n      dup3\n        /* \"#utility.yul\":396:399   */\n      dup6\n        /* \"#utility.yul\":372:413   */\n      tag_101\n      jump\t// in\n    tag_100:\n        /* \"#utility.yul\":91:419   */\n      pop\n        /* \"#utility.yul\":7:419   */\n      swap4\n      swap3\n      pop\n      pop\n      pop\n      jump\t// out\n        /* \"#utility.yul\":439:779   */\n    tag_102:\n        /* \"#utility.yul\":495:500   */\n      0x00\n        /* \"#utility.yul\":544:547   */\n      dup3\n        /* \"#utility.yul\":537:541   */\n      0x1f\n        /* \"#utility.yul\":529:535   */\n      dup4\n        /* \"#utility.yul\":525:542   */\n      add\n        /* \"#utility.yul\":521:548   */\n      slt\n        /* \"#utility.yul\":511:633   */\n      tag_104\n      jumpi\n        /* \"#utility.yul\":552:631   */\n      tag_105\n      tag_106\n      jump\t// in\n    tag_105:\n        /* \"#utility.yul\":511:633   */\n    tag_104:\n        /* \"#utility.yul\":669:675   */\n      dup2\n        /* \"#utility.yul\":656:676   */\n      calldataload\n        /* \"#utility.yul\":694:773   */\n      tag_107\n        /* \"#utility.yul\":769:772   */\n      dup5\n        /* \"#utility.yul\":761:767   */\n      dup3\n        /* \"#utility.yul\":754:758   */\n      0x20\n        /* \"#utility.yul\":746:752   */\n      dup7\n        /* \"#utility.yul\":742:759   */\n      add\n        /* \"#utility.yul\":694:773   */\n      tag_91\n      jump\t// in\n    tag_107:\n        /* \"#utility.yul\":685:773   */\n      swap2\n      pop\n        /* \"#utility.yul\":501:779   */\n      pop\n        /* \"#utility.yul\":439:779   */\n      swap3\n      swap2\n      pop\n      pop\n      jump\t// out\n        /* \"#utility.yul\":785:1294   */\n    tag_25:\n        /* \"#utility.yul\":854:860   */\n      0x00\n        /* \"#utility.yul\":903:905   */\n      0x20\n        /* \"#utility.yul\":891:900   */\n      dup3\n        /* \"#utility.yul\":882:889   */\n      dup5\n        /* \"#utility.yul\":878:901   */\n      sub\n        /* \"#utility.yul\":874:906   */\n      slt\n        /* \"#utility.yul\":871:990   */\n      iszero\n      tag_109\n      jumpi\n        /* \"#utility.yul\":909:988   */\n      tag_110\n      tag_111\n      jump\t// in\n    tag_110:\n        /* \"#utility.yul\":871:990   */\n    tag_109:\n        /* \"#utility.yul\":1057:1058   */\n      0x00\n        /* \"#utility.yul\":1046:1055   */\n      dup3\n        /* \"#utility.yul\":1042:1059   */\n      add\n        /* \"#utility.yul\":1029:1060   */\n      calldataload\n        /* \"#utility.yul\":1087:1105   */\n      0xffffffffffffffff\n        /* \"#utility.yul\":1079:1085   */\n      dup2\n        /* \"#utility.yul\":1076:1106   */\n      gt\n        /* \"#utility.yul\":1073:1190   */\n      iszero\n      tag_112\n      jumpi\n        /* \"#utility.yul\":1109:1188   */\n      tag_113\n      tag_114\n      jump\t// in\n    tag_113:\n        /* \"#utility.yul\":1073:1190   */\n    tag_112:\n        /* \"#utility.yul\":1214:1277   */\n      tag_115\n        /* \"#utility.yul\":1269:1276   */\n      dup5\n        /* \"#utility.yul\":1260:1266   */\n      dup3\n        /* \"#utility.yul\":1249:1258   */\n      dup6\n        /* \"#utility.yul\":1245:1267   */\n      add\n        /* \"#utility.yul\":1214:1277   */\n      tag_102\n      jump\t// in\n    tag_115:\n        /* \"#utility.yul\":1204:1277   */\n      swap2\n      pop\n        /* \"#utility.yul\":1000:1287   */\n      pop\n        /* \"#utility.yul\":785:1294   */\n      swap3\n      swap2\n      pop\n      pop\n      jump\t// out\n        /* \"#utility.yul\":1300:1560   */\n    tag_116:\n        /* \"#utility.yul\":1421:1431   */\n      0x00\n        /* \"#utility.yul\":1456:1554   */\n      tag_118\n        /* \"#utility.yul\":1550:1553   */\n      dup4\n        /* \"#utility.yul\":1542:1548   */\n      dup4\n        /* \"#utility.yul\":1456:1554   */\n      tag_119\n      jump\t// in\n    tag_118:\n        /* \"#utility.yul\":1442:1554   */\n      swap1\n      pop\n        /* \"#utility.yul\":1300:1560   */\n      swap3\n      swap2\n      pop\n      pop\n      jump\t// out\n        /* \"#utility.yul\":1566:1674   */\n    tag_120:\n        /* \"#utility.yul\":1643:1667   */\n      tag_122\n        /* \"#utility.yul\":1661:1666   */\n      dup2\n        /* \"#utility.yul\":1643:1667   */\n      tag_123\n      jump\t// in\n    tag_122:\n        /* \"#utility.yul\":1638:1641   */\n      dup3\n        /* \"#utility.yul\":1631:1668   */\n      mstore\n        /* \"#utility.yul\":1566:1674   */\n      pop\n      pop\n      jump\t// out\n        /* \"#utility.yul\":1680:1798   */\n    tag_124:\n        /* \"#utility.yul\":1767:1791   */\n      tag_126\n        /* \"#utility.yul\":1785:1790   */\n      dup2\n        /* \"#utility.yul\":1767:1791   */\n      tag_123\n      jump\t// in\n    tag_126:\n        /* \"#utility.yul\":1762:1765   */\n      dup3\n        /* \"#utility.yul\":1755:1792   */\n      mstore\n        /* \"#utility.yul\":1680:1798   */\n      pop\n      pop\n      jump\t// out\n        /* \"#utility.yul\":1880:2999   */\n    tag_127:\n        /* \"#utility.yul\":2051:2054   */\n      0x00\n        /* \"#utility.yul\":2080:2160   */\n      tag_129\n        /* \"#utility.yul\":2154:2159   */\n      dup3\n        /* \"#utility.yul\":2080:2160   */\n      tag_130\n      jump\t// in\n    tag_129:\n        /* \"#utility.yul\":2176:2288   */\n      tag_131\n        /* \"#utility.yul\":2281:2287   */\n      dup2\n        /* \"#utility.yul\":2276:2279   */\n      dup6\n        /* \"#utility.yul\":2176:2288   */\n      tag_132\n      jump\t// in\n    tag_131:\n        /* \"#utility.yul\":2169:2288   */\n      swap4\n      pop\n        /* \"#utility.yul\":2314:2317   */\n      dup4\n        /* \"#utility.yul\":2359:2363   */\n      0x20\n        /* \"#utility.yul\":2351:2357   */\n      dup3\n        /* \"#utility.yul\":2347:2364   */\n      mul\n        /* \"#utility.yul\":2342:2345   */\n      dup6\n        /* \"#utility.yul\":2338:2365   */\n      add\n        /* \"#utility.yul\":2389:2471   */\n      tag_133\n        /* \"#utility.yul\":2465:2470   */\n      dup6\n        /* \"#utility.yul\":2389:2471   */\n      tag_134\n      jump\t// in\n    tag_133:\n        /* \"#utility.yul\":2494:2501   */\n      dup1\n        /* \"#utility.yul\":2525:2526   */\n      0x00\n        /* \"#utility.yul\":2510:2954   */\n    tag_135:\n        /* \"#utility.yul\":2535:2541   */\n      dup6\n        /* \"#utility.yul\":2532:2533   */\n      dup2\n        /* \"#utility.yul\":2529:2542   */\n      lt\n        /* \"#utility.yul\":2510:2954   */\n      iszero\n      tag_137\n      jumpi\n        /* \"#utility.yul\":2606:2615   */\n      dup5\n        /* \"#utility.yul\":2600:2604   */\n      dup5\n        /* \"#utility.yul\":2596:2616   */\n      sub\n        /* \"#utility.yul\":2591:2594   */\n      dup10\n        /* \"#utility.yul\":2584:2617   */\n      mstore\n        /* \"#utility.yul\":2657:2663   */\n      dup2\n        /* \"#utility.yul\":2651:2664   */\n      mload\n        /* \"#utility.yul\":2685:2801   */\n      tag_138\n        /* \"#utility.yul\":2796:2800   */\n      dup6\n        /* \"#utility.yul\":2781:2794   */\n      dup3\n        /* \"#utility.yul\":2685:2801   */\n      tag_116\n      jump\t// in\n    tag_138:\n        /* \"#utility.yul\":2677:2801   */\n      swap5\n      pop\n        /* \"#utility.yul\":2824:2910   */\n      tag_139\n        /* \"#utility.yul\":2903:2909   */\n      dup4\n        /* \"#utility.yul\":2824:2910   */\n      tag_140\n      jump\t// in\n    tag_139:\n        /* \"#utility.yul\":2814:2910   */\n      swap3\n      pop\n        /* \"#utility.yul\":2939:2943   */\n      0x20\n        /* \"#utility.yul\":2934:2937   */\n      dup11\n        /* \"#utility.yul\":2930:2944   */\n      add\n        /* \"#utility.yul\":2923:2944   */\n      swap10\n      pop\n        /* \"#utility.yul\":2570:2954   */\n      pop\n        /* \"#utility.yul\":2557:2558   */\n      0x01\n        /* \"#utility.yul\":2554:2555   */\n      dup2\n        /* \"#utility.yul\":2550:2559   */\n      add\n        /* \"#utility.yul\":2545:2559   */\n      swap1\n      pop\n        /* \"#utility.yul\":2510:2954   */\n      jump(tag_135)\n    tag_137:\n        /* \"#utility.yul\":2514:2528   */\n      pop\n        /* \"#utility.yul\":2970:2974   */\n      dup3\n        /* \"#utility.yul\":2963:2974   */\n      swap8\n      pop\n        /* \"#utility.yul\":2990:2993   */\n      dup8\n        /* \"#utility.yul\":2983:2993   */\n      swap6\n      pop\n        /* \"#utility.yul\":2056:2999   */\n      pop\n      pop\n      pop\n      pop\n      pop\n        /* \"#utility.yul\":1880:2999   */\n      swap3\n      swap2\n      pop\n      pop\n      jump\t// out\n        /* \"#utility.yul\":3005:3349   */\n    tag_141:\n        /* \"#utility.yul\":3083:3086   */\n      0x00\n        /* \"#utility.yul\":3111:3150   */\n      tag_143\n        /* \"#utility.yul\":3144:3149   */\n      dup3\n        /* \"#utility.yul\":3111:3150   */\n      tag_144\n      jump\t// in\n    tag_143:\n        /* \"#utility.yul\":3166:3227   */\n      tag_145\n        /* \"#utility.yul\":3220:3226   */\n      dup2\n        /* \"#utility.yul\":3215:3218   */\n      dup6\n        /* \"#utility.yul\":3166:3227   */\n      tag_146\n      jump\t// in\n    tag_145:\n        /* \"#utility.yul\":3159:3227   */\n      swap4\n      pop\n        /* \"#utility.yul\":3236:3288   */\n      tag_147\n        /* \"#utility.yul\":3281:3287   */\n      dup2\n        /* \"#utility.yul\":3276:3279   */\n      dup6\n        /* \"#utility.yul\":3269:3273   */\n      0x20\n        /* \"#utility.yul\":3262:3267   */\n      dup7\n        /* \"#utility.yul\":3258:3274   */\n      add\n        /* \"#utility.yul\":3236:3288   */\n      tag_148\n      jump\t// in\n    tag_147:\n        /* \"#utility.yul\":3313:3342   */\n      tag_149\n        /* \"#utility.yul\":3335:3341   */\n      dup2\n        /* \"#utility.yul\":3313:3342   */\n      tag_150\n      jump\t// in\n    tag_149:\n        /* \"#utility.yul\":3308:3311   */\n      dup5\n        /* \"#utility.yul\":3304:3343   */\n      add\n        /* \"#utility.yul\":3297:3343   */\n      swap2\n      pop\n        /* \"#utility.yul\":3087:3349   */\n      pop\n        /* \"#utility.yul\":3005:3349   */\n      swap3\n      swap2\n      pop\n      pop\n      jump\t// out\n        /* \"#utility.yul\":3355:3719   */\n    tag_151:\n        /* \"#utility.yul\":3443:3446   */\n      0x00\n        /* \"#utility.yul\":3471:3510   */\n      tag_153\n        /* \"#utility.yul\":3504:3509   */\n      dup3\n        /* \"#utility.yul\":3471:3510   */\n      tag_144\n      jump\t// in\n    tag_153:\n        /* \"#utility.yul\":3526:3597   */\n      tag_154\n        /* \"#utility.yul\":3590:3596   */\n      dup2\n        /* \"#utility.yul\":3585:3588   */\n      dup6\n        /* \"#utility.yul\":3526:3597   */\n      tag_155\n      jump\t// in\n    tag_154:\n        /* \"#utility.yul\":3519:3597   */\n      swap4\n      pop\n        /* \"#utility.yul\":3606:3658   */\n      tag_156\n        /* \"#utility.yul\":3651:3657   */\n      dup2\n        /* \"#utility.yul\":3646:3649   */\n      dup6\n        /* \"#utility.yul\":3639:3643   */\n      0x20\n        /* \"#utility.yul\":3632:3637   */\n      dup7\n        /* \"#utility.yul\":3628:3644   */\n      add\n        /* \"#utility.yul\":3606:3658   */\n      tag_148\n      jump\t// in\n    tag_156:\n        /* \"#utility.yul\":3683:3712   */\n      tag_157\n        /* \"#utility.yul\":3705:3711   */\n      dup2\n        /* \"#utility.yul\":3683:3712   */\n      tag_150\n      jump\t// in\n    tag_157:\n        /* \"#utility.yul\":3678:3681   */\n      dup5\n        /* \"#utility.yul\":3674:3713   */\n      add\n        /* \"#utility.yul\":3667:3713   */\n      swap2\n      pop\n        /* \"#utility.yul\":3447:3719   */\n      pop\n        /* \"#utility.yul\":3355:3719   */\n      swap3\n      swap2\n      pop\n      pop\n      jump\t// out\n        /* \"#utility.yul\":3725:4091   */\n    tag_158:\n        /* \"#utility.yul\":3867:3870   */\n      0x00\n        /* \"#utility.yul\":3888:3955   */\n      tag_160\n        /* \"#utility.yul\":3952:3954   */\n      0x26\n        /* \"#utility.yul\":3947:3950   */\n      dup4\n        /* \"#utility.yul\":3888:3955   */\n      tag_155\n      jump\t// in\n    tag_160:\n        /* \"#utility.yul\":3881:3955   */\n      swap2\n      pop\n        /* \"#utility.yul\":3964:4057   */\n      tag_161\n        /* \"#utility.yul\":4053:4056   */\n      dup3\n        /* \"#utility.yul\":3964:4057   */\n      tag_162\n      jump\t// in\n    tag_161:\n        /* \"#utility.yul\":4082:4084   */\n      0x40\n        /* \"#utility.yul\":4077:4080   */\n      dup3\n        /* \"#utility.yul\":4073:4085   */\n      add\n        /* \"#utility.yul\":4066:4085   */\n      swap1\n      pop\n        /* \"#utility.yul\":3725:4091   */\n      swap2\n      swap1\n      pop\n      jump\t// out\n        /* \"#utility.yul\":4097:4463   */\n    tag_163:\n        /* \"#utility.yul\":4239:4242   */\n      0x00\n        /* \"#utility.yul\":4260:4327   */\n      tag_165\n        /* \"#utility.yul\":4324:4326   */\n      0x15\n        /* \"#utility.yul\":4319:4322   */\n      dup4\n        /* \"#utility.yul\":4260:4327   */\n      tag_155\n      jump\t// in\n    tag_165:\n        /* \"#utility.yul\":4253:4327   */\n      swap2\n      pop\n        /* \"#utility.yul\":4336:4429   */\n      tag_166\n        /* \"#utility.yul\":4425:4428   */\n      dup3\n        /* \"#utility.yul\":4336:4429   */\n      tag_167\n      jump\t// in\n    tag_166:\n        /* \"#utility.yul\":4454:4456   */\n      0x20\n        /* \"#utility.yul\":4449:4452   */\n      dup3\n        /* \"#utility.yul\":4445:4457   */\n      add\n        /* \"#utility.yul\":4438:4457   */\n      swap1\n      pop\n        /* \"#utility.yul\":4097:4463   */\n      swap2\n      swap1\n      pop\n      jump\t// out\n        /* \"#utility.yul\":4541:5139   */\n    tag_119:\n        /* \"#utility.yul\":4652:4655   */\n      0x00\n        /* \"#utility.yul\":4688:4692   */\n      0x40\n        /* \"#utility.yul\":4683:4686   */\n      dup4\n        /* \"#utility.yul\":4679:4693   */\n      add\n        /* \"#utility.yul\":4775:4779   */\n      0x00\n        /* \"#utility.yul\":4768:4773   */\n      dup4\n        /* \"#utility.yul\":4764:4780   */\n      add\n        /* \"#utility.yul\":4758:4781   */\n      mload\n        /* \"#utility.yul\":4828:4831   */\n      dup5\n        /* \"#utility.yul\":4822:4826   */\n      dup3\n        /* \"#utility.yul\":4818:4832   */\n      sub\n        /* \"#utility.yul\":4811:4815   */\n      0x00\n        /* \"#utility.yul\":4806:4809   */\n      dup7\n        /* \"#utility.yul\":4802:4816   */\n      add\n        /* \"#utility.yul\":4795:4833   */\n      mstore\n        /* \"#utility.yul\":4854:4927   */\n      tag_169\n        /* \"#utility.yul\":4922:4926   */\n      dup3\n        /* \"#utility.yul\":4908:4920   */\n      dup3\n        /* \"#utility.yul\":4854:4927   */\n      tag_141\n      jump\t// in\n    tag_169:\n        /* \"#utility.yul\":4846:4927   */\n      swap2\n      pop\n        /* \"#utility.yul\":4703:4938   */\n      pop\n        /* \"#utility.yul\":5020:5024   */\n      0x20\n        /* \"#utility.yul\":5013:5018   */\n      dup4\n        /* \"#utility.yul\":5009:5025   */\n      add\n        /* \"#utility.yul\":5003:5026   */\n      mload\n        /* \"#utility.yul\":5039:5102   */\n      tag_170\n        /* \"#utility.yul\":5096:5100   */\n      0x20\n        /* \"#utility.yul\":5091:5094   */\n      dup7\n        /* \"#utility.yul\":5087:5101   */\n      add\n        /* \"#utility.yul\":5073:5085   */\n      dup3\n        /* \"#utility.yul\":5039:5102   */\n      tag_120\n      jump\t// in\n    tag_170:\n        /* \"#utility.yul\":4948:5112   */\n      pop\n        /* \"#utility.yul\":5129:5133   */\n      dup1\n        /* \"#utility.yul\":5122:5133   */\n      swap2\n      pop\n        /* \"#utility.yul\":4657:5139   */\n      pop\n        /* \"#utility.yul\":4541:5139   */\n      swap3\n      swap2\n      pop\n      pop\n      jump\t// out\n        /* \"#utility.yul\":5145:5263   */\n    tag_171:\n        /* \"#utility.yul\":5232:5256   */\n      tag_173\n        /* \"#utility.yul\":5250:5255   */\n      dup2\n        /* \"#utility.yul\":5232:5256   */\n      tag_174\n      jump\t// in\n    tag_173:\n        /* \"#utility.yul\":5227:5230   */\n      dup3\n        /* \"#utility.yul\":5220:5257   */\n      mstore\n        /* \"#utility.yul\":5145:5263   */\n      pop\n      pop\n      jump\t// out\n        /* \"#utility.yul\":5269:5746   */\n    tag_41:\n        /* \"#utility.yul\":5464:5468   */\n      0x00\n        /* \"#utility.yul\":5502:5504   */\n      0x20\n        /* \"#utility.yul\":5491:5500   */\n      dup3\n        /* \"#utility.yul\":5487:5505   */\n      add\n        /* \"#utility.yul\":5479:5505   */\n      swap1\n      pop\n        /* \"#utility.yul\":5551:5560   */\n      dup2\n        /* \"#utility.yul\":5545:5549   */\n      dup2\n        /* \"#utility.yul\":5541:5561   */\n      sub\n        /* \"#utility.yul\":5537:5538   */\n      0x00\n        /* \"#utility.yul\":5526:5535   */\n      dup4\n        /* \"#utility.yul\":5522:5539   */\n      add\n        /* \"#utility.yul\":5515:5562   */\n      mstore\n        /* \"#utility.yul\":5579:5739   */\n      tag_176\n        /* \"#utility.yul\":5734:5738   */\n      dup2\n        /* \"#utility.yul\":5725:5731   */\n      dup5\n        /* \"#utility.yul\":5579:5739   */\n      tag_127\n      jump\t// in\n    tag_176:\n        /* \"#utility.yul\":5571:5739   */\n      swap1\n      pop\n        /* \"#utility.yul\":5269:5746   */\n      swap3\n      swap2\n      pop\n      pop\n      jump\t// out\n        /* \"#utility.yul\":5752:6285   */\n    tag_50:\n        /* \"#utility.yul\":5921:5925   */\n      0x00\n        /* \"#utility.yul\":5959:5961   */\n      0x60\n        /* \"#utility.yul\":5948:5957   */\n      dup3\n        /* \"#utility.yul\":5944:5962   */\n      add\n        /* \"#utility.yul\":5936:5962   */\n      swap1\n      pop\n        /* \"#utility.yul\":6008:6017   */\n      dup2\n        /* \"#utility.yul\":6002:6006   */\n      dup2\n        /* \"#utility.yul\":5998:6018   */\n      sub\n        /* \"#utility.yul\":5994:5995   */\n      0x00\n        /* \"#utility.yul\":5983:5992   */\n      dup4\n        /* \"#utility.yul\":5979:5996   */\n      add\n        /* \"#utility.yul\":5972:6019   */\n      mstore\n        /* \"#utility.yul\":6036:6114   */\n      tag_178\n        /* \"#utility.yul\":6109:6113   */\n      dup2\n        /* \"#utility.yul\":6100:6106   */\n      dup7\n        /* \"#utility.yul\":6036:6114   */\n      tag_151\n      jump\t// in\n    tag_178:\n        /* \"#utility.yul\":6028:6114   */\n      swap1\n      pop\n        /* \"#utility.yul\":6124:6196   */\n      tag_179\n        /* \"#utility.yul\":6192:6194   */\n      0x20\n        /* \"#utility.yul\":6181:6190   */\n      dup4\n        /* \"#utility.yul\":6177:6195   */\n      add\n        /* \"#utility.yul\":6168:6174   */\n      dup6\n        /* \"#utility.yul\":6124:6196   */\n      tag_124\n      jump\t// in\n    tag_179:\n        /* \"#utility.yul\":6206:6278   */\n      tag_180\n        /* \"#utility.yul\":6274:6276   */\n      0x40\n        /* \"#utility.yul\":6263:6272   */\n      dup4\n        /* \"#utility.yul\":6259:6277   */\n      add\n        /* \"#utility.yul\":6250:6256   */\n      dup5\n        /* \"#utility.yul\":6206:6278   */\n      tag_171\n      jump\t// in\n    tag_180:\n        /* \"#utility.yul\":5752:6285   */\n      swap5\n      swap4\n      pop\n      pop\n      pop\n      pop\n      jump\t// out\n        /* \"#utility.yul\":6291:6710   */\n    tag_13:\n        /* \"#utility.yul\":6457:6461   */\n      0x00\n        /* \"#utility.yul\":6495:6497   */\n      0x20\n        /* \"#utility.yul\":6484:6493   */\n      dup3\n        /* \"#utility.yul\":6480:6498   */\n      add\n        /* \"#utility.yul\":6472:6498   */\n      swap1\n      pop\n        /* \"#utility.yul\":6544:6553   */\n      dup2\n        /* \"#utility.yul\":6538:6542   */\n      dup2\n        /* \"#utility.yul\":6534:6554   */\n      sub\n        /* \"#utility.yul\":6530:6531   */\n      0x00\n        /* \"#utility.yul\":6519:6528   */\n      dup4\n        /* \"#utility.yul\":6515:6532   */\n      add\n        /* \"#utility.yul\":6508:6555   */\n      mstore\n        /* \"#utility.yul\":6572:6703   */\n      tag_182\n        /* \"#utility.yul\":6698:6702   */\n      dup2\n        /* \"#utility.yul\":6572:6703   */\n      tag_158\n      jump\t// in\n    tag_182:\n        /* \"#utility.yul\":6564:6703   */\n      swap1\n      pop\n        /* \"#utility.yul\":6291:6710   */\n      swap2\n      swap1\n      pop\n      jump\t// out\n        /* \"#utility.yul\":6716:7135   */\n    tag_54:\n        /* \"#utility.yul\":6882:6886   */\n      0x00\n        /* \"#utility.yul\":6920:6922   */\n      0x20\n        /* \"#utility.yul\":6909:6918   */\n      dup3\n        /* \"#utility.yul\":6905:6923   */\n      add\n        /* \"#utility.yul\":6897:6923   */\n      swap1\n      pop\n        /* \"#utility.yul\":6969:6978   */\n      dup2\n        /* \"#utility.yul\":6963:6967   */\n      dup2\n        /* \"#utility.yul\":6959:6979   */\n      sub\n        /* \"#utility.yul\":6955:6956   */\n      0x00\n        /* \"#utility.yul\":6944:6953   */\n      dup4\n        /* \"#utility.yul\":6940:6957   */\n      add\n        /* \"#utility.yul\":6933:6980   */\n      mstore\n        /* \"#utility.yul\":6997:7128   */\n      tag_184\n        /* \"#utility.yul\":7123:7127   */\n      dup2\n        /* \"#utility.yul\":6997:7128   */\n      tag_163\n      jump\t// in\n    tag_184:\n        /* \"#utility.yul\":6989:7128   */\n      swap1\n      pop\n        /* \"#utility.yul\":6716:7135   */\n      swap2\n      swap1\n      pop\n      jump\t// out\n        /* \"#utility.yul\":7141:7363   */\n    tag_22:\n        /* \"#utility.yul\":7234:7238   */\n      0x00\n        /* \"#utility.yul\":7272:7274   */\n      0x20\n        /* \"#utility.yul\":7261:7270   */\n      dup3\n        /* \"#utility.yul\":7257:7275   */\n      add\n        /* \"#utility.yul\":7249:7275   */\n      swap1\n      pop\n        /* \"#utility.yul\":7285:7356   */\n      tag_186\n        /* \"#utility.yul\":7353:7354   */\n      0x00\n        /* \"#utility.yul\":7342:7351   */\n      dup4\n        /* \"#utility.yul\":7338:7355   */\n      add\n        /* \"#utility.yul\":7329:7335   */\n      dup5\n        /* \"#utility.yul\":7285:7356   */\n      tag_171\n      jump\t// in\n    tag_186:\n        /* \"#utility.yul\":7141:7363   */\n      swap3\n      swap2\n      pop\n      pop\n      jump\t// out\n        /* \"#utility.yul\":7369:7498   */\n    tag_96:\n        /* \"#utility.yul\":7403:7409   */\n      0x00\n        /* \"#utility.yul\":7430:7450   */\n      tag_188\n      tag_189\n      jump\t// in\n    tag_188:\n        /* \"#utility.yul\":7420:7450   */\n      swap1\n      pop\n        /* \"#utility.yul\":7459:7492   */\n      tag_190\n        /* \"#utility.yul\":7487:7491   */\n      dup3\n        /* \"#utility.yul\":7479:7485   */\n      dup3\n        /* \"#utility.yul\":7459:7492   */\n      tag_191\n      jump\t// in\n    tag_190:\n        /* \"#utility.yul\":7369:7498   */\n      swap2\n      swap1\n      pop\n      jump\t// out\n        /* \"#utility.yul\":7504:7579   */\n    tag_189:\n        /* \"#utility.yul\":7537:7543   */\n      0x00\n        /* \"#utility.yul\":7570:7572   */\n      0x40\n        /* \"#utility.yul\":7564:7573   */\n      mload\n        /* \"#utility.yul\":7554:7573   */\n      swap1\n      pop\n        /* \"#utility.yul\":7504:7579   */\n      swap1\n      jump\t// out\n        /* \"#utility.yul\":7585:7893   */\n    tag_95:\n        /* \"#utility.yul\":7647:7651   */\n      0x00\n        /* \"#utility.yul\":7737:7755   */\n      0xffffffffffffffff\n        /* \"#utility.yul\":7729:7735   */\n      dup3\n        /* \"#utility.yul\":7726:7756   */\n      gt\n        /* \"#utility.yul\":7723:7779   */\n      iszero\n      tag_194\n      jumpi\n        /* \"#utility.yul\":7759:7777   */\n      tag_195\n      tag_62\n      jump\t// in\n    tag_195:\n        /* \"#utility.yul\":7723:7779   */\n    tag_194:\n        /* \"#utility.yul\":7797:7826   */\n      tag_196\n        /* \"#utility.yul\":7819:7825   */\n      dup3\n        /* \"#utility.yul\":7797:7826   */\n      tag_150\n      jump\t// in\n    tag_196:\n        /* \"#utility.yul\":7789:7826   */\n      swap1\n      pop\n        /* \"#utility.yul\":7881:7885   */\n      0x20\n        /* \"#utility.yul\":7875:7879   */\n      dup2\n        /* \"#utility.yul\":7871:7886   */\n      add\n        /* \"#utility.yul\":7863:7886   */\n      swap1\n      pop\n        /* \"#utility.yul\":7585:7893   */\n      swap2\n      swap1\n      pop\n      jump\t// out\n        /* \"#utility.yul\":7899:8057   */\n    tag_134:\n        /* \"#utility.yul\":7992:7996   */\n      0x00\n        /* \"#utility.yul\":8015:8018   */\n      dup2\n        /* \"#utility.yul\":8007:8018   */\n      swap1\n      pop\n        /* \"#utility.yul\":8045:8049   */\n      0x20\n        /* \"#utility.yul\":8040:8043   */\n      dup3\n        /* \"#utility.yul\":8036:8050   */\n      add\n        /* \"#utility.yul\":8028:8050   */\n      swap1\n      pop\n        /* \"#utility.yul\":7899:8057   */\n      swap2\n      swap1\n      pop\n      jump\t// out\n        /* \"#utility.yul\":8063:8203   */\n    tag_130:\n        /* \"#utility.yul\":8156:8162   */\n      0x00\n        /* \"#utility.yul\":8190:8195   */\n      dup2\n        /* \"#utility.yul\":8184:8196   */\n      mload\n        /* \"#utility.yul\":8174:8196   */\n      swap1\n      pop\n        /* \"#utility.yul\":8063:8203   */\n      swap2\n      swap1\n      pop\n      jump\t// out\n        /* \"#utility.yul\":8209:8308   */\n    tag_144:\n        /* \"#utility.yul\":8261:8267   */\n      0x00\n        /* \"#utility.yul\":8295:8300   */\n      dup2\n        /* \"#utility.yul\":8289:8301   */\n      mload\n        /* \"#utility.yul\":8279:8301   */\n      swap1\n      pop\n        /* \"#utility.yul\":8209:8308   */\n      swap2\n      swap1\n      pop\n      jump\t// out\n        /* \"#utility.yul\":8314:8453   */\n    tag_140:\n        /* \"#utility.yul\":8410:8414   */\n      0x00\n        /* \"#utility.yul\":8442:8446   */\n      0x20\n        /* \"#utility.yul\":8437:8440   */\n      dup3\n        /* \"#utility.yul\":8433:8447   */\n      add\n        /* \"#utility.yul\":8425:8447   */\n      swap1\n      pop\n        /* \"#utility.yul\":8314:8453   */\n      swap2\n      swap1\n      pop\n      jump\t// out\n        /* \"#utility.yul\":8459:8669   */\n    tag_132:\n        /* \"#utility.yul\":8584:8595   */\n      0x00\n        /* \"#utility.yul\":8618:8624   */\n      dup3\n        /* \"#utility.yul\":8613:8616   */\n      dup3\n        /* \"#utility.yul\":8606:8625   */\n      mstore\n        /* \"#utility.yul\":8658:8662   */\n      0x20\n        /* \"#utility.yul\":8653:8656   */\n      dup3\n        /* \"#utility.yul\":8649:8663   */\n      add\n        /* \"#utility.yul\":8634:8663   */\n      swap1\n      pop\n        /* \"#utility.yul\":8459:8669   */\n      swap3\n      swap2\n      pop\n      pop\n      jump\t// out\n        /* \"#utility.yul\":8675:8834   */\n    tag_146:\n        /* \"#utility.yul\":8749:8760   */\n      0x00\n        /* \"#utility.yul\":8783:8789   */\n      dup3\n        /* \"#utility.yul\":8778:8781   */\n      dup3\n        /* \"#utility.yul\":8771:8790   */\n      mstore\n        /* \"#utility.yul\":8823:8827   */\n      0x20\n        /* \"#utility.yul\":8818:8821   */\n      dup3\n        /* \"#utility.yul\":8814:8828   */\n      add\n        /* \"#utility.yul\":8799:8828   */\n      swap1\n      pop\n        /* \"#utility.yul\":8675:8834   */\n      swap3\n      swap2\n      pop\n      pop\n      jump\t// out\n        /* \"#utility.yul\":8840:9009   */\n    tag_155:\n        /* \"#utility.yul\":8924:8935   */\n      0x00\n        /* \"#utility.yul\":8958:8964   */\n      dup3\n        /* \"#utility.yul\":8953:8956   */\n      dup3\n        /* \"#utility.yul\":8946:8965   */\n      mstore\n        /* \"#utility.yul\":8998:9002   */\n      0x20\n        /* \"#utility.yul\":8993:8996   */\n      dup3\n        /* \"#utility.yul\":8989:9003   */\n      add\n        /* \"#utility.yul\":8974:9003   */\n      swap1\n      pop\n        /* \"#utility.yul\":8840:9009   */\n      swap3\n      swap2\n      pop\n      pop\n      jump\t// out\n        /* \"#utility.yul\":9015:9111   */\n    tag_123:\n        /* \"#utility.yul\":9052:9059   */\n      0x00\n        /* \"#utility.yul\":9081:9105   */\n      tag_205\n        /* \"#utility.yul\":9099:9104   */\n      dup3\n        /* \"#utility.yul\":9081:9105   */\n      tag_206\n      jump\t// in\n    tag_205:\n        /* \"#utility.yul\":9070:9105   */\n      swap1\n      pop\n        /* \"#utility.yul\":9015:9111   */\n      swap2\n      swap1\n      pop\n      jump\t// out\n        /* \"#utility.yul\":9117:9243   */\n    tag_206:\n        /* \"#utility.yul\":9154:9161   */\n      0x00\n        /* \"#utility.yul\":9194:9236   */\n      0xffffffffffffffffffffffffffffffffffffffff\n        /* \"#utility.yul\":9187:9192   */\n      dup3\n        /* \"#utility.yul\":9183:9237   */\n      and\n        /* \"#utility.yul\":9172:9237   */\n      swap1\n      pop\n        /* \"#utility.yul\":9117:9243   */\n      swap2\n      swap1\n      pop\n      jump\t// out\n        /* \"#utility.yul\":9249:9326   */\n    tag_174:\n        /* \"#utility.yul\":9286:9293   */\n      0x00\n        /* \"#utility.yul\":9315:9320   */\n      dup2\n        /* \"#utility.yul\":9304:9320   */\n      swap1\n      pop\n        /* \"#utility.yul\":9249:9326   */\n      swap2\n      swap1\n      pop\n      jump\t// out\n        /* \"#utility.yul\":9332:9486   */\n    tag_101:\n        /* \"#utility.yul\":9416:9422   */\n      dup3\n        /* \"#utility.yul\":9411:9414   */\n      dup2\n        /* \"#utility.yul\":9406:9409   */\n      dup4\n        /* \"#utility.yul\":9393:9423   */\n      calldatacopy\n        /* \"#utility.yul\":9478:9479   */\n      0x00\n        /* \"#utility.yul\":9469:9475   */\n      dup4\n        /* \"#utility.yul\":9464:9467   */\n      dup4\n        /* \"#utility.yul\":9460:9476   */\n      add\n        /* \"#utility.yul\":9453:9480   */\n      mstore\n        /* \"#utility.yul\":9332:9486   */\n      pop\n      pop\n      pop\n      jump\t// out\n        /* \"#utility.yul\":9492:9799   */\n    tag_148:\n        /* \"#utility.yul\":9560:9561   */\n      0x00\n        /* \"#utility.yul\":9570:9683   */\n    tag_211:\n        /* \"#utility.yul\":9584:9590   */\n      dup4\n        /* \"#utility.yul\":9581:9582   */\n      dup2\n        /* \"#utility.yul\":9578:9591   */\n      lt\n        /* \"#utility.yul\":9570:9683   */\n      iszero\n      tag_213\n      jumpi\n        /* \"#utility.yul\":9669:9670   */\n      dup1\n        /* \"#utility.yul\":9664:9667   */\n      dup3\n        /* \"#utility.yul\":9660:9671   */\n      add\n        /* \"#utility.yul\":9654:9672   */\n      mload\n        /* \"#utility.yul\":9650:9651   */\n      dup2\n        /* \"#utility.yul\":9645:9648   */\n      dup5\n        /* \"#utility.yul\":9641:9652   */\n      add\n        /* \"#utility.yul\":9634:9673   */\n      mstore\n        /* \"#utility.yul\":9606:9608   */\n      0x20\n        /* \"#utility.yul\":9603:9604   */\n      dup2\n        /* \"#utility.yul\":9599:9609   */\n      add\n        /* \"#utility.yul\":9594:9609   */\n      swap1\n      pop\n        /* \"#utility.yul\":9570:9683   */\n      jump(tag_211)\n    tag_213:\n        /* \"#utility.yul\":9701:9707   */\n      dup4\n        /* \"#utility.yul\":9698:9699   */\n      dup2\n        /* \"#utility.yul\":9695:9708   */\n      gt\n        /* \"#utility.yul\":9692:9793   */\n      iszero\n      tag_214\n      jumpi\n        /* \"#utility.yul\":9781:9782   */\n      0x00\n        /* \"#utility.yul\":9772:9778   */\n      dup5\n        /* \"#utility.yul\":9767:9770   */\n      dup5\n        /* \"#utility.yul\":9763:9779   */\n      add\n        /* \"#utility.yul\":9756:9783   */\n      mstore\n        /* \"#utility.yul\":9692:9793   */\n    tag_214:\n        /* \"#utility.yul\":9541:9799   */\n      pop\n        /* \"#utility.yul\":9492:9799   */\n      pop\n      pop\n      pop\n      jump\t// out\n        /* \"#utility.yul\":9805:10125   */\n    tag_71:\n        /* \"#utility.yul\":9849:9855   */\n      0x00\n        /* \"#utility.yul\":9886:9887   */\n      0x02\n        /* \"#utility.yul\":9880:9884   */\n      dup3\n        /* \"#utility.yul\":9876:9888   */\n      div\n        /* \"#utility.yul\":9866:9888   */\n      swap1\n      pop\n        /* \"#utility.yul\":9933:9934   */\n      0x01\n        /* \"#utility.yul\":9927:9931   */\n      dup3\n        /* \"#utility.yul\":9923:9935   */\n      and\n        /* \"#utility.yul\":9954:9972   */\n      dup1\n        /* \"#utility.yul\":9944:10025   */\n      tag_216\n      jumpi\n        /* \"#utility.yul\":10010:10014   */\n      0x7f\n        /* \"#utility.yul\":10002:10008   */\n      dup3\n        /* \"#utility.yul\":9998:10015   */\n      and\n        /* \"#utility.yul\":9988:10015   */\n      swap2\n      pop\n        /* \"#utility.yul\":9944:10025   */\n    tag_216:\n        /* \"#utility.yul\":10072:10074   */\n      0x20\n        /* \"#utility.yul\":10064:10070   */\n      dup3\n        /* \"#utility.yul\":10061:10075   */\n      lt\n        /* \"#utility.yul\":10041:10059   */\n      dup2\n        /* \"#utility.yul\":10038:10076   */\n      eq\n        /* \"#utility.yul\":10035:10119   */\n      iszero\n      tag_217\n      jumpi\n        /* \"#utility.yul\":10091:10109   */\n      tag_218\n      tag_219\n      jump\t// in\n    tag_218:\n        /* \"#utility.yul\":10035:10119   */\n    tag_217:\n        /* \"#utility.yul\":9856:10125   */\n      pop\n        /* \"#utility.yul\":9805:10125   */\n      swap2\n      swap1\n      pop\n      jump\t// out\n        /* \"#utility.yul\":10131:10412   */\n    tag_191:\n        /* \"#utility.yul\":10214:10241   */\n      tag_221\n        /* \"#utility.yul\":10236:10240   */\n      dup3\n        /* \"#utility.yul\":10214:10241   */\n      tag_150\n      jump\t// in\n    tag_221:\n        /* \"#utility.yul\":10206:10212   */\n      dup2\n        /* \"#utility.yul\":10202:10242   */\n      add\n        /* \"#utility.yul\":10344:10350   */\n      dup2\n        /* \"#utility.yul\":10332:10342   */\n      dup2\n        /* \"#utility.yul\":10329:10351   */\n      lt\n        /* \"#utility.yul\":10308:10326   */\n      0xffffffffffffffff\n        /* \"#utility.yul\":10296:10306   */\n      dup3\n        /* \"#utility.yul\":10293:10327   */\n      gt\n        /* \"#utility.yul\":10290:10352   */\n      or\n        /* \"#utility.yul\":10287:10375   */\n      iszero\n      tag_222\n      jumpi\n        /* \"#utility.yul\":10355:10373   */\n      tag_223\n      tag_62\n      jump\t// in\n    tag_223:\n        /* \"#utility.yul\":10287:10375   */\n    tag_222:\n        /* \"#utility.yul\":10395:10405   */\n      dup1\n        /* \"#utility.yul\":10391:10393   */\n      0x40\n        /* \"#utility.yul\":10384:10406   */\n      mstore\n        /* \"#utility.yul\":10174:10412   */\n      pop\n        /* \"#utility.yul\":10131:10412   */\n      pop\n      pop\n      jump\t// out\n        /* \"#utility.yul\":10418:10651   */\n    tag_46:\n        /* \"#utility.yul\":10457:10460   */\n      0x00\n        /* \"#utility.yul\":10480:10504   */\n      tag_225\n        /* \"#utility.yul\":10498:10503   */\n      dup3\n        /* \"#utility.yul\":10480:10504   */\n      tag_174\n      jump\t// in\n    tag_225:\n        /* \"#utility.yul\":10471:10504   */\n      swap2\n      pop\n        /* \"#utility.yul\":10526:10592   */\n      0xffffffffffffffffffffffffffffffffffffffffffffffffffffffffffffffff\n        /* \"#utility.yul\":10519:10524   */\n      dup3\n        /* \"#utility.yul\":10516:10593   */\n      eq\n        /* \"#utility.yul\":10513:10616   */\n      iszero\n      tag_226\n      jumpi\n        /* \"#utility.yul\":10596:10614   */\n      tag_227\n      tag_228\n      jump\t// in\n    tag_227:\n        /* \"#utility.yul\":10513:10616   */\n    tag_226:\n        /* \"#utility.yul\":10643:10644   */\n      0x01\n        /* \"#utility.yul\":10636:10641   */\n      dup3\n        /* \"#utility.yul\":10632:10645   */\n      add\n        /* \"#utility.yul\":10625:10645   */\n      swap1\n      pop\n        /* \"#utility.yul\":10418:10651   */\n      swap2\n      swap1\n      pop\n      jump\t// out\n        /* \"#utility.yul\":10657:10837   */\n    tag_228:\n        /* \"#utility.yul\":10705:10782   */\n      0x4e487b7100000000000000000000000000000000000000000000000000000000\n        /* \"#utility.yul\":10702:10703   */\n      0x00\n        /* \"#utility.yul\":10695:10783   */\n      mstore\n        /* \"#utility.yul\":10802:10806   */\n      0x11\n        /* \"#utility.yul\":10799:10800   */\n      0x04\n        /* \"#utility.yul\":10792:10807   */\n      mstore\n        /* \"#utility.yul\":10826:10830   */\n      0x24\n        /* \"#utility.yul\":10823:10824   */\n      0x00\n        /* \"#utility.yul\":10816:10831   */\n      revert\n        /* \"#utility.yul\":10843:11023   */\n    tag_219:\n        /* \"#utility.yul\":10891:10968   */\n      0x4e487b7100000000000000000000000000000000000000000000000000000000\n        /* \"#utility.yul\":10888:10889   */\n      0x00\n        /* \"#utility.yul\":10881:10969   */\n      mstore\n        /* \"#utility.yul\":10988:10992   */\n      0x22\n        /* \"#utility.yul\":10985:10986   */\n      0x04\n        /* \"#utility.yul\":10978:10993   */\n      mstore\n        /* \"#utility.yul\":11012:11016   */\n      0x24\n        /* \"#utility.yul\":11009:11010   */\n      0x00\n        /* \"#utility.yul\":11002:11017   */\n      revert\n        /* \"#utility.yul\":11029:11209   */\n    tag_78:\n        /* \"#utility.yul\":11077:11154   */\n      0x4e487b7100000000000000000000000000000000000000000000000000000000\n        /* \"#utility.yul\":11074:11075   */\n      0x00\n        /* \"#utility.yul\":11067:11155   */\n      mstore\n        /* \"#utility.yul\":11174:11178   */\n      0x32\n        /* \"#utility.yul\":11171:11172   */\n      0x04\n        /* \"#utility.yul\":11164:11179   */\n      mstore\n        /* \"#utility.yul\":11198:11202   */\n      0x24\n        /* \"#utility.yul\":11195:11196   */\n      0x00\n        /* \"#utility.yul\":11188:11203   */\n      revert\n        /* \"#utility.yul\":11215:11395   */\n    tag_62:\n        /* \"#utility.yul\":11263:11340   */\n      0x4e487b7100000000000000000000000000000000000000000000000000000000\n        /* \"#utility.yul\":11260:11261   */\n      0x00\n        /* \"#utility.yul\":11253:11341   */\n      mstore\n        /* \"#utility.yul\":11360:11364   */\n      0x41\n        /* \"#utility.yul\":11357:11358   */\n      0x04\n        /* \"#utility.yul\":11350:11365   */\n      mstore\n        /* \"#utility.yul\":11384:11388   */\n      0x24\n        /* \"#utility.yul\":11381:11382   */\n      0x00\n        /* \"#utility.yul\":11374:11389   */\n      revert\n        /* \"#utility.yul\":11401:11518   */\n    tag_106:\n        /* \"#utility.yul\":11510:11511   */\n      0x00\n        /* \"#utility.yul\":11507:11508   */\n      dup1\n        /* \"#utility.yul\":11500:11512   */\n      revert\n        /* \"#utility.yul\":11524:11641   */\n    tag_99:\n        /* \"#utility.yul\":11633:11634   */\n      0x00\n        /* \"#utility.yul\":11630:11631   */\n      dup1\n        /* \"#utility.yul\":11623:11635   */\n      revert\n        /* \"#utility.yul\":11647:11764   */\n    tag_114:\n        /* \"#utility.yul\":11756:11757   */\n      0x00\n        /* \"#utility.yul\":11753:11754   */\n      dup1\n        /* \"#utility.yul\":11746:11758   */\n      revert\n        /* \"#utility.yul\":11770:11887   */\n    tag_111:\n        /* \"#utility.yul\":11879:11880   */\n      0x00\n        /* \"#utility.yul\":11876:11877   */\n      dup1\n        /* \"#utility.yul\":11869:11881   */\n      revert\n        /* \"#utility.yul\":11893:11995   */\n    tag_150:\n        /* \"#utility.yul\":11934:11940   */\n      0x00\n        /* \"#utility.yul\":11985:11987   */\n      0x1f\n        /* \"#utility.yul\":11981:11988   */\n      not\n        /* \"#utility.yul\":11976:11978   */\n      0x1f\n        /* \"#utility.yul\":11969:11974   */\n      dup4\n        /* \"#utility.yul\":11965:11979   */\n      add\n        /* \"#utility.yul\":11961:11989   */\n      and\n        /* \"#utility.yul\":11951:11989   */\n      swap1\n      pop\n        /* \"#utility.yul\":11893:11995   */\n      swap2\n      swap1\n      pop\n      jump\t// out\n        /* \"#utility.yul\":12001:12226   */\n    tag_162:\n        /* \"#utility.yul\":12141:12175   */\n      0x5061796d656e742073686f756c64206265207468652073756273637269707469\n        /* \"#utility.yul\":12137:12138   */\n      0x00\n        /* \"#utility.yul\":12129:12135   */\n      dup3\n        /* \"#utility.yul\":12125:12139   */\n      add\n        /* \"#utility.yul\":12118:12176   */\n      mstore\n        /* \"#utility.yul\":12210:12218   */\n      0x6f6e206665650000000000000000000000000000000000000000000000000000\n        /* \"#utility.yul\":12205:12207   */\n      0x20\n        /* \"#utility.yul\":12197:12203   */\n      dup3\n        /* \"#utility.yul\":12193:12208   */\n      add\n        /* \"#utility.yul\":12186:12219   */\n      mstore\n        /* \"#utility.yul\":12001:12226   */\n      pop\n      jump\t// out\n        /* \"#utility.yul\":12232:12403   */\n    tag_167:\n        /* \"#utility.yul\":12372:12395   */\n      0x4f6e6c7920617574686f722063616e2063616c6c210000000000000000000000\n        /* \"#utility.yul\":12368:12369   */\n      0x00\n        /* \"#utility.yul\":12360:12366   */\n      dup3\n        /* \"#utility.yul\":12356:12370   */\n      add\n        /* \"#utility.yul\":12349:12396   */\n      mstore\n        /* \"#utility.yul\":12232:12403   */\n      pop\n      jump\t// out\n\n    auxdata: 0xa2646970667358221220705101b0a4232995d31e7dc9f61025597fc9ab66a63256af46794470e6c92d0164736f6c63430008070033\n}\n",
				"bytecode": {
					"linkReferences": {},
					"object": "608060405260006001553480156200001657600080fd5b5060405162000f0938038062000f0983398181016040528101906200003c9190620000b7565b33600260006101000a81548173ffffffffffffffffffffffffffffffffffffffff021916908373ffffffffffffffffffffffffffffffffffffffff160217905550670de0b6b3a764000081620000939190620000e9565b60038190555050620001a2565b600081519050620000b18162000188565b92915050565b600060208284031215620000d057620000cf62000183565b5b6000620000e084828501620000a0565b91505092915050565b6000620000f6826200014a565b915062000103836200014a565b9250817fffffffffffffffffffffffffffffffffffffffffffffffffffffffffffffffff04831182151516156200013f576200013e62000154565b5b828202905092915050565b6000819050919050565b7f4e487b7100000000000000000000000000000000000000000000000000000000600052601160045260246000fd5b600080fd5b62000193816200014a565b81146200019f57600080fd5b50565b610d5780620001b26000396000f3fe6080604052600436106100595760003560e01c80630aa0a175146100ea5780632edd4fa514610115578063534844a2146101315780636f9fb98a1461013b5780637f6b28091461016657806382d69b6214610191576100a4565b366100a45760035434146100a2576040517f08c379a000000000000000000000000000000000000000000000000000000000815260040161009990610987565b60405180910390fd5b005b60035434146100e8576040517f08c379a00000000000000000000000000000000000000000000000000000000081526004016100df90610987565b60405180910390fd5b005b3480156100f657600080fd5b506100ff6101bc565b60405161010c91906109c7565b60405180910390f35b61012f600480360381019061012a9190610733565b6101c2565b005b610139610305565b005b34801561014757600080fd5b50610150610400565b60405161015d91906109c7565b60405180910390f35b34801561017257600080fd5b5061017b610408565b60405161018891906109c7565b60405180910390f35b34801561019d57600080fd5b506101a6610449565b6040516101b39190610927565b60405180910390f35b60035481565b60405180604001604052808281526020013373ffffffffffffffffffffffffffffffffffffffff168152506000806001548152602001908152602001600020600082015181600001908051906020019061021d9291906105f0565b5060208201518160010160006101000a81548173ffffffffffffffffffffffffffffffffffffffff021916908373ffffffffffffffffffffffffffffffffffffffff1602179055509050506001600081548092919061027b90610b7f565b91905055503073ffffffffffffffffffffffffffffffffffffffff166108fc349081150290604051600060405180830381858888f193505050501580156102c6573d6000803e3d6000fd5b507f9dfc9870a49c7b43c3ac5f2205775397be1d30d784ea9ee34b41821548af3b118133346040516102fa93929190610949565b60405180910390a150565b600260009054906101000a900473ffffffffffffffffffffffffffffffffffffffff1673ffffffffffffffffffffffffffffffffffffffff163373ffffffffffffffffffffffffffffffffffffffff1614610395576040517f08c379a000000000000000000000000000000000000000000000000000000000815260040161038c906109a7565b60405180910390fd5b600260009054906101000a900473ffffffffffffffffffffffffffffffffffffffff1673ffffffffffffffffffffffffffffffffffffffff166108fc479081150290604051600060405180830381858888f193505050501580156103fd573d6000803e3d6000fd5b50565b600047905090565b6000600260009054906101000a900473ffffffffffffffffffffffffffffffffffffffff1673ffffffffffffffffffffffffffffffffffffffff1631905090565b6060600060015467ffffffffffffffff81111561046957610468610c55565b5b6040519080825280602002602001820160405280156104a257816020015b61048f610676565b8152602001906001900390816104875790505b50905060005b6001548110156105e8576000808281526020019081526020016000206040518060400160405290816000820180546104df90610b1c565b80601f016020809104026020016040519081016040528092919081815260200182805461050b90610b1c565b80156105585780601f1061052d57610100808354040283529160200191610558565b820191906000526020600020905b81548152906001019060200180831161053b57829003601f168201915b505050505081526020016001820160009054906101000a900473ffffffffffffffffffffffffffffffffffffffff1673ffffffffffffffffffffffffffffffffffffffff1673ffffffffffffffffffffffffffffffffffffffff16815250508282815181106105ca576105c9610c26565b5b602002602001018190525080806105e090610b7f565b9150506104a8565b508091505090565b8280546105fc90610b1c565b90600052602060002090601f01602090048101928261061e5760008555610665565b82601f1061063757805160ff1916838001178555610665565b82800160010185558215610665579182015b82811115610664578251825591602001919060010190610649565b5b50905061067291906106a6565b5090565b604051806040016040528060608152602001600073ffffffffffffffffffffffffffffffffffffffff1681525090565b5b808211156106bf5760008160009055506001016106a7565b5090565b60006106d66106d184610a07565b6109e2565b9050828152602081018484840111156106f2576106f1610c89565b5b6106fd848285610ada565b509392505050565b600082601f83011261071a57610719610c84565b5b813561072a8482602086016106c3565b91505092915050565b60006020828403121561074957610748610c93565b5b600082013567ffffffffffffffff81111561076757610766610c8e565b5b61077384828501610705565b91505092915050565b600061078883836108db565b905092915050565b61079981610a9e565b82525050565b6107a881610a9e565b82525050565b60006107b982610a48565b6107c38185610a6b565b9350836020820285016107d585610a38565b8060005b8581101561081157848403895281516107f2858261077c565b94506107fd83610a5e565b925060208a019950506001810190506107d9565b50829750879550505050505092915050565b600061082e82610a53565b6108388185610a7c565b9350610848818560208601610ae9565b61085181610c98565b840191505092915050565b600061086782610a53565b6108718185610a8d565b9350610881818560208601610ae9565b61088a81610c98565b840191505092915050565b60006108a2602683610a8d565b91506108ad82610ca9565b604082019050919050565b60006108c5601583610a8d565b91506108d082610cf8565b602082019050919050565b600060408301600083015184820360008601526108f88282610823565b915050602083015161090d6020860182610790565b508091505092915050565b61092181610ad0565b82525050565b6000602082019050818103600083015261094181846107ae565b905092915050565b60006060820190508181036000830152610963818661085c565b9050610972602083018561079f565b61097f6040830184610918565b949350505050565b600060208201905081810360008301526109a081610895565b9050919050565b600060208201905081810360008301526109c0816108b8565b9050919050565b60006020820190506109dc6000830184610918565b92915050565b60006109ec6109fd565b90506109f88282610b4e565b919050565b6000604051905090565b600067ffffffffffffffff821115610a2257610a21610c55565b5b610a2b82610c98565b9050602081019050919050565b6000819050602082019050919050565b600081519050919050565b600081519050919050565b6000602082019050919050565b600082825260208201905092915050565b600082825260208201905092915050565b600082825260208201905092915050565b6000610aa982610ab0565b9050919050565b600073ffffffffffffffffffffffffffffffffffffffff82169050919050565b6000819050919050565b82818337600083830152505050565b60005b83811015610b07578082015181840152602081019050610aec565b83811115610b16576000848401525b50505050565b60006002820490506001821680610b3457607f821691505b60208210811415610b4857610b47610bf7565b5b50919050565b610b5782610c98565b810181811067ffffffffffffffff82111715610b7657610b75610c55565b5b80604052505050565b6000610b8a82610ad0565b91507fffffffffffffffffffffffffffffffffffffffffffffffffffffffffffffffff821415610bbd57610bbc610bc8565b5b600182019050919050565b7f4e487b7100000000000000000000000000000000000000000000000000000000600052601160045260246000fd5b7f4e487b7100000000000000000000000000000000000000000000000000000000600052602260045260246000fd5b7f4e487b7100000000000000000000000000000000000000000000000000000000600052603260045260246000fd5b7f4e487b7100000000000000000000000000000000000000000000000000000000600052604160045260246000fd5b600080fd5b600080fd5b600080fd5b600080fd5b6000601f19601f8301169050919050565b7f5061796d656e742073686f756c6420626520746865207375627363726970746960008201527f6f6e206665650000000000000000000000000000000000000000000000000000602082015250565b7f4f6e6c7920617574686f722063616e2063616c6c21000000000000000000000060008201525056fea2646970667358221220705101b0a4232995d31e7dc9f61025597fc9ab66a63256af46794470e6c92d0164736f6c63430008070033",
					"opcodes": "PUSH1 0x80 PUSH1 0x40 MSTORE PUSH1 0x0 PUSH1 0x1 SSTORE CALLVALUE DUP1 ISZERO PUSH3 0x16 JUMPI PUSH1 0x0 DUP1 REVERT JUMPDEST POP PUSH1 0x40 MLOAD PUSH3 0xF09 CODESIZE SUB DUP1 PUSH3 0xF09 DUP4 CODECOPY DUP2 DUP2 ADD PUSH1 0x40 MSTORE DUP2 ADD SWAP1 PUSH3 0x3C SWAP2 SWAP1 PUSH3 0xB7 JUMP JUMPDEST CALLER PUSH1 0x2 PUSH1 0x0 PUSH2 0x100 EXP DUP2 SLOAD DUP2 PUSH20 0xFFFFFFFFFFFFFFFFFFFFFFFFFFFFFFFFFFFFFFFF MUL NOT AND SWAP1 DUP4 PUSH20 0xFFFFFFFFFFFFFFFFFFFFFFFFFFFFFFFFFFFFFFFF AND MUL OR SWAP1 SSTORE POP PUSH8 0xDE0B6B3A7640000 DUP2 PUSH3 0x93 SWAP2 SWAP1 PUSH3 0xE9 JUMP JUMPDEST PUSH1 0x3 DUP2 SWAP1 SSTORE POP POP PUSH3 0x1A2 JUMP JUMPDEST PUSH1 0x0 DUP2 MLOAD SWAP1 POP PUSH3 0xB1 DUP2 PUSH3 0x188 JUMP JUMPDEST SWAP3 SWAP2 POP POP JUMP JUMPDEST PUSH1 0x0 PUSH1 0x20 DUP3 DUP5 SUB SLT ISZERO PUSH3 0xD0 JUMPI PUSH3 0xCF PUSH3 0x183 JUMP JUMPDEST JUMPDEST PUSH1 0x0 PUSH3 0xE0 DUP5 DUP3 DUP6 ADD PUSH3 0xA0 JUMP JUMPDEST SWAP2 POP POP SWAP3 SWAP2 POP POP JUMP JUMPDEST PUSH1 0x0 PUSH3 0xF6 DUP3 PUSH3 0x14A JUMP JUMPDEST SWAP2 POP PUSH3 0x103 DUP4 PUSH3 0x14A JUMP JUMPDEST SWAP3 POP DUP2 PUSH32 0xFFFFFFFFFFFFFFFFFFFFFFFFFFFFFFFFFFFFFFFFFFFFFFFFFFFFFFFFFFFFFFFF DIV DUP4 GT DUP3 ISZERO ISZERO AND ISZERO PUSH3 0x13F JUMPI PUSH3 0x13E PUSH3 0x154 JUMP JUMPDEST JUMPDEST DUP3 DUP3 MUL SWAP1 POP SWAP3 SWAP2 POP POP JUMP JUMPDEST PUSH1 0x0 DUP2 SWAP1 POP SWAP2 SWAP1 POP JUMP JUMPDEST PUSH32 0x4E487B7100000000000000000000000000000000000000000000000000000000 PUSH1 0x0 MSTORE PUSH1 0x11 PUSH1 0x4 MSTORE PUSH1 0x24 PUSH1 0x0 REVERT JUMPDEST PUSH1 0x0 DUP1 REVERT JUMPDEST PUSH3 0x193 DUP2 PUSH3 0x14A JUMP JUMPDEST DUP2 EQ PUSH3 0x19F JUMPI PUSH1 0x0 DUP1 REVERT JUMPDEST POP JUMP JUMPDEST PUSH2 0xD57 DUP1 PUSH3 0x1B2 PUSH1 0x0 CODECOPY PUSH1 0x0 RETURN INVALID PUSH1 0x80 PUSH1 0x40 MSTORE PUSH1 0x4 CALLDATASIZE LT PUSH2 0x59 JUMPI PUSH1 0x0 CALLDATALOAD PUSH1 0xE0 SHR DUP1 PUSH4 0xAA0A175 EQ PUSH2 0xEA JUMPI DUP1 PUSH4 0x2EDD4FA5 EQ PUSH2 0x115 JUMPI DUP1 PUSH4 0x534844A2 EQ PUSH2 0x131 JUMPI DUP1 PUSH4 0x6F9FB98A EQ PUSH2 0x13B JUMPI DUP1 PUSH4 0x7F6B2809 EQ PUSH2 0x166 JUMPI DUP1 PUSH4 0x82D69B62 EQ PUSH2 0x191 JUMPI PUSH2 0xA4 JUMP JUMPDEST CALLDATASIZE PUSH2 0xA4 JUMPI PUSH1 0x3 SLOAD CALLVALUE EQ PUSH2 0xA2 JUMPI PUSH1 0x40 MLOAD PUSH32 0x8C379A000000000000000000000000000000000000000000000000000000000 DUP2 MSTORE PUSH1 0x4 ADD PUSH2 0x99 SWAP1 PUSH2 0x987 JUMP JUMPDEST PUSH1 0x40 MLOAD DUP1 SWAP2 SUB SWAP1 REVERT JUMPDEST STOP JUMPDEST PUSH1 0x3 SLOAD CALLVALUE EQ PUSH2 0xE8 JUMPI PUSH1 0x40 MLOAD PUSH32 0x8C379A000000000000000000000000000000000000000000000000000000000 DUP2 MSTORE PUSH1 0x4 ADD PUSH2 0xDF SWAP1 PUSH2 0x987 JUMP JUMPDEST PUSH1 0x40 MLOAD DUP1 SWAP2 SUB SWAP1 REVERT JUMPDEST STOP JUMPDEST CALLVALUE DUP1 ISZERO PUSH2 0xF6 JUMPI PUSH1 0x0 DUP1 REVERT JUMPDEST POP PUSH2 0xFF PUSH2 0x1BC JUMP JUMPDEST PUSH1 0x40 MLOAD PUSH2 0x10C SWAP2 SWAP1 PUSH2 0x9C7 JUMP JUMPDEST PUSH1 0x40 MLOAD DUP1 SWAP2 SUB SWAP1 RETURN JUMPDEST PUSH2 0x12F PUSH1 0x4 DUP1 CALLDATASIZE SUB DUP2 ADD SWAP1 PUSH2 0x12A SWAP2 SWAP1 PUSH2 0x733 JUMP JUMPDEST PUSH2 0x1C2 JUMP JUMPDEST STOP JUMPDEST PUSH2 0x139 PUSH2 0x305 JUMP JUMPDEST STOP JUMPDEST CALLVALUE DUP1 ISZERO PUSH2 0x147 JUMPI PUSH1 0x0 DUP1 REVERT JUMPDEST POP PUSH2 0x150 PUSH2 0x400 JUMP JUMPDEST PUSH1 0x40 MLOAD PUSH2 0x15D SWAP2 SWAP1 PUSH2 0x9C7 JUMP JUMPDEST PUSH1 0x40 MLOAD DUP1 SWAP2 SUB SWAP1 RETURN JUMPDEST CALLVALUE DUP1 ISZERO PUSH2 0x172 JUMPI PUSH1 0x0 DUP1 REVERT JUMPDEST POP PUSH2 0x17B PUSH2 0x408 JUMP JUMPDEST PUSH1 0x40 MLOAD PUSH2 0x188 SWAP2 SWAP1 PUSH2 0x9C7 JUMP JUMPDEST PUSH1 0x40 MLOAD DUP1 SWAP2 SUB SWAP1 RETURN JUMPDEST CALLVALUE DUP1 ISZERO PUSH2 0x19D JUMPI PUSH1 0x0 DUP1 REVERT JUMPDEST POP PUSH2 0x1A6 PUSH2 0x449 JUMP JUMPDEST PUSH1 0x40 MLOAD PUSH2 0x1B3 SWAP2 SWAP1 PUSH2 0x927 JUMP JUMPDEST PUSH1 0x40 MLOAD DUP1 SWAP2 SUB SWAP1 RETURN JUMPDEST PUSH1 0x3 SLOAD DUP2 JUMP JUMPDEST PUSH1 0x40 MLOAD DUP1 PUSH1 0x40 ADD PUSH1 0x40 MSTORE DUP1 DUP3 DUP2 MSTORE PUSH1 0x20 ADD CALLER PUSH20 0xFFFFFFFFFFFFFFFFFFFFFFFFFFFFFFFFFFFFFFFF AND DUP2 MSTORE POP PUSH1 0x0 DUP1 PUSH1 0x1 SLOAD DUP2 MSTORE PUSH1 0x20 ADD SWAP1 DUP2 MSTORE PUSH1 0x20 ADD PUSH1 0x0 KECCAK256 PUSH1 0x0 DUP3 ADD MLOAD DUP2 PUSH1 0x0 ADD SWAP1 DUP1 MLOAD SWAP1 PUSH1 0x20 ADD SWAP1 PUSH2 0x21D SWAP3 SWAP2 SWAP1 PUSH2 0x5F0 JUMP JUMPDEST POP PUSH1 0x20 DUP3 ADD MLOAD DUP2 PUSH1 0x1 ADD PUSH1 0x0 PUSH2 0x100 EXP DUP2 SLOAD DUP2 PUSH20 0xFFFFFFFFFFFFFFFFFFFFFFFFFFFFFFFFFFFFFFFF MUL NOT AND SWAP1 DUP4 PUSH20 0xFFFFFFFFFFFFFFFFFFFFFFFFFFFFFFFFFFFFFFFF AND MUL OR SWAP1 SSTORE POP SWAP1 POP POP PUSH1 0x1 PUSH1 0x0 DUP2 SLOAD DUP1 SWAP3 SWAP2 SWAP1 PUSH2 0x27B SWAP1 PUSH2 0xB7F JUMP JUMPDEST SWAP2 SWAP1 POP SSTORE POP ADDRESS PUSH20 0xFFFFFFFFFFFFFFFFFFFFFFFFFFFFFFFFFFFFFFFF AND PUSH2 0x8FC CALLVALUE SWAP1 DUP2 ISZERO MUL SWAP1 PUSH1 0x40 MLOAD PUSH1 0x0 PUSH1 0x40 MLOAD DUP1 DUP4 SUB DUP2 DUP6 DUP9 DUP9 CALL SWAP4 POP POP POP POP ISZERO DUP1 ISZERO PUSH2 0x2C6 JUMPI RETURNDATASIZE PUSH1 0x0 DUP1 RETURNDATACOPY RETURNDATASIZE PUSH1 0x0 REVERT JUMPDEST POP PUSH32 0x9DFC9870A49C7B43C3AC5F2205775397BE1D30D784EA9EE34B41821548AF3B11 DUP2 CALLER CALLVALUE PUSH1 0x40 MLOAD PUSH2 0x2FA SWAP4 SWAP3 SWAP2 SWAP1 PUSH2 0x949 JUMP JUMPDEST PUSH1 0x40 MLOAD DUP1 SWAP2 SUB SWAP1 LOG1 POP JUMP JUMPDEST PUSH1 0x2 PUSH1 0x0 SWAP1 SLOAD SWAP1 PUSH2 0x100 EXP SWAP1 DIV PUSH20 0xFFFFFFFFFFFFFFFFFFFFFFFFFFFFFFFFFFFFFFFF AND PUSH20 0xFFFFFFFFFFFFFFFFFFFFFFFFFFFFFFFFFFFFFFFF AND CALLER PUSH20 0xFFFFFFFFFFFFFFFFFFFFFFFFFFFFFFFFFFFFFFFF AND EQ PUSH2 0x395 JUMPI PUSH1 0x40 MLOAD PUSH32 0x8C379A000000000000000000000000000000000000000000000000000000000 DUP2 MSTORE PUSH1 0x4 ADD PUSH2 0x38C SWAP1 PUSH2 0x9A7 JUMP JUMPDEST PUSH1 0x40 MLOAD DUP1 SWAP2 SUB SWAP1 REVERT JUMPDEST PUSH1 0x2 PUSH1 0x0 SWAP1 SLOAD SWAP1 PUSH2 0x100 EXP SWAP1 DIV PUSH20 0xFFFFFFFFFFFFFFFFFFFFFFFFFFFFFFFFFFFFFFFF AND PUSH20 0xFFFFFFFFFFFFFFFFFFFFFFFFFFFFFFFFFFFFFFFF AND PUSH2 0x8FC SELFBALANCE SWAP1 DUP2 ISZERO MUL SWAP1 PUSH1 0x40 MLOAD PUSH1 0x0 PUSH1 0x40 MLOAD DUP1 DUP4 SUB DUP2 DUP6 DUP9 DUP9 CALL SWAP4 POP POP POP POP ISZERO DUP1 ISZERO PUSH2 0x3FD JUMPI RETURNDATASIZE PUSH1 0x0 DUP1 RETURNDATACOPY RETURNDATASIZE PUSH1 0x0 REVERT JUMPDEST POP JUMP JUMPDEST PUSH1 0x0 SELFBALANCE SWAP1 POP SWAP1 JUMP JUMPDEST PUSH1 0x0 PUSH1 0x2 PUSH1 0x0 SWAP1 SLOAD SWAP1 PUSH2 0x100 EXP SWAP1 DIV PUSH20 0xFFFFFFFFFFFFFFFFFFFFFFFFFFFFFFFFFFFFFFFF AND PUSH20 0xFFFFFFFFFFFFFFFFFFFFFFFFFFFFFFFFFFFFFFFF AND BALANCE SWAP1 POP SWAP1 JUMP JUMPDEST PUSH1 0x60 PUSH1 0x0 PUSH1 0x1 SLOAD PUSH8 0xFFFFFFFFFFFFFFFF DUP2 GT ISZERO PUSH2 0x469 JUMPI PUSH2 0x468 PUSH2 0xC55 JUMP JUMPDEST JUMPDEST PUSH1 0x40 MLOAD SWAP1 DUP1 DUP3 MSTORE DUP1 PUSH1 0x20 MUL PUSH1 0x20 ADD DUP3 ADD PUSH1 0x40 MSTORE DUP1 ISZERO PUSH2 0x4A2 JUMPI DUP2 PUSH1 0x20 ADD JUMPDEST PUSH2 0x48F PUSH2 0x676 JUMP JUMPDEST DUP2 MSTORE PUSH1 0x20 ADD SWAP1 PUSH1 0x1 SWAP1 SUB SWAP1 DUP2 PUSH2 0x487 JUMPI SWAP1 POP JUMPDEST POP SWAP1 POP PUSH1 0x0 JUMPDEST PUSH1 0x1 SLOAD DUP2 LT ISZERO PUSH2 0x5E8 JUMPI PUSH1 0x0 DUP1 DUP3 DUP2 MSTORE PUSH1 0x20 ADD SWAP1 DUP2 MSTORE PUSH1 0x20 ADD PUSH1 0x0 KECCAK256 PUSH1 0x40 MLOAD DUP1 PUSH1 0x40 ADD PUSH1 0x40 MSTORE SWAP1 DUP2 PUSH1 0x0 DUP3 ADD DUP1 SLOAD PUSH2 0x4DF SWAP1 PUSH2 0xB1C JUMP JUMPDEST DUP1 PUSH1 0x1F ADD PUSH1 0x20 DUP1 SWAP2 DIV MUL PUSH1 0x20 ADD PUSH1 0x40 MLOAD SWAP1 DUP2 ADD PUSH1 0x40 MSTORE DUP1 SWAP3 SWAP2 SWAP1 DUP2 DUP2 MSTORE PUSH1 0x20 ADD DUP3 DUP1 SLOAD PUSH2 0x50B SWAP1 PUSH2 0xB1C JUMP JUMPDEST DUP1 ISZERO PUSH2 0x558 JUMPI DUP1 PUSH1 0x1F LT PUSH2 0x52D JUMPI PUSH2 0x100 DUP1 DUP4 SLOAD DIV MUL DUP4 MSTORE SWAP2 PUSH1 0x20 ADD SWAP2 PUSH2 0x558 JUMP JUMPDEST DUP3 ADD SWAP2 SWAP1 PUSH1 0x0 MSTORE PUSH1 0x20 PUSH1 0x0 KECCAK256 SWAP1 JUMPDEST DUP2 SLOAD DUP2 MSTORE SWAP1 PUSH1 0x1 ADD SWAP1 PUSH1 0x20 ADD DUP1 DUP4 GT PUSH2 0x53B JUMPI DUP3 SWAP1 SUB PUSH1 0x1F AND DUP3 ADD SWAP2 JUMPDEST POP POP POP POP POP DUP2 MSTORE PUSH1 0x20 ADD PUSH1 0x1 DUP3 ADD PUSH1 0x0 SWAP1 SLOAD SWAP1 PUSH2 0x100 EXP SWAP1 DIV PUSH20 0xFFFFFFFFFFFFFFFFFFFFFFFFFFFFFFFFFFFFFFFF AND PUSH20 0xFFFFFFFFFFFFFFFFFFFFFFFFFFFFFFFFFFFFFFFF AND PUSH20 0xFFFFFFFFFFFFFFFFFFFFFFFFFFFFFFFFFFFFFFFF AND DUP2 MSTORE POP POP DUP3 DUP3 DUP2 MLOAD DUP2 LT PUSH2 0x5CA JUMPI PUSH2 0x5C9 PUSH2 0xC26 JUMP JUMPDEST JUMPDEST PUSH1 0x20 MUL PUSH1 0x20 ADD ADD DUP2 SWAP1 MSTORE POP DUP1 DUP1 PUSH2 0x5E0 SWAP1 PUSH2 0xB7F JUMP JUMPDEST SWAP2 POP POP PUSH2 0x4A8 JUMP JUMPDEST POP DUP1 SWAP2 POP POP SWAP1 JUMP JUMPDEST DUP3 DUP1 SLOAD PUSH2 0x5FC SWAP1 PUSH2 0xB1C JUMP JUMPDEST SWAP1 PUSH1 0x0 MSTORE PUSH1 0x20 PUSH1 0x0 KECCAK256 SWAP1 PUSH1 0x1F ADD PUSH1 0x20 SWAP1 DIV DUP2 ADD SWAP3 DUP3 PUSH2 0x61E JUMPI PUSH1 0x0 DUP6 SSTORE PUSH2 0x665 JUMP JUMPDEST DUP3 PUSH1 0x1F LT PUSH2 0x637 JUMPI DUP1 MLOAD PUSH1 0xFF NOT AND DUP4 DUP1 ADD OR DUP6 SSTORE PUSH2 0x665 JUMP JUMPDEST DUP3 DUP1 ADD PUSH1 0x1 ADD DUP6 SSTORE DUP3 ISZERO PUSH2 0x665 JUMPI SWAP2 DUP3 ADD JUMPDEST DUP3 DUP2 GT ISZERO PUSH2 0x664 JUMPI DUP3 MLOAD DUP3 SSTORE SWAP2 PUSH1 0x20 ADD SWAP2 SWAP1 PUSH1 0x1 ADD SWAP1 PUSH2 0x649 JUMP JUMPDEST JUMPDEST POP SWAP1 POP PUSH2 0x672 SWAP2 SWAP1 PUSH2 0x6A6 JUMP JUMPDEST POP SWAP1 JUMP JUMPDEST PUSH1 0x40 MLOAD DUP1 PUSH1 0x40 ADD PUSH1 0x40 MSTORE DUP1 PUSH1 0x60 DUP2 MSTORE PUSH1 0x20 ADD PUSH1 0x0 PUSH20 0xFFFFFFFFFFFFFFFFFFFFFFFFFFFFFFFFFFFFFFFF AND DUP2 MSTORE POP SWAP1 JUMP JUMPDEST JUMPDEST DUP1 DUP3 GT ISZERO PUSH2 0x6BF JUMPI PUSH1 0x0 DUP2 PUSH1 0x0 SWAP1 SSTORE POP PUSH1 0x1 ADD PUSH2 0x6A7 JUMP JUMPDEST POP SWAP1 JUMP JUMPDEST PUSH1 0x0 PUSH2 0x6D6 PUSH2 0x6D1 DUP5 PUSH2 0xA07 JUMP JUMPDEST PUSH2 0x9E2 JUMP JUMPDEST SWAP1 POP DUP3 DUP2 MSTORE PUSH1 0x20 DUP2 ADD DUP5 DUP5 DUP5 ADD GT ISZERO PUSH2 0x6F2 JUMPI PUSH2 0x6F1 PUSH2 0xC89 JUMP JUMPDEST JUMPDEST PUSH2 0x6FD DUP5 DUP3 DUP6 PUSH2 0xADA JUMP JUMPDEST POP SWAP4 SWAP3 POP POP POP JUMP JUMPDEST PUSH1 0x0 DUP3 PUSH1 0x1F DUP4 ADD SLT PUSH2 0x71A JUMPI PUSH2 0x719 PUSH2 0xC84 JUMP JUMPDEST JUMPDEST DUP2 CALLDATALOAD PUSH2 0x72A DUP5 DUP3 PUSH1 0x20 DUP7 ADD PUSH2 0x6C3 JUMP JUMPDEST SWAP2 POP POP SWAP3 SWAP2 POP POP JUMP JUMPDEST PUSH1 0x0 PUSH1 0x20 DUP3 DUP5 SUB SLT ISZERO PUSH2 0x749 JUMPI PUSH2 0x748 PUSH2 0xC93 JUMP JUMPDEST JUMPDEST PUSH1 0x0 DUP3 ADD CALLDATALOAD PUSH8 0xFFFFFFFFFFFFFFFF DUP2 GT ISZERO PUSH2 0x767 JUMPI PUSH2 0x766 PUSH2 0xC8E JUMP JUMPDEST JUMPDEST PUSH2 0x773 DUP5 DUP3 DUP6 ADD PUSH2 0x705 JUMP JUMPDEST SWAP2 POP POP SWAP3 SWAP2 POP POP JUMP JUMPDEST PUSH1 0x0 PUSH2 0x788 DUP4 DUP4 PUSH2 0x8DB JUMP JUMPDEST SWAP1 POP SWAP3 SWAP2 POP POP JUMP JUMPDEST PUSH2 0x799 DUP2 PUSH2 0xA9E JUMP JUMPDEST DUP3 MSTORE POP POP JUMP JUMPDEST PUSH2 0x7A8 DUP2 PUSH2 0xA9E JUMP JUMPDEST DUP3 MSTORE POP POP JUMP JUMPDEST PUSH1 0x0 PUSH2 0x7B9 DUP3 PUSH2 0xA48 JUMP JUMPDEST PUSH2 0x7C3 DUP2 DUP6 PUSH2 0xA6B JUMP JUMPDEST SWAP4 POP DUP4 PUSH1 0x20 DUP3 MUL DUP6 ADD PUSH2 0x7D5 DUP6 PUSH2 0xA38 JUMP JUMPDEST DUP1 PUSH1 0x0 JUMPDEST DUP6 DUP2 LT ISZERO PUSH2 0x811 JUMPI DUP5 DUP5 SUB DUP10 MSTORE DUP2 MLOAD PUSH2 0x7F2 DUP6 DUP3 PUSH2 0x77C JUMP JUMPDEST SWAP5 POP PUSH2 0x7FD DUP4 PUSH2 0xA5E JUMP JUMPDEST SWAP3 POP PUSH1 0x20 DUP11 ADD SWAP10 POP POP PUSH1 0x1 DUP2 ADD SWAP1 POP PUSH2 0x7D9 JUMP JUMPDEST POP DUP3 SWAP8 POP DUP8 SWAP6 POP POP POP POP POP POP SWAP3 SWAP2 POP POP JUMP JUMPDEST PUSH1 0x0 PUSH2 0x82E DUP3 PUSH2 0xA53 JUMP JUMPDEST PUSH2 0x838 DUP2 DUP6 PUSH2 0xA7C JUMP JUMPDEST SWAP4 POP PUSH2 0x848 DUP2 DUP6 PUSH1 0x20 DUP7 ADD PUSH2 0xAE9 JUMP JUMPDEST PUSH2 0x851 DUP2 PUSH2 0xC98 JUMP JUMPDEST DUP5 ADD SWAP2 POP POP SWAP3 SWAP2 POP POP JUMP JUMPDEST PUSH1 0x0 PUSH2 0x867 DUP3 PUSH2 0xA53 JUMP JUMPDEST PUSH2 0x871 DUP2 DUP6 PUSH2 0xA8D JUMP JUMPDEST SWAP4 POP PUSH2 0x881 DUP2 DUP6 PUSH1 0x20 DUP7 ADD PUSH2 0xAE9 JUMP JUMPDEST PUSH2 0x88A DUP2 PUSH2 0xC98 JUMP JUMPDEST DUP5 ADD SWAP2 POP POP SWAP3 SWAP2 POP POP JUMP JUMPDEST PUSH1 0x0 PUSH2 0x8A2 PUSH1 0x26 DUP4 PUSH2 0xA8D JUMP JUMPDEST SWAP2 POP PUSH2 0x8AD DUP3 PUSH2 0xCA9 JUMP JUMPDEST PUSH1 0x40 DUP3 ADD SWAP1 POP SWAP2 SWAP1 POP JUMP JUMPDEST PUSH1 0x0 PUSH2 0x8C5 PUSH1 0x15 DUP4 PUSH2 0xA8D JUMP JUMPDEST SWAP2 POP PUSH2 0x8D0 DUP3 PUSH2 0xCF8 JUMP JUMPDEST PUSH1 0x20 DUP3 ADD SWAP1 POP SWAP2 SWAP1 POP JUMP JUMPDEST PUSH1 0x0 PUSH1 0x40 DUP4 ADD PUSH1 0x0 DUP4 ADD MLOAD DUP5 DUP3 SUB PUSH1 0x0 DUP7 ADD MSTORE PUSH2 0x8F8 DUP3 DUP3 PUSH2 0x823 JUMP JUMPDEST SWAP2 POP POP PUSH1 0x20 DUP4 ADD MLOAD PUSH2 0x90D PUSH1 0x20 DUP7 ADD DUP3 PUSH2 0x790 JUMP JUMPDEST POP DUP1 SWAP2 POP POP SWAP3 SWAP2 POP POP JUMP JUMPDEST PUSH2 0x921 DUP2 PUSH2 0xAD0 JUMP JUMPDEST DUP3 MSTORE POP POP JUMP JUMPDEST PUSH1 0x0 PUSH1 0x20 DUP3 ADD SWAP1 POP DUP2 DUP2 SUB PUSH1 0x0 DUP4 ADD MSTORE PUSH2 0x941 DUP2 DUP5 PUSH2 0x7AE JUMP JUMPDEST SWAP1 POP SWAP3 SWAP2 POP POP JUMP JUMPDEST PUSH1 0x0 PUSH1 0x60 DUP3 ADD SWAP1 POP DUP2 DUP2 SUB PUSH1 0x0 DUP4 ADD MSTORE PUSH2 0x963 DUP2 DUP7 PUSH2 0x85C JUMP JUMPDEST SWAP1 POP PUSH2 0x972 PUSH1 0x20 DUP4 ADD DUP6 PUSH2 0x79F JUMP JUMPDEST PUSH2 0x97F PUSH1 0x40 DUP4 ADD DUP5 PUSH2 0x918 JUMP JUMPDEST SWAP5 SWAP4 POP POP POP POP JUMP JUMPDEST PUSH1 0x0 PUSH1 0x20 DUP3 ADD SWAP1 POP DUP2 DUP2 SUB PUSH1 0x0 DUP4 ADD MSTORE PUSH2 0x9A0 DUP2 PUSH2 0x895 JUMP JUMPDEST SWAP1 POP SWAP2 SWAP1 POP JUMP JUMPDEST PUSH1 0x0 PUSH1 0x20 DUP3 ADD SWAP1 POP DUP2 DUP2 SUB PUSH1 0x0 DUP4 ADD MSTORE PUSH2 0x9C0 DUP2 PUSH2 0x8B8 JUMP JUMPDEST SWAP1 POP SWAP2 SWAP1 POP JUMP JUMPDEST PUSH1 0x0 PUSH1 0x20 DUP3 ADD SWAP1 POP PUSH2 0x9DC PUSH1 0x0 DUP4 ADD DUP5 PUSH2 0x918 JUMP JUMPDEST SWAP3 SWAP2 POP POP JUMP JUMPDEST PUSH1 0x0 PUSH2 0x9EC PUSH2 0x9FD JUMP JUMPDEST SWAP1 POP PUSH2 0x9F8 DUP3 DUP3 PUSH2 0xB4E JUMP JUMPDEST SWAP2 SWAP1 POP JUMP JUMPDEST PUSH1 0x0 PUSH1 0x40 MLOAD SWAP1 POP SWAP1 JUMP JUMPDEST PUSH1 0x0 PUSH8 0xFFFFFFFFFFFFFFFF DUP3 GT ISZERO PUSH2 0xA22 JUMPI PUSH2 0xA21 PUSH2 0xC55 JUMP JUMPDEST JUMPDEST PUSH2 0xA2B DUP3 PUSH2 0xC98 JUMP JUMPDEST SWAP1 POP PUSH1 0x20 DUP2 ADD SWAP1 POP SWAP2 SWAP1 POP JUMP JUMPDEST PUSH1 0x0 DUP2 SWAP1 POP PUSH1 0x20 DUP3 ADD SWAP1 POP SWAP2 SWAP1 POP JUMP JUMPDEST PUSH1 0x0 DUP2 MLOAD SWAP1 POP SWAP2 SWAP1 POP JUMP JUMPDEST PUSH1 0x0 DUP2 MLOAD SWAP1 POP SWAP2 SWAP1 POP JUMP JUMPDEST PUSH1 0x0 PUSH1 0x20 DUP3 ADD SWAP1 POP SWAP2 SWAP1 POP JUMP JUMPDEST PUSH1 0x0 DUP3 DUP3 MSTORE PUSH1 0x20 DUP3 ADD SWAP1 POP SWAP3 SWAP2 POP POP JUMP JUMPDEST PUSH1 0x0 DUP3 DUP3 MSTORE PUSH1 0x20 DUP3 ADD SWAP1 POP SWAP3 SWAP2 POP POP JUMP JUMPDEST PUSH1 0x0 DUP3 DUP3 MSTORE PUSH1 0x20 DUP3 ADD SWAP1 POP SWAP3 SWAP2 POP POP JUMP JUMPDEST PUSH1 0x0 PUSH2 0xAA9 DUP3 PUSH2 0xAB0 JUMP JUMPDEST SWAP1 POP SWAP2 SWAP1 POP JUMP JUMPDEST PUSH1 0x0 PUSH20 0xFFFFFFFFFFFFFFFFFFFFFFFFFFFFFFFFFFFFFFFF DUP3 AND SWAP1 POP SWAP2 SWAP1 POP JUMP JUMPDEST PUSH1 0x0 DUP2 SWAP1 POP SWAP2 SWAP1 POP JUMP JUMPDEST DUP3 DUP2 DUP4 CALLDATACOPY PUSH1 0x0 DUP4 DUP4 ADD MSTORE POP POP POP JUMP JUMPDEST PUSH1 0x0 JUMPDEST DUP4 DUP2 LT ISZERO PUSH2 0xB07 JUMPI DUP1 DUP3 ADD MLOAD DUP2 DUP5 ADD MSTORE PUSH1 0x20 DUP2 ADD SWAP1 POP PUSH2 0xAEC JUMP JUMPDEST DUP4 DUP2 GT ISZERO PUSH2 0xB16 JUMPI PUSH1 0x0 DUP5 DUP5 ADD MSTORE JUMPDEST POP POP POP POP JUMP JUMPDEST PUSH1 0x0 PUSH1 0x2 DUP3 DIV SWAP1 POP PUSH1 0x1 DUP3 AND DUP1 PUSH2 0xB34 JUMPI PUSH1 0x7F DUP3 AND SWAP2 POP JUMPDEST PUSH1 0x20 DUP3 LT DUP2 EQ ISZERO PUSH2 0xB48 JUMPI PUSH2 0xB47 PUSH2 0xBF7 JUMP JUMPDEST JUMPDEST POP SWAP2 SWAP1 POP JUMP JUMPDEST PUSH2 0xB57 DUP3 PUSH2 0xC98 JUMP JUMPDEST DUP2 ADD DUP2 DUP2 LT PUSH8 0xFFFFFFFFFFFFFFFF DUP3 GT OR ISZERO PUSH2 0xB76 JUMPI PUSH2 0xB75 PUSH2 0xC55 JUMP JUMPDEST JUMPDEST DUP1 PUSH1 0x40 MSTORE POP POP POP JUMP JUMPDEST PUSH1 0x0 PUSH2 0xB8A DUP3 PUSH2 0xAD0 JUMP JUMPDEST SWAP2 POP PUSH32 0xFFFFFFFFFFFFFFFFFFFFFFFFFFFFFFFFFFFFFFFFFFFFFFFFFFFFFFFFFFFFFFFF DUP3 EQ ISZERO PUSH2 0xBBD JUMPI PUSH2 0xBBC PUSH2 0xBC8 JUMP JUMPDEST JUMPDEST PUSH1 0x1 DUP3 ADD SWAP1 POP SWAP2 SWAP1 POP JUMP JUMPDEST PUSH32 0x4E487B7100000000000000000000000000000000000000000000000000000000 PUSH1 0x0 MSTORE PUSH1 0x11 PUSH1 0x4 MSTORE PUSH1 0x24 PUSH1 0x0 REVERT JUMPDEST PUSH32 0x4E487B7100000000000000000000000000000000000000000000000000000000 PUSH1 0x0 MSTORE PUSH1 0x22 PUSH1 0x4 MSTORE PUSH1 0x24 PUSH1 0x0 REVERT JUMPDEST PUSH32 0x4E487B7100000000000000000000000000000000000000000000000000000000 PUSH1 0x0 MSTORE PUSH1 0x32 PUSH1 0x4 MSTORE PUSH1 0x24 PUSH1 0x0 REVERT JUMPDEST PUSH32 0x4E487B7100000000000000000000000000000000000000000000000000000000 PUSH1 0x0 MSTORE PUSH1 0x41 PUSH1 0x4 MSTORE PUSH1 0x24 PUSH1 0x0 REVERT JUMPDEST PUSH1 0x0 DUP1 REVERT JUMPDEST PUSH1 0x0 DUP1 REVERT JUMPDEST PUSH1 0x0 DUP1 REVERT JUMPDEST PUSH1 0x0 DUP1 REVERT JUMPDEST PUSH1 0x0 PUSH1 0x1F NOT PUSH1 0x1F DUP4 ADD AND SWAP1 POP SWAP2 SWAP1 POP JUMP JUMPDEST PUSH32 0x5061796D656E742073686F756C64206265207468652073756273637269707469 PUSH1 0x0 DUP3 ADD MSTORE PUSH32 0x6F6E206665650000000000000000000000000000000000000000000000000000 PUSH1 0x20 DUP3 ADD MSTORE POP JUMP JUMPDEST PUSH32 0x4F6E6C7920617574686F722063616E2063616C6C210000000000000000000000 PUSH1 0x0 DUP3 ADD MSTORE POP JUMP INVALID LOG2 PUSH5 0x6970667358 0x22 SLT KECCAK256 PUSH17 0x5101B0A4232995D31E7DC9F61025597FC9 0xAB PUSH7 0xA63256AF467944 PUSH17 0xE6C92D0164736F6C634300080700330000 "
				},
				"gasEstimates": {
					"creation": {
						"codeDepositCost": "683000",
						"executionCost": "infinite",
						"totalCost": "infinite"
					},
					"external": {
						"": "2633",
						"addSubscriber(string)": "infinite",
						"getAuthorBalance()": "5145",
						"getContractBalance()": "383",
						"printSubscribersList()": "infinite",
						"subscriptionFee()": "2407",
						"withdrawAmount()": "infinite"
					}
				},
				"methodIdentifiers": {
					"addSubscriber(string)": "2edd4fa5",
					"getAuthorBalance()": "7f6b2809",
					"getContractBalance()": "6f9fb98a",
					"printSubscribersList()": "82d69b62",
					"subscriptionFee()": "0aa0a175",
					"withdrawAmount()": "534844a2"
				}
			},
			"storageLayout": {
				"storage": [
					{
						"astId": 6,
						"contract": "contracts/myContract.sol:testContract",
						"label": "subscribers",
						"offset": 0,
						"slot": "0",
						"type": "t_mapping(t_uint256,t_struct(subscriber)14_storage)"
					},
					{
						"astId": 9,
						"contract": "contracts/myContract.sol:testContract",
						"label": "subscriberCount",
						"offset": 0,
						"slot": "1",
						"type": "t_uint256"
					},
					{
						"astId": 16,
						"contract": "contracts/myContract.sol:testContract",
						"label": "author",
						"offset": 0,
						"slot": "2",
						"type": "t_address_payable"
					},
					{
						"astId": 18,
						"contract": "contracts/myContract.sol:testContract",
						"label": "subscriptionFee",
						"offset": 0,
						"slot": "3",
						"type": "t_uint256"
					}
				],
				"types": {
					"t_address": {
						"encoding": "inplace",
						"label": "address",
						"numberOfBytes": "20"
					},
					"t_address_payable": {
						"encoding": "inplace",
						"label": "address payable",
						"numberOfBytes": "20"
					},
					"t_mapping(t_uint256,t_struct(subscriber)14_storage)": {
						"encoding": "mapping",
						"key": "t_uint256",
						"label": "mapping(uint256 => struct testContract.subscriber)",
						"numberOfBytes": "32",
						"value": "t_struct(subscriber)14_storage"
					},
					"t_string_storage": {
						"encoding": "bytes",
						"label": "string",
						"numberOfBytes": "32"
					},
					"t_struct(subscriber)14_storage": {
						"encoding": "inplace",
						"label": "struct testContract.subscriber",
						"members": [
							{
								"astId": 11,
								"contract": "contracts/myContract.sol:testContract",
								"label": "name",
								"offset": 0,
								"slot": "0",
								"type": "t_string_storage"
							},
							{
								"astId": 13,
								"contract": "contracts/myContract.sol:testContract",
								"label": "addr",
								"offset": 0,
								"slot": "1",
								"type": "t_address"
							}
						],
						"numberOfBytes": "64"
					},
					"t_uint256": {
						"encoding": "inplace",
						"label": "uint256",
						"numberOfBytes": "32"
					}
				}
			},
			"userdoc": {
				"kind": "user",
				"methods": {},
				"version": 1
			}
		}
	}
}