{
	"contracts/myContract.sol": {
		"testContract": {
			"abi": [
				{
					"inputs": [
						{
							"internalType": "uint256",
							"name": "_fee",
							"type": "uint256"
						},
						{
							"internalType": "string",
							"name": "_channelName",
							"type": "string"
						}
					],
					"stateMutability": "nonpayable",
					"type": "constructor"
				},
				{
					"anonymous": false,
					"inputs": [
						{
							"indexed": true,
							"internalType": "string",
							"name": "channelName",
							"type": "string"
						},
						{
							"indexed": false,
							"internalType": "string",
							"name": "articleTitle",
							"type": "string"
						},
						{
							"indexed": false,
							"internalType": "string",
							"name": "articleCID",
							"type": "string"
						},
						{
							"indexed": false,
							"internalType": "uint256",
							"name": "articleTimeStamp",
							"type": "uint256"
						}
					],
					"name": "articlePublished",
					"type": "event"
				},
				{
					"stateMutability": "payable",
					"type": "fallback"
				},
				{
					"inputs": [],
					"name": "addSubscriber",
					"outputs": [],
					"stateMutability": "payable",
					"type": "function"
				},
				{
					"inputs": [],
					"name": "channelName",
					"outputs": [
						{
							"internalType": "string",
							"name": "",
							"type": "string"
						}
					],
					"stateMutability": "view",
					"type": "function"
				},
				{
					"inputs": [
						{
							"internalType": "uint256",
							"name": "_articleNo",
							"type": "uint256"
						}
					],
					"name": "getArticleInfo",
					"outputs": [
						{
							"components": [
								{
									"internalType": "uint256",
									"name": "articleNo",
									"type": "uint256"
								},
								{
									"internalType": "string",
									"name": "atricleTitle",
									"type": "string"
								},
								{
									"internalType": "string",
									"name": "articleCID",
									"type": "string"
								},
								{
									"internalType": "uint256",
									"name": "articleTimeStamp",
									"type": "uint256"
								}
							],
							"internalType": "struct testContract.articleInfo",
							"name": "",
							"type": "tuple"
						}
					],
					"stateMutability": "view",
					"type": "function"
				},
				{
					"inputs": [],
					"name": "printSubscribersList",
					"outputs": [
						{
							"internalType": "address[]",
							"name": "",
							"type": "address[]"
						}
					],
					"stateMutability": "view",
					"type": "function"
				},
				{
					"inputs": [
						{
							"internalType": "string",
							"name": "_articleTitle",
							"type": "string"
						},
						{
							"internalType": "string",
							"name": "_articleCID",
							"type": "string"
						}
					],
					"name": "publishArticle",
					"outputs": [],
					"stateMutability": "payable",
					"type": "function"
				},
				{
					"inputs": [],
					"name": "subscriptionFee",
					"outputs": [
						{
							"internalType": "uint256",
							"name": "",
							"type": "uint256"
						}
					],
					"stateMutability": "view",
					"type": "function"
				},
				{
					"inputs": [],
					"name": "withdrawAmount",
					"outputs": [],
					"stateMutability": "payable",
					"type": "function"
				},
				{
					"stateMutability": "payable",
					"type": "receive"
				}
			],
			"devdoc": {
				"kind": "dev",
				"methods": {},
				"version": 1
			},
			"evm": {
				"assembly": "    /* \"contracts/myContract.sol\":76:2372  contract testContract {\r... */\n  mstore(0x40, 0x80)\n    /* \"contracts/myContract.sol\":819:1049  constructor(uint _fee, string memory _channelName){\r... */\n  callvalue\n  dup1\n  iszero\n  tag_1\n  jumpi\n  0x00\n  dup1\n  revert\ntag_1:\n  pop\n  mload(0x40)\n  sub(codesize, bytecodeSize)\n  dup1\n  bytecodeSize\n  dup4\n  codecopy\n  dup2\n  dup2\n  add\n  0x40\n  mstore\n  dup2\n  add\n  swap1\n  tag_2\n  swap2\n  swap1\n  tag_3\n  jump\t// in\ntag_2:\n    /* \"contracts/myContract.sol\":897:907  msg.sender */\n  caller\n    /* \"contracts/myContract.sol\":880:886  author */\n  0x04\n  0x00\n    /* \"contracts/myContract.sol\":880:908  author = payable(msg.sender) */\n  0x0100\n  exp\n  dup2\n  sload\n  dup2\n  0xffffffffffffffffffffffffffffffffffffffff\n  mul\n  not\n  and\n  swap1\n  dup4\n  0xffffffffffffffffffffffffffffffffffffffff\n  and\n  mul\n  or\n  swap1\n  sstore\n  pop\n    /* \"contracts/myContract.sol\":944:947  1e9 */\n  0x3b9aca00\n    /* \"contracts/myContract.sol\":937:941  _fee */\n  dup3\n    /* \"contracts/myContract.sol\":937:947  _fee * 1e9 */\n  tag_6\n  swap2\n  swap1\n  tag_7\n  jump\t// in\ntag_6:\n    /* \"contracts/myContract.sol\":919:934  subscriptionFee */\n  0x05\n    /* \"contracts/myContract.sol\":919:947  subscriptionFee = _fee * 1e9 */\n  dup2\n  swap1\n  sstore\n  pop\n    /* \"contracts/myContract.sol\":972:984  _channelName */\n  dup1\n    /* \"contracts/myContract.sol\":958:969  channelName */\n  0x06\n    /* \"contracts/myContract.sol\":958:984  channelName = _channelName */\n  swap1\n  dup1\n  mload\n  swap1\n  0x20\n  add\n  swap1\n  tag_8\n  swap3\n  swap2\n  swap1\n  tag_9\n  jump\t// in\ntag_8:\n  pop\n    /* \"contracts/myContract.sol\":1013:1014  0 */\n  0x00\n    /* \"contracts/myContract.sol\":995:1010  subscriberCount */\n  0x01\n    /* \"contracts/myContract.sol\":995:1014  subscriberCount = 0 */\n  dup2\n  swap1\n  sstore\n  pop\n    /* \"contracts/myContract.sol\":1040:1041  0 */\n  0x00\n    /* \"contracts/myContract.sol\":1025:1037  articleCount */\n  0x03\n    /* \"contracts/myContract.sol\":1025:1041  articleCount = 0 */\n  dup2\n  swap1\n  sstore\n  pop\n    /* \"contracts/myContract.sol\":819:1049  constructor(uint _fee, string memory _channelName){\r... */\n  pop\n  pop\n    /* \"contracts/myContract.sol\":76:2372  contract testContract {\r... */\n  jump(tag_10)\ntag_9:\n  dup3\n  dup1\n  sload\n  tag_11\n  swap1\n  tag_12\n  jump\t// in\ntag_11:\n  swap1\n  0x00\n  mstore\n  keccak256(0x00, 0x20)\n  swap1\n  0x1f\n  add\n  0x20\n  swap1\n  div\n  dup2\n  add\n  swap3\n  dup3\n  tag_14\n  jumpi\n  0x00\n  dup6\n  sstore\n  jump(tag_13)\ntag_14:\n  dup3\n  0x1f\n  lt\n  tag_15\n  jumpi\n  dup1\n  mload\n  not(0xff)\n  and\n  dup4\n  dup1\n  add\n  or\n  dup6\n  sstore\n  jump(tag_13)\ntag_15:\n  dup3\n  dup1\n  add\n  0x01\n  add\n  dup6\n  sstore\n  dup3\n  iszero\n  tag_13\n  jumpi\n  swap2\n  dup3\n  add\ntag_16:\n  dup3\n  dup2\n  gt\n  iszero\n  tag_17\n  jumpi\n  dup3\n  mload\n  dup3\n  sstore\n  swap2\n  0x20\n  add\n  swap2\n  swap1\n  0x01\n  add\n  swap1\n  jump(tag_16)\ntag_17:\ntag_13:\n  pop\n  swap1\n  pop\n  tag_18\n  swap2\n  swap1\n  tag_19\n  jump\t// in\ntag_18:\n  pop\n  swap1\n  jump\t// out\ntag_19:\ntag_20:\n  dup1\n  dup3\n  gt\n  iszero\n  tag_21\n  jumpi\n  0x00\n  dup2\n  0x00\n  swap1\n  sstore\n  pop\n  0x01\n  add\n  jump(tag_20)\ntag_21:\n  pop\n  swap1\n  jump\t// out\n    /* \"#utility.yul\":7:428   */\ntag_23:\n    /* \"#utility.yul\":96:101   */\n  0x00\n    /* \"#utility.yul\":121:187   */\n  tag_25\n    /* \"#utility.yul\":137:186   */\n  tag_26\n    /* \"#utility.yul\":179:185   */\n  dup5\n    /* \"#utility.yul\":137:186   */\n  tag_27\n  jump\t// in\ntag_26:\n    /* \"#utility.yul\":121:187   */\n  tag_28\n  jump\t// in\ntag_25:\n    /* \"#utility.yul\":112:187   */\n  swap1\n  pop\n    /* \"#utility.yul\":210:216   */\n  dup3\n    /* \"#utility.yul\":203:208   */\n  dup2\n    /* \"#utility.yul\":196:217   */\n  mstore\n    /* \"#utility.yul\":248:252   */\n  0x20\n    /* \"#utility.yul\":241:246   */\n  dup2\n    /* \"#utility.yul\":237:253   */\n  add\n    /* \"#utility.yul\":286:289   */\n  dup5\n    /* \"#utility.yul\":277:283   */\n  dup5\n    /* \"#utility.yul\":272:275   */\n  dup5\n    /* \"#utility.yul\":268:284   */\n  add\n    /* \"#utility.yul\":265:290   */\n  gt\n    /* \"#utility.yul\":262:374   */\n  iszero\n  tag_29\n  jumpi\n    /* \"#utility.yul\":293:372   */\n  tag_30\n  tag_31\n  jump\t// in\ntag_30:\n    /* \"#utility.yul\":262:374   */\ntag_29:\n    /* \"#utility.yul\":383:422   */\n  tag_32\n    /* \"#utility.yul\":415:421   */\n  dup5\n    /* \"#utility.yul\":410:413   */\n  dup3\n    /* \"#utility.yul\":405:408   */\n  dup6\n    /* \"#utility.yul\":383:422   */\n  tag_33\n  jump\t// in\ntag_32:\n    /* \"#utility.yul\":102:428   */\n  pop\n    /* \"#utility.yul\":7:428   */\n  swap4\n  swap3\n  pop\n  pop\n  pop\n  jump\t// out\n    /* \"#utility.yul\":448:803   */\ntag_34:\n    /* \"#utility.yul\":515:520   */\n  0x00\n    /* \"#utility.yul\":564:567   */\n  dup3\n    /* \"#utility.yul\":557:561   */\n  0x1f\n    /* \"#utility.yul\":549:555   */\n  dup4\n    /* \"#utility.yul\":545:562   */\n  add\n    /* \"#utility.yul\":541:568   */\n  slt\n    /* \"#utility.yul\":531:653   */\n  tag_36\n  jumpi\n    /* \"#utility.yul\":572:651   */\n  tag_37\n  tag_38\n  jump\t// in\ntag_37:\n    /* \"#utility.yul\":531:653   */\ntag_36:\n    /* \"#utility.yul\":682:688   */\n  dup2\n    /* \"#utility.yul\":676:689   */\n  mload\n    /* \"#utility.yul\":707:797   */\n  tag_39\n    /* \"#utility.yul\":793:796   */\n  dup5\n    /* \"#utility.yul\":785:791   */\n  dup3\n    /* \"#utility.yul\":778:782   */\n  0x20\n    /* \"#utility.yul\":770:776   */\n  dup7\n    /* \"#utility.yul\":766:783   */\n  add\n    /* \"#utility.yul\":707:797   */\n  tag_23\n  jump\t// in\ntag_39:\n    /* \"#utility.yul\":698:797   */\n  swap2\n  pop\n    /* \"#utility.yul\":521:803   */\n  pop\n    /* \"#utility.yul\":448:803   */\n  swap3\n  swap2\n  pop\n  pop\n  jump\t// out\n    /* \"#utility.yul\":809:952   */\ntag_40:\n    /* \"#utility.yul\":866:871   */\n  0x00\n    /* \"#utility.yul\":897:903   */\n  dup2\n    /* \"#utility.yul\":891:904   */\n  mload\n    /* \"#utility.yul\":882:904   */\n  swap1\n  pop\n    /* \"#utility.yul\":913:946   */\n  tag_42\n    /* \"#utility.yul\":940:945   */\n  dup2\n    /* \"#utility.yul\":913:946   */\n  tag_43\n  jump\t// in\ntag_42:\n    /* \"#utility.yul\":809:952   */\n  swap3\n  swap2\n  pop\n  pop\n  jump\t// out\n    /* \"#utility.yul\":958:1638   */\ntag_3:\n    /* \"#utility.yul\":1047:1053   */\n  0x00\n    /* \"#utility.yul\":1055:1061   */\n  dup1\n    /* \"#utility.yul\":1104:1106   */\n  0x40\n    /* \"#utility.yul\":1092:1101   */\n  dup4\n    /* \"#utility.yul\":1083:1090   */\n  dup6\n    /* \"#utility.yul\":1079:1102   */\n  sub\n    /* \"#utility.yul\":1075:1107   */\n  slt\n    /* \"#utility.yul\":1072:1191   */\n  iszero\n  tag_45\n  jumpi\n    /* \"#utility.yul\":1110:1189   */\n  tag_46\n  tag_47\n  jump\t// in\ntag_46:\n    /* \"#utility.yul\":1072:1191   */\ntag_45:\n    /* \"#utility.yul\":1230:1231   */\n  0x00\n    /* \"#utility.yul\":1255:1319   */\n  tag_48\n    /* \"#utility.yul\":1311:1318   */\n  dup6\n    /* \"#utility.yul\":1302:1308   */\n  dup3\n    /* \"#utility.yul\":1291:1300   */\n  dup7\n    /* \"#utility.yul\":1287:1309   */\n  add\n    /* \"#utility.yul\":1255:1319   */\n  tag_40\n  jump\t// in\ntag_48:\n    /* \"#utility.yul\":1245:1319   */\n  swap3\n  pop\n    /* \"#utility.yul\":1201:1329   */\n  pop\n    /* \"#utility.yul\":1389:1391   */\n  0x20\n    /* \"#utility.yul\":1378:1387   */\n  dup4\n    /* \"#utility.yul\":1374:1392   */\n  add\n    /* \"#utility.yul\":1368:1393   */\n  mload\n    /* \"#utility.yul\":1420:1438   */\n  0xffffffffffffffff\n    /* \"#utility.yul\":1412:1418   */\n  dup2\n    /* \"#utility.yul\":1409:1439   */\n  gt\n    /* \"#utility.yul\":1406:1523   */\n  iszero\n  tag_49\n  jumpi\n    /* \"#utility.yul\":1442:1521   */\n  tag_50\n  tag_51\n  jump\t// in\ntag_50:\n    /* \"#utility.yul\":1406:1523   */\ntag_49:\n    /* \"#utility.yul\":1547:1621   */\n  tag_52\n    /* \"#utility.yul\":1613:1620   */\n  dup6\n    /* \"#utility.yul\":1604:1610   */\n  dup3\n    /* \"#utility.yul\":1593:1602   */\n  dup7\n    /* \"#utility.yul\":1589:1611   */\n  add\n    /* \"#utility.yul\":1547:1621   */\n  tag_34\n  jump\t// in\ntag_52:\n    /* \"#utility.yul\":1537:1621   */\n  swap2\n  pop\n    /* \"#utility.yul\":1339:1631   */\n  pop\n    /* \"#utility.yul\":958:1638   */\n  swap3\n  pop\n  swap3\n  swap1\n  pop\n  jump\t// out\n    /* \"#utility.yul\":1644:1773   */\ntag_28:\n    /* \"#utility.yul\":1678:1684   */\n  0x00\n    /* \"#utility.yul\":1705:1725   */\n  tag_54\n  tag_55\n  jump\t// in\ntag_54:\n    /* \"#utility.yul\":1695:1725   */\n  swap1\n  pop\n    /* \"#utility.yul\":1734:1767   */\n  tag_56\n    /* \"#utility.yul\":1762:1766   */\n  dup3\n    /* \"#utility.yul\":1754:1760   */\n  dup3\n    /* \"#utility.yul\":1734:1767   */\n  tag_57\n  jump\t// in\ntag_56:\n    /* \"#utility.yul\":1644:1773   */\n  swap2\n  swap1\n  pop\n  jump\t// out\n    /* \"#utility.yul\":1779:1854   */\ntag_55:\n    /* \"#utility.yul\":1812:1818   */\n  0x00\n    /* \"#utility.yul\":1845:1847   */\n  0x40\n    /* \"#utility.yul\":1839:1848   */\n  mload\n    /* \"#utility.yul\":1829:1848   */\n  swap1\n  pop\n    /* \"#utility.yul\":1779:1854   */\n  swap1\n  jump\t// out\n    /* \"#utility.yul\":1860:2168   */\ntag_27:\n    /* \"#utility.yul\":1922:1926   */\n  0x00\n    /* \"#utility.yul\":2012:2030   */\n  0xffffffffffffffff\n    /* \"#utility.yul\":2004:2010   */\n  dup3\n    /* \"#utility.yul\":2001:2031   */\n  gt\n    /* \"#utility.yul\":1998:2054   */\n  iszero\n  tag_60\n  jumpi\n    /* \"#utility.yul\":2034:2052   */\n  tag_61\n  tag_62\n  jump\t// in\ntag_61:\n    /* \"#utility.yul\":1998:2054   */\ntag_60:\n    /* \"#utility.yul\":2072:2101   */\n  tag_63\n    /* \"#utility.yul\":2094:2100   */\n  dup3\n    /* \"#utility.yul\":2072:2101   */\n  tag_64\n  jump\t// in\ntag_63:\n    /* \"#utility.yul\":2064:2101   */\n  swap1\n  pop\n    /* \"#utility.yul\":2156:2160   */\n  0x20\n    /* \"#utility.yul\":2150:2154   */\n  dup2\n    /* \"#utility.yul\":2146:2161   */\n  add\n    /* \"#utility.yul\":2138:2161   */\n  swap1\n  pop\n    /* \"#utility.yul\":1860:2168   */\n  swap2\n  swap1\n  pop\n  jump\t// out\n    /* \"#utility.yul\":2174:2522   */\ntag_7:\n    /* \"#utility.yul\":2214:2221   */\n  0x00\n    /* \"#utility.yul\":2237:2257   */\n  tag_66\n    /* \"#utility.yul\":2255:2256   */\n  dup3\n    /* \"#utility.yul\":2237:2257   */\n  tag_67\n  jump\t// in\ntag_66:\n    /* \"#utility.yul\":2232:2257   */\n  swap2\n  pop\n    /* \"#utility.yul\":2271:2291   */\n  tag_68\n    /* \"#utility.yul\":2289:2290   */\n  dup4\n    /* \"#utility.yul\":2271:2291   */\n  tag_67\n  jump\t// in\ntag_68:\n    /* \"#utility.yul\":2266:2291   */\n  swap3\n  pop\n    /* \"#utility.yul\":2459:2460   */\n  dup2\n    /* \"#utility.yul\":2391:2457   */\n  0xffffffffffffffffffffffffffffffffffffffffffffffffffffffffffffffff\n    /* \"#utility.yul\":2387:2461   */\n  div\n    /* \"#utility.yul\":2384:2385   */\n  dup4\n    /* \"#utility.yul\":2381:2462   */\n  gt\n    /* \"#utility.yul\":2376:2377   */\n  dup3\n    /* \"#utility.yul\":2369:2378   */\n  iszero\n    /* \"#utility.yul\":2362:2379   */\n  iszero\n    /* \"#utility.yul\":2358:2463   */\n  and\n    /* \"#utility.yul\":2355:2486   */\n  iszero\n  tag_69\n  jumpi\n    /* \"#utility.yul\":2466:2484   */\n  tag_70\n  tag_71\n  jump\t// in\ntag_70:\n    /* \"#utility.yul\":2355:2486   */\ntag_69:\n    /* \"#utility.yul\":2514:2515   */\n  dup3\n    /* \"#utility.yul\":2511:2512   */\n  dup3\n    /* \"#utility.yul\":2507:2516   */\n  mul\n    /* \"#utility.yul\":2496:2516   */\n  swap1\n  pop\n    /* \"#utility.yul\":2174:2522   */\n  swap3\n  swap2\n  pop\n  pop\n  jump\t// out\n    /* \"#utility.yul\":2528:2605   */\ntag_67:\n    /* \"#utility.yul\":2565:2572   */\n  0x00\n    /* \"#utility.yul\":2594:2599   */\n  dup2\n    /* \"#utility.yul\":2583:2599   */\n  swap1\n  pop\n    /* \"#utility.yul\":2528:2605   */\n  swap2\n  swap1\n  pop\n  jump\t// out\n    /* \"#utility.yul\":2611:2918   */\ntag_33:\n    /* \"#utility.yul\":2679:2680   */\n  0x00\n    /* \"#utility.yul\":2689:2802   */\ntag_74:\n    /* \"#utility.yul\":2703:2709   */\n  dup4\n    /* \"#utility.yul\":2700:2701   */\n  dup2\n    /* \"#utility.yul\":2697:2710   */\n  lt\n    /* \"#utility.yul\":2689:2802   */\n  iszero\n  tag_76\n  jumpi\n    /* \"#utility.yul\":2788:2789   */\n  dup1\n    /* \"#utility.yul\":2783:2786   */\n  dup3\n    /* \"#utility.yul\":2779:2790   */\n  add\n    /* \"#utility.yul\":2773:2791   */\n  mload\n    /* \"#utility.yul\":2769:2770   */\n  dup2\n    /* \"#utility.yul\":2764:2767   */\n  dup5\n    /* \"#utility.yul\":2760:2771   */\n  add\n    /* \"#utility.yul\":2753:2792   */\n  mstore\n    /* \"#utility.yul\":2725:2727   */\n  0x20\n    /* \"#utility.yul\":2722:2723   */\n  dup2\n    /* \"#utility.yul\":2718:2728   */\n  add\n    /* \"#utility.yul\":2713:2728   */\n  swap1\n  pop\n    /* \"#utility.yul\":2689:2802   */\n  jump(tag_74)\ntag_76:\n    /* \"#utility.yul\":2820:2826   */\n  dup4\n    /* \"#utility.yul\":2817:2818   */\n  dup2\n    /* \"#utility.yul\":2814:2827   */\n  gt\n    /* \"#utility.yul\":2811:2912   */\n  iszero\n  tag_77\n  jumpi\n    /* \"#utility.yul\":2900:2901   */\n  0x00\n    /* \"#utility.yul\":2891:2897   */\n  dup5\n    /* \"#utility.yul\":2886:2889   */\n  dup5\n    /* \"#utility.yul\":2882:2898   */\n  add\n    /* \"#utility.yul\":2875:2902   */\n  mstore\n    /* \"#utility.yul\":2811:2912   */\ntag_77:\n    /* \"#utility.yul\":2660:2918   */\n  pop\n    /* \"#utility.yul\":2611:2918   */\n  pop\n  pop\n  pop\n  jump\t// out\n    /* \"#utility.yul\":2924:3244   */\ntag_12:\n    /* \"#utility.yul\":2968:2974   */\n  0x00\n    /* \"#utility.yul\":3005:3006   */\n  0x02\n    /* \"#utility.yul\":2999:3003   */\n  dup3\n    /* \"#utility.yul\":2995:3007   */\n  div\n    /* \"#utility.yul\":2985:3007   */\n  swap1\n  pop\n    /* \"#utility.yul\":3052:3053   */\n  0x01\n    /* \"#utility.yul\":3046:3050   */\n  dup3\n    /* \"#utility.yul\":3042:3054   */\n  and\n    /* \"#utility.yul\":3073:3091   */\n  dup1\n    /* \"#utility.yul\":3063:3144   */\n  tag_79\n  jumpi\n    /* \"#utility.yul\":3129:3133   */\n  0x7f\n    /* \"#utility.yul\":3121:3127   */\n  dup3\n    /* \"#utility.yul\":3117:3134   */\n  and\n    /* \"#utility.yul\":3107:3134   */\n  swap2\n  pop\n    /* \"#utility.yul\":3063:3144   */\ntag_79:\n    /* \"#utility.yul\":3191:3193   */\n  0x20\n    /* \"#utility.yul\":3183:3189   */\n  dup3\n    /* \"#utility.yul\":3180:3194   */\n  lt\n    /* \"#utility.yul\":3160:3178   */\n  dup2\n    /* \"#utility.yul\":3157:3195   */\n  eq\n    /* \"#utility.yul\":3154:3238   */\n  iszero\n  tag_80\n  jumpi\n    /* \"#utility.yul\":3210:3228   */\n  tag_81\n  tag_82\n  jump\t// in\ntag_81:\n    /* \"#utility.yul\":3154:3238   */\ntag_80:\n    /* \"#utility.yul\":2975:3244   */\n  pop\n    /* \"#utility.yul\":2924:3244   */\n  swap2\n  swap1\n  pop\n  jump\t// out\n    /* \"#utility.yul\":3250:3531   */\ntag_57:\n    /* \"#utility.yul\":3333:3360   */\n  tag_84\n    /* \"#utility.yul\":3355:3359   */\n  dup3\n    /* \"#utility.yul\":3333:3360   */\n  tag_64\n  jump\t// in\ntag_84:\n    /* \"#utility.yul\":3325:3331   */\n  dup2\n    /* \"#utility.yul\":3321:3361   */\n  add\n    /* \"#utility.yul\":3463:3469   */\n  dup2\n    /* \"#utility.yul\":3451:3461   */\n  dup2\n    /* \"#utility.yul\":3448:3470   */\n  lt\n    /* \"#utility.yul\":3427:3445   */\n  0xffffffffffffffff\n    /* \"#utility.yul\":3415:3425   */\n  dup3\n    /* \"#utility.yul\":3412:3446   */\n  gt\n    /* \"#utility.yul\":3409:3471   */\n  or\n    /* \"#utility.yul\":3406:3494   */\n  iszero\n  tag_85\n  jumpi\n    /* \"#utility.yul\":3474:3492   */\n  tag_86\n  tag_62\n  jump\t// in\ntag_86:\n    /* \"#utility.yul\":3406:3494   */\ntag_85:\n    /* \"#utility.yul\":3514:3524   */\n  dup1\n    /* \"#utility.yul\":3510:3512   */\n  0x40\n    /* \"#utility.yul\":3503:3525   */\n  mstore\n    /* \"#utility.yul\":3293:3531   */\n  pop\n    /* \"#utility.yul\":3250:3531   */\n  pop\n  pop\n  jump\t// out\n    /* \"#utility.yul\":3537:3717   */\ntag_71:\n    /* \"#utility.yul\":3585:3662   */\n  0x4e487b7100000000000000000000000000000000000000000000000000000000\n    /* \"#utility.yul\":3582:3583   */\n  0x00\n    /* \"#utility.yul\":3575:3663   */\n  mstore\n    /* \"#utility.yul\":3682:3686   */\n  0x11\n    /* \"#utility.yul\":3679:3680   */\n  0x04\n    /* \"#utility.yul\":3672:3687   */\n  mstore\n    /* \"#utility.yul\":3706:3710   */\n  0x24\n    /* \"#utility.yul\":3703:3704   */\n  0x00\n    /* \"#utility.yul\":3696:3711   */\n  revert\n    /* \"#utility.yul\":3723:3903   */\ntag_82:\n    /* \"#utility.yul\":3771:3848   */\n  0x4e487b7100000000000000000000000000000000000000000000000000000000\n    /* \"#utility.yul\":3768:3769   */\n  0x00\n    /* \"#utility.yul\":3761:3849   */\n  mstore\n    /* \"#utility.yul\":3868:3872   */\n  0x22\n    /* \"#utility.yul\":3865:3866   */\n  0x04\n    /* \"#utility.yul\":3858:3873   */\n  mstore\n    /* \"#utility.yul\":3892:3896   */\n  0x24\n    /* \"#utility.yul\":3889:3890   */\n  0x00\n    /* \"#utility.yul\":3882:3897   */\n  revert\n    /* \"#utility.yul\":3909:4089   */\ntag_62:\n    /* \"#utility.yul\":3957:4034   */\n  0x4e487b7100000000000000000000000000000000000000000000000000000000\n    /* \"#utility.yul\":3954:3955   */\n  0x00\n    /* \"#utility.yul\":3947:4035   */\n  mstore\n    /* \"#utility.yul\":4054:4058   */\n  0x41\n    /* \"#utility.yul\":4051:4052   */\n  0x04\n    /* \"#utility.yul\":4044:4059   */\n  mstore\n    /* \"#utility.yul\":4078:4082   */\n  0x24\n    /* \"#utility.yul\":4075:4076   */\n  0x00\n    /* \"#utility.yul\":4068:4083   */\n  revert\n    /* \"#utility.yul\":4095:4212   */\ntag_38:\n    /* \"#utility.yul\":4204:4205   */\n  0x00\n    /* \"#utility.yul\":4201:4202   */\n  dup1\n    /* \"#utility.yul\":4194:4206   */\n  revert\n    /* \"#utility.yul\":4218:4335   */\ntag_31:\n    /* \"#utility.yul\":4327:4328   */\n  0x00\n    /* \"#utility.yul\":4324:4325   */\n  dup1\n    /* \"#utility.yul\":4317:4329   */\n  revert\n    /* \"#utility.yul\":4341:4458   */\ntag_51:\n    /* \"#utility.yul\":4450:4451   */\n  0x00\n    /* \"#utility.yul\":4447:4448   */\n  dup1\n    /* \"#utility.yul\":4440:4452   */\n  revert\n    /* \"#utility.yul\":4464:4581   */\ntag_47:\n    /* \"#utility.yul\":4573:4574   */\n  0x00\n    /* \"#utility.yul\":4570:4571   */\n  dup1\n    /* \"#utility.yul\":4563:4575   */\n  revert\n    /* \"#utility.yul\":4587:4689   */\ntag_64:\n    /* \"#utility.yul\":4628:4634   */\n  0x00\n    /* \"#utility.yul\":4679:4681   */\n  0x1f\n    /* \"#utility.yul\":4675:4682   */\n  not\n    /* \"#utility.yul\":4670:4672   */\n  0x1f\n    /* \"#utility.yul\":4663:4668   */\n  dup4\n    /* \"#utility.yul\":4659:4673   */\n  add\n    /* \"#utility.yul\":4655:4683   */\n  and\n    /* \"#utility.yul\":4645:4683   */\n  swap1\n  pop\n    /* \"#utility.yul\":4587:4689   */\n  swap2\n  swap1\n  pop\n  jump\t// out\n    /* \"#utility.yul\":4695:4817   */\ntag_43:\n    /* \"#utility.yul\":4768:4792   */\n  tag_96\n    /* \"#utility.yul\":4786:4791   */\n  dup2\n    /* \"#utility.yul\":4768:4792   */\n  tag_67\n  jump\t// in\ntag_96:\n    /* \"#utility.yul\":4761:4766   */\n  dup2\n    /* \"#utility.yul\":4758:4793   */\n  eq\n    /* \"#utility.yul\":4748:4811   */\n  tag_97\n  jumpi\n    /* \"#utility.yul\":4807:4808   */\n  0x00\n    /* \"#utility.yul\":4804:4805   */\n  dup1\n    /* \"#utility.yul\":4797:4809   */\n  revert\n    /* \"#utility.yul\":4748:4811   */\ntag_97:\n    /* \"#utility.yul\":4695:4817   */\n  pop\n  jump\t// out\n    /* \"contracts/myContract.sol\":76:2372  contract testContract {\r... */\ntag_10:\n  dataSize(sub_0)\n  dup1\n  dataOffset(sub_0)\n  0x00\n  codecopy\n  0x00\n  return\nstop\n\nsub_0: assembly {\n        /* \"contracts/myContract.sol\":76:2372  contract testContract {\r... */\n      mstore(0x40, 0x80)\n      jumpi(tag_1, lt(calldatasize, 0x04))\n      shr(0xe0, calldataload(0x00))\n      dup1\n      0x82d69b62\n      gt\n      tag_10\n      jumpi\n      dup1\n      0x82d69b62\n      eq\n      tag_6\n      jumpi\n      dup1\n      0x85aca317\n      eq\n      tag_7\n      jumpi\n      dup1\n      0x95961f05\n      eq\n      tag_8\n      jumpi\n      dup1\n      0xbe291999\n      eq\n      tag_9\n      jumpi\n      jump(tag_2)\n    tag_10:\n      dup1\n      0x0aa0a175\n      eq\n      tag_3\n      jumpi\n      dup1\n      0x2443877c\n      eq\n      tag_4\n      jumpi\n      dup1\n      0x534844a2\n      eq\n      tag_5\n      jumpi\n      jump(tag_2)\n    tag_1:\n      jumpi(tag_2, calldatasize)\n        /* \"contracts/myContract.sol\":2291:2306  subscriptionFee */\n      sload(0x05)\n        /* \"contracts/myContract.sol\":2277:2286  msg.value */\n      callvalue\n        /* \"contracts/myContract.sol\":2277:2306  msg.value ==  subscriptionFee */\n      eq\n        /* \"contracts/myContract.sol\":2268:2359  require( msg.value ==  subscriptionFee , \"Payment should be the subscription fee only\"    ) */\n      tag_13\n      jumpi\n      mload(0x40)\n      0x08c379a000000000000000000000000000000000000000000000000000000000\n      dup2\n      mstore\n      0x04\n      add\n      tag_14\n      swap1\n      tag_15\n      jump\t// in\n    tag_14:\n      mload(0x40)\n      dup1\n      swap2\n      sub\n      swap1\n      revert\n    tag_13:\n        /* \"contracts/myContract.sol\":76:2372  contract testContract {\r... */\n      stop\n    tag_2:\n        /* \"contracts/myContract.sol\":2147:2162  subscriptionFee */\n      sload(0x05)\n        /* \"contracts/myContract.sol\":2133:2142  msg.value */\n      callvalue\n        /* \"contracts/myContract.sol\":2133:2162  msg.value ==  subscriptionFee */\n      eq\n        /* \"contracts/myContract.sol\":2124:2215  require( msg.value ==  subscriptionFee , \"Payment should be the subscription fee only\"    ) */\n      tag_18\n      jumpi\n      mload(0x40)\n      0x08c379a000000000000000000000000000000000000000000000000000000000\n      dup2\n      mstore\n      0x04\n      add\n      tag_19\n      swap1\n      tag_15\n      jump\t// in\n    tag_19:\n      mload(0x40)\n      dup1\n      swap2\n      sub\n      swap1\n      revert\n    tag_18:\n        /* \"contracts/myContract.sol\":76:2372  contract testContract {\r... */\n      stop\n        /* \"contracts/myContract.sol\":497:527  uint256 public subscriptionFee */\n    tag_3:\n      callvalue\n      dup1\n      iszero\n      tag_20\n      jumpi\n      0x00\n      dup1\n      revert\n    tag_20:\n      pop\n      tag_21\n      tag_22\n      jump\t// in\n    tag_21:\n      mload(0x40)\n      tag_23\n      swap2\n      swap1\n      tag_24\n      jump\t// in\n    tag_23:\n      mload(0x40)\n      dup1\n      swap2\n      sub\n      swap1\n      return\n        /* \"contracts/myContract.sol\":534:559  string public channelName */\n    tag_4:\n      callvalue\n      dup1\n      iszero\n      tag_25\n      jumpi\n      0x00\n      dup1\n      revert\n    tag_25:\n      pop\n      tag_26\n      tag_27\n      jump\t// in\n    tag_26:\n      mload(0x40)\n      tag_28\n      swap2\n      swap1\n      tag_29\n      jump\t// in\n    tag_28:\n      mload(0x40)\n      dup1\n      swap2\n      sub\n      swap1\n      return\n        /* \"contracts/myContract.sol\":1245:1352  function withdrawAmount() payable public onlyOwner{\r... */\n    tag_5:\n      tag_30\n      tag_31\n      jump\t// in\n    tag_30:\n      stop\n        /* \"contracts/myContract.sol\":1454:1727  function printSubscribersList() public onlyOwner view returns(address[] memory){\r... */\n    tag_6:\n      callvalue\n      dup1\n      iszero\n      tag_32\n      jumpi\n      0x00\n      dup1\n      revert\n    tag_32:\n      pop\n      tag_33\n      tag_34\n      jump\t// in\n    tag_33:\n      mload(0x40)\n      tag_35\n      swap2\n      swap1\n      tag_36\n      jump\t// in\n    tag_35:\n      mload(0x40)\n      dup1\n      swap2\n      sub\n      swap1\n      return\n        /* \"contracts/myContract.sol\":1360:1446  function getArticleInfo(uint256 _articleNo) public view returns (articleInfo memory){} */\n    tag_7:\n      callvalue\n      dup1\n      iszero\n      tag_37\n      jumpi\n      0x00\n      dup1\n      revert\n    tag_37:\n      pop\n      tag_38\n      0x04\n      dup1\n      calldatasize\n      sub\n      dup2\n      add\n      swap1\n      tag_39\n      swap2\n      swap1\n      tag_40\n      jump\t// in\n    tag_39:\n      tag_41\n      jump\t// in\n    tag_38:\n      mload(0x40)\n      tag_42\n      swap2\n      swap1\n      tag_43\n      jump\t// in\n    tag_42:\n      mload(0x40)\n      dup1\n      swap2\n      sub\n      swap1\n      return\n        /* \"contracts/myContract.sol\":1735:2078  function publishArticle(string memory _articleTitle, string memory _articleCID) payable public onlyOwner {\r... */\n    tag_8:\n      tag_44\n      0x04\n      dup1\n      calldatasize\n      sub\n      dup2\n      add\n      swap1\n      tag_45\n      swap2\n      swap1\n      tag_46\n      jump\t// in\n    tag_45:\n      tag_47\n      jump\t// in\n    tag_44:\n      stop\n        /* \"contracts/myContract.sol\":1057:1237  function addSubscriber() public payable{\r... */\n    tag_9:\n      tag_48\n      tag_49\n      jump\t// in\n    tag_48:\n      stop\n        /* \"contracts/myContract.sol\":497:527  uint256 public subscriptionFee */\n    tag_22:\n      sload(0x05)\n      dup2\n      jump\t// out\n        /* \"contracts/myContract.sol\":534:559  string public channelName */\n    tag_27:\n      0x06\n      dup1\n      sload\n      tag_50\n      swap1\n      tag_51\n      jump\t// in\n    tag_50:\n      dup1\n      0x1f\n      add\n      0x20\n      dup1\n      swap2\n      div\n      mul\n      0x20\n      add\n      mload(0x40)\n      swap1\n      dup2\n      add\n      0x40\n      mstore\n      dup1\n      swap3\n      swap2\n      swap1\n      dup2\n      dup2\n      mstore\n      0x20\n      add\n      dup3\n      dup1\n      sload\n      tag_52\n      swap1\n      tag_51\n      jump\t// in\n    tag_52:\n      dup1\n      iszero\n      tag_53\n      jumpi\n      dup1\n      0x1f\n      lt\n      tag_54\n      jumpi\n      0x0100\n      dup1\n      dup4\n      sload\n      div\n      mul\n      dup4\n      mstore\n      swap2\n      0x20\n      add\n      swap2\n      jump(tag_53)\n    tag_54:\n      dup3\n      add\n      swap2\n      swap1\n      0x00\n      mstore\n      keccak256(0x00, 0x20)\n      swap1\n    tag_55:\n      dup2\n      sload\n      dup2\n      mstore\n      swap1\n      0x01\n      add\n      swap1\n      0x20\n      add\n      dup1\n      dup4\n      gt\n      tag_55\n      jumpi\n      dup3\n      swap1\n      sub\n      0x1f\n      and\n      dup3\n      add\n      swap2\n    tag_53:\n      pop\n      pop\n      pop\n      pop\n      pop\n      dup2\n      jump\t// out\n        /* \"contracts/myContract.sol\":1245:1352  function withdrawAmount() payable public onlyOwner{\r... */\n    tag_31:\n        /* \"contracts/myContract.sol\":622:628  author */\n      0x04\n      0x00\n      swap1\n      sload\n      swap1\n      0x0100\n      exp\n      swap1\n      div\n      0xffffffffffffffffffffffffffffffffffffffff\n      and\n        /* \"contracts/myContract.sol\":608:628  msg.sender == author */\n      0xffffffffffffffffffffffffffffffffffffffff\n      and\n        /* \"contracts/myContract.sol\":608:618  msg.sender */\n      caller\n        /* \"contracts/myContract.sol\":608:628  msg.sender == author */\n      0xffffffffffffffffffffffffffffffffffffffff\n      and\n      eq\n        /* \"contracts/myContract.sol\":600:666  require(msg.sender == author, \"Only author can call this method!\") */\n      tag_57\n      jumpi\n      mload(0x40)\n      0x08c379a000000000000000000000000000000000000000000000000000000000\n      dup2\n      mstore\n      0x04\n      add\n      tag_58\n      swap1\n      tag_59\n      jump\t// in\n    tag_58:\n      mload(0x40)\n      dup1\n      swap2\n      sub\n      swap1\n      revert\n    tag_57:\n        /* \"contracts/myContract.sol\":1306:1312  author */\n      0x04\n      0x00\n      swap1\n      sload\n      swap1\n      0x0100\n      exp\n      swap1\n      div\n      0xffffffffffffffffffffffffffffffffffffffff\n      and\n        /* \"contracts/myContract.sol\":1306:1321  author.transfer */\n      0xffffffffffffffffffffffffffffffffffffffff\n      and\n        /* \"contracts/myContract.sol\":1306:1344  author.transfer(address(this).balance) */\n      0x08fc\n        /* \"contracts/myContract.sol\":1322:1343  address(this).balance */\n      selfbalance\n        /* \"contracts/myContract.sol\":1306:1344  author.transfer(address(this).balance) */\n      swap1\n      dup2\n      iszero\n      mul\n      swap1\n      mload(0x40)\n      0x00\n      mload(0x40)\n      dup1\n      dup4\n      sub\n      dup2\n      dup6\n      dup9\n      dup9\n      call\n      swap4\n      pop\n      pop\n      pop\n      pop\n      iszero\n      dup1\n      iszero\n      tag_62\n      jumpi\n      returndatasize\n      0x00\n      dup1\n      returndatacopy\n      revert(0x00, returndatasize)\n    tag_62:\n      pop\n        /* \"contracts/myContract.sol\":1245:1352  function withdrawAmount() payable public onlyOwner{\r... */\n      jump\t// out\n        /* \"contracts/myContract.sol\":1454:1727  function printSubscribersList() public onlyOwner view returns(address[] memory){\r... */\n    tag_34:\n        /* \"contracts/myContract.sol\":1516:1532  address[] memory */\n      0x60\n        /* \"contracts/myContract.sol\":622:628  author */\n      0x04\n      0x00\n      swap1\n      sload\n      swap1\n      0x0100\n      exp\n      swap1\n      div\n      0xffffffffffffffffffffffffffffffffffffffff\n      and\n        /* \"contracts/myContract.sol\":608:628  msg.sender == author */\n      0xffffffffffffffffffffffffffffffffffffffff\n      and\n        /* \"contracts/myContract.sol\":608:618  msg.sender */\n      caller\n        /* \"contracts/myContract.sol\":608:628  msg.sender == author */\n      0xffffffffffffffffffffffffffffffffffffffff\n      and\n      eq\n        /* \"contracts/myContract.sol\":600:666  require(msg.sender == author, \"Only author can call this method!\") */\n      tag_64\n      jumpi\n      mload(0x40)\n      0x08c379a000000000000000000000000000000000000000000000000000000000\n      dup2\n      mstore\n      0x04\n      add\n      tag_65\n      swap1\n      tag_59\n      jump\t// in\n    tag_65:\n      mload(0x40)\n      dup1\n      swap2\n      sub\n      swap1\n      revert\n    tag_64:\n        /* \"contracts/myContract.sol\":1544:1564  address[] memory ret */\n      0x00\n        /* \"contracts/myContract.sol\":1581:1596  subscriberCount */\n      sload(0x01)\n        /* \"contracts/myContract.sol\":1567:1597  new address[](subscriberCount) */\n      0xffffffffffffffff\n      dup2\n      gt\n      iszero\n      tag_67\n      jumpi\n      tag_68\n      tag_69\n      jump\t// in\n    tag_68:\n    tag_67:\n      mload(0x40)\n      swap1\n      dup1\n      dup3\n      mstore\n      dup1\n      0x20\n      mul\n      0x20\n      add\n      dup3\n      add\n      0x40\n      mstore\n      dup1\n      iszero\n      tag_70\n      jumpi\n      dup2\n      0x20\n      add\n      0x20\n      dup3\n      mul\n      dup1\n      calldatasize\n      dup4\n      calldatacopy\n      dup1\n      dup3\n      add\n      swap2\n      pop\n      pop\n      swap1\n      pop\n    tag_70:\n      pop\n        /* \"contracts/myContract.sol\":1544:1597  address[] memory ret = new address[](subscriberCount) */\n      swap1\n      pop\n        /* \"contracts/myContract.sol\":1612:1618  uint i */\n      0x00\n        /* \"contracts/myContract.sol\":1608:1699  for(uint i = 0; i < subscriberCount; i++){\r... */\n    tag_71:\n        /* \"contracts/myContract.sol\":1628:1643  subscriberCount */\n      sload(0x01)\n        /* \"contracts/myContract.sol\":1624:1625  i */\n      dup2\n        /* \"contracts/myContract.sol\":1624:1643  i < subscriberCount */\n      lt\n        /* \"contracts/myContract.sol\":1608:1699  for(uint i = 0; i < subscriberCount; i++){\r... */\n      iszero\n      tag_72\n      jumpi\n        /* \"contracts/myContract.sol\":1673:1684  subscribers */\n      0x00\n        /* \"contracts/myContract.sol\":1673:1687  subscribers[i] */\n      dup1\n        /* \"contracts/myContract.sol\":1685:1686  i */\n      dup3\n        /* \"contracts/myContract.sol\":1673:1687  subscribers[i] */\n      dup2\n      mstore\n      0x20\n      add\n      swap1\n      dup2\n      mstore\n      0x20\n      add\n      0x00\n      keccak256\n      0x00\n      swap1\n      sload\n      swap1\n      0x0100\n      exp\n      swap1\n      div\n      0xffffffffffffffffffffffffffffffffffffffff\n      and\n        /* \"contracts/myContract.sol\":1664:1667  ret */\n      dup3\n        /* \"contracts/myContract.sol\":1668:1669  i */\n      dup3\n        /* \"contracts/myContract.sol\":1664:1670  ret[i] */\n      dup2\n      mload\n      dup2\n      lt\n      tag_74\n      jumpi\n      tag_75\n      tag_76\n      jump\t// in\n    tag_75:\n    tag_74:\n      0x20\n      mul\n      0x20\n      add\n      add\n        /* \"contracts/myContract.sol\":1664:1687  ret[i] = subscribers[i] */\n      swap1\n      0xffffffffffffffffffffffffffffffffffffffff\n      and\n      swap1\n      dup2\n      0xffffffffffffffffffffffffffffffffffffffff\n      and\n      dup2\n      mstore\n      pop\n      pop\n        /* \"contracts/myContract.sol\":1645:1648  i++ */\n      dup1\n      dup1\n      tag_77\n      swap1\n      tag_78\n      jump\t// in\n    tag_77:\n      swap2\n      pop\n      pop\n        /* \"contracts/myContract.sol\":1608:1699  for(uint i = 0; i < subscriberCount; i++){\r... */\n      jump(tag_71)\n    tag_72:\n      pop\n        /* \"contracts/myContract.sol\":1716:1719  ret */\n      dup1\n        /* \"contracts/myContract.sol\":1709:1719  return ret */\n      swap2\n      pop\n      pop\n        /* \"contracts/myContract.sol\":1454:1727  function printSubscribersList() public onlyOwner view returns(address[] memory){\r... */\n      swap1\n      jump\t// out\n        /* \"contracts/myContract.sol\":1360:1446  function getArticleInfo(uint256 _articleNo) public view returns (articleInfo memory){} */\n    tag_41:\n        /* \"contracts/myContract.sol\":1425:1443  articleInfo memory */\n      tag_79\n      tag_80\n      jump\t// in\n    tag_79:\n        /* \"contracts/myContract.sol\":1360:1446  function getArticleInfo(uint256 _articleNo) public view returns (articleInfo memory){} */\n      swap2\n      swap1\n      pop\n      jump\t// out\n        /* \"contracts/myContract.sol\":1735:2078  function publishArticle(string memory _articleTitle, string memory _articleCID) payable public onlyOwner {\r... */\n    tag_47:\n        /* \"contracts/myContract.sol\":622:628  author */\n      0x04\n      0x00\n      swap1\n      sload\n      swap1\n      0x0100\n      exp\n      swap1\n      div\n      0xffffffffffffffffffffffffffffffffffffffff\n      and\n        /* \"contracts/myContract.sol\":608:628  msg.sender == author */\n      0xffffffffffffffffffffffffffffffffffffffff\n      and\n        /* \"contracts/myContract.sol\":608:618  msg.sender */\n      caller\n        /* \"contracts/myContract.sol\":608:628  msg.sender == author */\n      0xffffffffffffffffffffffffffffffffffffffff\n      and\n      eq\n        /* \"contracts/myContract.sol\":600:666  require(msg.sender == author, \"Only author can call this method!\") */\n      tag_83\n      jumpi\n      mload(0x40)\n      0x08c379a000000000000000000000000000000000000000000000000000000000\n      dup2\n      mstore\n      0x04\n      add\n      tag_84\n      swap1\n      tag_59\n      jump\t// in\n    tag_84:\n      mload(0x40)\n      dup1\n      swap2\n      sub\n      swap1\n      revert\n    tag_83:\n        /* \"contracts/myContract.sol\":1883:1953  articleInfo(articleCount, _articleTitle, _articleCID, block.timestamp) */\n      mload(0x40)\n      dup1\n      0x80\n      add\n      0x40\n      mstore\n      dup1\n        /* \"contracts/myContract.sol\":1895:1907  articleCount */\n      sload(0x03)\n        /* \"contracts/myContract.sol\":1883:1953  articleInfo(articleCount, _articleTitle, _articleCID, block.timestamp) */\n      dup2\n      mstore\n      0x20\n      add\n        /* \"contracts/myContract.sol\":1909:1922  _articleTitle */\n      dup4\n        /* \"contracts/myContract.sol\":1883:1953  articleInfo(articleCount, _articleTitle, _articleCID, block.timestamp) */\n      dup2\n      mstore\n      0x20\n      add\n        /* \"contracts/myContract.sol\":1924:1935  _articleCID */\n      dup3\n        /* \"contracts/myContract.sol\":1883:1953  articleInfo(articleCount, _articleTitle, _articleCID, block.timestamp) */\n      dup2\n      mstore\n      0x20\n      add\n        /* \"contracts/myContract.sol\":1937:1952  block.timestamp */\n      timestamp\n        /* \"contracts/myContract.sol\":1883:1953  articleInfo(articleCount, _articleTitle, _articleCID, block.timestamp) */\n      dup2\n      mstore\n      pop\n        /* \"contracts/myContract.sol\":1851:1865  articleHistory */\n      0x02\n        /* \"contracts/myContract.sol\":1851:1879  articleHistory[articleCount] */\n      0x00\n        /* \"contracts/myContract.sol\":1866:1878  articleCount */\n      sload(0x03)\n        /* \"contracts/myContract.sol\":1851:1879  articleHistory[articleCount] */\n      dup2\n      mstore\n      0x20\n      add\n      swap1\n      dup2\n      mstore\n      0x20\n      add\n      0x00\n      keccak256\n        /* \"contracts/myContract.sol\":1851:1953  articleHistory[articleCount] =  articleInfo(articleCount, _articleTitle, _articleCID, block.timestamp) */\n      0x00\n      dup3\n      add\n      mload\n      dup2\n      0x00\n      add\n      sstore\n      0x20\n      dup3\n      add\n      mload\n      dup2\n      0x01\n      add\n      swap1\n      dup1\n      mload\n      swap1\n      0x20\n      add\n      swap1\n      tag_86\n      swap3\n      swap2\n      swap1\n      tag_87\n      jump\t// in\n    tag_86:\n      pop\n      0x40\n      dup3\n      add\n      mload\n      dup2\n      0x02\n      add\n      swap1\n      dup1\n      mload\n      swap1\n      0x20\n      add\n      swap1\n      tag_88\n      swap3\n      swap2\n      swap1\n      tag_87\n      jump\t// in\n    tag_88:\n      pop\n      0x60\n      dup3\n      add\n      mload\n      dup2\n      0x03\n      add\n      sstore\n      swap1\n      pop\n      pop\n        /* \"contracts/myContract.sol\":1964:1976  articleCount */\n      0x03\n      0x00\n        /* \"contracts/myContract.sol\":1964:1978  articleCount++ */\n      dup2\n      sload\n      dup1\n      swap3\n      swap2\n      swap1\n      tag_89\n      swap1\n      tag_78\n      jump\t// in\n    tag_89:\n      swap2\n      swap1\n      pop\n      sstore\n      pop\n        /* \"contracts/myContract.sol\":2013:2024  channelName */\n      0x06\n        /* \"contracts/myContract.sol\":1996:2070  articlePublished(channelName, _articleTitle, _articleCID, block.timestamp) */\n      mload(0x40)\n      tag_90\n      swap2\n      swap1\n      tag_91\n      jump\t// in\n    tag_90:\n      mload(0x40)\n      dup1\n      swap2\n      sub\n      swap1\n      keccak256\n      0x9009e7bf85e860bd815644b6510a84c4e537fd62acc6e9482cd84eea5167995d\n        /* \"contracts/myContract.sol\":2026:2039  _articleTitle */\n      dup4\n        /* \"contracts/myContract.sol\":2041:2052  _articleCID */\n      dup4\n        /* \"contracts/myContract.sol\":2054:2069  block.timestamp */\n      timestamp\n        /* \"contracts/myContract.sol\":1996:2070  articlePublished(channelName, _articleTitle, _articleCID, block.timestamp) */\n      mload(0x40)\n      tag_92\n      swap4\n      swap3\n      swap2\n      swap1\n      tag_93\n      jump\t// in\n    tag_92:\n      mload(0x40)\n      dup1\n      swap2\n      sub\n      swap1\n      log2\n        /* \"contracts/myContract.sol\":1735:2078  function publishArticle(string memory _articleTitle, string memory _articleCID) payable public onlyOwner {\r... */\n      pop\n      pop\n      jump\t// out\n        /* \"contracts/myContract.sol\":1057:1237  function addSubscriber() public payable{\r... */\n    tag_49:\n        /* \"contracts/myContract.sol\":1138:1148  msg.sender */\n      caller\n        /* \"contracts/myContract.sol\":1107:1118  subscribers */\n      0x00\n        /* \"contracts/myContract.sol\":1107:1135  subscribers[subscriberCount] */\n      dup1\n        /* \"contracts/myContract.sol\":1119:1134  subscriberCount */\n      sload(0x01)\n        /* \"contracts/myContract.sol\":1107:1135  subscribers[subscriberCount] */\n      dup2\n      mstore\n      0x20\n      add\n      swap1\n      dup2\n      mstore\n      0x20\n      add\n      0x00\n      keccak256\n      0x00\n        /* \"contracts/myContract.sol\":1107:1148  subscribers[subscriberCount] = msg.sender */\n      0x0100\n      exp\n      dup2\n      sload\n      dup2\n      0xffffffffffffffffffffffffffffffffffffffff\n      mul\n      not\n      and\n      swap1\n      dup4\n      0xffffffffffffffffffffffffffffffffffffffff\n      and\n      mul\n      or\n      swap1\n      sstore\n      pop\n        /* \"contracts/myContract.sol\":1159:1174  subscriberCount */\n      0x01\n      0x00\n        /* \"contracts/myContract.sol\":1159:1176  subscriberCount++ */\n      dup2\n      sload\n      dup1\n      swap3\n      swap2\n      swap1\n      tag_95\n      swap1\n      tag_78\n      jump\t// in\n    tag_95:\n      swap2\n      swap1\n      pop\n      sstore\n      pop\n        /* \"contracts/myContract.sol\":1203:1207  this */\n      address\n        /* \"contracts/myContract.sol\":1187:1218  payable(address(this)).transfer */\n      0xffffffffffffffffffffffffffffffffffffffff\n      and\n        /* \"contracts/myContract.sol\":1187:1229  payable(address(this)).transfer(msg.value) */\n      0x08fc\n        /* \"contracts/myContract.sol\":1219:1228  msg.value */\n      callvalue\n        /* \"contracts/myContract.sol\":1187:1229  payable(address(this)).transfer(msg.value) */\n      swap1\n      dup2\n      iszero\n      mul\n      swap1\n      mload(0x40)\n      0x00\n      mload(0x40)\n      dup1\n      dup4\n      sub\n      dup2\n      dup6\n      dup9\n      dup9\n      call\n      swap4\n      pop\n      pop\n      pop\n      pop\n      iszero\n      dup1\n      iszero\n      tag_97\n      jumpi\n      returndatasize\n      0x00\n      dup1\n      returndatacopy\n      revert(0x00, returndatasize)\n    tag_97:\n      pop\n        /* \"contracts/myContract.sol\":1057:1237  function addSubscriber() public payable{\r... */\n      jump\t// out\n    tag_80:\n      mload(0x40)\n      dup1\n      0x80\n      add\n      0x40\n      mstore\n      dup1\n      0x00\n      dup2\n      mstore\n      0x20\n      add\n      0x60\n      dup2\n      mstore\n      0x20\n      add\n      0x60\n      dup2\n      mstore\n      0x20\n      add\n      0x00\n      dup2\n      mstore\n      pop\n      swap1\n      jump\t// out\n    tag_87:\n      dup3\n      dup1\n      sload\n      tag_98\n      swap1\n      tag_51\n      jump\t// in\n    tag_98:\n      swap1\n      0x00\n      mstore\n      keccak256(0x00, 0x20)\n      swap1\n      0x1f\n      add\n      0x20\n      swap1\n      div\n      dup2\n      add\n      swap3\n      dup3\n      tag_100\n      jumpi\n      0x00\n      dup6\n      sstore\n      jump(tag_99)\n    tag_100:\n      dup3\n      0x1f\n      lt\n      tag_101\n      jumpi\n      dup1\n      mload\n      not(0xff)\n      and\n      dup4\n      dup1\n      add\n      or\n      dup6\n      sstore\n      jump(tag_99)\n    tag_101:\n      dup3\n      dup1\n      add\n      0x01\n      add\n      dup6\n      sstore\n      dup3\n      iszero\n      tag_99\n      jumpi\n      swap2\n      dup3\n      add\n    tag_102:\n      dup3\n      dup2\n      gt\n      iszero\n      tag_103\n      jumpi\n      dup3\n      mload\n      dup3\n      sstore\n      swap2\n      0x20\n      add\n      swap2\n      swap1\n      0x01\n      add\n      swap1\n      jump(tag_102)\n    tag_103:\n    tag_99:\n      pop\n      swap1\n      pop\n      tag_104\n      swap2\n      swap1\n      tag_105\n      jump\t// in\n    tag_104:\n      pop\n      swap1\n      jump\t// out\n    tag_105:\n    tag_106:\n      dup1\n      dup3\n      gt\n      iszero\n      tag_107\n      jumpi\n      0x00\n      dup2\n      0x00\n      swap1\n      sstore\n      pop\n      0x01\n      add\n      jump(tag_106)\n    tag_107:\n      pop\n      swap1\n      jump\t// out\n        /* \"#utility.yul\":7:419   */\n    tag_109:\n        /* \"#utility.yul\":85:90   */\n      0x00\n        /* \"#utility.yul\":110:176   */\n      tag_111\n        /* \"#utility.yul\":126:175   */\n      tag_112\n        /* \"#utility.yul\":168:174   */\n      dup5\n        /* \"#utility.yul\":126:175   */\n      tag_113\n      jump\t// in\n    tag_112:\n        /* \"#utility.yul\":110:176   */\n      tag_114\n      jump\t// in\n    tag_111:\n        /* \"#utility.yul\":101:176   */\n      swap1\n      pop\n        /* \"#utility.yul\":199:205   */\n      dup3\n        /* \"#utility.yul\":192:197   */\n      dup2\n        /* \"#utility.yul\":185:206   */\n      mstore\n        /* \"#utility.yul\":237:241   */\n      0x20\n        /* \"#utility.yul\":230:235   */\n      dup2\n        /* \"#utility.yul\":226:242   */\n      add\n        /* \"#utility.yul\":275:278   */\n      dup5\n        /* \"#utility.yul\":266:272   */\n      dup5\n        /* \"#utility.yul\":261:264   */\n      dup5\n        /* \"#utility.yul\":257:273   */\n      add\n        /* \"#utility.yul\":254:279   */\n      gt\n        /* \"#utility.yul\":251:363   */\n      iszero\n      tag_115\n      jumpi\n        /* \"#utility.yul\":282:361   */\n      tag_116\n      tag_117\n      jump\t// in\n    tag_116:\n        /* \"#utility.yul\":251:363   */\n    tag_115:\n        /* \"#utility.yul\":372:413   */\n      tag_118\n        /* \"#utility.yul\":406:412   */\n      dup5\n        /* \"#utility.yul\":401:404   */\n      dup3\n        /* \"#utility.yul\":396:399   */\n      dup6\n        /* \"#utility.yul\":372:413   */\n      tag_119\n      jump\t// in\n    tag_118:\n        /* \"#utility.yul\":91:419   */\n      pop\n        /* \"#utility.yul\":7:419   */\n      swap4\n      swap3\n      pop\n      pop\n      pop\n      jump\t// out\n        /* \"#utility.yul\":439:779   */\n    tag_120:\n        /* \"#utility.yul\":495:500   */\n      0x00\n        /* \"#utility.yul\":544:547   */\n      dup3\n        /* \"#utility.yul\":537:541   */\n      0x1f\n        /* \"#utility.yul\":529:535   */\n      dup4\n        /* \"#utility.yul\":525:542   */\n      add\n        /* \"#utility.yul\":521:548   */\n      slt\n        /* \"#utility.yul\":511:633   */\n      tag_122\n      jumpi\n        /* \"#utility.yul\":552:631   */\n      tag_123\n      tag_124\n      jump\t// in\n    tag_123:\n        /* \"#utility.yul\":511:633   */\n    tag_122:\n        /* \"#utility.yul\":669:675   */\n      dup2\n        /* \"#utility.yul\":656:676   */\n      calldataload\n        /* \"#utility.yul\":694:773   */\n      tag_125\n        /* \"#utility.yul\":769:772   */\n      dup5\n        /* \"#utility.yul\":761:767   */\n      dup3\n        /* \"#utility.yul\":754:758   */\n      0x20\n        /* \"#utility.yul\":746:752   */\n      dup7\n        /* \"#utility.yul\":742:759   */\n      add\n        /* \"#utility.yul\":694:773   */\n      tag_109\n      jump\t// in\n    tag_125:\n        /* \"#utility.yul\":685:773   */\n      swap2\n      pop\n        /* \"#utility.yul\":501:779   */\n      pop\n        /* \"#utility.yul\":439:779   */\n      swap3\n      swap2\n      pop\n      pop\n      jump\t// out\n        /* \"#utility.yul\":785:924   */\n    tag_126:\n        /* \"#utility.yul\":831:836   */\n      0x00\n        /* \"#utility.yul\":869:875   */\n      dup2\n        /* \"#utility.yul\":856:876   */\n      calldataload\n        /* \"#utility.yul\":847:876   */\n      swap1\n      pop\n        /* \"#utility.yul\":885:918   */\n      tag_128\n        /* \"#utility.yul\":912:917   */\n      dup2\n        /* \"#utility.yul\":885:918   */\n      tag_129\n      jump\t// in\n    tag_128:\n        /* \"#utility.yul\":785:924   */\n      swap3\n      swap2\n      pop\n      pop\n      jump\t// out\n        /* \"#utility.yul\":930:1764   */\n    tag_46:\n        /* \"#utility.yul\":1018:1024   */\n      0x00\n        /* \"#utility.yul\":1026:1032   */\n      dup1\n        /* \"#utility.yul\":1075:1077   */\n      0x40\n        /* \"#utility.yul\":1063:1072   */\n      dup4\n        /* \"#utility.yul\":1054:1061   */\n      dup6\n        /* \"#utility.yul\":1050:1073   */\n      sub\n        /* \"#utility.yul\":1046:1078   */\n      slt\n        /* \"#utility.yul\":1043:1162   */\n      iszero\n      tag_131\n      jumpi\n        /* \"#utility.yul\":1081:1160   */\n      tag_132\n      tag_133\n      jump\t// in\n    tag_132:\n        /* \"#utility.yul\":1043:1162   */\n    tag_131:\n        /* \"#utility.yul\":1229:1230   */\n      0x00\n        /* \"#utility.yul\":1218:1227   */\n      dup4\n        /* \"#utility.yul\":1214:1231   */\n      add\n        /* \"#utility.yul\":1201:1232   */\n      calldataload\n        /* \"#utility.yul\":1259:1277   */\n      0xffffffffffffffff\n        /* \"#utility.yul\":1251:1257   */\n      dup2\n        /* \"#utility.yul\":1248:1278   */\n      gt\n        /* \"#utility.yul\":1245:1362   */\n      iszero\n      tag_134\n      jumpi\n        /* \"#utility.yul\":1281:1360   */\n      tag_135\n      tag_136\n      jump\t// in\n    tag_135:\n        /* \"#utility.yul\":1245:1362   */\n    tag_134:\n        /* \"#utility.yul\":1386:1449   */\n      tag_137\n        /* \"#utility.yul\":1441:1448   */\n      dup6\n        /* \"#utility.yul\":1432:1438   */\n      dup3\n        /* \"#utility.yul\":1421:1430   */\n      dup7\n        /* \"#utility.yul\":1417:1439   */\n      add\n        /* \"#utility.yul\":1386:1449   */\n      tag_120\n      jump\t// in\n    tag_137:\n        /* \"#utility.yul\":1376:1449   */\n      swap3\n      pop\n        /* \"#utility.yul\":1172:1459   */\n      pop\n        /* \"#utility.yul\":1526:1528   */\n      0x20\n        /* \"#utility.yul\":1515:1524   */\n      dup4\n        /* \"#utility.yul\":1511:1529   */\n      add\n        /* \"#utility.yul\":1498:1530   */\n      calldataload\n        /* \"#utility.yul\":1557:1575   */\n      0xffffffffffffffff\n        /* \"#utility.yul\":1549:1555   */\n      dup2\n        /* \"#utility.yul\":1546:1576   */\n      gt\n        /* \"#utility.yul\":1543:1660   */\n      iszero\n      tag_138\n      jumpi\n        /* \"#utility.yul\":1579:1658   */\n      tag_139\n      tag_136\n      jump\t// in\n    tag_139:\n        /* \"#utility.yul\":1543:1660   */\n    tag_138:\n        /* \"#utility.yul\":1684:1747   */\n      tag_140\n        /* \"#utility.yul\":1739:1746   */\n      dup6\n        /* \"#utility.yul\":1730:1736   */\n      dup3\n        /* \"#utility.yul\":1719:1728   */\n      dup7\n        /* \"#utility.yul\":1715:1737   */\n      add\n        /* \"#utility.yul\":1684:1747   */\n      tag_120\n      jump\t// in\n    tag_140:\n        /* \"#utility.yul\":1674:1747   */\n      swap2\n      pop\n        /* \"#utility.yul\":1469:1757   */\n      pop\n        /* \"#utility.yul\":930:1764   */\n      swap3\n      pop\n      swap3\n      swap1\n      pop\n      jump\t// out\n        /* \"#utility.yul\":1770:2099   */\n    tag_40:\n        /* \"#utility.yul\":1829:1835   */\n      0x00\n        /* \"#utility.yul\":1878:1880   */\n      0x20\n        /* \"#utility.yul\":1866:1875   */\n      dup3\n        /* \"#utility.yul\":1857:1864   */\n      dup5\n        /* \"#utility.yul\":1853:1876   */\n      sub\n        /* \"#utility.yul\":1849:1881   */\n      slt\n        /* \"#utility.yul\":1846:1965   */\n      iszero\n      tag_142\n      jumpi\n        /* \"#utility.yul\":1884:1963   */\n      tag_143\n      tag_133\n      jump\t// in\n    tag_143:\n        /* \"#utility.yul\":1846:1965   */\n    tag_142:\n        /* \"#utility.yul\":2004:2005   */\n      0x00\n        /* \"#utility.yul\":2029:2082   */\n      tag_144\n        /* \"#utility.yul\":2074:2081   */\n      dup5\n        /* \"#utility.yul\":2065:2071   */\n      dup3\n        /* \"#utility.yul\":2054:2063   */\n      dup6\n        /* \"#utility.yul\":2050:2072   */\n      add\n        /* \"#utility.yul\":2029:2082   */\n      tag_126\n      jump\t// in\n    tag_144:\n        /* \"#utility.yul\":2019:2082   */\n      swap2\n      pop\n        /* \"#utility.yul\":1975:2092   */\n      pop\n        /* \"#utility.yul\":1770:2099   */\n      swap3\n      swap2\n      pop\n      pop\n      jump\t// out\n        /* \"#utility.yul\":2105:2284   */\n    tag_145:\n        /* \"#utility.yul\":2174:2184   */\n      0x00\n        /* \"#utility.yul\":2195:2241   */\n      tag_147\n        /* \"#utility.yul\":2237:2240   */\n      dup4\n        /* \"#utility.yul\":2229:2235   */\n      dup4\n        /* \"#utility.yul\":2195:2241   */\n      tag_148\n      jump\t// in\n    tag_147:\n        /* \"#utility.yul\":2273:2277   */\n      0x20\n        /* \"#utility.yul\":2268:2271   */\n      dup4\n        /* \"#utility.yul\":2264:2278   */\n      add\n        /* \"#utility.yul\":2250:2278   */\n      swap1\n      pop\n        /* \"#utility.yul\":2105:2284   */\n      swap3\n      swap2\n      pop\n      pop\n      jump\t// out\n        /* \"#utility.yul\":2290:2398   */\n    tag_148:\n        /* \"#utility.yul\":2367:2391   */\n      tag_150\n        /* \"#utility.yul\":2385:2390   */\n      dup2\n        /* \"#utility.yul\":2367:2391   */\n      tag_151\n      jump\t// in\n    tag_150:\n        /* \"#utility.yul\":2362:2365   */\n      dup3\n        /* \"#utility.yul\":2355:2392   */\n      mstore\n        /* \"#utility.yul\":2290:2398   */\n      pop\n      pop\n      jump\t// out\n        /* \"#utility.yul\":2434:3166   */\n    tag_152:\n        /* \"#utility.yul\":2553:2556   */\n      0x00\n        /* \"#utility.yul\":2582:2636   */\n      tag_154\n        /* \"#utility.yul\":2630:2635   */\n      dup3\n        /* \"#utility.yul\":2582:2636   */\n      tag_155\n      jump\t// in\n    tag_154:\n        /* \"#utility.yul\":2652:2738   */\n      tag_156\n        /* \"#utility.yul\":2731:2737   */\n      dup2\n        /* \"#utility.yul\":2726:2729   */\n      dup6\n        /* \"#utility.yul\":2652:2738   */\n      tag_157\n      jump\t// in\n    tag_156:\n        /* \"#utility.yul\":2645:2738   */\n      swap4\n      pop\n        /* \"#utility.yul\":2762:2818   */\n      tag_158\n        /* \"#utility.yul\":2812:2817   */\n      dup4\n        /* \"#utility.yul\":2762:2818   */\n      tag_159\n      jump\t// in\n    tag_158:\n        /* \"#utility.yul\":2841:2848   */\n      dup1\n        /* \"#utility.yul\":2872:2873   */\n      0x00\n        /* \"#utility.yul\":2857:3141   */\n    tag_160:\n        /* \"#utility.yul\":2882:2888   */\n      dup4\n        /* \"#utility.yul\":2879:2880   */\n      dup2\n        /* \"#utility.yul\":2876:2889   */\n      lt\n        /* \"#utility.yul\":2857:3141   */\n      iszero\n      tag_162\n      jumpi\n        /* \"#utility.yul\":2958:2964   */\n      dup2\n        /* \"#utility.yul\":2952:2965   */\n      mload\n        /* \"#utility.yul\":2985:3048   */\n      tag_163\n        /* \"#utility.yul\":3044:3047   */\n      dup9\n        /* \"#utility.yul\":3029:3042   */\n      dup3\n        /* \"#utility.yul\":2985:3048   */\n      tag_145\n      jump\t// in\n    tag_163:\n        /* \"#utility.yul\":2978:3048   */\n      swap8\n      pop\n        /* \"#utility.yul\":3071:3131   */\n      tag_164\n        /* \"#utility.yul\":3124:3130   */\n      dup4\n        /* \"#utility.yul\":3071:3131   */\n      tag_165\n      jump\t// in\n    tag_164:\n        /* \"#utility.yul\":3061:3131   */\n      swap3\n      pop\n        /* \"#utility.yul\":2917:3141   */\n      pop\n        /* \"#utility.yul\":2904:2905   */\n      0x01\n        /* \"#utility.yul\":2901:2902   */\n      dup2\n        /* \"#utility.yul\":2897:2906   */\n      add\n        /* \"#utility.yul\":2892:2906   */\n      swap1\n      pop\n        /* \"#utility.yul\":2857:3141   */\n      jump(tag_160)\n    tag_162:\n        /* \"#utility.yul\":2861:2875   */\n      pop\n        /* \"#utility.yul\":3157:3160   */\n      dup6\n        /* \"#utility.yul\":3150:3160   */\n      swap4\n      pop\n        /* \"#utility.yul\":2558:3166   */\n      pop\n      pop\n      pop\n        /* \"#utility.yul\":2434:3166   */\n      swap3\n      swap2\n      pop\n      pop\n      jump\t// out\n        /* \"#utility.yul\":3172:3516   */\n    tag_166:\n        /* \"#utility.yul\":3250:3253   */\n      0x00\n        /* \"#utility.yul\":3278:3317   */\n      tag_168\n        /* \"#utility.yul\":3311:3316   */\n      dup3\n        /* \"#utility.yul\":3278:3317   */\n      tag_169\n      jump\t// in\n    tag_168:\n        /* \"#utility.yul\":3333:3394   */\n      tag_170\n        /* \"#utility.yul\":3387:3393   */\n      dup2\n        /* \"#utility.yul\":3382:3385   */\n      dup6\n        /* \"#utility.yul\":3333:3394   */\n      tag_171\n      jump\t// in\n    tag_170:\n        /* \"#utility.yul\":3326:3394   */\n      swap4\n      pop\n        /* \"#utility.yul\":3403:3455   */\n      tag_172\n        /* \"#utility.yul\":3448:3454   */\n      dup2\n        /* \"#utility.yul\":3443:3446   */\n      dup6\n        /* \"#utility.yul\":3436:3440   */\n      0x20\n        /* \"#utility.yul\":3429:3434   */\n      dup7\n        /* \"#utility.yul\":3425:3441   */\n      add\n        /* \"#utility.yul\":3403:3455   */\n      tag_173\n      jump\t// in\n    tag_172:\n        /* \"#utility.yul\":3480:3509   */\n      tag_174\n        /* \"#utility.yul\":3502:3508   */\n      dup2\n        /* \"#utility.yul\":3480:3509   */\n      tag_175\n      jump\t// in\n    tag_174:\n        /* \"#utility.yul\":3475:3478   */\n      dup5\n        /* \"#utility.yul\":3471:3510   */\n      add\n        /* \"#utility.yul\":3464:3510   */\n      swap2\n      pop\n        /* \"#utility.yul\":3254:3516   */\n      pop\n        /* \"#utility.yul\":3172:3516   */\n      swap3\n      swap2\n      pop\n      pop\n      jump\t// out\n        /* \"#utility.yul\":3522:3886   */\n    tag_176:\n        /* \"#utility.yul\":3610:3613   */\n      0x00\n        /* \"#utility.yul\":3638:3677   */\n      tag_178\n        /* \"#utility.yul\":3671:3676   */\n      dup3\n        /* \"#utility.yul\":3638:3677   */\n      tag_169\n      jump\t// in\n    tag_178:\n        /* \"#utility.yul\":3693:3764   */\n      tag_179\n        /* \"#utility.yul\":3757:3763   */\n      dup2\n        /* \"#utility.yul\":3752:3755   */\n      dup6\n        /* \"#utility.yul\":3693:3764   */\n      tag_180\n      jump\t// in\n    tag_179:\n        /* \"#utility.yul\":3686:3764   */\n      swap4\n      pop\n        /* \"#utility.yul\":3773:3825   */\n      tag_181\n        /* \"#utility.yul\":3818:3824   */\n      dup2\n        /* \"#utility.yul\":3813:3816   */\n      dup6\n        /* \"#utility.yul\":3806:3810   */\n      0x20\n        /* \"#utility.yul\":3799:3804   */\n      dup7\n        /* \"#utility.yul\":3795:3811   */\n      add\n        /* \"#utility.yul\":3773:3825   */\n      tag_173\n      jump\t// in\n    tag_181:\n        /* \"#utility.yul\":3850:3879   */\n      tag_182\n        /* \"#utility.yul\":3872:3878   */\n      dup2\n        /* \"#utility.yul\":3850:3879   */\n      tag_175\n      jump\t// in\n    tag_182:\n        /* \"#utility.yul\":3845:3848   */\n      dup5\n        /* \"#utility.yul\":3841:3880   */\n      add\n        /* \"#utility.yul\":3834:3880   */\n      swap2\n      pop\n        /* \"#utility.yul\":3614:3886   */\n      pop\n        /* \"#utility.yul\":3522:3886   */\n      swap3\n      swap2\n      pop\n      pop\n      jump\t// out\n        /* \"#utility.yul\":3916:4761   */\n    tag_183:\n        /* \"#utility.yul\":4019:4022   */\n      0x00\n        /* \"#utility.yul\":4056:4061   */\n      dup2\n        /* \"#utility.yul\":4050:4062   */\n      sload\n        /* \"#utility.yul\":4085:4121   */\n      tag_185\n        /* \"#utility.yul\":4111:4120   */\n      dup2\n        /* \"#utility.yul\":4085:4121   */\n      tag_51\n      jump\t// in\n    tag_185:\n        /* \"#utility.yul\":4137:4226   */\n      tag_186\n        /* \"#utility.yul\":4219:4225   */\n      dup2\n        /* \"#utility.yul\":4214:4217   */\n      dup7\n        /* \"#utility.yul\":4137:4226   */\n      tag_187\n      jump\t// in\n    tag_186:\n        /* \"#utility.yul\":4130:4226   */\n      swap5\n      pop\n        /* \"#utility.yul\":4257:4258   */\n      0x01\n        /* \"#utility.yul\":4246:4255   */\n      dup3\n        /* \"#utility.yul\":4242:4259   */\n      and\n        /* \"#utility.yul\":4273:4274   */\n      0x00\n        /* \"#utility.yul\":4268:4405   */\n      dup2\n      eq\n      tag_189\n      jumpi\n        /* \"#utility.yul\":4419:4420   */\n      0x01\n        /* \"#utility.yul\":4414:4755   */\n      dup2\n      eq\n      tag_190\n      jumpi\n        /* \"#utility.yul\":4235:4755   */\n      jump(tag_188)\n        /* \"#utility.yul\":4268:4405   */\n    tag_189:\n        /* \"#utility.yul\":4352:4356   */\n      0xff\n        /* \"#utility.yul\":4348:4357   */\n      not\n        /* \"#utility.yul\":4337:4346   */\n      dup4\n        /* \"#utility.yul\":4333:4358   */\n      and\n        /* \"#utility.yul\":4328:4331   */\n      dup7\n        /* \"#utility.yul\":4321:4359   */\n      mstore\n        /* \"#utility.yul\":4388:4394   */\n      dup2\n        /* \"#utility.yul\":4383:4386   */\n      dup7\n        /* \"#utility.yul\":4379:4395   */\n      add\n        /* \"#utility.yul\":4372:4395   */\n      swap4\n      pop\n        /* \"#utility.yul\":4268:4405   */\n      jump(tag_188)\n        /* \"#utility.yul\":4414:4755   */\n    tag_190:\n        /* \"#utility.yul\":4481:4519   */\n      tag_191\n        /* \"#utility.yul\":4513:4518   */\n      dup6\n        /* \"#utility.yul\":4481:4519   */\n      tag_192\n      jump\t// in\n    tag_191:\n        /* \"#utility.yul\":4541:4542   */\n      0x00\n        /* \"#utility.yul\":4555:4709   */\n    tag_193:\n        /* \"#utility.yul\":4569:4575   */\n      dup4\n        /* \"#utility.yul\":4566:4567   */\n      dup2\n        /* \"#utility.yul\":4563:4576   */\n      lt\n        /* \"#utility.yul\":4555:4709   */\n      iszero\n      tag_195\n      jumpi\n        /* \"#utility.yul\":4643:4650   */\n      dup2\n        /* \"#utility.yul\":4637:4651   */\n      sload\n        /* \"#utility.yul\":4633:4634   */\n      dup2\n        /* \"#utility.yul\":4628:4631   */\n      dup10\n        /* \"#utility.yul\":4624:4635   */\n      add\n        /* \"#utility.yul\":4617:4652   */\n      mstore\n        /* \"#utility.yul\":4693:4694   */\n      0x01\n        /* \"#utility.yul\":4684:4691   */\n      dup3\n        /* \"#utility.yul\":4680:4695   */\n      add\n        /* \"#utility.yul\":4669:4695   */\n      swap2\n      pop\n        /* \"#utility.yul\":4591:4595   */\n      0x20\n        /* \"#utility.yul\":4588:4589   */\n      dup2\n        /* \"#utility.yul\":4584:4596   */\n      add\n        /* \"#utility.yul\":4579:4596   */\n      swap1\n      pop\n        /* \"#utility.yul\":4555:4709   */\n      jump(tag_193)\n    tag_195:\n        /* \"#utility.yul\":4738:4744   */\n      dup4\n        /* \"#utility.yul\":4733:4736   */\n      dup9\n        /* \"#utility.yul\":4729:4745   */\n      add\n        /* \"#utility.yul\":4722:4745   */\n      swap6\n      pop\n        /* \"#utility.yul\":4421:4755   */\n      pop\n      pop\n        /* \"#utility.yul\":4235:4755   */\n    tag_188:\n      pop\n        /* \"#utility.yul\":4023:4761   */\n      pop\n      pop\n        /* \"#utility.yul\":3916:4761   */\n      swap3\n      swap2\n      pop\n      pop\n      jump\t// out\n        /* \"#utility.yul\":4767:5133   */\n    tag_196:\n        /* \"#utility.yul\":4909:4912   */\n      0x00\n        /* \"#utility.yul\":4930:4997   */\n      tag_198\n        /* \"#utility.yul\":4994:4996   */\n      0x2b\n        /* \"#utility.yul\":4989:4992   */\n      dup4\n        /* \"#utility.yul\":4930:4997   */\n      tag_180\n      jump\t// in\n    tag_198:\n        /* \"#utility.yul\":4923:4997   */\n      swap2\n      pop\n        /* \"#utility.yul\":5006:5099   */\n      tag_199\n        /* \"#utility.yul\":5095:5098   */\n      dup3\n        /* \"#utility.yul\":5006:5099   */\n      tag_200\n      jump\t// in\n    tag_199:\n        /* \"#utility.yul\":5124:5126   */\n      0x40\n        /* \"#utility.yul\":5119:5122   */\n      dup3\n        /* \"#utility.yul\":5115:5127   */\n      add\n        /* \"#utility.yul\":5108:5127   */\n      swap1\n      pop\n        /* \"#utility.yul\":4767:5133   */\n      swap2\n      swap1\n      pop\n      jump\t// out\n        /* \"#utility.yul\":5139:5505   */\n    tag_201:\n        /* \"#utility.yul\":5281:5284   */\n      0x00\n        /* \"#utility.yul\":5302:5369   */\n      tag_203\n        /* \"#utility.yul\":5366:5368   */\n      0x21\n        /* \"#utility.yul\":5361:5364   */\n      dup4\n        /* \"#utility.yul\":5302:5369   */\n      tag_180\n      jump\t// in\n    tag_203:\n        /* \"#utility.yul\":5295:5369   */\n      swap2\n      pop\n        /* \"#utility.yul\":5378:5471   */\n      tag_204\n        /* \"#utility.yul\":5467:5470   */\n      dup3\n        /* \"#utility.yul\":5378:5471   */\n      tag_205\n      jump\t// in\n    tag_204:\n        /* \"#utility.yul\":5496:5498   */\n      0x40\n        /* \"#utility.yul\":5491:5494   */\n      dup3\n        /* \"#utility.yul\":5487:5499   */\n      add\n        /* \"#utility.yul\":5480:5499   */\n      swap1\n      pop\n        /* \"#utility.yul\":5139:5505   */\n      swap2\n      swap1\n      pop\n      jump\t// out\n        /* \"#utility.yul\":5585:6645   */\n    tag_206:\n        /* \"#utility.yul\":5708:5711   */\n      0x00\n        /* \"#utility.yul\":5744:5748   */\n      0x80\n        /* \"#utility.yul\":5739:5742   */\n      dup4\n        /* \"#utility.yul\":5735:5749   */\n      add\n        /* \"#utility.yul\":5836:5840   */\n      0x00\n        /* \"#utility.yul\":5829:5834   */\n      dup4\n        /* \"#utility.yul\":5825:5841   */\n      add\n        /* \"#utility.yul\":5819:5842   */\n      mload\n        /* \"#utility.yul\":5855:5918   */\n      tag_208\n        /* \"#utility.yul\":5912:5916   */\n      0x00\n        /* \"#utility.yul\":5907:5910   */\n      dup7\n        /* \"#utility.yul\":5903:5917   */\n      add\n        /* \"#utility.yul\":5889:5901   */\n      dup3\n        /* \"#utility.yul\":5855:5918   */\n      tag_209\n      jump\t// in\n    tag_208:\n        /* \"#utility.yul\":5759:5928   */\n      pop\n        /* \"#utility.yul\":6018:6022   */\n      0x20\n        /* \"#utility.yul\":6011:6016   */\n      dup4\n        /* \"#utility.yul\":6007:6023   */\n      add\n        /* \"#utility.yul\":6001:6024   */\n      mload\n        /* \"#utility.yul\":6071:6074   */\n      dup5\n        /* \"#utility.yul\":6065:6069   */\n      dup3\n        /* \"#utility.yul\":6061:6075   */\n      sub\n        /* \"#utility.yul\":6054:6058   */\n      0x20\n        /* \"#utility.yul\":6049:6052   */\n      dup7\n        /* \"#utility.yul\":6045:6059   */\n      add\n        /* \"#utility.yul\":6038:6076   */\n      mstore\n        /* \"#utility.yul\":6097:6170   */\n      tag_210\n        /* \"#utility.yul\":6165:6169   */\n      dup3\n        /* \"#utility.yul\":6151:6163   */\n      dup3\n        /* \"#utility.yul\":6097:6170   */\n      tag_166\n      jump\t// in\n    tag_210:\n        /* \"#utility.yul\":6089:6170   */\n      swap2\n      pop\n        /* \"#utility.yul\":5938:6181   */\n      pop\n        /* \"#utility.yul\":6269:6273   */\n      0x40\n        /* \"#utility.yul\":6262:6267   */\n      dup4\n        /* \"#utility.yul\":6258:6274   */\n      add\n        /* \"#utility.yul\":6252:6275   */\n      mload\n        /* \"#utility.yul\":6322:6325   */\n      dup5\n        /* \"#utility.yul\":6316:6320   */\n      dup3\n        /* \"#utility.yul\":6312:6326   */\n      sub\n        /* \"#utility.yul\":6305:6309   */\n      0x40\n        /* \"#utility.yul\":6300:6303   */\n      dup7\n        /* \"#utility.yul\":6296:6310   */\n      add\n        /* \"#utility.yul\":6289:6327   */\n      mstore\n        /* \"#utility.yul\":6348:6421   */\n      tag_211\n        /* \"#utility.yul\":6416:6420   */\n      dup3\n        /* \"#utility.yul\":6402:6414   */\n      dup3\n        /* \"#utility.yul\":6348:6421   */\n      tag_166\n      jump\t// in\n    tag_211:\n        /* \"#utility.yul\":6340:6421   */\n      swap2\n      pop\n        /* \"#utility.yul\":6191:6432   */\n      pop\n        /* \"#utility.yul\":6526:6530   */\n      0x60\n        /* \"#utility.yul\":6519:6524   */\n      dup4\n        /* \"#utility.yul\":6515:6531   */\n      add\n        /* \"#utility.yul\":6509:6532   */\n      mload\n        /* \"#utility.yul\":6545:6608   */\n      tag_212\n        /* \"#utility.yul\":6602:6606   */\n      0x60\n        /* \"#utility.yul\":6597:6600   */\n      dup7\n        /* \"#utility.yul\":6593:6607   */\n      add\n        /* \"#utility.yul\":6579:6591   */\n      dup3\n        /* \"#utility.yul\":6545:6608   */\n      tag_209\n      jump\t// in\n    tag_212:\n        /* \"#utility.yul\":6442:6618   */\n      pop\n        /* \"#utility.yul\":6635:6639   */\n      dup1\n        /* \"#utility.yul\":6628:6639   */\n      swap2\n      pop\n        /* \"#utility.yul\":5713:6645   */\n      pop\n        /* \"#utility.yul\":5585:6645   */\n      swap3\n      swap2\n      pop\n      pop\n      jump\t// out\n        /* \"#utility.yul\":6651:6759   */\n    tag_209:\n        /* \"#utility.yul\":6728:6752   */\n      tag_214\n        /* \"#utility.yul\":6746:6751   */\n      dup2\n        /* \"#utility.yul\":6728:6752   */\n      tag_215\n      jump\t// in\n    tag_214:\n        /* \"#utility.yul\":6723:6726   */\n      dup3\n        /* \"#utility.yul\":6716:6753   */\n      mstore\n        /* \"#utility.yul\":6651:6759   */\n      pop\n      pop\n      jump\t// out\n        /* \"#utility.yul\":6765:6883   */\n    tag_216:\n        /* \"#utility.yul\":6852:6876   */\n      tag_218\n        /* \"#utility.yul\":6870:6875   */\n      dup2\n        /* \"#utility.yul\":6852:6876   */\n      tag_215\n      jump\t// in\n    tag_218:\n        /* \"#utility.yul\":6847:6850   */\n      dup3\n        /* \"#utility.yul\":6840:6877   */\n      mstore\n        /* \"#utility.yul\":6765:6883   */\n      pop\n      pop\n      jump\t// out\n        /* \"#utility.yul\":6889:7158   */\n    tag_91:\n        /* \"#utility.yul\":7018:7021   */\n      0x00\n        /* \"#utility.yul\":7040:7132   */\n      tag_220\n        /* \"#utility.yul\":7128:7131   */\n      dup3\n        /* \"#utility.yul\":7119:7125   */\n      dup5\n        /* \"#utility.yul\":7040:7132   */\n      tag_183\n      jump\t// in\n    tag_220:\n        /* \"#utility.yul\":7033:7132   */\n      swap2\n      pop\n        /* \"#utility.yul\":7149:7152   */\n      dup2\n        /* \"#utility.yul\":7142:7152   */\n      swap1\n      pop\n        /* \"#utility.yul\":6889:7158   */\n      swap3\n      swap2\n      pop\n      pop\n      jump\t// out\n        /* \"#utility.yul\":7164:7537   */\n    tag_36:\n        /* \"#utility.yul\":7307:7311   */\n      0x00\n        /* \"#utility.yul\":7345:7347   */\n      0x20\n        /* \"#utility.yul\":7334:7343   */\n      dup3\n        /* \"#utility.yul\":7330:7348   */\n      add\n        /* \"#utility.yul\":7322:7348   */\n      swap1\n      pop\n        /* \"#utility.yul\":7394:7403   */\n      dup2\n        /* \"#utility.yul\":7388:7392   */\n      dup2\n        /* \"#utility.yul\":7384:7404   */\n      sub\n        /* \"#utility.yul\":7380:7381   */\n      0x00\n        /* \"#utility.yul\":7369:7378   */\n      dup4\n        /* \"#utility.yul\":7365:7382   */\n      add\n        /* \"#utility.yul\":7358:7405   */\n      mstore\n        /* \"#utility.yul\":7422:7530   */\n      tag_222\n        /* \"#utility.yul\":7525:7529   */\n      dup2\n        /* \"#utility.yul\":7516:7522   */\n      dup5\n        /* \"#utility.yul\":7422:7530   */\n      tag_152\n      jump\t// in\n    tag_222:\n        /* \"#utility.yul\":7414:7530   */\n      swap1\n      pop\n        /* \"#utility.yul\":7164:7537   */\n      swap3\n      swap2\n      pop\n      pop\n      jump\t// out\n        /* \"#utility.yul\":7543:7856   */\n    tag_29:\n        /* \"#utility.yul\":7656:7660   */\n      0x00\n        /* \"#utility.yul\":7694:7696   */\n      0x20\n        /* \"#utility.yul\":7683:7692   */\n      dup3\n        /* \"#utility.yul\":7679:7697   */\n      add\n        /* \"#utility.yul\":7671:7697   */\n      swap1\n      pop\n        /* \"#utility.yul\":7743:7752   */\n      dup2\n        /* \"#utility.yul\":7737:7741   */\n      dup2\n        /* \"#utility.yul\":7733:7753   */\n      sub\n        /* \"#utility.yul\":7729:7730   */\n      0x00\n        /* \"#utility.yul\":7718:7727   */\n      dup4\n        /* \"#utility.yul\":7714:7731   */\n      add\n        /* \"#utility.yul\":7707:7754   */\n      mstore\n        /* \"#utility.yul\":7771:7849   */\n      tag_224\n        /* \"#utility.yul\":7844:7848   */\n      dup2\n        /* \"#utility.yul\":7835:7841   */\n      dup5\n        /* \"#utility.yul\":7771:7849   */\n      tag_176\n      jump\t// in\n    tag_224:\n        /* \"#utility.yul\":7763:7849   */\n      swap1\n      pop\n        /* \"#utility.yul\":7543:7856   */\n      swap3\n      swap2\n      pop\n      pop\n      jump\t// out\n        /* \"#utility.yul\":7862:8486   */\n    tag_93:\n        /* \"#utility.yul\":8051:8055   */\n      0x00\n        /* \"#utility.yul\":8089:8091   */\n      0x60\n        /* \"#utility.yul\":8078:8087   */\n      dup3\n        /* \"#utility.yul\":8074:8092   */\n      add\n        /* \"#utility.yul\":8066:8092   */\n      swap1\n      pop\n        /* \"#utility.yul\":8138:8147   */\n      dup2\n        /* \"#utility.yul\":8132:8136   */\n      dup2\n        /* \"#utility.yul\":8128:8148   */\n      sub\n        /* \"#utility.yul\":8124:8125   */\n      0x00\n        /* \"#utility.yul\":8113:8122   */\n      dup4\n        /* \"#utility.yul\":8109:8126   */\n      add\n        /* \"#utility.yul\":8102:8149   */\n      mstore\n        /* \"#utility.yul\":8166:8244   */\n      tag_226\n        /* \"#utility.yul\":8239:8243   */\n      dup2\n        /* \"#utility.yul\":8230:8236   */\n      dup7\n        /* \"#utility.yul\":8166:8244   */\n      tag_176\n      jump\t// in\n    tag_226:\n        /* \"#utility.yul\":8158:8244   */\n      swap1\n      pop\n        /* \"#utility.yul\":8291:8300   */\n      dup2\n        /* \"#utility.yul\":8285:8289   */\n      dup2\n        /* \"#utility.yul\":8281:8301   */\n      sub\n        /* \"#utility.yul\":8276:8278   */\n      0x20\n        /* \"#utility.yul\":8265:8274   */\n      dup4\n        /* \"#utility.yul\":8261:8279   */\n      add\n        /* \"#utility.yul\":8254:8302   */\n      mstore\n        /* \"#utility.yul\":8319:8397   */\n      tag_227\n        /* \"#utility.yul\":8392:8396   */\n      dup2\n        /* \"#utility.yul\":8383:8389   */\n      dup6\n        /* \"#utility.yul\":8319:8397   */\n      tag_176\n      jump\t// in\n    tag_227:\n        /* \"#utility.yul\":8311:8397   */\n      swap1\n      pop\n        /* \"#utility.yul\":8407:8479   */\n      tag_228\n        /* \"#utility.yul\":8475:8477   */\n      0x40\n        /* \"#utility.yul\":8464:8473   */\n      dup4\n        /* \"#utility.yul\":8460:8478   */\n      add\n        /* \"#utility.yul\":8451:8457   */\n      dup5\n        /* \"#utility.yul\":8407:8479   */\n      tag_216\n      jump\t// in\n    tag_228:\n        /* \"#utility.yul\":7862:8486   */\n      swap5\n      swap4\n      pop\n      pop\n      pop\n      pop\n      jump\t// out\n        /* \"#utility.yul\":8492:8911   */\n    tag_15:\n        /* \"#utility.yul\":8658:8662   */\n      0x00\n        /* \"#utility.yul\":8696:8698   */\n      0x20\n        /* \"#utility.yul\":8685:8694   */\n      dup3\n        /* \"#utility.yul\":8681:8699   */\n      add\n        /* \"#utility.yul\":8673:8699   */\n      swap1\n      pop\n        /* \"#utility.yul\":8745:8754   */\n      dup2\n        /* \"#utility.yul\":8739:8743   */\n      dup2\n        /* \"#utility.yul\":8735:8755   */\n      sub\n        /* \"#utility.yul\":8731:8732   */\n      0x00\n        /* \"#utility.yul\":8720:8729   */\n      dup4\n        /* \"#utility.yul\":8716:8733   */\n      add\n        /* \"#utility.yul\":8709:8756   */\n      mstore\n        /* \"#utility.yul\":8773:8904   */\n      tag_230\n        /* \"#utility.yul\":8899:8903   */\n      dup2\n        /* \"#utility.yul\":8773:8904   */\n      tag_196\n      jump\t// in\n    tag_230:\n        /* \"#utility.yul\":8765:8904   */\n      swap1\n      pop\n        /* \"#utility.yul\":8492:8911   */\n      swap2\n      swap1\n      pop\n      jump\t// out\n        /* \"#utility.yul\":8917:9336   */\n    tag_59:\n        /* \"#utility.yul\":9083:9087   */\n      0x00\n        /* \"#utility.yul\":9121:9123   */\n      0x20\n        /* \"#utility.yul\":9110:9119   */\n      dup3\n        /* \"#utility.yul\":9106:9124   */\n      add\n        /* \"#utility.yul\":9098:9124   */\n      swap1\n      pop\n        /* \"#utility.yul\":9170:9179   */\n      dup2\n        /* \"#utility.yul\":9164:9168   */\n      dup2\n        /* \"#utility.yul\":9160:9180   */\n      sub\n        /* \"#utility.yul\":9156:9157   */\n      0x00\n        /* \"#utility.yul\":9145:9154   */\n      dup4\n        /* \"#utility.yul\":9141:9158   */\n      add\n        /* \"#utility.yul\":9134:9181   */\n      mstore\n        /* \"#utility.yul\":9198:9329   */\n      tag_232\n        /* \"#utility.yul\":9324:9328   */\n      dup2\n        /* \"#utility.yul\":9198:9329   */\n      tag_201\n      jump\t// in\n    tag_232:\n        /* \"#utility.yul\":9190:9329   */\n      swap1\n      pop\n        /* \"#utility.yul\":8917:9336   */\n      swap2\n      swap1\n      pop\n      jump\t// out\n        /* \"#utility.yul\":9342:9723   */\n    tag_43:\n        /* \"#utility.yul\":9489:9493   */\n      0x00\n        /* \"#utility.yul\":9527:9529   */\n      0x20\n        /* \"#utility.yul\":9516:9525   */\n      dup3\n        /* \"#utility.yul\":9512:9530   */\n      add\n        /* \"#utility.yul\":9504:9530   */\n      swap1\n      pop\n        /* \"#utility.yul\":9576:9585   */\n      dup2\n        /* \"#utility.yul\":9570:9574   */\n      dup2\n        /* \"#utility.yul\":9566:9586   */\n      sub\n        /* \"#utility.yul\":9562:9563   */\n      0x00\n        /* \"#utility.yul\":9551:9560   */\n      dup4\n        /* \"#utility.yul\":9547:9564   */\n      add\n        /* \"#utility.yul\":9540:9587   */\n      mstore\n        /* \"#utility.yul\":9604:9716   */\n      tag_234\n        /* \"#utility.yul\":9711:9715   */\n      dup2\n        /* \"#utility.yul\":9702:9708   */\n      dup5\n        /* \"#utility.yul\":9604:9716   */\n      tag_206\n      jump\t// in\n    tag_234:\n        /* \"#utility.yul\":9596:9716   */\n      swap1\n      pop\n        /* \"#utility.yul\":9342:9723   */\n      swap3\n      swap2\n      pop\n      pop\n      jump\t// out\n        /* \"#utility.yul\":9729:9951   */\n    tag_24:\n        /* \"#utility.yul\":9822:9826   */\n      0x00\n        /* \"#utility.yul\":9860:9862   */\n      0x20\n        /* \"#utility.yul\":9849:9858   */\n      dup3\n        /* \"#utility.yul\":9845:9863   */\n      add\n        /* \"#utility.yul\":9837:9863   */\n      swap1\n      pop\n        /* \"#utility.yul\":9873:9944   */\n      tag_236\n        /* \"#utility.yul\":9941:9942   */\n      0x00\n        /* \"#utility.yul\":9930:9939   */\n      dup4\n        /* \"#utility.yul\":9926:9943   */\n      add\n        /* \"#utility.yul\":9917:9923   */\n      dup5\n        /* \"#utility.yul\":9873:9944   */\n      tag_216\n      jump\t// in\n    tag_236:\n        /* \"#utility.yul\":9729:9951   */\n      swap3\n      swap2\n      pop\n      pop\n      jump\t// out\n        /* \"#utility.yul\":9957:10086   */\n    tag_114:\n        /* \"#utility.yul\":9991:9997   */\n      0x00\n        /* \"#utility.yul\":10018:10038   */\n      tag_238\n      tag_239\n      jump\t// in\n    tag_238:\n        /* \"#utility.yul\":10008:10038   */\n      swap1\n      pop\n        /* \"#utility.yul\":10047:10080   */\n      tag_240\n        /* \"#utility.yul\":10075:10079   */\n      dup3\n        /* \"#utility.yul\":10067:10073   */\n      dup3\n        /* \"#utility.yul\":10047:10080   */\n      tag_241\n      jump\t// in\n    tag_240:\n        /* \"#utility.yul\":9957:10086   */\n      swap2\n      swap1\n      pop\n      jump\t// out\n        /* \"#utility.yul\":10092:10167   */\n    tag_239:\n        /* \"#utility.yul\":10125:10131   */\n      0x00\n        /* \"#utility.yul\":10158:10160   */\n      0x40\n        /* \"#utility.yul\":10152:10161   */\n      mload\n        /* \"#utility.yul\":10142:10161   */\n      swap1\n      pop\n        /* \"#utility.yul\":10092:10167   */\n      swap1\n      jump\t// out\n        /* \"#utility.yul\":10173:10481   */\n    tag_113:\n        /* \"#utility.yul\":10235:10239   */\n      0x00\n        /* \"#utility.yul\":10325:10343   */\n      0xffffffffffffffff\n        /* \"#utility.yul\":10317:10323   */\n      dup3\n        /* \"#utility.yul\":10314:10344   */\n      gt\n        /* \"#utility.yul\":10311:10367   */\n      iszero\n      tag_244\n      jumpi\n        /* \"#utility.yul\":10347:10365   */\n      tag_245\n      tag_69\n      jump\t// in\n    tag_245:\n        /* \"#utility.yul\":10311:10367   */\n    tag_244:\n        /* \"#utility.yul\":10385:10414   */\n      tag_246\n        /* \"#utility.yul\":10407:10413   */\n      dup3\n        /* \"#utility.yul\":10385:10414   */\n      tag_175\n      jump\t// in\n    tag_246:\n        /* \"#utility.yul\":10377:10414   */\n      swap1\n      pop\n        /* \"#utility.yul\":10469:10473   */\n      0x20\n        /* \"#utility.yul\":10463:10467   */\n      dup2\n        /* \"#utility.yul\":10459:10474   */\n      add\n        /* \"#utility.yul\":10451:10474   */\n      swap1\n      pop\n        /* \"#utility.yul\":10173:10481   */\n      swap2\n      swap1\n      pop\n      jump\t// out\n        /* \"#utility.yul\":10487:10619   */\n    tag_159:\n        /* \"#utility.yul\":10554:10558   */\n      0x00\n        /* \"#utility.yul\":10577:10580   */\n      dup2\n        /* \"#utility.yul\":10569:10580   */\n      swap1\n      pop\n        /* \"#utility.yul\":10607:10611   */\n      0x20\n        /* \"#utility.yul\":10602:10605   */\n      dup3\n        /* \"#utility.yul\":10598:10612   */\n      add\n        /* \"#utility.yul\":10590:10612   */\n      swap1\n      pop\n        /* \"#utility.yul\":10487:10619   */\n      swap2\n      swap1\n      pop\n      jump\t// out\n        /* \"#utility.yul\":10625:10766   */\n    tag_192:\n        /* \"#utility.yul\":10674:10678   */\n      0x00\n        /* \"#utility.yul\":10697:10700   */\n      dup2\n        /* \"#utility.yul\":10689:10700   */\n      swap1\n      pop\n        /* \"#utility.yul\":10720:10723   */\n      dup2\n        /* \"#utility.yul\":10717:10718   */\n      0x00\n        /* \"#utility.yul\":10710:10724   */\n      mstore\n        /* \"#utility.yul\":10754:10758   */\n      0x20\n        /* \"#utility.yul\":10751:10752   */\n      0x00\n        /* \"#utility.yul\":10741:10759   */\n      keccak256\n        /* \"#utility.yul\":10733:10759   */\n      swap1\n      pop\n        /* \"#utility.yul\":10625:10766   */\n      swap2\n      swap1\n      pop\n      jump\t// out\n        /* \"#utility.yul\":10772:10886   */\n    tag_155:\n        /* \"#utility.yul\":10839:10845   */\n      0x00\n        /* \"#utility.yul\":10873:10878   */\n      dup2\n        /* \"#utility.yul\":10867:10879   */\n      mload\n        /* \"#utility.yul\":10857:10879   */\n      swap1\n      pop\n        /* \"#utility.yul\":10772:10886   */\n      swap2\n      swap1\n      pop\n      jump\t// out\n        /* \"#utility.yul\":10892:10991   */\n    tag_169:\n        /* \"#utility.yul\":10944:10950   */\n      0x00\n        /* \"#utility.yul\":10978:10983   */\n      dup2\n        /* \"#utility.yul\":10972:10984   */\n      mload\n        /* \"#utility.yul\":10962:10984   */\n      swap1\n      pop\n        /* \"#utility.yul\":10892:10991   */\n      swap2\n      swap1\n      pop\n      jump\t// out\n        /* \"#utility.yul\":10997:11110   */\n    tag_165:\n        /* \"#utility.yul\":11067:11071   */\n      0x00\n        /* \"#utility.yul\":11099:11103   */\n      0x20\n        /* \"#utility.yul\":11094:11097   */\n      dup3\n        /* \"#utility.yul\":11090:11104   */\n      add\n        /* \"#utility.yul\":11082:11104   */\n      swap1\n      pop\n        /* \"#utility.yul\":10997:11110   */\n      swap2\n      swap1\n      pop\n      jump\t// out\n        /* \"#utility.yul\":11116:11300   */\n    tag_157:\n        /* \"#utility.yul\":11215:11226   */\n      0x00\n        /* \"#utility.yul\":11249:11255   */\n      dup3\n        /* \"#utility.yul\":11244:11247   */\n      dup3\n        /* \"#utility.yul\":11237:11256   */\n      mstore\n        /* \"#utility.yul\":11289:11293   */\n      0x20\n        /* \"#utility.yul\":11284:11287   */\n      dup3\n        /* \"#utility.yul\":11280:11294   */\n      add\n        /* \"#utility.yul\":11265:11294   */\n      swap1\n      pop\n        /* \"#utility.yul\":11116:11300   */\n      swap3\n      swap2\n      pop\n      pop\n      jump\t// out\n        /* \"#utility.yul\":11306:11465   */\n    tag_171:\n        /* \"#utility.yul\":11380:11391   */\n      0x00\n        /* \"#utility.yul\":11414:11420   */\n      dup3\n        /* \"#utility.yul\":11409:11412   */\n      dup3\n        /* \"#utility.yul\":11402:11421   */\n      mstore\n        /* \"#utility.yul\":11454:11458   */\n      0x20\n        /* \"#utility.yul\":11449:11452   */\n      dup3\n        /* \"#utility.yul\":11445:11459   */\n      add\n        /* \"#utility.yul\":11430:11459   */\n      swap1\n      pop\n        /* \"#utility.yul\":11306:11465   */\n      swap3\n      swap2\n      pop\n      pop\n      jump\t// out\n        /* \"#utility.yul\":11471:11640   */\n    tag_180:\n        /* \"#utility.yul\":11555:11566   */\n      0x00\n        /* \"#utility.yul\":11589:11595   */\n      dup3\n        /* \"#utility.yul\":11584:11587   */\n      dup3\n        /* \"#utility.yul\":11577:11596   */\n      mstore\n        /* \"#utility.yul\":11629:11633   */\n      0x20\n        /* \"#utility.yul\":11624:11627   */\n      dup3\n        /* \"#utility.yul\":11620:11634   */\n      add\n        /* \"#utility.yul\":11605:11634   */\n      swap1\n      pop\n        /* \"#utility.yul\":11471:11640   */\n      swap3\n      swap2\n      pop\n      pop\n      jump\t// out\n        /* \"#utility.yul\":11646:11794   */\n    tag_187:\n        /* \"#utility.yul\":11748:11759   */\n      0x00\n        /* \"#utility.yul\":11785:11788   */\n      dup2\n        /* \"#utility.yul\":11770:11788   */\n      swap1\n      pop\n        /* \"#utility.yul\":11646:11794   */\n      swap3\n      swap2\n      pop\n      pop\n      jump\t// out\n        /* \"#utility.yul\":11800:11896   */\n    tag_151:\n        /* \"#utility.yul\":11837:11844   */\n      0x00\n        /* \"#utility.yul\":11866:11890   */\n      tag_257\n        /* \"#utility.yul\":11884:11889   */\n      dup3\n        /* \"#utility.yul\":11866:11890   */\n      tag_258\n      jump\t// in\n    tag_257:\n        /* \"#utility.yul\":11855:11890   */\n      swap1\n      pop\n        /* \"#utility.yul\":11800:11896   */\n      swap2\n      swap1\n      pop\n      jump\t// out\n        /* \"#utility.yul\":11902:12028   */\n    tag_258:\n        /* \"#utility.yul\":11939:11946   */\n      0x00\n        /* \"#utility.yul\":11979:12021   */\n      0xffffffffffffffffffffffffffffffffffffffff\n        /* \"#utility.yul\":11972:11977   */\n      dup3\n        /* \"#utility.yul\":11968:12022   */\n      and\n        /* \"#utility.yul\":11957:12022   */\n      swap1\n      pop\n        /* \"#utility.yul\":11902:12028   */\n      swap2\n      swap1\n      pop\n      jump\t// out\n        /* \"#utility.yul\":12034:12111   */\n    tag_215:\n        /* \"#utility.yul\":12071:12078   */\n      0x00\n        /* \"#utility.yul\":12100:12105   */\n      dup2\n        /* \"#utility.yul\":12089:12105   */\n      swap1\n      pop\n        /* \"#utility.yul\":12034:12111   */\n      swap2\n      swap1\n      pop\n      jump\t// out\n        /* \"#utility.yul\":12117:12271   */\n    tag_119:\n        /* \"#utility.yul\":12201:12207   */\n      dup3\n        /* \"#utility.yul\":12196:12199   */\n      dup2\n        /* \"#utility.yul\":12191:12194   */\n      dup4\n        /* \"#utility.yul\":12178:12208   */\n      calldatacopy\n        /* \"#utility.yul\":12263:12264   */\n      0x00\n        /* \"#utility.yul\":12254:12260   */\n      dup4\n        /* \"#utility.yul\":12249:12252   */\n      dup4\n        /* \"#utility.yul\":12245:12261   */\n      add\n        /* \"#utility.yul\":12238:12265   */\n      mstore\n        /* \"#utility.yul\":12117:12271   */\n      pop\n      pop\n      pop\n      jump\t// out\n        /* \"#utility.yul\":12277:12584   */\n    tag_173:\n        /* \"#utility.yul\":12345:12346   */\n      0x00\n        /* \"#utility.yul\":12355:12468   */\n    tag_263:\n        /* \"#utility.yul\":12369:12375   */\n      dup4\n        /* \"#utility.yul\":12366:12367   */\n      dup2\n        /* \"#utility.yul\":12363:12376   */\n      lt\n        /* \"#utility.yul\":12355:12468   */\n      iszero\n      tag_265\n      jumpi\n        /* \"#utility.yul\":12454:12455   */\n      dup1\n        /* \"#utility.yul\":12449:12452   */\n      dup3\n        /* \"#utility.yul\":12445:12456   */\n      add\n        /* \"#utility.yul\":12439:12457   */\n      mload\n        /* \"#utility.yul\":12435:12436   */\n      dup2\n        /* \"#utility.yul\":12430:12433   */\n      dup5\n        /* \"#utility.yul\":12426:12437   */\n      add\n        /* \"#utility.yul\":12419:12458   */\n      mstore\n        /* \"#utility.yul\":12391:12393   */\n      0x20\n        /* \"#utility.yul\":12388:12389   */\n      dup2\n        /* \"#utility.yul\":12384:12394   */\n      add\n        /* \"#utility.yul\":12379:12394   */\n      swap1\n      pop\n        /* \"#utility.yul\":12355:12468   */\n      jump(tag_263)\n    tag_265:\n        /* \"#utility.yul\":12486:12492   */\n      dup4\n        /* \"#utility.yul\":12483:12484   */\n      dup2\n        /* \"#utility.yul\":12480:12493   */\n      gt\n        /* \"#utility.yul\":12477:12578   */\n      iszero\n      tag_266\n      jumpi\n        /* \"#utility.yul\":12566:12567   */\n      0x00\n        /* \"#utility.yul\":12557:12563   */\n      dup5\n        /* \"#utility.yul\":12552:12555   */\n      dup5\n        /* \"#utility.yul\":12548:12564   */\n      add\n        /* \"#utility.yul\":12541:12568   */\n      mstore\n        /* \"#utility.yul\":12477:12578   */\n    tag_266:\n        /* \"#utility.yul\":12326:12584   */\n      pop\n        /* \"#utility.yul\":12277:12584   */\n      pop\n      pop\n      pop\n      jump\t// out\n        /* \"#utility.yul\":12590:12910   */\n    tag_51:\n        /* \"#utility.yul\":12634:12640   */\n      0x00\n        /* \"#utility.yul\":12671:12672   */\n      0x02\n        /* \"#utility.yul\":12665:12669   */\n      dup3\n        /* \"#utility.yul\":12661:12673   */\n      div\n        /* \"#utility.yul\":12651:12673   */\n      swap1\n      pop\n        /* \"#utility.yul\":12718:12719   */\n      0x01\n        /* \"#utility.yul\":12712:12716   */\n      dup3\n        /* \"#utility.yul\":12708:12720   */\n      and\n        /* \"#utility.yul\":12739:12757   */\n      dup1\n        /* \"#utility.yul\":12729:12810   */\n      tag_268\n      jumpi\n        /* \"#utility.yul\":12795:12799   */\n      0x7f\n        /* \"#utility.yul\":12787:12793   */\n      dup3\n        /* \"#utility.yul\":12783:12800   */\n      and\n        /* \"#utility.yul\":12773:12800   */\n      swap2\n      pop\n        /* \"#utility.yul\":12729:12810   */\n    tag_268:\n        /* \"#utility.yul\":12857:12859   */\n      0x20\n        /* \"#utility.yul\":12849:12855   */\n      dup3\n        /* \"#utility.yul\":12846:12860   */\n      lt\n        /* \"#utility.yul\":12826:12844   */\n      dup2\n        /* \"#utility.yul\":12823:12861   */\n      eq\n        /* \"#utility.yul\":12820:12904   */\n      iszero\n      tag_269\n      jumpi\n        /* \"#utility.yul\":12876:12894   */\n      tag_270\n      tag_271\n      jump\t// in\n    tag_270:\n        /* \"#utility.yul\":12820:12904   */\n    tag_269:\n        /* \"#utility.yul\":12641:12910   */\n      pop\n        /* \"#utility.yul\":12590:12910   */\n      swap2\n      swap1\n      pop\n      jump\t// out\n        /* \"#utility.yul\":12916:13197   */\n    tag_241:\n        /* \"#utility.yul\":12999:13026   */\n      tag_273\n        /* \"#utility.yul\":13021:13025   */\n      dup3\n        /* \"#utility.yul\":12999:13026   */\n      tag_175\n      jump\t// in\n    tag_273:\n        /* \"#utility.yul\":12991:12997   */\n      dup2\n        /* \"#utility.yul\":12987:13027   */\n      add\n        /* \"#utility.yul\":13129:13135   */\n      dup2\n        /* \"#utility.yul\":13117:13127   */\n      dup2\n        /* \"#utility.yul\":13114:13136   */\n      lt\n        /* \"#utility.yul\":13093:13111   */\n      0xffffffffffffffff\n        /* \"#utility.yul\":13081:13091   */\n      dup3\n        /* \"#utility.yul\":13078:13112   */\n      gt\n        /* \"#utility.yul\":13075:13137   */\n      or\n        /* \"#utility.yul\":13072:13160   */\n      iszero\n      tag_274\n      jumpi\n        /* \"#utility.yul\":13140:13158   */\n      tag_275\n      tag_69\n      jump\t// in\n    tag_275:\n        /* \"#utility.yul\":13072:13160   */\n    tag_274:\n        /* \"#utility.yul\":13180:13190   */\n      dup1\n        /* \"#utility.yul\":13176:13178   */\n      0x40\n        /* \"#utility.yul\":13169:13191   */\n      mstore\n        /* \"#utility.yul\":12959:13197   */\n      pop\n        /* \"#utility.yul\":12916:13197   */\n      pop\n      pop\n      jump\t// out\n        /* \"#utility.yul\":13203:13436   */\n    tag_78:\n        /* \"#utility.yul\":13242:13245   */\n      0x00\n        /* \"#utility.yul\":13265:13289   */\n      tag_277\n        /* \"#utility.yul\":13283:13288   */\n      dup3\n        /* \"#utility.yul\":13265:13289   */\n      tag_215\n      jump\t// in\n    tag_277:\n        /* \"#utility.yul\":13256:13289   */\n      swap2\n      pop\n        /* \"#utility.yul\":13311:13377   */\n      0xffffffffffffffffffffffffffffffffffffffffffffffffffffffffffffffff\n        /* \"#utility.yul\":13304:13309   */\n      dup3\n        /* \"#utility.yul\":13301:13378   */\n      eq\n        /* \"#utility.yul\":13298:13401   */\n      iszero\n      tag_278\n      jumpi\n        /* \"#utility.yul\":13381:13399   */\n      tag_279\n      tag_280\n      jump\t// in\n    tag_279:\n        /* \"#utility.yul\":13298:13401   */\n    tag_278:\n        /* \"#utility.yul\":13428:13429   */\n      0x01\n        /* \"#utility.yul\":13421:13426   */\n      dup3\n        /* \"#utility.yul\":13417:13430   */\n      add\n        /* \"#utility.yul\":13410:13430   */\n      swap1\n      pop\n        /* \"#utility.yul\":13203:13436   */\n      swap2\n      swap1\n      pop\n      jump\t// out\n        /* \"#utility.yul\":13442:13622   */\n    tag_280:\n        /* \"#utility.yul\":13490:13567   */\n      0x4e487b7100000000000000000000000000000000000000000000000000000000\n        /* \"#utility.yul\":13487:13488   */\n      0x00\n        /* \"#utility.yul\":13480:13568   */\n      mstore\n        /* \"#utility.yul\":13587:13591   */\n      0x11\n        /* \"#utility.yul\":13584:13585   */\n      0x04\n        /* \"#utility.yul\":13577:13592   */\n      mstore\n        /* \"#utility.yul\":13611:13615   */\n      0x24\n        /* \"#utility.yul\":13608:13609   */\n      0x00\n        /* \"#utility.yul\":13601:13616   */\n      revert\n        /* \"#utility.yul\":13628:13808   */\n    tag_271:\n        /* \"#utility.yul\":13676:13753   */\n      0x4e487b7100000000000000000000000000000000000000000000000000000000\n        /* \"#utility.yul\":13673:13674   */\n      0x00\n        /* \"#utility.yul\":13666:13754   */\n      mstore\n        /* \"#utility.yul\":13773:13777   */\n      0x22\n        /* \"#utility.yul\":13770:13771   */\n      0x04\n        /* \"#utility.yul\":13763:13778   */\n      mstore\n        /* \"#utility.yul\":13797:13801   */\n      0x24\n        /* \"#utility.yul\":13794:13795   */\n      0x00\n        /* \"#utility.yul\":13787:13802   */\n      revert\n        /* \"#utility.yul\":13814:13994   */\n    tag_76:\n        /* \"#utility.yul\":13862:13939   */\n      0x4e487b7100000000000000000000000000000000000000000000000000000000\n        /* \"#utility.yul\":13859:13860   */\n      0x00\n        /* \"#utility.yul\":13852:13940   */\n      mstore\n        /* \"#utility.yul\":13959:13963   */\n      0x32\n        /* \"#utility.yul\":13956:13957   */\n      0x04\n        /* \"#utility.yul\":13949:13964   */\n      mstore\n        /* \"#utility.yul\":13983:13987   */\n      0x24\n        /* \"#utility.yul\":13980:13981   */\n      0x00\n        /* \"#utility.yul\":13973:13988   */\n      revert\n        /* \"#utility.yul\":14000:14180   */\n    tag_69:\n        /* \"#utility.yul\":14048:14125   */\n      0x4e487b7100000000000000000000000000000000000000000000000000000000\n        /* \"#utility.yul\":14045:14046   */\n      0x00\n        /* \"#utility.yul\":14038:14126   */\n      mstore\n        /* \"#utility.yul\":14145:14149   */\n      0x41\n        /* \"#utility.yul\":14142:14143   */\n      0x04\n        /* \"#utility.yul\":14135:14150   */\n      mstore\n        /* \"#utility.yul\":14169:14173   */\n      0x24\n        /* \"#utility.yul\":14166:14167   */\n      0x00\n        /* \"#utility.yul\":14159:14174   */\n      revert\n        /* \"#utility.yul\":14186:14303   */\n    tag_124:\n        /* \"#utility.yul\":14295:14296   */\n      0x00\n        /* \"#utility.yul\":14292:14293   */\n      dup1\n        /* \"#utility.yul\":14285:14297   */\n      revert\n        /* \"#utility.yul\":14309:14426   */\n    tag_117:\n        /* \"#utility.yul\":14418:14419   */\n      0x00\n        /* \"#utility.yul\":14415:14416   */\n      dup1\n        /* \"#utility.yul\":14408:14420   */\n      revert\n        /* \"#utility.yul\":14432:14549   */\n    tag_136:\n        /* \"#utility.yul\":14541:14542   */\n      0x00\n        /* \"#utility.yul\":14538:14539   */\n      dup1\n        /* \"#utility.yul\":14531:14543   */\n      revert\n        /* \"#utility.yul\":14555:14672   */\n    tag_133:\n        /* \"#utility.yul\":14664:14665   */\n      0x00\n        /* \"#utility.yul\":14661:14662   */\n      dup1\n        /* \"#utility.yul\":14654:14666   */\n      revert\n        /* \"#utility.yul\":14678:14780   */\n    tag_175:\n        /* \"#utility.yul\":14719:14725   */\n      0x00\n        /* \"#utility.yul\":14770:14772   */\n      0x1f\n        /* \"#utility.yul\":14766:14773   */\n      not\n        /* \"#utility.yul\":14761:14763   */\n      0x1f\n        /* \"#utility.yul\":14754:14759   */\n      dup4\n        /* \"#utility.yul\":14750:14764   */\n      add\n        /* \"#utility.yul\":14746:14774   */\n      and\n        /* \"#utility.yul\":14736:14774   */\n      swap1\n      pop\n        /* \"#utility.yul\":14678:14780   */\n      swap2\n      swap1\n      pop\n      jump\t// out\n        /* \"#utility.yul\":14786:15016   */\n    tag_200:\n        /* \"#utility.yul\":14926:14960   */\n      0x5061796d656e742073686f756c64206265207468652073756273637269707469\n        /* \"#utility.yul\":14922:14923   */\n      0x00\n        /* \"#utility.yul\":14914:14920   */\n      dup3\n        /* \"#utility.yul\":14910:14924   */\n      add\n        /* \"#utility.yul\":14903:14961   */\n      mstore\n        /* \"#utility.yul\":14995:15008   */\n      0x6f6e20666565206f6e6c79000000000000000000000000000000000000000000\n        /* \"#utility.yul\":14990:14992   */\n      0x20\n        /* \"#utility.yul\":14982:14988   */\n      dup3\n        /* \"#utility.yul\":14978:14993   */\n      add\n        /* \"#utility.yul\":14971:15009   */\n      mstore\n        /* \"#utility.yul\":14786:15016   */\n      pop\n      jump\t// out\n        /* \"#utility.yul\":15022:15242   */\n    tag_205:\n        /* \"#utility.yul\":15162:15196   */\n      0x4f6e6c7920617574686f722063616e2063616c6c2074686973206d6574686f64\n        /* \"#utility.yul\":15158:15159   */\n      0x00\n        /* \"#utility.yul\":15150:15156   */\n      dup3\n        /* \"#utility.yul\":15146:15160   */\n      add\n        /* \"#utility.yul\":15139:15197   */\n      mstore\n        /* \"#utility.yul\":15231:15234   */\n      0x2100000000000000000000000000000000000000000000000000000000000000\n        /* \"#utility.yul\":15226:15228   */\n      0x20\n        /* \"#utility.yul\":15218:15224   */\n      dup3\n        /* \"#utility.yul\":15214:15229   */\n      add\n        /* \"#utility.yul\":15207:15235   */\n      mstore\n        /* \"#utility.yul\":15022:15242   */\n      pop\n      jump\t// out\n        /* \"#utility.yul\":15248:15370   */\n    tag_129:\n        /* \"#utility.yul\":15321:15345   */\n      tag_293\n        /* \"#utility.yul\":15339:15344   */\n      dup2\n        /* \"#utility.yul\":15321:15345   */\n      tag_215\n      jump\t// in\n    tag_293:\n        /* \"#utility.yul\":15314:15319   */\n      dup2\n        /* \"#utility.yul\":15311:15346   */\n      eq\n        /* \"#utility.yul\":15301:15364   */\n      tag_294\n      jumpi\n        /* \"#utility.yul\":15360:15361   */\n      0x00\n        /* \"#utility.yul\":15357:15358   */\n      dup1\n        /* \"#utility.yul\":15350:15362   */\n      revert\n        /* \"#utility.yul\":15301:15364   */\n    tag_294:\n        /* \"#utility.yul\":15248:15370   */\n      pop\n      jump\t// out\n\n    auxdata: 0xa26469706673582212200ba330e690a9b152095e3dd6902b9d03871bb0e3d1177c8abf0c172879e83e5e64736f6c63430008070033\n}\n",
				"bytecode": {
					"linkReferences": {},
					"object": "60806040523480156200001157600080fd5b506040516200152f3803806200152f833981810160405281019062000037919062000206565b33600460006101000a81548173ffffffffffffffffffffffffffffffffffffffff021916908373ffffffffffffffffffffffffffffffffffffffff160217905550633b9aca00826200008a9190620002cb565b6005819055508060069080519060200190620000a8929190620000c1565b50600060018190555060006003819055505050620004a4565b828054620000cf906200036c565b90600052602060002090601f016020900481019282620000f357600085556200013f565b82601f106200010e57805160ff19168380011785556200013f565b828001600101855582156200013f579182015b828111156200013e57825182559160200191906001019062000121565b5b5090506200014e919062000152565b5090565b5b808211156200016d57600081600090555060010162000153565b5090565b600062000188620001828462000295565b6200026c565b905082815260208101848484011115620001a757620001a66200046a565b5b620001b484828562000336565b509392505050565b600082601f830112620001d457620001d362000465565b5b8151620001e684826020860162000171565b91505092915050565b60008151905062000200816200048a565b92915050565b6000806040838503121562000220576200021f62000474565b5b60006200023085828601620001ef565b925050602083015167ffffffffffffffff8111156200025457620002536200046f565b5b6200026285828601620001bc565b9150509250929050565b6000620002786200028b565b9050620002868282620003a2565b919050565b6000604051905090565b600067ffffffffffffffff821115620002b357620002b262000436565b5b620002be8262000479565b9050602081019050919050565b6000620002d8826200032c565b9150620002e5836200032c565b9250817fffffffffffffffffffffffffffffffffffffffffffffffffffffffffffffffff0483118215151615620003215762000320620003d8565b5b828202905092915050565b6000819050919050565b60005b838110156200035657808201518184015260208101905062000339565b8381111562000366576000848401525b50505050565b600060028204905060018216806200038557607f821691505b602082108114156200039c576200039b62000407565b5b50919050565b620003ad8262000479565b810181811067ffffffffffffffff82111715620003cf57620003ce62000436565b5b80604052505050565b7f4e487b7100000000000000000000000000000000000000000000000000000000600052601160045260246000fd5b7f4e487b7100000000000000000000000000000000000000000000000000000000600052602260045260246000fd5b7f4e487b7100000000000000000000000000000000000000000000000000000000600052604160045260246000fd5b600080fd5b600080fd5b600080fd5b600080fd5b6000601f19601f8301169050919050565b62000495816200032c565b8114620004a157600080fd5b50565b61107b80620004b46000396000f3fe6080604052600436106100745760003560e01c806382d69b621161004e57806382d69b621461016557806385aca3171461019057806395961f05146101cd578063be291999146101e9576100bf565b80630aa0a175146101055780632443877c14610130578063534844a21461015b576100bf565b366100bf5760055434146100bd576040517f08c379a00000000000000000000000000000000000000000000000000000000081526004016100b490610c2c565b60405180910390fd5b005b6005543414610103576040517f08c379a00000000000000000000000000000000000000000000000000000000081526004016100fa90610c2c565b60405180910390fd5b005b34801561011157600080fd5b5061011a6101f3565b6040516101279190610c8e565b60405180910390f35b34801561013c57600080fd5b506101456101f9565b6040516101529190610bc5565b60405180910390f35b610163610287565b005b34801561017157600080fd5b5061017a610382565b6040516101879190610ba3565b60405180910390f35b34801561019c57600080fd5b506101b760048036038101906101b2919061091b565b61050b565b6040516101c49190610c6c565b60405180910390f35b6101e760048036038101906101e291906108a3565b610518565b005b6101f161069f565b005b60055481565b6006805461020690610e03565b80601f016020809104026020016040519081016040528092919081815260200182805461023290610e03565b801561027f5780601f106102545761010080835404028352916020019161027f565b820191906000526020600020905b81548152906001019060200180831161026257829003601f168201915b505050505081565b600460009054906101000a900473ffffffffffffffffffffffffffffffffffffffff1673ffffffffffffffffffffffffffffffffffffffff163373ffffffffffffffffffffffffffffffffffffffff1614610317576040517f08c379a000000000000000000000000000000000000000000000000000000000815260040161030e90610c4c565b60405180910390fd5b600460009054906101000a900473ffffffffffffffffffffffffffffffffffffffff1673ffffffffffffffffffffffffffffffffffffffff166108fc479081150290604051600060405180830381858888f1935050505015801561037f573d6000803e3d6000fd5b50565b6060600460009054906101000a900473ffffffffffffffffffffffffffffffffffffffff1673ffffffffffffffffffffffffffffffffffffffff163373ffffffffffffffffffffffffffffffffffffffff1614610414576040517f08c379a000000000000000000000000000000000000000000000000000000000815260040161040b90610c4c565b60405180910390fd5b600060015467ffffffffffffffff81111561043257610431610f3c565b5b6040519080825280602002602001820160405280156104605781602001602082028036833780820191505090505b50905060005b6001548110156105035760008082815260200190815260200160002060009054906101000a900473ffffffffffffffffffffffffffffffffffffffff168282815181106104b6576104b5610f0d565b5b602002602001019073ffffffffffffffffffffffffffffffffffffffff16908173ffffffffffffffffffffffffffffffffffffffff168152505080806104fb90610e66565b915050610466565b508091505090565b610513610753565b919050565b600460009054906101000a900473ffffffffffffffffffffffffffffffffffffffff1673ffffffffffffffffffffffffffffffffffffffff163373ffffffffffffffffffffffffffffffffffffffff16146105a8576040517f08c379a000000000000000000000000000000000000000000000000000000000815260040161059f90610c4c565b60405180910390fd5b604051806080016040528060035481526020018381526020018281526020014281525060026000600354815260200190815260200160002060008201518160000155602082015181600101908051906020019061060692919061077b565b50604082015181600201908051906020019061062392919061077b565b50606082015181600301559050506003600081548092919061064490610e66565b919050555060066040516106589190610b8c565b60405180910390207f9009e7bf85e860bd815644b6510a84c4e537fd62acc6e9482cd84eea5167995d83834260405161069393929190610be7565b60405180910390a25050565b33600080600154815260200190815260200160002060006101000a81548173ffffffffffffffffffffffffffffffffffffffff021916908373ffffffffffffffffffffffffffffffffffffffff1602179055506001600081548092919061070590610e66565b91905055503073ffffffffffffffffffffffffffffffffffffffff166108fc349081150290604051600060405180830381858888f19350505050158015610750573d6000803e3d6000fd5b50565b6040518060800160405280600081526020016060815260200160608152602001600081525090565b82805461078790610e03565b90600052602060002090601f0160209004810192826107a957600085556107f0565b82601f106107c257805160ff19168380011785556107f0565b828001600101855582156107f0579182015b828111156107ef5782518255916020019190600101906107d4565b5b5090506107fd9190610801565b5090565b5b8082111561081a576000816000905550600101610802565b5090565b600061083161082c84610cce565b610ca9565b90508281526020810184848401111561084d5761084c610f70565b5b610858848285610dc1565b509392505050565b600082601f83011261087557610874610f6b565b5b813561088584826020860161081e565b91505092915050565b60008135905061089d8161102e565b92915050565b600080604083850312156108ba576108b9610f7a565b5b600083013567ffffffffffffffff8111156108d8576108d7610f75565b5b6108e485828601610860565b925050602083013567ffffffffffffffff81111561090557610904610f75565b5b61091185828601610860565b9150509250929050565b60006020828403121561093157610930610f7a565b5b600061093f8482850161088e565b91505092915050565b60006109548383610960565b60208301905092915050565b61096981610d85565b82525050565b600061097a82610d24565b6109848185610d47565b935061098f83610cff565b8060005b838110156109c05781516109a78882610948565b97506109b283610d3a565b925050600181019050610993565b5085935050505092915050565b60006109d882610d2f565b6109e28185610d58565b93506109f2818560208601610dd0565b6109fb81610f7f565b840191505092915050565b6000610a1182610d2f565b610a1b8185610d69565b9350610a2b818560208601610dd0565b610a3481610f7f565b840191505092915050565b60008154610a4c81610e03565b610a568186610d7a565b94506001821660008114610a715760018114610a8257610ab5565b60ff19831686528186019350610ab5565b610a8b85610d0f565b60005b83811015610aad57815481890152600182019150602081019050610a8e565b838801955050505b50505092915050565b6000610acb602b83610d69565b9150610ad682610f90565b604082019050919050565b6000610aee602183610d69565b9150610af982610fdf565b604082019050919050565b6000608083016000830151610b1c6000860182610b6e565b5060208301518482036020860152610b3482826109cd565b91505060408301518482036040860152610b4e82826109cd565b9150506060830151610b636060860182610b6e565b508091505092915050565b610b7781610db7565b82525050565b610b8681610db7565b82525050565b6000610b988284610a3f565b915081905092915050565b60006020820190508181036000830152610bbd818461096f565b905092915050565b60006020820190508181036000830152610bdf8184610a06565b905092915050565b60006060820190508181036000830152610c018186610a06565b90508181036020830152610c158185610a06565b9050610c246040830184610b7d565b949350505050565b60006020820190508181036000830152610c4581610abe565b9050919050565b60006020820190508181036000830152610c6581610ae1565b9050919050565b60006020820190508181036000830152610c868184610b04565b905092915050565b6000602082019050610ca36000830184610b7d565b92915050565b6000610cb3610cc4565b9050610cbf8282610e35565b919050565b6000604051905090565b600067ffffffffffffffff821115610ce957610ce8610f3c565b5b610cf282610f7f565b9050602081019050919050565b6000819050602082019050919050565b60008190508160005260206000209050919050565b600081519050919050565b600081519050919050565b6000602082019050919050565b600082825260208201905092915050565b600082825260208201905092915050565b600082825260208201905092915050565b600081905092915050565b6000610d9082610d97565b9050919050565b600073ffffffffffffffffffffffffffffffffffffffff82169050919050565b6000819050919050565b82818337600083830152505050565b60005b83811015610dee578082015181840152602081019050610dd3565b83811115610dfd576000848401525b50505050565b60006002820490506001821680610e1b57607f821691505b60208210811415610e2f57610e2e610ede565b5b50919050565b610e3e82610f7f565b810181811067ffffffffffffffff82111715610e5d57610e5c610f3c565b5b80604052505050565b6000610e7182610db7565b91507fffffffffffffffffffffffffffffffffffffffffffffffffffffffffffffffff821415610ea457610ea3610eaf565b5b600182019050919050565b7f4e487b7100000000000000000000000000000000000000000000000000000000600052601160045260246000fd5b7f4e487b7100000000000000000000000000000000000000000000000000000000600052602260045260246000fd5b7f4e487b7100000000000000000000000000000000000000000000000000000000600052603260045260246000fd5b7f4e487b7100000000000000000000000000000000000000000000000000000000600052604160045260246000fd5b600080fd5b600080fd5b600080fd5b600080fd5b6000601f19601f8301169050919050565b7f5061796d656e742073686f756c6420626520746865207375627363726970746960008201527f6f6e20666565206f6e6c79000000000000000000000000000000000000000000602082015250565b7f4f6e6c7920617574686f722063616e2063616c6c2074686973206d6574686f6460008201527f2100000000000000000000000000000000000000000000000000000000000000602082015250565b61103781610db7565b811461104257600080fd5b5056fea26469706673582212200ba330e690a9b152095e3dd6902b9d03871bb0e3d1177c8abf0c172879e83e5e64736f6c63430008070033",
					"opcodes": "PUSH1 0x80 PUSH1 0x40 MSTORE CALLVALUE DUP1 ISZERO PUSH3 0x11 JUMPI PUSH1 0x0 DUP1 REVERT JUMPDEST POP PUSH1 0x40 MLOAD PUSH3 0x152F CODESIZE SUB DUP1 PUSH3 0x152F DUP4 CODECOPY DUP2 DUP2 ADD PUSH1 0x40 MSTORE DUP2 ADD SWAP1 PUSH3 0x37 SWAP2 SWAP1 PUSH3 0x206 JUMP JUMPDEST CALLER PUSH1 0x4 PUSH1 0x0 PUSH2 0x100 EXP DUP2 SLOAD DUP2 PUSH20 0xFFFFFFFFFFFFFFFFFFFFFFFFFFFFFFFFFFFFFFFF MUL NOT AND SWAP1 DUP4 PUSH20 0xFFFFFFFFFFFFFFFFFFFFFFFFFFFFFFFFFFFFFFFF AND MUL OR SWAP1 SSTORE POP PUSH4 0x3B9ACA00 DUP3 PUSH3 0x8A SWAP2 SWAP1 PUSH3 0x2CB JUMP JUMPDEST PUSH1 0x5 DUP2 SWAP1 SSTORE POP DUP1 PUSH1 0x6 SWAP1 DUP1 MLOAD SWAP1 PUSH1 0x20 ADD SWAP1 PUSH3 0xA8 SWAP3 SWAP2 SWAP1 PUSH3 0xC1 JUMP JUMPDEST POP PUSH1 0x0 PUSH1 0x1 DUP2 SWAP1 SSTORE POP PUSH1 0x0 PUSH1 0x3 DUP2 SWAP1 SSTORE POP POP POP PUSH3 0x4A4 JUMP JUMPDEST DUP3 DUP1 SLOAD PUSH3 0xCF SWAP1 PUSH3 0x36C JUMP JUMPDEST SWAP1 PUSH1 0x0 MSTORE PUSH1 0x20 PUSH1 0x0 KECCAK256 SWAP1 PUSH1 0x1F ADD PUSH1 0x20 SWAP1 DIV DUP2 ADD SWAP3 DUP3 PUSH3 0xF3 JUMPI PUSH1 0x0 DUP6 SSTORE PUSH3 0x13F JUMP JUMPDEST DUP3 PUSH1 0x1F LT PUSH3 0x10E JUMPI DUP1 MLOAD PUSH1 0xFF NOT AND DUP4 DUP1 ADD OR DUP6 SSTORE PUSH3 0x13F JUMP JUMPDEST DUP3 DUP1 ADD PUSH1 0x1 ADD DUP6 SSTORE DUP3 ISZERO PUSH3 0x13F JUMPI SWAP2 DUP3 ADD JUMPDEST DUP3 DUP2 GT ISZERO PUSH3 0x13E JUMPI DUP3 MLOAD DUP3 SSTORE SWAP2 PUSH1 0x20 ADD SWAP2 SWAP1 PUSH1 0x1 ADD SWAP1 PUSH3 0x121 JUMP JUMPDEST JUMPDEST POP SWAP1 POP PUSH3 0x14E SWAP2 SWAP1 PUSH3 0x152 JUMP JUMPDEST POP SWAP1 JUMP JUMPDEST JUMPDEST DUP1 DUP3 GT ISZERO PUSH3 0x16D JUMPI PUSH1 0x0 DUP2 PUSH1 0x0 SWAP1 SSTORE POP PUSH1 0x1 ADD PUSH3 0x153 JUMP JUMPDEST POP SWAP1 JUMP JUMPDEST PUSH1 0x0 PUSH3 0x188 PUSH3 0x182 DUP5 PUSH3 0x295 JUMP JUMPDEST PUSH3 0x26C JUMP JUMPDEST SWAP1 POP DUP3 DUP2 MSTORE PUSH1 0x20 DUP2 ADD DUP5 DUP5 DUP5 ADD GT ISZERO PUSH3 0x1A7 JUMPI PUSH3 0x1A6 PUSH3 0x46A JUMP JUMPDEST JUMPDEST PUSH3 0x1B4 DUP5 DUP3 DUP6 PUSH3 0x336 JUMP JUMPDEST POP SWAP4 SWAP3 POP POP POP JUMP JUMPDEST PUSH1 0x0 DUP3 PUSH1 0x1F DUP4 ADD SLT PUSH3 0x1D4 JUMPI PUSH3 0x1D3 PUSH3 0x465 JUMP JUMPDEST JUMPDEST DUP2 MLOAD PUSH3 0x1E6 DUP5 DUP3 PUSH1 0x20 DUP7 ADD PUSH3 0x171 JUMP JUMPDEST SWAP2 POP POP SWAP3 SWAP2 POP POP JUMP JUMPDEST PUSH1 0x0 DUP2 MLOAD SWAP1 POP PUSH3 0x200 DUP2 PUSH3 0x48A JUMP JUMPDEST SWAP3 SWAP2 POP POP JUMP JUMPDEST PUSH1 0x0 DUP1 PUSH1 0x40 DUP4 DUP6 SUB SLT ISZERO PUSH3 0x220 JUMPI PUSH3 0x21F PUSH3 0x474 JUMP JUMPDEST JUMPDEST PUSH1 0x0 PUSH3 0x230 DUP6 DUP3 DUP7 ADD PUSH3 0x1EF JUMP JUMPDEST SWAP3 POP POP PUSH1 0x20 DUP4 ADD MLOAD PUSH8 0xFFFFFFFFFFFFFFFF DUP2 GT ISZERO PUSH3 0x254 JUMPI PUSH3 0x253 PUSH3 0x46F JUMP JUMPDEST JUMPDEST PUSH3 0x262 DUP6 DUP3 DUP7 ADD PUSH3 0x1BC JUMP JUMPDEST SWAP2 POP POP SWAP3 POP SWAP3 SWAP1 POP JUMP JUMPDEST PUSH1 0x0 PUSH3 0x278 PUSH3 0x28B JUMP JUMPDEST SWAP1 POP PUSH3 0x286 DUP3 DUP3 PUSH3 0x3A2 JUMP JUMPDEST SWAP2 SWAP1 POP JUMP JUMPDEST PUSH1 0x0 PUSH1 0x40 MLOAD SWAP1 POP SWAP1 JUMP JUMPDEST PUSH1 0x0 PUSH8 0xFFFFFFFFFFFFFFFF DUP3 GT ISZERO PUSH3 0x2B3 JUMPI PUSH3 0x2B2 PUSH3 0x436 JUMP JUMPDEST JUMPDEST PUSH3 0x2BE DUP3 PUSH3 0x479 JUMP JUMPDEST SWAP1 POP PUSH1 0x20 DUP2 ADD SWAP1 POP SWAP2 SWAP1 POP JUMP JUMPDEST PUSH1 0x0 PUSH3 0x2D8 DUP3 PUSH3 0x32C JUMP JUMPDEST SWAP2 POP PUSH3 0x2E5 DUP4 PUSH3 0x32C JUMP JUMPDEST SWAP3 POP DUP2 PUSH32 0xFFFFFFFFFFFFFFFFFFFFFFFFFFFFFFFFFFFFFFFFFFFFFFFFFFFFFFFFFFFFFFFF DIV DUP4 GT DUP3 ISZERO ISZERO AND ISZERO PUSH3 0x321 JUMPI PUSH3 0x320 PUSH3 0x3D8 JUMP JUMPDEST JUMPDEST DUP3 DUP3 MUL SWAP1 POP SWAP3 SWAP2 POP POP JUMP JUMPDEST PUSH1 0x0 DUP2 SWAP1 POP SWAP2 SWAP1 POP JUMP JUMPDEST PUSH1 0x0 JUMPDEST DUP4 DUP2 LT ISZERO PUSH3 0x356 JUMPI DUP1 DUP3 ADD MLOAD DUP2 DUP5 ADD MSTORE PUSH1 0x20 DUP2 ADD SWAP1 POP PUSH3 0x339 JUMP JUMPDEST DUP4 DUP2 GT ISZERO PUSH3 0x366 JUMPI PUSH1 0x0 DUP5 DUP5 ADD MSTORE JUMPDEST POP POP POP POP JUMP JUMPDEST PUSH1 0x0 PUSH1 0x2 DUP3 DIV SWAP1 POP PUSH1 0x1 DUP3 AND DUP1 PUSH3 0x385 JUMPI PUSH1 0x7F DUP3 AND SWAP2 POP JUMPDEST PUSH1 0x20 DUP3 LT DUP2 EQ ISZERO PUSH3 0x39C JUMPI PUSH3 0x39B PUSH3 0x407 JUMP JUMPDEST JUMPDEST POP SWAP2 SWAP1 POP JUMP JUMPDEST PUSH3 0x3AD DUP3 PUSH3 0x479 JUMP JUMPDEST DUP2 ADD DUP2 DUP2 LT PUSH8 0xFFFFFFFFFFFFFFFF DUP3 GT OR ISZERO PUSH3 0x3CF JUMPI PUSH3 0x3CE PUSH3 0x436 JUMP JUMPDEST JUMPDEST DUP1 PUSH1 0x40 MSTORE POP POP POP JUMP JUMPDEST PUSH32 0x4E487B7100000000000000000000000000000000000000000000000000000000 PUSH1 0x0 MSTORE PUSH1 0x11 PUSH1 0x4 MSTORE PUSH1 0x24 PUSH1 0x0 REVERT JUMPDEST PUSH32 0x4E487B7100000000000000000000000000000000000000000000000000000000 PUSH1 0x0 MSTORE PUSH1 0x22 PUSH1 0x4 MSTORE PUSH1 0x24 PUSH1 0x0 REVERT JUMPDEST PUSH32 0x4E487B7100000000000000000000000000000000000000000000000000000000 PUSH1 0x0 MSTORE PUSH1 0x41 PUSH1 0x4 MSTORE PUSH1 0x24 PUSH1 0x0 REVERT JUMPDEST PUSH1 0x0 DUP1 REVERT JUMPDEST PUSH1 0x0 DUP1 REVERT JUMPDEST PUSH1 0x0 DUP1 REVERT JUMPDEST PUSH1 0x0 DUP1 REVERT JUMPDEST PUSH1 0x0 PUSH1 0x1F NOT PUSH1 0x1F DUP4 ADD AND SWAP1 POP SWAP2 SWAP1 POP JUMP JUMPDEST PUSH3 0x495 DUP2 PUSH3 0x32C JUMP JUMPDEST DUP2 EQ PUSH3 0x4A1 JUMPI PUSH1 0x0 DUP1 REVERT JUMPDEST POP JUMP JUMPDEST PUSH2 0x107B DUP1 PUSH3 0x4B4 PUSH1 0x0 CODECOPY PUSH1 0x0 RETURN INVALID PUSH1 0x80 PUSH1 0x40 MSTORE PUSH1 0x4 CALLDATASIZE LT PUSH2 0x74 JUMPI PUSH1 0x0 CALLDATALOAD PUSH1 0xE0 SHR DUP1 PUSH4 0x82D69B62 GT PUSH2 0x4E JUMPI DUP1 PUSH4 0x82D69B62 EQ PUSH2 0x165 JUMPI DUP1 PUSH4 0x85ACA317 EQ PUSH2 0x190 JUMPI DUP1 PUSH4 0x95961F05 EQ PUSH2 0x1CD JUMPI DUP1 PUSH4 0xBE291999 EQ PUSH2 0x1E9 JUMPI PUSH2 0xBF JUMP JUMPDEST DUP1 PUSH4 0xAA0A175 EQ PUSH2 0x105 JUMPI DUP1 PUSH4 0x2443877C EQ PUSH2 0x130 JUMPI DUP1 PUSH4 0x534844A2 EQ PUSH2 0x15B JUMPI PUSH2 0xBF JUMP JUMPDEST CALLDATASIZE PUSH2 0xBF JUMPI PUSH1 0x5 SLOAD CALLVALUE EQ PUSH2 0xBD JUMPI PUSH1 0x40 MLOAD PUSH32 0x8C379A000000000000000000000000000000000000000000000000000000000 DUP2 MSTORE PUSH1 0x4 ADD PUSH2 0xB4 SWAP1 PUSH2 0xC2C JUMP JUMPDEST PUSH1 0x40 MLOAD DUP1 SWAP2 SUB SWAP1 REVERT JUMPDEST STOP JUMPDEST PUSH1 0x5 SLOAD CALLVALUE EQ PUSH2 0x103 JUMPI PUSH1 0x40 MLOAD PUSH32 0x8C379A000000000000000000000000000000000000000000000000000000000 DUP2 MSTORE PUSH1 0x4 ADD PUSH2 0xFA SWAP1 PUSH2 0xC2C JUMP JUMPDEST PUSH1 0x40 MLOAD DUP1 SWAP2 SUB SWAP1 REVERT JUMPDEST STOP JUMPDEST CALLVALUE DUP1 ISZERO PUSH2 0x111 JUMPI PUSH1 0x0 DUP1 REVERT JUMPDEST POP PUSH2 0x11A PUSH2 0x1F3 JUMP JUMPDEST PUSH1 0x40 MLOAD PUSH2 0x127 SWAP2 SWAP1 PUSH2 0xC8E JUMP JUMPDEST PUSH1 0x40 MLOAD DUP1 SWAP2 SUB SWAP1 RETURN JUMPDEST CALLVALUE DUP1 ISZERO PUSH2 0x13C JUMPI PUSH1 0x0 DUP1 REVERT JUMPDEST POP PUSH2 0x145 PUSH2 0x1F9 JUMP JUMPDEST PUSH1 0x40 MLOAD PUSH2 0x152 SWAP2 SWAP1 PUSH2 0xBC5 JUMP JUMPDEST PUSH1 0x40 MLOAD DUP1 SWAP2 SUB SWAP1 RETURN JUMPDEST PUSH2 0x163 PUSH2 0x287 JUMP JUMPDEST STOP JUMPDEST CALLVALUE DUP1 ISZERO PUSH2 0x171 JUMPI PUSH1 0x0 DUP1 REVERT JUMPDEST POP PUSH2 0x17A PUSH2 0x382 JUMP JUMPDEST PUSH1 0x40 MLOAD PUSH2 0x187 SWAP2 SWAP1 PUSH2 0xBA3 JUMP JUMPDEST PUSH1 0x40 MLOAD DUP1 SWAP2 SUB SWAP1 RETURN JUMPDEST CALLVALUE DUP1 ISZERO PUSH2 0x19C JUMPI PUSH1 0x0 DUP1 REVERT JUMPDEST POP PUSH2 0x1B7 PUSH1 0x4 DUP1 CALLDATASIZE SUB DUP2 ADD SWAP1 PUSH2 0x1B2 SWAP2 SWAP1 PUSH2 0x91B JUMP JUMPDEST PUSH2 0x50B JUMP JUMPDEST PUSH1 0x40 MLOAD PUSH2 0x1C4 SWAP2 SWAP1 PUSH2 0xC6C JUMP JUMPDEST PUSH1 0x40 MLOAD DUP1 SWAP2 SUB SWAP1 RETURN JUMPDEST PUSH2 0x1E7 PUSH1 0x4 DUP1 CALLDATASIZE SUB DUP2 ADD SWAP1 PUSH2 0x1E2 SWAP2 SWAP1 PUSH2 0x8A3 JUMP JUMPDEST PUSH2 0x518 JUMP JUMPDEST STOP JUMPDEST PUSH2 0x1F1 PUSH2 0x69F JUMP JUMPDEST STOP JUMPDEST PUSH1 0x5 SLOAD DUP2 JUMP JUMPDEST PUSH1 0x6 DUP1 SLOAD PUSH2 0x206 SWAP1 PUSH2 0xE03 JUMP JUMPDEST DUP1 PUSH1 0x1F ADD PUSH1 0x20 DUP1 SWAP2 DIV MUL PUSH1 0x20 ADD PUSH1 0x40 MLOAD SWAP1 DUP2 ADD PUSH1 0x40 MSTORE DUP1 SWAP3 SWAP2 SWAP1 DUP2 DUP2 MSTORE PUSH1 0x20 ADD DUP3 DUP1 SLOAD PUSH2 0x232 SWAP1 PUSH2 0xE03 JUMP JUMPDEST DUP1 ISZERO PUSH2 0x27F JUMPI DUP1 PUSH1 0x1F LT PUSH2 0x254 JUMPI PUSH2 0x100 DUP1 DUP4 SLOAD DIV MUL DUP4 MSTORE SWAP2 PUSH1 0x20 ADD SWAP2 PUSH2 0x27F JUMP JUMPDEST DUP3 ADD SWAP2 SWAP1 PUSH1 0x0 MSTORE PUSH1 0x20 PUSH1 0x0 KECCAK256 SWAP1 JUMPDEST DUP2 SLOAD DUP2 MSTORE SWAP1 PUSH1 0x1 ADD SWAP1 PUSH1 0x20 ADD DUP1 DUP4 GT PUSH2 0x262 JUMPI DUP3 SWAP1 SUB PUSH1 0x1F AND DUP3 ADD SWAP2 JUMPDEST POP POP POP POP POP DUP2 JUMP JUMPDEST PUSH1 0x4 PUSH1 0x0 SWAP1 SLOAD SWAP1 PUSH2 0x100 EXP SWAP1 DIV PUSH20 0xFFFFFFFFFFFFFFFFFFFFFFFFFFFFFFFFFFFFFFFF AND PUSH20 0xFFFFFFFFFFFFFFFFFFFFFFFFFFFFFFFFFFFFFFFF AND CALLER PUSH20 0xFFFFFFFFFFFFFFFFFFFFFFFFFFFFFFFFFFFFFFFF AND EQ PUSH2 0x317 JUMPI PUSH1 0x40 MLOAD PUSH32 0x8C379A000000000000000000000000000000000000000000000000000000000 DUP2 MSTORE PUSH1 0x4 ADD PUSH2 0x30E SWAP1 PUSH2 0xC4C JUMP JUMPDEST PUSH1 0x40 MLOAD DUP1 SWAP2 SUB SWAP1 REVERT JUMPDEST PUSH1 0x4 PUSH1 0x0 SWAP1 SLOAD SWAP1 PUSH2 0x100 EXP SWAP1 DIV PUSH20 0xFFFFFFFFFFFFFFFFFFFFFFFFFFFFFFFFFFFFFFFF AND PUSH20 0xFFFFFFFFFFFFFFFFFFFFFFFFFFFFFFFFFFFFFFFF AND PUSH2 0x8FC SELFBALANCE SWAP1 DUP2 ISZERO MUL SWAP1 PUSH1 0x40 MLOAD PUSH1 0x0 PUSH1 0x40 MLOAD DUP1 DUP4 SUB DUP2 DUP6 DUP9 DUP9 CALL SWAP4 POP POP POP POP ISZERO DUP1 ISZERO PUSH2 0x37F JUMPI RETURNDATASIZE PUSH1 0x0 DUP1 RETURNDATACOPY RETURNDATASIZE PUSH1 0x0 REVERT JUMPDEST POP JUMP JUMPDEST PUSH1 0x60 PUSH1 0x4 PUSH1 0x0 SWAP1 SLOAD SWAP1 PUSH2 0x100 EXP SWAP1 DIV PUSH20 0xFFFFFFFFFFFFFFFFFFFFFFFFFFFFFFFFFFFFFFFF AND PUSH20 0xFFFFFFFFFFFFFFFFFFFFFFFFFFFFFFFFFFFFFFFF AND CALLER PUSH20 0xFFFFFFFFFFFFFFFFFFFFFFFFFFFFFFFFFFFFFFFF AND EQ PUSH2 0x414 JUMPI PUSH1 0x40 MLOAD PUSH32 0x8C379A000000000000000000000000000000000000000000000000000000000 DUP2 MSTORE PUSH1 0x4 ADD PUSH2 0x40B SWAP1 PUSH2 0xC4C JUMP JUMPDEST PUSH1 0x40 MLOAD DUP1 SWAP2 SUB SWAP1 REVERT JUMPDEST PUSH1 0x0 PUSH1 0x1 SLOAD PUSH8 0xFFFFFFFFFFFFFFFF DUP2 GT ISZERO PUSH2 0x432 JUMPI PUSH2 0x431 PUSH2 0xF3C JUMP JUMPDEST JUMPDEST PUSH1 0x40 MLOAD SWAP1 DUP1 DUP3 MSTORE DUP1 PUSH1 0x20 MUL PUSH1 0x20 ADD DUP3 ADD PUSH1 0x40 MSTORE DUP1 ISZERO PUSH2 0x460 JUMPI DUP2 PUSH1 0x20 ADD PUSH1 0x20 DUP3 MUL DUP1 CALLDATASIZE DUP4 CALLDATACOPY DUP1 DUP3 ADD SWAP2 POP POP SWAP1 POP JUMPDEST POP SWAP1 POP PUSH1 0x0 JUMPDEST PUSH1 0x1 SLOAD DUP2 LT ISZERO PUSH2 0x503 JUMPI PUSH1 0x0 DUP1 DUP3 DUP2 MSTORE PUSH1 0x20 ADD SWAP1 DUP2 MSTORE PUSH1 0x20 ADD PUSH1 0x0 KECCAK256 PUSH1 0x0 SWAP1 SLOAD SWAP1 PUSH2 0x100 EXP SWAP1 DIV PUSH20 0xFFFFFFFFFFFFFFFFFFFFFFFFFFFFFFFFFFFFFFFF AND DUP3 DUP3 DUP2 MLOAD DUP2 LT PUSH2 0x4B6 JUMPI PUSH2 0x4B5 PUSH2 0xF0D JUMP JUMPDEST JUMPDEST PUSH1 0x20 MUL PUSH1 0x20 ADD ADD SWAP1 PUSH20 0xFFFFFFFFFFFFFFFFFFFFFFFFFFFFFFFFFFFFFFFF AND SWAP1 DUP2 PUSH20 0xFFFFFFFFFFFFFFFFFFFFFFFFFFFFFFFFFFFFFFFF AND DUP2 MSTORE POP POP DUP1 DUP1 PUSH2 0x4FB SWAP1 PUSH2 0xE66 JUMP JUMPDEST SWAP2 POP POP PUSH2 0x466 JUMP JUMPDEST POP DUP1 SWAP2 POP POP SWAP1 JUMP JUMPDEST PUSH2 0x513 PUSH2 0x753 JUMP JUMPDEST SWAP2 SWAP1 POP JUMP JUMPDEST PUSH1 0x4 PUSH1 0x0 SWAP1 SLOAD SWAP1 PUSH2 0x100 EXP SWAP1 DIV PUSH20 0xFFFFFFFFFFFFFFFFFFFFFFFFFFFFFFFFFFFFFFFF AND PUSH20 0xFFFFFFFFFFFFFFFFFFFFFFFFFFFFFFFFFFFFFFFF AND CALLER PUSH20 0xFFFFFFFFFFFFFFFFFFFFFFFFFFFFFFFFFFFFFFFF AND EQ PUSH2 0x5A8 JUMPI PUSH1 0x40 MLOAD PUSH32 0x8C379A000000000000000000000000000000000000000000000000000000000 DUP2 MSTORE PUSH1 0x4 ADD PUSH2 0x59F SWAP1 PUSH2 0xC4C JUMP JUMPDEST PUSH1 0x40 MLOAD DUP1 SWAP2 SUB SWAP1 REVERT JUMPDEST PUSH1 0x40 MLOAD DUP1 PUSH1 0x80 ADD PUSH1 0x40 MSTORE DUP1 PUSH1 0x3 SLOAD DUP2 MSTORE PUSH1 0x20 ADD DUP4 DUP2 MSTORE PUSH1 0x20 ADD DUP3 DUP2 MSTORE PUSH1 0x20 ADD TIMESTAMP DUP2 MSTORE POP PUSH1 0x2 PUSH1 0x0 PUSH1 0x3 SLOAD DUP2 MSTORE PUSH1 0x20 ADD SWAP1 DUP2 MSTORE PUSH1 0x20 ADD PUSH1 0x0 KECCAK256 PUSH1 0x0 DUP3 ADD MLOAD DUP2 PUSH1 0x0 ADD SSTORE PUSH1 0x20 DUP3 ADD MLOAD DUP2 PUSH1 0x1 ADD SWAP1 DUP1 MLOAD SWAP1 PUSH1 0x20 ADD SWAP1 PUSH2 0x606 SWAP3 SWAP2 SWAP1 PUSH2 0x77B JUMP JUMPDEST POP PUSH1 0x40 DUP3 ADD MLOAD DUP2 PUSH1 0x2 ADD SWAP1 DUP1 MLOAD SWAP1 PUSH1 0x20 ADD SWAP1 PUSH2 0x623 SWAP3 SWAP2 SWAP1 PUSH2 0x77B JUMP JUMPDEST POP PUSH1 0x60 DUP3 ADD MLOAD DUP2 PUSH1 0x3 ADD SSTORE SWAP1 POP POP PUSH1 0x3 PUSH1 0x0 DUP2 SLOAD DUP1 SWAP3 SWAP2 SWAP1 PUSH2 0x644 SWAP1 PUSH2 0xE66 JUMP JUMPDEST SWAP2 SWAP1 POP SSTORE POP PUSH1 0x6 PUSH1 0x40 MLOAD PUSH2 0x658 SWAP2 SWAP1 PUSH2 0xB8C JUMP JUMPDEST PUSH1 0x40 MLOAD DUP1 SWAP2 SUB SWAP1 KECCAK256 PUSH32 0x9009E7BF85E860BD815644B6510A84C4E537FD62ACC6E9482CD84EEA5167995D DUP4 DUP4 TIMESTAMP PUSH1 0x40 MLOAD PUSH2 0x693 SWAP4 SWAP3 SWAP2 SWAP1 PUSH2 0xBE7 JUMP JUMPDEST PUSH1 0x40 MLOAD DUP1 SWAP2 SUB SWAP1 LOG2 POP POP JUMP JUMPDEST CALLER PUSH1 0x0 DUP1 PUSH1 0x1 SLOAD DUP2 MSTORE PUSH1 0x20 ADD SWAP1 DUP2 MSTORE PUSH1 0x20 ADD PUSH1 0x0 KECCAK256 PUSH1 0x0 PUSH2 0x100 EXP DUP2 SLOAD DUP2 PUSH20 0xFFFFFFFFFFFFFFFFFFFFFFFFFFFFFFFFFFFFFFFF MUL NOT AND SWAP1 DUP4 PUSH20 0xFFFFFFFFFFFFFFFFFFFFFFFFFFFFFFFFFFFFFFFF AND MUL OR SWAP1 SSTORE POP PUSH1 0x1 PUSH1 0x0 DUP2 SLOAD DUP1 SWAP3 SWAP2 SWAP1 PUSH2 0x705 SWAP1 PUSH2 0xE66 JUMP JUMPDEST SWAP2 SWAP1 POP SSTORE POP ADDRESS PUSH20 0xFFFFFFFFFFFFFFFFFFFFFFFFFFFFFFFFFFFFFFFF AND PUSH2 0x8FC CALLVALUE SWAP1 DUP2 ISZERO MUL SWAP1 PUSH1 0x40 MLOAD PUSH1 0x0 PUSH1 0x40 MLOAD DUP1 DUP4 SUB DUP2 DUP6 DUP9 DUP9 CALL SWAP4 POP POP POP POP ISZERO DUP1 ISZERO PUSH2 0x750 JUMPI RETURNDATASIZE PUSH1 0x0 DUP1 RETURNDATACOPY RETURNDATASIZE PUSH1 0x0 REVERT JUMPDEST POP JUMP JUMPDEST PUSH1 0x40 MLOAD DUP1 PUSH1 0x80 ADD PUSH1 0x40 MSTORE DUP1 PUSH1 0x0 DUP2 MSTORE PUSH1 0x20 ADD PUSH1 0x60 DUP2 MSTORE PUSH1 0x20 ADD PUSH1 0x60 DUP2 MSTORE PUSH1 0x20 ADD PUSH1 0x0 DUP2 MSTORE POP SWAP1 JUMP JUMPDEST DUP3 DUP1 SLOAD PUSH2 0x787 SWAP1 PUSH2 0xE03 JUMP JUMPDEST SWAP1 PUSH1 0x0 MSTORE PUSH1 0x20 PUSH1 0x0 KECCAK256 SWAP1 PUSH1 0x1F ADD PUSH1 0x20 SWAP1 DIV DUP2 ADD SWAP3 DUP3 PUSH2 0x7A9 JUMPI PUSH1 0x0 DUP6 SSTORE PUSH2 0x7F0 JUMP JUMPDEST DUP3 PUSH1 0x1F LT PUSH2 0x7C2 JUMPI DUP1 MLOAD PUSH1 0xFF NOT AND DUP4 DUP1 ADD OR DUP6 SSTORE PUSH2 0x7F0 JUMP JUMPDEST DUP3 DUP1 ADD PUSH1 0x1 ADD DUP6 SSTORE DUP3 ISZERO PUSH2 0x7F0 JUMPI SWAP2 DUP3 ADD JUMPDEST DUP3 DUP2 GT ISZERO PUSH2 0x7EF JUMPI DUP3 MLOAD DUP3 SSTORE SWAP2 PUSH1 0x20 ADD SWAP2 SWAP1 PUSH1 0x1 ADD SWAP1 PUSH2 0x7D4 JUMP JUMPDEST JUMPDEST POP SWAP1 POP PUSH2 0x7FD SWAP2 SWAP1 PUSH2 0x801 JUMP JUMPDEST POP SWAP1 JUMP JUMPDEST JUMPDEST DUP1 DUP3 GT ISZERO PUSH2 0x81A JUMPI PUSH1 0x0 DUP2 PUSH1 0x0 SWAP1 SSTORE POP PUSH1 0x1 ADD PUSH2 0x802 JUMP JUMPDEST POP SWAP1 JUMP JUMPDEST PUSH1 0x0 PUSH2 0x831 PUSH2 0x82C DUP5 PUSH2 0xCCE JUMP JUMPDEST PUSH2 0xCA9 JUMP JUMPDEST SWAP1 POP DUP3 DUP2 MSTORE PUSH1 0x20 DUP2 ADD DUP5 DUP5 DUP5 ADD GT ISZERO PUSH2 0x84D JUMPI PUSH2 0x84C PUSH2 0xF70 JUMP JUMPDEST JUMPDEST PUSH2 0x858 DUP5 DUP3 DUP6 PUSH2 0xDC1 JUMP JUMPDEST POP SWAP4 SWAP3 POP POP POP JUMP JUMPDEST PUSH1 0x0 DUP3 PUSH1 0x1F DUP4 ADD SLT PUSH2 0x875 JUMPI PUSH2 0x874 PUSH2 0xF6B JUMP JUMPDEST JUMPDEST DUP2 CALLDATALOAD PUSH2 0x885 DUP5 DUP3 PUSH1 0x20 DUP7 ADD PUSH2 0x81E JUMP JUMPDEST SWAP2 POP POP SWAP3 SWAP2 POP POP JUMP JUMPDEST PUSH1 0x0 DUP2 CALLDATALOAD SWAP1 POP PUSH2 0x89D DUP2 PUSH2 0x102E JUMP JUMPDEST SWAP3 SWAP2 POP POP JUMP JUMPDEST PUSH1 0x0 DUP1 PUSH1 0x40 DUP4 DUP6 SUB SLT ISZERO PUSH2 0x8BA JUMPI PUSH2 0x8B9 PUSH2 0xF7A JUMP JUMPDEST JUMPDEST PUSH1 0x0 DUP4 ADD CALLDATALOAD PUSH8 0xFFFFFFFFFFFFFFFF DUP2 GT ISZERO PUSH2 0x8D8 JUMPI PUSH2 0x8D7 PUSH2 0xF75 JUMP JUMPDEST JUMPDEST PUSH2 0x8E4 DUP6 DUP3 DUP7 ADD PUSH2 0x860 JUMP JUMPDEST SWAP3 POP POP PUSH1 0x20 DUP4 ADD CALLDATALOAD PUSH8 0xFFFFFFFFFFFFFFFF DUP2 GT ISZERO PUSH2 0x905 JUMPI PUSH2 0x904 PUSH2 0xF75 JUMP JUMPDEST JUMPDEST PUSH2 0x911 DUP6 DUP3 DUP7 ADD PUSH2 0x860 JUMP JUMPDEST SWAP2 POP POP SWAP3 POP SWAP3 SWAP1 POP JUMP JUMPDEST PUSH1 0x0 PUSH1 0x20 DUP3 DUP5 SUB SLT ISZERO PUSH2 0x931 JUMPI PUSH2 0x930 PUSH2 0xF7A JUMP JUMPDEST JUMPDEST PUSH1 0x0 PUSH2 0x93F DUP5 DUP3 DUP6 ADD PUSH2 0x88E JUMP JUMPDEST SWAP2 POP POP SWAP3 SWAP2 POP POP JUMP JUMPDEST PUSH1 0x0 PUSH2 0x954 DUP4 DUP4 PUSH2 0x960 JUMP JUMPDEST PUSH1 0x20 DUP4 ADD SWAP1 POP SWAP3 SWAP2 POP POP JUMP JUMPDEST PUSH2 0x969 DUP2 PUSH2 0xD85 JUMP JUMPDEST DUP3 MSTORE POP POP JUMP JUMPDEST PUSH1 0x0 PUSH2 0x97A DUP3 PUSH2 0xD24 JUMP JUMPDEST PUSH2 0x984 DUP2 DUP6 PUSH2 0xD47 JUMP JUMPDEST SWAP4 POP PUSH2 0x98F DUP4 PUSH2 0xCFF JUMP JUMPDEST DUP1 PUSH1 0x0 JUMPDEST DUP4 DUP2 LT ISZERO PUSH2 0x9C0 JUMPI DUP2 MLOAD PUSH2 0x9A7 DUP9 DUP3 PUSH2 0x948 JUMP JUMPDEST SWAP8 POP PUSH2 0x9B2 DUP4 PUSH2 0xD3A JUMP JUMPDEST SWAP3 POP POP PUSH1 0x1 DUP2 ADD SWAP1 POP PUSH2 0x993 JUMP JUMPDEST POP DUP6 SWAP4 POP POP POP POP SWAP3 SWAP2 POP POP JUMP JUMPDEST PUSH1 0x0 PUSH2 0x9D8 DUP3 PUSH2 0xD2F JUMP JUMPDEST PUSH2 0x9E2 DUP2 DUP6 PUSH2 0xD58 JUMP JUMPDEST SWAP4 POP PUSH2 0x9F2 DUP2 DUP6 PUSH1 0x20 DUP7 ADD PUSH2 0xDD0 JUMP JUMPDEST PUSH2 0x9FB DUP2 PUSH2 0xF7F JUMP JUMPDEST DUP5 ADD SWAP2 POP POP SWAP3 SWAP2 POP POP JUMP JUMPDEST PUSH1 0x0 PUSH2 0xA11 DUP3 PUSH2 0xD2F JUMP JUMPDEST PUSH2 0xA1B DUP2 DUP6 PUSH2 0xD69 JUMP JUMPDEST SWAP4 POP PUSH2 0xA2B DUP2 DUP6 PUSH1 0x20 DUP7 ADD PUSH2 0xDD0 JUMP JUMPDEST PUSH2 0xA34 DUP2 PUSH2 0xF7F JUMP JUMPDEST DUP5 ADD SWAP2 POP POP SWAP3 SWAP2 POP POP JUMP JUMPDEST PUSH1 0x0 DUP2 SLOAD PUSH2 0xA4C DUP2 PUSH2 0xE03 JUMP JUMPDEST PUSH2 0xA56 DUP2 DUP7 PUSH2 0xD7A JUMP JUMPDEST SWAP5 POP PUSH1 0x1 DUP3 AND PUSH1 0x0 DUP2 EQ PUSH2 0xA71 JUMPI PUSH1 0x1 DUP2 EQ PUSH2 0xA82 JUMPI PUSH2 0xAB5 JUMP JUMPDEST PUSH1 0xFF NOT DUP4 AND DUP7 MSTORE DUP2 DUP7 ADD SWAP4 POP PUSH2 0xAB5 JUMP JUMPDEST PUSH2 0xA8B DUP6 PUSH2 0xD0F JUMP JUMPDEST PUSH1 0x0 JUMPDEST DUP4 DUP2 LT ISZERO PUSH2 0xAAD JUMPI DUP2 SLOAD DUP2 DUP10 ADD MSTORE PUSH1 0x1 DUP3 ADD SWAP2 POP PUSH1 0x20 DUP2 ADD SWAP1 POP PUSH2 0xA8E JUMP JUMPDEST DUP4 DUP9 ADD SWAP6 POP POP POP JUMPDEST POP POP POP SWAP3 SWAP2 POP POP JUMP JUMPDEST PUSH1 0x0 PUSH2 0xACB PUSH1 0x2B DUP4 PUSH2 0xD69 JUMP JUMPDEST SWAP2 POP PUSH2 0xAD6 DUP3 PUSH2 0xF90 JUMP JUMPDEST PUSH1 0x40 DUP3 ADD SWAP1 POP SWAP2 SWAP1 POP JUMP JUMPDEST PUSH1 0x0 PUSH2 0xAEE PUSH1 0x21 DUP4 PUSH2 0xD69 JUMP JUMPDEST SWAP2 POP PUSH2 0xAF9 DUP3 PUSH2 0xFDF JUMP JUMPDEST PUSH1 0x40 DUP3 ADD SWAP1 POP SWAP2 SWAP1 POP JUMP JUMPDEST PUSH1 0x0 PUSH1 0x80 DUP4 ADD PUSH1 0x0 DUP4 ADD MLOAD PUSH2 0xB1C PUSH1 0x0 DUP7 ADD DUP3 PUSH2 0xB6E JUMP JUMPDEST POP PUSH1 0x20 DUP4 ADD MLOAD DUP5 DUP3 SUB PUSH1 0x20 DUP7 ADD MSTORE PUSH2 0xB34 DUP3 DUP3 PUSH2 0x9CD JUMP JUMPDEST SWAP2 POP POP PUSH1 0x40 DUP4 ADD MLOAD DUP5 DUP3 SUB PUSH1 0x40 DUP7 ADD MSTORE PUSH2 0xB4E DUP3 DUP3 PUSH2 0x9CD JUMP JUMPDEST SWAP2 POP POP PUSH1 0x60 DUP4 ADD MLOAD PUSH2 0xB63 PUSH1 0x60 DUP7 ADD DUP3 PUSH2 0xB6E JUMP JUMPDEST POP DUP1 SWAP2 POP POP SWAP3 SWAP2 POP POP JUMP JUMPDEST PUSH2 0xB77 DUP2 PUSH2 0xDB7 JUMP JUMPDEST DUP3 MSTORE POP POP JUMP JUMPDEST PUSH2 0xB86 DUP2 PUSH2 0xDB7 JUMP JUMPDEST DUP3 MSTORE POP POP JUMP JUMPDEST PUSH1 0x0 PUSH2 0xB98 DUP3 DUP5 PUSH2 0xA3F JUMP JUMPDEST SWAP2 POP DUP2 SWAP1 POP SWAP3 SWAP2 POP POP JUMP JUMPDEST PUSH1 0x0 PUSH1 0x20 DUP3 ADD SWAP1 POP DUP2 DUP2 SUB PUSH1 0x0 DUP4 ADD MSTORE PUSH2 0xBBD DUP2 DUP5 PUSH2 0x96F JUMP JUMPDEST SWAP1 POP SWAP3 SWAP2 POP POP JUMP JUMPDEST PUSH1 0x0 PUSH1 0x20 DUP3 ADD SWAP1 POP DUP2 DUP2 SUB PUSH1 0x0 DUP4 ADD MSTORE PUSH2 0xBDF DUP2 DUP5 PUSH2 0xA06 JUMP JUMPDEST SWAP1 POP SWAP3 SWAP2 POP POP JUMP JUMPDEST PUSH1 0x0 PUSH1 0x60 DUP3 ADD SWAP1 POP DUP2 DUP2 SUB PUSH1 0x0 DUP4 ADD MSTORE PUSH2 0xC01 DUP2 DUP7 PUSH2 0xA06 JUMP JUMPDEST SWAP1 POP DUP2 DUP2 SUB PUSH1 0x20 DUP4 ADD MSTORE PUSH2 0xC15 DUP2 DUP6 PUSH2 0xA06 JUMP JUMPDEST SWAP1 POP PUSH2 0xC24 PUSH1 0x40 DUP4 ADD DUP5 PUSH2 0xB7D JUMP JUMPDEST SWAP5 SWAP4 POP POP POP POP JUMP JUMPDEST PUSH1 0x0 PUSH1 0x20 DUP3 ADD SWAP1 POP DUP2 DUP2 SUB PUSH1 0x0 DUP4 ADD MSTORE PUSH2 0xC45 DUP2 PUSH2 0xABE JUMP JUMPDEST SWAP1 POP SWAP2 SWAP1 POP JUMP JUMPDEST PUSH1 0x0 PUSH1 0x20 DUP3 ADD SWAP1 POP DUP2 DUP2 SUB PUSH1 0x0 DUP4 ADD MSTORE PUSH2 0xC65 DUP2 PUSH2 0xAE1 JUMP JUMPDEST SWAP1 POP SWAP2 SWAP1 POP JUMP JUMPDEST PUSH1 0x0 PUSH1 0x20 DUP3 ADD SWAP1 POP DUP2 DUP2 SUB PUSH1 0x0 DUP4 ADD MSTORE PUSH2 0xC86 DUP2 DUP5 PUSH2 0xB04 JUMP JUMPDEST SWAP1 POP SWAP3 SWAP2 POP POP JUMP JUMPDEST PUSH1 0x0 PUSH1 0x20 DUP3 ADD SWAP1 POP PUSH2 0xCA3 PUSH1 0x0 DUP4 ADD DUP5 PUSH2 0xB7D JUMP JUMPDEST SWAP3 SWAP2 POP POP JUMP JUMPDEST PUSH1 0x0 PUSH2 0xCB3 PUSH2 0xCC4 JUMP JUMPDEST SWAP1 POP PUSH2 0xCBF DUP3 DUP3 PUSH2 0xE35 JUMP JUMPDEST SWAP2 SWAP1 POP JUMP JUMPDEST PUSH1 0x0 PUSH1 0x40 MLOAD SWAP1 POP SWAP1 JUMP JUMPDEST PUSH1 0x0 PUSH8 0xFFFFFFFFFFFFFFFF DUP3 GT ISZERO PUSH2 0xCE9 JUMPI PUSH2 0xCE8 PUSH2 0xF3C JUMP JUMPDEST JUMPDEST PUSH2 0xCF2 DUP3 PUSH2 0xF7F JUMP JUMPDEST SWAP1 POP PUSH1 0x20 DUP2 ADD SWAP1 POP SWAP2 SWAP1 POP JUMP JUMPDEST PUSH1 0x0 DUP2 SWAP1 POP PUSH1 0x20 DUP3 ADD SWAP1 POP SWAP2 SWAP1 POP JUMP JUMPDEST PUSH1 0x0 DUP2 SWAP1 POP DUP2 PUSH1 0x0 MSTORE PUSH1 0x20 PUSH1 0x0 KECCAK256 SWAP1 POP SWAP2 SWAP1 POP JUMP JUMPDEST PUSH1 0x0 DUP2 MLOAD SWAP1 POP SWAP2 SWAP1 POP JUMP JUMPDEST PUSH1 0x0 DUP2 MLOAD SWAP1 POP SWAP2 SWAP1 POP JUMP JUMPDEST PUSH1 0x0 PUSH1 0x20 DUP3 ADD SWAP1 POP SWAP2 SWAP1 POP JUMP JUMPDEST PUSH1 0x0 DUP3 DUP3 MSTORE PUSH1 0x20 DUP3 ADD SWAP1 POP SWAP3 SWAP2 POP POP JUMP JUMPDEST PUSH1 0x0 DUP3 DUP3 MSTORE PUSH1 0x20 DUP3 ADD SWAP1 POP SWAP3 SWAP2 POP POP JUMP JUMPDEST PUSH1 0x0 DUP3 DUP3 MSTORE PUSH1 0x20 DUP3 ADD SWAP1 POP SWAP3 SWAP2 POP POP JUMP JUMPDEST PUSH1 0x0 DUP2 SWAP1 POP SWAP3 SWAP2 POP POP JUMP JUMPDEST PUSH1 0x0 PUSH2 0xD90 DUP3 PUSH2 0xD97 JUMP JUMPDEST SWAP1 POP SWAP2 SWAP1 POP JUMP JUMPDEST PUSH1 0x0 PUSH20 0xFFFFFFFFFFFFFFFFFFFFFFFFFFFFFFFFFFFFFFFF DUP3 AND SWAP1 POP SWAP2 SWAP1 POP JUMP JUMPDEST PUSH1 0x0 DUP2 SWAP1 POP SWAP2 SWAP1 POP JUMP JUMPDEST DUP3 DUP2 DUP4 CALLDATACOPY PUSH1 0x0 DUP4 DUP4 ADD MSTORE POP POP POP JUMP JUMPDEST PUSH1 0x0 JUMPDEST DUP4 DUP2 LT ISZERO PUSH2 0xDEE JUMPI DUP1 DUP3 ADD MLOAD DUP2 DUP5 ADD MSTORE PUSH1 0x20 DUP2 ADD SWAP1 POP PUSH2 0xDD3 JUMP JUMPDEST DUP4 DUP2 GT ISZERO PUSH2 0xDFD JUMPI PUSH1 0x0 DUP5 DUP5 ADD MSTORE JUMPDEST POP POP POP POP JUMP JUMPDEST PUSH1 0x0 PUSH1 0x2 DUP3 DIV SWAP1 POP PUSH1 0x1 DUP3 AND DUP1 PUSH2 0xE1B JUMPI PUSH1 0x7F DUP3 AND SWAP2 POP JUMPDEST PUSH1 0x20 DUP3 LT DUP2 EQ ISZERO PUSH2 0xE2F JUMPI PUSH2 0xE2E PUSH2 0xEDE JUMP JUMPDEST JUMPDEST POP SWAP2 SWAP1 POP JUMP JUMPDEST PUSH2 0xE3E DUP3 PUSH2 0xF7F JUMP JUMPDEST DUP2 ADD DUP2 DUP2 LT PUSH8 0xFFFFFFFFFFFFFFFF DUP3 GT OR ISZERO PUSH2 0xE5D JUMPI PUSH2 0xE5C PUSH2 0xF3C JUMP JUMPDEST JUMPDEST DUP1 PUSH1 0x40 MSTORE POP POP POP JUMP JUMPDEST PUSH1 0x0 PUSH2 0xE71 DUP3 PUSH2 0xDB7 JUMP JUMPDEST SWAP2 POP PUSH32 0xFFFFFFFFFFFFFFFFFFFFFFFFFFFFFFFFFFFFFFFFFFFFFFFFFFFFFFFFFFFFFFFF DUP3 EQ ISZERO PUSH2 0xEA4 JUMPI PUSH2 0xEA3 PUSH2 0xEAF JUMP JUMPDEST JUMPDEST PUSH1 0x1 DUP3 ADD SWAP1 POP SWAP2 SWAP1 POP JUMP JUMPDEST PUSH32 0x4E487B7100000000000000000000000000000000000000000000000000000000 PUSH1 0x0 MSTORE PUSH1 0x11 PUSH1 0x4 MSTORE PUSH1 0x24 PUSH1 0x0 REVERT JUMPDEST PUSH32 0x4E487B7100000000000000000000000000000000000000000000000000000000 PUSH1 0x0 MSTORE PUSH1 0x22 PUSH1 0x4 MSTORE PUSH1 0x24 PUSH1 0x0 REVERT JUMPDEST PUSH32 0x4E487B7100000000000000000000000000000000000000000000000000000000 PUSH1 0x0 MSTORE PUSH1 0x32 PUSH1 0x4 MSTORE PUSH1 0x24 PUSH1 0x0 REVERT JUMPDEST PUSH32 0x4E487B7100000000000000000000000000000000000000000000000000000000 PUSH1 0x0 MSTORE PUSH1 0x41 PUSH1 0x4 MSTORE PUSH1 0x24 PUSH1 0x0 REVERT JUMPDEST PUSH1 0x0 DUP1 REVERT JUMPDEST PUSH1 0x0 DUP1 REVERT JUMPDEST PUSH1 0x0 DUP1 REVERT JUMPDEST PUSH1 0x0 DUP1 REVERT JUMPDEST PUSH1 0x0 PUSH1 0x1F NOT PUSH1 0x1F DUP4 ADD AND SWAP1 POP SWAP2 SWAP1 POP JUMP JUMPDEST PUSH32 0x5061796D656E742073686F756C64206265207468652073756273637269707469 PUSH1 0x0 DUP3 ADD MSTORE PUSH32 0x6F6E20666565206F6E6C79000000000000000000000000000000000000000000 PUSH1 0x20 DUP3 ADD MSTORE POP JUMP JUMPDEST PUSH32 0x4F6E6C7920617574686F722063616E2063616C6C2074686973206D6574686F64 PUSH1 0x0 DUP3 ADD MSTORE PUSH32 0x2100000000000000000000000000000000000000000000000000000000000000 PUSH1 0x20 DUP3 ADD MSTORE POP JUMP JUMPDEST PUSH2 0x1037 DUP2 PUSH2 0xDB7 JUMP JUMPDEST DUP2 EQ PUSH2 0x1042 JUMPI PUSH1 0x0 DUP1 REVERT JUMPDEST POP JUMP INVALID LOG2 PUSH5 0x6970667358 0x22 SLT KECCAK256 SIGNEXTEND LOG3 ADDRESS 0xE6 SWAP1 0xA9 0xB1 MSTORE MULMOD 0x5E RETURNDATASIZE 0xD6 SWAP1 0x2B SWAP14 SUB DUP8 SHL 0xB0 0xE3 0xD1 OR PUSH29 0x8ABF0C172879E83E5E64736F6C63430008070033000000000000000000 "
				},
				"gasEstimates": {
					"creation": {
						"codeDepositCost": "843800",
						"executionCost": "infinite",
						"totalCost": "infinite"
					},
					"external": {
						"": "2590",
						"addSubscriber()": "infinite",
						"channelName()": "infinite",
						"getArticleInfo(uint256)": "infinite",
						"printSubscribersList()": "infinite",
						"publishArticle(string,string)": "infinite",
						"subscriptionFee()": "2430",
						"withdrawAmount()": "infinite"
					}
				},
				"methodIdentifiers": {
					"addSubscriber()": "be291999",
					"channelName()": "2443877c",
					"getArticleInfo(uint256)": "85aca317",
					"printSubscribersList()": "82d69b62",
					"publishArticle(string,string)": "95961f05",
					"subscriptionFee()": "0aa0a175",
					"withdrawAmount()": "534844a2"
				}
			},
			"storageLayout": {
				"storage": [
					{
						"astId": 5,
						"contract": "contracts/myContract.sol:testContract",
						"label": "subscribers",
						"offset": 0,
						"slot": "0",
						"type": "t_mapping(t_uint256,t_address)"
					},
					{
						"astId": 7,
						"contract": "contracts/myContract.sol:testContract",
						"label": "subscriberCount",
						"offset": 0,
						"slot": "1",
						"type": "t_uint256"
					},
					{
						"astId": 21,
						"contract": "contracts/myContract.sol:testContract",
						"label": "articleHistory",
						"offset": 0,
						"slot": "2",
						"type": "t_mapping(t_uint256,t_struct(articleInfo)16_storage)"
					},
					{
						"astId": 23,
						"contract": "contracts/myContract.sol:testContract",
						"label": "articleCount",
						"offset": 0,
						"slot": "3",
						"type": "t_uint256"
					},
					{
						"astId": 25,
						"contract": "contracts/myContract.sol:testContract",
						"label": "author",
						"offset": 0,
						"slot": "4",
						"type": "t_address_payable"
					},
					{
						"astId": 27,
						"contract": "contracts/myContract.sol:testContract",
						"label": "subscriptionFee",
						"offset": 0,
						"slot": "5",
						"type": "t_uint256"
					},
					{
						"astId": 29,
						"contract": "contracts/myContract.sol:testContract",
						"label": "channelName",
						"offset": 0,
						"slot": "6",
						"type": "t_string_storage"
					}
				],
				"types": {
					"t_address": {
						"encoding": "inplace",
						"label": "address",
						"numberOfBytes": "20"
					},
					"t_address_payable": {
						"encoding": "inplace",
						"label": "address payable",
						"numberOfBytes": "20"
					},
					"t_mapping(t_uint256,t_address)": {
						"encoding": "mapping",
						"key": "t_uint256",
						"label": "mapping(uint256 => address)",
						"numberOfBytes": "32",
						"value": "t_address"
					},
					"t_mapping(t_uint256,t_struct(articleInfo)16_storage)": {
						"encoding": "mapping",
						"key": "t_uint256",
						"label": "mapping(uint256 => struct testContract.articleInfo)",
						"numberOfBytes": "32",
						"value": "t_struct(articleInfo)16_storage"
					},
					"t_string_storage": {
						"encoding": "bytes",
						"label": "string",
						"numberOfBytes": "32"
					},
					"t_struct(articleInfo)16_storage": {
						"encoding": "inplace",
						"label": "struct testContract.articleInfo",
						"members": [
							{
								"astId": 9,
								"contract": "contracts/myContract.sol:testContract",
								"label": "articleNo",
								"offset": 0,
								"slot": "0",
								"type": "t_uint256"
							},
							{
								"astId": 11,
								"contract": "contracts/myContract.sol:testContract",
								"label": "atricleTitle",
								"offset": 0,
								"slot": "1",
								"type": "t_string_storage"
							},
							{
								"astId": 13,
								"contract": "contracts/myContract.sol:testContract",
								"label": "articleCID",
								"offset": 0,
								"slot": "2",
								"type": "t_string_storage"
							},
							{
								"astId": 15,
								"contract": "contracts/myContract.sol:testContract",
								"label": "articleTimeStamp",
								"offset": 0,
								"slot": "3",
								"type": "t_uint256"
							}
						],
						"numberOfBytes": "128"
					},
					"t_uint256": {
						"encoding": "inplace",
						"label": "uint256",
						"numberOfBytes": "32"
					}
				}
			},
			"userdoc": {
				"kind": "user",
				"methods": {},
				"version": 1
			}
		}
	}
}