{
	"contracts/myContract.sol": {
		"testContract": {
			"abi": [
				{
					"inputs": [
						{
							"internalType": "uint256",
							"name": "_fee",
							"type": "uint256"
						},
						{
							"internalType": "string",
							"name": "_channelName",
							"type": "string"
						}
					],
					"stateMutability": "nonpayable",
					"type": "constructor"
				},
				{
					"anonymous": false,
					"inputs": [
						{
							"indexed": true,
							"internalType": "string",
							"name": "channelName",
							"type": "string"
						},
						{
							"indexed": false,
							"internalType": "string",
							"name": "articleTitle",
							"type": "string"
						},
						{
							"indexed": false,
							"internalType": "string",
							"name": "articleCID",
							"type": "string"
						},
						{
							"indexed": false,
							"internalType": "uint256",
							"name": "articleTimeStamp",
							"type": "uint256"
						}
					],
					"name": "articlePublished",
					"type": "event"
				},
				{
					"stateMutability": "payable",
					"type": "fallback"
				},
				{
					"inputs": [],
					"name": "addSubscriber",
					"outputs": [],
					"stateMutability": "payable",
					"type": "function"
				},
				{
					"inputs": [],
					"name": "channelName",
					"outputs": [
						{
							"internalType": "string",
							"name": "",
							"type": "string"
						}
					],
					"stateMutability": "view",
					"type": "function"
				},
				{
					"inputs": [
						{
							"internalType": "uint256",
							"name": "_articleNo",
							"type": "uint256"
						}
					],
					"name": "getArticleInfo",
					"outputs": [
						{
							"components": [
								{
									"internalType": "uint256",
									"name": "articleNo",
									"type": "uint256"
								},
								{
									"internalType": "string",
									"name": "atricleTitle",
									"type": "string"
								},
								{
									"internalType": "string",
									"name": "articleCID",
									"type": "string"
								},
								{
									"internalType": "uint256",
									"name": "articleTimeStamp",
									"type": "uint256"
								}
							],
							"internalType": "struct testContract.articleInfo",
							"name": "",
							"type": "tuple"
						}
					],
					"stateMutability": "view",
					"type": "function"
				},
				{
					"inputs": [],
					"name": "printSubscriberCount",
					"outputs": [
						{
							"internalType": "uint256",
							"name": "",
							"type": "uint256"
						}
					],
					"stateMutability": "view",
					"type": "function"
				},
				{
					"inputs": [],
					"name": "printSubscribersList",
					"outputs": [
						{
							"internalType": "address[]",
							"name": "",
							"type": "address[]"
						}
					],
					"stateMutability": "view",
					"type": "function"
				},
				{
					"inputs": [
						{
							"internalType": "string",
							"name": "_articleTitle",
							"type": "string"
						},
						{
							"internalType": "string",
							"name": "_articleCID",
							"type": "string"
						}
					],
					"name": "publishArticle",
					"outputs": [],
					"stateMutability": "payable",
					"type": "function"
				},
				{
					"inputs": [],
					"name": "subscriptionFee",
					"outputs": [
						{
							"internalType": "uint256",
							"name": "",
							"type": "uint256"
						}
					],
					"stateMutability": "view",
					"type": "function"
				},
				{
					"inputs": [],
					"name": "withdrawAmount",
					"outputs": [],
					"stateMutability": "payable",
					"type": "function"
				},
				{
					"stateMutability": "payable",
					"type": "receive"
				}
			],
			"devdoc": {
				"kind": "dev",
				"methods": {},
				"version": 1
			},
			"evm": {
				"assembly": "    /* \"contracts/myContract.sol\":76:2646  contract testContract {\r... */\n  mstore(0x40, 0x80)\n    /* \"contracts/myContract.sol\":819:1049  constructor(uint _fee, string memory _channelName){\r... */\n  callvalue\n  dup1\n  iszero\n  tag_1\n  jumpi\n  0x00\n  dup1\n  revert\ntag_1:\n  pop\n  mload(0x40)\n  sub(codesize, bytecodeSize)\n  dup1\n  bytecodeSize\n  dup4\n  codecopy\n  dup2\n  dup2\n  add\n  0x40\n  mstore\n  dup2\n  add\n  swap1\n  tag_2\n  swap2\n  swap1\n  tag_3\n  jump\t// in\ntag_2:\n    /* \"contracts/myContract.sol\":897:907  msg.sender */\n  caller\n    /* \"contracts/myContract.sol\":880:886  author */\n  0x04\n  0x00\n    /* \"contracts/myContract.sol\":880:908  author = payable(msg.sender) */\n  0x0100\n  exp\n  dup2\n  sload\n  dup2\n  0xffffffffffffffffffffffffffffffffffffffff\n  mul\n  not\n  and\n  swap1\n  dup4\n  0xffffffffffffffffffffffffffffffffffffffff\n  and\n  mul\n  or\n  swap1\n  sstore\n  pop\n    /* \"contracts/myContract.sol\":944:947  1e9 */\n  0x3b9aca00\n    /* \"contracts/myContract.sol\":937:941  _fee */\n  dup3\n    /* \"contracts/myContract.sol\":937:947  _fee * 1e9 */\n  tag_6\n  swap2\n  swap1\n  tag_7\n  jump\t// in\ntag_6:\n    /* \"contracts/myContract.sol\":919:934  subscriptionFee */\n  0x05\n    /* \"contracts/myContract.sol\":919:947  subscriptionFee = _fee * 1e9 */\n  dup2\n  swap1\n  sstore\n  pop\n    /* \"contracts/myContract.sol\":972:984  _channelName */\n  dup1\n    /* \"contracts/myContract.sol\":958:969  channelName */\n  0x06\n    /* \"contracts/myContract.sol\":958:984  channelName = _channelName */\n  swap1\n  dup1\n  mload\n  swap1\n  0x20\n  add\n  swap1\n  tag_8\n  swap3\n  swap2\n  swap1\n  tag_9\n  jump\t// in\ntag_8:\n  pop\n    /* \"contracts/myContract.sol\":1013:1014  0 */\n  0x00\n    /* \"contracts/myContract.sol\":995:1010  subscriberCount */\n  0x01\n    /* \"contracts/myContract.sol\":995:1014  subscriberCount = 0 */\n  dup2\n  swap1\n  sstore\n  pop\n    /* \"contracts/myContract.sol\":1040:1041  0 */\n  0x00\n    /* \"contracts/myContract.sol\":1025:1037  articleCount */\n  0x03\n    /* \"contracts/myContract.sol\":1025:1041  articleCount = 0 */\n  dup2\n  swap1\n  sstore\n  pop\n    /* \"contracts/myContract.sol\":819:1049  constructor(uint _fee, string memory _channelName){\r... */\n  pop\n  pop\n    /* \"contracts/myContract.sol\":76:2646  contract testContract {\r... */\n  jump(tag_10)\ntag_9:\n  dup3\n  dup1\n  sload\n  tag_11\n  swap1\n  tag_12\n  jump\t// in\ntag_11:\n  swap1\n  0x00\n  mstore\n  keccak256(0x00, 0x20)\n  swap1\n  0x1f\n  add\n  0x20\n  swap1\n  div\n  dup2\n  add\n  swap3\n  dup3\n  tag_14\n  jumpi\n  0x00\n  dup6\n  sstore\n  jump(tag_13)\ntag_14:\n  dup3\n  0x1f\n  lt\n  tag_15\n  jumpi\n  dup1\n  mload\n  not(0xff)\n  and\n  dup4\n  dup1\n  add\n  or\n  dup6\n  sstore\n  jump(tag_13)\ntag_15:\n  dup3\n  dup1\n  add\n  0x01\n  add\n  dup6\n  sstore\n  dup3\n  iszero\n  tag_13\n  jumpi\n  swap2\n  dup3\n  add\ntag_16:\n  dup3\n  dup2\n  gt\n  iszero\n  tag_17\n  jumpi\n  dup3\n  mload\n  dup3\n  sstore\n  swap2\n  0x20\n  add\n  swap2\n  swap1\n  0x01\n  add\n  swap1\n  jump(tag_16)\ntag_17:\ntag_13:\n  pop\n  swap1\n  pop\n  tag_18\n  swap2\n  swap1\n  tag_19\n  jump\t// in\ntag_18:\n  pop\n  swap1\n  jump\t// out\ntag_19:\ntag_20:\n  dup1\n  dup3\n  gt\n  iszero\n  tag_21\n  jumpi\n  0x00\n  dup2\n  0x00\n  swap1\n  sstore\n  pop\n  0x01\n  add\n  jump(tag_20)\ntag_21:\n  pop\n  swap1\n  jump\t// out\n    /* \"#utility.yul\":7:428   */\ntag_23:\n    /* \"#utility.yul\":96:101   */\n  0x00\n    /* \"#utility.yul\":121:187   */\n  tag_25\n    /* \"#utility.yul\":137:186   */\n  tag_26\n    /* \"#utility.yul\":179:185   */\n  dup5\n    /* \"#utility.yul\":137:186   */\n  tag_27\n  jump\t// in\ntag_26:\n    /* \"#utility.yul\":121:187   */\n  tag_28\n  jump\t// in\ntag_25:\n    /* \"#utility.yul\":112:187   */\n  swap1\n  pop\n    /* \"#utility.yul\":210:216   */\n  dup3\n    /* \"#utility.yul\":203:208   */\n  dup2\n    /* \"#utility.yul\":196:217   */\n  mstore\n    /* \"#utility.yul\":248:252   */\n  0x20\n    /* \"#utility.yul\":241:246   */\n  dup2\n    /* \"#utility.yul\":237:253   */\n  add\n    /* \"#utility.yul\":286:289   */\n  dup5\n    /* \"#utility.yul\":277:283   */\n  dup5\n    /* \"#utility.yul\":272:275   */\n  dup5\n    /* \"#utility.yul\":268:284   */\n  add\n    /* \"#utility.yul\":265:290   */\n  gt\n    /* \"#utility.yul\":262:374   */\n  iszero\n  tag_29\n  jumpi\n    /* \"#utility.yul\":293:372   */\n  tag_30\n  tag_31\n  jump\t// in\ntag_30:\n    /* \"#utility.yul\":262:374   */\ntag_29:\n    /* \"#utility.yul\":383:422   */\n  tag_32\n    /* \"#utility.yul\":415:421   */\n  dup5\n    /* \"#utility.yul\":410:413   */\n  dup3\n    /* \"#utility.yul\":405:408   */\n  dup6\n    /* \"#utility.yul\":383:422   */\n  tag_33\n  jump\t// in\ntag_32:\n    /* \"#utility.yul\":102:428   */\n  pop\n    /* \"#utility.yul\":7:428   */\n  swap4\n  swap3\n  pop\n  pop\n  pop\n  jump\t// out\n    /* \"#utility.yul\":448:803   */\ntag_34:\n    /* \"#utility.yul\":515:520   */\n  0x00\n    /* \"#utility.yul\":564:567   */\n  dup3\n    /* \"#utility.yul\":557:561   */\n  0x1f\n    /* \"#utility.yul\":549:555   */\n  dup4\n    /* \"#utility.yul\":545:562   */\n  add\n    /* \"#utility.yul\":541:568   */\n  slt\n    /* \"#utility.yul\":531:653   */\n  tag_36\n  jumpi\n    /* \"#utility.yul\":572:651   */\n  tag_37\n  tag_38\n  jump\t// in\ntag_37:\n    /* \"#utility.yul\":531:653   */\ntag_36:\n    /* \"#utility.yul\":682:688   */\n  dup2\n    /* \"#utility.yul\":676:689   */\n  mload\n    /* \"#utility.yul\":707:797   */\n  tag_39\n    /* \"#utility.yul\":793:796   */\n  dup5\n    /* \"#utility.yul\":785:791   */\n  dup3\n    /* \"#utility.yul\":778:782   */\n  0x20\n    /* \"#utility.yul\":770:776   */\n  dup7\n    /* \"#utility.yul\":766:783   */\n  add\n    /* \"#utility.yul\":707:797   */\n  tag_23\n  jump\t// in\ntag_39:\n    /* \"#utility.yul\":698:797   */\n  swap2\n  pop\n    /* \"#utility.yul\":521:803   */\n  pop\n    /* \"#utility.yul\":448:803   */\n  swap3\n  swap2\n  pop\n  pop\n  jump\t// out\n    /* \"#utility.yul\":809:952   */\ntag_40:\n    /* \"#utility.yul\":866:871   */\n  0x00\n    /* \"#utility.yul\":897:903   */\n  dup2\n    /* \"#utility.yul\":891:904   */\n  mload\n    /* \"#utility.yul\":882:904   */\n  swap1\n  pop\n    /* \"#utility.yul\":913:946   */\n  tag_42\n    /* \"#utility.yul\":940:945   */\n  dup2\n    /* \"#utility.yul\":913:946   */\n  tag_43\n  jump\t// in\ntag_42:\n    /* \"#utility.yul\":809:952   */\n  swap3\n  swap2\n  pop\n  pop\n  jump\t// out\n    /* \"#utility.yul\":958:1638   */\ntag_3:\n    /* \"#utility.yul\":1047:1053   */\n  0x00\n    /* \"#utility.yul\":1055:1061   */\n  dup1\n    /* \"#utility.yul\":1104:1106   */\n  0x40\n    /* \"#utility.yul\":1092:1101   */\n  dup4\n    /* \"#utility.yul\":1083:1090   */\n  dup6\n    /* \"#utility.yul\":1079:1102   */\n  sub\n    /* \"#utility.yul\":1075:1107   */\n  slt\n    /* \"#utility.yul\":1072:1191   */\n  iszero\n  tag_45\n  jumpi\n    /* \"#utility.yul\":1110:1189   */\n  tag_46\n  tag_47\n  jump\t// in\ntag_46:\n    /* \"#utility.yul\":1072:1191   */\ntag_45:\n    /* \"#utility.yul\":1230:1231   */\n  0x00\n    /* \"#utility.yul\":1255:1319   */\n  tag_48\n    /* \"#utility.yul\":1311:1318   */\n  dup6\n    /* \"#utility.yul\":1302:1308   */\n  dup3\n    /* \"#utility.yul\":1291:1300   */\n  dup7\n    /* \"#utility.yul\":1287:1309   */\n  add\n    /* \"#utility.yul\":1255:1319   */\n  tag_40\n  jump\t// in\ntag_48:\n    /* \"#utility.yul\":1245:1319   */\n  swap3\n  pop\n    /* \"#utility.yul\":1201:1329   */\n  pop\n    /* \"#utility.yul\":1389:1391   */\n  0x20\n    /* \"#utility.yul\":1378:1387   */\n  dup4\n    /* \"#utility.yul\":1374:1392   */\n  add\n    /* \"#utility.yul\":1368:1393   */\n  mload\n    /* \"#utility.yul\":1420:1438   */\n  0xffffffffffffffff\n    /* \"#utility.yul\":1412:1418   */\n  dup2\n    /* \"#utility.yul\":1409:1439   */\n  gt\n    /* \"#utility.yul\":1406:1523   */\n  iszero\n  tag_49\n  jumpi\n    /* \"#utility.yul\":1442:1521   */\n  tag_50\n  tag_51\n  jump\t// in\ntag_50:\n    /* \"#utility.yul\":1406:1523   */\ntag_49:\n    /* \"#utility.yul\":1547:1621   */\n  tag_52\n    /* \"#utility.yul\":1613:1620   */\n  dup6\n    /* \"#utility.yul\":1604:1610   */\n  dup3\n    /* \"#utility.yul\":1593:1602   */\n  dup7\n    /* \"#utility.yul\":1589:1611   */\n  add\n    /* \"#utility.yul\":1547:1621   */\n  tag_34\n  jump\t// in\ntag_52:\n    /* \"#utility.yul\":1537:1621   */\n  swap2\n  pop\n    /* \"#utility.yul\":1339:1631   */\n  pop\n    /* \"#utility.yul\":958:1638   */\n  swap3\n  pop\n  swap3\n  swap1\n  pop\n  jump\t// out\n    /* \"#utility.yul\":1644:1773   */\ntag_28:\n    /* \"#utility.yul\":1678:1684   */\n  0x00\n    /* \"#utility.yul\":1705:1725   */\n  tag_54\n  tag_55\n  jump\t// in\ntag_54:\n    /* \"#utility.yul\":1695:1725   */\n  swap1\n  pop\n    /* \"#utility.yul\":1734:1767   */\n  tag_56\n    /* \"#utility.yul\":1762:1766   */\n  dup3\n    /* \"#utility.yul\":1754:1760   */\n  dup3\n    /* \"#utility.yul\":1734:1767   */\n  tag_57\n  jump\t// in\ntag_56:\n    /* \"#utility.yul\":1644:1773   */\n  swap2\n  swap1\n  pop\n  jump\t// out\n    /* \"#utility.yul\":1779:1854   */\ntag_55:\n    /* \"#utility.yul\":1812:1818   */\n  0x00\n    /* \"#utility.yul\":1845:1847   */\n  0x40\n    /* \"#utility.yul\":1839:1848   */\n  mload\n    /* \"#utility.yul\":1829:1848   */\n  swap1\n  pop\n    /* \"#utility.yul\":1779:1854   */\n  swap1\n  jump\t// out\n    /* \"#utility.yul\":1860:2168   */\ntag_27:\n    /* \"#utility.yul\":1922:1926   */\n  0x00\n    /* \"#utility.yul\":2012:2030   */\n  0xffffffffffffffff\n    /* \"#utility.yul\":2004:2010   */\n  dup3\n    /* \"#utility.yul\":2001:2031   */\n  gt\n    /* \"#utility.yul\":1998:2054   */\n  iszero\n  tag_60\n  jumpi\n    /* \"#utility.yul\":2034:2052   */\n  tag_61\n  tag_62\n  jump\t// in\ntag_61:\n    /* \"#utility.yul\":1998:2054   */\ntag_60:\n    /* \"#utility.yul\":2072:2101   */\n  tag_63\n    /* \"#utility.yul\":2094:2100   */\n  dup3\n    /* \"#utility.yul\":2072:2101   */\n  tag_64\n  jump\t// in\ntag_63:\n    /* \"#utility.yul\":2064:2101   */\n  swap1\n  pop\n    /* \"#utility.yul\":2156:2160   */\n  0x20\n    /* \"#utility.yul\":2150:2154   */\n  dup2\n    /* \"#utility.yul\":2146:2161   */\n  add\n    /* \"#utility.yul\":2138:2161   */\n  swap1\n  pop\n    /* \"#utility.yul\":1860:2168   */\n  swap2\n  swap1\n  pop\n  jump\t// out\n    /* \"#utility.yul\":2174:2522   */\ntag_7:\n    /* \"#utility.yul\":2214:2221   */\n  0x00\n    /* \"#utility.yul\":2237:2257   */\n  tag_66\n    /* \"#utility.yul\":2255:2256   */\n  dup3\n    /* \"#utility.yul\":2237:2257   */\n  tag_67\n  jump\t// in\ntag_66:\n    /* \"#utility.yul\":2232:2257   */\n  swap2\n  pop\n    /* \"#utility.yul\":2271:2291   */\n  tag_68\n    /* \"#utility.yul\":2289:2290   */\n  dup4\n    /* \"#utility.yul\":2271:2291   */\n  tag_67\n  jump\t// in\ntag_68:\n    /* \"#utility.yul\":2266:2291   */\n  swap3\n  pop\n    /* \"#utility.yul\":2459:2460   */\n  dup2\n    /* \"#utility.yul\":2391:2457   */\n  0xffffffffffffffffffffffffffffffffffffffffffffffffffffffffffffffff\n    /* \"#utility.yul\":2387:2461   */\n  div\n    /* \"#utility.yul\":2384:2385   */\n  dup4\n    /* \"#utility.yul\":2381:2462   */\n  gt\n    /* \"#utility.yul\":2376:2377   */\n  dup3\n    /* \"#utility.yul\":2369:2378   */\n  iszero\n    /* \"#utility.yul\":2362:2379   */\n  iszero\n    /* \"#utility.yul\":2358:2463   */\n  and\n    /* \"#utility.yul\":2355:2486   */\n  iszero\n  tag_69\n  jumpi\n    /* \"#utility.yul\":2466:2484   */\n  tag_70\n  tag_71\n  jump\t// in\ntag_70:\n    /* \"#utility.yul\":2355:2486   */\ntag_69:\n    /* \"#utility.yul\":2514:2515   */\n  dup3\n    /* \"#utility.yul\":2511:2512   */\n  dup3\n    /* \"#utility.yul\":2507:2516   */\n  mul\n    /* \"#utility.yul\":2496:2516   */\n  swap1\n  pop\n    /* \"#utility.yul\":2174:2522   */\n  swap3\n  swap2\n  pop\n  pop\n  jump\t// out\n    /* \"#utility.yul\":2528:2605   */\ntag_67:\n    /* \"#utility.yul\":2565:2572   */\n  0x00\n    /* \"#utility.yul\":2594:2599   */\n  dup2\n    /* \"#utility.yul\":2583:2599   */\n  swap1\n  pop\n    /* \"#utility.yul\":2528:2605   */\n  swap2\n  swap1\n  pop\n  jump\t// out\n    /* \"#utility.yul\":2611:2918   */\ntag_33:\n    /* \"#utility.yul\":2679:2680   */\n  0x00\n    /* \"#utility.yul\":2689:2802   */\ntag_74:\n    /* \"#utility.yul\":2703:2709   */\n  dup4\n    /* \"#utility.yul\":2700:2701   */\n  dup2\n    /* \"#utility.yul\":2697:2710   */\n  lt\n    /* \"#utility.yul\":2689:2802   */\n  iszero\n  tag_76\n  jumpi\n    /* \"#utility.yul\":2788:2789   */\n  dup1\n    /* \"#utility.yul\":2783:2786   */\n  dup3\n    /* \"#utility.yul\":2779:2790   */\n  add\n    /* \"#utility.yul\":2773:2791   */\n  mload\n    /* \"#utility.yul\":2769:2770   */\n  dup2\n    /* \"#utility.yul\":2764:2767   */\n  dup5\n    /* \"#utility.yul\":2760:2771   */\n  add\n    /* \"#utility.yul\":2753:2792   */\n  mstore\n    /* \"#utility.yul\":2725:2727   */\n  0x20\n    /* \"#utility.yul\":2722:2723   */\n  dup2\n    /* \"#utility.yul\":2718:2728   */\n  add\n    /* \"#utility.yul\":2713:2728   */\n  swap1\n  pop\n    /* \"#utility.yul\":2689:2802   */\n  jump(tag_74)\ntag_76:\n    /* \"#utility.yul\":2820:2826   */\n  dup4\n    /* \"#utility.yul\":2817:2818   */\n  dup2\n    /* \"#utility.yul\":2814:2827   */\n  gt\n    /* \"#utility.yul\":2811:2912   */\n  iszero\n  tag_77\n  jumpi\n    /* \"#utility.yul\":2900:2901   */\n  0x00\n    /* \"#utility.yul\":2891:2897   */\n  dup5\n    /* \"#utility.yul\":2886:2889   */\n  dup5\n    /* \"#utility.yul\":2882:2898   */\n  add\n    /* \"#utility.yul\":2875:2902   */\n  mstore\n    /* \"#utility.yul\":2811:2912   */\ntag_77:\n    /* \"#utility.yul\":2660:2918   */\n  pop\n    /* \"#utility.yul\":2611:2918   */\n  pop\n  pop\n  pop\n  jump\t// out\n    /* \"#utility.yul\":2924:3244   */\ntag_12:\n    /* \"#utility.yul\":2968:2974   */\n  0x00\n    /* \"#utility.yul\":3005:3006   */\n  0x02\n    /* \"#utility.yul\":2999:3003   */\n  dup3\n    /* \"#utility.yul\":2995:3007   */\n  div\n    /* \"#utility.yul\":2985:3007   */\n  swap1\n  pop\n    /* \"#utility.yul\":3052:3053   */\n  0x01\n    /* \"#utility.yul\":3046:3050   */\n  dup3\n    /* \"#utility.yul\":3042:3054   */\n  and\n    /* \"#utility.yul\":3073:3091   */\n  dup1\n    /* \"#utility.yul\":3063:3144   */\n  tag_79\n  jumpi\n    /* \"#utility.yul\":3129:3133   */\n  0x7f\n    /* \"#utility.yul\":3121:3127   */\n  dup3\n    /* \"#utility.yul\":3117:3134   */\n  and\n    /* \"#utility.yul\":3107:3134   */\n  swap2\n  pop\n    /* \"#utility.yul\":3063:3144   */\ntag_79:\n    /* \"#utility.yul\":3191:3193   */\n  0x20\n    /* \"#utility.yul\":3183:3189   */\n  dup3\n    /* \"#utility.yul\":3180:3194   */\n  lt\n    /* \"#utility.yul\":3160:3178   */\n  dup2\n    /* \"#utility.yul\":3157:3195   */\n  eq\n    /* \"#utility.yul\":3154:3238   */\n  iszero\n  tag_80\n  jumpi\n    /* \"#utility.yul\":3210:3228   */\n  tag_81\n  tag_82\n  jump\t// in\ntag_81:\n    /* \"#utility.yul\":3154:3238   */\ntag_80:\n    /* \"#utility.yul\":2975:3244   */\n  pop\n    /* \"#utility.yul\":2924:3244   */\n  swap2\n  swap1\n  pop\n  jump\t// out\n    /* \"#utility.yul\":3250:3531   */\ntag_57:\n    /* \"#utility.yul\":3333:3360   */\n  tag_84\n    /* \"#utility.yul\":3355:3359   */\n  dup3\n    /* \"#utility.yul\":3333:3360   */\n  tag_64\n  jump\t// in\ntag_84:\n    /* \"#utility.yul\":3325:3331   */\n  dup2\n    /* \"#utility.yul\":3321:3361   */\n  add\n    /* \"#utility.yul\":3463:3469   */\n  dup2\n    /* \"#utility.yul\":3451:3461   */\n  dup2\n    /* \"#utility.yul\":3448:3470   */\n  lt\n    /* \"#utility.yul\":3427:3445   */\n  0xffffffffffffffff\n    /* \"#utility.yul\":3415:3425   */\n  dup3\n    /* \"#utility.yul\":3412:3446   */\n  gt\n    /* \"#utility.yul\":3409:3471   */\n  or\n    /* \"#utility.yul\":3406:3494   */\n  iszero\n  tag_85\n  jumpi\n    /* \"#utility.yul\":3474:3492   */\n  tag_86\n  tag_62\n  jump\t// in\ntag_86:\n    /* \"#utility.yul\":3406:3494   */\ntag_85:\n    /* \"#utility.yul\":3514:3524   */\n  dup1\n    /* \"#utility.yul\":3510:3512   */\n  0x40\n    /* \"#utility.yul\":3503:3525   */\n  mstore\n    /* \"#utility.yul\":3293:3531   */\n  pop\n    /* \"#utility.yul\":3250:3531   */\n  pop\n  pop\n  jump\t// out\n    /* \"#utility.yul\":3537:3717   */\ntag_71:\n    /* \"#utility.yul\":3585:3662   */\n  0x4e487b7100000000000000000000000000000000000000000000000000000000\n    /* \"#utility.yul\":3582:3583   */\n  0x00\n    /* \"#utility.yul\":3575:3663   */\n  mstore\n    /* \"#utility.yul\":3682:3686   */\n  0x11\n    /* \"#utility.yul\":3679:3680   */\n  0x04\n    /* \"#utility.yul\":3672:3687   */\n  mstore\n    /* \"#utility.yul\":3706:3710   */\n  0x24\n    /* \"#utility.yul\":3703:3704   */\n  0x00\n    /* \"#utility.yul\":3696:3711   */\n  revert\n    /* \"#utility.yul\":3723:3903   */\ntag_82:\n    /* \"#utility.yul\":3771:3848   */\n  0x4e487b7100000000000000000000000000000000000000000000000000000000\n    /* \"#utility.yul\":3768:3769   */\n  0x00\n    /* \"#utility.yul\":3761:3849   */\n  mstore\n    /* \"#utility.yul\":3868:3872   */\n  0x22\n    /* \"#utility.yul\":3865:3866   */\n  0x04\n    /* \"#utility.yul\":3858:3873   */\n  mstore\n    /* \"#utility.yul\":3892:3896   */\n  0x24\n    /* \"#utility.yul\":3889:3890   */\n  0x00\n    /* \"#utility.yul\":3882:3897   */\n  revert\n    /* \"#utility.yul\":3909:4089   */\ntag_62:\n    /* \"#utility.yul\":3957:4034   */\n  0x4e487b7100000000000000000000000000000000000000000000000000000000\n    /* \"#utility.yul\":3954:3955   */\n  0x00\n    /* \"#utility.yul\":3947:4035   */\n  mstore\n    /* \"#utility.yul\":4054:4058   */\n  0x41\n    /* \"#utility.yul\":4051:4052   */\n  0x04\n    /* \"#utility.yul\":4044:4059   */\n  mstore\n    /* \"#utility.yul\":4078:4082   */\n  0x24\n    /* \"#utility.yul\":4075:4076   */\n  0x00\n    /* \"#utility.yul\":4068:4083   */\n  revert\n    /* \"#utility.yul\":4095:4212   */\ntag_38:\n    /* \"#utility.yul\":4204:4205   */\n  0x00\n    /* \"#utility.yul\":4201:4202   */\n  dup1\n    /* \"#utility.yul\":4194:4206   */\n  revert\n    /* \"#utility.yul\":4218:4335   */\ntag_31:\n    /* \"#utility.yul\":4327:4328   */\n  0x00\n    /* \"#utility.yul\":4324:4325   */\n  dup1\n    /* \"#utility.yul\":4317:4329   */\n  revert\n    /* \"#utility.yul\":4341:4458   */\ntag_51:\n    /* \"#utility.yul\":4450:4451   */\n  0x00\n    /* \"#utility.yul\":4447:4448   */\n  dup1\n    /* \"#utility.yul\":4440:4452   */\n  revert\n    /* \"#utility.yul\":4464:4581   */\ntag_47:\n    /* \"#utility.yul\":4573:4574   */\n  0x00\n    /* \"#utility.yul\":4570:4571   */\n  dup1\n    /* \"#utility.yul\":4563:4575   */\n  revert\n    /* \"#utility.yul\":4587:4689   */\ntag_64:\n    /* \"#utility.yul\":4628:4634   */\n  0x00\n    /* \"#utility.yul\":4679:4681   */\n  0x1f\n    /* \"#utility.yul\":4675:4682   */\n  not\n    /* \"#utility.yul\":4670:4672   */\n  0x1f\n    /* \"#utility.yul\":4663:4668   */\n  dup4\n    /* \"#utility.yul\":4659:4673   */\n  add\n    /* \"#utility.yul\":4655:4683   */\n  and\n    /* \"#utility.yul\":4645:4683   */\n  swap1\n  pop\n    /* \"#utility.yul\":4587:4689   */\n  swap2\n  swap1\n  pop\n  jump\t// out\n    /* \"#utility.yul\":4695:4817   */\ntag_43:\n    /* \"#utility.yul\":4768:4792   */\n  tag_96\n    /* \"#utility.yul\":4786:4791   */\n  dup2\n    /* \"#utility.yul\":4768:4792   */\n  tag_67\n  jump\t// in\ntag_96:\n    /* \"#utility.yul\":4761:4766   */\n  dup2\n    /* \"#utility.yul\":4758:4793   */\n  eq\n    /* \"#utility.yul\":4748:4811   */\n  tag_97\n  jumpi\n    /* \"#utility.yul\":4807:4808   */\n  0x00\n    /* \"#utility.yul\":4804:4805   */\n  dup1\n    /* \"#utility.yul\":4797:4809   */\n  revert\n    /* \"#utility.yul\":4748:4811   */\ntag_97:\n    /* \"#utility.yul\":4695:4817   */\n  pop\n  jump\t// out\n    /* \"contracts/myContract.sol\":76:2646  contract testContract {\r... */\ntag_10:\n  dataSize(sub_0)\n  dup1\n  dataOffset(sub_0)\n  0x00\n  codecopy\n  0x00\n  return\nstop\n\nsub_0: assembly {\n        /* \"contracts/myContract.sol\":76:2646  contract testContract {\r... */\n      mstore(0x40, 0x80)\n      jumpi(tag_1, lt(calldatasize, 0x04))\n      shr(0xe0, calldataload(0x00))\n      dup1\n      0x82d69b62\n      gt\n      tag_11\n      jumpi\n      dup1\n      0x82d69b62\n      eq\n      tag_7\n      jumpi\n      dup1\n      0x85aca317\n      eq\n      tag_8\n      jumpi\n      dup1\n      0x95961f05\n      eq\n      tag_9\n      jumpi\n      dup1\n      0xbe291999\n      eq\n      tag_10\n      jumpi\n      jump(tag_2)\n    tag_11:\n      dup1\n      0x0aa0a175\n      eq\n      tag_3\n      jumpi\n      dup1\n      0x2443877c\n      eq\n      tag_4\n      jumpi\n      dup1\n      0x534844a2\n      eq\n      tag_5\n      jumpi\n      dup1\n      0x625b1ebe\n      eq\n      tag_6\n      jumpi\n      jump(tag_2)\n    tag_1:\n      jumpi(tag_2, calldatasize)\n        /* \"contracts/myContract.sol\":2565:2580  subscriptionFee */\n      sload(0x05)\n        /* \"contracts/myContract.sol\":2551:2560  msg.value */\n      callvalue\n        /* \"contracts/myContract.sol\":2551:2580  msg.value ==  subscriptionFee */\n      eq\n        /* \"contracts/myContract.sol\":2542:2633  require( msg.value ==  subscriptionFee , \"Payment should be the subscription fee only\"    ) */\n      tag_14\n      jumpi\n      mload(0x40)\n      0x08c379a000000000000000000000000000000000000000000000000000000000\n      dup2\n      mstore\n      0x04\n      add\n      tag_15\n      swap1\n      tag_16\n      jump\t// in\n    tag_15:\n      mload(0x40)\n      dup1\n      swap2\n      sub\n      swap1\n      revert\n    tag_14:\n        /* \"contracts/myContract.sol\":76:2646  contract testContract {\r... */\n      stop\n    tag_2:\n        /* \"contracts/myContract.sol\":2421:2436  subscriptionFee */\n      sload(0x05)\n        /* \"contracts/myContract.sol\":2407:2416  msg.value */\n      callvalue\n        /* \"contracts/myContract.sol\":2407:2436  msg.value ==  subscriptionFee */\n      eq\n        /* \"contracts/myContract.sol\":2398:2489  require( msg.value ==  subscriptionFee , \"Payment should be the subscription fee only\"    ) */\n      tag_19\n      jumpi\n      mload(0x40)\n      0x08c379a000000000000000000000000000000000000000000000000000000000\n      dup2\n      mstore\n      0x04\n      add\n      tag_20\n      swap1\n      tag_16\n      jump\t// in\n    tag_20:\n      mload(0x40)\n      dup1\n      swap2\n      sub\n      swap1\n      revert\n    tag_19:\n        /* \"contracts/myContract.sol\":76:2646  contract testContract {\r... */\n      stop\n        /* \"contracts/myContract.sol\":497:527  uint256 public subscriptionFee */\n    tag_3:\n      callvalue\n      dup1\n      iszero\n      tag_21\n      jumpi\n      0x00\n      dup1\n      revert\n    tag_21:\n      pop\n      tag_22\n      tag_23\n      jump\t// in\n    tag_22:\n      mload(0x40)\n      tag_24\n      swap2\n      swap1\n      tag_25\n      jump\t// in\n    tag_24:\n      mload(0x40)\n      dup1\n      swap2\n      sub\n      swap1\n      return\n        /* \"contracts/myContract.sol\":534:559  string public channelName */\n    tag_4:\n      callvalue\n      dup1\n      iszero\n      tag_26\n      jumpi\n      0x00\n      dup1\n      revert\n    tag_26:\n      pop\n      tag_27\n      tag_28\n      jump\t// in\n    tag_27:\n      mload(0x40)\n      tag_29\n      swap2\n      swap1\n      tag_30\n      jump\t// in\n    tag_29:\n      mload(0x40)\n      dup1\n      swap2\n      sub\n      swap1\n      return\n        /* \"contracts/myContract.sol\":1245:1352  function withdrawAmount() payable public onlyOwner{\r... */\n    tag_5:\n      tag_31\n      tag_32\n      jump\t// in\n    tag_31:\n      stop\n        /* \"contracts/myContract.sol\":1615:1716  function printSubscriberCount() public view returns(uint256){\r... */\n    tag_6:\n      callvalue\n      dup1\n      iszero\n      tag_33\n      jumpi\n      0x00\n      dup1\n      revert\n    tag_33:\n      pop\n      tag_34\n      tag_35\n      jump\t// in\n    tag_34:\n      mload(0x40)\n      tag_36\n      swap2\n      swap1\n      tag_25\n      jump\t// in\n    tag_36:\n      mload(0x40)\n      dup1\n      swap2\n      sub\n      swap1\n      return\n        /* \"contracts/myContract.sol\":1728:2001  function printSubscribersList() public onlyOwner view returns(address[] memory){\r... */\n    tag_7:\n      callvalue\n      dup1\n      iszero\n      tag_37\n      jumpi\n      0x00\n      dup1\n      revert\n    tag_37:\n      pop\n      tag_38\n      tag_39\n      jump\t// in\n    tag_38:\n      mload(0x40)\n      tag_40\n      swap2\n      swap1\n      tag_41\n      jump\t// in\n    tag_40:\n      mload(0x40)\n      dup1\n      swap2\n      sub\n      swap1\n      return\n        /* \"contracts/myContract.sol\":1360:1607  function getArticleInfo(uint256 _articleNo) public view returns (articleInfo memory){\r... */\n    tag_8:\n      callvalue\n      dup1\n      iszero\n      tag_42\n      jumpi\n      0x00\n      dup1\n      revert\n    tag_42:\n      pop\n      tag_43\n      0x04\n      dup1\n      calldatasize\n      sub\n      dup2\n      add\n      swap1\n      tag_44\n      swap2\n      swap1\n      tag_45\n      jump\t// in\n    tag_44:\n      tag_46\n      jump\t// in\n    tag_43:\n      mload(0x40)\n      tag_47\n      swap2\n      swap1\n      tag_48\n      jump\t// in\n    tag_47:\n      mload(0x40)\n      dup1\n      swap2\n      sub\n      swap1\n      return\n        /* \"contracts/myContract.sol\":2009:2352  function publishArticle(string memory _articleTitle, string memory _articleCID) payable public onlyOwner {\r... */\n    tag_9:\n      tag_49\n      0x04\n      dup1\n      calldatasize\n      sub\n      dup2\n      add\n      swap1\n      tag_50\n      swap2\n      swap1\n      tag_51\n      jump\t// in\n    tag_50:\n      tag_52\n      jump\t// in\n    tag_49:\n      stop\n        /* \"contracts/myContract.sol\":1057:1237  function addSubscriber() public payable{\r... */\n    tag_10:\n      tag_53\n      tag_54\n      jump\t// in\n    tag_53:\n      stop\n        /* \"contracts/myContract.sol\":497:527  uint256 public subscriptionFee */\n    tag_23:\n      sload(0x05)\n      dup2\n      jump\t// out\n        /* \"contracts/myContract.sol\":534:559  string public channelName */\n    tag_28:\n      0x06\n      dup1\n      sload\n      tag_55\n      swap1\n      tag_56\n      jump\t// in\n    tag_55:\n      dup1\n      0x1f\n      add\n      0x20\n      dup1\n      swap2\n      div\n      mul\n      0x20\n      add\n      mload(0x40)\n      swap1\n      dup2\n      add\n      0x40\n      mstore\n      dup1\n      swap3\n      swap2\n      swap1\n      dup2\n      dup2\n      mstore\n      0x20\n      add\n      dup3\n      dup1\n      sload\n      tag_57\n      swap1\n      tag_56\n      jump\t// in\n    tag_57:\n      dup1\n      iszero\n      tag_58\n      jumpi\n      dup1\n      0x1f\n      lt\n      tag_59\n      jumpi\n      0x0100\n      dup1\n      dup4\n      sload\n      div\n      mul\n      dup4\n      mstore\n      swap2\n      0x20\n      add\n      swap2\n      jump(tag_58)\n    tag_59:\n      dup3\n      add\n      swap2\n      swap1\n      0x00\n      mstore\n      keccak256(0x00, 0x20)\n      swap1\n    tag_60:\n      dup2\n      sload\n      dup2\n      mstore\n      swap1\n      0x01\n      add\n      swap1\n      0x20\n      add\n      dup1\n      dup4\n      gt\n      tag_60\n      jumpi\n      dup3\n      swap1\n      sub\n      0x1f\n      and\n      dup3\n      add\n      swap2\n    tag_58:\n      pop\n      pop\n      pop\n      pop\n      pop\n      dup2\n      jump\t// out\n        /* \"contracts/myContract.sol\":1245:1352  function withdrawAmount() payable public onlyOwner{\r... */\n    tag_32:\n        /* \"contracts/myContract.sol\":622:628  author */\n      0x04\n      0x00\n      swap1\n      sload\n      swap1\n      0x0100\n      exp\n      swap1\n      div\n      0xffffffffffffffffffffffffffffffffffffffff\n      and\n        /* \"contracts/myContract.sol\":608:628  msg.sender == author */\n      0xffffffffffffffffffffffffffffffffffffffff\n      and\n        /* \"contracts/myContract.sol\":608:618  msg.sender */\n      caller\n        /* \"contracts/myContract.sol\":608:628  msg.sender == author */\n      0xffffffffffffffffffffffffffffffffffffffff\n      and\n      eq\n        /* \"contracts/myContract.sol\":600:666  require(msg.sender == author, \"Only author can call this method!\") */\n      tag_62\n      jumpi\n      mload(0x40)\n      0x08c379a000000000000000000000000000000000000000000000000000000000\n      dup2\n      mstore\n      0x04\n      add\n      tag_63\n      swap1\n      tag_64\n      jump\t// in\n    tag_63:\n      mload(0x40)\n      dup1\n      swap2\n      sub\n      swap1\n      revert\n    tag_62:\n        /* \"contracts/myContract.sol\":1306:1312  author */\n      0x04\n      0x00\n      swap1\n      sload\n      swap1\n      0x0100\n      exp\n      swap1\n      div\n      0xffffffffffffffffffffffffffffffffffffffff\n      and\n        /* \"contracts/myContract.sol\":1306:1321  author.transfer */\n      0xffffffffffffffffffffffffffffffffffffffff\n      and\n        /* \"contracts/myContract.sol\":1306:1344  author.transfer(address(this).balance) */\n      0x08fc\n        /* \"contracts/myContract.sol\":1322:1343  address(this).balance */\n      selfbalance\n        /* \"contracts/myContract.sol\":1306:1344  author.transfer(address(this).balance) */\n      swap1\n      dup2\n      iszero\n      mul\n      swap1\n      mload(0x40)\n      0x00\n      mload(0x40)\n      dup1\n      dup4\n      sub\n      dup2\n      dup6\n      dup9\n      dup9\n      call\n      swap4\n      pop\n      pop\n      pop\n      pop\n      iszero\n      dup1\n      iszero\n      tag_67\n      jumpi\n      returndatasize\n      0x00\n      dup1\n      returndatacopy\n      revert(0x00, returndatasize)\n    tag_67:\n      pop\n        /* \"contracts/myContract.sol\":1245:1352  function withdrawAmount() payable public onlyOwner{\r... */\n      jump\t// out\n        /* \"contracts/myContract.sol\":1615:1716  function printSubscriberCount() public view returns(uint256){\r... */\n    tag_35:\n        /* \"contracts/myContract.sol\":1667:1674  uint256 */\n      0x00\n        /* \"contracts/myContract.sol\":1693:1708  subscriberCount */\n      sload(0x01)\n        /* \"contracts/myContract.sol\":1686:1708  return subscriberCount */\n      swap1\n      pop\n        /* \"contracts/myContract.sol\":1615:1716  function printSubscriberCount() public view returns(uint256){\r... */\n      swap1\n      jump\t// out\n        /* \"contracts/myContract.sol\":1728:2001  function printSubscribersList() public onlyOwner view returns(address[] memory){\r... */\n    tag_39:\n        /* \"contracts/myContract.sol\":1790:1806  address[] memory */\n      0x60\n        /* \"contracts/myContract.sol\":622:628  author */\n      0x04\n      0x00\n      swap1\n      sload\n      swap1\n      0x0100\n      exp\n      swap1\n      div\n      0xffffffffffffffffffffffffffffffffffffffff\n      and\n        /* \"contracts/myContract.sol\":608:628  msg.sender == author */\n      0xffffffffffffffffffffffffffffffffffffffff\n      and\n        /* \"contracts/myContract.sol\":608:618  msg.sender */\n      caller\n        /* \"contracts/myContract.sol\":608:628  msg.sender == author */\n      0xffffffffffffffffffffffffffffffffffffffff\n      and\n      eq\n        /* \"contracts/myContract.sol\":600:666  require(msg.sender == author, \"Only author can call this method!\") */\n      tag_70\n      jumpi\n      mload(0x40)\n      0x08c379a000000000000000000000000000000000000000000000000000000000\n      dup2\n      mstore\n      0x04\n      add\n      tag_71\n      swap1\n      tag_64\n      jump\t// in\n    tag_71:\n      mload(0x40)\n      dup1\n      swap2\n      sub\n      swap1\n      revert\n    tag_70:\n        /* \"contracts/myContract.sol\":1818:1838  address[] memory ret */\n      0x00\n        /* \"contracts/myContract.sol\":1855:1870  subscriberCount */\n      sload(0x01)\n        /* \"contracts/myContract.sol\":1841:1871  new address[](subscriberCount) */\n      0xffffffffffffffff\n      dup2\n      gt\n      iszero\n      tag_73\n      jumpi\n      tag_74\n      tag_75\n      jump\t// in\n    tag_74:\n    tag_73:\n      mload(0x40)\n      swap1\n      dup1\n      dup3\n      mstore\n      dup1\n      0x20\n      mul\n      0x20\n      add\n      dup3\n      add\n      0x40\n      mstore\n      dup1\n      iszero\n      tag_76\n      jumpi\n      dup2\n      0x20\n      add\n      0x20\n      dup3\n      mul\n      dup1\n      calldatasize\n      dup4\n      calldatacopy\n      dup1\n      dup3\n      add\n      swap2\n      pop\n      pop\n      swap1\n      pop\n    tag_76:\n      pop\n        /* \"contracts/myContract.sol\":1818:1871  address[] memory ret = new address[](subscriberCount) */\n      swap1\n      pop\n        /* \"contracts/myContract.sol\":1886:1892  uint i */\n      0x00\n        /* \"contracts/myContract.sol\":1882:1973  for(uint i = 0; i < subscriberCount; i++){\r... */\n    tag_77:\n        /* \"contracts/myContract.sol\":1902:1917  subscriberCount */\n      sload(0x01)\n        /* \"contracts/myContract.sol\":1898:1899  i */\n      dup2\n        /* \"contracts/myContract.sol\":1898:1917  i < subscriberCount */\n      lt\n        /* \"contracts/myContract.sol\":1882:1973  for(uint i = 0; i < subscriberCount; i++){\r... */\n      iszero\n      tag_78\n      jumpi\n        /* \"contracts/myContract.sol\":1947:1958  subscribers */\n      0x00\n        /* \"contracts/myContract.sol\":1947:1961  subscribers[i] */\n      dup1\n        /* \"contracts/myContract.sol\":1959:1960  i */\n      dup3\n        /* \"contracts/myContract.sol\":1947:1961  subscribers[i] */\n      dup2\n      mstore\n      0x20\n      add\n      swap1\n      dup2\n      mstore\n      0x20\n      add\n      0x00\n      keccak256\n      0x00\n      swap1\n      sload\n      swap1\n      0x0100\n      exp\n      swap1\n      div\n      0xffffffffffffffffffffffffffffffffffffffff\n      and\n        /* \"contracts/myContract.sol\":1938:1941  ret */\n      dup3\n        /* \"contracts/myContract.sol\":1942:1943  i */\n      dup3\n        /* \"contracts/myContract.sol\":1938:1944  ret[i] */\n      dup2\n      mload\n      dup2\n      lt\n      tag_80\n      jumpi\n      tag_81\n      tag_82\n      jump\t// in\n    tag_81:\n    tag_80:\n      0x20\n      mul\n      0x20\n      add\n      add\n        /* \"contracts/myContract.sol\":1938:1961  ret[i] = subscribers[i] */\n      swap1\n      0xffffffffffffffffffffffffffffffffffffffff\n      and\n      swap1\n      dup2\n      0xffffffffffffffffffffffffffffffffffffffff\n      and\n      dup2\n      mstore\n      pop\n      pop\n        /* \"contracts/myContract.sol\":1919:1922  i++ */\n      dup1\n      dup1\n      tag_83\n      swap1\n      tag_84\n      jump\t// in\n    tag_83:\n      swap2\n      pop\n      pop\n        /* \"contracts/myContract.sol\":1882:1973  for(uint i = 0; i < subscriberCount; i++){\r... */\n      jump(tag_77)\n    tag_78:\n      pop\n        /* \"contracts/myContract.sol\":1990:1993  ret */\n      dup1\n        /* \"contracts/myContract.sol\":1983:1993  return ret */\n      swap2\n      pop\n      pop\n        /* \"contracts/myContract.sol\":1728:2001  function printSubscribersList() public onlyOwner view returns(address[] memory){\r... */\n      swap1\n      jump\t// out\n        /* \"contracts/myContract.sol\":1360:1607  function getArticleInfo(uint256 _articleNo) public view returns (articleInfo memory){\r... */\n    tag_46:\n        /* \"contracts/myContract.sol\":1425:1443  articleInfo memory */\n      tag_85\n      tag_86\n      jump\t// in\n    tag_85:\n        /* \"contracts/myContract.sol\":1476:1488  articleCount */\n      sload(0x03)\n        /* \"contracts/myContract.sol\":1463:1473  _articleNo */\n      dup3\n        /* \"contracts/myContract.sol\":1463:1488  _articleNo < articleCount */\n      lt\n        /* \"contracts/myContract.sol\":1455:1516  require(_articleNo < articleCount, \"Not a valid article No.\") */\n      tag_88\n      jumpi\n      mload(0x40)\n      0x08c379a000000000000000000000000000000000000000000000000000000000\n      dup2\n      mstore\n      0x04\n      add\n      tag_89\n      swap1\n      tag_90\n      jump\t// in\n    tag_89:\n      mload(0x40)\n      dup1\n      swap2\n      sub\n      swap1\n      revert\n    tag_88:\n        /* \"contracts/myContract.sol\":1527:1549  articleInfo memory ret */\n      0x00\n        /* \"contracts/myContract.sol\":1552:1566  articleHistory */\n      0x02\n        /* \"contracts/myContract.sol\":1552:1578  articleHistory[_articleNo] */\n      0x00\n        /* \"contracts/myContract.sol\":1567:1577  _articleNo */\n      dup5\n        /* \"contracts/myContract.sol\":1552:1578  articleHistory[_articleNo] */\n      dup2\n      mstore\n      0x20\n      add\n      swap1\n      dup2\n      mstore\n      0x20\n      add\n      0x00\n      keccak256\n        /* \"contracts/myContract.sol\":1527:1578  articleInfo memory ret = articleHistory[_articleNo] */\n      mload(0x40)\n      dup1\n      0x80\n      add\n      0x40\n      mstore\n      swap1\n      dup2\n      0x00\n      dup3\n      add\n      sload\n      dup2\n      mstore\n      0x20\n      add\n      0x01\n      dup3\n      add\n      dup1\n      sload\n      tag_91\n      swap1\n      tag_56\n      jump\t// in\n    tag_91:\n      dup1\n      0x1f\n      add\n      0x20\n      dup1\n      swap2\n      div\n      mul\n      0x20\n      add\n      mload(0x40)\n      swap1\n      dup2\n      add\n      0x40\n      mstore\n      dup1\n      swap3\n      swap2\n      swap1\n      dup2\n      dup2\n      mstore\n      0x20\n      add\n      dup3\n      dup1\n      sload\n      tag_92\n      swap1\n      tag_56\n      jump\t// in\n    tag_92:\n      dup1\n      iszero\n      tag_93\n      jumpi\n      dup1\n      0x1f\n      lt\n      tag_94\n      jumpi\n      0x0100\n      dup1\n      dup4\n      sload\n      div\n      mul\n      dup4\n      mstore\n      swap2\n      0x20\n      add\n      swap2\n      jump(tag_93)\n    tag_94:\n      dup3\n      add\n      swap2\n      swap1\n      0x00\n      mstore\n      keccak256(0x00, 0x20)\n      swap1\n    tag_95:\n      dup2\n      sload\n      dup2\n      mstore\n      swap1\n      0x01\n      add\n      swap1\n      0x20\n      add\n      dup1\n      dup4\n      gt\n      tag_95\n      jumpi\n      dup3\n      swap1\n      sub\n      0x1f\n      and\n      dup3\n      add\n      swap2\n    tag_93:\n      pop\n      pop\n      pop\n      pop\n      pop\n      dup2\n      mstore\n      0x20\n      add\n      0x02\n      dup3\n      add\n      dup1\n      sload\n      tag_96\n      swap1\n      tag_56\n      jump\t// in\n    tag_96:\n      dup1\n      0x1f\n      add\n      0x20\n      dup1\n      swap2\n      div\n      mul\n      0x20\n      add\n      mload(0x40)\n      swap1\n      dup2\n      add\n      0x40\n      mstore\n      dup1\n      swap3\n      swap2\n      swap1\n      dup2\n      dup2\n      mstore\n      0x20\n      add\n      dup3\n      dup1\n      sload\n      tag_97\n      swap1\n      tag_56\n      jump\t// in\n    tag_97:\n      dup1\n      iszero\n      tag_98\n      jumpi\n      dup1\n      0x1f\n      lt\n      tag_99\n      jumpi\n      0x0100\n      dup1\n      dup4\n      sload\n      div\n      mul\n      dup4\n      mstore\n      swap2\n      0x20\n      add\n      swap2\n      jump(tag_98)\n    tag_99:\n      dup3\n      add\n      swap2\n      swap1\n      0x00\n      mstore\n      keccak256(0x00, 0x20)\n      swap1\n    tag_100:\n      dup2\n      sload\n      dup2\n      mstore\n      swap1\n      0x01\n      add\n      swap1\n      0x20\n      add\n      dup1\n      dup4\n      gt\n      tag_100\n      jumpi\n      dup3\n      swap1\n      sub\n      0x1f\n      and\n      dup3\n      add\n      swap2\n    tag_98:\n      pop\n      pop\n      pop\n      pop\n      pop\n      dup2\n      mstore\n      0x20\n      add\n      0x03\n      dup3\n      add\n      sload\n      dup2\n      mstore\n      pop\n      pop\n      swap1\n      pop\n        /* \"contracts/myContract.sol\":1596:1599  ret */\n      dup1\n        /* \"contracts/myContract.sol\":1589:1599  return ret */\n      swap2\n      pop\n      pop\n        /* \"contracts/myContract.sol\":1360:1607  function getArticleInfo(uint256 _articleNo) public view returns (articleInfo memory){\r... */\n      swap2\n      swap1\n      pop\n      jump\t// out\n        /* \"contracts/myContract.sol\":2009:2352  function publishArticle(string memory _articleTitle, string memory _articleCID) payable public onlyOwner {\r... */\n    tag_52:\n        /* \"contracts/myContract.sol\":622:628  author */\n      0x04\n      0x00\n      swap1\n      sload\n      swap1\n      0x0100\n      exp\n      swap1\n      div\n      0xffffffffffffffffffffffffffffffffffffffff\n      and\n        /* \"contracts/myContract.sol\":608:628  msg.sender == author */\n      0xffffffffffffffffffffffffffffffffffffffff\n      and\n        /* \"contracts/myContract.sol\":608:618  msg.sender */\n      caller\n        /* \"contracts/myContract.sol\":608:628  msg.sender == author */\n      0xffffffffffffffffffffffffffffffffffffffff\n      and\n      eq\n        /* \"contracts/myContract.sol\":600:666  require(msg.sender == author, \"Only author can call this method!\") */\n      tag_102\n      jumpi\n      mload(0x40)\n      0x08c379a000000000000000000000000000000000000000000000000000000000\n      dup2\n      mstore\n      0x04\n      add\n      tag_103\n      swap1\n      tag_64\n      jump\t// in\n    tag_103:\n      mload(0x40)\n      dup1\n      swap2\n      sub\n      swap1\n      revert\n    tag_102:\n        /* \"contracts/myContract.sol\":2157:2227  articleInfo(articleCount, _articleTitle, _articleCID, block.timestamp) */\n      mload(0x40)\n      dup1\n      0x80\n      add\n      0x40\n      mstore\n      dup1\n        /* \"contracts/myContract.sol\":2169:2181  articleCount */\n      sload(0x03)\n        /* \"contracts/myContract.sol\":2157:2227  articleInfo(articleCount, _articleTitle, _articleCID, block.timestamp) */\n      dup2\n      mstore\n      0x20\n      add\n        /* \"contracts/myContract.sol\":2183:2196  _articleTitle */\n      dup4\n        /* \"contracts/myContract.sol\":2157:2227  articleInfo(articleCount, _articleTitle, _articleCID, block.timestamp) */\n      dup2\n      mstore\n      0x20\n      add\n        /* \"contracts/myContract.sol\":2198:2209  _articleCID */\n      dup3\n        /* \"contracts/myContract.sol\":2157:2227  articleInfo(articleCount, _articleTitle, _articleCID, block.timestamp) */\n      dup2\n      mstore\n      0x20\n      add\n        /* \"contracts/myContract.sol\":2211:2226  block.timestamp */\n      timestamp\n        /* \"contracts/myContract.sol\":2157:2227  articleInfo(articleCount, _articleTitle, _articleCID, block.timestamp) */\n      dup2\n      mstore\n      pop\n        /* \"contracts/myContract.sol\":2125:2139  articleHistory */\n      0x02\n        /* \"contracts/myContract.sol\":2125:2153  articleHistory[articleCount] */\n      0x00\n        /* \"contracts/myContract.sol\":2140:2152  articleCount */\n      sload(0x03)\n        /* \"contracts/myContract.sol\":2125:2153  articleHistory[articleCount] */\n      dup2\n      mstore\n      0x20\n      add\n      swap1\n      dup2\n      mstore\n      0x20\n      add\n      0x00\n      keccak256\n        /* \"contracts/myContract.sol\":2125:2227  articleHistory[articleCount] =  articleInfo(articleCount, _articleTitle, _articleCID, block.timestamp) */\n      0x00\n      dup3\n      add\n      mload\n      dup2\n      0x00\n      add\n      sstore\n      0x20\n      dup3\n      add\n      mload\n      dup2\n      0x01\n      add\n      swap1\n      dup1\n      mload\n      swap1\n      0x20\n      add\n      swap1\n      tag_105\n      swap3\n      swap2\n      swap1\n      tag_106\n      jump\t// in\n    tag_105:\n      pop\n      0x40\n      dup3\n      add\n      mload\n      dup2\n      0x02\n      add\n      swap1\n      dup1\n      mload\n      swap1\n      0x20\n      add\n      swap1\n      tag_107\n      swap3\n      swap2\n      swap1\n      tag_106\n      jump\t// in\n    tag_107:\n      pop\n      0x60\n      dup3\n      add\n      mload\n      dup2\n      0x03\n      add\n      sstore\n      swap1\n      pop\n      pop\n        /* \"contracts/myContract.sol\":2238:2250  articleCount */\n      0x03\n      0x00\n        /* \"contracts/myContract.sol\":2238:2252  articleCount++ */\n      dup2\n      sload\n      dup1\n      swap3\n      swap2\n      swap1\n      tag_108\n      swap1\n      tag_84\n      jump\t// in\n    tag_108:\n      swap2\n      swap1\n      pop\n      sstore\n      pop\n        /* \"contracts/myContract.sol\":2287:2298  channelName */\n      0x06\n        /* \"contracts/myContract.sol\":2270:2344  articlePublished(channelName, _articleTitle, _articleCID, block.timestamp) */\n      mload(0x40)\n      tag_109\n      swap2\n      swap1\n      tag_110\n      jump\t// in\n    tag_109:\n      mload(0x40)\n      dup1\n      swap2\n      sub\n      swap1\n      keccak256\n      0x9009e7bf85e860bd815644b6510a84c4e537fd62acc6e9482cd84eea5167995d\n        /* \"contracts/myContract.sol\":2300:2313  _articleTitle */\n      dup4\n        /* \"contracts/myContract.sol\":2315:2326  _articleCID */\n      dup4\n        /* \"contracts/myContract.sol\":2328:2343  block.timestamp */\n      timestamp\n        /* \"contracts/myContract.sol\":2270:2344  articlePublished(channelName, _articleTitle, _articleCID, block.timestamp) */\n      mload(0x40)\n      tag_111\n      swap4\n      swap3\n      swap2\n      swap1\n      tag_112\n      jump\t// in\n    tag_111:\n      mload(0x40)\n      dup1\n      swap2\n      sub\n      swap1\n      log2\n        /* \"contracts/myContract.sol\":2009:2352  function publishArticle(string memory _articleTitle, string memory _articleCID) payable public onlyOwner {\r... */\n      pop\n      pop\n      jump\t// out\n        /* \"contracts/myContract.sol\":1057:1237  function addSubscriber() public payable{\r... */\n    tag_54:\n        /* \"contracts/myContract.sol\":1138:1148  msg.sender */\n      caller\n        /* \"contracts/myContract.sol\":1107:1118  subscribers */\n      0x00\n        /* \"contracts/myContract.sol\":1107:1135  subscribers[subscriberCount] */\n      dup1\n        /* \"contracts/myContract.sol\":1119:1134  subscriberCount */\n      sload(0x01)\n        /* \"contracts/myContract.sol\":1107:1135  subscribers[subscriberCount] */\n      dup2\n      mstore\n      0x20\n      add\n      swap1\n      dup2\n      mstore\n      0x20\n      add\n      0x00\n      keccak256\n      0x00\n        /* \"contracts/myContract.sol\":1107:1148  subscribers[subscriberCount] = msg.sender */\n      0x0100\n      exp\n      dup2\n      sload\n      dup2\n      0xffffffffffffffffffffffffffffffffffffffff\n      mul\n      not\n      and\n      swap1\n      dup4\n      0xffffffffffffffffffffffffffffffffffffffff\n      and\n      mul\n      or\n      swap1\n      sstore\n      pop\n        /* \"contracts/myContract.sol\":1159:1174  subscriberCount */\n      0x01\n      0x00\n        /* \"contracts/myContract.sol\":1159:1176  subscriberCount++ */\n      dup2\n      sload\n      dup1\n      swap3\n      swap2\n      swap1\n      tag_114\n      swap1\n      tag_84\n      jump\t// in\n    tag_114:\n      swap2\n      swap1\n      pop\n      sstore\n      pop\n        /* \"contracts/myContract.sol\":1203:1207  this */\n      address\n        /* \"contracts/myContract.sol\":1187:1218  payable(address(this)).transfer */\n      0xffffffffffffffffffffffffffffffffffffffff\n      and\n        /* \"contracts/myContract.sol\":1187:1229  payable(address(this)).transfer(msg.value) */\n      0x08fc\n        /* \"contracts/myContract.sol\":1219:1228  msg.value */\n      callvalue\n        /* \"contracts/myContract.sol\":1187:1229  payable(address(this)).transfer(msg.value) */\n      swap1\n      dup2\n      iszero\n      mul\n      swap1\n      mload(0x40)\n      0x00\n      mload(0x40)\n      dup1\n      dup4\n      sub\n      dup2\n      dup6\n      dup9\n      dup9\n      call\n      swap4\n      pop\n      pop\n      pop\n      pop\n      iszero\n      dup1\n      iszero\n      tag_116\n      jumpi\n      returndatasize\n      0x00\n      dup1\n      returndatacopy\n      revert(0x00, returndatasize)\n    tag_116:\n      pop\n        /* \"contracts/myContract.sol\":1057:1237  function addSubscriber() public payable{\r... */\n      jump\t// out\n    tag_86:\n      mload(0x40)\n      dup1\n      0x80\n      add\n      0x40\n      mstore\n      dup1\n      0x00\n      dup2\n      mstore\n      0x20\n      add\n      0x60\n      dup2\n      mstore\n      0x20\n      add\n      0x60\n      dup2\n      mstore\n      0x20\n      add\n      0x00\n      dup2\n      mstore\n      pop\n      swap1\n      jump\t// out\n    tag_106:\n      dup3\n      dup1\n      sload\n      tag_117\n      swap1\n      tag_56\n      jump\t// in\n    tag_117:\n      swap1\n      0x00\n      mstore\n      keccak256(0x00, 0x20)\n      swap1\n      0x1f\n      add\n      0x20\n      swap1\n      div\n      dup2\n      add\n      swap3\n      dup3\n      tag_119\n      jumpi\n      0x00\n      dup6\n      sstore\n      jump(tag_118)\n    tag_119:\n      dup3\n      0x1f\n      lt\n      tag_120\n      jumpi\n      dup1\n      mload\n      not(0xff)\n      and\n      dup4\n      dup1\n      add\n      or\n      dup6\n      sstore\n      jump(tag_118)\n    tag_120:\n      dup3\n      dup1\n      add\n      0x01\n      add\n      dup6\n      sstore\n      dup3\n      iszero\n      tag_118\n      jumpi\n      swap2\n      dup3\n      add\n    tag_121:\n      dup3\n      dup2\n      gt\n      iszero\n      tag_122\n      jumpi\n      dup3\n      mload\n      dup3\n      sstore\n      swap2\n      0x20\n      add\n      swap2\n      swap1\n      0x01\n      add\n      swap1\n      jump(tag_121)\n    tag_122:\n    tag_118:\n      pop\n      swap1\n      pop\n      tag_123\n      swap2\n      swap1\n      tag_124\n      jump\t// in\n    tag_123:\n      pop\n      swap1\n      jump\t// out\n    tag_124:\n    tag_125:\n      dup1\n      dup3\n      gt\n      iszero\n      tag_126\n      jumpi\n      0x00\n      dup2\n      0x00\n      swap1\n      sstore\n      pop\n      0x01\n      add\n      jump(tag_125)\n    tag_126:\n      pop\n      swap1\n      jump\t// out\n        /* \"#utility.yul\":7:419   */\n    tag_128:\n        /* \"#utility.yul\":85:90   */\n      0x00\n        /* \"#utility.yul\":110:176   */\n      tag_130\n        /* \"#utility.yul\":126:175   */\n      tag_131\n        /* \"#utility.yul\":168:174   */\n      dup5\n        /* \"#utility.yul\":126:175   */\n      tag_132\n      jump\t// in\n    tag_131:\n        /* \"#utility.yul\":110:176   */\n      tag_133\n      jump\t// in\n    tag_130:\n        /* \"#utility.yul\":101:176   */\n      swap1\n      pop\n        /* \"#utility.yul\":199:205   */\n      dup3\n        /* \"#utility.yul\":192:197   */\n      dup2\n        /* \"#utility.yul\":185:206   */\n      mstore\n        /* \"#utility.yul\":237:241   */\n      0x20\n        /* \"#utility.yul\":230:235   */\n      dup2\n        /* \"#utility.yul\":226:242   */\n      add\n        /* \"#utility.yul\":275:278   */\n      dup5\n        /* \"#utility.yul\":266:272   */\n      dup5\n        /* \"#utility.yul\":261:264   */\n      dup5\n        /* \"#utility.yul\":257:273   */\n      add\n        /* \"#utility.yul\":254:279   */\n      gt\n        /* \"#utility.yul\":251:363   */\n      iszero\n      tag_134\n      jumpi\n        /* \"#utility.yul\":282:361   */\n      tag_135\n      tag_136\n      jump\t// in\n    tag_135:\n        /* \"#utility.yul\":251:363   */\n    tag_134:\n        /* \"#utility.yul\":372:413   */\n      tag_137\n        /* \"#utility.yul\":406:412   */\n      dup5\n        /* \"#utility.yul\":401:404   */\n      dup3\n        /* \"#utility.yul\":396:399   */\n      dup6\n        /* \"#utility.yul\":372:413   */\n      tag_138\n      jump\t// in\n    tag_137:\n        /* \"#utility.yul\":91:419   */\n      pop\n        /* \"#utility.yul\":7:419   */\n      swap4\n      swap3\n      pop\n      pop\n      pop\n      jump\t// out\n        /* \"#utility.yul\":439:779   */\n    tag_139:\n        /* \"#utility.yul\":495:500   */\n      0x00\n        /* \"#utility.yul\":544:547   */\n      dup3\n        /* \"#utility.yul\":537:541   */\n      0x1f\n        /* \"#utility.yul\":529:535   */\n      dup4\n        /* \"#utility.yul\":525:542   */\n      add\n        /* \"#utility.yul\":521:548   */\n      slt\n        /* \"#utility.yul\":511:633   */\n      tag_141\n      jumpi\n        /* \"#utility.yul\":552:631   */\n      tag_142\n      tag_143\n      jump\t// in\n    tag_142:\n        /* \"#utility.yul\":511:633   */\n    tag_141:\n        /* \"#utility.yul\":669:675   */\n      dup2\n        /* \"#utility.yul\":656:676   */\n      calldataload\n        /* \"#utility.yul\":694:773   */\n      tag_144\n        /* \"#utility.yul\":769:772   */\n      dup5\n        /* \"#utility.yul\":761:767   */\n      dup3\n        /* \"#utility.yul\":754:758   */\n      0x20\n        /* \"#utility.yul\":746:752   */\n      dup7\n        /* \"#utility.yul\":742:759   */\n      add\n        /* \"#utility.yul\":694:773   */\n      tag_128\n      jump\t// in\n    tag_144:\n        /* \"#utility.yul\":685:773   */\n      swap2\n      pop\n        /* \"#utility.yul\":501:779   */\n      pop\n        /* \"#utility.yul\":439:779   */\n      swap3\n      swap2\n      pop\n      pop\n      jump\t// out\n        /* \"#utility.yul\":785:924   */\n    tag_145:\n        /* \"#utility.yul\":831:836   */\n      0x00\n        /* \"#utility.yul\":869:875   */\n      dup2\n        /* \"#utility.yul\":856:876   */\n      calldataload\n        /* \"#utility.yul\":847:876   */\n      swap1\n      pop\n        /* \"#utility.yul\":885:918   */\n      tag_147\n        /* \"#utility.yul\":912:917   */\n      dup2\n        /* \"#utility.yul\":885:918   */\n      tag_148\n      jump\t// in\n    tag_147:\n        /* \"#utility.yul\":785:924   */\n      swap3\n      swap2\n      pop\n      pop\n      jump\t// out\n        /* \"#utility.yul\":930:1764   */\n    tag_51:\n        /* \"#utility.yul\":1018:1024   */\n      0x00\n        /* \"#utility.yul\":1026:1032   */\n      dup1\n        /* \"#utility.yul\":1075:1077   */\n      0x40\n        /* \"#utility.yul\":1063:1072   */\n      dup4\n        /* \"#utility.yul\":1054:1061   */\n      dup6\n        /* \"#utility.yul\":1050:1073   */\n      sub\n        /* \"#utility.yul\":1046:1078   */\n      slt\n        /* \"#utility.yul\":1043:1162   */\n      iszero\n      tag_150\n      jumpi\n        /* \"#utility.yul\":1081:1160   */\n      tag_151\n      tag_152\n      jump\t// in\n    tag_151:\n        /* \"#utility.yul\":1043:1162   */\n    tag_150:\n        /* \"#utility.yul\":1229:1230   */\n      0x00\n        /* \"#utility.yul\":1218:1227   */\n      dup4\n        /* \"#utility.yul\":1214:1231   */\n      add\n        /* \"#utility.yul\":1201:1232   */\n      calldataload\n        /* \"#utility.yul\":1259:1277   */\n      0xffffffffffffffff\n        /* \"#utility.yul\":1251:1257   */\n      dup2\n        /* \"#utility.yul\":1248:1278   */\n      gt\n        /* \"#utility.yul\":1245:1362   */\n      iszero\n      tag_153\n      jumpi\n        /* \"#utility.yul\":1281:1360   */\n      tag_154\n      tag_155\n      jump\t// in\n    tag_154:\n        /* \"#utility.yul\":1245:1362   */\n    tag_153:\n        /* \"#utility.yul\":1386:1449   */\n      tag_156\n        /* \"#utility.yul\":1441:1448   */\n      dup6\n        /* \"#utility.yul\":1432:1438   */\n      dup3\n        /* \"#utility.yul\":1421:1430   */\n      dup7\n        /* \"#utility.yul\":1417:1439   */\n      add\n        /* \"#utility.yul\":1386:1449   */\n      tag_139\n      jump\t// in\n    tag_156:\n        /* \"#utility.yul\":1376:1449   */\n      swap3\n      pop\n        /* \"#utility.yul\":1172:1459   */\n      pop\n        /* \"#utility.yul\":1526:1528   */\n      0x20\n        /* \"#utility.yul\":1515:1524   */\n      dup4\n        /* \"#utility.yul\":1511:1529   */\n      add\n        /* \"#utility.yul\":1498:1530   */\n      calldataload\n        /* \"#utility.yul\":1557:1575   */\n      0xffffffffffffffff\n        /* \"#utility.yul\":1549:1555   */\n      dup2\n        /* \"#utility.yul\":1546:1576   */\n      gt\n        /* \"#utility.yul\":1543:1660   */\n      iszero\n      tag_157\n      jumpi\n        /* \"#utility.yul\":1579:1658   */\n      tag_158\n      tag_155\n      jump\t// in\n    tag_158:\n        /* \"#utility.yul\":1543:1660   */\n    tag_157:\n        /* \"#utility.yul\":1684:1747   */\n      tag_159\n        /* \"#utility.yul\":1739:1746   */\n      dup6\n        /* \"#utility.yul\":1730:1736   */\n      dup3\n        /* \"#utility.yul\":1719:1728   */\n      dup7\n        /* \"#utility.yul\":1715:1737   */\n      add\n        /* \"#utility.yul\":1684:1747   */\n      tag_139\n      jump\t// in\n    tag_159:\n        /* \"#utility.yul\":1674:1747   */\n      swap2\n      pop\n        /* \"#utility.yul\":1469:1757   */\n      pop\n        /* \"#utility.yul\":930:1764   */\n      swap3\n      pop\n      swap3\n      swap1\n      pop\n      jump\t// out\n        /* \"#utility.yul\":1770:2099   */\n    tag_45:\n        /* \"#utility.yul\":1829:1835   */\n      0x00\n        /* \"#utility.yul\":1878:1880   */\n      0x20\n        /* \"#utility.yul\":1866:1875   */\n      dup3\n        /* \"#utility.yul\":1857:1864   */\n      dup5\n        /* \"#utility.yul\":1853:1876   */\n      sub\n        /* \"#utility.yul\":1849:1881   */\n      slt\n        /* \"#utility.yul\":1846:1965   */\n      iszero\n      tag_161\n      jumpi\n        /* \"#utility.yul\":1884:1963   */\n      tag_162\n      tag_152\n      jump\t// in\n    tag_162:\n        /* \"#utility.yul\":1846:1965   */\n    tag_161:\n        /* \"#utility.yul\":2004:2005   */\n      0x00\n        /* \"#utility.yul\":2029:2082   */\n      tag_163\n        /* \"#utility.yul\":2074:2081   */\n      dup5\n        /* \"#utility.yul\":2065:2071   */\n      dup3\n        /* \"#utility.yul\":2054:2063   */\n      dup6\n        /* \"#utility.yul\":2050:2072   */\n      add\n        /* \"#utility.yul\":2029:2082   */\n      tag_145\n      jump\t// in\n    tag_163:\n        /* \"#utility.yul\":2019:2082   */\n      swap2\n      pop\n        /* \"#utility.yul\":1975:2092   */\n      pop\n        /* \"#utility.yul\":1770:2099   */\n      swap3\n      swap2\n      pop\n      pop\n      jump\t// out\n        /* \"#utility.yul\":2105:2284   */\n    tag_164:\n        /* \"#utility.yul\":2174:2184   */\n      0x00\n        /* \"#utility.yul\":2195:2241   */\n      tag_166\n        /* \"#utility.yul\":2237:2240   */\n      dup4\n        /* \"#utility.yul\":2229:2235   */\n      dup4\n        /* \"#utility.yul\":2195:2241   */\n      tag_167\n      jump\t// in\n    tag_166:\n        /* \"#utility.yul\":2273:2277   */\n      0x20\n        /* \"#utility.yul\":2268:2271   */\n      dup4\n        /* \"#utility.yul\":2264:2278   */\n      add\n        /* \"#utility.yul\":2250:2278   */\n      swap1\n      pop\n        /* \"#utility.yul\":2105:2284   */\n      swap3\n      swap2\n      pop\n      pop\n      jump\t// out\n        /* \"#utility.yul\":2290:2398   */\n    tag_167:\n        /* \"#utility.yul\":2367:2391   */\n      tag_169\n        /* \"#utility.yul\":2385:2390   */\n      dup2\n        /* \"#utility.yul\":2367:2391   */\n      tag_170\n      jump\t// in\n    tag_169:\n        /* \"#utility.yul\":2362:2365   */\n      dup3\n        /* \"#utility.yul\":2355:2392   */\n      mstore\n        /* \"#utility.yul\":2290:2398   */\n      pop\n      pop\n      jump\t// out\n        /* \"#utility.yul\":2434:3166   */\n    tag_171:\n        /* \"#utility.yul\":2553:2556   */\n      0x00\n        /* \"#utility.yul\":2582:2636   */\n      tag_173\n        /* \"#utility.yul\":2630:2635   */\n      dup3\n        /* \"#utility.yul\":2582:2636   */\n      tag_174\n      jump\t// in\n    tag_173:\n        /* \"#utility.yul\":2652:2738   */\n      tag_175\n        /* \"#utility.yul\":2731:2737   */\n      dup2\n        /* \"#utility.yul\":2726:2729   */\n      dup6\n        /* \"#utility.yul\":2652:2738   */\n      tag_176\n      jump\t// in\n    tag_175:\n        /* \"#utility.yul\":2645:2738   */\n      swap4\n      pop\n        /* \"#utility.yul\":2762:2818   */\n      tag_177\n        /* \"#utility.yul\":2812:2817   */\n      dup4\n        /* \"#utility.yul\":2762:2818   */\n      tag_178\n      jump\t// in\n    tag_177:\n        /* \"#utility.yul\":2841:2848   */\n      dup1\n        /* \"#utility.yul\":2872:2873   */\n      0x00\n        /* \"#utility.yul\":2857:3141   */\n    tag_179:\n        /* \"#utility.yul\":2882:2888   */\n      dup4\n        /* \"#utility.yul\":2879:2880   */\n      dup2\n        /* \"#utility.yul\":2876:2889   */\n      lt\n        /* \"#utility.yul\":2857:3141   */\n      iszero\n      tag_181\n      jumpi\n        /* \"#utility.yul\":2958:2964   */\n      dup2\n        /* \"#utility.yul\":2952:2965   */\n      mload\n        /* \"#utility.yul\":2985:3048   */\n      tag_182\n        /* \"#utility.yul\":3044:3047   */\n      dup9\n        /* \"#utility.yul\":3029:3042   */\n      dup3\n        /* \"#utility.yul\":2985:3048   */\n      tag_164\n      jump\t// in\n    tag_182:\n        /* \"#utility.yul\":2978:3048   */\n      swap8\n      pop\n        /* \"#utility.yul\":3071:3131   */\n      tag_183\n        /* \"#utility.yul\":3124:3130   */\n      dup4\n        /* \"#utility.yul\":3071:3131   */\n      tag_184\n      jump\t// in\n    tag_183:\n        /* \"#utility.yul\":3061:3131   */\n      swap3\n      pop\n        /* \"#utility.yul\":2917:3141   */\n      pop\n        /* \"#utility.yul\":2904:2905   */\n      0x01\n        /* \"#utility.yul\":2901:2902   */\n      dup2\n        /* \"#utility.yul\":2897:2906   */\n      add\n        /* \"#utility.yul\":2892:2906   */\n      swap1\n      pop\n        /* \"#utility.yul\":2857:3141   */\n      jump(tag_179)\n    tag_181:\n        /* \"#utility.yul\":2861:2875   */\n      pop\n        /* \"#utility.yul\":3157:3160   */\n      dup6\n        /* \"#utility.yul\":3150:3160   */\n      swap4\n      pop\n        /* \"#utility.yul\":2558:3166   */\n      pop\n      pop\n      pop\n        /* \"#utility.yul\":2434:3166   */\n      swap3\n      swap2\n      pop\n      pop\n      jump\t// out\n        /* \"#utility.yul\":3172:3516   */\n    tag_185:\n        /* \"#utility.yul\":3250:3253   */\n      0x00\n        /* \"#utility.yul\":3278:3317   */\n      tag_187\n        /* \"#utility.yul\":3311:3316   */\n      dup3\n        /* \"#utility.yul\":3278:3317   */\n      tag_188\n      jump\t// in\n    tag_187:\n        /* \"#utility.yul\":3333:3394   */\n      tag_189\n        /* \"#utility.yul\":3387:3393   */\n      dup2\n        /* \"#utility.yul\":3382:3385   */\n      dup6\n        /* \"#utility.yul\":3333:3394   */\n      tag_190\n      jump\t// in\n    tag_189:\n        /* \"#utility.yul\":3326:3394   */\n      swap4\n      pop\n        /* \"#utility.yul\":3403:3455   */\n      tag_191\n        /* \"#utility.yul\":3448:3454   */\n      dup2\n        /* \"#utility.yul\":3443:3446   */\n      dup6\n        /* \"#utility.yul\":3436:3440   */\n      0x20\n        /* \"#utility.yul\":3429:3434   */\n      dup7\n        /* \"#utility.yul\":3425:3441   */\n      add\n        /* \"#utility.yul\":3403:3455   */\n      tag_192\n      jump\t// in\n    tag_191:\n        /* \"#utility.yul\":3480:3509   */\n      tag_193\n        /* \"#utility.yul\":3502:3508   */\n      dup2\n        /* \"#utility.yul\":3480:3509   */\n      tag_194\n      jump\t// in\n    tag_193:\n        /* \"#utility.yul\":3475:3478   */\n      dup5\n        /* \"#utility.yul\":3471:3510   */\n      add\n        /* \"#utility.yul\":3464:3510   */\n      swap2\n      pop\n        /* \"#utility.yul\":3254:3516   */\n      pop\n        /* \"#utility.yul\":3172:3516   */\n      swap3\n      swap2\n      pop\n      pop\n      jump\t// out\n        /* \"#utility.yul\":3522:3886   */\n    tag_195:\n        /* \"#utility.yul\":3610:3613   */\n      0x00\n        /* \"#utility.yul\":3638:3677   */\n      tag_197\n        /* \"#utility.yul\":3671:3676   */\n      dup3\n        /* \"#utility.yul\":3638:3677   */\n      tag_188\n      jump\t// in\n    tag_197:\n        /* \"#utility.yul\":3693:3764   */\n      tag_198\n        /* \"#utility.yul\":3757:3763   */\n      dup2\n        /* \"#utility.yul\":3752:3755   */\n      dup6\n        /* \"#utility.yul\":3693:3764   */\n      tag_199\n      jump\t// in\n    tag_198:\n        /* \"#utility.yul\":3686:3764   */\n      swap4\n      pop\n        /* \"#utility.yul\":3773:3825   */\n      tag_200\n        /* \"#utility.yul\":3818:3824   */\n      dup2\n        /* \"#utility.yul\":3813:3816   */\n      dup6\n        /* \"#utility.yul\":3806:3810   */\n      0x20\n        /* \"#utility.yul\":3799:3804   */\n      dup7\n        /* \"#utility.yul\":3795:3811   */\n      add\n        /* \"#utility.yul\":3773:3825   */\n      tag_192\n      jump\t// in\n    tag_200:\n        /* \"#utility.yul\":3850:3879   */\n      tag_201\n        /* \"#utility.yul\":3872:3878   */\n      dup2\n        /* \"#utility.yul\":3850:3879   */\n      tag_194\n      jump\t// in\n    tag_201:\n        /* \"#utility.yul\":3845:3848   */\n      dup5\n        /* \"#utility.yul\":3841:3880   */\n      add\n        /* \"#utility.yul\":3834:3880   */\n      swap2\n      pop\n        /* \"#utility.yul\":3614:3886   */\n      pop\n        /* \"#utility.yul\":3522:3886   */\n      swap3\n      swap2\n      pop\n      pop\n      jump\t// out\n        /* \"#utility.yul\":3916:4761   */\n    tag_202:\n        /* \"#utility.yul\":4019:4022   */\n      0x00\n        /* \"#utility.yul\":4056:4061   */\n      dup2\n        /* \"#utility.yul\":4050:4062   */\n      sload\n        /* \"#utility.yul\":4085:4121   */\n      tag_204\n        /* \"#utility.yul\":4111:4120   */\n      dup2\n        /* \"#utility.yul\":4085:4121   */\n      tag_56\n      jump\t// in\n    tag_204:\n        /* \"#utility.yul\":4137:4226   */\n      tag_205\n        /* \"#utility.yul\":4219:4225   */\n      dup2\n        /* \"#utility.yul\":4214:4217   */\n      dup7\n        /* \"#utility.yul\":4137:4226   */\n      tag_206\n      jump\t// in\n    tag_205:\n        /* \"#utility.yul\":4130:4226   */\n      swap5\n      pop\n        /* \"#utility.yul\":4257:4258   */\n      0x01\n        /* \"#utility.yul\":4246:4255   */\n      dup3\n        /* \"#utility.yul\":4242:4259   */\n      and\n        /* \"#utility.yul\":4273:4274   */\n      0x00\n        /* \"#utility.yul\":4268:4405   */\n      dup2\n      eq\n      tag_208\n      jumpi\n        /* \"#utility.yul\":4419:4420   */\n      0x01\n        /* \"#utility.yul\":4414:4755   */\n      dup2\n      eq\n      tag_209\n      jumpi\n        /* \"#utility.yul\":4235:4755   */\n      jump(tag_207)\n        /* \"#utility.yul\":4268:4405   */\n    tag_208:\n        /* \"#utility.yul\":4352:4356   */\n      0xff\n        /* \"#utility.yul\":4348:4357   */\n      not\n        /* \"#utility.yul\":4337:4346   */\n      dup4\n        /* \"#utility.yul\":4333:4358   */\n      and\n        /* \"#utility.yul\":4328:4331   */\n      dup7\n        /* \"#utility.yul\":4321:4359   */\n      mstore\n        /* \"#utility.yul\":4388:4394   */\n      dup2\n        /* \"#utility.yul\":4383:4386   */\n      dup7\n        /* \"#utility.yul\":4379:4395   */\n      add\n        /* \"#utility.yul\":4372:4395   */\n      swap4\n      pop\n        /* \"#utility.yul\":4268:4405   */\n      jump(tag_207)\n        /* \"#utility.yul\":4414:4755   */\n    tag_209:\n        /* \"#utility.yul\":4481:4519   */\n      tag_210\n        /* \"#utility.yul\":4513:4518   */\n      dup6\n        /* \"#utility.yul\":4481:4519   */\n      tag_211\n      jump\t// in\n    tag_210:\n        /* \"#utility.yul\":4541:4542   */\n      0x00\n        /* \"#utility.yul\":4555:4709   */\n    tag_212:\n        /* \"#utility.yul\":4569:4575   */\n      dup4\n        /* \"#utility.yul\":4566:4567   */\n      dup2\n        /* \"#utility.yul\":4563:4576   */\n      lt\n        /* \"#utility.yul\":4555:4709   */\n      iszero\n      tag_214\n      jumpi\n        /* \"#utility.yul\":4643:4650   */\n      dup2\n        /* \"#utility.yul\":4637:4651   */\n      sload\n        /* \"#utility.yul\":4633:4634   */\n      dup2\n        /* \"#utility.yul\":4628:4631   */\n      dup10\n        /* \"#utility.yul\":4624:4635   */\n      add\n        /* \"#utility.yul\":4617:4652   */\n      mstore\n        /* \"#utility.yul\":4693:4694   */\n      0x01\n        /* \"#utility.yul\":4684:4691   */\n      dup3\n        /* \"#utility.yul\":4680:4695   */\n      add\n        /* \"#utility.yul\":4669:4695   */\n      swap2\n      pop\n        /* \"#utility.yul\":4591:4595   */\n      0x20\n        /* \"#utility.yul\":4588:4589   */\n      dup2\n        /* \"#utility.yul\":4584:4596   */\n      add\n        /* \"#utility.yul\":4579:4596   */\n      swap1\n      pop\n        /* \"#utility.yul\":4555:4709   */\n      jump(tag_212)\n    tag_214:\n        /* \"#utility.yul\":4738:4744   */\n      dup4\n        /* \"#utility.yul\":4733:4736   */\n      dup9\n        /* \"#utility.yul\":4729:4745   */\n      add\n        /* \"#utility.yul\":4722:4745   */\n      swap6\n      pop\n        /* \"#utility.yul\":4421:4755   */\n      pop\n      pop\n        /* \"#utility.yul\":4235:4755   */\n    tag_207:\n      pop\n        /* \"#utility.yul\":4023:4761   */\n      pop\n      pop\n        /* \"#utility.yul\":3916:4761   */\n      swap3\n      swap2\n      pop\n      pop\n      jump\t// out\n        /* \"#utility.yul\":4767:5133   */\n    tag_215:\n        /* \"#utility.yul\":4909:4912   */\n      0x00\n        /* \"#utility.yul\":4930:4997   */\n      tag_217\n        /* \"#utility.yul\":4994:4996   */\n      0x2b\n        /* \"#utility.yul\":4989:4992   */\n      dup4\n        /* \"#utility.yul\":4930:4997   */\n      tag_199\n      jump\t// in\n    tag_217:\n        /* \"#utility.yul\":4923:4997   */\n      swap2\n      pop\n        /* \"#utility.yul\":5006:5099   */\n      tag_218\n        /* \"#utility.yul\":5095:5098   */\n      dup3\n        /* \"#utility.yul\":5006:5099   */\n      tag_219\n      jump\t// in\n    tag_218:\n        /* \"#utility.yul\":5124:5126   */\n      0x40\n        /* \"#utility.yul\":5119:5122   */\n      dup3\n        /* \"#utility.yul\":5115:5127   */\n      add\n        /* \"#utility.yul\":5108:5127   */\n      swap1\n      pop\n        /* \"#utility.yul\":4767:5133   */\n      swap2\n      swap1\n      pop\n      jump\t// out\n        /* \"#utility.yul\":5139:5505   */\n    tag_220:\n        /* \"#utility.yul\":5281:5284   */\n      0x00\n        /* \"#utility.yul\":5302:5369   */\n      tag_222\n        /* \"#utility.yul\":5366:5368   */\n      0x21\n        /* \"#utility.yul\":5361:5364   */\n      dup4\n        /* \"#utility.yul\":5302:5369   */\n      tag_199\n      jump\t// in\n    tag_222:\n        /* \"#utility.yul\":5295:5369   */\n      swap2\n      pop\n        /* \"#utility.yul\":5378:5471   */\n      tag_223\n        /* \"#utility.yul\":5467:5470   */\n      dup3\n        /* \"#utility.yul\":5378:5471   */\n      tag_224\n      jump\t// in\n    tag_223:\n        /* \"#utility.yul\":5496:5498   */\n      0x40\n        /* \"#utility.yul\":5491:5494   */\n      dup3\n        /* \"#utility.yul\":5487:5499   */\n      add\n        /* \"#utility.yul\":5480:5499   */\n      swap1\n      pop\n        /* \"#utility.yul\":5139:5505   */\n      swap2\n      swap1\n      pop\n      jump\t// out\n        /* \"#utility.yul\":5511:5877   */\n    tag_225:\n        /* \"#utility.yul\":5653:5656   */\n      0x00\n        /* \"#utility.yul\":5674:5741   */\n      tag_227\n        /* \"#utility.yul\":5738:5740   */\n      0x17\n        /* \"#utility.yul\":5733:5736   */\n      dup4\n        /* \"#utility.yul\":5674:5741   */\n      tag_199\n      jump\t// in\n    tag_227:\n        /* \"#utility.yul\":5667:5741   */\n      swap2\n      pop\n        /* \"#utility.yul\":5750:5843   */\n      tag_228\n        /* \"#utility.yul\":5839:5842   */\n      dup3\n        /* \"#utility.yul\":5750:5843   */\n      tag_229\n      jump\t// in\n    tag_228:\n        /* \"#utility.yul\":5868:5870   */\n      0x20\n        /* \"#utility.yul\":5863:5866   */\n      dup3\n        /* \"#utility.yul\":5859:5871   */\n      add\n        /* \"#utility.yul\":5852:5871   */\n      swap1\n      pop\n        /* \"#utility.yul\":5511:5877   */\n      swap2\n      swap1\n      pop\n      jump\t// out\n        /* \"#utility.yul\":5957:7017   */\n    tag_230:\n        /* \"#utility.yul\":6080:6083   */\n      0x00\n        /* \"#utility.yul\":6116:6120   */\n      0x80\n        /* \"#utility.yul\":6111:6114   */\n      dup4\n        /* \"#utility.yul\":6107:6121   */\n      add\n        /* \"#utility.yul\":6208:6212   */\n      0x00\n        /* \"#utility.yul\":6201:6206   */\n      dup4\n        /* \"#utility.yul\":6197:6213   */\n      add\n        /* \"#utility.yul\":6191:6214   */\n      mload\n        /* \"#utility.yul\":6227:6290   */\n      tag_232\n        /* \"#utility.yul\":6284:6288   */\n      0x00\n        /* \"#utility.yul\":6279:6282   */\n      dup7\n        /* \"#utility.yul\":6275:6289   */\n      add\n        /* \"#utility.yul\":6261:6273   */\n      dup3\n        /* \"#utility.yul\":6227:6290   */\n      tag_233\n      jump\t// in\n    tag_232:\n        /* \"#utility.yul\":6131:6300   */\n      pop\n        /* \"#utility.yul\":6390:6394   */\n      0x20\n        /* \"#utility.yul\":6383:6388   */\n      dup4\n        /* \"#utility.yul\":6379:6395   */\n      add\n        /* \"#utility.yul\":6373:6396   */\n      mload\n        /* \"#utility.yul\":6443:6446   */\n      dup5\n        /* \"#utility.yul\":6437:6441   */\n      dup3\n        /* \"#utility.yul\":6433:6447   */\n      sub\n        /* \"#utility.yul\":6426:6430   */\n      0x20\n        /* \"#utility.yul\":6421:6424   */\n      dup7\n        /* \"#utility.yul\":6417:6431   */\n      add\n        /* \"#utility.yul\":6410:6448   */\n      mstore\n        /* \"#utility.yul\":6469:6542   */\n      tag_234\n        /* \"#utility.yul\":6537:6541   */\n      dup3\n        /* \"#utility.yul\":6523:6535   */\n      dup3\n        /* \"#utility.yul\":6469:6542   */\n      tag_185\n      jump\t// in\n    tag_234:\n        /* \"#utility.yul\":6461:6542   */\n      swap2\n      pop\n        /* \"#utility.yul\":6310:6553   */\n      pop\n        /* \"#utility.yul\":6641:6645   */\n      0x40\n        /* \"#utility.yul\":6634:6639   */\n      dup4\n        /* \"#utility.yul\":6630:6646   */\n      add\n        /* \"#utility.yul\":6624:6647   */\n      mload\n        /* \"#utility.yul\":6694:6697   */\n      dup5\n        /* \"#utility.yul\":6688:6692   */\n      dup3\n        /* \"#utility.yul\":6684:6698   */\n      sub\n        /* \"#utility.yul\":6677:6681   */\n      0x40\n        /* \"#utility.yul\":6672:6675   */\n      dup7\n        /* \"#utility.yul\":6668:6682   */\n      add\n        /* \"#utility.yul\":6661:6699   */\n      mstore\n        /* \"#utility.yul\":6720:6793   */\n      tag_235\n        /* \"#utility.yul\":6788:6792   */\n      dup3\n        /* \"#utility.yul\":6774:6786   */\n      dup3\n        /* \"#utility.yul\":6720:6793   */\n      tag_185\n      jump\t// in\n    tag_235:\n        /* \"#utility.yul\":6712:6793   */\n      swap2\n      pop\n        /* \"#utility.yul\":6563:6804   */\n      pop\n        /* \"#utility.yul\":6898:6902   */\n      0x60\n        /* \"#utility.yul\":6891:6896   */\n      dup4\n        /* \"#utility.yul\":6887:6903   */\n      add\n        /* \"#utility.yul\":6881:6904   */\n      mload\n        /* \"#utility.yul\":6917:6980   */\n      tag_236\n        /* \"#utility.yul\":6974:6978   */\n      0x60\n        /* \"#utility.yul\":6969:6972   */\n      dup7\n        /* \"#utility.yul\":6965:6979   */\n      add\n        /* \"#utility.yul\":6951:6963   */\n      dup3\n        /* \"#utility.yul\":6917:6980   */\n      tag_233\n      jump\t// in\n    tag_236:\n        /* \"#utility.yul\":6814:6990   */\n      pop\n        /* \"#utility.yul\":7007:7011   */\n      dup1\n        /* \"#utility.yul\":7000:7011   */\n      swap2\n      pop\n        /* \"#utility.yul\":6085:7017   */\n      pop\n        /* \"#utility.yul\":5957:7017   */\n      swap3\n      swap2\n      pop\n      pop\n      jump\t// out\n        /* \"#utility.yul\":7023:7131   */\n    tag_233:\n        /* \"#utility.yul\":7100:7124   */\n      tag_238\n        /* \"#utility.yul\":7118:7123   */\n      dup2\n        /* \"#utility.yul\":7100:7124   */\n      tag_239\n      jump\t// in\n    tag_238:\n        /* \"#utility.yul\":7095:7098   */\n      dup3\n        /* \"#utility.yul\":7088:7125   */\n      mstore\n        /* \"#utility.yul\":7023:7131   */\n      pop\n      pop\n      jump\t// out\n        /* \"#utility.yul\":7137:7255   */\n    tag_240:\n        /* \"#utility.yul\":7224:7248   */\n      tag_242\n        /* \"#utility.yul\":7242:7247   */\n      dup2\n        /* \"#utility.yul\":7224:7248   */\n      tag_239\n      jump\t// in\n    tag_242:\n        /* \"#utility.yul\":7219:7222   */\n      dup3\n        /* \"#utility.yul\":7212:7249   */\n      mstore\n        /* \"#utility.yul\":7137:7255   */\n      pop\n      pop\n      jump\t// out\n        /* \"#utility.yul\":7261:7530   */\n    tag_110:\n        /* \"#utility.yul\":7390:7393   */\n      0x00\n        /* \"#utility.yul\":7412:7504   */\n      tag_244\n        /* \"#utility.yul\":7500:7503   */\n      dup3\n        /* \"#utility.yul\":7491:7497   */\n      dup5\n        /* \"#utility.yul\":7412:7504   */\n      tag_202\n      jump\t// in\n    tag_244:\n        /* \"#utility.yul\":7405:7504   */\n      swap2\n      pop\n        /* \"#utility.yul\":7521:7524   */\n      dup2\n        /* \"#utility.yul\":7514:7524   */\n      swap1\n      pop\n        /* \"#utility.yul\":7261:7530   */\n      swap3\n      swap2\n      pop\n      pop\n      jump\t// out\n        /* \"#utility.yul\":7536:7909   */\n    tag_41:\n        /* \"#utility.yul\":7679:7683   */\n      0x00\n        /* \"#utility.yul\":7717:7719   */\n      0x20\n        /* \"#utility.yul\":7706:7715   */\n      dup3\n        /* \"#utility.yul\":7702:7720   */\n      add\n        /* \"#utility.yul\":7694:7720   */\n      swap1\n      pop\n        /* \"#utility.yul\":7766:7775   */\n      dup2\n        /* \"#utility.yul\":7760:7764   */\n      dup2\n        /* \"#utility.yul\":7756:7776   */\n      sub\n        /* \"#utility.yul\":7752:7753   */\n      0x00\n        /* \"#utility.yul\":7741:7750   */\n      dup4\n        /* \"#utility.yul\":7737:7754   */\n      add\n        /* \"#utility.yul\":7730:7777   */\n      mstore\n        /* \"#utility.yul\":7794:7902   */\n      tag_246\n        /* \"#utility.yul\":7897:7901   */\n      dup2\n        /* \"#utility.yul\":7888:7894   */\n      dup5\n        /* \"#utility.yul\":7794:7902   */\n      tag_171\n      jump\t// in\n    tag_246:\n        /* \"#utility.yul\":7786:7902   */\n      swap1\n      pop\n        /* \"#utility.yul\":7536:7909   */\n      swap3\n      swap2\n      pop\n      pop\n      jump\t// out\n        /* \"#utility.yul\":7915:8228   */\n    tag_30:\n        /* \"#utility.yul\":8028:8032   */\n      0x00\n        /* \"#utility.yul\":8066:8068   */\n      0x20\n        /* \"#utility.yul\":8055:8064   */\n      dup3\n        /* \"#utility.yul\":8051:8069   */\n      add\n        /* \"#utility.yul\":8043:8069   */\n      swap1\n      pop\n        /* \"#utility.yul\":8115:8124   */\n      dup2\n        /* \"#utility.yul\":8109:8113   */\n      dup2\n        /* \"#utility.yul\":8105:8125   */\n      sub\n        /* \"#utility.yul\":8101:8102   */\n      0x00\n        /* \"#utility.yul\":8090:8099   */\n      dup4\n        /* \"#utility.yul\":8086:8103   */\n      add\n        /* \"#utility.yul\":8079:8126   */\n      mstore\n        /* \"#utility.yul\":8143:8221   */\n      tag_248\n        /* \"#utility.yul\":8216:8220   */\n      dup2\n        /* \"#utility.yul\":8207:8213   */\n      dup5\n        /* \"#utility.yul\":8143:8221   */\n      tag_195\n      jump\t// in\n    tag_248:\n        /* \"#utility.yul\":8135:8221   */\n      swap1\n      pop\n        /* \"#utility.yul\":7915:8228   */\n      swap3\n      swap2\n      pop\n      pop\n      jump\t// out\n        /* \"#utility.yul\":8234:8858   */\n    tag_112:\n        /* \"#utility.yul\":8423:8427   */\n      0x00\n        /* \"#utility.yul\":8461:8463   */\n      0x60\n        /* \"#utility.yul\":8450:8459   */\n      dup3\n        /* \"#utility.yul\":8446:8464   */\n      add\n        /* \"#utility.yul\":8438:8464   */\n      swap1\n      pop\n        /* \"#utility.yul\":8510:8519   */\n      dup2\n        /* \"#utility.yul\":8504:8508   */\n      dup2\n        /* \"#utility.yul\":8500:8520   */\n      sub\n        /* \"#utility.yul\":8496:8497   */\n      0x00\n        /* \"#utility.yul\":8485:8494   */\n      dup4\n        /* \"#utility.yul\":8481:8498   */\n      add\n        /* \"#utility.yul\":8474:8521   */\n      mstore\n        /* \"#utility.yul\":8538:8616   */\n      tag_250\n        /* \"#utility.yul\":8611:8615   */\n      dup2\n        /* \"#utility.yul\":8602:8608   */\n      dup7\n        /* \"#utility.yul\":8538:8616   */\n      tag_195\n      jump\t// in\n    tag_250:\n        /* \"#utility.yul\":8530:8616   */\n      swap1\n      pop\n        /* \"#utility.yul\":8663:8672   */\n      dup2\n        /* \"#utility.yul\":8657:8661   */\n      dup2\n        /* \"#utility.yul\":8653:8673   */\n      sub\n        /* \"#utility.yul\":8648:8650   */\n      0x20\n        /* \"#utility.yul\":8637:8646   */\n      dup4\n        /* \"#utility.yul\":8633:8651   */\n      add\n        /* \"#utility.yul\":8626:8674   */\n      mstore\n        /* \"#utility.yul\":8691:8769   */\n      tag_251\n        /* \"#utility.yul\":8764:8768   */\n      dup2\n        /* \"#utility.yul\":8755:8761   */\n      dup6\n        /* \"#utility.yul\":8691:8769   */\n      tag_195\n      jump\t// in\n    tag_251:\n        /* \"#utility.yul\":8683:8769   */\n      swap1\n      pop\n        /* \"#utility.yul\":8779:8851   */\n      tag_252\n        /* \"#utility.yul\":8847:8849   */\n      0x40\n        /* \"#utility.yul\":8836:8845   */\n      dup4\n        /* \"#utility.yul\":8832:8850   */\n      add\n        /* \"#utility.yul\":8823:8829   */\n      dup5\n        /* \"#utility.yul\":8779:8851   */\n      tag_240\n      jump\t// in\n    tag_252:\n        /* \"#utility.yul\":8234:8858   */\n      swap5\n      swap4\n      pop\n      pop\n      pop\n      pop\n      jump\t// out\n        /* \"#utility.yul\":8864:9283   */\n    tag_16:\n        /* \"#utility.yul\":9030:9034   */\n      0x00\n        /* \"#utility.yul\":9068:9070   */\n      0x20\n        /* \"#utility.yul\":9057:9066   */\n      dup3\n        /* \"#utility.yul\":9053:9071   */\n      add\n        /* \"#utility.yul\":9045:9071   */\n      swap1\n      pop\n        /* \"#utility.yul\":9117:9126   */\n      dup2\n        /* \"#utility.yul\":9111:9115   */\n      dup2\n        /* \"#utility.yul\":9107:9127   */\n      sub\n        /* \"#utility.yul\":9103:9104   */\n      0x00\n        /* \"#utility.yul\":9092:9101   */\n      dup4\n        /* \"#utility.yul\":9088:9105   */\n      add\n        /* \"#utility.yul\":9081:9128   */\n      mstore\n        /* \"#utility.yul\":9145:9276   */\n      tag_254\n        /* \"#utility.yul\":9271:9275   */\n      dup2\n        /* \"#utility.yul\":9145:9276   */\n      tag_215\n      jump\t// in\n    tag_254:\n        /* \"#utility.yul\":9137:9276   */\n      swap1\n      pop\n        /* \"#utility.yul\":8864:9283   */\n      swap2\n      swap1\n      pop\n      jump\t// out\n        /* \"#utility.yul\":9289:9708   */\n    tag_64:\n        /* \"#utility.yul\":9455:9459   */\n      0x00\n        /* \"#utility.yul\":9493:9495   */\n      0x20\n        /* \"#utility.yul\":9482:9491   */\n      dup3\n        /* \"#utility.yul\":9478:9496   */\n      add\n        /* \"#utility.yul\":9470:9496   */\n      swap1\n      pop\n        /* \"#utility.yul\":9542:9551   */\n      dup2\n        /* \"#utility.yul\":9536:9540   */\n      dup2\n        /* \"#utility.yul\":9532:9552   */\n      sub\n        /* \"#utility.yul\":9528:9529   */\n      0x00\n        /* \"#utility.yul\":9517:9526   */\n      dup4\n        /* \"#utility.yul\":9513:9530   */\n      add\n        /* \"#utility.yul\":9506:9553   */\n      mstore\n        /* \"#utility.yul\":9570:9701   */\n      tag_256\n        /* \"#utility.yul\":9696:9700   */\n      dup2\n        /* \"#utility.yul\":9570:9701   */\n      tag_220\n      jump\t// in\n    tag_256:\n        /* \"#utility.yul\":9562:9701   */\n      swap1\n      pop\n        /* \"#utility.yul\":9289:9708   */\n      swap2\n      swap1\n      pop\n      jump\t// out\n        /* \"#utility.yul\":9714:10133   */\n    tag_90:\n        /* \"#utility.yul\":9880:9884   */\n      0x00\n        /* \"#utility.yul\":9918:9920   */\n      0x20\n        /* \"#utility.yul\":9907:9916   */\n      dup3\n        /* \"#utility.yul\":9903:9921   */\n      add\n        /* \"#utility.yul\":9895:9921   */\n      swap1\n      pop\n        /* \"#utility.yul\":9967:9976   */\n      dup2\n        /* \"#utility.yul\":9961:9965   */\n      dup2\n        /* \"#utility.yul\":9957:9977   */\n      sub\n        /* \"#utility.yul\":9953:9954   */\n      0x00\n        /* \"#utility.yul\":9942:9951   */\n      dup4\n        /* \"#utility.yul\":9938:9955   */\n      add\n        /* \"#utility.yul\":9931:9978   */\n      mstore\n        /* \"#utility.yul\":9995:10126   */\n      tag_258\n        /* \"#utility.yul\":10121:10125   */\n      dup2\n        /* \"#utility.yul\":9995:10126   */\n      tag_225\n      jump\t// in\n    tag_258:\n        /* \"#utility.yul\":9987:10126   */\n      swap1\n      pop\n        /* \"#utility.yul\":9714:10133   */\n      swap2\n      swap1\n      pop\n      jump\t// out\n        /* \"#utility.yul\":10139:10520   */\n    tag_48:\n        /* \"#utility.yul\":10286:10290   */\n      0x00\n        /* \"#utility.yul\":10324:10326   */\n      0x20\n        /* \"#utility.yul\":10313:10322   */\n      dup3\n        /* \"#utility.yul\":10309:10327   */\n      add\n        /* \"#utility.yul\":10301:10327   */\n      swap1\n      pop\n        /* \"#utility.yul\":10373:10382   */\n      dup2\n        /* \"#utility.yul\":10367:10371   */\n      dup2\n        /* \"#utility.yul\":10363:10383   */\n      sub\n        /* \"#utility.yul\":10359:10360   */\n      0x00\n        /* \"#utility.yul\":10348:10357   */\n      dup4\n        /* \"#utility.yul\":10344:10361   */\n      add\n        /* \"#utility.yul\":10337:10384   */\n      mstore\n        /* \"#utility.yul\":10401:10513   */\n      tag_260\n        /* \"#utility.yul\":10508:10512   */\n      dup2\n        /* \"#utility.yul\":10499:10505   */\n      dup5\n        /* \"#utility.yul\":10401:10513   */\n      tag_230\n      jump\t// in\n    tag_260:\n        /* \"#utility.yul\":10393:10513   */\n      swap1\n      pop\n        /* \"#utility.yul\":10139:10520   */\n      swap3\n      swap2\n      pop\n      pop\n      jump\t// out\n        /* \"#utility.yul\":10526:10748   */\n    tag_25:\n        /* \"#utility.yul\":10619:10623   */\n      0x00\n        /* \"#utility.yul\":10657:10659   */\n      0x20\n        /* \"#utility.yul\":10646:10655   */\n      dup3\n        /* \"#utility.yul\":10642:10660   */\n      add\n        /* \"#utility.yul\":10634:10660   */\n      swap1\n      pop\n        /* \"#utility.yul\":10670:10741   */\n      tag_262\n        /* \"#utility.yul\":10738:10739   */\n      0x00\n        /* \"#utility.yul\":10727:10736   */\n      dup4\n        /* \"#utility.yul\":10723:10740   */\n      add\n        /* \"#utility.yul\":10714:10720   */\n      dup5\n        /* \"#utility.yul\":10670:10741   */\n      tag_240\n      jump\t// in\n    tag_262:\n        /* \"#utility.yul\":10526:10748   */\n      swap3\n      swap2\n      pop\n      pop\n      jump\t// out\n        /* \"#utility.yul\":10754:10883   */\n    tag_133:\n        /* \"#utility.yul\":10788:10794   */\n      0x00\n        /* \"#utility.yul\":10815:10835   */\n      tag_264\n      tag_265\n      jump\t// in\n    tag_264:\n        /* \"#utility.yul\":10805:10835   */\n      swap1\n      pop\n        /* \"#utility.yul\":10844:10877   */\n      tag_266\n        /* \"#utility.yul\":10872:10876   */\n      dup3\n        /* \"#utility.yul\":10864:10870   */\n      dup3\n        /* \"#utility.yul\":10844:10877   */\n      tag_267\n      jump\t// in\n    tag_266:\n        /* \"#utility.yul\":10754:10883   */\n      swap2\n      swap1\n      pop\n      jump\t// out\n        /* \"#utility.yul\":10889:10964   */\n    tag_265:\n        /* \"#utility.yul\":10922:10928   */\n      0x00\n        /* \"#utility.yul\":10955:10957   */\n      0x40\n        /* \"#utility.yul\":10949:10958   */\n      mload\n        /* \"#utility.yul\":10939:10958   */\n      swap1\n      pop\n        /* \"#utility.yul\":10889:10964   */\n      swap1\n      jump\t// out\n        /* \"#utility.yul\":10970:11278   */\n    tag_132:\n        /* \"#utility.yul\":11032:11036   */\n      0x00\n        /* \"#utility.yul\":11122:11140   */\n      0xffffffffffffffff\n        /* \"#utility.yul\":11114:11120   */\n      dup3\n        /* \"#utility.yul\":11111:11141   */\n      gt\n        /* \"#utility.yul\":11108:11164   */\n      iszero\n      tag_270\n      jumpi\n        /* \"#utility.yul\":11144:11162   */\n      tag_271\n      tag_75\n      jump\t// in\n    tag_271:\n        /* \"#utility.yul\":11108:11164   */\n    tag_270:\n        /* \"#utility.yul\":11182:11211   */\n      tag_272\n        /* \"#utility.yul\":11204:11210   */\n      dup3\n        /* \"#utility.yul\":11182:11211   */\n      tag_194\n      jump\t// in\n    tag_272:\n        /* \"#utility.yul\":11174:11211   */\n      swap1\n      pop\n        /* \"#utility.yul\":11266:11270   */\n      0x20\n        /* \"#utility.yul\":11260:11264   */\n      dup2\n        /* \"#utility.yul\":11256:11271   */\n      add\n        /* \"#utility.yul\":11248:11271   */\n      swap1\n      pop\n        /* \"#utility.yul\":10970:11278   */\n      swap2\n      swap1\n      pop\n      jump\t// out\n        /* \"#utility.yul\":11284:11416   */\n    tag_178:\n        /* \"#utility.yul\":11351:11355   */\n      0x00\n        /* \"#utility.yul\":11374:11377   */\n      dup2\n        /* \"#utility.yul\":11366:11377   */\n      swap1\n      pop\n        /* \"#utility.yul\":11404:11408   */\n      0x20\n        /* \"#utility.yul\":11399:11402   */\n      dup3\n        /* \"#utility.yul\":11395:11409   */\n      add\n        /* \"#utility.yul\":11387:11409   */\n      swap1\n      pop\n        /* \"#utility.yul\":11284:11416   */\n      swap2\n      swap1\n      pop\n      jump\t// out\n        /* \"#utility.yul\":11422:11563   */\n    tag_211:\n        /* \"#utility.yul\":11471:11475   */\n      0x00\n        /* \"#utility.yul\":11494:11497   */\n      dup2\n        /* \"#utility.yul\":11486:11497   */\n      swap1\n      pop\n        /* \"#utility.yul\":11517:11520   */\n      dup2\n        /* \"#utility.yul\":11514:11515   */\n      0x00\n        /* \"#utility.yul\":11507:11521   */\n      mstore\n        /* \"#utility.yul\":11551:11555   */\n      0x20\n        /* \"#utility.yul\":11548:11549   */\n      0x00\n        /* \"#utility.yul\":11538:11556   */\n      keccak256\n        /* \"#utility.yul\":11530:11556   */\n      swap1\n      pop\n        /* \"#utility.yul\":11422:11563   */\n      swap2\n      swap1\n      pop\n      jump\t// out\n        /* \"#utility.yul\":11569:11683   */\n    tag_174:\n        /* \"#utility.yul\":11636:11642   */\n      0x00\n        /* \"#utility.yul\":11670:11675   */\n      dup2\n        /* \"#utility.yul\":11664:11676   */\n      mload\n        /* \"#utility.yul\":11654:11676   */\n      swap1\n      pop\n        /* \"#utility.yul\":11569:11683   */\n      swap2\n      swap1\n      pop\n      jump\t// out\n        /* \"#utility.yul\":11689:11788   */\n    tag_188:\n        /* \"#utility.yul\":11741:11747   */\n      0x00\n        /* \"#utility.yul\":11775:11780   */\n      dup2\n        /* \"#utility.yul\":11769:11781   */\n      mload\n        /* \"#utility.yul\":11759:11781   */\n      swap1\n      pop\n        /* \"#utility.yul\":11689:11788   */\n      swap2\n      swap1\n      pop\n      jump\t// out\n        /* \"#utility.yul\":11794:11907   */\n    tag_184:\n        /* \"#utility.yul\":11864:11868   */\n      0x00\n        /* \"#utility.yul\":11896:11900   */\n      0x20\n        /* \"#utility.yul\":11891:11894   */\n      dup3\n        /* \"#utility.yul\":11887:11901   */\n      add\n        /* \"#utility.yul\":11879:11901   */\n      swap1\n      pop\n        /* \"#utility.yul\":11794:11907   */\n      swap2\n      swap1\n      pop\n      jump\t// out\n        /* \"#utility.yul\":11913:12097   */\n    tag_176:\n        /* \"#utility.yul\":12012:12023   */\n      0x00\n        /* \"#utility.yul\":12046:12052   */\n      dup3\n        /* \"#utility.yul\":12041:12044   */\n      dup3\n        /* \"#utility.yul\":12034:12053   */\n      mstore\n        /* \"#utility.yul\":12086:12090   */\n      0x20\n        /* \"#utility.yul\":12081:12084   */\n      dup3\n        /* \"#utility.yul\":12077:12091   */\n      add\n        /* \"#utility.yul\":12062:12091   */\n      swap1\n      pop\n        /* \"#utility.yul\":11913:12097   */\n      swap3\n      swap2\n      pop\n      pop\n      jump\t// out\n        /* \"#utility.yul\":12103:12262   */\n    tag_190:\n        /* \"#utility.yul\":12177:12188   */\n      0x00\n        /* \"#utility.yul\":12211:12217   */\n      dup3\n        /* \"#utility.yul\":12206:12209   */\n      dup3\n        /* \"#utility.yul\":12199:12218   */\n      mstore\n        /* \"#utility.yul\":12251:12255   */\n      0x20\n        /* \"#utility.yul\":12246:12249   */\n      dup3\n        /* \"#utility.yul\":12242:12256   */\n      add\n        /* \"#utility.yul\":12227:12256   */\n      swap1\n      pop\n        /* \"#utility.yul\":12103:12262   */\n      swap3\n      swap2\n      pop\n      pop\n      jump\t// out\n        /* \"#utility.yul\":12268:12437   */\n    tag_199:\n        /* \"#utility.yul\":12352:12363   */\n      0x00\n        /* \"#utility.yul\":12386:12392   */\n      dup3\n        /* \"#utility.yul\":12381:12384   */\n      dup3\n        /* \"#utility.yul\":12374:12393   */\n      mstore\n        /* \"#utility.yul\":12426:12430   */\n      0x20\n        /* \"#utility.yul\":12421:12424   */\n      dup3\n        /* \"#utility.yul\":12417:12431   */\n      add\n        /* \"#utility.yul\":12402:12431   */\n      swap1\n      pop\n        /* \"#utility.yul\":12268:12437   */\n      swap3\n      swap2\n      pop\n      pop\n      jump\t// out\n        /* \"#utility.yul\":12443:12591   */\n    tag_206:\n        /* \"#utility.yul\":12545:12556   */\n      0x00\n        /* \"#utility.yul\":12582:12585   */\n      dup2\n        /* \"#utility.yul\":12567:12585   */\n      swap1\n      pop\n        /* \"#utility.yul\":12443:12591   */\n      swap3\n      swap2\n      pop\n      pop\n      jump\t// out\n        /* \"#utility.yul\":12597:12693   */\n    tag_170:\n        /* \"#utility.yul\":12634:12641   */\n      0x00\n        /* \"#utility.yul\":12663:12687   */\n      tag_283\n        /* \"#utility.yul\":12681:12686   */\n      dup3\n        /* \"#utility.yul\":12663:12687   */\n      tag_284\n      jump\t// in\n    tag_283:\n        /* \"#utility.yul\":12652:12687   */\n      swap1\n      pop\n        /* \"#utility.yul\":12597:12693   */\n      swap2\n      swap1\n      pop\n      jump\t// out\n        /* \"#utility.yul\":12699:12825   */\n    tag_284:\n        /* \"#utility.yul\":12736:12743   */\n      0x00\n        /* \"#utility.yul\":12776:12818   */\n      0xffffffffffffffffffffffffffffffffffffffff\n        /* \"#utility.yul\":12769:12774   */\n      dup3\n        /* \"#utility.yul\":12765:12819   */\n      and\n        /* \"#utility.yul\":12754:12819   */\n      swap1\n      pop\n        /* \"#utility.yul\":12699:12825   */\n      swap2\n      swap1\n      pop\n      jump\t// out\n        /* \"#utility.yul\":12831:12908   */\n    tag_239:\n        /* \"#utility.yul\":12868:12875   */\n      0x00\n        /* \"#utility.yul\":12897:12902   */\n      dup2\n        /* \"#utility.yul\":12886:12902   */\n      swap1\n      pop\n        /* \"#utility.yul\":12831:12908   */\n      swap2\n      swap1\n      pop\n      jump\t// out\n        /* \"#utility.yul\":12914:13068   */\n    tag_138:\n        /* \"#utility.yul\":12998:13004   */\n      dup3\n        /* \"#utility.yul\":12993:12996   */\n      dup2\n        /* \"#utility.yul\":12988:12991   */\n      dup4\n        /* \"#utility.yul\":12975:13005   */\n      calldatacopy\n        /* \"#utility.yul\":13060:13061   */\n      0x00\n        /* \"#utility.yul\":13051:13057   */\n      dup4\n        /* \"#utility.yul\":13046:13049   */\n      dup4\n        /* \"#utility.yul\":13042:13058   */\n      add\n        /* \"#utility.yul\":13035:13062   */\n      mstore\n        /* \"#utility.yul\":12914:13068   */\n      pop\n      pop\n      pop\n      jump\t// out\n        /* \"#utility.yul\":13074:13381   */\n    tag_192:\n        /* \"#utility.yul\":13142:13143   */\n      0x00\n        /* \"#utility.yul\":13152:13265   */\n    tag_289:\n        /* \"#utility.yul\":13166:13172   */\n      dup4\n        /* \"#utility.yul\":13163:13164   */\n      dup2\n        /* \"#utility.yul\":13160:13173   */\n      lt\n        /* \"#utility.yul\":13152:13265   */\n      iszero\n      tag_291\n      jumpi\n        /* \"#utility.yul\":13251:13252   */\n      dup1\n        /* \"#utility.yul\":13246:13249   */\n      dup3\n        /* \"#utility.yul\":13242:13253   */\n      add\n        /* \"#utility.yul\":13236:13254   */\n      mload\n        /* \"#utility.yul\":13232:13233   */\n      dup2\n        /* \"#utility.yul\":13227:13230   */\n      dup5\n        /* \"#utility.yul\":13223:13234   */\n      add\n        /* \"#utility.yul\":13216:13255   */\n      mstore\n        /* \"#utility.yul\":13188:13190   */\n      0x20\n        /* \"#utility.yul\":13185:13186   */\n      dup2\n        /* \"#utility.yul\":13181:13191   */\n      add\n        /* \"#utility.yul\":13176:13191   */\n      swap1\n      pop\n        /* \"#utility.yul\":13152:13265   */\n      jump(tag_289)\n    tag_291:\n        /* \"#utility.yul\":13283:13289   */\n      dup4\n        /* \"#utility.yul\":13280:13281   */\n      dup2\n        /* \"#utility.yul\":13277:13290   */\n      gt\n        /* \"#utility.yul\":13274:13375   */\n      iszero\n      tag_292\n      jumpi\n        /* \"#utility.yul\":13363:13364   */\n      0x00\n        /* \"#utility.yul\":13354:13360   */\n      dup5\n        /* \"#utility.yul\":13349:13352   */\n      dup5\n        /* \"#utility.yul\":13345:13361   */\n      add\n        /* \"#utility.yul\":13338:13365   */\n      mstore\n        /* \"#utility.yul\":13274:13375   */\n    tag_292:\n        /* \"#utility.yul\":13123:13381   */\n      pop\n        /* \"#utility.yul\":13074:13381   */\n      pop\n      pop\n      pop\n      jump\t// out\n        /* \"#utility.yul\":13387:13707   */\n    tag_56:\n        /* \"#utility.yul\":13431:13437   */\n      0x00\n        /* \"#utility.yul\":13468:13469   */\n      0x02\n        /* \"#utility.yul\":13462:13466   */\n      dup3\n        /* \"#utility.yul\":13458:13470   */\n      div\n        /* \"#utility.yul\":13448:13470   */\n      swap1\n      pop\n        /* \"#utility.yul\":13515:13516   */\n      0x01\n        /* \"#utility.yul\":13509:13513   */\n      dup3\n        /* \"#utility.yul\":13505:13517   */\n      and\n        /* \"#utility.yul\":13536:13554   */\n      dup1\n        /* \"#utility.yul\":13526:13607   */\n      tag_294\n      jumpi\n        /* \"#utility.yul\":13592:13596   */\n      0x7f\n        /* \"#utility.yul\":13584:13590   */\n      dup3\n        /* \"#utility.yul\":13580:13597   */\n      and\n        /* \"#utility.yul\":13570:13597   */\n      swap2\n      pop\n        /* \"#utility.yul\":13526:13607   */\n    tag_294:\n        /* \"#utility.yul\":13654:13656   */\n      0x20\n        /* \"#utility.yul\":13646:13652   */\n      dup3\n        /* \"#utility.yul\":13643:13657   */\n      lt\n        /* \"#utility.yul\":13623:13641   */\n      dup2\n        /* \"#utility.yul\":13620:13658   */\n      eq\n        /* \"#utility.yul\":13617:13701   */\n      iszero\n      tag_295\n      jumpi\n        /* \"#utility.yul\":13673:13691   */\n      tag_296\n      tag_297\n      jump\t// in\n    tag_296:\n        /* \"#utility.yul\":13617:13701   */\n    tag_295:\n        /* \"#utility.yul\":13438:13707   */\n      pop\n        /* \"#utility.yul\":13387:13707   */\n      swap2\n      swap1\n      pop\n      jump\t// out\n        /* \"#utility.yul\":13713:13994   */\n    tag_267:\n        /* \"#utility.yul\":13796:13823   */\n      tag_299\n        /* \"#utility.yul\":13818:13822   */\n      dup3\n        /* \"#utility.yul\":13796:13823   */\n      tag_194\n      jump\t// in\n    tag_299:\n        /* \"#utility.yul\":13788:13794   */\n      dup2\n        /* \"#utility.yul\":13784:13824   */\n      add\n        /* \"#utility.yul\":13926:13932   */\n      dup2\n        /* \"#utility.yul\":13914:13924   */\n      dup2\n        /* \"#utility.yul\":13911:13933   */\n      lt\n        /* \"#utility.yul\":13890:13908   */\n      0xffffffffffffffff\n        /* \"#utility.yul\":13878:13888   */\n      dup3\n        /* \"#utility.yul\":13875:13909   */\n      gt\n        /* \"#utility.yul\":13872:13934   */\n      or\n        /* \"#utility.yul\":13869:13957   */\n      iszero\n      tag_300\n      jumpi\n        /* \"#utility.yul\":13937:13955   */\n      tag_301\n      tag_75\n      jump\t// in\n    tag_301:\n        /* \"#utility.yul\":13869:13957   */\n    tag_300:\n        /* \"#utility.yul\":13977:13987   */\n      dup1\n        /* \"#utility.yul\":13973:13975   */\n      0x40\n        /* \"#utility.yul\":13966:13988   */\n      mstore\n        /* \"#utility.yul\":13756:13994   */\n      pop\n        /* \"#utility.yul\":13713:13994   */\n      pop\n      pop\n      jump\t// out\n        /* \"#utility.yul\":14000:14233   */\n    tag_84:\n        /* \"#utility.yul\":14039:14042   */\n      0x00\n        /* \"#utility.yul\":14062:14086   */\n      tag_303\n        /* \"#utility.yul\":14080:14085   */\n      dup3\n        /* \"#utility.yul\":14062:14086   */\n      tag_239\n      jump\t// in\n    tag_303:\n        /* \"#utility.yul\":14053:14086   */\n      swap2\n      pop\n        /* \"#utility.yul\":14108:14174   */\n      0xffffffffffffffffffffffffffffffffffffffffffffffffffffffffffffffff\n        /* \"#utility.yul\":14101:14106   */\n      dup3\n        /* \"#utility.yul\":14098:14175   */\n      eq\n        /* \"#utility.yul\":14095:14198   */\n      iszero\n      tag_304\n      jumpi\n        /* \"#utility.yul\":14178:14196   */\n      tag_305\n      tag_306\n      jump\t// in\n    tag_305:\n        /* \"#utility.yul\":14095:14198   */\n    tag_304:\n        /* \"#utility.yul\":14225:14226   */\n      0x01\n        /* \"#utility.yul\":14218:14223   */\n      dup3\n        /* \"#utility.yul\":14214:14227   */\n      add\n        /* \"#utility.yul\":14207:14227   */\n      swap1\n      pop\n        /* \"#utility.yul\":14000:14233   */\n      swap2\n      swap1\n      pop\n      jump\t// out\n        /* \"#utility.yul\":14239:14419   */\n    tag_306:\n        /* \"#utility.yul\":14287:14364   */\n      0x4e487b7100000000000000000000000000000000000000000000000000000000\n        /* \"#utility.yul\":14284:14285   */\n      0x00\n        /* \"#utility.yul\":14277:14365   */\n      mstore\n        /* \"#utility.yul\":14384:14388   */\n      0x11\n        /* \"#utility.yul\":14381:14382   */\n      0x04\n        /* \"#utility.yul\":14374:14389   */\n      mstore\n        /* \"#utility.yul\":14408:14412   */\n      0x24\n        /* \"#utility.yul\":14405:14406   */\n      0x00\n        /* \"#utility.yul\":14398:14413   */\n      revert\n        /* \"#utility.yul\":14425:14605   */\n    tag_297:\n        /* \"#utility.yul\":14473:14550   */\n      0x4e487b7100000000000000000000000000000000000000000000000000000000\n        /* \"#utility.yul\":14470:14471   */\n      0x00\n        /* \"#utility.yul\":14463:14551   */\n      mstore\n        /* \"#utility.yul\":14570:14574   */\n      0x22\n        /* \"#utility.yul\":14567:14568   */\n      0x04\n        /* \"#utility.yul\":14560:14575   */\n      mstore\n        /* \"#utility.yul\":14594:14598   */\n      0x24\n        /* \"#utility.yul\":14591:14592   */\n      0x00\n        /* \"#utility.yul\":14584:14599   */\n      revert\n        /* \"#utility.yul\":14611:14791   */\n    tag_82:\n        /* \"#utility.yul\":14659:14736   */\n      0x4e487b7100000000000000000000000000000000000000000000000000000000\n        /* \"#utility.yul\":14656:14657   */\n      0x00\n        /* \"#utility.yul\":14649:14737   */\n      mstore\n        /* \"#utility.yul\":14756:14760   */\n      0x32\n        /* \"#utility.yul\":14753:14754   */\n      0x04\n        /* \"#utility.yul\":14746:14761   */\n      mstore\n        /* \"#utility.yul\":14780:14784   */\n      0x24\n        /* \"#utility.yul\":14777:14778   */\n      0x00\n        /* \"#utility.yul\":14770:14785   */\n      revert\n        /* \"#utility.yul\":14797:14977   */\n    tag_75:\n        /* \"#utility.yul\":14845:14922   */\n      0x4e487b7100000000000000000000000000000000000000000000000000000000\n        /* \"#utility.yul\":14842:14843   */\n      0x00\n        /* \"#utility.yul\":14835:14923   */\n      mstore\n        /* \"#utility.yul\":14942:14946   */\n      0x41\n        /* \"#utility.yul\":14939:14940   */\n      0x04\n        /* \"#utility.yul\":14932:14947   */\n      mstore\n        /* \"#utility.yul\":14966:14970   */\n      0x24\n        /* \"#utility.yul\":14963:14964   */\n      0x00\n        /* \"#utility.yul\":14956:14971   */\n      revert\n        /* \"#utility.yul\":14983:15100   */\n    tag_143:\n        /* \"#utility.yul\":15092:15093   */\n      0x00\n        /* \"#utility.yul\":15089:15090   */\n      dup1\n        /* \"#utility.yul\":15082:15094   */\n      revert\n        /* \"#utility.yul\":15106:15223   */\n    tag_136:\n        /* \"#utility.yul\":15215:15216   */\n      0x00\n        /* \"#utility.yul\":15212:15213   */\n      dup1\n        /* \"#utility.yul\":15205:15217   */\n      revert\n        /* \"#utility.yul\":15229:15346   */\n    tag_155:\n        /* \"#utility.yul\":15338:15339   */\n      0x00\n        /* \"#utility.yul\":15335:15336   */\n      dup1\n        /* \"#utility.yul\":15328:15340   */\n      revert\n        /* \"#utility.yul\":15352:15469   */\n    tag_152:\n        /* \"#utility.yul\":15461:15462   */\n      0x00\n        /* \"#utility.yul\":15458:15459   */\n      dup1\n        /* \"#utility.yul\":15451:15463   */\n      revert\n        /* \"#utility.yul\":15475:15577   */\n    tag_194:\n        /* \"#utility.yul\":15516:15522   */\n      0x00\n        /* \"#utility.yul\":15567:15569   */\n      0x1f\n        /* \"#utility.yul\":15563:15570   */\n      not\n        /* \"#utility.yul\":15558:15560   */\n      0x1f\n        /* \"#utility.yul\":15551:15556   */\n      dup4\n        /* \"#utility.yul\":15547:15561   */\n      add\n        /* \"#utility.yul\":15543:15571   */\n      and\n        /* \"#utility.yul\":15533:15571   */\n      swap1\n      pop\n        /* \"#utility.yul\":15475:15577   */\n      swap2\n      swap1\n      pop\n      jump\t// out\n        /* \"#utility.yul\":15583:15813   */\n    tag_219:\n        /* \"#utility.yul\":15723:15757   */\n      0x5061796d656e742073686f756c64206265207468652073756273637269707469\n        /* \"#utility.yul\":15719:15720   */\n      0x00\n        /* \"#utility.yul\":15711:15717   */\n      dup3\n        /* \"#utility.yul\":15707:15721   */\n      add\n        /* \"#utility.yul\":15700:15758   */\n      mstore\n        /* \"#utility.yul\":15792:15805   */\n      0x6f6e20666565206f6e6c79000000000000000000000000000000000000000000\n        /* \"#utility.yul\":15787:15789   */\n      0x20\n        /* \"#utility.yul\":15779:15785   */\n      dup3\n        /* \"#utility.yul\":15775:15790   */\n      add\n        /* \"#utility.yul\":15768:15806   */\n      mstore\n        /* \"#utility.yul\":15583:15813   */\n      pop\n      jump\t// out\n        /* \"#utility.yul\":15819:16039   */\n    tag_224:\n        /* \"#utility.yul\":15959:15993   */\n      0x4f6e6c7920617574686f722063616e2063616c6c2074686973206d6574686f64\n        /* \"#utility.yul\":15955:15956   */\n      0x00\n        /* \"#utility.yul\":15947:15953   */\n      dup3\n        /* \"#utility.yul\":15943:15957   */\n      add\n        /* \"#utility.yul\":15936:15994   */\n      mstore\n        /* \"#utility.yul\":16028:16031   */\n      0x2100000000000000000000000000000000000000000000000000000000000000\n        /* \"#utility.yul\":16023:16025   */\n      0x20\n        /* \"#utility.yul\":16015:16021   */\n      dup3\n        /* \"#utility.yul\":16011:16026   */\n      add\n        /* \"#utility.yul\":16004:16032   */\n      mstore\n        /* \"#utility.yul\":15819:16039   */\n      pop\n      jump\t// out\n        /* \"#utility.yul\":16045:16218   */\n    tag_229:\n        /* \"#utility.yul\":16185:16210   */\n      0x4e6f7420612076616c69642061727469636c65204e6f2e000000000000000000\n        /* \"#utility.yul\":16181:16182   */\n      0x00\n        /* \"#utility.yul\":16173:16179   */\n      dup3\n        /* \"#utility.yul\":16169:16183   */\n      add\n        /* \"#utility.yul\":16162:16211   */\n      mstore\n        /* \"#utility.yul\":16045:16218   */\n      pop\n      jump\t// out\n        /* \"#utility.yul\":16224:16346   */\n    tag_148:\n        /* \"#utility.yul\":16297:16321   */\n      tag_320\n        /* \"#utility.yul\":16315:16320   */\n      dup2\n        /* \"#utility.yul\":16297:16321   */\n      tag_239\n      jump\t// in\n    tag_320:\n        /* \"#utility.yul\":16290:16295   */\n      dup2\n        /* \"#utility.yul\":16287:16322   */\n      eq\n        /* \"#utility.yul\":16277:16340   */\n      tag_321\n      jumpi\n        /* \"#utility.yul\":16336:16337   */\n      0x00\n        /* \"#utility.yul\":16333:16334   */\n      dup1\n        /* \"#utility.yul\":16326:16338   */\n      revert\n        /* \"#utility.yul\":16277:16340   */\n    tag_321:\n        /* \"#utility.yul\":16224:16346   */\n      pop\n      jump\t// out\n\n    auxdata: 0xa26469706673582212200b0465763e3e0f86f26dceea8b581f976f1fcac2af321210b5575dd3fa9f11d564736f6c63430008070033\n}\n",
				"bytecode": {
					"linkReferences": {},
					"object": "60806040523480156200001157600080fd5b506040516200177d3803806200177d833981810160405281019062000037919062000206565b33600460006101000a81548173ffffffffffffffffffffffffffffffffffffffff021916908373ffffffffffffffffffffffffffffffffffffffff160217905550633b9aca00826200008a9190620002cb565b6005819055508060069080519060200190620000a8929190620000c1565b50600060018190555060006003819055505050620004a4565b828054620000cf906200036c565b90600052602060002090601f016020900481019282620000f357600085556200013f565b82601f106200010e57805160ff19168380011785556200013f565b828001600101855582156200013f579182015b828111156200013e57825182559160200191906001019062000121565b5b5090506200014e919062000152565b5090565b5b808211156200016d57600081600090555060010162000153565b5090565b600062000188620001828462000295565b6200026c565b905082815260208101848484011115620001a757620001a66200046a565b5b620001b484828562000336565b509392505050565b600082601f830112620001d457620001d362000465565b5b8151620001e684826020860162000171565b91505092915050565b60008151905062000200816200048a565b92915050565b6000806040838503121562000220576200021f62000474565b5b60006200023085828601620001ef565b925050602083015167ffffffffffffffff8111156200025457620002536200046f565b5b6200026285828601620001bc565b9150509250929050565b6000620002786200028b565b9050620002868282620003a2565b919050565b6000604051905090565b600067ffffffffffffffff821115620002b357620002b262000436565b5b620002be8262000479565b9050602081019050919050565b6000620002d8826200032c565b9150620002e5836200032c565b9250817fffffffffffffffffffffffffffffffffffffffffffffffffffffffffffffffff0483118215151615620003215762000320620003d8565b5b828202905092915050565b6000819050919050565b60005b838110156200035657808201518184015260208101905062000339565b8381111562000366576000848401525b50505050565b600060028204905060018216806200038557607f821691505b602082108114156200039c576200039b62000407565b5b50919050565b620003ad8262000479565b810181811067ffffffffffffffff82111715620003cf57620003ce62000436565b5b80604052505050565b7f4e487b7100000000000000000000000000000000000000000000000000000000600052601160045260246000fd5b7f4e487b7100000000000000000000000000000000000000000000000000000000600052602260045260246000fd5b7f4e487b7100000000000000000000000000000000000000000000000000000000600052604160045260246000fd5b600080fd5b600080fd5b600080fd5b600080fd5b6000601f19601f8301169050919050565b62000495816200032c565b8114620004a157600080fd5b50565b6112c980620004b46000396000f3fe60806040526004361061007f5760003560e01c806382d69b621161004e57806382d69b621461019b57806385aca317146101c657806395961f0514610203578063be2919991461021f576100ca565b80630aa0a175146101105780632443877c1461013b578063534844a214610166578063625b1ebe14610170576100ca565b366100ca5760055434146100c8576040517f08c379a00000000000000000000000000000000000000000000000000000000081526004016100bf90610e31565b60405180910390fd5b005b600554341461010e576040517f08c379a000000000000000000000000000000000000000000000000000000000815260040161010590610e31565b60405180910390fd5b005b34801561011c57600080fd5b50610125610229565b6040516101329190610eb3565b60405180910390f35b34801561014757600080fd5b5061015061022f565b60405161015d9190610dca565b60405180910390f35b61016e6102bd565b005b34801561017c57600080fd5b506101856103b8565b6040516101929190610eb3565b60405180910390f35b3480156101a757600080fd5b506101b06103c2565b6040516101bd9190610da8565b60405180910390f35b3480156101d257600080fd5b506101ed60048036038101906101e89190610afd565b61054b565b6040516101fa9190610e91565b60405180910390f35b61021d60048036038101906102189190610a85565b6106fa565b005b610227610881565b005b60055481565b6006805461023c90611028565b80601f016020809104026020016040519081016040528092919081815260200182805461026890611028565b80156102b55780601f1061028a576101008083540402835291602001916102b5565b820191906000526020600020905b81548152906001019060200180831161029857829003601f168201915b505050505081565b600460009054906101000a900473ffffffffffffffffffffffffffffffffffffffff1673ffffffffffffffffffffffffffffffffffffffff163373ffffffffffffffffffffffffffffffffffffffff161461034d576040517f08c379a000000000000000000000000000000000000000000000000000000000815260040161034490610e51565b60405180910390fd5b600460009054906101000a900473ffffffffffffffffffffffffffffffffffffffff1673ffffffffffffffffffffffffffffffffffffffff166108fc479081150290604051600060405180830381858888f193505050501580156103b5573d6000803e3d6000fd5b50565b6000600154905090565b6060600460009054906101000a900473ffffffffffffffffffffffffffffffffffffffff1673ffffffffffffffffffffffffffffffffffffffff163373ffffffffffffffffffffffffffffffffffffffff1614610454576040517f08c379a000000000000000000000000000000000000000000000000000000000815260040161044b90610e51565b60405180910390fd5b600060015467ffffffffffffffff81111561047257610471611161565b5b6040519080825280602002602001820160405280156104a05781602001602082028036833780820191505090505b50905060005b6001548110156105435760008082815260200190815260200160002060009054906101000a900473ffffffffffffffffffffffffffffffffffffffff168282815181106104f6576104f5611132565b5b602002602001019073ffffffffffffffffffffffffffffffffffffffff16908173ffffffffffffffffffffffffffffffffffffffff1681525050808061053b9061108b565b9150506104a6565b508091505090565b610553610935565b6003548210610597576040517f08c379a000000000000000000000000000000000000000000000000000000000815260040161058e90610e71565b60405180910390fd5b600060026000848152602001908152602001600020604051806080016040529081600082015481526020016001820180546105d190611028565b80601f01602080910402602001604051908101604052809291908181526020018280546105fd90611028565b801561064a5780601f1061061f5761010080835404028352916020019161064a565b820191906000526020600020905b81548152906001019060200180831161062d57829003601f168201915b5050505050815260200160028201805461066390611028565b80601f016020809104026020016040519081016040528092919081815260200182805461068f90611028565b80156106dc5780601f106106b1576101008083540402835291602001916106dc565b820191906000526020600020905b8154815290600101906020018083116106bf57829003601f168201915b50505050508152602001600382015481525050905080915050919050565b600460009054906101000a900473ffffffffffffffffffffffffffffffffffffffff1673ffffffffffffffffffffffffffffffffffffffff163373ffffffffffffffffffffffffffffffffffffffff161461078a576040517f08c379a000000000000000000000000000000000000000000000000000000000815260040161078190610e51565b60405180910390fd5b60405180608001604052806003548152602001838152602001828152602001428152506002600060035481526020019081526020016000206000820151816000015560208201518160010190805190602001906107e892919061095d565b50604082015181600201908051906020019061080592919061095d565b5060608201518160030155905050600360008154809291906108269061108b565b9190505550600660405161083a9190610d91565b60405180910390207f9009e7bf85e860bd815644b6510a84c4e537fd62acc6e9482cd84eea5167995d83834260405161087593929190610dec565b60405180910390a25050565b33600080600154815260200190815260200160002060006101000a81548173ffffffffffffffffffffffffffffffffffffffff021916908373ffffffffffffffffffffffffffffffffffffffff160217905550600160008154809291906108e79061108b565b91905055503073ffffffffffffffffffffffffffffffffffffffff166108fc349081150290604051600060405180830381858888f19350505050158015610932573d6000803e3d6000fd5b50565b6040518060800160405280600081526020016060815260200160608152602001600081525090565b82805461096990611028565b90600052602060002090601f01602090048101928261098b57600085556109d2565b82601f106109a457805160ff19168380011785556109d2565b828001600101855582156109d2579182015b828111156109d15782518255916020019190600101906109b6565b5b5090506109df91906109e3565b5090565b5b808211156109fc5760008160009055506001016109e4565b5090565b6000610a13610a0e84610ef3565b610ece565b905082815260208101848484011115610a2f57610a2e611195565b5b610a3a848285610fe6565b509392505050565b600082601f830112610a5757610a56611190565b5b8135610a67848260208601610a00565b91505092915050565b600081359050610a7f8161127c565b92915050565b60008060408385031215610a9c57610a9b61119f565b5b600083013567ffffffffffffffff811115610aba57610ab961119a565b5b610ac685828601610a42565b925050602083013567ffffffffffffffff811115610ae757610ae661119a565b5b610af385828601610a42565b9150509250929050565b600060208284031215610b1357610b1261119f565b5b6000610b2184828501610a70565b91505092915050565b6000610b368383610b42565b60208301905092915050565b610b4b81610faa565b82525050565b6000610b5c82610f49565b610b668185610f6c565b9350610b7183610f24565b8060005b83811015610ba2578151610b898882610b2a565b9750610b9483610f5f565b925050600181019050610b75565b5085935050505092915050565b6000610bba82610f54565b610bc48185610f7d565b9350610bd4818560208601610ff5565b610bdd816111a4565b840191505092915050565b6000610bf382610f54565b610bfd8185610f8e565b9350610c0d818560208601610ff5565b610c16816111a4565b840191505092915050565b60008154610c2e81611028565b610c388186610f9f565b94506001821660008114610c535760018114610c6457610c97565b60ff19831686528186019350610c97565b610c6d85610f34565b60005b83811015610c8f57815481890152600182019150602081019050610c70565b838801955050505b50505092915050565b6000610cad602b83610f8e565b9150610cb8826111b5565b604082019050919050565b6000610cd0602183610f8e565b9150610cdb82611204565b604082019050919050565b6000610cf3601783610f8e565b9150610cfe82611253565b602082019050919050565b6000608083016000830151610d216000860182610d73565b5060208301518482036020860152610d398282610baf565b91505060408301518482036040860152610d538282610baf565b9150506060830151610d686060860182610d73565b508091505092915050565b610d7c81610fdc565b82525050565b610d8b81610fdc565b82525050565b6000610d9d8284610c21565b915081905092915050565b60006020820190508181036000830152610dc28184610b51565b905092915050565b60006020820190508181036000830152610de48184610be8565b905092915050565b60006060820190508181036000830152610e068186610be8565b90508181036020830152610e1a8185610be8565b9050610e296040830184610d82565b949350505050565b60006020820190508181036000830152610e4a81610ca0565b9050919050565b60006020820190508181036000830152610e6a81610cc3565b9050919050565b60006020820190508181036000830152610e8a81610ce6565b9050919050565b60006020820190508181036000830152610eab8184610d09565b905092915050565b6000602082019050610ec86000830184610d82565b92915050565b6000610ed8610ee9565b9050610ee4828261105a565b919050565b6000604051905090565b600067ffffffffffffffff821115610f0e57610f0d611161565b5b610f17826111a4565b9050602081019050919050565b6000819050602082019050919050565b60008190508160005260206000209050919050565b600081519050919050565b600081519050919050565b6000602082019050919050565b600082825260208201905092915050565b600082825260208201905092915050565b600082825260208201905092915050565b600081905092915050565b6000610fb582610fbc565b9050919050565b600073ffffffffffffffffffffffffffffffffffffffff82169050919050565b6000819050919050565b82818337600083830152505050565b60005b83811015611013578082015181840152602081019050610ff8565b83811115611022576000848401525b50505050565b6000600282049050600182168061104057607f821691505b6020821081141561105457611053611103565b5b50919050565b611063826111a4565b810181811067ffffffffffffffff8211171561108257611081611161565b5b80604052505050565b600061109682610fdc565b91507fffffffffffffffffffffffffffffffffffffffffffffffffffffffffffffffff8214156110c9576110c86110d4565b5b600182019050919050565b7f4e487b7100000000000000000000000000000000000000000000000000000000600052601160045260246000fd5b7f4e487b7100000000000000000000000000000000000000000000000000000000600052602260045260246000fd5b7f4e487b7100000000000000000000000000000000000000000000000000000000600052603260045260246000fd5b7f4e487b7100000000000000000000000000000000000000000000000000000000600052604160045260246000fd5b600080fd5b600080fd5b600080fd5b600080fd5b6000601f19601f8301169050919050565b7f5061796d656e742073686f756c6420626520746865207375627363726970746960008201527f6f6e20666565206f6e6c79000000000000000000000000000000000000000000602082015250565b7f4f6e6c7920617574686f722063616e2063616c6c2074686973206d6574686f6460008201527f2100000000000000000000000000000000000000000000000000000000000000602082015250565b7f4e6f7420612076616c69642061727469636c65204e6f2e000000000000000000600082015250565b61128581610fdc565b811461129057600080fd5b5056fea26469706673582212200b0465763e3e0f86f26dceea8b581f976f1fcac2af321210b5575dd3fa9f11d564736f6c63430008070033",
					"opcodes": "PUSH1 0x80 PUSH1 0x40 MSTORE CALLVALUE DUP1 ISZERO PUSH3 0x11 JUMPI PUSH1 0x0 DUP1 REVERT JUMPDEST POP PUSH1 0x40 MLOAD PUSH3 0x177D CODESIZE SUB DUP1 PUSH3 0x177D DUP4 CODECOPY DUP2 DUP2 ADD PUSH1 0x40 MSTORE DUP2 ADD SWAP1 PUSH3 0x37 SWAP2 SWAP1 PUSH3 0x206 JUMP JUMPDEST CALLER PUSH1 0x4 PUSH1 0x0 PUSH2 0x100 EXP DUP2 SLOAD DUP2 PUSH20 0xFFFFFFFFFFFFFFFFFFFFFFFFFFFFFFFFFFFFFFFF MUL NOT AND SWAP1 DUP4 PUSH20 0xFFFFFFFFFFFFFFFFFFFFFFFFFFFFFFFFFFFFFFFF AND MUL OR SWAP1 SSTORE POP PUSH4 0x3B9ACA00 DUP3 PUSH3 0x8A SWAP2 SWAP1 PUSH3 0x2CB JUMP JUMPDEST PUSH1 0x5 DUP2 SWAP1 SSTORE POP DUP1 PUSH1 0x6 SWAP1 DUP1 MLOAD SWAP1 PUSH1 0x20 ADD SWAP1 PUSH3 0xA8 SWAP3 SWAP2 SWAP1 PUSH3 0xC1 JUMP JUMPDEST POP PUSH1 0x0 PUSH1 0x1 DUP2 SWAP1 SSTORE POP PUSH1 0x0 PUSH1 0x3 DUP2 SWAP1 SSTORE POP POP POP PUSH3 0x4A4 JUMP JUMPDEST DUP3 DUP1 SLOAD PUSH3 0xCF SWAP1 PUSH3 0x36C JUMP JUMPDEST SWAP1 PUSH1 0x0 MSTORE PUSH1 0x20 PUSH1 0x0 KECCAK256 SWAP1 PUSH1 0x1F ADD PUSH1 0x20 SWAP1 DIV DUP2 ADD SWAP3 DUP3 PUSH3 0xF3 JUMPI PUSH1 0x0 DUP6 SSTORE PUSH3 0x13F JUMP JUMPDEST DUP3 PUSH1 0x1F LT PUSH3 0x10E JUMPI DUP1 MLOAD PUSH1 0xFF NOT AND DUP4 DUP1 ADD OR DUP6 SSTORE PUSH3 0x13F JUMP JUMPDEST DUP3 DUP1 ADD PUSH1 0x1 ADD DUP6 SSTORE DUP3 ISZERO PUSH3 0x13F JUMPI SWAP2 DUP3 ADD JUMPDEST DUP3 DUP2 GT ISZERO PUSH3 0x13E JUMPI DUP3 MLOAD DUP3 SSTORE SWAP2 PUSH1 0x20 ADD SWAP2 SWAP1 PUSH1 0x1 ADD SWAP1 PUSH3 0x121 JUMP JUMPDEST JUMPDEST POP SWAP1 POP PUSH3 0x14E SWAP2 SWAP1 PUSH3 0x152 JUMP JUMPDEST POP SWAP1 JUMP JUMPDEST JUMPDEST DUP1 DUP3 GT ISZERO PUSH3 0x16D JUMPI PUSH1 0x0 DUP2 PUSH1 0x0 SWAP1 SSTORE POP PUSH1 0x1 ADD PUSH3 0x153 JUMP JUMPDEST POP SWAP1 JUMP JUMPDEST PUSH1 0x0 PUSH3 0x188 PUSH3 0x182 DUP5 PUSH3 0x295 JUMP JUMPDEST PUSH3 0x26C JUMP JUMPDEST SWAP1 POP DUP3 DUP2 MSTORE PUSH1 0x20 DUP2 ADD DUP5 DUP5 DUP5 ADD GT ISZERO PUSH3 0x1A7 JUMPI PUSH3 0x1A6 PUSH3 0x46A JUMP JUMPDEST JUMPDEST PUSH3 0x1B4 DUP5 DUP3 DUP6 PUSH3 0x336 JUMP JUMPDEST POP SWAP4 SWAP3 POP POP POP JUMP JUMPDEST PUSH1 0x0 DUP3 PUSH1 0x1F DUP4 ADD SLT PUSH3 0x1D4 JUMPI PUSH3 0x1D3 PUSH3 0x465 JUMP JUMPDEST JUMPDEST DUP2 MLOAD PUSH3 0x1E6 DUP5 DUP3 PUSH1 0x20 DUP7 ADD PUSH3 0x171 JUMP JUMPDEST SWAP2 POP POP SWAP3 SWAP2 POP POP JUMP JUMPDEST PUSH1 0x0 DUP2 MLOAD SWAP1 POP PUSH3 0x200 DUP2 PUSH3 0x48A JUMP JUMPDEST SWAP3 SWAP2 POP POP JUMP JUMPDEST PUSH1 0x0 DUP1 PUSH1 0x40 DUP4 DUP6 SUB SLT ISZERO PUSH3 0x220 JUMPI PUSH3 0x21F PUSH3 0x474 JUMP JUMPDEST JUMPDEST PUSH1 0x0 PUSH3 0x230 DUP6 DUP3 DUP7 ADD PUSH3 0x1EF JUMP JUMPDEST SWAP3 POP POP PUSH1 0x20 DUP4 ADD MLOAD PUSH8 0xFFFFFFFFFFFFFFFF DUP2 GT ISZERO PUSH3 0x254 JUMPI PUSH3 0x253 PUSH3 0x46F JUMP JUMPDEST JUMPDEST PUSH3 0x262 DUP6 DUP3 DUP7 ADD PUSH3 0x1BC JUMP JUMPDEST SWAP2 POP POP SWAP3 POP SWAP3 SWAP1 POP JUMP JUMPDEST PUSH1 0x0 PUSH3 0x278 PUSH3 0x28B JUMP JUMPDEST SWAP1 POP PUSH3 0x286 DUP3 DUP3 PUSH3 0x3A2 JUMP JUMPDEST SWAP2 SWAP1 POP JUMP JUMPDEST PUSH1 0x0 PUSH1 0x40 MLOAD SWAP1 POP SWAP1 JUMP JUMPDEST PUSH1 0x0 PUSH8 0xFFFFFFFFFFFFFFFF DUP3 GT ISZERO PUSH3 0x2B3 JUMPI PUSH3 0x2B2 PUSH3 0x436 JUMP JUMPDEST JUMPDEST PUSH3 0x2BE DUP3 PUSH3 0x479 JUMP JUMPDEST SWAP1 POP PUSH1 0x20 DUP2 ADD SWAP1 POP SWAP2 SWAP1 POP JUMP JUMPDEST PUSH1 0x0 PUSH3 0x2D8 DUP3 PUSH3 0x32C JUMP JUMPDEST SWAP2 POP PUSH3 0x2E5 DUP4 PUSH3 0x32C JUMP JUMPDEST SWAP3 POP DUP2 PUSH32 0xFFFFFFFFFFFFFFFFFFFFFFFFFFFFFFFFFFFFFFFFFFFFFFFFFFFFFFFFFFFFFFFF DIV DUP4 GT DUP3 ISZERO ISZERO AND ISZERO PUSH3 0x321 JUMPI PUSH3 0x320 PUSH3 0x3D8 JUMP JUMPDEST JUMPDEST DUP3 DUP3 MUL SWAP1 POP SWAP3 SWAP2 POP POP JUMP JUMPDEST PUSH1 0x0 DUP2 SWAP1 POP SWAP2 SWAP1 POP JUMP JUMPDEST PUSH1 0x0 JUMPDEST DUP4 DUP2 LT ISZERO PUSH3 0x356 JUMPI DUP1 DUP3 ADD MLOAD DUP2 DUP5 ADD MSTORE PUSH1 0x20 DUP2 ADD SWAP1 POP PUSH3 0x339 JUMP JUMPDEST DUP4 DUP2 GT ISZERO PUSH3 0x366 JUMPI PUSH1 0x0 DUP5 DUP5 ADD MSTORE JUMPDEST POP POP POP POP JUMP JUMPDEST PUSH1 0x0 PUSH1 0x2 DUP3 DIV SWAP1 POP PUSH1 0x1 DUP3 AND DUP1 PUSH3 0x385 JUMPI PUSH1 0x7F DUP3 AND SWAP2 POP JUMPDEST PUSH1 0x20 DUP3 LT DUP2 EQ ISZERO PUSH3 0x39C JUMPI PUSH3 0x39B PUSH3 0x407 JUMP JUMPDEST JUMPDEST POP SWAP2 SWAP1 POP JUMP JUMPDEST PUSH3 0x3AD DUP3 PUSH3 0x479 JUMP JUMPDEST DUP2 ADD DUP2 DUP2 LT PUSH8 0xFFFFFFFFFFFFFFFF DUP3 GT OR ISZERO PUSH3 0x3CF JUMPI PUSH3 0x3CE PUSH3 0x436 JUMP JUMPDEST JUMPDEST DUP1 PUSH1 0x40 MSTORE POP POP POP JUMP JUMPDEST PUSH32 0x4E487B7100000000000000000000000000000000000000000000000000000000 PUSH1 0x0 MSTORE PUSH1 0x11 PUSH1 0x4 MSTORE PUSH1 0x24 PUSH1 0x0 REVERT JUMPDEST PUSH32 0x4E487B7100000000000000000000000000000000000000000000000000000000 PUSH1 0x0 MSTORE PUSH1 0x22 PUSH1 0x4 MSTORE PUSH1 0x24 PUSH1 0x0 REVERT JUMPDEST PUSH32 0x4E487B7100000000000000000000000000000000000000000000000000000000 PUSH1 0x0 MSTORE PUSH1 0x41 PUSH1 0x4 MSTORE PUSH1 0x24 PUSH1 0x0 REVERT JUMPDEST PUSH1 0x0 DUP1 REVERT JUMPDEST PUSH1 0x0 DUP1 REVERT JUMPDEST PUSH1 0x0 DUP1 REVERT JUMPDEST PUSH1 0x0 DUP1 REVERT JUMPDEST PUSH1 0x0 PUSH1 0x1F NOT PUSH1 0x1F DUP4 ADD AND SWAP1 POP SWAP2 SWAP1 POP JUMP JUMPDEST PUSH3 0x495 DUP2 PUSH3 0x32C JUMP JUMPDEST DUP2 EQ PUSH3 0x4A1 JUMPI PUSH1 0x0 DUP1 REVERT JUMPDEST POP JUMP JUMPDEST PUSH2 0x12C9 DUP1 PUSH3 0x4B4 PUSH1 0x0 CODECOPY PUSH1 0x0 RETURN INVALID PUSH1 0x80 PUSH1 0x40 MSTORE PUSH1 0x4 CALLDATASIZE LT PUSH2 0x7F JUMPI PUSH1 0x0 CALLDATALOAD PUSH1 0xE0 SHR DUP1 PUSH4 0x82D69B62 GT PUSH2 0x4E JUMPI DUP1 PUSH4 0x82D69B62 EQ PUSH2 0x19B JUMPI DUP1 PUSH4 0x85ACA317 EQ PUSH2 0x1C6 JUMPI DUP1 PUSH4 0x95961F05 EQ PUSH2 0x203 JUMPI DUP1 PUSH4 0xBE291999 EQ PUSH2 0x21F JUMPI PUSH2 0xCA JUMP JUMPDEST DUP1 PUSH4 0xAA0A175 EQ PUSH2 0x110 JUMPI DUP1 PUSH4 0x2443877C EQ PUSH2 0x13B JUMPI DUP1 PUSH4 0x534844A2 EQ PUSH2 0x166 JUMPI DUP1 PUSH4 0x625B1EBE EQ PUSH2 0x170 JUMPI PUSH2 0xCA JUMP JUMPDEST CALLDATASIZE PUSH2 0xCA JUMPI PUSH1 0x5 SLOAD CALLVALUE EQ PUSH2 0xC8 JUMPI PUSH1 0x40 MLOAD PUSH32 0x8C379A000000000000000000000000000000000000000000000000000000000 DUP2 MSTORE PUSH1 0x4 ADD PUSH2 0xBF SWAP1 PUSH2 0xE31 JUMP JUMPDEST PUSH1 0x40 MLOAD DUP1 SWAP2 SUB SWAP1 REVERT JUMPDEST STOP JUMPDEST PUSH1 0x5 SLOAD CALLVALUE EQ PUSH2 0x10E JUMPI PUSH1 0x40 MLOAD PUSH32 0x8C379A000000000000000000000000000000000000000000000000000000000 DUP2 MSTORE PUSH1 0x4 ADD PUSH2 0x105 SWAP1 PUSH2 0xE31 JUMP JUMPDEST PUSH1 0x40 MLOAD DUP1 SWAP2 SUB SWAP1 REVERT JUMPDEST STOP JUMPDEST CALLVALUE DUP1 ISZERO PUSH2 0x11C JUMPI PUSH1 0x0 DUP1 REVERT JUMPDEST POP PUSH2 0x125 PUSH2 0x229 JUMP JUMPDEST PUSH1 0x40 MLOAD PUSH2 0x132 SWAP2 SWAP1 PUSH2 0xEB3 JUMP JUMPDEST PUSH1 0x40 MLOAD DUP1 SWAP2 SUB SWAP1 RETURN JUMPDEST CALLVALUE DUP1 ISZERO PUSH2 0x147 JUMPI PUSH1 0x0 DUP1 REVERT JUMPDEST POP PUSH2 0x150 PUSH2 0x22F JUMP JUMPDEST PUSH1 0x40 MLOAD PUSH2 0x15D SWAP2 SWAP1 PUSH2 0xDCA JUMP JUMPDEST PUSH1 0x40 MLOAD DUP1 SWAP2 SUB SWAP1 RETURN JUMPDEST PUSH2 0x16E PUSH2 0x2BD JUMP JUMPDEST STOP JUMPDEST CALLVALUE DUP1 ISZERO PUSH2 0x17C JUMPI PUSH1 0x0 DUP1 REVERT JUMPDEST POP PUSH2 0x185 PUSH2 0x3B8 JUMP JUMPDEST PUSH1 0x40 MLOAD PUSH2 0x192 SWAP2 SWAP1 PUSH2 0xEB3 JUMP JUMPDEST PUSH1 0x40 MLOAD DUP1 SWAP2 SUB SWAP1 RETURN JUMPDEST CALLVALUE DUP1 ISZERO PUSH2 0x1A7 JUMPI PUSH1 0x0 DUP1 REVERT JUMPDEST POP PUSH2 0x1B0 PUSH2 0x3C2 JUMP JUMPDEST PUSH1 0x40 MLOAD PUSH2 0x1BD SWAP2 SWAP1 PUSH2 0xDA8 JUMP JUMPDEST PUSH1 0x40 MLOAD DUP1 SWAP2 SUB SWAP1 RETURN JUMPDEST CALLVALUE DUP1 ISZERO PUSH2 0x1D2 JUMPI PUSH1 0x0 DUP1 REVERT JUMPDEST POP PUSH2 0x1ED PUSH1 0x4 DUP1 CALLDATASIZE SUB DUP2 ADD SWAP1 PUSH2 0x1E8 SWAP2 SWAP1 PUSH2 0xAFD JUMP JUMPDEST PUSH2 0x54B JUMP JUMPDEST PUSH1 0x40 MLOAD PUSH2 0x1FA SWAP2 SWAP1 PUSH2 0xE91 JUMP JUMPDEST PUSH1 0x40 MLOAD DUP1 SWAP2 SUB SWAP1 RETURN JUMPDEST PUSH2 0x21D PUSH1 0x4 DUP1 CALLDATASIZE SUB DUP2 ADD SWAP1 PUSH2 0x218 SWAP2 SWAP1 PUSH2 0xA85 JUMP JUMPDEST PUSH2 0x6FA JUMP JUMPDEST STOP JUMPDEST PUSH2 0x227 PUSH2 0x881 JUMP JUMPDEST STOP JUMPDEST PUSH1 0x5 SLOAD DUP2 JUMP JUMPDEST PUSH1 0x6 DUP1 SLOAD PUSH2 0x23C SWAP1 PUSH2 0x1028 JUMP JUMPDEST DUP1 PUSH1 0x1F ADD PUSH1 0x20 DUP1 SWAP2 DIV MUL PUSH1 0x20 ADD PUSH1 0x40 MLOAD SWAP1 DUP2 ADD PUSH1 0x40 MSTORE DUP1 SWAP3 SWAP2 SWAP1 DUP2 DUP2 MSTORE PUSH1 0x20 ADD DUP3 DUP1 SLOAD PUSH2 0x268 SWAP1 PUSH2 0x1028 JUMP JUMPDEST DUP1 ISZERO PUSH2 0x2B5 JUMPI DUP1 PUSH1 0x1F LT PUSH2 0x28A JUMPI PUSH2 0x100 DUP1 DUP4 SLOAD DIV MUL DUP4 MSTORE SWAP2 PUSH1 0x20 ADD SWAP2 PUSH2 0x2B5 JUMP JUMPDEST DUP3 ADD SWAP2 SWAP1 PUSH1 0x0 MSTORE PUSH1 0x20 PUSH1 0x0 KECCAK256 SWAP1 JUMPDEST DUP2 SLOAD DUP2 MSTORE SWAP1 PUSH1 0x1 ADD SWAP1 PUSH1 0x20 ADD DUP1 DUP4 GT PUSH2 0x298 JUMPI DUP3 SWAP1 SUB PUSH1 0x1F AND DUP3 ADD SWAP2 JUMPDEST POP POP POP POP POP DUP2 JUMP JUMPDEST PUSH1 0x4 PUSH1 0x0 SWAP1 SLOAD SWAP1 PUSH2 0x100 EXP SWAP1 DIV PUSH20 0xFFFFFFFFFFFFFFFFFFFFFFFFFFFFFFFFFFFFFFFF AND PUSH20 0xFFFFFFFFFFFFFFFFFFFFFFFFFFFFFFFFFFFFFFFF AND CALLER PUSH20 0xFFFFFFFFFFFFFFFFFFFFFFFFFFFFFFFFFFFFFFFF AND EQ PUSH2 0x34D JUMPI PUSH1 0x40 MLOAD PUSH32 0x8C379A000000000000000000000000000000000000000000000000000000000 DUP2 MSTORE PUSH1 0x4 ADD PUSH2 0x344 SWAP1 PUSH2 0xE51 JUMP JUMPDEST PUSH1 0x40 MLOAD DUP1 SWAP2 SUB SWAP1 REVERT JUMPDEST PUSH1 0x4 PUSH1 0x0 SWAP1 SLOAD SWAP1 PUSH2 0x100 EXP SWAP1 DIV PUSH20 0xFFFFFFFFFFFFFFFFFFFFFFFFFFFFFFFFFFFFFFFF AND PUSH20 0xFFFFFFFFFFFFFFFFFFFFFFFFFFFFFFFFFFFFFFFF AND PUSH2 0x8FC SELFBALANCE SWAP1 DUP2 ISZERO MUL SWAP1 PUSH1 0x40 MLOAD PUSH1 0x0 PUSH1 0x40 MLOAD DUP1 DUP4 SUB DUP2 DUP6 DUP9 DUP9 CALL SWAP4 POP POP POP POP ISZERO DUP1 ISZERO PUSH2 0x3B5 JUMPI RETURNDATASIZE PUSH1 0x0 DUP1 RETURNDATACOPY RETURNDATASIZE PUSH1 0x0 REVERT JUMPDEST POP JUMP JUMPDEST PUSH1 0x0 PUSH1 0x1 SLOAD SWAP1 POP SWAP1 JUMP JUMPDEST PUSH1 0x60 PUSH1 0x4 PUSH1 0x0 SWAP1 SLOAD SWAP1 PUSH2 0x100 EXP SWAP1 DIV PUSH20 0xFFFFFFFFFFFFFFFFFFFFFFFFFFFFFFFFFFFFFFFF AND PUSH20 0xFFFFFFFFFFFFFFFFFFFFFFFFFFFFFFFFFFFFFFFF AND CALLER PUSH20 0xFFFFFFFFFFFFFFFFFFFFFFFFFFFFFFFFFFFFFFFF AND EQ PUSH2 0x454 JUMPI PUSH1 0x40 MLOAD PUSH32 0x8C379A000000000000000000000000000000000000000000000000000000000 DUP2 MSTORE PUSH1 0x4 ADD PUSH2 0x44B SWAP1 PUSH2 0xE51 JUMP JUMPDEST PUSH1 0x40 MLOAD DUP1 SWAP2 SUB SWAP1 REVERT JUMPDEST PUSH1 0x0 PUSH1 0x1 SLOAD PUSH8 0xFFFFFFFFFFFFFFFF DUP2 GT ISZERO PUSH2 0x472 JUMPI PUSH2 0x471 PUSH2 0x1161 JUMP JUMPDEST JUMPDEST PUSH1 0x40 MLOAD SWAP1 DUP1 DUP3 MSTORE DUP1 PUSH1 0x20 MUL PUSH1 0x20 ADD DUP3 ADD PUSH1 0x40 MSTORE DUP1 ISZERO PUSH2 0x4A0 JUMPI DUP2 PUSH1 0x20 ADD PUSH1 0x20 DUP3 MUL DUP1 CALLDATASIZE DUP4 CALLDATACOPY DUP1 DUP3 ADD SWAP2 POP POP SWAP1 POP JUMPDEST POP SWAP1 POP PUSH1 0x0 JUMPDEST PUSH1 0x1 SLOAD DUP2 LT ISZERO PUSH2 0x543 JUMPI PUSH1 0x0 DUP1 DUP3 DUP2 MSTORE PUSH1 0x20 ADD SWAP1 DUP2 MSTORE PUSH1 0x20 ADD PUSH1 0x0 KECCAK256 PUSH1 0x0 SWAP1 SLOAD SWAP1 PUSH2 0x100 EXP SWAP1 DIV PUSH20 0xFFFFFFFFFFFFFFFFFFFFFFFFFFFFFFFFFFFFFFFF AND DUP3 DUP3 DUP2 MLOAD DUP2 LT PUSH2 0x4F6 JUMPI PUSH2 0x4F5 PUSH2 0x1132 JUMP JUMPDEST JUMPDEST PUSH1 0x20 MUL PUSH1 0x20 ADD ADD SWAP1 PUSH20 0xFFFFFFFFFFFFFFFFFFFFFFFFFFFFFFFFFFFFFFFF AND SWAP1 DUP2 PUSH20 0xFFFFFFFFFFFFFFFFFFFFFFFFFFFFFFFFFFFFFFFF AND DUP2 MSTORE POP POP DUP1 DUP1 PUSH2 0x53B SWAP1 PUSH2 0x108B JUMP JUMPDEST SWAP2 POP POP PUSH2 0x4A6 JUMP JUMPDEST POP DUP1 SWAP2 POP POP SWAP1 JUMP JUMPDEST PUSH2 0x553 PUSH2 0x935 JUMP JUMPDEST PUSH1 0x3 SLOAD DUP3 LT PUSH2 0x597 JUMPI PUSH1 0x40 MLOAD PUSH32 0x8C379A000000000000000000000000000000000000000000000000000000000 DUP2 MSTORE PUSH1 0x4 ADD PUSH2 0x58E SWAP1 PUSH2 0xE71 JUMP JUMPDEST PUSH1 0x40 MLOAD DUP1 SWAP2 SUB SWAP1 REVERT JUMPDEST PUSH1 0x0 PUSH1 0x2 PUSH1 0x0 DUP5 DUP2 MSTORE PUSH1 0x20 ADD SWAP1 DUP2 MSTORE PUSH1 0x20 ADD PUSH1 0x0 KECCAK256 PUSH1 0x40 MLOAD DUP1 PUSH1 0x80 ADD PUSH1 0x40 MSTORE SWAP1 DUP2 PUSH1 0x0 DUP3 ADD SLOAD DUP2 MSTORE PUSH1 0x20 ADD PUSH1 0x1 DUP3 ADD DUP1 SLOAD PUSH2 0x5D1 SWAP1 PUSH2 0x1028 JUMP JUMPDEST DUP1 PUSH1 0x1F ADD PUSH1 0x20 DUP1 SWAP2 DIV MUL PUSH1 0x20 ADD PUSH1 0x40 MLOAD SWAP1 DUP2 ADD PUSH1 0x40 MSTORE DUP1 SWAP3 SWAP2 SWAP1 DUP2 DUP2 MSTORE PUSH1 0x20 ADD DUP3 DUP1 SLOAD PUSH2 0x5FD SWAP1 PUSH2 0x1028 JUMP JUMPDEST DUP1 ISZERO PUSH2 0x64A JUMPI DUP1 PUSH1 0x1F LT PUSH2 0x61F JUMPI PUSH2 0x100 DUP1 DUP4 SLOAD DIV MUL DUP4 MSTORE SWAP2 PUSH1 0x20 ADD SWAP2 PUSH2 0x64A JUMP JUMPDEST DUP3 ADD SWAP2 SWAP1 PUSH1 0x0 MSTORE PUSH1 0x20 PUSH1 0x0 KECCAK256 SWAP1 JUMPDEST DUP2 SLOAD DUP2 MSTORE SWAP1 PUSH1 0x1 ADD SWAP1 PUSH1 0x20 ADD DUP1 DUP4 GT PUSH2 0x62D JUMPI DUP3 SWAP1 SUB PUSH1 0x1F AND DUP3 ADD SWAP2 JUMPDEST POP POP POP POP POP DUP2 MSTORE PUSH1 0x20 ADD PUSH1 0x2 DUP3 ADD DUP1 SLOAD PUSH2 0x663 SWAP1 PUSH2 0x1028 JUMP JUMPDEST DUP1 PUSH1 0x1F ADD PUSH1 0x20 DUP1 SWAP2 DIV MUL PUSH1 0x20 ADD PUSH1 0x40 MLOAD SWAP1 DUP2 ADD PUSH1 0x40 MSTORE DUP1 SWAP3 SWAP2 SWAP1 DUP2 DUP2 MSTORE PUSH1 0x20 ADD DUP3 DUP1 SLOAD PUSH2 0x68F SWAP1 PUSH2 0x1028 JUMP JUMPDEST DUP1 ISZERO PUSH2 0x6DC JUMPI DUP1 PUSH1 0x1F LT PUSH2 0x6B1 JUMPI PUSH2 0x100 DUP1 DUP4 SLOAD DIV MUL DUP4 MSTORE SWAP2 PUSH1 0x20 ADD SWAP2 PUSH2 0x6DC JUMP JUMPDEST DUP3 ADD SWAP2 SWAP1 PUSH1 0x0 MSTORE PUSH1 0x20 PUSH1 0x0 KECCAK256 SWAP1 JUMPDEST DUP2 SLOAD DUP2 MSTORE SWAP1 PUSH1 0x1 ADD SWAP1 PUSH1 0x20 ADD DUP1 DUP4 GT PUSH2 0x6BF JUMPI DUP3 SWAP1 SUB PUSH1 0x1F AND DUP3 ADD SWAP2 JUMPDEST POP POP POP POP POP DUP2 MSTORE PUSH1 0x20 ADD PUSH1 0x3 DUP3 ADD SLOAD DUP2 MSTORE POP POP SWAP1 POP DUP1 SWAP2 POP POP SWAP2 SWAP1 POP JUMP JUMPDEST PUSH1 0x4 PUSH1 0x0 SWAP1 SLOAD SWAP1 PUSH2 0x100 EXP SWAP1 DIV PUSH20 0xFFFFFFFFFFFFFFFFFFFFFFFFFFFFFFFFFFFFFFFF AND PUSH20 0xFFFFFFFFFFFFFFFFFFFFFFFFFFFFFFFFFFFFFFFF AND CALLER PUSH20 0xFFFFFFFFFFFFFFFFFFFFFFFFFFFFFFFFFFFFFFFF AND EQ PUSH2 0x78A JUMPI PUSH1 0x40 MLOAD PUSH32 0x8C379A000000000000000000000000000000000000000000000000000000000 DUP2 MSTORE PUSH1 0x4 ADD PUSH2 0x781 SWAP1 PUSH2 0xE51 JUMP JUMPDEST PUSH1 0x40 MLOAD DUP1 SWAP2 SUB SWAP1 REVERT JUMPDEST PUSH1 0x40 MLOAD DUP1 PUSH1 0x80 ADD PUSH1 0x40 MSTORE DUP1 PUSH1 0x3 SLOAD DUP2 MSTORE PUSH1 0x20 ADD DUP4 DUP2 MSTORE PUSH1 0x20 ADD DUP3 DUP2 MSTORE PUSH1 0x20 ADD TIMESTAMP DUP2 MSTORE POP PUSH1 0x2 PUSH1 0x0 PUSH1 0x3 SLOAD DUP2 MSTORE PUSH1 0x20 ADD SWAP1 DUP2 MSTORE PUSH1 0x20 ADD PUSH1 0x0 KECCAK256 PUSH1 0x0 DUP3 ADD MLOAD DUP2 PUSH1 0x0 ADD SSTORE PUSH1 0x20 DUP3 ADD MLOAD DUP2 PUSH1 0x1 ADD SWAP1 DUP1 MLOAD SWAP1 PUSH1 0x20 ADD SWAP1 PUSH2 0x7E8 SWAP3 SWAP2 SWAP1 PUSH2 0x95D JUMP JUMPDEST POP PUSH1 0x40 DUP3 ADD MLOAD DUP2 PUSH1 0x2 ADD SWAP1 DUP1 MLOAD SWAP1 PUSH1 0x20 ADD SWAP1 PUSH2 0x805 SWAP3 SWAP2 SWAP1 PUSH2 0x95D JUMP JUMPDEST POP PUSH1 0x60 DUP3 ADD MLOAD DUP2 PUSH1 0x3 ADD SSTORE SWAP1 POP POP PUSH1 0x3 PUSH1 0x0 DUP2 SLOAD DUP1 SWAP3 SWAP2 SWAP1 PUSH2 0x826 SWAP1 PUSH2 0x108B JUMP JUMPDEST SWAP2 SWAP1 POP SSTORE POP PUSH1 0x6 PUSH1 0x40 MLOAD PUSH2 0x83A SWAP2 SWAP1 PUSH2 0xD91 JUMP JUMPDEST PUSH1 0x40 MLOAD DUP1 SWAP2 SUB SWAP1 KECCAK256 PUSH32 0x9009E7BF85E860BD815644B6510A84C4E537FD62ACC6E9482CD84EEA5167995D DUP4 DUP4 TIMESTAMP PUSH1 0x40 MLOAD PUSH2 0x875 SWAP4 SWAP3 SWAP2 SWAP1 PUSH2 0xDEC JUMP JUMPDEST PUSH1 0x40 MLOAD DUP1 SWAP2 SUB SWAP1 LOG2 POP POP JUMP JUMPDEST CALLER PUSH1 0x0 DUP1 PUSH1 0x1 SLOAD DUP2 MSTORE PUSH1 0x20 ADD SWAP1 DUP2 MSTORE PUSH1 0x20 ADD PUSH1 0x0 KECCAK256 PUSH1 0x0 PUSH2 0x100 EXP DUP2 SLOAD DUP2 PUSH20 0xFFFFFFFFFFFFFFFFFFFFFFFFFFFFFFFFFFFFFFFF MUL NOT AND SWAP1 DUP4 PUSH20 0xFFFFFFFFFFFFFFFFFFFFFFFFFFFFFFFFFFFFFFFF AND MUL OR SWAP1 SSTORE POP PUSH1 0x1 PUSH1 0x0 DUP2 SLOAD DUP1 SWAP3 SWAP2 SWAP1 PUSH2 0x8E7 SWAP1 PUSH2 0x108B JUMP JUMPDEST SWAP2 SWAP1 POP SSTORE POP ADDRESS PUSH20 0xFFFFFFFFFFFFFFFFFFFFFFFFFFFFFFFFFFFFFFFF AND PUSH2 0x8FC CALLVALUE SWAP1 DUP2 ISZERO MUL SWAP1 PUSH1 0x40 MLOAD PUSH1 0x0 PUSH1 0x40 MLOAD DUP1 DUP4 SUB DUP2 DUP6 DUP9 DUP9 CALL SWAP4 POP POP POP POP ISZERO DUP1 ISZERO PUSH2 0x932 JUMPI RETURNDATASIZE PUSH1 0x0 DUP1 RETURNDATACOPY RETURNDATASIZE PUSH1 0x0 REVERT JUMPDEST POP JUMP JUMPDEST PUSH1 0x40 MLOAD DUP1 PUSH1 0x80 ADD PUSH1 0x40 MSTORE DUP1 PUSH1 0x0 DUP2 MSTORE PUSH1 0x20 ADD PUSH1 0x60 DUP2 MSTORE PUSH1 0x20 ADD PUSH1 0x60 DUP2 MSTORE PUSH1 0x20 ADD PUSH1 0x0 DUP2 MSTORE POP SWAP1 JUMP JUMPDEST DUP3 DUP1 SLOAD PUSH2 0x969 SWAP1 PUSH2 0x1028 JUMP JUMPDEST SWAP1 PUSH1 0x0 MSTORE PUSH1 0x20 PUSH1 0x0 KECCAK256 SWAP1 PUSH1 0x1F ADD PUSH1 0x20 SWAP1 DIV DUP2 ADD SWAP3 DUP3 PUSH2 0x98B JUMPI PUSH1 0x0 DUP6 SSTORE PUSH2 0x9D2 JUMP JUMPDEST DUP3 PUSH1 0x1F LT PUSH2 0x9A4 JUMPI DUP1 MLOAD PUSH1 0xFF NOT AND DUP4 DUP1 ADD OR DUP6 SSTORE PUSH2 0x9D2 JUMP JUMPDEST DUP3 DUP1 ADD PUSH1 0x1 ADD DUP6 SSTORE DUP3 ISZERO PUSH2 0x9D2 JUMPI SWAP2 DUP3 ADD JUMPDEST DUP3 DUP2 GT ISZERO PUSH2 0x9D1 JUMPI DUP3 MLOAD DUP3 SSTORE SWAP2 PUSH1 0x20 ADD SWAP2 SWAP1 PUSH1 0x1 ADD SWAP1 PUSH2 0x9B6 JUMP JUMPDEST JUMPDEST POP SWAP1 POP PUSH2 0x9DF SWAP2 SWAP1 PUSH2 0x9E3 JUMP JUMPDEST POP SWAP1 JUMP JUMPDEST JUMPDEST DUP1 DUP3 GT ISZERO PUSH2 0x9FC JUMPI PUSH1 0x0 DUP2 PUSH1 0x0 SWAP1 SSTORE POP PUSH1 0x1 ADD PUSH2 0x9E4 JUMP JUMPDEST POP SWAP1 JUMP JUMPDEST PUSH1 0x0 PUSH2 0xA13 PUSH2 0xA0E DUP5 PUSH2 0xEF3 JUMP JUMPDEST PUSH2 0xECE JUMP JUMPDEST SWAP1 POP DUP3 DUP2 MSTORE PUSH1 0x20 DUP2 ADD DUP5 DUP5 DUP5 ADD GT ISZERO PUSH2 0xA2F JUMPI PUSH2 0xA2E PUSH2 0x1195 JUMP JUMPDEST JUMPDEST PUSH2 0xA3A DUP5 DUP3 DUP6 PUSH2 0xFE6 JUMP JUMPDEST POP SWAP4 SWAP3 POP POP POP JUMP JUMPDEST PUSH1 0x0 DUP3 PUSH1 0x1F DUP4 ADD SLT PUSH2 0xA57 JUMPI PUSH2 0xA56 PUSH2 0x1190 JUMP JUMPDEST JUMPDEST DUP2 CALLDATALOAD PUSH2 0xA67 DUP5 DUP3 PUSH1 0x20 DUP7 ADD PUSH2 0xA00 JUMP JUMPDEST SWAP2 POP POP SWAP3 SWAP2 POP POP JUMP JUMPDEST PUSH1 0x0 DUP2 CALLDATALOAD SWAP1 POP PUSH2 0xA7F DUP2 PUSH2 0x127C JUMP JUMPDEST SWAP3 SWAP2 POP POP JUMP JUMPDEST PUSH1 0x0 DUP1 PUSH1 0x40 DUP4 DUP6 SUB SLT ISZERO PUSH2 0xA9C JUMPI PUSH2 0xA9B PUSH2 0x119F JUMP JUMPDEST JUMPDEST PUSH1 0x0 DUP4 ADD CALLDATALOAD PUSH8 0xFFFFFFFFFFFFFFFF DUP2 GT ISZERO PUSH2 0xABA JUMPI PUSH2 0xAB9 PUSH2 0x119A JUMP JUMPDEST JUMPDEST PUSH2 0xAC6 DUP6 DUP3 DUP7 ADD PUSH2 0xA42 JUMP JUMPDEST SWAP3 POP POP PUSH1 0x20 DUP4 ADD CALLDATALOAD PUSH8 0xFFFFFFFFFFFFFFFF DUP2 GT ISZERO PUSH2 0xAE7 JUMPI PUSH2 0xAE6 PUSH2 0x119A JUMP JUMPDEST JUMPDEST PUSH2 0xAF3 DUP6 DUP3 DUP7 ADD PUSH2 0xA42 JUMP JUMPDEST SWAP2 POP POP SWAP3 POP SWAP3 SWAP1 POP JUMP JUMPDEST PUSH1 0x0 PUSH1 0x20 DUP3 DUP5 SUB SLT ISZERO PUSH2 0xB13 JUMPI PUSH2 0xB12 PUSH2 0x119F JUMP JUMPDEST JUMPDEST PUSH1 0x0 PUSH2 0xB21 DUP5 DUP3 DUP6 ADD PUSH2 0xA70 JUMP JUMPDEST SWAP2 POP POP SWAP3 SWAP2 POP POP JUMP JUMPDEST PUSH1 0x0 PUSH2 0xB36 DUP4 DUP4 PUSH2 0xB42 JUMP JUMPDEST PUSH1 0x20 DUP4 ADD SWAP1 POP SWAP3 SWAP2 POP POP JUMP JUMPDEST PUSH2 0xB4B DUP2 PUSH2 0xFAA JUMP JUMPDEST DUP3 MSTORE POP POP JUMP JUMPDEST PUSH1 0x0 PUSH2 0xB5C DUP3 PUSH2 0xF49 JUMP JUMPDEST PUSH2 0xB66 DUP2 DUP6 PUSH2 0xF6C JUMP JUMPDEST SWAP4 POP PUSH2 0xB71 DUP4 PUSH2 0xF24 JUMP JUMPDEST DUP1 PUSH1 0x0 JUMPDEST DUP4 DUP2 LT ISZERO PUSH2 0xBA2 JUMPI DUP2 MLOAD PUSH2 0xB89 DUP9 DUP3 PUSH2 0xB2A JUMP JUMPDEST SWAP8 POP PUSH2 0xB94 DUP4 PUSH2 0xF5F JUMP JUMPDEST SWAP3 POP POP PUSH1 0x1 DUP2 ADD SWAP1 POP PUSH2 0xB75 JUMP JUMPDEST POP DUP6 SWAP4 POP POP POP POP SWAP3 SWAP2 POP POP JUMP JUMPDEST PUSH1 0x0 PUSH2 0xBBA DUP3 PUSH2 0xF54 JUMP JUMPDEST PUSH2 0xBC4 DUP2 DUP6 PUSH2 0xF7D JUMP JUMPDEST SWAP4 POP PUSH2 0xBD4 DUP2 DUP6 PUSH1 0x20 DUP7 ADD PUSH2 0xFF5 JUMP JUMPDEST PUSH2 0xBDD DUP2 PUSH2 0x11A4 JUMP JUMPDEST DUP5 ADD SWAP2 POP POP SWAP3 SWAP2 POP POP JUMP JUMPDEST PUSH1 0x0 PUSH2 0xBF3 DUP3 PUSH2 0xF54 JUMP JUMPDEST PUSH2 0xBFD DUP2 DUP6 PUSH2 0xF8E JUMP JUMPDEST SWAP4 POP PUSH2 0xC0D DUP2 DUP6 PUSH1 0x20 DUP7 ADD PUSH2 0xFF5 JUMP JUMPDEST PUSH2 0xC16 DUP2 PUSH2 0x11A4 JUMP JUMPDEST DUP5 ADD SWAP2 POP POP SWAP3 SWAP2 POP POP JUMP JUMPDEST PUSH1 0x0 DUP2 SLOAD PUSH2 0xC2E DUP2 PUSH2 0x1028 JUMP JUMPDEST PUSH2 0xC38 DUP2 DUP7 PUSH2 0xF9F JUMP JUMPDEST SWAP5 POP PUSH1 0x1 DUP3 AND PUSH1 0x0 DUP2 EQ PUSH2 0xC53 JUMPI PUSH1 0x1 DUP2 EQ PUSH2 0xC64 JUMPI PUSH2 0xC97 JUMP JUMPDEST PUSH1 0xFF NOT DUP4 AND DUP7 MSTORE DUP2 DUP7 ADD SWAP4 POP PUSH2 0xC97 JUMP JUMPDEST PUSH2 0xC6D DUP6 PUSH2 0xF34 JUMP JUMPDEST PUSH1 0x0 JUMPDEST DUP4 DUP2 LT ISZERO PUSH2 0xC8F JUMPI DUP2 SLOAD DUP2 DUP10 ADD MSTORE PUSH1 0x1 DUP3 ADD SWAP2 POP PUSH1 0x20 DUP2 ADD SWAP1 POP PUSH2 0xC70 JUMP JUMPDEST DUP4 DUP9 ADD SWAP6 POP POP POP JUMPDEST POP POP POP SWAP3 SWAP2 POP POP JUMP JUMPDEST PUSH1 0x0 PUSH2 0xCAD PUSH1 0x2B DUP4 PUSH2 0xF8E JUMP JUMPDEST SWAP2 POP PUSH2 0xCB8 DUP3 PUSH2 0x11B5 JUMP JUMPDEST PUSH1 0x40 DUP3 ADD SWAP1 POP SWAP2 SWAP1 POP JUMP JUMPDEST PUSH1 0x0 PUSH2 0xCD0 PUSH1 0x21 DUP4 PUSH2 0xF8E JUMP JUMPDEST SWAP2 POP PUSH2 0xCDB DUP3 PUSH2 0x1204 JUMP JUMPDEST PUSH1 0x40 DUP3 ADD SWAP1 POP SWAP2 SWAP1 POP JUMP JUMPDEST PUSH1 0x0 PUSH2 0xCF3 PUSH1 0x17 DUP4 PUSH2 0xF8E JUMP JUMPDEST SWAP2 POP PUSH2 0xCFE DUP3 PUSH2 0x1253 JUMP JUMPDEST PUSH1 0x20 DUP3 ADD SWAP1 POP SWAP2 SWAP1 POP JUMP JUMPDEST PUSH1 0x0 PUSH1 0x80 DUP4 ADD PUSH1 0x0 DUP4 ADD MLOAD PUSH2 0xD21 PUSH1 0x0 DUP7 ADD DUP3 PUSH2 0xD73 JUMP JUMPDEST POP PUSH1 0x20 DUP4 ADD MLOAD DUP5 DUP3 SUB PUSH1 0x20 DUP7 ADD MSTORE PUSH2 0xD39 DUP3 DUP3 PUSH2 0xBAF JUMP JUMPDEST SWAP2 POP POP PUSH1 0x40 DUP4 ADD MLOAD DUP5 DUP3 SUB PUSH1 0x40 DUP7 ADD MSTORE PUSH2 0xD53 DUP3 DUP3 PUSH2 0xBAF JUMP JUMPDEST SWAP2 POP POP PUSH1 0x60 DUP4 ADD MLOAD PUSH2 0xD68 PUSH1 0x60 DUP7 ADD DUP3 PUSH2 0xD73 JUMP JUMPDEST POP DUP1 SWAP2 POP POP SWAP3 SWAP2 POP POP JUMP JUMPDEST PUSH2 0xD7C DUP2 PUSH2 0xFDC JUMP JUMPDEST DUP3 MSTORE POP POP JUMP JUMPDEST PUSH2 0xD8B DUP2 PUSH2 0xFDC JUMP JUMPDEST DUP3 MSTORE POP POP JUMP JUMPDEST PUSH1 0x0 PUSH2 0xD9D DUP3 DUP5 PUSH2 0xC21 JUMP JUMPDEST SWAP2 POP DUP2 SWAP1 POP SWAP3 SWAP2 POP POP JUMP JUMPDEST PUSH1 0x0 PUSH1 0x20 DUP3 ADD SWAP1 POP DUP2 DUP2 SUB PUSH1 0x0 DUP4 ADD MSTORE PUSH2 0xDC2 DUP2 DUP5 PUSH2 0xB51 JUMP JUMPDEST SWAP1 POP SWAP3 SWAP2 POP POP JUMP JUMPDEST PUSH1 0x0 PUSH1 0x20 DUP3 ADD SWAP1 POP DUP2 DUP2 SUB PUSH1 0x0 DUP4 ADD MSTORE PUSH2 0xDE4 DUP2 DUP5 PUSH2 0xBE8 JUMP JUMPDEST SWAP1 POP SWAP3 SWAP2 POP POP JUMP JUMPDEST PUSH1 0x0 PUSH1 0x60 DUP3 ADD SWAP1 POP DUP2 DUP2 SUB PUSH1 0x0 DUP4 ADD MSTORE PUSH2 0xE06 DUP2 DUP7 PUSH2 0xBE8 JUMP JUMPDEST SWAP1 POP DUP2 DUP2 SUB PUSH1 0x20 DUP4 ADD MSTORE PUSH2 0xE1A DUP2 DUP6 PUSH2 0xBE8 JUMP JUMPDEST SWAP1 POP PUSH2 0xE29 PUSH1 0x40 DUP4 ADD DUP5 PUSH2 0xD82 JUMP JUMPDEST SWAP5 SWAP4 POP POP POP POP JUMP JUMPDEST PUSH1 0x0 PUSH1 0x20 DUP3 ADD SWAP1 POP DUP2 DUP2 SUB PUSH1 0x0 DUP4 ADD MSTORE PUSH2 0xE4A DUP2 PUSH2 0xCA0 JUMP JUMPDEST SWAP1 POP SWAP2 SWAP1 POP JUMP JUMPDEST PUSH1 0x0 PUSH1 0x20 DUP3 ADD SWAP1 POP DUP2 DUP2 SUB PUSH1 0x0 DUP4 ADD MSTORE PUSH2 0xE6A DUP2 PUSH2 0xCC3 JUMP JUMPDEST SWAP1 POP SWAP2 SWAP1 POP JUMP JUMPDEST PUSH1 0x0 PUSH1 0x20 DUP3 ADD SWAP1 POP DUP2 DUP2 SUB PUSH1 0x0 DUP4 ADD MSTORE PUSH2 0xE8A DUP2 PUSH2 0xCE6 JUMP JUMPDEST SWAP1 POP SWAP2 SWAP1 POP JUMP JUMPDEST PUSH1 0x0 PUSH1 0x20 DUP3 ADD SWAP1 POP DUP2 DUP2 SUB PUSH1 0x0 DUP4 ADD MSTORE PUSH2 0xEAB DUP2 DUP5 PUSH2 0xD09 JUMP JUMPDEST SWAP1 POP SWAP3 SWAP2 POP POP JUMP JUMPDEST PUSH1 0x0 PUSH1 0x20 DUP3 ADD SWAP1 POP PUSH2 0xEC8 PUSH1 0x0 DUP4 ADD DUP5 PUSH2 0xD82 JUMP JUMPDEST SWAP3 SWAP2 POP POP JUMP JUMPDEST PUSH1 0x0 PUSH2 0xED8 PUSH2 0xEE9 JUMP JUMPDEST SWAP1 POP PUSH2 0xEE4 DUP3 DUP3 PUSH2 0x105A JUMP JUMPDEST SWAP2 SWAP1 POP JUMP JUMPDEST PUSH1 0x0 PUSH1 0x40 MLOAD SWAP1 POP SWAP1 JUMP JUMPDEST PUSH1 0x0 PUSH8 0xFFFFFFFFFFFFFFFF DUP3 GT ISZERO PUSH2 0xF0E JUMPI PUSH2 0xF0D PUSH2 0x1161 JUMP JUMPDEST JUMPDEST PUSH2 0xF17 DUP3 PUSH2 0x11A4 JUMP JUMPDEST SWAP1 POP PUSH1 0x20 DUP2 ADD SWAP1 POP SWAP2 SWAP1 POP JUMP JUMPDEST PUSH1 0x0 DUP2 SWAP1 POP PUSH1 0x20 DUP3 ADD SWAP1 POP SWAP2 SWAP1 POP JUMP JUMPDEST PUSH1 0x0 DUP2 SWAP1 POP DUP2 PUSH1 0x0 MSTORE PUSH1 0x20 PUSH1 0x0 KECCAK256 SWAP1 POP SWAP2 SWAP1 POP JUMP JUMPDEST PUSH1 0x0 DUP2 MLOAD SWAP1 POP SWAP2 SWAP1 POP JUMP JUMPDEST PUSH1 0x0 DUP2 MLOAD SWAP1 POP SWAP2 SWAP1 POP JUMP JUMPDEST PUSH1 0x0 PUSH1 0x20 DUP3 ADD SWAP1 POP SWAP2 SWAP1 POP JUMP JUMPDEST PUSH1 0x0 DUP3 DUP3 MSTORE PUSH1 0x20 DUP3 ADD SWAP1 POP SWAP3 SWAP2 POP POP JUMP JUMPDEST PUSH1 0x0 DUP3 DUP3 MSTORE PUSH1 0x20 DUP3 ADD SWAP1 POP SWAP3 SWAP2 POP POP JUMP JUMPDEST PUSH1 0x0 DUP3 DUP3 MSTORE PUSH1 0x20 DUP3 ADD SWAP1 POP SWAP3 SWAP2 POP POP JUMP JUMPDEST PUSH1 0x0 DUP2 SWAP1 POP SWAP3 SWAP2 POP POP JUMP JUMPDEST PUSH1 0x0 PUSH2 0xFB5 DUP3 PUSH2 0xFBC JUMP JUMPDEST SWAP1 POP SWAP2 SWAP1 POP JUMP JUMPDEST PUSH1 0x0 PUSH20 0xFFFFFFFFFFFFFFFFFFFFFFFFFFFFFFFFFFFFFFFF DUP3 AND SWAP1 POP SWAP2 SWAP1 POP JUMP JUMPDEST PUSH1 0x0 DUP2 SWAP1 POP SWAP2 SWAP1 POP JUMP JUMPDEST DUP3 DUP2 DUP4 CALLDATACOPY PUSH1 0x0 DUP4 DUP4 ADD MSTORE POP POP POP JUMP JUMPDEST PUSH1 0x0 JUMPDEST DUP4 DUP2 LT ISZERO PUSH2 0x1013 JUMPI DUP1 DUP3 ADD MLOAD DUP2 DUP5 ADD MSTORE PUSH1 0x20 DUP2 ADD SWAP1 POP PUSH2 0xFF8 JUMP JUMPDEST DUP4 DUP2 GT ISZERO PUSH2 0x1022 JUMPI PUSH1 0x0 DUP5 DUP5 ADD MSTORE JUMPDEST POP POP POP POP JUMP JUMPDEST PUSH1 0x0 PUSH1 0x2 DUP3 DIV SWAP1 POP PUSH1 0x1 DUP3 AND DUP1 PUSH2 0x1040 JUMPI PUSH1 0x7F DUP3 AND SWAP2 POP JUMPDEST PUSH1 0x20 DUP3 LT DUP2 EQ ISZERO PUSH2 0x1054 JUMPI PUSH2 0x1053 PUSH2 0x1103 JUMP JUMPDEST JUMPDEST POP SWAP2 SWAP1 POP JUMP JUMPDEST PUSH2 0x1063 DUP3 PUSH2 0x11A4 JUMP JUMPDEST DUP2 ADD DUP2 DUP2 LT PUSH8 0xFFFFFFFFFFFFFFFF DUP3 GT OR ISZERO PUSH2 0x1082 JUMPI PUSH2 0x1081 PUSH2 0x1161 JUMP JUMPDEST JUMPDEST DUP1 PUSH1 0x40 MSTORE POP POP POP JUMP JUMPDEST PUSH1 0x0 PUSH2 0x1096 DUP3 PUSH2 0xFDC JUMP JUMPDEST SWAP2 POP PUSH32 0xFFFFFFFFFFFFFFFFFFFFFFFFFFFFFFFFFFFFFFFFFFFFFFFFFFFFFFFFFFFFFFFF DUP3 EQ ISZERO PUSH2 0x10C9 JUMPI PUSH2 0x10C8 PUSH2 0x10D4 JUMP JUMPDEST JUMPDEST PUSH1 0x1 DUP3 ADD SWAP1 POP SWAP2 SWAP1 POP JUMP JUMPDEST PUSH32 0x4E487B7100000000000000000000000000000000000000000000000000000000 PUSH1 0x0 MSTORE PUSH1 0x11 PUSH1 0x4 MSTORE PUSH1 0x24 PUSH1 0x0 REVERT JUMPDEST PUSH32 0x4E487B7100000000000000000000000000000000000000000000000000000000 PUSH1 0x0 MSTORE PUSH1 0x22 PUSH1 0x4 MSTORE PUSH1 0x24 PUSH1 0x0 REVERT JUMPDEST PUSH32 0x4E487B7100000000000000000000000000000000000000000000000000000000 PUSH1 0x0 MSTORE PUSH1 0x32 PUSH1 0x4 MSTORE PUSH1 0x24 PUSH1 0x0 REVERT JUMPDEST PUSH32 0x4E487B7100000000000000000000000000000000000000000000000000000000 PUSH1 0x0 MSTORE PUSH1 0x41 PUSH1 0x4 MSTORE PUSH1 0x24 PUSH1 0x0 REVERT JUMPDEST PUSH1 0x0 DUP1 REVERT JUMPDEST PUSH1 0x0 DUP1 REVERT JUMPDEST PUSH1 0x0 DUP1 REVERT JUMPDEST PUSH1 0x0 DUP1 REVERT JUMPDEST PUSH1 0x0 PUSH1 0x1F NOT PUSH1 0x1F DUP4 ADD AND SWAP1 POP SWAP2 SWAP1 POP JUMP JUMPDEST PUSH32 0x5061796D656E742073686F756C64206265207468652073756273637269707469 PUSH1 0x0 DUP3 ADD MSTORE PUSH32 0x6F6E20666565206F6E6C79000000000000000000000000000000000000000000 PUSH1 0x20 DUP3 ADD MSTORE POP JUMP JUMPDEST PUSH32 0x4F6E6C7920617574686F722063616E2063616C6C2074686973206D6574686F64 PUSH1 0x0 DUP3 ADD MSTORE PUSH32 0x2100000000000000000000000000000000000000000000000000000000000000 PUSH1 0x20 DUP3 ADD MSTORE POP JUMP JUMPDEST PUSH32 0x4E6F7420612076616C69642061727469636C65204E6F2E000000000000000000 PUSH1 0x0 DUP3 ADD MSTORE POP JUMP JUMPDEST PUSH2 0x1285 DUP2 PUSH2 0xFDC JUMP JUMPDEST DUP2 EQ PUSH2 0x1290 JUMPI PUSH1 0x0 DUP1 REVERT JUMPDEST POP JUMP INVALID LOG2 PUSH5 0x6970667358 0x22 SLT KECCAK256 SIGNEXTEND DIV PUSH6 0x763E3E0F86F2 PUSH14 0xCEEA8B581F976F1FCAC2AF321210 0xB5 JUMPI 0x5D 0xD3 STATICCALL SWAP16 GT 0xD5 PUSH5 0x736F6C6343 STOP ADDMOD SMOD STOP CALLER "
				},
				"gasEstimates": {
					"creation": {
						"codeDepositCost": "961800",
						"executionCost": "infinite",
						"totalCost": "infinite"
					},
					"external": {
						"": "2612",
						"addSubscriber()": "infinite",
						"channelName()": "infinite",
						"getArticleInfo(uint256)": "infinite",
						"printSubscriberCount()": "2504",
						"printSubscribersList()": "infinite",
						"publishArticle(string,string)": "infinite",
						"subscriptionFee()": "2430",
						"withdrawAmount()": "infinite"
					}
				},
				"methodIdentifiers": {
					"addSubscriber()": "be291999",
					"channelName()": "2443877c",
					"getArticleInfo(uint256)": "85aca317",
					"printSubscriberCount()": "625b1ebe",
					"printSubscribersList()": "82d69b62",
					"publishArticle(string,string)": "95961f05",
					"subscriptionFee()": "0aa0a175",
					"withdrawAmount()": "534844a2"
				}
			},
			"storageLayout": {
				"storage": [
					{
						"astId": 5,
						"contract": "contracts/myContract.sol:testContract",
						"label": "subscribers",
						"offset": 0,
						"slot": "0",
						"type": "t_mapping(t_uint256,t_address)"
					},
					{
						"astId": 7,
						"contract": "contracts/myContract.sol:testContract",
						"label": "subscriberCount",
						"offset": 0,
						"slot": "1",
						"type": "t_uint256"
					},
					{
						"astId": 21,
						"contract": "contracts/myContract.sol:testContract",
						"label": "articleHistory",
						"offset": 0,
						"slot": "2",
						"type": "t_mapping(t_uint256,t_struct(articleInfo)16_storage)"
					},
					{
						"astId": 23,
						"contract": "contracts/myContract.sol:testContract",
						"label": "articleCount",
						"offset": 0,
						"slot": "3",
						"type": "t_uint256"
					},
					{
						"astId": 25,
						"contract": "contracts/myContract.sol:testContract",
						"label": "author",
						"offset": 0,
						"slot": "4",
						"type": "t_address_payable"
					},
					{
						"astId": 27,
						"contract": "contracts/myContract.sol:testContract",
						"label": "subscriptionFee",
						"offset": 0,
						"slot": "5",
						"type": "t_uint256"
					},
					{
						"astId": 29,
						"contract": "contracts/myContract.sol:testContract",
						"label": "channelName",
						"offset": 0,
						"slot": "6",
						"type": "t_string_storage"
					}
				],
				"types": {
					"t_address": {
						"encoding": "inplace",
						"label": "address",
						"numberOfBytes": "20"
					},
					"t_address_payable": {
						"encoding": "inplace",
						"label": "address payable",
						"numberOfBytes": "20"
					},
					"t_mapping(t_uint256,t_address)": {
						"encoding": "mapping",
						"key": "t_uint256",
						"label": "mapping(uint256 => address)",
						"numberOfBytes": "32",
						"value": "t_address"
					},
					"t_mapping(t_uint256,t_struct(articleInfo)16_storage)": {
						"encoding": "mapping",
						"key": "t_uint256",
						"label": "mapping(uint256 => struct testContract.articleInfo)",
						"numberOfBytes": "32",
						"value": "t_struct(articleInfo)16_storage"
					},
					"t_string_storage": {
						"encoding": "bytes",
						"label": "string",
						"numberOfBytes": "32"
					},
					"t_struct(articleInfo)16_storage": {
						"encoding": "inplace",
						"label": "struct testContract.articleInfo",
						"members": [
							{
								"astId": 9,
								"contract": "contracts/myContract.sol:testContract",
								"label": "articleNo",
								"offset": 0,
								"slot": "0",
								"type": "t_uint256"
							},
							{
								"astId": 11,
								"contract": "contracts/myContract.sol:testContract",
								"label": "atricleTitle",
								"offset": 0,
								"slot": "1",
								"type": "t_string_storage"
							},
							{
								"astId": 13,
								"contract": "contracts/myContract.sol:testContract",
								"label": "articleCID",
								"offset": 0,
								"slot": "2",
								"type": "t_string_storage"
							},
							{
								"astId": 15,
								"contract": "contracts/myContract.sol:testContract",
								"label": "articleTimeStamp",
								"offset": 0,
								"slot": "3",
								"type": "t_uint256"
							}
						],
						"numberOfBytes": "128"
					},
					"t_uint256": {
						"encoding": "inplace",
						"label": "uint256",
						"numberOfBytes": "32"
					}
				}
			},
			"userdoc": {
				"kind": "user",
				"methods": {},
				"version": 1
			}
		}
	}
}