{
	"contracts/myContract.sol": {
		"testContract": {
			"abi": [
				{
					"inputs": [
						{
							"internalType": "uint256",
							"name": "fee",
							"type": "uint256"
						}
					],
					"stateMutability": "nonpayable",
					"type": "constructor"
				},
				{
					"anonymous": false,
					"inputs": [
						{
							"indexed": false,
							"internalType": "string",
							"name": "name",
							"type": "string"
						},
						{
							"indexed": false,
							"internalType": "address",
							"name": "addr",
							"type": "address"
						}
					],
					"name": "SubscriberPrint",
					"type": "event"
				},
				{
					"stateMutability": "payable",
					"type": "fallback"
				},
				{
					"inputs": [
						{
							"internalType": "string",
							"name": "userName",
							"type": "string"
						}
					],
					"name": "addSubscriber",
					"outputs": [],
					"stateMutability": "nonpayable",
					"type": "function"
				},
				{
					"inputs": [],
					"name": "author",
					"outputs": [
						{
							"internalType": "address",
							"name": "",
							"type": "address"
						}
					],
					"stateMutability": "view",
					"type": "function"
				},
				{
					"inputs": [],
					"name": "getContractBalance",
					"outputs": [
						{
							"internalType": "uint256",
							"name": "",
							"type": "uint256"
						}
					],
					"stateMutability": "view",
					"type": "function"
				},
				{
					"inputs": [],
					"name": "getSubscriberCount",
					"outputs": [
						{
							"internalType": "uint256",
							"name": "",
							"type": "uint256"
						}
					],
					"stateMutability": "view",
					"type": "function"
				},
				{
					"inputs": [],
					"name": "printSubscribersList",
					"outputs": [
						{
							"components": [
								{
									"internalType": "string",
									"name": "name",
									"type": "string"
								},
								{
									"internalType": "address",
									"name": "addr",
									"type": "address"
								}
							],
							"internalType": "struct testContract.subscriber",
							"name": "",
							"type": "tuple"
						}
					],
					"stateMutability": "nonpayable",
					"type": "function"
				},
				{
					"inputs": [],
					"name": "subscriberCount",
					"outputs": [
						{
							"internalType": "uint256",
							"name": "",
							"type": "uint256"
						}
					],
					"stateMutability": "view",
					"type": "function"
				},
				{
					"inputs": [
						{
							"internalType": "uint256",
							"name": "",
							"type": "uint256"
						}
					],
					"name": "subscribers",
					"outputs": [
						{
							"internalType": "string",
							"name": "name",
							"type": "string"
						},
						{
							"internalType": "address",
							"name": "addr",
							"type": "address"
						}
					],
					"stateMutability": "view",
					"type": "function"
				},
				{
					"inputs": [],
					"name": "subscriptionFee",
					"outputs": [
						{
							"internalType": "uint256",
							"name": "",
							"type": "uint256"
						}
					],
					"stateMutability": "view",
					"type": "function"
				},
				{
					"stateMutability": "payable",
					"type": "receive"
				}
			],
			"devdoc": {
				"kind": "dev",
				"methods": {},
				"version": 1
			},
			"evm": {
				"assembly": "    /* \"contracts/myContract.sol\":76:1568  contract testContract {\r... */\n  mstore(0x40, 0x80)\n    /* \"contracts/myContract.sol\":194:195  0 */\n  0x00\n    /* \"contracts/myContract.sol\":164:195  uint public subscriberCount = 0 */\n  0x01\n  sstore\n    /* \"contracts/myContract.sol\":405:496  constructor(uint fee){\r... */\n  callvalue\n  dup1\n  iszero\n  tag_1\n  jumpi\n  0x00\n  dup1\n  revert\ntag_1:\n  pop\n  mload(0x40)\n  sub(codesize, bytecodeSize)\n  dup1\n  bytecodeSize\n  dup4\n  codecopy\n  dup2\n  dup2\n  add\n  0x40\n  mstore\n  dup2\n  add\n  swap1\n  tag_2\n  swap2\n  swap1\n  tag_3\n  jump\t// in\ntag_2:\n    /* \"contracts/myContract.sol\":446:456  msg.sender */\n  caller\n    /* \"contracts/myContract.sol\":437:443  author */\n  0x02\n  0x00\n    /* \"contracts/myContract.sol\":437:456  author = msg.sender */\n  0x0100\n  exp\n  dup2\n  sload\n  dup2\n  0xffffffffffffffffffffffffffffffffffffffff\n  mul\n  not\n  and\n  swap1\n  dup4\n  0xffffffffffffffffffffffffffffffffffffffff\n  and\n  mul\n  or\n  swap1\n  sstore\n  pop\n    /* \"contracts/myContract.sol\":485:488  fee */\n  dup1\n    /* \"contracts/myContract.sol\":467:482  subscriptionFee */\n  0x03\n    /* \"contracts/myContract.sol\":467:488  subscriptionFee = fee */\n  dup2\n  swap1\n  sstore\n  pop\n    /* \"contracts/myContract.sol\":405:496  constructor(uint fee){\r... */\n  pop\n    /* \"contracts/myContract.sol\":76:1568  contract testContract {\r... */\n  jump(tag_6)\n    /* \"#utility.yul\":7:150   */\ntag_8:\n    /* \"#utility.yul\":64:69   */\n  0x00\n    /* \"#utility.yul\":95:101   */\n  dup2\n    /* \"#utility.yul\":89:102   */\n  mload\n    /* \"#utility.yul\":80:102   */\n  swap1\n  pop\n    /* \"#utility.yul\":111:144   */\n  tag_10\n    /* \"#utility.yul\":138:143   */\n  dup2\n    /* \"#utility.yul\":111:144   */\n  tag_11\n  jump\t// in\ntag_10:\n    /* \"#utility.yul\":7:150   */\n  swap3\n  swap2\n  pop\n  pop\n  jump\t// out\n    /* \"#utility.yul\":156:507   */\ntag_3:\n    /* \"#utility.yul\":226:232   */\n  0x00\n    /* \"#utility.yul\":275:277   */\n  0x20\n    /* \"#utility.yul\":263:272   */\n  dup3\n    /* \"#utility.yul\":254:261   */\n  dup5\n    /* \"#utility.yul\":250:273   */\n  sub\n    /* \"#utility.yul\":246:278   */\n  slt\n    /* \"#utility.yul\":243:362   */\n  iszero\n  tag_13\n  jumpi\n    /* \"#utility.yul\":281:360   */\n  tag_14\n  tag_15\n  jump\t// in\ntag_14:\n    /* \"#utility.yul\":243:362   */\ntag_13:\n    /* \"#utility.yul\":401:402   */\n  0x00\n    /* \"#utility.yul\":426:490   */\n  tag_16\n    /* \"#utility.yul\":482:489   */\n  dup5\n    /* \"#utility.yul\":473:479   */\n  dup3\n    /* \"#utility.yul\":462:471   */\n  dup6\n    /* \"#utility.yul\":458:480   */\n  add\n    /* \"#utility.yul\":426:490   */\n  tag_8\n  jump\t// in\ntag_16:\n    /* \"#utility.yul\":416:490   */\n  swap2\n  pop\n    /* \"#utility.yul\":372:500   */\n  pop\n    /* \"#utility.yul\":156:507   */\n  swap3\n  swap2\n  pop\n  pop\n  jump\t// out\n    /* \"#utility.yul\":594:671   */\ntag_19:\n    /* \"#utility.yul\":631:638   */\n  0x00\n    /* \"#utility.yul\":660:665   */\n  dup2\n    /* \"#utility.yul\":649:665   */\n  swap1\n  pop\n    /* \"#utility.yul\":594:671   */\n  swap2\n  swap1\n  pop\n  jump\t// out\n    /* \"#utility.yul\":800:917   */\ntag_15:\n    /* \"#utility.yul\":909:910   */\n  0x00\n    /* \"#utility.yul\":906:907   */\n  dup1\n    /* \"#utility.yul\":899:911   */\n  revert\n    /* \"#utility.yul\":923:1045   */\ntag_11:\n    /* \"#utility.yul\":996:1020   */\n  tag_25\n    /* \"#utility.yul\":1014:1019   */\n  dup2\n    /* \"#utility.yul\":996:1020   */\n  tag_19\n  jump\t// in\ntag_25:\n    /* \"#utility.yul\":989:994   */\n  dup2\n    /* \"#utility.yul\":986:1021   */\n  eq\n    /* \"#utility.yul\":976:1039   */\n  tag_26\n  jumpi\n    /* \"#utility.yul\":1035:1036   */\n  0x00\n    /* \"#utility.yul\":1032:1033   */\n  dup1\n    /* \"#utility.yul\":1025:1037   */\n  revert\n    /* \"#utility.yul\":976:1039   */\ntag_26:\n    /* \"#utility.yul\":923:1045   */\n  pop\n  jump\t// out\n    /* \"contracts/myContract.sol\":76:1568  contract testContract {\r... */\ntag_6:\n  dataSize(sub_0)\n  dup1\n  dataOffset(sub_0)\n  0x00\n  codecopy\n  0x00\n  return\nstop\n\nsub_0: assembly {\n        /* \"contracts/myContract.sol\":76:1568  contract testContract {\r... */\n      mstore(0x40, 0x80)\n      jumpi(tag_1, lt(calldatasize, 0x04))\n      shr(0xe0, calldataload(0x00))\n      dup1\n      0x6f9fb98a\n      gt\n      tag_11\n      jumpi\n      dup1\n      0x6f9fb98a\n      eq\n      tag_7\n      jumpi\n      dup1\n      0x82d69b62\n      eq\n      tag_8\n      jumpi\n      dup1\n      0xa6c3e6b9\n      eq\n      tag_9\n      jumpi\n      dup1\n      0xef352bbe\n      eq\n      tag_10\n      jumpi\n      jump(tag_2)\n    tag_11:\n      dup1\n      0x0aa0a175\n      eq\n      tag_3\n      jumpi\n      dup1\n      0x17e703ab\n      eq\n      tag_4\n      jumpi\n      dup1\n      0x2edd4fa5\n      eq\n      tag_5\n      jumpi\n      dup1\n      0x59221a68\n      eq\n      tag_6\n      jumpi\n      jump(tag_2)\n    tag_1:\n      jumpi(tag_2, calldatasize)\n        /* \"contracts/myContract.sol\":819:825  author */\n      0x02\n      0x00\n      swap1\n      sload\n      swap1\n      0x0100\n      exp\n      swap1\n      div\n      0xffffffffffffffffffffffffffffffffffffffff\n      and\n        /* \"contracts/myContract.sol\":805:825  msg.sender == author */\n      0xffffffffffffffffffffffffffffffffffffffff\n      and\n        /* \"contracts/myContract.sol\":805:815  msg.sender */\n      caller\n        /* \"contracts/myContract.sol\":805:825  msg.sender == author */\n      0xffffffffffffffffffffffffffffffffffffffff\n      and\n      eq\n        /* \"contracts/myContract.sol\":796:871  require (msg.sender == author, \"Only the author can withdraw the payment.\") */\n      tag_14\n      jumpi\n      mload(0x40)\n      0x08c379a000000000000000000000000000000000000000000000000000000000\n      dup2\n      mstore\n      0x04\n      add\n      tag_15\n      swap1\n      tag_16\n      jump\t// in\n    tag_15:\n      mload(0x40)\n      dup1\n      swap2\n      sub\n      swap1\n      revert\n    tag_14:\n        /* \"contracts/myContract.sol\":892:902  msg.sender */\n      caller\n        /* \"contracts/myContract.sol\":884:912  payable(msg.sender).transfer */\n      0xffffffffffffffffffffffffffffffffffffffff\n      and\n        /* \"contracts/myContract.sol\":884:935  payable(msg.sender).transfer(address(this).balance) */\n      0x08fc\n        /* \"contracts/myContract.sol\":913:934  address(this).balance */\n      selfbalance\n        /* \"contracts/myContract.sol\":884:935  payable(msg.sender).transfer(address(this).balance) */\n      swap1\n      dup2\n      iszero\n      mul\n      swap1\n      mload(0x40)\n      0x00\n      mload(0x40)\n      dup1\n      dup4\n      sub\n      dup2\n      dup6\n      dup9\n      dup9\n      call\n      swap4\n      pop\n      pop\n      pop\n      pop\n      iszero\n      dup1\n      iszero\n      tag_18\n      jumpi\n      returndatasize\n      0x00\n      dup1\n      returndatacopy\n      revert(0x00, returndatasize)\n    tag_18:\n      pop\n        /* \"contracts/myContract.sol\":76:1568  contract testContract {\r... */\n      stop\n    tag_2:\n        /* \"contracts/myContract.sol\":568:583  subscriptionFee */\n      sload(0x03)\n        /* \"contracts/myContract.sol\":552:561  msg.value */\n      callvalue\n        /* \"contracts/myContract.sol\":552:583  msg.value ==    subscriptionFee */\n      eq\n        /* \"contracts/myContract.sol\":543:631  require( msg.value ==    subscriptionFee , \"Payment should be the subscription fee\"    ) */\n      tag_21\n      jumpi\n      mload(0x40)\n      0x08c379a000000000000000000000000000000000000000000000000000000000\n      dup2\n      mstore\n      0x04\n      add\n      tag_22\n      swap1\n      tag_23\n      jump\t// in\n    tag_22:\n      mload(0x40)\n      dup1\n      swap2\n      sub\n      swap1\n      revert\n    tag_21:\n        /* \"contracts/myContract.sol\":76:1568  contract testContract {\r... */\n      stop\n        /* \"contracts/myContract.sol\":312:339  uint public subscriptionFee */\n    tag_3:\n      callvalue\n      dup1\n      iszero\n      tag_24\n      jumpi\n      0x00\n      dup1\n      revert\n    tag_24:\n      pop\n      tag_25\n      tag_26\n      jump\t// in\n    tag_25:\n      mload(0x40)\n      tag_27\n      swap2\n      swap1\n      tag_28\n      jump\t// in\n    tag_27:\n      mload(0x40)\n      dup1\n      swap2\n      sub\n      swap1\n      return\n        /* \"contracts/myContract.sol\":1123:1223  function getSubscriberCount() public view returns(uint256) {\r... */\n    tag_4:\n      callvalue\n      dup1\n      iszero\n      tag_29\n      jumpi\n      0x00\n      dup1\n      revert\n    tag_29:\n      pop\n      tag_30\n      tag_31\n      jump\t// in\n    tag_30:\n      mload(0x40)\n      tag_32\n      swap2\n      swap1\n      tag_28\n      jump\t// in\n    tag_32:\n      mload(0x40)\n      dup1\n      swap2\n      sub\n      swap1\n      return\n        /* \"contracts/myContract.sol\":951:1114  function addSubscriber(string memory userName) public {\r... */\n    tag_5:\n      callvalue\n      dup1\n      iszero\n      tag_33\n      jumpi\n      0x00\n      dup1\n      revert\n    tag_33:\n      pop\n      tag_34\n      0x04\n      dup1\n      calldatasize\n      sub\n      dup2\n      add\n      swap1\n      tag_35\n      swap2\n      swap1\n      tag_36\n      jump\t// in\n    tag_35:\n      tag_37\n      jump\t// in\n    tag_34:\n      stop\n        /* \"contracts/myContract.sol\":111:157  mapping(uint => subscriber) public subscribers */\n    tag_6:\n      callvalue\n      dup1\n      iszero\n      tag_38\n      jumpi\n      0x00\n      dup1\n      revert\n    tag_38:\n      pop\n      tag_39\n      0x04\n      dup1\n      calldatasize\n      sub\n      dup2\n      add\n      swap1\n      tag_40\n      swap2\n      swap1\n      tag_41\n      jump\t// in\n    tag_40:\n      tag_42\n      jump\t// in\n    tag_39:\n      mload(0x40)\n      tag_43\n      swap3\n      swap2\n      swap1\n      tag_44\n      jump\t// in\n    tag_43:\n      mload(0x40)\n      dup1\n      swap2\n      sub\n      swap1\n      return\n        /* \"contracts/myContract.sol\":647:750  function getContractBalance() public view returns (uint){\r... */\n    tag_7:\n      callvalue\n      dup1\n      iszero\n      tag_45\n      jumpi\n      0x00\n      dup1\n      revert\n    tag_45:\n      pop\n      tag_46\n      tag_47\n      jump\t// in\n    tag_46:\n      mload(0x40)\n      tag_48\n      swap2\n      swap1\n      tag_28\n      jump\t// in\n    tag_48:\n      mload(0x40)\n      dup1\n      swap2\n      sub\n      swap1\n      return\n        /* \"contracts/myContract.sol\":1231:1563  function printSubscribersList() public  returns(subscriber memory){\r... */\n    tag_8:\n      callvalue\n      dup1\n      iszero\n      tag_49\n      jumpi\n      0x00\n      dup1\n      revert\n    tag_49:\n      pop\n      tag_50\n      tag_51\n      jump\t// in\n    tag_50:\n      mload(0x40)\n      tag_52\n      swap2\n      swap1\n      tag_53\n      jump\t// in\n    tag_52:\n      mload(0x40)\n      dup1\n      swap2\n      sub\n      swap1\n      return\n        /* \"contracts/myContract.sol\":284:305  address public author */\n    tag_9:\n      callvalue\n      dup1\n      iszero\n      tag_54\n      jumpi\n      0x00\n      dup1\n      revert\n    tag_54:\n      pop\n      tag_55\n      tag_56\n      jump\t// in\n    tag_55:\n      mload(0x40)\n      tag_57\n      swap2\n      swap1\n      tag_58\n      jump\t// in\n    tag_57:\n      mload(0x40)\n      dup1\n      swap2\n      sub\n      swap1\n      return\n        /* \"contracts/myContract.sol\":164:195  uint public subscriberCount = 0 */\n    tag_10:\n      callvalue\n      dup1\n      iszero\n      tag_59\n      jumpi\n      0x00\n      dup1\n      revert\n    tag_59:\n      pop\n      tag_60\n      tag_61\n      jump\t// in\n    tag_60:\n      mload(0x40)\n      tag_62\n      swap2\n      swap1\n      tag_28\n      jump\t// in\n    tag_62:\n      mload(0x40)\n      dup1\n      swap2\n      sub\n      swap1\n      return\n        /* \"contracts/myContract.sol\":312:339  uint public subscriptionFee */\n    tag_26:\n      sload(0x03)\n      dup2\n      jump\t// out\n        /* \"contracts/myContract.sol\":1123:1223  function getSubscriberCount() public view returns(uint256) {\r... */\n    tag_31:\n        /* \"contracts/myContract.sol\":1173:1180  uint256 */\n      0x00\n        /* \"contracts/myContract.sol\":1200:1215  subscriberCount */\n      sload(0x01)\n        /* \"contracts/myContract.sol\":1193:1215  return subscriberCount */\n      swap1\n      pop\n        /* \"contracts/myContract.sol\":1123:1223  function getSubscriberCount() public view returns(uint256) {\r... */\n      swap1\n      jump\t// out\n        /* \"contracts/myContract.sol\":951:1114  function addSubscriber(string memory userName) public {\r... */\n    tag_37:\n        /* \"contracts/myContract.sol\":1047:1078  subscriber(userName,msg.sender) */\n      mload(0x40)\n      dup1\n      0x40\n      add\n      0x40\n      mstore\n      dup1\n        /* \"contracts/myContract.sol\":1058:1066  userName */\n      dup3\n        /* \"contracts/myContract.sol\":1047:1078  subscriber(userName,msg.sender) */\n      dup2\n      mstore\n      0x20\n      add\n        /* \"contracts/myContract.sol\":1067:1077  msg.sender */\n      caller\n        /* \"contracts/myContract.sol\":1047:1078  subscriber(userName,msg.sender) */\n      0xffffffffffffffffffffffffffffffffffffffff\n      and\n      dup2\n      mstore\n      pop\n        /* \"contracts/myContract.sol\":1016:1027  subscribers */\n      0x00\n        /* \"contracts/myContract.sol\":1016:1044  subscribers[subscriberCount] */\n      dup1\n        /* \"contracts/myContract.sol\":1028:1043  subscriberCount */\n      sload(0x01)\n        /* \"contracts/myContract.sol\":1016:1044  subscribers[subscriberCount] */\n      dup2\n      mstore\n      0x20\n      add\n      swap1\n      dup2\n      mstore\n      0x20\n      add\n      0x00\n      keccak256\n        /* \"contracts/myContract.sol\":1016:1078  subscribers[subscriberCount] = subscriber(userName,msg.sender) */\n      0x00\n      dup3\n      add\n      mload\n      dup2\n      0x00\n      add\n      swap1\n      dup1\n      mload\n      swap1\n      0x20\n      add\n      swap1\n      tag_65\n      swap3\n      swap2\n      swap1\n      tag_66\n      jump\t// in\n    tag_65:\n      pop\n      0x20\n      dup3\n      add\n      mload\n      dup2\n      0x01\n      add\n      exp(0x0100, 0x00)\n      dup2\n      sload\n      dup2\n      0xffffffffffffffffffffffffffffffffffffffff\n      mul\n      not\n      and\n      swap1\n      dup4\n      0xffffffffffffffffffffffffffffffffffffffff\n      and\n      mul\n      or\n      swap1\n      sstore\n      pop\n      swap1\n      pop\n      pop\n        /* \"contracts/myContract.sol\":1089:1104  subscriberCount */\n      0x01\n      0x00\n        /* \"contracts/myContract.sol\":1089:1106  subscriberCount++ */\n      dup2\n      sload\n      dup1\n      swap3\n      swap2\n      swap1\n      tag_67\n      swap1\n      tag_68\n      jump\t// in\n    tag_67:\n      swap2\n      swap1\n      pop\n      sstore\n      pop\n        /* \"contracts/myContract.sol\":951:1114  function addSubscriber(string memory userName) public {\r... */\n      pop\n      jump\t// out\n        /* \"contracts/myContract.sol\":111:157  mapping(uint => subscriber) public subscribers */\n    tag_42:\n      mstore(0x20, 0x00)\n      dup1\n      0x00\n      mstore\n      keccak256(0x00, 0x40)\n      0x00\n      swap2\n      pop\n      swap1\n      pop\n      dup1\n      0x00\n      add\n      dup1\n      sload\n      tag_69\n      swap1\n      tag_70\n      jump\t// in\n    tag_69:\n      dup1\n      0x1f\n      add\n      0x20\n      dup1\n      swap2\n      div\n      mul\n      0x20\n      add\n      mload(0x40)\n      swap1\n      dup2\n      add\n      0x40\n      mstore\n      dup1\n      swap3\n      swap2\n      swap1\n      dup2\n      dup2\n      mstore\n      0x20\n      add\n      dup3\n      dup1\n      sload\n      tag_71\n      swap1\n      tag_70\n      jump\t// in\n    tag_71:\n      dup1\n      iszero\n      tag_72\n      jumpi\n      dup1\n      0x1f\n      lt\n      tag_73\n      jumpi\n      0x0100\n      dup1\n      dup4\n      sload\n      div\n      mul\n      dup4\n      mstore\n      swap2\n      0x20\n      add\n      swap2\n      jump(tag_72)\n    tag_73:\n      dup3\n      add\n      swap2\n      swap1\n      0x00\n      mstore\n      keccak256(0x00, 0x20)\n      swap1\n    tag_74:\n      dup2\n      sload\n      dup2\n      mstore\n      swap1\n      0x01\n      add\n      swap1\n      0x20\n      add\n      dup1\n      dup4\n      gt\n      tag_74\n      jumpi\n      dup3\n      swap1\n      sub\n      0x1f\n      and\n      dup3\n      add\n      swap2\n    tag_72:\n      pop\n      pop\n      pop\n      pop\n      pop\n      swap1\n      dup1\n      0x01\n      add\n      0x00\n      swap1\n      sload\n      swap1\n      0x0100\n      exp\n      swap1\n      div\n      0xffffffffffffffffffffffffffffffffffffffff\n      and\n      swap1\n      pop\n      dup3\n      jump\t// out\n        /* \"contracts/myContract.sol\":647:750  function getContractBalance() public view returns (uint){\r... */\n    tag_47:\n        /* \"contracts/myContract.sol\":698:702  uint */\n      0x00\n        /* \"contracts/myContract.sol\":721:742  address(this).balance */\n      selfbalance\n        /* \"contracts/myContract.sol\":714:742  return address(this).balance */\n      swap1\n      pop\n        /* \"contracts/myContract.sol\":647:750  function getContractBalance() public view returns (uint){\r... */\n      swap1\n      jump\t// out\n        /* \"contracts/myContract.sol\":1231:1563  function printSubscribersList() public  returns(subscriber memory){\r... */\n    tag_51:\n        /* \"contracts/myContract.sol\":1279:1296  subscriber memory */\n      tag_76\n      tag_77\n      jump\t// in\n    tag_76:\n        /* \"contracts/myContract.sol\":1381:1402  subscriber memory ret */\n      tag_79\n      tag_77\n      jump\t// in\n    tag_79:\n        /* \"contracts/myContract.sol\":1417:1423  uint i */\n      0x00\n        /* \"contracts/myContract.sol\":1413:1556  for(uint i = 0; i < subscriberCount; i++){\r... */\n    tag_80:\n        /* \"contracts/myContract.sol\":1433:1448  subscriberCount */\n      sload(0x01)\n        /* \"contracts/myContract.sol\":1429:1430  i */\n      dup2\n        /* \"contracts/myContract.sol\":1429:1448  i < subscriberCount */\n      lt\n        /* \"contracts/myContract.sol\":1413:1556  for(uint i = 0; i < subscriberCount; i++){\r... */\n      iszero\n      tag_81\n      jumpi\n        /* \"contracts/myContract.sol\":1475:1486  subscribers */\n      0x00\n        /* \"contracts/myContract.sol\":1475:1489  subscribers[i] */\n      dup1\n        /* \"contracts/myContract.sol\":1487:1488  i */\n      dup3\n        /* \"contracts/myContract.sol\":1475:1489  subscribers[i] */\n      dup2\n      mstore\n      0x20\n      add\n      swap1\n      dup2\n      mstore\n      0x20\n      add\n      0x00\n      keccak256\n        /* \"contracts/myContract.sol\":1469:1489  ret = subscribers[i] */\n      mload(0x40)\n      dup1\n      0x40\n      add\n      0x40\n      mstore\n      swap1\n      dup2\n      0x00\n      dup3\n      add\n      dup1\n      sload\n      tag_83\n      swap1\n      tag_70\n      jump\t// in\n    tag_83:\n      dup1\n      0x1f\n      add\n      0x20\n      dup1\n      swap2\n      div\n      mul\n      0x20\n      add\n      mload(0x40)\n      swap1\n      dup2\n      add\n      0x40\n      mstore\n      dup1\n      swap3\n      swap2\n      swap1\n      dup2\n      dup2\n      mstore\n      0x20\n      add\n      dup3\n      dup1\n      sload\n      tag_84\n      swap1\n      tag_70\n      jump\t// in\n    tag_84:\n      dup1\n      iszero\n      tag_85\n      jumpi\n      dup1\n      0x1f\n      lt\n      tag_86\n      jumpi\n      0x0100\n      dup1\n      dup4\n      sload\n      div\n      mul\n      dup4\n      mstore\n      swap2\n      0x20\n      add\n      swap2\n      jump(tag_85)\n    tag_86:\n      dup3\n      add\n      swap2\n      swap1\n      0x00\n      mstore\n      keccak256(0x00, 0x20)\n      swap1\n    tag_87:\n      dup2\n      sload\n      dup2\n      mstore\n      swap1\n      0x01\n      add\n      swap1\n      0x20\n      add\n      dup1\n      dup4\n      gt\n      tag_87\n      jumpi\n      dup3\n      swap1\n      sub\n      0x1f\n      and\n      dup3\n      add\n      swap2\n    tag_85:\n      pop\n      pop\n      pop\n      pop\n      pop\n      dup2\n      mstore\n      0x20\n      add\n      0x01\n      dup3\n      add\n      0x00\n      swap1\n      sload\n      swap1\n      0x0100\n      exp\n      swap1\n      div\n      0xffffffffffffffffffffffffffffffffffffffff\n      and\n      0xffffffffffffffffffffffffffffffffffffffff\n      and\n      0xffffffffffffffffffffffffffffffffffffffff\n      and\n      dup2\n      mstore\n      pop\n      pop\n      swap2\n      pop\n        /* \"contracts/myContract.sol\":1509:1544  SubscriberPrint(ret.name, ret.addr) */\n      0x509008841c10ccf2d4360b0b681479c830f619aac14e8fac7ac253216fdae8f9\n        /* \"contracts/myContract.sol\":1525:1528  ret */\n      dup3\n        /* \"contracts/myContract.sol\":1525:1533  ret.name */\n      0x00\n      add\n      mload\n        /* \"contracts/myContract.sol\":1535:1538  ret */\n      dup4\n        /* \"contracts/myContract.sol\":1535:1543  ret.addr */\n      0x20\n      add\n      mload\n        /* \"contracts/myContract.sol\":1509:1544  SubscriberPrint(ret.name, ret.addr) */\n      mload(0x40)\n      tag_88\n      swap3\n      swap2\n      swap1\n      tag_44\n      jump\t// in\n    tag_88:\n      mload(0x40)\n      dup1\n      swap2\n      sub\n      swap1\n      log1\n        /* \"contracts/myContract.sol\":1450:1453  i++ */\n      dup1\n      dup1\n      tag_89\n      swap1\n      tag_68\n      jump\t// in\n    tag_89:\n      swap2\n      pop\n      pop\n        /* \"contracts/myContract.sol\":1413:1556  for(uint i = 0; i < subscriberCount; i++){\r... */\n      jump(tag_80)\n    tag_81:\n      pop\n        /* \"contracts/myContract.sol\":1297:1563  {\r... */\n      pop\n        /* \"contracts/myContract.sol\":1231:1563  function printSubscribersList() public  returns(subscriber memory){\r... */\n      swap1\n      jump\t// out\n        /* \"contracts/myContract.sol\":284:305  address public author */\n    tag_56:\n      0x02\n      0x00\n      swap1\n      sload\n      swap1\n      0x0100\n      exp\n      swap1\n      div\n      0xffffffffffffffffffffffffffffffffffffffff\n      and\n      dup2\n      jump\t// out\n        /* \"contracts/myContract.sol\":164:195  uint public subscriberCount = 0 */\n    tag_61:\n      sload(0x01)\n      dup2\n      jump\t// out\n    tag_66:\n      dup3\n      dup1\n      sload\n      tag_90\n      swap1\n      tag_70\n      jump\t// in\n    tag_90:\n      swap1\n      0x00\n      mstore\n      keccak256(0x00, 0x20)\n      swap1\n      0x1f\n      add\n      0x20\n      swap1\n      div\n      dup2\n      add\n      swap3\n      dup3\n      tag_92\n      jumpi\n      0x00\n      dup6\n      sstore\n      jump(tag_91)\n    tag_92:\n      dup3\n      0x1f\n      lt\n      tag_93\n      jumpi\n      dup1\n      mload\n      not(0xff)\n      and\n      dup4\n      dup1\n      add\n      or\n      dup6\n      sstore\n      jump(tag_91)\n    tag_93:\n      dup3\n      dup1\n      add\n      0x01\n      add\n      dup6\n      sstore\n      dup3\n      iszero\n      tag_91\n      jumpi\n      swap2\n      dup3\n      add\n    tag_94:\n      dup3\n      dup2\n      gt\n      iszero\n      tag_95\n      jumpi\n      dup3\n      mload\n      dup3\n      sstore\n      swap2\n      0x20\n      add\n      swap2\n      swap1\n      0x01\n      add\n      swap1\n      jump(tag_94)\n    tag_95:\n    tag_91:\n      pop\n      swap1\n      pop\n      tag_96\n      swap2\n      swap1\n      tag_97\n      jump\t// in\n    tag_96:\n      pop\n      swap1\n      jump\t// out\n    tag_77:\n      mload(0x40)\n      dup1\n      0x40\n      add\n      0x40\n      mstore\n      dup1\n      0x60\n      dup2\n      mstore\n      0x20\n      add\n      and(0xffffffffffffffffffffffffffffffffffffffff, 0x00)\n      dup2\n      mstore\n      pop\n      swap1\n      jump\t// out\n    tag_97:\n    tag_98:\n      dup1\n      dup3\n      gt\n      iszero\n      tag_99\n      jumpi\n      0x00\n      dup2\n      0x00\n      swap1\n      sstore\n      pop\n      0x01\n      add\n      jump(tag_98)\n    tag_99:\n      pop\n      swap1\n      jump\t// out\n        /* \"#utility.yul\":7:419   */\n    tag_101:\n        /* \"#utility.yul\":85:90   */\n      0x00\n        /* \"#utility.yul\":110:176   */\n      tag_103\n        /* \"#utility.yul\":126:175   */\n      tag_104\n        /* \"#utility.yul\":168:174   */\n      dup5\n        /* \"#utility.yul\":126:175   */\n      tag_105\n      jump\t// in\n    tag_104:\n        /* \"#utility.yul\":110:176   */\n      tag_106\n      jump\t// in\n    tag_103:\n        /* \"#utility.yul\":101:176   */\n      swap1\n      pop\n        /* \"#utility.yul\":199:205   */\n      dup3\n        /* \"#utility.yul\":192:197   */\n      dup2\n        /* \"#utility.yul\":185:206   */\n      mstore\n        /* \"#utility.yul\":237:241   */\n      0x20\n        /* \"#utility.yul\":230:235   */\n      dup2\n        /* \"#utility.yul\":226:242   */\n      add\n        /* \"#utility.yul\":275:278   */\n      dup5\n        /* \"#utility.yul\":266:272   */\n      dup5\n        /* \"#utility.yul\":261:264   */\n      dup5\n        /* \"#utility.yul\":257:273   */\n      add\n        /* \"#utility.yul\":254:279   */\n      gt\n        /* \"#utility.yul\":251:363   */\n      iszero\n      tag_107\n      jumpi\n        /* \"#utility.yul\":282:361   */\n      tag_108\n      tag_109\n      jump\t// in\n    tag_108:\n        /* \"#utility.yul\":251:363   */\n    tag_107:\n        /* \"#utility.yul\":372:413   */\n      tag_110\n        /* \"#utility.yul\":406:412   */\n      dup5\n        /* \"#utility.yul\":401:404   */\n      dup3\n        /* \"#utility.yul\":396:399   */\n      dup6\n        /* \"#utility.yul\":372:413   */\n      tag_111\n      jump\t// in\n    tag_110:\n        /* \"#utility.yul\":91:419   */\n      pop\n        /* \"#utility.yul\":7:419   */\n      swap4\n      swap3\n      pop\n      pop\n      pop\n      jump\t// out\n        /* \"#utility.yul\":439:779   */\n    tag_112:\n        /* \"#utility.yul\":495:500   */\n      0x00\n        /* \"#utility.yul\":544:547   */\n      dup3\n        /* \"#utility.yul\":537:541   */\n      0x1f\n        /* \"#utility.yul\":529:535   */\n      dup4\n        /* \"#utility.yul\":525:542   */\n      add\n        /* \"#utility.yul\":521:548   */\n      slt\n        /* \"#utility.yul\":511:633   */\n      tag_114\n      jumpi\n        /* \"#utility.yul\":552:631   */\n      tag_115\n      tag_116\n      jump\t// in\n    tag_115:\n        /* \"#utility.yul\":511:633   */\n    tag_114:\n        /* \"#utility.yul\":669:675   */\n      dup2\n        /* \"#utility.yul\":656:676   */\n      calldataload\n        /* \"#utility.yul\":694:773   */\n      tag_117\n        /* \"#utility.yul\":769:772   */\n      dup5\n        /* \"#utility.yul\":761:767   */\n      dup3\n        /* \"#utility.yul\":754:758   */\n      0x20\n        /* \"#utility.yul\":746:752   */\n      dup7\n        /* \"#utility.yul\":742:759   */\n      add\n        /* \"#utility.yul\":694:773   */\n      tag_101\n      jump\t// in\n    tag_117:\n        /* \"#utility.yul\":685:773   */\n      swap2\n      pop\n        /* \"#utility.yul\":501:779   */\n      pop\n        /* \"#utility.yul\":439:779   */\n      swap3\n      swap2\n      pop\n      pop\n      jump\t// out\n        /* \"#utility.yul\":785:924   */\n    tag_118:\n        /* \"#utility.yul\":831:836   */\n      0x00\n        /* \"#utility.yul\":869:875   */\n      dup2\n        /* \"#utility.yul\":856:876   */\n      calldataload\n        /* \"#utility.yul\":847:876   */\n      swap1\n      pop\n        /* \"#utility.yul\":885:918   */\n      tag_120\n        /* \"#utility.yul\":912:917   */\n      dup2\n        /* \"#utility.yul\":885:918   */\n      tag_121\n      jump\t// in\n    tag_120:\n        /* \"#utility.yul\":785:924   */\n      swap3\n      swap2\n      pop\n      pop\n      jump\t// out\n        /* \"#utility.yul\":930:1439   */\n    tag_36:\n        /* \"#utility.yul\":999:1005   */\n      0x00\n        /* \"#utility.yul\":1048:1050   */\n      0x20\n        /* \"#utility.yul\":1036:1045   */\n      dup3\n        /* \"#utility.yul\":1027:1034   */\n      dup5\n        /* \"#utility.yul\":1023:1046   */\n      sub\n        /* \"#utility.yul\":1019:1051   */\n      slt\n        /* \"#utility.yul\":1016:1135   */\n      iszero\n      tag_123\n      jumpi\n        /* \"#utility.yul\":1054:1133   */\n      tag_124\n      tag_125\n      jump\t// in\n    tag_124:\n        /* \"#utility.yul\":1016:1135   */\n    tag_123:\n        /* \"#utility.yul\":1202:1203   */\n      0x00\n        /* \"#utility.yul\":1191:1200   */\n      dup3\n        /* \"#utility.yul\":1187:1204   */\n      add\n        /* \"#utility.yul\":1174:1205   */\n      calldataload\n        /* \"#utility.yul\":1232:1250   */\n      0xffffffffffffffff\n        /* \"#utility.yul\":1224:1230   */\n      dup2\n        /* \"#utility.yul\":1221:1251   */\n      gt\n        /* \"#utility.yul\":1218:1335   */\n      iszero\n      tag_126\n      jumpi\n        /* \"#utility.yul\":1254:1333   */\n      tag_127\n      tag_128\n      jump\t// in\n    tag_127:\n        /* \"#utility.yul\":1218:1335   */\n    tag_126:\n        /* \"#utility.yul\":1359:1422   */\n      tag_129\n        /* \"#utility.yul\":1414:1421   */\n      dup5\n        /* \"#utility.yul\":1405:1411   */\n      dup3\n        /* \"#utility.yul\":1394:1403   */\n      dup6\n        /* \"#utility.yul\":1390:1412   */\n      add\n        /* \"#utility.yul\":1359:1422   */\n      tag_112\n      jump\t// in\n    tag_129:\n        /* \"#utility.yul\":1349:1422   */\n      swap2\n      pop\n        /* \"#utility.yul\":1145:1432   */\n      pop\n        /* \"#utility.yul\":930:1439   */\n      swap3\n      swap2\n      pop\n      pop\n      jump\t// out\n        /* \"#utility.yul\":1445:1774   */\n    tag_41:\n        /* \"#utility.yul\":1504:1510   */\n      0x00\n        /* \"#utility.yul\":1553:1555   */\n      0x20\n        /* \"#utility.yul\":1541:1550   */\n      dup3\n        /* \"#utility.yul\":1532:1539   */\n      dup5\n        /* \"#utility.yul\":1528:1551   */\n      sub\n        /* \"#utility.yul\":1524:1556   */\n      slt\n        /* \"#utility.yul\":1521:1640   */\n      iszero\n      tag_131\n      jumpi\n        /* \"#utility.yul\":1559:1638   */\n      tag_132\n      tag_125\n      jump\t// in\n    tag_132:\n        /* \"#utility.yul\":1521:1640   */\n    tag_131:\n        /* \"#utility.yul\":1679:1680   */\n      0x00\n        /* \"#utility.yul\":1704:1757   */\n      tag_133\n        /* \"#utility.yul\":1749:1756   */\n      dup5\n        /* \"#utility.yul\":1740:1746   */\n      dup3\n        /* \"#utility.yul\":1729:1738   */\n      dup6\n        /* \"#utility.yul\":1725:1747   */\n      add\n        /* \"#utility.yul\":1704:1757   */\n      tag_118\n      jump\t// in\n    tag_133:\n        /* \"#utility.yul\":1694:1757   */\n      swap2\n      pop\n        /* \"#utility.yul\":1650:1767   */\n      pop\n        /* \"#utility.yul\":1445:1774   */\n      swap3\n      swap2\n      pop\n      pop\n      jump\t// out\n        /* \"#utility.yul\":1780:1888   */\n    tag_134:\n        /* \"#utility.yul\":1857:1881   */\n      tag_136\n        /* \"#utility.yul\":1875:1880   */\n      dup2\n        /* \"#utility.yul\":1857:1881   */\n      tag_137\n      jump\t// in\n    tag_136:\n        /* \"#utility.yul\":1852:1855   */\n      dup3\n        /* \"#utility.yul\":1845:1882   */\n      mstore\n        /* \"#utility.yul\":1780:1888   */\n      pop\n      pop\n      jump\t// out\n        /* \"#utility.yul\":1894:2012   */\n    tag_138:\n        /* \"#utility.yul\":1981:2005   */\n      tag_140\n        /* \"#utility.yul\":1999:2004   */\n      dup2\n        /* \"#utility.yul\":1981:2005   */\n      tag_137\n      jump\t// in\n    tag_140:\n        /* \"#utility.yul\":1976:1979   */\n      dup3\n        /* \"#utility.yul\":1969:2006   */\n      mstore\n        /* \"#utility.yul\":1894:2012   */\n      pop\n      pop\n      jump\t// out\n        /* \"#utility.yul\":2018:2362   */\n    tag_141:\n        /* \"#utility.yul\":2096:2099   */\n      0x00\n        /* \"#utility.yul\":2124:2163   */\n      tag_143\n        /* \"#utility.yul\":2157:2162   */\n      dup3\n        /* \"#utility.yul\":2124:2163   */\n      tag_144\n      jump\t// in\n    tag_143:\n        /* \"#utility.yul\":2179:2240   */\n      tag_145\n        /* \"#utility.yul\":2233:2239   */\n      dup2\n        /* \"#utility.yul\":2228:2231   */\n      dup6\n        /* \"#utility.yul\":2179:2240   */\n      tag_146\n      jump\t// in\n    tag_145:\n        /* \"#utility.yul\":2172:2240   */\n      swap4\n      pop\n        /* \"#utility.yul\":2249:2301   */\n      tag_147\n        /* \"#utility.yul\":2294:2300   */\n      dup2\n        /* \"#utility.yul\":2289:2292   */\n      dup6\n        /* \"#utility.yul\":2282:2286   */\n      0x20\n        /* \"#utility.yul\":2275:2280   */\n      dup7\n        /* \"#utility.yul\":2271:2287   */\n      add\n        /* \"#utility.yul\":2249:2301   */\n      tag_148\n      jump\t// in\n    tag_147:\n        /* \"#utility.yul\":2326:2355   */\n      tag_149\n        /* \"#utility.yul\":2348:2354   */\n      dup2\n        /* \"#utility.yul\":2326:2355   */\n      tag_150\n      jump\t// in\n    tag_149:\n        /* \"#utility.yul\":2321:2324   */\n      dup5\n        /* \"#utility.yul\":2317:2356   */\n      add\n        /* \"#utility.yul\":2310:2356   */\n      swap2\n      pop\n        /* \"#utility.yul\":2100:2362   */\n      pop\n        /* \"#utility.yul\":2018:2362   */\n      swap3\n      swap2\n      pop\n      pop\n      jump\t// out\n        /* \"#utility.yul\":2368:2732   */\n    tag_151:\n        /* \"#utility.yul\":2456:2459   */\n      0x00\n        /* \"#utility.yul\":2484:2523   */\n      tag_153\n        /* \"#utility.yul\":2517:2522   */\n      dup3\n        /* \"#utility.yul\":2484:2523   */\n      tag_144\n      jump\t// in\n    tag_153:\n        /* \"#utility.yul\":2539:2610   */\n      tag_154\n        /* \"#utility.yul\":2603:2609   */\n      dup2\n        /* \"#utility.yul\":2598:2601   */\n      dup6\n        /* \"#utility.yul\":2539:2610   */\n      tag_155\n      jump\t// in\n    tag_154:\n        /* \"#utility.yul\":2532:2610   */\n      swap4\n      pop\n        /* \"#utility.yul\":2619:2671   */\n      tag_156\n        /* \"#utility.yul\":2664:2670   */\n      dup2\n        /* \"#utility.yul\":2659:2662   */\n      dup6\n        /* \"#utility.yul\":2652:2656   */\n      0x20\n        /* \"#utility.yul\":2645:2650   */\n      dup7\n        /* \"#utility.yul\":2641:2657   */\n      add\n        /* \"#utility.yul\":2619:2671   */\n      tag_148\n      jump\t// in\n    tag_156:\n        /* \"#utility.yul\":2696:2725   */\n      tag_157\n        /* \"#utility.yul\":2718:2724   */\n      dup2\n        /* \"#utility.yul\":2696:2725   */\n      tag_150\n      jump\t// in\n    tag_157:\n        /* \"#utility.yul\":2691:2694   */\n      dup5\n        /* \"#utility.yul\":2687:2726   */\n      add\n        /* \"#utility.yul\":2680:2726   */\n      swap2\n      pop\n        /* \"#utility.yul\":2460:2732   */\n      pop\n        /* \"#utility.yul\":2368:2732   */\n      swap3\n      swap2\n      pop\n      pop\n      jump\t// out\n        /* \"#utility.yul\":2738:3104   */\n    tag_158:\n        /* \"#utility.yul\":2880:2883   */\n      0x00\n        /* \"#utility.yul\":2901:2968   */\n      tag_160\n        /* \"#utility.yul\":2965:2967   */\n      0x26\n        /* \"#utility.yul\":2960:2963   */\n      dup4\n        /* \"#utility.yul\":2901:2968   */\n      tag_155\n      jump\t// in\n    tag_160:\n        /* \"#utility.yul\":2894:2968   */\n      swap2\n      pop\n        /* \"#utility.yul\":2977:3070   */\n      tag_161\n        /* \"#utility.yul\":3066:3069   */\n      dup3\n        /* \"#utility.yul\":2977:3070   */\n      tag_162\n      jump\t// in\n    tag_161:\n        /* \"#utility.yul\":3095:3097   */\n      0x40\n        /* \"#utility.yul\":3090:3093   */\n      dup3\n        /* \"#utility.yul\":3086:3098   */\n      add\n        /* \"#utility.yul\":3079:3098   */\n      swap1\n      pop\n        /* \"#utility.yul\":2738:3104   */\n      swap2\n      swap1\n      pop\n      jump\t// out\n        /* \"#utility.yul\":3110:3476   */\n    tag_163:\n        /* \"#utility.yul\":3252:3255   */\n      0x00\n        /* \"#utility.yul\":3273:3340   */\n      tag_165\n        /* \"#utility.yul\":3337:3339   */\n      0x29\n        /* \"#utility.yul\":3332:3335   */\n      dup4\n        /* \"#utility.yul\":3273:3340   */\n      tag_155\n      jump\t// in\n    tag_165:\n        /* \"#utility.yul\":3266:3340   */\n      swap2\n      pop\n        /* \"#utility.yul\":3349:3442   */\n      tag_166\n        /* \"#utility.yul\":3438:3441   */\n      dup3\n        /* \"#utility.yul\":3349:3442   */\n      tag_167\n      jump\t// in\n    tag_166:\n        /* \"#utility.yul\":3467:3469   */\n      0x40\n        /* \"#utility.yul\":3462:3465   */\n      dup3\n        /* \"#utility.yul\":3458:3470   */\n      add\n        /* \"#utility.yul\":3451:3470   */\n      swap1\n      pop\n        /* \"#utility.yul\":3110:3476   */\n      swap2\n      swap1\n      pop\n      jump\t// out\n        /* \"#utility.yul\":3554:4162   */\n    tag_168:\n        /* \"#utility.yul\":3675:3678   */\n      0x00\n        /* \"#utility.yul\":3711:3715   */\n      0x40\n        /* \"#utility.yul\":3706:3709   */\n      dup4\n        /* \"#utility.yul\":3702:3716   */\n      add\n        /* \"#utility.yul\":3798:3802   */\n      0x00\n        /* \"#utility.yul\":3791:3796   */\n      dup4\n        /* \"#utility.yul\":3787:3803   */\n      add\n        /* \"#utility.yul\":3781:3804   */\n      mload\n        /* \"#utility.yul\":3851:3854   */\n      dup5\n        /* \"#utility.yul\":3845:3849   */\n      dup3\n        /* \"#utility.yul\":3841:3855   */\n      sub\n        /* \"#utility.yul\":3834:3838   */\n      0x00\n        /* \"#utility.yul\":3829:3832   */\n      dup7\n        /* \"#utility.yul\":3825:3839   */\n      add\n        /* \"#utility.yul\":3818:3856   */\n      mstore\n        /* \"#utility.yul\":3877:3950   */\n      tag_170\n        /* \"#utility.yul\":3945:3949   */\n      dup3\n        /* \"#utility.yul\":3931:3943   */\n      dup3\n        /* \"#utility.yul\":3877:3950   */\n      tag_141\n      jump\t// in\n    tag_170:\n        /* \"#utility.yul\":3869:3950   */\n      swap2\n      pop\n        /* \"#utility.yul\":3726:3961   */\n      pop\n        /* \"#utility.yul\":4043:4047   */\n      0x20\n        /* \"#utility.yul\":4036:4041   */\n      dup4\n        /* \"#utility.yul\":4032:4048   */\n      add\n        /* \"#utility.yul\":4026:4049   */\n      mload\n        /* \"#utility.yul\":4062:4125   */\n      tag_171\n        /* \"#utility.yul\":4119:4123   */\n      0x20\n        /* \"#utility.yul\":4114:4117   */\n      dup7\n        /* \"#utility.yul\":4110:4124   */\n      add\n        /* \"#utility.yul\":4096:4108   */\n      dup3\n        /* \"#utility.yul\":4062:4125   */\n      tag_134\n      jump\t// in\n    tag_171:\n        /* \"#utility.yul\":3971:4135   */\n      pop\n        /* \"#utility.yul\":4152:4156   */\n      dup1\n        /* \"#utility.yul\":4145:4156   */\n      swap2\n      pop\n        /* \"#utility.yul\":3680:4162   */\n      pop\n        /* \"#utility.yul\":3554:4162   */\n      swap3\n      swap2\n      pop\n      pop\n      jump\t// out\n        /* \"#utility.yul\":4168:4286   */\n    tag_172:\n        /* \"#utility.yul\":4255:4279   */\n      tag_174\n        /* \"#utility.yul\":4273:4278   */\n      dup2\n        /* \"#utility.yul\":4255:4279   */\n      tag_175\n      jump\t// in\n    tag_174:\n        /* \"#utility.yul\":4250:4253   */\n      dup3\n        /* \"#utility.yul\":4243:4280   */\n      mstore\n        /* \"#utility.yul\":4168:4286   */\n      pop\n      pop\n      jump\t// out\n        /* \"#utility.yul\":4292:4514   */\n    tag_58:\n        /* \"#utility.yul\":4385:4389   */\n      0x00\n        /* \"#utility.yul\":4423:4425   */\n      0x20\n        /* \"#utility.yul\":4412:4421   */\n      dup3\n        /* \"#utility.yul\":4408:4426   */\n      add\n        /* \"#utility.yul\":4400:4426   */\n      swap1\n      pop\n        /* \"#utility.yul\":4436:4507   */\n      tag_177\n        /* \"#utility.yul\":4504:4505   */\n      0x00\n        /* \"#utility.yul\":4493:4502   */\n      dup4\n        /* \"#utility.yul\":4489:4506   */\n      add\n        /* \"#utility.yul\":4480:4486   */\n      dup5\n        /* \"#utility.yul\":4436:4507   */\n      tag_138\n      jump\t// in\n    tag_177:\n        /* \"#utility.yul\":4292:4514   */\n      swap3\n      swap2\n      pop\n      pop\n      jump\t// out\n        /* \"#utility.yul\":4520:4943   */\n    tag_44:\n        /* \"#utility.yul\":4661:4665   */\n      0x00\n        /* \"#utility.yul\":4699:4701   */\n      0x40\n        /* \"#utility.yul\":4688:4697   */\n      dup3\n        /* \"#utility.yul\":4684:4702   */\n      add\n        /* \"#utility.yul\":4676:4702   */\n      swap1\n      pop\n        /* \"#utility.yul\":4748:4757   */\n      dup2\n        /* \"#utility.yul\":4742:4746   */\n      dup2\n        /* \"#utility.yul\":4738:4758   */\n      sub\n        /* \"#utility.yul\":4734:4735   */\n      0x00\n        /* \"#utility.yul\":4723:4732   */\n      dup4\n        /* \"#utility.yul\":4719:4736   */\n      add\n        /* \"#utility.yul\":4712:4759   */\n      mstore\n        /* \"#utility.yul\":4776:4854   */\n      tag_179\n        /* \"#utility.yul\":4849:4853   */\n      dup2\n        /* \"#utility.yul\":4840:4846   */\n      dup6\n        /* \"#utility.yul\":4776:4854   */\n      tag_151\n      jump\t// in\n    tag_179:\n        /* \"#utility.yul\":4768:4854   */\n      swap1\n      pop\n        /* \"#utility.yul\":4864:4936   */\n      tag_180\n        /* \"#utility.yul\":4932:4934   */\n      0x20\n        /* \"#utility.yul\":4921:4930   */\n      dup4\n        /* \"#utility.yul\":4917:4935   */\n      add\n        /* \"#utility.yul\":4908:4914   */\n      dup5\n        /* \"#utility.yul\":4864:4936   */\n      tag_138\n      jump\t// in\n    tag_180:\n        /* \"#utility.yul\":4520:4943   */\n      swap4\n      swap3\n      pop\n      pop\n      pop\n      jump\t// out\n        /* \"#utility.yul\":4949:5368   */\n    tag_23:\n        /* \"#utility.yul\":5115:5119   */\n      0x00\n        /* \"#utility.yul\":5153:5155   */\n      0x20\n        /* \"#utility.yul\":5142:5151   */\n      dup3\n        /* \"#utility.yul\":5138:5156   */\n      add\n        /* \"#utility.yul\":5130:5156   */\n      swap1\n      pop\n        /* \"#utility.yul\":5202:5211   */\n      dup2\n        /* \"#utility.yul\":5196:5200   */\n      dup2\n        /* \"#utility.yul\":5192:5212   */\n      sub\n        /* \"#utility.yul\":5188:5189   */\n      0x00\n        /* \"#utility.yul\":5177:5186   */\n      dup4\n        /* \"#utility.yul\":5173:5190   */\n      add\n        /* \"#utility.yul\":5166:5213   */\n      mstore\n        /* \"#utility.yul\":5230:5361   */\n      tag_182\n        /* \"#utility.yul\":5356:5360   */\n      dup2\n        /* \"#utility.yul\":5230:5361   */\n      tag_158\n      jump\t// in\n    tag_182:\n        /* \"#utility.yul\":5222:5361   */\n      swap1\n      pop\n        /* \"#utility.yul\":4949:5368   */\n      swap2\n      swap1\n      pop\n      jump\t// out\n        /* \"#utility.yul\":5374:5793   */\n    tag_16:\n        /* \"#utility.yul\":5540:5544   */\n      0x00\n        /* \"#utility.yul\":5578:5580   */\n      0x20\n        /* \"#utility.yul\":5567:5576   */\n      dup3\n        /* \"#utility.yul\":5563:5581   */\n      add\n        /* \"#utility.yul\":5555:5581   */\n      swap1\n      pop\n        /* \"#utility.yul\":5627:5636   */\n      dup2\n        /* \"#utility.yul\":5621:5625   */\n      dup2\n        /* \"#utility.yul\":5617:5637   */\n      sub\n        /* \"#utility.yul\":5613:5614   */\n      0x00\n        /* \"#utility.yul\":5602:5611   */\n      dup4\n        /* \"#utility.yul\":5598:5615   */\n      add\n        /* \"#utility.yul\":5591:5638   */\n      mstore\n        /* \"#utility.yul\":5655:5786   */\n      tag_184\n        /* \"#utility.yul\":5781:5785   */\n      dup2\n        /* \"#utility.yul\":5655:5786   */\n      tag_163\n      jump\t// in\n    tag_184:\n        /* \"#utility.yul\":5647:5786   */\n      swap1\n      pop\n        /* \"#utility.yul\":5374:5793   */\n      swap2\n      swap1\n      pop\n      jump\t// out\n        /* \"#utility.yul\":5799:6176   */\n    tag_53:\n        /* \"#utility.yul\":5944:5948   */\n      0x00\n        /* \"#utility.yul\":5982:5984   */\n      0x20\n        /* \"#utility.yul\":5971:5980   */\n      dup3\n        /* \"#utility.yul\":5967:5985   */\n      add\n        /* \"#utility.yul\":5959:5985   */\n      swap1\n      pop\n        /* \"#utility.yul\":6031:6040   */\n      dup2\n        /* \"#utility.yul\":6025:6029   */\n      dup2\n        /* \"#utility.yul\":6021:6041   */\n      sub\n        /* \"#utility.yul\":6017:6018   */\n      0x00\n        /* \"#utility.yul\":6006:6015   */\n      dup4\n        /* \"#utility.yul\":6002:6019   */\n      add\n        /* \"#utility.yul\":5995:6042   */\n      mstore\n        /* \"#utility.yul\":6059:6169   */\n      tag_186\n        /* \"#utility.yul\":6164:6168   */\n      dup2\n        /* \"#utility.yul\":6155:6161   */\n      dup5\n        /* \"#utility.yul\":6059:6169   */\n      tag_168\n      jump\t// in\n    tag_186:\n        /* \"#utility.yul\":6051:6169   */\n      swap1\n      pop\n        /* \"#utility.yul\":5799:6176   */\n      swap3\n      swap2\n      pop\n      pop\n      jump\t// out\n        /* \"#utility.yul\":6182:6404   */\n    tag_28:\n        /* \"#utility.yul\":6275:6279   */\n      0x00\n        /* \"#utility.yul\":6313:6315   */\n      0x20\n        /* \"#utility.yul\":6302:6311   */\n      dup3\n        /* \"#utility.yul\":6298:6316   */\n      add\n        /* \"#utility.yul\":6290:6316   */\n      swap1\n      pop\n        /* \"#utility.yul\":6326:6397   */\n      tag_188\n        /* \"#utility.yul\":6394:6395   */\n      0x00\n        /* \"#utility.yul\":6383:6392   */\n      dup4\n        /* \"#utility.yul\":6379:6396   */\n      add\n        /* \"#utility.yul\":6370:6376   */\n      dup5\n        /* \"#utility.yul\":6326:6397   */\n      tag_172\n      jump\t// in\n    tag_188:\n        /* \"#utility.yul\":6182:6404   */\n      swap3\n      swap2\n      pop\n      pop\n      jump\t// out\n        /* \"#utility.yul\":6410:6539   */\n    tag_106:\n        /* \"#utility.yul\":6444:6450   */\n      0x00\n        /* \"#utility.yul\":6471:6491   */\n      tag_190\n      tag_191\n      jump\t// in\n    tag_190:\n        /* \"#utility.yul\":6461:6491   */\n      swap1\n      pop\n        /* \"#utility.yul\":6500:6533   */\n      tag_192\n        /* \"#utility.yul\":6528:6532   */\n      dup3\n        /* \"#utility.yul\":6520:6526   */\n      dup3\n        /* \"#utility.yul\":6500:6533   */\n      tag_193\n      jump\t// in\n    tag_192:\n        /* \"#utility.yul\":6410:6539   */\n      swap2\n      swap1\n      pop\n      jump\t// out\n        /* \"#utility.yul\":6545:6620   */\n    tag_191:\n        /* \"#utility.yul\":6578:6584   */\n      0x00\n        /* \"#utility.yul\":6611:6613   */\n      0x40\n        /* \"#utility.yul\":6605:6614   */\n      mload\n        /* \"#utility.yul\":6595:6614   */\n      swap1\n      pop\n        /* \"#utility.yul\":6545:6620   */\n      swap1\n      jump\t// out\n        /* \"#utility.yul\":6626:6934   */\n    tag_105:\n        /* \"#utility.yul\":6688:6692   */\n      0x00\n        /* \"#utility.yul\":6778:6796   */\n      0xffffffffffffffff\n        /* \"#utility.yul\":6770:6776   */\n      dup3\n        /* \"#utility.yul\":6767:6797   */\n      gt\n        /* \"#utility.yul\":6764:6820   */\n      iszero\n      tag_196\n      jumpi\n        /* \"#utility.yul\":6800:6818   */\n      tag_197\n      tag_198\n      jump\t// in\n    tag_197:\n        /* \"#utility.yul\":6764:6820   */\n    tag_196:\n        /* \"#utility.yul\":6838:6867   */\n      tag_199\n        /* \"#utility.yul\":6860:6866   */\n      dup3\n        /* \"#utility.yul\":6838:6867   */\n      tag_150\n      jump\t// in\n    tag_199:\n        /* \"#utility.yul\":6830:6867   */\n      swap1\n      pop\n        /* \"#utility.yul\":6922:6926   */\n      0x20\n        /* \"#utility.yul\":6916:6920   */\n      dup2\n        /* \"#utility.yul\":6912:6927   */\n      add\n        /* \"#utility.yul\":6904:6927   */\n      swap1\n      pop\n        /* \"#utility.yul\":6626:6934   */\n      swap2\n      swap1\n      pop\n      jump\t// out\n        /* \"#utility.yul\":6940:7039   */\n    tag_144:\n        /* \"#utility.yul\":6992:6998   */\n      0x00\n        /* \"#utility.yul\":7026:7031   */\n      dup2\n        /* \"#utility.yul\":7020:7032   */\n      mload\n        /* \"#utility.yul\":7010:7032   */\n      swap1\n      pop\n        /* \"#utility.yul\":6940:7039   */\n      swap2\n      swap1\n      pop\n      jump\t// out\n        /* \"#utility.yul\":7045:7204   */\n    tag_146:\n        /* \"#utility.yul\":7119:7130   */\n      0x00\n        /* \"#utility.yul\":7153:7159   */\n      dup3\n        /* \"#utility.yul\":7148:7151   */\n      dup3\n        /* \"#utility.yul\":7141:7160   */\n      mstore\n        /* \"#utility.yul\":7193:7197   */\n      0x20\n        /* \"#utility.yul\":7188:7191   */\n      dup3\n        /* \"#utility.yul\":7184:7198   */\n      add\n        /* \"#utility.yul\":7169:7198   */\n      swap1\n      pop\n        /* \"#utility.yul\":7045:7204   */\n      swap3\n      swap2\n      pop\n      pop\n      jump\t// out\n        /* \"#utility.yul\":7210:7379   */\n    tag_155:\n        /* \"#utility.yul\":7294:7305   */\n      0x00\n        /* \"#utility.yul\":7328:7334   */\n      dup3\n        /* \"#utility.yul\":7323:7326   */\n      dup3\n        /* \"#utility.yul\":7316:7335   */\n      mstore\n        /* \"#utility.yul\":7368:7372   */\n      0x20\n        /* \"#utility.yul\":7363:7366   */\n      dup3\n        /* \"#utility.yul\":7359:7373   */\n      add\n        /* \"#utility.yul\":7344:7373   */\n      swap1\n      pop\n        /* \"#utility.yul\":7210:7379   */\n      swap3\n      swap2\n      pop\n      pop\n      jump\t// out\n        /* \"#utility.yul\":7385:7481   */\n    tag_137:\n        /* \"#utility.yul\":7422:7429   */\n      0x00\n        /* \"#utility.yul\":7451:7475   */\n      tag_204\n        /* \"#utility.yul\":7469:7474   */\n      dup3\n        /* \"#utility.yul\":7451:7475   */\n      tag_205\n      jump\t// in\n    tag_204:\n        /* \"#utility.yul\":7440:7475   */\n      swap1\n      pop\n        /* \"#utility.yul\":7385:7481   */\n      swap2\n      swap1\n      pop\n      jump\t// out\n        /* \"#utility.yul\":7487:7613   */\n    tag_205:\n        /* \"#utility.yul\":7524:7531   */\n      0x00\n        /* \"#utility.yul\":7564:7606   */\n      0xffffffffffffffffffffffffffffffffffffffff\n        /* \"#utility.yul\":7557:7562   */\n      dup3\n        /* \"#utility.yul\":7553:7607   */\n      and\n        /* \"#utility.yul\":7542:7607   */\n      swap1\n      pop\n        /* \"#utility.yul\":7487:7613   */\n      swap2\n      swap1\n      pop\n      jump\t// out\n        /* \"#utility.yul\":7619:7696   */\n    tag_175:\n        /* \"#utility.yul\":7656:7663   */\n      0x00\n        /* \"#utility.yul\":7685:7690   */\n      dup2\n        /* \"#utility.yul\":7674:7690   */\n      swap1\n      pop\n        /* \"#utility.yul\":7619:7696   */\n      swap2\n      swap1\n      pop\n      jump\t// out\n        /* \"#utility.yul\":7702:7856   */\n    tag_111:\n        /* \"#utility.yul\":7786:7792   */\n      dup3\n        /* \"#utility.yul\":7781:7784   */\n      dup2\n        /* \"#utility.yul\":7776:7779   */\n      dup4\n        /* \"#utility.yul\":7763:7793   */\n      calldatacopy\n        /* \"#utility.yul\":7848:7849   */\n      0x00\n        /* \"#utility.yul\":7839:7845   */\n      dup4\n        /* \"#utility.yul\":7834:7837   */\n      dup4\n        /* \"#utility.yul\":7830:7846   */\n      add\n        /* \"#utility.yul\":7823:7850   */\n      mstore\n        /* \"#utility.yul\":7702:7856   */\n      pop\n      pop\n      pop\n      jump\t// out\n        /* \"#utility.yul\":7862:8169   */\n    tag_148:\n        /* \"#utility.yul\":7930:7931   */\n      0x00\n        /* \"#utility.yul\":7940:8053   */\n    tag_210:\n        /* \"#utility.yul\":7954:7960   */\n      dup4\n        /* \"#utility.yul\":7951:7952   */\n      dup2\n        /* \"#utility.yul\":7948:7961   */\n      lt\n        /* \"#utility.yul\":7940:8053   */\n      iszero\n      tag_212\n      jumpi\n        /* \"#utility.yul\":8039:8040   */\n      dup1\n        /* \"#utility.yul\":8034:8037   */\n      dup3\n        /* \"#utility.yul\":8030:8041   */\n      add\n        /* \"#utility.yul\":8024:8042   */\n      mload\n        /* \"#utility.yul\":8020:8021   */\n      dup2\n        /* \"#utility.yul\":8015:8018   */\n      dup5\n        /* \"#utility.yul\":8011:8022   */\n      add\n        /* \"#utility.yul\":8004:8043   */\n      mstore\n        /* \"#utility.yul\":7976:7978   */\n      0x20\n        /* \"#utility.yul\":7973:7974   */\n      dup2\n        /* \"#utility.yul\":7969:7979   */\n      add\n        /* \"#utility.yul\":7964:7979   */\n      swap1\n      pop\n        /* \"#utility.yul\":7940:8053   */\n      jump(tag_210)\n    tag_212:\n        /* \"#utility.yul\":8071:8077   */\n      dup4\n        /* \"#utility.yul\":8068:8069   */\n      dup2\n        /* \"#utility.yul\":8065:8078   */\n      gt\n        /* \"#utility.yul\":8062:8163   */\n      iszero\n      tag_213\n      jumpi\n        /* \"#utility.yul\":8151:8152   */\n      0x00\n        /* \"#utility.yul\":8142:8148   */\n      dup5\n        /* \"#utility.yul\":8137:8140   */\n      dup5\n        /* \"#utility.yul\":8133:8149   */\n      add\n        /* \"#utility.yul\":8126:8153   */\n      mstore\n        /* \"#utility.yul\":8062:8163   */\n    tag_213:\n        /* \"#utility.yul\":7911:8169   */\n      pop\n        /* \"#utility.yul\":7862:8169   */\n      pop\n      pop\n      pop\n      jump\t// out\n        /* \"#utility.yul\":8175:8495   */\n    tag_70:\n        /* \"#utility.yul\":8219:8225   */\n      0x00\n        /* \"#utility.yul\":8256:8257   */\n      0x02\n        /* \"#utility.yul\":8250:8254   */\n      dup3\n        /* \"#utility.yul\":8246:8258   */\n      div\n        /* \"#utility.yul\":8236:8258   */\n      swap1\n      pop\n        /* \"#utility.yul\":8303:8304   */\n      0x01\n        /* \"#utility.yul\":8297:8301   */\n      dup3\n        /* \"#utility.yul\":8293:8305   */\n      and\n        /* \"#utility.yul\":8324:8342   */\n      dup1\n        /* \"#utility.yul\":8314:8395   */\n      tag_215\n      jumpi\n        /* \"#utility.yul\":8380:8384   */\n      0x7f\n        /* \"#utility.yul\":8372:8378   */\n      dup3\n        /* \"#utility.yul\":8368:8385   */\n      and\n        /* \"#utility.yul\":8358:8385   */\n      swap2\n      pop\n        /* \"#utility.yul\":8314:8395   */\n    tag_215:\n        /* \"#utility.yul\":8442:8444   */\n      0x20\n        /* \"#utility.yul\":8434:8440   */\n      dup3\n        /* \"#utility.yul\":8431:8445   */\n      lt\n        /* \"#utility.yul\":8411:8429   */\n      dup2\n        /* \"#utility.yul\":8408:8446   */\n      eq\n        /* \"#utility.yul\":8405:8489   */\n      iszero\n      tag_216\n      jumpi\n        /* \"#utility.yul\":8461:8479   */\n      tag_217\n      tag_218\n      jump\t// in\n    tag_217:\n        /* \"#utility.yul\":8405:8489   */\n    tag_216:\n        /* \"#utility.yul\":8226:8495   */\n      pop\n        /* \"#utility.yul\":8175:8495   */\n      swap2\n      swap1\n      pop\n      jump\t// out\n        /* \"#utility.yul\":8501:8782   */\n    tag_193:\n        /* \"#utility.yul\":8584:8611   */\n      tag_220\n        /* \"#utility.yul\":8606:8610   */\n      dup3\n        /* \"#utility.yul\":8584:8611   */\n      tag_150\n      jump\t// in\n    tag_220:\n        /* \"#utility.yul\":8576:8582   */\n      dup2\n        /* \"#utility.yul\":8572:8612   */\n      add\n        /* \"#utility.yul\":8714:8720   */\n      dup2\n        /* \"#utility.yul\":8702:8712   */\n      dup2\n        /* \"#utility.yul\":8699:8721   */\n      lt\n        /* \"#utility.yul\":8678:8696   */\n      0xffffffffffffffff\n        /* \"#utility.yul\":8666:8676   */\n      dup3\n        /* \"#utility.yul\":8663:8697   */\n      gt\n        /* \"#utility.yul\":8660:8722   */\n      or\n        /* \"#utility.yul\":8657:8745   */\n      iszero\n      tag_221\n      jumpi\n        /* \"#utility.yul\":8725:8743   */\n      tag_222\n      tag_198\n      jump\t// in\n    tag_222:\n        /* \"#utility.yul\":8657:8745   */\n    tag_221:\n        /* \"#utility.yul\":8765:8775   */\n      dup1\n        /* \"#utility.yul\":8761:8763   */\n      0x40\n        /* \"#utility.yul\":8754:8776   */\n      mstore\n        /* \"#utility.yul\":8544:8782   */\n      pop\n        /* \"#utility.yul\":8501:8782   */\n      pop\n      pop\n      jump\t// out\n        /* \"#utility.yul\":8788:9021   */\n    tag_68:\n        /* \"#utility.yul\":8827:8830   */\n      0x00\n        /* \"#utility.yul\":8850:8874   */\n      tag_224\n        /* \"#utility.yul\":8868:8873   */\n      dup3\n        /* \"#utility.yul\":8850:8874   */\n      tag_175\n      jump\t// in\n    tag_224:\n        /* \"#utility.yul\":8841:8874   */\n      swap2\n      pop\n        /* \"#utility.yul\":8896:8962   */\n      0xffffffffffffffffffffffffffffffffffffffffffffffffffffffffffffffff\n        /* \"#utility.yul\":8889:8894   */\n      dup3\n        /* \"#utility.yul\":8886:8963   */\n      eq\n        /* \"#utility.yul\":8883:8986   */\n      iszero\n      tag_225\n      jumpi\n        /* \"#utility.yul\":8966:8984   */\n      tag_226\n      tag_227\n      jump\t// in\n    tag_226:\n        /* \"#utility.yul\":8883:8986   */\n    tag_225:\n        /* \"#utility.yul\":9013:9014   */\n      0x01\n        /* \"#utility.yul\":9006:9011   */\n      dup3\n        /* \"#utility.yul\":9002:9015   */\n      add\n        /* \"#utility.yul\":8995:9015   */\n      swap1\n      pop\n        /* \"#utility.yul\":8788:9021   */\n      swap2\n      swap1\n      pop\n      jump\t// out\n        /* \"#utility.yul\":9027:9207   */\n    tag_227:\n        /* \"#utility.yul\":9075:9152   */\n      0x4e487b7100000000000000000000000000000000000000000000000000000000\n        /* \"#utility.yul\":9072:9073   */\n      0x00\n        /* \"#utility.yul\":9065:9153   */\n      mstore\n        /* \"#utility.yul\":9172:9176   */\n      0x11\n        /* \"#utility.yul\":9169:9170   */\n      0x04\n        /* \"#utility.yul\":9162:9177   */\n      mstore\n        /* \"#utility.yul\":9196:9200   */\n      0x24\n        /* \"#utility.yul\":9193:9194   */\n      0x00\n        /* \"#utility.yul\":9186:9201   */\n      revert\n        /* \"#utility.yul\":9213:9393   */\n    tag_218:\n        /* \"#utility.yul\":9261:9338   */\n      0x4e487b7100000000000000000000000000000000000000000000000000000000\n        /* \"#utility.yul\":9258:9259   */\n      0x00\n        /* \"#utility.yul\":9251:9339   */\n      mstore\n        /* \"#utility.yul\":9358:9362   */\n      0x22\n        /* \"#utility.yul\":9355:9356   */\n      0x04\n        /* \"#utility.yul\":9348:9363   */\n      mstore\n        /* \"#utility.yul\":9382:9386   */\n      0x24\n        /* \"#utility.yul\":9379:9380   */\n      0x00\n        /* \"#utility.yul\":9372:9387   */\n      revert\n        /* \"#utility.yul\":9399:9579   */\n    tag_198:\n        /* \"#utility.yul\":9447:9524   */\n      0x4e487b7100000000000000000000000000000000000000000000000000000000\n        /* \"#utility.yul\":9444:9445   */\n      0x00\n        /* \"#utility.yul\":9437:9525   */\n      mstore\n        /* \"#utility.yul\":9544:9548   */\n      0x41\n        /* \"#utility.yul\":9541:9542   */\n      0x04\n        /* \"#utility.yul\":9534:9549   */\n      mstore\n        /* \"#utility.yul\":9568:9572   */\n      0x24\n        /* \"#utility.yul\":9565:9566   */\n      0x00\n        /* \"#utility.yul\":9558:9573   */\n      revert\n        /* \"#utility.yul\":9585:9702   */\n    tag_116:\n        /* \"#utility.yul\":9694:9695   */\n      0x00\n        /* \"#utility.yul\":9691:9692   */\n      dup1\n        /* \"#utility.yul\":9684:9696   */\n      revert\n        /* \"#utility.yul\":9708:9825   */\n    tag_109:\n        /* \"#utility.yul\":9817:9818   */\n      0x00\n        /* \"#utility.yul\":9814:9815   */\n      dup1\n        /* \"#utility.yul\":9807:9819   */\n      revert\n        /* \"#utility.yul\":9831:9948   */\n    tag_128:\n        /* \"#utility.yul\":9940:9941   */\n      0x00\n        /* \"#utility.yul\":9937:9938   */\n      dup1\n        /* \"#utility.yul\":9930:9942   */\n      revert\n        /* \"#utility.yul\":9954:10071   */\n    tag_125:\n        /* \"#utility.yul\":10063:10064   */\n      0x00\n        /* \"#utility.yul\":10060:10061   */\n      dup1\n        /* \"#utility.yul\":10053:10065   */\n      revert\n        /* \"#utility.yul\":10077:10179   */\n    tag_150:\n        /* \"#utility.yul\":10118:10124   */\n      0x00\n        /* \"#utility.yul\":10169:10171   */\n      0x1f\n        /* \"#utility.yul\":10165:10172   */\n      not\n        /* \"#utility.yul\":10160:10162   */\n      0x1f\n        /* \"#utility.yul\":10153:10158   */\n      dup4\n        /* \"#utility.yul\":10149:10163   */\n      add\n        /* \"#utility.yul\":10145:10173   */\n      and\n        /* \"#utility.yul\":10135:10173   */\n      swap1\n      pop\n        /* \"#utility.yul\":10077:10179   */\n      swap2\n      swap1\n      pop\n      jump\t// out\n        /* \"#utility.yul\":10185:10410   */\n    tag_162:\n        /* \"#utility.yul\":10325:10359   */\n      0x5061796d656e742073686f756c64206265207468652073756273637269707469\n        /* \"#utility.yul\":10321:10322   */\n      0x00\n        /* \"#utility.yul\":10313:10319   */\n      dup3\n        /* \"#utility.yul\":10309:10323   */\n      add\n        /* \"#utility.yul\":10302:10360   */\n      mstore\n        /* \"#utility.yul\":10394:10402   */\n      0x6f6e206665650000000000000000000000000000000000000000000000000000\n        /* \"#utility.yul\":10389:10391   */\n      0x20\n        /* \"#utility.yul\":10381:10387   */\n      dup3\n        /* \"#utility.yul\":10377:10392   */\n      add\n        /* \"#utility.yul\":10370:10403   */\n      mstore\n        /* \"#utility.yul\":10185:10410   */\n      pop\n      jump\t// out\n        /* \"#utility.yul\":10416:10644   */\n    tag_167:\n        /* \"#utility.yul\":10556:10590   */\n      0x4f6e6c792074686520617574686f722063616e20776974686472617720746865\n        /* \"#utility.yul\":10552:10553   */\n      0x00\n        /* \"#utility.yul\":10544:10550   */\n      dup3\n        /* \"#utility.yul\":10540:10554   */\n      add\n        /* \"#utility.yul\":10533:10591   */\n      mstore\n        /* \"#utility.yul\":10625:10636   */\n      0x207061796d656e742e0000000000000000000000000000000000000000000000\n        /* \"#utility.yul\":10620:10622   */\n      0x20\n        /* \"#utility.yul\":10612:10618   */\n      dup3\n        /* \"#utility.yul\":10608:10623   */\n      add\n        /* \"#utility.yul\":10601:10637   */\n      mstore\n        /* \"#utility.yul\":10416:10644   */\n      pop\n      jump\t// out\n        /* \"#utility.yul\":10650:10772   */\n    tag_121:\n        /* \"#utility.yul\":10723:10747   */\n      tag_239\n        /* \"#utility.yul\":10741:10746   */\n      dup2\n        /* \"#utility.yul\":10723:10747   */\n      tag_175\n      jump\t// in\n    tag_239:\n        /* \"#utility.yul\":10716:10721   */\n      dup2\n        /* \"#utility.yul\":10713:10748   */\n      eq\n        /* \"#utility.yul\":10703:10766   */\n      tag_240\n      jumpi\n        /* \"#utility.yul\":10762:10763   */\n      0x00\n        /* \"#utility.yul\":10759:10760   */\n      dup1\n        /* \"#utility.yul\":10752:10764   */\n      revert\n        /* \"#utility.yul\":10703:10766   */\n    tag_240:\n        /* \"#utility.yul\":10650:10772   */\n      pop\n      jump\t// out\n\n    auxdata: 0xa264697066735822122036449d21c6857be449bc243e0ce133d3203e652d289106d3b1a3a191fc58e5b864736f6c63430008070033\n}\n",
				"bytecode": {
					"linkReferences": {},
					"object": "6080604052600060015534801561001557600080fd5b50604051610e58380380610e588339818101604052810190610037919061009a565b33600260006101000a81548173ffffffffffffffffffffffffffffffffffffffff021916908373ffffffffffffffffffffffffffffffffffffffff16021790555080600381905550506100ed565b600081519050610094816100d6565b92915050565b6000602082840312156100b0576100af6100d1565b5b60006100be84828501610085565b91505092915050565b6000819050919050565b600080fd5b6100df816100c7565b81146100ea57600080fd5b50565b610d5c806100fc6000396000f3fe60806040526004361061007f5760003560e01c80636f9fb98a1161004e5780636f9fb98a1461026057806382d69b621461028b578063a6c3e6b9146102b6578063ef352bbe146102e15761015d565b80630aa0a175146101a357806317e703ab146101ce5780632edd4fa5146101f957806359221a68146102225761015d565b3661015d57600260009054906101000a900473ffffffffffffffffffffffffffffffffffffffff1673ffffffffffffffffffffffffffffffffffffffff163373ffffffffffffffffffffffffffffffffffffffff1614610114576040517f08c379a000000000000000000000000000000000000000000000000000000000815260040161010b906109b5565b60405180910390fd5b3373ffffffffffffffffffffffffffffffffffffffff166108fc479081150290604051600060405180830381858888f1935050505015801561015a573d6000803e3d6000fd5b50005b60035434146101a1576040517f08c379a000000000000000000000000000000000000000000000000000000000815260040161019890610995565b60405180910390fd5b005b3480156101af57600080fd5b506101b861030c565b6040516101c591906109f7565b60405180910390f35b3480156101da57600080fd5b506101e3610312565b6040516101f091906109f7565b60405180910390f35b34801561020557600080fd5b50610220600480360381019061021b91906107b2565b61031c565b005b34801561022e57600080fd5b50610249600480360381019061024491906107fb565b6103dd565b604051610257929190610965565b60405180910390f35b34801561026c57600080fd5b506102756104a9565b60405161028291906109f7565b60405180910390f35b34801561029757600080fd5b506102a06104b1565b6040516102ad91906109d5565b60405180910390f35b3480156102c257600080fd5b506102cb61062e565b6040516102d8919061094a565b60405180910390f35b3480156102ed57600080fd5b506102f6610654565b60405161030391906109f7565b60405180910390f35b60035481565b6000600154905090565b60405180604001604052808281526020013373ffffffffffffffffffffffffffffffffffffffff168152506000806001548152602001908152602001600020600082015181600001908051906020019061037792919061065a565b5060208201518160010160006101000a81548173ffffffffffffffffffffffffffffffffffffffff021916908373ffffffffffffffffffffffffffffffffffffffff160217905550905050600160008154809291906103d590610b76565b919050555050565b600060205280600052604060002060009150905080600001805461040090610b13565b80601f016020809104026020016040519081016040528092919081815260200182805461042c90610b13565b80156104795780601f1061044e57610100808354040283529160200191610479565b820191906000526020600020905b81548152906001019060200180831161045c57829003601f168201915b5050505050908060010160009054906101000a900473ffffffffffffffffffffffffffffffffffffffff16905082565b600047905090565b6104b96106e0565b6104c16106e0565b60005b600154811015610629576000808281526020019081526020016000206040518060400160405290816000820180546104fb90610b13565b80601f016020809104026020016040519081016040528092919081815260200182805461052790610b13565b80156105745780601f1061054957610100808354040283529160200191610574565b820191906000526020600020905b81548152906001019060200180831161055757829003601f168201915b505050505081526020016001820160009054906101000a900473ffffffffffffffffffffffffffffffffffffffff1673ffffffffffffffffffffffffffffffffffffffff1673ffffffffffffffffffffffffffffffffffffffff168152505091507f509008841c10ccf2d4360b0b681479c830f619aac14e8fac7ac253216fdae8f98260000151836020015160405161060e929190610965565b60405180910390a1808061062190610b76565b9150506104c4565b505090565b600260009054906101000a900473ffffffffffffffffffffffffffffffffffffffff1681565b60015481565b82805461066690610b13565b90600052602060002090601f01602090048101928261068857600085556106cf565b82601f106106a157805160ff19168380011785556106cf565b828001600101855582156106cf579182015b828111156106ce5782518255916020019190600101906106b3565b5b5090506106dc9190610710565b5090565b604051806040016040528060608152602001600073ffffffffffffffffffffffffffffffffffffffff1681525090565b5b80821115610729576000816000905550600101610711565b5090565b600061074061073b84610a37565b610a12565b90508281526020810184848401111561075c5761075b610c51565b5b610767848285610ad1565b509392505050565b600082601f83011261078457610783610c4c565b5b813561079484826020860161072d565b91505092915050565b6000813590506107ac81610d0f565b92915050565b6000602082840312156107c8576107c7610c5b565b5b600082013567ffffffffffffffff8111156107e6576107e5610c56565b5b6107f28482850161076f565b91505092915050565b60006020828403121561081157610810610c5b565b5b600061081f8482850161079d565b91505092915050565b61083181610a95565b82525050565b61084081610a95565b82525050565b600061085182610a68565b61085b8185610a73565b935061086b818560208601610ae0565b61087481610c60565b840191505092915050565b600061088a82610a68565b6108948185610a84565b93506108a4818560208601610ae0565b6108ad81610c60565b840191505092915050565b60006108c5602683610a84565b91506108d082610c71565b604082019050919050565b60006108e8602983610a84565b91506108f382610cc0565b604082019050919050565b6000604083016000830151848203600086015261091b8282610846565b91505060208301516109306020860182610828565b508091505092915050565b61094481610ac7565b82525050565b600060208201905061095f6000830184610837565b92915050565b6000604082019050818103600083015261097f818561087f565b905061098e6020830184610837565b9392505050565b600060208201905081810360008301526109ae816108b8565b9050919050565b600060208201905081810360008301526109ce816108db565b9050919050565b600060208201905081810360008301526109ef81846108fe565b905092915050565b6000602082019050610a0c600083018461093b565b92915050565b6000610a1c610a2d565b9050610a288282610b45565b919050565b6000604051905090565b600067ffffffffffffffff821115610a5257610a51610c1d565b5b610a5b82610c60565b9050602081019050919050565b600081519050919050565b600082825260208201905092915050565b600082825260208201905092915050565b6000610aa082610aa7565b9050919050565b600073ffffffffffffffffffffffffffffffffffffffff82169050919050565b6000819050919050565b82818337600083830152505050565b60005b83811015610afe578082015181840152602081019050610ae3565b83811115610b0d576000848401525b50505050565b60006002820490506001821680610b2b57607f821691505b60208210811415610b3f57610b3e610bee565b5b50919050565b610b4e82610c60565b810181811067ffffffffffffffff82111715610b6d57610b6c610c1d565b5b80604052505050565b6000610b8182610ac7565b91507fffffffffffffffffffffffffffffffffffffffffffffffffffffffffffffffff821415610bb457610bb3610bbf565b5b600182019050919050565b7f4e487b7100000000000000000000000000000000000000000000000000000000600052601160045260246000fd5b7f4e487b7100000000000000000000000000000000000000000000000000000000600052602260045260246000fd5b7f4e487b7100000000000000000000000000000000000000000000000000000000600052604160045260246000fd5b600080fd5b600080fd5b600080fd5b600080fd5b6000601f19601f8301169050919050565b7f5061796d656e742073686f756c6420626520746865207375627363726970746960008201527f6f6e206665650000000000000000000000000000000000000000000000000000602082015250565b7f4f6e6c792074686520617574686f722063616e2077697468647261772074686560008201527f207061796d656e742e0000000000000000000000000000000000000000000000602082015250565b610d1881610ac7565b8114610d2357600080fd5b5056fea264697066735822122036449d21c6857be449bc243e0ce133d3203e652d289106d3b1a3a191fc58e5b864736f6c63430008070033",
					"opcodes": "PUSH1 0x80 PUSH1 0x40 MSTORE PUSH1 0x0 PUSH1 0x1 SSTORE CALLVALUE DUP1 ISZERO PUSH2 0x15 JUMPI PUSH1 0x0 DUP1 REVERT JUMPDEST POP PUSH1 0x40 MLOAD PUSH2 0xE58 CODESIZE SUB DUP1 PUSH2 0xE58 DUP4 CODECOPY DUP2 DUP2 ADD PUSH1 0x40 MSTORE DUP2 ADD SWAP1 PUSH2 0x37 SWAP2 SWAP1 PUSH2 0x9A JUMP JUMPDEST CALLER PUSH1 0x2 PUSH1 0x0 PUSH2 0x100 EXP DUP2 SLOAD DUP2 PUSH20 0xFFFFFFFFFFFFFFFFFFFFFFFFFFFFFFFFFFFFFFFF MUL NOT AND SWAP1 DUP4 PUSH20 0xFFFFFFFFFFFFFFFFFFFFFFFFFFFFFFFFFFFFFFFF AND MUL OR SWAP1 SSTORE POP DUP1 PUSH1 0x3 DUP2 SWAP1 SSTORE POP POP PUSH2 0xED JUMP JUMPDEST PUSH1 0x0 DUP2 MLOAD SWAP1 POP PUSH2 0x94 DUP2 PUSH2 0xD6 JUMP JUMPDEST SWAP3 SWAP2 POP POP JUMP JUMPDEST PUSH1 0x0 PUSH1 0x20 DUP3 DUP5 SUB SLT ISZERO PUSH2 0xB0 JUMPI PUSH2 0xAF PUSH2 0xD1 JUMP JUMPDEST JUMPDEST PUSH1 0x0 PUSH2 0xBE DUP5 DUP3 DUP6 ADD PUSH2 0x85 JUMP JUMPDEST SWAP2 POP POP SWAP3 SWAP2 POP POP JUMP JUMPDEST PUSH1 0x0 DUP2 SWAP1 POP SWAP2 SWAP1 POP JUMP JUMPDEST PUSH1 0x0 DUP1 REVERT JUMPDEST PUSH2 0xDF DUP2 PUSH2 0xC7 JUMP JUMPDEST DUP2 EQ PUSH2 0xEA JUMPI PUSH1 0x0 DUP1 REVERT JUMPDEST POP JUMP JUMPDEST PUSH2 0xD5C DUP1 PUSH2 0xFC PUSH1 0x0 CODECOPY PUSH1 0x0 RETURN INVALID PUSH1 0x80 PUSH1 0x40 MSTORE PUSH1 0x4 CALLDATASIZE LT PUSH2 0x7F JUMPI PUSH1 0x0 CALLDATALOAD PUSH1 0xE0 SHR DUP1 PUSH4 0x6F9FB98A GT PUSH2 0x4E JUMPI DUP1 PUSH4 0x6F9FB98A EQ PUSH2 0x260 JUMPI DUP1 PUSH4 0x82D69B62 EQ PUSH2 0x28B JUMPI DUP1 PUSH4 0xA6C3E6B9 EQ PUSH2 0x2B6 JUMPI DUP1 PUSH4 0xEF352BBE EQ PUSH2 0x2E1 JUMPI PUSH2 0x15D JUMP JUMPDEST DUP1 PUSH4 0xAA0A175 EQ PUSH2 0x1A3 JUMPI DUP1 PUSH4 0x17E703AB EQ PUSH2 0x1CE JUMPI DUP1 PUSH4 0x2EDD4FA5 EQ PUSH2 0x1F9 JUMPI DUP1 PUSH4 0x59221A68 EQ PUSH2 0x222 JUMPI PUSH2 0x15D JUMP JUMPDEST CALLDATASIZE PUSH2 0x15D JUMPI PUSH1 0x2 PUSH1 0x0 SWAP1 SLOAD SWAP1 PUSH2 0x100 EXP SWAP1 DIV PUSH20 0xFFFFFFFFFFFFFFFFFFFFFFFFFFFFFFFFFFFFFFFF AND PUSH20 0xFFFFFFFFFFFFFFFFFFFFFFFFFFFFFFFFFFFFFFFF AND CALLER PUSH20 0xFFFFFFFFFFFFFFFFFFFFFFFFFFFFFFFFFFFFFFFF AND EQ PUSH2 0x114 JUMPI PUSH1 0x40 MLOAD PUSH32 0x8C379A000000000000000000000000000000000000000000000000000000000 DUP2 MSTORE PUSH1 0x4 ADD PUSH2 0x10B SWAP1 PUSH2 0x9B5 JUMP JUMPDEST PUSH1 0x40 MLOAD DUP1 SWAP2 SUB SWAP1 REVERT JUMPDEST CALLER PUSH20 0xFFFFFFFFFFFFFFFFFFFFFFFFFFFFFFFFFFFFFFFF AND PUSH2 0x8FC SELFBALANCE SWAP1 DUP2 ISZERO MUL SWAP1 PUSH1 0x40 MLOAD PUSH1 0x0 PUSH1 0x40 MLOAD DUP1 DUP4 SUB DUP2 DUP6 DUP9 DUP9 CALL SWAP4 POP POP POP POP ISZERO DUP1 ISZERO PUSH2 0x15A JUMPI RETURNDATASIZE PUSH1 0x0 DUP1 RETURNDATACOPY RETURNDATASIZE PUSH1 0x0 REVERT JUMPDEST POP STOP JUMPDEST PUSH1 0x3 SLOAD CALLVALUE EQ PUSH2 0x1A1 JUMPI PUSH1 0x40 MLOAD PUSH32 0x8C379A000000000000000000000000000000000000000000000000000000000 DUP2 MSTORE PUSH1 0x4 ADD PUSH2 0x198 SWAP1 PUSH2 0x995 JUMP JUMPDEST PUSH1 0x40 MLOAD DUP1 SWAP2 SUB SWAP1 REVERT JUMPDEST STOP JUMPDEST CALLVALUE DUP1 ISZERO PUSH2 0x1AF JUMPI PUSH1 0x0 DUP1 REVERT JUMPDEST POP PUSH2 0x1B8 PUSH2 0x30C JUMP JUMPDEST PUSH1 0x40 MLOAD PUSH2 0x1C5 SWAP2 SWAP1 PUSH2 0x9F7 JUMP JUMPDEST PUSH1 0x40 MLOAD DUP1 SWAP2 SUB SWAP1 RETURN JUMPDEST CALLVALUE DUP1 ISZERO PUSH2 0x1DA JUMPI PUSH1 0x0 DUP1 REVERT JUMPDEST POP PUSH2 0x1E3 PUSH2 0x312 JUMP JUMPDEST PUSH1 0x40 MLOAD PUSH2 0x1F0 SWAP2 SWAP1 PUSH2 0x9F7 JUMP JUMPDEST PUSH1 0x40 MLOAD DUP1 SWAP2 SUB SWAP1 RETURN JUMPDEST CALLVALUE DUP1 ISZERO PUSH2 0x205 JUMPI PUSH1 0x0 DUP1 REVERT JUMPDEST POP PUSH2 0x220 PUSH1 0x4 DUP1 CALLDATASIZE SUB DUP2 ADD SWAP1 PUSH2 0x21B SWAP2 SWAP1 PUSH2 0x7B2 JUMP JUMPDEST PUSH2 0x31C JUMP JUMPDEST STOP JUMPDEST CALLVALUE DUP1 ISZERO PUSH2 0x22E JUMPI PUSH1 0x0 DUP1 REVERT JUMPDEST POP PUSH2 0x249 PUSH1 0x4 DUP1 CALLDATASIZE SUB DUP2 ADD SWAP1 PUSH2 0x244 SWAP2 SWAP1 PUSH2 0x7FB JUMP JUMPDEST PUSH2 0x3DD JUMP JUMPDEST PUSH1 0x40 MLOAD PUSH2 0x257 SWAP3 SWAP2 SWAP1 PUSH2 0x965 JUMP JUMPDEST PUSH1 0x40 MLOAD DUP1 SWAP2 SUB SWAP1 RETURN JUMPDEST CALLVALUE DUP1 ISZERO PUSH2 0x26C JUMPI PUSH1 0x0 DUP1 REVERT JUMPDEST POP PUSH2 0x275 PUSH2 0x4A9 JUMP JUMPDEST PUSH1 0x40 MLOAD PUSH2 0x282 SWAP2 SWAP1 PUSH2 0x9F7 JUMP JUMPDEST PUSH1 0x40 MLOAD DUP1 SWAP2 SUB SWAP1 RETURN JUMPDEST CALLVALUE DUP1 ISZERO PUSH2 0x297 JUMPI PUSH1 0x0 DUP1 REVERT JUMPDEST POP PUSH2 0x2A0 PUSH2 0x4B1 JUMP JUMPDEST PUSH1 0x40 MLOAD PUSH2 0x2AD SWAP2 SWAP1 PUSH2 0x9D5 JUMP JUMPDEST PUSH1 0x40 MLOAD DUP1 SWAP2 SUB SWAP1 RETURN JUMPDEST CALLVALUE DUP1 ISZERO PUSH2 0x2C2 JUMPI PUSH1 0x0 DUP1 REVERT JUMPDEST POP PUSH2 0x2CB PUSH2 0x62E JUMP JUMPDEST PUSH1 0x40 MLOAD PUSH2 0x2D8 SWAP2 SWAP1 PUSH2 0x94A JUMP JUMPDEST PUSH1 0x40 MLOAD DUP1 SWAP2 SUB SWAP1 RETURN JUMPDEST CALLVALUE DUP1 ISZERO PUSH2 0x2ED JUMPI PUSH1 0x0 DUP1 REVERT JUMPDEST POP PUSH2 0x2F6 PUSH2 0x654 JUMP JUMPDEST PUSH1 0x40 MLOAD PUSH2 0x303 SWAP2 SWAP1 PUSH2 0x9F7 JUMP JUMPDEST PUSH1 0x40 MLOAD DUP1 SWAP2 SUB SWAP1 RETURN JUMPDEST PUSH1 0x3 SLOAD DUP2 JUMP JUMPDEST PUSH1 0x0 PUSH1 0x1 SLOAD SWAP1 POP SWAP1 JUMP JUMPDEST PUSH1 0x40 MLOAD DUP1 PUSH1 0x40 ADD PUSH1 0x40 MSTORE DUP1 DUP3 DUP2 MSTORE PUSH1 0x20 ADD CALLER PUSH20 0xFFFFFFFFFFFFFFFFFFFFFFFFFFFFFFFFFFFFFFFF AND DUP2 MSTORE POP PUSH1 0x0 DUP1 PUSH1 0x1 SLOAD DUP2 MSTORE PUSH1 0x20 ADD SWAP1 DUP2 MSTORE PUSH1 0x20 ADD PUSH1 0x0 KECCAK256 PUSH1 0x0 DUP3 ADD MLOAD DUP2 PUSH1 0x0 ADD SWAP1 DUP1 MLOAD SWAP1 PUSH1 0x20 ADD SWAP1 PUSH2 0x377 SWAP3 SWAP2 SWAP1 PUSH2 0x65A JUMP JUMPDEST POP PUSH1 0x20 DUP3 ADD MLOAD DUP2 PUSH1 0x1 ADD PUSH1 0x0 PUSH2 0x100 EXP DUP2 SLOAD DUP2 PUSH20 0xFFFFFFFFFFFFFFFFFFFFFFFFFFFFFFFFFFFFFFFF MUL NOT AND SWAP1 DUP4 PUSH20 0xFFFFFFFFFFFFFFFFFFFFFFFFFFFFFFFFFFFFFFFF AND MUL OR SWAP1 SSTORE POP SWAP1 POP POP PUSH1 0x1 PUSH1 0x0 DUP2 SLOAD DUP1 SWAP3 SWAP2 SWAP1 PUSH2 0x3D5 SWAP1 PUSH2 0xB76 JUMP JUMPDEST SWAP2 SWAP1 POP SSTORE POP POP JUMP JUMPDEST PUSH1 0x0 PUSH1 0x20 MSTORE DUP1 PUSH1 0x0 MSTORE PUSH1 0x40 PUSH1 0x0 KECCAK256 PUSH1 0x0 SWAP2 POP SWAP1 POP DUP1 PUSH1 0x0 ADD DUP1 SLOAD PUSH2 0x400 SWAP1 PUSH2 0xB13 JUMP JUMPDEST DUP1 PUSH1 0x1F ADD PUSH1 0x20 DUP1 SWAP2 DIV MUL PUSH1 0x20 ADD PUSH1 0x40 MLOAD SWAP1 DUP2 ADD PUSH1 0x40 MSTORE DUP1 SWAP3 SWAP2 SWAP1 DUP2 DUP2 MSTORE PUSH1 0x20 ADD DUP3 DUP1 SLOAD PUSH2 0x42C SWAP1 PUSH2 0xB13 JUMP JUMPDEST DUP1 ISZERO PUSH2 0x479 JUMPI DUP1 PUSH1 0x1F LT PUSH2 0x44E JUMPI PUSH2 0x100 DUP1 DUP4 SLOAD DIV MUL DUP4 MSTORE SWAP2 PUSH1 0x20 ADD SWAP2 PUSH2 0x479 JUMP JUMPDEST DUP3 ADD SWAP2 SWAP1 PUSH1 0x0 MSTORE PUSH1 0x20 PUSH1 0x0 KECCAK256 SWAP1 JUMPDEST DUP2 SLOAD DUP2 MSTORE SWAP1 PUSH1 0x1 ADD SWAP1 PUSH1 0x20 ADD DUP1 DUP4 GT PUSH2 0x45C JUMPI DUP3 SWAP1 SUB PUSH1 0x1F AND DUP3 ADD SWAP2 JUMPDEST POP POP POP POP POP SWAP1 DUP1 PUSH1 0x1 ADD PUSH1 0x0 SWAP1 SLOAD SWAP1 PUSH2 0x100 EXP SWAP1 DIV PUSH20 0xFFFFFFFFFFFFFFFFFFFFFFFFFFFFFFFFFFFFFFFF AND SWAP1 POP DUP3 JUMP JUMPDEST PUSH1 0x0 SELFBALANCE SWAP1 POP SWAP1 JUMP JUMPDEST PUSH2 0x4B9 PUSH2 0x6E0 JUMP JUMPDEST PUSH2 0x4C1 PUSH2 0x6E0 JUMP JUMPDEST PUSH1 0x0 JUMPDEST PUSH1 0x1 SLOAD DUP2 LT ISZERO PUSH2 0x629 JUMPI PUSH1 0x0 DUP1 DUP3 DUP2 MSTORE PUSH1 0x20 ADD SWAP1 DUP2 MSTORE PUSH1 0x20 ADD PUSH1 0x0 KECCAK256 PUSH1 0x40 MLOAD DUP1 PUSH1 0x40 ADD PUSH1 0x40 MSTORE SWAP1 DUP2 PUSH1 0x0 DUP3 ADD DUP1 SLOAD PUSH2 0x4FB SWAP1 PUSH2 0xB13 JUMP JUMPDEST DUP1 PUSH1 0x1F ADD PUSH1 0x20 DUP1 SWAP2 DIV MUL PUSH1 0x20 ADD PUSH1 0x40 MLOAD SWAP1 DUP2 ADD PUSH1 0x40 MSTORE DUP1 SWAP3 SWAP2 SWAP1 DUP2 DUP2 MSTORE PUSH1 0x20 ADD DUP3 DUP1 SLOAD PUSH2 0x527 SWAP1 PUSH2 0xB13 JUMP JUMPDEST DUP1 ISZERO PUSH2 0x574 JUMPI DUP1 PUSH1 0x1F LT PUSH2 0x549 JUMPI PUSH2 0x100 DUP1 DUP4 SLOAD DIV MUL DUP4 MSTORE SWAP2 PUSH1 0x20 ADD SWAP2 PUSH2 0x574 JUMP JUMPDEST DUP3 ADD SWAP2 SWAP1 PUSH1 0x0 MSTORE PUSH1 0x20 PUSH1 0x0 KECCAK256 SWAP1 JUMPDEST DUP2 SLOAD DUP2 MSTORE SWAP1 PUSH1 0x1 ADD SWAP1 PUSH1 0x20 ADD DUP1 DUP4 GT PUSH2 0x557 JUMPI DUP3 SWAP1 SUB PUSH1 0x1F AND DUP3 ADD SWAP2 JUMPDEST POP POP POP POP POP DUP2 MSTORE PUSH1 0x20 ADD PUSH1 0x1 DUP3 ADD PUSH1 0x0 SWAP1 SLOAD SWAP1 PUSH2 0x100 EXP SWAP1 DIV PUSH20 0xFFFFFFFFFFFFFFFFFFFFFFFFFFFFFFFFFFFFFFFF AND PUSH20 0xFFFFFFFFFFFFFFFFFFFFFFFFFFFFFFFFFFFFFFFF AND PUSH20 0xFFFFFFFFFFFFFFFFFFFFFFFFFFFFFFFFFFFFFFFF AND DUP2 MSTORE POP POP SWAP2 POP PUSH32 0x509008841C10CCF2D4360B0B681479C830F619AAC14E8FAC7AC253216FDAE8F9 DUP3 PUSH1 0x0 ADD MLOAD DUP4 PUSH1 0x20 ADD MLOAD PUSH1 0x40 MLOAD PUSH2 0x60E SWAP3 SWAP2 SWAP1 PUSH2 0x965 JUMP JUMPDEST PUSH1 0x40 MLOAD DUP1 SWAP2 SUB SWAP1 LOG1 DUP1 DUP1 PUSH2 0x621 SWAP1 PUSH2 0xB76 JUMP JUMPDEST SWAP2 POP POP PUSH2 0x4C4 JUMP JUMPDEST POP POP SWAP1 JUMP JUMPDEST PUSH1 0x2 PUSH1 0x0 SWAP1 SLOAD SWAP1 PUSH2 0x100 EXP SWAP1 DIV PUSH20 0xFFFFFFFFFFFFFFFFFFFFFFFFFFFFFFFFFFFFFFFF AND DUP2 JUMP JUMPDEST PUSH1 0x1 SLOAD DUP2 JUMP JUMPDEST DUP3 DUP1 SLOAD PUSH2 0x666 SWAP1 PUSH2 0xB13 JUMP JUMPDEST SWAP1 PUSH1 0x0 MSTORE PUSH1 0x20 PUSH1 0x0 KECCAK256 SWAP1 PUSH1 0x1F ADD PUSH1 0x20 SWAP1 DIV DUP2 ADD SWAP3 DUP3 PUSH2 0x688 JUMPI PUSH1 0x0 DUP6 SSTORE PUSH2 0x6CF JUMP JUMPDEST DUP3 PUSH1 0x1F LT PUSH2 0x6A1 JUMPI DUP1 MLOAD PUSH1 0xFF NOT AND DUP4 DUP1 ADD OR DUP6 SSTORE PUSH2 0x6CF JUMP JUMPDEST DUP3 DUP1 ADD PUSH1 0x1 ADD DUP6 SSTORE DUP3 ISZERO PUSH2 0x6CF JUMPI SWAP2 DUP3 ADD JUMPDEST DUP3 DUP2 GT ISZERO PUSH2 0x6CE JUMPI DUP3 MLOAD DUP3 SSTORE SWAP2 PUSH1 0x20 ADD SWAP2 SWAP1 PUSH1 0x1 ADD SWAP1 PUSH2 0x6B3 JUMP JUMPDEST JUMPDEST POP SWAP1 POP PUSH2 0x6DC SWAP2 SWAP1 PUSH2 0x710 JUMP JUMPDEST POP SWAP1 JUMP JUMPDEST PUSH1 0x40 MLOAD DUP1 PUSH1 0x40 ADD PUSH1 0x40 MSTORE DUP1 PUSH1 0x60 DUP2 MSTORE PUSH1 0x20 ADD PUSH1 0x0 PUSH20 0xFFFFFFFFFFFFFFFFFFFFFFFFFFFFFFFFFFFFFFFF AND DUP2 MSTORE POP SWAP1 JUMP JUMPDEST JUMPDEST DUP1 DUP3 GT ISZERO PUSH2 0x729 JUMPI PUSH1 0x0 DUP2 PUSH1 0x0 SWAP1 SSTORE POP PUSH1 0x1 ADD PUSH2 0x711 JUMP JUMPDEST POP SWAP1 JUMP JUMPDEST PUSH1 0x0 PUSH2 0x740 PUSH2 0x73B DUP5 PUSH2 0xA37 JUMP JUMPDEST PUSH2 0xA12 JUMP JUMPDEST SWAP1 POP DUP3 DUP2 MSTORE PUSH1 0x20 DUP2 ADD DUP5 DUP5 DUP5 ADD GT ISZERO PUSH2 0x75C JUMPI PUSH2 0x75B PUSH2 0xC51 JUMP JUMPDEST JUMPDEST PUSH2 0x767 DUP5 DUP3 DUP6 PUSH2 0xAD1 JUMP JUMPDEST POP SWAP4 SWAP3 POP POP POP JUMP JUMPDEST PUSH1 0x0 DUP3 PUSH1 0x1F DUP4 ADD SLT PUSH2 0x784 JUMPI PUSH2 0x783 PUSH2 0xC4C JUMP JUMPDEST JUMPDEST DUP2 CALLDATALOAD PUSH2 0x794 DUP5 DUP3 PUSH1 0x20 DUP7 ADD PUSH2 0x72D JUMP JUMPDEST SWAP2 POP POP SWAP3 SWAP2 POP POP JUMP JUMPDEST PUSH1 0x0 DUP2 CALLDATALOAD SWAP1 POP PUSH2 0x7AC DUP2 PUSH2 0xD0F JUMP JUMPDEST SWAP3 SWAP2 POP POP JUMP JUMPDEST PUSH1 0x0 PUSH1 0x20 DUP3 DUP5 SUB SLT ISZERO PUSH2 0x7C8 JUMPI PUSH2 0x7C7 PUSH2 0xC5B JUMP JUMPDEST JUMPDEST PUSH1 0x0 DUP3 ADD CALLDATALOAD PUSH8 0xFFFFFFFFFFFFFFFF DUP2 GT ISZERO PUSH2 0x7E6 JUMPI PUSH2 0x7E5 PUSH2 0xC56 JUMP JUMPDEST JUMPDEST PUSH2 0x7F2 DUP5 DUP3 DUP6 ADD PUSH2 0x76F JUMP JUMPDEST SWAP2 POP POP SWAP3 SWAP2 POP POP JUMP JUMPDEST PUSH1 0x0 PUSH1 0x20 DUP3 DUP5 SUB SLT ISZERO PUSH2 0x811 JUMPI PUSH2 0x810 PUSH2 0xC5B JUMP JUMPDEST JUMPDEST PUSH1 0x0 PUSH2 0x81F DUP5 DUP3 DUP6 ADD PUSH2 0x79D JUMP JUMPDEST SWAP2 POP POP SWAP3 SWAP2 POP POP JUMP JUMPDEST PUSH2 0x831 DUP2 PUSH2 0xA95 JUMP JUMPDEST DUP3 MSTORE POP POP JUMP JUMPDEST PUSH2 0x840 DUP2 PUSH2 0xA95 JUMP JUMPDEST DUP3 MSTORE POP POP JUMP JUMPDEST PUSH1 0x0 PUSH2 0x851 DUP3 PUSH2 0xA68 JUMP JUMPDEST PUSH2 0x85B DUP2 DUP6 PUSH2 0xA73 JUMP JUMPDEST SWAP4 POP PUSH2 0x86B DUP2 DUP6 PUSH1 0x20 DUP7 ADD PUSH2 0xAE0 JUMP JUMPDEST PUSH2 0x874 DUP2 PUSH2 0xC60 JUMP JUMPDEST DUP5 ADD SWAP2 POP POP SWAP3 SWAP2 POP POP JUMP JUMPDEST PUSH1 0x0 PUSH2 0x88A DUP3 PUSH2 0xA68 JUMP JUMPDEST PUSH2 0x894 DUP2 DUP6 PUSH2 0xA84 JUMP JUMPDEST SWAP4 POP PUSH2 0x8A4 DUP2 DUP6 PUSH1 0x20 DUP7 ADD PUSH2 0xAE0 JUMP JUMPDEST PUSH2 0x8AD DUP2 PUSH2 0xC60 JUMP JUMPDEST DUP5 ADD SWAP2 POP POP SWAP3 SWAP2 POP POP JUMP JUMPDEST PUSH1 0x0 PUSH2 0x8C5 PUSH1 0x26 DUP4 PUSH2 0xA84 JUMP JUMPDEST SWAP2 POP PUSH2 0x8D0 DUP3 PUSH2 0xC71 JUMP JUMPDEST PUSH1 0x40 DUP3 ADD SWAP1 POP SWAP2 SWAP1 POP JUMP JUMPDEST PUSH1 0x0 PUSH2 0x8E8 PUSH1 0x29 DUP4 PUSH2 0xA84 JUMP JUMPDEST SWAP2 POP PUSH2 0x8F3 DUP3 PUSH2 0xCC0 JUMP JUMPDEST PUSH1 0x40 DUP3 ADD SWAP1 POP SWAP2 SWAP1 POP JUMP JUMPDEST PUSH1 0x0 PUSH1 0x40 DUP4 ADD PUSH1 0x0 DUP4 ADD MLOAD DUP5 DUP3 SUB PUSH1 0x0 DUP7 ADD MSTORE PUSH2 0x91B DUP3 DUP3 PUSH2 0x846 JUMP JUMPDEST SWAP2 POP POP PUSH1 0x20 DUP4 ADD MLOAD PUSH2 0x930 PUSH1 0x20 DUP7 ADD DUP3 PUSH2 0x828 JUMP JUMPDEST POP DUP1 SWAP2 POP POP SWAP3 SWAP2 POP POP JUMP JUMPDEST PUSH2 0x944 DUP2 PUSH2 0xAC7 JUMP JUMPDEST DUP3 MSTORE POP POP JUMP JUMPDEST PUSH1 0x0 PUSH1 0x20 DUP3 ADD SWAP1 POP PUSH2 0x95F PUSH1 0x0 DUP4 ADD DUP5 PUSH2 0x837 JUMP JUMPDEST SWAP3 SWAP2 POP POP JUMP JUMPDEST PUSH1 0x0 PUSH1 0x40 DUP3 ADD SWAP1 POP DUP2 DUP2 SUB PUSH1 0x0 DUP4 ADD MSTORE PUSH2 0x97F DUP2 DUP6 PUSH2 0x87F JUMP JUMPDEST SWAP1 POP PUSH2 0x98E PUSH1 0x20 DUP4 ADD DUP5 PUSH2 0x837 JUMP JUMPDEST SWAP4 SWAP3 POP POP POP JUMP JUMPDEST PUSH1 0x0 PUSH1 0x20 DUP3 ADD SWAP1 POP DUP2 DUP2 SUB PUSH1 0x0 DUP4 ADD MSTORE PUSH2 0x9AE DUP2 PUSH2 0x8B8 JUMP JUMPDEST SWAP1 POP SWAP2 SWAP1 POP JUMP JUMPDEST PUSH1 0x0 PUSH1 0x20 DUP3 ADD SWAP1 POP DUP2 DUP2 SUB PUSH1 0x0 DUP4 ADD MSTORE PUSH2 0x9CE DUP2 PUSH2 0x8DB JUMP JUMPDEST SWAP1 POP SWAP2 SWAP1 POP JUMP JUMPDEST PUSH1 0x0 PUSH1 0x20 DUP3 ADD SWAP1 POP DUP2 DUP2 SUB PUSH1 0x0 DUP4 ADD MSTORE PUSH2 0x9EF DUP2 DUP5 PUSH2 0x8FE JUMP JUMPDEST SWAP1 POP SWAP3 SWAP2 POP POP JUMP JUMPDEST PUSH1 0x0 PUSH1 0x20 DUP3 ADD SWAP1 POP PUSH2 0xA0C PUSH1 0x0 DUP4 ADD DUP5 PUSH2 0x93B JUMP JUMPDEST SWAP3 SWAP2 POP POP JUMP JUMPDEST PUSH1 0x0 PUSH2 0xA1C PUSH2 0xA2D JUMP JUMPDEST SWAP1 POP PUSH2 0xA28 DUP3 DUP3 PUSH2 0xB45 JUMP JUMPDEST SWAP2 SWAP1 POP JUMP JUMPDEST PUSH1 0x0 PUSH1 0x40 MLOAD SWAP1 POP SWAP1 JUMP JUMPDEST PUSH1 0x0 PUSH8 0xFFFFFFFFFFFFFFFF DUP3 GT ISZERO PUSH2 0xA52 JUMPI PUSH2 0xA51 PUSH2 0xC1D JUMP JUMPDEST JUMPDEST PUSH2 0xA5B DUP3 PUSH2 0xC60 JUMP JUMPDEST SWAP1 POP PUSH1 0x20 DUP2 ADD SWAP1 POP SWAP2 SWAP1 POP JUMP JUMPDEST PUSH1 0x0 DUP2 MLOAD SWAP1 POP SWAP2 SWAP1 POP JUMP JUMPDEST PUSH1 0x0 DUP3 DUP3 MSTORE PUSH1 0x20 DUP3 ADD SWAP1 POP SWAP3 SWAP2 POP POP JUMP JUMPDEST PUSH1 0x0 DUP3 DUP3 MSTORE PUSH1 0x20 DUP3 ADD SWAP1 POP SWAP3 SWAP2 POP POP JUMP JUMPDEST PUSH1 0x0 PUSH2 0xAA0 DUP3 PUSH2 0xAA7 JUMP JUMPDEST SWAP1 POP SWAP2 SWAP1 POP JUMP JUMPDEST PUSH1 0x0 PUSH20 0xFFFFFFFFFFFFFFFFFFFFFFFFFFFFFFFFFFFFFFFF DUP3 AND SWAP1 POP SWAP2 SWAP1 POP JUMP JUMPDEST PUSH1 0x0 DUP2 SWAP1 POP SWAP2 SWAP1 POP JUMP JUMPDEST DUP3 DUP2 DUP4 CALLDATACOPY PUSH1 0x0 DUP4 DUP4 ADD MSTORE POP POP POP JUMP JUMPDEST PUSH1 0x0 JUMPDEST DUP4 DUP2 LT ISZERO PUSH2 0xAFE JUMPI DUP1 DUP3 ADD MLOAD DUP2 DUP5 ADD MSTORE PUSH1 0x20 DUP2 ADD SWAP1 POP PUSH2 0xAE3 JUMP JUMPDEST DUP4 DUP2 GT ISZERO PUSH2 0xB0D JUMPI PUSH1 0x0 DUP5 DUP5 ADD MSTORE JUMPDEST POP POP POP POP JUMP JUMPDEST PUSH1 0x0 PUSH1 0x2 DUP3 DIV SWAP1 POP PUSH1 0x1 DUP3 AND DUP1 PUSH2 0xB2B JUMPI PUSH1 0x7F DUP3 AND SWAP2 POP JUMPDEST PUSH1 0x20 DUP3 LT DUP2 EQ ISZERO PUSH2 0xB3F JUMPI PUSH2 0xB3E PUSH2 0xBEE JUMP JUMPDEST JUMPDEST POP SWAP2 SWAP1 POP JUMP JUMPDEST PUSH2 0xB4E DUP3 PUSH2 0xC60 JUMP JUMPDEST DUP2 ADD DUP2 DUP2 LT PUSH8 0xFFFFFFFFFFFFFFFF DUP3 GT OR ISZERO PUSH2 0xB6D JUMPI PUSH2 0xB6C PUSH2 0xC1D JUMP JUMPDEST JUMPDEST DUP1 PUSH1 0x40 MSTORE POP POP POP JUMP JUMPDEST PUSH1 0x0 PUSH2 0xB81 DUP3 PUSH2 0xAC7 JUMP JUMPDEST SWAP2 POP PUSH32 0xFFFFFFFFFFFFFFFFFFFFFFFFFFFFFFFFFFFFFFFFFFFFFFFFFFFFFFFFFFFFFFFF DUP3 EQ ISZERO PUSH2 0xBB4 JUMPI PUSH2 0xBB3 PUSH2 0xBBF JUMP JUMPDEST JUMPDEST PUSH1 0x1 DUP3 ADD SWAP1 POP SWAP2 SWAP1 POP JUMP JUMPDEST PUSH32 0x4E487B7100000000000000000000000000000000000000000000000000000000 PUSH1 0x0 MSTORE PUSH1 0x11 PUSH1 0x4 MSTORE PUSH1 0x24 PUSH1 0x0 REVERT JUMPDEST PUSH32 0x4E487B7100000000000000000000000000000000000000000000000000000000 PUSH1 0x0 MSTORE PUSH1 0x22 PUSH1 0x4 MSTORE PUSH1 0x24 PUSH1 0x0 REVERT JUMPDEST PUSH32 0x4E487B7100000000000000000000000000000000000000000000000000000000 PUSH1 0x0 MSTORE PUSH1 0x41 PUSH1 0x4 MSTORE PUSH1 0x24 PUSH1 0x0 REVERT JUMPDEST PUSH1 0x0 DUP1 REVERT JUMPDEST PUSH1 0x0 DUP1 REVERT JUMPDEST PUSH1 0x0 DUP1 REVERT JUMPDEST PUSH1 0x0 DUP1 REVERT JUMPDEST PUSH1 0x0 PUSH1 0x1F NOT PUSH1 0x1F DUP4 ADD AND SWAP1 POP SWAP2 SWAP1 POP JUMP JUMPDEST PUSH32 0x5061796D656E742073686F756C64206265207468652073756273637269707469 PUSH1 0x0 DUP3 ADD MSTORE PUSH32 0x6F6E206665650000000000000000000000000000000000000000000000000000 PUSH1 0x20 DUP3 ADD MSTORE POP JUMP JUMPDEST PUSH32 0x4F6E6C792074686520617574686F722063616E20776974686472617720746865 PUSH1 0x0 DUP3 ADD MSTORE PUSH32 0x207061796D656E742E0000000000000000000000000000000000000000000000 PUSH1 0x20 DUP3 ADD MSTORE POP JUMP JUMPDEST PUSH2 0xD18 DUP2 PUSH2 0xAC7 JUMP JUMPDEST DUP2 EQ PUSH2 0xD23 JUMPI PUSH1 0x0 DUP1 REVERT JUMPDEST POP JUMP INVALID LOG2 PUSH5 0x6970667358 0x22 SLT KECCAK256 CALLDATASIZE DIFFICULTY SWAP14 0x21 0xC6 DUP6 PUSH28 0xE449BC243E0CE133D3203E652D289106D3B1A3A191FC58E5B864736F PUSH13 0x63430008070033000000000000 "
				},
				"gasEstimates": {
					"creation": {
						"codeDepositCost": "684000",
						"executionCost": "infinite",
						"totalCost": "infinite"
					},
					"external": {
						"": "2612",
						"addSubscriber(string)": "infinite",
						"author()": "2558",
						"getContractBalance()": "339",
						"getSubscriberCount()": "2460",
						"printSubscribersList()": "infinite",
						"subscriberCount()": "2495",
						"subscribers(uint256)": "infinite",
						"subscriptionFee()": "2430"
					}
				},
				"methodIdentifiers": {
					"addSubscriber(string)": "2edd4fa5",
					"author()": "a6c3e6b9",
					"getContractBalance()": "6f9fb98a",
					"getSubscriberCount()": "17e703ab",
					"printSubscribersList()": "82d69b62",
					"subscriberCount()": "ef352bbe",
					"subscribers(uint256)": "59221a68",
					"subscriptionFee()": "0aa0a175"
				}
			},
			"storageLayout": {
				"storage": [
					{
						"astId": 6,
						"contract": "contracts/myContract.sol:testContract",
						"label": "subscribers",
						"offset": 0,
						"slot": "0",
						"type": "t_mapping(t_uint256,t_struct(subscriber)14_storage)"
					},
					{
						"astId": 9,
						"contract": "contracts/myContract.sol:testContract",
						"label": "subscriberCount",
						"offset": 0,
						"slot": "1",
						"type": "t_uint256"
					},
					{
						"astId": 16,
						"contract": "contracts/myContract.sol:testContract",
						"label": "author",
						"offset": 0,
						"slot": "2",
						"type": "t_address"
					},
					{
						"astId": 18,
						"contract": "contracts/myContract.sol:testContract",
						"label": "subscriptionFee",
						"offset": 0,
						"slot": "3",
						"type": "t_uint256"
					}
				],
				"types": {
					"t_address": {
						"encoding": "inplace",
						"label": "address",
						"numberOfBytes": "20"
					},
					"t_mapping(t_uint256,t_struct(subscriber)14_storage)": {
						"encoding": "mapping",
						"key": "t_uint256",
						"label": "mapping(uint256 => struct testContract.subscriber)",
						"numberOfBytes": "32",
						"value": "t_struct(subscriber)14_storage"
					},
					"t_string_storage": {
						"encoding": "bytes",
						"label": "string",
						"numberOfBytes": "32"
					},
					"t_struct(subscriber)14_storage": {
						"encoding": "inplace",
						"label": "struct testContract.subscriber",
						"members": [
							{
								"astId": 11,
								"contract": "contracts/myContract.sol:testContract",
								"label": "name",
								"offset": 0,
								"slot": "0",
								"type": "t_string_storage"
							},
							{
								"astId": 13,
								"contract": "contracts/myContract.sol:testContract",
								"label": "addr",
								"offset": 0,
								"slot": "1",
								"type": "t_address"
							}
						],
						"numberOfBytes": "64"
					},
					"t_uint256": {
						"encoding": "inplace",
						"label": "uint256",
						"numberOfBytes": "32"
					}
				}
			},
			"userdoc": {
				"kind": "user",
				"methods": {},
				"version": 1
			}
		}
	}
}